{
  "address": "0x7527B072FEc2addC555B5ba4A95B870173085545",
  "abi": [
    {
      "anonymous": false,
      "inputs": [
        {
          "indexed": false,
          "internalType": "address",
          "name": "token",
          "type": "address"
        },
        {
          "indexed": false,
          "internalType": "uint256",
          "name": "amount",
          "type": "uint256"
        }
      ],
      "name": "AdminTokenRecovery",
      "type": "event"
    },
    {
      "anonymous": false,
      "inputs": [
        {
          "indexed": true,
          "internalType": "uint256",
          "name": "lotteryId",
          "type": "uint256"
        }
      ],
      "name": "LotteryClose",
      "type": "event"
    },
    {
      "anonymous": false,
      "inputs": [
        {
          "indexed": true,
          "internalType": "uint256",
          "name": "lotteryId",
          "type": "uint256"
        },
        {
          "indexed": false,
          "internalType": "uint256",
          "name": "injectedAmount",
          "type": "uint256"
        }
      ],
      "name": "LotteryInjection",
      "type": "event"
    },
    {
      "anonymous": false,
      "inputs": [
        {
          "indexed": true,
          "internalType": "uint256",
          "name": "lotteryId",
          "type": "uint256"
        },
        {
          "indexed": false,
          "internalType": "uint256",
          "name": "finalNumber",
          "type": "uint256"
        },
        {
          "indexed": false,
          "internalType": "uint256",
          "name": "countWinningTickets",
          "type": "uint256"
        }
      ],
      "name": "LotteryNumberDrawn",
      "type": "event"
    },
    {
      "anonymous": false,
      "inputs": [
        {
          "indexed": true,
          "internalType": "uint256",
          "name": "lotteryId",
          "type": "uint256"
        },
        {
          "indexed": false,
          "internalType": "uint256",
          "name": "startTime",
          "type": "uint256"
        },
        {
          "indexed": false,
          "internalType": "uint256",
          "name": "roundLength",
          "type": "uint256"
        },
        {
          "indexed": false,
          "internalType": "uint256",
          "name": "priceTicketInDegis",
          "type": "uint256"
        },
        {
          "indexed": false,
          "internalType": "uint256[4]",
          "name": "rewardsBreakdown",
          "type": "uint256[4]"
        },
        {
          "indexed": false,
          "internalType": "uint256",
          "name": "injectedAmount",
          "type": "uint256"
        }
      ],
      "name": "LotteryOpen",
      "type": "event"
    },
    {
      "anonymous": false,
      "inputs": [
        {
          "indexed": false,
          "internalType": "uint256",
          "name": "oldMaxNumber",
          "type": "uint256"
        },
        {
          "indexed": false,
          "internalType": "uint256",
          "name": "newMaxNumber",
          "type": "uint256"
        }
      ],
      "name": "MaxNumberTicketsEachTimeChanged",
      "type": "event"
    },
    {
      "anonymous": false,
      "inputs": [
        {
          "indexed": true,
          "internalType": "address",
          "name": "randomGenerator",
          "type": "address"
        }
      ],
      "name": "NewRandomGenerator",
      "type": "event"
    },
    {
      "anonymous": false,
      "inputs": [
        {
          "indexed": true,
          "internalType": "address",
          "name": "previousOwner",
          "type": "address"
        },
        {
          "indexed": true,
          "internalType": "address",
          "name": "newOwner",
          "type": "address"
        }
      ],
      "name": "OwnershipTransferred",
      "type": "event"
    },
    {
      "anonymous": false,
      "inputs": [
        {
          "indexed": false,
          "internalType": "uint256",
          "name": "oldRoundLength",
          "type": "uint256"
        },
        {
          "indexed": false,
          "internalType": "uint256",
          "name": "newRoundLength",
          "type": "uint256"
        }
      ],
      "name": "RoundLengthChanged",
      "type": "event"
    },
    {
      "anonymous": false,
      "inputs": [
        {
          "indexed": true,
          "internalType": "address",
          "name": "claimer",
          "type": "address"
        },
        {
          "indexed": false,
          "internalType": "uint256",
          "name": "amount",
          "type": "uint256"
        },
        {
          "indexed": true,
          "internalType": "uint256",
          "name": "lotteryId",
          "type": "uint256"
        }
      ],
      "name": "TicketsClaim",
      "type": "event"
    },
    {
      "anonymous": false,
      "inputs": [
        {
          "indexed": true,
          "internalType": "address",
          "name": "buyer",
          "type": "address"
        },
        {
          "indexed": true,
          "internalType": "uint256",
          "name": "lotteryId",
          "type": "uint256"
        },
        {
          "indexed": false,
          "internalType": "uint256",
          "name": "number",
          "type": "uint256"
        },
        {
          "indexed": false,
          "internalType": "uint256",
          "name": "totalPrice",
          "type": "uint256"
        }
      ],
      "name": "TicketsPurchased",
      "type": "event"
    },
    {
      "anonymous": false,
      "inputs": [
        {
          "indexed": false,
          "internalType": "address",
          "name": "oldTreasury",
          "type": "address"
        },
        {
          "indexed": false,
          "internalType": "address",
          "name": "newTreasury",
          "type": "address"
        }
      ],
      "name": "TreasuryChanged",
      "type": "event"
    },
    {
      "inputs": [],
      "name": "DEFAULT_PRICE",
      "outputs": [
        {
          "internalType": "uint256",
          "name": "",
          "type": "uint256"
        }
      ],
      "stateMutability": "view",
      "type": "function"
    },
    {
      "inputs": [],
      "name": "DISCOUNT_DIVISOR",
      "outputs": [
        {
          "internalType": "uint256",
          "name": "",
          "type": "uint256"
        }
      ],
      "stateMutability": "view",
      "type": "function"
    },
    {
      "inputs": [],
      "name": "DegisToken",
      "outputs": [
        {
          "internalType": "contract IERC20",
          "name": "",
          "type": "address"
        }
      ],
      "stateMutability": "view",
      "type": "function"
    },
    {
      "inputs": [],
      "name": "MAX_TICKET_NUMBER",
      "outputs": [
        {
          "internalType": "uint32",
          "name": "",
          "type": "uint32"
        }
      ],
      "stateMutability": "view",
      "type": "function"
    },
    {
      "inputs": [],
      "name": "MAX_TREASURY_FEE",
      "outputs": [
        {
          "internalType": "uint256",
          "name": "",
          "type": "uint256"
        }
      ],
      "stateMutability": "view",
      "type": "function"
    },
    {
      "inputs": [],
      "name": "MIN_TICKET_NUMBER",
      "outputs": [
        {
          "internalType": "uint32",
          "name": "",
          "type": "uint32"
        }
      ],
      "stateMutability": "view",
      "type": "function"
    },
    {
      "inputs": [
        {
          "internalType": "uint32",
          "name": "",
          "type": "uint32"
        }
      ],
      "name": "_bracketCalculator",
      "outputs": [
        {
          "internalType": "uint32",
          "name": "",
          "type": "uint32"
        }
      ],
      "stateMutability": "view",
      "type": "function"
    },
    {
      "inputs": [
        {
          "internalType": "uint256",
          "name": "",
          "type": "uint256"
        },
        {
          "internalType": "uint32",
          "name": "",
          "type": "uint32"
        }
      ],
      "name": "_numberTicketsPerLotteryId",
      "outputs": [
        {
          "internalType": "uint256",
          "name": "",
          "type": "uint256"
        }
      ],
      "stateMutability": "view",
      "type": "function"
    },
    {
      "inputs": [
        {
          "internalType": "uint256",
          "name": "_number",
          "type": "uint256"
        }
      ],
      "name": "_reverseTicketNumber",
      "outputs": [
        {
          "internalType": "uint32",
          "name": "",
          "type": "uint32"
        }
      ],
      "stateMutability": "pure",
      "type": "function"
    },
    {
      "inputs": [
        {
          "internalType": "address",
          "name": "",
          "type": "address"
        },
        {
          "internalType": "uint256",
          "name": "",
          "type": "uint256"
        },
        {
          "internalType": "uint256",
          "name": "",
          "type": "uint256"
        }
      ],
      "name": "_userTicketIds",
      "outputs": [
        {
          "internalType": "uint256",
          "name": "",
          "type": "uint256"
        }
      ],
      "stateMutability": "view",
      "type": "function"
    },
    {
      "inputs": [
        {
          "internalType": "uint32[]",
          "name": "_ticketNumbers",
          "type": "uint32[]"
        }
      ],
      "name": "buyTickets",
      "outputs": [],
      "stateMutability": "nonpayable",
      "type": "function"
    },
    {
      "inputs": [
        {
          "internalType": "address",
          "name": "_randomGeneratorAddress",
          "type": "address"
        }
      ],
      "name": "changeRandomGenerator",
      "outputs": [],
      "stateMutability": "nonpayable",
      "type": "function"
    },
    {
      "inputs": [
        {
          "internalType": "uint256",
          "name": "_lotteryId",
          "type": "uint256"
        }
      ],
      "name": "claimAllTickets",
      "outputs": [],
      "stateMutability": "nonpayable",
      "type": "function"
    },
    {
      "inputs": [
        {
          "internalType": "uint256",
          "name": "_lotteryId",
          "type": "uint256"
        },
        {
          "internalType": "uint256[]",
          "name": "_ticketIds",
          "type": "uint256[]"
        },
        {
          "internalType": "uint32[]",
          "name": "_brackets",
          "type": "uint32[]"
        }
      ],
      "name": "claimTickets",
      "outputs": [],
      "stateMutability": "nonpayable",
      "type": "function"
    },
    {
      "inputs": [
        {
          "internalType": "uint256",
          "name": "_lotteryId",
          "type": "uint256"
        }
      ],
      "name": "closeLottery",
      "outputs": [],
      "stateMutability": "nonpayable",
      "type": "function"
    },
    {
      "inputs": [],
      "name": "currentLotteryId",
      "outputs": [
        {
          "internalType": "uint256",
          "name": "",
          "type": "uint256"
        }
      ],
      "stateMutability": "view",
      "type": "function"
    },
    {
      "inputs": [],
      "name": "currentTicketId",
      "outputs": [
        {
          "internalType": "uint256",
          "name": "",
          "type": "uint256"
        }
      ],
      "stateMutability": "view",
      "type": "function"
    },
    {
      "inputs": [
        {
          "internalType": "uint256",
          "name": "_lotteryId",
          "type": "uint256"
        },
        {
          "internalType": "bool",
          "name": "_autoInjection",
          "type": "bool"
        }
      ],
      "name": "drawFinalNumberAndMakeLotteryClaimable",
      "outputs": [],
      "stateMutability": "nonpayable",
      "type": "function"
    },
    {
      "inputs": [
        {
          "internalType": "address",
          "name": "_degis",
          "type": "address"
        },
        {
          "internalType": "address",
          "name": "_randomGenerator",
          "type": "address"
        }
      ],
      "name": "initialize",
      "outputs": [],
      "stateMutability": "nonpayable",
      "type": "function"
    },
    {
      "inputs": [
        {
          "internalType": "uint256",
          "name": "_amount",
          "type": "uint256"
        }
      ],
      "name": "injectFunds",
      "outputs": [],
      "stateMutability": "nonpayable",
      "type": "function"
    },
    {
      "inputs": [
        {
          "internalType": "uint256",
          "name": "",
          "type": "uint256"
        }
      ],
      "name": "lotteries",
      "outputs": [
        {
          "internalType": "enum DegisLotteryV2.Status",
          "name": "status",
          "type": "uint8"
        },
        {
          "internalType": "uint32",
          "name": "treasuryFee",
          "type": "uint32"
        },
        {
          "internalType": "uint32",
          "name": "startTime",
          "type": "uint32"
        },
        {
          "internalType": "uint32",
          "name": "endTime",
          "type": "uint32"
        },
        {
          "internalType": "uint32",
          "name": "finalNumber",
          "type": "uint32"
        },
        {
          "internalType": "uint256",
          "name": "ticketPrice",
          "type": "uint256"
        },
        {
          "internalType": "uint256",
          "name": "firstTicketId",
          "type": "uint256"
        },
        {
          "internalType": "uint256",
          "name": "firstTicketIdNextRound",
          "type": "uint256"
        },
        {
          "internalType": "uint256",
          "name": "amountCollected",
          "type": "uint256"
        },
        {
          "internalType": "uint256",
          "name": "pendingRewards",
          "type": "uint256"
        }
      ],
      "stateMutability": "view",
      "type": "function"
    },
    {
      "inputs": [],
      "name": "maxNumberTicketsEachTime",
      "outputs": [
        {
          "internalType": "uint256",
          "name": "",
          "type": "uint256"
        }
      ],
      "stateMutability": "view",
      "type": "function"
    },
    {
      "inputs": [],
      "name": "owner",
      "outputs": [
        {
          "internalType": "address",
          "name": "",
          "type": "address"
        }
      ],
      "stateMutability": "view",
      "type": "function"
    },
    {
      "inputs": [],
      "name": "pendingInjectionNextLottery",
      "outputs": [
        {
          "internalType": "uint256",
          "name": "",
          "type": "uint256"
        }
      ],
      "stateMutability": "view",
      "type": "function"
    },
    {
      "inputs": [],
      "name": "randomGenerator",
      "outputs": [
        {
          "internalType": "contract IRandomNumberGenerator",
          "name": "",
          "type": "address"
        }
      ],
      "stateMutability": "view",
      "type": "function"
    },
    {
      "inputs": [
        {
          "internalType": "address",
          "name": "_tokenAddress",
          "type": "address"
        },
        {
          "internalType": "uint256",
          "name": "_tokenAmount",
          "type": "uint256"
        }
      ],
      "name": "recoverWrongTokens",
      "outputs": [],
      "stateMutability": "nonpayable",
      "type": "function"
    },
    {
      "inputs": [],
      "name": "renounceOwnership",
      "outputs": [],
      "stateMutability": "nonpayable",
      "type": "function"
    },
    {
      "inputs": [
        {
          "internalType": "uint256",
          "name": "",
          "type": "uint256"
        }
      ],
      "name": "rewardsBreakdown",
      "outputs": [
        {
          "internalType": "uint256",
          "name": "",
          "type": "uint256"
        }
      ],
      "stateMutability": "view",
      "type": "function"
    },
    {
      "inputs": [],
      "name": "roundLength",
      "outputs": [
        {
          "internalType": "uint256",
          "name": "",
          "type": "uint256"
        }
      ],
      "stateMutability": "view",
      "type": "function"
    },
    {
      "inputs": [
        {
          "internalType": "uint256",
          "name": "_maxNumber",
          "type": "uint256"
        }
      ],
      "name": "setMaxNumberTicketsEachTime",
      "outputs": [],
      "stateMutability": "nonpayable",
      "type": "function"
    },
    {
      "inputs": [
        {
          "internalType": "uint256",
          "name": "_length",
          "type": "uint256"
        }
      ],
      "name": "setRoundLength",
      "outputs": [],
      "stateMutability": "nonpayable",
      "type": "function"
    },
    {
      "inputs": [
        {
          "internalType": "address",
          "name": "_treasury",
          "type": "address"
        }
      ],
      "name": "setTreasury",
      "outputs": [],
      "stateMutability": "nonpayable",
      "type": "function"
    },
    {
      "inputs": [],
      "name": "startLottery",
      "outputs": [],
      "stateMutability": "nonpayable",
      "type": "function"
    },
    {
      "inputs": [
        {
          "internalType": "uint256",
          "name": "",
          "type": "uint256"
        }
      ],
      "name": "tickets",
      "outputs": [
        {
          "internalType": "uint32",
          "name": "number",
          "type": "uint32"
        },
        {
          "internalType": "address",
          "name": "owner",
          "type": "address"
        }
      ],
      "stateMutability": "view",
      "type": "function"
    },
    {
      "inputs": [
        {
          "internalType": "address",
          "name": "newOwner",
          "type": "address"
        }
      ],
      "name": "transferOwnership",
      "outputs": [],
      "stateMutability": "nonpayable",
      "type": "function"
    },
    {
      "inputs": [],
      "name": "treasury",
      "outputs": [
        {
          "internalType": "address",
          "name": "",
          "type": "address"
        }
      ],
      "stateMutability": "view",
      "type": "function"
    },
    {
      "inputs": [],
      "name": "treasuryFee",
      "outputs": [
        {
          "internalType": "uint256",
          "name": "",
          "type": "uint256"
        }
      ],
      "stateMutability": "view",
      "type": "function"
    },
    {
      "inputs": [
        {
          "internalType": "address",
          "name": "",
          "type": "address"
        },
        {
          "internalType": "uint256",
          "name": "",
          "type": "uint256"
        }
      ],
      "name": "userClaimed",
      "outputs": [
        {
          "internalType": "uint256",
          "name": "",
          "type": "uint256"
        }
      ],
      "stateMutability": "view",
      "type": "function"
    },
    {
      "inputs": [
        {
          "internalType": "uint256",
          "name": "_startId",
          "type": "uint256"
        },
        {
          "internalType": "uint256",
          "name": "_endId",
          "type": "uint256"
        }
      ],
      "name": "viewAllLottery",
      "outputs": [
        {
          "components": [
            {
              "internalType": "enum DegisLotteryV2.Status",
              "name": "status",
              "type": "uint8"
            },
            {
              "internalType": "uint32",
              "name": "treasuryFee",
              "type": "uint32"
            },
            {
              "internalType": "uint32",
              "name": "startTime",
              "type": "uint32"
            },
            {
              "internalType": "uint32",
              "name": "endTime",
              "type": "uint32"
            },
            {
              "internalType": "uint32",
              "name": "finalNumber",
              "type": "uint32"
            },
            {
              "internalType": "uint256",
              "name": "ticketPrice",
              "type": "uint256"
            },
            {
              "internalType": "uint256[4]",
              "name": "rewardsBreakdown",
              "type": "uint256[4]"
            },
            {
              "internalType": "uint256[4]",
              "name": "rewardPerTicketInBracket",
              "type": "uint256[4]"
            },
            {
              "internalType": "uint256[4]",
              "name": "countWinnersPerBracket",
              "type": "uint256[4]"
            },
            {
              "internalType": "uint256",
              "name": "firstTicketId",
              "type": "uint256"
            },
            {
              "internalType": "uint256",
              "name": "firstTicketIdNextRound",
              "type": "uint256"
            },
            {
              "internalType": "uint256",
              "name": "amountCollected",
              "type": "uint256"
            },
            {
              "internalType": "uint256",
              "name": "pendingRewards",
              "type": "uint256"
            }
          ],
          "internalType": "struct DegisLotteryV2.Lottery[]",
          "name": "",
          "type": "tuple[]"
        }
      ],
      "stateMutability": "view",
      "type": "function"
    },
    {
      "inputs": [
        {
          "internalType": "uint256[]",
          "name": "_ticketIds",
          "type": "uint256[]"
        }
      ],
      "name": "viewNumbersPerTicketId",
      "outputs": [
        {
          "internalType": "uint32[]",
          "name": "",
          "type": "uint32[]"
        }
      ],
      "stateMutability": "view",
      "type": "function"
    },
    {
      "inputs": [
        {
          "internalType": "uint256",
          "name": "_lotteryId",
          "type": "uint256"
        }
      ],
      "name": "viewRewardPerTicketInBracket",
      "outputs": [
        {
          "internalType": "uint256[4]",
          "name": "",
          "type": "uint256[4]"
        }
      ],
      "stateMutability": "view",
      "type": "function"
    },
    {
      "inputs": [
        {
          "internalType": "uint256",
          "name": "_lotteryId",
          "type": "uint256"
        }
      ],
      "name": "viewRewardsBreakdown",
      "outputs": [
        {
          "internalType": "uint256[4]",
          "name": "",
          "type": "uint256[4]"
        }
      ],
      "stateMutability": "view",
      "type": "function"
    },
    {
      "inputs": [
        {
          "internalType": "uint256",
          "name": "_lotteryId",
          "type": "uint256"
        },
        {
          "internalType": "uint256",
          "name": "_ticketId",
          "type": "uint256"
        }
      ],
      "name": "viewRewardsForTicketId",
      "outputs": [
        {
          "internalType": "uint256",
          "name": "",
          "type": "uint256"
        }
      ],
      "stateMutability": "view",
      "type": "function"
    },
    {
      "inputs": [
        {
          "internalType": "address",
          "name": "_user",
          "type": "address"
        },
        {
          "internalType": "uint256",
          "name": "_startRound",
          "type": "uint256"
        },
        {
          "internalType": "uint256",
          "name": "_endRound",
          "type": "uint256"
        }
      ],
      "name": "viewUserRewards",
      "outputs": [
        {
          "internalType": "uint256[]",
          "name": "userRewards",
          "type": "uint256[]"
        }
      ],
      "stateMutability": "view",
      "type": "function"
    },
    {
      "inputs": [
        {
          "internalType": "address",
          "name": "_wallet",
          "type": "address"
        },
        {
          "internalType": "uint256",
          "name": "_lotteryId",
          "type": "uint256"
        }
      ],
      "name": "viewWalletTicketIds",
      "outputs": [
        {
          "internalType": "uint256[]",
          "name": "",
          "type": "uint256[]"
        }
      ],
      "stateMutability": "view",
      "type": "function"
    },
    {
      "inputs": [
        {
          "internalType": "uint256",
          "name": "_lotteryId",
          "type": "uint256"
        }
      ],
      "name": "viewWinnerAmount",
      "outputs": [
        {
          "internalType": "uint256[4]",
          "name": "",
          "type": "uint256[4]"
        }
      ],
      "stateMutability": "view",
      "type": "function"
    }
  ],
  "transactionHash": "0x06323f0c373b90b2989e87325538c728a079d0456d4805247e2eefdacd191601",
  "args": [],
  "numDeployments": 1,
  "solcInputHash": "42cd519a5a6ec46981e8ea3ba8651971",
  "bytecode": "0x608060405234801561001057600080fd5b50614249806100206000396000f3fe608060405234801561001057600080fd5b506004361061030a5760003560e01c80636fa053eb1161019c578063b5877b22116100ee578063e1059fe511610097578063f2b3c80911610071578063f2b3c80914610718578063f2fde38b14610721578063fcbf8b241461073457600080fd5b8063e1059fe5146106df578063e359ebec146106f2578063f0f442601461070557600080fd5b8063c914914f116100c8578063c914914f146106b0578063cc32d176146106c3578063dcbad90d146106cc57600080fd5b8063b5877b221461066a578063c38de5391461068a578063c6e761a91461069d57600080fd5b80638da5cb5b1161015057806398359fa11161012a57806398359fa11461061e5780639d8ca53114610631578063b46e130e1461064457600080fd5b80638da5cb5b146105da578063972fe683146105eb57806397ff1cac1461060b57600080fd5b80637250e45d116101815780637250e45d1461059d5780637741879b146105a65780638b649b94146105d157600080fd5b80636fa053eb14610582578063715018a61461059557600080fd5b806344848a9911610260578063656f8a2511610209578063686465b8116101e3578063686465b81461055d5780636bcac0ff146105665780636be4097c1461057957600080fd5b8063656f8a251461052257806365dc59d61461052a578063681312f51461054a57600080fd5b80635745464b1161023a5780635745464b146104cf5780635b0d64c2146104e257806361d027b31461050257600080fd5b806344848a9914610462578063485cc9551461047557806350b447121461048857600080fd5b80631b6c743b116102c257806326df6c271161029c57806326df6c271461041c5780633732b4ee1461042f5780633f138d4b1461044f57600080fd5b80631b6c743b146103e75780631e6425fd146103f65780632149485d1461040957600080fd5b80631398e076116102f35780631398e0761461033757806314a0792f146103c7578063160344e2146103dd57600080fd5b80630ab2b0861461030f57806312a9769d1461032e575b600080fd5b610318609c5481565b6040516103259190612e3c565b60405180910390f35b610318609d5481565b6103b1610345366004612e62565b609e60205260009081526040902080546001820154600e830154600f840154601085015460119095015460ff85169563ffffffff610100870481169665010000000000810482169669010000000000000000008204831696600160681b9092049092169491939092908a565b6040516103259a99989796959493929190612ed8565b6103d061271081565b6040516103259190612f6d565b6103e561075f565b005b610318678ac7230489e8000081565b6103e5610404366004612e62565b6108e3565b610318610417366004612f7b565b61094d565b61031861042a366004612fdd565b6109e0565b61044261043d366004612e62565b610a1e565b6040516103259190613076565b6103e561045d366004613084565b610a6d565b6103e5610470366004612e62565b610b74565b6103e56104833660046130a6565b610e36565b6104c1610496366004612e62565b609f6020526000908152604090205463ffffffff81169064010000000090046001600160a01b031682565b6040516103259291906130e2565b6103d06104dd366004612e62565b610fdb565b6104f56104f036600461314f565b61104a565b60405161032591906131e8565b609954610515906001600160a01b031681565b60405161032591906131f9565b610318606281565b60975461053d906001600160a01b031681565b6040516103259190613249565b6103e5610558366004612e62565b611120565b610318609b5481565b610442610574366004612e62565b6111aa565b610318609a5481565b610442610590366004612e62565b6111f8565b6103e5611246565b6103d0614e1f81565b6103186105b436600461326e565b60a060209081526000928352604080842090915290825290205481565b61031860a95481565b6065546001600160a01b0316610515565b6105fe6105f9366004612f7b565b61127c565b6040516103259190613416565b610318610619366004612e62565b6114a2565b6103e561062c366004613427565b6114b9565b6103e561063f366004612e62565b611635565b6103d0610652366004613448565b60a26020526000908152604090205463ffffffff1681565b61067d610678366004612fdd565b61178e565b60405161032591906134a6565b6103e56106983660046134ca565b6119c3565b61067d6106ab366004613084565b611f14565b6103e56106be3660046134fd565b611f89565b61031860a45481565b60985461053d906001600160a01b031681565b6103e56106ed36600461314f565b612378565b6103e5610700366004612e62565b6127a0565b6103e5610713366004613427565b6128bf565b6103186107d081565b6103e561072f366004613427565b61295f565b610318610742366004613084565b60a360209081526000928352604080842090915290825290205481565b609a54158061079357506003609a546000908152609e602052604090205460ff16600381111561079157610791612e83565b145b6107b85760405162461bcd60e51b81526004016107af906135bf565b60405180910390fd5b6000609a600081546107c9906135e5565b91829055506000818152609e60205260409020805468ffffffff00000000ff1916650100000000004263ffffffff81169190910291909117600117825560a9549293509091610817916135fe565b815463ffffffff919091166901000000000000000000026cffffffff00000000000000000019909116178155678ac7230489e8000060018201556108616002820160a56004612d4b565b5060a454815464ffffffff00191660ff90911661010002178155609d80546010830155609b54600e83015560a954905460405184927f5e7c17be0c6c11472c23d5df180e5136efb90395ccff56f1fcfb8db6b5a0a235926108d292429291678ac7230489e800009160a5919061365a565b60405180910390a250506000609d55565b6065546001600160a01b0316331461090d5760405162461bcd60e51b81526004016107af906136d7565b7f67d06ff5b9d79811174a2f0df6d9be98aa3b3f9ae311716140cb1b0668c11843609c54826040516109409291906136e7565b60405180910390a1609c55565b600060036000848152609e602052604090205460ff16600381111561097457610974612e83565b14610981575060006109da565b6000838152609e60205260409020600f01548211806109b057506000838152609e60205260409020600e015482105b156109bd575060006109da565b60006109c984846129bb565b90506109d6848483612a69565b9150505b92915050565b60a16020528260005260406000206020528160005260406000208181548110610a0857600080fd5b9060005260206000200160009250925050505481565b610a26612d86565b6000828152609e60205260409081902081516080810190925260020160048282826020028201915b815481526020019060010190808311610a4e5750505050509050919050565b6065546001600160a01b03163314610a975760405162461bcd60e51b81526004016107af906136d7565b6097546001600160a01b0390811690831603610ac55760405162461bcd60e51b81526004016107af90613734565b60405163a9059cbb60e01b81526001600160a01b0383169063a9059cbb90610af39033908590600401613744565b6020604051808303816000875af1158015610b12573d6000803e3d6000fd5b505050506040513d601f19601f82011682018060405250810190610b36919061375d565b507f74545154aac348a3eac92596bd1971957ca94795f4e954ec5f613b55fab781298282604051610b68929190613744565b60405180910390a15050565b333b15610b935760405162461bcd60e51b81526004016107af906137b0565b333214610bb25760405162461bcd60e51b81526004016107af906137f2565b600260015403610bd45760405162461bcd60e51b81526004016107af90613834565b600260015560036000828152609e602052604090205460ff166003811115610bfe57610bfe612e83565b14610c1b5760405162461bcd60e51b81526004016107af90613876565b33600090815260a160209081526040808320848452909152812054815b81811015610d315733600090815260a1602090815260408083208784529091528120805483908110610c6c57610c6c613886565b600091825260208083209190910154808352609f90915260409091205490915064010000000090046001600160a01b03163314610cbb5760405162461bcd60e51b81526004016107af906138ce565b6000818152609f6020526040812080547fffffffffffffffff0000000000000000000000000000000000000000ffffffff169055610cf986836129bb565b905060048163ffffffff161015610d27576000610d17878484612a69565b9050610d2381876135fe565b9550505b5050600101610c38565b508115610dd55760975460405163a9059cbb60e01b81526001600160a01b039091169063a9059cbb90610d6a9033908690600401613744565b6020604051808303816000875af1158015610d89573d6000803e3d6000fd5b505050506040513d601f19601f82011682018060405250810190610dad919061375d565b506000838152609e602052604081206011018054849290610dcf9084906138de565b90915550505b33600081815260a36020908152604080832087845290915290819020839055518491907f0fdeb33b5931b477077383757e0ba077bd3d8eddfa2cc711c54ad2d3a0cfac6590610e25908690612e3c565b60405180910390a350506001805550565b600054610100900460ff16610e515760005460ff1615610e55565b303b155b610e715760405162461bcd60e51b81526004016107af90613953565b600054610100900460ff16158015610e93576000805461ffff19166101011790555b610e9b612b6b565b610ea3612b9a565b609780546001600160a01b0385811673ffffffffffffffffffffffffffffffffffffffff19928316179092556098805492851692909116919091179055600a609c5560a26020527f8fa6f0ecb9543d3381552e96aa43533c7f086066e38816919ea0cfae371b342a805463ffffffff1990811660019081179092557f87286cc7b9cf8a377e677776b2644ce858185998d33108f493bdc3c2f07b983680548216600b1790557f984fb507cc15174c9c2666d8998832bf192b808658c1b8547c17c86e40ea581480548216606f17905560036000527f4ed878d3ddcb61d84861a74cb3bb4189ee298a8a85e8f1b99bcffb157f7e18848054909116610457179055609b556103e860a5556107d060a655610bb860a755610fa060a8556101f460a4558015610fd6576000805461ff00191690555b505050565b600080610fea612710846138de565b9050600080805b600481101561103457611005600a85613979565b92508261101383600a613991565b61101d91906135fe565b915061102a600a856139b0565b9350600101610ff1565b50611041816127106135fe565b95945050505050565b60608160008167ffffffffffffffff811115611068576110686139c4565b604051908082528060200260200182016040528015611091578160200160208202803683370190505b50905060005b8281101561111757609f60008787848181106110b5576110b5613886565b90506020020135815260200190815260200160002060000160009054906101000a900463ffffffff168282815181106110f0576110f0613886565b63ffffffff909216602092830291909101909101528061110f816135e5565b915050611097565b50949350505050565b6065546001600160a01b0316331461114a5760405162461bcd60e51b81526004016107af906136d7565b6000811161116a5760405162461bcd60e51b81526004016107af90613a0c565b7f93c17a9084c0de51612f63840cc02149425a4bc661e39230c8ca5d4d121f6fb060a9548260405161119d9291906136e7565b60405180910390a160a955565b6111b2612d86565b6000828152609e6020526040908190208151608081019092526006016004828282602002820191815481526020019060010190808311610a4e5750505050509050919050565b611200612d86565b6000828152609e602052604090819020815160808101909252600a016004828282602002820191815481526020019060010190808311610a4e5750505050509050919050565b6065546001600160a01b031633146112705760405162461bcd60e51b81526004016107af906136d7565b61127a6000612bc7565b565b6060600061128a84846138de565b6112959060016135fe565b67ffffffffffffffff8111156112ad576112ad6139c4565b6040519080825280602002602001820160405280156112e657816020015b6112d3612da4565b8152602001906001900390816112cb5790505b509050835b83811161149a576000818152609e60205260409081902081516101a081019092528054829060ff16600381111561132457611324612e83565b600381111561133557611335612e83565b8152815463ffffffff61010082048116602084015265010000000000820481166040808501919091526901000000000000000000830482166060850152600160681b90920416608080840191909152600184015460a084015281519081019182905260c09092019190600284019060049082845b8154815260200190600101908083116113a957505050918352505060408051608081019182905260209092019190600684019060049082845b8154815260200190600101908083116113e257505050918352505060408051608081019182905260209092019190600a84019060049082845b81548152602001906001019080831161141b575050509183525050600e8201546020820152600f8201546040820152601082015460608201526011909101546080909101528261146c6001846138de565b8151811061147c5761147c613886565b60200260200101819052508080611492906135e5565b9150506112eb565b509392505050565b60a581600481106114b257600080fd5b0154905081565b6065546001600160a01b031633146114e35760405162461bcd60e51b81526004016107af906136d7565b6003609a546000908152609e602052604090205460ff16600381111561150b5761150b612e83565b146115285760405162461bcd60e51b81526004016107af90613876565b806001600160a01b031663e0c862896040518163ffffffff1660e01b8152600401600060405180830381600087803b15801561156357600080fd5b505af1158015611577573d6000803e3d6000fd5b50505050806001600160a01b03166342619f666040518163ffffffff1660e01b8152600401602060405180830381865afa1580156115b9573d6000803e3d6000fd5b505050506040513d601f19601f820116820180604052508101906115dd9190613a27565b506098805473ffffffffffffffffffffffffffffffffffffffff19166001600160a01b0383169081179091556040517f383f8cb39dfa7c3fb901a460dd449ea924868f0a92ff03da64740fffa5f1de6290600090a250565b6002600154036116575760405162461bcd60e51b81526004016107af90613834565b600260019081556000828152609e602052604090205460ff16600381111561168157611681612e83565b1461169e5760405162461bcd60e51b81526004016107af90613aa0565b6000818152609e60205260409020546901000000000000000000900463ffffffff1642116116de5760405162461bcd60e51b81526004016107af90613ae2565b609860009054906101000a90046001600160a01b03166001600160a01b031663e0c862896040518163ffffffff1660e01b8152600401600060405180830381600087803b15801561172e57600080fd5b505af1158015611742573d6000803e3d6000fd5b5050506000828152609e6020526040808220805460ff19166002179055518392507f8bc84e5d97533c428862626ac41fe7bc09b1ea2ed5e9e330d84092db8df153669190a25060018055565b606061179a83836138de565b6117a59060016135fe565b67ffffffffffffffff8111156117bd576117bd6139c4565b6040519080825280602002602001820160405280156117e6578160200160208202803683370190505b509050825b82811161149a576001600160a01b038516600090815260a160209081526040808320848452825291829020548251808401909352600f83527f7469636b657420616d6f756e743a20000000000000000000000000000000000091830191909152906118569082612c26565b6118956040518060400160405280600a81526020017f67617320757365643a20000000000000000000000000000000000000000000008152505a612c26565b80156119ba576001600160a01b038616600090815260a16020908152604080832085845282528083208054825181850281018501909352808352919290919083018282801561190357602002820191906000526020600020905b8154815260200190600101908083116118ef575b5050505050905060005b828110156119b757600061193a8584848151811061192d5761192d613886565b602002602001015161094d565b905080866119496001886138de565b8151811061195957611959613886565b6020026020010181815161196d91906135fe565b90525060408051808201909152600781527f7265776172643a0000000000000000000000000000000000000000000000000060208201526119ae9082612c26565b5060010161190d565b50505b506001016117eb565b6002600154036119e55760405162461bcd60e51b81526004016107af90613834565b600260018190556000838152609e602052604090205460ff166003811115611a0f57611a0f612e83565b14611a2c5760405162461bcd60e51b81526004016107af90613b24565b609860009054906101000a90046001600160a01b03166001600160a01b031663eed8e1ee6040518163ffffffff1660e01b8152600401602060405180830381865afa158015611a7f573d6000803e3d6000fd5b505050506040513d601f19601f82011682018060405250810190611aa39190613a27565b8214611ac15760405162461bcd60e51b81526004016107af90613b66565b6099546001600160a01b0316611ae95760405162461bcd60e51b81526004016107af90613ba8565b609854604080517f42619f6600000000000000000000000000000000000000000000000000000000815290516000926001600160a01b0316916342619f669160048083019260209291908290030181865afa158015611b4c573d6000803e3d6000fd5b505050506040513d601f19601f82011682018060405250810190611b709190613a27565b6000848152609e6020526040812060108101549293509190612710611b9783611f40613991565b611ba191906139b0565b835490915060009061271090611bc490610100900463ffffffff166107d0613bb8565b611bd49063ffffffff1685613991565b611bde91906139b0565b9050600081611bed84866138de565b611bf791906138de565b90506000805b60048163ffffffff161015611df8576000611c19826003613bb8565b90506000611c28826001613bc8565b611c3390600a613d00565b611c3d908b613d23565b63ffffffff808416600090815260a26020526040902054611c5f929116613bc8565b60008d815260a06020908152604080832063ffffffff85168452909152902054909150611c8c85826138de565b8a600a018463ffffffff1660048110611ca757611ca7613886565b0155808514611d8b57896002018363ffffffff1660048110611ccb57611ccb613886565b015415611d8657612710611cdf86836138de565b898c6002018663ffffffff1660048110611cfb57611cfb613886565b0154611d079190613991565b611d1191906139b0565b611d1b91906139b0565b8a6006018463ffffffff1660048110611d3657611d36613886565b01556127108860028c0163ffffffff861660048110611d5757611d57613886565b0154611d639190613991565b611d6d91906139b0565b8a6011016000828254611d8091906135fe565b90915550505b611dec565b60008a6006018463ffffffff1660048110611da857611da8613886565b01556127108860028c0163ffffffff861660048110611dc957611dc9613886565b0154611dd59190613991565b611ddf91906139b0565b611de990886135fe565b96505b93505050600101611bfd565b5085547fffffffffffffffffffffffffffffff00000000ffffffffffffffffffffffff001660ff19600160681b63ffffffff8a160216176003178655609b54600f8701558715611e4857609d8390555b8115611ec95760975460995460405163a9059cbb60e01b81526001600160a01b039283169263a9059cbb92611e84929116908690600401613744565b6020604051808303816000875af1158015611ea3573d6000803e3d6000fd5b505050506040513d601f19601f82011682018060405250810190611ec7919061375d565b505b609a547f98e31a6607b8b15b4d5b91de54f4c09ffe4c4cf162aa532c70b5213754e2e7038883604051611efd929190613d4e565b60405180910390a250506001805550505050505050565b6001600160a01b038216600090815260a1602090815260408083208484528252808320805482518185028101850190935280835260609493830182828015611f7b57602002820191906000526020600020905b815481526020019060010190808311611f67575b509398975050505050505050565b333b15611fa85760405162461bcd60e51b81526004016107af906137b0565b333214611fc75760405162461bcd60e51b81526004016107af906137f2565b600260015403611fe95760405162461bcd60e51b81526004016107af90613834565b600260015560036000868152609e602052604090205460ff16600381111561201357612013612e83565b146120305760405162461bcd60e51b81526004016107af90613876565b828181146120505760405162461bcd60e51b81526004016107af90613d8e565b600081116120705760405162461bcd60e51b81526004016107af90613dd0565b609c548111156120925760405162461bcd60e51b81526004016107af90613e12565b6000868152609e60205260408120815b838110156122555760008888838181106120be576120be613886565b90506020020135905082600e01548110156120eb5760405162461bcd60e51b81526004016107af90613e54565b82600f0154811061210e5760405162461bcd60e51b81526004016107af90613e96565b6000818152609f602052604090205464010000000090046001600160a01b0316331461214c5760405162461bcd60e51b81526004016107af90613efe565b6000818152609f6020526040812080547fffffffffffffffff0000000000000000000000000000000000000000ffffffff1690556121b18b838a8a8781811061219757612197613886565b90506020020160208101906121ac9190613448565b612a69565b905060038888858181106121c7576121c7613886565b90506020020160208101906121dc9190613448565b63ffffffff16101561223c5761221f8b838a8a878181106121ff576121ff613886565b90506020020160208101906122149190613448565b6121ac906001613bc8565b1561223c5760405162461bcd60e51b81526004016107af90613f40565b61224681866135fe565b945082600101925050506120a2565b5033600090815260a3602090815260408083208b8452909152812080548592906122809084906135fe565b90915550508115612328576000888152609e6020526040812060110180548492906122ac9084906138de565b909155505060975460405163a9059cbb60e01b81526001600160a01b039091169063a9059cbb906122e39033908690600401613744565b6020604051808303816000875af1158015612302573d6000803e3d6000fd5b505050506040513d601f19601f82011682018060405250810190612326919061375d565b505b87336001600160a01b03167f0fdeb33b5931b477077383757e0ba077bd3d8eddfa2cc711c54ad2d3a0cfac65846040516123629190612e3c565b60405180910390a3505060018055505050505050565b333b156123975760405162461bcd60e51b81526004016107af906137b0565b3332146123b65760405162461bcd60e51b81526004016107af906137f2565b6002600154036123d85760405162461bcd60e51b81526004016107af90613834565b600260015580806123fb5760405162461bcd60e51b81526004016107af90613f82565b609c5481111561241d5760405162461bcd60e51b81526004016107af90613fc4565b609a546000818152609e60205260409020906001825460ff16600381111561244757612447612e83565b146124645760405162461bcd60e51b81526004016107af90614006565b6000612474836001015485612c9d565b6097546040516323b872dd60e01b81529192506001600160a01b0316906323b872dd906124a990339030908690600401614016565b6020604051808303816000875af11580156124c8573d6000803e3d6000fd5b505050506040513d601f19601f820116820180604052508101906124ec919061375d565b506000828152609e60205260408120601001805483929061250e9084906135fe565b90915550600090505b8481101561274f57600087878381811061253357612533613886565b90506020020160208101906125489190613448565b905061271063ffffffff82161080159061256a5750614e1f63ffffffff821611155b6125865760405162461bcd60e51b81526004016107af90614078565b600084815260a060205260408120906125a0600a84613d23565b6125ab906001613bc8565b63ffffffff1663ffffffff168152602001908152602001600020600081546125d2906135e5565b90915550600084815260a060205260408120906125f0606484613d23565b6125fb90600b613bc8565b63ffffffff1663ffffffff16815260200190815260200160002060008154612622906135e5565b90915550600084815260a060205260408120906126416103e884613d23565b61264c90606f613bc8565b63ffffffff1663ffffffff16815260200190815260200160002060008154612673906135e5565b90915550600084815260a0602052604081209061269261271084613d23565b61269e90610457613bc8565b63ffffffff1663ffffffff168152602001908152602001600020600081546126c5906135e5565b90915550609b805433600081815260a1602090815260408083208a8452825280832080546001818101835591855283852001869055948352609f909152902080546401000000009092027fffffffffffffffff00000000000000000000000000000000000000000000000090921663ffffffff909516949094171790925580548201905501612517565b5081336001600160a01b03167fc7c1448de202b1838ad1d7fae75dbd69dc79f98d656f7b30f08dc451c9ab7ff8868460405161278c9291906136e7565b60405180910390a350506001805550505050565b609a5460016000828152609e602052604090205460ff1660038111156127c8576127c8612e83565b146127e55760405162461bcd60e51b81526004016107af90614006565b6000818152609e6020526040812060100180548492906128069084906135fe565b90915550506097546040516323b872dd60e01b81526001600160a01b03909116906323b872dd9061283f90339030908790600401614016565b6020604051808303816000875af115801561285e573d6000803e3d6000fd5b505050506040513d601f19601f82011682018060405250810190612882919061375d565b50807f1bbd659dd628a25f7ff2eabb69c74a56939c539728282275c1c9c1a2d3e34049836040516128b39190612e3c565b60405180910390a25050565b6065546001600160a01b031633146128e95760405162461bcd60e51b81526004016107af906136d7565b6099546040517f8c3aa5f43a388513435861bf27dfad7829cd248696fed367c62d441f6295449691612928916001600160a01b03909116908490614088565b60405180910390a16099805473ffffffffffffffffffffffffffffffffffffffff19166001600160a01b0392909216919091179055565b6065546001600160a01b031633146129895760405162461bcd60e51b81526004016107af906136d7565b6001600160a01b0381166129af5760405162461bcd60e51b81526004016107af906140ee565b6129b881612bc7565b50565b6000818152609f6020908152604080832054858452609e9092529091205460049163ffffffff90811691600160681b90041660015b60048163ffffffff1611612a6057612a0981600a613d00565b612a139084613d23565b63ffffffff16612a2482600a613d00565b612a2e9084613d23565b63ffffffff1603612a4b57612a44600182613bb8565b9350612a50565b612a60565b612a59816140fe565b90506129f0565b50505092915050565b6000828152609f6020908152604080832054868452609e90925282205463ffffffff91821691600160681b9091041682612aa4856001613bc8565b612aaf90600a613d00565b90506000612abd8284613d23565b63ffffffff808816600090815260a26020526040902054612adf929116613bc8565b90506000612aed8386613d23565b63ffffffff808916600090815260a26020526040902054612b0f929116613bc8565b90508063ffffffff168263ffffffff1603612b5a576000898152609e6020526040902060060163ffffffff881660048110612b4c57612b4c613886565b015495505050505050612b64565b6000955050505050505b9392505050565b600054610100900460ff16612b925760405162461bcd60e51b81526004016107af90614172565b61127a612cfa565b600054610100900460ff16612bc15760405162461bcd60e51b81526004016107af90614172565b60018055565b606580546001600160a01b0383811673ffffffffffffffffffffffffffffffffffffffff19831681179093556040519116919082907f8be0079c531659141344cd1fd0a4f28419497f9722a3daafe3b4186f6b6457e090600090a35050565b612c998282604051602401612c3c9291906141e4565b60408051601f198184030181529190526020810180517bffffffffffffffffffffffffffffffffffffffffffffffffffffffff167f9710a9d000000000000000000000000000000000000000000000000000000000179052612d2a565b5050565b60006001821115612cf3576000612cb56001846138de565b9050612cc2816064614204565b612ccd826062614204565b612cd78587613991565b612ce19190613991565b612ceb91906139b0565b9150506109da565b5090919050565b600054610100900460ff16612d215760405162461bcd60e51b81526004016107af90614172565b61127a33612bc7565b80516a636f6e736f6c652e6c6f67602083016000808483855afa5050505050565b8260048101928215612d76579182015b82811115612d76578254825591600101919060010190612d5b565b50612d82929150612e1f565b5090565b60405180608001604052806004906020820280368337509192915050565b604080516101a08101909152806000815260006020820181905260408201819052606082018190526080820181905260a082015260c001612de3612d86565b8152602001612df0612d86565b8152602001612dfd612d86565b8152602001600081526020016000815260200160008152602001600081525090565b5b80821115612d825760008155600101612e20565b805b82525050565b602081016109da8284612e34565b805b81146129b857600080fd5b80356109da81612e4a565b600060208284031215612e7757612e77600080fd5b60006109d68484612e57565b634e487b7160e01b600052602160045260246000fd5b600481106129b8576129b8612e83565b80612eb381612e99565b919050565b60006109da82612ea9565b612e3681612eb8565b63ffffffff8116612e36565b6101408101612ee7828d612ec3565b612ef4602083018c612ecc565b612f01604083018b612ecc565b612f0e606083018a612ecc565b612f1b6080830189612ecc565b612f2860a0830188612e34565b612f3560c0830187612e34565b612f4260e0830186612e34565b612f50610100830185612e34565b612f5e610120830184612e34565b9b9a5050505050505050505050565b602081016109da8284612ecc565b60008060408385031215612f9157612f91600080fd5b6000612f9d8585612e57565b9250506020612fae85828601612e57565b9150509250929050565b60006001600160a01b0382166109da565b612e4c81612fb8565b80356109da81612fc9565b600080600060608486031215612ff557612ff5600080fd5b60006130018686612fd2565b935050602061301286828701612e57565b925050604061302386828701612e57565b9150509250925092565b6130378282612e34565b5060200190565b60200190565b60048160005b8281101561306f57815161305e868261302d565b95505060208201915060010161304a565b5050505050565b608081016109da8284613044565b6000806040838503121561309a5761309a600080fd5b6000612f9d8585612fd2565b600080604083850312156130bc576130bc600080fd5b60006130c88585612fd2565b9250506020612fae85828601612fd2565b612e3681612fb8565b604081016130f08285612ecc565b612b6460208301846130d9565b60008083601f84011261311257613112600080fd5b50813567ffffffffffffffff81111561312d5761312d600080fd5b60208301915083602082028301111561314857613148600080fd5b9250929050565b6000806020838503121561316557613165600080fd5b823567ffffffffffffffff81111561317f5761317f600080fd5b61318b858286016130fd565b92509250509250929050565b6130378282612ecc565b60006131ab825190565b808452602093840193830160005b828110156131de5781516131cd8782613197565b9650506020820191506001016131b9565b5093949350505050565b60208082528101612b6481846131a1565b602081016109da82846130d9565b60006109da6001600160a01b03831661321e565b90565b6001600160a01b031690565b60006109da82613207565b60006109da8261322a565b612e3681613235565b602081016109da8284613240565b63ffffffff8116612e4c565b80356109da81613257565b6000806040838503121561328457613284600080fd5b60006132908585612e57565b9250506020612fae85828601613263565b60048160005b8281101561306f5781516132bb868261302d565b9550506020820191506001016132a7565b80516132d88382612ec3565b5060208101516132eb6020840182612ecc565b5060408101516132fe6040840182612ecc565b5060608101516133116060840182612ecc565b5060808101516133246080840182612ecc565b5060a081015161333760a0840182612e34565b5060c081015161334a60c08401826132a1565b5060e081015161335e6101408401826132a1565b506101008101516133736101c08401826132a1565b50610120810151613388610240840182612e34565b5061014081015161339d610260840182612e34565b506101608101516133b2610280840182612e34565b50610180810151610fd66102a0840182612e34565b6133d182826132cc565b506102c00190565b60006133e3825190565b808452602093840193830160005b828110156131de57815161340587826133c7565b9650506020820191506001016133f1565b60208082528101612b6481846133d9565b60006020828403121561343c5761343c600080fd5b60006109d68484612fd2565b60006020828403121561345d5761345d600080fd5b60006109d68484613263565b6000613473825190565b808452602093840193830160005b828110156131de578151613495878261302d565b965050602082019150600101613481565b60208082528101612b648184613469565b801515612e4c565b80356109da816134b7565b600080604083850312156134e0576134e0600080fd5b60006134ec8585612e57565b9250506020612fae858286016134bf565b60008060008060006060868803121561351857613518600080fd5b60006135248888612e57565b955050602086013567ffffffffffffffff81111561354457613544600080fd5b613550888289016130fd565b9450945050604086013567ffffffffffffffff81111561357257613572600080fd5b61357e888289016130fd565b92509250509295509295909350565b600c8152602081017f57726f6e672073746174757300000000000000000000000000000000000000008152905061303e565b602080825281016109da8161358d565b634e487b7160e01b600052601160045260246000fd5b6000600182016135f7576135f76135cf565b5060010190565b60008219821115613611576136116135cf565b500190565b6000816109da565b60006109da8254613616565b60048160005b8281101561306f576136418261361e565b61364b868261302d565b95505060019182019101613630565b61010081016136698288612e34565b6136766020830187612e34565b6136836040830186612e34565b613690606083018561362a565b61369d60e0830184612e34565b9695505050505050565b60208082527f4f776e61626c653a2063616c6c6572206973206e6f7420746865206f776e6572910190815261303e565b602080825281016109da816136a7565b604081016136f58285612e34565b612b646020830184612e34565b60158152602081017f43616e6e6f7420626520444547495320746f6b656e00000000000000000000008152905061303e565b602080825281016109da81613702565b604081016136f582856130d9565b80516109da816134b7565b60006020828403121561377257613772600080fd5b60006109d68484613752565b60148152602081017f436f6e7472616374206e6f7420616c6c6f7765640000000000000000000000008152905061303e565b602080825281016109da8161377e565b601a8152602081017f50726f787920636f6e7472616374206e6f7420616c6c6f7765640000000000008152905061303e565b602080825281016109da816137c0565b601f8152602081017f5265656e7472616e637947756172643a207265656e7472616e742063616c6c008152905061303e565b602080825281016109da81613802565b60138152602081017f526f756e64206e6f7420636c61696d61626c65000000000000000000000000008152905061303e565b602080825281016109da81613844565b634e487b7160e01b600052603260045260246000fd5b60148152602081017f4e6f7420746865207469636b6574206f776e65720000000000000000000000008152905061303e565b602080825281016109da8161389c565b815b91506000828210156138f4576138f46135cf565b500390565b602e8152602081017f496e697469616c697a61626c653a20636f6e747261637420697320616c72656181527f647920696e697469616c697a6564000000000000000000000000000000000000602082015290505b60400190565b602080825281016109da816138f9565b634e487b7160e01b600052601260045260246000fd5b815b915060008261398c5761398c613963565b500690565b60008160001904831182151516156139ab576139ab6135cf565b500290565b6000826139bf576139bf613963565b500490565b634e487b7160e01b600052604160045260246000fd5b60118152602081017f5a65726f20726f756e64206c656e6774680000000000000000000000000000008152905061303e565b602080825281016109da816139da565b80516109da81612e4a565b600060208284031215613a3c57613a3c600080fd5b60006109d68484613a1c565b60228152602081017f74686973206c6f7474657279206973206e6f74206f70656e2063757272656e7481527f6c790000000000000000000000000000000000000000000000000000000000006020820152905061394d565b602080825281016109da81613a48565b60128152602081017f4e6f7420726561636820656e642074696d6500000000000000000000000000008152905061303e565b602080825281016109da81613ab0565b60128152602081017f4c6f7474657279206e6f7420636c6f73656400000000000000000000000000008152905061303e565b602080825281016109da81613af2565b60168152602081017f46696e616c206e756d626572206e6f7420647261776e000000000000000000008152905061303e565b602080825281016109da81613b34565b60138152602081017f5472656173757279206973206e6f7420736574000000000000000000000000008152905061303e565b602080825281016109da81613b76565b63ffffffff9081169082166138e0565b63ffffffff8116905063ffffffff8216915060008263ffffffff03821115613611576136116135cf565b80825b6001851115613c3157808604811115613c1057613c106135cf565b6001851615613c1e57908102905b8002613c2a8560011c90565b9450613bf5565b94509492505050565b600082613c4957506001612b64565b81613c5657506000612b64565b8160018114613c6c5760028114613c7657613ca3565b6001915050612b64565b60ff841115613c8757613c876135cf565b8360020a915084821115613c9d57613c9d6135cf565b50612b64565b5060208310610133831016604e8410600b8410161715613cd6575081810a83811115613cd157613cd16135cf565b612b64565b613ce38484846001613bf2565b92509050818404811115613cf957613cf96135cf565b0292915050565b63ffffffff8116905063ffffffff821691506000612b6463ffffffff8484613c3a565b63ffffffff90811690821661397b565b60006109da61321b63ffffffff841681565b612e3681613d33565b604081016136f58285613d45565b600f8152602081017f4e6f742073616d65206c656e67746800000000000000000000000000000000008152905061303e565b602080825281016109da81613d5c565b600a8152602081017f4e6f207469636b657473000000000000000000000000000000000000000000008152905061303e565b602080825281016109da81613d9e565b60198152602081017f546f6f206d616e79207469636b65747320746f20636c61696d000000000000008152905061303e565b602080825281016109da81613de0565b60138152602081017f5469636b657420696420746f6f20736d616c6c000000000000000000000000008152905061303e565b602080825281016109da81613e22565b60138152602081017f5469636b657420696420746f6f206c61726765000000000000000000000000008152905061303e565b602080825281016109da81613e64565b60278152602081017f4e6f7420746865207469636b6574206f776e6572206f7220616c72656164792081527f636c61696d6564000000000000000000000000000000000000000000000000006020820152905061394d565b602080825281016109da81613ea6565b60128152602081017f4f6e6c792068696768657374207072697a6500000000000000000000000000008152905061303e565b602080825281016109da81613f0e565b601b8152602081017f4e6f207469636b65747320617265206265696e6720626f7567687400000000008152905061303e565b602080825281016109da81613f50565b60108152602081017f546f6f206d616e79207469636b657473000000000000000000000000000000008152905061303e565b602080825281016109da81613f92565b600e8152602081017f526f756e64206e6f74206f70656e0000000000000000000000000000000000008152905061303e565b602080825281016109da81613fd4565b6060810161402482866130d9565b61403160208301856130d9565b61403e6040830184612e34565b949350505050565b601e8152602081017f5469636b6574206e756d626572206973206f7574736964652072616e676500008152905061303e565b602080825281016109da81614046565b604081016130f082856130d9565b60268152602081017f4f776e61626c653a206e6577206f776e657220697320746865207a65726f206181527f64647265737300000000000000000000000000000000000000000000000000006020820152905061394d565b602080825281016109da81614096565b63ffffffff16600063fffffffe1982016135f7576135f76135cf565b602b8152602081017f496e697469616c697a61626c653a20636f6e7472616374206973206e6f74206981527f6e697469616c697a696e670000000000000000000000000000000000000000006020820152905061394d565b602080825281016109da8161411a565b60005b8381101561419d578181015183820152602001614185565b838111156141ac576000848401525b50505050565b60006141bc825190565b8084526020840193506141d3818560208601614182565b601f01601f19169290920192915050565b604080825281016141f581856141b2565b9050612b646020830184612e34565b6000612b646000198484613c3a56fea26469706673582212201cf87e86261199ae9bc4d06198a66d9a1edbdb3a5202b022b508e3d322d4c88164736f6c634300080d0033",
  "devdoc": {
    "details": "This lottery uses DEG as tickets and DEG as rewards also      Users can pay 10 DEG to buy one ticket and choose four digits for each ticket      After the lottery was closed, it will draw a final random number through Chainlink VRF      Users get rewards according to the how many numbers they matched with the final number      Reward distribution:      80% of each round prize pool will be distributed to the winners (breakdowns for different levels)      20% of each round prize pool will be rolled to next round (except for treasury fee)",
    "kind": "dev",
    "methods": {
      "_reverseTicketNumber(uint256)": {
        "params": {
          "_number": "Input ticket number"
        },
        "returns": {
          "_0": "reversedNumber Reversed number + 10000"
        }
      },
      "buyTickets(uint32[])": {
        "details": "Need to transfer the 4-digit number to a 5-digit number to be used here (+10000)      Can not be called by a smart contract      Can only purchase in the current round      E.g. You are selecting the number of 1-2-3-4 (lowest to highest)           You will need to pass a number \"14321\"",
        "params": {
          "_ticketNumbers": "Array of ticket numbers between 10,000 and 19,999"
        }
      },
      "changeRandomGenerator(address)": {
        "details": "The calls to functions are used to verify the new generator implements them properly.      It is necessary to wait for the VRF response before starting a round.",
        "params": {
          "_randomGeneratorAddress": "address of the random generator"
        }
      },
      "claimAllTickets(uint256)": {
        "details": "Callable by users only, not contract      Gas cost may be oversized, recommended to get brackets offchain first      Get brackets offchain and call function \"claimTickets\"",
        "params": {
          "_lotteryId": "Lottery id"
        }
      },
      "claimTickets(uint256,uint256[],uint32[])": {
        "details": "Callable by users only, not contract",
        "params": {
          "_brackets": "Bracket / prize level of each ticket",
          "_lotteryId": "Lottery id",
          "_ticketIds": "Array of ticket ids"
        }
      },
      "closeLottery(uint256)": {
        "params": {
          "_lotteryId": "Lottery round"
        }
      },
      "drawFinalNumberAndMakeLotteryClaimable(uint256,bool)": {
        "params": {
          "_autoInjection": "Auto inject funds into next lottery",
          "_lotteryId": "Lottery round"
        }
      },
      "initialize(address,address)": {
        "details": "RandomNumberGenerator must be deployed prior to this contract",
        "params": {
          "_degis": "Address of DEG",
          "_randomGenerator": "Address of the RandomGenerator contract used to work with ChainLink VRF"
        }
      },
      "injectFunds(uint256)": {
        "details": "Those DEG transferred to this contract but not by this function      will not be counted for prize pools",
        "params": {
          "_amount": "DEG amount to inject"
        }
      },
      "owner()": {
        "details": "Returns the address of the current owner."
      },
      "recoverWrongTokens(address,uint256)": {
        "params": {
          "_tokenAddress": "Address of the token to withdraw",
          "_tokenAmount": "Token amount to withdraw"
        }
      },
      "renounceOwnership()": {
        "details": "Leaves the contract without owner. It will not be possible to call `onlyOwner` functions anymore. Can only be called by the current owner. NOTE: Renouncing ownership will leave the contract without an owner, thereby removing any functionality that is only available to the owner."
      },
      "setMaxNumberTicketsEachTime(uint256)": {
        "params": {
          "_maxNumber": "Max number each time"
        }
      },
      "setRoundLength(uint256)": {
        "params": {
          "_length": "New round length"
        }
      },
      "setTreasury(address)": {
        "params": {
          "_treasury": "Treasury address"
        }
      },
      "transferOwnership(address)": {
        "details": "Transfers ownership of the contract to a new account (`newOwner`). Can only be called by the current owner."
      },
      "viewAllLottery(uint256,uint256)": {
        "params": {
          "_endId": "End lottery id",
          "_startId": "Start lottery id"
        },
        "returns": {
          "_0": "Array of lottery information"
        }
      },
      "viewNumbersPerTicketId(uint256[])": {
        "params": {
          "_ticketIds": ": array of _ticketId"
        }
      },
      "viewRewardsForTicketId(uint256,uint256)": {
        "details": "This function will help to find the highest prize bracket      But this computation is encouraged to be done off-chain      Better to get bracket first and then call \"_calculateRewardsForTicketId()\"",
        "params": {
          "_lotteryId": "Lottery round",
          "_ticketId": "Ticket id"
        },
        "returns": {
          "_0": "reward Ticket reward"
        }
      },
      "viewUserRewards(address,uint256,uint256)": {
        "params": {
          "_endRound": "End lottery id",
          "_startRound": "Start lottery id",
          "_user": "User address"
        }
      },
      "viewWalletTicketIds(address,uint256)": {
        "params": {
          "_wallet": "address to check owned tickets"
        },
        "returns": {
          "_0": "_lotteryId lottery id to verify ownership"
        }
      }
    },
    "title": "DegisLotteryV2",
    "version": 1
  },
  "userdoc": {
    "kind": "user",
    "methods": {
      "_reverseTicketNumber(uint256)": {
        "notice": "Reverse the ticket number         E.g. User want to buy \"1234\"              The input number will be 11234              The reversed output will be 14321"
      },
      "buyTickets(uint32[])": {
        "notice": "Buy tickets for the current lottery round"
      },
      "changeRandomGenerator(address)": {
        "notice": "Change the random generator contract address"
      },
      "claimAllTickets(uint256)": {
        "notice": "Claim all winning tickets for a lottery round"
      },
      "claimTickets(uint256,uint256[],uint32[])": {
        "notice": "Claim winning tickets"
      },
      "closeLottery(uint256)": {
        "notice": "Close a lottery"
      },
      "drawFinalNumberAndMakeLotteryClaimable(uint256,bool)": {
        "notice": "Draw the final number, calculate reward in Degis for each group, and make this lottery claimable (need to wait for the random generator)"
      },
      "initialize(address,address)": {
        "notice": "Initialize function"
      },
      "injectFunds(uint256)": {
        "notice": "Inject funds"
      },
      "recoverWrongTokens(address,uint256)": {
        "notice": "Recover wrong tokens sent to the contract, only by the owner          All tokens except Degis are wrong tokens"
      },
      "setMaxNumberTicketsEachTime(uint256)": {
        "notice": "Set max number can buy/claim each time"
      },
      "setRoundLength(uint256)": {
        "notice": "Set round length"
      },
      "setTreasury(address)": {
        "notice": "Set treasury wallet address"
      },
      "startLottery()": {
        "notice": "Start a new lottery round"
      },
      "viewAllLottery(uint256,uint256)": {
        "notice": "View lottery information"
      },
      "viewNumbersPerTicketId(uint256[])": {
        "notice": "View ticker statuses and numbers for an array of ticket ids"
      },
      "viewRewardPerTicketInBracket(uint256)": {
        "notice": "View rewards for each ticket in a given lottery round, given bracket"
      },
      "viewRewardsBreakdown(uint256)": {
        "notice": "View rewards breakdown for a given lottery round"
      },
      "viewRewardsForTicketId(uint256,uint256)": {
        "notice": "View rewards for a given ticket in a given lottery round"
      },
      "viewUserRewards(address,uint256,uint256)": {
        "notice": "View user rewards between rounds"
      },
      "viewWalletTicketIds(address,uint256)": {
        "notice": "Get the reward per ticket in 4 brackets"
      },
      "viewWinnerAmount(uint256)": {
        "notice": "View winner ticket amount for a given lottery round, for each bracket"
      }
    },
    "version": 1
  },
  "storageLayout": {
    "storage": [
      {
        "astId": 2670,
        "contract": "contracts/lucky-box/DegisLotteryV2.sol:DegisLotteryV2",
        "label": "_initialized",
        "offset": 0,
        "slot": "0",
        "type": "t_bool"
      },
      {
        "astId": 2673,
        "contract": "contracts/lucky-box/DegisLotteryV2.sol:DegisLotteryV2",
        "label": "_initializing",
        "offset": 1,
        "slot": "0",
        "type": "t_bool"
      },
      {
        "astId": 2862,
        "contract": "contracts/lucky-box/DegisLotteryV2.sol:DegisLotteryV2",
        "label": "_status",
        "offset": 0,
        "slot": "1",
        "type": "t_uint256"
      },
      {
        "astId": 2906,
        "contract": "contracts/lucky-box/DegisLotteryV2.sol:DegisLotteryV2",
        "label": "__gap",
        "offset": 0,
        "slot": "2",
        "type": "t_array(t_uint256)49_storage"
      },
      {
        "astId": 3907,
        "contract": "contracts/lucky-box/DegisLotteryV2.sol:DegisLotteryV2",
        "label": "__gap",
        "offset": 0,
        "slot": "51",
        "type": "t_array(t_uint256)50_storage"
      },
      {
        "astId": 2550,
        "contract": "contracts/lucky-box/DegisLotteryV2.sol:DegisLotteryV2",
        "label": "_owner",
        "offset": 0,
        "slot": "101",
        "type": "t_address"
      },
      {
        "astId": 2662,
        "contract": "contracts/lucky-box/DegisLotteryV2.sol:DegisLotteryV2",
        "label": "__gap",
        "offset": 0,
        "slot": "102",
        "type": "t_array(t_uint256)49_storage"
      },
      {
        "astId": 23222,
        "contract": "contracts/lucky-box/DegisLotteryV2.sol:DegisLotteryV2",
        "label": "DegisToken",
        "offset": 0,
        "slot": "151",
        "type": "t_contract(IERC20)5510"
      },
      {
        "astId": 23225,
        "contract": "contracts/lucky-box/DegisLotteryV2.sol:DegisLotteryV2",
        "label": "randomGenerator",
        "offset": 0,
        "slot": "152",
        "type": "t_contract(IRandomNumberGenerator)26076"
      },
      {
        "astId": 23227,
        "contract": "contracts/lucky-box/DegisLotteryV2.sol:DegisLotteryV2",
        "label": "treasury",
        "offset": 0,
        "slot": "153",
        "type": "t_address"
      },
      {
        "astId": 23229,
        "contract": "contracts/lucky-box/DegisLotteryV2.sol:DegisLotteryV2",
        "label": "currentLotteryId",
        "offset": 0,
        "slot": "154",
        "type": "t_uint256"
      },
      {
        "astId": 23231,
        "contract": "contracts/lucky-box/DegisLotteryV2.sol:DegisLotteryV2",
        "label": "currentTicketId",
        "offset": 0,
        "slot": "155",
        "type": "t_uint256"
      },
      {
        "astId": 23233,
        "contract": "contracts/lucky-box/DegisLotteryV2.sol:DegisLotteryV2",
        "label": "maxNumberTicketsEachTime",
        "offset": 0,
        "slot": "156",
        "type": "t_uint256"
      },
      {
        "astId": 23235,
        "contract": "contracts/lucky-box/DegisLotteryV2.sol:DegisLotteryV2",
        "label": "pendingInjectionNextLottery",
        "offset": 0,
        "slot": "157",
        "type": "t_uint256"
      },
      {
        "astId": 23279,
        "contract": "contracts/lucky-box/DegisLotteryV2.sol:DegisLotteryV2",
        "label": "lotteries",
        "offset": 0,
        "slot": "158",
        "type": "t_mapping(t_uint256,t_struct(Lottery)23274_storage)"
      },
      {
        "astId": 23289,
        "contract": "contracts/lucky-box/DegisLotteryV2.sol:DegisLotteryV2",
        "label": "tickets",
        "offset": 0,
        "slot": "159",
        "type": "t_mapping(t_uint256,t_struct(Ticket)23284_storage)"
      },
      {
        "astId": 23295,
        "contract": "contracts/lucky-box/DegisLotteryV2.sol:DegisLotteryV2",
        "label": "_numberTicketsPerLotteryId",
        "offset": 0,
        "slot": "160",
        "type": "t_mapping(t_uint256,t_mapping(t_uint32,t_uint256))"
      },
      {
        "astId": 23302,
        "contract": "contracts/lucky-box/DegisLotteryV2.sol:DegisLotteryV2",
        "label": "_userTicketIds",
        "offset": 0,
        "slot": "161",
        "type": "t_mapping(t_address,t_mapping(t_uint256,t_array(t_uint256)dyn_storage))"
      },
      {
        "astId": 23306,
        "contract": "contracts/lucky-box/DegisLotteryV2.sol:DegisLotteryV2",
        "label": "_bracketCalculator",
        "offset": 0,
        "slot": "162",
        "type": "t_mapping(t_uint32,t_uint32)"
      },
      {
        "astId": 23312,
        "contract": "contracts/lucky-box/DegisLotteryV2.sol:DegisLotteryV2",
        "label": "userClaimed",
        "offset": 0,
        "slot": "163",
        "type": "t_mapping(t_address,t_mapping(t_uint256,t_uint256))"
      },
      {
        "astId": 23314,
        "contract": "contracts/lucky-box/DegisLotteryV2.sol:DegisLotteryV2",
        "label": "treasuryFee",
        "offset": 0,
        "slot": "164",
        "type": "t_uint256"
      },
      {
        "astId": 23318,
        "contract": "contracts/lucky-box/DegisLotteryV2.sol:DegisLotteryV2",
        "label": "rewardsBreakdown",
        "offset": 0,
        "slot": "165",
        "type": "t_array(t_uint256)4_storage"
      },
      {
        "astId": 23320,
        "contract": "contracts/lucky-box/DegisLotteryV2.sol:DegisLotteryV2",
        "label": "roundLength",
        "offset": 0,
        "slot": "169",
        "type": "t_uint256"
      }
    ],
    "types": {
      "t_address": {
        "encoding": "inplace",
        "label": "address",
        "numberOfBytes": "20"
      },
      "t_array(t_uint256)49_storage": {
        "base": "t_uint256",
        "encoding": "inplace",
        "label": "uint256[49]",
        "numberOfBytes": "1568"
      },
      "t_array(t_uint256)4_storage": {
        "base": "t_uint256",
        "encoding": "inplace",
        "label": "uint256[4]",
        "numberOfBytes": "128"
      },
      "t_array(t_uint256)50_storage": {
        "base": "t_uint256",
        "encoding": "inplace",
        "label": "uint256[50]",
        "numberOfBytes": "1600"
      },
      "t_array(t_uint256)dyn_storage": {
        "base": "t_uint256",
        "encoding": "dynamic_array",
        "label": "uint256[]",
        "numberOfBytes": "32"
      },
      "t_bool": {
        "encoding": "inplace",
        "label": "bool",
        "numberOfBytes": "1"
      },
      "t_contract(IERC20)5510": {
        "encoding": "inplace",
        "label": "contract IERC20",
        "numberOfBytes": "20"
      },
      "t_contract(IRandomNumberGenerator)26076": {
        "encoding": "inplace",
        "label": "contract IRandomNumberGenerator",
        "numberOfBytes": "20"
      },
      "t_enum(Status)23240": {
        "encoding": "inplace",
        "label": "enum DegisLotteryV2.Status",
        "numberOfBytes": "1"
      },
      "t_mapping(t_address,t_mapping(t_uint256,t_array(t_uint256)dyn_storage))": {
        "encoding": "mapping",
        "key": "t_address",
        "label": "mapping(address => mapping(uint256 => uint256[]))",
        "numberOfBytes": "32",
        "value": "t_mapping(t_uint256,t_array(t_uint256)dyn_storage)"
      },
      "t_mapping(t_address,t_mapping(t_uint256,t_uint256))": {
        "encoding": "mapping",
        "key": "t_address",
        "label": "mapping(address => mapping(uint256 => uint256))",
        "numberOfBytes": "32",
        "value": "t_mapping(t_uint256,t_uint256)"
      },
      "t_mapping(t_uint256,t_array(t_uint256)dyn_storage)": {
        "encoding": "mapping",
        "key": "t_uint256",
        "label": "mapping(uint256 => uint256[])",
        "numberOfBytes": "32",
        "value": "t_array(t_uint256)dyn_storage"
      },
      "t_mapping(t_uint256,t_mapping(t_uint32,t_uint256))": {
        "encoding": "mapping",
        "key": "t_uint256",
        "label": "mapping(uint256 => mapping(uint32 => uint256))",
        "numberOfBytes": "32",
        "value": "t_mapping(t_uint32,t_uint256)"
      },
      "t_mapping(t_uint256,t_struct(Lottery)23274_storage)": {
        "encoding": "mapping",
        "key": "t_uint256",
        "label": "mapping(uint256 => struct DegisLotteryV2.Lottery)",
        "numberOfBytes": "32",
        "value": "t_struct(Lottery)23274_storage"
      },
      "t_mapping(t_uint256,t_struct(Ticket)23284_storage)": {
        "encoding": "mapping",
        "key": "t_uint256",
        "label": "mapping(uint256 => struct DegisLotteryV2.Ticket)",
        "numberOfBytes": "32",
        "value": "t_struct(Ticket)23284_storage"
      },
      "t_mapping(t_uint256,t_uint256)": {
        "encoding": "mapping",
        "key": "t_uint256",
        "label": "mapping(uint256 => uint256)",
        "numberOfBytes": "32",
        "value": "t_uint256"
      },
      "t_mapping(t_uint32,t_uint256)": {
        "encoding": "mapping",
        "key": "t_uint32",
        "label": "mapping(uint32 => uint256)",
        "numberOfBytes": "32",
        "value": "t_uint256"
      },
      "t_mapping(t_uint32,t_uint32)": {
        "encoding": "mapping",
        "key": "t_uint32",
        "label": "mapping(uint32 => uint32)",
        "numberOfBytes": "32",
        "value": "t_uint32"
      },
      "t_struct(Lottery)23274_storage": {
        "encoding": "inplace",
        "label": "struct DegisLotteryV2.Lottery",
        "members": [
          {
            "astId": 23243,
            "contract": "contracts/lucky-box/DegisLotteryV2.sol:DegisLotteryV2",
            "label": "status",
            "offset": 0,
            "slot": "0",
            "type": "t_enum(Status)23240"
          },
          {
            "astId": 23245,
            "contract": "contracts/lucky-box/DegisLotteryV2.sol:DegisLotteryV2",
            "label": "treasuryFee",
            "offset": 1,
            "slot": "0",
            "type": "t_uint32"
          },
          {
            "astId": 23247,
            "contract": "contracts/lucky-box/DegisLotteryV2.sol:DegisLotteryV2",
            "label": "startTime",
            "offset": 5,
            "slot": "0",
            "type": "t_uint32"
          },
          {
            "astId": 23249,
            "contract": "contracts/lucky-box/DegisLotteryV2.sol:DegisLotteryV2",
            "label": "endTime",
            "offset": 9,
            "slot": "0",
            "type": "t_uint32"
          },
          {
            "astId": 23251,
            "contract": "contracts/lucky-box/DegisLotteryV2.sol:DegisLotteryV2",
            "label": "finalNumber",
            "offset": 13,
            "slot": "0",
            "type": "t_uint32"
          },
          {
            "astId": 23253,
            "contract": "contracts/lucky-box/DegisLotteryV2.sol:DegisLotteryV2",
            "label": "ticketPrice",
            "offset": 0,
            "slot": "1",
            "type": "t_uint256"
          },
          {
            "astId": 23257,
            "contract": "contracts/lucky-box/DegisLotteryV2.sol:DegisLotteryV2",
            "label": "rewardsBreakdown",
            "offset": 0,
            "slot": "2",
            "type": "t_array(t_uint256)4_storage"
          },
          {
            "astId": 23261,
            "contract": "contracts/lucky-box/DegisLotteryV2.sol:DegisLotteryV2",
            "label": "rewardPerTicketInBracket",
            "offset": 0,
            "slot": "6",
            "type": "t_array(t_uint256)4_storage"
          },
          {
            "astId": 23265,
            "contract": "contracts/lucky-box/DegisLotteryV2.sol:DegisLotteryV2",
            "label": "countWinnersPerBracket",
            "offset": 0,
            "slot": "10",
            "type": "t_array(t_uint256)4_storage"
          },
          {
            "astId": 23267,
            "contract": "contracts/lucky-box/DegisLotteryV2.sol:DegisLotteryV2",
            "label": "firstTicketId",
            "offset": 0,
            "slot": "14",
            "type": "t_uint256"
          },
          {
            "astId": 23269,
            "contract": "contracts/lucky-box/DegisLotteryV2.sol:DegisLotteryV2",
            "label": "firstTicketIdNextRound",
            "offset": 0,
            "slot": "15",
            "type": "t_uint256"
          },
          {
            "astId": 23271,
            "contract": "contracts/lucky-box/DegisLotteryV2.sol:DegisLotteryV2",
            "label": "amountCollected",
            "offset": 0,
            "slot": "16",
            "type": "t_uint256"
          },
          {
            "astId": 23273,
            "contract": "contracts/lucky-box/DegisLotteryV2.sol:DegisLotteryV2",
            "label": "pendingRewards",
            "offset": 0,
            "slot": "17",
            "type": "t_uint256"
          }
        ],
        "numberOfBytes": "576"
      },
      "t_struct(Ticket)23284_storage": {
        "encoding": "inplace",
        "label": "struct DegisLotteryV2.Ticket",
        "members": [
          {
            "astId": 23281,
            "contract": "contracts/lucky-box/DegisLotteryV2.sol:DegisLotteryV2",
            "label": "number",
            "offset": 0,
            "slot": "0",
            "type": "t_uint32"
          },
          {
            "astId": 23283,
            "contract": "contracts/lucky-box/DegisLotteryV2.sol:DegisLotteryV2",
            "label": "owner",
            "offset": 4,
            "slot": "0",
            "type": "t_address"
          }
        ],
        "numberOfBytes": "32"
      },
      "t_uint256": {
        "encoding": "inplace",
        "label": "uint256",
        "numberOfBytes": "32"
      },
      "t_uint32": {
        "encoding": "inplace",
        "label": "uint32",
        "numberOfBytes": "4"
      }
    }
  }
}