{
  "address": "0xB67E6AB503fDA59c4A78FaB060ebdb34038c4D84",
  "abi": [
    {
      "anonymous": false,
      "inputs": [
        {
          "indexed": false,
          "internalType": "address",
          "name": "token",
          "type": "address"
        },
        {
          "indexed": false,
          "internalType": "uint256",
          "name": "amount",
          "type": "uint256"
        }
      ],
      "name": "AdminTokenRecovery",
      "type": "event"
    },
    {
      "anonymous": false,
      "inputs": [
        {
          "indexed": true,
          "internalType": "uint256",
          "name": "lotteryId",
          "type": "uint256"
        }
      ],
      "name": "LotteryClose",
      "type": "event"
    },
    {
      "anonymous": false,
      "inputs": [
        {
          "indexed": true,
          "internalType": "uint256",
          "name": "lotteryId",
          "type": "uint256"
        },
        {
          "indexed": false,
          "internalType": "uint256",
          "name": "injectedAmount",
          "type": "uint256"
        }
      ],
      "name": "LotteryInjection",
      "type": "event"
    },
    {
      "anonymous": false,
      "inputs": [
        {
          "indexed": true,
          "internalType": "uint256",
          "name": "lotteryId",
          "type": "uint256"
        },
        {
          "indexed": false,
          "internalType": "uint256",
          "name": "finalNumber",
          "type": "uint256"
        },
        {
          "indexed": false,
          "internalType": "uint256",
          "name": "countWinningTickets",
          "type": "uint256"
        }
      ],
      "name": "LotteryNumberDrawn",
      "type": "event"
    },
    {
      "anonymous": false,
      "inputs": [
        {
          "indexed": true,
          "internalType": "uint256",
          "name": "lotteryId",
          "type": "uint256"
        },
        {
          "indexed": false,
          "internalType": "uint256",
          "name": "startTime",
          "type": "uint256"
        },
        {
          "indexed": false,
          "internalType": "uint256",
          "name": "endTime",
          "type": "uint256"
        },
        {
          "indexed": false,
          "internalType": "uint256",
          "name": "priceTicketInDegis",
          "type": "uint256"
        },
        {
          "indexed": false,
          "internalType": "uint256[4]",
          "name": "rewardsBreakdown",
          "type": "uint256[4]"
        },
        {
          "indexed": false,
          "internalType": "uint256",
          "name": "injectedAmount",
          "type": "uint256"
        }
      ],
      "name": "LotteryOpen",
      "type": "event"
    },
    {
      "anonymous": false,
      "inputs": [
        {
          "indexed": false,
          "internalType": "uint256",
          "name": "oldMaxNumber",
          "type": "uint256"
        },
        {
          "indexed": false,
          "internalType": "uint256",
          "name": "newMaxNumber",
          "type": "uint256"
        }
      ],
      "name": "MaxNumberTicketsEachTimeChanged",
      "type": "event"
    },
    {
      "anonymous": false,
      "inputs": [
        {
          "indexed": true,
          "internalType": "address",
          "name": "randomGenerator",
          "type": "address"
        }
      ],
      "name": "NewRandomGenerator",
      "type": "event"
    },
    {
      "anonymous": false,
      "inputs": [
        {
          "indexed": true,
          "internalType": "address",
          "name": "previousOwner",
          "type": "address"
        },
        {
          "indexed": true,
          "internalType": "address",
          "name": "newOwner",
          "type": "address"
        }
      ],
      "name": "OwnershipTransferred",
      "type": "event"
    },
    {
      "anonymous": false,
      "inputs": [
        {
          "indexed": true,
          "internalType": "address",
          "name": "claimer",
          "type": "address"
        },
        {
          "indexed": false,
          "internalType": "uint256",
          "name": "amount",
          "type": "uint256"
        },
        {
          "indexed": true,
          "internalType": "uint256",
          "name": "lotteryId",
          "type": "uint256"
        }
      ],
      "name": "TicketsClaim",
      "type": "event"
    },
    {
      "anonymous": false,
      "inputs": [
        {
          "indexed": true,
          "internalType": "address",
          "name": "buyer",
          "type": "address"
        },
        {
          "indexed": true,
          "internalType": "uint256",
          "name": "lotteryId",
          "type": "uint256"
        },
        {
          "indexed": false,
          "internalType": "uint256",
          "name": "number",
          "type": "uint256"
        },
        {
          "indexed": false,
          "internalType": "uint256",
          "name": "totalPrice",
          "type": "uint256"
        }
      ],
      "name": "TicketsPurchased",
      "type": "event"
    },
    {
      "anonymous": false,
      "inputs": [
        {
          "indexed": false,
          "internalType": "address",
          "name": "oldTreasury",
          "type": "address"
        },
        {
          "indexed": false,
          "internalType": "address",
          "name": "newTreasury",
          "type": "address"
        }
      ],
      "name": "TreasuryChanged",
      "type": "event"
    },
    {
      "inputs": [],
      "name": "DEFAULT_PRICE",
      "outputs": [
        {
          "internalType": "uint256",
          "name": "",
          "type": "uint256"
        }
      ],
      "stateMutability": "view",
      "type": "function"
    },
    {
      "inputs": [],
      "name": "DISCOUNT_DIVISOR",
      "outputs": [
        {
          "internalType": "uint256",
          "name": "",
          "type": "uint256"
        }
      ],
      "stateMutability": "view",
      "type": "function"
    },
    {
      "inputs": [],
      "name": "DegisToken",
      "outputs": [
        {
          "internalType": "contract IERC20",
          "name": "",
          "type": "address"
        }
      ],
      "stateMutability": "view",
      "type": "function"
    },
    {
      "inputs": [],
      "name": "MAX_TICKET_NUMBER",
      "outputs": [
        {
          "internalType": "uint32",
          "name": "",
          "type": "uint32"
        }
      ],
      "stateMutability": "view",
      "type": "function"
    },
    {
      "inputs": [],
      "name": "MAX_TREASURY_FEE",
      "outputs": [
        {
          "internalType": "uint256",
          "name": "",
          "type": "uint256"
        }
      ],
      "stateMutability": "view",
      "type": "function"
    },
    {
      "inputs": [],
      "name": "MIN_TICKET_NUMBER",
      "outputs": [
        {
          "internalType": "uint32",
          "name": "",
          "type": "uint32"
        }
      ],
      "stateMutability": "view",
      "type": "function"
    },
    {
      "inputs": [
        {
          "internalType": "uint32",
          "name": "",
          "type": "uint32"
        }
      ],
      "name": "_bracketCalculator",
      "outputs": [
        {
          "internalType": "uint32",
          "name": "",
          "type": "uint32"
        }
      ],
      "stateMutability": "view",
      "type": "function"
    },
    {
      "inputs": [
        {
          "internalType": "uint256",
          "name": "",
          "type": "uint256"
        },
        {
          "internalType": "uint32",
          "name": "",
          "type": "uint32"
        }
      ],
      "name": "_numberTicketsPerLotteryId",
      "outputs": [
        {
          "internalType": "uint256",
          "name": "",
          "type": "uint256"
        }
      ],
      "stateMutability": "view",
      "type": "function"
    },
    {
      "inputs": [
        {
          "internalType": "uint256",
          "name": "_number",
          "type": "uint256"
        }
      ],
      "name": "_reverseTicketNumber",
      "outputs": [
        {
          "internalType": "uint32",
          "name": "",
          "type": "uint32"
        }
      ],
      "stateMutability": "pure",
      "type": "function"
    },
    {
      "inputs": [
        {
          "internalType": "address",
          "name": "",
          "type": "address"
        },
        {
          "internalType": "uint256",
          "name": "",
          "type": "uint256"
        },
        {
          "internalType": "uint256",
          "name": "",
          "type": "uint256"
        }
      ],
      "name": "_userTicketIds",
      "outputs": [
        {
          "internalType": "uint256",
          "name": "",
          "type": "uint256"
        }
      ],
      "stateMutability": "view",
      "type": "function"
    },
    {
      "inputs": [
        {
          "internalType": "uint32[]",
          "name": "_ticketNumbers",
          "type": "uint32[]"
        }
      ],
      "name": "buyTickets",
      "outputs": [],
      "stateMutability": "nonpayable",
      "type": "function"
    },
    {
      "inputs": [
        {
          "internalType": "address",
          "name": "_randomGeneratorAddress",
          "type": "address"
        }
      ],
      "name": "changeRandomGenerator",
      "outputs": [],
      "stateMutability": "nonpayable",
      "type": "function"
    },
    {
      "inputs": [
        {
          "internalType": "uint256",
          "name": "_lotteryId",
          "type": "uint256"
        }
      ],
      "name": "claimAllTickets",
      "outputs": [],
      "stateMutability": "nonpayable",
      "type": "function"
    },
    {
      "inputs": [
        {
          "internalType": "uint256",
          "name": "_lotteryId",
          "type": "uint256"
        },
        {
          "internalType": "uint256[]",
          "name": "_ticketIds",
          "type": "uint256[]"
        },
        {
          "internalType": "uint32[]",
          "name": "_brackets",
          "type": "uint32[]"
        }
      ],
      "name": "claimTickets",
      "outputs": [],
      "stateMutability": "nonpayable",
      "type": "function"
    },
    {
      "inputs": [
        {
          "internalType": "uint256",
          "name": "_lotteryId",
          "type": "uint256"
        }
      ],
      "name": "closeLottery",
      "outputs": [],
      "stateMutability": "nonpayable",
      "type": "function"
    },
    {
      "inputs": [],
      "name": "currentLotteryId",
      "outputs": [
        {
          "internalType": "uint256",
          "name": "",
          "type": "uint256"
        }
      ],
      "stateMutability": "view",
      "type": "function"
    },
    {
      "inputs": [],
      "name": "currentTicketId",
      "outputs": [
        {
          "internalType": "uint256",
          "name": "",
          "type": "uint256"
        }
      ],
      "stateMutability": "view",
      "type": "function"
    },
    {
      "inputs": [
        {
          "internalType": "uint256",
          "name": "_lotteryId",
          "type": "uint256"
        },
        {
          "internalType": "bool",
          "name": "_autoInjection",
          "type": "bool"
        }
      ],
      "name": "drawFinalNumberAndMakeLotteryClaimable",
      "outputs": [],
      "stateMutability": "nonpayable",
      "type": "function"
    },
    {
      "inputs": [
        {
          "internalType": "address",
          "name": "_degis",
          "type": "address"
        },
        {
          "internalType": "address",
          "name": "_randomGenerator",
          "type": "address"
        }
      ],
      "name": "initialize",
      "outputs": [],
      "stateMutability": "nonpayable",
      "type": "function"
    },
    {
      "inputs": [
        {
          "internalType": "uint256",
          "name": "_amount",
          "type": "uint256"
        }
      ],
      "name": "injectFunds",
      "outputs": [],
      "stateMutability": "nonpayable",
      "type": "function"
    },
    {
      "inputs": [
        {
          "internalType": "uint256",
          "name": "",
          "type": "uint256"
        }
      ],
      "name": "lotteries",
      "outputs": [
        {
          "internalType": "enum DegisLotteryV2.Status",
          "name": "status",
          "type": "uint8"
        },
        {
          "internalType": "uint8",
          "name": "treasuryFee",
          "type": "uint8"
        },
        {
          "internalType": "uint32",
          "name": "startTime",
          "type": "uint32"
        },
        {
          "internalType": "uint32",
          "name": "endTime",
          "type": "uint32"
        },
        {
          "internalType": "uint32",
          "name": "finalNumber",
          "type": "uint32"
        },
        {
          "internalType": "uint256",
          "name": "ticketPrice",
          "type": "uint256"
        },
        {
          "internalType": "uint256",
          "name": "firstTicketId",
          "type": "uint256"
        },
        {
          "internalType": "uint256",
          "name": "firstTicketIdNextRound",
          "type": "uint256"
        },
        {
          "internalType": "uint256",
          "name": "amountCollected",
          "type": "uint256"
        },
        {
          "internalType": "uint256",
          "name": "pendingRewards",
          "type": "uint256"
        }
      ],
      "stateMutability": "view",
      "type": "function"
    },
    {
      "inputs": [],
      "name": "maxNumberTicketsEachTime",
      "outputs": [
        {
          "internalType": "uint256",
          "name": "",
          "type": "uint256"
        }
      ],
      "stateMutability": "view",
      "type": "function"
    },
    {
      "inputs": [],
      "name": "owner",
      "outputs": [
        {
          "internalType": "address",
          "name": "",
          "type": "address"
        }
      ],
      "stateMutability": "view",
      "type": "function"
    },
    {
      "inputs": [],
      "name": "pendingInjectionNextLottery",
      "outputs": [
        {
          "internalType": "uint256",
          "name": "",
          "type": "uint256"
        }
      ],
      "stateMutability": "view",
      "type": "function"
    },
    {
      "inputs": [],
      "name": "randomGenerator",
      "outputs": [
        {
          "internalType": "contract IRandomNumberGenerator",
          "name": "",
          "type": "address"
        }
      ],
      "stateMutability": "view",
      "type": "function"
    },
    {
      "inputs": [
        {
          "internalType": "address",
          "name": "_tokenAddress",
          "type": "address"
        },
        {
          "internalType": "uint256",
          "name": "_tokenAmount",
          "type": "uint256"
        }
      ],
      "name": "recoverWrongTokens",
      "outputs": [],
      "stateMutability": "nonpayable",
      "type": "function"
    },
    {
      "inputs": [],
      "name": "renounceOwnership",
      "outputs": [],
      "stateMutability": "nonpayable",
      "type": "function"
    },
    {
      "inputs": [
        {
          "internalType": "uint256",
          "name": "_maxNumber",
          "type": "uint256"
        }
      ],
      "name": "setMaxNumberTicketsEachTime",
      "outputs": [],
      "stateMutability": "nonpayable",
      "type": "function"
    },
    {
      "inputs": [
        {
          "internalType": "address",
          "name": "_treasury",
          "type": "address"
        }
      ],
      "name": "setTreasury",
      "outputs": [],
      "stateMutability": "nonpayable",
      "type": "function"
    },
    {
      "inputs": [
        {
          "internalType": "uint256",
          "name": "_endTime",
          "type": "uint256"
        },
        {
          "internalType": "uint256",
          "name": "_ticketPrice",
          "type": "uint256"
        },
        {
          "internalType": "uint256[4]",
          "name": "_rewardsBreakdown",
          "type": "uint256[4]"
        }
      ],
      "name": "startLottery",
      "outputs": [],
      "stateMutability": "nonpayable",
      "type": "function"
    },
    {
      "inputs": [
        {
          "internalType": "uint256",
          "name": "",
          "type": "uint256"
        }
      ],
      "name": "tickets",
      "outputs": [
        {
          "internalType": "uint32",
          "name": "number",
          "type": "uint32"
        },
        {
          "internalType": "address",
          "name": "owner",
          "type": "address"
        }
      ],
      "stateMutability": "view",
      "type": "function"
    },
    {
      "inputs": [
        {
          "internalType": "address",
          "name": "newOwner",
          "type": "address"
        }
      ],
      "name": "transferOwnership",
      "outputs": [],
      "stateMutability": "nonpayable",
      "type": "function"
    },
    {
      "inputs": [],
      "name": "treasury",
      "outputs": [
        {
          "internalType": "address",
          "name": "",
          "type": "address"
        }
      ],
      "stateMutability": "view",
      "type": "function"
    },
    {
      "inputs": [],
      "name": "treasuryFee",
      "outputs": [
        {
          "internalType": "uint256",
          "name": "",
          "type": "uint256"
        }
      ],
      "stateMutability": "view",
      "type": "function"
    },
    {
      "inputs": [
        {
          "internalType": "address",
          "name": "",
          "type": "address"
        },
        {
          "internalType": "uint256",
          "name": "",
          "type": "uint256"
        }
      ],
      "name": "userClaimed",
      "outputs": [
        {
          "internalType": "uint256",
          "name": "",
          "type": "uint256"
        }
      ],
      "stateMutability": "view",
      "type": "function"
    },
    {
      "inputs": [
        {
          "internalType": "uint256",
          "name": "_startId",
          "type": "uint256"
        },
        {
          "internalType": "uint256",
          "name": "_endId",
          "type": "uint256"
        }
      ],
      "name": "viewAllLottery",
      "outputs": [
        {
          "components": [
            {
              "internalType": "enum DegisLotteryV2.Status",
              "name": "status",
              "type": "uint8"
            },
            {
              "internalType": "uint8",
              "name": "treasuryFee",
              "type": "uint8"
            },
            {
              "internalType": "uint32",
              "name": "startTime",
              "type": "uint32"
            },
            {
              "internalType": "uint32",
              "name": "endTime",
              "type": "uint32"
            },
            {
              "internalType": "uint32",
              "name": "finalNumber",
              "type": "uint32"
            },
            {
              "internalType": "uint256",
              "name": "ticketPrice",
              "type": "uint256"
            },
            {
              "internalType": "uint256[4]",
              "name": "rewardsBreakdown",
              "type": "uint256[4]"
            },
            {
              "internalType": "uint256[4]",
              "name": "rewardPerTicketInBracket",
              "type": "uint256[4]"
            },
            {
              "internalType": "uint256[4]",
              "name": "countWinnersPerBracket",
              "type": "uint256[4]"
            },
            {
              "internalType": "uint256",
              "name": "firstTicketId",
              "type": "uint256"
            },
            {
              "internalType": "uint256",
              "name": "firstTicketIdNextRound",
              "type": "uint256"
            },
            {
              "internalType": "uint256",
              "name": "amountCollected",
              "type": "uint256"
            },
            {
              "internalType": "uint256",
              "name": "pendingRewards",
              "type": "uint256"
            }
          ],
          "internalType": "struct DegisLotteryV2.Lottery[]",
          "name": "",
          "type": "tuple[]"
        }
      ],
      "stateMutability": "view",
      "type": "function"
    },
    {
      "inputs": [
        {
          "internalType": "uint256[]",
          "name": "_ticketIds",
          "type": "uint256[]"
        }
      ],
      "name": "viewNumbersPerTicketId",
      "outputs": [
        {
          "internalType": "uint32[]",
          "name": "",
          "type": "uint32[]"
        }
      ],
      "stateMutability": "view",
      "type": "function"
    },
    {
      "inputs": [
        {
          "internalType": "uint256",
          "name": "_lotteryId",
          "type": "uint256"
        }
      ],
      "name": "viewRewardPerTicketInBracket",
      "outputs": [
        {
          "internalType": "uint256[4]",
          "name": "",
          "type": "uint256[4]"
        }
      ],
      "stateMutability": "view",
      "type": "function"
    },
    {
      "inputs": [
        {
          "internalType": "uint256",
          "name": "_lotteryId",
          "type": "uint256"
        }
      ],
      "name": "viewRewardsBreakdown",
      "outputs": [
        {
          "internalType": "uint256[4]",
          "name": "",
          "type": "uint256[4]"
        }
      ],
      "stateMutability": "view",
      "type": "function"
    },
    {
      "inputs": [
        {
          "internalType": "uint256",
          "name": "_lotteryId",
          "type": "uint256"
        },
        {
          "internalType": "uint256",
          "name": "_ticketId",
          "type": "uint256"
        }
      ],
      "name": "viewRewardsForTicketId",
      "outputs": [
        {
          "internalType": "uint256",
          "name": "",
          "type": "uint256"
        }
      ],
      "stateMutability": "view",
      "type": "function"
    },
    {
      "inputs": [
        {
          "internalType": "address",
          "name": "_user",
          "type": "address"
        },
        {
          "internalType": "uint256",
          "name": "_startRound",
          "type": "uint256"
        },
        {
          "internalType": "uint256",
          "name": "_endRound",
          "type": "uint256"
        }
      ],
      "name": "viewUserRewards",
      "outputs": [
        {
          "internalType": "uint256[]",
          "name": "userRewards",
          "type": "uint256[]"
        }
      ],
      "stateMutability": "view",
      "type": "function"
    },
    {
      "inputs": [
        {
          "internalType": "address",
          "name": "_wallet",
          "type": "address"
        },
        {
          "internalType": "uint256",
          "name": "_lotteryId",
          "type": "uint256"
        }
      ],
      "name": "viewWalletTicketIds",
      "outputs": [
        {
          "internalType": "uint256[]",
          "name": "",
          "type": "uint256[]"
        }
      ],
      "stateMutability": "view",
      "type": "function"
    },
    {
      "inputs": [
        {
          "internalType": "uint256",
          "name": "_lotteryId",
          "type": "uint256"
        }
      ],
      "name": "viewWinnerAmount",
      "outputs": [
        {
          "internalType": "uint256[4]",
          "name": "",
          "type": "uint256[4]"
        }
      ],
      "stateMutability": "view",
      "type": "function"
    }
  ],
  "transactionHash": "0x4217d58cdb26e483f309f5dc9d5d52dfe4789bbca2eab4b990a89c719fc2487f",
  "args": [],
  "numDeployments": 3,
  "solcInputHash": "79d38fa9d9d1773cb88caf5cf68ddd6f",
  "bytecode": "0x608060405234801561001057600080fd5b506141fa806100206000396000f3fe608060405234801561001057600080fd5b50600436106102e95760003560e01c80636be4097c11610191578063c38de539116100e3578063e1059fe511610097578063f2b3c80911610071578063f2b3c809146106d0578063f2fde38b146106d9578063fcbf8b24146106ec57600080fd5b8063e1059fe514610697578063e359ebec146106aa578063f0f44260146106bd57600080fd5b8063c914914f116100c8578063c914914f14610668578063cc32d1761461067b578063dcbad90d1461068457600080fd5b8063c38de53914610642578063c6e761a91461065557600080fd5b80638da5cb5b116101455780639d8ca5311161011f5780639d8ca531146105e9578063b46e130e146105fc578063b5877b221461062257600080fd5b80638da5cb5b146105a5578063972fe683146105b657806398359fa1146105d657600080fd5b8063715018a611610176578063715018a6146105695780637250e45d146105715780637741879b1461057a57600080fd5b80636be4097c1461054d5780636fa053eb1461055657600080fd5b806344848a991161024a5780635b0d64c2116101fe57806365dc59d6116101d857806365dc59d614610511578063686465b8146105315780636bcac0ff1461053a57600080fd5b80635b0d64c2146104c957806361d027b3146104e9578063656f8a251461050957600080fd5b806350b447121161022f57806350b447121461045c57806351f54339146104a35780635745464b146104b657600080fd5b806344848a9914610436578063485cc9551461044957600080fd5b80631e6425fd116102a157806326df6c271161028657806326df6c27146103f05780633732b4ee146104035780633f138d4b1461042357600080fd5b80631e6425fd146103c85780632149485d146103dd57600080fd5b80631398e076116102d25780631398e0761461031657806314a0792f146103a35780631b6c743b146103b957600080fd5b80630ab2b086146102ee57806312a9769d1461030d575b600080fd5b6102f7609c5481565b6040516103049190612da8565b60405180910390f35b6102f7609d5481565b61038d610324366004612dce565b609e60205260009081526040902080546001820154600e830154600f840154601085015460119095015460ff8086169661010087049091169563ffffffff62010000820481169666010000000000008304821696600160501b909304909116949093919290918a565b6040516103049a99989796959493929190612e4d565b6103ac61271081565b6040516103049190612ee2565b6102f7678ac7230489e8000081565b6103db6103d6366004612dce565b610717565b005b6102f76103eb366004612ef0565b61078a565b6102f76103fe366004612f52565b61081d565b610416610411366004612dce565b61085b565b6040516103049190612feb565b6103db610431366004612ff9565b6108aa565b6103db610444366004612dce565b6109b1565b6103db61045736600461301b565b610c73565b61049561046a366004612dce565b609f6020526000908152604090205463ffffffff81169064010000000090046001600160a01b031682565b604051610304929190613057565b6103db6104b1366004613086565b610dfa565b6103ac6104c4366004612dce565b610faf565b6104dc6104d736600461311e565b61101e565b60405161030491906131b7565b6099546104fc906001600160a01b031681565b60405161030491906131c8565b6102f7606281565b609754610524906001600160a01b031681565b6040516103049190613218565b6102f7609b5481565b610416610548366004612dce565b6110f4565b6102f7609a5481565b610416610564366004612dce565b611142565b6103db611190565b6103ac614e1f81565b6102f761058836600461323d565b60a060209081526000928352604080842090915290825290205481565b6065546001600160a01b03166104fc565b6105c96105c4366004612ef0565b6111c6565b60405161030491906133e5565b6103db6105e43660046133f6565b6113e7565b6103db6105f7366004612dce565b611563565b6103ac61060a366004613417565b60a26020526000908152604090205463ffffffff1681565b610635610630366004612f52565b6116e3565b6040516103049190613475565b6103db610650366004613499565b611918565b610635610663366004612ff9565b611e7d565b6103db6106763660046134cc565b611ef2565b6102f760a45481565b609854610524906001600160a01b031681565b6103db6106a536600461311e565b6122e1565b6103db6106b8366004612dce565b612709565b6103db6106cb3660046133f6565b612828565b6102f76107d081565b6103db6106e73660046133f6565b6128c8565b6102f76106fa366004612ff9565b60a360209081526000928352604080842090915290825290205481565b6065546001600160a01b0316331461074a5760405162461bcd60e51b81526004016107419061358c565b60405180910390fd5b7f67d06ff5b9d79811174a2f0df6d9be98aa3b3f9ae311716140cb1b0668c11843609c548260405161077d92919061359c565b60405180910390a1609c55565b600060036000848152609e602052604090205460ff1660038111156107b1576107b1612def565b146107be57506000610817565b6000838152609e60205260409020600f01548211806107ed57506000838152609e60205260409020600e015482105b156107fa57506000610817565b60006108068484612924565b90506108138484836129d2565b9150505b92915050565b60a1602052826000526040600020602052816000526040600020818154811061084557600080fd5b9060005260206000200160009250925050505481565b610863612cb4565b6000828152609e60205260409081902081516080810190925260020160048282826020028201915b81548152602001906001019080831161088b5750505050509050919050565b6065546001600160a01b031633146108d45760405162461bcd60e51b81526004016107419061358c565b6097546001600160a01b03908116908316036109025760405162461bcd60e51b8152600401610741906135e9565b60405163a9059cbb60e01b81526001600160a01b0383169063a9059cbb9061093090339085906004016135f9565b6020604051808303816000875af115801561094f573d6000803e3d6000fd5b505050506040513d601f19601f820116820180604052508101906109739190613612565b507f74545154aac348a3eac92596bd1971957ca94795f4e954ec5f613b55fab7812982826040516109a59291906135f9565b60405180910390a15050565b333b156109d05760405162461bcd60e51b815260040161074190613665565b3332146109ef5760405162461bcd60e51b8152600401610741906136a7565b600260015403610a115760405162461bcd60e51b8152600401610741906136e9565b600260015560036000828152609e602052604090205460ff166003811115610a3b57610a3b612def565b14610a585760405162461bcd60e51b81526004016107419061372b565b33600090815260a160209081526040808320848452909152812054815b81811015610b6e5733600090815260a1602090815260408083208784529091528120805483908110610aa957610aa961373b565b600091825260208083209190910154808352609f90915260409091205490915064010000000090046001600160a01b03163314610af85760405162461bcd60e51b815260040161074190613783565b6000818152609f6020526040812080547fffffffffffffffff0000000000000000000000000000000000000000ffffffff169055610b368683612924565b905060048163ffffffff161015610b64576000610b548784846129d2565b9050610b6081876137a9565b9550505b5050600101610a75565b508115610c125760975460405163a9059cbb60e01b81526001600160a01b039091169063a9059cbb90610ba790339086906004016135f9565b6020604051808303816000875af1158015610bc6573d6000803e3d6000fd5b505050506040513d601f19601f82011682018060405250810190610bea9190613612565b506000838152609e602052604081206011018054849290610c0c9084906137c1565b90915550505b33600081815260a36020908152604080832087845290915290819020839055518491907f0fdeb33b5931b477077383757e0ba077bd3d8eddfa2cc711c54ad2d3a0cfac6590610c62908690612da8565b60405180910390a350506001805550565b600054610100900460ff16610c8e5760005460ff1615610c92565b303b155b610cae5760405162461bcd60e51b815260040161074190613836565b600054610100900460ff16158015610cd0576000805461ffff19166101011790555b610cd8612ad4565b610ce0612b03565b609780546001600160a01b0380861673ffffffffffffffffffffffffffffffffffffffff19928316179092556098805492851692909116919091179055600a609c5560a26020527f8fa6f0ecb9543d3381552e96aa43533c7f086066e38816919ea0cfae371b342a805463ffffffff1990811660019081179092557f87286cc7b9cf8a377e677776b2644ce858185998d33108f493bdc3c2f07b983680548216600b1790557f984fb507cc15174c9c2666d8998832bf192b808658c1b8547c17c86e40ea581480548216606f17905560036000527f4ed878d3ddcb61d84861a74cb3bb4189ee298a8a85e8f1b99bcffb157f7e18848054909116610457179055609b558015610df5576000805461ff00191690555b505050565b609a541580610e2e57506003609a546000908152609e602052604090205460ff166003811115610e2c57610e2c612def565b145b610e4a5760405162461bcd60e51b815260040161074190613878565b61271060608201356040830135610e66602085013585356137a9565b610e7091906137a9565b610e7a91906137a9565b1115610e985760405162461bcd60e51b8152600401610741906138ba565b6000808311610eaf57678ac7230489e80000610eb1565b825b90506000609a60008154610ec4906138ca565b91829055506000818152609e60205260409020805469ffffffffffffffff00ff1916620100004263ffffffff9081169190910269ffffffff00000000000019169190911766010000000000009189169190910217600190811782558101849055909150610f3660028201856004612cd2565b5060a454815460ff9091166101000261ff0019909116178155609d80546010830155609b54600e8301555460405183917f5e7c17be0c6c11472c23d5df180e5136efb90395ccff56f1fcfb8db6b5a0a23591610f9a9142918b9189918b91906138fb565b60405180910390a250506000609d5550505050565b600080610fbe612710846137c1565b9050600080805b600481101561100857610fd9600a8561395e565b925082610fe783600a613976565b610ff191906137a9565b9150610ffe600a85613995565b9350600101610fc5565b50611015816127106137a9565b95945050505050565b60608160008167ffffffffffffffff81111561103c5761103c6139a9565b604051908082528060200260200182016040528015611065578160200160208202803683370190505b50905060005b828110156110eb57609f60008787848181106110895761108961373b565b90506020020135815260200190815260200160002060000160009054906101000a900463ffffffff168282815181106110c4576110c461373b565b63ffffffff90921660209283029190910190910152806110e3816138ca565b91505061106b565b50949350505050565b6110fc612cb4565b6000828152609e602052604090819020815160808101909252600601600482828260200282019181548152602001906001019080831161088b5750505050509050919050565b61114a612cb4565b6000828152609e602052604090819020815160808101909252600a01600482828260200282019181548152602001906001019080831161088b5750505050509050919050565b6065546001600160a01b031633146111ba5760405162461bcd60e51b81526004016107419061358c565b6111c46000612b30565b565b606060006111d484846137c1565b6111df9060016137a9565b67ffffffffffffffff8111156111f7576111f76139a9565b60405190808252806020026020018201604052801561123057816020015b61121d612d10565b8152602001906001900390816112155790505b509050835b8381116113df576000818152609e60205260409081902081516101a081019092528054829060ff16600381111561126e5761126e612def565b600381111561127f5761127f612def565b8152815460ff610100820416602083015263ffffffff62010000820481166040808501919091526601000000000000830482166060850152600160501b90920416608080840191909152600184015460a084015281519081019182905260c09092019190600284019060049082845b8154815260200190600101908083116112ee57505050918352505060408051608081019182905260209092019190600684019060049082845b81548152602001906001019080831161132757505050918352505060408051608081019182905260209092019190600a84019060049082845b815481526020019060010190808311611360575050509183525050600e8201546020820152600f820154604082015260108201546060820152601190910154608090910152826113b16001846137c1565b815181106113c1576113c161373b565b602002602001018190525080806113d7906138ca565b915050611235565b509392505050565b6065546001600160a01b031633146114115760405162461bcd60e51b81526004016107419061358c565b6003609a546000908152609e602052604090205460ff16600381111561143957611439612def565b146114565760405162461bcd60e51b81526004016107419061372b565b806001600160a01b031663e0c862896040518163ffffffff1660e01b8152600401600060405180830381600087803b15801561149157600080fd5b505af11580156114a5573d6000803e3d6000fd5b50505050806001600160a01b03166342619f666040518163ffffffff1660e01b8152600401602060405180830381865afa1580156114e7573d6000803e3d6000fd5b505050506040513d601f19601f8201168201806040525081019061150b91906139ca565b506098805473ffffffffffffffffffffffffffffffffffffffff19166001600160a01b0383169081179091556040517f383f8cb39dfa7c3fb901a460dd449ea924868f0a92ff03da64740fffa5f1de6290600090a250565b6065546001600160a01b0316331461158d5760405162461bcd60e51b81526004016107419061358c565b6002600154036115af5760405162461bcd60e51b8152600401610741906136e9565b600260019081556000828152609e602052604090205460ff1660038111156115d9576115d9612def565b146115f65760405162461bcd60e51b815260040161074190613a43565b6000818152609e60205260409020546601000000000000900463ffffffff1642116116335760405162461bcd60e51b815260040161074190613a85565b609860009054906101000a90046001600160a01b03166001600160a01b031663e0c862896040518163ffffffff1660e01b8152600401600060405180830381600087803b15801561168357600080fd5b505af1158015611697573d6000803e3d6000fd5b5050506000828152609e6020526040808220805460ff19166002179055518392507f8bc84e5d97533c428862626ac41fe7bc09b1ea2ed5e9e330d84092db8df153669190a25060018055565b60606116ef83836137c1565b6116fa9060016137a9565b67ffffffffffffffff811115611712576117126139a9565b60405190808252806020026020018201604052801561173b578160200160208202803683370190505b509050825b8281116113df576001600160a01b038516600090815260a160209081526040808320848452825291829020548251808401909352600f83527f7469636b657420616d6f756e743a20000000000000000000000000000000000091830191909152906117ab9082612b8f565b6117ea6040518060400160405280600a81526020017f67617320757365643a20000000000000000000000000000000000000000000008152505a612b8f565b801561190f576001600160a01b038616600090815260a16020908152604080832085845282528083208054825181850281018501909352808352919290919083018282801561185857602002820191906000526020600020905b815481526020019060010190808311611844575b5050505050905060005b8281101561190c57600061188f858484815181106118825761188261373b565b602002602001015161078a565b9050808661189e6001886137c1565b815181106118ae576118ae61373b565b602002602001018181516118c291906137a9565b90525060408051808201909152600781527f7265776172643a0000000000000000000000000000000000000000000000000060208201526119039082612b8f565b50600101611862565b50505b50600101611740565b6065546001600160a01b031633146119425760405162461bcd60e51b81526004016107419061358c565b6002600154036119645760405162461bcd60e51b8152600401610741906136e9565b600260018190556000838152609e602052604090205460ff16600381111561198e5761198e612def565b146119ab5760405162461bcd60e51b815260040161074190613ac7565b609860009054906101000a90046001600160a01b03166001600160a01b031663eed8e1ee6040518163ffffffff1660e01b8152600401602060405180830381865afa1580156119fe573d6000803e3d6000fd5b505050506040513d601f19601f82011682018060405250810190611a2291906139ca565b8214611a405760405162461bcd60e51b815260040161074190613b09565b6099546001600160a01b0316611a685760405162461bcd60e51b815260040161074190613b4b565b609854604080517f42619f6600000000000000000000000000000000000000000000000000000000815290516000926001600160a01b0316916342619f669160048083019260209291908290030181865afa158015611acb573d6000803e3d6000fd5b505050506040513d601f19601f82011682018060405250810190611aef91906139ca565b6000848152609e6020526040812060108101549293509190612710611b1683611f40613976565b611b209190613995565b835490915060009061271090611b4090610100900460ff166107d0613b5b565b611b4e9061ffff1685613976565b611b589190613995565b9050600081611b6784866137c1565b611b7191906137c1565b90506000805b60048163ffffffff161015611d72576000611b93826003613b69565b90506000611ba2826001613b79565b611bad90600a613cb1565b611bb7908b613cd4565b63ffffffff808416600090815260a26020526040902054611bd9929116613b79565b60008d815260a06020908152604080832063ffffffff85168452909152902054909150611c0685826137c1565b8a600a018463ffffffff1660048110611c2157611c2161373b565b0155808514611d0557896002018363ffffffff1660048110611c4557611c4561373b565b015415611d0057612710611c5986836137c1565b898c6002018663ffffffff1660048110611c7557611c7561373b565b0154611c819190613976565b611c8b9190613995565b611c959190613995565b8a6006018463ffffffff1660048110611cb057611cb061373b565b01556127108860028c0163ffffffff861660048110611cd157611cd161373b565b0154611cdd9190613976565b611ce79190613995565b8a6011016000828254611cfa91906137a9565b90915550505b611d66565b60008a6006018463ffffffff1660048110611d2257611d2261373b565b01556127108860028c0163ffffffff861660048110611d4357611d4361373b565b0154611d4f9190613976565b611d599190613995565b611d6390886137a9565b96505b93505050600101611b77565b5085546dffffffff000000000000000000ff191660ff19600160501b63ffffffff8a160216176003178655609b54600f8701558715611db157609d8390555b8115611e325760975460995460405163a9059cbb60e01b81526001600160a01b039283169263a9059cbb92611ded9291169086906004016135f9565b6020604051808303816000875af1158015611e0c573d6000803e3d6000fd5b505050506040513d601f19601f82011682018060405250810190611e309190613612565b505b609a547f98e31a6607b8b15b4d5b91de54f4c09ffe4c4cf162aa532c70b5213754e2e7038883604051611e66929190613cff565b60405180910390a250506001805550505050505050565b6001600160a01b038216600090815260a1602090815260408083208484528252808320805482518185028101850190935280835260609493830182828015611ee457602002820191906000526020600020905b815481526020019060010190808311611ed0575b509398975050505050505050565b333b15611f115760405162461bcd60e51b815260040161074190613665565b333214611f305760405162461bcd60e51b8152600401610741906136a7565b600260015403611f525760405162461bcd60e51b8152600401610741906136e9565b600260015560036000868152609e602052604090205460ff166003811115611f7c57611f7c612def565b14611f995760405162461bcd60e51b81526004016107419061372b565b82818114611fb95760405162461bcd60e51b815260040161074190613d3f565b60008111611fd95760405162461bcd60e51b815260040161074190613d81565b609c54811115611ffb5760405162461bcd60e51b815260040161074190613dc3565b6000868152609e60205260408120815b838110156121be5760008888838181106120275761202761373b565b90506020020135905082600e01548110156120545760405162461bcd60e51b815260040161074190613e05565b82600f015481106120775760405162461bcd60e51b815260040161074190613e47565b6000818152609f602052604090205464010000000090046001600160a01b031633146120b55760405162461bcd60e51b815260040161074190613eaf565b6000818152609f6020526040812080547fffffffffffffffff0000000000000000000000000000000000000000ffffffff16905561211a8b838a8a878181106121005761210061373b565b90506020020160208101906121159190613417565b6129d2565b905060038888858181106121305761213061373b565b90506020020160208101906121459190613417565b63ffffffff1610156121a5576121888b838a8a878181106121685761216861373b565b905060200201602081019061217d9190613417565b612115906001613b79565b156121a55760405162461bcd60e51b815260040161074190613ef1565b6121af81866137a9565b9450826001019250505061200b565b5033600090815260a3602090815260408083208b8452909152812080548592906121e99084906137a9565b90915550508115612291576000888152609e6020526040812060110180548492906122159084906137c1565b909155505060975460405163a9059cbb60e01b81526001600160a01b039091169063a9059cbb9061224c90339086906004016135f9565b6020604051808303816000875af115801561226b573d6000803e3d6000fd5b505050506040513d601f19601f8201168201806040525081019061228f9190613612565b505b87336001600160a01b03167f0fdeb33b5931b477077383757e0ba077bd3d8eddfa2cc711c54ad2d3a0cfac65846040516122cb9190612da8565b60405180910390a3505060018055505050505050565b333b156123005760405162461bcd60e51b815260040161074190613665565b33321461231f5760405162461bcd60e51b8152600401610741906136a7565b6002600154036123415760405162461bcd60e51b8152600401610741906136e9565b600260015580806123645760405162461bcd60e51b815260040161074190613f33565b609c548111156123865760405162461bcd60e51b815260040161074190613f75565b609a546000818152609e60205260409020906001825460ff1660038111156123b0576123b0612def565b146123cd5760405162461bcd60e51b815260040161074190613fb7565b60006123dd836001015485612c06565b6097546040516323b872dd60e01b81529192506001600160a01b0316906323b872dd9061241290339030908690600401613fc7565b6020604051808303816000875af1158015612431573d6000803e3d6000fd5b505050506040513d601f19601f820116820180604052508101906124559190613612565b506000828152609e6020526040812060100180548392906124779084906137a9565b90915550600090505b848110156126b857600087878381811061249c5761249c61373b565b90506020020160208101906124b19190613417565b905061271063ffffffff8216108015906124d35750614e1f63ffffffff821611155b6124ef5760405162461bcd60e51b815260040161074190614029565b600084815260a06020526040812090612509600a84613cd4565b612514906001613b79565b63ffffffff1663ffffffff1681526020019081526020016000206000815461253b906138ca565b90915550600084815260a06020526040812090612559606484613cd4565b61256490600b613b79565b63ffffffff1663ffffffff1681526020019081526020016000206000815461258b906138ca565b90915550600084815260a060205260408120906125aa6103e884613cd4565b6125b590606f613b79565b63ffffffff1663ffffffff168152602001908152602001600020600081546125dc906138ca565b90915550600084815260a060205260408120906125fb61271084613cd4565b61260790610457613b79565b63ffffffff1663ffffffff1681526020019081526020016000206000815461262e906138ca565b90915550609b805433600081815260a1602090815260408083208a8452825280832080546001818101835591855283852001869055948352609f909152902080546401000000009092027fffffffffffffffff00000000000000000000000000000000000000000000000090921663ffffffff909516949094171790925580548201905501612480565b5081336001600160a01b03167fc7c1448de202b1838ad1d7fae75dbd69dc79f98d656f7b30f08dc451c9ab7ff886846040516126f592919061359c565b60405180910390a350506001805550505050565b609a5460016000828152609e602052604090205460ff16600381111561273157612731612def565b1461274e5760405162461bcd60e51b815260040161074190613fb7565b6000818152609e60205260408120601001805484929061276f9084906137a9565b90915550506097546040516323b872dd60e01b81526001600160a01b03909116906323b872dd906127a890339030908790600401613fc7565b6020604051808303816000875af11580156127c7573d6000803e3d6000fd5b505050506040513d601f19601f820116820180604052508101906127eb9190613612565b50807f1bbd659dd628a25f7ff2eabb69c74a56939c539728282275c1c9c1a2d3e340498360405161281c9190612da8565b60405180910390a25050565b6065546001600160a01b031633146128525760405162461bcd60e51b81526004016107419061358c565b6099546040517f8c3aa5f43a388513435861bf27dfad7829cd248696fed367c62d441f6295449691612891916001600160a01b03909116908490614039565b60405180910390a16099805473ffffffffffffffffffffffffffffffffffffffff19166001600160a01b0392909216919091179055565b6065546001600160a01b031633146128f25760405162461bcd60e51b81526004016107419061358c565b6001600160a01b0381166129185760405162461bcd60e51b81526004016107419061409f565b61292181612b30565b50565b6000818152609f6020908152604080832054858452609e9092529091205460049163ffffffff90811691600160501b90041660015b60048163ffffffff16116129c95761297281600a613cb1565b61297c9084613cd4565b63ffffffff1661298d82600a613cb1565b6129979084613cd4565b63ffffffff16036129b4576129ad600182613b69565b93506129b9565b6129c9565b6129c2816140af565b9050612959565b50505092915050565b6000828152609f6020908152604080832054868452609e90925282205463ffffffff91821691600160501b9091041682612a0d856001613b79565b612a1890600a613cb1565b90506000612a268284613cd4565b63ffffffff808816600090815260a26020526040902054612a48929116613b79565b90506000612a568386613cd4565b63ffffffff808916600090815260a26020526040902054612a78929116613b79565b90508063ffffffff168263ffffffff1603612ac3576000898152609e6020526040902060060163ffffffff881660048110612ab557612ab561373b565b015495505050505050612acd565b6000955050505050505b9392505050565b600054610100900460ff16612afb5760405162461bcd60e51b815260040161074190614123565b6111c4612c63565b600054610100900460ff16612b2a5760405162461bcd60e51b815260040161074190614123565b60018055565b606580546001600160a01b0383811673ffffffffffffffffffffffffffffffffffffffff19831681179093556040519116919082907f8be0079c531659141344cd1fd0a4f28419497f9722a3daafe3b4186f6b6457e090600090a35050565b612c028282604051602401612ba5929190614195565b60408051601f198184030181529190526020810180517bffffffffffffffffffffffffffffffffffffffffffffffffffffffff167f9710a9d000000000000000000000000000000000000000000000000000000000179052612c93565b5050565b60006001821115612c5c576000612c1e6001846137c1565b9050612c2b8160646141b5565b612c368260626141b5565b612c408587613976565b612c4a9190613976565b612c549190613995565b915050610817565b5090919050565b600054610100900460ff16612c8a5760405162461bcd60e51b815260040161074190614123565b6111c433612b30565b80516a636f6e736f6c652e6c6f67602083016000808483855afa5050505050565b60405180608001604052806004906020820280368337509192915050565b8260048101928215612d00579160200282015b82811115612d00578235825591602001919060010190612ce5565b50612d0c929150612d8b565b5090565b604080516101a08101909152806000815260006020820181905260408201819052606082018190526080820181905260a082015260c001612d4f612cb4565b8152602001612d5c612cb4565b8152602001612d69612cb4565b8152602001600081526020016000815260200160008152602001600081525090565b5b80821115612d0c5760008155600101612d8c565b805b82525050565b602081016108178284612da0565b805b811461292157600080fd5b803561081781612db6565b600060208284031215612de357612de3600080fd5b60006108138484612dc3565b634e487b7160e01b600052602160045260246000fd5b6004811061292157612921612def565b80612e1f81612e05565b919050565b600061081782612e15565b612da281612e24565b60ff8116612da2565b63ffffffff8116612da2565b6101408101612e5c828d612e2f565b612e69602083018c612e38565b612e76604083018b612e41565b612e83606083018a612e41565b612e906080830189612e41565b612e9d60a0830188612da0565b612eaa60c0830187612da0565b612eb760e0830186612da0565b612ec5610100830185612da0565b612ed3610120830184612da0565b9b9a5050505050505050505050565b602081016108178284612e41565b60008060408385031215612f0657612f06600080fd5b6000612f128585612dc3565b9250506020612f2385828601612dc3565b9150509250929050565b60006001600160a01b038216610817565b612db881612f2d565b803561081781612f3e565b600080600060608486031215612f6a57612f6a600080fd5b6000612f768686612f47565b9350506020612f8786828701612dc3565b9250506040612f9886828701612dc3565b9150509250925092565b612fac8282612da0565b5060200190565b60200190565b60048160005b82811015612fe4578151612fd38682612fa2565b955050602082019150600101612fbf565b5050505050565b608081016108178284612fb9565b6000806040838503121561300f5761300f600080fd5b6000612f128585612f47565b6000806040838503121561303157613031600080fd5b600061303d8585612f47565b9250506020612f2385828601612f47565b612da281612f2d565b604081016130658285612e41565b612acd602083018461304e565b806080810183101561081757610817600080fd5b600080600060c0848603121561309e5761309e600080fd5b60006130aa8686612dc3565b93505060206130bb86828701612dc3565b9250506040612f9886828701613072565b60008083601f8401126130e1576130e1600080fd5b50813567ffffffffffffffff8111156130fc576130fc600080fd5b60208301915083602082028301111561311757613117600080fd5b9250929050565b6000806020838503121561313457613134600080fd5b823567ffffffffffffffff81111561314e5761314e600080fd5b61315a858286016130cc565b92509250509250929050565b612fac8282612e41565b600061317a825190565b808452602093840193830160005b828110156131ad57815161319c8782613166565b965050602082019150600101613188565b5093949350505050565b60208082528101612acd8184613170565b60208101610817828461304e565b60006108176001600160a01b0383166131ed565b90565b6001600160a01b031690565b6000610817826131d6565b6000610817826131f9565b612da281613204565b60208101610817828461320f565b63ffffffff8116612db8565b803561081781613226565b6000806040838503121561325357613253600080fd5b600061325f8585612dc3565b9250506020612f2385828601613232565b60048160005b82811015612fe457815161328a8682612fa2565b955050602082019150600101613276565b80516132a78382612e2f565b5060208101516132ba6020840182612e38565b5060408101516132cd6040840182612e41565b5060608101516132e06060840182612e41565b5060808101516132f36080840182612e41565b5060a081015161330660a0840182612da0565b5060c081015161331960c0840182613270565b5060e081015161332d610140840182613270565b506101008101516133426101c0840182613270565b50610120810151613357610240840182612da0565b5061014081015161336c610260840182612da0565b50610160810151613381610280840182612da0565b50610180810151610df56102a0840182612da0565b6133a0828261329b565b506102c00190565b60006133b2825190565b808452602093840193830160005b828110156131ad5781516133d48782613396565b9650506020820191506001016133c0565b60208082528101612acd81846133a8565b60006020828403121561340b5761340b600080fd5b60006108138484612f47565b60006020828403121561342c5761342c600080fd5b60006108138484613232565b6000613442825190565b808452602093840193830160005b828110156131ad5781516134648782612fa2565b965050602082019150600101613450565b60208082528101612acd8184613438565b801515612db8565b803561081781613486565b600080604083850312156134af576134af600080fd5b60006134bb8585612dc3565b9250506020612f238582860161348e565b6000806000806000606086880312156134e7576134e7600080fd5b60006134f38888612dc3565b955050602086013567ffffffffffffffff81111561351357613513600080fd5b61351f888289016130cc565b9450945050604086013567ffffffffffffffff81111561354157613541600080fd5b61354d888289016130cc565b92509250509295509295909350565b60208082527f4f776e61626c653a2063616c6c6572206973206e6f7420746865206f776e65729101908152612fb3565b602080825281016108178161355c565b604081016135aa8285612da0565b612acd6020830184612da0565b60158152602081017f43616e6e6f7420626520444547495320746f6b656e000000000000000000000081529050612fb3565b60208082528101610817816135b7565b604081016135aa828561304e565b805161081781613486565b60006020828403121561362757613627600080fd5b60006108138484613607565b60148152602081017f436f6e7472616374206e6f7420616c6c6f77656400000000000000000000000081529050612fb3565b6020808252810161081781613633565b601a8152602081017f50726f787920636f6e7472616374206e6f7420616c6c6f77656400000000000081529050612fb3565b6020808252810161081781613675565b601f8152602081017f5265656e7472616e637947756172643a207265656e7472616e742063616c6c0081529050612fb3565b60208082528101610817816136b7565b60138152602081017f526f756e64206e6f7420636c61696d61626c650000000000000000000000000081529050612fb3565b60208082528101610817816136f9565b634e487b7160e01b600052603260045260246000fd5b60148152602081017f4e6f7420746865207469636b6574206f776e657200000000000000000000000081529050612fb3565b6020808252810161081781613751565b634e487b7160e01b600052601160045260246000fd5b600082198211156137bc576137bc613793565b500190565b815b91506000828210156137d7576137d7613793565b500390565b602e8152602081017f496e697469616c697a61626c653a20636f6e747261637420697320616c72656181527f647920696e697469616c697a6564000000000000000000000000000000000000602082015290505b60400190565b60208082528101610817816137dc565b600c8152602081017f57726f6e6720737461747573000000000000000000000000000000000000000081529050612fb3565b6020808252810161081781613846565b601a8152602081017f5265776172647320627265616b646f776e20746f6f206869676800000000000081529050612fb3565b6020808252810161081781613888565b6000600182016138dc576138dc613793565b5060010190565b82818337506000910152565b612c02608083836138e3565b610100810161390a8288612da0565b6139176020830187612da0565b6139246040830186612da0565b61393160608301856138ef565b61393e60e0830184612da0565b9695505050505050565b634e487b7160e01b600052601260045260246000fd5b815b915060008261397157613971613948565b500690565b600081600019048311821515161561399057613990613793565b500290565b6000826139a4576139a4613948565b500490565b634e487b7160e01b600052604160045260246000fd5b805161081781612db6565b6000602082840312156139df576139df600080fd5b600061081384846139bf565b60228152602081017f74686973206c6f7474657279206973206e6f74206f70656e2063757272656e7481527f6c7900000000000000000000000000000000000000000000000000000000000060208201529050613830565b60208082528101610817816139eb565b60128152602081017f4e6f7420726561636820656e642074696d65000000000000000000000000000081529050612fb3565b6020808252810161081781613a53565b60128152602081017f4c6f7474657279206e6f7420636c6f736564000000000000000000000000000081529050612fb3565b6020808252810161081781613a95565b60168152602081017f46696e616c206e756d626572206e6f7420647261776e0000000000000000000081529050612fb3565b6020808252810161081781613ad7565b60138152602081017f5472656173757279206973206e6f74207365740000000000000000000000000081529050612fb3565b6020808252810161081781613b19565b61ffff9081169082166137c3565b63ffffffff9081169082166137c3565b63ffffffff8116905063ffffffff8216915060008263ffffffff038211156137bc576137bc613793565b80825b6001851115613be257808604811115613bc157613bc1613793565b6001851615613bcf57908102905b8002613bdb8560011c90565b9450613ba6565b94509492505050565b600082613bfa57506001612acd565b81613c0757506000612acd565b8160018114613c1d5760028114613c2757613c54565b6001915050612acd565b60ff841115613c3857613c38613793565b8360020a915084821115613c4e57613c4e613793565b50612acd565b5060208310610133831016604e8410600b8410161715613c87575081810a83811115613c8257613c82613793565b612acd565b613c948484846001613ba3565b92509050818404811115613caa57613caa613793565b0292915050565b63ffffffff8116905063ffffffff821691506000612acd63ffffffff8484613beb565b63ffffffff908116908216613960565b60006108176131ea63ffffffff841681565b612da281613ce4565b604081016135aa8285613cf6565b600f8152602081017f4e6f742073616d65206c656e677468000000000000000000000000000000000081529050612fb3565b6020808252810161081781613d0d565b600a8152602081017f4e6f207469636b6574730000000000000000000000000000000000000000000081529050612fb3565b6020808252810161081781613d4f565b60198152602081017f546f6f206d616e79207469636b65747320746f20636c61696d0000000000000081529050612fb3565b6020808252810161081781613d91565b60138152602081017f5469636b657420696420746f6f20736d616c6c0000000000000000000000000081529050612fb3565b6020808252810161081781613dd3565b60138152602081017f5469636b657420696420746f6f206c617267650000000000000000000000000081529050612fb3565b6020808252810161081781613e15565b60278152602081017f4e6f7420746865207469636b6574206f776e6572206f7220616c72656164792081527f636c61696d65640000000000000000000000000000000000000000000000000060208201529050613830565b6020808252810161081781613e57565b60128152602081017f4f6e6c792068696768657374207072697a65000000000000000000000000000081529050612fb3565b6020808252810161081781613ebf565b601b8152602081017f4e6f207469636b65747320617265206265696e6720626f75676874000000000081529050612fb3565b6020808252810161081781613f01565b60108152602081017f546f6f206d616e79207469636b6574730000000000000000000000000000000081529050612fb3565b6020808252810161081781613f43565b600e8152602081017f526f756e64206e6f74206f70656e00000000000000000000000000000000000081529050612fb3565b6020808252810161081781613f85565b60608101613fd5828661304e565b613fe2602083018561304e565b613fef6040830184612da0565b949350505050565b601e8152602081017f5469636b6574206e756d626572206973206f7574736964652072616e6765000081529050612fb3565b6020808252810161081781613ff7565b60408101613065828561304e565b60268152602081017f4f776e61626c653a206e6577206f776e657220697320746865207a65726f206181527f646472657373000000000000000000000000000000000000000000000000000060208201529050613830565b6020808252810161081781614047565b63ffffffff16600063fffffffe1982016138dc576138dc613793565b602b8152602081017f496e697469616c697a61626c653a20636f6e7472616374206973206e6f74206981527f6e697469616c697a696e6700000000000000000000000000000000000000000060208201529050613830565b60208082528101610817816140cb565b60005b8381101561414e578181015183820152602001614136565b8381111561415d576000848401525b50505050565b600061416d825190565b808452602084019350614184818560208601614133565b601f01601f19169290920192915050565b604080825281016141a68185614163565b9050612acd6020830184612da0565b6000612acd6000198484613beb56fea26469706673582212206ce814115d63f8e5dc5fbfd3ec2974f7d2d4305acc58c15726245858f49cde2e64736f6c634300080d0033",
  "devdoc": {
    "kind": "dev",
    "methods": {
      "_reverseTicketNumber(uint256)": {
        "params": {
          "_number": "Input ticket number"
        },
        "returns": {
          "_0": "reversedNumber Reversed number + 10000"
        }
      },
      "buyTickets(uint32[])": {
        "details": "Need to transfer the 4-digit number to a 5-digit number to be used here (+10000)      Can not be called by a smart contract      Can only purchase in the current round      E.g. You are selecting the number of 1-2-3-4 (lowest to highest)           You will need to pass a number \"14321\"",
        "params": {
          "_ticketNumbers": "Array of ticket numbers between 10,000 and 19,999"
        }
      },
      "changeRandomGenerator(address)": {
        "details": "The calls to functions are used to verify the new generator implements them properly.      It is necessary to wait for the VRF response before starting a round.",
        "params": {
          "_randomGeneratorAddress": "address of the random generator"
        }
      },
      "claimAllTickets(uint256)": {
        "details": "Callable by users only, not contract      Gas cost may be oversized, recommended to get brackets offchain first      Get brackets offchain and call function \"claimTickets\"",
        "params": {
          "_lotteryId": "Lottery id"
        }
      },
      "claimTickets(uint256,uint256[],uint32[])": {
        "details": "Callable by users only, not contract",
        "params": {
          "_brackets": "Bracket / prize level of each ticket",
          "_lotteryId": "Lottery id",
          "_ticketIds": "Array of ticket ids"
        }
      },
      "closeLottery(uint256)": {
        "params": {
          "_lotteryId": "Lottery round"
        }
      },
      "drawFinalNumberAndMakeLotteryClaimable(uint256,bool)": {
        "params": {
          "_autoInjection": "Auto inject funds into next lottery",
          "_lotteryId": "Lottery round"
        }
      },
      "initialize(address,address)": {
        "details": "RandomNumberGenerator must be deployed prior to this contract",
        "params": {
          "_degis": "Address of DEG",
          "_randomGenerator": "Address of the RandomGenerator contract used to work with ChainLink VRF"
        }
      },
      "injectFunds(uint256)": {
        "details": "Those DEG transferred to this contract but not by this function      will not be counted for prize pools",
        "params": {
          "_amount": "DEG amount to inject"
        }
      },
      "owner()": {
        "details": "Returns the address of the current owner."
      },
      "recoverWrongTokens(address,uint256)": {
        "params": {
          "_tokenAddress": "Address of the token to withdraw",
          "_tokenAmount": "Token amount to withdraw"
        }
      },
      "renounceOwnership()": {
        "details": "Leaves the contract without owner. It will not be possible to call `onlyOwner` functions anymore. Can only be called by the current owner. NOTE: Renouncing ownership will leave the contract without an owner, thereby removing any functionality that is only available to the owner."
      },
      "setMaxNumberTicketsEachTime(uint256)": {
        "params": {
          "_maxNumber": "Max number each time"
        }
      },
      "setTreasury(address)": {
        "params": {
          "_treasury": "Treasury address"
        }
      },
      "startLottery(uint256,uint256,uint256[4])": {
        "params": {
          "_endTime": "EndTime of the lottery",
          "_rewardsBreakdown": "Breakdown of rewards per bracket (must sum to 10,000)(100 <=> 1)",
          "_ticketPrice": "Price of each ticket without discount"
        }
      },
      "transferOwnership(address)": {
        "details": "Transfers ownership of the contract to a new account (`newOwner`). Can only be called by the current owner."
      },
      "viewAllLottery(uint256,uint256)": {
        "params": {
          "_endId": "End lottery id",
          "_startId": "Start lottery id"
        },
        "returns": {
          "_0": "Array of lottery information"
        }
      },
      "viewNumbersPerTicketId(uint256[])": {
        "params": {
          "_ticketIds": ": array of _ticketId"
        }
      },
      "viewRewardsForTicketId(uint256,uint256)": {
        "details": "This function will help to find the highest prize bracket      But this computation is encouraged to be done off-chain      Better to get bracket first and then call \"_calculateRewardsForTicketId()\"",
        "params": {
          "_lotteryId": "Lottery round",
          "_ticketId": "Ticket id"
        },
        "returns": {
          "_0": "reward Ticket reward"
        }
      },
      "viewWalletTicketIds(address,uint256)": {
        "params": {
          "_wallet": "address to check owned tickets"
        },
        "returns": {
          "_0": "_lotteryId lottery id to verify ownership"
        }
      }
    },
    "title": "DegisLotteryV2",
    "version": 1
  },
  "userdoc": {
    "kind": "user",
    "methods": {
      "_reverseTicketNumber(uint256)": {
        "notice": "Reverse the ticket number         E.g. User want to buy \"1234\"              The input number will be 11234              The reversed output will be 14321"
      },
      "buyTickets(uint32[])": {
        "notice": "Buy tickets for the current lottery round"
      },
      "changeRandomGenerator(address)": {
        "notice": "Change the random generator contract address"
      },
      "claimAllTickets(uint256)": {
        "notice": "Claim all winning tickets for a lottery round"
      },
      "claimTickets(uint256,uint256[],uint32[])": {
        "notice": "Claim winning tickets"
      },
      "closeLottery(uint256)": {
        "notice": "Close a lottery"
      },
      "drawFinalNumberAndMakeLotteryClaimable(uint256,bool)": {
        "notice": "Draw the final number, calculate reward in Degis for each group, and make this lottery claimable (need to wait for the random generator)"
      },
      "initialize(address,address)": {
        "notice": "Initialize function"
      },
      "injectFunds(uint256)": {
        "notice": "Inject funds"
      },
      "recoverWrongTokens(address,uint256)": {
        "notice": "Recover wrong tokens sent to the contract, only by the owner          All tokens except Degis are wrong tokens"
      },
      "setMaxNumberTicketsEachTime(uint256)": {
        "notice": "Set max number can buy/claim each time"
      },
      "setTreasury(address)": {
        "notice": "Set treasury wallet address"
      },
      "startLottery(uint256,uint256,uint256[4])": {
        "notice": "Start a new lottery round"
      },
      "viewAllLottery(uint256,uint256)": {
        "notice": "View lottery information"
      },
      "viewNumbersPerTicketId(uint256[])": {
        "notice": "View ticker statuses and numbers for an array of ticket ids"
      },
      "viewRewardsForTicketId(uint256,uint256)": {
        "notice": "View rewards for a given ticket in a given lottery round"
      },
      "viewWalletTicketIds(address,uint256)": {
        "notice": "Get the reward per ticket in 4 brackets"
      }
    },
    "version": 1
  },
  "storageLayout": {
    "storage": [
      {
        "astId": 2670,
        "contract": "contracts/lucky-box/DegisLotteryV2.sol:DegisLotteryV2",
        "label": "_initialized",
        "offset": 0,
        "slot": "0",
        "type": "t_bool"
      },
      {
        "astId": 2673,
        "contract": "contracts/lucky-box/DegisLotteryV2.sol:DegisLotteryV2",
        "label": "_initializing",
        "offset": 1,
        "slot": "0",
        "type": "t_bool"
      },
      {
        "astId": 2862,
        "contract": "contracts/lucky-box/DegisLotteryV2.sol:DegisLotteryV2",
        "label": "_status",
        "offset": 0,
        "slot": "1",
        "type": "t_uint256"
      },
      {
        "astId": 2906,
        "contract": "contracts/lucky-box/DegisLotteryV2.sol:DegisLotteryV2",
        "label": "__gap",
        "offset": 0,
        "slot": "2",
        "type": "t_array(t_uint256)49_storage"
      },
      {
        "astId": 3907,
        "contract": "contracts/lucky-box/DegisLotteryV2.sol:DegisLotteryV2",
        "label": "__gap",
        "offset": 0,
        "slot": "51",
        "type": "t_array(t_uint256)50_storage"
      },
      {
        "astId": 2550,
        "contract": "contracts/lucky-box/DegisLotteryV2.sol:DegisLotteryV2",
        "label": "_owner",
        "offset": 0,
        "slot": "101",
        "type": "t_address"
      },
      {
        "astId": 2662,
        "contract": "contracts/lucky-box/DegisLotteryV2.sol:DegisLotteryV2",
        "label": "__gap",
        "offset": 0,
        "slot": "102",
        "type": "t_array(t_uint256)49_storage"
      },
      {
        "astId": 23140,
        "contract": "contracts/lucky-box/DegisLotteryV2.sol:DegisLotteryV2",
        "label": "DegisToken",
        "offset": 0,
        "slot": "151",
        "type": "t_contract(IERC20)5510"
      },
      {
        "astId": 23143,
        "contract": "contracts/lucky-box/DegisLotteryV2.sol:DegisLotteryV2",
        "label": "randomGenerator",
        "offset": 0,
        "slot": "152",
        "type": "t_contract(IRandomNumberGenerator)25965"
      },
      {
        "astId": 23145,
        "contract": "contracts/lucky-box/DegisLotteryV2.sol:DegisLotteryV2",
        "label": "treasury",
        "offset": 0,
        "slot": "153",
        "type": "t_address"
      },
      {
        "astId": 23147,
        "contract": "contracts/lucky-box/DegisLotteryV2.sol:DegisLotteryV2",
        "label": "currentLotteryId",
        "offset": 0,
        "slot": "154",
        "type": "t_uint256"
      },
      {
        "astId": 23149,
        "contract": "contracts/lucky-box/DegisLotteryV2.sol:DegisLotteryV2",
        "label": "currentTicketId",
        "offset": 0,
        "slot": "155",
        "type": "t_uint256"
      },
      {
        "astId": 23151,
        "contract": "contracts/lucky-box/DegisLotteryV2.sol:DegisLotteryV2",
        "label": "maxNumberTicketsEachTime",
        "offset": 0,
        "slot": "156",
        "type": "t_uint256"
      },
      {
        "astId": 23153,
        "contract": "contracts/lucky-box/DegisLotteryV2.sol:DegisLotteryV2",
        "label": "pendingInjectionNextLottery",
        "offset": 0,
        "slot": "157",
        "type": "t_uint256"
      },
      {
        "astId": 23197,
        "contract": "contracts/lucky-box/DegisLotteryV2.sol:DegisLotteryV2",
        "label": "lotteries",
        "offset": 0,
        "slot": "158",
        "type": "t_mapping(t_uint256,t_struct(Lottery)23192_storage)"
      },
      {
        "astId": 23207,
        "contract": "contracts/lucky-box/DegisLotteryV2.sol:DegisLotteryV2",
        "label": "tickets",
        "offset": 0,
        "slot": "159",
        "type": "t_mapping(t_uint256,t_struct(Ticket)23202_storage)"
      },
      {
        "astId": 23213,
        "contract": "contracts/lucky-box/DegisLotteryV2.sol:DegisLotteryV2",
        "label": "_numberTicketsPerLotteryId",
        "offset": 0,
        "slot": "160",
        "type": "t_mapping(t_uint256,t_mapping(t_uint32,t_uint256))"
      },
      {
        "astId": 23220,
        "contract": "contracts/lucky-box/DegisLotteryV2.sol:DegisLotteryV2",
        "label": "_userTicketIds",
        "offset": 0,
        "slot": "161",
        "type": "t_mapping(t_address,t_mapping(t_uint256,t_array(t_uint256)dyn_storage))"
      },
      {
        "astId": 23224,
        "contract": "contracts/lucky-box/DegisLotteryV2.sol:DegisLotteryV2",
        "label": "_bracketCalculator",
        "offset": 0,
        "slot": "162",
        "type": "t_mapping(t_uint32,t_uint32)"
      },
      {
        "astId": 23230,
        "contract": "contracts/lucky-box/DegisLotteryV2.sol:DegisLotteryV2",
        "label": "userClaimed",
        "offset": 0,
        "slot": "163",
        "type": "t_mapping(t_address,t_mapping(t_uint256,t_uint256))"
      },
      {
        "astId": 23232,
        "contract": "contracts/lucky-box/DegisLotteryV2.sol:DegisLotteryV2",
        "label": "treasuryFee",
        "offset": 0,
        "slot": "164",
        "type": "t_uint256"
      }
    ],
    "types": {
      "t_address": {
        "encoding": "inplace",
        "label": "address",
        "numberOfBytes": "20"
      },
      "t_array(t_uint256)49_storage": {
        "base": "t_uint256",
        "encoding": "inplace",
        "label": "uint256[49]",
        "numberOfBytes": "1568"
      },
      "t_array(t_uint256)4_storage": {
        "base": "t_uint256",
        "encoding": "inplace",
        "label": "uint256[4]",
        "numberOfBytes": "128"
      },
      "t_array(t_uint256)50_storage": {
        "base": "t_uint256",
        "encoding": "inplace",
        "label": "uint256[50]",
        "numberOfBytes": "1600"
      },
      "t_array(t_uint256)dyn_storage": {
        "base": "t_uint256",
        "encoding": "dynamic_array",
        "label": "uint256[]",
        "numberOfBytes": "32"
      },
      "t_bool": {
        "encoding": "inplace",
        "label": "bool",
        "numberOfBytes": "1"
      },
      "t_contract(IERC20)5510": {
        "encoding": "inplace",
        "label": "contract IERC20",
        "numberOfBytes": "20"
      },
      "t_contract(IRandomNumberGenerator)25965": {
        "encoding": "inplace",
        "label": "contract IRandomNumberGenerator",
        "numberOfBytes": "20"
      },
      "t_enum(Status)23158": {
        "encoding": "inplace",
        "label": "enum DegisLotteryV2.Status",
        "numberOfBytes": "1"
      },
      "t_mapping(t_address,t_mapping(t_uint256,t_array(t_uint256)dyn_storage))": {
        "encoding": "mapping",
        "key": "t_address",
        "label": "mapping(address => mapping(uint256 => uint256[]))",
        "numberOfBytes": "32",
        "value": "t_mapping(t_uint256,t_array(t_uint256)dyn_storage)"
      },
      "t_mapping(t_address,t_mapping(t_uint256,t_uint256))": {
        "encoding": "mapping",
        "key": "t_address",
        "label": "mapping(address => mapping(uint256 => uint256))",
        "numberOfBytes": "32",
        "value": "t_mapping(t_uint256,t_uint256)"
      },
      "t_mapping(t_uint256,t_array(t_uint256)dyn_storage)": {
        "encoding": "mapping",
        "key": "t_uint256",
        "label": "mapping(uint256 => uint256[])",
        "numberOfBytes": "32",
        "value": "t_array(t_uint256)dyn_storage"
      },
      "t_mapping(t_uint256,t_mapping(t_uint32,t_uint256))": {
        "encoding": "mapping",
        "key": "t_uint256",
        "label": "mapping(uint256 => mapping(uint32 => uint256))",
        "numberOfBytes": "32",
        "value": "t_mapping(t_uint32,t_uint256)"
      },
      "t_mapping(t_uint256,t_struct(Lottery)23192_storage)": {
        "encoding": "mapping",
        "key": "t_uint256",
        "label": "mapping(uint256 => struct DegisLotteryV2.Lottery)",
        "numberOfBytes": "32",
        "value": "t_struct(Lottery)23192_storage"
      },
      "t_mapping(t_uint256,t_struct(Ticket)23202_storage)": {
        "encoding": "mapping",
        "key": "t_uint256",
        "label": "mapping(uint256 => struct DegisLotteryV2.Ticket)",
        "numberOfBytes": "32",
        "value": "t_struct(Ticket)23202_storage"
      },
      "t_mapping(t_uint256,t_uint256)": {
        "encoding": "mapping",
        "key": "t_uint256",
        "label": "mapping(uint256 => uint256)",
        "numberOfBytes": "32",
        "value": "t_uint256"
      },
      "t_mapping(t_uint32,t_uint256)": {
        "encoding": "mapping",
        "key": "t_uint32",
        "label": "mapping(uint32 => uint256)",
        "numberOfBytes": "32",
        "value": "t_uint256"
      },
      "t_mapping(t_uint32,t_uint32)": {
        "encoding": "mapping",
        "key": "t_uint32",
        "label": "mapping(uint32 => uint32)",
        "numberOfBytes": "32",
        "value": "t_uint32"
      },
      "t_struct(Lottery)23192_storage": {
        "encoding": "inplace",
        "label": "struct DegisLotteryV2.Lottery",
        "members": [
          {
            "astId": 23161,
            "contract": "contracts/lucky-box/DegisLotteryV2.sol:DegisLotteryV2",
            "label": "status",
            "offset": 0,
            "slot": "0",
            "type": "t_enum(Status)23158"
          },
          {
            "astId": 23163,
            "contract": "contracts/lucky-box/DegisLotteryV2.sol:DegisLotteryV2",
            "label": "treasuryFee",
            "offset": 1,
            "slot": "0",
            "type": "t_uint8"
          },
          {
            "astId": 23165,
            "contract": "contracts/lucky-box/DegisLotteryV2.sol:DegisLotteryV2",
            "label": "startTime",
            "offset": 2,
            "slot": "0",
            "type": "t_uint32"
          },
          {
            "astId": 23167,
            "contract": "contracts/lucky-box/DegisLotteryV2.sol:DegisLotteryV2",
            "label": "endTime",
            "offset": 6,
            "slot": "0",
            "type": "t_uint32"
          },
          {
            "astId": 23169,
            "contract": "contracts/lucky-box/DegisLotteryV2.sol:DegisLotteryV2",
            "label": "finalNumber",
            "offset": 10,
            "slot": "0",
            "type": "t_uint32"
          },
          {
            "astId": 23171,
            "contract": "contracts/lucky-box/DegisLotteryV2.sol:DegisLotteryV2",
            "label": "ticketPrice",
            "offset": 0,
            "slot": "1",
            "type": "t_uint256"
          },
          {
            "astId": 23175,
            "contract": "contracts/lucky-box/DegisLotteryV2.sol:DegisLotteryV2",
            "label": "rewardsBreakdown",
            "offset": 0,
            "slot": "2",
            "type": "t_array(t_uint256)4_storage"
          },
          {
            "astId": 23179,
            "contract": "contracts/lucky-box/DegisLotteryV2.sol:DegisLotteryV2",
            "label": "rewardPerTicketInBracket",
            "offset": 0,
            "slot": "6",
            "type": "t_array(t_uint256)4_storage"
          },
          {
            "astId": 23183,
            "contract": "contracts/lucky-box/DegisLotteryV2.sol:DegisLotteryV2",
            "label": "countWinnersPerBracket",
            "offset": 0,
            "slot": "10",
            "type": "t_array(t_uint256)4_storage"
          },
          {
            "astId": 23185,
            "contract": "contracts/lucky-box/DegisLotteryV2.sol:DegisLotteryV2",
            "label": "firstTicketId",
            "offset": 0,
            "slot": "14",
            "type": "t_uint256"
          },
          {
            "astId": 23187,
            "contract": "contracts/lucky-box/DegisLotteryV2.sol:DegisLotteryV2",
            "label": "firstTicketIdNextRound",
            "offset": 0,
            "slot": "15",
            "type": "t_uint256"
          },
          {
            "astId": 23189,
            "contract": "contracts/lucky-box/DegisLotteryV2.sol:DegisLotteryV2",
            "label": "amountCollected",
            "offset": 0,
            "slot": "16",
            "type": "t_uint256"
          },
          {
            "astId": 23191,
            "contract": "contracts/lucky-box/DegisLotteryV2.sol:DegisLotteryV2",
            "label": "pendingRewards",
            "offset": 0,
            "slot": "17",
            "type": "t_uint256"
          }
        ],
        "numberOfBytes": "576"
      },
      "t_struct(Ticket)23202_storage": {
        "encoding": "inplace",
        "label": "struct DegisLotteryV2.Ticket",
        "members": [
          {
            "astId": 23199,
            "contract": "contracts/lucky-box/DegisLotteryV2.sol:DegisLotteryV2",
            "label": "number",
            "offset": 0,
            "slot": "0",
            "type": "t_uint32"
          },
          {
            "astId": 23201,
            "contract": "contracts/lucky-box/DegisLotteryV2.sol:DegisLotteryV2",
            "label": "owner",
            "offset": 4,
            "slot": "0",
            "type": "t_address"
          }
        ],
        "numberOfBytes": "32"
      },
      "t_uint256": {
        "encoding": "inplace",
        "label": "uint256",
        "numberOfBytes": "32"
      },
      "t_uint32": {
        "encoding": "inplace",
        "label": "uint32",
        "numberOfBytes": "4"
      },
      "t_uint8": {
        "encoding": "inplace",
        "label": "uint8",
        "numberOfBytes": "1"
      }
    }
  }
}