{
  "address": "0x1b6aD28Dc1C3F8e33BD20fD0Cc894BEF51765b20",
  "abi": [
    {
      "anonymous": false,
      "inputs": [
        {
          "indexed": false,
          "internalType": "address",
          "name": "user",
          "type": "address"
        },
        {
          "indexed": false,
          "internalType": "uint256",
          "name": "amount",
          "type": "uint256"
        }
      ],
      "name": "DistributeReward",
      "type": "event"
    },
    {
      "anonymous": false,
      "inputs": [
        {
          "indexed": false,
          "internalType": "address",
          "name": "rewardToken",
          "type": "address"
        }
      ],
      "name": "NewRewardTokenAdded",
      "type": "event"
    },
    {
      "anonymous": false,
      "inputs": [
        {
          "indexed": true,
          "internalType": "address",
          "name": "previousOwner",
          "type": "address"
        },
        {
          "indexed": true,
          "internalType": "address",
          "name": "newOwner",
          "type": "address"
        }
      ],
      "name": "OwnershipTransferred",
      "type": "event"
    },
    {
      "anonymous": false,
      "inputs": [
        {
          "indexed": false,
          "internalType": "uint256",
          "name": "oldRate",
          "type": "uint256"
        },
        {
          "indexed": false,
          "internalType": "uint256",
          "name": "newRate",
          "type": "uint256"
        }
      ],
      "name": "RewardRateUpdated",
      "type": "event"
    },
    {
      "inputs": [
        {
          "internalType": "address",
          "name": "_token",
          "type": "address"
        },
        {
          "internalType": "address",
          "name": "_lpToken",
          "type": "address"
        }
      ],
      "name": "addRewardToken",
      "outputs": [],
      "stateMutability": "nonpayable",
      "type": "function"
    },
    {
      "inputs": [
        {
          "internalType": "address",
          "name": "_lpToken",
          "type": "address"
        },
        {
          "internalType": "address",
          "name": "_rewardToken",
          "type": "address"
        },
        {
          "internalType": "address",
          "name": "_user",
          "type": "address"
        },
        {
          "internalType": "uint256",
          "name": "_lpAmount",
          "type": "uint256"
        },
        {
          "internalType": "uint256",
          "name": "_lpSupply",
          "type": "uint256"
        }
      ],
      "name": "distributeReward",
      "outputs": [],
      "stateMutability": "nonpayable",
      "type": "function"
    },
    {
      "inputs": [
        {
          "internalType": "address",
          "name": "_token",
          "type": "address"
        }
      ],
      "name": "emergencyWithdraw",
      "outputs": [],
      "stateMutability": "nonpayable",
      "type": "function"
    },
    {
      "inputs": [],
      "name": "farmingPool",
      "outputs": [
        {
          "internalType": "contract IFarmingPool",
          "name": "",
          "type": "address"
        }
      ],
      "stateMutability": "view",
      "type": "function"
    },
    {
      "inputs": [
        {
          "internalType": "address",
          "name": "_farmingPool",
          "type": "address"
        }
      ],
      "name": "initialize",
      "outputs": [],
      "stateMutability": "nonpayable",
      "type": "function"
    },
    {
      "inputs": [],
      "name": "owner",
      "outputs": [
        {
          "internalType": "address",
          "name": "",
          "type": "address"
        }
      ],
      "stateMutability": "view",
      "type": "function"
    },
    {
      "inputs": [
        {
          "internalType": "address",
          "name": "_token",
          "type": "address"
        },
        {
          "internalType": "address",
          "name": "_user",
          "type": "address"
        }
      ],
      "name": "pendingReward",
      "outputs": [
        {
          "internalType": "uint256",
          "name": "pending",
          "type": "uint256"
        }
      ],
      "stateMutability": "view",
      "type": "function"
    },
    {
      "inputs": [],
      "name": "renounceOwnership",
      "outputs": [],
      "stateMutability": "nonpayable",
      "type": "function"
    },
    {
      "inputs": [
        {
          "internalType": "address",
          "name": "_lpToken",
          "type": "address"
        },
        {
          "internalType": "address",
          "name": "_rewardToken",
          "type": "address"
        },
        {
          "internalType": "uint256",
          "name": "_reward",
          "type": "uint256"
        }
      ],
      "name": "setRewardSpeed",
      "outputs": [],
      "stateMutability": "nonpayable",
      "type": "function"
    },
    {
      "inputs": [
        {
          "internalType": "address",
          "name": "",
          "type": "address"
        }
      ],
      "name": "supportedRewardToken",
      "outputs": [
        {
          "internalType": "bool",
          "name": "",
          "type": "bool"
        }
      ],
      "stateMutability": "view",
      "type": "function"
    },
    {
      "inputs": [
        {
          "internalType": "address",
          "name": "newOwner",
          "type": "address"
        }
      ],
      "name": "transferOwnership",
      "outputs": [],
      "stateMutability": "nonpayable",
      "type": "function"
    },
    {
      "inputs": [
        {
          "internalType": "address",
          "name": "_rewardToken",
          "type": "address"
        },
        {
          "internalType": "uint256",
          "name": "_lpSupply",
          "type": "uint256"
        }
      ],
      "name": "updatePool",
      "outputs": [],
      "stateMutability": "nonpayable",
      "type": "function"
    },
    {
      "inputs": [
        {
          "internalType": "address",
          "name": "",
          "type": "address"
        }
      ],
      "name": "userInfo",
      "outputs": [
        {
          "internalType": "uint256",
          "name": "amount",
          "type": "uint256"
        },
        {
          "internalType": "uint256",
          "name": "rewardDebt",
          "type": "uint256"
        }
      ],
      "stateMutability": "view",
      "type": "function"
    }
  ],
  "transactionHash": "0xc5c05c6d141c020b2646c456597c51eb86bd8f46109a0db3a992fa3a491bb09b",
  "args": [],
  "numDeployments": 1,
  "solcInputHash": "20d3e0e6b0d5c1e7e05225db26d8be29",
  "bytecode": "0x608060405234801561001057600080fd5b50611780806100206000396000f3fe608060405234801561001057600080fd5b50600436106100df5760003560e01c80638da5cb5b1161008c578063c4d66de811610066578063c4d66de8146101e1578063d75aca19146101f4578063f2fde38b14610214578063f6fe29e91461022757600080fd5b80638da5cb5b146101955780638ed7333d146101ae5780639ced7e76146101c157600080fd5b80636ff1c9bc116100bd5780636ff1c9bc14610167578063715018a61461017a57806383c40a8f1461018257600080fd5b80631959a002146100e457806323cb23901461012257806360b7975c14610137575b600080fd5b61010b6100f2366004610ff7565b6068602052600090815260409020805460019091015482565b604051610119929190611020565b60405180910390f35b61013561013036600461103b565b61023a565b005b61015a610145366004610ff7565b60666020526000908152604090205460ff1681565b6040516101199190611080565b610135610175366004610ff7565b610335565b6101356103e4565b61013561019036600461109f565b61041a565b6033546001600160a01b03166040516101199190611120565b6101356101bc36600461112e565b610698565b6101d46101cf36600461103b565b610766565b6040516101199190611161565b6101356101ef366004610ff7565b610947565b606554610207906001600160a01b031681565b604051610119919061119f565b610135610222366004610ff7565b6109ea565b6101356102353660046111ad565b610a43565b6033546001600160a01b0316331461026d5760405162461bcd60e51b81526004016102649061122f565b60405180910390fd5b6001600160a01b038216600090815260676020526040902060030154156102a65760405162461bcd60e51b815260040161026490611271565b6001600160a01b038083166000908152606660209081526040808320805460ff19166001179055606790915290819020805492841673ffffffffffffffffffffffffffffffffffffffff1990931692909217909155517fa7cc21f8c1b7896da70a20b7b578666328cbf74bb04fb4ff5cb05faf743939d790610329908490611120565b60405180910390a15050565b6033546001600160a01b0316331461035f5760405162461bcd60e51b81526004016102649061122f565b6103e133826001600160a01b03166370a08231306040518263ffffffff1660e01b815260040161038f9190611120565b602060405180830381865afa1580156103ac573d6000803e3d6000fd5b505050506040513d601f19601f820116820180604052508101906103d0919061128c565b6001600160a01b0384169190610b9e565b50565b6033546001600160a01b0316331461040e5760405162461bcd60e51b81526004016102649061122f565b6104186000610c26565b565b6065546001600160a01b031633146104445760405162461bcd60e51b8152600401610264906112df565b6001600160a01b038416600090815260666020526040902054849060ff1661047e5760405162461bcd60e51b815260040161026490611321565b6104888583610698565b6001600160a01b03808616600090815260676020908152604080832081516080810183528154861681526001820154818501526002820154818401526003909101546060820152938816835260688252918290208251808401909352600b83527f7573657220616d6f756e74000000000000000000000000000000000000000000918301919091528054909161051d91610c85565b6000816001015464e8d4a510008460400151846000015461053e9190611347565b610548919061137c565b6105529190611390565b825487845560408051808201909152601181527f7573657220616d6f756e742061667465720000000000000000000000000000006020820152919250906105999088610c85565b64e8d4a510008460400151886105af9190611347565b6105b9919061137c565b6001840155801561068c5760006105d18a8a85610cf8565b90506106126040518060400160405280600d81526020017f61637475616c207265776172640000000000000000000000000000000000000081525082610c85565b6106516040518060400160405280600e81526020017f70656e64696e6720726573756c7400000000000000000000000000000000000081525084610c85565b7fe8b160e373db99a103e0a2abfa029b9c3fc8b328984a1ead8a65ae68ae646db789826040516106829291906113a7565b60405180910390a1505b50505050505050505050565b6001600160a01b038216600090815260666020526040902054829060ff166106d25760405162461bcd60e51b815260040161026490611321565b6001600160a01b0383166000908152606760205260409020600381015442111561076057821561075957600081600301544261070e9190611390565b905060008260010154826107229190611347565b90508461073464e8d4a5100083611347565b61073e919061137c565b83600201600082825461075191906113b5565b909155505050505b4260038201555b50505050565b6001600160a01b038216600090815260666020526040812054839060ff166107a05760405162461bcd60e51b815260040161026490611321565b6001600160a01b0384166000908152606760205260409020600301546107d85760405162461bcd60e51b8152600401610264906113ff565b6001600160a01b038085166000908152606760209081526040808320815160808101835281548616815260018201548185015260028201548184019081526003909201546060820152888616855260689093528184209051835160655493516370a0823160e01b81529496929591949193908316926370a08231926108639290911690600401611120565b602060405180830381865afa158015610880573d6000803e3d6000fd5b505050506040513d601f19601f820116820180604052508101906108a4919061128c565b90508360600151421180156108b857508015155b1561090e5760008460600151426108cf9190611390565b905060008560200151826108e39190611347565b9050826108f564e8d4a5100083611347565b6108ff919061137c565b61090990856113b5565b935050505b6001830154835464e8d4a5100090610927908590611347565b610931919061137c565b61093b9190611390565b98975050505050505050565b600054610100900460ff166109625760005460ff1615610966565b303b155b6109825760405162461bcd60e51b815260040161026490611469565b600054610100900460ff161580156109a4576000805461ffff19166101011790555b6109ac610dad565b6065805473ffffffffffffffffffffffffffffffffffffffff19166001600160a01b03841617905580156109e6576000805461ff00191690555b5050565b6033546001600160a01b03163314610a145760405162461bcd60e51b81526004016102649061122f565b6001600160a01b038116610a3a5760405162461bcd60e51b8152600401610264906114d1565b6103e181610c26565b6001600160a01b038216600090815260666020526040902054829060ff16610a7d5760405162461bcd60e51b815260040161026490611321565b6033546001600160a01b03163314610aa75760405162461bcd60e51b81526004016102649061122f565b6065546040516370a0823160e01b81526000916001600160a01b03808816926370a0823192610ada921690600401611120565b602060405180830381865afa158015610af7573d6000803e3d6000fd5b505050506040513d601f19601f82011682018060405250810190610b1b919061128c565b9050610b278482610698565b6001600160a01b038416600090815260676020526040908190206001015490517fc390a98ace15a7bb6bab611eedfdbb2685043b241a869420043cdfb23ccfee5091610b74918690611020565b60405180910390a150506001600160a01b0390911660009081526067602052604090206001015550565b610c218363a9059cbb60e01b8484604051602401610bbd9291906113a7565b60408051601f198184030181529190526020810180517bffffffffffffffffffffffffffffffffffffffffffffffffffffffff167fffffffff0000000000000000000000000000000000000000000000000000000090931692909217909152610ddc565b505050565b603380546001600160a01b0383811673ffffffffffffffffffffffffffffffffffffffff19831681179093556040519116919082907f8be0079c531659141344cd1fd0a4f28419497f9722a3daafe3b4186f6b6457e090600090a35050565b6109e68282604051602401610c9b92919061153f565b60408051601f198184030181529190526020810180517bffffffffffffffffffffffffffffffffffffffffffffffffffffffff167f9710a9d000000000000000000000000000000000000000000000000000000000179052610e6b565b600080846001600160a01b03166370a08231306040518263ffffffff1660e01b8152600401610d279190611120565b602060405180830381865afa158015610d44573d6000803e3d6000fd5b505050506040513d601f19601f82011682018060405250810190610d68919061128c565b905080831115610d8d57610d866001600160a01b0386168583610b9e565b9050610da6565b610da16001600160a01b0386168585610b9e565b829150505b9392505050565b600054610100900460ff16610dd45760405162461bcd60e51b8152600401610264906115b7565b610418610e8c565b6000610e31826040518060400160405280602081526020017f5361666545524332303a206c6f772d6c6576656c2063616c6c206661696c6564815250856001600160a01b0316610ebc9092919063ffffffff16565b805190915015610c215780806020019051810190610e4f91906115da565b610c215760405162461bcd60e51b815260040161026490611653565b80516a636f6e736f6c652e6c6f67602083016000808483855afa5050505050565b600054610100900460ff16610eb35760405162461bcd60e51b8152600401610264906115b7565b61041833610c26565b6060610ecb8484600085610ed3565b949350505050565b606082471015610ef55760405162461bcd60e51b8152600401610264906116bb565b843b610f135760405162461bcd60e51b8152600401610264906116fd565b600080866001600160a01b03168587604051610f2f919061172f565b60006040518083038185875af1925050503d8060008114610f6c576040519150601f19603f3d011682016040523d82523d6000602084013e610f71565b606091505b5091509150610f81828286610f8c565b979650505050505050565b60608315610f9b575081610da6565b825115610fab5782518084602001fd5b8160405162461bcd60e51b81526004016102649190611739565b60006001600160a01b0382165b92915050565b610fe181610fc5565b81146103e157600080fd5b8035610fd281610fd8565b60006020828403121561100c5761100c600080fd5b6000610ecb8484610fec565b805b82525050565b6040810161102e8285611018565b610da66020830184611018565b6000806040838503121561105157611051600080fd5b600061105d8585610fec565b925050602061106e85828601610fec565b9150509250929050565b80151561101a565b60208101610fd28284611078565b80610fe1565b8035610fd28161108e565b600080600080600060a086880312156110ba576110ba600080fd5b60006110c68888610fec565b95505060206110d788828901610fec565b94505060406110e888828901610fec565b93505060606110f988828901611094565b925050608061110a88828901611094565b9150509295509295909350565b61101a81610fc5565b60208101610fd28284611117565b6000806040838503121561114457611144600080fd5b60006111508585610fec565b925050602061106e85828601611094565b60208101610fd28284611018565b60006001600160a01b038216610fd2565b6000610fd28261116f565b6000610fd282611180565b61101a8161118b565b60208101610fd28284611196565b6000806000606084860312156111c5576111c5600080fd5b60006111d18686610fec565b93505060206111e286828701610fec565b92505060406111f386828701611094565b9150509250925092565b60208082527f4f776e61626c653a2063616c6c6572206973206e6f7420746865206f776e657291019081525b60200190565b60208082528101610fd2816111fd565b600d8152602081017f416c72656164792065786973740000000000000000000000000000000000000081529050611229565b60208082528101610fd28161123f565b8051610fd28161108e565b6000602082840312156112a1576112a1600080fd5b6000610ecb8484611281565b60108152602081017f4f6e6c79206661726d696e67506f6f6c0000000000000000000000000000000081529050611229565b60208082528101610fd2816112ad565b60138152602081017f546f6b656e206e6f7420737570706f727465640000000000000000000000000081529050611229565b60208082528101610fd2816112ef565b634e487b7160e01b600052601160045260246000fd5b600081600019048311821515161561136157611361611331565b500290565b634e487b7160e01b600052601260045260246000fd5b60008261138b5761138b611366565b500490565b6000828210156113a2576113a2611331565b500390565b6040810161102e8285611117565b600082198211156113c8576113c8611331565b500190565b600e8152602081017f4e6f6e20657869737420706f6f6c00000000000000000000000000000000000081529050611229565b60208082528101610fd2816113cd565b602e8152602081017f496e697469616c697a61626c653a20636f6e747261637420697320616c72656181527f647920696e697469616c697a6564000000000000000000000000000000000000602082015290505b60400190565b60208082528101610fd28161140f565b60268152602081017f4f776e61626c653a206e6577206f776e657220697320746865207a65726f206181527f646472657373000000000000000000000000000000000000000000000000000060208201529050611463565b60208082528101610fd281611479565b60005b838110156114fc5781810151838201526020016114e4565b838111156107605750506000910152565b6000611517825190565b80845260208401935061152e8185602086016114e1565b601f01601f19169290920192915050565b60408082528101611550818561150d565b9050610da66020830184611018565b602b8152602081017f496e697469616c697a61626c653a20636f6e7472616374206973206e6f74206981527f6e697469616c697a696e6700000000000000000000000000000000000000000060208201529050611463565b60208082528101610fd28161155f565b801515610fe1565b8051610fd2816115c7565b6000602082840312156115ef576115ef600080fd5b6000610ecb84846115cf565b602a8152602081017f5361666545524332303a204552433230206f7065726174696f6e20646964206e81527f6f7420737563636565640000000000000000000000000000000000000000000060208201529050611463565b60208082528101610fd2816115fb565b60268152602081017f416464726573733a20696e73756666696369656e742062616c616e636520666f81527f722063616c6c000000000000000000000000000000000000000000000000000060208201529050611463565b60208082528101610fd281611663565b601d8152602081017f416464726573733a2063616c6c20746f206e6f6e2d636f6e747261637400000081529050611229565b60208082528101610fd2816116cb565b6000611717825190565b6117258185602086016114e1565b9290920192915050565b610fd2818361170d565b60208082528101610da6818461150d56fea2646970667358221220524e8a2c8a2e53bf766f32d60be922608cb61cd83ecfaeddf29907d21ca48e3764736f6c634300080d0033",
  "devdoc": {
    "kind": "dev",
    "methods": {
      "distributeReward(address,address,address,uint256,uint256)": {
        "params": {
          "_lpAmount": "LP amount of user",
          "_lpToken": "LP token address",
          "_rewardToken": "Reward token address",
          "_user": "User address"
        }
      },
      "owner()": {
        "details": "Returns the address of the current owner."
      },
      "pendingReward(address,address)": {
        "params": {
          "_token": "Reward token address",
          "_user": "User address"
        },
        "returns": {
          "pending": "Pending reward"
        }
      },
      "renounceOwnership()": {
        "details": "Leaves the contract without owner. It will not be possible to call `onlyOwner` functions anymore. Can only be called by the current owner. NOTE: Renouncing ownership will leave the contract without an owner, thereby removing any functionality that is only available to the owner."
      },
      "setRewardSpeed(address,address,uint256)": {
        "params": {
          "_lpToken": "LP token address",
          "_reward": "Reward per second",
          "_rewardToken": "Reward token address"
        }
      },
      "transferOwnership(address)": {
        "details": "Transfers ownership of the contract to a new account (`newOwner`). Can only be called by the current owner."
      },
      "updatePool(address,uint256)": {
        "params": {
          "_rewardToken": "Reward token address"
        }
      }
    },
    "title": "Degis Double Rewarder Contract",
    "version": 1
  },
  "userdoc": {
    "kind": "user",
    "methods": {
      "distributeReward(address,address,address,uint256,uint256)": {
        "notice": "Distribute reward when user get reward in farming pool         User lpAmount will be updated here"
      },
      "emergencyWithdraw(address)": {
        "notice": "Withdraw tokens         When stopping double reward, first set the reward speed, then withdraw tokens"
      },
      "initialize(address)": {
        "notice": "Constructor         Only need to set farming pool address"
      },
      "pendingReward(address,address)": {
        "notice": "Get pending reward"
      },
      "setRewardSpeed(address,address,uint256)": {
        "notice": "Set reward speed for a pool"
      },
      "updatePool(address,uint256)": {
        "notice": "Update double reward pool"
      },
      "userInfo(address)": {
        "notice": "Info of each user that stakes LP tokens."
      }
    },
    "version": 1
  },
  "storageLayout": {
    "storage": [
      {
        "astId": 2670,
        "contract": "contracts/farming/DoubleRewarder.sol:DoubleRewarder",
        "label": "_initialized",
        "offset": 0,
        "slot": "0",
        "type": "t_bool"
      },
      {
        "astId": 2673,
        "contract": "contracts/farming/DoubleRewarder.sol:DoubleRewarder",
        "label": "_initializing",
        "offset": 1,
        "slot": "0",
        "type": "t_bool"
      },
      {
        "astId": 3907,
        "contract": "contracts/farming/DoubleRewarder.sol:DoubleRewarder",
        "label": "__gap",
        "offset": 0,
        "slot": "1",
        "type": "t_array(t_uint256)50_storage"
      },
      {
        "astId": 2550,
        "contract": "contracts/farming/DoubleRewarder.sol:DoubleRewarder",
        "label": "_owner",
        "offset": 0,
        "slot": "51",
        "type": "t_address"
      },
      {
        "astId": 2662,
        "contract": "contracts/farming/DoubleRewarder.sol:DoubleRewarder",
        "label": "__gap",
        "offset": 0,
        "slot": "52",
        "type": "t_array(t_uint256)49_storage"
      },
      {
        "astId": 10615,
        "contract": "contracts/farming/DoubleRewarder.sol:DoubleRewarder",
        "label": "farmingPool",
        "offset": 0,
        "slot": "101",
        "type": "t_contract(IFarmingPool)15750"
      },
      {
        "astId": 10619,
        "contract": "contracts/farming/DoubleRewarder.sol:DoubleRewarder",
        "label": "supportedRewardToken",
        "offset": 0,
        "slot": "102",
        "type": "t_mapping(t_address,t_bool)"
      },
      {
        "astId": 10634,
        "contract": "contracts/farming/DoubleRewarder.sol:DoubleRewarder",
        "label": "pools",
        "offset": 0,
        "slot": "103",
        "type": "t_mapping(t_address,t_struct(PoolInfo)10628_storage)"
      },
      {
        "astId": 10645,
        "contract": "contracts/farming/DoubleRewarder.sol:DoubleRewarder",
        "label": "userInfo",
        "offset": 0,
        "slot": "104",
        "type": "t_mapping(t_address,t_struct(UserInfo)10639_storage)"
      }
    ],
    "types": {
      "t_address": {
        "encoding": "inplace",
        "label": "address",
        "numberOfBytes": "20"
      },
      "t_array(t_uint256)49_storage": {
        "base": "t_uint256",
        "encoding": "inplace",
        "label": "uint256[49]",
        "numberOfBytes": "1568"
      },
      "t_array(t_uint256)50_storage": {
        "base": "t_uint256",
        "encoding": "inplace",
        "label": "uint256[50]",
        "numberOfBytes": "1600"
      },
      "t_bool": {
        "encoding": "inplace",
        "label": "bool",
        "numberOfBytes": "1"
      },
      "t_contract(IFarmingPool)15750": {
        "encoding": "inplace",
        "label": "contract IFarmingPool",
        "numberOfBytes": "20"
      },
      "t_mapping(t_address,t_bool)": {
        "encoding": "mapping",
        "key": "t_address",
        "label": "mapping(address => bool)",
        "numberOfBytes": "32",
        "value": "t_bool"
      },
      "t_mapping(t_address,t_struct(PoolInfo)10628_storage)": {
        "encoding": "mapping",
        "key": "t_address",
        "label": "mapping(address => struct DoubleRewarder.PoolInfo)",
        "numberOfBytes": "32",
        "value": "t_struct(PoolInfo)10628_storage"
      },
      "t_mapping(t_address,t_struct(UserInfo)10639_storage)": {
        "encoding": "mapping",
        "key": "t_address",
        "label": "mapping(address => struct DoubleRewarder.UserInfo)",
        "numberOfBytes": "32",
        "value": "t_struct(UserInfo)10639_storage"
      },
      "t_struct(PoolInfo)10628_storage": {
        "encoding": "inplace",
        "label": "struct DoubleRewarder.PoolInfo",
        "members": [
          {
            "astId": 10621,
            "contract": "contracts/farming/DoubleRewarder.sol:DoubleRewarder",
            "label": "lpToken",
            "offset": 0,
            "slot": "0",
            "type": "t_address"
          },
          {
            "astId": 10623,
            "contract": "contracts/farming/DoubleRewarder.sol:DoubleRewarder",
            "label": "rewardPerSecond",
            "offset": 0,
            "slot": "1",
            "type": "t_uint256"
          },
          {
            "astId": 10625,
            "contract": "contracts/farming/DoubleRewarder.sol:DoubleRewarder",
            "label": "accTokenPerShare",
            "offset": 0,
            "slot": "2",
            "type": "t_uint256"
          },
          {
            "astId": 10627,
            "contract": "contracts/farming/DoubleRewarder.sol:DoubleRewarder",
            "label": "lastRewardTimestamp",
            "offset": 0,
            "slot": "3",
            "type": "t_uint256"
          }
        ],
        "numberOfBytes": "128"
      },
      "t_struct(UserInfo)10639_storage": {
        "encoding": "inplace",
        "label": "struct DoubleRewarder.UserInfo",
        "members": [
          {
            "astId": 10636,
            "contract": "contracts/farming/DoubleRewarder.sol:DoubleRewarder",
            "label": "amount",
            "offset": 0,
            "slot": "0",
            "type": "t_uint256"
          },
          {
            "astId": 10638,
            "contract": "contracts/farming/DoubleRewarder.sol:DoubleRewarder",
            "label": "rewardDebt",
            "offset": 0,
            "slot": "1",
            "type": "t_uint256"
          }
        ],
        "numberOfBytes": "64"
      },
      "t_uint256": {
        "encoding": "inplace",
        "label": "uint256",
        "numberOfBytes": "32"
      }
    }
  }
}