{
  "address": "0xcF8Afa6eE3b790b15E3252Af55c1939b792BeCB6",
  "abi": [
    {
      "inputs": [
        {
          "internalType": "address",
          "name": "_degis",
          "type": "address"
        }
      ],
      "stateMutability": "nonpayable",
      "type": "constructor"
    },
    {
      "anonymous": false,
      "inputs": [
        {
          "indexed": false,
          "internalType": "uint256",
          "name": "poolId",
          "type": "uint256"
        },
        {
          "indexed": false,
          "internalType": "uint256",
          "name": "basicDegisPerSecond",
          "type": "uint256"
        },
        {
          "indexed": false,
          "internalType": "uint256",
          "name": "bonusDegisPerSecond",
          "type": "uint256"
        }
      ],
      "name": "DegisRewardChanged",
      "type": "event"
    },
    {
      "anonymous": false,
      "inputs": [
        {
          "indexed": false,
          "internalType": "uint256",
          "name": "poolId",
          "type": "uint256"
        },
        {
          "indexed": false,
          "internalType": "uint256",
          "name": "timestamp",
          "type": "uint256"
        }
      ],
      "name": "FarmingPoolStarted",
      "type": "event"
    },
    {
      "anonymous": false,
      "inputs": [
        {
          "indexed": false,
          "internalType": "uint256",
          "name": "poolId",
          "type": "uint256"
        },
        {
          "indexed": false,
          "internalType": "uint256",
          "name": "timestamp",
          "type": "uint256"
        }
      ],
      "name": "FarmingPoolStopped",
      "type": "event"
    },
    {
      "anonymous": false,
      "inputs": [
        {
          "indexed": false,
          "internalType": "address",
          "name": "staker",
          "type": "address"
        },
        {
          "indexed": false,
          "internalType": "address",
          "name": "rewardReceiver",
          "type": "address"
        },
        {
          "indexed": false,
          "internalType": "uint256",
          "name": "poolId",
          "type": "uint256"
        },
        {
          "indexed": false,
          "internalType": "uint256",
          "name": "pendingReward",
          "type": "uint256"
        }
      ],
      "name": "Harvest",
      "type": "event"
    },
    {
      "anonymous": false,
      "inputs": [
        {
          "indexed": false,
          "internalType": "address",
          "name": "staker",
          "type": "address"
        },
        {
          "indexed": false,
          "internalType": "uint256",
          "name": "poolId",
          "type": "uint256"
        },
        {
          "indexed": false,
          "internalType": "uint256",
          "name": "pendingReward",
          "type": "uint256"
        }
      ],
      "name": "HarvestAndCompound",
      "type": "event"
    },
    {
      "anonymous": false,
      "inputs": [
        {
          "indexed": false,
          "internalType": "address",
          "name": "lpToken",
          "type": "address"
        },
        {
          "indexed": false,
          "internalType": "uint256",
          "name": "basicDegisPerSecond",
          "type": "uint256"
        },
        {
          "indexed": false,
          "internalType": "uint256",
          "name": "bonusDegisPerSecond",
          "type": "uint256"
        }
      ],
      "name": "NewPoolAdded",
      "type": "event"
    },
    {
      "anonymous": false,
      "inputs": [
        {
          "indexed": true,
          "internalType": "address",
          "name": "previousOwner",
          "type": "address"
        },
        {
          "indexed": true,
          "internalType": "address",
          "name": "newOwner",
          "type": "address"
        }
      ],
      "name": "OwnershipTransferred",
      "type": "event"
    },
    {
      "anonymous": false,
      "inputs": [
        {
          "indexed": false,
          "internalType": "address",
          "name": "account",
          "type": "address"
        }
      ],
      "name": "Paused",
      "type": "event"
    },
    {
      "anonymous": false,
      "inputs": [
        {
          "indexed": false,
          "internalType": "uint256",
          "name": "poolId",
          "type": "uint256"
        },
        {
          "indexed": false,
          "internalType": "uint256",
          "name": "accDegisPerShare",
          "type": "uint256"
        },
        {
          "indexed": false,
          "internalType": "uint256",
          "name": "accDegisPerBonusShare",
          "type": "uint256"
        }
      ],
      "name": "PoolUpdated",
      "type": "event"
    },
    {
      "anonymous": false,
      "inputs": [
        {
          "indexed": false,
          "internalType": "address",
          "name": "staker",
          "type": "address"
        },
        {
          "indexed": false,
          "internalType": "uint256",
          "name": "poolId",
          "type": "uint256"
        },
        {
          "indexed": false,
          "internalType": "uint256",
          "name": "amount",
          "type": "uint256"
        }
      ],
      "name": "Stake",
      "type": "event"
    },
    {
      "anonymous": false,
      "inputs": [
        {
          "indexed": false,
          "internalType": "uint256",
          "name": "startTimestamp",
          "type": "uint256"
        }
      ],
      "name": "StartTimestampChanged",
      "type": "event"
    },
    {
      "anonymous": false,
      "inputs": [
        {
          "indexed": false,
          "internalType": "address",
          "name": "account",
          "type": "address"
        }
      ],
      "name": "Unpaused",
      "type": "event"
    },
    {
      "anonymous": false,
      "inputs": [
        {
          "indexed": false,
          "internalType": "address",
          "name": "staker",
          "type": "address"
        },
        {
          "indexed": false,
          "internalType": "uint256",
          "name": "poolId",
          "type": "uint256"
        },
        {
          "indexed": false,
          "internalType": "uint256",
          "name": "amount",
          "type": "uint256"
        }
      ],
      "name": "Withdraw",
      "type": "event"
    },
    {
      "inputs": [],
      "name": "SCALE",
      "outputs": [
        {
          "internalType": "uint256",
          "name": "",
          "type": "uint256"
        }
      ],
      "stateMutability": "view",
      "type": "function"
    },
    {
      "inputs": [],
      "name": "_nextPoolId",
      "outputs": [
        {
          "internalType": "uint256",
          "name": "",
          "type": "uint256"
        }
      ],
      "stateMutability": "view",
      "type": "function"
    },
    {
      "inputs": [
        {
          "internalType": "address",
          "name": "_lpToken",
          "type": "address"
        },
        {
          "internalType": "uint256",
          "name": "_basicDegisPerSecond",
          "type": "uint256"
        },
        {
          "internalType": "uint256",
          "name": "_bonusDegisPerSecond",
          "type": "uint256"
        },
        {
          "internalType": "bool",
          "name": "_withUpdate",
          "type": "bool"
        }
      ],
      "name": "add",
      "outputs": [],
      "stateMutability": "nonpayable",
      "type": "function"
    },
    {
      "inputs": [],
      "name": "degis",
      "outputs": [
        {
          "internalType": "contract IDegisToken",
          "name": "",
          "type": "address"
        }
      ],
      "stateMutability": "view",
      "type": "function"
    },
    {
      "inputs": [],
      "name": "getPoolList",
      "outputs": [
        {
          "components": [
            {
              "internalType": "address",
              "name": "lpToken",
              "type": "address"
            },
            {
              "internalType": "uint256",
              "name": "basicDegisPerSecond",
              "type": "uint256"
            },
            {
              "internalType": "uint256",
              "name": "bonusDegisPerSecond",
              "type": "uint256"
            },
            {
              "internalType": "uint256",
              "name": "lastRewardTimestamp",
              "type": "uint256"
            },
            {
              "internalType": "uint256",
              "name": "accDegisPerShare",
              "type": "uint256"
            },
            {
              "internalType": "uint256",
              "name": "accDegisPerBonusShare",
              "type": "uint256"
            },
            {
              "internalType": "uint256",
              "name": "totalBonus",
              "type": "uint256"
            }
          ],
          "internalType": "struct FarmingPool.PoolInfo[]",
          "name": "",
          "type": "tuple[]"
        }
      ],
      "stateMutability": "view",
      "type": "function"
    },
    {
      "inputs": [
        {
          "internalType": "uint256",
          "name": "_poolId",
          "type": "uint256"
        },
        {
          "internalType": "address",
          "name": "_user",
          "type": "address"
        }
      ],
      "name": "getUserBalance",
      "outputs": [
        {
          "internalType": "uint256",
          "name": "",
          "type": "uint256"
        }
      ],
      "stateMutability": "view",
      "type": "function"
    },
    {
      "inputs": [
        {
          "internalType": "uint256",
          "name": "_poolId",
          "type": "uint256"
        },
        {
          "internalType": "address",
          "name": "_to",
          "type": "address"
        }
      ],
      "name": "harvest",
      "outputs": [],
      "stateMutability": "nonpayable",
      "type": "function"
    },
    {
      "inputs": [
        {
          "internalType": "uint256",
          "name": "",
          "type": "uint256"
        }
      ],
      "name": "isFarming",
      "outputs": [
        {
          "internalType": "bool",
          "name": "",
          "type": "bool"
        }
      ],
      "stateMutability": "view",
      "type": "function"
    },
    {
      "inputs": [],
      "name": "massUpdatePools",
      "outputs": [],
      "stateMutability": "nonpayable",
      "type": "function"
    },
    {
      "inputs": [],
      "name": "owner",
      "outputs": [
        {
          "internalType": "address",
          "name": "",
          "type": "address"
        }
      ],
      "stateMutability": "view",
      "type": "function"
    },
    {
      "inputs": [],
      "name": "pause",
      "outputs": [],
      "stateMutability": "nonpayable",
      "type": "function"
    },
    {
      "inputs": [],
      "name": "paused",
      "outputs": [
        {
          "internalType": "bool",
          "name": "",
          "type": "bool"
        }
      ],
      "stateMutability": "view",
      "type": "function"
    },
    {
      "inputs": [
        {
          "internalType": "uint256",
          "name": "_poolId",
          "type": "uint256"
        },
        {
          "internalType": "address",
          "name": "_user",
          "type": "address"
        }
      ],
      "name": "pendingDegis",
      "outputs": [
        {
          "internalType": "uint256",
          "name": "",
          "type": "uint256"
        }
      ],
      "stateMutability": "view",
      "type": "function"
    },
    {
      "inputs": [
        {
          "internalType": "uint256",
          "name": "",
          "type": "uint256"
        }
      ],
      "name": "poolList",
      "outputs": [
        {
          "internalType": "address",
          "name": "lpToken",
          "type": "address"
        },
        {
          "internalType": "uint256",
          "name": "basicDegisPerSecond",
          "type": "uint256"
        },
        {
          "internalType": "uint256",
          "name": "bonusDegisPerSecond",
          "type": "uint256"
        },
        {
          "internalType": "uint256",
          "name": "lastRewardTimestamp",
          "type": "uint256"
        },
        {
          "internalType": "uint256",
          "name": "accDegisPerShare",
          "type": "uint256"
        },
        {
          "internalType": "uint256",
          "name": "accDegisPerBonusShare",
          "type": "uint256"
        },
        {
          "internalType": "uint256",
          "name": "totalBonus",
          "type": "uint256"
        }
      ],
      "stateMutability": "view",
      "type": "function"
    },
    {
      "inputs": [
        {
          "internalType": "address",
          "name": "",
          "type": "address"
        }
      ],
      "name": "poolMapping",
      "outputs": [
        {
          "internalType": "uint256",
          "name": "",
          "type": "uint256"
        }
      ],
      "stateMutability": "view",
      "type": "function"
    },
    {
      "inputs": [],
      "name": "renounceOwnership",
      "outputs": [],
      "stateMutability": "nonpayable",
      "type": "function"
    },
    {
      "inputs": [
        {
          "internalType": "uint256",
          "name": "_poolId",
          "type": "uint256"
        },
        {
          "internalType": "uint256",
          "name": "_basicDegisPerSecond",
          "type": "uint256"
        },
        {
          "internalType": "uint256",
          "name": "_bonusDegisPerSecond",
          "type": "uint256"
        },
        {
          "internalType": "bool",
          "name": "_withUpdate",
          "type": "bool"
        }
      ],
      "name": "setDegisReward",
      "outputs": [],
      "stateMutability": "nonpayable",
      "type": "function"
    },
    {
      "inputs": [
        {
          "internalType": "uint256",
          "name": "_startTimestamp",
          "type": "uint256"
        }
      ],
      "name": "setStartTimestamp",
      "outputs": [],
      "stateMutability": "nonpayable",
      "type": "function"
    },
    {
      "inputs": [
        {
          "internalType": "address",
          "name": "_veDEG",
          "type": "address"
        }
      ],
      "name": "setVeDEG",
      "outputs": [],
      "stateMutability": "nonpayable",
      "type": "function"
    },
    {
      "inputs": [
        {
          "internalType": "uint256",
          "name": "_poolId",
          "type": "uint256"
        },
        {
          "internalType": "uint256",
          "name": "_amount",
          "type": "uint256"
        }
      ],
      "name": "stake",
      "outputs": [],
      "stateMutability": "nonpayable",
      "type": "function"
    },
    {
      "inputs": [],
      "name": "startTimestamp",
      "outputs": [
        {
          "internalType": "uint256",
          "name": "",
          "type": "uint256"
        }
      ],
      "stateMutability": "view",
      "type": "function"
    },
    {
      "inputs": [
        {
          "internalType": "address",
          "name": "newOwner",
          "type": "address"
        }
      ],
      "name": "transferOwnership",
      "outputs": [],
      "stateMutability": "nonpayable",
      "type": "function"
    },
    {
      "inputs": [],
      "name": "unpause",
      "outputs": [],
      "stateMutability": "nonpayable",
      "type": "function"
    },
    {
      "inputs": [
        {
          "internalType": "address",
          "name": "_user",
          "type": "address"
        },
        {
          "internalType": "uint256",
          "name": "_newVeDEGBalance",
          "type": "uint256"
        }
      ],
      "name": "updateBonus",
      "outputs": [],
      "stateMutability": "nonpayable",
      "type": "function"
    },
    {
      "inputs": [
        {
          "internalType": "uint256",
          "name": "_poolId",
          "type": "uint256"
        }
      ],
      "name": "updatePool",
      "outputs": [],
      "stateMutability": "nonpayable",
      "type": "function"
    },
    {
      "inputs": [
        {
          "internalType": "uint256",
          "name": "",
          "type": "uint256"
        },
        {
          "internalType": "address",
          "name": "",
          "type": "address"
        }
      ],
      "name": "userInfo",
      "outputs": [
        {
          "internalType": "uint256",
          "name": "rewardDebt",
          "type": "uint256"
        },
        {
          "internalType": "uint256",
          "name": "stakingBalance",
          "type": "uint256"
        },
        {
          "internalType": "uint256",
          "name": "bonus",
          "type": "uint256"
        }
      ],
      "stateMutability": "view",
      "type": "function"
    },
    {
      "inputs": [],
      "name": "veDEG",
      "outputs": [
        {
          "internalType": "contract IVeDEG",
          "name": "",
          "type": "address"
        }
      ],
      "stateMutability": "view",
      "type": "function"
    },
    {
      "inputs": [
        {
          "internalType": "uint256",
          "name": "_poolId",
          "type": "uint256"
        },
        {
          "internalType": "uint256",
          "name": "_amount",
          "type": "uint256"
        }
      ],
      "name": "withdraw",
      "outputs": [],
      "stateMutability": "nonpayable",
      "type": "function"
    }
  ],
  "transactionHash": "0xef1935329a462ecdec8754fe7b1f49f6966bb75093861ccfe19141fe29e6c165",
  "args": [
    "0x0c1902987652d5a6168dd65ee6b2536456ef92d3"
  ],
  "numDeployments": 1,
  "solcInputHash": "64edb72108e49c67231df32415749bc9",
  "bytecode": "0x60806040523480156200001157600080fd5b5060405162002f7938038062002f79833981016040819052620000349162000262565b336200004081620001d8565b506001808055600280546001600160a81b0319166101006001600160a01b039485160217905560048190556040805160e081018252600080825260208201818152928201818152606083018281526080840183815260a0850184815260c0860185815260068054998a01815590955294517ff652222313e28459528d920b65115c16c04f3efc82aaedc97be59f3f377c0d3f600790980297880180546001600160a01b031916919099161790975593517ff652222313e28459528d920b65115c16c04f3efc82aaedc97be59f3f377c0d40860155517ff652222313e28459528d920b65115c16c04f3efc82aaedc97be59f3f377c0d4185015591517ff652222313e28459528d920b65115c16c04f3efc82aaedc97be59f3f377c0d4284015592517ff652222313e28459528d920b65115c16c04f3efc82aaedc97be59f3f377c0d4383015591517ff652222313e28459528d920b65115c16c04f3efc82aaedc97be59f3f377c0d4482015590517ff652222313e28459528d920b65115c16c04f3efc82aaedc97be59f3f377c0d45909101556200028f565b600080546001600160a01b038381166001600160a01b0319831681178455604051919092169283917f8be0079c531659141344cd1fd0a4f28419497f9722a3daafe3b4186f6b6457e09190a35050565b60006001600160a01b0382165b92915050565b620002468162000228565b81146200025257600080fd5b50565b805162000235816200023b565b600060208284031215620002795762000279600080fd5b600062000287848462000255565b949350505050565b612cda806200029f6000396000f3fe608060405234801561001057600080fd5b50600436106101c45760003560e01c80638456cb59116100f9578063d13f67bc11610097578063e4a7631511610071578063e4a76315146103f4578063e6fd48bc14610407578063eced552614610410578063f2fde38b1461041c57600080fd5b8063d13f67bc146103b9578063d41dcbea146103cc578063d5446518146103e157600080fd5b8063a06ddcb3116100d3578063a06ddcb31461035d578063c44bef7514610380578063cdcd290714610393578063cdfb6cf3146103a657600080fd5b80638456cb59146102f35780638da5cb5b146102fb57806393f1a40b1461031457600080fd5b8063441a3e70116101665780635c975abb116101405780635c975abb146102bc578063630b5ba1146102d0578063715018a6146102d85780637b0472f0146102e057600080fd5b8063441a3e70146102835780634f3e7ba61461029657806351eb05a6146102a957600080fd5b806329fd2007116101a257806329fd2007146102105780632a48235b146102355780632c678a3e1461025b5780633f4ba83a1461027b57600080fd5b806307a96cbf146101c957806317fb77de146101de57806318fccc76146101fd575b600080fd5b6101dc6101d736600461219c565b61042f565b005b6101e760045481565b6040516101f491906121c5565b60405180910390f35b6101dc61020b3660046121e4565b6104a0565b6002546102289061010090046001600160a01b031681565b6040516101f49190612240565b61024861024336600461224e565b6106af565b6040516101f49796959493929190612278565b6101e761026936600461219c565b60076020526000908152604090205481565b6101dc610708565b6101dc6102913660046122e0565b61074b565b600354610228906001600160a01b031681565b6101dc6102b736600461224e565b610a6a565b60025460ff165b6040516101f4919061231b565b6101dc610c9b565b6101dc610ce3565b6101dc6102ee3660046122e0565b610d26565b6101dc61102c565b6000546001600160a01b03166040516101f49190612329565b61034e6103223660046121e4565b600960209081526000928352604080842090915290825290208054600182015460029092015490919083565b6040516101f493929190612337565b6102c361036b36600461224e565b60086020526000908152604090205460ff1681565b6101dc61038e36600461224e565b61106d565b6101dc6103a1366004612372565b61112b565b6101e76103b43660046121e4565b611374565b6101e76103c73660046121e4565b6113a1565b6103d4611628565b6040516101f491906124b2565b6101dc6103ef3660046124c3565b6116d0565b6101dc6104023660046124e5565b61181e565b6101e760055481565b6101e764e8d4a5100081565b6101dc61042a36600461219c565b611b15565b336104426000546001600160a01b031690565b6001600160a01b0316146104715760405162461bcd60e51b81526004016104689061253a565b60405180910390fd5b6003805473ffffffffffffffffffffffffffffffffffffffff19166001600160a01b0392909216919091179055565b600260015414156104c35760405162461bcd60e51b81526004016104689061257c565b60026001556104d460025460ff1690565b156104f15760405162461bcd60e51b8152600401610468906125be565b60008281526008602052604090205460ff16156105115761051182610a6a565b600060068381548110610526576105266125ce565b600091825260208083206040805160e081018252600790940290910180546001600160a01b03168452600181015484840152600280820154858401526003820154606086015260048201546080860152600582015460a0860190815260069092015460c08601528886526009845282862033875290935290842080549151928101549395509392909164e8d4a51000916105c091906125fa565b856080015185600101546105d491906125fa565b6105de9190612619565b6105e89190612647565b6105f2919061265b565b9050600081116106145760405162461bcd60e51b8152600401610468906126a4565b64e8d4a510008360a00151836002015461062e91906125fa565b8460800151846001015461064291906125fa565b61064c9190612619565b6106569190612647565b825560006106648583611b80565b90507fdec9257d126f56798a34ce7ca0ffedeaa9a024543946f79c3b5038035ba32a1e3386888460405161069b94939291906126b4565b60405180910390a150506001805550505050565b600681815481106106bf57600080fd5b600091825260209091206007909102018054600182015460028301546003840154600485015460058601546006909601546001600160a01b039095169650929491939092919087565b3361071b6000546001600160a01b031690565b6001600160a01b0316146107415760405162461bcd60e51b81526004016104689061253a565b610749611c6c565b565b6002600154141561076e5760405162461bcd60e51b81526004016104689061257c565b600260015561077f60025460ff1690565b1561079c5760405162461bcd60e51b8152600401610468906125be565b600081116107bc5760405162461bcd60e51b815260040161046890612724565b6000600683815481106107d1576107d16125ce565b60009182526020808320868452600982526040808520338652909252922060018101546007909202909201925083111561081d5760405162461bcd60e51b815260040161046890612766565b60008481526008602052604090205460ff161561083d5761083d84610a6a565b6000816000015464e8d4a510008460050154846002015461085e91906125fa565b8560040154856001015461087291906125fa565b61087c9190612619565b6108869190612647565b610890919061265b565b9050600061089e3383611b80565b90507fdec9257d126f56798a34ce7ca0ffedeaa9a024543946f79c3b5038035ba32a1e333388846040516108d594939291906126b4565b60405180910390a183546000906108f9906001906001600160a01b03163389611cd2565b90508084600101600082825461090f919061265b565b90915550506003546001600160a01b0316156109dd5760028401546003546040516370a0823160e01b81526109b1916001600160a01b0316906370a082319061095c903390600401612329565b602060405180830381865afa158015610979573d6000803e3d6000fd5b505050506040513d601f19601f8201168201806040525081019061099d9190612781565b86600101546109ac91906125fa565b611e15565b600286018190556109c390829061265b565b8660060160008282546109d69190612619565b9091555050505b64e8d4a51000856005015485600201546109f791906125fa565b86600401548660010154610a0b91906125fa565b610a159190612619565b610a1f9190612647565b84556040517ff279e6a1f5e320cca91135676d9cb6e44ca8a08c0b88342bcdb1144f6511b56890610a559033908a9085906127a2565b60405180910390a15050600180555050505050565b600060068281548110610a7f57610a7f6125ce565b9060005260206000209060070201905080600301544211610a9e575050565b80546040516370a0823160e01b81526000916001600160a01b0316906370a0823190610ace903090600401612329565b602060405180830381865afa158015610aeb573d6000803e3d6000fd5b505050506040513d601f19601f82011682018060405250810190610b0f9190612781565b905080610b2157504260039091015550565b6000826003015442610b33919061265b565b90506000836001015482610b4791906125fa565b90506000846002015483610b5b91906125fa565b905083610b6d64e8d4a51000846125fa565b610b779190612647565b856004016000828254610b8a9190612619565b90915550506006850154610ba45760006005860155610bdb565b6006850154610bb864e8d4a51000836125fa565b610bc29190612647565b856005016000828254610bd59190612619565b90915550505b60025461010090046001600160a01b031663b476739830610bfc8486612619565b6040518363ffffffff1660e01b8152600401610c199291906127b0565b600060405180830381600087803b158015610c3357600080fd5b505af1158015610c47573d6000803e3d6000fd5b50504260038801555050600485015460058601546040517f17b8644f386d1c7c7138ef98b3c8035622bbe94d7be9b26f71d2654a547c294392610c8b928a92612337565b60405180910390a1505050505050565b60065460005b81811015610cdf5760008181526008602052604090205460ff16610cc457610ccd565b610ccd81610a6a565b80610cd7816127cb565b915050610ca1565b5050565b33610cf66000546001600160a01b031690565b6001600160a01b031614610d1c5760405162461bcd60e51b81526004016104689061253a565b6107496000611e85565b60026001541415610d495760405162461bcd60e51b81526004016104689061257c565b6002600155610d5a60025460ff1690565b15610d775760405162461bcd60e51b8152600401610468906125be565b600082815260086020526040902054829060ff16610da75760405162461bcd60e51b815260040161046890612818565b60008211610dc75760405162461bcd60e51b81526004016104689061285a565b600060068481548110610ddc57610ddc6125ce565b60009182526020808320878452600982526040808520338652909252922060079091029091019150610e0d85610a6a565b600181015415610eba576000816000015464e8d4a5100084600501548460020154610e3891906125fa565b85600401548560010154610e4c91906125fa565b610e569190612619565b610e609190612647565b610e6a919061265b565b90506000610e783383611b80565b90507fdec9257d126f56798a34ce7ca0ffedeaa9a024543946f79c3b5038035ba32a1e33338984604051610eaf94939291906126b4565b60405180910390a150505b8154600090610ed59082906001600160a01b03163388611cd2565b905080826001016000828254610eeb9190612619565b90915550506003546001600160a01b031615610fb45760028201546003546040516370a0823160e01b8152610f88916001600160a01b0316906370a0823190610f38903390600401612329565b602060405180830381865afa158015610f55573d6000803e3d6000fd5b505050506040513d601f19601f82011682018060405250810190610f799190612781565b84600101546109ac91906125fa565b60028401819055610f9a90829061265b565b846006016000828254610fad9190612619565b9091555050505b64e8d4a5100083600501548360020154610fce91906125fa565b84600401548460010154610fe291906125fa565b610fec9190612619565b610ff69190612647565b82556040517f5af417134f72a9d41143ace85b0a26dce6f550f894f2cbc1eeee8810603d91b69061069b903390899085906127a2565b3361103f6000546001600160a01b031690565b6001600160a01b0316146110655760405162461bcd60e51b81526004016104689061253a565b610749611ee2565b336110806000546001600160a01b031690565b6001600160a01b0316146110a65760405162461bcd60e51b81526004016104689061253a565b60025460ff16156110c95760405162461bcd60e51b8152600401610468906125be565b6004546001146110eb5760405162461bcd60e51b8152600401610468906128c4565b60058190556040517faf8fc8a4c9a55a9a29c3e99cd1797d43062c696f192896c79cbebd7da3286d82906111209083906121c5565b60405180910390a150565b3361113e6000546001600160a01b031690565b6001600160a01b0316146111645760405162461bcd60e51b81526004016104689061253a565b60025460ff16156111875760405162461bcd60e51b8152600401610468906125be565b6006848154811061119a5761119a6125ce565b906000526020600020906007020160030154600014156111cc5760405162461bcd60e51b815260040161046890612906565b81156111f257600083116111f25760405162461bcd60e51b815260040161046890612948565b801561120557611200610c9b565b61120e565b61120e84610a6a565b60008481526008602052604090205460ff1615801561122d5750600083115b156112865760008481526008602052604090819020805460ff19166001179055517f6140f1d5adcbca6c6b24c3b5e695335cd1a2071c7e03881172dc9eb0e488225c9061127d9086904290612958565b60405180910390a15b826112e05760008481526008602052604090819020805460ff19169055517f4654f9b7bb3ba4d66e3a4e972e39db189ac7b4fdf5f2a95d57a4eb4d91a16d45906112d39086904290612958565b60405180910390a161136e565b82600685815481106112f4576112f46125ce565b906000526020600020906007020160010181905550816006858154811061131d5761131d6125ce565b9060005260206000209060070201600201819055507f12558fa101886c4fd9ad5e0b9932a6ffd3653b63380b1da3f024ddaf506c22eb84848460405161136593929190612337565b60405180910390a15b50505050565b60008281526009602090815260408083206001600160a01b03851684529091529020600101545b92915050565b600080600684815481106113b7576113b76125ce565b60009182526020918290206040805160e081018252600790930290910180546001600160a01b0316835260018101549383019390935260028301549082015260038201546060820181905260048301546080830152600583015460a083015260069092015460c0820152915015806114325750806060015142105b8061143e575060055442105b1561144d57600091505061139b565b60008481526009602090815260408083206001600160a01b0380881685529083528184208251606081018452815481526001820154948101949094526002015483830152845191516370a0823160e01b81529293929116906370a08231906114b9903090600401612329565b602060405180830381865afa1580156114d6573d6000803e3d6000fd5b505050506040513d601f19601f820116820180604052508101906114fa9190612781565b608084015160a0850151919250908261151b5760009550505050505061139b565b60008881526008602052604090205460ff16156115cf576000856060015142611544919061265b565b9050600081876020015161155891906125fa565b90508461156a64e8d4a51000836125fa565b6115749190612647565b61157e9085612619565b60c0880151909450156115cc57600082886040015161159d91906125fa565b60c08901519091506115b464e8d4a51000836125fa565b6115be9190612647565b6115c89085612619565b9350505b50505b6000846000015164e8d4a510008387604001516115ec91906125fa565b8588602001516115fc91906125fa565b6116069190612619565b6116109190612647565b61161a919061265b565b965061139b95505050505050565b60606006805480602002602001604051908101604052809291908181526020016000905b828210156116c75760008481526020908190206040805160e0810182526007860290920180546001600160a01b03168352600180820154848601526002820154928401929092526003810154606084015260048101546080840152600581015460a08401526006015460c0830152908352909201910161164c565b50505050905090565b6003546001600160a01b031633146116fa5760405162461bcd60e51b815260040161046890612998565b60065460005b8181101561136e5760008181526008602052604090205460ff166117235761180e565b60008181526009602090815260408083206001600160a01b038816845290915290206001810154611754575061180e565b600060068381548110611769576117696125ce565b9060005260206000209060070201905061178283610a6a565b6002820154600183015460009061179d906109ac90896125fa565b60028501819055600584015490915064e8d4a51000906117bd90836125fa565b846004015486600101546117d191906125fa565b6117db9190612619565b6117e59190612647565b84556117f1828261265b565b8360060160008282546118049190612619565b9091555050505050505b611817816127cb565b9050611700565b836001600160a01b0381166118455760405162461bcd60e51b8152600401610468906129da565b336118586000546001600160a01b031690565b6001600160a01b03161461187e5760405162461bcd60e51b81526004016104689061253a565b60025460ff16156118a15760405162461bcd60e51b8152600401610468906125be565b6118aa85611f3a565b156118c75760405162461bcd60e51b815260040161046890612a1c565b82156118ed57600084116118ed5760405162461bcd60e51b815260040161046890612948565b81156118fb576118fb610c9b565b6000600554421161190e57600554611910565b425b6040805160e0810182526001600160a01b038981168252602082018981529282018881526060830185815260006080850181815260a0860182815260c0870183815260068054600181018255945296517ff652222313e28459528d920b65115c16c04f3efc82aaedc97be59f3f377c0d3f6007909402938401805473ffffffffffffffffffffffffffffffffffffffff1916919097161790955595517ff652222313e28459528d920b65115c16c04f3efc82aaedc97be59f3f377c0d4082015591517ff652222313e28459528d920b65115c16c04f3efc82aaedc97be59f3f377c0d41830155517ff652222313e28459528d920b65115c16c04f3efc82aaedc97be59f3f377c0d4282015592517ff652222313e28459528d920b65115c16c04f3efc82aaedc97be59f3f377c0d43840155517ff652222313e28459528d920b65115c16c04f3efc82aaedc97be59f3f377c0d44830155517ff652222313e28459528d920b65115c16c04f3efc82aaedc97be59f3f377c0d459091015590508415611ab1576004546000908152600860205260409020805460ff191660011790555b60048054906000611ac1836127cb565b909155506001600160a01b0387166000908152600760205260409081902091909155517f5f9d2cd19aa3f32e9e8cc45267a493f9956c1b955a220136161ff8ad595bc78290610c8b908890889088906127a2565b33611b286000546001600160a01b031690565b6001600160a01b031614611b4e5760405162461bcd60e51b81526004016104689061253a565b6001600160a01b038116611b745760405162461bcd60e51b815260040161046890612a84565b611b7d81611e85565b50565b6002546040516370a0823160e01b815260009182916101009091046001600160a01b0316906370a0823190611bb9903090600401612329565b602060405180830381865afa158015611bd6573d6000803e3d6000fd5b505050506040513d601f19601f82011682018060405250810190611bfa9190612781565b905060008111611c1c5760405162461bcd60e51b815260040161046890612ac6565b80831115611c4757600254611c409061010090046001600160a01b03168583611f69565b905061139b565b600254611c639061010090046001600160a01b03168585611f69565b8291505061139b565b60025460ff16611c8e5760405162461bcd60e51b815260040161046890612b08565b6002805460ff191690557f5db9ee0a495bf2e6ff9c91a7834c1ba4fdd244a5e8aa4e537bd38aeae4b073aa335b604051611cc89190612329565b60405180910390a1565b600080846001600160a01b03166370a08231306040518263ffffffff1660e01b8152600401611d019190612329565b602060405180830381865afa158015611d1e573d6000803e3d6000fd5b505050506040513d601f19601f82011682018060405250810190611d429190612781565b90508515611d6357611d5e6001600160a01b0386168585611f69565b611d78565b611d786001600160a01b038616853086611ff1565b6040516370a0823160e01b81526000906001600160a01b038716906370a0823190611da7903090600401612329565b602060405180830381865afa158015611dc4573d6000803e3d6000fd5b505050506040513d601f19601f82011682018060405250810190611de89190612781565b905086611dfe57611df9828261265b565b611e08565b611e08818361265b565b925050505b949350505050565b60006003821115611e765750806000611e2f600283612647565b611e3a906001612619565b90505b81811015611e7057905080600281611e558186612647565b611e5f9190612619565b611e699190612647565b9050611e3d565b50919050565b8115611e80575060015b919050565b600080546001600160a01b0383811673ffffffffffffffffffffffffffffffffffffffff19831681178455604051919092169283917f8be0079c531659141344cd1fd0a4f28419497f9722a3daafe3b4186f6b6457e09190a35050565b60025460ff1615611f055760405162461bcd60e51b8152600401610468906125be565b6002805460ff191660011790557f62e78cea01bee320cd4e420270b5ea74000d11b0c9f74754ebdbfc544b05a258611cbb3390565b6001600160a01b03811660009081526007602052604081205480611f5f576000611f62565b60015b9392505050565b611fec8363a9059cbb60e01b8484604051602401611f889291906127b0565b60408051601f198184030181529190526020810180517bffffffffffffffffffffffffffffffffffffffffffffffffffffffff167fffffffff0000000000000000000000000000000000000000000000000000000090931692909217909152612012565b505050565b61136e846323b872dd60e01b858585604051602401611f8893929190612b18565b6000612067826040518060400160405280602081526020017f5361666545524332303a206c6f772d6c6576656c2063616c6c206661696c6564815250856001600160a01b03166120a19092919063ffffffff16565b805190915015611fec57808060200190518101906120859190612b3e565b611fec5760405162461bcd60e51b815260040161046890612bb7565b6060611e0d848460008585843b6120ca5760405162461bcd60e51b815260040161046890612bf9565b600080866001600160a01b031685876040516120e69190612c57565b60006040518083038185875af1925050503d8060008114612123576040519150601f19603f3d011682016040523d82523d6000602084013e612128565b606091505b5091509150611e0882828660608315612142575081611f62565b8251156121525782518084602001fd5b8160405162461bcd60e51b81526004016104689190612c93565b60006001600160a01b03821661139b565b6121868161216c565b8114611b7d57600080fd5b803561139b8161217d565b6000602082840312156121b1576121b1600080fd5b6000611e0d8484612191565b805b82525050565b6020810161139b82846121bd565b80612186565b803561139b816121d3565b600080604083850312156121fa576121fa600080fd5b600061220685856121d9565b925050602061221785828601612191565b9150509250929050565b600061139b8261216c565b600061139b82612221565b6121bf8161222c565b6020810161139b8284612237565b60006020828403121561226357612263600080fd5b6000611e0d84846121d9565b6121bf8161216c565b60e08101612286828a61226f565b61229360208301896121bd565b6122a060408301886121bd565b6122ad60608301876121bd565b6122ba60808301866121bd565b6122c760a08301856121bd565b6122d460c08301846121bd565b98975050505050505050565b600080604083850312156122f6576122f6600080fd5b600061230285856121d9565b9250506020612217858286016121d9565b8015156121bf565b6020810161139b8284612313565b6020810161139b828461226f565b6060810161234582866121bd565b61235260208301856121bd565b611e0d60408301846121bd565b801515612186565b803561139b8161235f565b6000806000806080858703121561238b5761238b600080fd5b600061239787876121d9565b94505060206123a8878288016121d9565b93505060406123b9878288016121d9565b92505060606123ca87828801612367565b91505092959194509250565b80516123e2838261226f565b5060208101516123f560208401826121bd565b50604081015161240860408401826121bd565b50606081015161241b60608401826121bd565b50608081015161242e60808401826121bd565b5060a081015161244160a08401826121bd565b5060c0810151611fec60c08401826121bd565b61245e82826123d6565b5060e00190565b60200190565b6000612475825190565b808452602093840193830160005b828110156124a85781516124978782612454565b965050602082019150600101612483565b5093949350505050565b60208082528101611f62818461246b565b600080604083850312156124d9576124d9600080fd5b60006123028585612191565b600080600080608085870312156124fe576124fe600080fd5b60006123978787612191565b60208082527f4f776e61626c653a2063616c6c6572206973206e6f7420746865206f776e65729101908152612465565b6020808252810161139b8161250a565b601f8152602081017f5265656e7472616e637947756172643a207265656e7472616e742063616c6c0081529050612465565b6020808252810161139b8161254a565b60108152602081017f5061757361626c653a207061757365640000000000000000000000000000000081529050612465565b6020808252810161139b8161258c565b634e487b7160e01b600052603260045260246000fd5b634e487b7160e01b600052601160045260246000fd5b6000816000190483118215151615612614576126146125e4565b500290565b6000821982111561262c5761262c6125e4565b500190565b634e487b7160e01b600052601260045260246000fd5b60008261265657612656612631565b500490565b60008282101561266d5761266d6125e4565b500390565b60118152602081017f4e6f2070656e64696e672072657761726400000000000000000000000000000081529050612465565b6020808252810161139b81612672565b608081016126c2828761226f565b6126cf602083018661226f565b6126dc60408301856121bd565b6126e960608301846121bd565b95945050505050565b600b8152602081017f5a65726f20616d6f756e7400000000000000000000000000000000000000000081529050612465565b6020808252810161139b816126f2565b60198152602081017f4e6f7420656e6f756768207374616b696e6742616c616e63650000000000000081529050612465565b6020808252810161139b81612734565b805161139b816121d3565b60006020828403121561279657612796600080fd5b6000611e0d8484612776565b60608101612345828661226f565b604081016127be828561226f565b611f6260208301846121bd565b60006000198214156127df576127df6125e4565b5060010190565b60138152602081017f506f6f6c206973206e6f74206661726d696e670000000000000000000000000081529050612465565b6020808252810161139b816127e6565b60128152602081017f43616e206e6f74207374616b65207a65726f000000000000000000000000000081529050612465565b6020808252810161139b81612828565b602f8152602081017f43616e206e6f74207365742073746172742074696d657374616d70206166746581527f7220616464696e67206120706f6f6c0000000000000000000000000000000000602082015290505b60400190565b6020808252810161139b8161286a565b600f8152602081017f506f6f6c206e6f7420657869737473000000000000000000000000000000000081529050612465565b6020808252810161139b816128d4565b600a8152602081017f4f6e6c7920626f6e75730000000000000000000000000000000000000000000081529050612465565b6020808252810161139b81612916565b604081016127be82856121bd565b60138152602081017f4f6e6c7920766544454720636f6e74726163740000000000000000000000000081529050612465565b6020808252810161139b81612966565b600c8152602081017f5a65726f2061646472657373000000000000000000000000000000000000000081529050612465565b6020808252810161139b816129a8565b60138152602081017f416c726561647920696e2074686520706f6f6c0000000000000000000000000081529050612465565b6020808252810161139b816129ea565b60268152602081017f4f776e61626c653a206e6577206f776e657220697320746865207a65726f206181527f6464726573730000000000000000000000000000000000000000000000000000602082015290506128be565b6020808252810161139b81612a2c565b601a8152602081017f4e6f20446567697320746f6b656e20696e2074686520706f6f6c00000000000081529050612465565b6020808252810161139b81612a94565b60148152602081017f5061757361626c653a206e6f742070617573656400000000000000000000000081529050612465565b6020808252810161139b81612ad6565b60608101612b26828661226f565b612352602083018561226f565b805161139b8161235f565b600060208284031215612b5357612b53600080fd5b6000611e0d8484612b33565b602a8152602081017f5361666545524332303a204552433230206f7065726174696f6e20646964206e81527f6f74207375636365656400000000000000000000000000000000000000000000602082015290506128be565b6020808252810161139b81612b5f565b601d8152602081017f416464726573733a2063616c6c20746f206e6f6e2d636f6e747261637400000081529050612465565b6020808252810161139b81612bc7565b60005b83811015612c24578181015183820152602001612c0c565b8381111561136e5750506000910152565b6000612c3f825190565b612c4d818560208601612c09565b9290920192915050565b61139b8183612c35565b6000612c6b825190565b808452602084019350612c82818560208601612c09565b601f01601f19169290920192915050565b60208082528101611f628184612c6156fea2646970667358221220f1a2beaf4bee0b96e99cada786a6df8d867107b15e8b7f8bde70bdc2b91c784c64736f6c634300080a0033",
  "devdoc": {
    "details": "The pool id starts from 1 rather than 0         The degis reward is calculated by timestamp rather than block number",
    "kind": "dev",
    "methods": {
      "add(address,uint256,uint256,bool)": {
        "details": "Can only be called by the owner      The reward speed can be 0 and set later by setDegisReward function",
        "params": {
          "_basicDegisPerSecond": "Basic reward speed(per second) for this new pool",
          "_bonusDegisPerSecond": "Bonus reward speed(per second) for this new pool",
          "_lpToken": "LP token address",
          "_withUpdate": "Whether update all pools' status"
        }
      },
      "getPoolList()": {
        "returns": {
          "_0": "pooList Total pool list"
        }
      },
      "getUserBalance(uint256,address)": {
        "params": {
          "_poolId": "Id of the pool",
          "_user": "User address"
        },
        "returns": {
          "_0": "balance User's balance (lpToken)"
        }
      },
      "harvest(uint256,address)": {
        "params": {
          "_poolId": "Id of the farming pool",
          "_to": "Receiver of degis rewards"
        }
      },
      "massUpdatePools()": {
        "details": "Can be called by anyone      Only update those active pools"
      },
      "paused()": {
        "details": "Returns true if the contract is paused, and false otherwise."
      },
      "pendingDegis(uint256,address)": {
        "params": {
          "_poolId": "PoolId of this farming pool",
          "_user": "User address"
        },
        "returns": {
          "_0": "pendingDegisAmount Amount of pending degis"
        }
      },
      "renounceOwnership()": {
        "details": "Renouncing ownership will leave the contract without an owner,         thereby removing any functionality that is only available to the owner."
      },
      "setDegisReward(uint256,uint256,uint256,bool)": {
        "params": {
          "_basicDegisPerSecond": "New basic reward amount per second",
          "_bonusDegisPerSecond": "New bonus reward amount per second",
          "_poolId": "Id of the farming pool",
          "_withUpdate": "Whether update all pools"
        }
      },
      "setStartTimestamp(uint256)": {
        "params": {
          "_startTimestamp": "New start block timestamp"
        }
      },
      "stake(uint256,uint256)": {
        "details": "Can only stake to the pools that are still farming",
        "params": {
          "_amount": "Staking amount",
          "_poolId": "Id of the farming pool"
        }
      },
      "transferOwnership(address)": {
        "details": "Can only be called by the current owner.",
        "params": {
          "newOwner": "Address of the new owner"
        }
      },
      "updateBonus(address,uint256)": {
        "details": "When veDEG has balance change      Only called by veDEG contract",
        "params": {
          "_newVeDEGBalance": "New veDEG balance",
          "_user": "User address"
        }
      },
      "updatePool(uint256)": {
        "params": {
          "_poolId": "Id of the farming pool"
        }
      },
      "withdraw(uint256,uint256)": {
        "params": {
          "_amount": "Amount of lp tokens to withdraw",
          "_poolId": "Id of the farming pool"
        }
      }
    },
    "title": "Farming Pool",
    "version": 1
  },
  "userdoc": {
    "kind": "user",
    "methods": {
      "add(address,uint256,uint256,bool)": {
        "notice": "Add a new lp into the pool"
      },
      "getPoolList()": {
        "notice": "Get the total pool list"
      },
      "getUserBalance(uint256,address)": {
        "notice": "Get a user's balance"
      },
      "harvest(uint256,address)": {
        "notice": "Harvest the degis reward and can be sent to another address"
      },
      "massUpdatePools()": {
        "notice": "Update all farming pools (except for those stopped ones)"
      },
      "owner()": {
        "notice": "Returns the address of the current owner."
      },
      "pendingDegis(uint256,address)": {
        "notice": "Check the amount of pending degis reward"
      },
      "renounceOwnership()": {
        "notice": "Leaves the contract without owner. It will not be possible to call         `onlyOwner` functions anymore. Can only be called by the current owner."
      },
      "setDegisReward(uint256,uint256,uint256,bool)": {
        "notice": "Update the degisPerSecond for a specific pool (set to 0 to stop farming)"
      },
      "setStartTimestamp(uint256)": {
        "notice": "Set the start block timestamp"
      },
      "stake(uint256,uint256)": {
        "notice": "Stake LP token into the farming pool"
      },
      "transferOwnership(address)": {
        "notice": "Transfers ownership of the contract to a new account (`newOwner`)."
      },
      "updateBonus(address,uint256)": {
        "notice": "Update a user's bonus"
      },
      "updatePool(uint256)": {
        "notice": "Update the pool's reward status"
      },
      "withdraw(uint256,uint256)": {
        "notice": "Withdraw lptoken from the pool"
      }
    },
    "notice": "This contract is for LPToken mining on Degis",
    "version": 1
  },
  "storageLayout": {
    "storage": [
      {
        "astId": 26460,
        "contract": "contracts/farming/FarmingPool.sol:FarmingPool",
        "label": "_owner",
        "offset": 0,
        "slot": "0",
        "type": "t_address"
      },
      {
        "astId": 4158,
        "contract": "contracts/farming/FarmingPool.sol:FarmingPool",
        "label": "_status",
        "offset": 0,
        "slot": "1",
        "type": "t_uint256"
      },
      {
        "astId": 4073,
        "contract": "contracts/farming/FarmingPool.sol:FarmingPool",
        "label": "_paused",
        "offset": 0,
        "slot": "2",
        "type": "t_bool"
      },
      {
        "astId": 8401,
        "contract": "contracts/farming/FarmingPool.sol:FarmingPool",
        "label": "degis",
        "offset": 1,
        "slot": "2",
        "type": "t_contract(IDegisToken)26075"
      },
      {
        "astId": 8404,
        "contract": "contracts/farming/FarmingPool.sol:FarmingPool",
        "label": "veDEG",
        "offset": 0,
        "slot": "3",
        "type": "t_contract(IVeDEG)12441"
      },
      {
        "astId": 8409,
        "contract": "contracts/farming/FarmingPool.sol:FarmingPool",
        "label": "_nextPoolId",
        "offset": 0,
        "slot": "4",
        "type": "t_uint256"
      },
      {
        "astId": 8411,
        "contract": "contracts/farming/FarmingPool.sol:FarmingPool",
        "label": "startTimestamp",
        "offset": 0,
        "slot": "5",
        "type": "t_uint256"
      },
      {
        "astId": 8430,
        "contract": "contracts/farming/FarmingPool.sol:FarmingPool",
        "label": "poolList",
        "offset": 0,
        "slot": "6",
        "type": "t_array(t_struct(PoolInfo)8426_storage)dyn_storage"
      },
      {
        "astId": 8434,
        "contract": "contracts/farming/FarmingPool.sol:FarmingPool",
        "label": "poolMapping",
        "offset": 0,
        "slot": "7",
        "type": "t_mapping(t_address,t_uint256)"
      },
      {
        "astId": 8438,
        "contract": "contracts/farming/FarmingPool.sol:FarmingPool",
        "label": "isFarming",
        "offset": 0,
        "slot": "8",
        "type": "t_mapping(t_uint256,t_bool)"
      },
      {
        "astId": 8452,
        "contract": "contracts/farming/FarmingPool.sol:FarmingPool",
        "label": "userInfo",
        "offset": 0,
        "slot": "9",
        "type": "t_mapping(t_uint256,t_mapping(t_address,t_struct(UserInfo)8445_storage))"
      }
    ],
    "types": {
      "t_address": {
        "encoding": "inplace",
        "label": "address",
        "numberOfBytes": "20"
      },
      "t_array(t_struct(PoolInfo)8426_storage)dyn_storage": {
        "base": "t_struct(PoolInfo)8426_storage",
        "encoding": "dynamic_array",
        "label": "struct FarmingPool.PoolInfo[]",
        "numberOfBytes": "32"
      },
      "t_bool": {
        "encoding": "inplace",
        "label": "bool",
        "numberOfBytes": "1"
      },
      "t_contract(IDegisToken)26075": {
        "encoding": "inplace",
        "label": "contract IDegisToken",
        "numberOfBytes": "20"
      },
      "t_contract(IVeDEG)12441": {
        "encoding": "inplace",
        "label": "contract IVeDEG",
        "numberOfBytes": "20"
      },
      "t_mapping(t_address,t_struct(UserInfo)8445_storage)": {
        "encoding": "mapping",
        "key": "t_address",
        "label": "mapping(address => struct FarmingPool.UserInfo)",
        "numberOfBytes": "32",
        "value": "t_struct(UserInfo)8445_storage"
      },
      "t_mapping(t_address,t_uint256)": {
        "encoding": "mapping",
        "key": "t_address",
        "label": "mapping(address => uint256)",
        "numberOfBytes": "32",
        "value": "t_uint256"
      },
      "t_mapping(t_uint256,t_bool)": {
        "encoding": "mapping",
        "key": "t_uint256",
        "label": "mapping(uint256 => bool)",
        "numberOfBytes": "32",
        "value": "t_bool"
      },
      "t_mapping(t_uint256,t_mapping(t_address,t_struct(UserInfo)8445_storage))": {
        "encoding": "mapping",
        "key": "t_uint256",
        "label": "mapping(uint256 => mapping(address => struct FarmingPool.UserInfo))",
        "numberOfBytes": "32",
        "value": "t_mapping(t_address,t_struct(UserInfo)8445_storage)"
      },
      "t_struct(PoolInfo)8426_storage": {
        "encoding": "inplace",
        "label": "struct FarmingPool.PoolInfo",
        "members": [
          {
            "astId": 8413,
            "contract": "contracts/farming/FarmingPool.sol:FarmingPool",
            "label": "lpToken",
            "offset": 0,
            "slot": "0",
            "type": "t_address"
          },
          {
            "astId": 8415,
            "contract": "contracts/farming/FarmingPool.sol:FarmingPool",
            "label": "basicDegisPerSecond",
            "offset": 0,
            "slot": "1",
            "type": "t_uint256"
          },
          {
            "astId": 8417,
            "contract": "contracts/farming/FarmingPool.sol:FarmingPool",
            "label": "bonusDegisPerSecond",
            "offset": 0,
            "slot": "2",
            "type": "t_uint256"
          },
          {
            "astId": 8419,
            "contract": "contracts/farming/FarmingPool.sol:FarmingPool",
            "label": "lastRewardTimestamp",
            "offset": 0,
            "slot": "3",
            "type": "t_uint256"
          },
          {
            "astId": 8421,
            "contract": "contracts/farming/FarmingPool.sol:FarmingPool",
            "label": "accDegisPerShare",
            "offset": 0,
            "slot": "4",
            "type": "t_uint256"
          },
          {
            "astId": 8423,
            "contract": "contracts/farming/FarmingPool.sol:FarmingPool",
            "label": "accDegisPerBonusShare",
            "offset": 0,
            "slot": "5",
            "type": "t_uint256"
          },
          {
            "astId": 8425,
            "contract": "contracts/farming/FarmingPool.sol:FarmingPool",
            "label": "totalBonus",
            "offset": 0,
            "slot": "6",
            "type": "t_uint256"
          }
        ],
        "numberOfBytes": "224"
      },
      "t_struct(UserInfo)8445_storage": {
        "encoding": "inplace",
        "label": "struct FarmingPool.UserInfo",
        "members": [
          {
            "astId": 8440,
            "contract": "contracts/farming/FarmingPool.sol:FarmingPool",
            "label": "rewardDebt",
            "offset": 0,
            "slot": "0",
            "type": "t_uint256"
          },
          {
            "astId": 8442,
            "contract": "contracts/farming/FarmingPool.sol:FarmingPool",
            "label": "stakingBalance",
            "offset": 0,
            "slot": "1",
            "type": "t_uint256"
          },
          {
            "astId": 8444,
            "contract": "contracts/farming/FarmingPool.sol:FarmingPool",
            "label": "bonus",
            "offset": 0,
            "slot": "2",
            "type": "t_uint256"
          }
        ],
        "numberOfBytes": "96"
      },
      "t_uint256": {
        "encoding": "inplace",
        "label": "uint256",
        "numberOfBytes": "32"
      }
    }
  }
}