{
  "address": "0x1a03d9d741B69a52B7D028badAfF97f6cF06A1df",
  "abi": [
    {
      "anonymous": false,
      "inputs": [
        {
          "indexed": false,
          "internalType": "uint256",
          "name": "poolId",
          "type": "uint256"
        },
        {
          "indexed": false,
          "internalType": "uint256",
          "name": "basicDegisPerSecond",
          "type": "uint256"
        },
        {
          "indexed": false,
          "internalType": "uint256",
          "name": "bonusDegisPerSecond",
          "type": "uint256"
        }
      ],
      "name": "DegisRewardChanged",
      "type": "event"
    },
    {
      "anonymous": false,
      "inputs": [
        {
          "indexed": false,
          "internalType": "uint256",
          "name": "poolId",
          "type": "uint256"
        },
        {
          "indexed": false,
          "internalType": "uint256",
          "name": "timestamp",
          "type": "uint256"
        }
      ],
      "name": "FarmingPoolStarted",
      "type": "event"
    },
    {
      "anonymous": false,
      "inputs": [
        {
          "indexed": false,
          "internalType": "uint256",
          "name": "poolId",
          "type": "uint256"
        },
        {
          "indexed": false,
          "internalType": "uint256",
          "name": "timestamp",
          "type": "uint256"
        }
      ],
      "name": "FarmingPoolStopped",
      "type": "event"
    },
    {
      "anonymous": false,
      "inputs": [
        {
          "indexed": false,
          "internalType": "address",
          "name": "staker",
          "type": "address"
        },
        {
          "indexed": false,
          "internalType": "address",
          "name": "rewardReceiver",
          "type": "address"
        },
        {
          "indexed": false,
          "internalType": "uint256",
          "name": "poolId",
          "type": "uint256"
        },
        {
          "indexed": false,
          "internalType": "uint256",
          "name": "pendingReward",
          "type": "uint256"
        }
      ],
      "name": "Harvest",
      "type": "event"
    },
    {
      "anonymous": false,
      "inputs": [
        {
          "indexed": false,
          "internalType": "address",
          "name": "lpToken",
          "type": "address"
        },
        {
          "indexed": false,
          "internalType": "uint256",
          "name": "basicDegisPerSecond",
          "type": "uint256"
        },
        {
          "indexed": false,
          "internalType": "uint256",
          "name": "bonusDegisPerSecond",
          "type": "uint256"
        }
      ],
      "name": "NewPoolAdded",
      "type": "event"
    },
    {
      "anonymous": false,
      "inputs": [
        {
          "indexed": true,
          "internalType": "address",
          "name": "previousOwner",
          "type": "address"
        },
        {
          "indexed": true,
          "internalType": "address",
          "name": "newOwner",
          "type": "address"
        }
      ],
      "name": "OwnershipTransferred",
      "type": "event"
    },
    {
      "anonymous": false,
      "inputs": [
        {
          "indexed": false,
          "internalType": "address",
          "name": "account",
          "type": "address"
        }
      ],
      "name": "Paused",
      "type": "event"
    },
    {
      "anonymous": false,
      "inputs": [
        {
          "indexed": false,
          "internalType": "uint256",
          "name": "poolId",
          "type": "uint256"
        },
        {
          "indexed": false,
          "internalType": "uint256",
          "name": "accDegisPerShare",
          "type": "uint256"
        },
        {
          "indexed": false,
          "internalType": "uint256",
          "name": "accDegisPerBonusShare",
          "type": "uint256"
        }
      ],
      "name": "PoolUpdated",
      "type": "event"
    },
    {
      "anonymous": false,
      "inputs": [
        {
          "indexed": false,
          "internalType": "address",
          "name": "staker",
          "type": "address"
        },
        {
          "indexed": false,
          "internalType": "uint256",
          "name": "poolId",
          "type": "uint256"
        },
        {
          "indexed": false,
          "internalType": "uint256",
          "name": "amount",
          "type": "uint256"
        }
      ],
      "name": "Stake",
      "type": "event"
    },
    {
      "anonymous": false,
      "inputs": [
        {
          "indexed": false,
          "internalType": "uint256",
          "name": "startTimestamp",
          "type": "uint256"
        }
      ],
      "name": "StartTimestampChanged",
      "type": "event"
    },
    {
      "anonymous": false,
      "inputs": [
        {
          "indexed": false,
          "internalType": "address",
          "name": "account",
          "type": "address"
        }
      ],
      "name": "Unpaused",
      "type": "event"
    },
    {
      "anonymous": false,
      "inputs": [
        {
          "indexed": false,
          "internalType": "address",
          "name": "staker",
          "type": "address"
        },
        {
          "indexed": false,
          "internalType": "uint256",
          "name": "poolId",
          "type": "uint256"
        },
        {
          "indexed": false,
          "internalType": "uint256",
          "name": "amount",
          "type": "uint256"
        }
      ],
      "name": "Withdraw",
      "type": "event"
    },
    {
      "inputs": [],
      "name": "SCALE",
      "outputs": [
        {
          "internalType": "uint256",
          "name": "",
          "type": "uint256"
        }
      ],
      "stateMutability": "view",
      "type": "function"
    },
    {
      "inputs": [],
      "name": "_nextPoolId",
      "outputs": [
        {
          "internalType": "uint256",
          "name": "",
          "type": "uint256"
        }
      ],
      "stateMutability": "view",
      "type": "function"
    },
    {
      "inputs": [
        {
          "internalType": "address",
          "name": "_lpToken",
          "type": "address"
        },
        {
          "internalType": "uint256",
          "name": "_basicDegisPerSecond",
          "type": "uint256"
        },
        {
          "internalType": "uint256",
          "name": "_bonusDegisPerSecond",
          "type": "uint256"
        },
        {
          "internalType": "bool",
          "name": "_withUpdate",
          "type": "bool"
        }
      ],
      "name": "add",
      "outputs": [],
      "stateMutability": "nonpayable",
      "type": "function"
    },
    {
      "inputs": [],
      "name": "currentRewardLevel",
      "outputs": [
        {
          "internalType": "uint256",
          "name": "",
          "type": "uint256"
        }
      ],
      "stateMutability": "view",
      "type": "function"
    },
    {
      "inputs": [],
      "name": "degis",
      "outputs": [
        {
          "internalType": "contract IDegisToken",
          "name": "",
          "type": "address"
        }
      ],
      "stateMutability": "view",
      "type": "function"
    },
    {
      "inputs": [
        {
          "internalType": "uint256",
          "name": "",
          "type": "uint256"
        },
        {
          "internalType": "address",
          "name": "",
          "type": "address"
        }
      ],
      "name": "extraClaimable",
      "outputs": [
        {
          "internalType": "uint256",
          "name": "",
          "type": "uint256"
        }
      ],
      "stateMutability": "view",
      "type": "function"
    },
    {
      "inputs": [],
      "name": "getPoolList",
      "outputs": [
        {
          "components": [
            {
              "internalType": "address",
              "name": "lpToken",
              "type": "address"
            },
            {
              "internalType": "uint256",
              "name": "basicDegisPerSecond",
              "type": "uint256"
            },
            {
              "internalType": "uint256",
              "name": "bonusDegisPerSecond",
              "type": "uint256"
            },
            {
              "internalType": "uint256",
              "name": "lastRewardTimestamp",
              "type": "uint256"
            },
            {
              "internalType": "uint256",
              "name": "accDegisPerShare",
              "type": "uint256"
            },
            {
              "internalType": "uint256",
              "name": "accDegisPerBonusShare",
              "type": "uint256"
            },
            {
              "internalType": "uint256",
              "name": "totalBonus",
              "type": "uint256"
            }
          ],
          "internalType": "struct FarmingPoolUpgradeable.PoolInfo[]",
          "name": "",
          "type": "tuple[]"
        }
      ],
      "stateMutability": "view",
      "type": "function"
    },
    {
      "inputs": [
        {
          "internalType": "uint256",
          "name": "_poolId",
          "type": "uint256"
        },
        {
          "internalType": "address",
          "name": "_user",
          "type": "address"
        }
      ],
      "name": "getUserBalance",
      "outputs": [
        {
          "internalType": "uint256",
          "name": "",
          "type": "uint256"
        }
      ],
      "stateMutability": "view",
      "type": "function"
    },
    {
      "inputs": [
        {
          "internalType": "uint256",
          "name": "_poolId",
          "type": "uint256"
        },
        {
          "internalType": "address",
          "name": "_to",
          "type": "address"
        }
      ],
      "name": "harvest",
      "outputs": [],
      "stateMutability": "nonpayable",
      "type": "function"
    },
    {
      "inputs": [
        {
          "internalType": "address",
          "name": "_degis",
          "type": "address"
        }
      ],
      "name": "initialize",
      "outputs": [],
      "stateMutability": "nonpayable",
      "type": "function"
    },
    {
      "inputs": [
        {
          "internalType": "uint256",
          "name": "",
          "type": "uint256"
        }
      ],
      "name": "isFarming",
      "outputs": [
        {
          "internalType": "bool",
          "name": "",
          "type": "bool"
        }
      ],
      "stateMutability": "view",
      "type": "function"
    },
    {
      "inputs": [],
      "name": "massUpdatePools",
      "outputs": [],
      "stateMutability": "nonpayable",
      "type": "function"
    },
    {
      "inputs": [],
      "name": "name",
      "outputs": [
        {
          "internalType": "string",
          "name": "",
          "type": "string"
        }
      ],
      "stateMutability": "view",
      "type": "function"
    },
    {
      "inputs": [],
      "name": "owner",
      "outputs": [
        {
          "internalType": "address",
          "name": "",
          "type": "address"
        }
      ],
      "stateMutability": "view",
      "type": "function"
    },
    {
      "inputs": [],
      "name": "pause",
      "outputs": [],
      "stateMutability": "nonpayable",
      "type": "function"
    },
    {
      "inputs": [],
      "name": "paused",
      "outputs": [
        {
          "internalType": "bool",
          "name": "",
          "type": "bool"
        }
      ],
      "stateMutability": "view",
      "type": "function"
    },
    {
      "inputs": [
        {
          "internalType": "uint256",
          "name": "_poolId",
          "type": "uint256"
        },
        {
          "internalType": "address",
          "name": "_user",
          "type": "address"
        }
      ],
      "name": "pendingDegis",
      "outputs": [
        {
          "internalType": "uint256",
          "name": "",
          "type": "uint256"
        }
      ],
      "stateMutability": "view",
      "type": "function"
    },
    {
      "inputs": [
        {
          "internalType": "uint256",
          "name": "",
          "type": "uint256"
        },
        {
          "internalType": "uint256",
          "name": "",
          "type": "uint256"
        }
      ],
      "name": "piecewiseBasic",
      "outputs": [
        {
          "internalType": "uint256",
          "name": "",
          "type": "uint256"
        }
      ],
      "stateMutability": "view",
      "type": "function"
    },
    {
      "inputs": [
        {
          "internalType": "uint256",
          "name": "",
          "type": "uint256"
        }
      ],
      "name": "poolList",
      "outputs": [
        {
          "internalType": "address",
          "name": "lpToken",
          "type": "address"
        },
        {
          "internalType": "uint256",
          "name": "basicDegisPerSecond",
          "type": "uint256"
        },
        {
          "internalType": "uint256",
          "name": "bonusDegisPerSecond",
          "type": "uint256"
        },
        {
          "internalType": "uint256",
          "name": "lastRewardTimestamp",
          "type": "uint256"
        },
        {
          "internalType": "uint256",
          "name": "accDegisPerShare",
          "type": "uint256"
        },
        {
          "internalType": "uint256",
          "name": "accDegisPerBonusShare",
          "type": "uint256"
        },
        {
          "internalType": "uint256",
          "name": "totalBonus",
          "type": "uint256"
        }
      ],
      "stateMutability": "view",
      "type": "function"
    },
    {
      "inputs": [
        {
          "internalType": "address",
          "name": "",
          "type": "address"
        }
      ],
      "name": "poolMapping",
      "outputs": [
        {
          "internalType": "uint256",
          "name": "",
          "type": "uint256"
        }
      ],
      "stateMutability": "view",
      "type": "function"
    },
    {
      "inputs": [],
      "name": "renounceOwnership",
      "outputs": [],
      "stateMutability": "nonpayable",
      "type": "function"
    },
    {
      "inputs": [
        {
          "internalType": "uint256",
          "name": "_poolId",
          "type": "uint256"
        },
        {
          "internalType": "uint256",
          "name": "_basicDegisPerSecond",
          "type": "uint256"
        },
        {
          "internalType": "uint256",
          "name": "_bonusDegisPerSecond",
          "type": "uint256"
        },
        {
          "internalType": "bool",
          "name": "_withUpdate",
          "type": "bool"
        }
      ],
      "name": "setDegisReward",
      "outputs": [],
      "stateMutability": "nonpayable",
      "type": "function"
    },
    {
      "inputs": [
        {
          "internalType": "uint256",
          "name": "_poolId",
          "type": "uint256"
        },
        {
          "internalType": "uint256[]",
          "name": "_threshold",
          "type": "uint256[]"
        },
        {
          "internalType": "uint256[]",
          "name": "_reward",
          "type": "uint256[]"
        }
      ],
      "name": "setPiecewise",
      "outputs": [],
      "stateMutability": "nonpayable",
      "type": "function"
    },
    {
      "inputs": [
        {
          "internalType": "uint256",
          "name": "_startTimestamp",
          "type": "uint256"
        }
      ],
      "name": "setStartTimestamp",
      "outputs": [],
      "stateMutability": "nonpayable",
      "type": "function"
    },
    {
      "inputs": [
        {
          "internalType": "address",
          "name": "_veDEG",
          "type": "address"
        }
      ],
      "name": "setVeDEG",
      "outputs": [],
      "stateMutability": "nonpayable",
      "type": "function"
    },
    {
      "inputs": [
        {
          "internalType": "uint256",
          "name": "_poolId",
          "type": "uint256"
        },
        {
          "internalType": "uint256",
          "name": "_amount",
          "type": "uint256"
        }
      ],
      "name": "stake",
      "outputs": [],
      "stateMutability": "nonpayable",
      "type": "function"
    },
    {
      "inputs": [],
      "name": "startTimestamp",
      "outputs": [
        {
          "internalType": "uint256",
          "name": "",
          "type": "uint256"
        }
      ],
      "stateMutability": "view",
      "type": "function"
    },
    {
      "inputs": [
        {
          "internalType": "uint256",
          "name": "",
          "type": "uint256"
        },
        {
          "internalType": "uint256",
          "name": "",
          "type": "uint256"
        }
      ],
      "name": "thresholdBasic",
      "outputs": [
        {
          "internalType": "uint256",
          "name": "",
          "type": "uint256"
        }
      ],
      "stateMutability": "view",
      "type": "function"
    },
    {
      "inputs": [
        {
          "internalType": "address",
          "name": "newOwner",
          "type": "address"
        }
      ],
      "name": "transferOwnership",
      "outputs": [],
      "stateMutability": "nonpayable",
      "type": "function"
    },
    {
      "inputs": [],
      "name": "unpause",
      "outputs": [],
      "stateMutability": "nonpayable",
      "type": "function"
    },
    {
      "inputs": [
        {
          "internalType": "address",
          "name": "_user",
          "type": "address"
        },
        {
          "internalType": "uint256",
          "name": "_newVeDEGBalance",
          "type": "uint256"
        }
      ],
      "name": "updateBonus",
      "outputs": [],
      "stateMutability": "nonpayable",
      "type": "function"
    },
    {
      "inputs": [
        {
          "internalType": "uint256",
          "name": "_poolId",
          "type": "uint256"
        }
      ],
      "name": "updatePool",
      "outputs": [],
      "stateMutability": "nonpayable",
      "type": "function"
    },
    {
      "inputs": [
        {
          "internalType": "uint256",
          "name": "",
          "type": "uint256"
        },
        {
          "internalType": "address",
          "name": "",
          "type": "address"
        }
      ],
      "name": "userInfo",
      "outputs": [
        {
          "internalType": "uint256",
          "name": "rewardDebt",
          "type": "uint256"
        },
        {
          "internalType": "uint256",
          "name": "stakingBalance",
          "type": "uint256"
        },
        {
          "internalType": "uint256",
          "name": "bonus",
          "type": "uint256"
        }
      ],
      "stateMutability": "view",
      "type": "function"
    },
    {
      "inputs": [],
      "name": "veDEG",
      "outputs": [
        {
          "internalType": "contract IVeDEG",
          "name": "",
          "type": "address"
        }
      ],
      "stateMutability": "view",
      "type": "function"
    },
    {
      "inputs": [
        {
          "internalType": "uint256",
          "name": "_poolId",
          "type": "uint256"
        },
        {
          "internalType": "uint256",
          "name": "_amount",
          "type": "uint256"
        }
      ],
      "name": "withdraw",
      "outputs": [],
      "stateMutability": "nonpayable",
      "type": "function"
    }
  ],
  "transactionHash": "0x7a371b15ce50cfcde6be72002003be3463b97bfab64dc926fa48314fe6f94849",
  "args": [],
  "numDeployments": 4,
  "solcInputHash": "641449aa0dc7aab2b8d6ed9d86bc59be",
  "bytecode": "0x608060405234801561001057600080fd5b50613854806100206000396000f3fe608060405234801561001057600080fd5b50600436106102415760003560e01c8063715018a611610145578063cdcd2907116100bd578063d54465181161008c578063e6fd48bc11610071578063e6fd48bc14610548578063eced552614610551578063f2fde38b1461055d57600080fd5b8063d544651814610522578063e4a763151461053557600080fd5b8063cdcd2907146104d4578063cdfb6cf3146104e7578063d13f67bc146104fa578063d41dcbea1461050d57600080fd5b806393f1a40b11610114578063c44bef75116100f9578063c44bef7514610483578063c4d66de814610496578063c73d2bae146104a957600080fd5b806393f1a40b14610417578063a06ddcb31461046057600080fd5b8063715018a6146103db5780637b0472f0146103e35780638456cb59146103f65780638da5cb5b146103fe57600080fd5b80633f4ba83a116101d857806351eb05a6116101a75780635c975abb1161018c5780635c975abb146103ac5780635e4651f9146103c0578063630b5ba1146103d357600080fd5b806351eb05a6146103865780635bf560681461039957600080fd5b80633f4ba83a14610345578063441a3e701461034d5780634b34b687146103605780634f3e7ba61461037357600080fd5b806329baefff1161021457806329baefff146102d657806329fd2007146102df5780632a48235b146102ff5780632c678a3e1461032557600080fd5b806306fdde031461024657806307a96cbf1461029857806317fb77de146102ad57806318fccc76146102c3575b600080fd5b6102826040518060400160405280601581526020017f4465676973204c50204661726d696e6720506f6f6c000000000000000000000081525081565b60405161028f9190612b5b565b60405180910390f35b6102ab6102a6366004612b9c565b610570565b005b6102b660cb5481565b60405161028f9190612bc5565b6102ab6102d1366004612be4565b6105d2565b6102b660d45481565b60c9546102f2906001600160a01b031681565b60405161028f9190612c40565b61031261030d366004612c4e565b610815565b60405161028f9796959493929190612c78565b6102b6610333366004612b9c565b60ce6020526000908152604090205481565b6102ab61086e565b6102ab61035b366004612ce0565b6108a2565b6102ab61036e366004612d65565b610bf6565b60ca546102f2906001600160a01b031681565b6102ab610394366004612c4e565b610c5b565b6102b66103a7366004612ce0565b610f53565b60975460ff165b60405161028f9190612dfd565b6102b66103ce366004612ce0565b610f84565b6102ab610fa0565b6102ab610fe8565b6102ab6103f1366004612ce0565b61101c565b6102ab611356565b6033546001600160a01b031660405161028f9190612e0b565b610451610425366004612be4565b60d060209081526000928352604080842090915290825290208054600182015460029092015490919083565b60405161028f93929190612e19565b6103b361046e366004612c4e565b60cf6020526000908152604090205460ff1681565b6102ab610491366004612c4e565b611388565b6102ab6104a4366004612b9c565b611437565b6102b66104b7366004612be4565b60d160209081526000928352604080842090915290825290205481565b6102ab6104e2366004612e54565b61167e565b6102b66104f5366004612be4565b6118b8565b6102b6610508366004612be4565b6118e5565b610515611b98565b60405161028f9190612f94565b6102ab610530366004612fa5565b611c40565b6102ab610543366004612fc7565b611e20565b6102b660cc5481565b6102b664e8d4a5100081565b6102ab61056b366004612b9c565b612108565b6033546001600160a01b031633146105a35760405162461bcd60e51b815260040161059a9061301c565b60405180910390fd5b60ca805473ffffffffffffffffffffffffffffffffffffffff19166001600160a01b0392909216919091179055565b600260655414156105f55760405162461bcd60e51b815260040161059a9061305e565b600260655560975460ff161561061d5760405162461bcd60e51b815260040161059a906130a0565b600082815260cf602052604090205460ff161561063d5761063d82610c5b565b600060cd8381548110610652576106526130b0565b600091825260208083206040805160e081018252600790940290910180546001600160a01b03168452600181015484840152600280820154858401526003820154606086015260048201546080860152600582015460a0860190815260069092015460c086015288865260d084528286203380885290855283872080548b895260d1875285892092895291909552928620549151908401549496509294939192909164e8d4a5100091610704916130dc565b8660800151866001015461071891906130dc565b61072291906130fb565b61072c9190613129565b61073691906130fb565b610740919061313d565b600086815260d1602090815260408083203384529091528120559050806107795760405162461bcd60e51b815260040161059a90613186565b64e8d4a510008360a00151836002015461079391906130dc565b846080015184600101546107a791906130dc565b6107b191906130fb565b6107bb9190613129565b825560006107c98583612164565b90507fdec9257d126f56798a34ce7ca0ffedeaa9a024543946f79c3b5038035ba32a1e338688846040516108009493929190613196565b60405180910390a15050600160655550505050565b60cd818154811061082557600080fd5b600091825260209091206007909102018054600182015460028301546003840154600485015460058601546006909601546001600160a01b039095169650929491939092919087565b6033546001600160a01b031633146108985760405162461bcd60e51b815260040161059a9061301c565b6108a0612242565b565b600260655414156108c55760405162461bcd60e51b815260040161059a9061305e565b600260655560975460ff16156108ed5760405162461bcd60e51b815260040161059a906130a0565b6000811161090d5760405162461bcd60e51b815260040161059a90613206565b600060cd8381548110610922576109226130b0565b6000918252602080832086845260d082526040808520338652909252922060018101546007909202909201925083111561096e5760405162461bcd60e51b815260040161059a90613248565b600084815260cf602052604090205460ff161561098e5761098e84610c5b565b8054600085815260d1602090815260408083203384529091528120546005850154600285015492939264e8d4a51000916109c7916130dc565b866004015486600101546109db91906130dc565b6109e591906130fb565b6109ef9190613129565b6109f991906130fb565b610a03919061313d565b600086815260d160209081526040808320338085529252822082905591925090610a2d9083612164565b90507fdec9257d126f56798a34ce7ca0ffedeaa9a024543946f79c3b5038035ba32a1e33338884604051610a649493929190613196565b60405180910390a18354600090610a88906001906001600160a01b031633896122a8565b905080846001016000828254610a9e919061313d565b909155505060ca546001600160a01b031615610b6857600284015460ca546040516370a0823160e01b8152610b40916001600160a01b0316906370a0823190610aeb903390600401612e0b565b602060405180830381865afa158015610b08573d6000803e3d6000fd5b505050506040513d601f19601f82011682018060405250810190610b2c9190613263565b8660010154610b3b91906130dc565b6123eb565b6002860181905560068701548291610b57916130fb565b610b61919061313d565b6006870155505b64e8d4a5100085600501548560020154610b8291906130dc565b86600401548660010154610b9691906130dc565b610ba091906130fb565b610baa9190613129565b84556040517ff279e6a1f5e320cca91135676d9cb6e44ca8a08c0b88342bcdb1144f6511b56890610be09033908a908590613284565b60405180910390a1505060016065555050505050565b6033546001600160a01b03163314610c205760405162461bcd60e51b815260040161059a9061301c565b600085815260d260205260409020610c39908585612a9d565b50600085815260d360205260409020610c53908383612a9d565b505050505050565b600060cd8281548110610c7057610c706130b0565b9060005260206000209060070201905080600301544211610c8f575050565b80546040516370a0823160e01b81526000916001600160a01b0316906370a0823190610cbf903090600401612e0b565b602060405180830381865afa158015610cdc573d6000803e3d6000fd5b505050506040513d601f19601f82011682018060405250810190610d009190613263565b905080610d1257504260039091015550565b6000826003015442610d24919061313d565b90506000836001015482610d3891906130dc565b90506000846002015483610d4c91906130dc565b905083610d5e64e8d4a51000846130dc565b610d689190613129565b856004016000828254610d7b91906130fb565b90915550506006850154610d955760006005860155610dcc565b6006850154610da964e8d4a51000836130dc565b610db39190613129565b856005016000828254610dc691906130fb565b90915550505b60c9546001600160a01b031663b476739830610de884866130fb565b6040518363ffffffff1660e01b8152600401610e05929190613292565b600060405180830381600087803b158015610e1f57600080fd5b505af1158015610e33573d6000803e3d6000fd5b50504260038801555050600086815260d2602052604090205415610f0957600086815260d26020526040812060d45481548110610e7257610e726130b0565b600091825260208083209091015489835260d2909152604090912054909150610e9d9060019061313d565b60d454108015610ee35750600087815260d26020526040902060d454610ec49060016130fb565b81548110610ed457610ed46130b0565b90600052602060002001548510155b15610ef657610ef18761245b565b610f07565b80851015610f0757610f078761245b565b505b600485015460058601546040517f17b8644f386d1c7c7138ef98b3c8035622bbe94d7be9b26f71d2654a547c294392610f43928a92612e19565b60405180910390a1505050505050565b60d36020528160005260406000208181548110610f6f57600080fd5b90600052602060002001600091509150505481565b60d26020528160005260406000208181548110610f6f57600080fd5b60cd5460005b81811015610fe457600081815260cf602052604090205460ff16610fc957610fd2565b610fd281610c5b565b80610fdc816132ad565b915050610fa6565b5050565b6033546001600160a01b031633146110125760405162461bcd60e51b815260040161059a9061301c565b6108a06000612660565b6002606554141561103f5760405162461bcd60e51b815260040161059a9061305e565b600260655560975460ff16156110675760405162461bcd60e51b815260040161059a906130a0565b600082815260cf6020526040902054829060ff166110975760405162461bcd60e51b815260040161059a906132fa565b600082116110b75760405162461bcd60e51b815260040161059a9061333c565b600060cd84815481106110cc576110cc6130b0565b6000918252602080832087845260d0825260408085203386529092529220600790910290910191506110fd85610c5b565b6001810154156111e8578054600086815260d1602090815260408083203384529091528120546005850154600285015492939264e8d4a5100091611140916130dc565b8660040154866001015461115491906130dc565b61115e91906130fb565b6111689190613129565b61117291906130fb565b61117c919061313d565b600087815260d1602090815260408083203380855292528220829055919250906111a69083612164565b90507fdec9257d126f56798a34ce7ca0ffedeaa9a024543946f79c3b5038035ba32a1e333389846040516111dd9493929190613196565b60405180910390a150505b81546000906112039082906001600160a01b031633886122a8565b90508082600101600082825461121991906130fb565b909155505060ca546001600160a01b0316156112de57600282015460ca546040516370a0823160e01b81526112b6916001600160a01b0316906370a0823190611266903390600401612e0b565b602060405180830381865afa158015611283573d6000803e3d6000fd5b505050506040513d601f19601f820116820180604052508101906112a79190613263565b8460010154610b3b91906130dc565b60028401819055600685015482916112cd916130fb565b6112d7919061313d565b6006850155505b64e8d4a51000836005015483600201546112f891906130dc565b8460040154846001015461130c91906130dc565b61131691906130fb565b6113209190613129565b82556040517f5af417134f72a9d41143ace85b0a26dce6f550f894f2cbc1eeee8810603d91b69061080090339089908590613284565b6033546001600160a01b031633146113805760405162461bcd60e51b815260040161059a9061301c565b6108a06126bf565b6033546001600160a01b031633146113b25760405162461bcd60e51b815260040161059a9061301c565b60975460ff16156113d55760405162461bcd60e51b815260040161059a906130a0565b60cb546001146113f75760405162461bcd60e51b815260040161059a906133a6565b60cc8190556040517faf8fc8a4c9a55a9a29c3e99cd1797d43062c696f192896c79cbebd7da3286d829061142c908390612bc5565b60405180910390a150565b600054610100900460ff166114525760005460ff1615611456565b303b155b6114725760405162461bcd60e51b815260040161059a9061340e565b600054610100900460ff16158015611494576000805461ffff19166101011790555b6001600160a01b0382166114ba5760405162461bcd60e51b815260040161059a90613450565b6114c2612717565b6114ca612746565b6114d2612774565b60c980546001600160a01b0380851673ffffffffffffffffffffffffffffffffffffffff1992831617909255600160cb8190556040805160e081018252600080825260208201818152928201818152606083018281526080840183815260a0850184815260c0860185815260cd8054998a018155909552945160079097027f83978b4c69c48dd978ab43fe30f077615294f938fb7f936d9eb340e51ea7db2e8101805498909a16979098169690961790975592517f83978b4c69c48dd978ab43fe30f077615294f938fb7f936d9eb340e51ea7db2f86015591517f83978b4c69c48dd978ab43fe30f077615294f938fb7f936d9eb340e51ea7db3085015593517f83978b4c69c48dd978ab43fe30f077615294f938fb7f936d9eb340e51ea7db3184015590517f83978b4c69c48dd978ab43fe30f077615294f938fb7f936d9eb340e51ea7db3283015591517f83978b4c69c48dd978ab43fe30f077615294f938fb7f936d9eb340e51ea7db3382015590517f83978b4c69c48dd978ab43fe30f077615294f938fb7f936d9eb340e51ea7db34909101558015610fe4576000805461ff00191690555050565b6033546001600160a01b031633146116a85760405162461bcd60e51b815260040161059a9061301c565b60975460ff16156116cb5760405162461bcd60e51b815260040161059a906130a0565b60cd84815481106116de576116de6130b0565b906000526020600020906007020160030154600014156117105760405162461bcd60e51b815260040161059a90613492565b811561173657600083116117365760405162461bcd60e51b815260040161059a906134d4565b801561174957611744610fa0565b611752565b61175284610c5b565b600084815260cf602052604090205460ff161580156117715750600083115b156117ca57600084815260cf602052604090819020805460ff19166001179055517f6140f1d5adcbca6c6b24c3b5e695335cd1a2071c7e03881172dc9eb0e488225c906117c190869042906134e4565b60405180910390a15b8261182457600084815260cf602052604090819020805460ff19169055517f4654f9b7bb3ba4d66e3a4e972e39db189ac7b4fdf5f2a95d57a4eb4d91a16d459061181790869042906134e4565b60405180910390a16118b2565b8260cd8581548110611838576118386130b0565b9060005260206000209060070201600101819055508160cd8581548110611861576118616130b0565b9060005260206000209060070201600201819055507f12558fa101886c4fd9ad5e0b9932a6ffd3653b63380b1da3f024ddaf506c22eb8484846040516118a993929190612e19565b60405180910390a15b50505050565b600082815260d0602090815260408083206001600160a01b03851684529091529020600101545b92915050565b60008060cd84815481106118fb576118fb6130b0565b60009182526020918290206040805160e081018252600790930290910180546001600160a01b0316835260018101549383019390935260028301549082015260038201546060820181905260048301546080830152600583015460a083015260069092015460c0820152915015806119765750806060015142105b80611982575060cc5442105b156119915760009150506118df565b600084815260d0602090815260408083206001600160a01b0380881685529083528184208251606081018452815481526001820154948101949094526002015483830152845191516370a0823160e01b81529293929116906370a08231906119fd903090600401612e0b565b602060405180830381865afa158015611a1a573d6000803e3d6000fd5b505050506040513d601f19601f82011682018060405250810190611a3e9190613263565b608084015160a08501519192509082611a5f576000955050505050506118df565b600088815260cf602052604090205460ff1615611b13576000856060015142611a88919061313d565b90506000818760200151611a9c91906130dc565b905084611aae64e8d4a51000836130dc565b611ab89190613129565b611ac290856130fb565b60c088015190945015611b10576000828860400151611ae191906130dc565b60c0890151909150611af864e8d4a51000836130dc565b611b029190613129565b611b0c90856130fb565b9350505b50505b8351600089815260d1602090815260408083206001600160a01b038c168452909152808220549087015191929164e8d4a5100090611b529086906130dc565b868960200151611b6291906130dc565b611b6c91906130fb565b611b769190613129565b611b8091906130fb565b611b8a919061313d565b96506118df95505050505050565b606060cd805480602002602001604051908101604052809291908181526020016000905b82821015611c375760008481526020908190206040805160e0810182526007860290920180546001600160a01b03168352600180820154848601526002820154928401929092526003810154606084015260048101546080840152600581015460a08401526006015460c08301529083529092019101611bbc565b50505050905090565b60ca546001600160a01b03163314611c6a5760405162461bcd60e51b815260040161059a90613524565b60cd5460005b818110156118b257600081815260cf602052604090205460ff16611c9357611e10565b600081815260d0602090815260408083206001600160a01b038816845290915290206001810154611cc45750611e10565b600060cd8381548110611cd957611cd96130b0565b90600052602060002090600702019050611cf283610c5b565b6000826000015464e8d4a5100083600501548560020154611d1391906130dc565b84600401548660010154611d2791906130dc565b611d3191906130fb565b611d3b9190613129565b611d45919061313d565b600085815260d1602090815260408083206001600160a01b038c168452909152812080549293508392909190611d7c9084906130fb565b909155505060028301546001840154600090611d9c90610b3b908a6130dc565b60028601819055600585015490915064e8d4a5100090611dbc90836130dc565b85600401548760010154611dd091906130dc565b611dda91906130fb565b611de49190613129565b855560068401548290611df89083906130fb565b611e02919061313d565b846006018190555050505050505b611e19816132ad565b9050611c70565b836001600160a01b038116611e475760405162461bcd60e51b815260040161059a90613450565b6033546001600160a01b03163314611e715760405162461bcd60e51b815260040161059a9061301c565b60975460ff1615611e945760405162461bcd60e51b815260040161059a906130a0565b611e9d856127a7565b15611eba5760405162461bcd60e51b815260040161059a90613566565b8215611ee05760008411611ee05760405162461bcd60e51b815260040161059a906134d4565b8115611eee57611eee610fa0565b600060cc544211611f015760cc54611f03565b425b6040805160e0810182526001600160a01b038981168252602082018981529282018881526060830185815260006080850181815260a0860182815260c0870183815260cd8054600181018255945296517f83978b4c69c48dd978ab43fe30f077615294f938fb7f936d9eb340e51ea7db2e6007909402938401805473ffffffffffffffffffffffffffffffffffffffff1916919097161790955595517f83978b4c69c48dd978ab43fe30f077615294f938fb7f936d9eb340e51ea7db2f82015591517f83978b4c69c48dd978ab43fe30f077615294f938fb7f936d9eb340e51ea7db30830155517f83978b4c69c48dd978ab43fe30f077615294f938fb7f936d9eb340e51ea7db3182015592517f83978b4c69c48dd978ab43fe30f077615294f938fb7f936d9eb340e51ea7db32840155517f83978b4c69c48dd978ab43fe30f077615294f938fb7f936d9eb340e51ea7db33830155517f83978b4c69c48dd978ab43fe30f077615294f938fb7f936d9eb340e51ea7db3490910155905084156120a45760cb54600090815260cf60205260409020805460ff191660011790555b60cb80549060006120b4836132ad565b909155506001600160a01b038716600090815260ce60205260409081902091909155517f5f9d2cd19aa3f32e9e8cc45267a493f9956c1b955a220136161ff8ad595bc78290610f4390889088908890613284565b6033546001600160a01b031633146121325760405162461bcd60e51b815260040161059a9061301c565b6001600160a01b0381166121585760405162461bcd60e51b815260040161059a906135ce565b61216181612660565b50565b60c9546040516370a0823160e01b815260009182916001600160a01b03909116906370a0823190612199903090600401612e0b565b602060405180830381865afa1580156121b6573d6000803e3d6000fd5b505050506040513d601f19601f820116820180604052508101906121da9190613263565b9050600081116121fc5760405162461bcd60e51b815260040161059a90613610565b808311156122225760c95461221b906001600160a01b031685836127d6565b90506118df565b60c954612239906001600160a01b031685856127d6565b829150506118df565b60975460ff166122645760405162461bcd60e51b815260040161059a90613652565b6097805460ff191690557f5db9ee0a495bf2e6ff9c91a7834c1ba4fdd244a5e8aa4e537bd38aeae4b073aa335b60405161229e9190612e0b565b60405180910390a1565b600080846001600160a01b03166370a08231306040518263ffffffff1660e01b81526004016122d79190612e0b565b602060405180830381865afa1580156122f4573d6000803e3d6000fd5b505050506040513d601f19601f820116820180604052508101906123189190613263565b90508515612339576123346001600160a01b03861685856127d6565b61234e565b61234e6001600160a01b03861685308661285e565b6040516370a0823160e01b81526000906001600160a01b038716906370a082319061237d903090600401612e0b565b602060405180830381865afa15801561239a573d6000803e3d6000fd5b505050506040513d601f19601f820116820180604052508101906123be9190613263565b9050866123d4576123cf828261313d565b6123de565b6123de818361313d565b925050505b949350505050565b6000600382111561244c5750806000612405600283613129565b6124109060016130fb565b90505b818110156124465790508060028161242b8186613129565b61243591906130fb565b61243f9190613129565b9050612413565b50919050565b8115612456575060015b919050565b600060cd8281548110612470576124706130b0565b60009182526020909120600790910201546040516370a0823160e01b81526001600160a01b03909116906370a08231906124ae903090600401612e0b565b602060405180830381865afa1580156124cb573d6000803e3d6000fd5b505050506040513d601f19601f820116820180604052508101906124ef9190613263565b600083815260d260205260408120549192509081906125109060019061313d565b90505b600084815260d260205260409020805482908110612533576125336130b0565b906000526020600020015483106126215761259e6040518060400160405280600a8152602001693834b2b1b2bbb4b9b29d60b11b81525060d36000878152602001908152602001600020838154811061258e5761258e6130b0565b906000526020600020015461287f565b6125e86040518060400160405280600a8152602001693834b2b1b2bbb4b9b29d60b11b81525060d26000878152602001908152602001600020838154811061258e5761258e6130b0565b600084815260d360205260409020805482908110612608576126086130b0565b906000526020600020015491508060d481905550612631565b61262a81613662565b9050612513565b508060cd8481548110612646576126466130b0565b906000526020600020906007020160010181905550505050565b603380546001600160a01b0383811673ffffffffffffffffffffffffffffffffffffffff19831681179093556040519116919082907f8be0079c531659141344cd1fd0a4f28419497f9722a3daafe3b4186f6b6457e090600090a35050565b60975460ff16156126e25760405162461bcd60e51b815260040161059a906130a0565b6097805460ff191660011790557f62e78cea01bee320cd4e420270b5ea74000d11b0c9f74754ebdbfc544b05a2586122913390565b600054610100900460ff1661273e5760405162461bcd60e51b815260040161059a906136d1565b6108a06128f2565b600054610100900460ff1661276d5760405162461bcd60e51b815260040161059a906136d1565b6001606555565b600054610100900460ff1661279b5760405162461bcd60e51b815260040161059a906136d1565b6097805460ff19169055565b6001600160a01b038116600090815260ce6020526040812054806127cc5760006127cf565b60015b9392505050565b6128598363a9059cbb60e01b84846040516024016127f5929190613292565b60408051601f198184030181529190526020810180517bffffffffffffffffffffffffffffffffffffffffffffffffffffffff167fffffffff0000000000000000000000000000000000000000000000000000000090931692909217909152612922565b505050565b6118b2846323b872dd60e01b8585856040516024016127f5939291906136e1565b610fe482826040516024016128959291906136fc565b60408051601f198184030181529190526020810180517bffffffffffffffffffffffffffffffffffffffffffffffffffffffff167f9710a9d0000000000000000000000000000000000000000000000000000000001790526129b1565b600054610100900460ff166129195760405162461bcd60e51b815260040161059a906136d1565b6108a033612660565b6000612977826040518060400160405280602081526020017f5361666545524332303a206c6f772d6c6576656c2063616c6c206661696c6564815250856001600160a01b03166129d29092919063ffffffff16565b80519091501561285957808060200190518101906129959190613727565b6128595760405162461bcd60e51b815260040161059a906137a0565b80516a636f6e736f6c652e6c6f67602083016000808483855afa5050505050565b60606123e3848460008585843b6129fb5760405162461bcd60e51b815260040161059a906137e2565b600080866001600160a01b03168587604051612a179190613814565b60006040518083038185875af1925050503d8060008114612a54576040519150601f19603f3d011682016040523d82523d6000602084013e612a59565b606091505b50915091506123de82828660608315612a735750816127cf565b825115612a835782518084602001fd5b8160405162461bcd60e51b815260040161059a9190612b5b565b828054828255906000526020600020908101928215612ad8579160200282015b82811115612ad8578235825591602001919060010190612abd565b50612ae4929150612ae8565b5090565b5b80821115612ae45760008155600101612ae9565b60005b83811015612b18578181015183820152602001612b00565b838111156118b25750506000910152565b6000612b33825190565b808452602084019350612b4a818560208601612afd565b601f01601f19169290920192915050565b602080825281016127cf8184612b29565b60006001600160a01b0382166118df565b612b8681612b6c565b811461216157600080fd5b80356118df81612b7d565b600060208284031215612bb157612bb1600080fd5b60006123e38484612b91565b805b82525050565b602081016118df8284612bbd565b80612b86565b80356118df81612bd3565b60008060408385031215612bfa57612bfa600080fd5b6000612c068585612bd9565b9250506020612c1785828601612b91565b9150509250929050565b60006118df82612b6c565b60006118df82612c21565b612bbf81612c2c565b602081016118df8284612c37565b600060208284031215612c6357612c63600080fd5b60006123e38484612bd9565b612bbf81612b6c565b60e08101612c86828a612c6f565b612c936020830189612bbd565b612ca06040830188612bbd565b612cad6060830187612bbd565b612cba6080830186612bbd565b612cc760a0830185612bbd565b612cd460c0830184612bbd565b98975050505050505050565b60008060408385031215612cf657612cf6600080fd5b6000612d028585612bd9565b9250506020612c1785828601612bd9565b60008083601f840112612d2857612d28600080fd5b50813567ffffffffffffffff811115612d4357612d43600080fd5b602083019150836020820283011115612d5e57612d5e600080fd5b9250929050565b600080600080600060608688031215612d8057612d80600080fd5b6000612d8c8888612bd9565b955050602086013567ffffffffffffffff811115612dac57612dac600080fd5b612db888828901612d13565b9450945050604086013567ffffffffffffffff811115612dda57612dda600080fd5b612de688828901612d13565b92509250509295509295909350565b801515612bbf565b602081016118df8284612df5565b602081016118df8284612c6f565b60608101612e278286612bbd565b612e346020830185612bbd565b6123e36040830184612bbd565b801515612b86565b80356118df81612e41565b60008060008060808587031215612e6d57612e6d600080fd5b6000612e798787612bd9565b9450506020612e8a87828801612bd9565b9350506040612e9b87828801612bd9565b9250506060612eac87828801612e49565b91505092959194509250565b8051612ec48382612c6f565b506020810151612ed76020840182612bbd565b506040810151612eea6040840182612bbd565b506060810151612efd6060840182612bbd565b506080810151612f106080840182612bbd565b5060a0810151612f2360a0840182612bbd565b5060c081015161285960c0840182612bbd565b612f408282612eb8565b5060e00190565b60200190565b6000612f57825190565b808452602093840193830160005b82811015612f8a578151612f798782612f36565b965050602082019150600101612f65565b5093949350505050565b602080825281016127cf8184612f4d565b60008060408385031215612fbb57612fbb600080fd5b6000612d028585612b91565b60008060008060808587031215612fe057612fe0600080fd5b6000612e798787612b91565b60208082527f4f776e61626c653a2063616c6c6572206973206e6f7420746865206f776e65729101908152612f47565b602080825281016118df81612fec565b601f8152602081017f5265656e7472616e637947756172643a207265656e7472616e742063616c6c0081529050612f47565b602080825281016118df8161302c565b60108152602081017f5061757361626c653a207061757365640000000000000000000000000000000081529050612f47565b602080825281016118df8161306e565b634e487b7160e01b600052603260045260246000fd5b634e487b7160e01b600052601160045260246000fd5b60008160001904831182151516156130f6576130f66130c6565b500290565b6000821982111561310e5761310e6130c6565b500190565b634e487b7160e01b600052601260045260246000fd5b60008261313857613138613113565b500490565b60008282101561314f5761314f6130c6565b500390565b60118152602081017f4e6f2070656e64696e672072657761726400000000000000000000000000000081529050612f47565b602080825281016118df81613154565b608081016131a48287612c6f565b6131b16020830186612c6f565b6131be6040830185612bbd565b6131cb6060830184612bbd565b95945050505050565b600b8152602081017f5a65726f20616d6f756e7400000000000000000000000000000000000000000081529050612f47565b602080825281016118df816131d4565b60198152602081017f4e6f7420656e6f756768207374616b696e6742616c616e63650000000000000081529050612f47565b602080825281016118df81613216565b80516118df81612bd3565b60006020828403121561327857613278600080fd5b60006123e38484613258565b60608101612e278286612c6f565b604081016132a08285612c6f565b6127cf6020830184612bbd565b60006000198214156132c1576132c16130c6565b5060010190565b60138152602081017f506f6f6c206973206e6f74206661726d696e670000000000000000000000000081529050612f47565b602080825281016118df816132c8565b60128152602081017f43616e206e6f74207374616b65207a65726f000000000000000000000000000081529050612f47565b602080825281016118df8161330a565b602f8152602081017f43616e206e6f74207365742073746172742074696d657374616d70206166746581527f7220616464696e67206120706f6f6c0000000000000000000000000000000000602082015290505b60400190565b602080825281016118df8161334c565b602e8152602081017f496e697469616c697a61626c653a20636f6e747261637420697320616c72656181527f647920696e697469616c697a6564000000000000000000000000000000000000602082015290506133a0565b602080825281016118df816133b6565b600c8152602081017f5a65726f2061646472657373000000000000000000000000000000000000000081529050612f47565b602080825281016118df8161341e565b600f8152602081017f506f6f6c206e6f7420657869737473000000000000000000000000000000000081529050612f47565b602080825281016118df81613460565b600a8152602081017f4f6e6c7920626f6e75730000000000000000000000000000000000000000000081529050612f47565b602080825281016118df816134a2565b604081016132a08285612bbd565b60138152602081017f4f6e6c7920766544454720636f6e74726163740000000000000000000000000081529050612f47565b602080825281016118df816134f2565b60138152602081017f416c726561647920696e2074686520706f6f6c0000000000000000000000000081529050612f47565b602080825281016118df81613534565b60268152602081017f4f776e61626c653a206e6577206f776e657220697320746865207a65726f206181527f6464726573730000000000000000000000000000000000000000000000000000602082015290506133a0565b602080825281016118df81613576565b601a8152602081017f4e6f20446567697320746f6b656e20696e2074686520706f6f6c00000000000081529050612f47565b602080825281016118df816135de565b60148152602081017f5061757361626c653a206e6f742070617573656400000000000000000000000081529050612f47565b602080825281016118df81613620565b600081613671576136716130c6565b506000190190565b602b8152602081017f496e697469616c697a61626c653a20636f6e7472616374206973206e6f74206981527f6e697469616c697a696e67000000000000000000000000000000000000000000602082015290506133a0565b602080825281016118df81613679565b606081016136ef8286612c6f565b612e346020830185612c6f565b6040808252810161370d8185612b29565b90506127cf6020830184612bbd565b80516118df81612e41565b60006020828403121561373c5761373c600080fd5b60006123e3848461371c565b602a8152602081017f5361666545524332303a204552433230206f7065726174696f6e20646964206e81527f6f74207375636365656400000000000000000000000000000000000000000000602082015290506133a0565b602080825281016118df81613748565b601d8152602081017f416464726573733a2063616c6c20746f206e6f6e2d636f6e747261637400000081529050612f47565b602080825281016118df816137b0565b60006137fc825190565b61380a818560208601612afd565b9290920192915050565b6118df81836137f256fea26469706673582212201ffac588482b8ae25b41cc58bbf533d57cf7d7284729e1662425e6fdf41c488364736f6c634300080a0033",
  "devdoc": {
    "details": "The pool id starts from 1 rather than 0         The degis reward is calculated by timestamp rather than block number         VeDEG will boost the farming speed by having a extra reward type         The extra reward is shared by those staking lptokens with veDEG balances         Every time the veDEG balance change, the reward will be updated",
    "kind": "dev",
    "methods": {
      "add(address,uint256,uint256,bool)": {
        "details": "Can only be called by the owner      The reward speed can be 0 and set later by setDegisReward function",
        "params": {
          "_basicDegisPerSecond": "Basic reward speed(per second) for this new pool",
          "_bonusDegisPerSecond": "Bonus reward speed(per second) for this new pool",
          "_lpToken": "LP token address",
          "_withUpdate": "Whether update all pools' status"
        }
      },
      "getPoolList()": {
        "returns": {
          "_0": "pooList Total pool list"
        }
      },
      "getUserBalance(uint256,address)": {
        "params": {
          "_poolId": "Id of the pool",
          "_user": "User address"
        },
        "returns": {
          "_0": "balance User's balance (lpToken)"
        }
      },
      "harvest(uint256,address)": {
        "params": {
          "_poolId": "Id of the farming pool",
          "_to": "Receiver of degis rewards"
        }
      },
      "massUpdatePools()": {
        "details": "Can be called by anyone      Only update those active pools"
      },
      "owner()": {
        "details": "Returns the address of the current owner."
      },
      "paused()": {
        "details": "Returns true if the contract is paused, and false otherwise."
      },
      "pendingDegis(uint256,address)": {
        "params": {
          "_poolId": "PoolId of this farming pool",
          "_user": "User address"
        },
        "returns": {
          "_0": "pendingDegisAmount Amount of pending degis"
        }
      },
      "renounceOwnership()": {
        "details": "Leaves the contract without owner. It will not be possible to call `onlyOwner` functions anymore. Can only be called by the current owner. NOTE: Renouncing ownership will leave the contract without an owner, thereby removing any functionality that is only available to the owner."
      },
      "setDegisReward(uint256,uint256,uint256,bool)": {
        "params": {
          "_basicDegisPerSecond": "New basic reward amount per second",
          "_bonusDegisPerSecond": "New bonus reward amount per second",
          "_poolId": "Id of the farming pool",
          "_withUpdate": "Whether update all pools"
        }
      },
      "setStartTimestamp(uint256)": {
        "params": {
          "_startTimestamp": "New start block timestamp"
        }
      },
      "stake(uint256,uint256)": {
        "details": "Can only stake to the pools that are still farming",
        "params": {
          "_amount": "Staking amount",
          "_poolId": "Id of the farming pool"
        }
      },
      "transferOwnership(address)": {
        "details": "Transfers ownership of the contract to a new account (`newOwner`). Can only be called by the current owner."
      },
      "updateBonus(address,uint256)": {
        "details": "When veDEG has balance change      Only called by veDEG contract",
        "params": {
          "_newVeDEGBalance": "New veDEG balance",
          "_user": "User address"
        }
      },
      "updatePool(uint256)": {
        "params": {
          "_poolId": "Id of the farming pool"
        }
      },
      "withdraw(uint256,uint256)": {
        "params": {
          "_amount": "Amount of lp tokens to withdraw",
          "_poolId": "Id of the farming pool"
        }
      }
    },
    "title": "Farming Pool",
    "version": 1
  },
  "userdoc": {
    "kind": "user",
    "methods": {
      "add(address,uint256,uint256,bool)": {
        "notice": "Add a new lp into the pool"
      },
      "getPoolList()": {
        "notice": "Get the total pool list"
      },
      "getUserBalance(uint256,address)": {
        "notice": "Get a user's balance"
      },
      "harvest(uint256,address)": {
        "notice": "Harvest the degis reward and can be sent to another address"
      },
      "massUpdatePools()": {
        "notice": "Update all farming pools (except for those stopped ones)"
      },
      "pendingDegis(uint256,address)": {
        "notice": "Check the amount of pending degis reward"
      },
      "setDegisReward(uint256,uint256,uint256,bool)": {
        "notice": "Update the degisPerSecond for a specific pool (set to 0 to stop farming)"
      },
      "setStartTimestamp(uint256)": {
        "notice": "Set the start block timestamp"
      },
      "stake(uint256,uint256)": {
        "notice": "Stake LP token into the farming pool"
      },
      "updateBonus(address,uint256)": {
        "notice": "Update a user's bonus"
      },
      "updatePool(uint256)": {
        "notice": "Update the pool's reward status"
      },
      "withdraw(uint256,uint256)": {
        "notice": "Withdraw lptoken from the pool"
      }
    },
    "notice": "This contract is for LPToken mining on Degis",
    "version": 1
  },
  "storageLayout": {
    "storage": [
      {
        "astId": 2523,
        "contract": "contracts/farming/FarmingPoolUpgradeable.sol:FarmingPoolUpgradeable",
        "label": "_initialized",
        "offset": 0,
        "slot": "0",
        "type": "t_bool"
      },
      {
        "astId": 2526,
        "contract": "contracts/farming/FarmingPoolUpgradeable.sol:FarmingPoolUpgradeable",
        "label": "_initializing",
        "offset": 1,
        "slot": "0",
        "type": "t_bool"
      },
      {
        "astId": 3044,
        "contract": "contracts/farming/FarmingPoolUpgradeable.sol:FarmingPoolUpgradeable",
        "label": "__gap",
        "offset": 0,
        "slot": "1",
        "type": "t_array(t_uint256)50_storage"
      },
      {
        "astId": 2403,
        "contract": "contracts/farming/FarmingPoolUpgradeable.sol:FarmingPoolUpgradeable",
        "label": "_owner",
        "offset": 0,
        "slot": "51",
        "type": "t_address"
      },
      {
        "astId": 2515,
        "contract": "contracts/farming/FarmingPoolUpgradeable.sol:FarmingPoolUpgradeable",
        "label": "__gap",
        "offset": 0,
        "slot": "52",
        "type": "t_array(t_uint256)49_storage"
      },
      {
        "astId": 2715,
        "contract": "contracts/farming/FarmingPoolUpgradeable.sol:FarmingPoolUpgradeable",
        "label": "_status",
        "offset": 0,
        "slot": "101",
        "type": "t_uint256"
      },
      {
        "astId": 2759,
        "contract": "contracts/farming/FarmingPoolUpgradeable.sol:FarmingPoolUpgradeable",
        "label": "__gap",
        "offset": 0,
        "slot": "102",
        "type": "t_array(t_uint256)49_storage"
      },
      {
        "astId": 2611,
        "contract": "contracts/farming/FarmingPoolUpgradeable.sol:FarmingPoolUpgradeable",
        "label": "_paused",
        "offset": 0,
        "slot": "151",
        "type": "t_bool"
      },
      {
        "astId": 2700,
        "contract": "contracts/farming/FarmingPoolUpgradeable.sol:FarmingPoolUpgradeable",
        "label": "__gap",
        "offset": 0,
        "slot": "152",
        "type": "t_array(t_uint256)49_storage"
      },
      {
        "astId": 11282,
        "contract": "contracts/farming/FarmingPoolUpgradeable.sol:FarmingPoolUpgradeable",
        "label": "degis",
        "offset": 0,
        "slot": "201",
        "type": "t_contract(IDegisToken)30162"
      },
      {
        "astId": 11285,
        "contract": "contracts/farming/FarmingPoolUpgradeable.sol:FarmingPoolUpgradeable",
        "label": "veDEG",
        "offset": 0,
        "slot": "202",
        "type": "t_contract(IVeDEG)15908"
      },
      {
        "astId": 11290,
        "contract": "contracts/farming/FarmingPoolUpgradeable.sol:FarmingPoolUpgradeable",
        "label": "_nextPoolId",
        "offset": 0,
        "slot": "203",
        "type": "t_uint256"
      },
      {
        "astId": 11292,
        "contract": "contracts/farming/FarmingPoolUpgradeable.sol:FarmingPoolUpgradeable",
        "label": "startTimestamp",
        "offset": 0,
        "slot": "204",
        "type": "t_uint256"
      },
      {
        "astId": 11311,
        "contract": "contracts/farming/FarmingPoolUpgradeable.sol:FarmingPoolUpgradeable",
        "label": "poolList",
        "offset": 0,
        "slot": "205",
        "type": "t_array(t_struct(PoolInfo)11307_storage)dyn_storage"
      },
      {
        "astId": 11315,
        "contract": "contracts/farming/FarmingPoolUpgradeable.sol:FarmingPoolUpgradeable",
        "label": "poolMapping",
        "offset": 0,
        "slot": "206",
        "type": "t_mapping(t_address,t_uint256)"
      },
      {
        "astId": 11319,
        "contract": "contracts/farming/FarmingPoolUpgradeable.sol:FarmingPoolUpgradeable",
        "label": "isFarming",
        "offset": 0,
        "slot": "207",
        "type": "t_mapping(t_uint256,t_bool)"
      },
      {
        "astId": 11333,
        "contract": "contracts/farming/FarmingPoolUpgradeable.sol:FarmingPoolUpgradeable",
        "label": "userInfo",
        "offset": 0,
        "slot": "208",
        "type": "t_mapping(t_uint256,t_mapping(t_address,t_struct(UserInfo)11326_storage))"
      },
      {
        "astId": 11339,
        "contract": "contracts/farming/FarmingPoolUpgradeable.sol:FarmingPoolUpgradeable",
        "label": "extraClaimable",
        "offset": 0,
        "slot": "209",
        "type": "t_mapping(t_uint256,t_mapping(t_address,t_uint256))"
      },
      {
        "astId": 11344,
        "contract": "contracts/farming/FarmingPoolUpgradeable.sol:FarmingPoolUpgradeable",
        "label": "thresholdBasic",
        "offset": 0,
        "slot": "210",
        "type": "t_mapping(t_uint256,t_array(t_uint256)dyn_storage)"
      },
      {
        "astId": 11349,
        "contract": "contracts/farming/FarmingPoolUpgradeable.sol:FarmingPoolUpgradeable",
        "label": "piecewiseBasic",
        "offset": 0,
        "slot": "211",
        "type": "t_mapping(t_uint256,t_array(t_uint256)dyn_storage)"
      },
      {
        "astId": 11351,
        "contract": "contracts/farming/FarmingPoolUpgradeable.sol:FarmingPoolUpgradeable",
        "label": "currentRewardLevel",
        "offset": 0,
        "slot": "212",
        "type": "t_uint256"
      }
    ],
    "types": {
      "t_address": {
        "encoding": "inplace",
        "label": "address",
        "numberOfBytes": "20"
      },
      "t_array(t_struct(PoolInfo)11307_storage)dyn_storage": {
        "base": "t_struct(PoolInfo)11307_storage",
        "encoding": "dynamic_array",
        "label": "struct FarmingPoolUpgradeable.PoolInfo[]",
        "numberOfBytes": "32"
      },
      "t_array(t_uint256)49_storage": {
        "base": "t_uint256",
        "encoding": "inplace",
        "label": "uint256[49]",
        "numberOfBytes": "1568"
      },
      "t_array(t_uint256)50_storage": {
        "base": "t_uint256",
        "encoding": "inplace",
        "label": "uint256[50]",
        "numberOfBytes": "1600"
      },
      "t_array(t_uint256)dyn_storage": {
        "base": "t_uint256",
        "encoding": "dynamic_array",
        "label": "uint256[]",
        "numberOfBytes": "32"
      },
      "t_bool": {
        "encoding": "inplace",
        "label": "bool",
        "numberOfBytes": "1"
      },
      "t_contract(IDegisToken)30162": {
        "encoding": "inplace",
        "label": "contract IDegisToken",
        "numberOfBytes": "20"
      },
      "t_contract(IVeDEG)15908": {
        "encoding": "inplace",
        "label": "contract IVeDEG",
        "numberOfBytes": "20"
      },
      "t_mapping(t_address,t_struct(UserInfo)11326_storage)": {
        "encoding": "mapping",
        "key": "t_address",
        "label": "mapping(address => struct FarmingPoolUpgradeable.UserInfo)",
        "numberOfBytes": "32",
        "value": "t_struct(UserInfo)11326_storage"
      },
      "t_mapping(t_address,t_uint256)": {
        "encoding": "mapping",
        "key": "t_address",
        "label": "mapping(address => uint256)",
        "numberOfBytes": "32",
        "value": "t_uint256"
      },
      "t_mapping(t_uint256,t_array(t_uint256)dyn_storage)": {
        "encoding": "mapping",
        "key": "t_uint256",
        "label": "mapping(uint256 => uint256[])",
        "numberOfBytes": "32",
        "value": "t_array(t_uint256)dyn_storage"
      },
      "t_mapping(t_uint256,t_bool)": {
        "encoding": "mapping",
        "key": "t_uint256",
        "label": "mapping(uint256 => bool)",
        "numberOfBytes": "32",
        "value": "t_bool"
      },
      "t_mapping(t_uint256,t_mapping(t_address,t_struct(UserInfo)11326_storage))": {
        "encoding": "mapping",
        "key": "t_uint256",
        "label": "mapping(uint256 => mapping(address => struct FarmingPoolUpgradeable.UserInfo))",
        "numberOfBytes": "32",
        "value": "t_mapping(t_address,t_struct(UserInfo)11326_storage)"
      },
      "t_mapping(t_uint256,t_mapping(t_address,t_uint256))": {
        "encoding": "mapping",
        "key": "t_uint256",
        "label": "mapping(uint256 => mapping(address => uint256))",
        "numberOfBytes": "32",
        "value": "t_mapping(t_address,t_uint256)"
      },
      "t_struct(PoolInfo)11307_storage": {
        "encoding": "inplace",
        "label": "struct FarmingPoolUpgradeable.PoolInfo",
        "members": [
          {
            "astId": 11294,
            "contract": "contracts/farming/FarmingPoolUpgradeable.sol:FarmingPoolUpgradeable",
            "label": "lpToken",
            "offset": 0,
            "slot": "0",
            "type": "t_address"
          },
          {
            "astId": 11296,
            "contract": "contracts/farming/FarmingPoolUpgradeable.sol:FarmingPoolUpgradeable",
            "label": "basicDegisPerSecond",
            "offset": 0,
            "slot": "1",
            "type": "t_uint256"
          },
          {
            "astId": 11298,
            "contract": "contracts/farming/FarmingPoolUpgradeable.sol:FarmingPoolUpgradeable",
            "label": "bonusDegisPerSecond",
            "offset": 0,
            "slot": "2",
            "type": "t_uint256"
          },
          {
            "astId": 11300,
            "contract": "contracts/farming/FarmingPoolUpgradeable.sol:FarmingPoolUpgradeable",
            "label": "lastRewardTimestamp",
            "offset": 0,
            "slot": "3",
            "type": "t_uint256"
          },
          {
            "astId": 11302,
            "contract": "contracts/farming/FarmingPoolUpgradeable.sol:FarmingPoolUpgradeable",
            "label": "accDegisPerShare",
            "offset": 0,
            "slot": "4",
            "type": "t_uint256"
          },
          {
            "astId": 11304,
            "contract": "contracts/farming/FarmingPoolUpgradeable.sol:FarmingPoolUpgradeable",
            "label": "accDegisPerBonusShare",
            "offset": 0,
            "slot": "5",
            "type": "t_uint256"
          },
          {
            "astId": 11306,
            "contract": "contracts/farming/FarmingPoolUpgradeable.sol:FarmingPoolUpgradeable",
            "label": "totalBonus",
            "offset": 0,
            "slot": "6",
            "type": "t_uint256"
          }
        ],
        "numberOfBytes": "224"
      },
      "t_struct(UserInfo)11326_storage": {
        "encoding": "inplace",
        "label": "struct FarmingPoolUpgradeable.UserInfo",
        "members": [
          {
            "astId": 11321,
            "contract": "contracts/farming/FarmingPoolUpgradeable.sol:FarmingPoolUpgradeable",
            "label": "rewardDebt",
            "offset": 0,
            "slot": "0",
            "type": "t_uint256"
          },
          {
            "astId": 11323,
            "contract": "contracts/farming/FarmingPoolUpgradeable.sol:FarmingPoolUpgradeable",
            "label": "stakingBalance",
            "offset": 0,
            "slot": "1",
            "type": "t_uint256"
          },
          {
            "astId": 11325,
            "contract": "contracts/farming/FarmingPoolUpgradeable.sol:FarmingPoolUpgradeable",
            "label": "bonus",
            "offset": 0,
            "slot": "2",
            "type": "t_uint256"
          }
        ],
        "numberOfBytes": "96"
      },
      "t_uint256": {
        "encoding": "inplace",
        "label": "uint256",
        "numberOfBytes": "32"
      }
    }
  }
}