{
  "address": "0x051413326977294e7F44A5397d592dA0106E3F35",
  "abi": [
    {
      "anonymous": false,
      "inputs": [
        {
          "indexed": false,
          "internalType": "uint256",
          "name": "poolId",
          "type": "uint256"
        },
        {
          "indexed": false,
          "internalType": "uint256",
          "name": "basicDegisPerSecond",
          "type": "uint256"
        },
        {
          "indexed": false,
          "internalType": "uint256",
          "name": "bonusDegisPerSecond",
          "type": "uint256"
        }
      ],
      "name": "DegisRewardChanged",
      "type": "event"
    },
    {
      "anonymous": false,
      "inputs": [
        {
          "indexed": false,
          "internalType": "uint256",
          "name": "poolId",
          "type": "uint256"
        },
        {
          "indexed": false,
          "internalType": "uint256",
          "name": "timestamp",
          "type": "uint256"
        }
      ],
      "name": "FarmingPoolStarted",
      "type": "event"
    },
    {
      "anonymous": false,
      "inputs": [
        {
          "indexed": false,
          "internalType": "uint256",
          "name": "poolId",
          "type": "uint256"
        },
        {
          "indexed": false,
          "internalType": "uint256",
          "name": "timestamp",
          "type": "uint256"
        }
      ],
      "name": "FarmingPoolStopped",
      "type": "event"
    },
    {
      "anonymous": false,
      "inputs": [
        {
          "indexed": false,
          "internalType": "address",
          "name": "staker",
          "type": "address"
        },
        {
          "indexed": false,
          "internalType": "address",
          "name": "rewardReceiver",
          "type": "address"
        },
        {
          "indexed": false,
          "internalType": "uint256",
          "name": "poolId",
          "type": "uint256"
        },
        {
          "indexed": false,
          "internalType": "uint256",
          "name": "pendingReward",
          "type": "uint256"
        }
      ],
      "name": "Harvest",
      "type": "event"
    },
    {
      "anonymous": false,
      "inputs": [
        {
          "indexed": false,
          "internalType": "address",
          "name": "lpToken",
          "type": "address"
        },
        {
          "indexed": false,
          "internalType": "uint256",
          "name": "basicDegisPerSecond",
          "type": "uint256"
        },
        {
          "indexed": false,
          "internalType": "uint256",
          "name": "bonusDegisPerSecond",
          "type": "uint256"
        }
      ],
      "name": "NewPoolAdded",
      "type": "event"
    },
    {
      "anonymous": false,
      "inputs": [
        {
          "indexed": true,
          "internalType": "address",
          "name": "previousOwner",
          "type": "address"
        },
        {
          "indexed": true,
          "internalType": "address",
          "name": "newOwner",
          "type": "address"
        }
      ],
      "name": "OwnershipTransferred",
      "type": "event"
    },
    {
      "anonymous": false,
      "inputs": [
        {
          "indexed": false,
          "internalType": "address",
          "name": "account",
          "type": "address"
        }
      ],
      "name": "Paused",
      "type": "event"
    },
    {
      "anonymous": false,
      "inputs": [
        {
          "indexed": false,
          "internalType": "uint256",
          "name": "poolId",
          "type": "uint256"
        },
        {
          "indexed": false,
          "internalType": "uint256",
          "name": "accDegisPerShare",
          "type": "uint256"
        },
        {
          "indexed": false,
          "internalType": "uint256",
          "name": "accDegisPerBonusShare",
          "type": "uint256"
        }
      ],
      "name": "PoolUpdated",
      "type": "event"
    },
    {
      "anonymous": false,
      "inputs": [
        {
          "indexed": false,
          "internalType": "address",
          "name": "staker",
          "type": "address"
        },
        {
          "indexed": false,
          "internalType": "uint256",
          "name": "poolId",
          "type": "uint256"
        },
        {
          "indexed": false,
          "internalType": "uint256",
          "name": "amount",
          "type": "uint256"
        }
      ],
      "name": "Stake",
      "type": "event"
    },
    {
      "anonymous": false,
      "inputs": [
        {
          "indexed": false,
          "internalType": "uint256",
          "name": "startTimestamp",
          "type": "uint256"
        }
      ],
      "name": "StartTimestampChanged",
      "type": "event"
    },
    {
      "anonymous": false,
      "inputs": [
        {
          "indexed": false,
          "internalType": "address",
          "name": "account",
          "type": "address"
        }
      ],
      "name": "Unpaused",
      "type": "event"
    },
    {
      "anonymous": false,
      "inputs": [
        {
          "indexed": false,
          "internalType": "address",
          "name": "staker",
          "type": "address"
        },
        {
          "indexed": false,
          "internalType": "uint256",
          "name": "poolId",
          "type": "uint256"
        },
        {
          "indexed": false,
          "internalType": "uint256",
          "name": "amount",
          "type": "uint256"
        }
      ],
      "name": "Withdraw",
      "type": "event"
    },
    {
      "inputs": [],
      "name": "SCALE",
      "outputs": [
        {
          "internalType": "uint256",
          "name": "",
          "type": "uint256"
        }
      ],
      "stateMutability": "view",
      "type": "function"
    },
    {
      "inputs": [],
      "name": "_nextPoolId",
      "outputs": [
        {
          "internalType": "uint256",
          "name": "",
          "type": "uint256"
        }
      ],
      "stateMutability": "view",
      "type": "function"
    },
    {
      "inputs": [
        {
          "internalType": "address",
          "name": "_lpToken",
          "type": "address"
        },
        {
          "internalType": "uint256",
          "name": "_basicDegisPerSecond",
          "type": "uint256"
        },
        {
          "internalType": "uint256",
          "name": "_bonusDegisPerSecond",
          "type": "uint256"
        },
        {
          "internalType": "bool",
          "name": "_withUpdate",
          "type": "bool"
        },
        {
          "internalType": "address",
          "name": "_doubleRewardToken",
          "type": "address"
        }
      ],
      "name": "add",
      "outputs": [],
      "stateMutability": "nonpayable",
      "type": "function"
    },
    {
      "inputs": [],
      "name": "currentRewardLevel",
      "outputs": [
        {
          "internalType": "uint256",
          "name": "",
          "type": "uint256"
        }
      ],
      "stateMutability": "view",
      "type": "function"
    },
    {
      "inputs": [],
      "name": "degis",
      "outputs": [
        {
          "internalType": "contract IDegisToken",
          "name": "",
          "type": "address"
        }
      ],
      "stateMutability": "view",
      "type": "function"
    },
    {
      "inputs": [
        {
          "internalType": "uint256",
          "name": "",
          "type": "uint256"
        }
      ],
      "name": "doubleRewarder",
      "outputs": [
        {
          "internalType": "address",
          "name": "",
          "type": "address"
        }
      ],
      "stateMutability": "view",
      "type": "function"
    },
    {
      "inputs": [],
      "name": "doubleRewarderContract",
      "outputs": [
        {
          "internalType": "contract IDoubleRewarder",
          "name": "",
          "type": "address"
        }
      ],
      "stateMutability": "view",
      "type": "function"
    },
    {
      "inputs": [
        {
          "internalType": "uint256",
          "name": "",
          "type": "uint256"
        },
        {
          "internalType": "address",
          "name": "",
          "type": "address"
        }
      ],
      "name": "extraClaimable",
      "outputs": [
        {
          "internalType": "uint256",
          "name": "",
          "type": "uint256"
        }
      ],
      "stateMutability": "view",
      "type": "function"
    },
    {
      "inputs": [],
      "name": "getPoolList",
      "outputs": [
        {
          "components": [
            {
              "internalType": "address",
              "name": "lpToken",
              "type": "address"
            },
            {
              "internalType": "uint256",
              "name": "basicDegisPerSecond",
              "type": "uint256"
            },
            {
              "internalType": "uint256",
              "name": "bonusDegisPerSecond",
              "type": "uint256"
            },
            {
              "internalType": "uint256",
              "name": "lastRewardTimestamp",
              "type": "uint256"
            },
            {
              "internalType": "uint256",
              "name": "accDegisPerShare",
              "type": "uint256"
            },
            {
              "internalType": "uint256",
              "name": "accDegisPerBonusShare",
              "type": "uint256"
            },
            {
              "internalType": "uint256",
              "name": "totalBonus",
              "type": "uint256"
            }
          ],
          "internalType": "struct FarmingPoolUpgradeable.PoolInfo[]",
          "name": "",
          "type": "tuple[]"
        }
      ],
      "stateMutability": "view",
      "type": "function"
    },
    {
      "inputs": [
        {
          "internalType": "uint256",
          "name": "_poolId",
          "type": "uint256"
        },
        {
          "internalType": "address",
          "name": "_user",
          "type": "address"
        }
      ],
      "name": "getUserBalance",
      "outputs": [
        {
          "internalType": "uint256",
          "name": "",
          "type": "uint256"
        }
      ],
      "stateMutability": "view",
      "type": "function"
    },
    {
      "inputs": [
        {
          "internalType": "uint256",
          "name": "_poolId",
          "type": "uint256"
        },
        {
          "internalType": "address",
          "name": "_to",
          "type": "address"
        }
      ],
      "name": "harvest",
      "outputs": [],
      "stateMutability": "nonpayable",
      "type": "function"
    },
    {
      "inputs": [
        {
          "internalType": "address",
          "name": "_degis",
          "type": "address"
        }
      ],
      "name": "initialize",
      "outputs": [],
      "stateMutability": "nonpayable",
      "type": "function"
    },
    {
      "inputs": [
        {
          "internalType": "uint256",
          "name": "",
          "type": "uint256"
        }
      ],
      "name": "isFarming",
      "outputs": [
        {
          "internalType": "bool",
          "name": "",
          "type": "bool"
        }
      ],
      "stateMutability": "view",
      "type": "function"
    },
    {
      "inputs": [],
      "name": "massUpdatePools",
      "outputs": [],
      "stateMutability": "nonpayable",
      "type": "function"
    },
    {
      "inputs": [],
      "name": "name",
      "outputs": [
        {
          "internalType": "string",
          "name": "",
          "type": "string"
        }
      ],
      "stateMutability": "view",
      "type": "function"
    },
    {
      "inputs": [],
      "name": "owner",
      "outputs": [
        {
          "internalType": "address",
          "name": "",
          "type": "address"
        }
      ],
      "stateMutability": "view",
      "type": "function"
    },
    {
      "inputs": [],
      "name": "pause",
      "outputs": [],
      "stateMutability": "nonpayable",
      "type": "function"
    },
    {
      "inputs": [],
      "name": "paused",
      "outputs": [
        {
          "internalType": "bool",
          "name": "",
          "type": "bool"
        }
      ],
      "stateMutability": "view",
      "type": "function"
    },
    {
      "inputs": [
        {
          "internalType": "uint256",
          "name": "_poolId",
          "type": "uint256"
        },
        {
          "internalType": "address",
          "name": "_user",
          "type": "address"
        }
      ],
      "name": "pendingDegis",
      "outputs": [
        {
          "internalType": "uint256",
          "name": "",
          "type": "uint256"
        }
      ],
      "stateMutability": "view",
      "type": "function"
    },
    {
      "inputs": [
        {
          "internalType": "uint256",
          "name": "_poolId",
          "type": "uint256"
        },
        {
          "internalType": "address",
          "name": "_user",
          "type": "address"
        }
      ],
      "name": "pendingDoubleReward",
      "outputs": [
        {
          "internalType": "address",
          "name": "doubleRewardToken",
          "type": "address"
        },
        {
          "internalType": "uint256",
          "name": "pending",
          "type": "uint256"
        }
      ],
      "stateMutability": "view",
      "type": "function"
    },
    {
      "inputs": [
        {
          "internalType": "uint256",
          "name": "",
          "type": "uint256"
        },
        {
          "internalType": "uint256",
          "name": "",
          "type": "uint256"
        }
      ],
      "name": "piecewiseBasic",
      "outputs": [
        {
          "internalType": "uint256",
          "name": "",
          "type": "uint256"
        }
      ],
      "stateMutability": "view",
      "type": "function"
    },
    {
      "inputs": [
        {
          "internalType": "uint256",
          "name": "",
          "type": "uint256"
        }
      ],
      "name": "poolList",
      "outputs": [
        {
          "internalType": "address",
          "name": "lpToken",
          "type": "address"
        },
        {
          "internalType": "uint256",
          "name": "basicDegisPerSecond",
          "type": "uint256"
        },
        {
          "internalType": "uint256",
          "name": "bonusDegisPerSecond",
          "type": "uint256"
        },
        {
          "internalType": "uint256",
          "name": "lastRewardTimestamp",
          "type": "uint256"
        },
        {
          "internalType": "uint256",
          "name": "accDegisPerShare",
          "type": "uint256"
        },
        {
          "internalType": "uint256",
          "name": "accDegisPerBonusShare",
          "type": "uint256"
        },
        {
          "internalType": "uint256",
          "name": "totalBonus",
          "type": "uint256"
        }
      ],
      "stateMutability": "view",
      "type": "function"
    },
    {
      "inputs": [
        {
          "internalType": "address",
          "name": "",
          "type": "address"
        }
      ],
      "name": "poolMapping",
      "outputs": [
        {
          "internalType": "uint256",
          "name": "",
          "type": "uint256"
        }
      ],
      "stateMutability": "view",
      "type": "function"
    },
    {
      "inputs": [
        {
          "internalType": "uint256",
          "name": "",
          "type": "uint256"
        }
      ],
      "name": "poolRewardLevel",
      "outputs": [
        {
          "internalType": "uint256",
          "name": "",
          "type": "uint256"
        }
      ],
      "stateMutability": "view",
      "type": "function"
    },
    {
      "inputs": [],
      "name": "renounceOwnership",
      "outputs": [],
      "stateMutability": "nonpayable",
      "type": "function"
    },
    {
      "inputs": [
        {
          "internalType": "uint256",
          "name": "_poolId",
          "type": "uint256"
        },
        {
          "internalType": "uint256",
          "name": "_basicDegisPerSecond",
          "type": "uint256"
        },
        {
          "internalType": "uint256",
          "name": "_bonusDegisPerSecond",
          "type": "uint256"
        },
        {
          "internalType": "bool",
          "name": "_withUpdate",
          "type": "bool"
        }
      ],
      "name": "setDegisReward",
      "outputs": [],
      "stateMutability": "nonpayable",
      "type": "function"
    },
    {
      "inputs": [
        {
          "internalType": "address",
          "name": "_rewarder",
          "type": "address"
        }
      ],
      "name": "setDoubleRewarderContract",
      "outputs": [],
      "stateMutability": "nonpayable",
      "type": "function"
    },
    {
      "inputs": [
        {
          "internalType": "uint256",
          "name": "_poolId",
          "type": "uint256"
        },
        {
          "internalType": "uint256[]",
          "name": "_threshold",
          "type": "uint256[]"
        },
        {
          "internalType": "uint256[]",
          "name": "_reward",
          "type": "uint256[]"
        }
      ],
      "name": "setPiecewise",
      "outputs": [],
      "stateMutability": "nonpayable",
      "type": "function"
    },
    {
      "inputs": [
        {
          "internalType": "uint256",
          "name": "_startTimestamp",
          "type": "uint256"
        }
      ],
      "name": "setStartTimestamp",
      "outputs": [],
      "stateMutability": "nonpayable",
      "type": "function"
    },
    {
      "inputs": [
        {
          "internalType": "address",
          "name": "_veDEG",
          "type": "address"
        }
      ],
      "name": "setVeDEG",
      "outputs": [],
      "stateMutability": "nonpayable",
      "type": "function"
    },
    {
      "inputs": [
        {
          "internalType": "uint256",
          "name": "_poolId",
          "type": "uint256"
        },
        {
          "internalType": "uint256",
          "name": "_amount",
          "type": "uint256"
        }
      ],
      "name": "stake",
      "outputs": [],
      "stateMutability": "nonpayable",
      "type": "function"
    },
    {
      "inputs": [],
      "name": "startTimestamp",
      "outputs": [
        {
          "internalType": "uint256",
          "name": "",
          "type": "uint256"
        }
      ],
      "stateMutability": "view",
      "type": "function"
    },
    {
      "inputs": [
        {
          "internalType": "uint256",
          "name": "",
          "type": "uint256"
        },
        {
          "internalType": "uint256",
          "name": "",
          "type": "uint256"
        }
      ],
      "name": "thresholdBasic",
      "outputs": [
        {
          "internalType": "uint256",
          "name": "",
          "type": "uint256"
        }
      ],
      "stateMutability": "view",
      "type": "function"
    },
    {
      "inputs": [
        {
          "internalType": "address",
          "name": "newOwner",
          "type": "address"
        }
      ],
      "name": "transferOwnership",
      "outputs": [],
      "stateMutability": "nonpayable",
      "type": "function"
    },
    {
      "inputs": [],
      "name": "unpause",
      "outputs": [],
      "stateMutability": "nonpayable",
      "type": "function"
    },
    {
      "inputs": [
        {
          "internalType": "address",
          "name": "_user",
          "type": "address"
        },
        {
          "internalType": "uint256",
          "name": "_newVeDEGBalance",
          "type": "uint256"
        }
      ],
      "name": "updateBonus",
      "outputs": [],
      "stateMutability": "nonpayable",
      "type": "function"
    },
    {
      "inputs": [
        {
          "internalType": "uint256",
          "name": "_poolId",
          "type": "uint256"
        }
      ],
      "name": "updatePool",
      "outputs": [],
      "stateMutability": "nonpayable",
      "type": "function"
    },
    {
      "inputs": [
        {
          "internalType": "uint256",
          "name": "",
          "type": "uint256"
        },
        {
          "internalType": "address",
          "name": "",
          "type": "address"
        }
      ],
      "name": "userInfo",
      "outputs": [
        {
          "internalType": "uint256",
          "name": "rewardDebt",
          "type": "uint256"
        },
        {
          "internalType": "uint256",
          "name": "stakingBalance",
          "type": "uint256"
        },
        {
          "internalType": "uint256",
          "name": "bonus",
          "type": "uint256"
        }
      ],
      "stateMutability": "view",
      "type": "function"
    },
    {
      "inputs": [],
      "name": "veDEG",
      "outputs": [
        {
          "internalType": "contract IVeDEG",
          "name": "",
          "type": "address"
        }
      ],
      "stateMutability": "view",
      "type": "function"
    },
    {
      "inputs": [
        {
          "internalType": "uint256",
          "name": "_poolId",
          "type": "uint256"
        },
        {
          "internalType": "uint256",
          "name": "_amount",
          "type": "uint256"
        }
      ],
      "name": "withdraw",
      "outputs": [],
      "stateMutability": "nonpayable",
      "type": "function"
    }
  ],
  "transactionHash": "0xca0c4d4c473325a1858b5b931747288a87aab5b3f764662e771eff85bf971fef",
  "args": [],
  "numDeployments": 1,
  "solcInputHash": "9c078136f9a2be8a028818e10cc60c9f",
  "bytecode": "0x608060405234801561001057600080fd5b50613e6b806100206000396000f3fe608060405234801561001057600080fd5b50600436106102c75760003560e01c80637b0472f01161017b578063c73d2bae116100d8578063d54465181161008c578063eced552611610071578063eced55261461063f578063ef1d9f671461064b578063f2fde38b1461067457600080fd5b8063d544651814610623578063e6fd48bc1461063657600080fd5b8063cdfb6cf3116100bd578063cdfb6cf3146105e8578063d13f67bc146105fb578063d41dcbea1461060e57600080fd5b8063c73d2bae146105aa578063cdcd2907146105d557600080fd5b8063a06ddcb31161012f578063bfa7decb11610114578063bfa7decb14610564578063c44bef7514610584578063c4d66de81461059757600080fd5b8063a06ddcb31461052e578063bea10f001461055157600080fd5b806389147f551161016057806389147f55146104b85780638da5cb5b146104cb57806393f1a40b146104e557600080fd5b80637b0472f01461049d5780638456cb59146104b057600080fd5b8063441a3e70116102295780635bf56068116101dd5780635e4651f9116101c25780635e4651f91461047a578063630b5ba11461048d578063715018a61461049557600080fd5b80635bf56068146104535780635c975abb1461046657600080fd5b80634b34b6871161020e5780634b34b6871461041a5780634f3e7ba61461042d57806351eb05a61461044057600080fd5b8063441a3e70146103e65780634810d910146103f957600080fd5b806329baefff116102805780632a48235b116102655780632a48235b146103985780632c678a3e146103be5780633f4ba83a146103de57600080fd5b806329baefff1461036f57806329fd20071461037857600080fd5b806307a96cbf116102b157806307a96cbf1461033357806317fb77de1461034657806318fccc761461035c57600080fd5b8062334017146102cc57806306fdde03146102e1575b600080fd5b6102df6102da3660046130d0565b610687565b005b61031d6040518060400160405280601581526020017f4465676973204c50204661726d696e6720506f6f6c000000000000000000000081525081565b60405161032a91906131a6565b60405180910390f35b6102df6103413660046131b7565b6109ab565b61034f60cb5481565b60405161032a91906131e0565b6102df61036a3660046131ee565b6109f7565b61034f60d45481565b60c95461038b906001600160a01b031681565b60405161032a919061324a565b6103ab6103a6366004613258565b610d93565b60405161032a9796959493929190613282565b61034f6103cc3660046131b7565b60ce6020526000908152604090205481565b6102df610dec565b6102df6103f43660046132ea565b610e20565b61040c6104073660046131ee565b6112a3565b60405161032a92919061331d565b6102df61042836600461338a565b61134c565b60ca5461038b906001600160a01b031681565b6102df61044e366004613258565b611408565b61034f6104613660046132ea565b61170d565b60975460ff165b60405161032a9190613422565b61034f6104883660046132ea565b61173e565b6102df61175a565b6102df6117cd565b6102df6104ab3660046132ea565b611801565b6102df611c5e565b6102df6104c63660046131b7565b611c90565b6033546001600160a01b03165b60405161032a9190613430565b61051f6104f33660046131ee565b60d060209081526000928352604080842090915290825290208054600182015460029092015490919083565b60405161032a9392919061343e565b61046d61053c366004613258565b60cf6020526000908152604090205460ff1681565b60d75461038b906001600160a01b031681565b61034f610572366004613258565b60d56020526000908152604090205481565b6102df610592366004613258565b611cdc565b6102df6105a53660046131b7565b611d8b565b61034f6105b83660046131ee565b60d160209081526000928352604080842090915290825290205481565b6102df6105e3366004613466565b611fc5565b61034f6105f63660046131ee565b612253565b61034f6106093660046131ee565b612280565b610616612537565b60405161032a91906135a6565b6102df6106313660046135b7565b6125df565b61034f60cc5481565b61034f64e8d4a5100081565b6104d8610659366004613258565b60d6602052600090815260409020546001600160a01b031681565b6102df6106823660046131b7565b6127be565b846001600160a01b0381166106b75760405162461bcd60e51b81526004016106ae9061360b565b60405180910390fd5b6033546001600160a01b031633146106e15760405162461bcd60e51b81526004016106ae9061364b565b60975460ff16156107045760405162461bcd60e51b81526004016106ae9061368d565b61070d8661281a565b1561072a5760405162461bcd60e51b81526004016106ae906136cf565b831561075057600085116107505760405162461bcd60e51b81526004016106ae90613711565b821561075e5761075e61175a565b600060cc5442116107715760cc54610773565b425b6040805160e0810182526001600160a01b038a81168252602082018a81529282018981526060830185815260006080850181815260a0860182815260c0870183815260cd8054600181018255945296517f83978b4c69c48dd978ab43fe30f077615294f938fb7f936d9eb340e51ea7db2e600790940293840180546001600160a01b031916919097161790955595517f83978b4c69c48dd978ab43fe30f077615294f938fb7f936d9eb340e51ea7db2f82015591517f83978b4c69c48dd978ab43fe30f077615294f938fb7f936d9eb340e51ea7db30830155517f83978b4c69c48dd978ab43fe30f077615294f938fb7f936d9eb340e51ea7db3182015592517f83978b4c69c48dd978ab43fe30f077615294f938fb7f936d9eb340e51ea7db32840155517f83978b4c69c48dd978ab43fe30f077615294f938fb7f936d9eb340e51ea7db33830155517f83978b4c69c48dd978ab43fe30f077615294f938fb7f936d9eb340e51ea7db3490910155905085156109075760cb54600090815260cf60205260409020805460ff191660011790555b60cb80546000918261091883613737565b909155506001600160a01b038916600090815260ce602052604090819020829055519091507f5f9d2cd19aa3f32e9e8cc45267a493f9956c1b955a220136161ff8ad595bc7829061096e908a908a908a90613750565b60405180910390a1600090815260d66020526040902080546001600160a01b0319166001600160a01b039490941693909317909255505050505050565b6033546001600160a01b031633146109d55760405162461bcd60e51b81526004016106ae9061364b565b60ca80546001600160a01b0319166001600160a01b0392909216919091179055565b600260655403610a195760405162461bcd60e51b81526004016106ae90613790565b600260655560975460ff1615610a415760405162461bcd60e51b81526004016106ae9061368d565b600082815260cf602052604090205460ff1615610a6657610a6182611408565b610a90565b4260cd8381548110610a7a57610a7a6137a0565b9060005260206000209060070201600301819055505b600060cd8381548110610aa557610aa56137a0565b600091825260208083206040805160e081018252600790940290910180546001600160a01b03168452600181015484840152600280820154858401526003820154606086015260048201546080860152600582015460a0860190815260069092015460c086015288865260d084528286203380885290855283872080548b895260d1875285892092895291909552928620549151908401549496509294939192909164e8d4a5100091610b57916137b6565b86608001518660010154610b6b91906137b6565b610b7591906137d5565b610b7f9190613803565b610b8991906137d5565b610b939190613817565b600086815260d160209081526040808320338452909152812055905080610bcc5760405162461bcd60e51b81526004016106ae90613860565b600085815260d660205260409020546001600160a01b031615610cf75782516040516370a0823160e01b81526000916001600160a01b0316906370a0823190610c19903090600401613430565b602060405180830381865afa158015610c36573d6000803e3d6000fd5b505050506040513d601f19601f82011682018060405250810190610c5a919061387b565b60d7548551600089815260d660205260409081902054600188015491517f83c40a8f0000000000000000000000000000000000000000000000000000000081529495506001600160a01b03938416946383c40a8f94610cc394939216913391889060040161389c565b600060405180830381600087803b158015610cdd57600080fd5b505af1158015610cf1573d6000803e3d6000fd5b50505050505b64e8d4a510008360a001518360020154610d1191906137b6565b84608001518460010154610d2591906137b6565b610d2f91906137d5565b610d399190613803565b82556000610d47858361284b565b90507fdec9257d126f56798a34ce7ca0ffedeaa9a024543946f79c3b5038035ba32a1e33868884604051610d7e94939291906138e8565b60405180910390a15050600160655550505050565b60cd8181548110610da357600080fd5b600091825260209091206007909102018054600182015460028301546003840154600485015460058601546006909601546001600160a01b039095169650929491939092919087565b6033546001600160a01b03163314610e165760405162461bcd60e51b81526004016106ae9061364b565b610e1e612929565b565b600260655403610e425760405162461bcd60e51b81526004016106ae90613790565b600260655560975460ff1615610e6a5760405162461bcd60e51b81526004016106ae9061368d565b60008111610e8a5760405162461bcd60e51b81526004016106ae90613958565b600060cd8381548110610e9f57610e9f6137a0565b6000918252602080832086845260d0825260408085203386529092529220600181015460079092029092019250831115610eeb5760405162461bcd60e51b81526004016106ae9061399a565b600084815260cf602052604090205460ff1615610f1057610f0b84611408565b610f17565b4260038301555b8054600085815260d1602090815260408083203384529091528120546005850154600285015492939264e8d4a5100091610f50916137b6565b86600401548660010154610f6491906137b6565b610f6e91906137d5565b610f789190613803565b610f8291906137d5565b610f8c9190613817565b600086815260d160209081526040808320338085529252822082905591925090610fb6908361284b565b90507fdec9257d126f56798a34ce7ca0ffedeaa9a024543946f79c3b5038035ba32a1e33338884604051610fed94939291906138e8565b60405180910390a18354600090611011906001906001600160a01b0316338961298f565b9050808460010160008282546110279190613817565b909155505060ca546001600160a01b0316156110f157600284015460ca546040516370a0823160e01b81526110c9916001600160a01b0316906370a0823190611074903390600401613430565b602060405180830381865afa158015611091573d6000803e3d6000fd5b505050506040513d601f19601f820116820180604052508101906110b5919061387b565b86600101546110c491906137b6565b612ad2565b60028601819055600687015482916110e0916137d5565b6110ea9190613817565b6006870155505b600087815260d660205260409020546001600160a01b0316156112155784546040516370a0823160e01b81526000916001600160a01b0316906370a082319061113e903090600401613430565b602060405180830381865afa15801561115b573d6000803e3d6000fd5b505050506040513d601f19601f8201168201806040525081019061117f919061387b565b60d754875460008b815260d6602052604090205460018901549394506001600160a01b03928316936383c40a8f93928316929091169033906111c188886137d5565b6040518663ffffffff1660e01b81526004016111e195949392919061389c565b600060405180830381600087803b1580156111fb57600080fd5b505af115801561120f573d6000803e3d6000fd5b50505050505b64e8d4a510008560050154856002015461122f91906137b6565b8660040154866001015461124391906137b6565b61124d91906137d5565b6112579190613803565b84556040517ff279e6a1f5e320cca91135676d9cb6e44ca8a08c0b88342bcdb1144f6511b5689061128d9033908a908590613750565b60405180910390a1505060016065555050505050565b600082815260d660205260408082205460d75491517f9ced7e760000000000000000000000000000000000000000000000000000000081526001600160a01b03918216939290911690639ced7e769061130290859087906004016139aa565b602060405180830381865afa15801561131f573d6000803e3d6000fd5b505050506040513d601f19601f82011682018060405250810190611343919061387b565b90509250929050565b6033546001600160a01b031633146113765760405162461bcd60e51b81526004016106ae9061364b565b600085815260d26020526040902061138f90858561301c565b50600085815260d3602052604090206113a990838361301c565b506000828260008181106113bf576113bf6137a0565b9050602002013511156113ea57600085815260cf60205260409020805460ff19166001179055611401565b600085815260cf60205260409020805460ff191690555b5050505050565b600060cd828154811061141d5761141d6137a0565b906000526020600020906007020190508060030154421161143c575050565b80546040516370a0823160e01b81526000916001600160a01b0316906370a082319061146c903090600401613430565b602060405180830381865afa158015611489573d6000803e3d6000fd5b505050506040513d601f19601f820116820180604052508101906114ad919061387b565b9050806000036114c257504260039091015550565b60008260030154426114d49190613817565b905060008360010154826114e891906137b6565b905060008460020154836114fc91906137b6565b90508361150e64e8d4a51000846137b6565b6115189190613803565b85600401600082825461152b91906137d5565b90915550506006850154600003611548576000600586015561157f565b600685015461155c64e8d4a51000836137b6565b6115669190613803565b85600501600082825461157991906137d5565b90915550505b60c9546001600160a01b031663b47673983061159b84866137d5565b6040518363ffffffff1660e01b81526004016115b892919061331d565b600060405180830381600087803b1580156115d257600080fd5b505af11580156115e6573d6000803e3d6000fd5b50504260038801555050600086815260d5602090815260408083205460d290925290912054156116c257600087815260d260205260408120805483908110611630576116306137a0565b60009182526020808320909101548a835260d290915260409091205490915061165b90600190613817565b8210801561169c5750600088815260d26020526040902061167d8360016137d5565b8154811061168d5761168d6137a0565b90600052602060002001548610155b156116af576116aa88612b42565b6116c0565b808610156116c0576116c088612b42565b505b600486015460058701546040517f17b8644f386d1c7c7138ef98b3c8035622bbe94d7be9b26f71d2654a547c2943926116fc928b9261343e565b60405180910390a150505050505050565b60d3602052816000526040600020818154811061172957600080fd5b90600052602060002001600091509150505481565b60d2602052816000526040600020818154811061172957600080fd5b60cd5460015b818110156117c957600081815260cf602052604081205460ff16151590036117b0574260cd8281548110611796576117966137a0565b9060005260206000209060070201600301819055506117b9565b6117b981611408565b6117c281613737565b9050611760565b5050565b6033546001600160a01b031633146117f75760405162461bcd60e51b81526004016106ae9061364b565b610e1e6000612caf565b6002606554036118235760405162461bcd60e51b81526004016106ae90613790565b600260655560975460ff161561184b5760405162461bcd60e51b81526004016106ae9061368d565b600082815260cf6020526040902054829060ff1661187b5760405162461bcd60e51b81526004016106ae906139f7565b6000821161189b5760405162461bcd60e51b81526004016106ae90613a39565b600060cd84815481106118b0576118b06137a0565b6000918252602080832087845260d0825260408085203386529092529220600790910290910191506118e185611408565b6001810154156119cc578054600086815260d1602090815260408083203384529091528120546005850154600285015492939264e8d4a5100091611924916137b6565b8660040154866001015461193891906137b6565b61194291906137d5565b61194c9190613803565b61195691906137d5565b6119609190613817565b600087815260d16020908152604080832033808552925282208290559192509061198a908361284b565b90507fdec9257d126f56798a34ce7ca0ffedeaa9a024543946f79c3b5038035ba32a1e333389846040516119c194939291906138e8565b60405180910390a150505b81546000906119e79082906001600160a01b0316338861298f565b9050808260010160008282546119fd91906137d5565b909155505060ca546001600160a01b031615611ac257600282015460ca546040516370a0823160e01b8152611a9a916001600160a01b0316906370a0823190611a4a903390600401613430565b602060405180830381865afa158015611a67573d6000803e3d6000fd5b505050506040513d601f19601f82011682018060405250810190611a8b919061387b565b84600101546110c491906137b6565b6002840181905560068501548291611ab1916137d5565b611abb9190613817565b6006850155505b600086815260d660205260409020546001600160a01b031615611be65782546040516370a0823160e01b81526000916001600160a01b0316906370a0823190611b0f903090600401613430565b602060405180830381865afa158015611b2c573d6000803e3d6000fd5b505050506040513d601f19601f82011682018060405250810190611b50919061387b565b60d754855460008a815260d6602052604090205460018701549394506001600160a01b03928316936383c40a8f9392831692909116903390611b928888613817565b6040518663ffffffff1660e01b8152600401611bb295949392919061389c565b600060405180830381600087803b158015611bcc57600080fd5b505af1158015611be0573d6000803e3d6000fd5b50505050505b64e8d4a5100083600501548360020154611c0091906137b6565b84600401548460010154611c1491906137b6565b611c1e91906137d5565b611c289190613803565b82556040517f5af417134f72a9d41143ace85b0a26dce6f550f894f2cbc1eeee8810603d91b690610d7e90339089908590613750565b6033546001600160a01b03163314611c885760405162461bcd60e51b81526004016106ae9061364b565b610e1e612d01565b6033546001600160a01b03163314611cba5760405162461bcd60e51b81526004016106ae9061364b565b60d780546001600160a01b0319166001600160a01b0392909216919091179055565b6033546001600160a01b03163314611d065760405162461bcd60e51b81526004016106ae9061364b565b60975460ff1615611d295760405162461bcd60e51b81526004016106ae9061368d565b60cb54600114611d4b5760405162461bcd60e51b81526004016106ae90613aa3565b60cc8190556040517faf8fc8a4c9a55a9a29c3e99cd1797d43062c696f192896c79cbebd7da3286d8290611d809083906131e0565b60405180910390a150565b600054610100900460ff16611da65760005460ff1615611daa565b303b155b611dc65760405162461bcd60e51b81526004016106ae90613b0b565b600054610100900460ff16158015611de8576000805461ffff19166101011790555b6001600160a01b038216611e0e5760405162461bcd60e51b81526004016106ae9061360b565b611e16612d59565b611e1e612d88565b611e26612db6565b60c980546001600160a01b038085166001600160a01b031992831617909255600160cb8190556040805160e081018252600080825260208201818152928201818152606083018281526080840183815260a0850184815260c0860185815260cd8054998a018155909552945160079097027f83978b4c69c48dd978ab43fe30f077615294f938fb7f936d9eb340e51ea7db2e8101805498909a16979098169690961790975592517f83978b4c69c48dd978ab43fe30f077615294f938fb7f936d9eb340e51ea7db2f86015591517f83978b4c69c48dd978ab43fe30f077615294f938fb7f936d9eb340e51ea7db3085015593517f83978b4c69c48dd978ab43fe30f077615294f938fb7f936d9eb340e51ea7db3184015590517f83978b4c69c48dd978ab43fe30f077615294f938fb7f936d9eb340e51ea7db3283015591517f83978b4c69c48dd978ab43fe30f077615294f938fb7f936d9eb340e51ea7db3382015590517f83978b4c69c48dd978ab43fe30f077615294f938fb7f936d9eb340e51ea7db349091015580156117c9576000805461ff00191690555050565b6033546001600160a01b03163314611fef5760405162461bcd60e51b81526004016106ae9061364b565b60975460ff16156120125760405162461bcd60e51b81526004016106ae9061368d565b60cd8481548110612025576120256137a0565b9060005260206000209060070201600301546000036120565760405162461bcd60e51b81526004016106ae90613b4d565b811561207c576000831161207c5760405162461bcd60e51b81526004016106ae90613711565b801561208f5761208a61175a565b612098565b61209884611408565b600084815260cf602052604090205460ff161580156120b75750600083115b1561211057600084815260cf602052604090819020805460ff19166001179055517f6140f1d5adcbca6c6b24c3b5e695335cd1a2071c7e03881172dc9eb0e488225c906121079086904290613b5d565b60405180910390a15b826000036121bf57600084815260cf60205260408120805460ff1916905560cd805486908110612142576121426137a0565b906000526020600020906007020160010181905550600060cd858154811061216c5761216c6137a0565b9060005260206000209060070201600201819055507f4654f9b7bb3ba4d66e3a4e972e39db189ac7b4fdf5f2a95d57a4eb4d91a16d4584426040516121b2929190613b5d565b60405180910390a161224d565b8260cd85815481106121d3576121d36137a0565b9060005260206000209060070201600101819055508160cd85815481106121fc576121fc6137a0565b9060005260206000209060070201600201819055507f12558fa101886c4fd9ad5e0b9932a6ffd3653b63380b1da3f024ddaf506c22eb8484846040516122449392919061343e565b60405180910390a15b50505050565b600082815260d0602090815260408083206001600160a01b03851684529091529020600101545b92915050565b60008060cd8481548110612296576122966137a0565b60009182526020918290206040805160e081018252600790930290910180546001600160a01b0316835260018101549383019390935260028301549082015260038201546060820181905260048301546080830152600583015460a083015260069092015460c0820152915015806123115750806060015142105b8061231d575060cc5442105b1561232c57600091505061227a565b600084815260d0602090815260408083206001600160a01b0380881685529083528184208251606081018452815481526001820154948101949094526002015483830152845191516370a0823160e01b81529293929116906370a0823190612398903090600401613430565b602060405180830381865afa1580156123b5573d6000803e3d6000fd5b505050506040513d601f19601f820116820180604052508101906123d9919061387b565b608084015160a08501519192509060008390036123fe5760009550505050505061227a565b600088815260cf602052604090205460ff16156124b25760008560600151426124279190613817565b9050600081876020015161243b91906137b6565b90508461244d64e8d4a51000836137b6565b6124579190613803565b61246190856137d5565b60c0880151909450156124af57600082886040015161248091906137b6565b60c089015190915061249764e8d4a51000836137b6565b6124a19190613803565b6124ab90856137d5565b9350505b50505b8351600089815260d1602090815260408083206001600160a01b038c168452909152808220549087015191929164e8d4a51000906124f19086906137b6565b86896020015161250191906137b6565b61250b91906137d5565b6125159190613803565b61251f91906137d5565b6125299190613817565b965061227a95505050505050565b606060cd805480602002602001604051908101604052809291908181526020016000905b828210156125d65760008481526020908190206040805160e0810182526007860290920180546001600160a01b03168352600180820154848601526002820154928401929092526003810154606084015260048101546080840152600581015460a08401526006015460c0830152908352909201910161255b565b50505050905090565b60ca546001600160a01b031633146126095760405162461bcd60e51b81526004016106ae90613b9d565b60cd5460005b8181101561224d57600081815260cf602052604090205460ff16156127ae57600081815260d0602090815260408083206001600160a01b03881684529091528120600181015490910361266257506127ae565b600060cd8381548110612677576126776137a0565b9060005260206000209060070201905061269083611408565b6000826000015464e8d4a51000836005015485600201546126b191906137b6565b846004015486600101546126c591906137b6565b6126cf91906137d5565b6126d99190613803565b6126e39190613817565b600085815260d1602090815260408083206001600160a01b038c16845290915281208054929350839290919061271a9084906137d5565b90915550506002830154600184015460009061273a906110c4908a6137b6565b60028601819055600585015490915064e8d4a510009061275a90836137b6565b8560040154876001015461276e91906137b6565b61277891906137d5565b6127829190613803565b8555600684015482906127969083906137d5565b6127a09190613817565b846006018190555050505050505b6127b781613737565b905061260f565b6033546001600160a01b031633146127e85760405162461bcd60e51b81526004016106ae9061364b565b6001600160a01b03811661280e5760405162461bcd60e51b81526004016106ae90613c05565b61281781612caf565b50565b6001600160a01b038116600090815260ce6020526040812054808203612841576000612844565b60015b9392505050565b60c9546040516370a0823160e01b815260009182916001600160a01b03909116906370a0823190612880903090600401613430565b602060405180830381865afa15801561289d573d6000803e3d6000fd5b505050506040513d601f19601f820116820180604052508101906128c1919061387b565b9050600081116128e35760405162461bcd60e51b81526004016106ae90613c47565b808311156129095760c954612902906001600160a01b03168583612de9565b905061227a565b60c954612920906001600160a01b03168585612de9565b8291505061227a565b60975460ff1661294b5760405162461bcd60e51b81526004016106ae90613c89565b6097805460ff191690557f5db9ee0a495bf2e6ff9c91a7834c1ba4fdd244a5e8aa4e537bd38aeae4b073aa335b6040516129859190613430565b60405180910390a1565b600080846001600160a01b03166370a08231306040518263ffffffff1660e01b81526004016129be9190613430565b602060405180830381865afa1580156129db573d6000803e3d6000fd5b505050506040513d601f19601f820116820180604052508101906129ff919061387b565b90508515612a2057612a1b6001600160a01b0386168585612de9565b612a35565b612a356001600160a01b038616853086612e71565b6040516370a0823160e01b81526000906001600160a01b038716906370a0823190612a64903090600401613430565b602060405180830381865afa158015612a81573d6000803e3d6000fd5b505050506040513d601f19601f82011682018060405250810190612aa5919061387b565b905086612abb57612ab68282613817565b612ac5565b612ac58183613817565b925050505b949350505050565b60006003821115612b335750806000612aec600283613803565b612af79060016137d5565b90505b81811015612b2d57905080600281612b128186613803565b612b1c91906137d5565b612b269190613803565b9050612afa565b50919050565b8115612b3d575060015b919050565b600060cd8281548110612b5757612b576137a0565b60009182526020909120600790910201546040516370a0823160e01b81526001600160a01b03909116906370a0823190612b95903090600401613430565b602060405180830381865afa158015612bb2573d6000803e3d6000fd5b505050506040513d601f19601f82011682018060405250810190612bd6919061387b565b600083815260d26020526040812054919250908190612bf790600190613817565b90505b600084815260d260205260409020805482908110612c1a57612c1a6137a0565b90600052602060002001548310612c7057600084815260d360205260409020805482908110612c4b57612c4b6137a0565b600091825260208083209091015486835260d590915260409091208290559150612c80565b612c7981613c99565b9050612bfa565b508060cd8481548110612c9557612c956137a0565b906000526020600020906007020160010181905550505050565b603380546001600160a01b038381166001600160a01b0319831681179093556040519116919082907f8be0079c531659141344cd1fd0a4f28419497f9722a3daafe3b4186f6b6457e090600090a35050565b60975460ff1615612d245760405162461bcd60e51b81526004016106ae9061368d565b6097805460ff191660011790557f62e78cea01bee320cd4e420270b5ea74000d11b0c9f74754ebdbfc544b05a2586129783390565b600054610100900460ff16612d805760405162461bcd60e51b81526004016106ae90613d08565b610e1e612e92565b600054610100900460ff16612daf5760405162461bcd60e51b81526004016106ae90613d08565b6001606555565b600054610100900460ff16612ddd5760405162461bcd60e51b81526004016106ae90613d08565b6097805460ff19169055565b612e6c8363a9059cbb60e01b8484604051602401612e0892919061331d565b60408051601f198184030181529190526020810180517bffffffffffffffffffffffffffffffffffffffffffffffffffffffff167fffffffff0000000000000000000000000000000000000000000000000000000090931692909217909152612ec2565b505050565b61224d846323b872dd60e01b858585604051602401612e0893929190613d18565b600054610100900460ff16612eb95760405162461bcd60e51b81526004016106ae90613d08565b610e1e33612caf565b6000612f17826040518060400160405280602081526020017f5361666545524332303a206c6f772d6c6576656c2063616c6c206661696c6564815250856001600160a01b0316612f519092919063ffffffff16565b805190915015612e6c5780806020019051810190612f359190613d3e565b612e6c5760405162461bcd60e51b81526004016106ae90613db7565b6060612aca848460008585843b612f7a5760405162461bcd60e51b81526004016106ae90613df9565b600080866001600160a01b03168587604051612f969190613e2b565b60006040518083038185875af1925050503d8060008114612fd3576040519150601f19603f3d011682016040523d82523d6000602084013e612fd8565b606091505b5091509150612ac582828660608315612ff2575081612844565b8251156130025782518084602001fd5b8160405162461bcd60e51b81526004016106ae91906131a6565b828054828255906000526020600020908101928215613057579160200282015b8281111561305757823582559160200191906001019061303c565b50613063929150613067565b5090565b5b808211156130635760008155600101613068565b60006001600160a01b03821661227a565b6130968161307c565b811461281757600080fd5b803561227a8161308d565b80613096565b803561227a816130ac565b801515613096565b803561227a816130bd565b600080600080600060a086880312156130eb576130eb600080fd5b60006130f788886130a1565b9550506020613108888289016130b2565b9450506040613119888289016130b2565b935050606061312a888289016130c5565b925050608061313b888289016130a1565b9150509295509295909350565b60005b8381101561316357818101518382015260200161314b565b8381111561224d5750506000910152565b600061317e825190565b808452602084019350613195818560208601613148565b601f01601f19169290920192915050565b602080825281016128448184613174565b6000602082840312156131cc576131cc600080fd5b6000612aca84846130a1565b805b82525050565b6020810161227a82846131d8565b6000806040838503121561320457613204600080fd5b600061321085856130b2565b9250506020613221858286016130a1565b9150509250929050565b600061227a8261307c565b600061227a8261322b565b6131da81613236565b6020810161227a8284613241565b60006020828403121561326d5761326d600080fd5b6000612aca84846130b2565b6131da8161307c565b60e08101613290828a613279565b61329d60208301896131d8565b6132aa60408301886131d8565b6132b760608301876131d8565b6132c460808301866131d8565b6132d160a08301856131d8565b6132de60c08301846131d8565b98975050505050505050565b6000806040838503121561330057613300600080fd5b600061330c85856130b2565b9250506020613221858286016130b2565b6040810161332b8285613279565b61284460208301846131d8565b60008083601f84011261334d5761334d600080fd5b50813567ffffffffffffffff81111561336857613368600080fd5b60208301915083602082028301111561338357613383600080fd5b9250929050565b6000806000806000606086880312156133a5576133a5600080fd5b60006133b188886130b2565b955050602086013567ffffffffffffffff8111156133d1576133d1600080fd5b6133dd88828901613338565b9450945050604086013567ffffffffffffffff8111156133ff576133ff600080fd5b61340b88828901613338565b92509250509295509295909350565b8015156131da565b6020810161227a828461341a565b6020810161227a8284613279565b6060810161344c82866131d8565b61345960208301856131d8565b612aca60408301846131d8565b6000806000806080858703121561347f5761347f600080fd5b600061348b87876130b2565b945050602061349c878288016130b2565b93505060406134ad878288016130b2565b92505060606134be878288016130c5565b91505092959194509250565b80516134d68382613279565b5060208101516134e960208401826131d8565b5060408101516134fc60408401826131d8565b50606081015161350f60608401826131d8565b50608081015161352260808401826131d8565b5060a081015161353560a08401826131d8565b5060c0810151612e6c60c08401826131d8565b61355282826134ca565b5060e00190565b60200190565b6000613569825190565b808452602093840193830160005b8281101561359c57815161358b8782613548565b965050602082019150600101613577565b5093949350505050565b60208082528101612844818461355f565b600080604083850312156135cd576135cd600080fd5b600061330c85856130a1565b600c8152602081017f5a65726f2061646472657373000000000000000000000000000000000000000081529050613559565b6020808252810161227a816135d9565b60208082527f4f776e61626c653a2063616c6c6572206973206e6f7420746865206f776e65729101908152613559565b6020808252810161227a8161361b565b60108152602081017f5061757361626c653a207061757365640000000000000000000000000000000081529050613559565b6020808252810161227a8161365b565b60138152602081017f416c726561647920696e2074686520706f6f6c0000000000000000000000000081529050613559565b6020808252810161227a8161369d565b600a8152602081017f4f6e6c7920626f6e75730000000000000000000000000000000000000000000081529050613559565b6020808252810161227a816136df565b634e487b7160e01b600052601160045260246000fd5b60006001820161374957613749613721565b5060010190565b6060810161344c8286613279565b601f8152602081017f5265656e7472616e637947756172643a207265656e7472616e742063616c6c0081529050613559565b6020808252810161227a8161375e565b634e487b7160e01b600052603260045260246000fd5b60008160001904831182151516156137d0576137d0613721565b500290565b600082198211156137e8576137e8613721565b500190565b634e487b7160e01b600052601260045260246000fd5b600082613812576138126137ed565b500490565b60008282101561382957613829613721565b500390565b60118152602081017f4e6f2070656e64696e672072657761726400000000000000000000000000000081529050613559565b6020808252810161227a8161382e565b805161227a816130ac565b60006020828403121561389057613890600080fd5b6000612aca8484613870565b60a081016138aa8288613279565b6138b76020830187613279565b6138c46040830186613279565b6138d160608301856131d8565b6138de60808301846131d8565b9695505050505050565b608081016138f68287613279565b6139036020830186613279565b61391060408301856131d8565b61391d60608301846131d8565b95945050505050565b600b8152602081017f5a65726f20616d6f756e7400000000000000000000000000000000000000000081529050613559565b6020808252810161227a81613926565b60198152602081017f4e6f7420656e6f756768207374616b696e6742616c616e63650000000000000081529050613559565b6020808252810161227a81613968565b604081016139b88285613279565b6128446020830184613279565b60138152602081017f506f6f6c206973206e6f74206661726d696e670000000000000000000000000081529050613559565b6020808252810161227a816139c5565b60128152602081017f43616e206e6f74207374616b65207a65726f000000000000000000000000000081529050613559565b6020808252810161227a81613a07565b602f8152602081017f43616e206e6f74207365742073746172742074696d657374616d70206166746581527f7220616464696e67206120706f6f6c0000000000000000000000000000000000602082015290505b60400190565b6020808252810161227a81613a49565b602e8152602081017f496e697469616c697a61626c653a20636f6e747261637420697320616c72656181527f647920696e697469616c697a656400000000000000000000000000000000000060208201529050613a9d565b6020808252810161227a81613ab3565b600f8152602081017f506f6f6c206e6f7420657869737473000000000000000000000000000000000081529050613559565b6020808252810161227a81613b1b565b6040810161332b82856131d8565b60138152602081017f4f6e6c7920766544454720636f6e74726163740000000000000000000000000081529050613559565b6020808252810161227a81613b6b565b60268152602081017f4f776e61626c653a206e6577206f776e657220697320746865207a65726f206181527f646472657373000000000000000000000000000000000000000000000000000060208201529050613a9d565b6020808252810161227a81613bad565b601a8152602081017f4e6f20446567697320746f6b656e20696e2074686520706f6f6c00000000000081529050613559565b6020808252810161227a81613c15565b60148152602081017f5061757361626c653a206e6f742070617573656400000000000000000000000081529050613559565b6020808252810161227a81613c57565b600081613ca857613ca8613721565b506000190190565b602b8152602081017f496e697469616c697a61626c653a20636f6e7472616374206973206e6f74206981527f6e697469616c697a696e6700000000000000000000000000000000000000000060208201529050613a9d565b6020808252810161227a81613cb0565b60608101613d268286613279565b6134596020830185613279565b805161227a816130bd565b600060208284031215613d5357613d53600080fd5b6000612aca8484613d33565b602a8152602081017f5361666545524332303a204552433230206f7065726174696f6e20646964206e81527f6f7420737563636565640000000000000000000000000000000000000000000060208201529050613a9d565b6020808252810161227a81613d5f565b601d8152602081017f416464726573733a2063616c6c20746f206e6f6e2d636f6e747261637400000081529050613559565b6020808252810161227a81613dc7565b6000613e13825190565b613e21818560208601613148565b9290920192915050565b61227a8183613e0956fea264697066735822122098daa798d4fe57286ce22bbca3f1f6e4b7deb711302558eafbe7a386af0b0b0164736f6c634300080d0033",
  "devdoc": {
    "details": "The pool id starts from 1 rather than 0         The degis reward is calculated by timestamp rather than block number         VeDEG will boost the farming speed by having a extra reward type         The extra reward is shared by those staking lptokens with veDEG balances         Every time the veDEG balance change, the reward will be updated         The basic reward depends on the liquidity inside the pool (optional)         Update with a piecewise function         liquidity amount:   |---------------|------------------|----------------                             0           threshold 1        threshold 2          reward speed:            speed1          speed2             speed3         The speed update will be updated one tx after the last tx that triggers the threshold         The reward update will be another one tx later         This piecewise-style reward can be used or not for each pool to decide         Ways to start pools: 1) set the basic reward to >0 2) set the piecewise and threshold to >0                 stop pools: 1) set the basic reward to 0 2) set the piecewise and threshold to 0         Double Reward",
    "kind": "dev",
    "methods": {
      "add(address,uint256,uint256,bool,address)": {
        "details": "Can only be called by the owner      The reward speed can be 0 and set later by setDegisReward function      The pool may have a double reward token",
        "params": {
          "_basicDegisPerSecond": "Basic reward speed(per second) for this new pool",
          "_bonusDegisPerSecond": "Bonus reward speed(per second) for this new pool",
          "_doubleRewardToken": "Double reward token address",
          "_lpToken": "LP token address",
          "_withUpdate": "Whether update all pools' status"
        }
      },
      "getPoolList()": {
        "returns": {
          "_0": "pooList Total pool list"
        }
      },
      "getUserBalance(uint256,address)": {
        "params": {
          "_poolId": "Id of the pool",
          "_user": "User address"
        },
        "returns": {
          "_0": "balance User's balance (lpToken)"
        }
      },
      "harvest(uint256,address)": {
        "params": {
          "_poolId": "Id of the farming pool",
          "_to": "Receiver of degis rewards"
        }
      },
      "massUpdatePools()": {
        "details": "Can be called by anyone      Only update those active pools"
      },
      "owner()": {
        "details": "Returns the address of the current owner."
      },
      "paused()": {
        "details": "Returns true if the contract is paused, and false otherwise."
      },
      "pendingDegis(uint256,address)": {
        "params": {
          "_poolId": "PoolId of this farming pool",
          "_user": "User address"
        },
        "returns": {
          "_0": "pendingDegisAmount Amount of pending degis"
        }
      },
      "renounceOwnership()": {
        "details": "Leaves the contract without owner. It will not be possible to call `onlyOwner` functions anymore. Can only be called by the current owner. NOTE: Renouncing ownership will leave the contract without an owner, thereby removing any functionality that is only available to the owner."
      },
      "setDegisReward(uint256,uint256,uint256,bool)": {
        "params": {
          "_basicDegisPerSecond": "New basic reward amount per second",
          "_bonusDegisPerSecond": "New bonus reward amount per second",
          "_poolId": "Id of the farming pool",
          "_withUpdate": "Whether update all pools"
        }
      },
      "setPiecewise(uint256,uint256[],uint256[])": {
        "params": {
          "_poolId": "Id of the pool",
          "_reward": "Piecewise reward",
          "_threshold": "Piecewise threshold"
        }
      },
      "setStartTimestamp(uint256)": {
        "params": {
          "_startTimestamp": "New start block timestamp"
        }
      },
      "stake(uint256,uint256)": {
        "details": "Can only stake to the pools that are still farming",
        "params": {
          "_amount": "Staking amount",
          "_poolId": "Id of the farming pool"
        }
      },
      "transferOwnership(address)": {
        "details": "Transfers ownership of the contract to a new account (`newOwner`). Can only be called by the current owner."
      },
      "updateBonus(address,uint256)": {
        "details": "When veDEG has balance change      Only called by veDEG contract",
        "params": {
          "_newVeDEGBalance": "New veDEG balance",
          "_user": "User address"
        }
      },
      "updatePool(uint256)": {
        "params": {
          "_poolId": "Id of the farming pool"
        }
      },
      "withdraw(uint256,uint256)": {
        "params": {
          "_amount": "Amount of lp tokens to withdraw",
          "_poolId": "Id of the farming pool"
        }
      }
    },
    "title": "Farming Pool",
    "version": 1
  },
  "userdoc": {
    "kind": "user",
    "methods": {
      "add(address,uint256,uint256,bool,address)": {
        "notice": "Add a new lp into the pool"
      },
      "getPoolList()": {
        "notice": "Get the total pool list"
      },
      "getUserBalance(uint256,address)": {
        "notice": "Get a user's balance"
      },
      "harvest(uint256,address)": {
        "notice": "Harvest the degis reward and can be sent to another address"
      },
      "massUpdatePools()": {
        "notice": "Update all farming pools (except for those stopped ones)"
      },
      "pendingDegis(uint256,address)": {
        "notice": "Check the amount of pending degis reward"
      },
      "setDegisReward(uint256,uint256,uint256,bool)": {
        "notice": "Update the degisPerSecond for a specific pool (set to 0 to stop farming)"
      },
      "setDoubleRewarderContract(address)": {
        "notice": "Set double rewarder contract"
      },
      "setPiecewise(uint256,uint256[],uint256[])": {
        "notice": "Set piecewise reward and threshold"
      },
      "setStartTimestamp(uint256)": {
        "notice": "Set the start block timestamp"
      },
      "stake(uint256,uint256)": {
        "notice": "Stake LP token into the farming pool"
      },
      "updateBonus(address,uint256)": {
        "notice": "Update a user's bonus"
      },
      "updatePool(uint256)": {
        "notice": "Update the pool's reward status"
      },
      "withdraw(uint256,uint256)": {
        "notice": "Withdraw lptoken from the pool\\"
      }
    },
    "notice": "This contract is for LPToken mining on Degis",
    "version": 1
  },
  "storageLayout": {
    "storage": [
      {
        "astId": 2670,
        "contract": "contracts/farming/FarmingPoolUpgradeable.sol:FarmingPoolUpgradeable",
        "label": "_initialized",
        "offset": 0,
        "slot": "0",
        "type": "t_bool"
      },
      {
        "astId": 2673,
        "contract": "contracts/farming/FarmingPoolUpgradeable.sol:FarmingPoolUpgradeable",
        "label": "_initializing",
        "offset": 1,
        "slot": "0",
        "type": "t_bool"
      },
      {
        "astId": 3907,
        "contract": "contracts/farming/FarmingPoolUpgradeable.sol:FarmingPoolUpgradeable",
        "label": "__gap",
        "offset": 0,
        "slot": "1",
        "type": "t_array(t_uint256)50_storage"
      },
      {
        "astId": 2550,
        "contract": "contracts/farming/FarmingPoolUpgradeable.sol:FarmingPoolUpgradeable",
        "label": "_owner",
        "offset": 0,
        "slot": "51",
        "type": "t_address"
      },
      {
        "astId": 2662,
        "contract": "contracts/farming/FarmingPoolUpgradeable.sol:FarmingPoolUpgradeable",
        "label": "__gap",
        "offset": 0,
        "slot": "52",
        "type": "t_array(t_uint256)49_storage"
      },
      {
        "astId": 2862,
        "contract": "contracts/farming/FarmingPoolUpgradeable.sol:FarmingPoolUpgradeable",
        "label": "_status",
        "offset": 0,
        "slot": "101",
        "type": "t_uint256"
      },
      {
        "astId": 2906,
        "contract": "contracts/farming/FarmingPoolUpgradeable.sol:FarmingPoolUpgradeable",
        "label": "__gap",
        "offset": 0,
        "slot": "102",
        "type": "t_array(t_uint256)49_storage"
      },
      {
        "astId": 2758,
        "contract": "contracts/farming/FarmingPoolUpgradeable.sol:FarmingPoolUpgradeable",
        "label": "_paused",
        "offset": 0,
        "slot": "151",
        "type": "t_bool"
      },
      {
        "astId": 2847,
        "contract": "contracts/farming/FarmingPoolUpgradeable.sol:FarmingPoolUpgradeable",
        "label": "__gap",
        "offset": 0,
        "slot": "152",
        "type": "t_array(t_uint256)49_storage"
      },
      {
        "astId": 12947,
        "contract": "contracts/farming/FarmingPoolUpgradeable.sol:FarmingPoolUpgradeable",
        "label": "degis",
        "offset": 0,
        "slot": "201",
        "type": "t_contract(IDegisToken)39939"
      },
      {
        "astId": 12950,
        "contract": "contracts/farming/FarmingPoolUpgradeable.sol:FarmingPoolUpgradeable",
        "label": "veDEG",
        "offset": 0,
        "slot": "202",
        "type": "t_contract(IVeDEG)18355"
      },
      {
        "astId": 12955,
        "contract": "contracts/farming/FarmingPoolUpgradeable.sol:FarmingPoolUpgradeable",
        "label": "_nextPoolId",
        "offset": 0,
        "slot": "203",
        "type": "t_uint256"
      },
      {
        "astId": 12957,
        "contract": "contracts/farming/FarmingPoolUpgradeable.sol:FarmingPoolUpgradeable",
        "label": "startTimestamp",
        "offset": 0,
        "slot": "204",
        "type": "t_uint256"
      },
      {
        "astId": 12976,
        "contract": "contracts/farming/FarmingPoolUpgradeable.sol:FarmingPoolUpgradeable",
        "label": "poolList",
        "offset": 0,
        "slot": "205",
        "type": "t_array(t_struct(PoolInfo)12972_storage)dyn_storage"
      },
      {
        "astId": 12980,
        "contract": "contracts/farming/FarmingPoolUpgradeable.sol:FarmingPoolUpgradeable",
        "label": "poolMapping",
        "offset": 0,
        "slot": "206",
        "type": "t_mapping(t_address,t_uint256)"
      },
      {
        "astId": 12984,
        "contract": "contracts/farming/FarmingPoolUpgradeable.sol:FarmingPoolUpgradeable",
        "label": "isFarming",
        "offset": 0,
        "slot": "207",
        "type": "t_mapping(t_uint256,t_bool)"
      },
      {
        "astId": 12998,
        "contract": "contracts/farming/FarmingPoolUpgradeable.sol:FarmingPoolUpgradeable",
        "label": "userInfo",
        "offset": 0,
        "slot": "208",
        "type": "t_mapping(t_uint256,t_mapping(t_address,t_struct(UserInfo)12991_storage))"
      },
      {
        "astId": 13004,
        "contract": "contracts/farming/FarmingPoolUpgradeable.sol:FarmingPoolUpgradeable",
        "label": "extraClaimable",
        "offset": 0,
        "slot": "209",
        "type": "t_mapping(t_uint256,t_mapping(t_address,t_uint256))"
      },
      {
        "astId": 13009,
        "contract": "contracts/farming/FarmingPoolUpgradeable.sol:FarmingPoolUpgradeable",
        "label": "thresholdBasic",
        "offset": 0,
        "slot": "210",
        "type": "t_mapping(t_uint256,t_array(t_uint256)dyn_storage)"
      },
      {
        "astId": 13014,
        "contract": "contracts/farming/FarmingPoolUpgradeable.sol:FarmingPoolUpgradeable",
        "label": "piecewiseBasic",
        "offset": 0,
        "slot": "211",
        "type": "t_mapping(t_uint256,t_array(t_uint256)dyn_storage)"
      },
      {
        "astId": 13016,
        "contract": "contracts/farming/FarmingPoolUpgradeable.sol:FarmingPoolUpgradeable",
        "label": "currentRewardLevel",
        "offset": 0,
        "slot": "212",
        "type": "t_uint256"
      },
      {
        "astId": 13020,
        "contract": "contracts/farming/FarmingPoolUpgradeable.sol:FarmingPoolUpgradeable",
        "label": "poolRewardLevel",
        "offset": 0,
        "slot": "213",
        "type": "t_mapping(t_uint256,t_uint256)"
      },
      {
        "astId": 13024,
        "contract": "contracts/farming/FarmingPoolUpgradeable.sol:FarmingPoolUpgradeable",
        "label": "doubleRewarder",
        "offset": 0,
        "slot": "214",
        "type": "t_mapping(t_uint256,t_address)"
      },
      {
        "astId": 13027,
        "contract": "contracts/farming/FarmingPoolUpgradeable.sol:FarmingPoolUpgradeable",
        "label": "doubleRewarderContract",
        "offset": 0,
        "slot": "215",
        "type": "t_contract(IDoubleRewarder)15866"
      }
    ],
    "types": {
      "t_address": {
        "encoding": "inplace",
        "label": "address",
        "numberOfBytes": "20"
      },
      "t_array(t_struct(PoolInfo)12972_storage)dyn_storage": {
        "base": "t_struct(PoolInfo)12972_storage",
        "encoding": "dynamic_array",
        "label": "struct FarmingPoolUpgradeable.PoolInfo[]",
        "numberOfBytes": "32"
      },
      "t_array(t_uint256)49_storage": {
        "base": "t_uint256",
        "encoding": "inplace",
        "label": "uint256[49]",
        "numberOfBytes": "1568"
      },
      "t_array(t_uint256)50_storage": {
        "base": "t_uint256",
        "encoding": "inplace",
        "label": "uint256[50]",
        "numberOfBytes": "1600"
      },
      "t_array(t_uint256)dyn_storage": {
        "base": "t_uint256",
        "encoding": "dynamic_array",
        "label": "uint256[]",
        "numberOfBytes": "32"
      },
      "t_bool": {
        "encoding": "inplace",
        "label": "bool",
        "numberOfBytes": "1"
      },
      "t_contract(IDegisToken)39939": {
        "encoding": "inplace",
        "label": "contract IDegisToken",
        "numberOfBytes": "20"
      },
      "t_contract(IDoubleRewarder)15866": {
        "encoding": "inplace",
        "label": "contract IDoubleRewarder",
        "numberOfBytes": "20"
      },
      "t_contract(IVeDEG)18355": {
        "encoding": "inplace",
        "label": "contract IVeDEG",
        "numberOfBytes": "20"
      },
      "t_mapping(t_address,t_struct(UserInfo)12991_storage)": {
        "encoding": "mapping",
        "key": "t_address",
        "label": "mapping(address => struct FarmingPoolUpgradeable.UserInfo)",
        "numberOfBytes": "32",
        "value": "t_struct(UserInfo)12991_storage"
      },
      "t_mapping(t_address,t_uint256)": {
        "encoding": "mapping",
        "key": "t_address",
        "label": "mapping(address => uint256)",
        "numberOfBytes": "32",
        "value": "t_uint256"
      },
      "t_mapping(t_uint256,t_address)": {
        "encoding": "mapping",
        "key": "t_uint256",
        "label": "mapping(uint256 => address)",
        "numberOfBytes": "32",
        "value": "t_address"
      },
      "t_mapping(t_uint256,t_array(t_uint256)dyn_storage)": {
        "encoding": "mapping",
        "key": "t_uint256",
        "label": "mapping(uint256 => uint256[])",
        "numberOfBytes": "32",
        "value": "t_array(t_uint256)dyn_storage"
      },
      "t_mapping(t_uint256,t_bool)": {
        "encoding": "mapping",
        "key": "t_uint256",
        "label": "mapping(uint256 => bool)",
        "numberOfBytes": "32",
        "value": "t_bool"
      },
      "t_mapping(t_uint256,t_mapping(t_address,t_struct(UserInfo)12991_storage))": {
        "encoding": "mapping",
        "key": "t_uint256",
        "label": "mapping(uint256 => mapping(address => struct FarmingPoolUpgradeable.UserInfo))",
        "numberOfBytes": "32",
        "value": "t_mapping(t_address,t_struct(UserInfo)12991_storage)"
      },
      "t_mapping(t_uint256,t_mapping(t_address,t_uint256))": {
        "encoding": "mapping",
        "key": "t_uint256",
        "label": "mapping(uint256 => mapping(address => uint256))",
        "numberOfBytes": "32",
        "value": "t_mapping(t_address,t_uint256)"
      },
      "t_mapping(t_uint256,t_uint256)": {
        "encoding": "mapping",
        "key": "t_uint256",
        "label": "mapping(uint256 => uint256)",
        "numberOfBytes": "32",
        "value": "t_uint256"
      },
      "t_struct(PoolInfo)12972_storage": {
        "encoding": "inplace",
        "label": "struct FarmingPoolUpgradeable.PoolInfo",
        "members": [
          {
            "astId": 12959,
            "contract": "contracts/farming/FarmingPoolUpgradeable.sol:FarmingPoolUpgradeable",
            "label": "lpToken",
            "offset": 0,
            "slot": "0",
            "type": "t_address"
          },
          {
            "astId": 12961,
            "contract": "contracts/farming/FarmingPoolUpgradeable.sol:FarmingPoolUpgradeable",
            "label": "basicDegisPerSecond",
            "offset": 0,
            "slot": "1",
            "type": "t_uint256"
          },
          {
            "astId": 12963,
            "contract": "contracts/farming/FarmingPoolUpgradeable.sol:FarmingPoolUpgradeable",
            "label": "bonusDegisPerSecond",
            "offset": 0,
            "slot": "2",
            "type": "t_uint256"
          },
          {
            "astId": 12965,
            "contract": "contracts/farming/FarmingPoolUpgradeable.sol:FarmingPoolUpgradeable",
            "label": "lastRewardTimestamp",
            "offset": 0,
            "slot": "3",
            "type": "t_uint256"
          },
          {
            "astId": 12967,
            "contract": "contracts/farming/FarmingPoolUpgradeable.sol:FarmingPoolUpgradeable",
            "label": "accDegisPerShare",
            "offset": 0,
            "slot": "4",
            "type": "t_uint256"
          },
          {
            "astId": 12969,
            "contract": "contracts/farming/FarmingPoolUpgradeable.sol:FarmingPoolUpgradeable",
            "label": "accDegisPerBonusShare",
            "offset": 0,
            "slot": "5",
            "type": "t_uint256"
          },
          {
            "astId": 12971,
            "contract": "contracts/farming/FarmingPoolUpgradeable.sol:FarmingPoolUpgradeable",
            "label": "totalBonus",
            "offset": 0,
            "slot": "6",
            "type": "t_uint256"
          }
        ],
        "numberOfBytes": "224"
      },
      "t_struct(UserInfo)12991_storage": {
        "encoding": "inplace",
        "label": "struct FarmingPoolUpgradeable.UserInfo",
        "members": [
          {
            "astId": 12986,
            "contract": "contracts/farming/FarmingPoolUpgradeable.sol:FarmingPoolUpgradeable",
            "label": "rewardDebt",
            "offset": 0,
            "slot": "0",
            "type": "t_uint256"
          },
          {
            "astId": 12988,
            "contract": "contracts/farming/FarmingPoolUpgradeable.sol:FarmingPoolUpgradeable",
            "label": "stakingBalance",
            "offset": 0,
            "slot": "1",
            "type": "t_uint256"
          },
          {
            "astId": 12990,
            "contract": "contracts/farming/FarmingPoolUpgradeable.sol:FarmingPoolUpgradeable",
            "label": "bonus",
            "offset": 0,
            "slot": "2",
            "type": "t_uint256"
          }
        ],
        "numberOfBytes": "96"
      },
      "t_uint256": {
        "encoding": "inplace",
        "label": "uint256",
        "numberOfBytes": "32"
      }
    }
  }
}