{
  "address": "0x0DC7682E1dd6c7DCfa11bcAe1803588A2E0E8a78",
  "abi": [
    {
      "anonymous": false,
      "inputs": [
        {
          "indexed": false,
          "internalType": "uint256",
          "name": "poolId",
          "type": "uint256"
        },
        {
          "indexed": false,
          "internalType": "uint256",
          "name": "basicDegisPerSecond",
          "type": "uint256"
        },
        {
          "indexed": false,
          "internalType": "uint256",
          "name": "bonusDegisPerSecond",
          "type": "uint256"
        }
      ],
      "name": "DegisRewardChanged",
      "type": "event"
    },
    {
      "anonymous": false,
      "inputs": [
        {
          "indexed": false,
          "internalType": "uint256",
          "name": "poolId",
          "type": "uint256"
        },
        {
          "indexed": false,
          "internalType": "uint256",
          "name": "timestamp",
          "type": "uint256"
        }
      ],
      "name": "FarmingPoolStarted",
      "type": "event"
    },
    {
      "anonymous": false,
      "inputs": [
        {
          "indexed": false,
          "internalType": "uint256",
          "name": "poolId",
          "type": "uint256"
        },
        {
          "indexed": false,
          "internalType": "uint256",
          "name": "timestamp",
          "type": "uint256"
        }
      ],
      "name": "FarmingPoolStopped",
      "type": "event"
    },
    {
      "anonymous": false,
      "inputs": [
        {
          "indexed": false,
          "internalType": "address",
          "name": "staker",
          "type": "address"
        },
        {
          "indexed": false,
          "internalType": "address",
          "name": "rewardReceiver",
          "type": "address"
        },
        {
          "indexed": false,
          "internalType": "uint256",
          "name": "poolId",
          "type": "uint256"
        },
        {
          "indexed": false,
          "internalType": "uint256",
          "name": "pendingReward",
          "type": "uint256"
        }
      ],
      "name": "Harvest",
      "type": "event"
    },
    {
      "anonymous": false,
      "inputs": [
        {
          "indexed": false,
          "internalType": "address",
          "name": "lpToken",
          "type": "address"
        },
        {
          "indexed": false,
          "internalType": "uint256",
          "name": "basicDegisPerSecond",
          "type": "uint256"
        },
        {
          "indexed": false,
          "internalType": "uint256",
          "name": "bonusDegisPerSecond",
          "type": "uint256"
        }
      ],
      "name": "NewPoolAdded",
      "type": "event"
    },
    {
      "anonymous": false,
      "inputs": [
        {
          "indexed": true,
          "internalType": "address",
          "name": "previousOwner",
          "type": "address"
        },
        {
          "indexed": true,
          "internalType": "address",
          "name": "newOwner",
          "type": "address"
        }
      ],
      "name": "OwnershipTransferred",
      "type": "event"
    },
    {
      "anonymous": false,
      "inputs": [
        {
          "indexed": false,
          "internalType": "address",
          "name": "account",
          "type": "address"
        }
      ],
      "name": "Paused",
      "type": "event"
    },
    {
      "anonymous": false,
      "inputs": [
        {
          "indexed": false,
          "internalType": "uint256",
          "name": "poolId",
          "type": "uint256"
        },
        {
          "indexed": false,
          "internalType": "uint256",
          "name": "accDegisPerShare",
          "type": "uint256"
        },
        {
          "indexed": false,
          "internalType": "uint256",
          "name": "accDegisPerBonusShare",
          "type": "uint256"
        }
      ],
      "name": "PoolUpdated",
      "type": "event"
    },
    {
      "anonymous": false,
      "inputs": [
        {
          "indexed": false,
          "internalType": "address",
          "name": "staker",
          "type": "address"
        },
        {
          "indexed": false,
          "internalType": "uint256",
          "name": "poolId",
          "type": "uint256"
        },
        {
          "indexed": false,
          "internalType": "uint256",
          "name": "amount",
          "type": "uint256"
        }
      ],
      "name": "Stake",
      "type": "event"
    },
    {
      "anonymous": false,
      "inputs": [
        {
          "indexed": false,
          "internalType": "uint256",
          "name": "startTimestamp",
          "type": "uint256"
        }
      ],
      "name": "StartTimestampChanged",
      "type": "event"
    },
    {
      "anonymous": false,
      "inputs": [
        {
          "indexed": false,
          "internalType": "address",
          "name": "account",
          "type": "address"
        }
      ],
      "name": "Unpaused",
      "type": "event"
    },
    {
      "anonymous": false,
      "inputs": [
        {
          "indexed": false,
          "internalType": "address",
          "name": "staker",
          "type": "address"
        },
        {
          "indexed": false,
          "internalType": "uint256",
          "name": "poolId",
          "type": "uint256"
        },
        {
          "indexed": false,
          "internalType": "uint256",
          "name": "amount",
          "type": "uint256"
        }
      ],
      "name": "Withdraw",
      "type": "event"
    },
    {
      "inputs": [],
      "name": "SCALE",
      "outputs": [
        {
          "internalType": "uint256",
          "name": "",
          "type": "uint256"
        }
      ],
      "stateMutability": "view",
      "type": "function"
    },
    {
      "inputs": [],
      "name": "_nextPoolId",
      "outputs": [
        {
          "internalType": "uint256",
          "name": "",
          "type": "uint256"
        }
      ],
      "stateMutability": "view",
      "type": "function"
    },
    {
      "inputs": [
        {
          "internalType": "address",
          "name": "_lpToken",
          "type": "address"
        },
        {
          "internalType": "uint256",
          "name": "_basicDegisPerSecond",
          "type": "uint256"
        },
        {
          "internalType": "uint256",
          "name": "_bonusDegisPerSecond",
          "type": "uint256"
        },
        {
          "internalType": "bool",
          "name": "_withUpdate",
          "type": "bool"
        }
      ],
      "name": "add",
      "outputs": [],
      "stateMutability": "nonpayable",
      "type": "function"
    },
    {
      "inputs": [],
      "name": "degis",
      "outputs": [
        {
          "internalType": "contract IDegisToken",
          "name": "",
          "type": "address"
        }
      ],
      "stateMutability": "view",
      "type": "function"
    },
    {
      "inputs": [
        {
          "internalType": "uint256",
          "name": "",
          "type": "uint256"
        },
        {
          "internalType": "address",
          "name": "",
          "type": "address"
        }
      ],
      "name": "extraClaimable",
      "outputs": [
        {
          "internalType": "uint256",
          "name": "",
          "type": "uint256"
        }
      ],
      "stateMutability": "view",
      "type": "function"
    },
    {
      "inputs": [],
      "name": "getPoolList",
      "outputs": [
        {
          "components": [
            {
              "internalType": "address",
              "name": "lpToken",
              "type": "address"
            },
            {
              "internalType": "uint256",
              "name": "basicDegisPerSecond",
              "type": "uint256"
            },
            {
              "internalType": "uint256",
              "name": "bonusDegisPerSecond",
              "type": "uint256"
            },
            {
              "internalType": "uint256",
              "name": "lastRewardTimestamp",
              "type": "uint256"
            },
            {
              "internalType": "uint256",
              "name": "accDegisPerShare",
              "type": "uint256"
            },
            {
              "internalType": "uint256",
              "name": "accDegisPerBonusShare",
              "type": "uint256"
            },
            {
              "internalType": "uint256",
              "name": "totalBonus",
              "type": "uint256"
            }
          ],
          "internalType": "struct FarmingPoolUpgradeable.PoolInfo[]",
          "name": "",
          "type": "tuple[]"
        }
      ],
      "stateMutability": "view",
      "type": "function"
    },
    {
      "inputs": [
        {
          "internalType": "uint256",
          "name": "_poolId",
          "type": "uint256"
        },
        {
          "internalType": "address",
          "name": "_user",
          "type": "address"
        }
      ],
      "name": "getUserBalance",
      "outputs": [
        {
          "internalType": "uint256",
          "name": "",
          "type": "uint256"
        }
      ],
      "stateMutability": "view",
      "type": "function"
    },
    {
      "inputs": [
        {
          "internalType": "uint256",
          "name": "_poolId",
          "type": "uint256"
        },
        {
          "internalType": "address",
          "name": "_to",
          "type": "address"
        }
      ],
      "name": "harvest",
      "outputs": [],
      "stateMutability": "nonpayable",
      "type": "function"
    },
    {
      "inputs": [
        {
          "internalType": "address",
          "name": "_degis",
          "type": "address"
        }
      ],
      "name": "initialize",
      "outputs": [],
      "stateMutability": "nonpayable",
      "type": "function"
    },
    {
      "inputs": [
        {
          "internalType": "uint256",
          "name": "",
          "type": "uint256"
        }
      ],
      "name": "isFarming",
      "outputs": [
        {
          "internalType": "bool",
          "name": "",
          "type": "bool"
        }
      ],
      "stateMutability": "view",
      "type": "function"
    },
    {
      "inputs": [],
      "name": "massUpdatePools",
      "outputs": [],
      "stateMutability": "nonpayable",
      "type": "function"
    },
    {
      "inputs": [],
      "name": "name",
      "outputs": [
        {
          "internalType": "string",
          "name": "",
          "type": "string"
        }
      ],
      "stateMutability": "view",
      "type": "function"
    },
    {
      "inputs": [],
      "name": "owner",
      "outputs": [
        {
          "internalType": "address",
          "name": "",
          "type": "address"
        }
      ],
      "stateMutability": "view",
      "type": "function"
    },
    {
      "inputs": [],
      "name": "pause",
      "outputs": [],
      "stateMutability": "nonpayable",
      "type": "function"
    },
    {
      "inputs": [],
      "name": "paused",
      "outputs": [
        {
          "internalType": "bool",
          "name": "",
          "type": "bool"
        }
      ],
      "stateMutability": "view",
      "type": "function"
    },
    {
      "inputs": [
        {
          "internalType": "uint256",
          "name": "_poolId",
          "type": "uint256"
        },
        {
          "internalType": "address",
          "name": "_user",
          "type": "address"
        }
      ],
      "name": "pendingDegis",
      "outputs": [
        {
          "internalType": "uint256",
          "name": "",
          "type": "uint256"
        }
      ],
      "stateMutability": "view",
      "type": "function"
    },
    {
      "inputs": [
        {
          "internalType": "uint256",
          "name": "",
          "type": "uint256"
        }
      ],
      "name": "poolList",
      "outputs": [
        {
          "internalType": "address",
          "name": "lpToken",
          "type": "address"
        },
        {
          "internalType": "uint256",
          "name": "basicDegisPerSecond",
          "type": "uint256"
        },
        {
          "internalType": "uint256",
          "name": "bonusDegisPerSecond",
          "type": "uint256"
        },
        {
          "internalType": "uint256",
          "name": "lastRewardTimestamp",
          "type": "uint256"
        },
        {
          "internalType": "uint256",
          "name": "accDegisPerShare",
          "type": "uint256"
        },
        {
          "internalType": "uint256",
          "name": "accDegisPerBonusShare",
          "type": "uint256"
        },
        {
          "internalType": "uint256",
          "name": "totalBonus",
          "type": "uint256"
        }
      ],
      "stateMutability": "view",
      "type": "function"
    },
    {
      "inputs": [
        {
          "internalType": "address",
          "name": "",
          "type": "address"
        }
      ],
      "name": "poolMapping",
      "outputs": [
        {
          "internalType": "uint256",
          "name": "",
          "type": "uint256"
        }
      ],
      "stateMutability": "view",
      "type": "function"
    },
    {
      "inputs": [],
      "name": "renounceOwnership",
      "outputs": [],
      "stateMutability": "nonpayable",
      "type": "function"
    },
    {
      "inputs": [
        {
          "internalType": "uint256",
          "name": "_poolId",
          "type": "uint256"
        },
        {
          "internalType": "uint256",
          "name": "_basicDegisPerSecond",
          "type": "uint256"
        },
        {
          "internalType": "uint256",
          "name": "_bonusDegisPerSecond",
          "type": "uint256"
        },
        {
          "internalType": "bool",
          "name": "_withUpdate",
          "type": "bool"
        }
      ],
      "name": "setDegisReward",
      "outputs": [],
      "stateMutability": "nonpayable",
      "type": "function"
    },
    {
      "inputs": [
        {
          "internalType": "uint256",
          "name": "_startTimestamp",
          "type": "uint256"
        }
      ],
      "name": "setStartTimestamp",
      "outputs": [],
      "stateMutability": "nonpayable",
      "type": "function"
    },
    {
      "inputs": [
        {
          "internalType": "address",
          "name": "_veDEG",
          "type": "address"
        }
      ],
      "name": "setVeDEG",
      "outputs": [],
      "stateMutability": "nonpayable",
      "type": "function"
    },
    {
      "inputs": [
        {
          "internalType": "uint256",
          "name": "_poolId",
          "type": "uint256"
        },
        {
          "internalType": "uint256",
          "name": "_amount",
          "type": "uint256"
        }
      ],
      "name": "stake",
      "outputs": [],
      "stateMutability": "nonpayable",
      "type": "function"
    },
    {
      "inputs": [],
      "name": "startTimestamp",
      "outputs": [
        {
          "internalType": "uint256",
          "name": "",
          "type": "uint256"
        }
      ],
      "stateMutability": "view",
      "type": "function"
    },
    {
      "inputs": [
        {
          "internalType": "address",
          "name": "newOwner",
          "type": "address"
        }
      ],
      "name": "transferOwnership",
      "outputs": [],
      "stateMutability": "nonpayable",
      "type": "function"
    },
    {
      "inputs": [],
      "name": "unpause",
      "outputs": [],
      "stateMutability": "nonpayable",
      "type": "function"
    },
    {
      "inputs": [
        {
          "internalType": "address",
          "name": "_user",
          "type": "address"
        },
        {
          "internalType": "uint256",
          "name": "_newVeDEGBalance",
          "type": "uint256"
        }
      ],
      "name": "updateBonus",
      "outputs": [],
      "stateMutability": "nonpayable",
      "type": "function"
    },
    {
      "inputs": [
        {
          "internalType": "uint256",
          "name": "_poolId",
          "type": "uint256"
        }
      ],
      "name": "updatePool",
      "outputs": [],
      "stateMutability": "nonpayable",
      "type": "function"
    },
    {
      "inputs": [
        {
          "internalType": "uint256",
          "name": "",
          "type": "uint256"
        },
        {
          "internalType": "address",
          "name": "",
          "type": "address"
        }
      ],
      "name": "userInfo",
      "outputs": [
        {
          "internalType": "uint256",
          "name": "rewardDebt",
          "type": "uint256"
        },
        {
          "internalType": "uint256",
          "name": "stakingBalance",
          "type": "uint256"
        },
        {
          "internalType": "uint256",
          "name": "bonus",
          "type": "uint256"
        }
      ],
      "stateMutability": "view",
      "type": "function"
    },
    {
      "inputs": [],
      "name": "veDEG",
      "outputs": [
        {
          "internalType": "contract IVeDEG",
          "name": "",
          "type": "address"
        }
      ],
      "stateMutability": "view",
      "type": "function"
    },
    {
      "inputs": [
        {
          "internalType": "uint256",
          "name": "_poolId",
          "type": "uint256"
        },
        {
          "internalType": "uint256",
          "name": "_amount",
          "type": "uint256"
        }
      ],
      "name": "withdraw",
      "outputs": [],
      "stateMutability": "nonpayable",
      "type": "function"
    }
  ],
  "transactionHash": "0xc74ab162dda903089bbdfaf3d5449471250c7c7b8611e9a921b5d268cd96a0ee",
  "args": [],
  "numDeployments": 2,
  "solcInputHash": "f7513d186434e74e379e5ee8ecb9c9bb",
  "bytecode": "0x608060405234801561001057600080fd5b50613226806100206000396000f3fe608060405234801561001057600080fd5b50600436106101e55760003560e01c80638456cb591161010f578063cdfb6cf3116100a2578063e4a7631511610071578063e4a7631514610497578063e6fd48bc146104aa578063eced5526146104b3578063f2fde38b146104bf57600080fd5b8063cdfb6cf314610449578063d13f67bc1461045c578063d41dcbea1461046f578063d54465181461048457600080fd5b8063c44bef75116100de578063c44bef75146103e5578063c4d66de8146103f8578063c73d2bae1461040b578063cdcd29071461043657600080fd5b80638456cb59146103585780638da5cb5b1461036057806393f1a40b14610379578063a06ddcb3146103c257600080fd5b80633f4ba83a116101875780635c975abb116101565780635c975abb14610321578063630b5ba114610335578063715018a61461033d5780637b0472f01461034557600080fd5b80633f4ba83a146102e0578063441a3e70146102e85780634f3e7ba6146102fb57806351eb05a61461030e57600080fd5b806318fccc76116101c357806318fccc761461026757806329fd20071461027a5780632a48235b1461029a5780632c678a3e146102c057600080fd5b806306fdde03146101ea57806307a96cbf1461023c57806317fb77de14610251575b600080fd5b6102266040518060400160405280601581526020017f4465676973204c50204661726d696e6720506f6f6c000000000000000000000081525081565b6040516102339190612646565b60405180910390f35b61024f61024a366004612687565b6104d2565b005b61025a60cb5481565b60405161023391906126b0565b61024f6102753660046126cf565b610534565b60c95461028d906001600160a01b031681565b604051610233919061272b565b6102ad6102a8366004612739565b610777565b6040516102339796959493929190612763565b61025a6102ce366004612687565b60ce6020526000908152604090205481565b61024f6107d0565b61024f6102f63660046127cb565b610804565b60ca5461028d906001600160a01b031681565b61024f61031c366004612739565b610b58565b60975460ff165b6040516102339190612806565b61024f610d84565b61024f610dcc565b61024f6103533660046127cb565b610e00565b61024f61113a565b6033546001600160a01b03166040516102339190612814565b6103b36103873660046126cf565b60d060209081526000928352604080842090915290825290208054600182015460029092015490919083565b60405161023393929190612822565b6103286103d0366004612739565b60cf6020526000908152604090205460ff1681565b61024f6103f3366004612739565b61116c565b61024f610406366004612687565b61121b565b61025a6104193660046126cf565b60d160209081526000928352604080842090915290825290205481565b61024f61044436600461285d565b611462565b61025a6104573660046126cf565b61169c565b61025a61046a3660046126cf565b6116c9565b61047761197c565b604051610233919061299d565b61024f6104923660046129ae565b611a24565b61024f6104a53660046129d0565b611c04565b61025a60cc5481565b61025a64e8d4a5100081565b61024f6104cd366004612687565b611eec565b6033546001600160a01b031633146105055760405162461bcd60e51b81526004016104fc90612a25565b60405180910390fd5b60ca805473ffffffffffffffffffffffffffffffffffffffff19166001600160a01b0392909216919091179055565b600260655414156105575760405162461bcd60e51b81526004016104fc90612a67565b600260655560975460ff161561057f5760405162461bcd60e51b81526004016104fc90612aa9565b600082815260cf602052604090205460ff161561059f5761059f82610b58565b600060cd83815481106105b4576105b4612ab9565b600091825260208083206040805160e081018252600790940290910180546001600160a01b03168452600181015484840152600280820154858401526003820154606086015260048201546080860152600582015460a0860190815260069092015460c086015288865260d084528286203380885290855283872080548b895260d1875285892092895291909552928620549151908401549496509294939192909164e8d4a510009161066691612ae5565b8660800151866001015461067a9190612ae5565b6106849190612b04565b61068e9190612b32565b6106989190612b04565b6106a29190612b46565b600086815260d1602090815260408083203384529091528120559050806106db5760405162461bcd60e51b81526004016104fc90612b8f565b64e8d4a510008360a0015183600201546106f59190612ae5565b846080015184600101546107099190612ae5565b6107139190612b04565b61071d9190612b32565b8255600061072b8583611f48565b90507fdec9257d126f56798a34ce7ca0ffedeaa9a024543946f79c3b5038035ba32a1e338688846040516107629493929190612b9f565b60405180910390a15050600160655550505050565b60cd818154811061078757600080fd5b600091825260209091206007909102018054600182015460028301546003840154600485015460058601546006909601546001600160a01b039095169650929491939092919087565b6033546001600160a01b031633146107fa5760405162461bcd60e51b81526004016104fc90612a25565b610802612026565b565b600260655414156108275760405162461bcd60e51b81526004016104fc90612a67565b600260655560975460ff161561084f5760405162461bcd60e51b81526004016104fc90612aa9565b6000811161086f5760405162461bcd60e51b81526004016104fc90612c0f565b600060cd838154811061088457610884612ab9565b6000918252602080832086845260d08252604080852033865290925292206001810154600790920290920192508311156108d05760405162461bcd60e51b81526004016104fc90612c51565b600084815260cf602052604090205460ff16156108f0576108f084610b58565b8054600085815260d1602090815260408083203384529091528120546005850154600285015492939264e8d4a510009161092991612ae5565b8660040154866001015461093d9190612ae5565b6109479190612b04565b6109519190612b32565b61095b9190612b04565b6109659190612b46565b600086815260d16020908152604080832033808552925282208290559192509061098f9083611f48565b90507fdec9257d126f56798a34ce7ca0ffedeaa9a024543946f79c3b5038035ba32a1e333388846040516109c69493929190612b9f565b60405180910390a183546000906109ea906001906001600160a01b0316338961208c565b905080846001016000828254610a009190612b46565b909155505060ca546001600160a01b031615610aca57600284015460ca546040516370a0823160e01b8152610aa2916001600160a01b0316906370a0823190610a4d903390600401612814565b602060405180830381865afa158015610a6a573d6000803e3d6000fd5b505050506040513d601f19601f82011682018060405250810190610a8e9190612c6c565b8660010154610a9d9190612ae5565b6121cf565b6002860181905560068701548291610ab991612b04565b610ac39190612b46565b6006870155505b64e8d4a5100085600501548560020154610ae49190612ae5565b86600401548660010154610af89190612ae5565b610b029190612b04565b610b0c9190612b32565b84556040517ff279e6a1f5e320cca91135676d9cb6e44ca8a08c0b88342bcdb1144f6511b56890610b429033908a908590612c8d565b60405180910390a1505060016065555050505050565b600060cd8281548110610b6d57610b6d612ab9565b9060005260206000209060070201905080600301544211610b8c575050565b80546040516370a0823160e01b81526000916001600160a01b0316906370a0823190610bbc903090600401612814565b602060405180830381865afa158015610bd9573d6000803e3d6000fd5b505050506040513d601f19601f82011682018060405250810190610bfd9190612c6c565b905080610c0f57504260039091015550565b6000826003015442610c219190612b46565b90506000836001015482610c359190612ae5565b90506000846002015483610c499190612ae5565b905083610c5b64e8d4a5100084612ae5565b610c659190612b32565b856004016000828254610c789190612b04565b90915550506006850154610c925760006005860155610cc9565b6006850154610ca664e8d4a5100083612ae5565b610cb09190612b32565b856005016000828254610cc39190612b04565b90915550505b60c9546001600160a01b031663b476739830610ce58486612b04565b6040518363ffffffff1660e01b8152600401610d02929190612c9b565b600060405180830381600087803b158015610d1c57600080fd5b505af1158015610d30573d6000803e3d6000fd5b50504260038801555050600485015460058601546040517f17b8644f386d1c7c7138ef98b3c8035622bbe94d7be9b26f71d2654a547c294392610d74928a92612822565b60405180910390a1505050505050565b60cd5460005b81811015610dc857600081815260cf602052604090205460ff16610dad57610db6565b610db681610b58565b80610dc081612cb6565b915050610d8a565b5050565b6033546001600160a01b03163314610df65760405162461bcd60e51b81526004016104fc90612a25565b610802600061223f565b60026065541415610e235760405162461bcd60e51b81526004016104fc90612a67565b600260655560975460ff1615610e4b5760405162461bcd60e51b81526004016104fc90612aa9565b600082815260cf6020526040902054829060ff16610e7b5760405162461bcd60e51b81526004016104fc90612d03565b60008211610e9b5760405162461bcd60e51b81526004016104fc90612d45565b600060cd8481548110610eb057610eb0612ab9565b6000918252602080832087845260d082526040808520338652909252922060079091029091019150610ee185610b58565b600181015415610fcc578054600086815260d1602090815260408083203384529091528120546005850154600285015492939264e8d4a5100091610f2491612ae5565b86600401548660010154610f389190612ae5565b610f429190612b04565b610f4c9190612b32565b610f569190612b04565b610f609190612b46565b600087815260d160209081526040808320338085529252822082905591925090610f8a9083611f48565b90507fdec9257d126f56798a34ce7ca0ffedeaa9a024543946f79c3b5038035ba32a1e33338984604051610fc19493929190612b9f565b60405180910390a150505b8154600090610fe79082906001600160a01b0316338861208c565b905080826001016000828254610ffd9190612b04565b909155505060ca546001600160a01b0316156110c257600282015460ca546040516370a0823160e01b815261109a916001600160a01b0316906370a082319061104a903390600401612814565b602060405180830381865afa158015611067573d6000803e3d6000fd5b505050506040513d601f19601f8201168201806040525081019061108b9190612c6c565b8460010154610a9d9190612ae5565b60028401819055600685015482916110b191612b04565b6110bb9190612b46565b6006850155505b64e8d4a51000836005015483600201546110dc9190612ae5565b846004015484600101546110f09190612ae5565b6110fa9190612b04565b6111049190612b32565b82556040517f5af417134f72a9d41143ace85b0a26dce6f550f894f2cbc1eeee8810603d91b69061076290339089908590612c8d565b6033546001600160a01b031633146111645760405162461bcd60e51b81526004016104fc90612a25565b61080261229e565b6033546001600160a01b031633146111965760405162461bcd60e51b81526004016104fc90612a25565b60975460ff16156111b95760405162461bcd60e51b81526004016104fc90612aa9565b60cb546001146111db5760405162461bcd60e51b81526004016104fc90612daf565b60cc8190556040517faf8fc8a4c9a55a9a29c3e99cd1797d43062c696f192896c79cbebd7da3286d82906112109083906126b0565b60405180910390a150565b600054610100900460ff166112365760005460ff161561123a565b303b155b6112565760405162461bcd60e51b81526004016104fc90612e17565b600054610100900460ff16158015611278576000805461ffff19166101011790555b6001600160a01b03821661129e5760405162461bcd60e51b81526004016104fc90612e59565b6112a66122f6565b6112ae612325565b6112b6612353565b60c980546001600160a01b0380851673ffffffffffffffffffffffffffffffffffffffff1992831617909255600160cb8190556040805160e081018252600080825260208201818152928201818152606083018281526080840183815260a0850184815260c0860185815260cd8054998a018155909552945160079097027f83978b4c69c48dd978ab43fe30f077615294f938fb7f936d9eb340e51ea7db2e8101805498909a16979098169690961790975592517f83978b4c69c48dd978ab43fe30f077615294f938fb7f936d9eb340e51ea7db2f86015591517f83978b4c69c48dd978ab43fe30f077615294f938fb7f936d9eb340e51ea7db3085015593517f83978b4c69c48dd978ab43fe30f077615294f938fb7f936d9eb340e51ea7db3184015590517f83978b4c69c48dd978ab43fe30f077615294f938fb7f936d9eb340e51ea7db3283015591517f83978b4c69c48dd978ab43fe30f077615294f938fb7f936d9eb340e51ea7db3382015590517f83978b4c69c48dd978ab43fe30f077615294f938fb7f936d9eb340e51ea7db34909101558015610dc8576000805461ff00191690555050565b6033546001600160a01b0316331461148c5760405162461bcd60e51b81526004016104fc90612a25565b60975460ff16156114af5760405162461bcd60e51b81526004016104fc90612aa9565b60cd84815481106114c2576114c2612ab9565b906000526020600020906007020160030154600014156114f45760405162461bcd60e51b81526004016104fc90612e9b565b811561151a576000831161151a5760405162461bcd60e51b81526004016104fc90612edd565b801561152d57611528610d84565b611536565b61153684610b58565b600084815260cf602052604090205460ff161580156115555750600083115b156115ae57600084815260cf602052604090819020805460ff19166001179055517f6140f1d5adcbca6c6b24c3b5e695335cd1a2071c7e03881172dc9eb0e488225c906115a59086904290612eed565b60405180910390a15b8261160857600084815260cf602052604090819020805460ff19169055517f4654f9b7bb3ba4d66e3a4e972e39db189ac7b4fdf5f2a95d57a4eb4d91a16d45906115fb9086904290612eed565b60405180910390a1611696565b8260cd858154811061161c5761161c612ab9565b9060005260206000209060070201600101819055508160cd858154811061164557611645612ab9565b9060005260206000209060070201600201819055507f12558fa101886c4fd9ad5e0b9932a6ffd3653b63380b1da3f024ddaf506c22eb84848460405161168d93929190612822565b60405180910390a15b50505050565b600082815260d0602090815260408083206001600160a01b03851684529091529020600101545b92915050565b60008060cd84815481106116df576116df612ab9565b60009182526020918290206040805160e081018252600790930290910180546001600160a01b0316835260018101549383019390935260028301549082015260038201546060820181905260048301546080830152600583015460a083015260069092015460c08201529150158061175a5750806060015142105b80611766575060cc5442105b156117755760009150506116c3565b600084815260d0602090815260408083206001600160a01b0380881685529083528184208251606081018452815481526001820154948101949094526002015483830152845191516370a0823160e01b81529293929116906370a08231906117e1903090600401612814565b602060405180830381865afa1580156117fe573d6000803e3d6000fd5b505050506040513d601f19601f820116820180604052508101906118229190612c6c565b608084015160a08501519192509082611843576000955050505050506116c3565b600088815260cf602052604090205460ff16156118f757600085606001514261186c9190612b46565b905060008187602001516118809190612ae5565b90508461189264e8d4a5100083612ae5565b61189c9190612b32565b6118a69085612b04565b60c0880151909450156118f45760008288604001516118c59190612ae5565b60c08901519091506118dc64e8d4a5100083612ae5565b6118e69190612b32565b6118f09085612b04565b9350505b50505b8351600089815260d1602090815260408083206001600160a01b038c168452909152808220549087015191929164e8d4a5100090611936908690612ae5565b8689602001516119469190612ae5565b6119509190612b04565b61195a9190612b32565b6119649190612b04565b61196e9190612b46565b96506116c395505050505050565b606060cd805480602002602001604051908101604052809291908181526020016000905b82821015611a1b5760008481526020908190206040805160e0810182526007860290920180546001600160a01b03168352600180820154848601526002820154928401929092526003810154606084015260048101546080840152600581015460a08401526006015460c083015290835290920191016119a0565b50505050905090565b60ca546001600160a01b03163314611a4e5760405162461bcd60e51b81526004016104fc90612f2d565b60cd5460005b8181101561169657600081815260cf602052604090205460ff16611a7757611bf4565b600081815260d0602090815260408083206001600160a01b038816845290915290206001810154611aa85750611bf4565b600060cd8381548110611abd57611abd612ab9565b90600052602060002090600702019050611ad683610b58565b6000826000015464e8d4a5100083600501548560020154611af79190612ae5565b84600401548660010154611b0b9190612ae5565b611b159190612b04565b611b1f9190612b32565b611b299190612b46565b600085815260d1602090815260408083206001600160a01b038c168452909152812080549293508392909190611b60908490612b04565b909155505060028301546001840154600090611b8090610a9d908a612ae5565b60028601819055600585015490915064e8d4a5100090611ba09083612ae5565b85600401548760010154611bb49190612ae5565b611bbe9190612b04565b611bc89190612b32565b855560068401548290611bdc908390612b04565b611be69190612b46565b846006018190555050505050505b611bfd81612cb6565b9050611a54565b836001600160a01b038116611c2b5760405162461bcd60e51b81526004016104fc90612e59565b6033546001600160a01b03163314611c555760405162461bcd60e51b81526004016104fc90612a25565b60975460ff1615611c785760405162461bcd60e51b81526004016104fc90612aa9565b611c8185612386565b15611c9e5760405162461bcd60e51b81526004016104fc90612f6f565b8215611cc45760008411611cc45760405162461bcd60e51b81526004016104fc90612edd565b8115611cd257611cd2610d84565b600060cc544211611ce55760cc54611ce7565b425b6040805160e0810182526001600160a01b038981168252602082018981529282018881526060830185815260006080850181815260a0860182815260c0870183815260cd8054600181018255945296517f83978b4c69c48dd978ab43fe30f077615294f938fb7f936d9eb340e51ea7db2e6007909402938401805473ffffffffffffffffffffffffffffffffffffffff1916919097161790955595517f83978b4c69c48dd978ab43fe30f077615294f938fb7f936d9eb340e51ea7db2f82015591517f83978b4c69c48dd978ab43fe30f077615294f938fb7f936d9eb340e51ea7db30830155517f83978b4c69c48dd978ab43fe30f077615294f938fb7f936d9eb340e51ea7db3182015592517f83978b4c69c48dd978ab43fe30f077615294f938fb7f936d9eb340e51ea7db32840155517f83978b4c69c48dd978ab43fe30f077615294f938fb7f936d9eb340e51ea7db33830155517f83978b4c69c48dd978ab43fe30f077615294f938fb7f936d9eb340e51ea7db349091015590508415611e885760cb54600090815260cf60205260409020805460ff191660011790555b60cb8054906000611e9883612cb6565b909155506001600160a01b038716600090815260ce60205260409081902091909155517f5f9d2cd19aa3f32e9e8cc45267a493f9956c1b955a220136161ff8ad595bc78290610d7490889088908890612c8d565b6033546001600160a01b03163314611f165760405162461bcd60e51b81526004016104fc90612a25565b6001600160a01b038116611f3c5760405162461bcd60e51b81526004016104fc90612fd7565b611f458161223f565b50565b60c9546040516370a0823160e01b815260009182916001600160a01b03909116906370a0823190611f7d903090600401612814565b602060405180830381865afa158015611f9a573d6000803e3d6000fd5b505050506040513d601f19601f82011682018060405250810190611fbe9190612c6c565b905060008111611fe05760405162461bcd60e51b81526004016104fc90613019565b808311156120065760c954611fff906001600160a01b031685836123b5565b90506116c3565b60c95461201d906001600160a01b031685856123b5565b829150506116c3565b60975460ff166120485760405162461bcd60e51b81526004016104fc9061305b565b6097805460ff191690557f5db9ee0a495bf2e6ff9c91a7834c1ba4fdd244a5e8aa4e537bd38aeae4b073aa335b6040516120829190612814565b60405180910390a1565b600080846001600160a01b03166370a08231306040518263ffffffff1660e01b81526004016120bb9190612814565b602060405180830381865afa1580156120d8573d6000803e3d6000fd5b505050506040513d601f19601f820116820180604052508101906120fc9190612c6c565b9050851561211d576121186001600160a01b03861685856123b5565b612132565b6121326001600160a01b03861685308661243d565b6040516370a0823160e01b81526000906001600160a01b038716906370a0823190612161903090600401612814565b602060405180830381865afa15801561217e573d6000803e3d6000fd5b505050506040513d601f19601f820116820180604052508101906121a29190612c6c565b9050866121b8576121b38282612b46565b6121c2565b6121c28183612b46565b925050505b949350505050565b6000600382111561223057508060006121e9600283612b32565b6121f4906001612b04565b90505b8181101561222a5790508060028161220f8186612b32565b6122199190612b04565b6122239190612b32565b90506121f7565b50919050565b811561223a575060015b919050565b603380546001600160a01b0383811673ffffffffffffffffffffffffffffffffffffffff19831681179093556040519116919082907f8be0079c531659141344cd1fd0a4f28419497f9722a3daafe3b4186f6b6457e090600090a35050565b60975460ff16156122c15760405162461bcd60e51b81526004016104fc90612aa9565b6097805460ff191660011790557f62e78cea01bee320cd4e420270b5ea74000d11b0c9f74754ebdbfc544b05a2586120753390565b600054610100900460ff1661231d5760405162461bcd60e51b81526004016104fc906130c3565b61080261245e565b600054610100900460ff1661234c5760405162461bcd60e51b81526004016104fc906130c3565b6001606555565b600054610100900460ff1661237a5760405162461bcd60e51b81526004016104fc906130c3565b6097805460ff19169055565b6001600160a01b038116600090815260ce6020526040812054806123ab5760006123ae565b60015b9392505050565b6124388363a9059cbb60e01b84846040516024016123d4929190612c9b565b60408051601f198184030181529190526020810180517bffffffffffffffffffffffffffffffffffffffffffffffffffffffff167fffffffff000000000000000000000000000000000000000000000000000000009093169290921790915261248e565b505050565b611696846323b872dd60e01b8585856040516024016123d4939291906130d3565b600054610100900460ff166124855760405162461bcd60e51b81526004016104fc906130c3565b6108023361223f565b60006124e3826040518060400160405280602081526020017f5361666545524332303a206c6f772d6c6576656c2063616c6c206661696c6564815250856001600160a01b031661251d9092919063ffffffff16565b805190915015612438578080602001905181019061250191906130f9565b6124385760405162461bcd60e51b81526004016104fc90613172565b60606121c7848460008585843b6125465760405162461bcd60e51b81526004016104fc906131b4565b600080866001600160a01b0316858760405161256291906131e6565b60006040518083038185875af1925050503d806000811461259f576040519150601f19603f3d011682016040523d82523d6000602084013e6125a4565b606091505b50915091506121c2828286606083156125be5750816123ae565b8251156125ce5782518084602001fd5b8160405162461bcd60e51b81526004016104fc9190612646565b60005b838110156126035781810151838201526020016125eb565b838111156116965750506000910152565b600061261e825190565b8084526020840193506126358185602086016125e8565b601f01601f19169290920192915050565b602080825281016123ae8184612614565b60006001600160a01b0382166116c3565b61267181612657565b8114611f4557600080fd5b80356116c381612668565b60006020828403121561269c5761269c600080fd5b60006121c7848461267c565b805b82525050565b602081016116c382846126a8565b80612671565b80356116c3816126be565b600080604083850312156126e5576126e5600080fd5b60006126f185856126c4565b92505060206127028582860161267c565b9150509250929050565b60006116c382612657565b60006116c38261270c565b6126aa81612717565b602081016116c38284612722565b60006020828403121561274e5761274e600080fd5b60006121c784846126c4565b6126aa81612657565b60e08101612771828a61275a565b61277e60208301896126a8565b61278b60408301886126a8565b61279860608301876126a8565b6127a560808301866126a8565b6127b260a08301856126a8565b6127bf60c08301846126a8565b98975050505050505050565b600080604083850312156127e1576127e1600080fd5b60006127ed85856126c4565b9250506020612702858286016126c4565b8015156126aa565b602081016116c382846127fe565b602081016116c3828461275a565b6060810161283082866126a8565b61283d60208301856126a8565b6121c760408301846126a8565b801515612671565b80356116c38161284a565b6000806000806080858703121561287657612876600080fd5b600061288287876126c4565b9450506020612893878288016126c4565b93505060406128a4878288016126c4565b92505060606128b587828801612852565b91505092959194509250565b80516128cd838261275a565b5060208101516128e060208401826126a8565b5060408101516128f360408401826126a8565b50606081015161290660608401826126a8565b50608081015161291960808401826126a8565b5060a081015161292c60a08401826126a8565b5060c081015161243860c08401826126a8565b61294982826128c1565b5060e00190565b60200190565b6000612960825190565b808452602093840193830160005b82811015612993578151612982878261293f565b96505060208201915060010161296e565b5093949350505050565b602080825281016123ae8184612956565b600080604083850312156129c4576129c4600080fd5b60006127ed858561267c565b600080600080608085870312156129e9576129e9600080fd5b6000612882878761267c565b60208082527f4f776e61626c653a2063616c6c6572206973206e6f7420746865206f776e65729101908152612950565b602080825281016116c3816129f5565b601f8152602081017f5265656e7472616e637947756172643a207265656e7472616e742063616c6c0081529050612950565b602080825281016116c381612a35565b60108152602081017f5061757361626c653a207061757365640000000000000000000000000000000081529050612950565b602080825281016116c381612a77565b634e487b7160e01b600052603260045260246000fd5b634e487b7160e01b600052601160045260246000fd5b6000816000190483118215151615612aff57612aff612acf565b500290565b60008219821115612b1757612b17612acf565b500190565b634e487b7160e01b600052601260045260246000fd5b600082612b4157612b41612b1c565b500490565b600082821015612b5857612b58612acf565b500390565b60118152602081017f4e6f2070656e64696e672072657761726400000000000000000000000000000081529050612950565b602080825281016116c381612b5d565b60808101612bad828761275a565b612bba602083018661275a565b612bc760408301856126a8565b612bd460608301846126a8565b95945050505050565b600b8152602081017f5a65726f20616d6f756e7400000000000000000000000000000000000000000081529050612950565b602080825281016116c381612bdd565b60198152602081017f4e6f7420656e6f756768207374616b696e6742616c616e63650000000000000081529050612950565b602080825281016116c381612c1f565b80516116c3816126be565b600060208284031215612c8157612c81600080fd5b60006121c78484612c61565b60608101612830828661275a565b60408101612ca9828561275a565b6123ae60208301846126a8565b6000600019821415612cca57612cca612acf565b5060010190565b60138152602081017f506f6f6c206973206e6f74206661726d696e670000000000000000000000000081529050612950565b602080825281016116c381612cd1565b60128152602081017f43616e206e6f74207374616b65207a65726f000000000000000000000000000081529050612950565b602080825281016116c381612d13565b602f8152602081017f43616e206e6f74207365742073746172742074696d657374616d70206166746581527f7220616464696e67206120706f6f6c0000000000000000000000000000000000602082015290505b60400190565b602080825281016116c381612d55565b602e8152602081017f496e697469616c697a61626c653a20636f6e747261637420697320616c72656181527f647920696e697469616c697a656400000000000000000000000000000000000060208201529050612da9565b602080825281016116c381612dbf565b600c8152602081017f5a65726f2061646472657373000000000000000000000000000000000000000081529050612950565b602080825281016116c381612e27565b600f8152602081017f506f6f6c206e6f7420657869737473000000000000000000000000000000000081529050612950565b602080825281016116c381612e69565b600a8152602081017f4f6e6c7920626f6e75730000000000000000000000000000000000000000000081529050612950565b602080825281016116c381612eab565b60408101612ca982856126a8565b60138152602081017f4f6e6c7920766544454720636f6e74726163740000000000000000000000000081529050612950565b602080825281016116c381612efb565b60138152602081017f416c726561647920696e2074686520706f6f6c0000000000000000000000000081529050612950565b602080825281016116c381612f3d565b60268152602081017f4f776e61626c653a206e6577206f776e657220697320746865207a65726f206181527f646472657373000000000000000000000000000000000000000000000000000060208201529050612da9565b602080825281016116c381612f7f565b601a8152602081017f4e6f20446567697320746f6b656e20696e2074686520706f6f6c00000000000081529050612950565b602080825281016116c381612fe7565b60148152602081017f5061757361626c653a206e6f742070617573656400000000000000000000000081529050612950565b602080825281016116c381613029565b602b8152602081017f496e697469616c697a61626c653a20636f6e7472616374206973206e6f74206981527f6e697469616c697a696e6700000000000000000000000000000000000000000060208201529050612da9565b602080825281016116c38161306b565b606081016130e1828661275a565b61283d602083018561275a565b80516116c38161284a565b60006020828403121561310e5761310e600080fd5b60006121c784846130ee565b602a8152602081017f5361666545524332303a204552433230206f7065726174696f6e20646964206e81527f6f7420737563636565640000000000000000000000000000000000000000000060208201529050612da9565b602080825281016116c38161311a565b601d8152602081017f416464726573733a2063616c6c20746f206e6f6e2d636f6e747261637400000081529050612950565b602080825281016116c381613182565b60006131ce825190565b6131dc8185602086016125e8565b9290920192915050565b6116c381836131c456fea2646970667358221220367a8e565e547c20b63b052d498bb0a0d2930113c48b2d6328fde35af6c2f1c064736f6c634300080a0033",
  "devdoc": {
    "details": "The pool id starts from 1 rather than 0         The degis reward is calculated by timestamp rather than block number         VeDEG will boost the farming speed by having a extra reward type         The extra reward is shared by those staking lptokens with veDEG balances         Every time the veDEG balance change, the reward will be updated",
    "kind": "dev",
    "methods": {
      "add(address,uint256,uint256,bool)": {
        "details": "Can only be called by the owner      The reward speed can be 0 and set later by setDegisReward function",
        "params": {
          "_basicDegisPerSecond": "Basic reward speed(per second) for this new pool",
          "_bonusDegisPerSecond": "Bonus reward speed(per second) for this new pool",
          "_lpToken": "LP token address",
          "_withUpdate": "Whether update all pools' status"
        }
      },
      "getPoolList()": {
        "returns": {
          "_0": "pooList Total pool list"
        }
      },
      "getUserBalance(uint256,address)": {
        "params": {
          "_poolId": "Id of the pool",
          "_user": "User address"
        },
        "returns": {
          "_0": "balance User's balance (lpToken)"
        }
      },
      "harvest(uint256,address)": {
        "params": {
          "_poolId": "Id of the farming pool",
          "_to": "Receiver of degis rewards"
        }
      },
      "massUpdatePools()": {
        "details": "Can be called by anyone      Only update those active pools"
      },
      "owner()": {
        "details": "Returns the address of the current owner."
      },
      "paused()": {
        "details": "Returns true if the contract is paused, and false otherwise."
      },
      "pendingDegis(uint256,address)": {
        "params": {
          "_poolId": "PoolId of this farming pool",
          "_user": "User address"
        },
        "returns": {
          "_0": "pendingDegisAmount Amount of pending degis"
        }
      },
      "renounceOwnership()": {
        "details": "Leaves the contract without owner. It will not be possible to call `onlyOwner` functions anymore. Can only be called by the current owner. NOTE: Renouncing ownership will leave the contract without an owner, thereby removing any functionality that is only available to the owner."
      },
      "setDegisReward(uint256,uint256,uint256,bool)": {
        "params": {
          "_basicDegisPerSecond": "New basic reward amount per second",
          "_bonusDegisPerSecond": "New bonus reward amount per second",
          "_poolId": "Id of the farming pool",
          "_withUpdate": "Whether update all pools"
        }
      },
      "setStartTimestamp(uint256)": {
        "params": {
          "_startTimestamp": "New start block timestamp"
        }
      },
      "stake(uint256,uint256)": {
        "details": "Can only stake to the pools that are still farming",
        "params": {
          "_amount": "Staking amount",
          "_poolId": "Id of the farming pool"
        }
      },
      "transferOwnership(address)": {
        "details": "Transfers ownership of the contract to a new account (`newOwner`). Can only be called by the current owner."
      },
      "updateBonus(address,uint256)": {
        "details": "When veDEG has balance change      Only called by veDEG contract",
        "params": {
          "_newVeDEGBalance": "New veDEG balance",
          "_user": "User address"
        }
      },
      "updatePool(uint256)": {
        "params": {
          "_poolId": "Id of the farming pool"
        }
      },
      "withdraw(uint256,uint256)": {
        "params": {
          "_amount": "Amount of lp tokens to withdraw",
          "_poolId": "Id of the farming pool"
        }
      }
    },
    "title": "Farming Pool",
    "version": 1
  },
  "userdoc": {
    "kind": "user",
    "methods": {
      "add(address,uint256,uint256,bool)": {
        "notice": "Add a new lp into the pool"
      },
      "getPoolList()": {
        "notice": "Get the total pool list"
      },
      "getUserBalance(uint256,address)": {
        "notice": "Get a user's balance"
      },
      "harvest(uint256,address)": {
        "notice": "Harvest the degis reward and can be sent to another address"
      },
      "massUpdatePools()": {
        "notice": "Update all farming pools (except for those stopped ones)"
      },
      "pendingDegis(uint256,address)": {
        "notice": "Check the amount of pending degis reward"
      },
      "setDegisReward(uint256,uint256,uint256,bool)": {
        "notice": "Update the degisPerSecond for a specific pool (set to 0 to stop farming)"
      },
      "setStartTimestamp(uint256)": {
        "notice": "Set the start block timestamp"
      },
      "stake(uint256,uint256)": {
        "notice": "Stake LP token into the farming pool"
      },
      "updateBonus(address,uint256)": {
        "notice": "Update a user's bonus"
      },
      "updatePool(uint256)": {
        "notice": "Update the pool's reward status"
      },
      "withdraw(uint256,uint256)": {
        "notice": "Withdraw lptoken from the pool"
      }
    },
    "notice": "This contract is for LPToken mining on Degis",
    "version": 1
  },
  "storageLayout": {
    "storage": [
      {
        "astId": 2523,
        "contract": "contracts/farming/FarmingPoolUpgradeable.sol:FarmingPoolUpgradeable",
        "label": "_initialized",
        "offset": 0,
        "slot": "0",
        "type": "t_bool"
      },
      {
        "astId": 2526,
        "contract": "contracts/farming/FarmingPoolUpgradeable.sol:FarmingPoolUpgradeable",
        "label": "_initializing",
        "offset": 1,
        "slot": "0",
        "type": "t_bool"
      },
      {
        "astId": 3044,
        "contract": "contracts/farming/FarmingPoolUpgradeable.sol:FarmingPoolUpgradeable",
        "label": "__gap",
        "offset": 0,
        "slot": "1",
        "type": "t_array(t_uint256)50_storage"
      },
      {
        "astId": 2403,
        "contract": "contracts/farming/FarmingPoolUpgradeable.sol:FarmingPoolUpgradeable",
        "label": "_owner",
        "offset": 0,
        "slot": "51",
        "type": "t_address"
      },
      {
        "astId": 2515,
        "contract": "contracts/farming/FarmingPoolUpgradeable.sol:FarmingPoolUpgradeable",
        "label": "__gap",
        "offset": 0,
        "slot": "52",
        "type": "t_array(t_uint256)49_storage"
      },
      {
        "astId": 2715,
        "contract": "contracts/farming/FarmingPoolUpgradeable.sol:FarmingPoolUpgradeable",
        "label": "_status",
        "offset": 0,
        "slot": "101",
        "type": "t_uint256"
      },
      {
        "astId": 2759,
        "contract": "contracts/farming/FarmingPoolUpgradeable.sol:FarmingPoolUpgradeable",
        "label": "__gap",
        "offset": 0,
        "slot": "102",
        "type": "t_array(t_uint256)49_storage"
      },
      {
        "astId": 2611,
        "contract": "contracts/farming/FarmingPoolUpgradeable.sol:FarmingPoolUpgradeable",
        "label": "_paused",
        "offset": 0,
        "slot": "151",
        "type": "t_bool"
      },
      {
        "astId": 2700,
        "contract": "contracts/farming/FarmingPoolUpgradeable.sol:FarmingPoolUpgradeable",
        "label": "__gap",
        "offset": 0,
        "slot": "152",
        "type": "t_array(t_uint256)49_storage"
      },
      {
        "astId": 11010,
        "contract": "contracts/farming/FarmingPoolUpgradeable.sol:FarmingPoolUpgradeable",
        "label": "degis",
        "offset": 0,
        "slot": "201",
        "type": "t_contract(IDegisToken)29710"
      },
      {
        "astId": 11013,
        "contract": "contracts/farming/FarmingPoolUpgradeable.sol:FarmingPoolUpgradeable",
        "label": "veDEG",
        "offset": 0,
        "slot": "202",
        "type": "t_contract(IVeDEG)15456"
      },
      {
        "astId": 11018,
        "contract": "contracts/farming/FarmingPoolUpgradeable.sol:FarmingPoolUpgradeable",
        "label": "_nextPoolId",
        "offset": 0,
        "slot": "203",
        "type": "t_uint256"
      },
      {
        "astId": 11020,
        "contract": "contracts/farming/FarmingPoolUpgradeable.sol:FarmingPoolUpgradeable",
        "label": "startTimestamp",
        "offset": 0,
        "slot": "204",
        "type": "t_uint256"
      },
      {
        "astId": 11039,
        "contract": "contracts/farming/FarmingPoolUpgradeable.sol:FarmingPoolUpgradeable",
        "label": "poolList",
        "offset": 0,
        "slot": "205",
        "type": "t_array(t_struct(PoolInfo)11035_storage)dyn_storage"
      },
      {
        "astId": 11043,
        "contract": "contracts/farming/FarmingPoolUpgradeable.sol:FarmingPoolUpgradeable",
        "label": "poolMapping",
        "offset": 0,
        "slot": "206",
        "type": "t_mapping(t_address,t_uint256)"
      },
      {
        "astId": 11047,
        "contract": "contracts/farming/FarmingPoolUpgradeable.sol:FarmingPoolUpgradeable",
        "label": "isFarming",
        "offset": 0,
        "slot": "207",
        "type": "t_mapping(t_uint256,t_bool)"
      },
      {
        "astId": 11061,
        "contract": "contracts/farming/FarmingPoolUpgradeable.sol:FarmingPoolUpgradeable",
        "label": "userInfo",
        "offset": 0,
        "slot": "208",
        "type": "t_mapping(t_uint256,t_mapping(t_address,t_struct(UserInfo)11054_storage))"
      },
      {
        "astId": 11067,
        "contract": "contracts/farming/FarmingPoolUpgradeable.sol:FarmingPoolUpgradeable",
        "label": "extraClaimable",
        "offset": 0,
        "slot": "209",
        "type": "t_mapping(t_uint256,t_mapping(t_address,t_uint256))"
      }
    ],
    "types": {
      "t_address": {
        "encoding": "inplace",
        "label": "address",
        "numberOfBytes": "20"
      },
      "t_array(t_struct(PoolInfo)11035_storage)dyn_storage": {
        "base": "t_struct(PoolInfo)11035_storage",
        "encoding": "dynamic_array",
        "label": "struct FarmingPoolUpgradeable.PoolInfo[]",
        "numberOfBytes": "32"
      },
      "t_array(t_uint256)49_storage": {
        "base": "t_uint256",
        "encoding": "inplace",
        "label": "uint256[49]",
        "numberOfBytes": "1568"
      },
      "t_array(t_uint256)50_storage": {
        "base": "t_uint256",
        "encoding": "inplace",
        "label": "uint256[50]",
        "numberOfBytes": "1600"
      },
      "t_bool": {
        "encoding": "inplace",
        "label": "bool",
        "numberOfBytes": "1"
      },
      "t_contract(IDegisToken)29710": {
        "encoding": "inplace",
        "label": "contract IDegisToken",
        "numberOfBytes": "20"
      },
      "t_contract(IVeDEG)15456": {
        "encoding": "inplace",
        "label": "contract IVeDEG",
        "numberOfBytes": "20"
      },
      "t_mapping(t_address,t_struct(UserInfo)11054_storage)": {
        "encoding": "mapping",
        "key": "t_address",
        "label": "mapping(address => struct FarmingPoolUpgradeable.UserInfo)",
        "numberOfBytes": "32",
        "value": "t_struct(UserInfo)11054_storage"
      },
      "t_mapping(t_address,t_uint256)": {
        "encoding": "mapping",
        "key": "t_address",
        "label": "mapping(address => uint256)",
        "numberOfBytes": "32",
        "value": "t_uint256"
      },
      "t_mapping(t_uint256,t_bool)": {
        "encoding": "mapping",
        "key": "t_uint256",
        "label": "mapping(uint256 => bool)",
        "numberOfBytes": "32",
        "value": "t_bool"
      },
      "t_mapping(t_uint256,t_mapping(t_address,t_struct(UserInfo)11054_storage))": {
        "encoding": "mapping",
        "key": "t_uint256",
        "label": "mapping(uint256 => mapping(address => struct FarmingPoolUpgradeable.UserInfo))",
        "numberOfBytes": "32",
        "value": "t_mapping(t_address,t_struct(UserInfo)11054_storage)"
      },
      "t_mapping(t_uint256,t_mapping(t_address,t_uint256))": {
        "encoding": "mapping",
        "key": "t_uint256",
        "label": "mapping(uint256 => mapping(address => uint256))",
        "numberOfBytes": "32",
        "value": "t_mapping(t_address,t_uint256)"
      },
      "t_struct(PoolInfo)11035_storage": {
        "encoding": "inplace",
        "label": "struct FarmingPoolUpgradeable.PoolInfo",
        "members": [
          {
            "astId": 11022,
            "contract": "contracts/farming/FarmingPoolUpgradeable.sol:FarmingPoolUpgradeable",
            "label": "lpToken",
            "offset": 0,
            "slot": "0",
            "type": "t_address"
          },
          {
            "astId": 11024,
            "contract": "contracts/farming/FarmingPoolUpgradeable.sol:FarmingPoolUpgradeable",
            "label": "basicDegisPerSecond",
            "offset": 0,
            "slot": "1",
            "type": "t_uint256"
          },
          {
            "astId": 11026,
            "contract": "contracts/farming/FarmingPoolUpgradeable.sol:FarmingPoolUpgradeable",
            "label": "bonusDegisPerSecond",
            "offset": 0,
            "slot": "2",
            "type": "t_uint256"
          },
          {
            "astId": 11028,
            "contract": "contracts/farming/FarmingPoolUpgradeable.sol:FarmingPoolUpgradeable",
            "label": "lastRewardTimestamp",
            "offset": 0,
            "slot": "3",
            "type": "t_uint256"
          },
          {
            "astId": 11030,
            "contract": "contracts/farming/FarmingPoolUpgradeable.sol:FarmingPoolUpgradeable",
            "label": "accDegisPerShare",
            "offset": 0,
            "slot": "4",
            "type": "t_uint256"
          },
          {
            "astId": 11032,
            "contract": "contracts/farming/FarmingPoolUpgradeable.sol:FarmingPoolUpgradeable",
            "label": "accDegisPerBonusShare",
            "offset": 0,
            "slot": "5",
            "type": "t_uint256"
          },
          {
            "astId": 11034,
            "contract": "contracts/farming/FarmingPoolUpgradeable.sol:FarmingPoolUpgradeable",
            "label": "totalBonus",
            "offset": 0,
            "slot": "6",
            "type": "t_uint256"
          }
        ],
        "numberOfBytes": "224"
      },
      "t_struct(UserInfo)11054_storage": {
        "encoding": "inplace",
        "label": "struct FarmingPoolUpgradeable.UserInfo",
        "members": [
          {
            "astId": 11049,
            "contract": "contracts/farming/FarmingPoolUpgradeable.sol:FarmingPoolUpgradeable",
            "label": "rewardDebt",
            "offset": 0,
            "slot": "0",
            "type": "t_uint256"
          },
          {
            "astId": 11051,
            "contract": "contracts/farming/FarmingPoolUpgradeable.sol:FarmingPoolUpgradeable",
            "label": "stakingBalance",
            "offset": 0,
            "slot": "1",
            "type": "t_uint256"
          },
          {
            "astId": 11053,
            "contract": "contracts/farming/FarmingPoolUpgradeable.sol:FarmingPoolUpgradeable",
            "label": "bonus",
            "offset": 0,
            "slot": "2",
            "type": "t_uint256"
          }
        ],
        "numberOfBytes": "96"
      },
      "t_uint256": {
        "encoding": "inplace",
        "label": "uint256",
        "numberOfBytes": "32"
      }
    }
  }
}