{
  "address": "0xC9c99ed9a0AFfCaC88041a429F4b84Ee54633a86",
  "abi": [
    {
      "anonymous": false,
      "inputs": [
        {
          "indexed": false,
          "internalType": "string",
          "name": "policyToken",
          "type": "string"
        },
        {
          "indexed": false,
          "internalType": "address",
          "name": "pair",
          "type": "address"
        },
        {
          "indexed": false,
          "internalType": "uint256",
          "name": "decimals",
          "type": "uint256"
        },
        {
          "indexed": false,
          "internalType": "uint256",
          "name": "sampleInterval",
          "type": "uint256"
        },
        {
          "indexed": false,
          "internalType": "uint256",
          "name": "isToken0",
          "type": "uint256"
        }
      ],
      "name": "NewIDOPair",
      "type": "event"
    },
    {
      "anonymous": false,
      "inputs": [
        {
          "indexed": true,
          "internalType": "address",
          "name": "previousOwner",
          "type": "address"
        },
        {
          "indexed": true,
          "internalType": "address",
          "name": "newOwner",
          "type": "address"
        }
      ],
      "name": "OwnershipTransferred",
      "type": "event"
    },
    {
      "anonymous": false,
      "inputs": [
        {
          "indexed": false,
          "internalType": "string",
          "name": "policyToken",
          "type": "string"
        },
        {
          "indexed": false,
          "internalType": "uint256",
          "name": "priceAverage",
          "type": "uint256"
        },
        {
          "indexed": false,
          "internalType": "uint256",
          "name": "timestamp",
          "type": "uint256"
        }
      ],
      "name": "SamplePrice",
      "type": "event"
    },
    {
      "inputs": [],
      "name": "PERIOD",
      "outputs": [
        {
          "internalType": "uint256",
          "name": "",
          "type": "uint256"
        }
      ],
      "stateMutability": "view",
      "type": "function"
    },
    {
      "inputs": [],
      "name": "WAVAX",
      "outputs": [
        {
          "internalType": "address",
          "name": "",
          "type": "address"
        }
      ],
      "stateMutability": "view",
      "type": "function"
    },
    {
      "inputs": [
        {
          "internalType": "string",
          "name": "_policyToken",
          "type": "string"
        },
        {
          "internalType": "address",
          "name": "_pair",
          "type": "address"
        },
        {
          "internalType": "uint256",
          "name": "_decimals",
          "type": "uint256"
        },
        {
          "internalType": "uint256",
          "name": "_interval",
          "type": "uint256"
        },
        {
          "internalType": "uint256",
          "name": "_startTime",
          "type": "uint256"
        }
      ],
      "name": "addIDOPair",
      "outputs": [],
      "stateMutability": "nonpayable",
      "type": "function"
    },
    {
      "inputs": [],
      "name": "basePriceGetter",
      "outputs": [
        {
          "internalType": "contract IPriceGetter",
          "name": "",
          "type": "address"
        }
      ],
      "stateMutability": "view",
      "type": "function"
    },
    {
      "inputs": [
        {
          "internalType": "string",
          "name": "_policyToken",
          "type": "string"
        }
      ],
      "name": "getLatestPrice",
      "outputs": [
        {
          "internalType": "uint256",
          "name": "price",
          "type": "uint256"
        }
      ],
      "stateMutability": "nonpayable",
      "type": "function"
    },
    {
      "inputs": [
        {
          "internalType": "address",
          "name": "_priceGetter",
          "type": "address"
        },
        {
          "internalType": "address",
          "name": "_policyCore",
          "type": "address"
        }
      ],
      "name": "initialize",
      "outputs": [],
      "stateMutability": "nonpayable",
      "type": "function"
    },
    {
      "inputs": [],
      "name": "owner",
      "outputs": [
        {
          "internalType": "address",
          "name": "",
          "type": "address"
        }
      ],
      "stateMutability": "view",
      "type": "function"
    },
    {
      "inputs": [],
      "name": "policyCore",
      "outputs": [
        {
          "internalType": "contract IPolicyCore",
          "name": "",
          "type": "address"
        }
      ],
      "stateMutability": "view",
      "type": "function"
    },
    {
      "inputs": [
        {
          "internalType": "string",
          "name": "",
          "type": "string"
        }
      ],
      "name": "priceFeeds",
      "outputs": [
        {
          "internalType": "address",
          "name": "pair",
          "type": "address"
        },
        {
          "internalType": "uint256",
          "name": "decimals",
          "type": "uint256"
        },
        {
          "internalType": "uint256",
          "name": "sampleInterval",
          "type": "uint256"
        },
        {
          "internalType": "uint256",
          "name": "isToken0",
          "type": "uint256"
        },
        {
          "internalType": "uint256",
          "name": "priceAverage",
          "type": "uint256"
        },
        {
          "internalType": "uint256",
          "name": "priceCumulativeLast",
          "type": "uint256"
        },
        {
          "internalType": "uint256",
          "name": "lastTimestamp",
          "type": "uint256"
        },
        {
          "internalType": "uint256",
          "name": "startTime",
          "type": "uint256"
        },
        {
          "internalType": "uint256",
          "name": "endTime",
          "type": "uint256"
        }
      ],
      "stateMutability": "view",
      "type": "function"
    },
    {
      "inputs": [],
      "name": "renounceOwnership",
      "outputs": [],
      "stateMutability": "nonpayable",
      "type": "function"
    },
    {
      "inputs": [
        {
          "internalType": "string",
          "name": "_policyToken",
          "type": "string"
        }
      ],
      "name": "samplePrice",
      "outputs": [],
      "stateMutability": "nonpayable",
      "type": "function"
    },
    {
      "inputs": [
        {
          "internalType": "string",
          "name": "_policyToken",
          "type": "string"
        }
      ],
      "name": "setPrice",
      "outputs": [],
      "stateMutability": "nonpayable",
      "type": "function"
    },
    {
      "inputs": [
        {
          "internalType": "address",
          "name": "newOwner",
          "type": "address"
        }
      ],
      "name": "transferOwnership",
      "outputs": [],
      "stateMutability": "nonpayable",
      "type": "function"
    }
  ],
  "transactionHash": "0x68d3f78d58e80b8406f046279b0656d50868c39b969de7dabce7bda044efdbf3",
  "args": [],
  "numDeployments": 2,
  "solcInputHash": "e53107cb2c4921c15c737be532fcbc2d",
  "bytecode": "0x608060405234801561001057600080fd5b50611bf3806100206000396000f3fe608060405234801561001057600080fd5b50600436106100df5760003560e01c8063b4d1d7951161008c578063e239271811610066578063e239271814610223578063e30145e014610236578063f2fde38b14610249578063f66a1b711461025c57600080fd5b8063b4d1d79514610176578063cb8ae86c1461018d578063d2d1072d1461021057600080fd5b806373b295c2116100bd57806373b295c21461012a5780638da5cb5b1461015257806399f486bc1461016357600080fd5b8063485cc955146100e45780636bf8910a146100f9578063715018a614610122575b600080fd5b6100f76100f2366004610fc2565b61026f565b005b60655461010c906001600160a01b031681565b6040516101199190611047565b60405180910390f35b6100f7610331565b61014573b31f66aa3c1e785363f0875a1b74e27b85fd66c781565b604051610119919061105e565b6033546001600160a01b0316610145565b6100f76101713660046110be565b610367565b6101806202a30081565b604051610119919061110c565b6101fb61019b36600461121d565b80516020818301810180516067825292820191909301209152805460018201546002830154600384015460048501546005860154600687015460078801546008909801546001600160a01b03909716979596949593949293919290919089565b60405161011999989796959493929190611258565b6100f761021e3660046112ef565b610395565b6100f76102313660046110be565b610947565b60665461010c906001600160a01b031681565b6100f7610257366004611384565b610af8565b61018061026a3660046110be565b610b54565b600054610100900460ff1661028a5760005460ff161561028e565b303b155b6102b35760405162461bcd60e51b81526004016102aa906113ff565b60405180910390fd5b600054610100900460ff161580156102d5576000805461ffff19166101011790555b6102dd610c50565b606580546001600160a01b0380861673ffffffffffffffffffffffffffffffffffffffff19928316179092556066805492851692909116919091179055801561032c576000805461ff00191690555b505050565b6033546001600160a01b0316331461035b5760405162461bcd60e51b81526004016102aa90611441565b6103656000610c7f565b565b6033546001600160a01b031633146103915760405162461bcd60e51b81526004016102aa90611441565b5050565b6033546001600160a01b031633146103bf5760405162461bcd60e51b81526004016102aa90611441565b60006001600160a01b0316846001600160a01b0316630dfe16816040518163ffffffff1660e01b8152600401602060405180830381865afa158015610408573d6000803e3d6000fd5b505050506040513d601f19601f8201168201806040525081019061042c919061145c565b6001600160a01b0316036104525760405162461bcd60e51b81526004016102aa906114af565b73b31f66aa3c1e785363f0875a1b74e27b85fd66c76001600160a01b0316846001600160a01b0316630dfe16816040518163ffffffff1660e01b8152600401602060405180830381865afa1580156104ae573d6000803e3d6000fd5b505050506040513d601f19601f820116820180604052508101906104d2919061145c565b6001600160a01b0316148061056d575073b31f66aa3c1e785363f0875a1b74e27b85fd66c76001600160a01b0316846001600160a01b031663d21220a76040518163ffffffff1660e01b8152600401602060405180830381865afa15801561053e573d6000803e3d6000fd5b505050506040513d601f19601f82011682018060405250810190610562919061145c565b6001600160a01b0316145b6105895760405162461bcd60e51b81526004016102aa906114f1565b60006001600160a01b0316606787876040516105a6929190611511565b908152604051908190036020019020546001600160a01b0316146105dc5760405162461bcd60e51b81526004016102aa90611555565b6000606787876040516105f0929190611511565b9081526040805160209281900383018120805473ffffffffffffffffffffffffffffffffffffffff19166001600160a01b038a16908117825560018201899055600282018890557f0dfe1681000000000000000000000000000000000000000000000000000000008352925190945060009373b31f66aa3c1e785363f0875a1b74e27b85fd66c79392630dfe168192600480830193928290030181865afa15801561069f573d6000803e3d6000fd5b505050506040513d601f19601f820116820180604052508101906106c3919061145c565b6001600160a01b031614159050806106dc5760006106df565b60015b60ff168260030181905550856001600160a01b0316630902f1ac6040518163ffffffff1660e01b8152600401606060405180830381865afa158015610728573d6000803e3d6000fd5b505050506040513d601f19601f8201168201806040525081019061074c919061159d565b63ffffffff166006850155508190506107c657856001600160a01b0316635a3d54936040518163ffffffff1660e01b8152600401602060405180830381865afa15801561079d573d6000803e3d6000fd5b505050506040513d601f19601f820116820180604052508101906107c191906115f8565b610828565b856001600160a01b0316635909c0d56040518163ffffffff1660e01b8152600401602060405180830381865afa158015610804573d6000803e3d6000fd5b505050506040513d601f19601f8201168201806040525081019061082891906115f8565b60058301556066546040517fd9e85c840000000000000000000000000000000000000000000000000000000081526000916001600160a01b03169063d9e85c8490610879908c908c90600401611639565b60e060405180830381865afa158015610896573d6000803e3d6000fd5b505050506040513d601f19601f820116820180604052508101906108ba9190611701565b60c00151905080841080156108db5750806108d86202a30086611738565b10155b6108f75760405162461bcd60e51b81526004016102aa9061177d565b7f212544a34bde618b1304355fe54ed52a00db3723be0aae4d1f842043a23579af898989898988600301546040516109349695949392919061178d565b60405180910390a1505050505050505050565b60006067838360405161095b929190611511565b908152604051908190036020019020805490915060009081908190610988906001600160a01b0316610cde565b92509250925060008460060154826109a091906117e0565b600186015460028701549192509063ffffffff8316116109d25760405162461bcd60e51b81526004016102aa90611837565b600386015460009015610a6457610a4660405180602001604052808563ffffffff1685600a610a019190611955565b60058c0154610a10908c611964565b610a1a919061196a565b610a24919061199f565b6001600160e01b031690525160701c6dffffffffffffffffffffffffffff1690565b600588018790556dffffffffffffffffffffffffffff169050610aaf565b610a9560405180602001604052808563ffffffff1685600a610a869190611955565b60058c0154610a10908b611964565b600588018690556dffffffffffffffffffffffffffff1690505b6004870181905563ffffffff841660068801556040517f9b4359a4024cf42372af876d367b36bafd6cb68f8b58b78b1611b664ea994a2990610934908b908b90859089906119d2565b6033546001600160a01b03163314610b225760405162461bcd60e51b81526004016102aa90611441565b6001600160a01b038116610b485760405162461bcd60e51b81526004016102aa90611a58565b610b5181610c7f565b50565b60008060678484604051610b69929190611511565b908152602001604051809103902060040154905060008111610b9d5760405162461bcd60e51b81526004016102aa90611a9a565b6065546040517ff66a1b710000000000000000000000000000000000000000000000000000000081526000916001600160a01b03169063f66a1b7190610be590600401611adc565b6020604051808303816000875af1158015610c04573d6000803e3d6000fd5b505050506040513d601f19601f82011682018060405250810190610c2891906115f8565b9050670de0b6b3a7640000610c3d838361196a565b610c47919061199f565b95945050505050565b600054610100900460ff16610c775760405162461bcd60e51b81526004016102aa90611b44565b610365610eb1565b603380546001600160a01b0383811673ffffffffffffffffffffffffffffffffffffffff19831681179093556040519116919082907f8be0079c531659141344cd1fd0a4f28419497f9722a3daafe3b4186f6b6457e090600090a35050565b6000806000610ceb610ee1565b9050836001600160a01b0316635909c0d56040518163ffffffff1660e01b8152600401602060405180830381865afa158015610d2b573d6000803e3d6000fd5b505050506040513d601f19601f82011682018060405250810190610d4f91906115f8565b9250836001600160a01b0316635a3d54936040518163ffffffff1660e01b8152600401602060405180830381865afa158015610d8f573d6000803e3d6000fd5b505050506040513d601f19601f82011682018060405250810190610db391906115f8565b91506000806000866001600160a01b0316630902f1ac6040518163ffffffff1660e01b8152600401606060405180830381865afa158015610df8573d6000803e3d6000fd5b505050506040513d601f19601f82011682018060405250810190610e1c919061159d565b9250925092508363ffffffff168163ffffffff1614610ea7576000610e4182866117e0565b90508063ffffffff16610e548486610ef7565b51610e6891906001600160e01b031661196a565b610e729088611738565b96508063ffffffff16610e858585610ef7565b51610e9991906001600160e01b031661196a565b610ea39087611738565b9550505b5050509193909250565b600054610100900460ff16610ed85760405162461bcd60e51b81526004016102aa90611b44565b61036533610c7f565b6000610ef264010000000042611b54565b905090565b6040805160208101909152600081526000826dffffffffffffffffffffffffffff1611610f365760405162461bcd60e51b81526004016102aa90611b9a565b604080516020810190915280610f7e6dffffffffffffffffffffffffffff85167bffffffffffffffffffffffffffff0000000000000000000000000000607088901b16611baa565b6001600160e01b0316905290505b92915050565b60006001600160a01b038216610f8c565b610fac81610f92565b8114610b5157600080fd5b8035610f8c81610fa3565b60008060408385031215610fd857610fd8600080fd5b6000610fe48585610fb7565b9250506020610ff585828601610fb7565b9150509250929050565b6000610f8c6001600160a01b038316611016565b90565b6001600160a01b031690565b6000610f8c82610fff565b6000610f8c82611022565b6110418161102d565b82525050565b60208101610f8c8284611038565b61104181610f92565b60208101610f8c8284611055565b60008083601f84011261108157611081600080fd5b50813567ffffffffffffffff81111561109c5761109c600080fd5b6020830191508360018202830111156110b7576110b7600080fd5b9250929050565b600080602083850312156110d4576110d4600080fd5b823567ffffffffffffffff8111156110ee576110ee600080fd5b6110fa8582860161106c565b92509250509250929050565b80611041565b60208101610f8c8284611106565b634e487b7160e01b600052604160045260246000fd5b601f19601f830116810181811067ffffffffffffffff821117156111565761115661111a565b6040525050565b600061116860405190565b90506111748282611130565b919050565b600067ffffffffffffffff8211156111935761119361111a565b601f19601f83011660200192915050565b82818337506000910152565b60006111c36111be84611179565b61115d565b9050828152602081018484840111156111de576111de600080fd5b6111e98482856111a4565b509392505050565b600082601f83011261120557611205600080fd5b81356112158482602086016111b0565b949350505050565b60006020828403121561123257611232600080fd5b813567ffffffffffffffff81111561124c5761124c600080fd5b611215848285016111f1565b6101208101611267828c611055565b611274602083018b611106565b611281604083018a611106565b61128e6060830189611106565b61129b6080830188611106565b6112a860a0830187611106565b6112b560c0830186611106565b6112c260e0830185611106565b6112d0610100830184611106565b9a9950505050505050505050565b80610fac565b8035610f8c816112de565b60008060008060008060a0878903121561130b5761130b600080fd5b863567ffffffffffffffff81111561132557611325600080fd5b61133189828a0161106c565b9650965050602061134489828a01610fb7565b945050604061135589828a016112e4565b935050606061136689828a016112e4565b925050608061137789828a016112e4565b9150509295509295509295565b60006020828403121561139957611399600080fd5b60006112158484610fb7565b602e8152602081017f496e697469616c697a61626c653a20636f6e747261637420697320616c72656181527f647920696e697469616c697a6564000000000000000000000000000000000000602082015290505b60400190565b60208082528101610f8c816113a5565b60208082527f4f776e61626c653a2063616c6c6572206973206e6f7420746865206f776e657291019081525b60200190565b60208082528101610f8c8161140f565b8051610f8c81610fa3565b60006020828403121561147157611471600080fd5b60006112158484611451565b600e8152602081017f4e6f6e20657869737420706169720000000000000000000000000000000000008152905061143b565b60208082528101610f8c8161147d565b600d8152602081017f4e6f7420617661782070616972000000000000000000000000000000000000008152905061143b565b60208082528101610f8c816114bf565b61150c8284836111a4565b500190565b61151c818385611501565b9392505050565b60138152602081017f5061697220616c726561647920657869737473000000000000000000000000008152905061143b565b60208082528101610f8c81611523565b6dffffffffffffffffffffffffffff8116610fac565b8051610f8c81611565565b63ffffffff8116610fac565b8051610f8c81611586565b6000806000606084860312156115b5576115b5600080fd5b60006115c1868661157b565b93505060206115d28682870161157b565b92505060406115e386828701611592565b9150509250925092565b8051610f8c816112de565b60006020828403121561160d5761160d600080fd5b600061121584846115ed565b81835260208301925061162d8284836111a4565b50601f01601f19160190565b60208082528101611215818486611619565b801515610fac565b8051610f8c8161164b565b600060e0828403121561167357611673600080fd5b61167d60e061115d565b9050600061168b8484611451565b90820152602061169d84848301611653565b9082015260406116af848483016115ed565b9082015260606116c1848483016115ed565b9082015260806116d3848483016115ed565b9082015260a06116e5848483016115ed565b9082015260c06116f7848483016115ed565b9082015292915050565b600060e0828403121561171657611716600080fd5b6000611215848461165e565b634e487b7160e01b600052601160045260246000fd5b6000821982111561150c5761150c611722565b60108152602081017f57726f6e672073746172742074696d65000000000000000000000000000000008152905061143b565b60208082528101610f8c8161174b565b60a0808252810161179f81888a611619565b90506117ae6020830187611055565b6117bb6040830186611106565b6117c86060830185611106565b6117d56080830184611106565b979650505050505050565b63ffffffff9081169082165b915060008282101561180057611800611722565b500390565b60178152602081017f4d696e696d756d2073616d706c6520696e74657276616c0000000000000000008152905061143b565b60208082528101610f8c81611805565b80825b60018511156118865780860481111561186557611865611722565b600185161561187357908102905b800261187f8560011c90565b945061184a565b94509492505050565b60008261189e5750600161151c565b816118ab5750600061151c565b81600181146118c157600281146118cb576118f8565b600191505061151c565b60ff8411156118dc576118dc611722565b8360020a9150848211156118f2576118f2611722565b5061151c565b5060208310610133831016604e8410600b841016171561192b575081810a8381111561192657611926611722565b61151c565b6119388484846001611847565b9250905081840481111561194e5761194e611722565b0292915050565b600061151c600019848461188f565b816117ec565b600081600019048311821515161561198457611984611722565b500290565b634e487b7160e01b600052601260045260246000fd5b815b91506000826119b2576119b2611989565b500490565b6000610f8c61101363ffffffff841681565b611041816119b7565b606080825281016119e4818688611619565b90506119f36020830185611106565b610c4760408301846119c9565b60268152602081017f4f776e61626c653a206e6577206f776e657220697320746865207a65726f206181527f6464726573730000000000000000000000000000000000000000000000000000602082015290506113f9565b60208082528101610f8c81611a00565b600a8152602081017f5a65726f205072696365000000000000000000000000000000000000000000008152905061143b565b60208082528101610f8c81611a68565b60048152602081017f41564158000000000000000000000000000000000000000000000000000000008152905061143b565b60208082528101610f8c81611aaa565b602b8152602081017f496e697469616c697a61626c653a20636f6e7472616374206973206e6f74206981527f6e697469616c697a696e67000000000000000000000000000000000000000000602082015290506113f9565b60208082528101610f8c81611aec565b600082611b6357611b63611989565b500690565b60178152602081017f4669786564506f696e743a204449565f42595f5a45524f0000000000000000008152905061143b565b60208082528101610f8c81611b68565b6001600160e01b039081169082166119a156fea264697066735822122031e7bcd3a92ab5155197bd0281ff8f9320985b76f914ff71bc83c15ac497a39b64736f6c634300080d0033",
  "devdoc": {
    "kind": "dev",
    "methods": {
      "getLatestPrice(string)": {
        "params": {
          "_policyToken": "Policy token name"
        },
        "returns": {
          "price": "USD price of the base token"
        }
      },
      "owner()": {
        "details": "Returns the address of the current owner."
      },
      "renounceOwnership()": {
        "details": "Leaves the contract without owner. It will not be possible to call `onlyOwner` functions anymore. Can only be called by the current owner. NOTE: Renouncing ownership will leave the contract without an owner, thereby removing any functionality that is only available to the owner."
      },
      "transferOwnership(address)": {
        "details": "Transfers ownership of the contract to a new account (`newOwner`). Can only be called by the current owner."
      }
    },
    "title": "Price Getter for IDO Protection",
    "version": 1
  },
  "userdoc": {
    "kind": "user",
    "methods": {
      "getLatestPrice(string)": {
        "notice": "Get latest price"
      }
    },
    "notice": "This is the contract for getting price feed from DEX         IDO projects does not have Chainlink feeds so we use DEX TWAP price as oracle         Workflow:         1. Deploy naughty token for the IDO project and set its type as \"IDO\"         2. Add ido price feed info by calling \"addIDOPair\" function         3. Set auto tasks start within PERIOD to endTime to sample prices from DEX         4. Call \"settleFinalResult\" function in core to settle the final price",
    "version": 1
  },
  "storageLayout": {
    "storage": [
      {
        "astId": 2523,
        "contract": "contracts/naughty-price/IDOPriceGetter.sol:IDOPriceGetter",
        "label": "_initialized",
        "offset": 0,
        "slot": "0",
        "type": "t_bool"
      },
      {
        "astId": 2526,
        "contract": "contracts/naughty-price/IDOPriceGetter.sol:IDOPriceGetter",
        "label": "_initializing",
        "offset": 1,
        "slot": "0",
        "type": "t_bool"
      },
      {
        "astId": 3760,
        "contract": "contracts/naughty-price/IDOPriceGetter.sol:IDOPriceGetter",
        "label": "__gap",
        "offset": 0,
        "slot": "1",
        "type": "t_array(t_uint256)50_storage"
      },
      {
        "astId": 2403,
        "contract": "contracts/naughty-price/IDOPriceGetter.sol:IDOPriceGetter",
        "label": "_owner",
        "offset": 0,
        "slot": "51",
        "type": "t_address"
      },
      {
        "astId": 2515,
        "contract": "contracts/naughty-price/IDOPriceGetter.sol:IDOPriceGetter",
        "label": "__gap",
        "offset": 0,
        "slot": "52",
        "type": "t_array(t_uint256)49_storage"
      },
      {
        "astId": 28902,
        "contract": "contracts/naughty-price/IDOPriceGetter.sol:IDOPriceGetter",
        "label": "basePriceGetter",
        "offset": 0,
        "slot": "101",
        "type": "t_contract(IPriceGetter)34295"
      },
      {
        "astId": 28905,
        "contract": "contracts/naughty-price/IDOPriceGetter.sol:IDOPriceGetter",
        "label": "policyCore",
        "offset": 0,
        "slot": "102",
        "type": "t_contract(IPolicyCore)34271"
      },
      {
        "astId": 28929,
        "contract": "contracts/naughty-price/IDOPriceGetter.sol:IDOPriceGetter",
        "label": "priceFeeds",
        "offset": 0,
        "slot": "103",
        "type": "t_mapping(t_string_memory_ptr,t_struct(IDOPriceInfo)28924_storage)"
      }
    ],
    "types": {
      "t_address": {
        "encoding": "inplace",
        "label": "address",
        "numberOfBytes": "20"
      },
      "t_array(t_uint256)49_storage": {
        "base": "t_uint256",
        "encoding": "inplace",
        "label": "uint256[49]",
        "numberOfBytes": "1568"
      },
      "t_array(t_uint256)50_storage": {
        "base": "t_uint256",
        "encoding": "inplace",
        "label": "uint256[50]",
        "numberOfBytes": "1600"
      },
      "t_bool": {
        "encoding": "inplace",
        "label": "bool",
        "numberOfBytes": "1"
      },
      "t_contract(IPolicyCore)34271": {
        "encoding": "inplace",
        "label": "contract IPolicyCore",
        "numberOfBytes": "20"
      },
      "t_contract(IPriceGetter)34295": {
        "encoding": "inplace",
        "label": "contract IPriceGetter",
        "numberOfBytes": "20"
      },
      "t_mapping(t_string_memory_ptr,t_struct(IDOPriceInfo)28924_storage)": {
        "encoding": "mapping",
        "key": "t_string_memory_ptr",
        "label": "mapping(string => struct IDOPriceGetter.IDOPriceInfo)",
        "numberOfBytes": "32",
        "value": "t_struct(IDOPriceInfo)28924_storage"
      },
      "t_string_memory_ptr": {
        "encoding": "bytes",
        "label": "string",
        "numberOfBytes": "32"
      },
      "t_struct(IDOPriceInfo)28924_storage": {
        "encoding": "inplace",
        "label": "struct IDOPriceGetter.IDOPriceInfo",
        "members": [
          {
            "astId": 28907,
            "contract": "contracts/naughty-price/IDOPriceGetter.sol:IDOPriceGetter",
            "label": "pair",
            "offset": 0,
            "slot": "0",
            "type": "t_address"
          },
          {
            "astId": 28909,
            "contract": "contracts/naughty-price/IDOPriceGetter.sol:IDOPriceGetter",
            "label": "decimals",
            "offset": 0,
            "slot": "1",
            "type": "t_uint256"
          },
          {
            "astId": 28911,
            "contract": "contracts/naughty-price/IDOPriceGetter.sol:IDOPriceGetter",
            "label": "sampleInterval",
            "offset": 0,
            "slot": "2",
            "type": "t_uint256"
          },
          {
            "astId": 28913,
            "contract": "contracts/naughty-price/IDOPriceGetter.sol:IDOPriceGetter",
            "label": "isToken0",
            "offset": 0,
            "slot": "3",
            "type": "t_uint256"
          },
          {
            "astId": 28915,
            "contract": "contracts/naughty-price/IDOPriceGetter.sol:IDOPriceGetter",
            "label": "priceAverage",
            "offset": 0,
            "slot": "4",
            "type": "t_uint256"
          },
          {
            "astId": 28917,
            "contract": "contracts/naughty-price/IDOPriceGetter.sol:IDOPriceGetter",
            "label": "priceCumulativeLast",
            "offset": 0,
            "slot": "5",
            "type": "t_uint256"
          },
          {
            "astId": 28919,
            "contract": "contracts/naughty-price/IDOPriceGetter.sol:IDOPriceGetter",
            "label": "lastTimestamp",
            "offset": 0,
            "slot": "6",
            "type": "t_uint256"
          },
          {
            "astId": 28921,
            "contract": "contracts/naughty-price/IDOPriceGetter.sol:IDOPriceGetter",
            "label": "startTime",
            "offset": 0,
            "slot": "7",
            "type": "t_uint256"
          },
          {
            "astId": 28923,
            "contract": "contracts/naughty-price/IDOPriceGetter.sol:IDOPriceGetter",
            "label": "endTime",
            "offset": 0,
            "slot": "8",
            "type": "t_uint256"
          }
        ],
        "numberOfBytes": "288"
      },
      "t_uint256": {
        "encoding": "inplace",
        "label": "uint256",
        "numberOfBytes": "32"
      }
    }
  }
}