{
  "address": "0x21Bcfd29EBA22F51e09bf7430CfEAe186b31fc86",
  "abi": [
    {
      "inputs": [],
      "name": "DIS__NotEnoughVeDEG",
      "type": "error"
    },
    {
      "inputs": [],
      "name": "DIS__PoolNotAvailable",
      "type": "error"
    },
    {
      "inputs": [],
      "name": "DIS__WrongSpeed",
      "type": "error"
    },
    {
      "inputs": [],
      "name": "DIS__ZeroAmount",
      "type": "error"
    },
    {
      "anonymous": false,
      "inputs": [
        {
          "indexed": false,
          "internalType": "address",
          "name": "user",
          "type": "address"
        },
        {
          "indexed": false,
          "internalType": "uint256",
          "name": "poolId",
          "type": "uint256"
        },
        {
          "indexed": false,
          "internalType": "uint256",
          "name": "amount",
          "type": "uint256"
        }
      ],
      "name": "Deposit",
      "type": "event"
    },
    {
      "anonymous": false,
      "inputs": [
        {
          "indexed": false,
          "internalType": "address",
          "name": "user",
          "type": "address"
        },
        {
          "indexed": false,
          "internalType": "uint256",
          "name": "poolId",
          "type": "uint256"
        },
        {
          "indexed": false,
          "internalType": "uint256",
          "name": "amount",
          "type": "uint256"
        }
      ],
      "name": "Harvest",
      "type": "event"
    },
    {
      "anonymous": false,
      "inputs": [
        {
          "indexed": false,
          "internalType": "uint256",
          "name": "poolId",
          "type": "uint256"
        },
        {
          "indexed": false,
          "internalType": "address",
          "name": "rewardToken",
          "type": "address"
        }
      ],
      "name": "NewRewardPoolStart",
      "type": "event"
    },
    {
      "anonymous": false,
      "inputs": [
        {
          "indexed": true,
          "internalType": "address",
          "name": "previousOwner",
          "type": "address"
        },
        {
          "indexed": true,
          "internalType": "address",
          "name": "newOwner",
          "type": "address"
        }
      ],
      "name": "OwnershipTransferred",
      "type": "event"
    },
    {
      "anonymous": false,
      "inputs": [
        {
          "indexed": false,
          "internalType": "address",
          "name": "account",
          "type": "address"
        }
      ],
      "name": "Paused",
      "type": "event"
    },
    {
      "anonymous": false,
      "inputs": [
        {
          "indexed": false,
          "internalType": "uint256",
          "name": "poolId",
          "type": "uint256"
        },
        {
          "indexed": false,
          "internalType": "uint256",
          "name": "accRewardPerSecond",
          "type": "uint256"
        }
      ],
      "name": "PoolUpdated",
      "type": "event"
    },
    {
      "anonymous": false,
      "inputs": [
        {
          "indexed": false,
          "internalType": "uint256",
          "name": "poolId",
          "type": "uint256"
        },
        {
          "indexed": false,
          "internalType": "uint256",
          "name": "rewardPerSecond",
          "type": "uint256"
        }
      ],
      "name": "RewardSpeedSet",
      "type": "event"
    },
    {
      "anonymous": false,
      "inputs": [
        {
          "indexed": false,
          "internalType": "uint256",
          "name": "oldRoundTime",
          "type": "uint256"
        },
        {
          "indexed": false,
          "internalType": "uint256",
          "name": "newRoundTime",
          "type": "uint256"
        }
      ],
      "name": "RoundTimeChanged",
      "type": "event"
    },
    {
      "anonymous": false,
      "inputs": [
        {
          "indexed": false,
          "internalType": "address",
          "name": "account",
          "type": "address"
        }
      ],
      "name": "Unpaused",
      "type": "event"
    },
    {
      "anonymous": false,
      "inputs": [
        {
          "indexed": false,
          "internalType": "address",
          "name": "user",
          "type": "address"
        },
        {
          "indexed": false,
          "internalType": "uint256",
          "name": "poolId",
          "type": "uint256"
        },
        {
          "indexed": false,
          "internalType": "uint256",
          "name": "amount",
          "type": "uint256"
        }
      ],
      "name": "Withdraw",
      "type": "event"
    },
    {
      "inputs": [],
      "name": "SCALE",
      "outputs": [
        {
          "internalType": "uint256",
          "name": "",
          "type": "uint256"
        }
      ],
      "stateMutability": "view",
      "type": "function"
    },
    {
      "inputs": [],
      "name": "compensate",
      "outputs": [
        {
          "internalType": "address",
          "name": "",
          "type": "address"
        }
      ],
      "stateMutability": "view",
      "type": "function"
    },
    {
      "inputs": [
        {
          "internalType": "uint256",
          "name": "_poolId",
          "type": "uint256"
        },
        {
          "internalType": "uint256",
          "name": "_amount",
          "type": "uint256"
        }
      ],
      "name": "deposit",
      "outputs": [],
      "stateMutability": "nonpayable",
      "type": "function"
    },
    {
      "inputs": [
        {
          "internalType": "uint256",
          "name": "_poolId",
          "type": "uint256"
        },
        {
          "internalType": "address",
          "name": "_to",
          "type": "address"
        }
      ],
      "name": "harvest",
      "outputs": [],
      "stateMutability": "nonpayable",
      "type": "function"
    },
    {
      "inputs": [
        {
          "internalType": "address",
          "name": "_veDEG",
          "type": "address"
        }
      ],
      "name": "initialize",
      "outputs": [],
      "stateMutability": "nonpayable",
      "type": "function"
    },
    {
      "inputs": [
        {
          "internalType": "uint256",
          "name": "",
          "type": "uint256"
        }
      ],
      "name": "lastRewardBalance",
      "outputs": [
        {
          "internalType": "uint256",
          "name": "",
          "type": "uint256"
        }
      ],
      "stateMutability": "view",
      "type": "function"
    },
    {
      "inputs": [],
      "name": "nextPool",
      "outputs": [
        {
          "internalType": "uint256",
          "name": "",
          "type": "uint256"
        }
      ],
      "stateMutability": "view",
      "type": "function"
    },
    {
      "inputs": [],
      "name": "owner",
      "outputs": [
        {
          "internalType": "address",
          "name": "",
          "type": "address"
        }
      ],
      "stateMutability": "view",
      "type": "function"
    },
    {
      "inputs": [],
      "name": "paused",
      "outputs": [
        {
          "internalType": "bool",
          "name": "",
          "type": "bool"
        }
      ],
      "stateMutability": "view",
      "type": "function"
    },
    {
      "inputs": [
        {
          "internalType": "uint256",
          "name": "_poolId",
          "type": "uint256"
        },
        {
          "internalType": "address",
          "name": "_user",
          "type": "address"
        }
      ],
      "name": "pendingReward",
      "outputs": [
        {
          "internalType": "uint256",
          "name": "",
          "type": "uint256"
        }
      ],
      "stateMutability": "view",
      "type": "function"
    },
    {
      "inputs": [
        {
          "internalType": "uint256",
          "name": "",
          "type": "uint256"
        }
      ],
      "name": "pools",
      "outputs": [
        {
          "internalType": "bool",
          "name": "available",
          "type": "bool"
        },
        {
          "internalType": "address",
          "name": "rewardToken",
          "type": "address"
        },
        {
          "internalType": "uint256",
          "name": "totalAmount",
          "type": "uint256"
        },
        {
          "internalType": "uint256",
          "name": "rewardPerSecond",
          "type": "uint256"
        },
        {
          "internalType": "uint256",
          "name": "accRewardPerShare",
          "type": "uint256"
        },
        {
          "internalType": "uint256",
          "name": "lastRewardTimestamp",
          "type": "uint256"
        }
      ],
      "stateMutability": "view",
      "type": "function"
    },
    {
      "inputs": [],
      "name": "renounceOwnership",
      "outputs": [],
      "stateMutability": "nonpayable",
      "type": "function"
    },
    {
      "inputs": [],
      "name": "roundTime",
      "outputs": [
        {
          "internalType": "uint256",
          "name": "",
          "type": "uint256"
        }
      ],
      "stateMutability": "view",
      "type": "function"
    },
    {
      "inputs": [
        {
          "internalType": "address",
          "name": "_compensate",
          "type": "address"
        }
      ],
      "name": "setCompensate",
      "outputs": [],
      "stateMutability": "nonpayable",
      "type": "function"
    },
    {
      "inputs": [
        {
          "internalType": "uint256",
          "name": "_poolId",
          "type": "uint256"
        },
        {
          "internalType": "uint256",
          "name": "_rewardPerSecond",
          "type": "uint256"
        }
      ],
      "name": "setRewardSpeed",
      "outputs": [],
      "stateMutability": "nonpayable",
      "type": "function"
    },
    {
      "inputs": [
        {
          "internalType": "uint256",
          "name": "_roundTime",
          "type": "uint256"
        }
      ],
      "name": "setRoundTime",
      "outputs": [],
      "stateMutability": "nonpayable",
      "type": "function"
    },
    {
      "inputs": [
        {
          "internalType": "address",
          "name": "_rewardToken",
          "type": "address"
        }
      ],
      "name": "startPool",
      "outputs": [],
      "stateMutability": "nonpayable",
      "type": "function"
    },
    {
      "inputs": [
        {
          "internalType": "address",
          "name": "newOwner",
          "type": "address"
        }
      ],
      "name": "transferOwnership",
      "outputs": [],
      "stateMutability": "nonpayable",
      "type": "function"
    },
    {
      "inputs": [
        {
          "internalType": "uint256",
          "name": "_poolId",
          "type": "uint256"
        }
      ],
      "name": "updateLastRewardBalance",
      "outputs": [],
      "stateMutability": "nonpayable",
      "type": "function"
    },
    {
      "inputs": [
        {
          "internalType": "uint256",
          "name": "_poolId",
          "type": "uint256"
        }
      ],
      "name": "updatePool",
      "outputs": [],
      "stateMutability": "nonpayable",
      "type": "function"
    },
    {
      "inputs": [
        {
          "internalType": "uint256",
          "name": "",
          "type": "uint256"
        },
        {
          "internalType": "address",
          "name": "",
          "type": "address"
        }
      ],
      "name": "users",
      "outputs": [
        {
          "internalType": "uint256",
          "name": "totalAmount",
          "type": "uint256"
        },
        {
          "internalType": "uint256",
          "name": "rewardDebt",
          "type": "uint256"
        }
      ],
      "stateMutability": "view",
      "type": "function"
    },
    {
      "inputs": [],
      "name": "veDEG",
      "outputs": [
        {
          "internalType": "contract IVeDEG",
          "name": "",
          "type": "address"
        }
      ],
      "stateMutability": "view",
      "type": "function"
    },
    {
      "inputs": [
        {
          "internalType": "uint256",
          "name": "_poolId",
          "type": "uint256"
        },
        {
          "internalType": "uint256",
          "name": "_amount",
          "type": "uint256"
        }
      ],
      "name": "withdraw",
      "outputs": [],
      "stateMutability": "nonpayable",
      "type": "function"
    },
    {
      "inputs": [
        {
          "internalType": "uint256",
          "name": "_poolId",
          "type": "uint256"
        }
      ],
      "name": "withdrawAll",
      "outputs": [],
      "stateMutability": "nonpayable",
      "type": "function"
    }
  ],
  "transactionHash": "0xed269d8f83d069b55f2329a972984c04b445a2de6e34d9ff47a87ae305ef22c4",
  "args": [],
  "numDeployments": 1,
  "solcInputHash": "9c078136f9a2be8a028818e10cc60c9f",
  "bytecode": "0x608060405234801561001057600080fd5b506120cb806100206000396000f3fe608060405234801561001057600080fd5b50600436106101985760003560e01c8063958e2d31116100e3578063d03a7d251161008c578063ee5f8c8f11610066578063ee5f8c8f146103cd578063f2fde38b146103d6578063fa65cb04146103e957600080fd5b8063d03a7d2514610393578063e2bbb158146103a6578063eced5526146103b957600080fd5b8063ac4afa38116100bd578063ac4afa38146102e2578063b9d02df414610340578063c4d66de81461038057600080fd5b8063958e2d31146102a957806398969e82146102bc57806398e1d1aa146102cf57600080fd5b80634f3e7ba6116101455780635e3df1411161011f5780635e3df1411461027d578063715018a6146102905780638da5cb5b1461029857600080fd5b80634f3e7ba61461023757806351eb05a6146102575780635c975abb1461026a57600080fd5b8063394701471161017657806339470147146101f15780633c3b6a6814610211578063441a3e701461022457600080fd5b806318fccc761461019d5780631f97a75a146101b2578063243d6585146101db575b600080fd5b6101b06101ab3660046119fc565b6103fc565b005b60cf546101c5906001600160a01b031681565b6040516101d29190611a48565b60405180910390f35b6101e460cd5481565b6040516101d29190611a5c565b6101e46101ff366004611a6a565b60ce6020526000908152604090205481565b6101b061021f366004611a6a565b610635565b6101b0610232366004611a8b565b6106f6565b60ca5461024a906001600160a01b031681565b6040516101d29190611add565b6101b0610265366004611a6a565b6109d8565b60655460ff166040516101d29190611af3565b6101b061028b366004611b01565b610b50565b6101b0610c2c565b6033546001600160a01b03166101c5565b6101b06102b7366004611a6a565b610c62565b6101e46102ca3660046119fc565b610c8a565b6101b06102dd366004611b01565b610e7f565b61032e6102f0366004611a6a565b60cb602052600090815260409020805460018201546002830154600384015460049094015460ff8416946101009094046001600160a01b0316939086565b6040516101d296959493929190611b22565b61037261034e3660046119fc565b60cc6020908152600092835260408084209091529082529020805460019091015482565b6040516101d2929190611b71565b6101b061038e366004611b01565b610ed8565b6101b06103a1366004611a8b565b610f90565b6101b06103b4366004611a8b565b6110f1565b6101e46c0c9f2c9cd04674edea4000000081565b6101e460c95481565b6101b06103e4366004611b01565b6114aa565b6101b06103f7366004611a6a565b611503565b6002609754036104275760405162461bcd60e51b815260040161041e90611bc0565b60405180910390fd5b600260975560655460ff161561044f5760405162461bcd60e51b815260040161041e90611c02565b610458826109d8565b600082815260cb60209081526040808320815160c081018352815460ff81161515825261010090046001600160a01b031681850152600180830154828501526002830154606083015260038301546080830190815260049093015460a083015287865260cc855283862033875290945291842092830154905183549294926c0c9f2c9cd04674edea40000000916104ee91611c28565b6104f89190611c5d565b6105029190611c71565b90506c0c9f2c9cd04674edea40000000836080015183600001546105269190611c28565b6105309190611c5d565b6001830155602083015160009061054890868461156d565b90508060ce6000888152602001908152602001600020600082825461056d9190611c71565b909155506000905061057f8284611c71565b905080156105ec5760cf546040516302286f5f60e61b81526001600160a01b0390911690638a1bd7c0906105b99089908590600401611c88565b600060405180830381600087803b1580156105d357600080fd5b505af11580156105e7573d6000803e3d6000fd5b505050505b7f71bab65ced2e5750775a0613be067df48ef06cf92a496ebf7663ae066092495433888460405161061f93929190611c96565b60405180910390a1505060016097555050505050565b6033546001600160a01b0316331461065f5760405162461bcd60e51b815260040161041e90611cee565b600081815260cb60205260408082205490516370a0823160e01b81526101009091046001600160a01b0316906370a082319061069f903090600401611a48565b602060405180830381865afa1580156106bc573d6000803e3d6000fd5b505050506040513d601f19601f820116820180604052508101906106e09190611d09565b600092835260ce60205260409092209190915550565b6002609754036107185760405162461bcd60e51b815260040161041e90611bc0565b6002609755600081900361073f57604051631ec840e160e01b815260040160405180910390fd5b600082815260cb6020908152604080832060cc835281842033855290925290912080548311156107825760405163445d638d60e01b815260040160405180910390fd5b61078b846109d8565b600081600101546c0c9f2c9cd04674edea40000000836000015485600301546107b49190611c28565b6107be9190611c5d565b6107c89190611c71565b83549091506000906107e99061010090046001600160a01b0316338461156d565b90508060ce6000888152602001908152602001600020600082825461080e9190611c71565b90915550600090506108208284611c71565b9050801561088d5760cf546040516302286f5f60e61b81526001600160a01b0390911690638a1bd7c09061085a9033908590600401611c88565b600060405180830381600087803b15801561087457600080fd5b505af1158015610888573d6000803e3d6000fd5b505050505b7f71bab65ced2e5750775a0613be067df48ef06cf92a496ebf7663ae06609249543388846040516108c093929190611c96565b60405180910390a1858560010160008282546108dc9190611c71565b90915550508354869085906000906108f5908490611c71565b9091555050600385015484546c0c9f2c9cd04674edea400000009161091991611c28565b6109239190611c5d565b600185015560ca546040517f97b85b6a0000000000000000000000000000000000000000000000000000000081526001600160a01b03909116906397b85b6a906109739033908a90600401611c88565b600060405180830381600087803b15801561098d57600080fd5b505af11580156109a1573d6000803e3d6000fd5b505050507ff279e6a1f5e320cca91135676d9cb6e44ca8a08c0b88342bcdb1144f6511b56833888860405161061f93929190611c96565b600081815260cb60205260409020600481015442116109f5575050565b600181015481546040516370a0823160e01b815260009161010090046001600160a01b0316906370a0823190610a2f903090600401611a48565b602060405180830381865afa158015610a4c573d6000803e3d6000fd5b505050506040513d601f19601f82011682018060405250810190610a709190611d09565b600085815260ce6020526040902054909150811480610a8d575081155b15610a9e5750504260049091015550565b600084815260ce6020526040812054610ab79083611c71565b905082610ad16c0c9f2c9cd04674edea4000000083611c28565b610adb9190611c5d565b846003016000828254610aee9190611d2a565b9091555050426004850155600085815260ce602052604090819020839055600385015490517f7fa9647ec1cc14e3822b46d05a2b9d4e019bde8875c0088c46b6503d71bf172291610b4191889190611b71565b60405180910390a15050505050565b6033546001600160a01b03163314610b7a5760405162461bcd60e51b815260040161041e90611cee565b60cd805460009160cb91839182610b9083611d42565b9091555081526020810191909152604001600020805460017fffffffffffffffffffffff0000000000000000000000000000000000000000009091166101006001600160a01b03861602178117825560cd549192507fc152e0e959f429700442d55214616143637a2b01940082fcaaba253ab85c17b991610c119190611c71565b83604051610c20929190611d5b565b60405180910390a15050565b6033546001600160a01b03163314610c565760405162461bcd60e51b815260040161041e90611cee565b610c606000611622565b565b600081815260cc60209081526040808320338452909152902054610c879082906106f6565b50565b600082815260cb60209081526040808320815160c081018352815460ff81161515825261010090046001600160a01b03169381019390935260018101549183019190915260028101546060830152600381015460808301526004015460a082018190521580610cfc57508060a0015142105b15610d0b576000915050610e79565b60808101516040820151600003610d2757600092505050610e79565b600085815260cc602090815260408083206001600160a01b0380891685529083528184208251808401845281548152600190910154818501529286015191516370a0823160e01b81529293929116906370a0823190610d8a903090600401611a48565b602060405180830381865afa158015610da7573d6000803e3d6000fd5b505050506040513d601f19601f82011682018060405250810190610dcb9190611d09565b600088815260ce60205260409020549091508114610e3357600087815260ce6020526040812054610dfc9083611c71565b6040860151909150610e1b6c0c9f2c9cd04674edea4000000083611c28565b610e259190611c5d565b610e2f9085611d2a565b9350505b600082602001516c0c9f2c9cd04674edea40000000858560000151610e589190611c28565b610e629190611c5d565b610e6c9190611c71565b9550610e79945050505050565b92915050565b6033546001600160a01b03163314610ea95760405162461bcd60e51b815260040161041e90611cee565b60cf805473ffffffffffffffffffffffffffffffffffffffff19166001600160a01b0392909216919091179055565b600054610100900460ff16610ef35760005460ff1615610ef7565b303b155b610f135760405162461bcd60e51b815260040161041e90611dd0565b600054610100900460ff16158015610f35576000805461ffff19166101011790555b610f3d611681565b610f456116b0565b610f4d6116df565b60ca805473ffffffffffffffffffffffffffffffffffffffff19166001600160a01b038416179055600160cd558015610f8c576000805461ff00191690555b5050565b610f99826109d8565b600082815260cb6020908152604091829020825160c081018452815460ff81161515825261010090046001600160a01b0316928101839052600182015481850152600282015460608201526003820154608082015260049182015460a082015292516370a0823160e01b81526370a082319161101791309101611a48565b602060405180830381865afa158015611034573d6000803e3d6000fd5b505050506040513d601f19601f820116820180604052508101906110589190611d09565b8260c9546110669190611c28565b111561109e576040517f58a110e800000000000000000000000000000000000000000000000000000000815260040160405180910390fd5b600083815260cb602052604090819020600201839055517f01daaf9017881672e5509b604c12ed0f4eab658d04c732febc698b8ed42397e3906110e49085908590611b71565b60405180910390a1505050565b6002609754036111135760405162461bcd60e51b815260040161041e90611bc0565b6002609755600082815260cb602052604090205460ff16611160576040517f4aa48a8100000000000000000000000000000000000000000000000000000000815260040160405180910390fd5b8060000361118157604051631ec840e160e01b815260040160405180910390fd5b60ca546040516370a0823160e01b815282916001600160a01b0316906370a08231906111b1903390600401611a48565b602060405180830381865afa1580156111ce573d6000803e3d6000fd5b505050506040513d601f19601f820116820180604052508101906111f29190611d09565b10156112115760405163445d638d60e01b815260040160405180910390fd5b61121a826109d8565b60ca546040517f78ad54c20000000000000000000000000000000000000000000000000000000081526001600160a01b03909116906378ad54c2906112659033908590600401611c88565b600060405180830381600087803b15801561127f57600080fd5b505af1158015611293573d6000803e3d6000fd5b505050600083815260cb6020908152604080832060cc83528184203385529092529091208054919250901561140357600081600101546c0c9f2c9cd04674edea40000000836000015485600301546112eb9190611c28565b6112f59190611c5d565b6112ff9190611c71565b83549091506000906113209061010090046001600160a01b0316338461156d565b90508060ce600088815260200190815260200160002060008282546113459190611c71565b90915550600090506113578284611c71565b905080156113c45760cf546040516302286f5f60e61b81526001600160a01b0390911690638a1bd7c0906113919033908590600401611c88565b600060405180830381600087803b1580156113ab57600080fd5b505af11580156113bf573d6000803e3d6000fd5b505050505b7f71bab65ced2e5750775a0613be067df48ef06cf92a496ebf7663ae06609249543388846040516113f793929190611c96565b60405180910390a15050505b828260010160008282546114179190611d2a565b9091555050805483908290600090611430908490611d2a565b9091555050805460038301546c0c9f2c9cd04674edea400000009161145491611c28565b61145e9190611c5d565b60018201556040517f90890809c654f11d6e72a28fa60149770a0d11ec6c92319d6ceb2bb0a4ea1a159061149790339087908790611c96565b60405180910390a1505060016097555050565b6033546001600160a01b031633146114d45760405162461bcd60e51b815260040161041e90611cee565b6001600160a01b0381166114fa5760405162461bcd60e51b815260040161041e90611e38565b610c8781611622565b6033546001600160a01b0316331461152d5760405162461bcd60e51b815260040161041e90611cee565b7f0591d85ff40c6aa3ea8d23e0b0e8224ffef96db2722859b2752cfed2e8ae004d60c95482604051611560929190611b71565b60405180910390a160c955565b600080846001600160a01b03166370a08231306040518263ffffffff1660e01b815260040161159c9190611a48565b602060405180830381865afa1580156115b9573d6000803e3d6000fd5b505050506040513d601f19601f820116820180604052508101906115dd9190611d09565b905080831115611602576115fb6001600160a01b038616858361170e565b905061161b565b6116166001600160a01b038616858561170e565b829150505b9392505050565b603380546001600160a01b0383811673ffffffffffffffffffffffffffffffffffffffff19831681179093556040519116919082907f8be0079c531659141344cd1fd0a4f28419497f9722a3daafe3b4186f6b6457e090600090a35050565b600054610100900460ff166116a85760405162461bcd60e51b815260040161041e90611ea0565b610c60611796565b600054610100900460ff166116d75760405162461bcd60e51b815260040161041e90611ea0565b610c606117c6565b600054610100900460ff166117065760405162461bcd60e51b815260040161041e90611ea0565b610c606117f9565b6117918363a9059cbb60e01b848460405160240161172d929190611c88565b60408051601f198184030181529190526020810180517bffffffffffffffffffffffffffffffffffffffffffffffffffffffff167fffffffff0000000000000000000000000000000000000000000000000000000090931692909217909152611827565b505050565b600054610100900460ff166117bd5760405162461bcd60e51b815260040161041e90611ea0565b610c6033611622565b600054610100900460ff166117ed5760405162461bcd60e51b815260040161041e90611ea0565b6065805460ff19169055565b600054610100900460ff166118205760405162461bcd60e51b815260040161041e90611ea0565b6001609755565b600061187c826040518060400160405280602081526020017f5361666545524332303a206c6f772d6c6576656c2063616c6c206661696c6564815250856001600160a01b03166118b69092919063ffffffff16565b805190915015611791578080602001905181019061189a9190611ec3565b6117915760405162461bcd60e51b815260040161041e90611f3c565b60606118c584846000856118cd565b949350505050565b6060824710156118ef5760405162461bcd60e51b815260040161041e90611fa4565b843b61190d5760405162461bcd60e51b815260040161041e90611fe6565b600080866001600160a01b031685876040516119299190612048565b60006040518083038185875af1925050503d8060008114611966576040519150601f19603f3d011682016040523d82523d6000602084013e61196b565b606091505b509150915061197b828286611986565b979650505050505050565b6060831561199557508161161b565b8251156119a55782518084602001fd5b8160405162461bcd60e51b815260040161041e9190612084565b805b8114610c8757600080fd5b8035610e79816119bf565b60006001600160a01b038216610e79565b6119c1816119d7565b8035610e79816119e8565b60008060408385031215611a1257611a12600080fd5b6000611a1e85856119cc565b9250506020611a2f858286016119f1565b9150509250929050565b611a42816119d7565b82525050565b60208101610e798284611a39565b80611a42565b60208101610e798284611a56565b600060208284031215611a7f57611a7f600080fd5b60006118c584846119cc565b60008060408385031215611aa157611aa1600080fd5b6000611aad85856119cc565b9250506020611a2f858286016119cc565b6000610e79826119d7565b6000610e7982611abe565b611a4281611ac9565b60208101610e798284611ad4565b801515611a42565b60208101610e798284611aeb565b600060208284031215611b1657611b16600080fd5b60006118c584846119f1565b60c08101611b308289611aeb565b611b3d6020830188611a39565b611b4a6040830187611a56565b611b576060830186611a56565b611b646080830185611a56565b61197b60a0830184611a56565b60408101611b7f8285611a56565b61161b6020830184611a56565b601f8152602081017f5265656e7472616e637947756172643a207265656e7472616e742063616c6c00815290505b60200190565b60208082528101610e7981611b8c565b60108152602081017f5061757361626c653a207061757365640000000000000000000000000000000081529050611bba565b60208082528101610e7981611bd0565b634e487b7160e01b600052601160045260246000fd5b6000816000190483118215151615611c4257611c42611c12565b500290565b634e487b7160e01b600052601260045260246000fd5b600082611c6c57611c6c611c47565b500490565b600082821015611c8357611c83611c12565b500390565b60408101611b7f8285611a39565b60608101611ca48286611a39565b611cb16020830185611a56565b6118c56040830184611a56565b60208082527f4f776e61626c653a2063616c6c6572206973206e6f7420746865206f776e65729101908152611bba565b60208082528101610e7981611cbe565b8051610e79816119bf565b600060208284031215611d1e57611d1e600080fd5b60006118c58484611cfe565b60008219821115611d3d57611d3d611c12565b500190565b600060018201611d5457611d54611c12565b5060010190565b60408101611d698285611a56565b61161b6020830184611a39565b602e8152602081017f496e697469616c697a61626c653a20636f6e747261637420697320616c72656181527f647920696e697469616c697a6564000000000000000000000000000000000000602082015290505b60400190565b60208082528101610e7981611d76565b60268152602081017f4f776e61626c653a206e6577206f776e657220697320746865207a65726f206181527f646472657373000000000000000000000000000000000000000000000000000060208201529050611dca565b60208082528101610e7981611de0565b602b8152602081017f496e697469616c697a61626c653a20636f6e7472616374206973206e6f74206981527f6e697469616c697a696e6700000000000000000000000000000000000000000060208201529050611dca565b60208082528101610e7981611e48565b8015156119c1565b8051610e7981611eb0565b600060208284031215611ed857611ed8600080fd5b60006118c58484611eb8565b602a8152602081017f5361666545524332303a204552433230206f7065726174696f6e20646964206e81527f6f7420737563636565640000000000000000000000000000000000000000000060208201529050611dca565b60208082528101610e7981611ee4565b60268152602081017f416464726573733a20696e73756666696369656e742062616c616e636520666f81527f722063616c6c000000000000000000000000000000000000000000000000000060208201529050611dca565b60208082528101610e7981611f4c565b601d8152602081017f416464726573733a2063616c6c20746f206e6f6e2d636f6e747261637400000081529050611bba565b60208082528101610e7981611fb4565b60005b83811015612011578181015183820152602001611ff9565b83811115612020576000848401525b50505050565b6000612030825190565b61203e818560208601611ff6565b9290920192915050565b610e798183612026565b600061205c825190565b808452602084019350612073818560208601611ff6565b601f01601f19169290920192915050565b6020808252810161161b818461205256fea264697066735822122039b1296da437908ce90de87cca31e948ee0b71037e9f1c4e8be011f64fc9dbd964736f6c634300080d0033",
  "devdoc": {
    "kind": "dev",
    "methods": {
      "deposit(uint256,uint256)": {
        "params": {
          "_amount": "Amount of tokens to deposit",
          "_poolId": "Pool Id"
        }
      },
      "harvest(uint256,address)": {
        "params": {
          "_poolId": "Pool Id",
          "_to": "Reward receiver address"
        }
      },
      "owner()": {
        "details": "Returns the address of the current owner."
      },
      "paused()": {
        "details": "Returns true if the contract is paused, and false otherwise."
      },
      "pendingReward(uint256,address)": {
        "params": {
          "_poolId": "Pool Id",
          "_user": "User address"
        },
        "returns": {
          "_0": "pendingReward Amount of pending reward"
        }
      },
      "renounceOwnership()": {
        "details": "Leaves the contract without owner. It will not be possible to call `onlyOwner` functions anymore. Can only be called by the current owner. NOTE: Renouncing ownership will leave the contract without an owner, thereby removing any functionality that is only available to the owner."
      },
      "setRewardSpeed(uint256,uint256)": {
        "params": {
          "_poolId": "Pool id",
          "_rewardPerSecond": "Reward speed"
        }
      },
      "setRoundTime(uint256)": {
        "details": "Round time is only used for checking reward speed",
        "params": {
          "_roundTime": "Round time in seconds"
        }
      },
      "startPool(address)": {
        "details": "Normally there will be two pools          - USDC.e as reward (1)          - Shield as reward (2)",
        "params": {
          "_rewardToken": "Reward token address"
        }
      },
      "transferOwnership(address)": {
        "details": "Transfers ownership of the contract to a new account (`newOwner`). Can only be called by the current owner."
      },
      "updatePool(uint256)": {
        "params": {
          "_poolId": "Pool id"
        }
      },
      "withdraw(uint256,uint256)": {
        "params": {
          "_amount": "Amount to withdraw",
          "_poolId": "Pool Id"
        }
      },
      "withdrawAll(uint256)": {
        "params": {
          "_poolId": "Pool Id"
        }
      }
    },
    "title": "Degis Income Sharing Contract",
    "version": 1
  },
  "userdoc": {
    "kind": "user",
    "methods": {
      "deposit(uint256,uint256)": {
        "notice": "Deposit"
      },
      "harvest(uint256,address)": {
        "notice": "Harvest income reward"
      },
      "pendingReward(uint256,address)": {
        "notice": "Pending reward"
      },
      "setRewardSpeed(uint256,uint256)": {
        "notice": "Set reward speed for a pool"
      },
      "setRoundTime(uint256)": {
        "notice": "Set round time"
      },
      "startPool(address)": {
        "notice": "Start a new income sharing pool"
      },
      "updatePool(uint256)": {
        "notice": "Update pool"
      },
      "withdraw(uint256,uint256)": {
        "notice": "Withdraw the reward from the pool"
      },
      "withdrawAll(uint256)": {
        "notice": "Withdraw all veDEG"
      }
    },
    "notice": "This contract will receive part of the income from Degis products         And the income will be shared by DEG holders (in the form of veDEG)         It is designed to be an ever-lasting reward         At first the reward is USDC.e and later may be transferred to Shield         To enter the income sharing vault, you need to lock some veDEG             - When your veDEG is locked, it can not be withdrawed         The reward is distributed per second like a farming pool         The income will come from (to be updated)             - IncomeMaker: Collect swap fee in naughty price pool             - PolicyCore: Collect deposit/redeem fee in policy core",
    "version": 1
  },
  "storageLayout": {
    "storage": [
      {
        "astId": 2670,
        "contract": "contracts/income/IncomeSharingVaultV2.sol:IncomeSharingVaultV2",
        "label": "_initialized",
        "offset": 0,
        "slot": "0",
        "type": "t_bool"
      },
      {
        "astId": 2673,
        "contract": "contracts/income/IncomeSharingVaultV2.sol:IncomeSharingVaultV2",
        "label": "_initializing",
        "offset": 1,
        "slot": "0",
        "type": "t_bool"
      },
      {
        "astId": 3907,
        "contract": "contracts/income/IncomeSharingVaultV2.sol:IncomeSharingVaultV2",
        "label": "__gap",
        "offset": 0,
        "slot": "1",
        "type": "t_array(t_uint256)50_storage"
      },
      {
        "astId": 2550,
        "contract": "contracts/income/IncomeSharingVaultV2.sol:IncomeSharingVaultV2",
        "label": "_owner",
        "offset": 0,
        "slot": "51",
        "type": "t_address"
      },
      {
        "astId": 2662,
        "contract": "contracts/income/IncomeSharingVaultV2.sol:IncomeSharingVaultV2",
        "label": "__gap",
        "offset": 0,
        "slot": "52",
        "type": "t_array(t_uint256)49_storage"
      },
      {
        "astId": 2758,
        "contract": "contracts/income/IncomeSharingVaultV2.sol:IncomeSharingVaultV2",
        "label": "_paused",
        "offset": 0,
        "slot": "101",
        "type": "t_bool"
      },
      {
        "astId": 2847,
        "contract": "contracts/income/IncomeSharingVaultV2.sol:IncomeSharingVaultV2",
        "label": "__gap",
        "offset": 0,
        "slot": "102",
        "type": "t_array(t_uint256)49_storage"
      },
      {
        "astId": 2862,
        "contract": "contracts/income/IncomeSharingVaultV2.sol:IncomeSharingVaultV2",
        "label": "_status",
        "offset": 0,
        "slot": "151",
        "type": "t_uint256"
      },
      {
        "astId": 2906,
        "contract": "contracts/income/IncomeSharingVaultV2.sol:IncomeSharingVaultV2",
        "label": "__gap",
        "offset": 0,
        "slot": "152",
        "type": "t_array(t_uint256)49_storage"
      },
      {
        "astId": 19597,
        "contract": "contracts/income/IncomeSharingVaultV2.sol:IncomeSharingVaultV2",
        "label": "roundTime",
        "offset": 0,
        "slot": "201",
        "type": "t_uint256"
      },
      {
        "astId": 19600,
        "contract": "contracts/income/IncomeSharingVaultV2.sol:IncomeSharingVaultV2",
        "label": "veDEG",
        "offset": 0,
        "slot": "202",
        "type": "t_contract(IVeDEG)18355"
      },
      {
        "astId": 19618,
        "contract": "contracts/income/IncomeSharingVaultV2.sol:IncomeSharingVaultV2",
        "label": "pools",
        "offset": 0,
        "slot": "203",
        "type": "t_mapping(t_uint256,t_struct(PoolInfo)19613_storage)"
      },
      {
        "astId": 19630,
        "contract": "contracts/income/IncomeSharingVaultV2.sol:IncomeSharingVaultV2",
        "label": "users",
        "offset": 0,
        "slot": "204",
        "type": "t_mapping(t_uint256,t_mapping(t_address,t_struct(UserInfo)19623_storage))"
      },
      {
        "astId": 19632,
        "contract": "contracts/income/IncomeSharingVaultV2.sol:IncomeSharingVaultV2",
        "label": "nextPool",
        "offset": 0,
        "slot": "205",
        "type": "t_uint256"
      },
      {
        "astId": 19636,
        "contract": "contracts/income/IncomeSharingVaultV2.sol:IncomeSharingVaultV2",
        "label": "lastRewardBalance",
        "offset": 0,
        "slot": "206",
        "type": "t_mapping(t_uint256,t_uint256)"
      },
      {
        "astId": 19638,
        "contract": "contracts/income/IncomeSharingVaultV2.sol:IncomeSharingVaultV2",
        "label": "compensate",
        "offset": 0,
        "slot": "207",
        "type": "t_address"
      }
    ],
    "types": {
      "t_address": {
        "encoding": "inplace",
        "label": "address",
        "numberOfBytes": "20"
      },
      "t_array(t_uint256)49_storage": {
        "base": "t_uint256",
        "encoding": "inplace",
        "label": "uint256[49]",
        "numberOfBytes": "1568"
      },
      "t_array(t_uint256)50_storage": {
        "base": "t_uint256",
        "encoding": "inplace",
        "label": "uint256[50]",
        "numberOfBytes": "1600"
      },
      "t_bool": {
        "encoding": "inplace",
        "label": "bool",
        "numberOfBytes": "1"
      },
      "t_contract(IVeDEG)18355": {
        "encoding": "inplace",
        "label": "contract IVeDEG",
        "numberOfBytes": "20"
      },
      "t_mapping(t_address,t_struct(UserInfo)19623_storage)": {
        "encoding": "mapping",
        "key": "t_address",
        "label": "mapping(address => struct IncomeSharingVaultV2.UserInfo)",
        "numberOfBytes": "32",
        "value": "t_struct(UserInfo)19623_storage"
      },
      "t_mapping(t_uint256,t_mapping(t_address,t_struct(UserInfo)19623_storage))": {
        "encoding": "mapping",
        "key": "t_uint256",
        "label": "mapping(uint256 => mapping(address => struct IncomeSharingVaultV2.UserInfo))",
        "numberOfBytes": "32",
        "value": "t_mapping(t_address,t_struct(UserInfo)19623_storage)"
      },
      "t_mapping(t_uint256,t_struct(PoolInfo)19613_storage)": {
        "encoding": "mapping",
        "key": "t_uint256",
        "label": "mapping(uint256 => struct IncomeSharingVaultV2.PoolInfo)",
        "numberOfBytes": "32",
        "value": "t_struct(PoolInfo)19613_storage"
      },
      "t_mapping(t_uint256,t_uint256)": {
        "encoding": "mapping",
        "key": "t_uint256",
        "label": "mapping(uint256 => uint256)",
        "numberOfBytes": "32",
        "value": "t_uint256"
      },
      "t_struct(PoolInfo)19613_storage": {
        "encoding": "inplace",
        "label": "struct IncomeSharingVaultV2.PoolInfo",
        "members": [
          {
            "astId": 19602,
            "contract": "contracts/income/IncomeSharingVaultV2.sol:IncomeSharingVaultV2",
            "label": "available",
            "offset": 0,
            "slot": "0",
            "type": "t_bool"
          },
          {
            "astId": 19604,
            "contract": "contracts/income/IncomeSharingVaultV2.sol:IncomeSharingVaultV2",
            "label": "rewardToken",
            "offset": 1,
            "slot": "0",
            "type": "t_address"
          },
          {
            "astId": 19606,
            "contract": "contracts/income/IncomeSharingVaultV2.sol:IncomeSharingVaultV2",
            "label": "totalAmount",
            "offset": 0,
            "slot": "1",
            "type": "t_uint256"
          },
          {
            "astId": 19608,
            "contract": "contracts/income/IncomeSharingVaultV2.sol:IncomeSharingVaultV2",
            "label": "rewardPerSecond",
            "offset": 0,
            "slot": "2",
            "type": "t_uint256"
          },
          {
            "astId": 19610,
            "contract": "contracts/income/IncomeSharingVaultV2.sol:IncomeSharingVaultV2",
            "label": "accRewardPerShare",
            "offset": 0,
            "slot": "3",
            "type": "t_uint256"
          },
          {
            "astId": 19612,
            "contract": "contracts/income/IncomeSharingVaultV2.sol:IncomeSharingVaultV2",
            "label": "lastRewardTimestamp",
            "offset": 0,
            "slot": "4",
            "type": "t_uint256"
          }
        ],
        "numberOfBytes": "160"
      },
      "t_struct(UserInfo)19623_storage": {
        "encoding": "inplace",
        "label": "struct IncomeSharingVaultV2.UserInfo",
        "members": [
          {
            "astId": 19620,
            "contract": "contracts/income/IncomeSharingVaultV2.sol:IncomeSharingVaultV2",
            "label": "totalAmount",
            "offset": 0,
            "slot": "0",
            "type": "t_uint256"
          },
          {
            "astId": 19622,
            "contract": "contracts/income/IncomeSharingVaultV2.sol:IncomeSharingVaultV2",
            "label": "rewardDebt",
            "offset": 0,
            "slot": "1",
            "type": "t_uint256"
          }
        ],
        "numberOfBytes": "64"
      },
      "t_uint256": {
        "encoding": "inplace",
        "label": "uint256",
        "numberOfBytes": "32"
      }
    }
  }
}