{
  "address": "0x1C0DfB595A8e63a2Be4AcDa254217C7cd066fBb9",
  "abi": [
    {
      "anonymous": false,
      "inputs": [
        {
          "indexed": false,
          "internalType": "address",
          "name": "oldIncomeMaker",
          "type": "address"
        },
        {
          "indexed": false,
          "internalType": "address",
          "name": "newIncomeMaker",
          "type": "address"
        }
      ],
      "name": "IncomeMakerAddressChanged",
      "type": "event"
    },
    {
      "anonymous": false,
      "inputs": [
        {
          "indexed": false,
          "internalType": "uint256",
          "name": "oldProportion",
          "type": "uint256"
        },
        {
          "indexed": false,
          "internalType": "uint256",
          "name": "newProportion",
          "type": "uint256"
        }
      ],
      "name": "IncomeMakerProportionChanged",
      "type": "event"
    },
    {
      "anonymous": false,
      "inputs": [
        {
          "indexed": true,
          "internalType": "address",
          "name": "previousOwner",
          "type": "address"
        },
        {
          "indexed": true,
          "internalType": "address",
          "name": "newOwner",
          "type": "address"
        }
      ],
      "name": "OwnershipTransferred",
      "type": "event"
    },
    {
      "anonymous": false,
      "inputs": [
        {
          "indexed": false,
          "internalType": "address",
          "name": "oldPolicyCore",
          "type": "address"
        },
        {
          "indexed": false,
          "internalType": "address",
          "name": "newPolicyCore",
          "type": "address"
        }
      ],
      "name": "PolicyCoreAddressChanged",
      "type": "event"
    },
    {
      "inputs": [],
      "name": "PAIR_INIT_CODE_HASH",
      "outputs": [
        {
          "internalType": "bytes32",
          "name": "",
          "type": "bytes32"
        }
      ],
      "stateMutability": "view",
      "type": "function"
    },
    {
      "inputs": [],
      "name": "_nextId",
      "outputs": [
        {
          "internalType": "uint256",
          "name": "",
          "type": "uint256"
        }
      ],
      "stateMutability": "view",
      "type": "function"
    },
    {
      "inputs": [
        {
          "internalType": "uint256",
          "name": "",
          "type": "uint256"
        }
      ],
      "name": "allPairs",
      "outputs": [
        {
          "internalType": "address",
          "name": "",
          "type": "address"
        }
      ],
      "stateMutability": "view",
      "type": "function"
    },
    {
      "inputs": [
        {
          "internalType": "uint256",
          "name": "",
          "type": "uint256"
        }
      ],
      "name": "allTokens",
      "outputs": [
        {
          "internalType": "address",
          "name": "",
          "type": "address"
        }
      ],
      "stateMutability": "view",
      "type": "function"
    },
    {
      "inputs": [
        {
          "internalType": "string",
          "name": "_policyTokenName",
          "type": "string"
        },
        {
          "internalType": "uint256",
          "name": "_decimals",
          "type": "uint256"
        }
      ],
      "name": "deployPolicyToken",
      "outputs": [
        {
          "internalType": "address",
          "name": "",
          "type": "address"
        }
      ],
      "stateMutability": "nonpayable",
      "type": "function"
    },
    {
      "inputs": [
        {
          "internalType": "address",
          "name": "_policyTokenAddress",
          "type": "address"
        },
        {
          "internalType": "address",
          "name": "_stablecoin",
          "type": "address"
        },
        {
          "internalType": "uint256",
          "name": "_deadline",
          "type": "uint256"
        },
        {
          "internalType": "uint256",
          "name": "_feeRate",
          "type": "uint256"
        }
      ],
      "name": "deployPool",
      "outputs": [
        {
          "internalType": "address",
          "name": "",
          "type": "address"
        }
      ],
      "stateMutability": "nonpayable",
      "type": "function"
    },
    {
      "inputs": [],
      "name": "getAllTokens",
      "outputs": [
        {
          "internalType": "address[]",
          "name": "",
          "type": "address[]"
        }
      ],
      "stateMutability": "view",
      "type": "function"
    },
    {
      "inputs": [
        {
          "internalType": "string",
          "name": "_tokenName",
          "type": "string"
        },
        {
          "internalType": "uint256",
          "name": "_decimals",
          "type": "uint256"
        }
      ],
      "name": "getInitCodeHashForPolicyToken",
      "outputs": [
        {
          "internalType": "bytes32",
          "name": "",
          "type": "bytes32"
        }
      ],
      "stateMutability": "view",
      "type": "function"
    },
    {
      "inputs": [
        {
          "internalType": "address",
          "name": "_tokenAddress1",
          "type": "address"
        },
        {
          "internalType": "address",
          "name": "_tokenAddress2",
          "type": "address"
        }
      ],
      "name": "getPairAddress",
      "outputs": [
        {
          "internalType": "address",
          "name": "",
          "type": "address"
        }
      ],
      "stateMutability": "view",
      "type": "function"
    },
    {
      "inputs": [],
      "name": "incomeMaker",
      "outputs": [
        {
          "internalType": "address",
          "name": "",
          "type": "address"
        }
      ],
      "stateMutability": "view",
      "type": "function"
    },
    {
      "inputs": [],
      "name": "incomeMakerProportion",
      "outputs": [
        {
          "internalType": "uint256",
          "name": "",
          "type": "uint256"
        }
      ],
      "stateMutability": "view",
      "type": "function"
    },
    {
      "inputs": [],
      "name": "initialize",
      "outputs": [],
      "stateMutability": "nonpayable",
      "type": "function"
    },
    {
      "inputs": [],
      "name": "owner",
      "outputs": [
        {
          "internalType": "address",
          "name": "",
          "type": "address"
        }
      ],
      "stateMutability": "view",
      "type": "function"
    },
    {
      "inputs": [],
      "name": "policyCore",
      "outputs": [
        {
          "internalType": "address",
          "name": "",
          "type": "address"
        }
      ],
      "stateMutability": "view",
      "type": "function"
    },
    {
      "inputs": [],
      "name": "renounceOwnership",
      "outputs": [],
      "stateMutability": "nonpayable",
      "type": "function"
    },
    {
      "inputs": [
        {
          "internalType": "address",
          "name": "_incomeMaker",
          "type": "address"
        }
      ],
      "name": "setIncomeMakerAddress",
      "outputs": [],
      "stateMutability": "nonpayable",
      "type": "function"
    },
    {
      "inputs": [
        {
          "internalType": "uint256",
          "name": "_proportion",
          "type": "uint256"
        }
      ],
      "name": "setIncomeMakerProportion",
      "outputs": [],
      "stateMutability": "nonpayable",
      "type": "function"
    },
    {
      "inputs": [
        {
          "internalType": "address",
          "name": "_policyCore",
          "type": "address"
        }
      ],
      "name": "setPolicyCoreAddress",
      "outputs": [],
      "stateMutability": "nonpayable",
      "type": "function"
    },
    {
      "inputs": [
        {
          "internalType": "address",
          "name": "newOwner",
          "type": "address"
        }
      ],
      "name": "transferOwnership",
      "outputs": [],
      "stateMutability": "nonpayable",
      "type": "function"
    }
  ],
  "transactionHash": "0x87345071089e81f2300fdc721b1f55c919f7770c38bce187a23df0ace2a1e6c7",
  "args": [],
  "numDeployments": 1,
  "solcInputHash": "fa2b6ea223de079089e64db05a05ea06",
  "bytecode": "0x608060405234801561001057600080fd5b50615084806100206000396000f3fe60806040523480156200001157600080fd5b50600436106200016c5760003560e01c80638129fc1c11620000dd578063be1bd331116200008b578063e30145e0116200006e578063e30145e014620002d0578063f2f2fff514620002e4578063f2fde38b14620002ee57600080fd5b8063be1bd33114620002a5578063c79c4c6214620002b957600080fd5b80638da5cb5b11620000c05780638da5cb5b1462000265578063b30ebecd1462000277578063b4f69a2f146200028e57600080fd5b80638129fc1c146200024457806387f0061a146200024e57600080fd5b806357b84f8c116200013b578063634282af116200011e578063634282af1462000219578063715018a61462000230578063786df8ec146200023a57600080fd5b806357b84f8c14620001f657806361c8f99d146200020057600080fd5b80631e3dd18b14620001715780632a5c792a14620001a05780633a5f69f814620001b9578063490d735014620001d0575b600080fd5b620001886200018236600462000bc7565b62000305565b60405162000197919062000c17565b60405180910390f35b620001aa62000330565b60405162000197919062000c8c565b62000188620001ca36600462000cbe565b62000394565b620001e7620001e136600462000e3c565b62000538565b60405162000197919062000ea2565b620001e762000559565b620002176200021136600462000eb2565b620005a7565b005b620001886200022a36600462000bc7565b6200063f565b6200021762000650565b620001e7606b5481565b620002176200068b565b620001886200025f36600462000e3c565b62000713565b6033546001600160a01b031662000188565b620002176200028836600462000eb2565b620007fa565b620001886200029f36600462000ed7565b62000892565b606a5462000188906001600160a01b031681565b62000217620002ca36600462000bc7565b62000966565b60695462000188906001600160a01b031681565b620001e760685481565b62000217620002ff36600462000eb2565b620009d5565b606681815481106200031657600080fd5b6000918252602090912001546001600160a01b0316905081565b606060678054806020026020016040519081016040528092919081815260200182805480156200038a57602002820191906000526020600020905b81546001600160a01b031681526001909101906020018083116200036b575b5050505050905090565b6069546000906001600160a01b03163314620003cd5760405162461bcd60e51b8152600401620003c49062000f6a565b60405180910390fd5b600060405180602001620003e19062000b90565b6020820181038252601f19601f820116604052509050600086866040516020016200040e92919062000fab565b604051602081830303815290604052805190602001209050600062000434838362000a36565b6040517feb990c590000000000000000000000000000000000000000000000000000000081529091506001600160a01b0382169063eb990c599062000484908b908b908b908b9060040162000fcf565b600060405180830381600087803b1580156200049f57600080fd5b505af1158015620004b4573d6000803e3d6000fd5b5050506001600160a01b03808a1660009081526065602090815260408083208c85168452909152812080549285166001600160a01b031993841681179091556066805460018101825592527f46501879b8ca8525e8c2fd519e2fbfcfa2ebea26501294aa02cbfcfb12e9435490910180549092161790555092505050949350505050565b60008062000547848462000a50565b80516020909101209150505b92915050565b6040516200056a6020820162000b90565b601f1982820381018352601f9091011660408190526200058e91906020016200106d565b6040516020818303038152906040528051906020012081565b6033546001600160a01b03163314620005d45760405162461bcd60e51b8152600401620003c490620010aa565b6069546040517f3589df28c7a4e563855a6dad51377b5e4a78c2c46954792d4ebcc2b6f477af2d9162000615916001600160a01b03909116908490620010bc565b60405180910390a1606980546001600160a01b0319166001600160a01b0392909216919091179055565b606781815481106200031657600080fd5b6033546001600160a01b031633146200067d5760405162461bcd60e51b8152600401620003c490620010aa565b62000689600062000adb565b565b600054610100900460ff16620006a85760005460ff1615620006ac565b303b155b620006cb5760405162461bcd60e51b8152600401620003c49062001134565b600054610100900460ff16158015620006ee576000805461ffff19166101011790555b620006f862000b2d565b6028606b55801562000710576000805461ff00191690555b50565b6069546000906001600160a01b03163314620007435760405162461bcd60e51b8152600401620003c49062000f6a565b6000836040516020016200075891906200106d565b60405160208183030381529060405280519060200120905060006200077e858562000a50565b905060006200078e828462000a36565b6067805460018101825560009182527f9787eeb91fe3101235e4a76063c7023ecb40f923f97916639c598592fa30d6ae0180546001600160a01b0319166001600160a01b0384161790556068805492935090620007eb836200115c565b90915550909695505050505050565b6033546001600160a01b03163314620008275760405162461bcd60e51b8152600401620003c490620010aa565b606a546040517fbfabdf035dcaa5c8487ab344ae430927cd8bacc1ec3d6d600fb599344a276c079162000868916001600160a01b03909116908490620010bc565b60405180910390a1606a80546001600160a01b0319166001600160a01b0392909216919091179055565b6069546040517f5cb3b14f000000000000000000000000000000000000000000000000000000008152600091829182916001600160a01b031690635cb3b14f90620008e290879060040162000c17565b602060405180830381865afa15801562000900573d6000803e3d6000fd5b505050506040513d601f19601f820116820180604052508101906200092691906200118e565b6200093357838562000936565b84845b6001600160a01b039182166000908152606560209081526040808320938516835292905220541695945050505050565b6033546001600160a01b03163314620009935760405162461bcd60e51b8152600401620003c490620010aa565b7f9bc521ec6408e4c9862a903b71cc867ff65b137b9ddec02734bd4a840817848f606b5482604051620009c8929190620011b3565b60405180910390a1606b55565b6033546001600160a01b0316331462000a025760405162461bcd60e51b8152600401620003c490620010aa565b6001600160a01b03811662000a2b5760405162461bcd60e51b8152600401620003c4906200122b565b620007108162000adb565b6000818351602085016000f59050803b6200055357600080fd5b606060006040518060200162000a669062000b9e565b601f1982820381018352601f909101166040819052606954919250829162000aa391879182916001600160a01b0390911690889060200162001272565b60408051601f198184030181529082905262000ac39291602001620012ac565b60405160208183030381529060405291505092915050565b603380546001600160a01b038381166001600160a01b0319831681179093556040519116919082907f8be0079c531659141344cd1fd0a4f28419497f9722a3daafe3b4186f6b6457e090600090a35050565b600054610100900460ff1662000b575760405162461bcd60e51b8152600401620003c4906200131f565b62000689600054610100900460ff1662000b855760405162461bcd60e51b8152600401620003c4906200131f565b620006893362000adb565b6129fd806200133283390190565b6113208062003d2f83390190565b805b81146200071057600080fd5b8035620005538162000bac565b60006020828403121562000bde5762000bde600080fd5b600062000bec848462000bba565b949350505050565b60006001600160a01b03821662000553565b62000c118162000bf4565b82525050565b6020810162000553828462000c06565b62000c33828262000c06565b5060200190565b60200190565b600062000c4b825190565b808452602093840193830160005b8281101562000c8257815162000c70878262000c27565b96505060208201915060010162000c59565b5093949350505050565b6020808252810162000c9f818462000c40565b9392505050565b62000bae8162000bf4565b8035620005538162000ca6565b6000806000806080858703121562000cd95762000cd9600080fd5b600062000ce7878762000cb1565b945050602062000cfa8782880162000cb1565b935050604062000d0d8782880162000bba565b925050606062000d208782880162000bba565b91505092959194509250565b634e487b7160e01b600052604160045260246000fd5b601f19601f830116810181811067ffffffffffffffff8211171562000d6b5762000d6b62000d2c565b6040525050565b600062000d7e60405190565b905062000d8c828262000d42565b919050565b600067ffffffffffffffff82111562000dae5762000dae62000d2c565b601f19601f83011660200192915050565b82818337506000910152565b600062000de262000ddc8462000d91565b62000d72565b90508281526020810184848401111562000dff5762000dff600080fd5b62000e0c84828562000dbf565b509392505050565b600082601f83011262000e2a5762000e2a600080fd5b813562000bec84826020860162000dcb565b6000806040838503121562000e545762000e54600080fd5b823567ffffffffffffffff81111562000e705762000e70600080fd5b62000e7e8582860162000e14565b925050602062000e918582860162000bba565b9150509250929050565b8062000c11565b6020810162000553828462000e9b565b60006020828403121562000ec95762000ec9600080fd5b600062000bec848462000cb1565b6000806040838503121562000eef5762000eef600080fd5b600062000efd858562000cb1565b925050602062000e918582860162000cb1565b60228152602081017f4f6e6c792063616c6c656420627920706f6c696379436f726520636f6e74726181527f6374000000000000000000000000000000000000000000000000000000000000602082015290505b60400190565b60208082528101620005538162000f10565b6000620005538260601b90565b6000620005538262000f7c565b62000c1162000fa58262000bf4565b62000f89565b62000fb7818462000f96565b60140162000fc6818362000f96565b60140192915050565b6080810162000fdf828762000c06565b62000fee602083018662000c06565b62000ffd604083018562000e9b565b6200100c606083018462000e9b565b95945050505050565b60005b838110156200103257818101518382015260200162001018565b8381111562001042576000848401525b50505050565b600062001053825190565b6200106381856020860162001015565b9290920192915050565b62000553818362001048565b60208082527f4f776e61626c653a2063616c6c6572206973206e6f7420746865206f776e6572910190815262000c3a565b60208082528101620005538162001079565b60408101620010cc828562000c06565b62000c9f602083018462000c06565b602e8152602081017f496e697469616c697a61626c653a20636f6e747261637420697320616c72656181527f647920696e697469616c697a65640000000000000000000000000000000000006020820152905062000f64565b602080825281016200055381620010db565b634e487b7160e01b600052601160045260246000fd5b60006001820162001171576200117162001146565b5060010190565b80151562000bae565b8051620005538162001178565b600060208284031215620011a557620011a5600080fd5b600062000bec848462001181565b60408101620011c3828562000e9b565b62000c9f602083018462000e9b565b60268152602081017f4f776e61626c653a206e6577206f776e657220697320746865207a65726f206181527f64647265737300000000000000000000000000000000000000000000000000006020820152905062000f64565b602080825281016200055381620011d2565b600062001248825190565b8084526020840193506200126181856020860162001015565b601f01601f19169290920192915050565b608080825281016200128581876200123d565b905081810360208301526200129b81866200123d565b905062000ffd604083018562000c06565b620012b8818462001048565b905062000c9f818362001048565b602b8152602081017f496e697469616c697a61626c653a20636f6e7472616374206973206e6f74206981527f6e697469616c697a696e670000000000000000000000000000000000000000006020820152905062000f64565b602080825281016200055381620012c656fe60806040526009805460ff60e01b1916600160e01b1790553480156200002457600080fd5b506040518060400160405280600f81526020016e04e61756768747920506f6f6c204c5608c1b8152506040518060400160405280600381526020016204e4c560ec1b815250816003908051906020019062000081929190620000b7565b50805162000097906004906020840190620000b7565b5050600160055550600680546001600160a01b03191633179055620001a3565b828054620000c59062000173565b90600052602060002090601f016020900481019282620000e9576000855562000134565b82601f106200010457805160ff191683800117855562000134565b8280016001018555821562000134579182015b828111156200013457825182559160200191906001019062000117565b506200014292915062000146565b5090565b5b8082111562000142576000815560010162000147565b634e487b7160e01b600052602260045260246000fd5b6002810460018216806200018857607f821691505b6020821081036200019d576200019d6200015d565b50919050565b61284a80620001b36000396000f3fe608060405234801561001057600080fd5b50600436106101a35760003560e01c806370a08231116100ee578063a9059cbb11610097578063d21220a711610071578063d21220a714610375578063dd62ed3e14610388578063eb990c59146103c1578063fff6cae9146103d457600080fd5b8063a9059cbb14610346578063ba9a7a5614610359578063c45a01551461036257600080fd5b806395d89b41116100c857806395d89b4114610322578063978bbdb91461032a578063a457c2d71461033357600080fd5b806370a08231146102cf5780637464fc3d146102f857806389afcb441461030157600080fd5b806329dcb0cf116101505780636a5e26501161012a5780636a5e26501461027a5780636a627842146102a75780636d9a640a146102ba57600080fd5b806329dcb0cf1461024f578063313ce56714610258578063395093511461026757600080fd5b80630dfe1681116101815780630dfe16811461020b57806318160ddd1461022b57806323b872dd1461023c57600080fd5b806306fdde03146101a85780630902f1ac146101c6578063095ea7b3146101eb575b600080fd5b6101b06103dc565b6040516101bd9190611b18565b60405180910390f35b6009546001600160701b0380821691600160701b9004166040516101bd929190611b3a565b6101fe6101f9366004611b99565b61046e565b6040516101bd9190611bde565b60075461021e906001600160a01b031681565b6040516101bd9190611bf5565b6002545b6040516101bd9190611c09565b6101fe61024a366004611c17565b610485565b61022f600a5481565b60126040516101bd9190611c70565b6101fe610275366004611b99565b6104f9565b6009546101fe907c0100000000000000000000000000000000000000000000000000000000900460ff1681565b61022f6102b5366004611c7e565b610535565b6102cd6102c8366004611c9f565b610805565b005b61022f6102dd366004611c7e565b6001600160a01b031660009081526020819052604090205490565b61022f600c5481565b61031461030f366004611c7e565b610c8b565b6040516101bd929190611ce5565b6101b0610fff565b61022f600b5481565b6101fe610341366004611b99565b61100e565b6101fe610354366004611b99565b611069565b61022f6103e881565b60065461021e906001600160a01b031681565b60085461021e906001600160a01b031681565b61022f610396366004611d00565b6001600160a01b03918216600090815260016020908152604080832093909416825291909152205490565b6102cd6103cf366004611d33565b611076565b6102cd611115565b6060600380546103eb90611dad565b80601f016020809104026020016040519081016040528092919081815260200182805461041790611dad565b80156104645780601f1061043957610100808354040283529160200191610464565b820191906000526020600020905b81548152906001019060200180831161044757829003601f168201915b5050505050905090565b600061047b33848461122c565b5060015b92915050565b60006104928484846112e0565b6001600160a01b0384166000908152600160209081526040808320338452909152902054828110156104df5760405162461bcd60e51b81526004016104d690611e2d565b60405180910390fd5b6104ec853385840361122c565b60019150505b9392505050565b3360008181526001602090815260408083206001600160a01b0387168452909152812054909161047b918590610530908690611e53565b61122c565b60006002600554036105595760405162461bcd60e51b81526004016104d690611e9f565b600260055560008061057f6009546001600160701b0380821692600160701b9092041690565b6007546040516370a0823160e01b81529294509092506000916001600160a01b03909116906370a08231906105b8903090600401611bf5565b602060405180830381865afa1580156105d5573d6000803e3d6000fd5b505050506040513d601f19601f820116820180604052508101906105f99190611eba565b6008546040516370a0823160e01b81529192506000916001600160a01b03909116906370a082319061062f903090600401611bf5565b602060405180830381865afa15801561064c573d6000803e3d6000fd5b505050506040513d601f19601f820116820180604052508101906106709190611eba565b905060006106876001600160701b03861684611edb565b9050600061069e6001600160701b03861684611edb565b905060006106ac87876113f5565b905060006106b960025490565b905080600003610702576103e86106d86106d38587611ef2565b6115c8565b6106e29190611edb565b6006549099506106fd906001600160a01b03166103e8611638565b610749565b6107466001600160701b0389166107198387611ef2565b6107239190611f27565b6001600160701b0389166107378487611ef2565b6107419190611f27565b6116ec565b98505b600089116107695760405162461bcd60e51b81526004016104d690611f6d565b6107738a8a611638565b61077d8686611702565b81156107af576009546107a2906001600160701b03600160701b820481169116611f7d565b6001600160701b0316600c555b336001600160a01b03167f4c209b5fc8ad50758f13e2e1088ba56a560dff690a1c6fef26394f4c03821c4f85856040516107ea929190611ce5565b60405180910390a25050600160055550949695505050505050565b600660009054906101000a90046001600160a01b03166001600160a01b031663be1bd3316040518163ffffffff1660e01b8152600401602060405180830381865afa158015610858573d6000803e3d6000fd5b505050506040513d601f19601f8201168201806040525081019061087c9190611fbf565b6001600160a01b0316336001600160a01b0316146108b657600a544211156108b65760405162461bcd60e51b81526004016104d690612012565b6002600554036108d85760405162461bcd60e51b81526004016104d690611e9f565b6002600555821515806108eb5750600082115b6109075760405162461bcd60e51b81526004016104d690612054565b6000806109286009546001600160701b0380821692600160701b9092041690565b91509150816001600160701b03168510801561094c5750806001600160701b031684105b6109685760405162461bcd60e51b81526004016104d690612096565b60075460085460009182916001600160a01b039182169190811690871682148015906109a65750806001600160a01b0316876001600160a01b031614155b6109c25760405162461bcd60e51b81526004016104d6906120d8565b88156109dc576109dc6001600160a01b038316888b6117c9565b87156109f6576109f66001600160a01b038216888a6117c9565b6040516370a0823160e01b81526001600160a01b038316906370a0823190610a22903090600401611bf5565b602060405180830381865afa158015610a3f573d6000803e3d6000fd5b505050506040513d601f19601f82011682018060405250810190610a639190611eba565b6040516370a0823160e01b81529094506001600160a01b038216906370a0823190610a92903090600401611bf5565b602060405180830381865afa158015610aaf573d6000803e3d6000fd5b505050506040513d601f19601f82011682018060405250810190610ad39190611eba565b92505050600087856001600160701b0316610aee9190611edb565b8311610afb576000610b18565b610b0e886001600160701b038716611edb565b610b189084611edb565b90506000610b2f886001600160701b038716611edb565b8311610b3c576000610b59565b610b4f886001600160701b038716611edb565b610b599084611edb565b90506000821180610b6a5750600081115b610b865760405162461bcd60e51b81526004016104d69061211a565b6000600b5483610b969190611ef2565b610ba2866103e8611ef2565b610bac9190611edb565b90506000600b5483610bbe9190611ef2565b610bca866103e8611ef2565b610bd49190611edb565b9050610be08789611f7d565b610bed90620f4240611f7d565b6001600160701b0316610c008284611ef2565b1015610c1e5760405162461bcd60e51b81526004016104d69061215a565b5050610c2a8484611702565b866001600160a01b0316336001600160a01b03167fd78ad95fa46c994b6551d0da85fc275fe613ce37657fb8d5e3d130840159d82284848d8d604051610c73949392919061216a565b60405180910390a35050600160055550505050505050565b600080600260055403610cb05760405162461bcd60e51b81526004016104d690611e9f565b6002600555600080610cd66009546001600160701b0380821692600160701b9092041690565b6007546008546040516370a0823160e01b81529395509193506001600160a01b039081169291169060009083906370a0823190610d17903090600401611bf5565b602060405180830381865afa158015610d34573d6000803e3d6000fd5b505050506040513d601f19601f82011682018060405250810190610d589190611eba565b90506000826001600160a01b03166370a08231306040518263ffffffff1660e01b8152600401610d889190611bf5565b602060405180830381865afa158015610da5573d6000803e3d6000fd5b505050506040513d601f19601f82011682018060405250810190610dc99190611eba565b30600090815260208190526040812054919250610de688886113f5565b90506000610df360025490565b905080610e008685611ef2565b610e0a9190611f27565b9a5080610e178585611ef2565b610e219190611f27565b995060008b118015610e33575060008a115b610e4f5760405162461bcd60e51b81526004016104d6906121da565b610e593084611851565b610e6d6001600160a01b0388168d8d6117c9565b610e816001600160a01b0387168d8c6117c9565b6040516370a0823160e01b81526001600160a01b038816906370a0823190610ead903090600401611bf5565b602060405180830381865afa158015610eca573d6000803e3d6000fd5b505050506040513d601f19601f82011682018060405250810190610eee9190611eba565b6040516370a0823160e01b81529095506001600160a01b038716906370a0823190610f1d903090600401611bf5565b602060405180830381865afa158015610f3a573d6000803e3d6000fd5b505050506040513d601f19601f82011682018060405250810190610f5e9190611eba565b9350610f6a8585611702565b8115610f9c57600954610f8f906001600160701b03600160701b820481169116611f7d565b6001600160701b0316600c555b8b6001600160a01b0316336001600160a01b03167fdccd412f0b1252819cb1fd330b93224ca42612892bb3f4f789976e6d819364968d8d604051610fe1929190611ce5565b60405180910390a35050505050505050506001600581905550915091565b6060600480546103eb90611dad565b3360009081526001602090815260408083206001600160a01b0386168452909152812054828110156110525760405162461bcd60e51b81526004016104d690612242565b61105f338585840361122c565b5060019392505050565b600061047b3384846112e0565b6006546001600160a01b031633146110a05760405162461bcd60e51b81526004016104d6906122aa565b6103e88111156110c25760405162461bcd60e51b81526004016104d6906122ec565b600780546001600160a01b039586167fffffffffffffffffffffffff0000000000000000000000000000000000000000918216179091556008805494909516931692909217909255600a91909155600b55565b6002600554036111375760405162461bcd60e51b81526004016104d690611e9f565b60026005556007546040516370a0823160e01b8152611225916001600160a01b0316906370a082319061116e903090600401611bf5565b602060405180830381865afa15801561118b573d6000803e3d6000fd5b505050506040513d601f19601f820116820180604052508101906111af9190611eba565b6008546040516370a0823160e01b81526001600160a01b03909116906370a08231906111df903090600401611bf5565b602060405180830381865afa1580156111fc573d6000803e3d6000fd5b505050506040513d601f19601f820116820180604052508101906112209190611eba565b611702565b6001600555565b6001600160a01b0383166112525760405162461bcd60e51b81526004016104d690612354565b6001600160a01b0382166112785760405162461bcd60e51b81526004016104d6906123bc565b6001600160a01b0380841660008181526001602090815260408083209487168084529490915290819020849055517f8c5be1e5ebec7d5bd14f71427d1e84f3dd0314c0f7b2291e5b200ac8c7c3b925906112d3908590611c09565b60405180910390a3505050565b6001600160a01b0383166113065760405162461bcd60e51b81526004016104d690612424565b6001600160a01b03821661132c5760405162461bcd60e51b81526004016104d69061248c565b6001600160a01b038316600090815260208190526040902054818110156113655760405162461bcd60e51b81526004016104d6906124f4565b6001600160a01b0380851660009081526020819052604080822085850390559185168152908120805484929061139c908490611e53565b92505081905550826001600160a01b0316846001600160a01b03167fddf252ad1be2c89b69c2b068fc378daa952ba7f163c4a11628f55a4df523b3ef846040516113e69190611c09565b60405180910390a35b50505050565b600080600660009054906101000a90046001600160a01b03166001600160a01b031663be1bd3316040518163ffffffff1660e01b8152600401602060405180830381865afa15801561144b573d6000803e3d6000fd5b505050506040513d601f19601f8201168201806040525081019061146f9190611fbf565b600c546001600160a01b0382161580159450919250906115b45780156115af5760006114ac61149e8688611f7d565b6001600160701b03166115c8565b905060006114b9836115c8565b9050808211156115ac5760006114cf8284611edb565b6002546114dc9190611ef2565b90506000600660009054906101000a90046001600160a01b03166001600160a01b031663786df8ec6040518163ffffffff1660e01b8152600401602060405180830381865afa158015611533573d6000803e3d6000fd5b505050506040513d601f19601f820116820180604052508101906115579190611eba565b90506000836001611569846064611f27565b6115739190611edb565b61157d9087611ef2565b6115879190611e53565b905060006115958285611f27565b905080156115a7576115a78882611638565b505050505b50505b6115c0565b80156115c0576000600c555b505092915050565b6000600382111561162957508060006115e2600283611f27565b6115ed906001611e53565b90505b81811015611623579050806002816116088186611f27565b6116129190611e53565b61161c9190611f27565b90506115f0565b50919050565b8115611633575060015b919050565b6001600160a01b03821661165e5760405162461bcd60e51b81526004016104d690612536565b80600260008282546116709190611e53565b90915550506001600160a01b0382166000908152602081905260408120805483929061169d908490611e53565b90915550506040516001600160a01b038316906000907fddf252ad1be2c89b69c2b068fc378daa952ba7f163c4a11628f55a4df523b3ef906116e0908590611c09565b60405180910390a35050565b60008183106116fb57816104f2565b5090919050565b6001600160701b038083118015906117235750806001600160701b03168211155b61173f5760405162461bcd60e51b81526004016104d690612578565b600980546001600160701b03848116600160701b9081027fffffffff000000000000000000000000000000000000000000000000000000009093168288161792909217928390556040517f32dc813d3f262a05478ad1165d5701040e411d9a6e1684c8c2da1c8e6f3b8022936117bc9381841693910416906125a9565b60405180910390a1505050565b61184c8363a9059cbb60e01b84846040516024016117e89291906125c4565b60408051601f198184030181529190526020810180517bffffffffffffffffffffffffffffffffffffffffffffffffffffffff167fffffffff0000000000000000000000000000000000000000000000000000000090931692909217909152611922565b505050565b6001600160a01b0382166118775760405162461bcd60e51b81526004016104d69061262a565b6001600160a01b038216600090815260208190526040902054818110156118b05760405162461bcd60e51b81526004016104d690612692565b6001600160a01b03831660009081526020819052604081208383039055600280548492906118df908490611edb565b90915550506040516000906001600160a01b038516907fddf252ad1be2c89b69c2b068fc378daa952ba7f163c4a11628f55a4df523b3ef906112d3908690611c09565b6000611977826040518060400160405280602081526020017f5361666545524332303a206c6f772d6c6576656c2063616c6c206661696c6564815250856001600160a01b03166119b19092919063ffffffff16565b80519091501561184c578080602001905181019061199591906126b5565b61184c5760405162461bcd60e51b81526004016104d69061272e565b60606119c084846000856119c8565b949350505050565b6060824710156119ea5760405162461bcd60e51b81526004016104d690612796565b843b611a085760405162461bcd60e51b81526004016104d6906127d8565b600080866001600160a01b03168587604051611a24919061280a565b60006040518083038185875af1925050503d8060008114611a61576040519150601f19603f3d011682016040523d82523d6000602084013e611a66565b606091505b5091509150611a76828286611a81565b979650505050505050565b60608315611a905750816104f2565b825115611aa05782518084602001fd5b8160405162461bcd60e51b81526004016104d69190611b18565b60005b83811015611ad5578181015183820152602001611abd565b838111156113ef5750506000910152565b6000611af0825190565b808452602084019350611b07818560208601611aba565b601f01601f19169290920192915050565b602080825281016104f28184611ae6565b6001600160701b0381165b82525050565b60408101611b488285611b29565b6104f26020830184611b29565b60006001600160a01b03821661047f565b611b6f81611b55565b8114611b7a57600080fd5b50565b803561047f81611b66565b80611b6f565b803561047f81611b88565b60008060408385031215611baf57611baf600080fd5b6000611bbb8585611b7d565b9250506020611bcc85828601611b8e565b9150509250929050565b801515611b34565b6020810161047f8284611bd6565b611b3481611b55565b6020810161047f8284611bec565b80611b34565b6020810161047f8284611c03565b600080600060608486031215611c2f57611c2f600080fd5b6000611c3b8686611b7d565b9350506020611c4c86828701611b7d565b9250506040611c5d86828701611b8e565b9150509250925092565b60ff8116611b34565b6020810161047f8284611c67565b600060208284031215611c9357611c93600080fd5b60006119c08484611b7d565b600080600060608486031215611cb757611cb7600080fd5b6000611cc38686611b8e565b9350506020611cd486828701611b8e565b9250506040611c5d86828701611b7d565b60408101611cf38285611c03565b6104f26020830184611c03565b60008060408385031215611d1657611d16600080fd5b6000611d228585611b7d565b9250506020611bcc85828601611b7d565b60008060008060808587031215611d4c57611d4c600080fd5b6000611d588787611b7d565b9450506020611d6987828801611b7d565b9350506040611d7a87828801611b8e565b9250506060611d8b87828801611b8e565b91505092959194509250565b634e487b7160e01b600052602260045260246000fd5b600281046001821680611dc157607f821691505b60208210810361162357611623611d97565b60288152602081017f45524332303a207472616e7366657220616d6f756e742065786365656473206181527f6c6c6f77616e6365000000000000000000000000000000000000000000000000602082015290505b60400190565b6020808252810161047f81611dd3565b634e487b7160e01b600052601160045260246000fd5b60008219821115611e6657611e66611e3d565b500190565b601f8152602081017f5265656e7472616e637947756172643a207265656e7472616e742063616c6c00815290505b60200190565b6020808252810161047f81611e6b565b805161047f81611b88565b600060208284031215611ecf57611ecf600080fd5b60006119c08484611eaf565b600082821015611eed57611eed611e3d565b500390565b6000816000190483118215151615611f0c57611f0c611e3d565b500290565b634e487b7160e01b600052601260045260246000fd5b600082611f3657611f36611f11565b500490565b601d8152602081017f696e73756666696369656e74206c6971756964697479206d696e74656400000081529050611e99565b6020808252810161047f81611f3b565b6001600160701b03811690506001600160701b03821691506000816001600160701b030483118215151615611f0c57611f0c611e3d565b805161047f81611b66565b600060208284031215611fd457611fd4600080fd5b60006119c08484611fb4565b601b8152602081017f43616e206e6f74207377617020616674657220646561646c696e65000000000081529050611e99565b6020808252810161047f81611fe0565b601c8152602081017f4f757470757420616d6f756e74206e65656420746f206265203e20300000000081529050611e99565b6020808252810161047f81612022565b60148152602081017f4e6f7420656e6f756768206c697175696469747900000000000000000000000081529050611e99565b6020808252810161047f81612064565b600a8152602081017f494e56414c49445f544f0000000000000000000000000000000000000000000081529050611e99565b6020808252810161047f816120a6565b60198152602081017f494e53554646494349454e545f494e5055545f414d4f554e540000000000000081529050611e99565b6020808252810161047f816120e8565b60208082527f5468652072656d61696e696e6720782a79206973206c657373207468616e204b9101908152611e99565b6020808252810161047f8161212a565b608081016121788287611c03565b6121856020830186611c03565b6121926040830185611c03565b61219f6060830184611c03565b95945050505050565b601d8152602081017f496e73756666696369656e74206c6971756964697479206275726e656400000081529050611e99565b6020808252810161047f816121a8565b60258152602081017f45524332303a2064656372656173656420616c6c6f77616e63652062656c6f7781527f207a65726f00000000000000000000000000000000000000000000000000000060208201529050611e27565b6020808252810161047f816121ea565b602f8152602081017f63616e206f6e6c7920626520696e697469616c697a656420627920746865206681527f6163746f727920636f6e7472616374000000000000000000000000000000000060208201529050611e27565b6020808252810161047f81612252565b60108152602081017f66656552617465206f76657220312e300000000000000000000000000000000081529050611e99565b6020808252810161047f816122ba565b60248152602081017f45524332303a20617070726f76652066726f6d20746865207a65726f2061646481527f726573730000000000000000000000000000000000000000000000000000000060208201529050611e27565b6020808252810161047f816122fc565b60228152602081017f45524332303a20617070726f766520746f20746865207a65726f20616464726581527f737300000000000000000000000000000000000000000000000000000000000060208201529050611e27565b6020808252810161047f81612364565b60258152602081017f45524332303a207472616e736665722066726f6d20746865207a65726f20616481527f647265737300000000000000000000000000000000000000000000000000000060208201529050611e27565b6020808252810161047f816123cc565b60238152602081017f45524332303a207472616e7366657220746f20746865207a65726f206164647281527f657373000000000000000000000000000000000000000000000000000000000060208201529050611e27565b6020808252810161047f81612434565b60268152602081017f45524332303a207472616e7366657220616d6f756e742065786365656473206281527f616c616e6365000000000000000000000000000000000000000000000000000060208201529050611e27565b6020808252810161047f8161249c565b601f8152602081017f45524332303a206d696e7420746f20746865207a65726f20616464726573730081529050611e99565b6020808252810161047f81612504565b60108152602081017f55696e74313132204f564552464c4f570000000000000000000000000000000081529050611e99565b6020808252810161047f81612546565b600061047f61259d6001600160701b03841681565b90565b611b3481612588565b604081016125b782856125a0565b6104f260208301846125a0565b60408101611cf38285611bec565b60218152602081017f45524332303a206275726e2066726f6d20746865207a65726f2061646472657381527f730000000000000000000000000000000000000000000000000000000000000060208201529050611e27565b6020808252810161047f816125d2565b60228152602081017f45524332303a206275726e20616d6f756e7420657863656564732062616c616e81527f636500000000000000000000000000000000000000000000000000000000000060208201529050611e27565b6020808252810161047f8161263a565b801515611b6f565b805161047f816126a2565b6000602082840312156126ca576126ca600080fd5b60006119c084846126aa565b602a8152602081017f5361666545524332303a204552433230206f7065726174696f6e20646964206e81527f6f7420737563636565640000000000000000000000000000000000000000000060208201529050611e27565b6020808252810161047f816126d6565b60268152602081017f416464726573733a20696e73756666696369656e742062616c616e636520666f81527f722063616c6c000000000000000000000000000000000000000000000000000060208201529050611e27565b6020808252810161047f8161273e565b601d8152602081017f416464726573733a2063616c6c20746f206e6f6e2d636f6e747261637400000081529050611e99565b6020808252810161047f816127a6565b60006127f2825190565b612800818560208601611aba565b9290920192915050565b61047f81836127e856fea2646970667358221220521843d649851f32f7b1aa91357e518cc546291c6c62eb19f70fe713c2b2d5ae64736f6c634300080d003360806040523480156200001157600080fd5b5060405162001320380380620013208339810160408190526200003491620002c4565b8351849084906200004d90600390602085019062000093565b5080516200006390600490602084019062000093565b5050600580546001600160a01b0319166001600160a01b03949094169390931790925560065550620003b1915050565b828054620000a19062000381565b90600052602060002090601f016020900481019282620000c5576000855562000110565b82601f10620000e057805160ff191683800117855562000110565b8280016001018555821562000110579182015b8281111562000110578251825591602001919060010190620000f3565b506200011e92915062000122565b5090565b5b808211156200011e576000815560010162000123565b634e487b7160e01b600052604160045260246000fd5b601f19601f83011681016001600160401b038111828210171562000177576200017762000139565b6040525050565b60006200018a60405190565b90506200019882826200014f565b919050565b60006001600160401b03821115620001b957620001b962000139565b601f19601f83011660200192915050565b60005b83811015620001e7578181015183820152602001620001cd565b83811115620001f7576000848401525b50505050565b6000620002146200020e846200019d565b6200017e565b905082815260208101848484011115620002315762000231600080fd5b6200023e848285620001ca565b509392505050565b600082601f8301126200025c576200025c600080fd5b81516200026e848260208601620001fd565b949350505050565b60006001600160a01b0382165b92915050565b620002948162000276565b8114620002a057600080fd5b50565b8051620002838162000289565b8062000294565b80516200028381620002b0565b60008060008060808587031215620002df57620002df600080fd5b84516001600160401b03811115620002fa57620002fa600080fd5b620003088782880162000246565b602087015190955090506001600160401b038111156200032b576200032b600080fd5b620003398782880162000246565b93505060406200034c87828801620002a3565b92505060606200035f87828801620002b7565b91505092959194509250565b634e487b7160e01b600052602260045260246000fd5b6002810460018216806200039657607f821691505b602082108103620003ab57620003ab6200036b565b50919050565b610f5f80620003c16000396000f3fe608060405234801561001057600080fd5b50600436106100ea5760003560e01c806340c10f191161008c5780639dc29fac116100665780639dc29fac146101da578063a457c2d7146101ed578063a9059cbb14610200578063dd62ed3e1461021357600080fd5b806340c10f191461019457806370a08231146101a957806395d89b41146101d257600080fd5b806318160ddd116100c857806318160ddd1461014d57806323b872dd1461015e578063313ce56714610171578063395093511461018157600080fd5b806306fdde03146100ef578063075461721461010d578063095ea7b31461012d575b600080fd5b6100f761024c565b604051610104919061089e565b60405180910390f35b600554610120906001600160a01b031681565b60405161010491906108cf565b61014061013b366004610910565b6102de565b6040516101049190610955565b6002545b6040516101049190610969565b61014061016c366004610977565b6102f5565b60065460405161010491906109d0565b61014061018f366004610910565b610369565b6101a76101a2366004610910565b6103a5565b005b6101516101b73660046109de565b6001600160a01b031660009081526020819052604090205490565b6100f7610416565b6101a76101e8366004610910565b610425565b6101406101fb366004610910565b61048a565b61014061020e366004610910565b6104e5565b610151610221366004610a07565b6001600160a01b03918216600090815260016020908152604080832093909416825291909152205490565b60606003805461025b90610a50565b80601f016020809104026020016040519081016040528092919081815260200182805461028790610a50565b80156102d45780601f106102a9576101008083540402835291602001916102d4565b820191906000526020600020905b8154815290600101906020018083116102b757829003601f168201915b5050505050905090565b60006102eb3384846104f2565b5060015b92915050565b60006103028484846105a6565b6001600160a01b03841660009081526001602090815260408083203384529091529020548281101561034f5760405162461bcd60e51b815260040161034690610ad6565b60405180910390fd5b61035c85338584036104f2565b60019150505b9392505050565b3360008181526001602090815260408083206001600160a01b038716845290915281205490916102eb9185906103a0908690610afc565b6104f2565b6005546001600160a01b031633146103cf5760405162461bcd60e51b815260040161034690610b6c565b6103d982826106bb565b7f0f6798a560793a54c3bcfe86a93cde1e73087d944c0ea20544137d4121396885828260405161040a929190610b7c565b60405180910390a15050565b60606004805461025b90610a50565b6005546001600160a01b0316331461044f5760405162461bcd60e51b815260040161034690610b6c565b610459828261076f565b7fcc16f5dbb4873280815c1ee09dbd06736cffcc184412cf7a71a0fdb75d397ca5828260405161040a929190610b7c565b3360009081526001602090815260408083206001600160a01b0386168452909152812054828110156104ce5760405162461bcd60e51b815260040161034690610bef565b6104db33858584036104f2565b5060019392505050565b60006102eb3384846105a6565b6001600160a01b0383166105185760405162461bcd60e51b815260040161034690610c57565b6001600160a01b03821661053e5760405162461bcd60e51b815260040161034690610cbf565b6001600160a01b0380841660008181526001602090815260408083209487168084529490915290819020849055517f8c5be1e5ebec7d5bd14f71427d1e84f3dd0314c0f7b2291e5b200ac8c7c3b92590610599908590610969565b60405180910390a3505050565b6001600160a01b0383166105cc5760405162461bcd60e51b815260040161034690610d27565b6001600160a01b0382166105f25760405162461bcd60e51b815260040161034690610d8f565b6001600160a01b0383166000908152602081905260409020548181101561062b5760405162461bcd60e51b815260040161034690610df7565b6001600160a01b03808516600090815260208190526040808220858503905591851681529081208054849290610662908490610afc565b92505081905550826001600160a01b0316846001600160a01b03167fddf252ad1be2c89b69c2b068fc378daa952ba7f163c4a11628f55a4df523b3ef846040516106ac9190610969565b60405180910390a35b50505050565b6001600160a01b0382166106e15760405162461bcd60e51b815260040161034690610e07565b80600260008282546106f39190610afc565b90915550506001600160a01b03821660009081526020819052604081208054839290610720908490610afc565b90915550506040516001600160a01b038316906000907fddf252ad1be2c89b69c2b068fc378daa952ba7f163c4a11628f55a4df523b3ef90610763908590610969565b60405180910390a35050565b6001600160a01b0382166107955760405162461bcd60e51b815260040161034690610e9a565b6001600160a01b038216600090815260208190526040902054818110156107ce5760405162461bcd60e51b815260040161034690610f02565b6001600160a01b03831660009081526020819052604081208383039055600280548492906107fd908490610f12565b90915550506040516000906001600160a01b038516907fddf252ad1be2c89b69c2b068fc378daa952ba7f163c4a11628f55a4df523b3ef90610599908690610969565b60005b8381101561085b578181015183820152602001610843565b838111156106b55750506000910152565b6000610876825190565b80845260208401935061088d818560208601610840565b601f01601f19169290920192915050565b60208082528101610362818461086c565b60006001600160a01b0382166102ef565b6108c9816108af565b82525050565b602081016102ef82846108c0565b6108e6816108af565b81146108f157600080fd5b50565b80356102ef816108dd565b806108e6565b80356102ef816108ff565b6000806040838503121561092657610926600080fd5b600061093285856108f4565b925050602061094385828601610905565b9150509250929050565b8015156108c9565b602081016102ef828461094d565b806108c9565b602081016102ef8284610963565b60008060006060848603121561098f5761098f600080fd5b600061099b86866108f4565b93505060206109ac868287016108f4565b92505060406109bd86828701610905565b9150509250925092565b60ff81166108c9565b602081016102ef82846109c7565b6000602082840312156109f3576109f3600080fd5b60006109ff84846108f4565b949350505050565b60008060408385031215610a1d57610a1d600080fd5b6000610a2985856108f4565b9250506020610943858286016108f4565b634e487b7160e01b600052602260045260246000fd5b600281046001821680610a6457607f821691505b602082108103610a7657610a76610a3a565b50919050565b60288152602081017f45524332303a207472616e7366657220616d6f756e742065786365656473206181527f6c6c6f77616e6365000000000000000000000000000000000000000000000000602082015290505b60400190565b602080825281016102ef81610a7c565b634e487b7160e01b600052601160045260246000fd5b60008219821115610b0f57610b0f610ae6565b500190565b60228152602081017f6f6e6c79206d696e7465722063616e2063616c6c20746869732066756e63746981527f6f6e00000000000000000000000000000000000000000000000000000000000060208201529050610ad0565b602080825281016102ef81610b14565b60408101610b8a82856108c0565b6103626020830184610963565b60258152602081017f45524332303a2064656372656173656420616c6c6f77616e63652062656c6f7781527f207a65726f00000000000000000000000000000000000000000000000000000060208201529050610ad0565b602080825281016102ef81610b97565b60248152602081017f45524332303a20617070726f76652066726f6d20746865207a65726f2061646481527f726573730000000000000000000000000000000000000000000000000000000060208201529050610ad0565b602080825281016102ef81610bff565b60228152602081017f45524332303a20617070726f766520746f20746865207a65726f20616464726581527f737300000000000000000000000000000000000000000000000000000000000060208201529050610ad0565b602080825281016102ef81610c67565b60258152602081017f45524332303a207472616e736665722066726f6d20746865207a65726f20616481527f647265737300000000000000000000000000000000000000000000000000000060208201529050610ad0565b602080825281016102ef81610ccf565b60238152602081017f45524332303a207472616e7366657220746f20746865207a65726f206164647281527f657373000000000000000000000000000000000000000000000000000000000060208201529050610ad0565b602080825281016102ef81610d37565b60268152602081017f45524332303a207472616e7366657220616d6f756e742065786365656473206281527f616c616e6365000000000000000000000000000000000000000000000000000060208201529050610ad0565b602080825281016102ef81610d9f565b602080825281016102ef81601f81527f45524332303a206d696e7420746f20746865207a65726f206164647265737300602082015260400190565b60218152602081017f45524332303a206275726e2066726f6d20746865207a65726f2061646472657381527f730000000000000000000000000000000000000000000000000000000000000060208201529050610ad0565b602080825281016102ef81610e42565b60228152602081017f45524332303a206275726e20616d6f756e7420657863656564732062616c616e81527f636500000000000000000000000000000000000000000000000000000000000060208201529050610ad0565b602080825281016102ef81610eaa565b600082821015610f2457610f24610ae6565b50039056fea26469706673582212205de0edd2057178f381aa743fbff614c6fc7aff6b0d3639e52a048797a4c12ba064736f6c634300080d0033a264697066735822122077471e0146a879bb3d102c6fbe6094fa001d4794bee0b7c55dbeb641d5df261764736f6c634300080d0033",
  "devdoc": {
    "details": "Factory contract to deploy new pools periodically      Each pool(product) will have a unique naughtyId      Each pool will have its pool token      PolicyToken - Stablecoin      Token 0 may change but Token 1 is always stablecoin.",
    "kind": "dev",
    "methods": {
      "deployPolicyToken(string,uint256)": {
        "params": {
          "_decimals": "Decimals of the policyToken",
          "_policyTokenName": "Name of the policyToken"
        },
        "returns": {
          "_0": "tokenAddress PolicyToken address"
        }
      },
      "deployPool(address,address,uint256,uint256)": {
        "params": {
          "_deadline": "Deadline of the pool",
          "_feeRate": "Fee rate given to LP holders",
          "_policyTokenAddress": "Address of policy token",
          "_stablecoin": "Address of the stable coin"
        },
        "returns": {
          "_0": "poolAddress Address of the pool"
        }
      },
      "getAllTokens()": {
        "returns": {
          "_0": "tokens All tokens"
        }
      },
      "getInitCodeHashForPolicyToken(string,uint256)": {
        "details": "For test/task convinience, pre-compute the address      Ethers.js:      Address = ethers.utils.getCreate2Address(factory address, salt, INIT_CODE_HASH)      salt = keccak256(abi.encodePacked(_policyTokenName))",
        "params": {
          "_decimals": "Token decimals of this policy token",
          "_tokenName": "Name of the policy token to be deployed"
        }
      },
      "getPairAddress(address,address)": {
        "params": {
          "_tokenAddress1": "Address of token1",
          "_tokenAddress2": "Address of toekn2"
        },
        "returns": {
          "_0": "Pool address of the two tokens"
        }
      },
      "owner()": {
        "details": "Returns the address of the current owner."
      },
      "renounceOwnership()": {
        "details": "Leaves the contract without owner. It will not be possible to call `onlyOwner` functions anymore. Can only be called by the current owner. NOTE: Renouncing ownership will leave the contract without an owner, thereby removing any functionality that is only available to the owner."
      },
      "setIncomeMakerAddress(address)": {
        "details": "Only callable by the owner",
        "params": {
          "_incomeMaker": "New income maker address"
        }
      },
      "setIncomeMakerProportion(uint256)": {
        "details": "Only callable by the owner",
        "params": {
          "_proportion": "New proportion to income maker contract"
        }
      },
      "setPolicyCoreAddress(address)": {
        "details": "Only callable by the owner         < PolicyCore should be the minter of policyToken >         < This process is done inside constructor >",
        "params": {
          "_policyCore": "Address of policyCore contract"
        }
      },
      "transferOwnership(address)": {
        "details": "Transfers ownership of the contract to a new account (`newOwner`). Can only be called by the current owner."
      }
    },
    "title": "Naughty Factory",
    "version": 1
  },
  "userdoc": {
    "kind": "user",
    "methods": {
      "deployPolicyToken(string,uint256)": {
        "notice": "For each round we need to first create the policytoken(ERC20)"
      },
      "deployPool(address,address,uint256,uint256)": {
        "notice": "After deploy the policytoken and get the address,         we deploy the policyToken - stablecoin pool contract"
      },
      "getAllTokens()": {
        "notice": "Get the all tokens that have been deployed"
      },
      "getInitCodeHashForPolicyToken(string,uint256)": {
        "notice": "Get the INIT_CODE_HASH for policy tokens with parameters"
      },
      "getPairAddress(address,address)": {
        "notice": "Get the pair address deployed by the factory         PolicyToken address first, and then stablecoin address         The order of the tokens will be sorted inside the function"
      },
      "setIncomeMakerAddress(address)": {
        "notice": "Set income maker address"
      },
      "setIncomeMakerProportion(uint256)": {
        "notice": "Set income maker proportion"
      },
      "setPolicyCoreAddress(address)": {
        "notice": "Remember to call this function to set the policyCore address"
      }
    },
    "version": 1
  },
  "storageLayout": {
    "storage": [
      {
        "astId": 2523,
        "contract": "contracts/naughty-price/NaughtyFactory.sol:NaughtyFactory",
        "label": "_initialized",
        "offset": 0,
        "slot": "0",
        "type": "t_bool"
      },
      {
        "astId": 2526,
        "contract": "contracts/naughty-price/NaughtyFactory.sol:NaughtyFactory",
        "label": "_initializing",
        "offset": 1,
        "slot": "0",
        "type": "t_bool"
      },
      {
        "astId": 3044,
        "contract": "contracts/naughty-price/NaughtyFactory.sol:NaughtyFactory",
        "label": "__gap",
        "offset": 0,
        "slot": "1",
        "type": "t_array(t_uint256)50_storage"
      },
      {
        "astId": 2403,
        "contract": "contracts/naughty-price/NaughtyFactory.sol:NaughtyFactory",
        "label": "_owner",
        "offset": 0,
        "slot": "51",
        "type": "t_address"
      },
      {
        "astId": 2515,
        "contract": "contracts/naughty-price/NaughtyFactory.sol:NaughtyFactory",
        "label": "__gap",
        "offset": 0,
        "slot": "52",
        "type": "t_array(t_uint256)49_storage"
      },
      {
        "astId": 27935,
        "contract": "contracts/naughty-price/NaughtyFactory.sol:NaughtyFactory",
        "label": "getPair",
        "offset": 0,
        "slot": "101",
        "type": "t_mapping(t_address,t_mapping(t_address,t_address))"
      },
      {
        "astId": 27938,
        "contract": "contracts/naughty-price/NaughtyFactory.sol:NaughtyFactory",
        "label": "allPairs",
        "offset": 0,
        "slot": "102",
        "type": "t_array(t_address)dyn_storage"
      },
      {
        "astId": 27941,
        "contract": "contracts/naughty-price/NaughtyFactory.sol:NaughtyFactory",
        "label": "allTokens",
        "offset": 0,
        "slot": "103",
        "type": "t_array(t_address)dyn_storage"
      },
      {
        "astId": 27943,
        "contract": "contracts/naughty-price/NaughtyFactory.sol:NaughtyFactory",
        "label": "_nextId",
        "offset": 0,
        "slot": "104",
        "type": "t_uint256"
      },
      {
        "astId": 27945,
        "contract": "contracts/naughty-price/NaughtyFactory.sol:NaughtyFactory",
        "label": "policyCore",
        "offset": 0,
        "slot": "105",
        "type": "t_address"
      },
      {
        "astId": 27947,
        "contract": "contracts/naughty-price/NaughtyFactory.sol:NaughtyFactory",
        "label": "incomeMaker",
        "offset": 0,
        "slot": "106",
        "type": "t_address"
      },
      {
        "astId": 27949,
        "contract": "contracts/naughty-price/NaughtyFactory.sol:NaughtyFactory",
        "label": "incomeMakerProportion",
        "offset": 0,
        "slot": "107",
        "type": "t_uint256"
      }
    ],
    "types": {
      "t_address": {
        "encoding": "inplace",
        "label": "address",
        "numberOfBytes": "20"
      },
      "t_array(t_address)dyn_storage": {
        "base": "t_address",
        "encoding": "dynamic_array",
        "label": "address[]",
        "numberOfBytes": "32"
      },
      "t_array(t_uint256)49_storage": {
        "base": "t_uint256",
        "encoding": "inplace",
        "label": "uint256[49]",
        "numberOfBytes": "1568"
      },
      "t_array(t_uint256)50_storage": {
        "base": "t_uint256",
        "encoding": "inplace",
        "label": "uint256[50]",
        "numberOfBytes": "1600"
      },
      "t_bool": {
        "encoding": "inplace",
        "label": "bool",
        "numberOfBytes": "1"
      },
      "t_mapping(t_address,t_address)": {
        "encoding": "mapping",
        "key": "t_address",
        "label": "mapping(address => address)",
        "numberOfBytes": "32",
        "value": "t_address"
      },
      "t_mapping(t_address,t_mapping(t_address,t_address))": {
        "encoding": "mapping",
        "key": "t_address",
        "label": "mapping(address => mapping(address => address))",
        "numberOfBytes": "32",
        "value": "t_mapping(t_address,t_address)"
      },
      "t_uint256": {
        "encoding": "inplace",
        "label": "uint256",
        "numberOfBytes": "32"
      }
    }
  }
}