{
  "address": "0x97fEe8A3D59443e486E9CAF813DB33537113Ffcd",
  "abi": [
    {
      "inputs": [
        {
          "internalType": "address",
          "name": "_factory",
          "type": "address"
        },
        {
          "internalType": "address",
          "name": "_buyerToken",
          "type": "address"
        }
      ],
      "stateMutability": "nonpayable",
      "type": "constructor"
    },
    {
      "anonymous": false,
      "inputs": [
        {
          "indexed": true,
          "internalType": "address",
          "name": "pairAddress",
          "type": "address"
        },
        {
          "indexed": false,
          "internalType": "uint256",
          "name": "amountA",
          "type": "uint256"
        },
        {
          "indexed": false,
          "internalType": "uint256",
          "name": "amountB",
          "type": "uint256"
        },
        {
          "indexed": false,
          "internalType": "uint256",
          "name": "liquidity",
          "type": "uint256"
        }
      ],
      "name": "LiquidityAdded",
      "type": "event"
    },
    {
      "anonymous": false,
      "inputs": [
        {
          "indexed": true,
          "internalType": "address",
          "name": "pairAddress",
          "type": "address"
        },
        {
          "indexed": false,
          "internalType": "uint256",
          "name": "amountA",
          "type": "uint256"
        },
        {
          "indexed": false,
          "internalType": "uint256",
          "name": "amountB",
          "type": "uint256"
        },
        {
          "indexed": false,
          "internalType": "uint256",
          "name": "liquidity",
          "type": "uint256"
        }
      ],
      "name": "LiquidityRemoved",
      "type": "event"
    },
    {
      "anonymous": false,
      "inputs": [
        {
          "indexed": true,
          "internalType": "address",
          "name": "previousOwner",
          "type": "address"
        },
        {
          "indexed": true,
          "internalType": "address",
          "name": "newOwner",
          "type": "address"
        }
      ],
      "name": "OwnershipTransferred",
      "type": "event"
    },
    {
      "inputs": [
        {
          "internalType": "address",
          "name": "_tokenA",
          "type": "address"
        },
        {
          "internalType": "address",
          "name": "_tokenB",
          "type": "address"
        },
        {
          "internalType": "uint256",
          "name": "_amountADesired",
          "type": "uint256"
        },
        {
          "internalType": "uint256",
          "name": "_amountBDesired",
          "type": "uint256"
        },
        {
          "internalType": "uint256",
          "name": "_amountAMin",
          "type": "uint256"
        },
        {
          "internalType": "uint256",
          "name": "_amountBMin",
          "type": "uint256"
        },
        {
          "internalType": "address",
          "name": "_to",
          "type": "address"
        },
        {
          "internalType": "uint256",
          "name": "_deadline",
          "type": "uint256"
        }
      ],
      "name": "addLiquidity",
      "outputs": [
        {
          "internalType": "uint256",
          "name": "amountA",
          "type": "uint256"
        },
        {
          "internalType": "uint256",
          "name": "amountB",
          "type": "uint256"
        },
        {
          "internalType": "uint256",
          "name": "liquidity",
          "type": "uint256"
        }
      ],
      "stateMutability": "nonpayable",
      "type": "function"
    },
    {
      "inputs": [
        {
          "internalType": "address",
          "name": "_tokenA",
          "type": "address"
        },
        {
          "internalType": "address",
          "name": "_tokenB",
          "type": "address"
        },
        {
          "internalType": "uint256",
          "name": "_amountADesired",
          "type": "uint256"
        },
        {
          "internalType": "uint256",
          "name": "_amountBDesired",
          "type": "uint256"
        },
        {
          "internalType": "uint256",
          "name": "_amountAMin",
          "type": "uint256"
        },
        {
          "internalType": "uint256",
          "name": "_amountBMin",
          "type": "uint256"
        },
        {
          "internalType": "address",
          "name": "_to",
          "type": "address"
        },
        {
          "internalType": "uint256",
          "name": "_deadline",
          "type": "uint256"
        }
      ],
      "name": "addLiquidityWithUSD",
      "outputs": [],
      "stateMutability": "nonpayable",
      "type": "function"
    },
    {
      "inputs": [],
      "name": "buyerToken",
      "outputs": [
        {
          "internalType": "address",
          "name": "",
          "type": "address"
        }
      ],
      "stateMutability": "view",
      "type": "function"
    },
    {
      "inputs": [],
      "name": "factory",
      "outputs": [
        {
          "internalType": "address",
          "name": "",
          "type": "address"
        }
      ],
      "stateMutability": "view",
      "type": "function"
    },
    {
      "inputs": [],
      "name": "owner",
      "outputs": [
        {
          "internalType": "address",
          "name": "",
          "type": "address"
        }
      ],
      "stateMutability": "view",
      "type": "function"
    },
    {
      "inputs": [],
      "name": "policyCore",
      "outputs": [
        {
          "internalType": "address",
          "name": "",
          "type": "address"
        }
      ],
      "stateMutability": "view",
      "type": "function"
    },
    {
      "inputs": [
        {
          "internalType": "address",
          "name": "_tokenA",
          "type": "address"
        },
        {
          "internalType": "address",
          "name": "_tokenB",
          "type": "address"
        },
        {
          "internalType": "uint256",
          "name": "_liquidity",
          "type": "uint256"
        },
        {
          "internalType": "uint256",
          "name": "_amountAMin",
          "type": "uint256"
        },
        {
          "internalType": "uint256",
          "name": "_amountBMin",
          "type": "uint256"
        },
        {
          "internalType": "address",
          "name": "_to",
          "type": "address"
        },
        {
          "internalType": "uint256",
          "name": "_deadline",
          "type": "uint256"
        }
      ],
      "name": "removeLiquidity",
      "outputs": [
        {
          "internalType": "uint256",
          "name": "amountA",
          "type": "uint256"
        },
        {
          "internalType": "uint256",
          "name": "amountB",
          "type": "uint256"
        }
      ],
      "stateMutability": "nonpayable",
      "type": "function"
    },
    {
      "inputs": [],
      "name": "renounceOwnership",
      "outputs": [],
      "stateMutability": "nonpayable",
      "type": "function"
    },
    {
      "inputs": [
        {
          "internalType": "address",
          "name": "_buyerToken",
          "type": "address"
        }
      ],
      "name": "setBuyerToken",
      "outputs": [],
      "stateMutability": "nonpayable",
      "type": "function"
    },
    {
      "inputs": [
        {
          "internalType": "address",
          "name": "_coreAddress",
          "type": "address"
        }
      ],
      "name": "setPolicyCore",
      "outputs": [],
      "stateMutability": "nonpayable",
      "type": "function"
    },
    {
      "inputs": [
        {
          "internalType": "uint256",
          "name": "_amountIn",
          "type": "uint256"
        },
        {
          "internalType": "uint256",
          "name": "_amountOutMin",
          "type": "uint256"
        },
        {
          "internalType": "address",
          "name": "_tokenIn",
          "type": "address"
        },
        {
          "internalType": "address",
          "name": "_tokenOut",
          "type": "address"
        },
        {
          "internalType": "address",
          "name": "_to",
          "type": "address"
        },
        {
          "internalType": "uint256",
          "name": "_deadline",
          "type": "uint256"
        }
      ],
      "name": "swapExactTokensforTokens",
      "outputs": [
        {
          "internalType": "uint256",
          "name": "amountOut",
          "type": "uint256"
        }
      ],
      "stateMutability": "nonpayable",
      "type": "function"
    },
    {
      "inputs": [
        {
          "internalType": "uint256",
          "name": "_amountInMax",
          "type": "uint256"
        },
        {
          "internalType": "uint256",
          "name": "_amountOut",
          "type": "uint256"
        },
        {
          "internalType": "address",
          "name": "_tokenIn",
          "type": "address"
        },
        {
          "internalType": "address",
          "name": "_tokenOut",
          "type": "address"
        },
        {
          "internalType": "address",
          "name": "_to",
          "type": "address"
        },
        {
          "internalType": "uint256",
          "name": "_deadline",
          "type": "uint256"
        }
      ],
      "name": "swapTokensforExactTokens",
      "outputs": [
        {
          "internalType": "uint256",
          "name": "amountIn",
          "type": "uint256"
        }
      ],
      "stateMutability": "nonpayable",
      "type": "function"
    },
    {
      "inputs": [
        {
          "internalType": "address",
          "name": "newOwner",
          "type": "address"
        }
      ],
      "name": "transferOwnership",
      "outputs": [],
      "stateMutability": "nonpayable",
      "type": "function"
    }
  ],
  "transactionHash": "0xd5c68fdbaa90df28a874f740e4f0138637ef1f7e3508ed2e578cf138b9618b66",
  "args": [
    "0xed96d137d45563924897e5872f00fbccd9bfaa89",
    "0xF0F661C2Ad10192012F827816C357574Ce4e0ECb"
  ],
  "numDeployments": 1,
  "solcInputHash": "64edb72108e49c67231df32415749bc9",
  "bytecode": "0x60806040523480156200001157600080fd5b5060405162002360380380620023608339810160408190526200003491620000fd565b33620000408162000073565b50600180546001600160a01b039384166001600160a01b0319918216179091556003805492909316911617905562000140565b600080546001600160a01b038381166001600160a01b0319831681178455604051919092169283917f8be0079c531659141344cd1fd0a4f28419497f9722a3daafe3b4186f6b6457e09190a35050565b60006001600160a01b0382165b92915050565b620000e181620000c3565b8114620000ed57600080fd5b50565b8051620000d081620000d6565b60008060408385031215620001155762000115600080fd5b6000620001238585620000f0565b92505060206200013685828601620000f0565b9150509250929050565b61221080620001506000396000f3fe608060405234801561001057600080fd5b50600436106100df5760003560e01c806393822b211161008c578063c45a015511610066578063c45a0155146101b1578063e30145e0146101c4578063e8e33700146101d7578063f2fde38b146101f957600080fd5b806393822b211461016a578063a5d2a7151461017d578063baa2abde1461019057600080fd5b806337864999116100bd5780633786499914610135578063715018a6146101485780638da5cb5b1461015057600080fd5b80630a7af5c6146100e45780631a771f0a1461010d5780632d2cac2414610120575b600080fd5b6100f76100f2366004611546565b61020c565b60405161010491906115d8565b60405180910390f35b6100f761011b366004611546565b61038f565b61013361012e3660046115e6565b6104fb565b005b610133610143366004611699565b61056a565b6101336105d2565b6000546001600160a01b03165b60405161010491906116c3565b610133610178366004611699565b610617565b60035461015d906001600160a01b031681565b6101a361019e3660046116d1565b61067f565b604051610104929190611770565b60015461015d906001600160a01b031681565b60025461015d906001600160a01b031681565b6101ea6101e53660046115e6565b6108a1565b6040516101049392919061178b565b610133610207366004611699565b6109de565b6000818042106102375760405162461bcd60e51b815260040161022e906117e7565b60405180910390fd5b60006102438787610a49565b9050806001600160a01b03166329dcb0cf6040518163ffffffff1660e01b8152600401602060405180830381865afa158015610283573d6000803e3d6000fd5b505050506040513d601f19601f820116820180604052508101906102a79190611802565b4211156102c65760405162461bcd60e51b815260040161022e9061187d565b60006102d188610acb565b90506000826001600160a01b031663978bbdb96040518163ffffffff1660e01b8152600401602060405180830381865afa158015610313573d6000803e3d6000fd5b505050506040513d601f19601f820116820180604052508101906103379190611802565b9050610346828c8b8b85610b56565b9450898510156103685760405162461bcd60e51b815260040161022e906118bf565b6103748933858e610c49565b610381838c87858b610c64565b505050509695505050505050565b6000818042106103b15760405162461bcd60e51b815260040161022e906117e7565b60006103bd8787610a49565b9050806001600160a01b03166329dcb0cf6040518163ffffffff1660e01b8152600401602060405180830381865afa1580156103fd573d6000803e3d6000fd5b505050506040513d601f19601f820116820180604052508101906104219190611802565b4211156104405760405162461bcd60e51b815260040161022e9061187d565b600061044b88610acb565b90506000826001600160a01b031663978bbdb96040518163ffffffff1660e01b8152600401602060405180830381865afa15801561048d573d6000803e3d6000fd5b505050506040513d601f19601f820116820180604052508101906104b19190611802565b90506104c0828b8b8b85610d76565b94508a8511156104e25760405162461bcd60e51b815260040161022e90611901565b6104ee89338588610c49565b61038183868c858b610c64565b8080421061051b5760405162461bcd60e51b815260040161022e906117e7565b61052488610acb565b6105405760405162461bcd60e51b815260040161022e90611943565b61054c89898933610e6e565b61055c89898989898989896108a1565b505050505050505050505050565b3361057d6000546001600160a01b031690565b6001600160a01b0316146105a35760405162461bcd60e51b815260040161022e90611983565b6002805473ffffffffffffffffffffffffffffffffffffffff19166001600160a01b0392909216919091179055565b336105e56000546001600160a01b031690565b6001600160a01b03161461060b5760405162461bcd60e51b815260040161022e90611983565b6106156000610f86565b565b3361062a6000546001600160a01b031690565b6001600160a01b0316146106505760405162461bcd60e51b815260040161022e90611983565b6003805473ffffffffffffffffffffffffffffffffffffffff19166001600160a01b0392909216919091179055565b600080828042106106a25760405162461bcd60e51b815260040161022e906117e7565b60006106ae8b8b610a49565b90506106c56001600160a01b03821633838c610fe3565b6040517f89afcb440000000000000000000000000000000000000000000000000000000081526001600160a01b038216906389afcb449061070a9089906004016116c3565b60408051808303816000875af1158015610728573d6000803e3d6000fd5b505050506040513d601f19601f8201168201806040525081019061074c9190611993565b9094509250878410156107715760405162461bcd60e51b815260040161022e90611a28565b868310156107915760405162461bcd60e51b815260040161022e90611a6a565b6107d06040518060400160405280600881526020017f416d6f756e74204100000000000000000000000000000000000000000000000081525085611068565b61080f6040518060400160405280600881526020017f416d6f756e74204200000000000000000000000000000000000000000000000081525084611068565b61084e6040518060400160405280600981526020017f4c697175696469747900000000000000000000000000000000000000000000008152508a611068565b806001600160a01b03167f1dc8bb69df2b8e91fbdcbfcf93d951b3f0000f085a95fe3f7946d6161439245d85858c60405161088b9392919061178b565b60405180910390a2505097509795505050505050565b6000806000838042106108c65760405162461bcd60e51b815260040161022e906117e7565b6108d48c8c8c8c8c8c6110df565b909450925060006108e58d8d610a49565b90506108f38d338388610c49565b6108ff8c338387610c49565b6040517f6a6278420000000000000000000000000000000000000000000000000000000081526001600160a01b03821690636a62784290610944908a906004016116c3565b6020604051808303816000875af1158015610963573d6000803e3d6000fd5b505050506040513d601f19601f820116820180604052508101906109879190611802565b9250806001600160a01b03167f64b83944e79c3ce8d4c297411de637c3e102d064677aac0c163976ebdcd6f50e8686866040516109c69392919061178b565b60405180910390a25050985098509895505050505050565b336109f16000546001600160a01b031690565b6001600160a01b031614610a175760405162461bcd60e51b815260040161022e90611983565b6001600160a01b038116610a3d5760405162461bcd60e51b815260040161022e90611ad2565b610a4681610f86565b50565b60015460405163b4f69a2f60e01b815260009182916001600160a01b039091169063b4f69a2f90610a809087908790600401611ae2565b602060405180830381865afa158015610a9d573d6000803e3d6000fd5b505050506040513d601f19601f82011682018060405250810190610ac19190611b08565b9150505b92915050565b6002546040517f5cb3b14f0000000000000000000000000000000000000000000000000000000081526000916001600160a01b031690635cb3b14f90610b159085906004016116c3565b602060405180830381865afa158015610b32573d6000803e3d6000fd5b505050506040513d601f19601f82011682018060405250810190610ac59190611b3c565b6000806000610b6586866111fb565b6dffffffffffffffffffffffffffff1691506dffffffffffffffffffffffffffff16915060008089610b98578383610b9b565b82845b9150915060008911610bbf5760405162461bcd60e51b815260040161022e90611b8f565b600082118015610bcf5750600081115b610beb5760405162461bcd60e51b815260040161022e90611bd1565b6000610bf9876103e8611bf7565b610c03908b611c0e565b90506000610c118383611c0e565b9050600082610c22866103e8611c0e565b610c2c9190611c2d565b9050610c388183611c5b565b9d9c50505050505050505050505050565b610c5e6001600160a01b038516848484610fe3565b50505050565b8115610ccd576003546001600160a01b0316632290e10633866040518363ffffffff1660e01b8152600401610c9a929190611c6f565b600060405180830381600087803b158015610cb457600080fd5b505af1158015610cc8573d6000803e3d6000fd5b505050505b600082610cdb576000610cdd565b835b9050600083610cec5784610cef565b60005b6040517f6d9a640a0000000000000000000000000000000000000000000000000000000081529091506001600160a01b03881690636d9a640a90610d3b90859085908890600401611c7d565b600060405180830381600087803b158015610d5557600080fd5b505af1158015610d69573d6000803e3d6000fd5b5050505050505050505050565b6000806000610d8586866111fb565b6dffffffffffffffffffffffffffff1691506dffffffffffffffffffffffffffff16915060008089610db8578383610dbb565b82845b9150915060008911610ddf5760405162461bcd60e51b815260040161022e90611cd7565b600082118015610def5750600081115b610e0b5760405162461bcd60e51b815260040161022e90611bd1565b6000610e178a84611c0e565b610e23906103e8611c0e565b90506000610e33886103e8611bf7565b610e3d8c85611bf7565b610e479190611c0e565b9050610e538183611c5b565b610e5e906001611c2d565b9c9b505050505050505050505050565b6002546040517f38081de20000000000000000000000000000000000000000000000000000000081526000916001600160a01b0316906338081de290610eb89088906004016116c3565b600060405180830381865afa158015610ed5573d6000803e3d6000fd5b505050506040513d6000823e601f3d908101601f19168201604052610efd9190810190611e02565b6002546040517ff15cac340000000000000000000000000000000000000000000000000000000081529192506001600160a01b03169063f15cac3490610f4d908490889088908890600401611e6f565b600060405180830381600087803b158015610f6757600080fd5b505af1158015610f7b573d6000803e3d6000fd5b505050505050505050565b600080546001600160a01b0383811673ffffffffffffffffffffffffffffffffffffffff19831681178455604051919092169283917f8be0079c531659141344cd1fd0a4f28419497f9722a3daafe3b4186f6b6457e09190a35050565b610c5e846323b872dd60e01b85858560405160240161100493929190611eb2565b60408051601f198184030181529190526020810180517bffffffffffffffffffffffffffffffffffffffffffffffffffffffff167fffffffff00000000000000000000000000000000000000000000000000000000909316929092179091526112e2565b6110db828260405160240161107e929190611ecd565b60408051601f198184030181529190526020810180517bffffffffffffffffffffffffffffffffffffffffffffffffffffffff167f9710a9d000000000000000000000000000000000000000000000000000000000179052611376565b5050565b6000806110eb87610acb565b6111075760405162461bcd60e51b815260040161022e90611f1f565b6000806111148a8a6111fb565b6dffffffffffffffffffffffffffff1691506dffffffffffffffffffffffffffff169150816000148015611146575080155b15611156578793508692506111ee565b6000611163898484611397565b9050878111611197578581101561118c5760405162461bcd60e51b815260040161022e90611f61565b8894509250826111ec565b60006111a4898486611397565b9050898111156111c65760405162461bcd60e51b815260040161022e90611fa3565b878110156111e65760405162461bcd60e51b815260040161022e90611fe5565b94508793505b505b5050965096945050505050565b60015460405163b4f69a2f60e01b8152600091829182916001600160a01b03169063b4f69a2f906112329088908890600401611ae2565b602060405180830381865afa15801561124f573d6000803e3d6000fd5b505050506040513d601f19601f820116820180604052508101906112739190611b08565b9050806001600160a01b0316630902f1ac6040518163ffffffff1660e01b81526004016040805180830381865afa1580156112b2573d6000803e3d6000fd5b505050506040513d601f19601f820116820180604052508101906112d69190612016565b90969095509350505050565b6000611337826040518060400160405280602081526020017f5361666545524332303a206c6f772d6c6576656c2063616c6c206661696c6564815250856001600160a01b03166114019092919063ffffffff16565b80519091501561137157808060200190518101906113559190611b3c565b6113715760405162461bcd60e51b815260040161022e906120a1565b505050565b80516a636f6e736f6c652e6c6f67602083016000808483855afa5050505050565b60008084116113b85760405162461bcd60e51b815260040161022e906120e3565b6000831180156113c85750600082115b6113e45760405162461bcd60e51b815260040161022e90611bd1565b826113ef8386611c0e565b6113f99190611c5b565b949350505050565b60606113f98484600085611417565b9392505050565b6060824710156114395760405162461bcd60e51b815260040161022e9061214b565b843b6114575760405162461bcd60e51b815260040161022e9061218d565b600080866001600160a01b0316858760405161147391906121bf565b60006040518083038185875af1925050503d80600081146114b0576040519150601f19603f3d011682016040523d82523d6000602084013e6114b5565b606091505b50915091506114c58282866114d0565b979650505050505050565b606083156114df575081611410565b8251156114ef5782518084602001fd5b8160405162461bcd60e51b815260040161022e91906121c9565b805b8114610a4657600080fd5b8035610ac581611509565b60006001600160a01b038216610ac5565b61150b81611521565b8035610ac581611532565b60008060008060008060c0878903121561156257611562600080fd5b600061156e8989611516565b965050602061157f89828a01611516565b955050604061159089828a0161153b565b94505060606115a189828a0161153b565b93505060806115b289828a0161153b565b92505060a06115c389828a01611516565b9150509295509295509295565b805b82525050565b60208101610ac582846115d0565b600080600080600080600080610100898b03121561160657611606600080fd5b60006116128b8b61153b565b98505060206116238b828c0161153b565b97505060406116348b828c01611516565b96505060606116458b828c01611516565b95505060806116568b828c01611516565b94505060a06116678b828c01611516565b93505060c06116788b828c0161153b565b92505060e06116898b828c01611516565b9150509295985092959890939650565b6000602082840312156116ae576116ae600080fd5b60006113f9848461153b565b6115d281611521565b60208101610ac582846116ba565b600080600080600080600060e0888a0312156116ef576116ef600080fd5b60006116fb8a8a61153b565b975050602061170c8a828b0161153b565b965050604061171d8a828b01611516565b955050606061172e8a828b01611516565b945050608061173f8a828b01611516565b93505060a06117508a828b0161153b565b92505060c06117618a828b01611516565b91505092959891949750929550565b6040810161177e82856115d0565b61141060208301846115d0565b6060810161179982866115d0565b6117a660208301856115d0565b6113f960408301846115d0565b60138152602081017f65787069726564207472616e73616374696f6e00000000000000000000000000815290505b60200190565b60208082528101610ac5816117b3565b8051610ac581611509565b60006020828403121561181757611817600080fd5b60006113f984846117f7565b60268152602081017f5468697320706f6f6c20686173206265656e2066726f7a656e20666f7220737781527f617070696e670000000000000000000000000000000000000000000000000000602082015290505b60400190565b60208082528101610ac581611823565b60178152602081017f657863657373697665206f757470757420616d6f756e74000000000000000000815290506117e1565b60208082528101610ac58161188d565b60168152602081017f65786365737369766520696e70757420616d6f756e7400000000000000000000815290506117e1565b60208082528101610ac5816118cf565b601c8152602081017f546f6b656e20422073686f756c6420626520737461626c65636f696e00000000815290506117e1565b60208082528101610ac581611911565b60208082527f4f776e61626c653a2063616c6c6572206973206e6f7420746865206f776e657291019081526117e1565b60208082528101610ac581611953565b600080604083850312156119a9576119a9600080fd5b60006119b585856117f7565b92505060206119c6858286016117f7565b9150509250929050565b60238152602081017f496e73756666696369656e7420696e737572616e636520746f6b656e20616d6f81527f756e74000000000000000000000000000000000000000000000000000000000060208201529050611877565b60208082528101610ac5816119d0565b60178152602081017f496e73756666696369656e74205553445420746f6b656e000000000000000000815290506117e1565b60208082528101610ac581611a38565b60268152602081017f4f776e61626c653a206e6577206f776e657220697320746865207a65726f206181527f646472657373000000000000000000000000000000000000000000000000000060208201529050611877565b60208082528101610ac581611a7a565b60408101611af082856116ba565b61141060208301846116ba565b8051610ac581611532565b600060208284031215611b1d57611b1d600080fd5b60006113f98484611afd565b80151561150b565b8051610ac581611b29565b600060208284031215611b5157611b51600080fd5b60006113f98484611b31565b60198152602081017f696e73756666696369656e7420696e70757420616d6f756e7400000000000000815290506117e1565b60208082528101610ac581611b5d565b60168152602081017f696e73756666696369656e74206c697175696469747900000000000000000000815290506117e1565b60208082528101610ac581611b9f565b634e487b7160e01b600052601160045260246000fd5b600082821015611c0957611c09611be1565b500390565b6000816000190483118215151615611c2857611c28611be1565b500290565b60008219821115611c4057611c40611be1565b500190565b634e487b7160e01b600052601260045260246000fd5b600082611c6a57611c6a611c45565b500490565b6040810161177e82856116ba565b60608101611c8b82866115d0565b611c9860208301856115d0565b6113f960408301846116ba565b601a8152602081017f696e73756666696369656e74206f757470757420616d6f756e74000000000000815290506117e1565b60208082528101610ac581611ca5565b634e487b7160e01b600052604160045260246000fd5b601f19601f830116810181811067ffffffffffffffff82111715611d2357611d23611ce7565b6040525050565b6000611d3560405190565b9050611d418282611cfd565b919050565b600067ffffffffffffffff821115611d6057611d60611ce7565b601f19601f83011660200192915050565b60005b83811015611d8c578181015183820152602001611d74565b83811115610c5e5750506000910152565b6000611db0611dab84611d46565b611d2a565b905082815260208101848484011115611dcb57611dcb600080fd5b611dd6848285611d71565b509392505050565b600082601f830112611df257611df2600080fd5b81516113f9848260208601611d9d565b600060208284031215611e1757611e17600080fd5b815167ffffffffffffffff811115611e3157611e31600080fd5b6113f984828501611dde565b6000611e47825190565b808452602084019350611e5e818560208601611d71565b601f01601f19169290920192915050565b60808082528101611e808187611e3d565b9050611e8f60208301866116ba565b611e9c60408301856115d0565b611ea960608301846116ba565b95945050505050565b60608101611ec082866116ba565b6117a660208301856116ba565b60408082528101611ede8185611e3d565b905061141060208301846115d0565b601f8152602081017f506c656173652070757420737461626c65636f696e20617320746f6b656e4200815290506117e1565b60208082528101610ac581611eed565b60158152602081017f494e53554646494349454e545f425f414d4f554e540000000000000000000000815290506117e1565b60208082528101610ac581611f2f565b60068152602081017f6e6f6e6f6e6f0000000000000000000000000000000000000000000000000000815290506117e1565b60208082528101610ac581611f71565b60158152602081017f494e53554646494349454e545f415f414d4f554e540000000000000000000000815290506117e1565b60208082528101610ac581611fb3565b6dffffffffffffffffffffffffffff811661150b565b8051610ac581611ff5565b6000806040838503121561202c5761202c600080fd5b6000612038858561200b565b92505060206119c68582860161200b565b602a8152602081017f5361666545524332303a204552433230206f7065726174696f6e20646964206e81527f6f7420737563636565640000000000000000000000000000000000000000000060208201529050611877565b60208082528101610ac581612049565b60138152602081017f696e73756666696369656e7420616d6f756e7400000000000000000000000000815290506117e1565b60208082528101610ac5816120b1565b60268152602081017f416464726573733a20696e73756666696369656e742062616c616e636520666f81527f722063616c6c000000000000000000000000000000000000000000000000000060208201529050611877565b60208082528101610ac5816120f3565b601d8152602081017f416464726573733a2063616c6c20746f206e6f6e2d636f6e7472616374000000815290506117e1565b60208082528101610ac58161215b565b60006121a7825190565b6121b5818560208601611d71565b9290920192915050565b610ac5818361219d565b602080825281016114108184611e3d56fea2646970667358221220a25759262afe3ee4bea69a0c7a3049ed2e53208bc38a9aa3495494cc5967747564736f6c634300080a0033",
  "devdoc": {
    "kind": "dev",
    "methods": {
      "addLiquidity(address,address,uint256,uint256,uint256,uint256,address,uint256)": {
        "params": {
          "_amountADesired": "Amount of policyToken desired",
          "_amountAMin": "Minimum amoutn of policy token",
          "_amountBDesired": "Amount of stablecoin desired",
          "_amountBMin": "Minimum amount of stablecoin",
          "_deadline": "Transaction will revert after this deadline",
          "_to": "Address that receive the lp token, normally the user himself",
          "_tokenA": "Address of policyToken",
          "_tokenB": "Address of stablecoin"
        },
        "returns": {
          "amountA": "Amount of tokenA to be input",
          "amountB": "Amount of tokenB to be input",
          "liquidity": "LP token to be mint"
        }
      },
      "addLiquidityWithUSD(address,address,uint256,uint256,uint256,uint256,address,uint256)": {
        "details": "Only difference with addLiquidity is that mintPolicyTokenForUser",
        "params": {
          "_amountADesired": "Amount of policyToken desired",
          "_amountAMin": "Minimum amount of policy token",
          "_amountBDesired": "Amount of stablecoin desired",
          "_amountBMin": "Minimum amount of stablecoin",
          "_deadline": "Transaction will revert after this deadline",
          "_to": "Address that receive the lp token, normally the user himself",
          "_tokenA": "Address of policyToken",
          "_tokenB": "Address of stablecoin"
        }
      },
      "removeLiquidity(address,address,uint256,uint256,uint256,address,uint256)": {
        "params": {
          "_amountAMin": "Minimum amount of tokenA given out",
          "_amountBMin": "Minimum amount of tokenB given out",
          "_deadline": "Deadline of this transaction",
          "_liquidity": "The lptoken amount to be removed",
          "_to": "User address",
          "_tokenA": "Address of policy token",
          "_tokenB": "Address of stablecoin"
        },
        "returns": {
          "amountA": "Amount of token0 given out",
          "amountB": "Amount of token1 given out"
        }
      },
      "renounceOwnership()": {
        "details": "Renouncing ownership will leave the contract without an owner,         thereby removing any functionality that is only available to the owner."
      },
      "setBuyerToken(address)": {
        "params": {
          "_buyerToken": "Address of new buyer token"
        }
      },
      "setPolicyCore(address)": {
        "params": {
          "_coreAddress": "Address of new policyCore"
        }
      },
      "swapExactTokensforTokens(uint256,uint256,address,address,address,uint256)": {
        "params": {
          "_amountIn": "Fixed token input",
          "_amountOutMin": "Minimum token output",
          "_deadline": "Deadline for this specific swap",
          "_to": "User address",
          "_tokenIn": "Address of input token",
          "_tokenOut": "Address of output token"
        },
        "returns": {
          "amountOut": "Amounts to be really given out"
        }
      },
      "swapTokensforExactTokens(uint256,uint256,address,address,address,uint256)": {
        "params": {
          "_amountInMax": "Maximum token input",
          "_amountOut": "Fixed token output",
          "_deadline": "Deadline for this specific swap",
          "_to": "User address",
          "_tokenIn": "Address of input token",
          "_tokenOut": "Address of output token"
        },
        "returns": {
          "amountIn": "Amounts to be really put in"
        }
      },
      "transferOwnership(address)": {
        "details": "Can only be called by the current owner.",
        "params": {
          "newOwner": "Address of the new owner"
        }
      }
    },
    "title": "NaughtyRouter",
    "version": 1
  },
  "userdoc": {
    "kind": "user",
    "methods": {
      "addLiquidity(address,address,uint256,uint256,uint256,uint256,address,uint256)": {
        "notice": "Add liquidity function"
      },
      "addLiquidityWithUSD(address,address,uint256,uint256,uint256,uint256,address,uint256)": {
        "notice": "Add liquidity but only provide stablecoins"
      },
      "owner()": {
        "notice": "Returns the address of the current owner."
      },
      "removeLiquidity(address,address,uint256,uint256,uint256,address,uint256)": {
        "notice": "Remove liquidity from the pool"
      },
      "renounceOwnership()": {
        "notice": "Leaves the contract without owner. It will not be possible to call         `onlyOwner` functions anymore. Can only be called by the current owner."
      },
      "setBuyerToken(address)": {
        "notice": "Set the address of buyer token"
      },
      "setPolicyCore(address)": {
        "notice": "Set the address of policyCore"
      },
      "swapExactTokensforTokens(uint256,uint256,address,address,address,uint256)": {
        "notice": "Amount in is fixed"
      },
      "swapTokensforExactTokens(uint256,uint256,address,address,address,uint256)": {
        "notice": "Amount out is fixed"
      },
      "transferOwnership(address)": {
        "notice": "Transfers ownership of the contract to a new account (`newOwner`)."
      }
    },
    "notice": "Router for the pool, you can add/remove liquidity or swap A for B.         Swapping fee rate is 2% and all of them are given to LP.         Very similar logic with Uniswap V2.",
    "version": 1
  },
  "storageLayout": {
    "storage": [
      {
        "astId": 26357,
        "contract": "contracts/naughty-price/NaughtyRouter.sol:NaughtyRouter",
        "label": "_owner",
        "offset": 0,
        "slot": "0",
        "type": "t_address"
      },
      {
        "astId": 20944,
        "contract": "contracts/naughty-price/NaughtyRouter.sol:NaughtyRouter",
        "label": "factory",
        "offset": 0,
        "slot": "1",
        "type": "t_address"
      },
      {
        "astId": 20946,
        "contract": "contracts/naughty-price/NaughtyRouter.sol:NaughtyRouter",
        "label": "policyCore",
        "offset": 0,
        "slot": "2",
        "type": "t_address"
      },
      {
        "astId": 20948,
        "contract": "contracts/naughty-price/NaughtyRouter.sol:NaughtyRouter",
        "label": "buyerToken",
        "offset": 0,
        "slot": "3",
        "type": "t_address"
      }
    ],
    "types": {
      "t_address": {
        "encoding": "inplace",
        "label": "address",
        "numberOfBytes": "20"
      }
    }
  }
}