{
  "address": "0x51b62bD0B42eC3548ae6a621675FA997377eaaeb",
  "abi": [
    {
      "inputs": [
        {
          "internalType": "address",
          "name": "_factory",
          "type": "address"
        },
        {
          "internalType": "address",
          "name": "_buyerToken",
          "type": "address"
        }
      ],
      "stateMutability": "nonpayable",
      "type": "constructor"
    },
    {
      "anonymous": false,
      "inputs": [
        {
          "indexed": false,
          "internalType": "address",
          "name": "oldBuyerToken",
          "type": "address"
        },
        {
          "indexed": false,
          "internalType": "address",
          "name": "newBuyerToken",
          "type": "address"
        }
      ],
      "name": "BuyerTokenChanged",
      "type": "event"
    },
    {
      "anonymous": false,
      "inputs": [
        {
          "indexed": true,
          "internalType": "address",
          "name": "pairAddress",
          "type": "address"
        },
        {
          "indexed": false,
          "internalType": "uint256",
          "name": "amountA",
          "type": "uint256"
        },
        {
          "indexed": false,
          "internalType": "uint256",
          "name": "amountB",
          "type": "uint256"
        },
        {
          "indexed": false,
          "internalType": "uint256",
          "name": "liquidity",
          "type": "uint256"
        }
      ],
      "name": "LiquidityAdded",
      "type": "event"
    },
    {
      "anonymous": false,
      "inputs": [
        {
          "indexed": true,
          "internalType": "address",
          "name": "pairAddress",
          "type": "address"
        },
        {
          "indexed": false,
          "internalType": "uint256",
          "name": "amountA",
          "type": "uint256"
        },
        {
          "indexed": false,
          "internalType": "uint256",
          "name": "amountB",
          "type": "uint256"
        },
        {
          "indexed": false,
          "internalType": "uint256",
          "name": "liquidity",
          "type": "uint256"
        }
      ],
      "name": "LiquidityRemoved",
      "type": "event"
    },
    {
      "anonymous": false,
      "inputs": [
        {
          "indexed": true,
          "internalType": "address",
          "name": "previousOwner",
          "type": "address"
        },
        {
          "indexed": true,
          "internalType": "address",
          "name": "newOwner",
          "type": "address"
        }
      ],
      "name": "OwnershipTransferred",
      "type": "event"
    },
    {
      "anonymous": false,
      "inputs": [
        {
          "indexed": false,
          "internalType": "address",
          "name": "oldPolicyCore",
          "type": "address"
        },
        {
          "indexed": false,
          "internalType": "address",
          "name": "newPolicyCore",
          "type": "address"
        }
      ],
      "name": "PolicyCoreChanged",
      "type": "event"
    },
    {
      "inputs": [
        {
          "internalType": "address",
          "name": "_tokenA",
          "type": "address"
        },
        {
          "internalType": "address",
          "name": "_tokenB",
          "type": "address"
        },
        {
          "internalType": "uint256",
          "name": "_amountADesired",
          "type": "uint256"
        },
        {
          "internalType": "uint256",
          "name": "_amountBDesired",
          "type": "uint256"
        },
        {
          "internalType": "uint256",
          "name": "_amountAMin",
          "type": "uint256"
        },
        {
          "internalType": "uint256",
          "name": "_amountBMin",
          "type": "uint256"
        },
        {
          "internalType": "address",
          "name": "_to",
          "type": "address"
        },
        {
          "internalType": "uint256",
          "name": "_deadline",
          "type": "uint256"
        }
      ],
      "name": "addLiquidity",
      "outputs": [
        {
          "internalType": "uint256",
          "name": "amountA",
          "type": "uint256"
        },
        {
          "internalType": "uint256",
          "name": "amountB",
          "type": "uint256"
        },
        {
          "internalType": "uint256",
          "name": "liquidity",
          "type": "uint256"
        }
      ],
      "stateMutability": "nonpayable",
      "type": "function"
    },
    {
      "inputs": [
        {
          "internalType": "address",
          "name": "_tokenA",
          "type": "address"
        },
        {
          "internalType": "address",
          "name": "_tokenB",
          "type": "address"
        },
        {
          "internalType": "uint256",
          "name": "_amountADesired",
          "type": "uint256"
        },
        {
          "internalType": "uint256",
          "name": "_amountBDesired",
          "type": "uint256"
        },
        {
          "internalType": "uint256",
          "name": "_amountAMin",
          "type": "uint256"
        },
        {
          "internalType": "uint256",
          "name": "_amountBMin",
          "type": "uint256"
        },
        {
          "internalType": "address",
          "name": "_to",
          "type": "address"
        },
        {
          "internalType": "uint256",
          "name": "_deadline",
          "type": "uint256"
        }
      ],
      "name": "addLiquidityWithUSD",
      "outputs": [
        {
          "internalType": "uint256",
          "name": "amountA",
          "type": "uint256"
        },
        {
          "internalType": "uint256",
          "name": "amountB",
          "type": "uint256"
        },
        {
          "internalType": "uint256",
          "name": "liquidity",
          "type": "uint256"
        }
      ],
      "stateMutability": "nonpayable",
      "type": "function"
    },
    {
      "inputs": [],
      "name": "buyerToken",
      "outputs": [
        {
          "internalType": "address",
          "name": "",
          "type": "address"
        }
      ],
      "stateMutability": "view",
      "type": "function"
    },
    {
      "inputs": [],
      "name": "factory",
      "outputs": [
        {
          "internalType": "address",
          "name": "",
          "type": "address"
        }
      ],
      "stateMutability": "view",
      "type": "function"
    },
    {
      "inputs": [],
      "name": "owner",
      "outputs": [
        {
          "internalType": "address",
          "name": "",
          "type": "address"
        }
      ],
      "stateMutability": "view",
      "type": "function"
    },
    {
      "inputs": [],
      "name": "policyCore",
      "outputs": [
        {
          "internalType": "address",
          "name": "",
          "type": "address"
        }
      ],
      "stateMutability": "view",
      "type": "function"
    },
    {
      "inputs": [
        {
          "internalType": "address",
          "name": "_tokenA",
          "type": "address"
        },
        {
          "internalType": "address",
          "name": "_tokenB",
          "type": "address"
        },
        {
          "internalType": "uint256",
          "name": "_liquidity",
          "type": "uint256"
        },
        {
          "internalType": "uint256",
          "name": "_amountAMin",
          "type": "uint256"
        },
        {
          "internalType": "uint256",
          "name": "_amountBMin",
          "type": "uint256"
        },
        {
          "internalType": "address",
          "name": "_to",
          "type": "address"
        },
        {
          "internalType": "uint256",
          "name": "_deadline",
          "type": "uint256"
        }
      ],
      "name": "removeLiquidity",
      "outputs": [
        {
          "internalType": "uint256",
          "name": "amountA",
          "type": "uint256"
        },
        {
          "internalType": "uint256",
          "name": "amountB",
          "type": "uint256"
        }
      ],
      "stateMutability": "nonpayable",
      "type": "function"
    },
    {
      "inputs": [],
      "name": "renounceOwnership",
      "outputs": [],
      "stateMutability": "nonpayable",
      "type": "function"
    },
    {
      "inputs": [
        {
          "internalType": "address",
          "name": "_buyerToken",
          "type": "address"
        }
      ],
      "name": "setBuyerToken",
      "outputs": [],
      "stateMutability": "nonpayable",
      "type": "function"
    },
    {
      "inputs": [
        {
          "internalType": "address",
          "name": "_coreAddress",
          "type": "address"
        }
      ],
      "name": "setPolicyCore",
      "outputs": [],
      "stateMutability": "nonpayable",
      "type": "function"
    },
    {
      "inputs": [
        {
          "internalType": "uint256",
          "name": "_amountIn",
          "type": "uint256"
        },
        {
          "internalType": "uint256",
          "name": "_amountOutMin",
          "type": "uint256"
        },
        {
          "internalType": "address",
          "name": "_tokenIn",
          "type": "address"
        },
        {
          "internalType": "address",
          "name": "_tokenOut",
          "type": "address"
        },
        {
          "internalType": "address",
          "name": "_to",
          "type": "address"
        },
        {
          "internalType": "uint256",
          "name": "_deadline",
          "type": "uint256"
        }
      ],
      "name": "swapExactTokensforTokens",
      "outputs": [
        {
          "internalType": "uint256",
          "name": "amountOut",
          "type": "uint256"
        }
      ],
      "stateMutability": "nonpayable",
      "type": "function"
    },
    {
      "inputs": [
        {
          "internalType": "uint256",
          "name": "_amountInMax",
          "type": "uint256"
        },
        {
          "internalType": "uint256",
          "name": "_amountOut",
          "type": "uint256"
        },
        {
          "internalType": "address",
          "name": "_tokenIn",
          "type": "address"
        },
        {
          "internalType": "address",
          "name": "_tokenOut",
          "type": "address"
        },
        {
          "internalType": "address",
          "name": "_to",
          "type": "address"
        },
        {
          "internalType": "uint256",
          "name": "_deadline",
          "type": "uint256"
        }
      ],
      "name": "swapTokensforExactTokens",
      "outputs": [
        {
          "internalType": "uint256",
          "name": "amountIn",
          "type": "uint256"
        }
      ],
      "stateMutability": "nonpayable",
      "type": "function"
    },
    {
      "inputs": [
        {
          "internalType": "address",
          "name": "newOwner",
          "type": "address"
        }
      ],
      "name": "transferOwnership",
      "outputs": [],
      "stateMutability": "nonpayable",
      "type": "function"
    }
  ],
  "transactionHash": "0x90d730f24089321d7503082205817e151bc23b90bb606f36d312d9acaf37616a",
  "args": [
    "0xed96d137d45563924897e5872f00fbccd9bfaa89",
    "0xF0F661C2Ad10192012F827816C357574Ce4e0ECb"
  ],
  "numDeployments": 1,
  "solcInputHash": "88b5dd6484bcfcbc6d24c7f8718e901e",
  "bytecode": "0x60806040523480156200001157600080fd5b5060405162002483380380620024838339810160408190526200003491620000fd565b33620000408162000073565b50600180546001600160a01b039384166001600160a01b0319918216179091556003805492909316911617905562000140565b600080546001600160a01b038381166001600160a01b0319831681178455604051919092169283917f8be0079c531659141344cd1fd0a4f28419497f9722a3daafe3b4186f6b6457e09190a35050565b60006001600160a01b0382165b92915050565b620000e181620000c3565b8114620000ed57600080fd5b50565b8051620000d081620000d6565b60008060408385031215620001155762000115600080fd5b6000620001238585620000f0565b92505060206200013685828601620000f0565b9150509250929050565b61233380620001506000396000f3fe608060405234801561001057600080fd5b50600436106100df5760003560e01c806393822b211161008c578063c45a015511610066578063c45a0155146101c0578063e30145e0146101d3578063e8e33700146101e6578063f2fde38b146101f957600080fd5b806393822b2114610179578063a5d2a7151461018c578063baa2abde1461019f57600080fd5b806337864999116100bd5780633786499914610142578063715018a6146101575780638da5cb5b1461015f57600080fd5b80630a7af5c6146100e45780631a771f0a1461010d5780632d2cac2414610120575b600080fd5b6100f76100f2366004611537565b61020c565b60405161010491906115c9565b60405180910390f35b6100f761011b366004611537565b610390565b61013361012e3660046115d7565b6104fd565b6040516101049392919061168a565b6101556101503660046116b2565b610578565b005b610155610627565b6000546001600160a01b03165b60405161010491906116dc565b6101556101873660046116b2565b61066c565b60035461016c906001600160a01b031681565b6101b26101ad3660046116ea565b61071b565b604051610104929190611789565b60015461016c906001600160a01b031681565b60025461016c906001600160a01b031681565b6101336101f43660046115d7565b610880565b6101556102073660046116b2565b6109bd565b6000818042106102375760405162461bcd60e51b815260040161022e906117d8565b60405180910390fd5b60006102438787610a28565b9050806001600160a01b03166329dcb0cf6040518163ffffffff1660e01b8152600401602060405180830381865afa158015610283573d6000803e3d6000fd5b505050506040513d601f19601f820116820180604052508101906102a791906117f3565b4211156102c65760405162461bcd60e51b815260040161022e9061186e565b60006102d188610aaa565b90506000826001600160a01b031663978bbdb96040518163ffffffff1660e01b8152600401602060405180830381865afa158015610313573d6000803e3d6000fd5b505050506040513d601f19601f8201168201806040525081019061033791906117f3565b9050610346828c8b8b85610b35565b9450898510156103685760405162461bcd60e51b815260040161022e906118b0565b6103748933858e610c28565b610382838a8d88868c610c43565b505050509695505050505050565b6000818042106103b25760405162461bcd60e51b815260040161022e906117d8565b60006103be8787610a28565b9050806001600160a01b03166329dcb0cf6040518163ffffffff1660e01b8152600401602060405180830381865afa1580156103fe573d6000803e3d6000fd5b505050506040513d601f19601f8201168201806040525081019061042291906117f3565b4211156104415760405162461bcd60e51b815260040161022e9061186e565b600061044c88610aaa565b90506000826001600160a01b031663978bbdb96040518163ffffffff1660e01b8152600401602060405180830381865afa15801561048e573d6000803e3d6000fd5b505050506040513d601f19601f820116820180604052508101906104b291906117f3565b90506104c1828b8b8b85610dff565b94508a8511156104e35760405162461bcd60e51b815260040161022e906118f2565b6104ef89338588610c28565b610382838a878d868c610c43565b6000806000838042106105225760405162461bcd60e51b815260040161022e906117d8565b61052b8b610aaa565b6105475760405162461bcd60e51b815260040161022e90611934565b6105538c8c8c33610ef7565b6105638c8c8c8c8c8c8c8c610880565b919e909d50909b509950505050505050505050565b3361058b6000546001600160a01b031690565b6001600160a01b0316146105b15760405162461bcd60e51b815260040161022e90611974565b6002546040517f24114c7899342052259d78291e404118dfd832aee2b6e937826762b2c8a6ca19916105f0916001600160a01b03909116908490611984565b60405180910390a16002805473ffffffffffffffffffffffffffffffffffffffff19166001600160a01b0392909216919091179055565b3361063a6000546001600160a01b031690565b6001600160a01b0316146106605760405162461bcd60e51b815260040161022e90611974565b61066a600061100f565b565b3361067f6000546001600160a01b031690565b6001600160a01b0316146106a55760405162461bcd60e51b815260040161022e90611974565b6003546040517faca470531fb4335c09f6843f42d8a66afafe3a39b49e81f6773711f259b547f2916106e4916001600160a01b03909116908490611984565b60405180910390a16003805473ffffffffffffffffffffffffffffffffffffffff19166001600160a01b0392909216919091179055565b6000808280421061073e5760405162461bcd60e51b815260040161022e906117d8565b600061074a8b8b610a28565b90506107616001600160a01b03821633838c61106c565b6040517f89afcb440000000000000000000000000000000000000000000000000000000081526001600160a01b038216906389afcb44906107a69089906004016116dc565b60408051808303816000875af11580156107c4573d6000803e3d6000fd5b505050506040513d601f19601f820116820180604052508101906107e8919061199f565b90945092508784101561080d5760405162461bcd60e51b815260040161022e90611a34565b8683101561082d5760405162461bcd60e51b815260040161022e90611a76565b806001600160a01b03167f1dc8bb69df2b8e91fbdcbfcf93d951b3f0000f085a95fe3f7946d6161439245d85858c60405161086a9392919061168a565b60405180910390a2505097509795505050505050565b6000806000838042106108a55760405162461bcd60e51b815260040161022e906117d8565b6108b38c8c8c8c8c8c6110f1565b909450925060006108c48d8d610a28565b90506108d28d338388610c28565b6108de8c338387610c28565b6040517f6a6278420000000000000000000000000000000000000000000000000000000081526001600160a01b03821690636a62784290610923908a906004016116dc565b6020604051808303816000875af1158015610942573d6000803e3d6000fd5b505050506040513d601f19601f8201168201806040525081019061096691906117f3565b9250806001600160a01b03167f64b83944e79c3ce8d4c297411de637c3e102d064677aac0c163976ebdcd6f50e8686866040516109a59392919061168a565b60405180910390a25050985098509895505050505050565b336109d06000546001600160a01b031690565b6001600160a01b0316146109f65760405162461bcd60e51b815260040161022e90611974565b6001600160a01b038116610a1c5760405162461bcd60e51b815260040161022e90611ade565b610a258161100f565b50565b60015460405163b4f69a2f60e01b815260009182916001600160a01b039091169063b4f69a2f90610a5f9087908790600401611984565b602060405180830381865afa158015610a7c573d6000803e3d6000fd5b505050506040513d601f19601f82011682018060405250810190610aa09190611af9565b9150505b92915050565b6002546040517f5cb3b14f0000000000000000000000000000000000000000000000000000000081526000916001600160a01b031690635cb3b14f90610af49085906004016116dc565b602060405180830381865afa158015610b11573d6000803e3d6000fd5b505050506040513d601f19601f82011682018060405250810190610aa49190611b2d565b6000806000610b44868661120d565b6dffffffffffffffffffffffffffff1691506dffffffffffffffffffffffffffff16915060008089610b77578383610b7a565b82845b9150915060008911610b9e5760405162461bcd60e51b815260040161022e90611b80565b600082118015610bae5750600081115b610bca5760405162461bcd60e51b815260040161022e90611bc2565b6000610bd8876103e8611be8565b610be2908b611bff565b90506000610bf08383611bff565b9050600082610c01866103e8611bff565b610c0b9190611c1e565b9050610c178183611c4c565b9d9c50505050505050505050505050565b610c3d6001600160a01b03851684848461106c565b50505050565b8115610d55576000856001600160a01b031663313ce5676040518163ffffffff1660e01b8152600401602060405180830381865afa158015610c89573d6000803e3d6000fd5b505050506040513d601f19601f82011682018060405250810190610cad9190611c74565b60ff1690506000610cbf826012611be8565b610cca90600a611da3565b610cd49087611bff565b6003546040517f2290e1060000000000000000000000000000000000000000000000000000000081529192506001600160a01b031690632290e10690610d209033908590600401611db2565b600060405180830381600087803b158015610d3a57600080fd5b505af1158015610d4e573d6000803e3d6000fd5b5050505050505b600082610d63576000610d65565b835b9050600083610d745784610d77565b60005b6040517f6d9a640a0000000000000000000000000000000000000000000000000000000081529091506001600160a01b03891690636d9a640a90610dc390859085908890600401611dc0565b600060405180830381600087803b158015610ddd57600080fd5b505af1158015610df1573d6000803e3d6000fd5b505050505050505050505050565b6000806000610e0e868661120d565b6dffffffffffffffffffffffffffff1691506dffffffffffffffffffffffffffff16915060008089610e41578383610e44565b82845b9150915060008911610e685760405162461bcd60e51b815260040161022e90611e1a565b600082118015610e785750600081115b610e945760405162461bcd60e51b815260040161022e90611bc2565b6000610ea08a84611bff565b610eac906103e8611bff565b90506000610ebc886103e8611be8565b610ec68c85611be8565b610ed09190611bff565b9050610edc8183611c4c565b610ee7906001611c1e565b9c9b505050505050505050505050565b6002546040517f38081de20000000000000000000000000000000000000000000000000000000081526000916001600160a01b0316906338081de290610f419088906004016116dc565b600060405180830381865afa158015610f5e573d6000803e3d6000fd5b505050506040513d6000823e601f3d908101601f19168201604052610f869190810190611f45565b6002546040517ff15cac340000000000000000000000000000000000000000000000000000000081529192506001600160a01b03169063f15cac3490610fd6908490889088908890600401611fb2565b600060405180830381600087803b158015610ff057600080fd5b505af1158015611004573d6000803e3d6000fd5b505050505050505050565b600080546001600160a01b0383811673ffffffffffffffffffffffffffffffffffffffff19831681178455604051919092169283917f8be0079c531659141344cd1fd0a4f28419497f9722a3daafe3b4186f6b6457e09190a35050565b610c3d846323b872dd60e01b85858560405160240161108d93929190611ff5565b60408051601f198184030181529190526020810180517bffffffffffffffffffffffffffffffffffffffffffffffffffffffff167fffffffff00000000000000000000000000000000000000000000000000000000909316929092179091526112f4565b6000806110fd87610aaa565b6111195760405162461bcd60e51b815260040161022e90612042565b6000806111268a8a61120d565b6dffffffffffffffffffffffffffff1691506dffffffffffffffffffffffffffff169150816000148015611158575080155b1561116857879350869250611200565b6000611175898484611388565b90508781116111a9578581101561119e5760405162461bcd60e51b815260040161022e90612084565b8894509250826111fe565b60006111b6898486611388565b9050898111156111d85760405162461bcd60e51b815260040161022e906120c6565b878110156111f85760405162461bcd60e51b815260040161022e90612108565b94508793505b505b5050965096945050505050565b60015460405163b4f69a2f60e01b8152600091829182916001600160a01b03169063b4f69a2f906112449088908890600401611984565b602060405180830381865afa158015611261573d6000803e3d6000fd5b505050506040513d601f19601f820116820180604052508101906112859190611af9565b9050806001600160a01b0316630902f1ac6040518163ffffffff1660e01b81526004016040805180830381865afa1580156112c4573d6000803e3d6000fd5b505050506040513d601f19601f820116820180604052508101906112e89190612139565b90969095509350505050565b6000611349826040518060400160405280602081526020017f5361666545524332303a206c6f772d6c6576656c2063616c6c206661696c6564815250856001600160a01b03166113f29092919063ffffffff16565b80519091501561138357808060200190518101906113679190611b2d565b6113835760405162461bcd60e51b815260040161022e906121c4565b505050565b60008084116113a95760405162461bcd60e51b815260040161022e90612206565b6000831180156113b95750600082115b6113d55760405162461bcd60e51b815260040161022e90611bc2565b826113e08386611bff565b6113ea9190611c4c565b949350505050565b60606113ea8484600085611408565b9392505050565b60608247101561142a5760405162461bcd60e51b815260040161022e9061226e565b843b6114485760405162461bcd60e51b815260040161022e906122b0565b600080866001600160a01b0316858760405161146491906122e2565b60006040518083038185875af1925050503d80600081146114a1576040519150601f19603f3d011682016040523d82523d6000602084013e6114a6565b606091505b50915091506114b68282866114c1565b979650505050505050565b606083156114d0575081611401565b8251156114e05782518084602001fd5b8160405162461bcd60e51b815260040161022e91906122ec565b805b8114610a2557600080fd5b8035610aa4816114fa565b60006001600160a01b038216610aa4565b6114fc81611512565b8035610aa481611523565b60008060008060008060c0878903121561155357611553600080fd5b600061155f8989611507565b965050602061157089828a01611507565b955050604061158189828a0161152c565b945050606061159289828a0161152c565b93505060806115a389828a0161152c565b92505060a06115b489828a01611507565b9150509295509295509295565b805b82525050565b60208101610aa482846115c1565b600080600080600080600080610100898b0312156115f7576115f7600080fd5b60006116038b8b61152c565b98505060206116148b828c0161152c565b97505060406116258b828c01611507565b96505060606116368b828c01611507565b95505060806116478b828c01611507565b94505060a06116588b828c01611507565b93505060c06116698b828c0161152c565b92505060e061167a8b828c01611507565b9150509295985092959890939650565b6060810161169882866115c1565b6116a560208301856115c1565b6113ea60408301846115c1565b6000602082840312156116c7576116c7600080fd5b60006113ea848461152c565b6115c381611512565b60208101610aa482846116d3565b600080600080600080600060e0888a03121561170857611708600080fd5b60006117148a8a61152c565b97505060206117258a828b0161152c565b96505060406117368a828b01611507565b95505060606117478a828b01611507565b94505060806117588a828b01611507565b93505060a06117698a828b0161152c565b92505060c061177a8a828b01611507565b91505092959891949750929550565b6040810161179782856115c1565b61140160208301846115c1565b60138152602081017f65787069726564207472616e73616374696f6e00000000000000000000000000815290505b60200190565b60208082528101610aa4816117a4565b8051610aa4816114fa565b60006020828403121561180857611808600080fd5b60006113ea84846117e8565b60268152602081017f5468697320706f6f6c20686173206265656e2066726f7a656e20666f7220737781527f617070696e670000000000000000000000000000000000000000000000000000602082015290505b60400190565b60208082528101610aa481611814565b60178152602081017f657863657373697665206f757470757420616d6f756e74000000000000000000815290506117d2565b60208082528101610aa48161187e565b60168152602081017f65786365737369766520696e70757420616d6f756e7400000000000000000000815290506117d2565b60208082528101610aa4816118c0565b601c8152602081017f546f6b656e20422073686f756c6420626520737461626c65636f696e00000000815290506117d2565b60208082528101610aa481611902565b60208082527f4f776e61626c653a2063616c6c6572206973206e6f7420746865206f776e657291019081526117d2565b60208082528101610aa481611944565b6040810161199282856116d3565b61140160208301846116d3565b600080604083850312156119b5576119b5600080fd5b60006119c185856117e8565b92505060206119d2858286016117e8565b9150509250929050565b60238152602081017f496e73756666696369656e7420696e737572616e636520746f6b656e20616d6f81527f756e74000000000000000000000000000000000000000000000000000000000060208201529050611868565b60208082528101610aa4816119dc565b60178152602081017f496e73756666696369656e74205553445420746f6b656e000000000000000000815290506117d2565b60208082528101610aa481611a44565b60268152602081017f4f776e61626c653a206e6577206f776e657220697320746865207a65726f206181527f646472657373000000000000000000000000000000000000000000000000000060208201529050611868565b60208082528101610aa481611a86565b8051610aa481611523565b600060208284031215611b0e57611b0e600080fd5b60006113ea8484611aee565b8015156114fc565b8051610aa481611b1a565b600060208284031215611b4257611b42600080fd5b60006113ea8484611b22565b60198152602081017f696e73756666696369656e7420696e70757420616d6f756e7400000000000000815290506117d2565b60208082528101610aa481611b4e565b60168152602081017f696e73756666696369656e74206c697175696469747900000000000000000000815290506117d2565b60208082528101610aa481611b90565b634e487b7160e01b600052601160045260246000fd5b600082821015611bfa57611bfa611bd2565b500390565b6000816000190483118215151615611c1957611c19611bd2565b500290565b60008219821115611c3157611c31611bd2565b500190565b634e487b7160e01b600052601260045260246000fd5b600082611c5b57611c5b611c36565b500490565b60ff81166114fc565b8051610aa481611c60565b600060208284031215611c8957611c89600080fd5b60006113ea8484611c69565b80825b6001851115611cd457808604811115611cb357611cb3611bd2565b6001851615611cc157908102905b8002611ccd8560011c90565b9450611c98565b94509492505050565b600082611cec57506001611401565b81611cf957506000611401565b8160018114611d0f5760028114611d1957611d46565b6001915050611401565b60ff841115611d2a57611d2a611bd2565b8360020a915084821115611d4057611d40611bd2565b50611401565b5060208310610133831016604e8410600b8410161715611d79575081810a83811115611d7457611d74611bd2565b611401565b611d868484846001611c95565b92509050818404811115611d9c57611d9c611bd2565b0292915050565b60006114016000198484611cdd565b6040810161179782856116d3565b60608101611dce82866115c1565b611ddb60208301856115c1565b6113ea60408301846116d3565b601a8152602081017f696e73756666696369656e74206f757470757420616d6f756e74000000000000815290506117d2565b60208082528101610aa481611de8565b634e487b7160e01b600052604160045260246000fd5b601f19601f830116810181811067ffffffffffffffff82111715611e6657611e66611e2a565b6040525050565b6000611e7860405190565b9050611e848282611e40565b919050565b600067ffffffffffffffff821115611ea357611ea3611e2a565b601f19601f83011660200192915050565b60005b83811015611ecf578181015183820152602001611eb7565b83811115610c3d5750506000910152565b6000611ef3611eee84611e89565b611e6d565b905082815260208101848484011115611f0e57611f0e600080fd5b611f19848285611eb4565b509392505050565b600082601f830112611f3557611f35600080fd5b81516113ea848260208601611ee0565b600060208284031215611f5a57611f5a600080fd5b815167ffffffffffffffff811115611f7457611f74600080fd5b6113ea84828501611f21565b6000611f8a825190565b808452602084019350611fa1818560208601611eb4565b601f01601f19169290920192915050565b60808082528101611fc38187611f80565b9050611fd260208301866116d3565b611fdf60408301856115c1565b611fec60608301846116d3565b95945050505050565b6060810161200382866116d3565b6116a560208301856116d3565b601f8152602081017f506c656173652070757420737461626c65636f696e20617320746f6b656e4200815290506117d2565b60208082528101610aa481612010565b60158152602081017f494e53554646494349454e545f425f414d4f554e540000000000000000000000815290506117d2565b60208082528101610aa481612052565b60068152602081017f6e6f6e6f6e6f0000000000000000000000000000000000000000000000000000815290506117d2565b60208082528101610aa481612094565b60158152602081017f494e53554646494349454e545f415f414d4f554e540000000000000000000000815290506117d2565b60208082528101610aa4816120d6565b6dffffffffffffffffffffffffffff81166114fc565b8051610aa481612118565b6000806040838503121561214f5761214f600080fd5b600061215b858561212e565b92505060206119d28582860161212e565b602a8152602081017f5361666545524332303a204552433230206f7065726174696f6e20646964206e81527f6f7420737563636565640000000000000000000000000000000000000000000060208201529050611868565b60208082528101610aa48161216c565b60138152602081017f696e73756666696369656e7420616d6f756e7400000000000000000000000000815290506117d2565b60208082528101610aa4816121d4565b60268152602081017f416464726573733a20696e73756666696369656e742062616c616e636520666f81527f722063616c6c000000000000000000000000000000000000000000000000000060208201529050611868565b60208082528101610aa481612216565b601d8152602081017f416464726573733a2063616c6c20746f206e6f6e2d636f6e7472616374000000815290506117d2565b60208082528101610aa48161227e565b60006122ca825190565b6122d8818560208601611eb4565b9290920192915050565b610aa481836122c0565b602080825281016114018184611f8056fea2646970667358221220ec093a461a72a57b490d83b41199449f603d0e871aba017e24e67a78d8b3024d64736f6c634300080a0033",
  "devdoc": {
    "kind": "dev",
    "methods": {
      "addLiquidity(address,address,uint256,uint256,uint256,uint256,address,uint256)": {
        "params": {
          "_amountADesired": "Amount of policyToken desired",
          "_amountAMin": "Minimum amoutn of policy token",
          "_amountBDesired": "Amount of stablecoin desired",
          "_amountBMin": "Minimum amount of stablecoin",
          "_deadline": "Transaction will revert after this deadline",
          "_to": "Address that receive the lp token, normally the user himself",
          "_tokenA": "Address of policyToken",
          "_tokenB": "Address of stablecoin"
        },
        "returns": {
          "amountA": "Amount of tokenA to be input",
          "amountB": "Amount of tokenB to be input",
          "liquidity": "LP token to be mint"
        }
      },
      "addLiquidityWithUSD(address,address,uint256,uint256,uint256,uint256,address,uint256)": {
        "details": "Only difference with addLiquidity is that mintPolicyTokenForUser",
        "params": {
          "_amountADesired": "Amount of policyToken desired",
          "_amountAMin": "Minimum amount of policy token",
          "_amountBDesired": "Amount of stablecoin desired",
          "_amountBMin": "Minimum amount of stablecoin",
          "_deadline": "Transaction will revert after this deadline",
          "_to": "Address that receive the lp token, normally the user himself",
          "_tokenA": "Address of policyToken",
          "_tokenB": "Address of stablecoin"
        }
      },
      "removeLiquidity(address,address,uint256,uint256,uint256,address,uint256)": {
        "params": {
          "_amountAMin": "Minimum amount of tokenA given out",
          "_amountBMin": "Minimum amount of tokenB given out",
          "_deadline": "Deadline of this transaction",
          "_liquidity": "The lptoken amount to be removed",
          "_to": "User address",
          "_tokenA": "Address of policy token",
          "_tokenB": "Address of stablecoin"
        },
        "returns": {
          "amountA": "Amount of token0 given out",
          "amountB": "Amount of token1 given out"
        }
      },
      "renounceOwnership()": {
        "details": "Renouncing ownership will leave the contract without an owner,         thereby removing any functionality that is only available to the owner."
      },
      "setBuyerToken(address)": {
        "params": {
          "_buyerToken": "Address of new buyer token"
        }
      },
      "setPolicyCore(address)": {
        "params": {
          "_coreAddress": "Address of new policyCore"
        }
      },
      "swapExactTokensforTokens(uint256,uint256,address,address,address,uint256)": {
        "params": {
          "_amountIn": "Fixed token input",
          "_amountOutMin": "Minimum token output",
          "_deadline": "Deadline for this specific swap",
          "_to": "User address",
          "_tokenIn": "Address of input token",
          "_tokenOut": "Address of output token"
        },
        "returns": {
          "amountOut": "Amounts to be really given out"
        }
      },
      "swapTokensforExactTokens(uint256,uint256,address,address,address,uint256)": {
        "params": {
          "_amountInMax": "Maximum token input",
          "_amountOut": "Fixed token output",
          "_deadline": "Deadline for this specific swap",
          "_to": "User address",
          "_tokenIn": "Address of input token",
          "_tokenOut": "Address of output token"
        },
        "returns": {
          "amountIn": "Amounts to be really put in"
        }
      },
      "transferOwnership(address)": {
        "details": "Can only be called by the current owner.",
        "params": {
          "newOwner": "Address of the new owner"
        }
      }
    },
    "title": "NaughtyRouter",
    "version": 1
  },
  "userdoc": {
    "kind": "user",
    "methods": {
      "addLiquidity(address,address,uint256,uint256,uint256,uint256,address,uint256)": {
        "notice": "Add liquidity function"
      },
      "addLiquidityWithUSD(address,address,uint256,uint256,uint256,uint256,address,uint256)": {
        "notice": "Add liquidity but only provide stablecoins"
      },
      "owner()": {
        "notice": "Returns the address of the current owner."
      },
      "removeLiquidity(address,address,uint256,uint256,uint256,address,uint256)": {
        "notice": "Remove liquidity from the pool"
      },
      "renounceOwnership()": {
        "notice": "Leaves the contract without owner. It will not be possible to call         `onlyOwner` functions anymore. Can only be called by the current owner."
      },
      "setBuyerToken(address)": {
        "notice": "Set the address of buyer token"
      },
      "setPolicyCore(address)": {
        "notice": "Set the address of policyCore"
      },
      "swapExactTokensforTokens(uint256,uint256,address,address,address,uint256)": {
        "notice": "Amount in is fixed"
      },
      "swapTokensforExactTokens(uint256,uint256,address,address,address,uint256)": {
        "notice": "Amount out is fixed"
      },
      "transferOwnership(address)": {
        "notice": "Transfers ownership of the contract to a new account (`newOwner`)."
      }
    },
    "notice": "Router for the pool, you can add/remove liquidity or swap A for B.         Swapping fee rate is 2% and all of them are given to LP.         Very similar logic with Uniswap V2.",
    "version": 1
  },
  "storageLayout": {
    "storage": [
      {
        "astId": 31215,
        "contract": "contracts/naughty-price/NaughtyRouter.sol:NaughtyRouter",
        "label": "_owner",
        "offset": 0,
        "slot": "0",
        "type": "t_address"
      },
      {
        "astId": 25399,
        "contract": "contracts/naughty-price/NaughtyRouter.sol:NaughtyRouter",
        "label": "factory",
        "offset": 0,
        "slot": "1",
        "type": "t_address"
      },
      {
        "astId": 25401,
        "contract": "contracts/naughty-price/NaughtyRouter.sol:NaughtyRouter",
        "label": "policyCore",
        "offset": 0,
        "slot": "2",
        "type": "t_address"
      },
      {
        "astId": 25403,
        "contract": "contracts/naughty-price/NaughtyRouter.sol:NaughtyRouter",
        "label": "buyerToken",
        "offset": 0,
        "slot": "3",
        "type": "t_address"
      }
    ],
    "types": {
      "t_address": {
        "encoding": "inplace",
        "label": "address",
        "numberOfBytes": "20"
      }
    }
  }
}