{
  "address": "0x425B8849249d3D9999C9B63962388284479Cac22",
  "abi": [
    {
      "anonymous": false,
      "inputs": [
        {
          "indexed": false,
          "internalType": "address",
          "name": "oldBuyerToken",
          "type": "address"
        },
        {
          "indexed": false,
          "internalType": "address",
          "name": "newBuyerToken",
          "type": "address"
        }
      ],
      "name": "BuyerTokenChanged",
      "type": "event"
    },
    {
      "anonymous": false,
      "inputs": [
        {
          "indexed": true,
          "internalType": "address",
          "name": "pairAddress",
          "type": "address"
        },
        {
          "indexed": false,
          "internalType": "uint256",
          "name": "amountA",
          "type": "uint256"
        },
        {
          "indexed": false,
          "internalType": "uint256",
          "name": "amountB",
          "type": "uint256"
        },
        {
          "indexed": false,
          "internalType": "uint256",
          "name": "liquidity",
          "type": "uint256"
        }
      ],
      "name": "LiquidityAdded",
      "type": "event"
    },
    {
      "anonymous": false,
      "inputs": [
        {
          "indexed": true,
          "internalType": "address",
          "name": "pairAddress",
          "type": "address"
        },
        {
          "indexed": false,
          "internalType": "uint256",
          "name": "amountA",
          "type": "uint256"
        },
        {
          "indexed": false,
          "internalType": "uint256",
          "name": "amountB",
          "type": "uint256"
        },
        {
          "indexed": false,
          "internalType": "uint256",
          "name": "liquidity",
          "type": "uint256"
        }
      ],
      "name": "LiquidityRemoved",
      "type": "event"
    },
    {
      "anonymous": false,
      "inputs": [
        {
          "indexed": true,
          "internalType": "address",
          "name": "previousOwner",
          "type": "address"
        },
        {
          "indexed": true,
          "internalType": "address",
          "name": "newOwner",
          "type": "address"
        }
      ],
      "name": "OwnershipTransferred",
      "type": "event"
    },
    {
      "anonymous": false,
      "inputs": [
        {
          "indexed": false,
          "internalType": "address",
          "name": "oldPolicyCore",
          "type": "address"
        },
        {
          "indexed": false,
          "internalType": "address",
          "name": "newPolicyCore",
          "type": "address"
        }
      ],
      "name": "PolicyCoreChanged",
      "type": "event"
    },
    {
      "inputs": [
        {
          "internalType": "address",
          "name": "_tokenA",
          "type": "address"
        },
        {
          "internalType": "address",
          "name": "_tokenB",
          "type": "address"
        },
        {
          "internalType": "uint256",
          "name": "_amountADesired",
          "type": "uint256"
        },
        {
          "internalType": "uint256",
          "name": "_amountBDesired",
          "type": "uint256"
        },
        {
          "internalType": "uint256",
          "name": "_amountAMin",
          "type": "uint256"
        },
        {
          "internalType": "uint256",
          "name": "_amountBMin",
          "type": "uint256"
        },
        {
          "internalType": "address",
          "name": "_to",
          "type": "address"
        },
        {
          "internalType": "uint256",
          "name": "_deadline",
          "type": "uint256"
        }
      ],
      "name": "addLiquidity",
      "outputs": [
        {
          "internalType": "uint256",
          "name": "amountA",
          "type": "uint256"
        },
        {
          "internalType": "uint256",
          "name": "amountB",
          "type": "uint256"
        },
        {
          "internalType": "uint256",
          "name": "liquidity",
          "type": "uint256"
        }
      ],
      "stateMutability": "nonpayable",
      "type": "function"
    },
    {
      "inputs": [
        {
          "internalType": "address",
          "name": "_tokenA",
          "type": "address"
        },
        {
          "internalType": "address",
          "name": "_tokenB",
          "type": "address"
        },
        {
          "internalType": "uint256",
          "name": "_amountADesired",
          "type": "uint256"
        },
        {
          "internalType": "uint256",
          "name": "_amountBDesired",
          "type": "uint256"
        },
        {
          "internalType": "uint256",
          "name": "_amountAMin",
          "type": "uint256"
        },
        {
          "internalType": "uint256",
          "name": "_amountBMin",
          "type": "uint256"
        },
        {
          "internalType": "address",
          "name": "_to",
          "type": "address"
        },
        {
          "internalType": "uint256",
          "name": "_deadline",
          "type": "uint256"
        }
      ],
      "name": "addLiquidityWithUSD",
      "outputs": [
        {
          "internalType": "uint256",
          "name": "amountA",
          "type": "uint256"
        },
        {
          "internalType": "uint256",
          "name": "amountB",
          "type": "uint256"
        },
        {
          "internalType": "uint256",
          "name": "liquidity",
          "type": "uint256"
        }
      ],
      "stateMutability": "nonpayable",
      "type": "function"
    },
    {
      "inputs": [],
      "name": "buyerToken",
      "outputs": [
        {
          "internalType": "address",
          "name": "",
          "type": "address"
        }
      ],
      "stateMutability": "view",
      "type": "function"
    },
    {
      "inputs": [],
      "name": "factory",
      "outputs": [
        {
          "internalType": "address",
          "name": "",
          "type": "address"
        }
      ],
      "stateMutability": "view",
      "type": "function"
    },
    {
      "inputs": [
        {
          "internalType": "address",
          "name": "_factory",
          "type": "address"
        },
        {
          "internalType": "address",
          "name": "_buyerToken",
          "type": "address"
        }
      ],
      "name": "initialize",
      "outputs": [],
      "stateMutability": "nonpayable",
      "type": "function"
    },
    {
      "inputs": [],
      "name": "owner",
      "outputs": [
        {
          "internalType": "address",
          "name": "",
          "type": "address"
        }
      ],
      "stateMutability": "view",
      "type": "function"
    },
    {
      "inputs": [],
      "name": "policyCore",
      "outputs": [
        {
          "internalType": "address",
          "name": "",
          "type": "address"
        }
      ],
      "stateMutability": "view",
      "type": "function"
    },
    {
      "inputs": [
        {
          "internalType": "address",
          "name": "_tokenA",
          "type": "address"
        },
        {
          "internalType": "address",
          "name": "_tokenB",
          "type": "address"
        },
        {
          "internalType": "uint256",
          "name": "_liquidity",
          "type": "uint256"
        },
        {
          "internalType": "uint256",
          "name": "_amountAMin",
          "type": "uint256"
        },
        {
          "internalType": "uint256",
          "name": "_amountBMin",
          "type": "uint256"
        },
        {
          "internalType": "address",
          "name": "_to",
          "type": "address"
        },
        {
          "internalType": "uint256",
          "name": "_deadline",
          "type": "uint256"
        }
      ],
      "name": "removeLiquidity",
      "outputs": [
        {
          "internalType": "uint256",
          "name": "amountA",
          "type": "uint256"
        },
        {
          "internalType": "uint256",
          "name": "amountB",
          "type": "uint256"
        }
      ],
      "stateMutability": "nonpayable",
      "type": "function"
    },
    {
      "inputs": [],
      "name": "renounceOwnership",
      "outputs": [],
      "stateMutability": "nonpayable",
      "type": "function"
    },
    {
      "inputs": [
        {
          "internalType": "address",
          "name": "_buyerToken",
          "type": "address"
        }
      ],
      "name": "setBuyerToken",
      "outputs": [],
      "stateMutability": "nonpayable",
      "type": "function"
    },
    {
      "inputs": [
        {
          "internalType": "address",
          "name": "_naughtyFactory",
          "type": "address"
        }
      ],
      "name": "setNaughtyFactory",
      "outputs": [],
      "stateMutability": "nonpayable",
      "type": "function"
    },
    {
      "inputs": [
        {
          "internalType": "address",
          "name": "_coreAddress",
          "type": "address"
        }
      ],
      "name": "setPolicyCore",
      "outputs": [],
      "stateMutability": "nonpayable",
      "type": "function"
    },
    {
      "inputs": [
        {
          "internalType": "uint256",
          "name": "_amountIn",
          "type": "uint256"
        },
        {
          "internalType": "uint256",
          "name": "_amountOutMin",
          "type": "uint256"
        },
        {
          "internalType": "address",
          "name": "_tokenIn",
          "type": "address"
        },
        {
          "internalType": "address",
          "name": "_tokenOut",
          "type": "address"
        },
        {
          "internalType": "address",
          "name": "_to",
          "type": "address"
        },
        {
          "internalType": "uint256",
          "name": "_deadline",
          "type": "uint256"
        }
      ],
      "name": "swapExactTokensforTokens",
      "outputs": [
        {
          "internalType": "uint256",
          "name": "amountOut",
          "type": "uint256"
        }
      ],
      "stateMutability": "nonpayable",
      "type": "function"
    },
    {
      "inputs": [
        {
          "internalType": "uint256",
          "name": "_amountInMax",
          "type": "uint256"
        },
        {
          "internalType": "uint256",
          "name": "_amountOut",
          "type": "uint256"
        },
        {
          "internalType": "address",
          "name": "_tokenIn",
          "type": "address"
        },
        {
          "internalType": "address",
          "name": "_tokenOut",
          "type": "address"
        },
        {
          "internalType": "address",
          "name": "_to",
          "type": "address"
        },
        {
          "internalType": "uint256",
          "name": "_deadline",
          "type": "uint256"
        }
      ],
      "name": "swapTokensforExactTokens",
      "outputs": [
        {
          "internalType": "uint256",
          "name": "amountIn",
          "type": "uint256"
        }
      ],
      "stateMutability": "nonpayable",
      "type": "function"
    },
    {
      "inputs": [
        {
          "internalType": "address",
          "name": "newOwner",
          "type": "address"
        }
      ],
      "name": "transferOwnership",
      "outputs": [],
      "stateMutability": "nonpayable",
      "type": "function"
    }
  ],
  "transactionHash": "0xe056bb6cca2a9ba376049796fb5d881b1f1ed311267d075f3f3344dcdf128dae",
  "args": [],
  "numDeployments": 1,
  "solcInputHash": "fa2b6ea223de079089e64db05a05ea06",
  "bytecode": "0x608060405234801561001057600080fd5b506129ae806100206000396000f3fe608060405234801561001057600080fd5b50600436106100f55760003560e01c806393822b2111610097578063c45a015511610066578063c45a0155146101fc578063e30145e01461020f578063e8e3370014610222578063f2fde38b1461023557600080fd5b806393822b21146101a2578063a17a94e7146101b5578063a5d2a715146101c8578063baa2abde146101db57600080fd5b806337864999116100d35780633786499914610158578063485cc9551461016d578063715018a6146101805780638da5cb5b1461018857600080fd5b80630a7af5c6146100fa5780631a771f0a146101235780632d2cac2414610136575b600080fd5b61010d610108366004611aaf565b610248565b60405161011a9190611b41565b60405180910390f35b61010d610131366004611aaf565b6104c3565b610149610144366004611b4f565b610727565b60405161011a93929190611c02565b61016b610166366004611c2a565b610831565b005b61016b61017b366004611c4b565b6108c4565b61016b610970565b6033546001600160a01b03165b60405161011a9190611c91565b61016b6101b0366004611c2a565b6109a6565b61016b6101c3366004611c2a565b610a39565b606754610195906001600160a01b031681565b6101ee6101e9366004611c9f565b610acc565b60405161011a929190611d3e565b606554610195906001600160a01b031681565b606654610195906001600160a01b031681565b610149610230366004611b4f565b610d28565b61016b610243366004611c2a565b610f71565b600081606560009054906101000a90046001600160a01b03166001600160a01b031663be1bd3316040518163ffffffff1660e01b8152600401602060405180830381865afa15801561029e573d6000803e3d6000fd5b505050506040513d601f19601f820116820180604052508101906102c29190611d64565b6001600160a01b0316336001600160a01b031614610302578042106103025760405162461bcd60e51b81526004016102f990611db9565b60405180910390fd5b60655460405163b4f69a2f60e01b81526000916001600160a01b03169063b4f69a2f90610335908a908a90600401611dc9565b602060405180830381865afa158015610352573d6000803e3d6000fd5b505050506040513d601f19601f820116820180604052508101906103769190611d64565b9050806001600160a01b03166329dcb0cf6040518163ffffffff1660e01b8152600401602060405180830381865afa1580156103b6573d6000803e3d6000fd5b505050506040513d601f19601f820116820180604052508101906103da9190611def565b4211156103f95760405162461bcd60e51b81526004016102f990611e6a565b600061040488610fcd565b90506000826001600160a01b031663978bbdb96040518163ffffffff1660e01b8152600401602060405180830381865afa158015610446573d6000803e3d6000fd5b505050506040513d601f19601f8201168201806040525081019061046a9190611def565b9050610479828c8b8b8561105e565b94508985101561049b5760405162461bcd60e51b81526004016102f990611eac565b6104a78933858e611151565b6104b5838a8d88868c61116c565b505050509695505050505050565b600081606560009054906101000a90046001600160a01b03166001600160a01b031663be1bd3316040518163ffffffff1660e01b8152600401602060405180830381865afa158015610519573d6000803e3d6000fd5b505050506040513d601f19601f8201168201806040525081019061053d9190611d64565b6001600160a01b0316336001600160a01b031614610574578042106105745760405162461bcd60e51b81526004016102f990611db9565b60655460405163b4f69a2f60e01b81526000916001600160a01b03169063b4f69a2f906105a7908a908a90600401611dc9565b602060405180830381865afa1580156105c4573d6000803e3d6000fd5b505050506040513d601f19601f820116820180604052508101906105e89190611d64565b9050806001600160a01b03166329dcb0cf6040518163ffffffff1660e01b8152600401602060405180830381865afa158015610628573d6000803e3d6000fd5b505050506040513d601f19601f8201168201806040525081019061064c9190611def565b42111561066b5760405162461bcd60e51b81526004016102f990611e6a565b600061067688610fcd565b90506000826001600160a01b031663978bbdb96040518163ffffffff1660e01b8152600401602060405180830381865afa1580156106b8573d6000803e3d6000fd5b505050506040513d601f19601f820116820180604052508101906106dc9190611def565b90506106eb828b8b8b85611328565b94508a85111561070d5760405162461bcd60e51b81526004016102f990611eee565b61071989338588611151565b6104b5838a878d868c61116c565b600080600083606560009054906101000a90046001600160a01b03166001600160a01b031663be1bd3316040518163ffffffff1660e01b8152600401602060405180830381865afa158015610780573d6000803e3d6000fd5b505050506040513d601f19601f820116820180604052508101906107a49190611d64565b6001600160a01b0316336001600160a01b0316146107db578042106107db5760405162461bcd60e51b81526004016102f990611db9565b6107e48b610fcd565b6108005760405162461bcd60e51b81526004016102f990611f30565b61080c8c8c8c33611420565b61081c8c8c8c8c8c8c8c8c610d28565b919e909d50909b509950505050505050505050565b6033546001600160a01b0316331461085b5760405162461bcd60e51b81526004016102f990611f70565b6066546040517f24114c7899342052259d78291e404118dfd832aee2b6e937826762b2c8a6ca199161089a916001600160a01b03909116908490611dc9565b60405180910390a1606680546001600160a01b0319166001600160a01b0392909216919091179055565b600054610100900460ff166108df5760005460ff16156108e3565b303b155b6108ff5760405162461bcd60e51b81526004016102f990611fd8565b600054610100900460ff16158015610921576000805461ffff19166101011790555b610929611538565b606580546001600160a01b038086166001600160a01b0319928316179092556067805492851692909116919091179055801561096b576000805461ff00191690555b505050565b6033546001600160a01b0316331461099a5760405162461bcd60e51b81526004016102f990611f70565b6109a46000611567565b565b6033546001600160a01b031633146109d05760405162461bcd60e51b81526004016102f990611f70565b6067546040517faca470531fb4335c09f6843f42d8a66afafe3a39b49e81f6773711f259b547f291610a0f916001600160a01b03909116908490611dc9565b60405180910390a1606780546001600160a01b0319166001600160a01b0392909216919091179055565b6033546001600160a01b03163314610a635760405162461bcd60e51b81526004016102f990611f70565b6065546040517faca470531fb4335c09f6843f42d8a66afafe3a39b49e81f6773711f259b547f291610aa2916001600160a01b03909116908490611dc9565b60405180910390a1606580546001600160a01b0319166001600160a01b0392909216919091179055565b60008082606560009054906101000a90046001600160a01b03166001600160a01b031663be1bd3316040518163ffffffff1660e01b8152600401602060405180830381865afa158015610b23573d6000803e3d6000fd5b505050506040513d601f19601f82011682018060405250810190610b479190611d64565b6001600160a01b0316336001600160a01b031614610b7e57804210610b7e5760405162461bcd60e51b81526004016102f990611db9565b60655460405163b4f69a2f60e01b81526000916001600160a01b03169063b4f69a2f90610bb1908e908e90600401611dc9565b602060405180830381865afa158015610bce573d6000803e3d6000fd5b505050506040513d601f19601f82011682018060405250810190610bf29190611d64565b9050610c096001600160a01b03821633838c6115b9565b6040517f89afcb440000000000000000000000000000000000000000000000000000000081526001600160a01b038216906389afcb4490610c4e908990600401611c91565b60408051808303816000875af1158015610c6c573d6000803e3d6000fd5b505050506040513d601f19601f82011682018060405250810190610c909190611fe8565b909450925087841015610cb55760405162461bcd60e51b81526004016102f990612073565b86831015610cd55760405162461bcd60e51b81526004016102f9906120b5565b806001600160a01b03167f1dc8bb69df2b8e91fbdcbfcf93d951b3f0000f085a95fe3f7946d6161439245d85858c604051610d1293929190611c02565b60405180910390a2505097509795505050505050565b600080600083606560009054906101000a90046001600160a01b03166001600160a01b031663be1bd3316040518163ffffffff1660e01b8152600401602060405180830381865afa158015610d81573d6000803e3d6000fd5b505050506040513d601f19601f82011682018060405250810190610da59190611d64565b6001600160a01b0316336001600160a01b031614610ddc57804210610ddc5760405162461bcd60e51b81526004016102f990611db9565b610dea8c8c8c8c8c8c61163e565b80945081955050506000606560009054906101000a90046001600160a01b03166001600160a01b031663b4f69a2f8e8e6040518363ffffffff1660e01b8152600401610e37929190611dc9565b602060405180830381865afa158015610e54573d6000803e3d6000fd5b505050506040513d601f19601f82011682018060405250810190610e789190611d64565b9050610e868d338388611151565b610e928c338387611151565b6040517f6a6278420000000000000000000000000000000000000000000000000000000081526001600160a01b03821690636a62784290610ed7908a90600401611c91565b6020604051808303816000875af1158015610ef6573d6000803e3d6000fd5b505050506040513d601f19601f82011682018060405250810190610f1a9190611def565b9250806001600160a01b03167f64b83944e79c3ce8d4c297411de637c3e102d064677aac0c163976ebdcd6f50e868686604051610f5993929190611c02565b60405180910390a25050985098509895505050505050565b6033546001600160a01b03163314610f9b5760405162461bcd60e51b81526004016102f990611f70565b6001600160a01b038116610fc15760405162461bcd60e51b81526004016102f99061211d565b610fca81611567565b50565b6066546040517f5cb3b14f0000000000000000000000000000000000000000000000000000000081526000916001600160a01b031690635cb3b14f90611017908590600401611c91565b602060405180830381865afa158015611034573d6000803e3d6000fd5b505050506040513d601f19601f820116820180604052508101906110589190612140565b92915050565b600080600061106d868661175a565b6dffffffffffffffffffffffffffff1691506dffffffffffffffffffffffffffff169150600080896110a05783836110a3565b82845b91509150600089116110c75760405162461bcd60e51b81526004016102f990612193565b6000821180156110d75750600081115b6110f35760405162461bcd60e51b81526004016102f9906121d5565b6000611101876103e86121fb565b61110b908b612212565b905060006111198383612212565b905060008261112a866103e8612212565b6111349190612231565b9050611140818361225f565b9d9c50505050505050505050505050565b6111666001600160a01b0385168484846115b9565b50505050565b811561127e576000856001600160a01b031663313ce5676040518163ffffffff1660e01b8152600401602060405180830381865afa1580156111b2573d6000803e3d6000fd5b505050506040513d601f19601f820116820180604052508101906111d69190612287565b60ff16905060006111e88260126121fb565b6111f390600a6123b6565b6111fd9087612212565b6067546040517f2290e1060000000000000000000000000000000000000000000000000000000081529192506001600160a01b031690632290e1069061124990339085906004016123c5565b600060405180830381600087803b15801561126357600080fd5b505af1158015611277573d6000803e3d6000fd5b5050505050505b60008261128c57600061128e565b835b905060008361129d57846112a0565b60005b6040517f6d9a640a0000000000000000000000000000000000000000000000000000000081529091506001600160a01b03891690636d9a640a906112ec908590859088906004016123d3565b600060405180830381600087803b15801561130657600080fd5b505af115801561131a573d6000803e3d6000fd5b505050505050505050505050565b6000806000611337868661175a565b6dffffffffffffffffffffffffffff1691506dffffffffffffffffffffffffffff1691506000808961136a57838361136d565b82845b91509150600089116113915760405162461bcd60e51b81526004016102f99061242d565b6000821180156113a15750600081115b6113bd5760405162461bcd60e51b81526004016102f9906121d5565b60006113c98a84612212565b6113d5906103e8612212565b905060006113e5886103e86121fb565b6113ef8c856121fb565b6113f99190612212565b9050611405818361225f565b611410906001612231565b9c9b505050505050505050505050565b6066546040517f38081de20000000000000000000000000000000000000000000000000000000081526000916001600160a01b0316906338081de29061146a908890600401611c91565b600060405180830381865afa158015611487573d6000803e3d6000fd5b505050506040513d6000823e601f3d908101601f191682016040526114af9190810190612558565b6066546040517ff15cac340000000000000000000000000000000000000000000000000000000081529192506001600160a01b03169063f15cac34906114ff9084908890889088906004016125c5565b600060405180830381600087803b15801561151957600080fd5b505af115801561152d573d6000803e3d6000fd5b505050505050505050565b600054610100900460ff1661155f5760405162461bcd60e51b81526004016102f990612660565b6109a4611841565b603380546001600160a01b038381166001600160a01b0319831681179093556040519116919082907f8be0079c531659141344cd1fd0a4f28419497f9722a3daafe3b4186f6b6457e090600090a35050565b611166846323b872dd60e01b8585856040516024016115da93929190612670565b60408051601f198184030181529190526020810180517bffffffffffffffffffffffffffffffffffffffffffffffffffffffff167fffffffff0000000000000000000000000000000000000000000000000000000090931692909217909152611871565b60008061164a87610fcd565b6116665760405162461bcd60e51b81526004016102f9906126bd565b6000806116738a8a61175a565b6dffffffffffffffffffffffffffff1691506dffffffffffffffffffffffffffff1691508160001480156116a5575080155b156116b55787935086925061174d565b60006116c2898484611900565b90508781116116f657858110156116eb5760405162461bcd60e51b81526004016102f9906126ff565b88945092508261174b565b6000611703898486611900565b9050898111156117255760405162461bcd60e51b81526004016102f990612741565b878110156117455760405162461bcd60e51b81526004016102f990612783565b94508793505b505b5050965096945050505050565b60655460405163b4f69a2f60e01b8152600091829182916001600160a01b03169063b4f69a2f906117919088908890600401611dc9565b602060405180830381865afa1580156117ae573d6000803e3d6000fd5b505050506040513d601f19601f820116820180604052508101906117d29190611d64565b9050806001600160a01b0316630902f1ac6040518163ffffffff1660e01b81526004016040805180830381865afa158015611811573d6000803e3d6000fd5b505050506040513d601f19601f8201168201806040525081019061183591906127b4565b90969095509350505050565b600054610100900460ff166118685760405162461bcd60e51b81526004016102f990612660565b6109a433611567565b60006118c6826040518060400160405280602081526020017f5361666545524332303a206c6f772d6c6576656c2063616c6c206661696c6564815250856001600160a01b031661196a9092919063ffffffff16565b80519091501561096b57808060200190518101906118e49190612140565b61096b5760405162461bcd60e51b81526004016102f99061283f565b60008084116119215760405162461bcd60e51b81526004016102f990612881565b6000831180156119315750600082115b61194d5760405162461bcd60e51b81526004016102f9906121d5565b826119588386612212565b611962919061225f565b949350505050565b60606119628484600085611980565b9392505050565b6060824710156119a25760405162461bcd60e51b81526004016102f9906128e9565b843b6119c05760405162461bcd60e51b81526004016102f99061292b565b600080866001600160a01b031685876040516119dc919061295d565b60006040518083038185875af1925050503d8060008114611a19576040519150601f19603f3d011682016040523d82523d6000602084013e611a1e565b606091505b5091509150611a2e828286611a39565b979650505050505050565b60608315611a48575081611979565b825115611a585782518084602001fd5b8160405162461bcd60e51b81526004016102f99190612967565b805b8114610fca57600080fd5b803561105881611a72565b60006001600160a01b038216611058565b611a7481611a8a565b803561105881611a9b565b60008060008060008060c08789031215611acb57611acb600080fd5b6000611ad78989611a7f565b9650506020611ae889828a01611a7f565b9550506040611af989828a01611aa4565b9450506060611b0a89828a01611aa4565b9350506080611b1b89828a01611aa4565b92505060a0611b2c89828a01611a7f565b9150509295509295509295565b805b82525050565b602081016110588284611b39565b600080600080600080600080610100898b031215611b6f57611b6f600080fd5b6000611b7b8b8b611aa4565b9850506020611b8c8b828c01611aa4565b9750506040611b9d8b828c01611a7f565b9650506060611bae8b828c01611a7f565b9550506080611bbf8b828c01611a7f565b94505060a0611bd08b828c01611a7f565b93505060c0611be18b828c01611aa4565b92505060e0611bf28b828c01611a7f565b9150509295985092959890939650565b60608101611c108286611b39565b611c1d6020830185611b39565b6119626040830184611b39565b600060208284031215611c3f57611c3f600080fd5b60006119628484611aa4565b60008060408385031215611c6157611c61600080fd5b6000611c6d8585611aa4565b9250506020611c7e85828601611aa4565b9150509250929050565b611b3b81611a8a565b602081016110588284611c88565b600080600080600080600060e0888a031215611cbd57611cbd600080fd5b6000611cc98a8a611aa4565b9750506020611cda8a828b01611aa4565b9650506040611ceb8a828b01611a7f565b9550506060611cfc8a828b01611a7f565b9450506080611d0d8a828b01611a7f565b93505060a0611d1e8a828b01611aa4565b92505060c0611d2f8a828b01611a7f565b91505092959891949750929550565b60408101611d4c8285611b39565b6119796020830184611b39565b805161105881611a9b565b600060208284031215611d7957611d79600080fd5b60006119628484611d59565b60138152602081017f65787069726564207472616e73616374696f6e00000000000000000000000000815290505b60200190565b6020808252810161105881611d85565b60408101611dd78285611c88565b6119796020830184611c88565b805161105881611a72565b600060208284031215611e0457611e04600080fd5b60006119628484611de4565b60268152602081017f5468697320706f6f6c20686173206265656e2066726f7a656e20666f7220737781527f617070696e670000000000000000000000000000000000000000000000000000602082015290505b60400190565b6020808252810161105881611e10565b60178152602081017f657863657373697665206f757470757420616d6f756e7400000000000000000081529050611db3565b6020808252810161105881611e7a565b60168152602081017f65786365737369766520696e70757420616d6f756e740000000000000000000081529050611db3565b6020808252810161105881611ebc565b601c8152602081017f546f6b656e20422073686f756c6420626520737461626c65636f696e0000000081529050611db3565b6020808252810161105881611efe565b60208082527f4f776e61626c653a2063616c6c6572206973206e6f7420746865206f776e65729101908152611db3565b6020808252810161105881611f40565b602e8152602081017f496e697469616c697a61626c653a20636f6e747261637420697320616c72656181527f647920696e697469616c697a656400000000000000000000000000000000000060208201529050611e64565b6020808252810161105881611f80565b60008060408385031215611ffe57611ffe600080fd5b600061200a8585611de4565b9250506020611c7e85828601611de4565b60238152602081017f496e73756666696369656e7420696e737572616e636520746f6b656e20616d6f81527f756e74000000000000000000000000000000000000000000000000000000000060208201529050611e64565b602080825281016110588161201b565b60178152602081017f496e73756666696369656e74205553445420746f6b656e00000000000000000081529050611db3565b6020808252810161105881612083565b60268152602081017f4f776e61626c653a206e6577206f776e657220697320746865207a65726f206181527f646472657373000000000000000000000000000000000000000000000000000060208201529050611e64565b60208082528101611058816120c5565b801515611a74565b80516110588161212d565b60006020828403121561215557612155600080fd5b60006119628484612135565b60198152602081017f696e73756666696369656e7420696e70757420616d6f756e740000000000000081529050611db3565b6020808252810161105881612161565b60168152602081017f696e73756666696369656e74206c69717569646974790000000000000000000081529050611db3565b60208082528101611058816121a3565b634e487b7160e01b600052601160045260246000fd5b60008282101561220d5761220d6121e5565b500390565b600081600019048311821515161561222c5761222c6121e5565b500290565b60008219821115612244576122446121e5565b500190565b634e487b7160e01b600052601260045260246000fd5b60008261226e5761226e612249565b500490565b60ff8116611a74565b805161105881612273565b60006020828403121561229c5761229c600080fd5b6000611962848461227c565b80825b60018511156122e7578086048111156122c6576122c66121e5565b60018516156122d457908102905b80026122e08560011c90565b94506122ab565b94509492505050565b6000826122ff57506001611979565b8161230c57506000611979565b8160018114612322576002811461232c57612359565b6001915050611979565b60ff84111561233d5761233d6121e5565b8360020a915084821115612353576123536121e5565b50611979565b5060208310610133831016604e8410600b841016171561238c575081810a83811115612387576123876121e5565b611979565b61239984848460016122a8565b925090508184048111156123af576123af6121e5565b0292915050565b600061197960001984846122f0565b60408101611d4c8285611c88565b606081016123e18286611b39565b6123ee6020830185611b39565b6119626040830184611c88565b601a8152602081017f696e73756666696369656e74206f757470757420616d6f756e7400000000000081529050611db3565b60208082528101611058816123fb565b634e487b7160e01b600052604160045260246000fd5b601f19601f830116810181811067ffffffffffffffff821117156124795761247961243d565b6040525050565b600061248b60405190565b90506124978282612453565b919050565b600067ffffffffffffffff8211156124b6576124b661243d565b601f19601f83011660200192915050565b60005b838110156124e25781810151838201526020016124ca565b838111156111665750506000910152565b60006125066125018461249c565b612480565b90508281526020810184848401111561252157612521600080fd5b61252c8482856124c7565b509392505050565b600082601f83011261254857612548600080fd5b81516119628482602086016124f3565b60006020828403121561256d5761256d600080fd5b815167ffffffffffffffff81111561258757612587600080fd5b61196284828501612534565b600061259d825190565b8084526020840193506125b48185602086016124c7565b601f01601f19169290920192915050565b608080825281016125d68187612593565b90506125e56020830186611c88565b6125f26040830185611b39565b6125ff6060830184611c88565b95945050505050565b602b8152602081017f496e697469616c697a61626c653a20636f6e7472616374206973206e6f74206981527f6e697469616c697a696e6700000000000000000000000000000000000000000060208201529050611e64565b6020808252810161105881612608565b6060810161267e8286611c88565b611c1d6020830185611c88565b601f8152602081017f506c656173652070757420737461626c65636f696e20617320746f6b656e420081529050611db3565b602080825281016110588161268b565b60158152602081017f494e53554646494349454e545f425f414d4f554e54000000000000000000000081529050611db3565b60208082528101611058816126cd565b60068152602081017f6e6f6e6f6e6f000000000000000000000000000000000000000000000000000081529050611db3565b602080825281016110588161270f565b60158152602081017f494e53554646494349454e545f415f414d4f554e54000000000000000000000081529050611db3565b6020808252810161105881612751565b6dffffffffffffffffffffffffffff8116611a74565b805161105881612793565b600080604083850312156127ca576127ca600080fd5b60006127d685856127a9565b9250506020611c7e858286016127a9565b602a8152602081017f5361666545524332303a204552433230206f7065726174696f6e20646964206e81527f6f7420737563636565640000000000000000000000000000000000000000000060208201529050611e64565b60208082528101611058816127e7565b60138152602081017f696e73756666696369656e7420616d6f756e740000000000000000000000000081529050611db3565b602080825281016110588161284f565b60268152602081017f416464726573733a20696e73756666696369656e742062616c616e636520666f81527f722063616c6c000000000000000000000000000000000000000000000000000060208201529050611e64565b6020808252810161105881612891565b601d8152602081017f416464726573733a2063616c6c20746f206e6f6e2d636f6e747261637400000081529050611db3565b60208082528101611058816128f9565b6000612945825190565b6129538185602086016124c7565b9290920192915050565b611058818361293b565b60208082528101611979818461259356fea2646970667358221220fdf5220950cb34511d539cace268b907f7f938d680b0d64adc207b7bffb8bc6964736f6c634300080d0033",
  "devdoc": {
    "kind": "dev",
    "methods": {
      "addLiquidity(address,address,uint256,uint256,uint256,uint256,address,uint256)": {
        "params": {
          "_amountADesired": "Amount of policyToken desired",
          "_amountAMin": "Minimum amoutn of policy token",
          "_amountBDesired": "Amount of stablecoin desired",
          "_amountBMin": "Minimum amount of stablecoin",
          "_deadline": "Transaction will revert after this deadline",
          "_to": "Address that receive the lp token, normally the user himself",
          "_tokenA": "Address of policyToken",
          "_tokenB": "Address of stablecoin"
        },
        "returns": {
          "amountA": "Amount of tokenA to be input",
          "amountB": "Amount of tokenB to be input",
          "liquidity": "LP token to be mint"
        }
      },
      "addLiquidityWithUSD(address,address,uint256,uint256,uint256,uint256,address,uint256)": {
        "details": "Only difference with addLiquidity is that mintPolicyTokenForUser",
        "params": {
          "_amountADesired": "Amount of policyToken desired",
          "_amountAMin": "Minimum amount of policy token",
          "_amountBDesired": "Amount of stablecoin desired",
          "_amountBMin": "Minimum amount of stablecoin",
          "_deadline": "Transaction will revert after this deadline",
          "_to": "Address that receive the lp token, normally the user himself",
          "_tokenA": "Address of policyToken",
          "_tokenB": "Address of stablecoin"
        }
      },
      "owner()": {
        "details": "Returns the address of the current owner."
      },
      "removeLiquidity(address,address,uint256,uint256,uint256,address,uint256)": {
        "params": {
          "_amountAMin": "Minimum amount of tokenA given out",
          "_amountBMin": "Minimum amount of tokenB given out",
          "_deadline": "Deadline of this transaction",
          "_liquidity": "The lptoken amount to be removed",
          "_to": "User address",
          "_tokenA": "Address of policy token",
          "_tokenB": "Address of stablecoin"
        },
        "returns": {
          "amountA": "Amount of token0 given out",
          "amountB": "Amount of token1 given out"
        }
      },
      "renounceOwnership()": {
        "details": "Leaves the contract without owner. It will not be possible to call `onlyOwner` functions anymore. Can only be called by the current owner. NOTE: Renouncing ownership will leave the contract without an owner, thereby removing any functionality that is only available to the owner."
      },
      "setBuyerToken(address)": {
        "params": {
          "_buyerToken": "Address of new buyer token"
        }
      },
      "setNaughtyFactory(address)": {
        "params": {
          "_naughtyFactory": "Address of new naughty factory"
        }
      },
      "setPolicyCore(address)": {
        "params": {
          "_coreAddress": "Address of new policyCore"
        }
      },
      "swapExactTokensforTokens(uint256,uint256,address,address,address,uint256)": {
        "params": {
          "_amountIn": "Fixed token input",
          "_amountOutMin": "Minimum token output",
          "_deadline": "Deadline for this specific swap",
          "_to": "User address",
          "_tokenIn": "Address of input token",
          "_tokenOut": "Address of output token"
        },
        "returns": {
          "amountOut": "Amounts to be really given out"
        }
      },
      "swapTokensforExactTokens(uint256,uint256,address,address,address,uint256)": {
        "params": {
          "_amountInMax": "Maximum token input",
          "_amountOut": "Fixed token output",
          "_deadline": "Deadline for this specific swap",
          "_to": "User address",
          "_tokenIn": "Address of input token",
          "_tokenOut": "Address of output token"
        },
        "returns": {
          "amountIn": "Amounts to be really put in"
        }
      },
      "transferOwnership(address)": {
        "details": "Transfers ownership of the contract to a new account (`newOwner`). Can only be called by the current owner."
      }
    },
    "title": "NaughtyRouter",
    "version": 1
  },
  "userdoc": {
    "kind": "user",
    "methods": {
      "addLiquidity(address,address,uint256,uint256,uint256,uint256,address,uint256)": {
        "notice": "Add liquidity function"
      },
      "addLiquidityWithUSD(address,address,uint256,uint256,uint256,uint256,address,uint256)": {
        "notice": "Add liquidity but only provide stablecoins"
      },
      "removeLiquidity(address,address,uint256,uint256,uint256,address,uint256)": {
        "notice": "Remove liquidity from the pool"
      },
      "setBuyerToken(address)": {
        "notice": "Set the address of buyer token"
      },
      "setNaughtyFactory(address)": {
        "notice": "Set the address of factory"
      },
      "setPolicyCore(address)": {
        "notice": "Set the address of policyCore"
      },
      "swapExactTokensforTokens(uint256,uint256,address,address,address,uint256)": {
        "notice": "Amount in is fixed"
      },
      "swapTokensforExactTokens(uint256,uint256,address,address,address,uint256)": {
        "notice": "Amount out is fixed"
      }
    },
    "notice": "Router for the pool, you can add/remove liquidity or swap A for B.         Swapping fee rate is 2% and all of them are given to LP.         Very similar logic with Uniswap V2.",
    "version": 1
  },
  "storageLayout": {
    "storage": [
      {
        "astId": 2523,
        "contract": "contracts/naughty-price/NaughtyRouter.sol:NaughtyRouter",
        "label": "_initialized",
        "offset": 0,
        "slot": "0",
        "type": "t_bool"
      },
      {
        "astId": 2526,
        "contract": "contracts/naughty-price/NaughtyRouter.sol:NaughtyRouter",
        "label": "_initializing",
        "offset": 1,
        "slot": "0",
        "type": "t_bool"
      },
      {
        "astId": 3044,
        "contract": "contracts/naughty-price/NaughtyRouter.sol:NaughtyRouter",
        "label": "__gap",
        "offset": 0,
        "slot": "1",
        "type": "t_array(t_uint256)50_storage"
      },
      {
        "astId": 2403,
        "contract": "contracts/naughty-price/NaughtyRouter.sol:NaughtyRouter",
        "label": "_owner",
        "offset": 0,
        "slot": "51",
        "type": "t_address"
      },
      {
        "astId": 2515,
        "contract": "contracts/naughty-price/NaughtyRouter.sol:NaughtyRouter",
        "label": "__gap",
        "offset": 0,
        "slot": "52",
        "type": "t_array(t_uint256)49_storage"
      },
      {
        "astId": 29218,
        "contract": "contracts/naughty-price/NaughtyRouter.sol:NaughtyRouter",
        "label": "factory",
        "offset": 0,
        "slot": "101",
        "type": "t_address"
      },
      {
        "astId": 29220,
        "contract": "contracts/naughty-price/NaughtyRouter.sol:NaughtyRouter",
        "label": "policyCore",
        "offset": 0,
        "slot": "102",
        "type": "t_address"
      },
      {
        "astId": 29222,
        "contract": "contracts/naughty-price/NaughtyRouter.sol:NaughtyRouter",
        "label": "buyerToken",
        "offset": 0,
        "slot": "103",
        "type": "t_address"
      }
    ],
    "types": {
      "t_address": {
        "encoding": "inplace",
        "label": "address",
        "numberOfBytes": "20"
      },
      "t_array(t_uint256)49_storage": {
        "base": "t_uint256",
        "encoding": "inplace",
        "label": "uint256[49]",
        "numberOfBytes": "1568"
      },
      "t_array(t_uint256)50_storage": {
        "base": "t_uint256",
        "encoding": "inplace",
        "label": "uint256[50]",
        "numberOfBytes": "1600"
      },
      "t_bool": {
        "encoding": "inplace",
        "label": "bool",
        "numberOfBytes": "1"
      },
      "t_uint256": {
        "encoding": "inplace",
        "label": "uint256",
        "numberOfBytes": "32"
      }
    }
  }
}