{
  "address": "0xB865cbB10E4ccC13fbD25b3Ca382D542e6762D51",
  "abi": [
    {
      "inputs": [
        {
          "internalType": "address",
          "name": "_usdt",
          "type": "address"
        },
        {
          "internalType": "address",
          "name": "_factory",
          "type": "address"
        },
        {
          "internalType": "address",
          "name": "_priceGetter",
          "type": "address"
        }
      ],
      "stateMutability": "nonpayable",
      "type": "constructor"
    },
    {
      "anonymous": false,
      "inputs": [
        {
          "indexed": false,
          "internalType": "address",
          "name": "payerAddress",
          "type": "address"
        },
        {
          "indexed": false,
          "internalType": "address",
          "name": "userAddress",
          "type": "address"
        },
        {
          "indexed": false,
          "internalType": "string",
          "name": "policyTokenName",
          "type": "string"
        },
        {
          "indexed": false,
          "internalType": "address",
          "name": "stablecoin",
          "type": "address"
        },
        {
          "indexed": false,
          "internalType": "uint256",
          "name": "amount",
          "type": "uint256"
        }
      ],
      "name": "DelegateDeposit",
      "type": "event"
    },
    {
      "anonymous": false,
      "inputs": [
        {
          "indexed": false,
          "internalType": "address",
          "name": "userAddress",
          "type": "address"
        },
        {
          "indexed": false,
          "internalType": "string",
          "name": "policyTokenName",
          "type": "string"
        },
        {
          "indexed": false,
          "internalType": "address",
          "name": "stablecoin",
          "type": "address"
        },
        {
          "indexed": false,
          "internalType": "uint256",
          "name": "amount",
          "type": "uint256"
        }
      ],
      "name": "Deposit",
      "type": "event"
    },
    {
      "anonymous": false,
      "inputs": [
        {
          "indexed": false,
          "internalType": "address",
          "name": "newEmergencyPool",
          "type": "address"
        }
      ],
      "name": "EmergencyPoolChanged",
      "type": "event"
    },
    {
      "anonymous": false,
      "inputs": [
        {
          "indexed": false,
          "internalType": "string",
          "name": "_policyTokenName",
          "type": "string"
        },
        {
          "indexed": false,
          "internalType": "uint256",
          "name": "price",
          "type": "uint256"
        },
        {
          "indexed": false,
          "internalType": "bool",
          "name": "isHappened",
          "type": "bool"
        }
      ],
      "name": "FinalResultSettled",
      "type": "event"
    },
    {
      "anonymous": false,
      "inputs": [
        {
          "indexed": false,
          "internalType": "address",
          "name": "newLotteryAddress",
          "type": "address"
        }
      ],
      "name": "LotteryChanged",
      "type": "event"
    },
    {
      "anonymous": false,
      "inputs": [
        {
          "indexed": false,
          "internalType": "address",
          "name": "newRouter",
          "type": "address"
        }
      ],
      "name": "NaughtyRouterChanged",
      "type": "event"
    },
    {
      "anonymous": false,
      "inputs": [
        {
          "indexed": false,
          "internalType": "address",
          "name": "_newStablecoin",
          "type": "address"
        }
      ],
      "name": "NewStablecoinAdded",
      "type": "event"
    },
    {
      "anonymous": false,
      "inputs": [
        {
          "indexed": true,
          "internalType": "address",
          "name": "previousOwner",
          "type": "address"
        },
        {
          "indexed": true,
          "internalType": "address",
          "name": "newOwner",
          "type": "address"
        }
      ],
      "name": "OwnershipTransferred",
      "type": "event"
    },
    {
      "anonymous": false,
      "inputs": [
        {
          "indexed": false,
          "internalType": "string",
          "name": "tokenName",
          "type": "string"
        },
        {
          "indexed": false,
          "internalType": "address",
          "name": "tokenAddress",
          "type": "address"
        },
        {
          "indexed": false,
          "internalType": "uint256",
          "name": "tokenDecimals",
          "type": "uint256"
        },
        {
          "indexed": false,
          "internalType": "uint256",
          "name": "deadline",
          "type": "uint256"
        },
        {
          "indexed": false,
          "internalType": "uint256",
          "name": "settleTimestamp",
          "type": "uint256"
        }
      ],
      "name": "PolicyTokenDeployed",
      "type": "event"
    },
    {
      "anonymous": false,
      "inputs": [
        {
          "indexed": false,
          "internalType": "string",
          "name": "policyTokenName",
          "type": "string"
        },
        {
          "indexed": false,
          "internalType": "address",
          "name": "stablecoin",
          "type": "address"
        },
        {
          "indexed": false,
          "internalType": "uint256",
          "name": "startIndex",
          "type": "uint256"
        },
        {
          "indexed": false,
          "internalType": "uint256",
          "name": "stopIndex",
          "type": "uint256"
        }
      ],
      "name": "PolicyTokensSettledForUsers",
      "type": "event"
    },
    {
      "anonymous": false,
      "inputs": [
        {
          "indexed": false,
          "internalType": "address",
          "name": "poolAddress",
          "type": "address"
        },
        {
          "indexed": false,
          "internalType": "address",
          "name": "policyTokenAddress",
          "type": "address"
        },
        {
          "indexed": false,
          "internalType": "address",
          "name": "stablecoin",
          "type": "address"
        }
      ],
      "name": "PoolDeployed",
      "type": "event"
    },
    {
      "anonymous": false,
      "inputs": [
        {
          "indexed": false,
          "internalType": "address",
          "name": "userAddress",
          "type": "address"
        },
        {
          "indexed": false,
          "internalType": "string",
          "name": "policyTokenName",
          "type": "string"
        },
        {
          "indexed": false,
          "internalType": "address",
          "name": "stablecoin",
          "type": "address"
        },
        {
          "indexed": false,
          "internalType": "uint256",
          "name": "amount",
          "type": "uint256"
        }
      ],
      "name": "Redeem",
      "type": "event"
    },
    {
      "anonymous": false,
      "inputs": [
        {
          "indexed": false,
          "internalType": "address",
          "name": "userAddress",
          "type": "address"
        },
        {
          "indexed": false,
          "internalType": "string",
          "name": "policyTokenName",
          "type": "string"
        },
        {
          "indexed": false,
          "internalType": "address",
          "name": "stablecoin",
          "type": "address"
        },
        {
          "indexed": false,
          "internalType": "uint256",
          "name": "amount",
          "type": "uint256"
        }
      ],
      "name": "RedeemAfterSettlement",
      "type": "event"
    },
    {
      "inputs": [
        {
          "internalType": "string",
          "name": "_tokenName",
          "type": "string"
        },
        {
          "internalType": "uint256",
          "name": "_decimals",
          "type": "uint256"
        },
        {
          "internalType": "uint256",
          "name": "_strikePrice",
          "type": "uint256"
        },
        {
          "internalType": "bool",
          "name": "_isCall",
          "type": "bool"
        },
        {
          "internalType": "string",
          "name": "_round",
          "type": "string"
        }
      ],
      "name": "_generateName",
      "outputs": [
        {
          "internalType": "string",
          "name": "",
          "type": "string"
        }
      ],
      "stateMutability": "pure",
      "type": "function"
    },
    {
      "inputs": [
        {
          "internalType": "address",
          "name": "_newStablecoin",
          "type": "address"
        }
      ],
      "name": "addStablecoin",
      "outputs": [],
      "stateMutability": "nonpayable",
      "type": "function"
    },
    {
      "inputs": [
        {
          "internalType": "address",
          "name": "",
          "type": "address"
        },
        {
          "internalType": "uint256",
          "name": "",
          "type": "uint256"
        }
      ],
      "name": "allDepositors",
      "outputs": [
        {
          "internalType": "address",
          "name": "",
          "type": "address"
        }
      ],
      "stateMutability": "view",
      "type": "function"
    },
    {
      "inputs": [
        {
          "internalType": "uint256",
          "name": "",
          "type": "uint256"
        }
      ],
      "name": "allPolicyTokens",
      "outputs": [
        {
          "internalType": "string",
          "name": "",
          "type": "string"
        }
      ],
      "stateMutability": "view",
      "type": "function"
    },
    {
      "inputs": [
        {
          "internalType": "string",
          "name": "_policyTokenName",
          "type": "string"
        },
        {
          "internalType": "address",
          "name": "_stablecoin",
          "type": "address"
        },
        {
          "internalType": "uint256",
          "name": "_amount",
          "type": "uint256"
        }
      ],
      "name": "claim",
      "outputs": [],
      "stateMutability": "nonpayable",
      "type": "function"
    },
    {
      "inputs": [
        {
          "internalType": "address",
          "name": "_stablecoin",
          "type": "address"
        }
      ],
      "name": "collectIncome",
      "outputs": [],
      "stateMutability": "nonpayable",
      "type": "function"
    },
    {
      "inputs": [
        {
          "internalType": "string",
          "name": "_policyTokenName",
          "type": "string"
        },
        {
          "internalType": "address",
          "name": "_stablecoin",
          "type": "address"
        },
        {
          "internalType": "uint256",
          "name": "_amount",
          "type": "uint256"
        },
        {
          "internalType": "address",
          "name": "_user",
          "type": "address"
        }
      ],
      "name": "delegateDeposit",
      "outputs": [],
      "stateMutability": "nonpayable",
      "type": "function"
    },
    {
      "inputs": [
        {
          "internalType": "string",
          "name": "_tokenName",
          "type": "string"
        },
        {
          "internalType": "address",
          "name": "_stablecoin",
          "type": "address"
        },
        {
          "internalType": "bool",
          "name": "_isCall",
          "type": "bool"
        },
        {
          "internalType": "uint256",
          "name": "_nameDecimals",
          "type": "uint256"
        },
        {
          "internalType": "uint256",
          "name": "_tokenDecimals",
          "type": "uint256"
        },
        {
          "internalType": "uint256",
          "name": "_strikePrice",
          "type": "uint256"
        },
        {
          "internalType": "string",
          "name": "_round",
          "type": "string"
        },
        {
          "internalType": "uint256",
          "name": "_deadline",
          "type": "uint256"
        },
        {
          "internalType": "uint256",
          "name": "_settleTimestamp",
          "type": "uint256"
        }
      ],
      "name": "deployPolicyToken",
      "outputs": [],
      "stateMutability": "nonpayable",
      "type": "function"
    },
    {
      "inputs": [
        {
          "internalType": "string",
          "name": "_policyTokenName",
          "type": "string"
        },
        {
          "internalType": "address",
          "name": "_stablecoin",
          "type": "address"
        },
        {
          "internalType": "uint256",
          "name": "_poolDeadline",
          "type": "uint256"
        },
        {
          "internalType": "uint256",
          "name": "_feeRate",
          "type": "uint256"
        }
      ],
      "name": "deployPool",
      "outputs": [
        {
          "internalType": "address",
          "name": "",
          "type": "address"
        }
      ],
      "stateMutability": "nonpayable",
      "type": "function"
    },
    {
      "inputs": [
        {
          "internalType": "string",
          "name": "_policyTokenName",
          "type": "string"
        },
        {
          "internalType": "address",
          "name": "_stablecoin",
          "type": "address"
        },
        {
          "internalType": "uint256",
          "name": "_amount",
          "type": "uint256"
        }
      ],
      "name": "deposit",
      "outputs": [],
      "stateMutability": "nonpayable",
      "type": "function"
    },
    {
      "inputs": [],
      "name": "emergencyPool",
      "outputs": [
        {
          "internalType": "address",
          "name": "",
          "type": "address"
        }
      ],
      "stateMutability": "view",
      "type": "function"
    },
    {
      "inputs": [],
      "name": "factory",
      "outputs": [
        {
          "internalType": "contract INaughtyFactory",
          "name": "",
          "type": "address"
        }
      ],
      "stateMutability": "view",
      "type": "function"
    },
    {
      "inputs": [
        {
          "internalType": "string",
          "name": "_policyTokenName",
          "type": "string"
        }
      ],
      "name": "findAddressbyName",
      "outputs": [
        {
          "internalType": "address",
          "name": "policyTokenAddress",
          "type": "address"
        }
      ],
      "stateMutability": "view",
      "type": "function"
    },
    {
      "inputs": [
        {
          "internalType": "address",
          "name": "_policyTokenAddress",
          "type": "address"
        }
      ],
      "name": "findNamebyAddress",
      "outputs": [
        {
          "internalType": "string",
          "name": "policyTokenName",
          "type": "string"
        }
      ],
      "stateMutability": "view",
      "type": "function"
    },
    {
      "inputs": [],
      "name": "getAllTokens",
      "outputs": [
        {
          "components": [
            {
              "internalType": "address",
              "name": "policyTokenAddress",
              "type": "address"
            },
            {
              "internalType": "bool",
              "name": "isCall",
              "type": "bool"
            },
            {
              "internalType": "uint256",
              "name": "nameDecimals",
              "type": "uint256"
            },
            {
              "internalType": "uint256",
              "name": "tokenDecimals",
              "type": "uint256"
            },
            {
              "internalType": "uint256",
              "name": "strikePrice",
              "type": "uint256"
            },
            {
              "internalType": "uint256",
              "name": "deadline",
              "type": "uint256"
            },
            {
              "internalType": "uint256",
              "name": "settleTimestamp",
              "type": "uint256"
            }
          ],
          "internalType": "struct PolicyCore.PolicyTokenInfo[]",
          "name": "",
          "type": "tuple[]"
        }
      ],
      "stateMutability": "view",
      "type": "function"
    },
    {
      "inputs": [
        {
          "internalType": "string",
          "name": "_policyTokenName",
          "type": "string"
        }
      ],
      "name": "getPolicyTokenInfo",
      "outputs": [
        {
          "components": [
            {
              "internalType": "address",
              "name": "policyTokenAddress",
              "type": "address"
            },
            {
              "internalType": "bool",
              "name": "isCall",
              "type": "bool"
            },
            {
              "internalType": "uint256",
              "name": "nameDecimals",
              "type": "uint256"
            },
            {
              "internalType": "uint256",
              "name": "tokenDecimals",
              "type": "uint256"
            },
            {
              "internalType": "uint256",
              "name": "strikePrice",
              "type": "uint256"
            },
            {
              "internalType": "uint256",
              "name": "deadline",
              "type": "uint256"
            },
            {
              "internalType": "uint256",
              "name": "settleTimestamp",
              "type": "uint256"
            }
          ],
          "internalType": "struct PolicyCore.PolicyTokenInfo",
          "name": "",
          "type": "tuple"
        }
      ],
      "stateMutability": "view",
      "type": "function"
    },
    {
      "inputs": [
        {
          "internalType": "address",
          "name": "_user",
          "type": "address"
        },
        {
          "internalType": "address",
          "name": "_policyTokenAddress",
          "type": "address"
        }
      ],
      "name": "getUserQuota",
      "outputs": [
        {
          "internalType": "uint256",
          "name": "_quota",
          "type": "uint256"
        }
      ],
      "stateMutability": "view",
      "type": "function"
    },
    {
      "inputs": [],
      "name": "lottery",
      "outputs": [
        {
          "internalType": "address",
          "name": "",
          "type": "address"
        }
      ],
      "stateMutability": "view",
      "type": "function"
    },
    {
      "inputs": [],
      "name": "naughtyRouter",
      "outputs": [
        {
          "internalType": "address",
          "name": "",
          "type": "address"
        }
      ],
      "stateMutability": "view",
      "type": "function"
    },
    {
      "inputs": [],
      "name": "owner",
      "outputs": [
        {
          "internalType": "address",
          "name": "",
          "type": "address"
        }
      ],
      "stateMutability": "view",
      "type": "function"
    },
    {
      "inputs": [
        {
          "internalType": "address",
          "name": "",
          "type": "address"
        }
      ],
      "name": "pendingIncomeToEmergency",
      "outputs": [
        {
          "internalType": "uint256",
          "name": "",
          "type": "uint256"
        }
      ],
      "stateMutability": "view",
      "type": "function"
    },
    {
      "inputs": [
        {
          "internalType": "address",
          "name": "",
          "type": "address"
        }
      ],
      "name": "pendingIncomeToLottery",
      "outputs": [
        {
          "internalType": "uint256",
          "name": "",
          "type": "uint256"
        }
      ],
      "stateMutability": "view",
      "type": "function"
    },
    {
      "inputs": [
        {
          "internalType": "address",
          "name": "",
          "type": "address"
        }
      ],
      "name": "policyTokenAddressToName",
      "outputs": [
        {
          "internalType": "string",
          "name": "",
          "type": "string"
        }
      ],
      "stateMutability": "view",
      "type": "function"
    },
    {
      "inputs": [
        {
          "internalType": "string",
          "name": "",
          "type": "string"
        }
      ],
      "name": "policyTokenInfoMapping",
      "outputs": [
        {
          "internalType": "address",
          "name": "policyTokenAddress",
          "type": "address"
        },
        {
          "internalType": "bool",
          "name": "isCall",
          "type": "bool"
        },
        {
          "internalType": "uint256",
          "name": "nameDecimals",
          "type": "uint256"
        },
        {
          "internalType": "uint256",
          "name": "tokenDecimals",
          "type": "uint256"
        },
        {
          "internalType": "uint256",
          "name": "strikePrice",
          "type": "uint256"
        },
        {
          "internalType": "uint256",
          "name": "deadline",
          "type": "uint256"
        },
        {
          "internalType": "uint256",
          "name": "settleTimestamp",
          "type": "uint256"
        }
      ],
      "stateMutability": "view",
      "type": "function"
    },
    {
      "inputs": [],
      "name": "priceGetter",
      "outputs": [
        {
          "internalType": "contract IPriceGetter",
          "name": "",
          "type": "address"
        }
      ],
      "stateMutability": "view",
      "type": "function"
    },
    {
      "inputs": [
        {
          "internalType": "string",
          "name": "_policyTokenName",
          "type": "string"
        },
        {
          "internalType": "address",
          "name": "_stablecoin",
          "type": "address"
        },
        {
          "internalType": "uint256",
          "name": "_amount",
          "type": "uint256"
        }
      ],
      "name": "redeem",
      "outputs": [],
      "stateMutability": "nonpayable",
      "type": "function"
    },
    {
      "inputs": [
        {
          "internalType": "string",
          "name": "_policyTokenName",
          "type": "string"
        },
        {
          "internalType": "address",
          "name": "_stablecoin",
          "type": "address"
        }
      ],
      "name": "redeemAfterSettlement",
      "outputs": [],
      "stateMutability": "nonpayable",
      "type": "function"
    },
    {
      "inputs": [],
      "name": "renounceOwnership",
      "outputs": [],
      "stateMutability": "nonpayable",
      "type": "function"
    },
    {
      "inputs": [
        {
          "internalType": "address",
          "name": "_emergencyPool",
          "type": "address"
        }
      ],
      "name": "setEmergencyPool",
      "outputs": [],
      "stateMutability": "nonpayable",
      "type": "function"
    },
    {
      "inputs": [
        {
          "internalType": "address",
          "name": "_lotteryAddress",
          "type": "address"
        }
      ],
      "name": "setLottery",
      "outputs": [],
      "stateMutability": "nonpayable",
      "type": "function"
    },
    {
      "inputs": [
        {
          "internalType": "address",
          "name": "_router",
          "type": "address"
        }
      ],
      "name": "setNaughtyRouter",
      "outputs": [],
      "stateMutability": "nonpayable",
      "type": "function"
    },
    {
      "inputs": [
        {
          "internalType": "string",
          "name": "_policyTokenName",
          "type": "string"
        },
        {
          "internalType": "address",
          "name": "_stablecoin",
          "type": "address"
        },
        {
          "internalType": "uint256",
          "name": "_startIndex",
          "type": "uint256"
        },
        {
          "internalType": "uint256",
          "name": "_stopIndex",
          "type": "uint256"
        }
      ],
      "name": "settleAllPolicyTokens",
      "outputs": [],
      "stateMutability": "nonpayable",
      "type": "function"
    },
    {
      "inputs": [
        {
          "internalType": "string",
          "name": "_policyTokenName",
          "type": "string"
        }
      ],
      "name": "settleFinalResult",
      "outputs": [],
      "stateMutability": "nonpayable",
      "type": "function"
    },
    {
      "inputs": [
        {
          "internalType": "address",
          "name": "",
          "type": "address"
        }
      ],
      "name": "settleResult",
      "outputs": [
        {
          "internalType": "uint256",
          "name": "price",
          "type": "uint256"
        },
        {
          "internalType": "bool",
          "name": "isHappened",
          "type": "bool"
        },
        {
          "internalType": "bool",
          "name": "alreadySettled",
          "type": "bool"
        },
        {
          "internalType": "uint256",
          "name": "currentDistributionIndex",
          "type": "uint256"
        }
      ],
      "stateMutability": "view",
      "type": "function"
    },
    {
      "inputs": [
        {
          "internalType": "address",
          "name": "",
          "type": "address"
        }
      ],
      "name": "supportedStablecoin",
      "outputs": [
        {
          "internalType": "bool",
          "name": "",
          "type": "bool"
        }
      ],
      "stateMutability": "view",
      "type": "function"
    },
    {
      "inputs": [
        {
          "internalType": "address",
          "name": "newOwner",
          "type": "address"
        }
      ],
      "name": "transferOwnership",
      "outputs": [],
      "stateMutability": "nonpayable",
      "type": "function"
    },
    {
      "inputs": [
        {
          "internalType": "address",
          "name": "",
          "type": "address"
        }
      ],
      "name": "whichStablecoin",
      "outputs": [
        {
          "internalType": "address",
          "name": "",
          "type": "address"
        }
      ],
      "stateMutability": "view",
      "type": "function"
    }
  ],
  "transactionHash": "0x0baea44d8f829fb27bbdfa6eb5c41388c038ed5bee92af371df99782c67ef29c",
  "args": [
    "0x1a04CDfac69c2516734Ea062689672fD9c6b7f03",
    "0xed96d137d45563924897e5872f00fbccd9bfaa89",
    "0xfe7765ca25246F524d5f7aE1d4c3e7024BDfD462"
  ],
  "numDeployments": 1,
  "solcInputHash": "64edb72108e49c67231df32415749bc9",
  "bytecode": "0x60806040523480156200001157600080fd5b506040516200473c3803806200473c833981016040819052620000349162000119565b3362000040816200008f565b506001600160a01b039283166000908152600960205260409020805460ff1916600190811790915580549284166001600160a01b03199384161790556002805491909316911617905562000171565b600080546001600160a01b038381166001600160a01b0319831681178455604051919092169283917f8be0079c531659141344cd1fd0a4f28419497f9722a3daafe3b4186f6b6457e09190a35050565b60006001600160a01b0382165b92915050565b620000fd81620000df565b81146200010957600080fd5b50565b8051620000ec81620000f2565b600080600060608486031215620001335762000133600080fd5b60006200014186866200010c565b935050602062000154868287016200010c565b925050604062000167868287016200010c565b9150509250925092565b6145bb80620001816000396000f3fe608060405234801561001057600080fd5b50600436106102775760003560e01c80637336c38d11610160578063ceed1b90116100d8578063eb9132dd1161008c578063f15cac3411610071578063f15cac341461064d578063f298083b14610660578063f2fde38b1461067357600080fd5b8063eb9132dd14610627578063f10cffbd1461063a57600080fd5b8063da142807116100bd578063da142807146105bb578063e383f7d2146105f4578063e62512371461061457600080fd5b8063ceed1b9014610588578063d9e85c841461059b57600080fd5b8063ba13a5721161012f578063be3f34a111610114578063be3f34a114610542578063c45a015514610555578063c49df4bf1461057557600080fd5b8063ba13a5721461051c578063bb9febaf1461052f57600080fd5b80637336c38d146104d25780638da5cb5b146104e5578063a59b3645146104f6578063a815a2211461050957600080fd5b80632a48ac9a116101f35780634e75ce89116101c25780635e49b5de116101a75780635e49b5de1461048e5780635eb1877e146104a1578063715018a6146104ca57600080fd5b80634e75ce891461044b5780635cb3b14f1461045e57600080fd5b80632a48ac9a1461039f5780632a5c792a146103b257806338081de2146103c757806339f67738146103da57600080fd5b80630dc726471161024a57806318dd152f1161022f57806318dd152f1461032d5780631d7ad9d8146103405780631ee08fa11461035357600080fd5b80630dc72647146102ed5780631306c0a51461030d57600080fd5b8063038440971461027c5780630418945a1461029157806307962845146102a457806308d89d5f146102da575b600080fd5b61028f61028a366004612dc5565b610686565b005b61028f61029f366004612e32565b6109b5565b6102c46102b2366004612e32565b600f6020526000908152604090205481565b6040516102d19190612e5b565b60405180910390f35b61028f6102e8366004612e7a565b610a4c565b6103006102fb366004612ee4565b610cd4565b6040516102d19190612f63565b61032061031b366004612f74565b610d80565b6040516102d19190612fba565b61030061033b366004612e32565b610db8565b61028f61034e366004612e32565b610dd1565b61038f610361366004612e32565b600e60205260009081526040902080546001820154600290920154909160ff80821692610100909204169084565b6040516102d19493929190612fd0565b61028f6103ad366004612e7a565b610e55565b6103ba610efe565b6040516102d191906130e1565b6103006103d5366004612e32565b61107b565b6104386103e8366004612dc5565b80516020818301810180516006825292820191909301209152805460018201546002830154600384015460048501546005909501546001600160a01b03851695600160a01b90950460ff16949087565b6040516102d197969594939291906130f2565b610320610459366004612dc5565b611148565b61048161046c366004612e32565b60096020526000908152604090205460ff1681565b6040516102d1919061315a565b61028f61049c36600461317b565b611192565b6103206104af366004612e32565b600a602052600090815260409020546001600160a01b031681565b61028f611510565b61028f6104e0366004612e7a565b611555565b6000546001600160a01b0316610320565b600454610320906001600160a01b031681565b61028f610517366004612e32565b61177d565b600354610320906001600160a01b031681565b61032061053d366004613277565b611801565b61028f610550366004612e32565b611a4a565b600154610568906001600160a01b031681565b6040516102d19190613337565b61028f610583366004613345565b611b13565b600254610568906001600160a01b031681565b6105ae6105a9366004612dc5565b611dfe565b6040516102d19190613392565b6102c46105c93660046133a0565b6001600160a01b039182166000908152600c6020908152604080832093909416825291909152205490565b6102c4610602366004612e32565b60106020526000908152604090205481565b600554610320906001600160a01b031681565b61028f610635366004613277565b611ecc565b6103006106483660046133c2565b61226b565b61028f61065b36600461346f565b6123d3565b61028f61066e366004612e32565b6124e6565b61028f610681366004612e32565b61256a565b8060006006826040516106999190613503565b9081526020016040518091039020600501549050804210156106d65760405162461bcd60e51b81526004016106cd90613567565b60405180910390fd5b8260006106e282611148565b6001600160a01b0381166000908152600e6020526040902060010154909150610100900460ff16156107265760405162461bcd60e51b81526004016106cd906135cf565b600061073186611148565b6001600160a01b0381166000908152600e60209081526040808320600b909252822080549394509092610763906135f5565b80601f016020809104026020016040519081016040528092919081815260200182805461078f906135f5565b80156107dc5780601f106107b1576101008083540402835291602001916107dc565b820191906000526020600020905b8154815290600101906020018083116107bf57829003601f168201915b50506002546040517ff66a1b710000000000000000000000000000000000000000000000000000000081529495506000946001600160a01b03909116935063f66a1b71925061083091508590600401612f63565b6020604051808303816000875af115801561084f573d6000803e3d6000fd5b505050506040513d601f19601f82011682018060405250810190610873919061362d565b60018401805461ff00191661010017905580845560405190915060009060069061089e908c90613503565b908152604080516020928190038301812060e08201835280546001600160a01b0381168352600160a01b900460ff1615159382019390935260018301549181019190915260028201546060820152600382015460808201819052600483015460a083015260059092015460c082015291506000908310801590610922575081602001515b905060008260800151841115801561093c57508260200151155b9050600082806109495750815b610954576000610957565b60015b60018801805460ff19168215151790556040519091507f4f7bb4bf5b5d9e711ae7506fc1acd843eea9f216861a09c312fefb7e05095a369061099e908f908890859061364e565b60405180910390a150505050505050505050505050565b336109c86000546001600160a01b031690565b6001600160a01b0316146109ee5760405162461bcd60e51b81526004016106cd906136ab565b6001600160a01b03811660009081526009602052604090819020805460ff19166001179055517f86b377b6d485043d4a8b2b0c26051f82529ea2d7c23b1188598416473c12309390610a41908390612fba565b60405180910390a150565b826000600682604051610a5f9190613503565b908152602001604051809103902060050154905080421015610a935760405162461bcd60e51b81526004016106cd90613567565b84846000610aa083611148565b6001600160a01b038181166000908152600a6020526040902054919250838116911614610adf5760405162461bcd60e51b81526004016106cd90613713565b6000610aea89611148565b6001600160a01b0381166000908152600e602090815260409182902082516080810184528154808252600183015460ff80821615159584019590955261010090049093161515938101939093526002015460608301529192509015801590610b53575080604001515b610b6f5760405162461bcd60e51b81526004016106cd90613755565b8060200151610b905760405162461bcd60e51b81526004016106cd906137bd565b60006103e8610ba18a6103de6137e3565b610bab9190613818565b90506000610bb9828b61382c565b9050600a610bc88260086137e3565b610bd29190613818565b6001600160a01b038c166000908152600f602052604081208054909190610bfa908490613843565b90915550600a9050610c0d8260086137e3565b610c179190613818565b610c21908261382c565b6001600160a01b038c1660009081526010602052604081208054909190610c49908490613843565b90915550610c6390506001600160a01b038c1633846125d5565b604051632770a7eb60e21b815284906001600160a01b03821690639dc29fac90610c939033908f9060040161385b565b600060405180830381600087803b158015610cad57600080fd5b505af1158015610cc1573d6000803e3d6000fd5b5050505050505050505050505050505050565b60088181548110610ce457600080fd5b906000526020600020016000915090508054610cff906135f5565b80601f0160208091040260200160405190810160405280929190818152602001828054610d2b906135f5565b8015610d785780601f10610d4d57610100808354040283529160200191610d78565b820191906000526020600020905b815481529060010190602001808311610d5b57829003601f168201915b505050505081565b600d6020528160005260406000208181548110610d9c57600080fd5b6000918252602090912001546001600160a01b03169150829050565b60076020526000908152604090208054610cff906135f5565b33610de46000546001600160a01b031690565b6001600160a01b031614610e0a5760405162461bcd60e51b81526004016106cd906136ab565b600480546001600160a01b0319166001600160a01b0383161790556040517f6fc32d8d0721139a274b6368b7febce03d80adce9dc0fad439ebb101b22a309490610a41908390612fba565b826000600682604051610e689190613503565b908152602001604051809103902060040154905080421115610e9c5760405162461bcd60e51b81526004016106cd906138ce565b84846000610ea983611148565b6001600160a01b038181166000908152600a6020526040902054919250838116911614610ee85760405162461bcd60e51b81526004016106cd90613713565b610ef488888833612658565b5050505050505050565b60085460609060008167ffffffffffffffff811115610f1f57610f1f612ccf565b604051908082528060200260200182016040528015610f9b57816020015b610f886040518060e0016040528060006001600160a01b0316815260200160001515815260200160008152602001600081526020016000815260200160008152602001600081525090565b815260200190600190039081610f3d5790505b50905060005b8281101561107457600660088281548110610fbe57610fbe6138de565b90600052602060002001604051610fd59190613962565b90815260408051918290036020908101832060e08401835280546001600160a01b038116855260ff600160a01b909104161515918401919091526001810154918301919091526002810154606083015260038101546080830152600481015460a08301526005015460c08201528251839083908110611056576110566138de565b6020026020010181905250808061106c9061396c565b915050610fa1565b5092915050565b6001600160a01b03811660009081526007602052604090208054606091906110a2906135f5565b80601f01602080910402602001604051908101604052809291908181526020018280546110ce906135f5565b801561111b5780601f106110f05761010080835404028352916020019161111b565b820191906000526020600020905b8154815290600101906020018083116110fe57829003601f168201915b5050505050905060008151116111435760405162461bcd60e51b81526004016106cd906139b9565b919050565b600060068260405161115a9190613503565b908152604051908190036020019020546001600160a01b03169050806111435760405162461bcd60e51b81526004016106cd906139fb565b336111a56000546001600160a01b031690565b6001600160a01b0316146111cb5760405162461bcd60e51b81526004016106cd906136ab565b601286111580156111dd575060128511155b6111f95760405162461bcd60e51b81526004016106cd90613a3d565b84886001600160a01b031663313ce5676040518163ffffffff1660e01b8152600401602060405180830381865afa158015611238573d6000803e3d6000fd5b505050506040513d601f19601f8201168201806040525081019061125c9190613a61565b60ff161461127c5760405162461bcd60e51b81526004016106cd90613ab4565b42821161129b5760405162461bcd60e51b81526004016106cd90613af6565b818110156112bb5760405162461bcd60e51b81526004016106cd90613b38565b60006112ca8a88878b8861226b565b6001546040517f87f0061a0000000000000000000000000000000000000000000000000000000081529192506000916001600160a01b03909116906387f0061a9061131b9085908b90600401613b48565b6020604051808303816000875af115801561133a573d6000803e3d6000fd5b505050506040513d601f19601f8201168201806040525081019061135e9190613b73565b90506040518060e00160405280826001600160a01b031681526020018a15158152602001898152602001888152602001878152602001858152602001848152506006836040516113ae9190613503565b9081526040805191829003602090810190922083518154858501511515600160a01b027fffffffffffffffffffffff0000000000000000000000000000000000000000009091166001600160a01b0392831617178255848301516001830155606085015160028301556080850151600383015560a0850151600483015560c0909401516005909101559183166000908152600b8252919091208c51611455928e0190612c36565b506001600160a01b0381166000908152600760209081526040909120835161147f92850190612c36565b506008805460018101825560009190915282516114c3917ff3f7a9fe364faab93b216da50a3214154f22a0a2b415b23a84c8169e8b636ee301906020850190612c36565b507f5c781be7034983eed256e8250b1df5111e452c6dd41a3e415bdeda1cac92348882828987876040516114fb959493929190613b94565b60405180910390a15050505050505050505050565b336115236000546001600160a01b031690565b6001600160a01b0316146115495760405162461bcd60e51b81526004016106cd906136ab565b61155360006127e1565b565b8260006006826040516115689190613503565b90815260200160405180910390206004015490508042111561159c5760405162461bcd60e51b81526004016106cd906138ce565b848460006115a983611148565b6001600160a01b038181166000908152600a60205260409020549192508381169116146115e85760405162461bcd60e51b81526004016106cd90613713565b60006115f389611148565b336000908152600c602090815260408083206001600160a01b03851684529091529020549091508711156116395760405162461bcd60e51b81526004016106cd90613c17565b336000908152600c602090815260408083206001600160a01b03851684529091528120805489929061166c90849061382c565b9091555050336000908152600c602090815260408083206001600160a01b03851684529091529020546116be57336000908152600c602090815260408083206001600160a01b03851684529091528120555b6116d26001600160a01b03891633896125d5565b604051632770a7eb60e21b815281906001600160a01b03821690639dc29fac906117029033908c9060040161385b565b600060405180830381600087803b15801561171c57600080fd5b505af1158015611730573d6000803e3d6000fd5b505050507fae452465b27fa0406f99c961c3bbf8215e6dabe24c0da5dd5981206d9038500a338b8b8b6040516117699493929190613c27565b60405180910390a150505050505050505050565b336117906000546001600160a01b031690565b6001600160a01b0316146117b65760405162461bcd60e51b81526004016106cd906136ab565b600580546001600160a01b0319166001600160a01b0383161790556040517f82b306b4712e26cb08bc1bd049ca46818dea8d7bacdd8988f7557fd887a49e0f90610a41908390612fba565b6000336118166000546001600160a01b031690565b6001600160a01b03161461183c5760405162461bcd60e51b81526004016106cd906136ab565b6001600160a01b038416600090815260096020526040902054849060ff16151560011461187b5760405162461bcd60e51b81526004016106cd90613cae565b8560006001600160a01b03166006826040516118979190613503565b908152604051908190036020019020546001600160a01b031614156118ce5760405162461bcd60e51b81526004016106cd90613d16565b4285116118ed5760405162461bcd60e51b81526004016106cd90613af6565b6006876040516118fd9190613503565b908152602001604051809103902060040154851461192d5760405162461bcd60e51b81526004016106cd90613d7e565b600061193888611148565b6001546040517f3a5f69f80000000000000000000000000000000000000000000000000000000081529192506000916001600160a01b0390911690633a5f69f89061198d9085908c908c908c90600401613d8e565b6020604051808303816000875af11580156119ac573d6000803e3d6000fd5b505050506040513d601f19601f820116820180604052508101906119d09190613b73565b6001600160a01b038381166000908152600a60205260409081902080546001600160a01b031916928c1692909217909155519091507f04c12766244f2559dd215eecd69f70fdfce0e2c2260b5d52cb8b63738622eaa490611a3690839085908c90613db6565b60405180910390a198975050505050505050565b6003546001600160a01b031615801590611a6e57506004546001600160a01b031615155b611a8a5760405162461bcd60e51b81526004016106cd90613e36565b6001600160a01b0381166000908152600f60209081526040808320546010909252909120548115801590611abe5750600081115b611ada5760405162461bcd60e51b81526004016106cd90613e78565b600354611af4906001600160a01b038581169116846125d5565b600454611b0e906001600160a01b038581169116836125d5565b505050565b816000600682604051611b269190613503565b908152602001604051809103902060050154905080421015611b5a5760405162461bcd60e51b81526004016106cd90613567565b83836000611b6783611148565b6001600160a01b038181166000908152600a6020526040902054919250838116911614611ba65760405162461bcd60e51b81526004016106cd90613713565b6000611bb188611148565b6001600160a01b0381166000908152600e602090815260409182902082516080810184528154808252600183015460ff80821615159584019590955261010090049093161515938101939093526002015460608301529192509015801590611c1a575080604001515b611c365760405162461bcd60e51b81526004016106cd90613755565b602081015115611c585760405162461bcd60e51b81526004016106cd90613ee0565b336000908152600c602090815260408083206001600160a01b0386168452909152902054611c985760405162461bcd60e51b81526004016106cd90613f48565b336000908152600c602090815260408083206001600160a01b0386168452909152812054906103e8611ccc836103de6137e3565b611cd69190613818565b90506000611ce4828461382c565b9050600a611cf38260086137e3565b611cfd9190613818565b6001600160a01b038c166000908152600f602052604081208054909190611d25908490613843565b90915550600a9050611d388260086137e3565b611d429190613818565b611d4c908261382c565b6001600160a01b038c1660009081526010602052604081208054909190611d74908490613843565b90915550611d8e90506001600160a01b038c1633846125d5565b336000818152600c602090815260408083206001600160a01b038a16845290915280822091909155517f03562b7020b16271daf63f8af4dfad66194d3a83359909327c31983326b1287f91611de8918f908f908790613c27565b60405180910390a1505050505050505050505050565b611e496040518060e0016040528060006001600160a01b0316815260200160001515815260200160008152602001600081526020016000815260200160008152602001600081525090565b600682604051611e599190613503565b90815260408051918290036020908101832060e08401835280546001600160a01b038116855260ff600160a01b909104161515918401919091526001810154918301919091526002810154606083015260038101546080830152600481015460a08301526005015460c082015292915050565b33611edf6000546001600160a01b031690565b6001600160a01b031614611f055760405162461bcd60e51b81526004016106cd906136ab565b6000611f1085611148565b6001600160a01b0381166000908152600e602090815260409182902082516080810184528154808252600183015460ff80821615159584019590955261010090049093161515938101939093526002015460608301529192509015801590611f7e5750604081015115156001145b611f9a5760405162461bcd60e51b81526004016106cd90613755565b602081015115611fbc5760405162461bcd60e51b81526004016106cd90613ee0565b6001600160a01b0382166000908152600d60205260408120546060830151811015611ff95760405162461bcd60e51b81526004016106cd90613f8a565b85158015612005575084155b15612118576120178488600084612831565b6120219083613843565b6001600160a01b0385166000908152600e602052604090206002018290559150600a61204e8360086137e3565b6120589190613818565b6001600160a01b0388166000908152600f602052604081208054909190612080908490613843565b90915550600a90506120938360086137e3565b61209d9190613818565b6120a7908361382c565b6001600160a01b038816600090815260106020526040812080549091906120cf908490613843565b90915550506040517fb882f84541d4c34087dd3a3971b96ad170bc52a7907def174bb86f986bce6e2c9061210b908a908a906000908690613faf565b60405180910390a1610ef4565b8583606001511461213b5760405162461bcd60e51b81526004016106cd90614034565b80851061215a5760405162461bcd60e51b81526004016106cd90614076565b61216684888888612831565b6121709083613843565b6001600160a01b0385166000908152600e602052604090206002018690559150600a61219d8360086137e3565b6121a79190613818565b6001600160a01b0388166000908152600f6020526040812080549091906121cf908490613843565b90915550600a90506121e28360086137e3565b6121ec9190613818565b6121f6908361382c565b6001600160a01b0388166000908152601060205260408120805490919061221e908490613843565b90915550506040517fb882f84541d4c34087dd3a3971b96ad170bc52a7907def174bb86f986bce6e2c90612259908a908a908a908a90614086565b60405180910390a15050505050505050565b60606000836122af576040518060400160405280600181526020017f4c000000000000000000000000000000000000000000000000000000000000008152506122e6565b6040518060400160405280600181526020017f48000000000000000000000000000000000000000000000000000000000000008152505b905060006122fc670de0b6b3a764000087613818565b90506000811161231e5760405162461bcd60e51b81526004016106cd906140d8565b600061232b88601261382c565b61233690600a6141f6565b61234a90670de0b6b3a76400008906613818565b9050600288106123885761235f60018961382c565b61236a90600a6141f6565b81116123885760405162461bcd60e51b81526004016106cd90614237565b6000896123948461293b565b61239d8461293b565b86896040516020016123b3959493929190614299565b60408051601f198184030181529190529450505050505b95945050505050565b8360006006826040516123e69190613503565b90815260200160405180910390206004015490508042111561241a5760405162461bcd60e51b81526004016106cd906138ce565b8585600061242783611148565b6001600160a01b038181166000908152600a60205260409020549192508381169116146124665760405162461bcd60e51b81526004016106cd90613713565b6005546001600160a01b031633146124905760405162461bcd60e51b81526004016106cd90614357565b61249c89898989612658565b7f99f877ebe25ff1544a89db7db58d9d0b180af2288344cf1792272a4a07fd7c9933878b8b8b6040516124d3959493929190614367565b60405180910390a1505050505050505050565b336124f96000546001600160a01b031690565b6001600160a01b03161461251f5760405162461bcd60e51b81526004016106cd906136ab565b600380546001600160a01b0319166001600160a01b0383161790556040517f925ca4fe13c96d03d284548722ea2b894a5c446495703091e537b85dc54a2a0790610a41908390612fba565b3361257d6000546001600160a01b031690565b6001600160a01b0316146125a35760405162461bcd60e51b81526004016106cd906136ab565b6001600160a01b0381166125c95760405162461bcd60e51b81526004016106cd906143fb565b6125d2816127e1565b50565b611b0e8363a9059cbb60e01b84846040516024016125f492919061385b565b60408051601f198184030181529190526020810180517bffffffffffffffffffffffffffffffffffffffffffffffffffffffff167fffffffff0000000000000000000000000000000000000000000000000000000090931692909217909152612a75565b600061266385611148565b6001600160a01b038084166000908152600c60209081526040808320938516835292905220549091506126cf576001600160a01b038181166000908152600d602090815260408220805460018101825590835291200180546001600160a01b0319169184169190911790555b6001600160a01b038083166000908152600c6020908152604080832093851683529290529081208054859290612706908490613843565b9091555061272190506001600160a01b038516833086612b04565b6040517f40c10f1900000000000000000000000000000000000000000000000000000000815281906001600160a01b038216906340c10f199061276a908690889060040161385b565b600060405180830381600087803b15801561278457600080fd5b505af1158015612798573d6000803e3d6000fd5b505050507faad69ef0c77f7c04ba3390022ae56a77ba8686b6cd9530eff3a0a8c38d33e5ad838787876040516127d19493929190613c27565b60405180910390a1505050505050565b600080546001600160a01b038381166001600160a01b0319831681178455604051919092169283917f8be0079c531659141344cd1fd0a4f28419497f9722a3daafe3b4186f6b6457e09190a35050565b6000825b82811015612932576001600160a01b0386166000908152600d60205260408120805483908110612867576128676138de565b60009182526020808320909101546001600160a01b03908116808452600c83526040808520928c16855291909252822054909250906103e86128ab836103de6137e3565b6128b59190613818565b90508015612914576128d16001600160a01b03891684836125d5565b6001600160a01b038084166000908152600c60209081526040808320938d16835292905290812055612903818361382c565b61290d9086613843565b945061291c565b505050612920565b5050505b8061292a8161396c565b915050612835565b50949350505050565b60608161297b57505060408051808201909152600181527f3000000000000000000000000000000000000000000000000000000000000000602082015290565b8160005b81156129a5578061298f8161396c565b915061299e9050600a83613818565b915061297f565b60008167ffffffffffffffff8111156129c0576129c0612ccf565b6040519080825280601f01601f1916602001820160405280156129ea576020820181803683370190505b5090505b8415612a6d576129ff60018361382c565b9150612a0c600a8661440b565b612a17906030613843565b60f81b818381518110612a2c57612a2c6138de565b60200101907effffffffffffffffffffffffffffffffffffffffffffffffffffffffffffff1916908160001a905350612a66600a86613818565b94506129ee565b949350505050565b6000612aca826040518060400160405280602081526020017f5361666545524332303a206c6f772d6c6576656c2063616c6c206661696c6564815250856001600160a01b0316612b2b9092919063ffffffff16565b805190915015611b0e5780806020019051810190612ae8919061442a565b611b0e5760405162461bcd60e51b81526004016106cd906144a3565b612b25846323b872dd60e01b8585856040516024016125f4939291906144b3565b50505050565b6060612b3a8484600085612b44565b90505b9392505050565b606082471015612b665760405162461bcd60e51b81526004016106cd90614533565b843b612b845760405162461bcd60e51b81526004016106cd90614575565b600080866001600160a01b03168587604051612ba09190613503565b60006040518083038185875af1925050503d8060008114612bdd576040519150601f19603f3d011682016040523d82523d6000602084013e612be2565b606091505b5091509150612bf2828286612bfd565b979650505050505050565b60608315612c0c575081612b3d565b825115612c1c5782518084602001fd5b8160405162461bcd60e51b81526004016106cd9190612f63565b828054612c42906135f5565b90600052602060002090601f016020900481019282612c645760008555612caa565b82601f10612c7d57805160ff1916838001178555612caa565b82800160010185558215612caa579182015b82811115612caa578251825591602001919060010190612c8f565b50612cb6929150612cba565b5090565b5b80821115612cb65760008155600101612cbb565b634e487b7160e01b600052604160045260246000fd5b601f19601f830116810181811067ffffffffffffffff82111715612d0b57612d0b612ccf565b6040525050565b6000612d1d60405190565b90506111438282612ce5565b600067ffffffffffffffff821115612d4357612d43612ccf565b601f19601f83011660200192915050565b82818337506000910152565b6000612d73612d6e84612d29565b612d12565b905082815260208101848484011115612d8e57612d8e600080fd5b612d99848285612d54565b509392505050565b600082601f830112612db557612db5600080fd5b8135612a6d848260208601612d60565b600060208284031215612dda57612dda600080fd5b813567ffffffffffffffff811115612df457612df4600080fd5b612a6d84828501612da1565b60006001600160a01b0382165b92915050565b612e1c81612e00565b81146125d257600080fd5b8035612e0d81612e13565b600060208284031215612e4757612e47600080fd5b6000612a6d8484612e27565b805b82525050565b60208101612e0d8284612e53565b80612e1c565b8035612e0d81612e69565b600080600060608486031215612e9257612e92600080fd5b833567ffffffffffffffff811115612eac57612eac600080fd5b612eb886828701612da1565b9350506020612ec986828701612e27565b9250506040612eda86828701612e6f565b9150509250925092565b600060208284031215612ef957612ef9600080fd5b6000612a6d8484612e6f565b60005b83811015612f20578181015183820152602001612f08565b83811115612b255750506000910152565b6000612f3b825190565b808452602084019350612f52818560208601612f05565b601f01601f19169290920192915050565b60208082528101612b3d8184612f31565b60008060408385031215612f8a57612f8a600080fd5b6000612f968585612e27565b9250506020612fa785828601612e6f565b9150509250929050565b612e5581612e00565b60208101612e0d8284612fb1565b801515612e55565b60808101612fde8287612e53565b612feb6020830186612fc8565b612ff86040830185612fc8565b6123ca6060830184612e53565b80516130118382612fb1565b5060208101516130246020840182612fc8565b5060408101516130376040840182612e53565b50606081015161304a6060840182612e53565b50608081015161305d6080840182612e53565b5060a081015161307060a0840182612e53565b5060c0810151611b0e60c0840182612e53565b61308d8282613005565b5060e00190565b60200190565b60006130a4825190565b808452602093840193830160005b828110156130d75781516130c68782613083565b9650506020820191506001016130b2565b5093949350505050565b60208082528101612b3d818461309a565b60e08101613100828a612fb1565b61310d6020830189612fc8565b61311a6040830188612e53565b6131276060830187612e53565b6131346080830186612e53565b61314160a0830185612e53565b61314e60c0830184612e53565b98975050505050505050565b60208101612e0d8284612fc8565b801515612e1c565b8035612e0d81613168565b60008060008060008060008060006101208a8c03121561319d5761319d600080fd5b893567ffffffffffffffff8111156131b7576131b7600080fd5b6131c38c828d01612da1565b99505060206131d48c828d01612e27565b98505060406131e58c828d01613170565b97505060606131f68c828d01612e6f565b96505060806132078c828d01612e6f565b95505060a06132188c828d01612e6f565b94505060c08a013567ffffffffffffffff81111561323857613238600080fd5b6132448c828d01612da1565b93505060e06132558c828d01612e6f565b9250506101006132678c828d01612e6f565b9150509295985092959850929598565b6000806000806080858703121561329057613290600080fd5b843567ffffffffffffffff8111156132aa576132aa600080fd5b6132b687828801612da1565b94505060206132c787828801612e27565b93505060406132d887828801612e6f565b92505060606132e987828801612e6f565b91505092959194509250565b6000612e0d6001600160a01b03831661330c565b90565b6001600160a01b031690565b6000612e0d826132f5565b6000612e0d82613318565b612e5581613323565b60208101612e0d828461332e565b6000806040838503121561335b5761335b600080fd5b823567ffffffffffffffff81111561337557613375600080fd5b61338185828601612da1565b9250506020612fa785828601612e27565b60e08101612e0d8284613005565b600080604083850312156133b6576133b6600080fd5b60006133818585612e27565b600080600080600060a086880312156133dd576133dd600080fd5b853567ffffffffffffffff8111156133f7576133f7600080fd5b61340388828901612da1565b955050602061341488828901612e6f565b945050604061342588828901612e6f565b935050606061343688828901613170565b925050608086013567ffffffffffffffff81111561345657613456600080fd5b61346288828901612da1565b9150509295509295909350565b6000806000806080858703121561348857613488600080fd5b843567ffffffffffffffff8111156134a2576134a2600080fd5b6134ae87828801612da1565b94505060206134bf87828801612e27565b93505060406134d087828801612e6f565b92505060606132e987828801612e27565b60006134eb825190565b6134f9818560208601612f05565b9290920192915050565b612e0d81836134e1565b60368152602081017f43616e206e6f7420736574746c652f636c61696d2c2068617665206e6f74207281527f65616368656420736574746c6554696d657374616d7000000000000000000000602082015290505b60400190565b60208082528101612e0d8161350d565b60248152602081017f5468697320706f6c6963792068617320616c7265616479206265656e2073657481527f746c65640000000000000000000000000000000000000000000000000000000060208201529050613561565b60208082528101612e0d81613577565b634e487b7160e01b600052602260045260246000fd5b60028104600182168061360957607f821691505b6020821081141561361c5761361c6135df565b50919050565b8051612e0d81612e69565b60006020828403121561364257613642600080fd5b6000612a6d8484613622565b6060808252810161365f8186612f31565b905061366e6020830185612e53565b612a6d6040830184612fc8565b60208082527f4f776e61626c653a2063616c6c6572206973206e6f7420746865206f776e65729101908152613094565b60208082528101612e0d8161367b565b60238152602081017f496e76616c696420706f6c696379746f6b656e207769746820737461626c656381527f6f696e000000000000000000000000000000000000000000000000000000000060208201529050613561565b60208082528101612e0d816136bb565b601e8152602081017f48617665206e6f7420676f7420746865206f7261636c6520726573756c74000081529050613094565b60208082528101612e0d81613723565b602d8152602081017f54686520726573756c7420646f6573206e6f742068617070656e2c20796f752081527f63616e206e6f7420636c61696d0000000000000000000000000000000000000060208201529050613561565b60208082528101612e0d81613765565b634e487b7160e01b600052601160045260246000fd5b60008160001904831182151516156137fd576137fd6137cd565b500290565b634e487b7160e01b600052601260045260246000fd5b60008261382757613827613802565b500490565b60008282101561383e5761383e6137cd565b500390565b60008219821115613856576138566137cd565b500190565b604081016138698285612fb1565b612b3d6020830184612e53565b602f8152602081017f43616e206e6f74206465706f7369742f72656465656d2c20686173207061737381527f65642074686520646561646c696e65000000000000000000000000000000000060208201529050613561565b60208082528101612e0d81613876565b634e487b7160e01b600052603260045260246000fd5b60008154613901816135f5565b600182168015613918576001811461392957613959565b60ff19831686528186019350613959565b60008581526020902060005b8381101561395157815488820152600190910190602001613935565b505081860193505b50505092915050565b612e0d81836138f4565b6000600019821415613980576139806137cd565b5060010190565b60158152602081017f506f6c696379206e616d65206e6f7420666f756e64000000000000000000000081529050613094565b60208082528101612e0d81613987565b60168152602081017f506f6c69637920746f6b656e206e6f7420666f756e640000000000000000000081529050613094565b60208082528101612e0d816139c9565b60118152602081017f546f6f206d616e7920646563696d616c7300000000000000000000000000000081529050613094565b60208082528101612e0d81613a0b565b60ff8116612e1c565b8051612e0d81613a4d565b600060208284031215613a7657613a76600080fd5b6000612a6d8484613a56565b60138152602081017f446563696d616c73206e6f74207061697265640000000000000000000000000081529050613094565b60208082528101612e0d81613a82565b600e8152602081017f57726f6e6720646561646c696e6500000000000000000000000000000000000081529050613094565b60208082528101612e0d81613ac4565b60158152602081017f57726f6e6720736574746c6554696d657374616d70000000000000000000000081529050613094565b60208082528101612e0d81613b06565b60408082528101613b598185612f31565b9050612b3d6020830184612e53565b8051612e0d81612e13565b600060208284031215613b8857613b88600080fd5b6000612a6d8484613b68565b60a08082528101613ba58188612f31565b9050613bb46020830187612fb1565b613bc16040830186612e53565b613bce6060830185612e53565b613bdb6080830184612e53565b9695505050505050565b601b8152602081017f5573657227732071756f7461206e6f742073756666696369656e74000000000081529050613094565b60208082528101612e0d81613be5565b60808101613c358287612fb1565b8181036020830152613c478186612f31565b9050612ff86040830185612fb1565b60288152602081017f446f206e6f7420737570706f7274207468697320737461626c65636f696e206381527f757272656e746c7900000000000000000000000000000000000000000000000060208201529050613561565b60208082528101612e0d81613c56565b603f8152602081017f5468697320706f6c69637920746f6b656e20686173206e6f74206265656e206481527f65706c6f7965642c20706c65617365206465706c6f792069742066697273740060208201529050613561565b60208082528101612e0d81613cbe565b602b8152602081017f506f6c69637920746f6b656e20616e6420706f6f6c20646561646c696e65206e81527f6f74207468652073616d6500000000000000000000000000000000000000000060208201529050613561565b60208082528101612e0d81613d26565b60808101613d9c8287612fb1565b613da96020830186612fb1565b612ff86040830185612e53565b60608101613dc48286612fb1565b613dd16020830185612fb1565b612a6d6040830184612fb1565b602e8152602081017f506c656173652073657420746865206c6f7474657279202620656d657267656e81527f6379506f6f6c206164647265737300000000000000000000000000000000000060208201529050613561565b60208082528101612e0d81613dde565b60118152602081017f4e6f2070656e64696e6720696e636f6d6500000000000000000000000000000081529050613094565b60208082528101612e0d81613e46565b60368152602081017f4f6e6c792063616c6c20746869732066756e6374696f6e207768656e2074686581527f206576656e7420646f6573206e6f742068617070656e0000000000000000000060208201529050613561565b60208082528101612e0d81613e88565b603b8152602081017f4e6f2071756f74612c20796f7520646964206e6f74206465706f73697420616e81527f64206d696e7420706f6c69637920746f6b656e73206265666f7265000000000060208201529050613561565b60208082528101612e0d81613ef0565b60148152602081017f4861766520646973747269627574656420616c6c00000000000000000000000081529050613094565b60208082528101612e0d81613f58565b6000612e0d6133098381565b612e5581613f9a565b60808082528101613fc08187612f31565b9050613fcf6020830186612fb1565b612ff86040830185613fa6565b60328152602081017f596f75206e65656420746f2073746172742066726f6d20746865206c6173742081527f646973747269627574696f6e20706f696e74000000000000000000000000000060208201529050613561565b60208082528101612e0d81613fdc565b60128152602081017f496e76616c69642073746f7020696e646578000000000000000000000000000081529050613094565b60208082528101612e0d81614044565b608080825281016140978187612f31565b9050613da96020830186612fb1565b60108152602081017f496e76616c696420696e7420706172740000000000000000000000000000000081529050613094565b60208082528101612e0d816140a6565b80825b600185111561412757808604811115614106576141066137cd565b600185161561411457908102905b80026141208560011c90565b94506140eb565b94509492505050565b60008261413f57506001612b3d565b8161414c57506000612b3d565b8160018114614162576002811461416c57614199565b6001915050612b3d565b60ff84111561417d5761417d6137cd565b8360020a915084821115614193576141936137cd565b50612b3d565b5060208310610133831016604e8410600b84101617156141cc575081810a838111156141c7576141c76137cd565b612b3d565b6141d984848460016140e8565b925090508184048111156141ef576141ef6137cd565b0292915050565b6000612b3d6000198484614130565b60148152602081017f496e76616c696420646563696d616c207061727400000000000000000000000081529050613094565b60208082528101612e0d81614205565b7f5f0000000000000000000000000000000000000000000000000000000000000081525b60010190565b7f2e00000000000000000000000000000000000000000000000000000000000000815261426b565b6142a381876134e1565b90506142ae81614247565b90506142ba81866134e1565b90506142c581614271565b90506142d181856134e1565b90506142dc81614247565b90506142e881846134e1565b90506142f381614247565b9050613bdb81836134e1565b60258152602081017f4f6e6c792074686520726f7574657220636f6e74726163742063616e2064656c81527f656761746500000000000000000000000000000000000000000000000000000060208201529050613561565b60208082528101612e0d816142ff565b60a081016143758288612fb1565b6143826020830187612fb1565b81810360408301526143948186612f31565b9050613bce6060830185612fb1565b60268152602081017f4f776e61626c653a206e6577206f776e657220697320746865207a65726f206181527f646472657373000000000000000000000000000000000000000000000000000060208201529050613561565b60208082528101612e0d816143a3565b60008261441a5761441a613802565b500690565b8051612e0d81613168565b60006020828403121561443f5761443f600080fd5b6000612a6d848461441f565b602a8152602081017f5361666545524332303a204552433230206f7065726174696f6e20646964206e81527f6f7420737563636565640000000000000000000000000000000000000000000060208201529050613561565b60208082528101612e0d8161444b565b606081016144c18286612fb1565b6144ce6020830185612fb1565b612a6d6040830184612e53565b60268152602081017f416464726573733a20696e73756666696369656e742062616c616e636520666f81527f722063616c6c000000000000000000000000000000000000000000000000000060208201529050613561565b60208082528101612e0d816144db565b601d8152602081017f416464726573733a2063616c6c20746f206e6f6e2d636f6e747261637400000081529050613094565b60208082528101612e0d8161454356fea26469706673582212200b73bc75917946fc6e1f9497e4a7bd60f65a67672f8cb298a3b138008ef3770464736f6c634300080a0033",
  "devdoc": {
    "details": "Most of the functions to be called from outside will use the name of policyToken         rather than the address (easy to read).         Other variables or functions still use address to index.         The rule of policyToken naming is:              Original Token Name(with decimals) + Strike Price + Lower or Higher + Date         E.g.  AVAX_30.0_L_2101, BTC_30000.0_L_2102, ETH_8000.0_H_2109         (the original name need to be the same as in the chainlink oracle)         There are three decimals for a policy token:              1. Name decimals: Only for generating the name of policyToken              2. Token decimals: The decimals of the policyToken                 (should be the same as the paired stablecoin)              3. Price decimals: Always 18. The oracle result will be transferred for settlement",
    "kind": "dev",
    "methods": {
      "_generateName(string,uint256,uint256,bool,string)": {
        "params": {
          "_decimals": "Decimals of the name generation (0,1=>1)",
          "_isCall": "The policy's payoff is triggered when higher(true) or lower(false)",
          "_round": "Round of the policy (e.g. 2112, 2201)",
          "_strikePrice": "Strike price of the policy (18 decimals)",
          "_tokenName": "Name of the stike token (BTC, ETH, AVAX...)"
        }
      },
      "addStablecoin(address)": {
        "params": {
          "_newStablecoin": "Address of the new stablecoin"
        }
      },
      "claim(string,address,uint256)": {
        "details": "It is done after result settlement and only if the result is true",
        "params": {
          "_amount": "Amount of stablecoin",
          "_policyTokenName": "Name of the policy token",
          "_stablecoin": "Address of the stable coin"
        }
      },
      "collectIncome(address)": {
        "details": "Can be done by anyone, only when there is some income to be distributed",
        "params": {
          "_stablecoin": "Address of stablecoin"
        }
      },
      "constructor": {
        "params": {
          "_factory": "Address of naughty factory",
          "_priceGetter": "Address of the oracle contract",
          "_usdt": "USDT.e is the first stablecoin supported in the pool"
        }
      },
      "delegateDeposit(string,address,uint256,address)": {
        "details": "Only called by the router contract",
        "params": {
          "_amount": "Amount of stablecoin",
          "_policyTokenName": "Name of the policy token",
          "_stablecoin": "Address of the sable coin",
          "_user": "Address to receive the policy tokens"
        }
      },
      "deployPolicyToken(string,address,bool,uint256,uint256,uint256,string,uint256,uint256)": {
        "details": "Only the owner can deploy new policy token      The name form is like \"AVAX_50_L_202101\" and is built inside the contract.",
        "params": {
          "_deadline": "Deadline of this policy token (deposit / redeem / swap)",
          "_isCall": "The policy is for higher or lower than the strike price (call / put)",
          "_nameDecimals": "Decimals of this token's name (0~18)",
          "_settleTimestamp": "Can settle after this timestamp (for oracle)",
          "_stablecoin": "Address of the stablecoin (Just for check decimals here)",
          "_strikePrice": "Strike price of the policy (have already been transferred with 1e18)",
          "_tokenDecimals": "Decimals of this token's value (0~18) (same as paired stablecoin)",
          "_tokenName": "Name of the original token (e.g. AVAX, BTC, ETH...)"
        }
      },
      "deployPool(string,address,uint256,uint256)": {
        "params": {
          "_feeRate": "Fee rate given to LP holders",
          "_policyTokenName": "Name of the policy token",
          "_poolDeadline": "Swapping deadline of the pool (normally the same as the token's deadline)",
          "_stablecoin": "Address of the stable coin"
        },
        "returns": {
          "_0": "poolAddress The address of the pool just deployed"
        }
      },
      "deposit(string,address,uint256)": {
        "params": {
          "_amount": "Amount of stablecoin",
          "_policyTokenName": "Name of the policy token",
          "_stablecoin": "Address of the stable coin"
        }
      },
      "findAddressbyName(string)": {
        "params": {
          "_policyTokenName": "Name of the policy token (e.g. \"AVAX_30_L_2103\")"
        },
        "returns": {
          "policyTokenAddress": "Address of the policy token"
        }
      },
      "findNamebyAddress(address)": {
        "params": {
          "_policyTokenAddress": "Address of the policy token"
        },
        "returns": {
          "policyTokenName": "Name of the policy token"
        }
      },
      "getAllTokens()": {
        "returns": {
          "_0": "tokensInfo Token information list"
        }
      },
      "getPolicyTokenInfo(string)": {
        "params": {
          "_policyTokenName": "Name of the policy token (e.g. \"AVAX30L202103\")"
        },
        "returns": {
          "_0": "policyTokenInfo PolicyToken detail information"
        }
      },
      "getUserQuota(address,address)": {
        "params": {
          "_policyTokenAddress": "Address of the policy token",
          "_user": "Address of the user to be checked"
        },
        "returns": {
          "_quota": "User's quota result"
        }
      },
      "redeem(string,address,uint256)": {
        "details": "Redeem happens before the deadline and is different from claim/settle",
        "params": {
          "_amount": "Amount to redeem",
          "_policyTokenName": "Name of the policy token",
          "_stablecoin": "Address of the stablecoin"
        }
      },
      "redeemAfterSettlement(string,address)": {
        "params": {
          "_policyTokenName": "Name of the policy token",
          "_stablecoin": "Address of the stablecoin"
        }
      },
      "renounceOwnership()": {
        "details": "Renouncing ownership will leave the contract without an owner,         thereby removing any functionality that is only available to the owner."
      },
      "setEmergencyPool(address)": {
        "params": {
          "_emergencyPool": "Address of the new emergencyPool"
        }
      },
      "setLottery(address)": {
        "params": {
          "_lotteryAddress": "Address of the new lottery"
        }
      },
      "setNaughtyRouter(address)": {
        "params": {
          "_router": "Address of the new naughty router"
        }
      },
      "settleAllPolicyTokens(string,address,uint256,uint256)": {
        "details": "Take care of the gas cost and can use the _startIndex and _stopIndex to control the size",
        "params": {
          "_policyTokenName": "Name of policy token",
          "_stablecoin": "Address of stablecoin",
          "_startIndex": "Settlement start index",
          "_stopIndex": "Settlement stop index"
        }
      },
      "settleFinalResult(string)": {
        "params": {
          "_policyTokenName": "Name of the policy token"
        }
      },
      "transferOwnership(address)": {
        "details": "Can only be called by the current owner.",
        "params": {
          "newOwner": "Address of the new owner"
        }
      }
    },
    "title": "PolicyCore",
    "version": 1
  },
  "userdoc": {
    "kind": "user",
    "methods": {
      "_generateName(string,uint256,uint256,bool,string)": {
        "notice": "Generate the policy token name"
      },
      "addStablecoin(address)": {
        "notice": "Add a newly supported stablecoin"
      },
      "claim(string,address,uint256)": {
        "notice": "Claim a payoff based on policy tokens"
      },
      "collectIncome(address)": {
        "notice": "Collect the income"
      },
      "constructor": {
        "notice": "Constructor, for some addresses"
      },
      "delegateDeposit(string,address,uint256,address)": {
        "notice": "Delegate deposit (deposit and mint for other addresses)"
      },
      "deployPolicyToken(string,address,bool,uint256,uint256,uint256,string,uint256,uint256)": {
        "notice": "Deploy a new policy token and return the token address"
      },
      "deployPool(string,address,uint256,uint256)": {
        "notice": "Deploy a new pair (pool)"
      },
      "deposit(string,address,uint256)": {
        "notice": "Deposit stablecoins and get policy tokens"
      },
      "findAddressbyName(string)": {
        "notice": "Find the token address by its name"
      },
      "findNamebyAddress(address)": {
        "notice": "Find the token name by its address"
      },
      "getAllTokens()": {
        "notice": "Get the information about all the tokens"
      },
      "getPolicyTokenInfo(string)": {
        "notice": "Find the token information by its name"
      },
      "getUserQuota(address,address)": {
        "notice": "Get a user's quota for a certain policy token"
      },
      "owner()": {
        "notice": "Returns the address of the current owner."
      },
      "redeem(string,address,uint256)": {
        "notice": "Burn policy tokens and redeem USDT"
      },
      "redeemAfterSettlement(string,address)": {
        "notice": "Redeem policy tokens and get stablecoins by the user himeself"
      },
      "renounceOwnership()": {
        "notice": "Leaves the contract without owner. It will not be possible to call         `onlyOwner` functions anymore. Can only be called by the current owner."
      },
      "setEmergencyPool(address)": {
        "notice": "Change the address of emergency pool"
      },
      "setLottery(address)": {
        "notice": "Change the address of lottery"
      },
      "setNaughtyRouter(address)": {
        "notice": "Change the address of naughty router"
      },
      "settleAllPolicyTokens(string,address,uint256,uint256)": {
        "notice": "Settle the policies when then insurance event do not happen         Funds are automatically distributed back to the depositors"
      },
      "settleFinalResult(string)": {
        "notice": "Get the final price from the PriceGetter contract"
      },
      "transferOwnership(address)": {
        "notice": "Transfers ownership of the contract to a new account (`newOwner`)."
      }
    },
    "notice": "Core logic of Naughty Price Product         Preset:              (Done in the naughtyFactory contract)              1. Deploy policyToken contract              2. Deploy policyToken-Stablecoin pool contract         User Interaction:              1. Deposit Stablecoin and mint PolicyTokens              2. Redeem their Stablecoin and burn the PolicyTokens (before settlement)              3. Claim for payout with PolicyTokens (after settlement)         PolicyTokens are minted with the ratio 1:1 to Stablecoin         The PolicyTokens are traded in the pool with CFMM (xy=k)         When the event happens, a PolicyToken can be burned for claiming 1 Stablecoin.         When the event does not happen, the PolicyToken depositors can         redeem their 1 deposited Stablecoin",
    "version": 1
  },
  "storageLayout": {
    "storage": [
      {
        "astId": 26357,
        "contract": "contracts/naughty-price/PolicyCore.sol:PolicyCore",
        "label": "_owner",
        "offset": 0,
        "slot": "0",
        "type": "t_address"
      },
      {
        "astId": 21965,
        "contract": "contracts/naughty-price/PolicyCore.sol:PolicyCore",
        "label": "factory",
        "offset": 0,
        "slot": "1",
        "type": "t_contract(INaughtyFactory)23958"
      },
      {
        "astId": 21968,
        "contract": "contracts/naughty-price/PolicyCore.sol:PolicyCore",
        "label": "priceGetter",
        "offset": 0,
        "slot": "2",
        "type": "t_contract(IPriceGetter)24202"
      },
      {
        "astId": 21970,
        "contract": "contracts/naughty-price/PolicyCore.sol:PolicyCore",
        "label": "lottery",
        "offset": 0,
        "slot": "3",
        "type": "t_address"
      },
      {
        "astId": 21972,
        "contract": "contracts/naughty-price/PolicyCore.sol:PolicyCore",
        "label": "emergencyPool",
        "offset": 0,
        "slot": "4",
        "type": "t_address"
      },
      {
        "astId": 21974,
        "contract": "contracts/naughty-price/PolicyCore.sol:PolicyCore",
        "label": "naughtyRouter",
        "offset": 0,
        "slot": "5",
        "type": "t_address"
      },
      {
        "astId": 21994,
        "contract": "contracts/naughty-price/PolicyCore.sol:PolicyCore",
        "label": "policyTokenInfoMapping",
        "offset": 0,
        "slot": "6",
        "type": "t_mapping(t_string_memory_ptr,t_struct(PolicyTokenInfo)21989_storage)"
      },
      {
        "astId": 21998,
        "contract": "contracts/naughty-price/PolicyCore.sol:PolicyCore",
        "label": "policyTokenAddressToName",
        "offset": 0,
        "slot": "7",
        "type": "t_mapping(t_address,t_string_storage)"
      },
      {
        "astId": 22001,
        "contract": "contracts/naughty-price/PolicyCore.sol:PolicyCore",
        "label": "allPolicyTokens",
        "offset": 0,
        "slot": "8",
        "type": "t_array(t_string_storage)dyn_storage"
      },
      {
        "astId": 22005,
        "contract": "contracts/naughty-price/PolicyCore.sol:PolicyCore",
        "label": "supportedStablecoin",
        "offset": 0,
        "slot": "9",
        "type": "t_mapping(t_address,t_bool)"
      },
      {
        "astId": 22009,
        "contract": "contracts/naughty-price/PolicyCore.sol:PolicyCore",
        "label": "whichStablecoin",
        "offset": 0,
        "slot": "10",
        "type": "t_mapping(t_address,t_address)"
      },
      {
        "astId": 22013,
        "contract": "contracts/naughty-price/PolicyCore.sol:PolicyCore",
        "label": "policyTokenToOriginal",
        "offset": 0,
        "slot": "11",
        "type": "t_mapping(t_address,t_string_storage)"
      },
      {
        "astId": 22019,
        "contract": "contracts/naughty-price/PolicyCore.sol:PolicyCore",
        "label": "userQuota",
        "offset": 0,
        "slot": "12",
        "type": "t_mapping(t_address,t_mapping(t_address,t_uint256))"
      },
      {
        "astId": 22024,
        "contract": "contracts/naughty-price/PolicyCore.sol:PolicyCore",
        "label": "allDepositors",
        "offset": 0,
        "slot": "13",
        "type": "t_mapping(t_address,t_array(t_address)dyn_storage)"
      },
      {
        "astId": 22038,
        "contract": "contracts/naughty-price/PolicyCore.sol:PolicyCore",
        "label": "settleResult",
        "offset": 0,
        "slot": "14",
        "type": "t_mapping(t_address,t_struct(SettlementInfo)22033_storage)"
      },
      {
        "astId": 22042,
        "contract": "contracts/naughty-price/PolicyCore.sol:PolicyCore",
        "label": "pendingIncomeToLottery",
        "offset": 0,
        "slot": "15",
        "type": "t_mapping(t_address,t_uint256)"
      },
      {
        "astId": 22046,
        "contract": "contracts/naughty-price/PolicyCore.sol:PolicyCore",
        "label": "pendingIncomeToEmergency",
        "offset": 0,
        "slot": "16",
        "type": "t_mapping(t_address,t_uint256)"
      }
    ],
    "types": {
      "t_address": {
        "encoding": "inplace",
        "label": "address",
        "numberOfBytes": "20"
      },
      "t_array(t_address)dyn_storage": {
        "base": "t_address",
        "encoding": "dynamic_array",
        "label": "address[]",
        "numberOfBytes": "32"
      },
      "t_array(t_string_storage)dyn_storage": {
        "base": "t_string_storage",
        "encoding": "dynamic_array",
        "label": "string[]",
        "numberOfBytes": "32"
      },
      "t_bool": {
        "encoding": "inplace",
        "label": "bool",
        "numberOfBytes": "1"
      },
      "t_contract(INaughtyFactory)23958": {
        "encoding": "inplace",
        "label": "contract INaughtyFactory",
        "numberOfBytes": "20"
      },
      "t_contract(IPriceGetter)24202": {
        "encoding": "inplace",
        "label": "contract IPriceGetter",
        "numberOfBytes": "20"
      },
      "t_mapping(t_address,t_address)": {
        "encoding": "mapping",
        "key": "t_address",
        "label": "mapping(address => address)",
        "numberOfBytes": "32",
        "value": "t_address"
      },
      "t_mapping(t_address,t_array(t_address)dyn_storage)": {
        "encoding": "mapping",
        "key": "t_address",
        "label": "mapping(address => address[])",
        "numberOfBytes": "32",
        "value": "t_array(t_address)dyn_storage"
      },
      "t_mapping(t_address,t_bool)": {
        "encoding": "mapping",
        "key": "t_address",
        "label": "mapping(address => bool)",
        "numberOfBytes": "32",
        "value": "t_bool"
      },
      "t_mapping(t_address,t_mapping(t_address,t_uint256))": {
        "encoding": "mapping",
        "key": "t_address",
        "label": "mapping(address => mapping(address => uint256))",
        "numberOfBytes": "32",
        "value": "t_mapping(t_address,t_uint256)"
      },
      "t_mapping(t_address,t_string_storage)": {
        "encoding": "mapping",
        "key": "t_address",
        "label": "mapping(address => string)",
        "numberOfBytes": "32",
        "value": "t_string_storage"
      },
      "t_mapping(t_address,t_struct(SettlementInfo)22033_storage)": {
        "encoding": "mapping",
        "key": "t_address",
        "label": "mapping(address => struct PolicyCore.SettlementInfo)",
        "numberOfBytes": "32",
        "value": "t_struct(SettlementInfo)22033_storage"
      },
      "t_mapping(t_address,t_uint256)": {
        "encoding": "mapping",
        "key": "t_address",
        "label": "mapping(address => uint256)",
        "numberOfBytes": "32",
        "value": "t_uint256"
      },
      "t_mapping(t_string_memory_ptr,t_struct(PolicyTokenInfo)21989_storage)": {
        "encoding": "mapping",
        "key": "t_string_memory_ptr",
        "label": "mapping(string => struct PolicyCore.PolicyTokenInfo)",
        "numberOfBytes": "32",
        "value": "t_struct(PolicyTokenInfo)21989_storage"
      },
      "t_string_memory_ptr": {
        "encoding": "bytes",
        "label": "string",
        "numberOfBytes": "32"
      },
      "t_string_storage": {
        "encoding": "bytes",
        "label": "string",
        "numberOfBytes": "32"
      },
      "t_struct(PolicyTokenInfo)21989_storage": {
        "encoding": "inplace",
        "label": "struct PolicyCore.PolicyTokenInfo",
        "members": [
          {
            "astId": 21976,
            "contract": "contracts/naughty-price/PolicyCore.sol:PolicyCore",
            "label": "policyTokenAddress",
            "offset": 0,
            "slot": "0",
            "type": "t_address"
          },
          {
            "astId": 21978,
            "contract": "contracts/naughty-price/PolicyCore.sol:PolicyCore",
            "label": "isCall",
            "offset": 20,
            "slot": "0",
            "type": "t_bool"
          },
          {
            "astId": 21980,
            "contract": "contracts/naughty-price/PolicyCore.sol:PolicyCore",
            "label": "nameDecimals",
            "offset": 0,
            "slot": "1",
            "type": "t_uint256"
          },
          {
            "astId": 21982,
            "contract": "contracts/naughty-price/PolicyCore.sol:PolicyCore",
            "label": "tokenDecimals",
            "offset": 0,
            "slot": "2",
            "type": "t_uint256"
          },
          {
            "astId": 21984,
            "contract": "contracts/naughty-price/PolicyCore.sol:PolicyCore",
            "label": "strikePrice",
            "offset": 0,
            "slot": "3",
            "type": "t_uint256"
          },
          {
            "astId": 21986,
            "contract": "contracts/naughty-price/PolicyCore.sol:PolicyCore",
            "label": "deadline",
            "offset": 0,
            "slot": "4",
            "type": "t_uint256"
          },
          {
            "astId": 21988,
            "contract": "contracts/naughty-price/PolicyCore.sol:PolicyCore",
            "label": "settleTimestamp",
            "offset": 0,
            "slot": "5",
            "type": "t_uint256"
          }
        ],
        "numberOfBytes": "192"
      },
      "t_struct(SettlementInfo)22033_storage": {
        "encoding": "inplace",
        "label": "struct PolicyCore.SettlementInfo",
        "members": [
          {
            "astId": 22026,
            "contract": "contracts/naughty-price/PolicyCore.sol:PolicyCore",
            "label": "price",
            "offset": 0,
            "slot": "0",
            "type": "t_uint256"
          },
          {
            "astId": 22028,
            "contract": "contracts/naughty-price/PolicyCore.sol:PolicyCore",
            "label": "isHappened",
            "offset": 0,
            "slot": "1",
            "type": "t_bool"
          },
          {
            "astId": 22030,
            "contract": "contracts/naughty-price/PolicyCore.sol:PolicyCore",
            "label": "alreadySettled",
            "offset": 1,
            "slot": "1",
            "type": "t_bool"
          },
          {
            "astId": 22032,
            "contract": "contracts/naughty-price/PolicyCore.sol:PolicyCore",
            "label": "currentDistributionIndex",
            "offset": 0,
            "slot": "2",
            "type": "t_uint256"
          }
        ],
        "numberOfBytes": "96"
      },
      "t_uint256": {
        "encoding": "inplace",
        "label": "uint256",
        "numberOfBytes": "32"
      }
    }
  }
}