{
  "address": "0x91CCf08e3B1fb6ECA276e3A4766600E7d6b191d4",
  "abi": [
    {
      "anonymous": false,
      "inputs": [
        {
          "indexed": false,
          "internalType": "address",
          "name": "payerAddress",
          "type": "address"
        },
        {
          "indexed": false,
          "internalType": "address",
          "name": "userAddress",
          "type": "address"
        },
        {
          "indexed": false,
          "internalType": "string",
          "name": "policyTokenName",
          "type": "string"
        },
        {
          "indexed": false,
          "internalType": "address",
          "name": "stablecoin",
          "type": "address"
        },
        {
          "indexed": false,
          "internalType": "uint256",
          "name": "amount",
          "type": "uint256"
        }
      ],
      "name": "DelegateDeposit",
      "type": "event"
    },
    {
      "anonymous": false,
      "inputs": [
        {
          "indexed": false,
          "internalType": "address",
          "name": "userAddress",
          "type": "address"
        },
        {
          "indexed": false,
          "internalType": "string",
          "name": "policyTokenName",
          "type": "string"
        },
        {
          "indexed": false,
          "internalType": "address",
          "name": "stablecoin",
          "type": "address"
        },
        {
          "indexed": false,
          "internalType": "uint256",
          "name": "amount",
          "type": "uint256"
        }
      ],
      "name": "Deposit",
      "type": "event"
    },
    {
      "anonymous": false,
      "inputs": [
        {
          "indexed": false,
          "internalType": "string",
          "name": "_policyTokenName",
          "type": "string"
        },
        {
          "indexed": false,
          "internalType": "uint256",
          "name": "price",
          "type": "uint256"
        },
        {
          "indexed": false,
          "internalType": "bool",
          "name": "isHappened",
          "type": "bool"
        }
      ],
      "name": "FinalResultSettled",
      "type": "event"
    },
    {
      "anonymous": false,
      "inputs": [
        {
          "indexed": false,
          "internalType": "address",
          "name": "oldILM",
          "type": "address"
        },
        {
          "indexed": false,
          "internalType": "address",
          "name": "newILM",
          "type": "address"
        }
      ],
      "name": "ILMChanged",
      "type": "event"
    },
    {
      "anonymous": false,
      "inputs": [
        {
          "indexed": false,
          "internalType": "address",
          "name": "oldIncomeSharing",
          "type": "address"
        },
        {
          "indexed": false,
          "internalType": "address",
          "name": "newIncomeSharing",
          "type": "address"
        }
      ],
      "name": "IncomeSharingChanged",
      "type": "event"
    },
    {
      "anonymous": false,
      "inputs": [
        {
          "indexed": false,
          "internalType": "uint256",
          "name": "oldToLottery",
          "type": "uint256"
        },
        {
          "indexed": false,
          "internalType": "uint256",
          "name": "newToLottery",
          "type": "uint256"
        }
      ],
      "name": "IncomeToLotteryChanged",
      "type": "event"
    },
    {
      "anonymous": false,
      "inputs": [
        {
          "indexed": false,
          "internalType": "address",
          "name": "oldLotteryAddress",
          "type": "address"
        },
        {
          "indexed": false,
          "internalType": "address",
          "name": "newLotteryAddress",
          "type": "address"
        }
      ],
      "name": "LotteryChanged",
      "type": "event"
    },
    {
      "anonymous": false,
      "inputs": [
        {
          "indexed": false,
          "internalType": "address",
          "name": "oldRouter",
          "type": "address"
        },
        {
          "indexed": false,
          "internalType": "address",
          "name": "newRouter",
          "type": "address"
        }
      ],
      "name": "NaughtyRouterChanged",
      "type": "event"
    },
    {
      "anonymous": false,
      "inputs": [
        {
          "indexed": false,
          "internalType": "address",
          "name": "_newStablecoin",
          "type": "address"
        }
      ],
      "name": "NewStablecoinAdded",
      "type": "event"
    },
    {
      "anonymous": false,
      "inputs": [
        {
          "indexed": true,
          "internalType": "address",
          "name": "previousOwner",
          "type": "address"
        },
        {
          "indexed": true,
          "internalType": "address",
          "name": "newOwner",
          "type": "address"
        }
      ],
      "name": "OwnershipTransferred",
      "type": "event"
    },
    {
      "anonymous": false,
      "inputs": [
        {
          "indexed": false,
          "internalType": "string",
          "name": "tokenName",
          "type": "string"
        },
        {
          "indexed": false,
          "internalType": "address",
          "name": "tokenAddress",
          "type": "address"
        },
        {
          "indexed": false,
          "internalType": "uint256",
          "name": "tokenDecimals",
          "type": "uint256"
        },
        {
          "indexed": false,
          "internalType": "uint256",
          "name": "deadline",
          "type": "uint256"
        },
        {
          "indexed": false,
          "internalType": "uint256",
          "name": "settleTimestamp",
          "type": "uint256"
        }
      ],
      "name": "PolicyTokenDeployed",
      "type": "event"
    },
    {
      "anonymous": false,
      "inputs": [
        {
          "indexed": false,
          "internalType": "string",
          "name": "policyTokenName",
          "type": "string"
        },
        {
          "indexed": false,
          "internalType": "address",
          "name": "stablecoin",
          "type": "address"
        },
        {
          "indexed": false,
          "internalType": "uint256",
          "name": "startIndex",
          "type": "uint256"
        },
        {
          "indexed": false,
          "internalType": "uint256",
          "name": "stopIndex",
          "type": "uint256"
        }
      ],
      "name": "PolicyTokensSettledForUsers",
      "type": "event"
    },
    {
      "anonymous": false,
      "inputs": [
        {
          "indexed": false,
          "internalType": "address",
          "name": "poolAddress",
          "type": "address"
        },
        {
          "indexed": false,
          "internalType": "address",
          "name": "policyTokenAddress",
          "type": "address"
        },
        {
          "indexed": false,
          "internalType": "address",
          "name": "stablecoin",
          "type": "address"
        }
      ],
      "name": "PoolDeployed",
      "type": "event"
    },
    {
      "anonymous": false,
      "inputs": [
        {
          "indexed": false,
          "internalType": "address",
          "name": "poolAddress",
          "type": "address"
        },
        {
          "indexed": false,
          "internalType": "address",
          "name": "policyTokenAddress",
          "type": "address"
        },
        {
          "indexed": false,
          "internalType": "address",
          "name": "stablecoin",
          "type": "address"
        },
        {
          "indexed": false,
          "internalType": "uint256",
          "name": "initLiquidityA",
          "type": "uint256"
        },
        {
          "indexed": false,
          "internalType": "uint256",
          "name": "initLiquidityB",
          "type": "uint256"
        }
      ],
      "name": "PoolDeployedWithInitialLiquidity",
      "type": "event"
    },
    {
      "anonymous": false,
      "inputs": [
        {
          "indexed": false,
          "internalType": "address",
          "name": "userAddress",
          "type": "address"
        },
        {
          "indexed": false,
          "internalType": "string",
          "name": "policyTokenName",
          "type": "string"
        },
        {
          "indexed": false,
          "internalType": "address",
          "name": "stablecoin",
          "type": "address"
        },
        {
          "indexed": false,
          "internalType": "uint256",
          "name": "amount",
          "type": "uint256"
        }
      ],
      "name": "Redeem",
      "type": "event"
    },
    {
      "anonymous": false,
      "inputs": [
        {
          "indexed": false,
          "internalType": "address",
          "name": "userAddress",
          "type": "address"
        },
        {
          "indexed": false,
          "internalType": "string",
          "name": "policyTokenName",
          "type": "string"
        },
        {
          "indexed": false,
          "internalType": "address",
          "name": "stablecoin",
          "type": "address"
        },
        {
          "indexed": false,
          "internalType": "uint256",
          "name": "amount",
          "type": "uint256"
        }
      ],
      "name": "RedeemAfterSettlement",
      "type": "event"
    },
    {
      "inputs": [],
      "name": "ILMContract",
      "outputs": [
        {
          "internalType": "address",
          "name": "",
          "type": "address"
        }
      ],
      "stateMutability": "view",
      "type": "function"
    },
    {
      "inputs": [
        {
          "internalType": "string",
          "name": "_tokenName",
          "type": "string"
        },
        {
          "internalType": "uint256",
          "name": "_decimals",
          "type": "uint256"
        },
        {
          "internalType": "uint256",
          "name": "_strikePrice",
          "type": "uint256"
        },
        {
          "internalType": "bool",
          "name": "_isCall",
          "type": "bool"
        },
        {
          "internalType": "string",
          "name": "_round",
          "type": "string"
        }
      ],
      "name": "_generateName",
      "outputs": [
        {
          "internalType": "string",
          "name": "",
          "type": "string"
        }
      ],
      "stateMutability": "pure",
      "type": "function"
    },
    {
      "inputs": [
        {
          "internalType": "address",
          "name": "_newStablecoin",
          "type": "address"
        }
      ],
      "name": "addStablecoin",
      "outputs": [],
      "stateMutability": "nonpayable",
      "type": "function"
    },
    {
      "inputs": [
        {
          "internalType": "address",
          "name": "",
          "type": "address"
        },
        {
          "internalType": "uint256",
          "name": "",
          "type": "uint256"
        }
      ],
      "name": "allDepositors",
      "outputs": [
        {
          "internalType": "address",
          "name": "",
          "type": "address"
        }
      ],
      "stateMutability": "view",
      "type": "function"
    },
    {
      "inputs": [
        {
          "internalType": "uint256",
          "name": "",
          "type": "uint256"
        }
      ],
      "name": "allPolicyTokens",
      "outputs": [
        {
          "internalType": "string",
          "name": "",
          "type": "string"
        }
      ],
      "stateMutability": "view",
      "type": "function"
    },
    {
      "inputs": [
        {
          "internalType": "string",
          "name": "_policyTokenName",
          "type": "string"
        },
        {
          "internalType": "address",
          "name": "_stablecoin",
          "type": "address"
        },
        {
          "internalType": "uint256",
          "name": "_amount",
          "type": "uint256"
        }
      ],
      "name": "claim",
      "outputs": [],
      "stateMutability": "nonpayable",
      "type": "function"
    },
    {
      "inputs": [
        {
          "internalType": "address",
          "name": "_stablecoin",
          "type": "address"
        }
      ],
      "name": "collectIncome",
      "outputs": [],
      "stateMutability": "nonpayable",
      "type": "function"
    },
    {
      "inputs": [
        {
          "internalType": "string",
          "name": "_policyTokenName",
          "type": "string"
        },
        {
          "internalType": "address",
          "name": "_stablecoin",
          "type": "address"
        },
        {
          "internalType": "uint256",
          "name": "_amount",
          "type": "uint256"
        },
        {
          "internalType": "address",
          "name": "_user",
          "type": "address"
        }
      ],
      "name": "delegateDeposit",
      "outputs": [],
      "stateMutability": "nonpayable",
      "type": "function"
    },
    {
      "inputs": [
        {
          "internalType": "string",
          "name": "_tokenName",
          "type": "string"
        },
        {
          "internalType": "address",
          "name": "_stablecoin",
          "type": "address"
        },
        {
          "internalType": "bool",
          "name": "_isCall",
          "type": "bool"
        },
        {
          "internalType": "uint256",
          "name": "_nameDecimals",
          "type": "uint256"
        },
        {
          "internalType": "uint256",
          "name": "_tokenDecimals",
          "type": "uint256"
        },
        {
          "internalType": "uint256",
          "name": "_strikePrice",
          "type": "uint256"
        },
        {
          "internalType": "string",
          "name": "_round",
          "type": "string"
        },
        {
          "internalType": "uint256",
          "name": "_deadline",
          "type": "uint256"
        },
        {
          "internalType": "uint256",
          "name": "_settleTimestamp",
          "type": "uint256"
        }
      ],
      "name": "deployPolicyToken",
      "outputs": [],
      "stateMutability": "nonpayable",
      "type": "function"
    },
    {
      "inputs": [
        {
          "internalType": "string",
          "name": "_policyTokenName",
          "type": "string"
        },
        {
          "internalType": "address",
          "name": "_stablecoin",
          "type": "address"
        },
        {
          "internalType": "uint256",
          "name": "_poolDeadline",
          "type": "uint256"
        },
        {
          "internalType": "uint256",
          "name": "_feeRate",
          "type": "uint256"
        }
      ],
      "name": "deployPool",
      "outputs": [
        {
          "internalType": "address",
          "name": "",
          "type": "address"
        }
      ],
      "stateMutability": "nonpayable",
      "type": "function"
    },
    {
      "inputs": [
        {
          "internalType": "string",
          "name": "_policyTokenName",
          "type": "string"
        },
        {
          "internalType": "address",
          "name": "_stablecoin",
          "type": "address"
        },
        {
          "internalType": "uint256",
          "name": "_amount",
          "type": "uint256"
        }
      ],
      "name": "deposit",
      "outputs": [],
      "stateMutability": "nonpayable",
      "type": "function"
    },
    {
      "inputs": [],
      "name": "factory",
      "outputs": [
        {
          "internalType": "contract INaughtyFactory",
          "name": "",
          "type": "address"
        }
      ],
      "stateMutability": "view",
      "type": "function"
    },
    {
      "inputs": [
        {
          "internalType": "string",
          "name": "_policyTokenName",
          "type": "string"
        }
      ],
      "name": "findAddressbyName",
      "outputs": [
        {
          "internalType": "address",
          "name": "policyTokenAddress",
          "type": "address"
        }
      ],
      "stateMutability": "view",
      "type": "function"
    },
    {
      "inputs": [
        {
          "internalType": "address",
          "name": "_policyTokenAddress",
          "type": "address"
        }
      ],
      "name": "findNamebyAddress",
      "outputs": [
        {
          "internalType": "string",
          "name": "policyTokenName",
          "type": "string"
        }
      ],
      "stateMutability": "view",
      "type": "function"
    },
    {
      "inputs": [],
      "name": "getAllTokens",
      "outputs": [
        {
          "components": [
            {
              "internalType": "address",
              "name": "policyTokenAddress",
              "type": "address"
            },
            {
              "internalType": "bool",
              "name": "isCall",
              "type": "bool"
            },
            {
              "internalType": "uint256",
              "name": "nameDecimals",
              "type": "uint256"
            },
            {
              "internalType": "uint256",
              "name": "tokenDecimals",
              "type": "uint256"
            },
            {
              "internalType": "uint256",
              "name": "strikePrice",
              "type": "uint256"
            },
            {
              "internalType": "uint256",
              "name": "deadline",
              "type": "uint256"
            },
            {
              "internalType": "uint256",
              "name": "settleTimestamp",
              "type": "uint256"
            }
          ],
          "internalType": "struct PolicyCore.PolicyTokenInfo[]",
          "name": "",
          "type": "tuple[]"
        }
      ],
      "stateMutability": "view",
      "type": "function"
    },
    {
      "inputs": [
        {
          "internalType": "string",
          "name": "_policyTokenName",
          "type": "string"
        }
      ],
      "name": "getPolicyTokenInfo",
      "outputs": [
        {
          "components": [
            {
              "internalType": "address",
              "name": "policyTokenAddress",
              "type": "address"
            },
            {
              "internalType": "bool",
              "name": "isCall",
              "type": "bool"
            },
            {
              "internalType": "uint256",
              "name": "nameDecimals",
              "type": "uint256"
            },
            {
              "internalType": "uint256",
              "name": "tokenDecimals",
              "type": "uint256"
            },
            {
              "internalType": "uint256",
              "name": "strikePrice",
              "type": "uint256"
            },
            {
              "internalType": "uint256",
              "name": "deadline",
              "type": "uint256"
            },
            {
              "internalType": "uint256",
              "name": "settleTimestamp",
              "type": "uint256"
            }
          ],
          "internalType": "struct PolicyCore.PolicyTokenInfo",
          "name": "",
          "type": "tuple"
        }
      ],
      "stateMutability": "view",
      "type": "function"
    },
    {
      "inputs": [
        {
          "internalType": "address",
          "name": "_user",
          "type": "address"
        },
        {
          "internalType": "address",
          "name": "_policyTokenAddress",
          "type": "address"
        }
      ],
      "name": "getUserQuota",
      "outputs": [
        {
          "internalType": "uint256",
          "name": "_quota",
          "type": "uint256"
        }
      ],
      "stateMutability": "view",
      "type": "function"
    },
    {
      "inputs": [],
      "name": "incomeSharing",
      "outputs": [
        {
          "internalType": "address",
          "name": "",
          "type": "address"
        }
      ],
      "stateMutability": "view",
      "type": "function"
    },
    {
      "inputs": [
        {
          "internalType": "address",
          "name": "_usdc",
          "type": "address"
        },
        {
          "internalType": "address",
          "name": "_factory",
          "type": "address"
        },
        {
          "internalType": "address",
          "name": "_priceGetter",
          "type": "address"
        }
      ],
      "name": "initialize",
      "outputs": [],
      "stateMutability": "nonpayable",
      "type": "function"
    },
    {
      "inputs": [],
      "name": "lottery",
      "outputs": [
        {
          "internalType": "address",
          "name": "",
          "type": "address"
        }
      ],
      "stateMutability": "view",
      "type": "function"
    },
    {
      "inputs": [],
      "name": "naughtyRouter",
      "outputs": [
        {
          "internalType": "address",
          "name": "",
          "type": "address"
        }
      ],
      "stateMutability": "view",
      "type": "function"
    },
    {
      "inputs": [],
      "name": "owner",
      "outputs": [
        {
          "internalType": "address",
          "name": "",
          "type": "address"
        }
      ],
      "stateMutability": "view",
      "type": "function"
    },
    {
      "inputs": [
        {
          "internalType": "address",
          "name": "",
          "type": "address"
        }
      ],
      "name": "pendingIncomeToLottery",
      "outputs": [
        {
          "internalType": "uint256",
          "name": "",
          "type": "uint256"
        }
      ],
      "stateMutability": "view",
      "type": "function"
    },
    {
      "inputs": [
        {
          "internalType": "address",
          "name": "",
          "type": "address"
        }
      ],
      "name": "pendingIncomeToSharing",
      "outputs": [
        {
          "internalType": "uint256",
          "name": "",
          "type": "uint256"
        }
      ],
      "stateMutability": "view",
      "type": "function"
    },
    {
      "inputs": [
        {
          "internalType": "address",
          "name": "",
          "type": "address"
        }
      ],
      "name": "policyTokenAddressToName",
      "outputs": [
        {
          "internalType": "string",
          "name": "",
          "type": "string"
        }
      ],
      "stateMutability": "view",
      "type": "function"
    },
    {
      "inputs": [
        {
          "internalType": "string",
          "name": "",
          "type": "string"
        }
      ],
      "name": "policyTokenInfoMapping",
      "outputs": [
        {
          "internalType": "address",
          "name": "policyTokenAddress",
          "type": "address"
        },
        {
          "internalType": "bool",
          "name": "isCall",
          "type": "bool"
        },
        {
          "internalType": "uint256",
          "name": "nameDecimals",
          "type": "uint256"
        },
        {
          "internalType": "uint256",
          "name": "tokenDecimals",
          "type": "uint256"
        },
        {
          "internalType": "uint256",
          "name": "strikePrice",
          "type": "uint256"
        },
        {
          "internalType": "uint256",
          "name": "deadline",
          "type": "uint256"
        },
        {
          "internalType": "uint256",
          "name": "settleTimestamp",
          "type": "uint256"
        }
      ],
      "stateMutability": "view",
      "type": "function"
    },
    {
      "inputs": [],
      "name": "priceGetter",
      "outputs": [
        {
          "internalType": "contract IPriceGetter",
          "name": "",
          "type": "address"
        }
      ],
      "stateMutability": "view",
      "type": "function"
    },
    {
      "inputs": [
        {
          "internalType": "string",
          "name": "_policyTokenName",
          "type": "string"
        },
        {
          "internalType": "address",
          "name": "_stablecoin",
          "type": "address"
        },
        {
          "internalType": "uint256",
          "name": "_amount",
          "type": "uint256"
        }
      ],
      "name": "redeem",
      "outputs": [],
      "stateMutability": "nonpayable",
      "type": "function"
    },
    {
      "inputs": [
        {
          "internalType": "string",
          "name": "_policyTokenName",
          "type": "string"
        },
        {
          "internalType": "address",
          "name": "_stablecoin",
          "type": "address"
        }
      ],
      "name": "redeemAfterSettlement",
      "outputs": [],
      "stateMutability": "nonpayable",
      "type": "function"
    },
    {
      "inputs": [],
      "name": "renounceOwnership",
      "outputs": [],
      "stateMutability": "nonpayable",
      "type": "function"
    },
    {
      "inputs": [
        {
          "internalType": "address",
          "name": "_ILM",
          "type": "address"
        }
      ],
      "name": "setILMContract",
      "outputs": [],
      "stateMutability": "nonpayable",
      "type": "function"
    },
    {
      "inputs": [
        {
          "internalType": "address",
          "name": "_incomeSharing",
          "type": "address"
        }
      ],
      "name": "setIncomeSharing",
      "outputs": [],
      "stateMutability": "nonpayable",
      "type": "function"
    },
    {
      "inputs": [
        {
          "internalType": "uint256",
          "name": "_toLottery",
          "type": "uint256"
        }
      ],
      "name": "setIncomeToLottery",
      "outputs": [],
      "stateMutability": "nonpayable",
      "type": "function"
    },
    {
      "inputs": [
        {
          "internalType": "address",
          "name": "_lotteryAddress",
          "type": "address"
        }
      ],
      "name": "setLottery",
      "outputs": [],
      "stateMutability": "nonpayable",
      "type": "function"
    },
    {
      "inputs": [
        {
          "internalType": "address",
          "name": "_router",
          "type": "address"
        }
      ],
      "name": "setNaughtyRouter",
      "outputs": [],
      "stateMutability": "nonpayable",
      "type": "function"
    },
    {
      "inputs": [
        {
          "internalType": "string",
          "name": "_policyTokenName",
          "type": "string"
        },
        {
          "internalType": "address",
          "name": "_stablecoin",
          "type": "address"
        },
        {
          "internalType": "uint256",
          "name": "_startIndex",
          "type": "uint256"
        },
        {
          "internalType": "uint256",
          "name": "_stopIndex",
          "type": "uint256"
        }
      ],
      "name": "settleAllPolicyTokens",
      "outputs": [],
      "stateMutability": "nonpayable",
      "type": "function"
    },
    {
      "inputs": [
        {
          "internalType": "string",
          "name": "_policyTokenName",
          "type": "string"
        }
      ],
      "name": "settleFinalResult",
      "outputs": [],
      "stateMutability": "nonpayable",
      "type": "function"
    },
    {
      "inputs": [
        {
          "internalType": "address",
          "name": "",
          "type": "address"
        }
      ],
      "name": "settleResult",
      "outputs": [
        {
          "internalType": "uint256",
          "name": "price",
          "type": "uint256"
        },
        {
          "internalType": "bool",
          "name": "isHappened",
          "type": "bool"
        },
        {
          "internalType": "bool",
          "name": "alreadySettled",
          "type": "bool"
        },
        {
          "internalType": "uint256",
          "name": "currentDistributionIndex",
          "type": "uint256"
        }
      ],
      "stateMutability": "view",
      "type": "function"
    },
    {
      "inputs": [
        {
          "internalType": "address",
          "name": "",
          "type": "address"
        }
      ],
      "name": "supportedStablecoin",
      "outputs": [
        {
          "internalType": "bool",
          "name": "",
          "type": "bool"
        }
      ],
      "stateMutability": "view",
      "type": "function"
    },
    {
      "inputs": [],
      "name": "toLotteryPart",
      "outputs": [
        {
          "internalType": "uint256",
          "name": "",
          "type": "uint256"
        }
      ],
      "stateMutability": "view",
      "type": "function"
    },
    {
      "inputs": [
        {
          "internalType": "address",
          "name": "newOwner",
          "type": "address"
        }
      ],
      "name": "transferOwnership",
      "outputs": [],
      "stateMutability": "nonpayable",
      "type": "function"
    },
    {
      "inputs": [
        {
          "internalType": "address",
          "name": "",
          "type": "address"
        }
      ],
      "name": "whichStablecoin",
      "outputs": [
        {
          "internalType": "address",
          "name": "",
          "type": "address"
        }
      ],
      "stateMutability": "view",
      "type": "function"
    }
  ],
  "transactionHash": "0x88fe56788752cda7889b2d5de230b9e824d586ba6bc3e9f4f24294dd7646a209",
  "args": [],
  "numDeployments": 2,
  "solcInputHash": "72b7f0490db2bcc4f5ef997773e49f91",
  "bytecode": "0x608060405234801561001057600080fd5b506148bc806100206000396000f3fe608060405234801561001057600080fd5b50600436106102de5760003560e01c80638da5cb5b11610186578063c49df4bf116100e3578063e625123711610097578063f15cac3411610071578063f15cac3414610709578063f298083b1461071c578063f2fde38b1461072f57600080fd5b8063e6251237146106d0578063eb9132dd146106e3578063f10cffbd146106f657600080fd5b8063d700e89f116100c8578063d700e89f1461066e578063d9e85c8414610677578063da1428071461069757600080fd5b8063c49df4bf14610648578063ceed1b901461065b57600080fd5b8063bb9febaf1161013a578063be3f34a11161011f578063be3f34a114610602578063c0c53b8b14610615578063c45a01551461062857600080fd5b8063bb9febaf146105dc578063bdc2b166146105ef57600080fd5b8063a815a2211161016b578063a815a22114610596578063a8e577e3146105a9578063ba13a572146105c957600080fd5b80638da5cb5b1461057257806394567d4e1461058357600080fd5b80632a5c792a1161023f5780635cb3b14f116101f35780636978531a116101cd5780636978531a14610544578063715018a6146105575780637336c38d1461055f57600080fd5b80635cb3b14f146104d85780635e49b5de146105085780635eb1877e1461051b57600080fd5b806339f677381161022457806339f67738146104415780634c330fbc146104b25780634e75ce89146104c557600080fd5b80632a5c792a1461041957806338081de21461042e57600080fd5b80631306c0a5116102965780631ee08fa11161027b5780631ee08fa1146103a7578063210123e5146103f35780632a48ac9a1461040657600080fd5b80631306c0a51461037457806318dd152f1461039457600080fd5b806307962845116102c7578063079628451461030b57806308d89d5f146103415780630dc726471461035457600080fd5b806303844097146102e35780630418945a146102f8575b600080fd5b6102f66102f1366004612ec6565b610742565b005b6102f6610306366004612f31565b610a71565b61032b610319366004612f31565b60756020526000908152604090205481565b6040516103389190612f5a565b60405180910390f35b6102f661034f366004612f79565b610af9565b610367610362366004612fe3565b610ccf565b6040516103389190613062565b610387610382366004613073565b610d7b565b60405161033891906130b9565b6103676103a2366004612f31565b610db3565b6103e36103b5366004612f31565b607460205260009081526040902080546001820154600290920154909160ff80821692610100909204169084565b60405161033894939291906130cf565b6102f6610401366004612f31565b610dcc565b6102f6610414366004612f79565b610e5f565b610421610f28565b60405161033891906131e0565b61036761043c366004612f31565b6110a5565b61049f61044f366004612ec6565b8051602081830181018051606c825292820191909301209152805460018201546002830154600384015460048501546005909501546001600160a01b03851695600160a01b90950460ff16949087565b60405161033897969594939291906131f1565b6102f66104c0366004612f31565b611172565b6103876104d3366004612ec6565b611205565b6104fb6104e6366004612f31565b606f6020526000908152604090205460ff1681565b6040516103389190613259565b6102f661051636600461327a565b61124f565b610387610529366004612f31565b6070602052600090815260409020546001600160a01b031681565b606a54610387906001600160a01b031681565b6102f66115be565b6102f661056d366004612f79565b6115f4565b6033546001600160a01b0316610387565b606854610387906001600160a01b031681565b6102f66105a4366004612f31565b6117ca565b61032b6105b7366004612f31565b60766020526000908152604090205481565b606754610387906001600160a01b031681565b6103876105ea366004613376565b61185d565b6102f66105fd366004612fe3565b6119f0565b6102f6610610366004612f31565b611a7b565b6102f66106233660046133f4565b611b67565b60655461063b906001600160a01b031681565b604051610338919061347c565b6102f661065636600461348a565b611c35565b60665461063b906001600160a01b031681565b61032b606b5481565b61068a610685366004612ec6565b611e37565b60405161033891906134d7565b61032b6106a53660046134e5565b6001600160a01b03918216600090815260726020908152604080832093909416825291909152205490565b606954610387906001600160a01b031681565b6102f66106f1366004613376565b611f05565b610367610704366004613507565b61216e565b6102f66107173660046135b4565b6122d6565b6102f661072a366004612f31565b612409565b6102f661073d366004612f31565b61249c565b806000606c826040516107559190613648565b9081526020016040518091039020600501549050804210156107925760405162461bcd60e51b8152600401610789906136ac565b60405180910390fd5b82600061079e82611205565b6001600160a01b038116600090815260746020526040902060010154909150610100900460ff16156107e25760405162461bcd60e51b815260040161078990613714565b60006107ed86611205565b6001600160a01b0381166000908152607460209081526040808320607190925282208054939450909261081f9061373a565b80601f016020809104026020016040519081016040528092919081815260200182805461084b9061373a565b80156108985780601f1061086d57610100808354040283529160200191610898565b820191906000526020600020905b81548152906001019060200180831161087b57829003601f168201915b50506066546040517ff66a1b710000000000000000000000000000000000000000000000000000000081529495506000946001600160a01b03909116935063f66a1b7192506108ec91508590600401613062565b6020604051808303816000875af115801561090b573d6000803e3d6000fd5b505050506040513d601f19601f8201168201806040525081019061092f9190613771565b60018401805461ff001916610100179055808455604051909150600090606c9061095a908c90613648565b908152604080516020928190038301812060e08201835280546001600160a01b0381168352600160a01b900460ff1615159382019390935260018301549181019190915260028201546060820152600382015460808201819052600483015460a083015260059092015460c0820152915060009083108015906109de575081602001515b90506000826080015184111580156109f857508260200151155b905060008280610a055750815b610a10576000610a13565b60015b60018801805460ff19168215151790556040519091507f4f7bb4bf5b5d9e711ae7506fc1acd843eea9f216861a09c312fefb7e05095a3690610a5a908f9088908590613792565b60405180910390a150505050505050505050505050565b6033546001600160a01b03163314610a9b5760405162461bcd60e51b8152600401610789906137ef565b6001600160a01b0381166000908152606f602052604090819020805460ff19166001179055517f86b377b6d485043d4a8b2b0c26051f82529ea2d7c23b1188598416473c12309390610aee9083906130b9565b60405180910390a150565b826000606c82604051610b0c9190613648565b908152602001604051809103902060050154905080421015610b405760405162461bcd60e51b8152600401610789906136ac565b84846000610b4d83611205565b6001600160a01b03818116600090815260706020526040902054919250838116911614610b8c5760405162461bcd60e51b815260040161078990613857565b6000610b9789611205565b6001600160a01b03811660009081526074602090815260409182902082516080810184528154808252600183015460ff80821615159584019590955261010090049093161515938101939093526002015460608301529192509015801590610c00575080604001515b610c1c5760405162461bcd60e51b815260040161078990613899565b8060200151610c3d5760405162461bcd60e51b815260040161078990613901565b6000610c498a8a6124f8565b9050610c5f6001600160a01b038b1633836125b6565b604051632770a7eb60e21b815283906001600160a01b03821690639dc29fac90610c8f9033908e90600401613911565b600060405180830381600087803b158015610ca957600080fd5b505af1158015610cbd573d6000803e3d6000fd5b50505050505050505050505050505050565b606e8181548110610cdf57600080fd5b906000526020600020016000915090508054610cfa9061373a565b80601f0160208091040260200160405190810160405280929190818152602001828054610d269061373a565b8015610d735780601f10610d4857610100808354040283529160200191610d73565b820191906000526020600020905b815481529060010190602001808311610d5657829003601f168201915b505050505081565b60736020528160005260406000208181548110610d9757600080fd5b6000918252602090912001546001600160a01b03169150829050565b606d6020526000908152604090208054610cfa9061373a565b6033546001600160a01b03163314610df65760405162461bcd60e51b8152600401610789906137ef565b6068546040517ff4b601aa15ee1d2340ac8d1e8f1ddf16fe98866801b5c057bec51086aa6d750291610e35916001600160a01b0390911690849061392c565b60405180910390a1606880546001600160a01b0319166001600160a01b0392909216919091179055565b826000606c82604051610e729190613648565b908152602001604051809103902060040154905080421115610ea65760405162461bcd60e51b81526004016107899061399f565b84846000610eb383611205565b6001600160a01b03818116600090815260706020526040902054919250838116911614610ef25760405162461bcd60e51b815260040161078990613857565b60008611610f125760405162461bcd60e51b8152600401610789906139e1565b610f1e8888883361263e565b5050505050505050565b606e5460609060008167ffffffffffffffff811115610f4957610f49612dd0565b604051908082528060200260200182016040528015610fc557816020015b610fb26040518060e0016040528060006001600160a01b0316815260200160001515815260200160008152602001600081526020016000815260200160008152602001600081525090565b815260200190600190039081610f675790505b50905060005b8281101561109e57606c606e8281548110610fe857610fe86139f1565b90600052602060002001604051610fff9190613a75565b90815260408051918290036020908101832060e08401835280546001600160a01b038116855260ff600160a01b909104161515918401919091526001810154918301919091526002810154606083015260038101546080830152600481015460a08301526005015460c08201528251839083908110611080576110806139f1565b6020026020010181905250808061109690613a95565b915050610fcb565b5092915050565b6001600160a01b0381166000908152606d602052604090208054606091906110cc9061373a565b80601f01602080910402602001604051908101604052809291908181526020018280546110f89061373a565b80156111455780601f1061111a57610100808354040283529160200191611145565b820191906000526020600020905b81548152906001019060200180831161112857829003601f168201915b50505050509050600081511161116d5760405162461bcd60e51b815260040161078990613ae0565b919050565b6033546001600160a01b0316331461119c5760405162461bcd60e51b8152600401610789906137ef565b606a546040517f5a1397fff7d6f4aaebc9effcfc3a2fa8e89631d59ec574c1eaef6d709b5c9ab0916111db916001600160a01b0390911690849061392c565b60405180910390a1606a80546001600160a01b0319166001600160a01b0392909216919091179055565b6000606c826040516112179190613648565b908152604051908190036020019020546001600160a01b031690508061116d5760405162461bcd60e51b815260040161078990613b22565b6033546001600160a01b031633146112795760405162461bcd60e51b8152600401610789906137ef565b6012861115801561128b575060128511155b6112a75760405162461bcd60e51b815260040161078990613b64565b84886001600160a01b031663313ce5676040518163ffffffff1660e01b8152600401602060405180830381865afa1580156112e6573d6000803e3d6000fd5b505050506040513d601f19601f8201168201806040525081019061130a9190613b88565b60ff161461132a5760405162461bcd60e51b815260040161078990613bdb565b4282116113495760405162461bcd60e51b815260040161078990613c1d565b818110156113695760405162461bcd60e51b815260040161078990613c5f565b60006113788a88878b8861216e565b6065546040517f87f0061a0000000000000000000000000000000000000000000000000000000081529192506000916001600160a01b03909116906387f0061a906113c99085908b90600401613c6f565b6020604051808303816000875af11580156113e8573d6000803e3d6000fd5b505050506040513d601f19601f8201168201806040525081019061140c9190613c9a565b90506040518060e00160405280826001600160a01b031681526020018a1515815260200189815260200188815260200187815260200185815260200184815250606c8360405161145c9190613648565b9081526040805191829003602090810190922083518154858501511515600160a01b027fffffffffffffffffffffff0000000000000000000000000000000000000000009091166001600160a01b0392831617178255848301516001830155606085015160028301556080850151600383015560a0850151600483015560c090940151600590910155918316600090815260718252919091208c51611503928e0190612d37565b506001600160a01b0381166000908152606d60209081526040909120835161152d92850190612d37565b50606e80546001810182556000919091528251611571917f9930d9ff0dee0ef5ca2f7710ea66b8f84dd0f5f5351ecffe72b952cd9db7142a01906020850190612d37565b507f5c781be7034983eed256e8250b1df5111e452c6dd41a3e415bdeda1cac92348882828987876040516115a9959493929190613cbb565b60405180910390a15050505050505050505050565b6033546001600160a01b031633146115e85760405162461bcd60e51b8152600401610789906137ef565b6115f260006127ca565b565b826000606c826040516116079190613648565b90815260200160405180910390206004015490508042111561163b5760405162461bcd60e51b81526004016107899061399f565b8484600061164883611205565b6001600160a01b038181166000908152607060205260409020549192508381169116146116875760405162461bcd60e51b815260040161078990613857565b600061169289611205565b3360009081526072602090815260408083206001600160a01b03851684529091529020549091508711156116d85760405162461bcd60e51b815260040161078990613d3e565b3360009081526072602090815260408083206001600160a01b03851684529091528120805489929061170b908490613d4e565b909155506000905061171d89896124f8565b90506117336001600160a01b038a1633836125b6565b604051632770a7eb60e21b815282906001600160a01b03821690639dc29fac906117639033908d90600401613911565b600060405180830381600087803b15801561177d57600080fd5b505af1158015611791573d6000803e3d6000fd5b505050507fae452465b27fa0406f99c961c3bbf8215e6dabe24c0da5dd5981206d9038500a338c8c8c6040516115a99493929190613d65565b6033546001600160a01b031633146117f45760405162461bcd60e51b8152600401610789906137ef565b6069546040517f991cc531d0c7ce0a4a8db8a26f722bbbe727c8f45445520fa447050bb313457f91611833916001600160a01b0390911690849061392c565b60405180910390a1606980546001600160a01b0319166001600160a01b0392909216919091179055565b6001600160a01b0383166000908152606f6020526040812054849060ff16151560011461189c5760405162461bcd60e51b815260040161078990613dec565b8560006001600160a01b0316606c826040516118b89190613648565b908152604051908190036020019020546001600160a01b0316036118ee5760405162461bcd60e51b815260040161078990613e54565b6033546001600160a01b03163314806119115750606a546001600160a01b031633145b61192d5760405162461bcd60e51b815260040161078990613e96565b42851161194c5760405162461bcd60e51b815260040161078990613c1d565b606c8760405161195c9190613648565b908152602001604051809103902060040154851461198c5760405162461bcd60e51b815260040161078990613efe565b600061199788611205565b905060006119a78289898961281c565b90507f04c12766244f2559dd215eecd69f70fdfce0e2c2260b5d52cb8b63738622eaa481838a6040516119dc93929190613f0e565b60405180910390a198975050505050505050565b6033546001600160a01b03163314611a1a5760405162461bcd60e51b8152600401610789906137ef565b600a811115611a3b5760405162461bcd60e51b815260040161078990613f68565b7f5102efe34236afea4a39241911bce7d2001cd809276c20be9dceb33a59c13cc6606b5482604051611a6e929190613f78565b60405180910390a1606b55565b6067546001600160a01b031615801590611a9f57506068546001600160a01b031615155b611abb5760405162461bcd60e51b815260040161078990613fde565b6001600160a01b03811660009081526075602090815260408083205460769092529091205481151580611aee5750600081115b611b0a5760405162461bcd60e51b815260040161078990614020565b606754611b24906001600160a01b038581169116846125b6565b606854611b3e906001600160a01b038581169116836125b6565b50506001600160a01b031660009081526075602090815260408083208390556076909152812055565b600054610100900460ff16611b825760005460ff1615611b86565b303b155b611ba25760405162461bcd60e51b815260040161078990614088565b600054610100900460ff16158015611bc4576000805461ffff19166101011790555b611bcc6128ed565b6001600160a01b038085166000908152606f60205260409020805460ff19166001179055606580548583166001600160a01b03199182161790915560668054928516929091169190911790556002606b558015611c2f576000805461ff00191690555b50505050565b816000606c82604051611c489190613648565b908152602001604051809103902060050154905080421015611c7c5760405162461bcd60e51b8152600401610789906136ac565b83836000611c8983611205565b6001600160a01b03818116600090815260706020526040902054919250838116911614611cc85760405162461bcd60e51b815260040161078990613857565b6000611cd388611205565b6001600160a01b03811660009081526074602090815260409182902082516080810184528154808252600183015460ff80821615159584019590955261010090049093161515938101939093526002015460608301529192509015801590611d3c575080604001515b611d585760405162461bcd60e51b815260040161078990613899565b602081015115611d7a5760405162461bcd60e51b8152600401610789906140f0565b3360009081526072602090815260408083206001600160a01b038616845290915290205480611dbb5760405162461bcd60e51b815260040161078990614158565b6000611dc78a836124f8565b9050611ddd6001600160a01b038b1633836125b6565b3360008181526072602090815260408083206001600160a01b038916845290915280822091909155517f03562b7020b16271daf63f8af4dfad66194d3a83359909327c31983326b1287f916115a9918e908e908690613d65565b611e826040518060e0016040528060006001600160a01b0316815260200160001515815260200160008152602001600081526020016000815260200160008152602001600081525090565b606c82604051611e929190613648565b90815260408051918290036020908101832060e08401835280546001600160a01b038116855260ff600160a01b909104161515918401919091526001810154918301919091526002810154606083015260038101546080830152600481015460a08301526005015460c082015292915050565b6033546001600160a01b03163314611f2f5760405162461bcd60e51b8152600401610789906137ef565b6000611f3a85611205565b6001600160a01b03811660009081526074602090815260409182902082516080810184528154808252600183015460ff80821615159584019590955261010090049093161515938101939093526002015460608301529192509015801590611fa85750604081015115156001145b611fc45760405162461bcd60e51b815260040161078990613899565b602081015115611fe65760405162461bcd60e51b8152600401610789906140f0565b6001600160a01b03821660009081526073602052604081205460608301518110156120235760405162461bcd60e51b81526004016107899061419a565b8515801561202f575084155b156120ad57612041848860008461291c565b61204b90836141aa565b6001600160a01b038516600090815260746020526040808220600201849055519193507fb882f84541d4c34087dd3a3971b96ad170bc52a7907def174bb86f986bce6e2c916120a0918b918b919086906141d7565b60405180910390a1610f1e565b858360600151146120d05760405162461bcd60e51b81526004016107899061425c565b8085106120ef5760405162461bcd60e51b81526004016107899061429e565b6120fb8488888861291c565b61210590836141aa565b6001600160a01b03851660009081526074602052604090819020600201879055519092507fb882f84541d4c34087dd3a3971b96ad170bc52a7907def174bb86f986bce6e2c9061215c908a908a908a908a906142ae565b60405180910390a15050505050505050565b60606000836121b2576040518060400160405280600181526020017f4c000000000000000000000000000000000000000000000000000000000000008152506121e9565b6040518060400160405280600181526020017f48000000000000000000000000000000000000000000000000000000000000008152505b905060006121ff670de0b6b3a7640000876142f1565b9050600081116122215760405162461bcd60e51b815260040161078990614337565b600061222e886012613d4e565b61223990600a614455565b61224d90670de0b6b3a764000089066142f1565b90506002881061228b57612262600189613d4e565b61226d90600a614455565b811161228b5760405162461bcd60e51b815260040161078990614496565b60008961229784612a17565b6122a084612a17565b86896040516020016122b69594939291906144f8565b60408051601f198184030181529190529450505050505b95945050505050565b836000606c826040516122e99190613648565b90815260200160405180910390206004015490508042111561231d5760405162461bcd60e51b81526004016107899061399f565b8585600061232a83611205565b6001600160a01b038181166000908152607060205260409020549192508381169116146123695760405162461bcd60e51b815260040161078990613857565b6069546001600160a01b031633146123935760405162461bcd60e51b8152600401610789906145b6565b600087116123b35760405162461bcd60e51b8152600401610789906139e1565b6123bf8989898961263e565b7f99f877ebe25ff1544a89db7db58d9d0b180af2288344cf1792272a4a07fd7c9933878b8b8b6040516123f69594939291906145c6565b60405180910390a1505050505050505050565b6033546001600160a01b031633146124335760405162461bcd60e51b8152600401610789906137ef565b6067546040517f5bbcd5c9a4c18f44ac2b1174e1034735fda1eb2008b8cc091ef347c7f6b9690a91612472916001600160a01b0390911690849061392c565b60405180910390a1606780546001600160a01b0319166001600160a01b0392909216919091179055565b6033546001600160a01b031633146124c65760405162461bcd60e51b8152600401610789906137ef565b6001600160a01b0381166124ec5760405162461bcd60e51b81526004016107899061465a565b6124f5816127ca565b50565b6000806103e861250a846103de61466a565b61251491906142f1565b905060006125228285613d4e565b90506000600a606b5483612536919061466a565b61254091906142f1565b6001600160a01b03871660009081526075602052604081208054929350839290919061256d9084906141aa565b9091555061257d90508183613d4e565b6001600160a01b038716600090815260766020526040812080549091906125a59084906141aa565b909155509293505050505b92915050565b6126398363a9059cbb60e01b84846040516024016125d5929190613911565b60408051601f198184030181529190526020810180517bffffffffffffffffffffffffffffffffffffffffffffffffffffffff167fffffffff0000000000000000000000000000000000000000000000000000000090931692909217909152612b4c565b505050565b600061264985611205565b6001600160a01b038084166000908152607260209081526040808320938516835292905290812054919250036126b8576001600160a01b0381811660009081526073602090815260408220805460018101825590835291200180546001600160a01b0319169184169190911790555b6001600160a01b038083166000908152607260209081526040808320938516835292905290812080548592906126ef9084906141aa565b9091555061270a90506001600160a01b038516833086612bdb565b6040517f40c10f1900000000000000000000000000000000000000000000000000000000815281906001600160a01b038216906340c10f19906127539086908890600401613911565b600060405180830381600087803b15801561276d57600080fd5b505af1158015612781573d6000803e3d6000fd5b505050507faad69ef0c77f7c04ba3390022ae56a77ba8686b6cd9530eff3a0a8c38d33e5ad838787876040516127ba9493929190613d65565b60405180910390a1505050505050565b603380546001600160a01b038381166001600160a01b0319831681179093556040519116919082907f8be0079c531659141344cd1fd0a4f28419497f9722a3daafe3b4186f6b6457e090600090a35050565b6065546040517f3a5f69f800000000000000000000000000000000000000000000000000000000815260009182916001600160a01b0390911690633a5f69f890612870908990899089908990600401614689565b6020604051808303816000875af115801561288f573d6000803e3d6000fd5b505050506040513d601f19601f820116820180604052508101906128b39190613c9a565b6001600160a01b03878116600090815260706020526040902080546001600160a01b0319169188169190911790559150505b949350505050565b600054610100900460ff166129145760405162461bcd60e51b8152600401610789906146fc565b6115f2612bfc565b6000825b82811015612a0e576001600160a01b0386166000908152607360205260408120805483908110612952576129526139f1565b60009182526020808320909101546001600160a01b03908116808452607283526040808520928c168552919092528220549092509061299188836124f8565b905080156129f0576129ad6001600160a01b03891684836125b6565b6001600160a01b038084166000908152607260209081526040808320938d168352929052908120556129df8183613d4e565b6129e990866141aa565b94506129f8565b5050506129fc565b5050505b80612a0681613a95565b915050612920565b50949350505050565b606081600003612a5a57505060408051808201909152600181527f3000000000000000000000000000000000000000000000000000000000000000602082015290565b8160005b8115612a845780612a6e81613a95565b9150612a7d9050600a836142f1565b9150612a5e565b60008167ffffffffffffffff811115612a9f57612a9f612dd0565b6040519080825280601f01601f191660200182016040528015612ac9576020820181803683370190505b5090505b84156128e557612ade600183613d4e565b9150612aeb600a8661470c565b612af69060306141aa565b60f81b818381518110612b0b57612b0b6139f1565b60200101907effffffffffffffffffffffffffffffffffffffffffffffffffffffffffffff1916908160001a905350612b45600a866142f1565b9450612acd565b6000612ba1826040518060400160405280602081526020017f5361666545524332303a206c6f772d6c6576656c2063616c6c206661696c6564815250856001600160a01b0316612c2c9092919063ffffffff16565b8051909150156126395780806020019051810190612bbf919061472b565b6126395760405162461bcd60e51b8152600401610789906147a4565b611c2f846323b872dd60e01b8585856040516024016125d5939291906147b4565b600054610100900460ff16612c235760405162461bcd60e51b8152600401610789906146fc565b6115f2336127ca565b6060612c3b8484600085612c45565b90505b9392505050565b606082471015612c675760405162461bcd60e51b815260040161078990614834565b843b612c855760405162461bcd60e51b815260040161078990614876565b600080866001600160a01b03168587604051612ca19190613648565b60006040518083038185875af1925050503d8060008114612cde576040519150601f19603f3d011682016040523d82523d6000602084013e612ce3565b606091505b5091509150612cf3828286612cfe565b979650505050505050565b60608315612d0d575081612c3e565b825115612d1d5782518084602001fd5b8160405162461bcd60e51b81526004016107899190613062565b828054612d439061373a565b90600052602060002090601f016020900481019282612d655760008555612dab565b82601f10612d7e57805160ff1916838001178555612dab565b82800160010185558215612dab579182015b82811115612dab578251825591602001919060010190612d90565b50612db7929150612dbb565b5090565b5b80821115612db75760008155600101612dbc565b634e487b7160e01b600052604160045260246000fd5b601f19601f830116810181811067ffffffffffffffff82111715612e0c57612e0c612dd0565b6040525050565b6000612e1e60405190565b905061116d8282612de6565b600067ffffffffffffffff821115612e4457612e44612dd0565b601f19601f83011660200192915050565b82818337506000910152565b6000612e74612e6f84612e2a565b612e13565b905082815260208101848484011115612e8f57612e8f600080fd5b612e9a848285612e55565b509392505050565b600082601f830112612eb657612eb6600080fd5b81356128e5848260208601612e61565b600060208284031215612edb57612edb600080fd5b813567ffffffffffffffff811115612ef557612ef5600080fd5b6128e584828501612ea2565b60006001600160a01b0382166125b0565b612f1b81612f01565b81146124f557600080fd5b80356125b081612f12565b600060208284031215612f4657612f46600080fd5b60006128e58484612f26565b805b82525050565b602081016125b08284612f52565b80612f1b565b80356125b081612f68565b600080600060608486031215612f9157612f91600080fd5b833567ffffffffffffffff811115612fab57612fab600080fd5b612fb786828701612ea2565b9350506020612fc886828701612f26565b9250506040612fd986828701612f6e565b9150509250925092565b600060208284031215612ff857612ff8600080fd5b60006128e58484612f6e565b60005b8381101561301f578181015183820152602001613007565b83811115611c2f5750506000910152565b600061303a825190565b808452602084019350613051818560208601613004565b601f01601f19169290920192915050565b60208082528101612c3e8184613030565b6000806040838503121561308957613089600080fd5b60006130958585612f26565b92505060206130a685828601612f6e565b9150509250929050565b612f5481612f01565b602081016125b082846130b0565b801515612f54565b608081016130dd8287612f52565b6130ea60208301866130c7565b6130f760408301856130c7565b6122cd6060830184612f52565b805161311083826130b0565b50602081015161312360208401826130c7565b5060408101516131366040840182612f52565b5060608101516131496060840182612f52565b50608081015161315c6080840182612f52565b5060a081015161316f60a0840182612f52565b5060c081015161263960c0840182612f52565b61318c8282613104565b5060e00190565b60200190565b60006131a3825190565b808452602093840193830160005b828110156131d65781516131c58782613182565b9650506020820191506001016131b1565b5093949350505050565b60208082528101612c3e8184613199565b60e081016131ff828a6130b0565b61320c60208301896130c7565b6132196040830188612f52565b6132266060830187612f52565b6132336080830186612f52565b61324060a0830185612f52565b61324d60c0830184612f52565b98975050505050505050565b602081016125b082846130c7565b801515612f1b565b80356125b081613267565b60008060008060008060008060006101208a8c03121561329c5761329c600080fd5b893567ffffffffffffffff8111156132b6576132b6600080fd5b6132c28c828d01612ea2565b99505060206132d38c828d01612f26565b98505060406132e48c828d0161326f565b97505060606132f58c828d01612f6e565b96505060806133068c828d01612f6e565b95505060a06133178c828d01612f6e565b94505060c08a013567ffffffffffffffff81111561333757613337600080fd5b6133438c828d01612ea2565b93505060e06133548c828d01612f6e565b9250506101006133668c828d01612f6e565b9150509295985092959850929598565b6000806000806080858703121561338f5761338f600080fd5b843567ffffffffffffffff8111156133a9576133a9600080fd5b6133b587828801612ea2565b94505060206133c687828801612f26565b93505060406133d787828801612f6e565b92505060606133e887828801612f6e565b91505092959194509250565b60008060006060848603121561340c5761340c600080fd5b60006134188686612f26565b935050602061342986828701612f26565b9250506040612fd986828701612f26565b60006125b06001600160a01b038316613451565b90565b6001600160a01b031690565b60006125b08261343a565b60006125b08261345d565b612f5481613468565b602081016125b08284613473565b600080604083850312156134a0576134a0600080fd5b823567ffffffffffffffff8111156134ba576134ba600080fd5b6134c685828601612ea2565b92505060206130a685828601612f26565b60e081016125b08284613104565b600080604083850312156134fb576134fb600080fd5b60006134c68585612f26565b600080600080600060a0868803121561352257613522600080fd5b853567ffffffffffffffff81111561353c5761353c600080fd5b61354888828901612ea2565b955050602061355988828901612f6e565b945050604061356a88828901612f6e565b935050606061357b8882890161326f565b925050608086013567ffffffffffffffff81111561359b5761359b600080fd5b6135a788828901612ea2565b9150509295509295909350565b600080600080608085870312156135cd576135cd600080fd5b843567ffffffffffffffff8111156135e7576135e7600080fd5b6135f387828801612ea2565b945050602061360487828801612f26565b935050604061361587828801612f6e565b92505060606133e887828801612f26565b6000613630825190565b61363e818560208601613004565b9290920192915050565b6125b08183613626565b60368152602081017f43616e206e6f7420736574746c652f636c61696d2c2068617665206e6f74207281527f65616368656420736574746c6554696d657374616d7000000000000000000000602082015290505b60400190565b602080825281016125b081613652565b60248152602081017f5468697320706f6c6963792068617320616c7265616479206265656e2073657481527f746c656400000000000000000000000000000000000000000000000000000000602082015290506136a6565b602080825281016125b0816136bc565b634e487b7160e01b600052602260045260246000fd5b60028104600182168061374e57607f821691505b60208210810361376057613760613724565b50919050565b80516125b081612f68565b60006020828403121561378657613786600080fd5b60006128e58484613766565b606080825281016137a38186613030565b90506137b26020830185612f52565b6128e560408301846130c7565b60208082527f4f776e61626c653a2063616c6c6572206973206e6f7420746865206f776e65729101908152613193565b602080825281016125b0816137bf565b60238152602081017f496e76616c696420706f6c696379746f6b656e207769746820737461626c656381527f6f696e0000000000000000000000000000000000000000000000000000000000602082015290506136a6565b602080825281016125b0816137ff565b601e8152602081017f48617665206e6f7420676f7420746865206f7261636c6520726573756c74000081529050613193565b602080825281016125b081613867565b602d8152602081017f54686520726573756c7420646f6573206e6f742068617070656e2c20796f752081527f63616e206e6f7420636c61696d00000000000000000000000000000000000000602082015290506136a6565b602080825281016125b0816138a9565b6040810161391f82856130b0565b612c3e6020830184612f52565b6040810161393a82856130b0565b612c3e60208301846130b0565b602f8152602081017f43616e206e6f74206465706f7369742f72656465656d2c20686173207061737381527f65642074686520646561646c696e650000000000000000000000000000000000602082015290506136a6565b602080825281016125b081613947565b600b8152602081017f5a65726f20416d6f756e7400000000000000000000000000000000000000000081529050613193565b602080825281016125b0816139af565b634e487b7160e01b600052603260045260246000fd5b60008154613a148161373a565b600182168015613a2b5760018114613a3c57613a6c565b60ff19831686528186019350613a6c565b60008581526020902060005b83811015613a6457815488820152600190910190602001613a48565b505081860193505b50505092915050565b6125b08183613a07565b634e487b7160e01b600052601160045260246000fd5b600060018201613aa757613aa7613a7f565b5060010190565b60158152602081017f506f6c696379206e616d65206e6f7420666f756e64000000000000000000000081529050613193565b602080825281016125b081613aae565b60168152602081017f506f6c69637920746f6b656e206e6f7420666f756e640000000000000000000081529050613193565b602080825281016125b081613af0565b60118152602081017f546f6f206d616e7920646563696d616c7300000000000000000000000000000081529050613193565b602080825281016125b081613b32565b60ff8116612f1b565b80516125b081613b74565b600060208284031215613b9d57613b9d600080fd5b60006128e58484613b7d565b60138152602081017f446563696d616c73206e6f74207061697265640000000000000000000000000081529050613193565b602080825281016125b081613ba9565b600e8152602081017f57726f6e6720646561646c696e6500000000000000000000000000000000000081529050613193565b602080825281016125b081613beb565b60158152602081017f57726f6e6720736574746c6554696d657374616d70000000000000000000000081529050613193565b602080825281016125b081613c2d565b60408082528101613c808185613030565b9050612c3e6020830184612f52565b80516125b081612f12565b600060208284031215613caf57613caf600080fd5b60006128e58484613c8f565b60a08082528101613ccc8188613030565b9050613cdb60208301876130b0565b613ce86040830186612f52565b613cf56060830185612f52565b613d026080830184612f52565b9695505050505050565b601b8152602081017f5573657227732071756f7461206e6f742073756666696369656e74000000000081529050613193565b602080825281016125b081613d0c565b600082821015613d6057613d60613a7f565b500390565b60808101613d7382876130b0565b8181036020830152613d858186613030565b90506130f760408301856130b0565b60288152602081017f446f206e6f7420737570706f7274207468697320737461626c65636f696e206381527f757272656e746c79000000000000000000000000000000000000000000000000602082015290506136a6565b602080825281016125b081613d94565b603f8152602081017f5468697320706f6c69637920746f6b656e20686173206e6f74206265656e206481527f65706c6f7965642c20706c65617365206465706c6f7920697420666972737400602082015290506136a6565b602080825281016125b081613dfc565b60118152602081017f4f6e6c79206f776e6572206f7220494c4d00000000000000000000000000000081529050613193565b602080825281016125b081613e64565b602b8152602081017f506f6c69637920746f6b656e20616e6420706f6f6c20646561646c696e65206e81527f6f74207468652073616d65000000000000000000000000000000000000000000602082015290506136a6565b602080825281016125b081613ea6565b60608101613f1c82866130b0565b613f2960208301856130b0565b6128e560408301846130b0565b60068152602081017f4d6178203130000000000000000000000000000000000000000000000000000081529050613193565b602080825281016125b081613f36565b6040810161391f8285612f52565b602e8152602081017f506c656173652073657420746865206c6f7474657279202620696e636f6d655381527f686172696e672061646472657373000000000000000000000000000000000000602082015290506136a6565b602080825281016125b081613f86565b60118152602081017f4e6f2070656e64696e6720696e636f6d6500000000000000000000000000000081529050613193565b602080825281016125b081613fee565b602e8152602081017f496e697469616c697a61626c653a20636f6e747261637420697320616c72656181527f647920696e697469616c697a6564000000000000000000000000000000000000602082015290506136a6565b602080825281016125b081614030565b60368152602081017f4f6e6c792063616c6c20746869732066756e6374696f6e207768656e2074686581527f206576656e7420646f6573206e6f742068617070656e00000000000000000000602082015290506136a6565b602080825281016125b081614098565b603b8152602081017f4e6f2071756f74612c20796f7520646964206e6f74206465706f73697420616e81527f64206d696e7420706f6c69637920746f6b656e73206265666f72650000000000602082015290506136a6565b602080825281016125b081614100565b60148152602081017f4861766520646973747269627574656420616c6c00000000000000000000000081529050613193565b602080825281016125b081614168565b600082198211156141bd576141bd613a7f565b500190565b60006125b061344e8381565b612f54816141c2565b608080825281016141e88187613030565b90506141f760208301866130b0565b6130f760408301856141ce565b60328152602081017f596f75206e65656420746f2073746172742066726f6d20746865206c6173742081527f646973747269627574696f6e20706f696e740000000000000000000000000000602082015290506136a6565b602080825281016125b081614204565b60128152602081017f496e76616c69642073746f7020696e646578000000000000000000000000000081529050613193565b602080825281016125b08161426c565b608080825281016142bf8187613030565b90506142ce60208301866130b0565b6130f76040830185612f52565b634e487b7160e01b600052601260045260246000fd5b600082614300576143006142db565b500490565b60108152602081017f496e76616c696420696e7420706172740000000000000000000000000000000081529050613193565b602080825281016125b081614305565b80825b60018511156143865780860481111561436557614365613a7f565b600185161561437357908102905b800261437f8560011c90565b945061434a565b94509492505050565b60008261439e57506001612c3e565b816143ab57506000612c3e565b81600181146143c157600281146143cb576143f8565b6001915050612c3e565b60ff8411156143dc576143dc613a7f565b8360020a9150848211156143f2576143f2613a7f565b50612c3e565b5060208310610133831016604e8410600b841016171561442b575081810a8381111561442657614426613a7f565b612c3e565b6144388484846001614347565b9250905081840481111561444e5761444e613a7f565b0292915050565b6000612c3e600019848461438f565b60148152602081017f496e76616c696420646563696d616c207061727400000000000000000000000081529050613193565b602080825281016125b081614464565b7f5f0000000000000000000000000000000000000000000000000000000000000081525b60010190565b7f2e0000000000000000000000000000000000000000000000000000000000000081526144ca565b6145028187613626565b905061450d816144a6565b90506145198186613626565b9050614524816144d0565b90506145308185613626565b905061453b816144a6565b90506145478184613626565b9050614552816144a6565b9050613d028183613626565b60258152602081017f4f6e6c792074686520726f7574657220636f6e74726163742063616e2064656c81527f6567617465000000000000000000000000000000000000000000000000000000602082015290506136a6565b602080825281016125b08161455e565b60a081016145d482886130b0565b6145e160208301876130b0565b81810360408301526145f38186613030565b9050613cf560608301856130b0565b60268152602081017f4f776e61626c653a206e6577206f776e657220697320746865207a65726f206181527f6464726573730000000000000000000000000000000000000000000000000000602082015290506136a6565b602080825281016125b081614602565b600081600019048311821515161561468457614684613a7f565b500290565b6080810161469782876130b0565b6142ce60208301866130b0565b602b8152602081017f496e697469616c697a61626c653a20636f6e7472616374206973206e6f74206981527f6e697469616c697a696e67000000000000000000000000000000000000000000602082015290506136a6565b602080825281016125b0816146a4565b60008261471b5761471b6142db565b500690565b80516125b081613267565b60006020828403121561474057614740600080fd5b60006128e58484614720565b602a8152602081017f5361666545524332303a204552433230206f7065726174696f6e20646964206e81527f6f74207375636365656400000000000000000000000000000000000000000000602082015290506136a6565b602080825281016125b08161474c565b606081016147c282866130b0565b6147cf60208301856130b0565b6128e56040830184612f52565b60268152602081017f416464726573733a20696e73756666696369656e742062616c616e636520666f81527f722063616c6c0000000000000000000000000000000000000000000000000000602082015290506136a6565b602080825281016125b0816147dc565b601d8152602081017f416464726573733a2063616c6c20746f206e6f6e2d636f6e747261637400000081529050613193565b602080825281016125b08161484456fea264697066735822122068fe61e51efa953a689a30905285095587ce5ac648fff9922badceacd971c1cd64736f6c634300080d0033",
  "devdoc": {
    "details": "Most of the functions to be called from outside will use the name of policyToken         rather than the address (easy to read).         Other variables or functions still use address to index.         The rule of policyToken naming is:              Original Token Name(with decimals) + Strike Price + Lower or Higher + Date         E.g.  AVAX_30.0_L_2101, BTC_30000.0_L_2102, ETH_8000.0_H_2109         (the original name need to be the same as in the chainlink oracle)         There are three decimals for a policy token:              1. Name decimals: Only for generating the name of policyToken              2. Token decimals: The decimals of the policyToken                 (should be the same as the paired stablecoin)              3. Price decimals: Always 18. The oracle result will be transferred for settlement",
    "kind": "dev",
    "methods": {
      "_generateName(string,uint256,uint256,bool,string)": {
        "params": {
          "_decimals": "Decimals of the name generation (0,1=>1, 2=>2)",
          "_isCall": "The policy's payoff is triggered when higher(true) or lower(false)",
          "_round": "Round of the policy, named by <month><day> (e.g. 0320, 1215)",
          "_strikePrice": "Strike price of the policy (18 decimals)",
          "_tokenName": "Name of the stike token (BTC, ETH, AVAX...)"
        }
      },
      "addStablecoin(address)": {
        "params": {
          "_newStablecoin": "Address of the new stablecoin"
        }
      },
      "claim(string,address,uint256)": {
        "details": "It is done after result settlement and only if the result is true",
        "params": {
          "_amount": "Amount of stablecoin",
          "_policyTokenName": "Name of the policy token",
          "_stablecoin": "Address of the stable coin"
        }
      },
      "collectIncome(address)": {
        "details": "Can be done by anyone, only when there is some income to be distributed",
        "params": {
          "_stablecoin": "Address of stablecoin"
        }
      },
      "delegateDeposit(string,address,uint256,address)": {
        "details": "Only called by the router contract",
        "params": {
          "_amount": "Amount of stablecoin",
          "_policyTokenName": "Name of the policy token",
          "_stablecoin": "Address of the sable coin",
          "_user": "Address to receive the policy tokens"
        }
      },
      "deployPolicyToken(string,address,bool,uint256,uint256,uint256,string,uint256,uint256)": {
        "details": "Only the owner can deploy new policy token      The name form is like \"AVAX_50_L_2203\" and is built inside the contract.",
        "params": {
          "_deadline": "Deadline of this policy token (deposit / redeem / swap)",
          "_isCall": "The policy is for higher or lower than the strike price (call / put)",
          "_nameDecimals": "Decimals of this token's name (0~18)",
          "_round": "Round of the token (e.g. 2203 -> expired at 22 March)",
          "_settleTimestamp": "Can settle after this timestamp (for oracle)",
          "_stablecoin": "Address of the stablecoin (Just for check decimals here)",
          "_strikePrice": "Strike price of the policy (have already been transferred with 1e18)",
          "_tokenDecimals": "Decimals of this token's value (0~18) (same as paired stablecoin)",
          "_tokenName": "Name of the original token (e.g. AVAX, BTC, ETH...)"
        }
      },
      "deployPool(string,address,uint256,uint256)": {
        "params": {
          "_feeRate": "Fee rate given to LP holders",
          "_policyTokenName": "Name of the policy token",
          "_poolDeadline": "Swapping deadline of the pool (normally the same as the token's deadline)",
          "_stablecoin": "Address of the stable coin"
        }
      },
      "deposit(string,address,uint256)": {
        "params": {
          "_amount": "Amount of stablecoin",
          "_policyTokenName": "Name of the policy token",
          "_stablecoin": "Address of the stable coin"
        }
      },
      "findAddressbyName(string)": {
        "params": {
          "_policyTokenName": "Name of the policy token (e.g. \"AVAX_30_L_2103\")"
        },
        "returns": {
          "policyTokenAddress": "Address of the policy token"
        }
      },
      "findNamebyAddress(address)": {
        "params": {
          "_policyTokenAddress": "Address of the policy token"
        },
        "returns": {
          "policyTokenName": "Name of the policy token"
        }
      },
      "getAllTokens()": {
        "details": "Include all active&expired tokens",
        "returns": {
          "_0": "tokensInfo Token information list"
        }
      },
      "getPolicyTokenInfo(string)": {
        "params": {
          "_policyTokenName": "Name of the policy token (e.g. \"AVAX30L202103\")"
        },
        "returns": {
          "_0": "policyTokenInfo PolicyToken detail information"
        }
      },
      "getUserQuota(address,address)": {
        "params": {
          "_policyTokenAddress": "Address of the policy token",
          "_user": "Address of the user to be checked"
        },
        "returns": {
          "_quota": "User's quota result"
        }
      },
      "initialize(address,address,address)": {
        "params": {
          "_factory": "Address of naughty factory",
          "_priceGetter": "Address of the oracle contract",
          "_usdc": "USDC.e is the first stablecoin supported in the pool"
        }
      },
      "owner()": {
        "details": "Returns the address of the current owner."
      },
      "redeem(string,address,uint256)": {
        "details": "Redeem happens before the deadline and is different from claim/settle",
        "params": {
          "_amount": "Amount to redeem",
          "_policyTokenName": "Name of the policy token",
          "_stablecoin": "Address of the stablecoin"
        }
      },
      "redeemAfterSettlement(string,address)": {
        "params": {
          "_policyTokenName": "Name of the policy token",
          "_stablecoin": "Address of the stablecoin"
        }
      },
      "renounceOwnership()": {
        "details": "Leaves the contract without owner. It will not be possible to call `onlyOwner` functions anymore. Can only be called by the current owner. NOTE: Renouncing ownership will leave the contract without an owner, thereby removing any functionality that is only available to the owner."
      },
      "setILMContract(address)": {
        "params": {
          "_ILM": "Address of the new ILM"
        }
      },
      "setIncomeSharing(address)": {
        "params": {
          "_incomeSharing": "Address of the new incomeSharing"
        }
      },
      "setIncomeToLottery(uint256)": {
        "details": "The remaining part will be distributed to incomeSharing",
        "params": {
          "_toLottery": "Proportion to lottery"
        }
      },
      "setLottery(address)": {
        "params": {
          "_lotteryAddress": "Address of the new lottery"
        }
      },
      "setNaughtyRouter(address)": {
        "params": {
          "_router": "Address of the new naughty router"
        }
      },
      "settleAllPolicyTokens(string,address,uint256,uint256)": {
        "details": "Take care of the gas cost and can use the _startIndex and _stopIndex to control the size",
        "params": {
          "_policyTokenName": "Name of policy token",
          "_stablecoin": "Address of stablecoin",
          "_startIndex": "Settlement start index",
          "_stopIndex": "Settlement stop index"
        }
      },
      "settleFinalResult(string)": {
        "params": {
          "_policyTokenName": "Name of the policy token"
        }
      },
      "transferOwnership(address)": {
        "details": "Transfers ownership of the contract to a new account (`newOwner`). Can only be called by the current owner."
      }
    },
    "title": "PolicyCore",
    "version": 1
  },
  "userdoc": {
    "kind": "user",
    "methods": {
      "_generateName(string,uint256,uint256,bool,string)": {
        "notice": "Generate the policy token name"
      },
      "addStablecoin(address)": {
        "notice": "Add a new supported stablecoin"
      },
      "claim(string,address,uint256)": {
        "notice": "Claim a payoff based on policy tokens"
      },
      "collectIncome(address)": {
        "notice": "Collect the income"
      },
      "delegateDeposit(string,address,uint256,address)": {
        "notice": "Delegate deposit (deposit and mint for other addresses)"
      },
      "deployPolicyToken(string,address,bool,uint256,uint256,uint256,string,uint256,uint256)": {
        "notice": "Deploy a new policy token and return the token address"
      },
      "deployPool(string,address,uint256,uint256)": {
        "notice": "Deploy a new pair (pool)"
      },
      "deposit(string,address,uint256)": {
        "notice": "Deposit stablecoins and get policy tokens"
      },
      "findAddressbyName(string)": {
        "notice": "Find the token address by its name"
      },
      "findNamebyAddress(address)": {
        "notice": "Find the token name by its address"
      },
      "getAllTokens()": {
        "notice": "Get the information about all the tokens"
      },
      "getPolicyTokenInfo(string)": {
        "notice": "Find the token information by its name"
      },
      "getUserQuota(address,address)": {
        "notice": "Get a user's quota for a certain policy token"
      },
      "initialize(address,address,address)": {
        "notice": "Constructor, for some addresses"
      },
      "redeem(string,address,uint256)": {
        "notice": "Burn policy tokens and redeem stablecoins"
      },
      "redeemAfterSettlement(string,address)": {
        "notice": "Redeem policy tokens and get stablecoins by the user himeself"
      },
      "setILMContract(address)": {
        "notice": "Change the address of ILM"
      },
      "setIncomeSharing(address)": {
        "notice": "Change the address of emergency pool"
      },
      "setIncomeToLottery(uint256)": {
        "notice": "Change the income part to lottery"
      },
      "setLottery(address)": {
        "notice": "Change the address of lottery"
      },
      "setNaughtyRouter(address)": {
        "notice": "Change the address of naughty router"
      },
      "settleAllPolicyTokens(string,address,uint256,uint256)": {
        "notice": "Settle the policies for the users when insurance events do not happen         Funds are automatically distributed back to the depositors"
      },
      "settleFinalResult(string)": {
        "notice": "Get the final price from the PriceGetter contract"
      }
    },
    "notice": "Core logic of Naughty Price Product         Preset:              (Done in the naughtyFactory contract)              1. Deploy policyToken contract              2. Deploy policyToken-Stablecoin pool contract         User Interaction:              1. Deposit Stablecoin and mint PolicyTokens              2. Redeem their Stablecoin and burn the PolicyTokens (before settlement)              3. Claim for payout with PolicyTokens (after settlement)         PolicyTokens are minted with the ratio 1:1 to Stablecoin         The PolicyTokens are traded in the pool with CFMM (xy=k)         When the event happens, a PolicyToken can be burned for claiming 1 Stablecoin.         When the event does not happen, the PolicyToken depositors can         redeem their 1 deposited Stablecoin",
    "version": 1
  },
  "storageLayout": {
    "storage": [
      {
        "astId": 2523,
        "contract": "contracts/naughty-price/PolicyCore.sol:PolicyCore",
        "label": "_initialized",
        "offset": 0,
        "slot": "0",
        "type": "t_bool"
      },
      {
        "astId": 2526,
        "contract": "contracts/naughty-price/PolicyCore.sol:PolicyCore",
        "label": "_initializing",
        "offset": 1,
        "slot": "0",
        "type": "t_bool"
      },
      {
        "astId": 3760,
        "contract": "contracts/naughty-price/PolicyCore.sol:PolicyCore",
        "label": "__gap",
        "offset": 0,
        "slot": "1",
        "type": "t_array(t_uint256)50_storage"
      },
      {
        "astId": 2403,
        "contract": "contracts/naughty-price/PolicyCore.sol:PolicyCore",
        "label": "_owner",
        "offset": 0,
        "slot": "51",
        "type": "t_address"
      },
      {
        "astId": 2515,
        "contract": "contracts/naughty-price/PolicyCore.sol:PolicyCore",
        "label": "__gap",
        "offset": 0,
        "slot": "52",
        "type": "t_array(t_uint256)49_storage"
      },
      {
        "astId": 31068,
        "contract": "contracts/naughty-price/PolicyCore.sol:PolicyCore",
        "label": "factory",
        "offset": 0,
        "slot": "101",
        "type": "t_contract(INaughtyFactory)33155"
      },
      {
        "astId": 31071,
        "contract": "contracts/naughty-price/PolicyCore.sol:PolicyCore",
        "label": "priceGetter",
        "offset": 0,
        "slot": "102",
        "type": "t_contract(IPriceGetter)33421"
      },
      {
        "astId": 31073,
        "contract": "contracts/naughty-price/PolicyCore.sol:PolicyCore",
        "label": "lottery",
        "offset": 0,
        "slot": "103",
        "type": "t_address"
      },
      {
        "astId": 31075,
        "contract": "contracts/naughty-price/PolicyCore.sol:PolicyCore",
        "label": "incomeSharing",
        "offset": 0,
        "slot": "104",
        "type": "t_address"
      },
      {
        "astId": 31077,
        "contract": "contracts/naughty-price/PolicyCore.sol:PolicyCore",
        "label": "naughtyRouter",
        "offset": 0,
        "slot": "105",
        "type": "t_address"
      },
      {
        "astId": 31079,
        "contract": "contracts/naughty-price/PolicyCore.sol:PolicyCore",
        "label": "ILMContract",
        "offset": 0,
        "slot": "106",
        "type": "t_address"
      },
      {
        "astId": 31081,
        "contract": "contracts/naughty-price/PolicyCore.sol:PolicyCore",
        "label": "toLotteryPart",
        "offset": 0,
        "slot": "107",
        "type": "t_uint256"
      },
      {
        "astId": 31101,
        "contract": "contracts/naughty-price/PolicyCore.sol:PolicyCore",
        "label": "policyTokenInfoMapping",
        "offset": 0,
        "slot": "108",
        "type": "t_mapping(t_string_memory_ptr,t_struct(PolicyTokenInfo)31096_storage)"
      },
      {
        "astId": 31105,
        "contract": "contracts/naughty-price/PolicyCore.sol:PolicyCore",
        "label": "policyTokenAddressToName",
        "offset": 0,
        "slot": "109",
        "type": "t_mapping(t_address,t_string_storage)"
      },
      {
        "astId": 31108,
        "contract": "contracts/naughty-price/PolicyCore.sol:PolicyCore",
        "label": "allPolicyTokens",
        "offset": 0,
        "slot": "110",
        "type": "t_array(t_string_storage)dyn_storage"
      },
      {
        "astId": 31112,
        "contract": "contracts/naughty-price/PolicyCore.sol:PolicyCore",
        "label": "supportedStablecoin",
        "offset": 0,
        "slot": "111",
        "type": "t_mapping(t_address,t_bool)"
      },
      {
        "astId": 31116,
        "contract": "contracts/naughty-price/PolicyCore.sol:PolicyCore",
        "label": "whichStablecoin",
        "offset": 0,
        "slot": "112",
        "type": "t_mapping(t_address,t_address)"
      },
      {
        "astId": 31120,
        "contract": "contracts/naughty-price/PolicyCore.sol:PolicyCore",
        "label": "policyTokenToOriginal",
        "offset": 0,
        "slot": "113",
        "type": "t_mapping(t_address,t_string_storage)"
      },
      {
        "astId": 31126,
        "contract": "contracts/naughty-price/PolicyCore.sol:PolicyCore",
        "label": "userQuota",
        "offset": 0,
        "slot": "114",
        "type": "t_mapping(t_address,t_mapping(t_address,t_uint256))"
      },
      {
        "astId": 31131,
        "contract": "contracts/naughty-price/PolicyCore.sol:PolicyCore",
        "label": "allDepositors",
        "offset": 0,
        "slot": "115",
        "type": "t_mapping(t_address,t_array(t_address)dyn_storage)"
      },
      {
        "astId": 31145,
        "contract": "contracts/naughty-price/PolicyCore.sol:PolicyCore",
        "label": "settleResult",
        "offset": 0,
        "slot": "116",
        "type": "t_mapping(t_address,t_struct(SettlementInfo)31140_storage)"
      },
      {
        "astId": 31149,
        "contract": "contracts/naughty-price/PolicyCore.sol:PolicyCore",
        "label": "pendingIncomeToLottery",
        "offset": 0,
        "slot": "117",
        "type": "t_mapping(t_address,t_uint256)"
      },
      {
        "astId": 31153,
        "contract": "contracts/naughty-price/PolicyCore.sol:PolicyCore",
        "label": "pendingIncomeToSharing",
        "offset": 0,
        "slot": "118",
        "type": "t_mapping(t_address,t_uint256)"
      }
    ],
    "types": {
      "t_address": {
        "encoding": "inplace",
        "label": "address",
        "numberOfBytes": "20"
      },
      "t_array(t_address)dyn_storage": {
        "base": "t_address",
        "encoding": "dynamic_array",
        "label": "address[]",
        "numberOfBytes": "32"
      },
      "t_array(t_string_storage)dyn_storage": {
        "base": "t_string_storage",
        "encoding": "dynamic_array",
        "label": "string[]",
        "numberOfBytes": "32"
      },
      "t_array(t_uint256)49_storage": {
        "base": "t_uint256",
        "encoding": "inplace",
        "label": "uint256[49]",
        "numberOfBytes": "1568"
      },
      "t_array(t_uint256)50_storage": {
        "base": "t_uint256",
        "encoding": "inplace",
        "label": "uint256[50]",
        "numberOfBytes": "1600"
      },
      "t_bool": {
        "encoding": "inplace",
        "label": "bool",
        "numberOfBytes": "1"
      },
      "t_contract(INaughtyFactory)33155": {
        "encoding": "inplace",
        "label": "contract INaughtyFactory",
        "numberOfBytes": "20"
      },
      "t_contract(IPriceGetter)33421": {
        "encoding": "inplace",
        "label": "contract IPriceGetter",
        "numberOfBytes": "20"
      },
      "t_mapping(t_address,t_address)": {
        "encoding": "mapping",
        "key": "t_address",
        "label": "mapping(address => address)",
        "numberOfBytes": "32",
        "value": "t_address"
      },
      "t_mapping(t_address,t_array(t_address)dyn_storage)": {
        "encoding": "mapping",
        "key": "t_address",
        "label": "mapping(address => address[])",
        "numberOfBytes": "32",
        "value": "t_array(t_address)dyn_storage"
      },
      "t_mapping(t_address,t_bool)": {
        "encoding": "mapping",
        "key": "t_address",
        "label": "mapping(address => bool)",
        "numberOfBytes": "32",
        "value": "t_bool"
      },
      "t_mapping(t_address,t_mapping(t_address,t_uint256))": {
        "encoding": "mapping",
        "key": "t_address",
        "label": "mapping(address => mapping(address => uint256))",
        "numberOfBytes": "32",
        "value": "t_mapping(t_address,t_uint256)"
      },
      "t_mapping(t_address,t_string_storage)": {
        "encoding": "mapping",
        "key": "t_address",
        "label": "mapping(address => string)",
        "numberOfBytes": "32",
        "value": "t_string_storage"
      },
      "t_mapping(t_address,t_struct(SettlementInfo)31140_storage)": {
        "encoding": "mapping",
        "key": "t_address",
        "label": "mapping(address => struct PolicyCore.SettlementInfo)",
        "numberOfBytes": "32",
        "value": "t_struct(SettlementInfo)31140_storage"
      },
      "t_mapping(t_address,t_uint256)": {
        "encoding": "mapping",
        "key": "t_address",
        "label": "mapping(address => uint256)",
        "numberOfBytes": "32",
        "value": "t_uint256"
      },
      "t_mapping(t_string_memory_ptr,t_struct(PolicyTokenInfo)31096_storage)": {
        "encoding": "mapping",
        "key": "t_string_memory_ptr",
        "label": "mapping(string => struct PolicyCore.PolicyTokenInfo)",
        "numberOfBytes": "32",
        "value": "t_struct(PolicyTokenInfo)31096_storage"
      },
      "t_string_memory_ptr": {
        "encoding": "bytes",
        "label": "string",
        "numberOfBytes": "32"
      },
      "t_string_storage": {
        "encoding": "bytes",
        "label": "string",
        "numberOfBytes": "32"
      },
      "t_struct(PolicyTokenInfo)31096_storage": {
        "encoding": "inplace",
        "label": "struct PolicyCore.PolicyTokenInfo",
        "members": [
          {
            "astId": 31083,
            "contract": "contracts/naughty-price/PolicyCore.sol:PolicyCore",
            "label": "policyTokenAddress",
            "offset": 0,
            "slot": "0",
            "type": "t_address"
          },
          {
            "astId": 31085,
            "contract": "contracts/naughty-price/PolicyCore.sol:PolicyCore",
            "label": "isCall",
            "offset": 20,
            "slot": "0",
            "type": "t_bool"
          },
          {
            "astId": 31087,
            "contract": "contracts/naughty-price/PolicyCore.sol:PolicyCore",
            "label": "nameDecimals",
            "offset": 0,
            "slot": "1",
            "type": "t_uint256"
          },
          {
            "astId": 31089,
            "contract": "contracts/naughty-price/PolicyCore.sol:PolicyCore",
            "label": "tokenDecimals",
            "offset": 0,
            "slot": "2",
            "type": "t_uint256"
          },
          {
            "astId": 31091,
            "contract": "contracts/naughty-price/PolicyCore.sol:PolicyCore",
            "label": "strikePrice",
            "offset": 0,
            "slot": "3",
            "type": "t_uint256"
          },
          {
            "astId": 31093,
            "contract": "contracts/naughty-price/PolicyCore.sol:PolicyCore",
            "label": "deadline",
            "offset": 0,
            "slot": "4",
            "type": "t_uint256"
          },
          {
            "astId": 31095,
            "contract": "contracts/naughty-price/PolicyCore.sol:PolicyCore",
            "label": "settleTimestamp",
            "offset": 0,
            "slot": "5",
            "type": "t_uint256"
          }
        ],
        "numberOfBytes": "192"
      },
      "t_struct(SettlementInfo)31140_storage": {
        "encoding": "inplace",
        "label": "struct PolicyCore.SettlementInfo",
        "members": [
          {
            "astId": 31133,
            "contract": "contracts/naughty-price/PolicyCore.sol:PolicyCore",
            "label": "price",
            "offset": 0,
            "slot": "0",
            "type": "t_uint256"
          },
          {
            "astId": 31135,
            "contract": "contracts/naughty-price/PolicyCore.sol:PolicyCore",
            "label": "isHappened",
            "offset": 0,
            "slot": "1",
            "type": "t_bool"
          },
          {
            "astId": 31137,
            "contract": "contracts/naughty-price/PolicyCore.sol:PolicyCore",
            "label": "alreadySettled",
            "offset": 1,
            "slot": "1",
            "type": "t_bool"
          },
          {
            "astId": 31139,
            "contract": "contracts/naughty-price/PolicyCore.sol:PolicyCore",
            "label": "currentDistributionIndex",
            "offset": 0,
            "slot": "2",
            "type": "t_uint256"
          }
        ],
        "numberOfBytes": "96"
      },
      "t_uint256": {
        "encoding": "inplace",
        "label": "uint256",
        "numberOfBytes": "32"
      }
    }
  }
}