{
  "address": "0xfe7765ca25246F524d5f7aE1d4c3e7024BDfD462",
  "abi": [
    {
      "inputs": [],
      "stateMutability": "nonpayable",
      "type": "constructor"
    },
    {
      "anonymous": false,
      "inputs": [
        {
          "indexed": false,
          "internalType": "uint80",
          "name": "roundID",
          "type": "uint80"
        },
        {
          "indexed": false,
          "internalType": "int256",
          "name": "price",
          "type": "int256"
        },
        {
          "indexed": false,
          "internalType": "uint256",
          "name": "startedAt",
          "type": "uint256"
        },
        {
          "indexed": false,
          "internalType": "uint256",
          "name": "timeStamp",
          "type": "uint256"
        },
        {
          "indexed": false,
          "internalType": "uint80",
          "name": "answeredInRound",
          "type": "uint80"
        }
      ],
      "name": "LatestPriceGet",
      "type": "event"
    },
    {
      "anonymous": false,
      "inputs": [
        {
          "indexed": true,
          "internalType": "address",
          "name": "previousOwner",
          "type": "address"
        },
        {
          "indexed": true,
          "internalType": "address",
          "name": "newOwner",
          "type": "address"
        }
      ],
      "name": "OwnershipTransferred",
      "type": "event"
    },
    {
      "anonymous": false,
      "inputs": [
        {
          "indexed": false,
          "internalType": "string",
          "name": "tokenName",
          "type": "string"
        },
        {
          "indexed": false,
          "internalType": "address",
          "name": "feedAddress",
          "type": "address"
        },
        {
          "indexed": false,
          "internalType": "uint256",
          "name": "decimals",
          "type": "uint256"
        }
      ],
      "name": "PriceFeedChanged",
      "type": "event"
    },
    {
      "inputs": [
        {
          "internalType": "string",
          "name": "_tokenName",
          "type": "string"
        }
      ],
      "name": "getLatestPrice",
      "outputs": [
        {
          "internalType": "uint256",
          "name": "",
          "type": "uint256"
        }
      ],
      "stateMutability": "nonpayable",
      "type": "function"
    },
    {
      "inputs": [],
      "name": "owner",
      "outputs": [
        {
          "internalType": "address",
          "name": "",
          "type": "address"
        }
      ],
      "stateMutability": "view",
      "type": "function"
    },
    {
      "inputs": [
        {
          "internalType": "string",
          "name": "",
          "type": "string"
        }
      ],
      "name": "priceFeedInfo",
      "outputs": [
        {
          "internalType": "address",
          "name": "priceFeedAddress",
          "type": "address"
        },
        {
          "internalType": "uint256",
          "name": "decimals",
          "type": "uint256"
        }
      ],
      "stateMutability": "view",
      "type": "function"
    },
    {
      "inputs": [],
      "name": "renounceOwnership",
      "outputs": [],
      "stateMutability": "nonpayable",
      "type": "function"
    },
    {
      "inputs": [
        {
          "internalType": "string",
          "name": "_tokenName",
          "type": "string"
        },
        {
          "internalType": "address",
          "name": "_feedAddress",
          "type": "address"
        },
        {
          "internalType": "uint256",
          "name": "_decimals",
          "type": "uint256"
        }
      ],
      "name": "setPriceFeed",
      "outputs": [],
      "stateMutability": "nonpayable",
      "type": "function"
    },
    {
      "inputs": [
        {
          "internalType": "address",
          "name": "newOwner",
          "type": "address"
        }
      ],
      "name": "transferOwnership",
      "outputs": [],
      "stateMutability": "nonpayable",
      "type": "function"
    }
  ],
  "transactionHash": "0x19f812f8c1b327cc658630ad88af46af1c125b84fd1db03d6cfff9db65023cfd",
  "args": [],
  "numDeployments": 1,
  "solcInputHash": "64edb72108e49c67231df32415749bc9",
  "bytecode": "0x608060405234801561001057600080fd5b503361001b81610161565b50604080518082018252730a77230d17318075983913bc2145db16c7366156815260086020820152905163082ac82b60e31b8152600190600401908152604080519182900360209081018320845181546001600160a01b039091166001600160a01b031990911617815593810151600194850155828201825273976b3d034e162d8bd72d6b9c989d545b839003b08352600890830152519091906100be906101c6565b908152604080519182900360209081018320845181546001600160a01b039091166001600160a01b0319909116178155938101516001948501558282018252732779d32d5166baaa2b2b658333ba7e6ec0c65743835260089083015251909190610127906101dd565b90815260405160209181900382019020825181546001600160a01b0319166001600160a01b039091161781559101516001909101556101e6565b600080546001600160a01b038381166001600160a01b0319831681178455604051919092169283917f8be0079c531659141344cd1fd0a4f28419497f9722a3daafe3b4186f6b6457e09190a35050565b919050565b6208aa8960eb1b81525b60030190565b6101b1816101b6565b6242544360e81b81526101c0565b6101b1816101cf565b610bb4806101f56000396000f3fe608060405234801561001057600080fd5b50600436106100725760003560e01c80638da5cb5b116100505780638da5cb5b146100eb578063f2fde38b14610104578063f66a1b711461011757600080fd5b806316b3de69146100775780635b8c0d6c146100ce578063715018a6146100e3575b600080fd5b6100b76100853660046105d9565b80516020818301810180516001808352938301929094019190912092905281549101546001600160a01b039091169082565b6040516100c592919061063c565b60405180910390f35b6100e16100dc36600461068e565b610137565b005b6100e1610275565b6000546001600160a01b03166040516100c591906106f8565b6100e1610112366004610706565b6102ba565b61012a6101253660046105d9565b610325565b6040516100c59190610727565b3361014a6000546001600160a01b031690565b6001600160a01b0316146101795760405162461bcd60e51b815260040161017090610767565b60405180910390fd5b816001600160a01b0381166101a05760405162461bcd60e51b8152600401610170906107a9565b60128211156101c15760405162461bcd60e51b8152600401610170906107eb565b6040518060400160405280846001600160a01b03168152602001838152506001856040516101ef919061084d565b908152604051602091819003820181208351815473ffffffffffffffffffffffffffffffffffffffff19166001600160a01b0390911617815592909101516001909201919091557fe9a586c9ff4ccc70ffb98ab9cc2079d83dd33e0b4caa7f563ae0db088c62312e9061026790869086908690610889565b60405180910390a150505050565b336102886000546001600160a01b031690565b6001600160a01b0316146102ae5760405162461bcd60e51b815260040161017090610767565b6102b86000610479565b565b336102cd6000546001600160a01b031690565b6001600160a01b0316146102f35760405162461bcd60e51b815260040161017090610767565b6001600160a01b0381166103195760405162461bcd60e51b8152600401610170906108b6565b61032281610479565b50565b600080600183604051610338919061084d565b908152604080519182900360209081018320838301835280546001600160a01b03168085526001909101549184019190915281517ffeaf968c0000000000000000000000000000000000000000000000000000000081529151929350600092839283928392839263feaf968c9160048083019260a09291908290030181865afa1580156103c9573d6000803e3d6000fd5b505050506040513d601f19601f820116820180604052508101906103ed919061093f565b94509450945094509450600084121561040557600093505b7fc7851f2a8f2b8a66cfb8738f664e014401b6b82af7958036c58001411ed923e4858585858560405161043c9594939291906109c9565b60405180910390a16000866020015160126104579190610a2b565b61046290600a610b50565b61046c9086610b5f565b9998505050505050505050565b600080546001600160a01b0383811673ffffffffffffffffffffffffffffffffffffffff19831681178455604051919092169283917f8be0079c531659141344cd1fd0a4f28419497f9722a3daafe3b4186f6b6457e09190a35050565b634e487b7160e01b600052604160045260246000fd5b601f19601f830116810181811067ffffffffffffffff82111715610512576105126104d6565b6040525050565b600061052460405190565b905061053082826104ec565b919050565b600067ffffffffffffffff82111561054f5761054f6104d6565b601f19601f83011660200192915050565b82818337506000910152565b600061057f61057a84610535565b610519565b90508281526020810184848401111561059a5761059a600080fd5b6105a5848285610560565b509392505050565b600082601f8301126105c1576105c1600080fd5b81356105d184826020860161056c565b949350505050565b6000602082840312156105ee576105ee600080fd5b813567ffffffffffffffff81111561060857610608600080fd5b6105d1848285016105ad565b60006001600160a01b0382165b92915050565b61063081610614565b82525050565b80610630565b6040810161064a8285610627565b6106576020830184610636565b9392505050565b61066781610614565b811461032257600080fd5b80356106218161065e565b80610667565b80356106218161067d565b6000806000606084860312156106a6576106a6600080fd5b833567ffffffffffffffff8111156106c0576106c0600080fd5b6106cc868287016105ad565b93505060206106dd86828701610672565b92505060406106ee86828701610683565b9150509250925092565b602081016106218284610627565b60006020828403121561071b5761071b600080fd5b60006105d18484610672565b602081016106218284610636565b60208082527f4f776e61626c653a2063616c6c6572206973206e6f7420746865206f776e657291019081525b60200190565b6020808252810161062181610735565b600c8152602081017f5a65726f2061646472657373000000000000000000000000000000000000000081529050610761565b6020808252810161062181610777565b60118152602081017f546f6f206d616e7920646563696d616c7300000000000000000000000000000081529050610761565b60208082528101610621816107b9565b60005b838110156108165781810151838201526020016107fe565b83811115610825576000848401525b50505050565b6000610835825190565b6108438185602086016107fb565b9290920192915050565b610621818361082b565b6000610861825190565b8084526020840193506108788185602086016107fb565b601f01601f19169290920192915050565b6060808252810161089a8186610857565b90506108a96020830185610627565b6105d16040830184610636565b6020808252810161062181602681527f4f776e61626c653a206e6577206f776e657220697320746865207a65726f206160208201527f6464726573730000000000000000000000000000000000000000000000000000604082015260600190565b69ffffffffffffffffffff8116610667565b805161062181610917565b80516106218161067d565b600080600080600060a0868803121561095a5761095a600080fd5b60006109668888610929565b955050602061097788828901610934565b945050604061098888828901610934565b935050606061099988828901610934565b92505060806109aa88828901610929565b9150509295509295909350565b69ffffffffffffffffffff8116610630565b60a081016109d782886109b7565b6109e46020830187610636565b6109f16040830186610636565b6109fe6060830185610636565b610a0b60808301846109b7565b9695505050505050565b634e487b7160e01b600052601160045260246000fd5b600082821015610a3d57610a3d610a15565b500390565b80825b6001851115610a8157808604811115610a6057610a60610a15565b6001851615610a6e57908102905b8002610a7a8560011c90565b9450610a45565b94509492505050565b600082610a9957506001610657565b81610aa657506000610657565b8160018114610abc5760028114610ac657610af3565b6001915050610657565b60ff841115610ad757610ad7610a15565b8360020a915084821115610aed57610aed610a15565b50610657565b5060208310610133831016604e8410600b8410161715610b26575081810a83811115610b2157610b21610a15565b610657565b610b338484846001610a42565b92509050818404811115610b4957610b49610a15565b0292915050565b60006106576000198484610a8a565b6000816000190483118215151615610b7957610b79610a15565b50029056fea264697066735822122008e2d49f7ee0147281bc78c5237eb5fe66374fa775c08ff9080337ff7015933764736f6c634300080a0033",
  "devdoc": {
    "details": "The price from chainlink priceFeed has different decimals, be careful.",
    "kind": "dev",
    "methods": {
      "getLatestPrice(string)": {
        "params": {
          "_tokenName": "Address of the token"
        },
        "returns": {
          "_0": "price The latest price"
        }
      },
      "renounceOwnership()": {
        "details": "Renouncing ownership will leave the contract without an owner,         thereby removing any functionality that is only available to the owner."
      },
      "setPriceFeed(string,address,uint256)": {
        "params": {
          "_decimals": "Decimals of this price feed service",
          "_feedAddress": "Price feed oracle address",
          "_tokenName": "Address of the token"
        }
      },
      "transferOwnership(address)": {
        "details": "Can only be called by the current owner.",
        "params": {
          "newOwner": "Address of the new owner"
        }
      }
    },
    "title": "Price Getter",
    "version": 1
  },
  "userdoc": {
    "kind": "user",
    "methods": {
      "constructor": {
        "notice": "Constructor function, initialize some price feed"
      },
      "getLatestPrice(string)": {
        "notice": "Get latest price of a token"
      },
      "owner()": {
        "notice": "Returns the address of the current owner."
      },
      "renounceOwnership()": {
        "notice": "Leaves the contract without owner. It will not be possible to call         `onlyOwner` functions anymore. Can only be called by the current owner."
      },
      "setPriceFeed(string,address,uint256)": {
        "notice": "Set a price feed oracle address for a token"
      },
      "transferOwnership(address)": {
        "notice": "Transfers ownership of the contract to a new account (`newOwner`)."
      }
    },
    "notice": "This is the contract for getting price feed from chainlink.         The contract will keep a record from tokenName => priceFeed Address.         Got the sponsorship and collaboration with Chainlink.",
    "version": 1
  },
  "storageLayout": {
    "storage": [
      {
        "astId": 26357,
        "contract": "contracts/naughty-price/PriceGetter.sol:PriceGetter",
        "label": "_owner",
        "offset": 0,
        "slot": "0",
        "type": "t_address"
      },
      {
        "astId": 23725,
        "contract": "contracts/naughty-price/PriceGetter.sol:PriceGetter",
        "label": "priceFeedInfo",
        "offset": 0,
        "slot": "1",
        "type": "t_mapping(t_string_memory_ptr,t_struct(PriceFeedInfo)23720_storage)"
      }
    ],
    "types": {
      "t_address": {
        "encoding": "inplace",
        "label": "address",
        "numberOfBytes": "20"
      },
      "t_mapping(t_string_memory_ptr,t_struct(PriceFeedInfo)23720_storage)": {
        "encoding": "mapping",
        "key": "t_string_memory_ptr",
        "label": "mapping(string => struct PriceGetter.PriceFeedInfo)",
        "numberOfBytes": "32",
        "value": "t_struct(PriceFeedInfo)23720_storage"
      },
      "t_string_memory_ptr": {
        "encoding": "bytes",
        "label": "string",
        "numberOfBytes": "32"
      },
      "t_struct(PriceFeedInfo)23720_storage": {
        "encoding": "inplace",
        "label": "struct PriceGetter.PriceFeedInfo",
        "members": [
          {
            "astId": 23717,
            "contract": "contracts/naughty-price/PriceGetter.sol:PriceGetter",
            "label": "priceFeedAddress",
            "offset": 0,
            "slot": "0",
            "type": "t_address"
          },
          {
            "astId": 23719,
            "contract": "contracts/naughty-price/PriceGetter.sol:PriceGetter",
            "label": "decimals",
            "offset": 0,
            "slot": "1",
            "type": "t_uint256"
          }
        ],
        "numberOfBytes": "64"
      },
      "t_uint256": {
        "encoding": "inplace",
        "label": "uint256",
        "numberOfBytes": "32"
      }
    }
  }
}