{
  "address": "0x83E705DF963C4632fDc7b7D159a5A42533DEF30d",
  "abi": [
    {
      "inputs": [],
      "name": "PIV__AlreadyDistributed",
      "type": "error"
    },
    {
      "inputs": [],
      "name": "PIV__ClaimedAll",
      "type": "error"
    },
    {
      "inputs": [],
      "name": "PIV__NoPendingRound",
      "type": "error"
    },
    {
      "inputs": [],
      "name": "PIV__NotEnoughBuyerTokens",
      "type": "error"
    },
    {
      "inputs": [],
      "name": "PIV__NotPassedInterval",
      "type": "error"
    },
    {
      "inputs": [],
      "name": "PIV__ZeroAmount",
      "type": "error"
    },
    {
      "anonymous": false,
      "inputs": [
        {
          "indexed": false,
          "internalType": "uint256",
          "name": "oldRewardPerRound",
          "type": "uint256"
        },
        {
          "indexed": false,
          "internalType": "uint256",
          "name": "newRewardPerRound",
          "type": "uint256"
        }
      ],
      "name": "DegisRewardChanged",
      "type": "event"
    },
    {
      "anonymous": false,
      "inputs": [
        {
          "indexed": false,
          "internalType": "uint256",
          "name": "oldInterval",
          "type": "uint256"
        },
        {
          "indexed": false,
          "internalType": "uint256",
          "name": "newInterval",
          "type": "uint256"
        }
      ],
      "name": "DistributionIntervalChanged",
      "type": "event"
    },
    {
      "anonymous": false,
      "inputs": [
        {
          "indexed": true,
          "internalType": "address",
          "name": "previousOwner",
          "type": "address"
        },
        {
          "indexed": true,
          "internalType": "address",
          "name": "newOwner",
          "type": "address"
        }
      ],
      "name": "OwnershipTransferred",
      "type": "event"
    },
    {
      "anonymous": false,
      "inputs": [
        {
          "indexed": false,
          "internalType": "address",
          "name": "account",
          "type": "address"
        }
      ],
      "name": "Paused",
      "type": "event"
    },
    {
      "anonymous": false,
      "inputs": [
        {
          "indexed": false,
          "internalType": "address",
          "name": "userAddress",
          "type": "address"
        },
        {
          "indexed": false,
          "internalType": "uint256",
          "name": "currentRound",
          "type": "uint256"
        },
        {
          "indexed": false,
          "internalType": "uint256",
          "name": "amount",
          "type": "uint256"
        }
      ],
      "name": "Redeem",
      "type": "event"
    },
    {
      "anonymous": false,
      "inputs": [
        {
          "indexed": false,
          "internalType": "address",
          "name": "userAddress",
          "type": "address"
        },
        {
          "indexed": false,
          "internalType": "uint256",
          "name": "userReward",
          "type": "uint256"
        }
      ],
      "name": "RewardClaimed",
      "type": "event"
    },
    {
      "anonymous": false,
      "inputs": [
        {
          "indexed": false,
          "internalType": "uint256",
          "name": "currentRound",
          "type": "uint256"
        },
        {
          "indexed": false,
          "internalType": "uint256",
          "name": "blockNumber",
          "type": "uint256"
        }
      ],
      "name": "RoundSettled",
      "type": "event"
    },
    {
      "anonymous": false,
      "inputs": [
        {
          "indexed": false,
          "internalType": "address",
          "name": "userAddress",
          "type": "address"
        },
        {
          "indexed": false,
          "internalType": "uint256",
          "name": "currentRound",
          "type": "uint256"
        },
        {
          "indexed": false,
          "internalType": "uint256",
          "name": "actualAmount",
          "type": "uint256"
        }
      ],
      "name": "Stake",
      "type": "event"
    },
    {
      "anonymous": false,
      "inputs": [
        {
          "indexed": false,
          "internalType": "address",
          "name": "account",
          "type": "address"
        }
      ],
      "name": "Unpaused",
      "type": "event"
    },
    {
      "inputs": [],
      "name": "MAX_ROUND",
      "outputs": [
        {
          "internalType": "uint256",
          "name": "",
          "type": "uint256"
        }
      ],
      "stateMutability": "view",
      "type": "function"
    },
    {
      "inputs": [],
      "name": "SCALE",
      "outputs": [
        {
          "internalType": "uint256",
          "name": "",
          "type": "uint256"
        }
      ],
      "stateMutability": "view",
      "type": "function"
    },
    {
      "inputs": [],
      "name": "claim",
      "outputs": [],
      "stateMutability": "nonpayable",
      "type": "function"
    },
    {
      "inputs": [],
      "name": "currentRound",
      "outputs": [
        {
          "internalType": "uint256",
          "name": "",
          "type": "uint256"
        }
      ],
      "stateMutability": "view",
      "type": "function"
    },
    {
      "inputs": [],
      "name": "degisPerRound",
      "outputs": [
        {
          "internalType": "uint256",
          "name": "",
          "type": "uint256"
        }
      ],
      "stateMutability": "view",
      "type": "function"
    },
    {
      "inputs": [],
      "name": "distributionInterval",
      "outputs": [
        {
          "internalType": "uint256",
          "name": "",
          "type": "uint256"
        }
      ],
      "stateMutability": "view",
      "type": "function"
    },
    {
      "inputs": [],
      "name": "getRewardPerRound",
      "outputs": [
        {
          "internalType": "uint256",
          "name": "rewardPerRound",
          "type": "uint256"
        }
      ],
      "stateMutability": "view",
      "type": "function"
    },
    {
      "inputs": [
        {
          "internalType": "uint256",
          "name": "_round",
          "type": "uint256"
        }
      ],
      "name": "getTotalUsersInRound",
      "outputs": [
        {
          "internalType": "uint256",
          "name": "",
          "type": "uint256"
        }
      ],
      "stateMutability": "view",
      "type": "function"
    },
    {
      "inputs": [
        {
          "internalType": "address",
          "name": "_user",
          "type": "address"
        }
      ],
      "name": "getUserPendingRounds",
      "outputs": [
        {
          "internalType": "uint256[]",
          "name": "",
          "type": "uint256[]"
        }
      ],
      "stateMutability": "view",
      "type": "function"
    },
    {
      "inputs": [
        {
          "internalType": "address",
          "name": "_user",
          "type": "address"
        },
        {
          "internalType": "uint256",
          "name": "_round",
          "type": "uint256"
        }
      ],
      "name": "getUserShares",
      "outputs": [
        {
          "internalType": "uint256",
          "name": "",
          "type": "uint256"
        }
      ],
      "stateMutability": "view",
      "type": "function"
    },
    {
      "inputs": [
        {
          "internalType": "uint256",
          "name": "_round",
          "type": "uint256"
        }
      ],
      "name": "getUsersInRound",
      "outputs": [
        {
          "internalType": "address[]",
          "name": "",
          "type": "address[]"
        }
      ],
      "stateMutability": "view",
      "type": "function"
    },
    {
      "inputs": [
        {
          "internalType": "address",
          "name": "_buyerToken",
          "type": "address"
        },
        {
          "internalType": "address",
          "name": "_degisToken",
          "type": "address"
        }
      ],
      "name": "initialize",
      "outputs": [],
      "stateMutability": "nonpayable",
      "type": "function"
    },
    {
      "inputs": [],
      "name": "lastDistribution",
      "outputs": [
        {
          "internalType": "uint256",
          "name": "",
          "type": "uint256"
        }
      ],
      "stateMutability": "view",
      "type": "function"
    },
    {
      "inputs": [],
      "name": "name",
      "outputs": [
        {
          "internalType": "string",
          "name": "",
          "type": "string"
        }
      ],
      "stateMutability": "view",
      "type": "function"
    },
    {
      "inputs": [],
      "name": "owner",
      "outputs": [
        {
          "internalType": "address",
          "name": "",
          "type": "address"
        }
      ],
      "stateMutability": "view",
      "type": "function"
    },
    {
      "inputs": [],
      "name": "pause",
      "outputs": [],
      "stateMutability": "nonpayable",
      "type": "function"
    },
    {
      "inputs": [],
      "name": "paused",
      "outputs": [
        {
          "internalType": "bool",
          "name": "",
          "type": "bool"
        }
      ],
      "stateMutability": "view",
      "type": "function"
    },
    {
      "inputs": [
        {
          "internalType": "address",
          "name": "_user",
          "type": "address"
        }
      ],
      "name": "pendingReward",
      "outputs": [
        {
          "internalType": "uint256",
          "name": "userPendingReward",
          "type": "uint256"
        }
      ],
      "stateMutability": "view",
      "type": "function"
    },
    {
      "inputs": [
        {
          "internalType": "uint256",
          "name": "_amount",
          "type": "uint256"
        }
      ],
      "name": "redeem",
      "outputs": [],
      "stateMutability": "nonpayable",
      "type": "function"
    },
    {
      "inputs": [],
      "name": "renounceOwnership",
      "outputs": [],
      "stateMutability": "nonpayable",
      "type": "function"
    },
    {
      "inputs": [
        {
          "internalType": "uint256",
          "name": "",
          "type": "uint256"
        }
      ],
      "name": "rounds",
      "outputs": [
        {
          "internalType": "uint256",
          "name": "shares",
          "type": "uint256"
        },
        {
          "internalType": "bool",
          "name": "hasDistributed",
          "type": "bool"
        },
        {
          "internalType": "uint256",
          "name": "degisPerShare",
          "type": "uint256"
        }
      ],
      "stateMutability": "view",
      "type": "function"
    },
    {
      "inputs": [
        {
          "internalType": "uint256",
          "name": "_degisPerRound",
          "type": "uint256"
        }
      ],
      "name": "setDegisPerRound",
      "outputs": [],
      "stateMutability": "nonpayable",
      "type": "function"
    },
    {
      "inputs": [
        {
          "internalType": "uint256",
          "name": "_newInterval",
          "type": "uint256"
        }
      ],
      "name": "setDistributionInterval",
      "outputs": [],
      "stateMutability": "nonpayable",
      "type": "function"
    },
    {
      "inputs": [
        {
          "internalType": "uint256[]",
          "name": "_threshold",
          "type": "uint256[]"
        },
        {
          "internalType": "uint256[]",
          "name": "_reward",
          "type": "uint256[]"
        }
      ],
      "name": "setPiecewise",
      "outputs": [],
      "stateMutability": "nonpayable",
      "type": "function"
    },
    {
      "inputs": [],
      "name": "settleCurrentRound",
      "outputs": [],
      "stateMutability": "nonpayable",
      "type": "function"
    },
    {
      "inputs": [
        {
          "internalType": "uint256",
          "name": "_amount",
          "type": "uint256"
        }
      ],
      "name": "stake",
      "outputs": [],
      "stateMutability": "nonpayable",
      "type": "function"
    },
    {
      "inputs": [
        {
          "internalType": "address",
          "name": "newOwner",
          "type": "address"
        }
      ],
      "name": "transferOwnership",
      "outputs": [],
      "stateMutability": "nonpayable",
      "type": "function"
    },
    {
      "inputs": [],
      "name": "unpause",
      "outputs": [],
      "stateMutability": "nonpayable",
      "type": "function"
    },
    {
      "inputs": [
        {
          "internalType": "address",
          "name": "",
          "type": "address"
        },
        {
          "internalType": "uint256",
          "name": "",
          "type": "uint256"
        }
      ],
      "name": "userSharesInRound",
      "outputs": [
        {
          "internalType": "uint256",
          "name": "",
          "type": "uint256"
        }
      ],
      "stateMutability": "view",
      "type": "function"
    },
    {
      "inputs": [
        {
          "internalType": "address",
          "name": "",
          "type": "address"
        }
      ],
      "name": "users",
      "outputs": [
        {
          "internalType": "uint256",
          "name": "lastRewardRoundIndex",
          "type": "uint256"
        }
      ],
      "stateMutability": "view",
      "type": "function"
    }
  ],
  "transactionHash": "0x738fb994638157d376e62fd3cab1de7660d2d8d5e5a4918584484ba3ebe58340",
  "args": [],
  "numDeployments": 3,
  "solcInputHash": "42aa8e0be881e810ab822b61f335cba8",
  "bytecode": "0x608060405234801561001057600080fd5b50611ffc806100206000396000f3fe608060405234801561001057600080fd5b50600436106101da5760003560e01c8063a694fc3a11610104578063ca1fe809116100a2578063eced552611610071578063eced55261461041c578063ef618eb51461042b578063f2fde38b1461044b578063f40f0f521461045e57600080fd5b8063ca1fe809146103db578063db006a75146103e3578063ddd9d045146103f6578063e6848ead1461040957600080fd5b8063b4ac62c5116100de578063b4ac62c514610397578063c42d5efb1461039f578063c708c5f4146103bf578063c966fbf8146103c857600080fd5b8063a694fc3a1461035b578063a717639c1461036e578063a87430ba1461037757600080fd5b80635c975abb1161017c5780638456cb591161014b5780638456cb59146102f05780638a19c8bc146102f85780638c65c81f146103015780638da5cb5b1461034257600080fd5b80635c975abb146102b957806371201a0e146102cc578063715018a6146102d55780637a16a49e146102dd57600080fd5b80633f4ba83a116101b85780633f4ba83a1461028c578063482d1adb14610296578063485cc9551461029e5780634e71d92d146102b157600080fd5b806306fdde03146101df5780631aeee41d146102315780632f01790114610261575b600080fd5b61021b6040518060400160405280601e81526020017f446567697320507572636861736520496e63656e74697665205661756c74000081525081565b60405161022891906117e3565b60405180910390f35b61025461023f36600461180c565b600090815260cf602052604090206001015490565b6040516102289190611835565b61025461026f366004611868565b60d160209081526000928352604080842090915290825290205481565b610294610471565b005b6102546104ae565b6102946102ac3660046118a5565b61058d565b61029461065a565b60655460ff1660405161022891906118e0565b61025460cd5481565b610294610963565b6102946102eb36600461180c565b610997565b610294610a01565b61025460cb5481565b61033361030f36600461180c565b60cf60205260009081526040902080546002820154600390920154909160ff169083565b604051610228939291906118ee565b6033546001600160a01b0316604051610228919061191f565b61029461036936600461180c565b610a33565b61025460ce5481565b61025461038536600461192d565b60d06020526000908152604090205481565b610254603281565b6103b26103ad36600461192d565b610c1b565b60405161022891906119ac565b61025460cc5481565b6102946103d6366004611a0f565b610c8a565b610294610cd4565b6102946103f136600461180c565b610e36565b610254610404366004611868565b610ffc565b61029461041736600461180c565b611027565b610254670de0b6b3a764000081565b61043e61043936600461180c565b611091565b6040516102289190611acf565b61029461045936600461192d565b6110ff565b61025461046c36600461192d565b61115b565b6033546001600160a01b031633146104a45760405162461bcd60e51b815260040161049b90611b10565b60405180910390fd5b6104ac6112a4565b565b60cb54600090815260cf602090815260408083205460d2805483518186028101860190945280845291938593929083018282801561050b57602002820191906000526020600020905b8154815260200190600101908083116104f7575b505050505090508051600014156105265760cc549250505090565b6000600182516105369190611b36565b90505b81818151811061054b5761054b611b4d565b6020026020010151831061057e5760d3818154811061056c5761056c611b4d565b90600052602060002001549350610587565b60001901610539565b50505090565b600054610100900460ff166105a85760005460ff16156105ac565b303b155b6105c85760405162461bcd60e51b815260040161049b90611bbd565b600054610100900460ff161580156105ea576000805461ffff19166101011790555b6105f261130a565b6105fa611339565b610602611368565b60c980546001600160a01b0380861673ffffffffffffffffffffffffffffffffffffffff199283161790925560ca8054928516929091169190911790554260ce558015610655576000805461ff00191690555b505050565b6002609754141561067d5760405162461bcd60e51b815260040161049b90611bff565b600260975560655460ff16156106a55760405162461bcd60e51b815260040161049b90611c41565b33600090815260d0602090815260408083208151808301835281548152600182018054845181870281018701909552808552919492938584019390929083018282801561071157602002820191906000526020600020905b8154815260200190600101908083116106fd575b50505050508152505090508060200151516000141561075c576040517f72f62ba900000000000000000000000000000000000000000000000000000000815260040160405180910390fd5b805160208201515160009161077091611b36565b9050806107a9576040517fd4b9bf3a00000000000000000000000000000000000000000000000000000000815260040160405180910390fd5b60cb54602083015180516107bf90600190611b36565b815181106107cf576107cf611b4d565b602002602001015114156107eb576107e8600182611b36565b90505b815160328211156108245733600090815260d060205260408120805460329450849290610819908490611c51565b909155506108499050565b33600090815260d0602052604081208054849290610843908490611c51565b90915550505b6000815b6108578484611c51565b8110156108da5760008560200151828151811061087657610876611b4d565b60209081029190910181015133600090815260d18352604080822083835284528082205460cf909452902060030154909250670de0b6b3a7640000916108bb91611c69565b6108c59190611c9e565b6108cf9084611c51565b92505060010161084d565b5060ca546040517fb47673980000000000000000000000000000000000000000000000000000000081526001600160a01b039091169063b4767398906109269033908590600401611cb2565b600060405180830381600087803b15801561094057600080fd5b505af1158015610954573d6000803e3d6000fd5b50506001609755505050505050565b6033546001600160a01b0316331461098d5760405162461bcd60e51b815260040161049b90611b10565b6104ac6000611397565b6033546001600160a01b031633146109c15760405162461bcd60e51b815260040161049b90611b10565b7f0bcbec4c9da357687b1300891e9be5627182572bb49e955ea7d37afcd927598460cd54826040516109f4929190611ccd565b60405180910390a160cd55565b6033546001600160a01b03163314610a2b5760405162461bcd60e51b815260040161049b90611b10565b6104ac6113f6565b60026097541415610a565760405162461bcd60e51b815260040161049b90611bff565b600260975560655460ff1615610a7e5760405162461bcd60e51b815260040161049b90611c41565b80610a9c57604051631a4a5ecf60e01b815260040160405180910390fd5b60cb5433600090815260d06020908152604080832060d1835281842085855290925290912054610b0557600082815260cf6020908152604082206001908101805491820181558352912001805473ffffffffffffffffffffffffffffffffffffffff1916331790555b33600090815260d16020908152604080832085845290915281208054859290610b2f908490611c51565b90915550506001810154801580610b7b57508015801590610b7b57508282600101600183610b5d9190611b36565b81548110610b6d57610b6d611b4d565b906000526020600020015414155b15610b9a57600180830180549182018155600090815260209020018390555b600083815260cf602052604081208054869290610bb8908490611c51565b909155505060c954610bd5906001600160a01b031633308761144e565b7f5af417134f72a9d41143ace85b0a26dce6f550f894f2cbc1eeee8810603d91b6338486604051610c0893929190611cdb565b60405180910390a1505060016097555050565b6001600160a01b038116600090815260d06020908152604091829020600101805483518184028101840190945280845260609392830182828015610c7e57602002820191906000526020600020905b815481526020019060010190808311610c6a575b50505050509050919050565b6033546001600160a01b03163314610cb45760405162461bcd60e51b815260040161049b90611b10565b610cc060d28585611725565b50610ccd60d38383611725565b5050505050565b60cd5460ce54610ce49042611b36565b11610d1b576040517f15d7f40300000000000000000000000000000000000000000000000000000000815260040160405180910390fd5b60655460ff1615610d3e5760405162461bcd60e51b815260040161049b90611c41565b60cb54600090815260cf60205260409020600281015460ff1615610d8e576040517fadf8d84100000000000000000000000000000000000000000000000000000000815260040160405180910390fd5b80546000610d9a6104ae565b905081610dad5760006003840155610dd0565b81610dc0670de0b6b3a764000083611c69565b610dca9190611c9e565b60038401555b60028301805460ff1916600117905560cb546040517f84ea2725ed7015ebac8f69258b09c394b1f22b1031d4393a1580b3935058d7dc91610e12914290611ccd565b60405180910390a160cb60008154610e2990611cf6565b90915550504260ce555050565b60026097541415610e595760405162461bcd60e51b815260040161049b90611bff565b600260975560655460ff1615610e815760405162461bcd60e51b815260040161049b90611c41565b80610e9f57604051631a4a5ecf60e01b815260040160405180910390fd5b60cb5433600090815260d16020908152604080832084845290915290205482811015610ef7576040517f57464c4300000000000000000000000000000000000000000000000000000000815260040160405180910390fd5b33600090815260d16020908152604080832085845290915281208054859290610f21908490611b36565b909155505033600090815260d160209081526040808320858452909152902054610f7d5733600090815260d060205260409020600101805480610f6657610f66611d11565b600190038181906000526020600020016000905590555b600082815260cf602052604081208054859290610f9b908490611b36565b909155505060c954610fb7906001600160a01b031633856114d9565b7fe5b754fb1abb7f01b499791d0b820ae3b6af3424ac1c59768edb53f4ec31a929338385604051610fea93929190611cdb565b60405180910390a15050600160975550565b6001600160a01b038216600090815260d1602090815260408083208484529091529020545b92915050565b6033546001600160a01b031633146110515760405162461bcd60e51b815260040161049b90611b10565b7f08c48647d7747ed2d79428c4b86c76dfe48af099e796d87b7b311925e76d2c4060cc5482604051611084929190611ccd565b60405180910390a160cc55565b600081815260cf6020908152604091829020600101805483518184028101840190945280845260609392830182828015610c7e57602002820191906000526020600020905b81546001600160a01b031681526001909101906020018083116110d65750505050509050919050565b6033546001600160a01b031633146111295760405162461bcd60e51b815260040161049b90611b10565b6001600160a01b03811661114f5760405162461bcd60e51b815260040161049b90611d7f565b61115881611397565b50565b6001600160a01b038116600090815260d06020908152604080832081518083018352815481526001820180548451818702810187019095528085528695929485840193909291908301828280156111d157602002820191906000526020600020905b8154815260200190600101908083116111bd575b5050505050815250509050600081600001518260200151516111f39190611b36565b8251909150805b6112048383611c51565b81101561129b5760008460200151828151811061122357611223611b4d565b6020908102919091018101516001600160a01b038916600090815260d18352604080822083835284528082205460cf909452902060030154909250670de0b6b3a76400009161127191611c69565b61127b9190611c9e565b6112859087611c51565b955050808061129390611cf6565b9150506111fa565b50505050919050565b60655460ff166112c65760405162461bcd60e51b815260040161049b90611dc1565b6065805460ff191690557f5db9ee0a495bf2e6ff9c91a7834c1ba4fdd244a5e8aa4e537bd38aeae4b073aa335b604051611300919061191f565b60405180910390a1565b600054610100900460ff166113315760405162461bcd60e51b815260040161049b90611e29565b6104ac6114f8565b600054610100900460ff166113605760405162461bcd60e51b815260040161049b90611e29565b6104ac611528565b600054610100900460ff1661138f5760405162461bcd60e51b815260040161049b90611e29565b6104ac61155b565b603380546001600160a01b0383811673ffffffffffffffffffffffffffffffffffffffff19831681179093556040519116919082907f8be0079c531659141344cd1fd0a4f28419497f9722a3daafe3b4186f6b6457e090600090a35050565b60655460ff16156114195760405162461bcd60e51b815260040161049b90611c41565b6065805460ff191660011790557f62e78cea01bee320cd4e420270b5ea74000d11b0c9f74754ebdbfc544b05a2586112f33390565b6114d3846323b872dd60e01b85858560405160240161146f93929190611e39565b60408051601f198184030181529190526020810180517bffffffffffffffffffffffffffffffffffffffffffffffffffffffff167fffffffff0000000000000000000000000000000000000000000000000000000090931692909217909152611589565b50505050565b6106558363a9059cbb60e01b848460405160240161146f929190611cb2565b600054610100900460ff1661151f5760405162461bcd60e51b815260040161049b90611e29565b6104ac33611397565b600054610100900460ff1661154f5760405162461bcd60e51b815260040161049b90611e29565b6065805460ff19169055565b600054610100900460ff166115825760405162461bcd60e51b815260040161049b90611e29565b6001609755565b60006115de826040518060400160405280602081526020017f5361666545524332303a206c6f772d6c6576656c2063616c6c206661696c6564815250856001600160a01b03166116189092919063ffffffff16565b80519091501561065557808060200190518101906115fc9190611e67565b6106555760405162461bcd60e51b815260040161049b90611ee0565b60606116278484600085611631565b90505b9392505050565b6060824710156116535760405162461bcd60e51b815260040161049b90611f48565b843b6116715760405162461bcd60e51b815260040161049b90611f8a565b600080866001600160a01b0316858760405161168d9190611fbc565b60006040518083038185875af1925050503d80600081146116ca576040519150601f19603f3d011682016040523d82523d6000602084013e6116cf565b606091505b50915091506116df8282866116ec565b925050505b949350505050565b606083156116fb57508161162a565b82511561170b5782518084602001fd5b8160405162461bcd60e51b815260040161049b91906117e3565b828054828255906000526020600020908101928215611760579160200282015b82811115611760578235825591602001919060010190611745565b5061176c929150611770565b5090565b5b8082111561176c5760008155600101611771565b60005b838110156117a0578181015183820152602001611788565b838111156114d35750506000910152565b60006117bb825190565b8084526020840193506117d2818560208601611785565b601f01601f19169290920192915050565b6020808252810161162a81846117b1565b805b811461115857600080fd5b8035611021816117f4565b60006020828403121561182157611821600080fd5b60006116e48484611801565b805b82525050565b60208101611021828461182d565b60006001600160a01b038216611021565b6117f681611843565b803561102181611854565b6000806040838503121561187e5761187e600080fd5b600061188a858561185d565b925050602061189b85828601611801565b9150509250929050565b600080604083850312156118bb576118bb600080fd5b60006118c7858561185d565b925050602061189b8582860161185d565b80151561182f565b6020810161102182846118d8565b606081016118fc828661182d565b61190960208301856118d8565b6116e4604083018461182d565b61182f81611843565b602081016110218284611916565b60006020828403121561194257611942600080fd5b60006116e4848461185d565b611958828261182d565b5060200190565b60200190565b600061196f825190565b808452602093840193830160005b828110156119a2578151611991878261194e565b96505060208201915060010161197d565b5093949350505050565b6020808252810161162a8184611965565b60008083601f8401126119d2576119d2600080fd5b50813567ffffffffffffffff8111156119ed576119ed600080fd5b602083019150836020820283011115611a0857611a08600080fd5b9250929050565b60008060008060408587031215611a2857611a28600080fd5b843567ffffffffffffffff811115611a4257611a42600080fd5b611a4e878288016119bd565b9450945050602085013567ffffffffffffffff811115611a7057611a70600080fd5b611a7c878288016119bd565b95989497509550505050565b6119588282611916565b6000611a9c825190565b808452602093840193830160005b828110156119a2578151611abe8782611a88565b965050602082019150600101611aaa565b6020808252810161162a8184611a92565b60208082527f4f776e61626c653a2063616c6c6572206973206e6f7420746865206f776e6572910190815261195f565b6020808252810161102181611ae0565b634e487b7160e01b600052601160045260246000fd5b600082821015611b4857611b48611b20565b500390565b634e487b7160e01b600052603260045260246000fd5b602e8152602081017f496e697469616c697a61626c653a20636f6e747261637420697320616c72656181527f647920696e697469616c697a6564000000000000000000000000000000000000602082015290505b60400190565b6020808252810161102181611b63565b601f8152602081017f5265656e7472616e637947756172643a207265656e7472616e742063616c6c008152905061195f565b6020808252810161102181611bcd565b60108152602081017f5061757361626c653a20706175736564000000000000000000000000000000008152905061195f565b6020808252810161102181611c0f565b60008219821115611c6457611c64611b20565b500190565b6000816000190483118215151615611c8357611c83611b20565b500290565b634e487b7160e01b600052601260045260246000fd5b600082611cad57611cad611c88565b500490565b60408101611cc08285611916565b61162a602083018461182d565b60408101611cc0828561182d565b60608101611ce98286611916565b611909602083018561182d565b6000600019821415611d0a57611d0a611b20565b5060010190565b634e487b7160e01b600052603160045260246000fd5b60268152602081017f4f776e61626c653a206e6577206f776e657220697320746865207a65726f206181527f646472657373000000000000000000000000000000000000000000000000000060208201529050611bb7565b6020808252810161102181611d27565b60148152602081017f5061757361626c653a206e6f74207061757365640000000000000000000000008152905061195f565b6020808252810161102181611d8f565b602b8152602081017f496e697469616c697a61626c653a20636f6e7472616374206973206e6f74206981527f6e697469616c697a696e6700000000000000000000000000000000000000000060208201529050611bb7565b6020808252810161102181611dd1565b60608101611e478286611916565b6119096020830185611916565b8015156117f6565b805161102181611e54565b600060208284031215611e7c57611e7c600080fd5b60006116e48484611e5c565b602a8152602081017f5361666545524332303a204552433230206f7065726174696f6e20646964206e81527f6f7420737563636565640000000000000000000000000000000000000000000060208201529050611bb7565b6020808252810161102181611e88565b60268152602081017f416464726573733a20696e73756666696369656e742062616c616e636520666f81527f722063616c6c000000000000000000000000000000000000000000000000000060208201529050611bb7565b6020808252810161102181611ef0565b601d8152602081017f416464726573733a2063616c6c20746f206e6f6e2d636f6e74726163740000008152905061195f565b6020808252810161102181611f58565b6000611fa4825190565b611fb2818560208601611785565b9290920192915050565b6110218183611f9a56fea26469706673582212204c8b32a7be5100761c0472f56f5051b21f4eb9c5f333f7b453d086c65991173c64736f6c634300080a0033",
  "devdoc": {
    "kind": "dev",
    "methods": {
      "getRewardPerRound()": {
        "details": "Depends on the total shares in this round",
        "returns": {
          "rewardPerRound": "Degis reward per round"
        }
      },
      "getTotalUsersInRound(uint256)": {
        "params": {
          "_round": "Round number to check"
        },
        "returns": {
          "_0": "totalUsers Total amount of users in _round"
        }
      },
      "getUserPendingRounds(address)": {
        "params": {
          "_user": "User address to check"
        },
        "returns": {
          "_0": "pendingRounds User's pending rounds"
        }
      },
      "getUserShares(address,uint256)": {
        "params": {
          "_round": "Round number",
          "_user": "Address of the user"
        },
        "returns": {
          "_0": "userShares User's shares in the current round"
        }
      },
      "getUsersInRound(uint256)": {
        "params": {
          "_round": "Round number to check"
        },
        "returns": {
          "_0": "users All user addresses in this round"
        }
      },
      "owner()": {
        "details": "Returns the address of the current owner."
      },
      "paused()": {
        "details": "Returns true if the contract is paused, and false otherwise."
      },
      "pendingReward(address)": {
        "params": {
          "_user": "User address"
        },
        "returns": {
          "userPendingReward": "User's pending reward"
        }
      },
      "redeem(uint256)": {
        "params": {
          "_amount": "Amount to redeem"
        }
      },
      "renounceOwnership()": {
        "details": "Leaves the contract without owner. It will not be possible to call `onlyOwner` functions anymore. Can only be called by the current owner. NOTE: Renouncing ownership will leave the contract without an owner, thereby removing any functionality that is only available to the owner."
      },
      "setDegisPerRound(uint256)": {
        "params": {
          "_degisPerRound": "Degis distribution per round"
        }
      },
      "setDistributionInterval(uint256)": {
        "params": {
          "_newInterval": "The new interval"
        }
      },
      "setPiecewise(uint256[],uint256[])": {
        "params": {
          "_reward": "The piecewise reward",
          "_threshold": "The threshold"
        }
      },
      "settleCurrentRound()": {
        "details": "Callable by any address, must pass the distribution interval"
      },
      "stake(uint256)": {
        "params": {
          "_amount": "Amount of buyer tokens to stake"
        }
      },
      "transferOwnership(address)": {
        "details": "Transfers ownership of the contract to a new account (`newOwner`). Can only be called by the current owner."
      }
    },
    "title": "Purchase Incentive Vault",
    "version": 1
  },
  "userdoc": {
    "kind": "user",
    "methods": {
      "claim()": {
        "notice": "User can claim his own reward"
      },
      "getRewardPerRound()": {
        "notice": "Get degis reward per round"
      },
      "getTotalUsersInRound(uint256)": {
        "notice": "Get the amount of users in _round, used for distribution"
      },
      "getUserPendingRounds(address)": {
        "notice": "Get user's pending rounds"
      },
      "getUserShares(address,uint256)": {
        "notice": "Get your shares in the current round"
      },
      "getUsersInRound(uint256)": {
        "notice": "Get the user addresses in _round"
      },
      "pendingReward(address)": {
        "notice": "Get a user's pending reward"
      },
      "redeem(uint256)": {
        "notice": "Redeem buyer token from the vault"
      },
      "setDegisPerRound(uint256)": {
        "notice": "Set degis distribution per round"
      },
      "setDistributionInterval(uint256)": {
        "notice": "Set a new distribution interval"
      },
      "setPiecewise(uint256[],uint256[])": {
        "notice": "Set the threshold and piecewise reward"
      },
      "settleCurrentRound()": {
        "notice": "Setttle the current round"
      },
      "stake(uint256)": {
        "notice": "Stake buyer tokens into this contract"
      }
    },
    "notice": "This is the purchase incentive vault for staking buyer tokens         Users first stake their buyer tokens and wait for distribution         About every 24 hours, the reward will be calculated to users' account         After disrtribution, reward will be updated              but it still need to be manually claimed.         Buyer tokens can only be used once         You can withdraw your buyer token within the same round (current round)         They can not be withdrawed if the round was settled",
    "version": 1
  },
  "storageLayout": {
    "storage": [
      {
        "astId": 2523,
        "contract": "contracts/farming/PurchaseIncentiveVault.sol:PurchaseIncentiveVault",
        "label": "_initialized",
        "offset": 0,
        "slot": "0",
        "type": "t_bool"
      },
      {
        "astId": 2526,
        "contract": "contracts/farming/PurchaseIncentiveVault.sol:PurchaseIncentiveVault",
        "label": "_initializing",
        "offset": 1,
        "slot": "0",
        "type": "t_bool"
      },
      {
        "astId": 3044,
        "contract": "contracts/farming/PurchaseIncentiveVault.sol:PurchaseIncentiveVault",
        "label": "__gap",
        "offset": 0,
        "slot": "1",
        "type": "t_array(t_uint256)50_storage"
      },
      {
        "astId": 2403,
        "contract": "contracts/farming/PurchaseIncentiveVault.sol:PurchaseIncentiveVault",
        "label": "_owner",
        "offset": 0,
        "slot": "51",
        "type": "t_address"
      },
      {
        "astId": 2515,
        "contract": "contracts/farming/PurchaseIncentiveVault.sol:PurchaseIncentiveVault",
        "label": "__gap",
        "offset": 0,
        "slot": "52",
        "type": "t_array(t_uint256)49_storage"
      },
      {
        "astId": 2611,
        "contract": "contracts/farming/PurchaseIncentiveVault.sol:PurchaseIncentiveVault",
        "label": "_paused",
        "offset": 0,
        "slot": "101",
        "type": "t_bool"
      },
      {
        "astId": 2700,
        "contract": "contracts/farming/PurchaseIncentiveVault.sol:PurchaseIncentiveVault",
        "label": "__gap",
        "offset": 0,
        "slot": "102",
        "type": "t_array(t_uint256)49_storage"
      },
      {
        "astId": 2715,
        "contract": "contracts/farming/PurchaseIncentiveVault.sol:PurchaseIncentiveVault",
        "label": "_status",
        "offset": 0,
        "slot": "151",
        "type": "t_uint256"
      },
      {
        "astId": 2759,
        "contract": "contracts/farming/PurchaseIncentiveVault.sol:PurchaseIncentiveVault",
        "label": "__gap",
        "offset": 0,
        "slot": "152",
        "type": "t_array(t_uint256)49_storage"
      },
      {
        "astId": 13244,
        "contract": "contracts/farming/PurchaseIncentiveVault.sol:PurchaseIncentiveVault",
        "label": "buyerToken",
        "offset": 0,
        "slot": "201",
        "type": "t_contract(IERC20)4752"
      },
      {
        "astId": 13247,
        "contract": "contracts/farming/PurchaseIncentiveVault.sol:PurchaseIncentiveVault",
        "label": "degis",
        "offset": 0,
        "slot": "202",
        "type": "t_contract(IDegisToken)34784"
      },
      {
        "astId": 13249,
        "contract": "contracts/farming/PurchaseIncentiveVault.sol:PurchaseIncentiveVault",
        "label": "currentRound",
        "offset": 0,
        "slot": "203",
        "type": "t_uint256"
      },
      {
        "astId": 13251,
        "contract": "contracts/farming/PurchaseIncentiveVault.sol:PurchaseIncentiveVault",
        "label": "degisPerRound",
        "offset": 0,
        "slot": "204",
        "type": "t_uint256"
      },
      {
        "astId": 13253,
        "contract": "contracts/farming/PurchaseIncentiveVault.sol:PurchaseIncentiveVault",
        "label": "distributionInterval",
        "offset": 0,
        "slot": "205",
        "type": "t_uint256"
      },
      {
        "astId": 13255,
        "contract": "contracts/farming/PurchaseIncentiveVault.sol:PurchaseIncentiveVault",
        "label": "lastDistribution",
        "offset": 0,
        "slot": "206",
        "type": "t_uint256"
      },
      {
        "astId": 13273,
        "contract": "contracts/farming/PurchaseIncentiveVault.sol:PurchaseIncentiveVault",
        "label": "rounds",
        "offset": 0,
        "slot": "207",
        "type": "t_mapping(t_uint256,t_struct(RoundInfo)13268_storage)"
      },
      {
        "astId": 13284,
        "contract": "contracts/farming/PurchaseIncentiveVault.sol:PurchaseIncentiveVault",
        "label": "users",
        "offset": 0,
        "slot": "208",
        "type": "t_mapping(t_address,t_struct(UserInfo)13279_storage)"
      },
      {
        "astId": 13290,
        "contract": "contracts/farming/PurchaseIncentiveVault.sol:PurchaseIncentiveVault",
        "label": "userSharesInRound",
        "offset": 0,
        "slot": "209",
        "type": "t_mapping(t_address,t_mapping(t_uint256,t_uint256))"
      },
      {
        "astId": 13293,
        "contract": "contracts/farming/PurchaseIncentiveVault.sol:PurchaseIncentiveVault",
        "label": "threshold",
        "offset": 0,
        "slot": "210",
        "type": "t_array(t_uint256)dyn_storage"
      },
      {
        "astId": 13296,
        "contract": "contracts/farming/PurchaseIncentiveVault.sol:PurchaseIncentiveVault",
        "label": "piecewise",
        "offset": 0,
        "slot": "211",
        "type": "t_array(t_uint256)dyn_storage"
      }
    ],
    "types": {
      "t_address": {
        "encoding": "inplace",
        "label": "address",
        "numberOfBytes": "20"
      },
      "t_array(t_address)dyn_storage": {
        "base": "t_address",
        "encoding": "dynamic_array",
        "label": "address[]",
        "numberOfBytes": "32"
      },
      "t_array(t_uint256)49_storage": {
        "base": "t_uint256",
        "encoding": "inplace",
        "label": "uint256[49]",
        "numberOfBytes": "1568"
      },
      "t_array(t_uint256)50_storage": {
        "base": "t_uint256",
        "encoding": "inplace",
        "label": "uint256[50]",
        "numberOfBytes": "1600"
      },
      "t_array(t_uint256)dyn_storage": {
        "base": "t_uint256",
        "encoding": "dynamic_array",
        "label": "uint256[]",
        "numberOfBytes": "32"
      },
      "t_bool": {
        "encoding": "inplace",
        "label": "bool",
        "numberOfBytes": "1"
      },
      "t_contract(IDegisToken)34784": {
        "encoding": "inplace",
        "label": "contract IDegisToken",
        "numberOfBytes": "20"
      },
      "t_contract(IERC20)4752": {
        "encoding": "inplace",
        "label": "contract IERC20",
        "numberOfBytes": "20"
      },
      "t_mapping(t_address,t_mapping(t_uint256,t_uint256))": {
        "encoding": "mapping",
        "key": "t_address",
        "label": "mapping(address => mapping(uint256 => uint256))",
        "numberOfBytes": "32",
        "value": "t_mapping(t_uint256,t_uint256)"
      },
      "t_mapping(t_address,t_struct(UserInfo)13279_storage)": {
        "encoding": "mapping",
        "key": "t_address",
        "label": "mapping(address => struct PurchaseIncentiveVault.UserInfo)",
        "numberOfBytes": "32",
        "value": "t_struct(UserInfo)13279_storage"
      },
      "t_mapping(t_uint256,t_struct(RoundInfo)13268_storage)": {
        "encoding": "mapping",
        "key": "t_uint256",
        "label": "mapping(uint256 => struct PurchaseIncentiveVault.RoundInfo)",
        "numberOfBytes": "32",
        "value": "t_struct(RoundInfo)13268_storage"
      },
      "t_mapping(t_uint256,t_uint256)": {
        "encoding": "mapping",
        "key": "t_uint256",
        "label": "mapping(uint256 => uint256)",
        "numberOfBytes": "32",
        "value": "t_uint256"
      },
      "t_struct(RoundInfo)13268_storage": {
        "encoding": "inplace",
        "label": "struct PurchaseIncentiveVault.RoundInfo",
        "members": [
          {
            "astId": 13260,
            "contract": "contracts/farming/PurchaseIncentiveVault.sol:PurchaseIncentiveVault",
            "label": "shares",
            "offset": 0,
            "slot": "0",
            "type": "t_uint256"
          },
          {
            "astId": 13263,
            "contract": "contracts/farming/PurchaseIncentiveVault.sol:PurchaseIncentiveVault",
            "label": "users",
            "offset": 0,
            "slot": "1",
            "type": "t_array(t_address)dyn_storage"
          },
          {
            "astId": 13265,
            "contract": "contracts/farming/PurchaseIncentiveVault.sol:PurchaseIncentiveVault",
            "label": "hasDistributed",
            "offset": 0,
            "slot": "2",
            "type": "t_bool"
          },
          {
            "astId": 13267,
            "contract": "contracts/farming/PurchaseIncentiveVault.sol:PurchaseIncentiveVault",
            "label": "degisPerShare",
            "offset": 0,
            "slot": "3",
            "type": "t_uint256"
          }
        ],
        "numberOfBytes": "128"
      },
      "t_struct(UserInfo)13279_storage": {
        "encoding": "inplace",
        "label": "struct PurchaseIncentiveVault.UserInfo",
        "members": [
          {
            "astId": 13275,
            "contract": "contracts/farming/PurchaseIncentiveVault.sol:PurchaseIncentiveVault",
            "label": "lastRewardRoundIndex",
            "offset": 0,
            "slot": "0",
            "type": "t_uint256"
          },
          {
            "astId": 13278,
            "contract": "contracts/farming/PurchaseIncentiveVault.sol:PurchaseIncentiveVault",
            "label": "pendingRounds",
            "offset": 0,
            "slot": "1",
            "type": "t_array(t_uint256)dyn_storage"
          }
        ],
        "numberOfBytes": "64"
      },
      "t_uint256": {
        "encoding": "inplace",
        "label": "uint256",
        "numberOfBytes": "32"
      }
    }
  }
}