{
  "address": "0x39b5D487747230265C6564E86Afb06Ef44E7bce7",
  "abi": [
    {
      "anonymous": false,
      "inputs": [
        {
          "indexed": false,
          "internalType": "address",
          "name": "stablecoin",
          "type": "address"
        }
      ],
      "name": "AddStablecoin",
      "type": "event"
    },
    {
      "anonymous": false,
      "inputs": [
        {
          "indexed": true,
          "internalType": "address",
          "name": "owner",
          "type": "address"
        },
        {
          "indexed": true,
          "internalType": "address",
          "name": "spender",
          "type": "address"
        },
        {
          "indexed": false,
          "internalType": "uint256",
          "name": "value",
          "type": "uint256"
        }
      ],
      "name": "Approval",
      "type": "event"
    },
    {
      "anonymous": false,
      "inputs": [
        {
          "indexed": true,
          "internalType": "address",
          "name": "user",
          "type": "address"
        },
        {
          "indexed": true,
          "internalType": "address",
          "name": "stablecoin",
          "type": "address"
        },
        {
          "indexed": false,
          "internalType": "uint256",
          "name": "inAmount",
          "type": "uint256"
        },
        {
          "indexed": false,
          "internalType": "uint256",
          "name": "outAmount",
          "type": "uint256"
        }
      ],
      "name": "Deposit",
      "type": "event"
    },
    {
      "anonymous": false,
      "inputs": [
        {
          "indexed": true,
          "internalType": "address",
          "name": "previousOwner",
          "type": "address"
        },
        {
          "indexed": true,
          "internalType": "address",
          "name": "newOwner",
          "type": "address"
        }
      ],
      "name": "OwnershipTransferred",
      "type": "event"
    },
    {
      "anonymous": false,
      "inputs": [
        {
          "indexed": true,
          "internalType": "address",
          "name": "from",
          "type": "address"
        },
        {
          "indexed": true,
          "internalType": "address",
          "name": "to",
          "type": "address"
        },
        {
          "indexed": false,
          "internalType": "uint256",
          "name": "value",
          "type": "uint256"
        }
      ],
      "name": "Transfer",
      "type": "event"
    },
    {
      "anonymous": false,
      "inputs": [
        {
          "indexed": true,
          "internalType": "address",
          "name": "user",
          "type": "address"
        },
        {
          "indexed": false,
          "internalType": "uint256",
          "name": "amount",
          "type": "uint256"
        }
      ],
      "name": "Withdraw",
      "type": "event"
    },
    {
      "inputs": [],
      "name": "CURVE_SWAP",
      "outputs": [
        {
          "internalType": "uint256",
          "name": "",
          "type": "uint256"
        }
      ],
      "stateMutability": "view",
      "type": "function"
    },
    {
      "inputs": [],
      "name": "CURVE_YUSD",
      "outputs": [
        {
          "internalType": "address",
          "name": "",
          "type": "address"
        }
      ],
      "stateMutability": "view",
      "type": "function"
    },
    {
      "inputs": [],
      "name": "DAIe",
      "outputs": [
        {
          "internalType": "address",
          "name": "",
          "type": "address"
        }
      ],
      "stateMutability": "view",
      "type": "function"
    },
    {
      "inputs": [],
      "name": "PLATYPUS_SWAP",
      "outputs": [
        {
          "internalType": "uint256",
          "name": "",
          "type": "uint256"
        }
      ],
      "stateMutability": "view",
      "type": "function"
    },
    {
      "inputs": [],
      "name": "PTP_MAIN",
      "outputs": [
        {
          "internalType": "address",
          "name": "",
          "type": "address"
        }
      ],
      "stateMutability": "view",
      "type": "function"
    },
    {
      "inputs": [],
      "name": "USDC",
      "outputs": [
        {
          "internalType": "address",
          "name": "",
          "type": "address"
        }
      ],
      "stateMutability": "view",
      "type": "function"
    },
    {
      "inputs": [],
      "name": "USDCe",
      "outputs": [
        {
          "internalType": "address",
          "name": "",
          "type": "address"
        }
      ],
      "stateMutability": "view",
      "type": "function"
    },
    {
      "inputs": [],
      "name": "USDT",
      "outputs": [
        {
          "internalType": "address",
          "name": "",
          "type": "address"
        }
      ],
      "stateMutability": "view",
      "type": "function"
    },
    {
      "inputs": [],
      "name": "USDTe",
      "outputs": [
        {
          "internalType": "address",
          "name": "",
          "type": "address"
        }
      ],
      "stateMutability": "view",
      "type": "function"
    },
    {
      "inputs": [],
      "name": "YUSD",
      "outputs": [
        {
          "internalType": "address",
          "name": "",
          "type": "address"
        }
      ],
      "stateMutability": "view",
      "type": "function"
    },
    {
      "inputs": [
        {
          "internalType": "address",
          "name": "_pool",
          "type": "address"
        },
        {
          "internalType": "address[]",
          "name": "_tokens",
          "type": "address[]"
        }
      ],
      "name": "addCurvePool",
      "outputs": [],
      "stateMutability": "nonpayable",
      "type": "function"
    },
    {
      "inputs": [
        {
          "internalType": "address",
          "name": "_stablecoin",
          "type": "address"
        }
      ],
      "name": "addSupportedStablecoin",
      "outputs": [],
      "stateMutability": "nonpayable",
      "type": "function"
    },
    {
      "inputs": [
        {
          "internalType": "address",
          "name": "owner",
          "type": "address"
        },
        {
          "internalType": "address",
          "name": "spender",
          "type": "address"
        }
      ],
      "name": "allowance",
      "outputs": [
        {
          "internalType": "uint256",
          "name": "",
          "type": "uint256"
        }
      ],
      "stateMutability": "view",
      "type": "function"
    },
    {
      "inputs": [
        {
          "internalType": "address",
          "name": "spender",
          "type": "address"
        },
        {
          "internalType": "uint256",
          "name": "amount",
          "type": "uint256"
        }
      ],
      "name": "approve",
      "outputs": [
        {
          "internalType": "bool",
          "name": "",
          "type": "bool"
        }
      ],
      "stateMutability": "nonpayable",
      "type": "function"
    },
    {
      "inputs": [
        {
          "internalType": "address",
          "name": "_token",
          "type": "address"
        },
        {
          "internalType": "address",
          "name": "_contract",
          "type": "address"
        }
      ],
      "name": "approveStablecoin",
      "outputs": [],
      "stateMutability": "nonpayable",
      "type": "function"
    },
    {
      "inputs": [
        {
          "internalType": "address",
          "name": "account",
          "type": "address"
        }
      ],
      "name": "balanceOf",
      "outputs": [
        {
          "internalType": "uint256",
          "name": "",
          "type": "uint256"
        }
      ],
      "stateMutability": "view",
      "type": "function"
    },
    {
      "inputs": [
        {
          "internalType": "address",
          "name": "",
          "type": "address"
        },
        {
          "internalType": "address",
          "name": "",
          "type": "address"
        }
      ],
      "name": "curvePoolTokenIndex",
      "outputs": [
        {
          "internalType": "int128",
          "name": "",
          "type": "int128"
        }
      ],
      "stateMutability": "view",
      "type": "function"
    },
    {
      "inputs": [],
      "name": "decimals",
      "outputs": [
        {
          "internalType": "uint8",
          "name": "",
          "type": "uint8"
        }
      ],
      "stateMutability": "pure",
      "type": "function"
    },
    {
      "inputs": [
        {
          "internalType": "address",
          "name": "spender",
          "type": "address"
        },
        {
          "internalType": "uint256",
          "name": "subtractedValue",
          "type": "uint256"
        }
      ],
      "name": "decreaseAllowance",
      "outputs": [
        {
          "internalType": "bool",
          "name": "",
          "type": "bool"
        }
      ],
      "stateMutability": "nonpayable",
      "type": "function"
    },
    {
      "inputs": [
        {
          "internalType": "uint256",
          "name": "_type",
          "type": "uint256"
        },
        {
          "internalType": "address",
          "name": "_stablecoin",
          "type": "address"
        },
        {
          "internalType": "uint256",
          "name": "_amount",
          "type": "uint256"
        },
        {
          "internalType": "uint256",
          "name": "_minAmount",
          "type": "uint256"
        }
      ],
      "name": "deposit",
      "outputs": [],
      "stateMutability": "nonpayable",
      "type": "function"
    },
    {
      "inputs": [
        {
          "internalType": "address",
          "name": "spender",
          "type": "address"
        },
        {
          "internalType": "uint256",
          "name": "addedValue",
          "type": "uint256"
        }
      ],
      "name": "increaseAllowance",
      "outputs": [
        {
          "internalType": "bool",
          "name": "",
          "type": "bool"
        }
      ],
      "stateMutability": "nonpayable",
      "type": "function"
    },
    {
      "inputs": [],
      "name": "initialize",
      "outputs": [],
      "stateMutability": "nonpayable",
      "type": "function"
    },
    {
      "inputs": [],
      "name": "name",
      "outputs": [
        {
          "internalType": "string",
          "name": "",
          "type": "string"
        }
      ],
      "stateMutability": "view",
      "type": "function"
    },
    {
      "inputs": [],
      "name": "owner",
      "outputs": [
        {
          "internalType": "address",
          "name": "",
          "type": "address"
        }
      ],
      "stateMutability": "view",
      "type": "function"
    },
    {
      "inputs": [
        {
          "internalType": "string",
          "name": "",
          "type": "string"
        }
      ],
      "name": "pools",
      "outputs": [
        {
          "internalType": "address",
          "name": "",
          "type": "address"
        }
      ],
      "stateMutability": "view",
      "type": "function"
    },
    {
      "inputs": [],
      "name": "renounceOwnership",
      "outputs": [],
      "stateMutability": "nonpayable",
      "type": "function"
    },
    {
      "inputs": [
        {
          "internalType": "bool",
          "name": "_isDeposit",
          "type": "bool"
        },
        {
          "internalType": "address",
          "name": "_token",
          "type": "address"
        },
        {
          "internalType": "address",
          "name": "_pool",
          "type": "address"
        }
      ],
      "name": "setTokenToPool",
      "outputs": [],
      "stateMutability": "nonpayable",
      "type": "function"
    },
    {
      "inputs": [
        {
          "internalType": "address",
          "name": "",
          "type": "address"
        }
      ],
      "name": "supportedStablecoin",
      "outputs": [
        {
          "internalType": "bool",
          "name": "",
          "type": "bool"
        }
      ],
      "stateMutability": "view",
      "type": "function"
    },
    {
      "inputs": [],
      "name": "symbol",
      "outputs": [
        {
          "internalType": "string",
          "name": "",
          "type": "string"
        }
      ],
      "stateMutability": "view",
      "type": "function"
    },
    {
      "inputs": [
        {
          "internalType": "address",
          "name": "",
          "type": "address"
        }
      ],
      "name": "tokenToPoolForDeposit",
      "outputs": [
        {
          "internalType": "address",
          "name": "",
          "type": "address"
        }
      ],
      "stateMutability": "view",
      "type": "function"
    },
    {
      "inputs": [
        {
          "internalType": "address",
          "name": "",
          "type": "address"
        }
      ],
      "name": "tokenToPoolForWithdraw",
      "outputs": [
        {
          "internalType": "address",
          "name": "",
          "type": "address"
        }
      ],
      "stateMutability": "view",
      "type": "function"
    },
    {
      "inputs": [],
      "name": "totalSupply",
      "outputs": [
        {
          "internalType": "uint256",
          "name": "",
          "type": "uint256"
        }
      ],
      "stateMutability": "view",
      "type": "function"
    },
    {
      "inputs": [
        {
          "internalType": "address",
          "name": "to",
          "type": "address"
        },
        {
          "internalType": "uint256",
          "name": "amount",
          "type": "uint256"
        }
      ],
      "name": "transfer",
      "outputs": [
        {
          "internalType": "bool",
          "name": "",
          "type": "bool"
        }
      ],
      "stateMutability": "nonpayable",
      "type": "function"
    },
    {
      "inputs": [
        {
          "internalType": "address",
          "name": "from",
          "type": "address"
        },
        {
          "internalType": "address",
          "name": "to",
          "type": "address"
        },
        {
          "internalType": "uint256",
          "name": "amount",
          "type": "uint256"
        }
      ],
      "name": "transferFrom",
      "outputs": [
        {
          "internalType": "bool",
          "name": "",
          "type": "bool"
        }
      ],
      "stateMutability": "nonpayable",
      "type": "function"
    },
    {
      "inputs": [
        {
          "internalType": "address",
          "name": "newOwner",
          "type": "address"
        }
      ],
      "name": "transferOwnership",
      "outputs": [],
      "stateMutability": "nonpayable",
      "type": "function"
    },
    {
      "inputs": [
        {
          "internalType": "address",
          "name": "",
          "type": "address"
        }
      ],
      "name": "userBalance",
      "outputs": [
        {
          "internalType": "uint256",
          "name": "",
          "type": "uint256"
        }
      ],
      "stateMutability": "view",
      "type": "function"
    },
    {
      "inputs": [
        {
          "internalType": "uint256",
          "name": "_amount",
          "type": "uint256"
        }
      ],
      "name": "withdraw",
      "outputs": [],
      "stateMutability": "nonpayable",
      "type": "function"
    },
    {
      "inputs": [
        {
          "internalType": "uint256",
          "name": "_type",
          "type": "uint256"
        },
        {
          "internalType": "address",
          "name": "_stablecoin",
          "type": "address"
        },
        {
          "internalType": "uint256",
          "name": "_amount",
          "type": "uint256"
        },
        {
          "internalType": "uint256",
          "name": "_minAmount",
          "type": "uint256"
        }
      ],
      "name": "withdraw",
      "outputs": [],
      "stateMutability": "nonpayable",
      "type": "function"
    },
    {
      "inputs": [],
      "name": "withdrawAll",
      "outputs": [],
      "stateMutability": "nonpayable",
      "type": "function"
    }
  ],
  "transactionHash": "0x973b3ae865d94e6fe485ba05b1641894f5be8125605d10fb4f4256c06ea98cf2",
  "args": [],
  "numDeployments": 1,
  "solcInputHash": "b9c448bd777333c493b11779a47ac07a",
  "bytecode": "0x608060405234801561001057600080fd5b50612e1f806100206000396000f3fe608060405234801561001057600080fd5b50600436106102ad5760003560e01c8063853828b61161017b578063a4366be2116100d8578063c54e44eb1161008c578063dd62ed3e11610071578063dd62ed3e14610627578063e2aa855914610660578063f2fde38b1461067357600080fd5b8063c54e44eb146105e3578063d754bfd5146105fe57600080fd5b8063a9059cbb116100bd578063a9059cbb146105a2578063b5add05a146105b5578063b70b23a3146105c857600080fd5b8063a4366be21461057c578063a457c2d71461058f57600080fd5b80638da5cb5b1161012f57806395d89b411161011457806395d89b41146105255780639d6f17a81461052d5780639df3fe241461056157600080fd5b80638da5cb5b146104f95780638ffbfd9a1461050a57600080fd5b806389a302711161016057806389a30271146104a857806389ae8120146104c35780638a4d786b146104de57600080fd5b8063853828b61461048d578063890f43741461049557600080fd5b806339509351116102295780636190cefb116101dd57806370a08231116101c257806370a0823114610454578063715018a61461047d5780638129fc1c1461048557600080fd5b80636190cefb146104265780636f0372af1461044157600080fd5b8063561414bb1161020e578063561414bb146103c057806358440027146103c85780635cb3b14f1461040357600080fd5b806339509351146103a55780633e7c0e8b146103b857600080fd5b806318160ddd116102805780632453286711610265578063245328671461036e5780632e1a7d4d14610383578063313ce5671461039657600080fd5b806318160ddd1461035357806323b872dd1461035b57600080fd5b80630103c92b146102b257806306fdde03146102e8578063095ea7b3146102fd5780631727e6421461031d575b600080fd5b6102d26102c036600461200a565b60996020526000908152604090205481565b6040516102df9190612033565b60405180910390f35b6102f0610686565b6040516102df919061209f565b61031061030b3660046120c1565b610718565b6040516102df9190612106565b61034661032b36600461200a565b609a602052600090815260409020546001600160a01b031681565b6040516102df919061211d565b6035546102d2565b61031061036936600461212b565b610732565b61038161037c36600461200a565b610758565b005b61038161039136600461217b565b6107e9565b60066040516102df91906121a5565b6103106103b33660046120c1565b610882565b6102d2600181565b6102d2600281565b6103f66103d63660046121b3565b609c602090815260009283526040808420909152908252902054600f0b81565b6040516102df91906121f0565b61031061041136600461200a565b60976020526000908152604090205460ff1681565b61034673111111111111ed1d73f860f57b2798b683f2d32581565b61038161044f3660046121fe565b6108c1565b6102d261046236600461200a565b6001600160a01b031660009081526033602052604090205490565b610381610a62565b610381610a98565b6103816111d1565b6103816104a3366004612275565b611216565b61034673b97ef9ef8734c71904d8002f8b6bc66dd9c48a6e81565b610346731da20ac34187b2d9c74f729b85acb225d3341b2581565b61034673a7d7079b0fead91f3e65f86e8915cb59c1a4c66481565b6065546001600160a01b0316610346565b6103467366357dcace80431aee0a7507e2e361b7e240237081565b6102f06112c3565b61034661053b3660046123b6565b80516020818301810180516098825292820191909301209152546001600160a01b031681565b61034673d586e7f844cea2f87f50152665bcbc2c279d8d7081565b61038161058a366004612443565b6112d2565b61031061059d3660046120c1565b6113a1565b6103106105b03660046120c1565b611400565b6103816105c33660046121b3565b61140e565b61034673c7198437980c041c805a1edcba50c1ce5db9511881565b610346739702230a8ea53601f5cd2dc00fdbc13d4df4a8c781565b61034661060c36600461200a565b609b602052600090815260409020546001600160a01b031681565b6102d26106353660046121b3565b6001600160a01b03918216600090815260346020908152604080832093909416825291909152205490565b61038161066e3660046121fe565b611481565b61038161068136600461200a565b6115c4565b606060368054610695906124b5565b80601f01602080910402602001604051908101604052809291908181526020018280546106c1906124b5565b801561070e5780601f106106e35761010080835404028352916020019161070e565b820191906000526020600020905b8154815290600101906020018083116106f157829003601f168201915b5050505050905090565b60003361072681858561161d565b60019150505b92915050565b6000336107408582856116d1565b61074b858585611733565b60019150505b9392505050565b6065546001600160a01b0316331461078b5760405162461bcd60e51b815260040161078290612513565b60405180910390fd5b6001600160a01b03811660009081526097602052604090819020805460ff19166001179055517f05df81582f58ed21700c8e232f443af6b7255b04e4a2f3aa130391b926f656e4906107de90839061211d565b60405180910390a150565b600061080973b97ef9ef8734c71904d8002f8b6bc66dd9c48a6e83611846565b3360009081526099602052604081208054929350839290919061082d908490612539565b9091555061083d905033826118e7565b336001600160a01b03167f884edad9ce6fa2440d8a54cc123490eb96d2768479d49ff9c7366125a9424364826040516108769190612033565b60405180910390a25050565b3360008181526034602090815260408083206001600160a01b038716845290915281205490919061072690829086906108bc908790612550565b61161d565b6001600160a01b03831660009081526097602052604090205460ff166108f95760405162461bcd60e51b81526004016107829061259a565b61090e6001600160a01b0384163330856119b8565b60006001600160a01b03841673b97ef9ef8734c71904d8002f8b6bc66dd9c48a6e146109dc5760018503610980576001600160a01b038085166000908152609a602052604090205461097991168573b97ef9ef8734c71904d8002f8b6bc66dd9c48a6e868630611a3d565b90506109df565b600285036109c4576001600160a01b038085166000908152609a602052604090205461097991168573b97ef9ef8734c71904d8002f8b6bc66dd9c48a6e8686611acd565b60405162461bcd60e51b8152600401610782906125dc565b50815b33600090815260996020526040812080548392906109fe908490612550565b90915550610a0e90503382611b98565b836001600160a01b0316336001600160a01b03167fdcbc1c05240f31ff3ad067ef1ee35ce4997762752e3a095284754544f4c709d78584604051610a539291906125ec565b60405180910390a35050505050565b6065546001600160a01b03163314610a8c5760405162461bcd60e51b815260040161078290612513565b610a966000611c4d565b565b600054610100900460ff16610ab35760005460ff1615610ab7565b303b155b610ad35760405162461bcd60e51b815260040161078290612661565b600054610100900460ff16158015610af5576000805461ffff19166101011790555b610b696040518060400160405280600c81526020017f536869656c6420546f6b656e00000000000000000000000000000000000000008152506040518060400160405280600381526020017f5348440000000000000000000000000000000000000000000000000000000000815250611cac565b610b71611cdd565b60976020527f7548b632efee72df22594bfd49708315d9850b8d32c2b2dc843b2c21368cfccc8054600160ff1991821681179092557f69e43f24f536fd3d84c8bd37ce68b71464fab1c98015d9bdf125ad046cb14da780548216831790557f91d25400d13b5f4a102fdf4d72274fe271a68710a12419af39642877ebd3de8480548216831790557fb744f339a70c7ed26a36bf7be73dfbd530f22e2cd092833028db0829e2399d6180548216831790557fbf5e33d1e23d27b431f50a41a2b3c6addcaa9043fb2180af99dc5897e84eeb3a805482168317905573111111111111ed1d73f860f57b2798b683f2d3256000527f3382a9b3c632d4939bce307c08e7910babe4d0c8a4cd7d593e480cd04f5e27208054909116909117905560405163095ea7b360e01b815273b97ef9ef8734c71904d8002f8b6bc66dd9c48a6e9063095ea7b390610cdc907366357dcace80431aee0a7507e2e361b7e24023709060001990600401612671565b6020604051808303816000875af1158015610cfb573d6000803e3d6000fd5b505050506040513d601f19601f82011682018060405250810190610d1f919061268a565b5060405163095ea7b360e01b8152739702230a8ea53601f5cd2dc00fdbc13d4df4a8c79063095ea7b390610d6f907366357dcace80431aee0a7507e2e361b7e24023709060001990600401612671565b6020604051808303816000875af1158015610d8e573d6000803e3d6000fd5b505050506040513d601f19601f82011682018060405250810190610db2919061268a565b5060405163095ea7b360e01b815273c7198437980c041c805a1edcba50c1ce5db951189063095ea7b390610e02907366357dcace80431aee0a7507e2e361b7e24023709060001990600401612671565b6020604051808303816000875af1158015610e21573d6000803e3d6000fd5b505050506040513d601f19601f82011682018060405250810190610e45919061268a565b5060405163095ea7b360e01b815273a7d7079b0fead91f3e65f86e8915cb59c1a4c6649063095ea7b390610e95907366357dcace80431aee0a7507e2e361b7e24023709060001990600401612671565b6020604051808303816000875af1158015610eb4573d6000803e3d6000fd5b505050506040513d601f19601f82011682018060405250810190610ed8919061268a565b5060405163095ea7b360e01b815273d586e7f844cea2f87f50152665bcbc2c279d8d709063095ea7b390610f28907366357dcace80431aee0a7507e2e361b7e24023709060001990600401612671565b6020604051808303816000875af1158015610f47573d6000803e3d6000fd5b505050506040513d601f19601f82011682018060405250810190610f6b919061268a565b5060405163095ea7b360e01b815273111111111111ed1d73f860f57b2798b683f2d3259063095ea7b390610fbb90731da20ac34187b2d9c74f729b85acb225d3341b259060001990600401612671565b6020604051808303816000875af1158015610fda573d6000803e3d6000fd5b505050506040513d601f19601f82011682018060405250810190610ffe919061268a565b507f496b32369fa163b4b9877c2a5a29c3daab0353cec19b4116f036a31e9e195a2180546fffffffffffffffffffffffffffffffff199081169091557f077c466b1c31ad3be690f109f3c4a23bfadf4998004f0fe0a379b126527321af8054821660011790557f6ea5f9585fb3f5995c7c2e60d44db58d7a24acfa1dc1c16d49fb44f36f5113ff80549091166002179055609a6020527faf6f47f207b81b1c9ff286d1ec2df0d48e30169885791772048c7bb19a616e9b805473ffffffffffffffffffffffffffffffffffffffff19908116731da20ac34187b2d9c74f729b85acb225d3341b25179091557f34581a2a0d1f4afc7bedf346da9d0252d6bd3318265137e794dab7cac558313b805482167366357dcace80431aee0a7507e2e361b7e24023709081179091557f391265a8976e0e46e3a04a21395ddc41f5ae28fedef5461bb7a48d398c392d0880548316821790557fe78e98982f85277723d21ef70bdf667c3885220521cbf091656d5b0f48f649cf805483168217905573d586e7f844cea2f87f50152665bcbc2c279d8d706000527f2feb349778d25e6c2d4f8973bf457403c9edf3d0ea3bc58461c487d781cefe97805490921617905580156111ce576000805461ff00191690555b50565b336000908152609960205260409020546111fd5760405162461bcd60e51b8152600401610782906126dd565b33600090815260996020526040902054610a96906107e9565b6065546001600160a01b031633146112405760405162461bcd60e51b815260040161078290612513565b8215611282576001600160a01b039182166000908152609a60205260409020805473ffffffffffffffffffffffffffffffffffffffff19169190921617905550565b6001600160a01b038281166000908152609b60205260409020805473ffffffffffffffffffffffffffffffffffffffff19169183169190911790555b505050565b606060378054610695906124b5565b6065546001600160a01b031633146112fc5760405162461bcd60e51b815260040161078290612513565b8060005b8181101561139a576001600160a01b0385166000908152609c602052604081208291868684818110611334576113346126ed565b9050602002016020810190611349919061200a565b6001600160a01b03168152602081019190915260400160002080546fffffffffffffffffffffffffffffffff19166fffffffffffffffffffffffffffffffff92909216919091179055600101611300565b5050505050565b3360008181526034602090815260408083206001600160a01b0387168452909152812054909190838110156113e85760405162461bcd60e51b81526004016107829061275b565b6113f5828686840361161d565b506001949350505050565b600033610726818585611733565b60405163095ea7b360e01b81526001600160a01b0383169063095ea7b39061143e90849060001990600401612671565b6020604051808303816000875af115801561145d573d6000803e3d6000fd5b505050506040513d601f19601f820116820180604052508101906112be919061268a565b6001600160a01b03831660009081526097602052604090205460ff166114b95760405162461bcd60e51b81526004016107829061259a565b336000908152609960205260409020548211156114e85760405162461bcd60e51b8152600401610782906126dd565b60007fffffffffffffffffffffffff4681061078cb38e6fb27ffd074943992263b75926001600160a01b0385160161152857611523836107e9565b61139a565b60018503611574576001600160a01b038085166000908152609b602052604090205461156d911673b97ef9ef8734c71904d8002f8b6bc66dd9c48a6e86868630611a3d565b90506115bb565b600285036115bb576001600160a01b038085166000908152609b60205260409020546115b8911673b97ef9ef8734c71904d8002f8b6bc66dd9c48a6e868686611acd565b90505b61139a816107e9565b6065546001600160a01b031633146115ee5760405162461bcd60e51b815260040161078290612513565b6001600160a01b0381166116145760405162461bcd60e51b8152600401610782906127c3565b6111ce81611c4d565b6001600160a01b0383166116435760405162461bcd60e51b81526004016107829061282b565b6001600160a01b0382166116695760405162461bcd60e51b815260040161078290612893565b6001600160a01b0380841660008181526034602090815260408083209487168084529490915290819020849055517f8c5be1e5ebec7d5bd14f71427d1e84f3dd0314c0f7b2291e5b200ac8c7c3b925906116c4908590612033565b60405180910390a3505050565b6001600160a01b03838116600090815260346020908152604080832093861683529290522054600019811461172d57818110156117205760405162461bcd60e51b8152600401610782906128d5565b61172d848484840361161d565b50505050565b6001600160a01b0383166117595760405162461bcd60e51b81526004016107829061293d565b6001600160a01b03821661177f5760405162461bcd60e51b8152600401610782906129a5565b6001600160a01b038316600090815260336020526040902054818110156117b85760405162461bcd60e51b815260040161078290612a0d565b6001600160a01b038085166000908152603360205260408082208585039055918516815290812080548492906117ef908490612550565b92505081905550826001600160a01b0316846001600160a01b03167fddf252ad1be2c89b69c2b068fc378daa952ba7f163c4a11628f55a4df523b3ef846040516118399190612033565b60405180910390a361172d565b600080836001600160a01b03166370a08231306040518263ffffffff1660e01b8152600401611875919061211d565b602060405180830381865afa158015611892573d6000803e3d6000fd5b505050506040513d601f19601f820116820180604052508101906118b69190612a28565b9050828111156118c8578291506118cc565b8091505b6118e06001600160a01b0385163384611d0c565b5092915050565b6001600160a01b03821661190d5760405162461bcd60e51b815260040161078290612aa1565b6001600160a01b038216600090815260336020526040902054818110156119465760405162461bcd60e51b815260040161078290612b09565b6001600160a01b0383166000908152603360205260408120838303905560358054849290611975908490612539565b90915550506040516000906001600160a01b038516907fddf252ad1be2c89b69c2b068fc378daa952ba7f163c4a11628f55a4df523b3ef906116c4908690612033565b61172d846323b872dd60e01b8585856040516024016119d993929190612b19565b60408051601f198184030181529190526020810180517bffffffffffffffffffffffffffffffffffffffffffffffffffffffff167fffffffff0000000000000000000000000000000000000000000000000000000090931692909217909152611d2b565b60006001600160a01b038716639908fc8b8787878787611a5e42600a612550565b6040518763ffffffff1660e01b8152600401611a7f96959493929190612b41565b60408051808303816000875af1158015611a9d573d6000803e3d6000fd5b505050506040513d601f19601f82011682018060405250810190611ac19190612b90565b50979650505050505050565b6001600160a01b038581166000818152609c6020908152604080832089861684529091528082205493871682528082205490517f3df021240000000000000000000000000000000000000000000000000000000081529193600f90810b9391900b91633df0212490611b4990859085908a908a90600401612bc3565b6020604051808303816000875af1158015611b68573d6000803e3d6000fd5b505050506040513d601f19601f82011682018060405250810190611b8c9190612a28565b98975050505050505050565b6001600160a01b038216611bbe5760405162461bcd60e51b815260040161078290612c33565b8060356000828254611bd09190612550565b90915550506001600160a01b03821660009081526033602052604081208054839290611bfd908490612550565b90915550506040516001600160a01b038316906000907fddf252ad1be2c89b69c2b068fc378daa952ba7f163c4a11628f55a4df523b3ef90611c40908590612033565b60405180910390a35b5050565b606580546001600160a01b0383811673ffffffffffffffffffffffffffffffffffffffff19831681179093556040519116919082907f8be0079c531659141344cd1fd0a4f28419497f9722a3daafe3b4186f6b6457e090600090a35050565b600054610100900460ff16611cd35760405162461bcd60e51b815260040161078290612c9b565b611c498282611dba565b600054610100900460ff16611d045760405162461bcd60e51b815260040161078290612c9b565b610a96611e08565b6112be8363a9059cbb60e01b84846040516024016119d9929190612671565b6000611d80826040518060400160405280602081526020017f5361666545524332303a206c6f772d6c6576656c2063616c6c206661696c6564815250856001600160a01b0316611e389092919063ffffffff16565b8051909150156112be5780806020019051810190611d9e919061268a565b6112be5760405162461bcd60e51b815260040161078290612d03565b600054610100900460ff16611de15760405162461bcd60e51b815260040161078290612c9b565b8151611df4906036906020850190611f41565b5080516112be906037906020840190611f41565b600054610100900460ff16611e2f5760405162461bcd60e51b815260040161078290612c9b565b610a9633611c4d565b6060611e478484600085611e4f565b949350505050565b606082471015611e715760405162461bcd60e51b815260040161078290612d6b565b843b611e8f5760405162461bcd60e51b815260040161078290612dad565b600080866001600160a01b03168587604051611eab9190612ddf565b60006040518083038185875af1925050503d8060008114611ee8576040519150601f19603f3d011682016040523d82523d6000602084013e611eed565b606091505b5091509150611efd828286611f08565b979650505050505050565b60608315611f17575081610751565b825115611f275782518084602001fd5b8160405162461bcd60e51b8152600401610782919061209f565b828054611f4d906124b5565b90600052602060002090601f016020900481019282611f6f5760008555611fb5565b82601f10611f8857805160ff1916838001178555611fb5565b82800160010185558215611fb5579182015b82811115611fb5578251825591602001919060010190611f9a565b50611fc1929150611fc5565b5090565b5b80821115611fc15760008155600101611fc6565b60006001600160a01b03821661072c565b611ff481611fda565b81146111ce57600080fd5b803561072c81611feb565b60006020828403121561201f5761201f600080fd5b6000611e478484611fff565b805b82525050565b6020810161072c828461202b565b60005b8381101561205c578181015183820152602001612044565b8381111561172d5750506000910152565b6000612077825190565b80845260208401935061208e818560208601612041565b601f01601f19169290920192915050565b60208082528101610751818461206d565b80611ff4565b803561072c816120b0565b600080604083850312156120d7576120d7600080fd5b60006120e38585611fff565b92505060206120f4858286016120b6565b9150509250929050565b80151561202d565b6020810161072c82846120fe565b61202d81611fda565b6020810161072c8284612114565b60008060006060848603121561214357612143600080fd5b600061214f8686611fff565b935050602061216086828701611fff565b9250506040612171868287016120b6565b9150509250925092565b60006020828403121561219057612190600080fd5b6000611e4784846120b6565b60ff811661202d565b6020810161072c828461219c565b600080604083850312156121c9576121c9600080fd5b60006121d58585611fff565b92505060206120f485828601611fff565b61202d81600f0b90565b6020810161072c82846121e6565b6000806000806080858703121561221757612217600080fd5b600061222387876120b6565b945050602061223487828801611fff565b9350506040612245878288016120b6565b9250506060612256878288016120b6565b91505092959194509250565b801515611ff4565b803561072c81612262565b60008060006060848603121561228d5761228d600080fd5b6000612299868661226a565b93505060206122aa86828701611fff565b925050604061217186828701611fff565b634e487b7160e01b600052604160045260246000fd5b601f19601f830116810181811067ffffffffffffffff821117156122f7576122f76122bb565b6040525050565b600061230960405190565b905061231582826122d1565b919050565b600067ffffffffffffffff821115612334576123346122bb565b601f19601f83011660200192915050565b82818337506000910152565b600061236461235f8461231a565b6122fe565b90508281526020810184848401111561237f5761237f600080fd5b61238a848285612345565b509392505050565b600082601f8301126123a6576123a6600080fd5b8135611e47848260208601612351565b6000602082840312156123cb576123cb600080fd5b813567ffffffffffffffff8111156123e5576123e5600080fd5b611e4784828501612392565b60008083601f84011261240657612406600080fd5b50813567ffffffffffffffff81111561242157612421600080fd5b60208301915083602082028301111561243c5761243c600080fd5b9250929050565b60008060006040848603121561245b5761245b600080fd5b60006124678686611fff565b935050602084013567ffffffffffffffff81111561248757612487600080fd5b612493868287016123f1565b92509250509250925092565b634e487b7160e01b600052602260045260246000fd5b6002810460018216806124c957607f821691505b6020821081036124db576124db61249f565b50919050565b60208082527f4f776e61626c653a2063616c6c6572206973206e6f7420746865206f776e657291019081525b60200190565b6020808252810161072c816124e1565b634e487b7160e01b600052601160045260246000fd5b60008282101561254b5761254b612523565b500390565b6000821982111561256357612563612523565b500190565b60188152602081017f537461626c65636f696e206e6f7420737570706f7274656400000000000000008152905061250d565b6020808252810161072c81612568565b600c8152602081017f4e6f2073776170207061697200000000000000000000000000000000000000008152905061250d565b6020808252810161072c816125aa565b604081016125fa828561202b565b610751602083018461202b565b602e8152602081017f496e697469616c697a61626c653a20636f6e747261637420697320616c72656181527f647920696e697469616c697a6564000000000000000000000000000000000000602082015290505b60400190565b6020808252810161072c81612607565b604081016125fa8285612114565b805161072c81612262565b60006020828403121561269f5761269f600080fd5b6000611e47848461267f565b60148152602081017f496e73756666696369656e742062616c616e63650000000000000000000000008152905061250d565b6020808252810161072c816126ab565b634e487b7160e01b600052603260045260246000fd5b60258152602081017f45524332303a2064656372656173656420616c6c6f77616e63652062656c6f7781527f207a65726f0000000000000000000000000000000000000000000000000000006020820152905061265b565b6020808252810161072c81612703565b60268152602081017f4f776e61626c653a206e6577206f776e657220697320746865207a65726f206181527f64647265737300000000000000000000000000000000000000000000000000006020820152905061265b565b6020808252810161072c8161276b565b60248152602081017f45524332303a20617070726f76652066726f6d20746865207a65726f2061646481527f72657373000000000000000000000000000000000000000000000000000000006020820152905061265b565b6020808252810161072c816127d3565b60228152602081017f45524332303a20617070726f766520746f20746865207a65726f20616464726581527f73730000000000000000000000000000000000000000000000000000000000006020820152905061265b565b6020808252810161072c8161283b565b601d8152602081017f45524332303a20696e73756666696369656e7420616c6c6f77616e63650000008152905061250d565b6020808252810161072c816128a3565b60258152602081017f45524332303a207472616e736665722066726f6d20746865207a65726f20616481527f64726573730000000000000000000000000000000000000000000000000000006020820152905061265b565b6020808252810161072c816128e5565b60238152602081017f45524332303a207472616e7366657220746f20746865207a65726f206164647281527f65737300000000000000000000000000000000000000000000000000000000006020820152905061265b565b6020808252810161072c8161294d565b60268152602081017f45524332303a207472616e7366657220616d6f756e742065786365656473206281527f616c616e636500000000000000000000000000000000000000000000000000006020820152905061265b565b6020808252810161072c816129b5565b805161072c816120b0565b600060208284031215612a3d57612a3d600080fd5b6000611e478484612a1d565b60218152602081017f45524332303a206275726e2066726f6d20746865207a65726f2061646472657381527f73000000000000000000000000000000000000000000000000000000000000006020820152905061265b565b6020808252810161072c81612a49565b60228152602081017f45524332303a206275726e20616d6f756e7420657863656564732062616c616e81527f63650000000000000000000000000000000000000000000000000000000000006020820152905061265b565b6020808252810161072c81612ab1565b60608101612b278286612114565b612b346020830185612114565b611e47604083018461202b565b60c08101612b4f8289612114565b612b5c6020830188612114565b612b69604083018761202b565b612b76606083018661202b565b612b836080830185612114565b611efd60a083018461202b565b60008060408385031215612ba657612ba6600080fd5b6000612bb28585612a1d565b92505060206120f485828601612a1d565b60808101612bd182876121e6565b612bde60208301866121e6565b612beb604083018561202b565b612bf8606083018461202b565b95945050505050565b601f8152602081017f45524332303a206d696e7420746f20746865207a65726f2061646472657373008152905061250d565b6020808252810161072c81612c01565b602b8152602081017f496e697469616c697a61626c653a20636f6e7472616374206973206e6f74206981527f6e697469616c697a696e670000000000000000000000000000000000000000006020820152905061265b565b6020808252810161072c81612c43565b602a8152602081017f5361666545524332303a204552433230206f7065726174696f6e20646964206e81527f6f742073756363656564000000000000000000000000000000000000000000006020820152905061265b565b6020808252810161072c81612cab565b60268152602081017f416464726573733a20696e73756666696369656e742062616c616e636520666f81527f722063616c6c00000000000000000000000000000000000000000000000000006020820152905061265b565b6020808252810161072c81612d13565b601d8152602081017f416464726573733a2063616c6c20746f206e6f6e2d636f6e74726163740000008152905061250d565b6020808252810161072c81612d7b565b6000612dc7825190565b612dd5818560208601612041565b9290920192915050565b61072c8183612dbd56fea26469706673582212208e2a83e00c36fd13af9c884f701402436d70cbf85cff06a44c8cac31cb838ce964736f6c634300080d0033",
  "devdoc": {
    "author": "Eric Lee (ylikp.ust@gmail.com)",
    "details": "Users can swap other stablecoins to Shield (actually backed by USDC only)         Shield can be used in NaughtyPrice and future products         When users want to withdraw, their shield tokens will be burned         and USDC will be sent back to them (if no sepecific choice)             other stablecoins will be sent back to them (if have sepecific choice)         Currently, the swap is done inside Platypus & Curve         The stablecoin and its swapping pool should be supported         When deposit, the toToken is USDC, which pool to use depends on tokenToPoolForDeposit(token)         When withdraw, the fromToken is USDC, which pool to use depends on tokenToPoolForWithdraw(token)",
    "kind": "dev",
    "methods": {
      "addCurvePool(address,address[])": {
        "params": {
          "_pool": "Curve pool address",
          "_tokens": "Tokens inside this pool"
        }
      },
      "addSupportedStablecoin(address)": {
        "details": "Set a new supported token address      Only callable by the owner",
        "params": {
          "_stablecoin": "Stablecoin address"
        }
      },
      "allowance(address,address)": {
        "details": "See {IERC20-allowance}."
      },
      "approve(address,uint256)": {
        "details": "See {IERC20-approve}. NOTE: If `amount` is the maximum `uint256`, the allowance is not updated on `transferFrom`. This is semantically equivalent to an infinite approval. Requirements: - `spender` cannot be the zero address."
      },
      "approveStablecoin(address,address)": {
        "params": {
          "_contract": "Contract address to give allowance",
          "_token": "Stablecoin address"
        }
      },
      "balanceOf(address)": {
        "details": "See {IERC20-balanceOf}."
      },
      "decreaseAllowance(address,uint256)": {
        "details": "Atomically decreases the allowance granted to `spender` by the caller. This is an alternative to {approve} that can be used as a mitigation for problems described in {IERC20-approve}. Emits an {Approval} event indicating the updated allowance. Requirements: - `spender` cannot be the zero address. - `spender` must have allowance for the caller of at least `subtractedValue`."
      },
      "deposit(uint256,address,uint256,uint256)": {
        "params": {
          "_amount": "Input stablecoin amount",
          "_minAmount": "Minimum amount output (if need swap)",
          "_stablecoin": "Stablecoin address"
        }
      },
      "increaseAllowance(address,uint256)": {
        "details": "Atomically increases the allowance granted to `spender` by the caller. This is an alternative to {approve} that can be used as a mitigation for problems described in {IERC20-approve}. Emits an {Approval} event indicating the updated allowance. Requirements: - `spender` cannot be the zero address."
      },
      "name()": {
        "details": "Returns the name of the token."
      },
      "owner()": {
        "details": "Returns the address of the current owner."
      },
      "renounceOwnership()": {
        "details": "Leaves the contract without owner. It will not be possible to call `onlyOwner` functions anymore. Can only be called by the current owner. NOTE: Renouncing ownership will leave the contract without an owner, thereby removing any functionality that is only available to the owner."
      },
      "symbol()": {
        "details": "Returns the symbol of the token, usually a shorter version of the name."
      },
      "totalSupply()": {
        "details": "See {IERC20-totalSupply}."
      },
      "transfer(address,uint256)": {
        "details": "See {IERC20-transfer}. Requirements: - `to` cannot be the zero address. - the caller must have a balance of at least `amount`."
      },
      "transferFrom(address,address,uint256)": {
        "details": "See {IERC20-transferFrom}. Emits an {Approval} event indicating the updated allowance. This is not required by the EIP. See the note at the beginning of {ERC20}. NOTE: Does not update the allowance if the current allowance is the maximum `uint256`. Requirements: - `from` and `to` cannot be the zero address. - `from` must have a balance of at least `amount`. - the caller must have allowance for ``from``'s tokens of at least `amount`."
      },
      "transferOwnership(address)": {
        "details": "Transfers ownership of the contract to a new account (`newOwner`). Can only be called by the current owner."
      },
      "withdraw(uint256)": {
        "params": {
          "_amount": "Amount of Shield to be burned"
        }
      },
      "withdraw(uint256,address,uint256,uint256)": {
        "params": {
          "_amount": "Amount of shield to burn",
          "_minAmount": "Minimum amount of stablecoin to withdraw (if need swap)",
          "_stablecoin": "Stablecoin address",
          "_type": "Swap type (use PTP/Curve, which pool)"
        }
      }
    },
    "title": "Shield Token (Derived Stablecoin on Degis)",
    "version": 1
  },
  "userdoc": {
    "kind": "user",
    "methods": {
      "addCurvePool(address,address[])": {
        "notice": "Add new curve pool"
      },
      "addSupportedStablecoin(address)": {
        "notice": "Add new supported stablecoin"
      },
      "approveStablecoin(address,address)": {
        "notice": "Approve a stablecoin for swapping         Call once for each stablecoin"
      },
      "decimals()": {
        "notice": "Shield has 6 decimals"
      },
      "deposit(uint256,address,uint256,uint256)": {
        "notice": "Deposit tokens and mint Shield         If the input is USDC, no swap needed, otherwise, swap to USDC"
      },
      "withdraw(uint256)": {
        "notice": "Withdraw USDC"
      },
      "withdraw(uint256,address,uint256,uint256)": {
        "notice": "Withdraw stablecoins and burn shield"
      },
      "withdrawAll()": {
        "notice": "Withdraw all of a user's balance         This function only return USDC back"
      }
    },
    "version": 1
  },
  "storageLayout": {
    "storage": [
      {
        "astId": 2670,
        "contract": "contracts/tokens/Shield.sol:Shield",
        "label": "_initialized",
        "offset": 0,
        "slot": "0",
        "type": "t_bool"
      },
      {
        "astId": 2673,
        "contract": "contracts/tokens/Shield.sol:Shield",
        "label": "_initializing",
        "offset": 1,
        "slot": "0",
        "type": "t_bool"
      },
      {
        "astId": 3907,
        "contract": "contracts/tokens/Shield.sol:Shield",
        "label": "__gap",
        "offset": 0,
        "slot": "1",
        "type": "t_array(t_uint256)50_storage"
      },
      {
        "astId": 2926,
        "contract": "contracts/tokens/Shield.sol:Shield",
        "label": "_balances",
        "offset": 0,
        "slot": "51",
        "type": "t_mapping(t_address,t_uint256)"
      },
      {
        "astId": 2932,
        "contract": "contracts/tokens/Shield.sol:Shield",
        "label": "_allowances",
        "offset": 0,
        "slot": "52",
        "type": "t_mapping(t_address,t_mapping(t_address,t_uint256))"
      },
      {
        "astId": 2934,
        "contract": "contracts/tokens/Shield.sol:Shield",
        "label": "_totalSupply",
        "offset": 0,
        "slot": "53",
        "type": "t_uint256"
      },
      {
        "astId": 2936,
        "contract": "contracts/tokens/Shield.sol:Shield",
        "label": "_name",
        "offset": 0,
        "slot": "54",
        "type": "t_string_storage"
      },
      {
        "astId": 2938,
        "contract": "contracts/tokens/Shield.sol:Shield",
        "label": "_symbol",
        "offset": 0,
        "slot": "55",
        "type": "t_string_storage"
      },
      {
        "astId": 3519,
        "contract": "contracts/tokens/Shield.sol:Shield",
        "label": "__gap",
        "offset": 0,
        "slot": "56",
        "type": "t_array(t_uint256)45_storage"
      },
      {
        "astId": 2550,
        "contract": "contracts/tokens/Shield.sol:Shield",
        "label": "_owner",
        "offset": 0,
        "slot": "101",
        "type": "t_address"
      },
      {
        "astId": 2662,
        "contract": "contracts/tokens/Shield.sol:Shield",
        "label": "__gap",
        "offset": 0,
        "slot": "102",
        "type": "t_array(t_uint256)49_storage"
      },
      {
        "astId": 38910,
        "contract": "contracts/tokens/Shield.sol:Shield",
        "label": "supportedStablecoin",
        "offset": 0,
        "slot": "151",
        "type": "t_mapping(t_address,t_bool)"
      },
      {
        "astId": 38914,
        "contract": "contracts/tokens/Shield.sol:Shield",
        "label": "pools",
        "offset": 0,
        "slot": "152",
        "type": "t_mapping(t_string_memory_ptr,t_address)"
      },
      {
        "astId": 38918,
        "contract": "contracts/tokens/Shield.sol:Shield",
        "label": "userBalance",
        "offset": 0,
        "slot": "153",
        "type": "t_mapping(t_address,t_uint256)"
      },
      {
        "astId": 38922,
        "contract": "contracts/tokens/Shield.sol:Shield",
        "label": "tokenToPoolForDeposit",
        "offset": 0,
        "slot": "154",
        "type": "t_mapping(t_address,t_address)"
      },
      {
        "astId": 38926,
        "contract": "contracts/tokens/Shield.sol:Shield",
        "label": "tokenToPoolForWithdraw",
        "offset": 0,
        "slot": "155",
        "type": "t_mapping(t_address,t_address)"
      },
      {
        "astId": 38932,
        "contract": "contracts/tokens/Shield.sol:Shield",
        "label": "curvePoolTokenIndex",
        "offset": 0,
        "slot": "156",
        "type": "t_mapping(t_address,t_mapping(t_address,t_int128))"
      }
    ],
    "types": {
      "t_address": {
        "encoding": "inplace",
        "label": "address",
        "numberOfBytes": "20"
      },
      "t_array(t_uint256)45_storage": {
        "base": "t_uint256",
        "encoding": "inplace",
        "label": "uint256[45]",
        "numberOfBytes": "1440"
      },
      "t_array(t_uint256)49_storage": {
        "base": "t_uint256",
        "encoding": "inplace",
        "label": "uint256[49]",
        "numberOfBytes": "1568"
      },
      "t_array(t_uint256)50_storage": {
        "base": "t_uint256",
        "encoding": "inplace",
        "label": "uint256[50]",
        "numberOfBytes": "1600"
      },
      "t_bool": {
        "encoding": "inplace",
        "label": "bool",
        "numberOfBytes": "1"
      },
      "t_int128": {
        "encoding": "inplace",
        "label": "int128",
        "numberOfBytes": "16"
      },
      "t_mapping(t_address,t_address)": {
        "encoding": "mapping",
        "key": "t_address",
        "label": "mapping(address => address)",
        "numberOfBytes": "32",
        "value": "t_address"
      },
      "t_mapping(t_address,t_bool)": {
        "encoding": "mapping",
        "key": "t_address",
        "label": "mapping(address => bool)",
        "numberOfBytes": "32",
        "value": "t_bool"
      },
      "t_mapping(t_address,t_int128)": {
        "encoding": "mapping",
        "key": "t_address",
        "label": "mapping(address => int128)",
        "numberOfBytes": "32",
        "value": "t_int128"
      },
      "t_mapping(t_address,t_mapping(t_address,t_int128))": {
        "encoding": "mapping",
        "key": "t_address",
        "label": "mapping(address => mapping(address => int128))",
        "numberOfBytes": "32",
        "value": "t_mapping(t_address,t_int128)"
      },
      "t_mapping(t_address,t_mapping(t_address,t_uint256))": {
        "encoding": "mapping",
        "key": "t_address",
        "label": "mapping(address => mapping(address => uint256))",
        "numberOfBytes": "32",
        "value": "t_mapping(t_address,t_uint256)"
      },
      "t_mapping(t_address,t_uint256)": {
        "encoding": "mapping",
        "key": "t_address",
        "label": "mapping(address => uint256)",
        "numberOfBytes": "32",
        "value": "t_uint256"
      },
      "t_mapping(t_string_memory_ptr,t_address)": {
        "encoding": "mapping",
        "key": "t_string_memory_ptr",
        "label": "mapping(string => address)",
        "numberOfBytes": "32",
        "value": "t_address"
      },
      "t_string_memory_ptr": {
        "encoding": "bytes",
        "label": "string",
        "numberOfBytes": "32"
      },
      "t_string_storage": {
        "encoding": "bytes",
        "label": "string",
        "numberOfBytes": "32"
      },
      "t_uint256": {
        "encoding": "inplace",
        "label": "uint256",
        "numberOfBytes": "32"
      }
    }
  }
}