{
  "address": "0x8338A551a0D5cA547A4203A5e7169d8f1Fbbd48d",
  "abi": [
    {
      "anonymous": false,
      "inputs": [
        {
          "indexed": false,
          "internalType": "address",
          "name": "stablecoin",
          "type": "address"
        }
      ],
      "name": "AddStablecoin",
      "type": "event"
    },
    {
      "anonymous": false,
      "inputs": [
        {
          "indexed": true,
          "internalType": "address",
          "name": "owner",
          "type": "address"
        },
        {
          "indexed": true,
          "internalType": "address",
          "name": "spender",
          "type": "address"
        },
        {
          "indexed": false,
          "internalType": "uint256",
          "name": "value",
          "type": "uint256"
        }
      ],
      "name": "Approval",
      "type": "event"
    },
    {
      "anonymous": false,
      "inputs": [
        {
          "indexed": true,
          "internalType": "address",
          "name": "user",
          "type": "address"
        },
        {
          "indexed": true,
          "internalType": "address",
          "name": "stablecoin",
          "type": "address"
        },
        {
          "indexed": false,
          "internalType": "uint256",
          "name": "inAmount",
          "type": "uint256"
        },
        {
          "indexed": false,
          "internalType": "uint256",
          "name": "outAmount",
          "type": "uint256"
        }
      ],
      "name": "Deposit",
      "type": "event"
    },
    {
      "anonymous": false,
      "inputs": [
        {
          "indexed": true,
          "internalType": "address",
          "name": "previousOwner",
          "type": "address"
        },
        {
          "indexed": true,
          "internalType": "address",
          "name": "newOwner",
          "type": "address"
        }
      ],
      "name": "OwnershipTransferred",
      "type": "event"
    },
    {
      "anonymous": false,
      "inputs": [
        {
          "indexed": true,
          "internalType": "address",
          "name": "from",
          "type": "address"
        },
        {
          "indexed": true,
          "internalType": "address",
          "name": "to",
          "type": "address"
        },
        {
          "indexed": false,
          "internalType": "uint256",
          "name": "value",
          "type": "uint256"
        }
      ],
      "name": "Transfer",
      "type": "event"
    },
    {
      "anonymous": false,
      "inputs": [
        {
          "indexed": true,
          "internalType": "address",
          "name": "user",
          "type": "address"
        },
        {
          "indexed": false,
          "internalType": "uint256",
          "name": "amount",
          "type": "uint256"
        }
      ],
      "name": "Withdraw",
      "type": "event"
    },
    {
      "inputs": [],
      "name": "CURVE_SWAP",
      "outputs": [
        {
          "internalType": "uint256",
          "name": "",
          "type": "uint256"
        }
      ],
      "stateMutability": "view",
      "type": "function"
    },
    {
      "inputs": [],
      "name": "CURVE_YUSD",
      "outputs": [
        {
          "internalType": "address",
          "name": "",
          "type": "address"
        }
      ],
      "stateMutability": "view",
      "type": "function"
    },
    {
      "inputs": [],
      "name": "DAIe",
      "outputs": [
        {
          "internalType": "address",
          "name": "",
          "type": "address"
        }
      ],
      "stateMutability": "view",
      "type": "function"
    },
    {
      "inputs": [],
      "name": "PLATYPUS_SWAP",
      "outputs": [
        {
          "internalType": "uint256",
          "name": "",
          "type": "uint256"
        }
      ],
      "stateMutability": "view",
      "type": "function"
    },
    {
      "inputs": [],
      "name": "PTP_MAIN",
      "outputs": [
        {
          "internalType": "address",
          "name": "",
          "type": "address"
        }
      ],
      "stateMutability": "view",
      "type": "function"
    },
    {
      "inputs": [],
      "name": "USDC",
      "outputs": [
        {
          "internalType": "address",
          "name": "",
          "type": "address"
        }
      ],
      "stateMutability": "view",
      "type": "function"
    },
    {
      "inputs": [],
      "name": "USDCe",
      "outputs": [
        {
          "internalType": "address",
          "name": "",
          "type": "address"
        }
      ],
      "stateMutability": "view",
      "type": "function"
    },
    {
      "inputs": [],
      "name": "USDT",
      "outputs": [
        {
          "internalType": "address",
          "name": "",
          "type": "address"
        }
      ],
      "stateMutability": "view",
      "type": "function"
    },
    {
      "inputs": [],
      "name": "USDTe",
      "outputs": [
        {
          "internalType": "address",
          "name": "",
          "type": "address"
        }
      ],
      "stateMutability": "view",
      "type": "function"
    },
    {
      "inputs": [],
      "name": "YUSD",
      "outputs": [
        {
          "internalType": "address",
          "name": "",
          "type": "address"
        }
      ],
      "stateMutability": "view",
      "type": "function"
    },
    {
      "inputs": [
        {
          "internalType": "address",
          "name": "_pool",
          "type": "address"
        },
        {
          "internalType": "address[]",
          "name": "_tokens",
          "type": "address[]"
        }
      ],
      "name": "addCurvePool",
      "outputs": [],
      "stateMutability": "nonpayable",
      "type": "function"
    },
    {
      "inputs": [
        {
          "internalType": "address",
          "name": "_stablecoin",
          "type": "address"
        }
      ],
      "name": "addSupportedStablecoin",
      "outputs": [],
      "stateMutability": "nonpayable",
      "type": "function"
    },
    {
      "inputs": [
        {
          "internalType": "address",
          "name": "owner",
          "type": "address"
        },
        {
          "internalType": "address",
          "name": "spender",
          "type": "address"
        }
      ],
      "name": "allowance",
      "outputs": [
        {
          "internalType": "uint256",
          "name": "",
          "type": "uint256"
        }
      ],
      "stateMutability": "view",
      "type": "function"
    },
    {
      "inputs": [
        {
          "internalType": "address",
          "name": "spender",
          "type": "address"
        },
        {
          "internalType": "uint256",
          "name": "amount",
          "type": "uint256"
        }
      ],
      "name": "approve",
      "outputs": [
        {
          "internalType": "bool",
          "name": "",
          "type": "bool"
        }
      ],
      "stateMutability": "nonpayable",
      "type": "function"
    },
    {
      "inputs": [
        {
          "internalType": "address",
          "name": "_token",
          "type": "address"
        },
        {
          "internalType": "address",
          "name": "_contract",
          "type": "address"
        }
      ],
      "name": "approveStablecoin",
      "outputs": [],
      "stateMutability": "nonpayable",
      "type": "function"
    },
    {
      "inputs": [
        {
          "internalType": "address",
          "name": "account",
          "type": "address"
        }
      ],
      "name": "balanceOf",
      "outputs": [
        {
          "internalType": "uint256",
          "name": "",
          "type": "uint256"
        }
      ],
      "stateMutability": "view",
      "type": "function"
    },
    {
      "inputs": [
        {
          "internalType": "address",
          "name": "",
          "type": "address"
        },
        {
          "internalType": "address",
          "name": "",
          "type": "address"
        }
      ],
      "name": "curvePoolTokenIndex",
      "outputs": [
        {
          "internalType": "int128",
          "name": "",
          "type": "int128"
        }
      ],
      "stateMutability": "view",
      "type": "function"
    },
    {
      "inputs": [],
      "name": "decimals",
      "outputs": [
        {
          "internalType": "uint8",
          "name": "",
          "type": "uint8"
        }
      ],
      "stateMutability": "pure",
      "type": "function"
    },
    {
      "inputs": [
        {
          "internalType": "address",
          "name": "spender",
          "type": "address"
        },
        {
          "internalType": "uint256",
          "name": "subtractedValue",
          "type": "uint256"
        }
      ],
      "name": "decreaseAllowance",
      "outputs": [
        {
          "internalType": "bool",
          "name": "",
          "type": "bool"
        }
      ],
      "stateMutability": "nonpayable",
      "type": "function"
    },
    {
      "inputs": [
        {
          "internalType": "uint256",
          "name": "_type",
          "type": "uint256"
        },
        {
          "internalType": "address",
          "name": "_stablecoin",
          "type": "address"
        },
        {
          "internalType": "uint256",
          "name": "_amount",
          "type": "uint256"
        },
        {
          "internalType": "uint256",
          "name": "_minAmount",
          "type": "uint256"
        }
      ],
      "name": "deposit",
      "outputs": [],
      "stateMutability": "nonpayable",
      "type": "function"
    },
    {
      "inputs": [
        {
          "internalType": "address",
          "name": "spender",
          "type": "address"
        },
        {
          "internalType": "uint256",
          "name": "addedValue",
          "type": "uint256"
        }
      ],
      "name": "increaseAllowance",
      "outputs": [
        {
          "internalType": "bool",
          "name": "",
          "type": "bool"
        }
      ],
      "stateMutability": "nonpayable",
      "type": "function"
    },
    {
      "inputs": [],
      "name": "initialize",
      "outputs": [],
      "stateMutability": "nonpayable",
      "type": "function"
    },
    {
      "inputs": [],
      "name": "name",
      "outputs": [
        {
          "internalType": "string",
          "name": "",
          "type": "string"
        }
      ],
      "stateMutability": "view",
      "type": "function"
    },
    {
      "inputs": [],
      "name": "owner",
      "outputs": [
        {
          "internalType": "address",
          "name": "",
          "type": "address"
        }
      ],
      "stateMutability": "view",
      "type": "function"
    },
    {
      "inputs": [
        {
          "internalType": "string",
          "name": "",
          "type": "string"
        }
      ],
      "name": "pools",
      "outputs": [
        {
          "internalType": "address",
          "name": "",
          "type": "address"
        }
      ],
      "stateMutability": "view",
      "type": "function"
    },
    {
      "inputs": [],
      "name": "renounceOwnership",
      "outputs": [],
      "stateMutability": "nonpayable",
      "type": "function"
    },
    {
      "inputs": [
        {
          "internalType": "bool",
          "name": "_isDeposit",
          "type": "bool"
        },
        {
          "internalType": "address",
          "name": "_token",
          "type": "address"
        },
        {
          "internalType": "address",
          "name": "_pool",
          "type": "address"
        }
      ],
      "name": "setTokenToPool",
      "outputs": [],
      "stateMutability": "nonpayable",
      "type": "function"
    },
    {
      "inputs": [
        {
          "internalType": "address",
          "name": "",
          "type": "address"
        }
      ],
      "name": "supportedStablecoin",
      "outputs": [
        {
          "internalType": "bool",
          "name": "",
          "type": "bool"
        }
      ],
      "stateMutability": "view",
      "type": "function"
    },
    {
      "inputs": [],
      "name": "symbol",
      "outputs": [
        {
          "internalType": "string",
          "name": "",
          "type": "string"
        }
      ],
      "stateMutability": "view",
      "type": "function"
    },
    {
      "inputs": [
        {
          "internalType": "address",
          "name": "",
          "type": "address"
        }
      ],
      "name": "tokenToPoolForDeposit",
      "outputs": [
        {
          "internalType": "address",
          "name": "",
          "type": "address"
        }
      ],
      "stateMutability": "view",
      "type": "function"
    },
    {
      "inputs": [
        {
          "internalType": "address",
          "name": "",
          "type": "address"
        }
      ],
      "name": "tokenToPoolForWithdraw",
      "outputs": [
        {
          "internalType": "address",
          "name": "",
          "type": "address"
        }
      ],
      "stateMutability": "view",
      "type": "function"
    },
    {
      "inputs": [],
      "name": "totalSupply",
      "outputs": [
        {
          "internalType": "uint256",
          "name": "",
          "type": "uint256"
        }
      ],
      "stateMutability": "view",
      "type": "function"
    },
    {
      "inputs": [
        {
          "internalType": "address",
          "name": "to",
          "type": "address"
        },
        {
          "internalType": "uint256",
          "name": "amount",
          "type": "uint256"
        }
      ],
      "name": "transfer",
      "outputs": [
        {
          "internalType": "bool",
          "name": "",
          "type": "bool"
        }
      ],
      "stateMutability": "nonpayable",
      "type": "function"
    },
    {
      "inputs": [
        {
          "internalType": "address",
          "name": "from",
          "type": "address"
        },
        {
          "internalType": "address",
          "name": "to",
          "type": "address"
        },
        {
          "internalType": "uint256",
          "name": "amount",
          "type": "uint256"
        }
      ],
      "name": "transferFrom",
      "outputs": [
        {
          "internalType": "bool",
          "name": "",
          "type": "bool"
        }
      ],
      "stateMutability": "nonpayable",
      "type": "function"
    },
    {
      "inputs": [
        {
          "internalType": "address",
          "name": "newOwner",
          "type": "address"
        }
      ],
      "name": "transferOwnership",
      "outputs": [],
      "stateMutability": "nonpayable",
      "type": "function"
    },
    {
      "inputs": [
        {
          "internalType": "address",
          "name": "",
          "type": "address"
        }
      ],
      "name": "userBalance",
      "outputs": [
        {
          "internalType": "uint256",
          "name": "",
          "type": "uint256"
        }
      ],
      "stateMutability": "view",
      "type": "function"
    },
    {
      "inputs": [
        {
          "internalType": "address",
          "name": "_stablecoin",
          "type": "address"
        },
        {
          "internalType": "uint256",
          "name": "_stablecoinAmount",
          "type": "uint256"
        },
        {
          "internalType": "uint256",
          "name": "_shieldAmount",
          "type": "uint256"
        }
      ],
      "name": "withdraw",
      "outputs": [],
      "stateMutability": "nonpayable",
      "type": "function"
    },
    {
      "inputs": [
        {
          "internalType": "uint256",
          "name": "_type",
          "type": "uint256"
        },
        {
          "internalType": "address",
          "name": "_stablecoin",
          "type": "address"
        },
        {
          "internalType": "uint256",
          "name": "_amount",
          "type": "uint256"
        },
        {
          "internalType": "uint256",
          "name": "_minAmount",
          "type": "uint256"
        }
      ],
      "name": "withdraw",
      "outputs": [],
      "stateMutability": "nonpayable",
      "type": "function"
    },
    {
      "inputs": [],
      "name": "withdrawAll",
      "outputs": [],
      "stateMutability": "nonpayable",
      "type": "function"
    }
  ],
  "transactionHash": "0x325125faccf5866f3b02ebc2990f76019980e91dff8c90671dc99be6c3c570ef",
  "args": [],
  "numDeployments": 3,
  "solcInputHash": "a239eb30b1bb59fb2f703e245832f848",
  "bytecode": "0x608060405234801561001057600080fd5b50612f0d806100206000396000f3fe608060405234801561001057600080fd5b50600436106102ad5760003560e01c8063890f43741161017b578063a457c2d7116100d8578063c54e44eb1161008c578063dd62ed3e11610071578063dd62ed3e14610627578063e2aa855914610660578063f2fde38b1461067357600080fd5b8063c54e44eb146105e3578063d754bfd5146105fe57600080fd5b8063b5add05a116100bd578063b5add05a146105a2578063b5c5f672146105b5578063b70b23a3146105c857600080fd5b8063a457c2d71461057c578063a9059cbb1461058f57600080fd5b80638ffbfd9a1161012f5780639d6f17a8116101145780639d6f17a81461051a5780639df3fe241461054e578063a4366be21461056957600080fd5b80638ffbfd9a146104f757806395d89b411461051257600080fd5b806389ae81201161016057806389ae8120146104b05780638a4d786b146104cb5780638da5cb5b146104e657600080fd5b8063890f43741461048257806389a302711461049557600080fd5b80633e7c0e8b116102295780636f0372af116101dd578063715018a6116101c2578063715018a61461046a5780638129fc1c14610472578063853828b61461047a57600080fd5b80636f0372af1461042e57806370a082311461044157600080fd5b8063584400271161020e57806358440027146103b55780635cb3b14f146103f05780636190cefb1461041357600080fd5b80633e7c0e8b146103a5578063561414bb146103ad57600080fd5b806318160ddd116102805780632453286711610265578063245328671461036e578063313ce56714610383578063395093511461039257600080fd5b806318160ddd1461035357806323b872dd1461035b57600080fd5b80630103c92b146102b257806306fdde03146102e8578063095ea7b3146102fd5780631727e6421461031d575b600080fd5b6102d26102c03660046120e4565b60996020526000908152604090205481565b6040516102df919061210d565b60405180910390f35b6102f0610686565b6040516102df9190612179565b61031061030b36600461219b565b610718565b6040516102df91906121e0565b61034661032b3660046120e4565b609a602052600090815260409020546001600160a01b031681565b6040516102df91906121f7565b6035546102d2565b610310610369366004612205565b610732565b61038161037c3660046120e4565b610758565b005b60066040516102df919061225e565b6103106103a036600461219b565b6107e9565b6102d2600181565b6102d2600281565b6103e36103c336600461226c565b609c602090815260009283526040808420909152908252902054600f0b81565b6040516102df91906122a9565b6103106103fe3660046120e4565b60976020526000908152604090205460ff1681565b61034673111111111111ed1d73f860f57b2798b683f2d32581565b61038161043c3660046122b7565b610828565b6102d261044f3660046120e4565b6001600160a01b031660009081526033602052604090205490565b6103816109c9565b6103816109ff565b610381611209565b61038161049036600461232e565b611265565b61034673b97ef9ef8734c71904d8002f8b6bc66dd9c48a6e81565b610346731da20ac34187b2d9c74f729b85acb225d3341b2581565b61034673a7d7079b0fead91f3e65f86e8915cb59c1a4c66481565b6065546001600160a01b0316610346565b6103467366357dcace80431aee0a7507e2e361b7e240237081565b6102f0611312565b61034661052836600461246f565b80516020818301810180516098825292820191909301209152546001600160a01b031681565b61034673d586e7f844cea2f87f50152665bcbc2c279d8d7081565b6103816105773660046124fc565b611321565b61031061058a36600461219b565b6113f0565b61031061059d36600461219b565b61144f565b6103816105b036600461226c565b61145d565b6103816105c3366004612558565b6114d0565b61034673c7198437980c041c805a1edcba50c1ce5db9511881565b610346739702230a8ea53601f5cd2dc00fdbc13d4df4a8c781565b61034661060c3660046120e4565b609b602052600090815260409020546001600160a01b031681565b6102d261063536600461226c565b6001600160a01b03918216600090815260346020908152604080832093909416825291909152205490565b61038161066e3660046122b7565b611557565b6103816106813660046120e4565b61169e565b606060368054610695906125a3565b80601f01602080910402602001604051908101604052809291908181526020018280546106c1906125a3565b801561070e5780601f106106e35761010080835404028352916020019161070e565b820191906000526020600020905b8154815290600101906020018083116106f157829003601f168201915b5050505050905090565b6000336107268185856116f7565b60019150505b92915050565b6000336107408582856117ab565b61074b85858561180d565b60019150505b9392505050565b6065546001600160a01b0316331461078b5760405162461bcd60e51b815260040161078290612601565b60405180910390fd5b6001600160a01b03811660009081526097602052604090819020805460ff19166001179055517f05df81582f58ed21700c8e232f443af6b7255b04e4a2f3aa130391b926f656e4906107de9083906121f7565b60405180910390a150565b3360008181526034602090815260408083206001600160a01b03871684529091528120549091906107269082908690610823908790612627565b6116f7565b6001600160a01b03831660009081526097602052604090205460ff166108605760405162461bcd60e51b815260040161078290612671565b6108756001600160a01b038416333085611920565b60006001600160a01b03841673b97ef9ef8734c71904d8002f8b6bc66dd9c48a6e1461094357600185036108e7576001600160a01b038085166000908152609a60205260409020546108e091168573b97ef9ef8734c71904d8002f8b6bc66dd9c48a6e8686306119a5565b9050610946565b6002850361092b576001600160a01b038085166000908152609a60205260409020546108e091168573b97ef9ef8734c71904d8002f8b6bc66dd9c48a6e8686611a35565b60405162461bcd60e51b8152600401610782906126b3565b50815b3360009081526099602052604081208054839290610965908490612627565b9091555061097590503382611b00565b836001600160a01b0316336001600160a01b03167fdcbc1c05240f31ff3ad067ef1ee35ce4997762752e3a095284754544f4c709d785846040516109ba9291906126c3565b60405180910390a35050505050565b6065546001600160a01b031633146109f35760405162461bcd60e51b815260040161078290612601565b6109fd6000611bb5565b565b600054610100900460ff16610a1a5760005460ff1615610a1e565b303b155b610a3a5760405162461bcd60e51b815260040161078290612738565b600054610100900460ff16158015610a5c576000805461ffff19166101011790555b610ad06040518060400160405280600c81526020017f536869656c6420546f6b656e00000000000000000000000000000000000000008152506040518060400160405280600381526020017f5348440000000000000000000000000000000000000000000000000000000000815250611c14565b610ad8611c45565b60976020527f7548b632efee72df22594bfd49708315d9850b8d32c2b2dc843b2c21368cfccc8054600160ff1991821681179092557f69e43f24f536fd3d84c8bd37ce68b71464fab1c98015d9bdf125ad046cb14da780548216831790557f91d25400d13b5f4a102fdf4d72274fe271a68710a12419af39642877ebd3de8480548216831790557fb744f339a70c7ed26a36bf7be73dfbd530f22e2cd092833028db0829e2399d6180548216831790557fbf5e33d1e23d27b431f50a41a2b3c6addcaa9043fb2180af99dc5897e84eeb3a805482168317905573111111111111ed1d73f860f57b2798b683f2d3256000527f3382a9b3c632d4939bce307c08e7910babe4d0c8a4cd7d593e480cd04f5e27208054909116909117905560405163095ea7b360e01b815273b97ef9ef8734c71904d8002f8b6bc66dd9c48a6e9063095ea7b390610c43907366357dcace80431aee0a7507e2e361b7e24023709060001990600401612748565b6020604051808303816000875af1158015610c62573d6000803e3d6000fd5b505050506040513d601f19601f82011682018060405250810190610c869190612761565b5060405163095ea7b360e01b8152739702230a8ea53601f5cd2dc00fdbc13d4df4a8c79063095ea7b390610cd6907366357dcace80431aee0a7507e2e361b7e24023709060001990600401612748565b6020604051808303816000875af1158015610cf5573d6000803e3d6000fd5b505050506040513d601f19601f82011682018060405250810190610d199190612761565b5060405163095ea7b360e01b815273c7198437980c041c805a1edcba50c1ce5db951189063095ea7b390610d69907366357dcace80431aee0a7507e2e361b7e24023709060001990600401612748565b6020604051808303816000875af1158015610d88573d6000803e3d6000fd5b505050506040513d601f19601f82011682018060405250810190610dac9190612761565b5060405163095ea7b360e01b815273a7d7079b0fead91f3e65f86e8915cb59c1a4c6649063095ea7b390610dfc907366357dcace80431aee0a7507e2e361b7e24023709060001990600401612748565b6020604051808303816000875af1158015610e1b573d6000803e3d6000fd5b505050506040513d601f19601f82011682018060405250810190610e3f9190612761565b5060405163095ea7b360e01b815273d586e7f844cea2f87f50152665bcbc2c279d8d709063095ea7b390610e8f907366357dcace80431aee0a7507e2e361b7e24023709060001990600401612748565b6020604051808303816000875af1158015610eae573d6000803e3d6000fd5b505050506040513d601f19601f82011682018060405250810190610ed29190612761565b5060405163095ea7b360e01b815273111111111111ed1d73f860f57b2798b683f2d3259063095ea7b390610f2290731da20ac34187b2d9c74f729b85acb225d3341b259060001990600401612748565b6020604051808303816000875af1158015610f41573d6000803e3d6000fd5b505050506040513d601f19601f82011682018060405250810190610f659190612761565b507f496b32369fa163b4b9877c2a5a29c3daab0353cec19b4116f036a31e9e195a2180546fffffffffffffffffffffffffffffffff199081169091557f077c466b1c31ad3be690f109f3c4a23bfadf4998004f0fe0a379b126527321af8054821660011790557f6ea5f9585fb3f5995c7c2e60d44db58d7a24acfa1dc1c16d49fb44f36f5113ff805490911660021790557faf6f47f207b81b1c9ff286d1ec2df0d48e30169885791772048c7bb19a616e9b805473ffffffffffffffffffffffffffffffffffffffff19908116731da20ac34187b2d9c74f729b85acb225d3341b259081179092557fb9ab9cf077c8b6b7d5048e321f6b7c68d0cc7fe26e8ea7698fd1fc12d31c0797805482169092179091557f34581a2a0d1f4afc7bedf346da9d0252d6bd3318265137e794dab7cac558313b805482167366357dcace80431aee0a7507e2e361b7e24023709081179091557fe29d5606005c1d071e9e2caf78389209381a399359f530be7bfe69afccadd5e580548316821790557f391265a8976e0e46e3a04a21395ddc41f5ae28fedef5461bb7a48d398c392d0880548316821790557f54275788cad4b9cd2553a09823c88a12b3f8085683bb54f5c8078c0f5af472de80548316821790557fe78e98982f85277723d21ef70bdf667c3885220521cbf091656d5b0f48f649cf80548316821790557fbcbcee02cd308f322f1c61bf7089af652d1d371868f5ab2b55be5de31398e0c2805483168217905573d586e7f844cea2f87f50152665bcbc2c279d8d706000527f2feb349778d25e6c2d4f8973bf457403c9edf3d0ea3bc58461c487d781cefe978054831682179055609b6020527f01cae0cc2f94c1ea47bd85c8ee2e0b16a2d63e983a171f2cf09e3a7740204b5080549092161790558015611206576000805461ff00191690555b50565b336000908152609960205260409020546112355760405162461bcd60e51b8152600401610782906127b4565b336000908152609960205260409020546109fd9073b97ef9ef8734c71904d8002f8b6bc66dd9c48a6e90806114d0565b6065546001600160a01b0316331461128f5760405162461bcd60e51b815260040161078290612601565b82156112d1576001600160a01b039182166000908152609a60205260409020805473ffffffffffffffffffffffffffffffffffffffff19169190921617905550565b6001600160a01b038281166000908152609b60205260409020805473ffffffffffffffffffffffffffffffffffffffff19169183169190911790555b505050565b606060378054610695906125a3565b6065546001600160a01b0316331461134b5760405162461bcd60e51b815260040161078290612601565b8060005b818110156113e9576001600160a01b0385166000908152609c602052604081208291868684818110611383576113836127c4565b905060200201602081019061139891906120e4565b6001600160a01b03168152602081019190915260400160002080546fffffffffffffffffffffffffffffffff19166fffffffffffffffffffffffffffffffff9290921691909117905560010161134f565b5050505050565b3360008181526034602090815260408083206001600160a01b0387168452909152812054909190838110156114375760405162461bcd60e51b815260040161078290612832565b61144482868684036116f7565b506001949350505050565b60003361072681858561180d565b60405163095ea7b360e01b81526001600160a01b0383169063095ea7b39061148d90849060001990600401612748565b6020604051808303816000875af11580156114ac573d6000803e3d6000fd5b505050506040513d601f19601f8201168201806040525081019061130d9190612761565b60006114dc8484611c74565b33600090815260996020526040812080549293508492909190611500908490612842565b9091555061151090503383611d15565b336001600160a01b03167f884edad9ce6fa2440d8a54cc123490eb96d2768479d49ff9c7366125a942436482604051611549919061210d565b60405180910390a250505050565b6001600160a01b03831660009081526097602052604090205460ff1661158f5760405162461bcd60e51b815260040161078290612671565b336000908152609960205260409020548211156115be5760405162461bcd60e51b8152600401610782906127b4565b60007fffffffffffffffffffffffff4681061078cb38e6fb27ffd074943992263b75926001600160a01b03851601611600576115fb8484856114d0565b6113e9565b6001850361164c576001600160a01b038085166000908152609b6020526040902054611645911673b97ef9ef8734c71904d8002f8b6bc66dd9c48a6e868686306119a5565b9050611693565b60028503611693576001600160a01b038085166000908152609b6020526040902054611690911673b97ef9ef8734c71904d8002f8b6bc66dd9c48a6e868686611a35565b90505b6113e98482856114d0565b6065546001600160a01b031633146116c85760405162461bcd60e51b815260040161078290612601565b6001600160a01b0381166116ee5760405162461bcd60e51b8152600401610782906128b1565b61120681611bb5565b6001600160a01b03831661171d5760405162461bcd60e51b815260040161078290612919565b6001600160a01b0382166117435760405162461bcd60e51b815260040161078290612981565b6001600160a01b0380841660008181526034602090815260408083209487168084529490915290819020849055517f8c5be1e5ebec7d5bd14f71427d1e84f3dd0314c0f7b2291e5b200ac8c7c3b9259061179e90859061210d565b60405180910390a3505050565b6001600160a01b03838116600090815260346020908152604080832093861683529290522054600019811461180757818110156117fa5760405162461bcd60e51b8152600401610782906129c3565b61180784848484036116f7565b50505050565b6001600160a01b0383166118335760405162461bcd60e51b815260040161078290612a2b565b6001600160a01b0382166118595760405162461bcd60e51b815260040161078290612a93565b6001600160a01b038316600090815260336020526040902054818110156118925760405162461bcd60e51b815260040161078290612afb565b6001600160a01b038085166000908152603360205260408082208585039055918516815290812080548492906118c9908490612627565b92505081905550826001600160a01b0316846001600160a01b03167fddf252ad1be2c89b69c2b068fc378daa952ba7f163c4a11628f55a4df523b3ef84604051611913919061210d565b60405180910390a3611807565b611807846323b872dd60e01b85858560405160240161194193929190612b0b565b60408051601f198184030181529190526020810180517bffffffffffffffffffffffffffffffffffffffffffffffffffffffff167fffffffff0000000000000000000000000000000000000000000000000000000090931692909217909152611de6565b60006001600160a01b038716639908fc8b87878787876119c642600a612627565b6040518763ffffffff1660e01b81526004016119e796959493929190612b33565b60408051808303816000875af1158015611a05573d6000803e3d6000fd5b505050506040513d601f19601f82011682018060405250810190611a299190612b8d565b50979650505050505050565b6001600160a01b038581166000818152609c6020908152604080832089861684529091528082205493871682528082205490517f3df021240000000000000000000000000000000000000000000000000000000081529193600f90810b9391900b91633df0212490611ab190859085908a908a90600401612bc0565b6020604051808303816000875af1158015611ad0573d6000803e3d6000fd5b505050506040513d601f19601f82011682018060405250810190611af49190612bfe565b98975050505050505050565b6001600160a01b038216611b265760405162461bcd60e51b815260040161078290612c51565b8060356000828254611b389190612627565b90915550506001600160a01b03821660009081526033602052604081208054839290611b65908490612627565b90915550506040516001600160a01b038316906000907fddf252ad1be2c89b69c2b068fc378daa952ba7f163c4a11628f55a4df523b3ef90611ba890859061210d565b60405180910390a35b5050565b606580546001600160a01b0383811673ffffffffffffffffffffffffffffffffffffffff19831681179093556040519116919082907f8be0079c531659141344cd1fd0a4f28419497f9722a3daafe3b4186f6b6457e090600090a35050565b600054610100900460ff16611c3b5760405162461bcd60e51b815260040161078290612cb9565b611bb18282611e75565b600054610100900460ff16611c6c5760405162461bcd60e51b815260040161078290612cb9565b6109fd611ec3565b600080836001600160a01b03166370a08231306040518263ffffffff1660e01b8152600401611ca391906121f7565b602060405180830381865afa158015611cc0573d6000803e3d6000fd5b505050506040513d601f19601f82011682018060405250810190611ce49190612bfe565b905082811115611cf657829150611cfa565b8091505b611d0e6001600160a01b0385163384611ef3565b5092915050565b6001600160a01b038216611d3b5760405162461bcd60e51b815260040161078290612d21565b6001600160a01b03821660009081526033602052604090205481811015611d745760405162461bcd60e51b815260040161078290612d89565b6001600160a01b0383166000908152603360205260408120838303905560358054849290611da3908490612842565b90915550506040516000906001600160a01b038516907fddf252ad1be2c89b69c2b068fc378daa952ba7f163c4a11628f55a4df523b3ef9061179e90869061210d565b6000611e3b826040518060400160405280602081526020017f5361666545524332303a206c6f772d6c6576656c2063616c6c206661696c6564815250856001600160a01b0316611f129092919063ffffffff16565b80519091501561130d5780806020019051810190611e599190612761565b61130d5760405162461bcd60e51b815260040161078290612df1565b600054610100900460ff16611e9c5760405162461bcd60e51b815260040161078290612cb9565b8151611eaf90603690602085019061201b565b50805161130d90603790602084019061201b565b600054610100900460ff16611eea5760405162461bcd60e51b815260040161078290612cb9565b6109fd33611bb5565b61130d8363a9059cbb60e01b8484604051602401611941929190612748565b6060611f218484600085611f29565b949350505050565b606082471015611f4b5760405162461bcd60e51b815260040161078290612e59565b843b611f695760405162461bcd60e51b815260040161078290612e9b565b600080866001600160a01b03168587604051611f859190612ecd565b60006040518083038185875af1925050503d8060008114611fc2576040519150601f19603f3d011682016040523d82523d6000602084013e611fc7565b606091505b5091509150611fd7828286611fe2565b979650505050505050565b60608315611ff1575081610751565b8251156120015782518084602001fd5b8160405162461bcd60e51b81526004016107829190612179565b828054612027906125a3565b90600052602060002090601f016020900481019282612049576000855561208f565b82601f1061206257805160ff191683800117855561208f565b8280016001018555821561208f579182015b8281111561208f578251825591602001919060010190612074565b5061209b92915061209f565b5090565b5b8082111561209b57600081556001016120a0565b60006001600160a01b03821661072c565b6120ce816120b4565b811461120657600080fd5b803561072c816120c5565b6000602082840312156120f9576120f9600080fd5b6000611f2184846120d9565b805b82525050565b6020810161072c8284612105565b60005b8381101561213657818101518382015260200161211e565b838111156118075750506000910152565b6000612151825190565b80845260208401935061216881856020860161211b565b601f01601f19169290920192915050565b602080825281016107518184612147565b806120ce565b803561072c8161218a565b600080604083850312156121b1576121b1600080fd5b60006121bd85856120d9565b92505060206121ce85828601612190565b9150509250929050565b801515612107565b6020810161072c82846121d8565b612107816120b4565b6020810161072c82846121ee565b60008060006060848603121561221d5761221d600080fd5b600061222986866120d9565b935050602061223a868287016120d9565b925050604061224b86828701612190565b9150509250925092565b60ff8116612107565b6020810161072c8284612255565b6000806040838503121561228257612282600080fd5b600061228e85856120d9565b92505060206121ce858286016120d9565b61210781600f0b90565b6020810161072c828461229f565b600080600080608085870312156122d0576122d0600080fd5b60006122dc8787612190565b94505060206122ed878288016120d9565b93505060406122fe87828801612190565b925050606061230f87828801612190565b91505092959194509250565b8015156120ce565b803561072c8161231b565b60008060006060848603121561234657612346600080fd5b60006123528686612323565b9350506020612363868287016120d9565b925050604061224b868287016120d9565b634e487b7160e01b600052604160045260246000fd5b601f19601f830116810181811067ffffffffffffffff821117156123b0576123b0612374565b6040525050565b60006123c260405190565b90506123ce828261238a565b919050565b600067ffffffffffffffff8211156123ed576123ed612374565b601f19601f83011660200192915050565b82818337506000910152565b600061241d612418846123d3565b6123b7565b90508281526020810184848401111561243857612438600080fd5b6124438482856123fe565b509392505050565b600082601f83011261245f5761245f600080fd5b8135611f2184826020860161240a565b60006020828403121561248457612484600080fd5b813567ffffffffffffffff81111561249e5761249e600080fd5b611f218482850161244b565b60008083601f8401126124bf576124bf600080fd5b50813567ffffffffffffffff8111156124da576124da600080fd5b6020830191508360208202830111156124f5576124f5600080fd5b9250929050565b60008060006040848603121561251457612514600080fd5b600061252086866120d9565b935050602084013567ffffffffffffffff81111561254057612540600080fd5b61254c868287016124aa565b92509250509250925092565b60008060006060848603121561257057612570600080fd5b600061257c86866120d9565b935050602061223a86828701612190565b634e487b7160e01b600052602260045260246000fd5b6002810460018216806125b757607f821691505b6020821081036125c9576125c961258d565b50919050565b60208082527f4f776e61626c653a2063616c6c6572206973206e6f7420746865206f776e657291019081525b60200190565b6020808252810161072c816125cf565b634e487b7160e01b600052601160045260246000fd5b6000821982111561263a5761263a612611565b500190565b60188152602081017f537461626c65636f696e206e6f7420737570706f727465640000000000000000815290506125fb565b6020808252810161072c8161263f565b600c8152602081017f4e6f207377617020706169720000000000000000000000000000000000000000815290506125fb565b6020808252810161072c81612681565b604081016126d18285612105565b6107516020830184612105565b602e8152602081017f496e697469616c697a61626c653a20636f6e747261637420697320616c72656181527f647920696e697469616c697a6564000000000000000000000000000000000000602082015290505b60400190565b6020808252810161072c816126de565b604081016126d182856121ee565b805161072c8161231b565b60006020828403121561277657612776600080fd5b6000611f218484612756565b60148152602081017f496e73756666696369656e742062616c616e6365000000000000000000000000815290506125fb565b6020808252810161072c81612782565b634e487b7160e01b600052603260045260246000fd5b60258152602081017f45524332303a2064656372656173656420616c6c6f77616e63652062656c6f7781527f207a65726f00000000000000000000000000000000000000000000000000000060208201529050612732565b6020808252810161072c816127da565b60008282101561285457612854612611565b500390565b60268152602081017f4f776e61626c653a206e6577206f776e657220697320746865207a65726f206181527f646472657373000000000000000000000000000000000000000000000000000060208201529050612732565b6020808252810161072c81612859565b60248152602081017f45524332303a20617070726f76652066726f6d20746865207a65726f2061646481527f726573730000000000000000000000000000000000000000000000000000000060208201529050612732565b6020808252810161072c816128c1565b60228152602081017f45524332303a20617070726f766520746f20746865207a65726f20616464726581527f737300000000000000000000000000000000000000000000000000000000000060208201529050612732565b6020808252810161072c81612929565b601d8152602081017f45524332303a20696e73756666696369656e7420616c6c6f77616e6365000000815290506125fb565b6020808252810161072c81612991565b60258152602081017f45524332303a207472616e736665722066726f6d20746865207a65726f20616481527f647265737300000000000000000000000000000000000000000000000000000060208201529050612732565b6020808252810161072c816129d3565b60238152602081017f45524332303a207472616e7366657220746f20746865207a65726f206164647281527f657373000000000000000000000000000000000000000000000000000000000060208201529050612732565b6020808252810161072c81612a3b565b60268152602081017f45524332303a207472616e7366657220616d6f756e742065786365656473206281527f616c616e6365000000000000000000000000000000000000000000000000000060208201529050612732565b6020808252810161072c81612aa3565b60608101612b1982866121ee565b612b2660208301856121ee565b611f216040830184612105565b60c08101612b4182896121ee565b612b4e60208301886121ee565b612b5b6040830187612105565b612b686060830186612105565b612b7560808301856121ee565b611fd760a0830184612105565b805161072c8161218a565b60008060408385031215612ba357612ba3600080fd5b6000612baf8585612b82565b92505060206121ce85828601612b82565b60808101612bce828761229f565b612bdb602083018661229f565b612be86040830185612105565b612bf56060830184612105565b95945050505050565b600060208284031215612c1357612c13600080fd5b6000611f218484612b82565b601f8152602081017f45524332303a206d696e7420746f20746865207a65726f206164647265737300815290506125fb565b6020808252810161072c81612c1f565b602b8152602081017f496e697469616c697a61626c653a20636f6e7472616374206973206e6f74206981527f6e697469616c697a696e6700000000000000000000000000000000000000000060208201529050612732565b6020808252810161072c81612c61565b60218152602081017f45524332303a206275726e2066726f6d20746865207a65726f2061646472657381527f730000000000000000000000000000000000000000000000000000000000000060208201529050612732565b6020808252810161072c81612cc9565b60228152602081017f45524332303a206275726e20616d6f756e7420657863656564732062616c616e81527f636500000000000000000000000000000000000000000000000000000000000060208201529050612732565b6020808252810161072c81612d31565b602a8152602081017f5361666545524332303a204552433230206f7065726174696f6e20646964206e81527f6f7420737563636565640000000000000000000000000000000000000000000060208201529050612732565b6020808252810161072c81612d99565b60268152602081017f416464726573733a20696e73756666696369656e742062616c616e636520666f81527f722063616c6c000000000000000000000000000000000000000000000000000060208201529050612732565b6020808252810161072c81612e01565b601d8152602081017f416464726573733a2063616c6c20746f206e6f6e2d636f6e7472616374000000815290506125fb565b6020808252810161072c81612e69565b6000612eb5825190565b612ec381856020860161211b565b9290920192915050565b61072c8183612eab56fea2646970667358221220ed33c170b44cb5c5b8eb63d4f92e32f9b4d22e21c5293bd8777be5aa95a4683164736f6c634300080d0033",
  "devdoc": {
    "author": "Eric Lee (ylikp.ust@gmail.com)",
    "details": "Users can swap other stablecoins to Shield (actually backed by USDC only)         Shield can be used in NaughtyPrice and future products         When users want to withdraw, their shield tokens will be burned         and USDC will be sent back to them (if no sepecific choice)             other stablecoins will be sent back to them (if have sepecific choice)         Currently, the swap is done inside Platypus & Curve         The stablecoin and its swapping pool should be supported         When deposit, the toToken is USDC, which pool to use depends on tokenToPoolForDeposit(token)         When withdraw, the fromToken is USDC, which pool to use depends on tokenToPoolForWithdraw(token)",
    "kind": "dev",
    "methods": {
      "addCurvePool(address,address[])": {
        "params": {
          "_pool": "Curve pool address",
          "_tokens": "Tokens inside this pool"
        }
      },
      "addSupportedStablecoin(address)": {
        "details": "Set a new supported token address      Only callable by the owner",
        "params": {
          "_stablecoin": "Stablecoin address"
        }
      },
      "allowance(address,address)": {
        "details": "See {IERC20-allowance}."
      },
      "approve(address,uint256)": {
        "details": "See {IERC20-approve}. NOTE: If `amount` is the maximum `uint256`, the allowance is not updated on `transferFrom`. This is semantically equivalent to an infinite approval. Requirements: - `spender` cannot be the zero address."
      },
      "approveStablecoin(address,address)": {
        "params": {
          "_contract": "Contract address to give allowance",
          "_token": "Stablecoin address"
        }
      },
      "balanceOf(address)": {
        "details": "See {IERC20-balanceOf}."
      },
      "decreaseAllowance(address,uint256)": {
        "details": "Atomically decreases the allowance granted to `spender` by the caller. This is an alternative to {approve} that can be used as a mitigation for problems described in {IERC20-approve}. Emits an {Approval} event indicating the updated allowance. Requirements: - `spender` cannot be the zero address. - `spender` must have allowance for the caller of at least `subtractedValue`."
      },
      "deposit(uint256,address,uint256,uint256)": {
        "params": {
          "_amount": "Input stablecoin amount",
          "_minAmount": "Minimum amount output (if need swap)",
          "_stablecoin": "Stablecoin address",
          "_type": "Swap type (1 for PTP, 2 for Curve)"
        }
      },
      "increaseAllowance(address,uint256)": {
        "details": "Atomically increases the allowance granted to `spender` by the caller. This is an alternative to {approve} that can be used as a mitigation for problems described in {IERC20-approve}. Emits an {Approval} event indicating the updated allowance. Requirements: - `spender` cannot be the zero address."
      },
      "name()": {
        "details": "Returns the name of the token."
      },
      "owner()": {
        "details": "Returns the address of the current owner."
      },
      "renounceOwnership()": {
        "details": "Leaves the contract without owner. It will not be possible to call `onlyOwner` functions anymore. Can only be called by the current owner. NOTE: Renouncing ownership will leave the contract without an owner, thereby removing any functionality that is only available to the owner."
      },
      "symbol()": {
        "details": "Returns the symbol of the token, usually a shorter version of the name."
      },
      "totalSupply()": {
        "details": "See {IERC20-totalSupply}."
      },
      "transfer(address,uint256)": {
        "details": "See {IERC20-transfer}. Requirements: - `to` cannot be the zero address. - the caller must have a balance of at least `amount`."
      },
      "transferFrom(address,address,uint256)": {
        "details": "See {IERC20-transferFrom}. Emits an {Approval} event indicating the updated allowance. This is not required by the EIP. See the note at the beginning of {ERC20}. NOTE: Does not update the allowance if the current allowance is the maximum `uint256`. Requirements: - `from` and `to` cannot be the zero address. - `from` must have a balance of at least `amount`. - the caller must have allowance for ``from``'s tokens of at least `amount`."
      },
      "transferOwnership(address)": {
        "details": "Transfers ownership of the contract to a new account (`newOwner`). Can only be called by the current owner."
      },
      "withdraw(address,uint256,uint256)": {
        "params": {
          "_shieldAmount": "Shield amount to be burned",
          "_stablecoin": "Stablecoin address",
          "_stablecoinAmount": "Stablecoin amount to be transferred back"
        }
      },
      "withdraw(uint256,address,uint256,uint256)": {
        "params": {
          "_amount": "Amount of shield to burn",
          "_minAmount": "Minimum amount of stablecoin to withdraw (if need swap)",
          "_stablecoin": "Stablecoin address",
          "_type": "Swap type (use PTP/Curve, which pool)"
        }
      }
    },
    "title": "Shield Token (Derived Stablecoin on Degis)",
    "version": 1
  },
  "userdoc": {
    "kind": "user",
    "methods": {
      "addCurvePool(address,address[])": {
        "notice": "Add new curve pool"
      },
      "addSupportedStablecoin(address)": {
        "notice": "Add new supported stablecoin"
      },
      "approveStablecoin(address,address)": {
        "notice": "Approve a stablecoin for swapping         Call once for each stablecoin"
      },
      "decimals()": {
        "notice": "Shield has 6 decimals"
      },
      "deposit(uint256,address,uint256,uint256)": {
        "notice": "Deposit tokens and mint Shield         If the input is USDC, no swap needed, otherwise, swap to USDC"
      },
      "withdraw(address,uint256,uint256)": {
        "notice": "Withdraw USDC"
      },
      "withdraw(uint256,address,uint256,uint256)": {
        "notice": "Withdraw stablecoins and burn shield"
      },
      "withdrawAll()": {
        "notice": "Withdraw all of a user's balance         This function only return USDC back"
      }
    },
    "version": 1
  },
  "storageLayout": {
    "storage": [
      {
        "astId": 2670,
        "contract": "contracts/tokens/Shield.sol:Shield",
        "label": "_initialized",
        "offset": 0,
        "slot": "0",
        "type": "t_bool"
      },
      {
        "astId": 2673,
        "contract": "contracts/tokens/Shield.sol:Shield",
        "label": "_initializing",
        "offset": 1,
        "slot": "0",
        "type": "t_bool"
      },
      {
        "astId": 3907,
        "contract": "contracts/tokens/Shield.sol:Shield",
        "label": "__gap",
        "offset": 0,
        "slot": "1",
        "type": "t_array(t_uint256)50_storage"
      },
      {
        "astId": 2926,
        "contract": "contracts/tokens/Shield.sol:Shield",
        "label": "_balances",
        "offset": 0,
        "slot": "51",
        "type": "t_mapping(t_address,t_uint256)"
      },
      {
        "astId": 2932,
        "contract": "contracts/tokens/Shield.sol:Shield",
        "label": "_allowances",
        "offset": 0,
        "slot": "52",
        "type": "t_mapping(t_address,t_mapping(t_address,t_uint256))"
      },
      {
        "astId": 2934,
        "contract": "contracts/tokens/Shield.sol:Shield",
        "label": "_totalSupply",
        "offset": 0,
        "slot": "53",
        "type": "t_uint256"
      },
      {
        "astId": 2936,
        "contract": "contracts/tokens/Shield.sol:Shield",
        "label": "_name",
        "offset": 0,
        "slot": "54",
        "type": "t_string_storage"
      },
      {
        "astId": 2938,
        "contract": "contracts/tokens/Shield.sol:Shield",
        "label": "_symbol",
        "offset": 0,
        "slot": "55",
        "type": "t_string_storage"
      },
      {
        "astId": 3519,
        "contract": "contracts/tokens/Shield.sol:Shield",
        "label": "__gap",
        "offset": 0,
        "slot": "56",
        "type": "t_array(t_uint256)45_storage"
      },
      {
        "astId": 2550,
        "contract": "contracts/tokens/Shield.sol:Shield",
        "label": "_owner",
        "offset": 0,
        "slot": "101",
        "type": "t_address"
      },
      {
        "astId": 2662,
        "contract": "contracts/tokens/Shield.sol:Shield",
        "label": "__gap",
        "offset": 0,
        "slot": "102",
        "type": "t_array(t_uint256)49_storage"
      },
      {
        "astId": 38910,
        "contract": "contracts/tokens/Shield.sol:Shield",
        "label": "supportedStablecoin",
        "offset": 0,
        "slot": "151",
        "type": "t_mapping(t_address,t_bool)"
      },
      {
        "astId": 38914,
        "contract": "contracts/tokens/Shield.sol:Shield",
        "label": "pools",
        "offset": 0,
        "slot": "152",
        "type": "t_mapping(t_string_memory_ptr,t_address)"
      },
      {
        "astId": 38918,
        "contract": "contracts/tokens/Shield.sol:Shield",
        "label": "userBalance",
        "offset": 0,
        "slot": "153",
        "type": "t_mapping(t_address,t_uint256)"
      },
      {
        "astId": 38922,
        "contract": "contracts/tokens/Shield.sol:Shield",
        "label": "tokenToPoolForDeposit",
        "offset": 0,
        "slot": "154",
        "type": "t_mapping(t_address,t_address)"
      },
      {
        "astId": 38926,
        "contract": "contracts/tokens/Shield.sol:Shield",
        "label": "tokenToPoolForWithdraw",
        "offset": 0,
        "slot": "155",
        "type": "t_mapping(t_address,t_address)"
      },
      {
        "astId": 38932,
        "contract": "contracts/tokens/Shield.sol:Shield",
        "label": "curvePoolTokenIndex",
        "offset": 0,
        "slot": "156",
        "type": "t_mapping(t_address,t_mapping(t_address,t_int128))"
      }
    ],
    "types": {
      "t_address": {
        "encoding": "inplace",
        "label": "address",
        "numberOfBytes": "20"
      },
      "t_array(t_uint256)45_storage": {
        "base": "t_uint256",
        "encoding": "inplace",
        "label": "uint256[45]",
        "numberOfBytes": "1440"
      },
      "t_array(t_uint256)49_storage": {
        "base": "t_uint256",
        "encoding": "inplace",
        "label": "uint256[49]",
        "numberOfBytes": "1568"
      },
      "t_array(t_uint256)50_storage": {
        "base": "t_uint256",
        "encoding": "inplace",
        "label": "uint256[50]",
        "numberOfBytes": "1600"
      },
      "t_bool": {
        "encoding": "inplace",
        "label": "bool",
        "numberOfBytes": "1"
      },
      "t_int128": {
        "encoding": "inplace",
        "label": "int128",
        "numberOfBytes": "16"
      },
      "t_mapping(t_address,t_address)": {
        "encoding": "mapping",
        "key": "t_address",
        "label": "mapping(address => address)",
        "numberOfBytes": "32",
        "value": "t_address"
      },
      "t_mapping(t_address,t_bool)": {
        "encoding": "mapping",
        "key": "t_address",
        "label": "mapping(address => bool)",
        "numberOfBytes": "32",
        "value": "t_bool"
      },
      "t_mapping(t_address,t_int128)": {
        "encoding": "mapping",
        "key": "t_address",
        "label": "mapping(address => int128)",
        "numberOfBytes": "32",
        "value": "t_int128"
      },
      "t_mapping(t_address,t_mapping(t_address,t_int128))": {
        "encoding": "mapping",
        "key": "t_address",
        "label": "mapping(address => mapping(address => int128))",
        "numberOfBytes": "32",
        "value": "t_mapping(t_address,t_int128)"
      },
      "t_mapping(t_address,t_mapping(t_address,t_uint256))": {
        "encoding": "mapping",
        "key": "t_address",
        "label": "mapping(address => mapping(address => uint256))",
        "numberOfBytes": "32",
        "value": "t_mapping(t_address,t_uint256)"
      },
      "t_mapping(t_address,t_uint256)": {
        "encoding": "mapping",
        "key": "t_address",
        "label": "mapping(address => uint256)",
        "numberOfBytes": "32",
        "value": "t_uint256"
      },
      "t_mapping(t_string_memory_ptr,t_address)": {
        "encoding": "mapping",
        "key": "t_string_memory_ptr",
        "label": "mapping(string => address)",
        "numberOfBytes": "32",
        "value": "t_address"
      },
      "t_string_memory_ptr": {
        "encoding": "bytes",
        "label": "string",
        "numberOfBytes": "32"
      },
      "t_string_storage": {
        "encoding": "bytes",
        "label": "string",
        "numberOfBytes": "32"
      },
      "t_uint256": {
        "encoding": "inplace",
        "label": "uint256",
        "numberOfBytes": "32"
      }
    }
  }
}