{
  "address": "0xAe5067345Ef3D313AC4BDEDB58Dbda245FC73A2B",
  "abi": [
    {
      "anonymous": false,
      "inputs": [
        {
          "indexed": false,
          "internalType": "address",
          "name": "stablecoin",
          "type": "address"
        }
      ],
      "name": "AddStablecoin",
      "type": "event"
    },
    {
      "anonymous": false,
      "inputs": [
        {
          "indexed": true,
          "internalType": "address",
          "name": "owner",
          "type": "address"
        },
        {
          "indexed": true,
          "internalType": "address",
          "name": "spender",
          "type": "address"
        },
        {
          "indexed": false,
          "internalType": "uint256",
          "name": "value",
          "type": "uint256"
        }
      ],
      "name": "Approval",
      "type": "event"
    },
    {
      "anonymous": false,
      "inputs": [
        {
          "indexed": true,
          "internalType": "address",
          "name": "user",
          "type": "address"
        },
        {
          "indexed": true,
          "internalType": "address",
          "name": "stablecoin",
          "type": "address"
        },
        {
          "indexed": false,
          "internalType": "uint256",
          "name": "inAmount",
          "type": "uint256"
        },
        {
          "indexed": false,
          "internalType": "uint256",
          "name": "outAmount",
          "type": "uint256"
        }
      ],
      "name": "Deposit",
      "type": "event"
    },
    {
      "anonymous": false,
      "inputs": [
        {
          "indexed": true,
          "internalType": "address",
          "name": "previousOwner",
          "type": "address"
        },
        {
          "indexed": true,
          "internalType": "address",
          "name": "newOwner",
          "type": "address"
        }
      ],
      "name": "OwnershipTransferred",
      "type": "event"
    },
    {
      "anonymous": false,
      "inputs": [
        {
          "indexed": true,
          "internalType": "address",
          "name": "from",
          "type": "address"
        },
        {
          "indexed": true,
          "internalType": "address",
          "name": "to",
          "type": "address"
        },
        {
          "indexed": false,
          "internalType": "uint256",
          "name": "value",
          "type": "uint256"
        }
      ],
      "name": "Transfer",
      "type": "event"
    },
    {
      "anonymous": false,
      "inputs": [
        {
          "indexed": true,
          "internalType": "address",
          "name": "user",
          "type": "address"
        },
        {
          "indexed": false,
          "internalType": "uint256",
          "name": "amount",
          "type": "uint256"
        }
      ],
      "name": "Withdraw",
      "type": "event"
    },
    {
      "inputs": [],
      "name": "CURVE_YUSD",
      "outputs": [
        {
          "internalType": "address",
          "name": "",
          "type": "address"
        }
      ],
      "stateMutability": "view",
      "type": "function"
    },
    {
      "inputs": [],
      "name": "DAIe",
      "outputs": [
        {
          "internalType": "address",
          "name": "",
          "type": "address"
        }
      ],
      "stateMutability": "view",
      "type": "function"
    },
    {
      "inputs": [],
      "name": "PTP_MAIN",
      "outputs": [
        {
          "internalType": "address",
          "name": "",
          "type": "address"
        }
      ],
      "stateMutability": "view",
      "type": "function"
    },
    {
      "inputs": [],
      "name": "USDC",
      "outputs": [
        {
          "internalType": "address",
          "name": "",
          "type": "address"
        }
      ],
      "stateMutability": "view",
      "type": "function"
    },
    {
      "inputs": [],
      "name": "USDCe",
      "outputs": [
        {
          "internalType": "address",
          "name": "",
          "type": "address"
        }
      ],
      "stateMutability": "view",
      "type": "function"
    },
    {
      "inputs": [],
      "name": "USDT",
      "outputs": [
        {
          "internalType": "address",
          "name": "",
          "type": "address"
        }
      ],
      "stateMutability": "view",
      "type": "function"
    },
    {
      "inputs": [],
      "name": "USDTe",
      "outputs": [
        {
          "internalType": "address",
          "name": "",
          "type": "address"
        }
      ],
      "stateMutability": "view",
      "type": "function"
    },
    {
      "inputs": [],
      "name": "YUSD",
      "outputs": [
        {
          "internalType": "address",
          "name": "",
          "type": "address"
        }
      ],
      "stateMutability": "view",
      "type": "function"
    },
    {
      "inputs": [
        {
          "internalType": "address",
          "name": "_stablecoin",
          "type": "address"
        }
      ],
      "name": "addSupportedStablecoin",
      "outputs": [],
      "stateMutability": "nonpayable",
      "type": "function"
    },
    {
      "inputs": [
        {
          "internalType": "address",
          "name": "owner",
          "type": "address"
        },
        {
          "internalType": "address",
          "name": "spender",
          "type": "address"
        }
      ],
      "name": "allowance",
      "outputs": [
        {
          "internalType": "uint256",
          "name": "",
          "type": "uint256"
        }
      ],
      "stateMutability": "view",
      "type": "function"
    },
    {
      "inputs": [
        {
          "internalType": "address",
          "name": "spender",
          "type": "address"
        },
        {
          "internalType": "uint256",
          "name": "amount",
          "type": "uint256"
        }
      ],
      "name": "approve",
      "outputs": [
        {
          "internalType": "bool",
          "name": "",
          "type": "bool"
        }
      ],
      "stateMutability": "nonpayable",
      "type": "function"
    },
    {
      "inputs": [
        {
          "internalType": "address",
          "name": "_token",
          "type": "address"
        },
        {
          "internalType": "address",
          "name": "_contract",
          "type": "address"
        }
      ],
      "name": "approveStablecoin",
      "outputs": [],
      "stateMutability": "nonpayable",
      "type": "function"
    },
    {
      "inputs": [
        {
          "internalType": "address",
          "name": "account",
          "type": "address"
        }
      ],
      "name": "balanceOf",
      "outputs": [
        {
          "internalType": "uint256",
          "name": "",
          "type": "uint256"
        }
      ],
      "stateMutability": "view",
      "type": "function"
    },
    {
      "inputs": [],
      "name": "decimals",
      "outputs": [
        {
          "internalType": "uint8",
          "name": "",
          "type": "uint8"
        }
      ],
      "stateMutability": "pure",
      "type": "function"
    },
    {
      "inputs": [
        {
          "internalType": "address",
          "name": "spender",
          "type": "address"
        },
        {
          "internalType": "uint256",
          "name": "subtractedValue",
          "type": "uint256"
        }
      ],
      "name": "decreaseAllowance",
      "outputs": [
        {
          "internalType": "bool",
          "name": "",
          "type": "bool"
        }
      ],
      "stateMutability": "nonpayable",
      "type": "function"
    },
    {
      "inputs": [
        {
          "internalType": "uint256",
          "name": "_type",
          "type": "uint256"
        },
        {
          "internalType": "address",
          "name": "_stablecoin",
          "type": "address"
        },
        {
          "internalType": "uint256",
          "name": "_amount",
          "type": "uint256"
        },
        {
          "internalType": "uint256",
          "name": "_minAmount",
          "type": "uint256"
        }
      ],
      "name": "deposit",
      "outputs": [],
      "stateMutability": "nonpayable",
      "type": "function"
    },
    {
      "inputs": [
        {
          "internalType": "address",
          "name": "spender",
          "type": "address"
        },
        {
          "internalType": "uint256",
          "name": "addedValue",
          "type": "uint256"
        }
      ],
      "name": "increaseAllowance",
      "outputs": [
        {
          "internalType": "bool",
          "name": "",
          "type": "bool"
        }
      ],
      "stateMutability": "nonpayable",
      "type": "function"
    },
    {
      "inputs": [],
      "name": "initialize",
      "outputs": [],
      "stateMutability": "nonpayable",
      "type": "function"
    },
    {
      "inputs": [],
      "name": "name",
      "outputs": [
        {
          "internalType": "string",
          "name": "",
          "type": "string"
        }
      ],
      "stateMutability": "view",
      "type": "function"
    },
    {
      "inputs": [],
      "name": "owner",
      "outputs": [
        {
          "internalType": "address",
          "name": "",
          "type": "address"
        }
      ],
      "stateMutability": "view",
      "type": "function"
    },
    {
      "inputs": [
        {
          "internalType": "string",
          "name": "",
          "type": "string"
        }
      ],
      "name": "pools",
      "outputs": [
        {
          "internalType": "address",
          "name": "",
          "type": "address"
        }
      ],
      "stateMutability": "view",
      "type": "function"
    },
    {
      "inputs": [],
      "name": "renounceOwnership",
      "outputs": [],
      "stateMutability": "nonpayable",
      "type": "function"
    },
    {
      "inputs": [
        {
          "internalType": "address",
          "name": "",
          "type": "address"
        }
      ],
      "name": "supportedStablecoin",
      "outputs": [
        {
          "internalType": "bool",
          "name": "",
          "type": "bool"
        }
      ],
      "stateMutability": "view",
      "type": "function"
    },
    {
      "inputs": [],
      "name": "symbol",
      "outputs": [
        {
          "internalType": "string",
          "name": "",
          "type": "string"
        }
      ],
      "stateMutability": "view",
      "type": "function"
    },
    {
      "inputs": [],
      "name": "totalSupply",
      "outputs": [
        {
          "internalType": "uint256",
          "name": "",
          "type": "uint256"
        }
      ],
      "stateMutability": "view",
      "type": "function"
    },
    {
      "inputs": [
        {
          "internalType": "address",
          "name": "to",
          "type": "address"
        },
        {
          "internalType": "uint256",
          "name": "amount",
          "type": "uint256"
        }
      ],
      "name": "transfer",
      "outputs": [
        {
          "internalType": "bool",
          "name": "",
          "type": "bool"
        }
      ],
      "stateMutability": "nonpayable",
      "type": "function"
    },
    {
      "inputs": [
        {
          "internalType": "address",
          "name": "from",
          "type": "address"
        },
        {
          "internalType": "address",
          "name": "to",
          "type": "address"
        },
        {
          "internalType": "uint256",
          "name": "amount",
          "type": "uint256"
        }
      ],
      "name": "transferFrom",
      "outputs": [
        {
          "internalType": "bool",
          "name": "",
          "type": "bool"
        }
      ],
      "stateMutability": "nonpayable",
      "type": "function"
    },
    {
      "inputs": [
        {
          "internalType": "address",
          "name": "newOwner",
          "type": "address"
        }
      ],
      "name": "transferOwnership",
      "outputs": [],
      "stateMutability": "nonpayable",
      "type": "function"
    },
    {
      "inputs": [
        {
          "internalType": "address",
          "name": "",
          "type": "address"
        }
      ],
      "name": "userBalance",
      "outputs": [
        {
          "internalType": "uint256",
          "name": "",
          "type": "uint256"
        }
      ],
      "stateMutability": "view",
      "type": "function"
    },
    {
      "inputs": [
        {
          "internalType": "uint256",
          "name": "_amount",
          "type": "uint256"
        }
      ],
      "name": "withdraw",
      "outputs": [],
      "stateMutability": "nonpayable",
      "type": "function"
    },
    {
      "inputs": [
        {
          "internalType": "uint256",
          "name": "_type",
          "type": "uint256"
        },
        {
          "internalType": "address",
          "name": "_stablecoin",
          "type": "address"
        },
        {
          "internalType": "uint256",
          "name": "_amount",
          "type": "uint256"
        },
        {
          "internalType": "uint256",
          "name": "_minAmount",
          "type": "uint256"
        }
      ],
      "name": "withdraw",
      "outputs": [],
      "stateMutability": "nonpayable",
      "type": "function"
    },
    {
      "inputs": [],
      "name": "withdrawAll",
      "outputs": [],
      "stateMutability": "nonpayable",
      "type": "function"
    }
  ],
  "transactionHash": "0x6c155fdd6bc1998861353cbfcdfb5bf5e64a8efcaa1a37c7d38a0349bd640156",
  "args": [],
  "numDeployments": 4,
  "solcInputHash": "31890d1c063e693a9ffe8582987ff44d",
  "bytecode": "0x608060405234801561001057600080fd5b5061281c806100206000396000f3fe608060405234801561001057600080fd5b50600436106101f05760003560e01c806389a302711161010f578063a457c2d7116100a2578063c54e44eb11610071578063c54e44eb1461048c578063dd62ed3e146104a7578063e2aa8559146104e0578063f2fde38b146104f357600080fd5b8063a457c2d714610438578063a9059cbb1461044b578063b5add05a1461045e578063b70b23a31461047157600080fd5b80638ffbfd9a116100de5780638ffbfd9a146103c657806395d89b41146103e15780639d6f17a8146103e95780639df3fe241461041d57600080fd5b806389a302711461036457806389ae81201461037f5780638a4d786b1461039a5780638da5cb5b146103b557600080fd5b8063395093511161018757806370a082311161015657806370a0823114610323578063715018a61461034c5780638129fc1c14610354578063853828b61461035c57600080fd5b806339509351146102b25780635cb3b14f146102c55780636190cefb146102e85780636f0372af1461031057600080fd5b806323b872dd116101c357806323b872dd14610268578063245328671461027b5780632e1a7d4d14610290578063313ce567146102a357600080fd5b80630103c92b146101f557806306fdde031461022b578063095ea7b31461024057806318160ddd14610260575b600080fd5b610215610203366004611b1f565b60996020526000908152604090205481565b6040516102229190611b48565b60405180910390f35b610233610506565b6040516102229190611bb4565b61025361024e366004611bd6565b610598565b6040516102229190611c1b565b603554610215565b610253610276366004611c29565b6105b2565b61028e610289366004611b1f565b6105d8565b005b61028e61029e366004611c79565b610669565b60066040516102229190611ca3565b6102536102c0366004611bd6565b610721565b6102536102d3366004611b1f565b60976020526000908152604090205460ff1681565b61030373111111111111ed1d73f860f57b2798b683f2d32581565b6040516102229190611cba565b61028e61031e366004611cc8565b610760565b610215610331366004611b1f565b6001600160a01b031660009081526033602052604090205490565b61028e610882565b61028e6108b8565b61028e610e34565b61030373b97ef9ef8734c71904d8002f8b6bc66dd9c48a6e81565b610303731da20ac34187b2d9c74f729b85acb225d3341b2581565b61030373a7d7079b0fead91f3e65f86e8915cb59c1a4c66481565b6065546001600160a01b0316610303565b6103037366357dcace80431aee0a7507e2e361b7e240237081565b610233610e79565b6103036103f7366004611e27565b80516020818301810180516098825292820191909301209152546001600160a01b031681565b61030373d586e7f844cea2f87f50152665bcbc2c279d8d7081565b610253610446366004611bd6565b610e88565b610253610459366004611bd6565b610ee7565b61028e61046c366004611e62565b610ef5565b61030373c7198437980c041c805a1edcba50c1ce5db9511881565b610303739702230a8ea53601f5cd2dc00fdbc13d4df4a8c781565b6102156104b5366004611e62565b6001600160a01b03918216600090815260346020908152604080832093909416825291909152205490565b61028e6104ee366004611cc8565b610f6d565b61028e610501366004611b1f565b611094565b60606036805461051590611eab565b80601f016020809104026020016040519081016040528092919081815260200182805461054190611eab565b801561058e5780601f106105635761010080835404028352916020019161058e565b820191906000526020600020905b81548152906001019060200180831161057157829003601f168201915b5050505050905090565b6000336105a68185856110ed565b60019150505b92915050565b6000336105c08582856111a1565b6105cb858585611203565b60019150505b9392505050565b6065546001600160a01b0316331461060b5760405162461bcd60e51b815260040161060290611f09565b60405180910390fd5b6001600160a01b03811660009081526097602052604090819020805460ff19166001179055517f05df81582f58ed21700c8e232f443af6b7255b04e4a2f3aa130391b926f656e49061065e908390611cba565b60405180910390a150565b600061068973b97ef9ef8734c71904d8002f8b6bc66dd9c48a6e83611316565b336000908152609960205260408120805492935083929091906106ad908490611f2f565b909155506106bd905033826113b7565b6106dc73b97ef9ef8734c71904d8002f8b6bc66dd9c48a6e3384611488565b336001600160a01b03167f884edad9ce6fa2440d8a54cc123490eb96d2768479d49ff9c7366125a9424364826040516107159190611b48565b60405180910390a25050565b3360008181526034602090815260408083206001600160a01b03871684529091528120549091906105a6908290869061075b908790611f46565b6110ed565b6001600160a01b03831660009081526097602052604090205460ff166107985760405162461bcd60e51b815260040161060290611f90565b60006107af6001600160a01b03851633308661150b565b6001600160a01b03841673b97ef9ef8734c71904d8002f8b6bc66dd9c48a6e146107fc576107f5858573b97ef9ef8734c71904d8002f8b6bc66dd9c48a6e86863061152c565b90506107ff565b50815b336000908152609960205260408120805483929061081e908490611f46565b9091555061082e90503382611595565b836001600160a01b0316336001600160a01b03167fdcbc1c05240f31ff3ad067ef1ee35ce4997762752e3a095284754544f4c709d78584604051610873929190611fa0565b60405180910390a35050505050565b6065546001600160a01b031633146108ac5760405162461bcd60e51b815260040161060290611f09565b6108b6600061164a565b565b600054610100900460ff166108d35760005460ff16156108d7565b303b155b6108f35760405162461bcd60e51b815260040161060290612015565b600054610100900460ff16158015610915576000805461ffff19166101011790555b6109896040518060400160405280600c81526020017f536869656c6420546f6b656e00000000000000000000000000000000000000008152506040518060400160405280600381526020017f53484400000000000000000000000000000000000000000000000000000000008152506116b4565b6109916116e5565b60976020527f7548b632efee72df22594bfd49708315d9850b8d32c2b2dc843b2c21368cfccc8054600160ff1991821681179092557f69e43f24f536fd3d84c8bd37ce68b71464fab1c98015d9bdf125ad046cb14da780548216831790557f91d25400d13b5f4a102fdf4d72274fe271a68710a12419af39642877ebd3de8480548216831790557fb744f339a70c7ed26a36bf7be73dfbd530f22e2cd092833028db0829e2399d6180548216831790557fbf5e33d1e23d27b431f50a41a2b3c6addcaa9043fb2180af99dc5897e84eeb3a805482168317905573111111111111ed1d73f860f57b2798b683f2d3256000527f3382a9b3c632d4939bce307c08e7910babe4d0c8a4cd7d593e480cd04f5e27208054909116909117905560405163095ea7b360e01b815273b97ef9ef8734c71904d8002f8b6bc66dd9c48a6e9063095ea7b390610afc907366357dcace80431aee0a7507e2e361b7e24023709060001990600401612025565b6020604051808303816000875af1158015610b1b573d6000803e3d6000fd5b505050506040513d601f19601f82011682018060405250810190610b3f9190612046565b5060405163095ea7b360e01b8152739702230a8ea53601f5cd2dc00fdbc13d4df4a8c79063095ea7b390610b8f907366357dcace80431aee0a7507e2e361b7e24023709060001990600401612025565b6020604051808303816000875af1158015610bae573d6000803e3d6000fd5b505050506040513d601f19601f82011682018060405250810190610bd29190612046565b5060405163095ea7b360e01b815273c7198437980c041c805a1edcba50c1ce5db951189063095ea7b390610c22907366357dcace80431aee0a7507e2e361b7e24023709060001990600401612025565b6020604051808303816000875af1158015610c41573d6000803e3d6000fd5b505050506040513d601f19601f82011682018060405250810190610c659190612046565b5060405163095ea7b360e01b815273a7d7079b0fead91f3e65f86e8915cb59c1a4c6649063095ea7b390610cb5907366357dcace80431aee0a7507e2e361b7e24023709060001990600401612025565b6020604051808303816000875af1158015610cd4573d6000803e3d6000fd5b505050506040513d601f19601f82011682018060405250810190610cf89190612046565b5060405163095ea7b360e01b815273d586e7f844cea2f87f50152665bcbc2c279d8d709063095ea7b390610d48907366357dcace80431aee0a7507e2e361b7e24023709060001990600401612025565b6020604051808303816000875af1158015610d67573d6000803e3d6000fd5b505050506040513d601f19601f82011682018060405250810190610d8b9190612046565b5060405163095ea7b360e01b815273111111111111ed1d73f860f57b2798b683f2d3259063095ea7b390610ddb90731da20ac34187b2d9c74f729b85acb225d3341b259060001990600401612025565b6020604051808303816000875af1158015610dfa573d6000803e3d6000fd5b505050506040513d601f19601f82011682018060405250810190610e1e9190612046565b508015610e31576000805461ff00191690555b50565b33600090815260996020526040902054610e605760405162461bcd60e51b815260040161060290612099565b336000908152609960205260409020546108b690610669565b60606037805461051590611eab565b3360008181526034602090815260408083206001600160a01b038716845290915281205490919083811015610ecf5760405162461bcd60e51b815260040161060290612101565b610edc82868684036110ed565b506001949350505050565b6000336105a6818585611203565b60405163095ea7b360e01b81526001600160a01b0383169063095ea7b390610f2590849060001990600401612025565b6020604051808303816000875af1158015610f44573d6000803e3d6000fd5b505050506040513d601f19601f82011682018060405250810190610f689190612046565b505050565b6001600160a01b03831660009081526097602052604090205460ff16610fa55760405162461bcd60e51b815260040161060290611f90565b33600090815260996020526040902054821115610fd45760405162461bcd60e51b815260040161060290612099565b60007fffffffffffffffffffffffff4681061078cb38e6fb27ffd074943992263b75926001600160a01b038516016110145761100f83610669565b611084565b846000036110445761103d73b97ef9ef8734c71904d8002f8b6bc66dd9c48a6e85858530611714565b9050611084565b8460010361108457611081731da20ac34187b2d9c74f729b85acb225d3341b2573b97ef9ef8734c71904d8002f8b6bc66dd9c48a6e8686866117ae565b90505b61108d81610669565b5050505050565b6065546001600160a01b031633146110be5760405162461bcd60e51b815260040161060290611f09565b6001600160a01b0381166110e45760405162461bcd60e51b815260040161060290612169565b610e318161164a565b6001600160a01b0383166111135760405162461bcd60e51b8152600401610602906121d1565b6001600160a01b0382166111395760405162461bcd60e51b815260040161060290612239565b6001600160a01b0380841660008181526034602090815260408083209487168084529490915290819020849055517f8c5be1e5ebec7d5bd14f71427d1e84f3dd0314c0f7b2291e5b200ac8c7c3b92590611194908590611b48565b60405180910390a3505050565b6001600160a01b0383811660009081526034602090815260408083209386168352929052205460001981146111fd57818110156111f05760405162461bcd60e51b81526004016106029061227b565b6111fd84848484036110ed565b50505050565b6001600160a01b0383166112295760405162461bcd60e51b8152600401610602906122e3565b6001600160a01b03821661124f5760405162461bcd60e51b81526004016106029061234b565b6001600160a01b038316600090815260336020526040902054818110156112885760405162461bcd60e51b8152600401610602906123b3565b6001600160a01b038085166000908152603360205260408082208585039055918516815290812080548492906112bf908490611f46565b92505081905550826001600160a01b0316846001600160a01b03167fddf252ad1be2c89b69c2b068fc378daa952ba7f163c4a11628f55a4df523b3ef846040516113099190611b48565b60405180910390a36111fd565b600080836001600160a01b03166370a08231306040518263ffffffff1660e01b81526004016113459190611cba565b602060405180830381865afa158015611362573d6000803e3d6000fd5b505050506040513d601f19601f8201168201806040525081019061138691906123ce565b9050828111156113985782915061139c565b8091505b6113b06001600160a01b0385163384611488565b5092915050565b6001600160a01b0382166113dd5760405162461bcd60e51b815260040161060290612447565b6001600160a01b038216600090815260336020526040902054818110156114165760405162461bcd60e51b8152600401610602906124af565b6001600160a01b0383166000908152603360205260408120838303905560358054849290611445908490611f2f565b90915550506040516000906001600160a01b038516907fddf252ad1be2c89b69c2b068fc378daa952ba7f163c4a11628f55a4df523b3ef90611194908690611b48565b610f688363a9059cbb60e01b84846040516024016114a7929190612025565b60408051601f198184030181529190526020810180517bffffffffffffffffffffffffffffffffffffffffffffffffffffffff167fffffffff0000000000000000000000000000000000000000000000000000000090931692909217909152611840565b6111fd846323b872dd60e01b8585856040516024016114a7939291906124bf565b60008660000361154a576115438686868686611714565b905061158b565b8660010361157357611543731da20ac34187b2d9c74f729b85acb225d3341b25878787876117ae565b60405162461bcd60e51b815260040161060290612519565b9695505050505050565b6001600160a01b0382166115bb5760405162461bcd60e51b81526004016106029061255b565b80603560008282546115cd9190611f46565b90915550506001600160a01b038216600090815260336020526040812080548392906115fa908490611f46565b90915550506040516001600160a01b038316906000907fddf252ad1be2c89b69c2b068fc378daa952ba7f163c4a11628f55a4df523b3ef9061163d908590611b48565b60405180910390a35b5050565b606580546001600160a01b038381167fffffffffffffffffffffffff0000000000000000000000000000000000000000831681179093556040519116919082907f8be0079c531659141344cd1fd0a4f28419497f9722a3daafe3b4186f6b6457e090600090a35050565b600054610100900460ff166116db5760405162461bcd60e51b8152600401610602906125c3565b61164682826118cf565b600054610100900460ff1661170c5760405162461bcd60e51b8152600401610602906125c3565b6108b661191d565b60007366357dcace80431aee0a7507e2e361b7e2402370639908fc8b878787878761174042600a611f46565b6040518763ffffffff1660e01b8152600401611761969594939291906125d3565b60408051808303816000875af115801561177f573d6000803e3d6000fd5b505050506040513d601f19601f820116820180604052508101906117a39190612622565b509695505050505050565b6040517f3df021240000000000000000000000000000000000000000000000000000000081526000906001600160a01b03871690633df02124906117fd9084906001908890889060040161266a565b6020604051808303816000875af115801561181c573d6000803e3d6000fd5b505050506040513d601f19601f8201168201806040525081019061158b91906123ce565b6000611895826040518060400160405280602081526020017f5361666545524332303a206c6f772d6c6576656c2063616c6c206661696c6564815250856001600160a01b031661194d9092919063ffffffff16565b805190915015610f6857808060200190518101906118b39190612046565b610f685760405162461bcd60e51b815260040161060290612700565b600054610100900460ff166118f65760405162461bcd60e51b8152600401610602906125c3565b8151611909906036906020850190611a56565b508051610f68906037906020840190611a56565b600054610100900460ff166119445760405162461bcd60e51b8152600401610602906125c3565b6108b63361164a565b606061195c8484600085611964565b949350505050565b6060824710156119865760405162461bcd60e51b815260040161060290612768565b843b6119a45760405162461bcd60e51b8152600401610602906127aa565b600080866001600160a01b031685876040516119c091906127dc565b60006040518083038185875af1925050503d80600081146119fd576040519150601f19603f3d011682016040523d82523d6000602084013e611a02565b606091505b5091509150611a12828286611a1d565b979650505050505050565b60608315611a2c5750816105d1565b825115611a3c5782518084602001fd5b8160405162461bcd60e51b81526004016106029190611bb4565b828054611a6290611eab565b90600052602060002090601f016020900481019282611a845760008555611aca565b82601f10611a9d57805160ff1916838001178555611aca565b82800160010185558215611aca579182015b82811115611aca578251825591602001919060010190611aaf565b50611ad6929150611ada565b5090565b5b80821115611ad65760008155600101611adb565b60006001600160a01b0382166105ac565b611b0981611aef565b8114610e3157600080fd5b80356105ac81611b00565b600060208284031215611b3457611b34600080fd5b600061195c8484611b14565b805b82525050565b602081016105ac8284611b40565b60005b83811015611b71578181015183820152602001611b59565b838111156111fd5750506000910152565b6000611b8c825190565b808452602084019350611ba3818560208601611b56565b601f01601f19169290920192915050565b602080825281016105d18184611b82565b80611b09565b80356105ac81611bc5565b60008060408385031215611bec57611bec600080fd5b6000611bf88585611b14565b9250506020611c0985828601611bcb565b9150509250929050565b801515611b42565b602081016105ac8284611c13565b600080600060608486031215611c4157611c41600080fd5b6000611c4d8686611b14565b9350506020611c5e86828701611b14565b9250506040611c6f86828701611bcb565b9150509250925092565b600060208284031215611c8e57611c8e600080fd5b600061195c8484611bcb565b60ff8116611b42565b602081016105ac8284611c9a565b611b4281611aef565b602081016105ac8284611cb1565b60008060008060808587031215611ce157611ce1600080fd5b6000611ced8787611bcb565b9450506020611cfe87828801611b14565b9350506040611d0f87828801611bcb565b9250506060611d2087828801611bcb565b91505092959194509250565b634e487b7160e01b600052604160045260246000fd5b601f19601f830116810181811067ffffffffffffffff82111715611d6857611d68611d2c565b6040525050565b6000611d7a60405190565b9050611d868282611d42565b919050565b600067ffffffffffffffff821115611da557611da5611d2c565b601f19601f83011660200192915050565b82818337506000910152565b6000611dd5611dd084611d8b565b611d6f565b905082815260208101848484011115611df057611df0600080fd5b611dfb848285611db6565b509392505050565b600082601f830112611e1757611e17600080fd5b813561195c848260208601611dc2565b600060208284031215611e3c57611e3c600080fd5b813567ffffffffffffffff811115611e5657611e56600080fd5b61195c84828501611e03565b60008060408385031215611e7857611e78600080fd5b6000611e848585611b14565b9250506020611c0985828601611b14565b634e487b7160e01b600052602260045260246000fd5b600281046001821680611ebf57607f821691505b602082108103611ed157611ed1611e95565b50919050565b60208082527f4f776e61626c653a2063616c6c6572206973206e6f7420746865206f776e657291019081525b60200190565b602080825281016105ac81611ed7565b634e487b7160e01b600052601160045260246000fd5b600082821015611f4157611f41611f19565b500390565b60008219821115611f5957611f59611f19565b500190565b60188152602081017f537461626c65636f696e206e6f7420737570706f72746564000000000000000081529050611f03565b602080825281016105ac81611f5e565b60408101611fae8285611b40565b6105d16020830184611b40565b602e8152602081017f496e697469616c697a61626c653a20636f6e747261637420697320616c72656181527f647920696e697469616c697a6564000000000000000000000000000000000000602082015290505b60400190565b602080825281016105ac81611fbb565b60408101611fae8285611cb1565b801515611b09565b80516105ac81612033565b60006020828403121561205b5761205b600080fd5b600061195c848461203b565b60148152602081017f496e73756666696369656e742062616c616e636500000000000000000000000081529050611f03565b602080825281016105ac81612067565b60258152602081017f45524332303a2064656372656173656420616c6c6f77616e63652062656c6f7781527f207a65726f0000000000000000000000000000000000000000000000000000006020820152905061200f565b602080825281016105ac816120a9565b60268152602081017f4f776e61626c653a206e6577206f776e657220697320746865207a65726f206181527f64647265737300000000000000000000000000000000000000000000000000006020820152905061200f565b602080825281016105ac81612111565b60248152602081017f45524332303a20617070726f76652066726f6d20746865207a65726f2061646481527f72657373000000000000000000000000000000000000000000000000000000006020820152905061200f565b602080825281016105ac81612179565b60228152602081017f45524332303a20617070726f766520746f20746865207a65726f20616464726581527f73730000000000000000000000000000000000000000000000000000000000006020820152905061200f565b602080825281016105ac816121e1565b601d8152602081017f45524332303a20696e73756666696369656e7420616c6c6f77616e636500000081529050611f03565b602080825281016105ac81612249565b60258152602081017f45524332303a207472616e736665722066726f6d20746865207a65726f20616481527f64726573730000000000000000000000000000000000000000000000000000006020820152905061200f565b602080825281016105ac8161228b565b60238152602081017f45524332303a207472616e7366657220746f20746865207a65726f206164647281527f65737300000000000000000000000000000000000000000000000000000000006020820152905061200f565b602080825281016105ac816122f3565b60268152602081017f45524332303a207472616e7366657220616d6f756e742065786365656473206281527f616c616e636500000000000000000000000000000000000000000000000000006020820152905061200f565b602080825281016105ac8161235b565b80516105ac81611bc5565b6000602082840312156123e3576123e3600080fd5b600061195c84846123c3565b60218152602081017f45524332303a206275726e2066726f6d20746865207a65726f2061646472657381527f73000000000000000000000000000000000000000000000000000000000000006020820152905061200f565b602080825281016105ac816123ef565b60228152602081017f45524332303a206275726e20616d6f756e7420657863656564732062616c616e81527f63650000000000000000000000000000000000000000000000000000000000006020820152905061200f565b602080825281016105ac81612457565b606081016124cd8286611cb1565b6124da6020830185611cb1565b61195c6040830184611b40565b60138152602081017f4465706f7369742073776170206661696c65640000000000000000000000000081529050611f03565b602080825281016105ac816124e7565b601f8152602081017f45524332303a206d696e7420746f20746865207a65726f20616464726573730081529050611f03565b602080825281016105ac81612529565b602b8152602081017f496e697469616c697a61626c653a20636f6e7472616374206973206e6f74206981527f6e697469616c697a696e670000000000000000000000000000000000000000006020820152905061200f565b602080825281016105ac8161256b565b60c081016125e18289611cb1565b6125ee6020830188611cb1565b6125fb6040830187611b40565b6126086060830186611b40565b6126156080830185611cb1565b611a1260a0830184611b40565b6000806040838503121561263857612638600080fd5b600061264485856123c3565b9250506020611c09858286016123c3565b60006105ac82600f0b90565b611b4281612655565b608081016126788287612661565b6126856020830186612661565b6126926040830185611b40565b61269f6060830184611b40565b95945050505050565b602a8152602081017f5361666545524332303a204552433230206f7065726174696f6e20646964206e81527f6f742073756363656564000000000000000000000000000000000000000000006020820152905061200f565b602080825281016105ac816126a8565b60268152602081017f416464726573733a20696e73756666696369656e742062616c616e636520666f81527f722063616c6c00000000000000000000000000000000000000000000000000006020820152905061200f565b602080825281016105ac81612710565b601d8152602081017f416464726573733a2063616c6c20746f206e6f6e2d636f6e747261637400000081529050611f03565b602080825281016105ac81612778565b60006127c4825190565b6127d2818560208601611b56565b9290920192915050565b6105ac81836127ba56fea264697066735822122025aeadb738f744d07c729a6a37a3fca2a3bec870d6fce6b902b408a2e08ae75164736f6c634300080d0033",
  "devdoc": {
    "author": "Eric Lee (ylikp.ust@gmail.com)",
    "details": "Users can swap other stablecoins to Shield (actually backed by USDC only)         Shield can be used in NaughtyPrice and future products         When users want to withdraw, their shield tokens will be burned         and USDC will be sent back to them (if no sepecific choice)             other stablecoins will be sent back to them (if have sepecific choice)         Currently, the swap is done inside Platypus & Curve         The stablecoin and its swapping pool should be supported",
    "kind": "dev",
    "methods": {
      "addSupportedStablecoin(address)": {
        "details": "Set a new supported token address      Only callable by the owner",
        "params": {
          "_stablecoin": "Stablecoin address"
        }
      },
      "allowance(address,address)": {
        "details": "See {IERC20-allowance}."
      },
      "approve(address,uint256)": {
        "details": "See {IERC20-approve}. NOTE: If `amount` is the maximum `uint256`, the allowance is not updated on `transferFrom`. This is semantically equivalent to an infinite approval. Requirements: - `spender` cannot be the zero address."
      },
      "approveStablecoin(address,address)": {
        "params": {
          "_contract": "Contract address to give allowance",
          "_token": "Stablecoin address"
        }
      },
      "balanceOf(address)": {
        "details": "See {IERC20-balanceOf}."
      },
      "decreaseAllowance(address,uint256)": {
        "details": "Atomically decreases the allowance granted to `spender` by the caller. This is an alternative to {approve} that can be used as a mitigation for problems described in {IERC20-approve}. Emits an {Approval} event indicating the updated allowance. Requirements: - `spender` cannot be the zero address. - `spender` must have allowance for the caller of at least `subtractedValue`."
      },
      "deposit(uint256,address,uint256,uint256)": {
        "params": {
          "_amount": "Input stablecoin amount",
          "_minAmount": "Minimum amount output (if need swap)",
          "_stablecoin": "Stablecoin address"
        }
      },
      "increaseAllowance(address,uint256)": {
        "details": "Atomically increases the allowance granted to `spender` by the caller. This is an alternative to {approve} that can be used as a mitigation for problems described in {IERC20-approve}. Emits an {Approval} event indicating the updated allowance. Requirements: - `spender` cannot be the zero address."
      },
      "name()": {
        "details": "Returns the name of the token."
      },
      "owner()": {
        "details": "Returns the address of the current owner."
      },
      "renounceOwnership()": {
        "details": "Leaves the contract without owner. It will not be possible to call `onlyOwner` functions anymore. Can only be called by the current owner. NOTE: Renouncing ownership will leave the contract without an owner, thereby removing any functionality that is only available to the owner."
      },
      "symbol()": {
        "details": "Returns the symbol of the token, usually a shorter version of the name."
      },
      "totalSupply()": {
        "details": "See {IERC20-totalSupply}."
      },
      "transfer(address,uint256)": {
        "details": "See {IERC20-transfer}. Requirements: - `to` cannot be the zero address. - the caller must have a balance of at least `amount`."
      },
      "transferFrom(address,address,uint256)": {
        "details": "See {IERC20-transferFrom}. Emits an {Approval} event indicating the updated allowance. This is not required by the EIP. See the note at the beginning of {ERC20}. NOTE: Does not update the allowance if the current allowance is the maximum `uint256`. Requirements: - `from` and `to` cannot be the zero address. - `from` must have a balance of at least `amount`. - the caller must have allowance for ``from``'s tokens of at least `amount`."
      },
      "transferOwnership(address)": {
        "details": "Transfers ownership of the contract to a new account (`newOwner`). Can only be called by the current owner."
      },
      "withdraw(uint256)": {
        "params": {
          "_amount": "Amount of Shield to be burned"
        }
      },
      "withdraw(uint256,address,uint256,uint256)": {
        "params": {
          "_amount": "Amount of shield to burn",
          "_minAmount": "Minimum amount of stablecoin to withdraw (if need swap)",
          "_stablecoin": "Stablecoin address",
          "_type": "Swap type (use PTP/Curve, which pool)"
        }
      }
    },
    "title": "Shield Token (Derived Stablecoin on Degis)",
    "version": 1
  },
  "userdoc": {
    "kind": "user",
    "methods": {
      "addSupportedStablecoin(address)": {
        "notice": "Add new supported stablecoin"
      },
      "approveStablecoin(address,address)": {
        "notice": "Approve a stablecoin for swapping         Call once for each stablecoin"
      },
      "decimals()": {
        "notice": "Shield has 6 decimals"
      },
      "deposit(uint256,address,uint256,uint256)": {
        "notice": "Deposit tokens and mint Shield         If the input is USDC, no swap needed, otherwise, swap to USDC"
      },
      "withdraw(uint256)": {
        "notice": "Withdraw stablecoins"
      },
      "withdraw(uint256,address,uint256,uint256)": {
        "notice": "Withdraw stablecoins and burn shield"
      },
      "withdrawAll()": {
        "notice": "Withdraw all of a user's balance"
      }
    },
    "version": 1
  },
  "storageLayout": {
    "storage": [
      {
        "astId": 2670,
        "contract": "contracts/tokens/Shield.sol:Shield",
        "label": "_initialized",
        "offset": 0,
        "slot": "0",
        "type": "t_bool"
      },
      {
        "astId": 2673,
        "contract": "contracts/tokens/Shield.sol:Shield",
        "label": "_initializing",
        "offset": 1,
        "slot": "0",
        "type": "t_bool"
      },
      {
        "astId": 3907,
        "contract": "contracts/tokens/Shield.sol:Shield",
        "label": "__gap",
        "offset": 0,
        "slot": "1",
        "type": "t_array(t_uint256)50_storage"
      },
      {
        "astId": 2926,
        "contract": "contracts/tokens/Shield.sol:Shield",
        "label": "_balances",
        "offset": 0,
        "slot": "51",
        "type": "t_mapping(t_address,t_uint256)"
      },
      {
        "astId": 2932,
        "contract": "contracts/tokens/Shield.sol:Shield",
        "label": "_allowances",
        "offset": 0,
        "slot": "52",
        "type": "t_mapping(t_address,t_mapping(t_address,t_uint256))"
      },
      {
        "astId": 2934,
        "contract": "contracts/tokens/Shield.sol:Shield",
        "label": "_totalSupply",
        "offset": 0,
        "slot": "53",
        "type": "t_uint256"
      },
      {
        "astId": 2936,
        "contract": "contracts/tokens/Shield.sol:Shield",
        "label": "_name",
        "offset": 0,
        "slot": "54",
        "type": "t_string_storage"
      },
      {
        "astId": 2938,
        "contract": "contracts/tokens/Shield.sol:Shield",
        "label": "_symbol",
        "offset": 0,
        "slot": "55",
        "type": "t_string_storage"
      },
      {
        "astId": 3519,
        "contract": "contracts/tokens/Shield.sol:Shield",
        "label": "__gap",
        "offset": 0,
        "slot": "56",
        "type": "t_array(t_uint256)45_storage"
      },
      {
        "astId": 2550,
        "contract": "contracts/tokens/Shield.sol:Shield",
        "label": "_owner",
        "offset": 0,
        "slot": "101",
        "type": "t_address"
      },
      {
        "astId": 2662,
        "contract": "contracts/tokens/Shield.sol:Shield",
        "label": "__gap",
        "offset": 0,
        "slot": "102",
        "type": "t_array(t_uint256)49_storage"
      },
      {
        "astId": 38904,
        "contract": "contracts/tokens/Shield.sol:Shield",
        "label": "supportedStablecoin",
        "offset": 0,
        "slot": "151",
        "type": "t_mapping(t_address,t_bool)"
      },
      {
        "astId": 38908,
        "contract": "contracts/tokens/Shield.sol:Shield",
        "label": "pools",
        "offset": 0,
        "slot": "152",
        "type": "t_mapping(t_string_memory_ptr,t_address)"
      },
      {
        "astId": 38912,
        "contract": "contracts/tokens/Shield.sol:Shield",
        "label": "userBalance",
        "offset": 0,
        "slot": "153",
        "type": "t_mapping(t_address,t_uint256)"
      }
    ],
    "types": {
      "t_address": {
        "encoding": "inplace",
        "label": "address",
        "numberOfBytes": "20"
      },
      "t_array(t_uint256)45_storage": {
        "base": "t_uint256",
        "encoding": "inplace",
        "label": "uint256[45]",
        "numberOfBytes": "1440"
      },
      "t_array(t_uint256)49_storage": {
        "base": "t_uint256",
        "encoding": "inplace",
        "label": "uint256[49]",
        "numberOfBytes": "1568"
      },
      "t_array(t_uint256)50_storage": {
        "base": "t_uint256",
        "encoding": "inplace",
        "label": "uint256[50]",
        "numberOfBytes": "1600"
      },
      "t_bool": {
        "encoding": "inplace",
        "label": "bool",
        "numberOfBytes": "1"
      },
      "t_mapping(t_address,t_bool)": {
        "encoding": "mapping",
        "key": "t_address",
        "label": "mapping(address => bool)",
        "numberOfBytes": "32",
        "value": "t_bool"
      },
      "t_mapping(t_address,t_mapping(t_address,t_uint256))": {
        "encoding": "mapping",
        "key": "t_address",
        "label": "mapping(address => mapping(address => uint256))",
        "numberOfBytes": "32",
        "value": "t_mapping(t_address,t_uint256)"
      },
      "t_mapping(t_address,t_uint256)": {
        "encoding": "mapping",
        "key": "t_address",
        "label": "mapping(address => uint256)",
        "numberOfBytes": "32",
        "value": "t_uint256"
      },
      "t_mapping(t_string_memory_ptr,t_address)": {
        "encoding": "mapping",
        "key": "t_string_memory_ptr",
        "label": "mapping(string => address)",
        "numberOfBytes": "32",
        "value": "t_address"
      },
      "t_string_memory_ptr": {
        "encoding": "bytes",
        "label": "string",
        "numberOfBytes": "32"
      },
      "t_string_storage": {
        "encoding": "bytes",
        "label": "string",
        "numberOfBytes": "32"
      },
      "t_uint256": {
        "encoding": "inplace",
        "label": "uint256",
        "numberOfBytes": "32"
      }
    }
  }
}