{
  "address": "0x952a5CD023ff12F17d1613deF6308a15289E922d",
  "abi": [
    {
      "inputs": [],
      "name": "VED__NotEnoughBalance",
      "type": "error"
    },
    {
      "inputs": [],
      "name": "VED__NotWhiteListed",
      "type": "error"
    },
    {
      "inputs": [],
      "name": "VED__OverLocked",
      "type": "error"
    },
    {
      "inputs": [],
      "name": "VED__StillLocked",
      "type": "error"
    },
    {
      "inputs": [],
      "name": "VED__TimeNotPassed",
      "type": "error"
    },
    {
      "inputs": [],
      "name": "VED__ZeroAddress",
      "type": "error"
    },
    {
      "inputs": [],
      "name": "VED__ZeroAmount",
      "type": "error"
    },
    {
      "anonymous": false,
      "inputs": [
        {
          "indexed": true,
          "internalType": "address",
          "name": "account",
          "type": "address"
        },
        {
          "indexed": false,
          "internalType": "uint256",
          "name": "value",
          "type": "uint256"
        }
      ],
      "name": "Burn",
      "type": "event"
    },
    {
      "anonymous": false,
      "inputs": [
        {
          "indexed": true,
          "internalType": "address",
          "name": "caller",
          "type": "address"
        },
        {
          "indexed": true,
          "internalType": "address",
          "name": "user",
          "type": "address"
        },
        {
          "indexed": false,
          "internalType": "uint256",
          "name": "amount",
          "type": "uint256"
        }
      ],
      "name": "BurnVeDEG",
      "type": "event"
    },
    {
      "anonymous": false,
      "inputs": [
        {
          "indexed": true,
          "internalType": "address",
          "name": "user",
          "type": "address"
        },
        {
          "indexed": false,
          "internalType": "uint256",
          "name": "amount",
          "type": "uint256"
        }
      ],
      "name": "Claimed",
      "type": "event"
    },
    {
      "anonymous": false,
      "inputs": [
        {
          "indexed": true,
          "internalType": "address",
          "name": "user",
          "type": "address"
        },
        {
          "indexed": false,
          "internalType": "uint256",
          "name": "amount",
          "type": "uint256"
        }
      ],
      "name": "Deposit",
      "type": "event"
    },
    {
      "anonymous": false,
      "inputs": [
        {
          "indexed": true,
          "internalType": "address",
          "name": "user",
          "type": "address"
        },
        {
          "indexed": false,
          "internalType": "uint256",
          "name": "amount",
          "type": "uint256"
        },
        {
          "indexed": false,
          "internalType": "uint256",
          "name": "lockUntil",
          "type": "uint256"
        }
      ],
      "name": "DepositMaxTime",
      "type": "event"
    },
    {
      "anonymous": false,
      "inputs": [
        {
          "indexed": false,
          "internalType": "uint256",
          "name": "oldRate",
          "type": "uint256"
        },
        {
          "indexed": false,
          "internalType": "uint256",
          "name": "newRate",
          "type": "uint256"
        }
      ],
      "name": "GenerationRateChanged",
      "type": "event"
    },
    {
      "anonymous": false,
      "inputs": [
        {
          "indexed": true,
          "internalType": "address",
          "name": "caller",
          "type": "address"
        },
        {
          "indexed": true,
          "internalType": "address",
          "name": "user",
          "type": "address"
        },
        {
          "indexed": false,
          "internalType": "uint256",
          "name": "amount",
          "type": "uint256"
        }
      ],
      "name": "LockVeDEG",
      "type": "event"
    },
    {
      "anonymous": false,
      "inputs": [
        {
          "indexed": false,
          "internalType": "uint256",
          "name": "oldMaxCapRatio",
          "type": "uint256"
        },
        {
          "indexed": false,
          "internalType": "uint256",
          "name": "newMaxCapRatio",
          "type": "uint256"
        }
      ],
      "name": "MaxCapRatioChanged",
      "type": "event"
    },
    {
      "anonymous": false,
      "inputs": [
        {
          "indexed": true,
          "internalType": "address",
          "name": "beneficiary",
          "type": "address"
        },
        {
          "indexed": false,
          "internalType": "uint256",
          "name": "value",
          "type": "uint256"
        }
      ],
      "name": "Mint",
      "type": "event"
    },
    {
      "anonymous": false,
      "inputs": [
        {
          "indexed": true,
          "internalType": "address",
          "name": "previousOwner",
          "type": "address"
        },
        {
          "indexed": true,
          "internalType": "address",
          "name": "newOwner",
          "type": "address"
        }
      ],
      "name": "OwnershipTransferred",
      "type": "event"
    },
    {
      "anonymous": false,
      "inputs": [
        {
          "indexed": false,
          "internalType": "address",
          "name": "account",
          "type": "address"
        }
      ],
      "name": "Paused",
      "type": "event"
    },
    {
      "anonymous": false,
      "inputs": [
        {
          "indexed": true,
          "internalType": "address",
          "name": "caller",
          "type": "address"
        },
        {
          "indexed": true,
          "internalType": "address",
          "name": "user",
          "type": "address"
        },
        {
          "indexed": false,
          "internalType": "uint256",
          "name": "amount",
          "type": "uint256"
        }
      ],
      "name": "UnlockVeDEG",
      "type": "event"
    },
    {
      "anonymous": false,
      "inputs": [
        {
          "indexed": false,
          "internalType": "address",
          "name": "account",
          "type": "address"
        }
      ],
      "name": "Unpaused",
      "type": "event"
    },
    {
      "anonymous": false,
      "inputs": [
        {
          "indexed": false,
          "internalType": "address",
          "name": "newWhiteList",
          "type": "address"
        }
      ],
      "name": "WhiteListAdded",
      "type": "event"
    },
    {
      "anonymous": false,
      "inputs": [
        {
          "indexed": false,
          "internalType": "address",
          "name": "oldWhiteList",
          "type": "address"
        }
      ],
      "name": "WhiteListRemoved",
      "type": "event"
    },
    {
      "anonymous": false,
      "inputs": [
        {
          "indexed": true,
          "internalType": "address",
          "name": "user",
          "type": "address"
        },
        {
          "indexed": false,
          "internalType": "uint256",
          "name": "amount",
          "type": "uint256"
        }
      ],
      "name": "Withdraw",
      "type": "event"
    },
    {
      "inputs": [],
      "name": "SCALE",
      "outputs": [
        {
          "internalType": "uint256",
          "name": "",
          "type": "uint256"
        }
      ],
      "stateMutability": "view",
      "type": "function"
    },
    {
      "inputs": [
        {
          "internalType": "address",
          "name": "_account",
          "type": "address"
        }
      ],
      "name": "addWhitelist",
      "outputs": [],
      "stateMutability": "nonpayable",
      "type": "function"
    },
    {
      "inputs": [
        {
          "internalType": "address",
          "name": "account",
          "type": "address"
        }
      ],
      "name": "balanceOf",
      "outputs": [
        {
          "internalType": "uint256",
          "name": "",
          "type": "uint256"
        }
      ],
      "stateMutability": "view",
      "type": "function"
    },
    {
      "inputs": [
        {
          "internalType": "address",
          "name": "_to",
          "type": "address"
        },
        {
          "internalType": "uint256",
          "name": "_amount",
          "type": "uint256"
        }
      ],
      "name": "burnVeDEG",
      "outputs": [],
      "stateMutability": "nonpayable",
      "type": "function"
    },
    {
      "inputs": [],
      "name": "claim",
      "outputs": [],
      "stateMutability": "nonpayable",
      "type": "function"
    },
    {
      "inputs": [
        {
          "internalType": "address",
          "name": "_user",
          "type": "address"
        }
      ],
      "name": "claimable",
      "outputs": [
        {
          "internalType": "uint256",
          "name": "",
          "type": "uint256"
        }
      ],
      "stateMutability": "view",
      "type": "function"
    },
    {
      "inputs": [],
      "name": "decimals",
      "outputs": [
        {
          "internalType": "uint8",
          "name": "",
          "type": "uint8"
        }
      ],
      "stateMutability": "view",
      "type": "function"
    },
    {
      "inputs": [],
      "name": "degis",
      "outputs": [
        {
          "internalType": "contract IERC20",
          "name": "",
          "type": "address"
        }
      ],
      "stateMutability": "view",
      "type": "function"
    },
    {
      "inputs": [
        {
          "internalType": "uint256",
          "name": "_amount",
          "type": "uint256"
        }
      ],
      "name": "deposit",
      "outputs": [],
      "stateMutability": "nonpayable",
      "type": "function"
    },
    {
      "inputs": [
        {
          "internalType": "uint256",
          "name": "_amount",
          "type": "uint256"
        }
      ],
      "name": "depositMaxTime",
      "outputs": [],
      "stateMutability": "nonpayable",
      "type": "function"
    },
    {
      "inputs": [],
      "name": "farmingPool",
      "outputs": [
        {
          "internalType": "contract IFarmingPool",
          "name": "",
          "type": "address"
        }
      ],
      "stateMutability": "view",
      "type": "function"
    },
    {
      "inputs": [],
      "name": "generationRate",
      "outputs": [
        {
          "internalType": "uint256",
          "name": "",
          "type": "uint256"
        }
      ],
      "stateMutability": "view",
      "type": "function"
    },
    {
      "inputs": [
        {
          "internalType": "address",
          "name": "_degis",
          "type": "address"
        },
        {
          "internalType": "address",
          "name": "_farmingPool",
          "type": "address"
        }
      ],
      "name": "initialize",
      "outputs": [],
      "stateMutability": "nonpayable",
      "type": "function"
    },
    {
      "inputs": [
        {
          "internalType": "address",
          "name": "_to",
          "type": "address"
        },
        {
          "internalType": "uint256",
          "name": "_amount",
          "type": "uint256"
        }
      ],
      "name": "lockVeDEG",
      "outputs": [],
      "stateMutability": "nonpayable",
      "type": "function"
    },
    {
      "inputs": [
        {
          "internalType": "address",
          "name": "",
          "type": "address"
        }
      ],
      "name": "locked",
      "outputs": [
        {
          "internalType": "uint256",
          "name": "",
          "type": "uint256"
        }
      ],
      "stateMutability": "view",
      "type": "function"
    },
    {
      "inputs": [],
      "name": "maxCapRatio",
      "outputs": [
        {
          "internalType": "uint256",
          "name": "",
          "type": "uint256"
        }
      ],
      "stateMutability": "view",
      "type": "function"
    },
    {
      "inputs": [],
      "name": "name",
      "outputs": [
        {
          "internalType": "string",
          "name": "",
          "type": "string"
        }
      ],
      "stateMutability": "view",
      "type": "function"
    },
    {
      "inputs": [],
      "name": "owner",
      "outputs": [
        {
          "internalType": "address",
          "name": "",
          "type": "address"
        }
      ],
      "stateMutability": "view",
      "type": "function"
    },
    {
      "inputs": [],
      "name": "pause",
      "outputs": [],
      "stateMutability": "nonpayable",
      "type": "function"
    },
    {
      "inputs": [],
      "name": "paused",
      "outputs": [
        {
          "internalType": "bool",
          "name": "",
          "type": "bool"
        }
      ],
      "stateMutability": "view",
      "type": "function"
    },
    {
      "inputs": [
        {
          "internalType": "address",
          "name": "_account",
          "type": "address"
        }
      ],
      "name": "removeWhitelist",
      "outputs": [],
      "stateMutability": "nonpayable",
      "type": "function"
    },
    {
      "inputs": [],
      "name": "renounceOwnership",
      "outputs": [],
      "stateMutability": "nonpayable",
      "type": "function"
    },
    {
      "inputs": [
        {
          "internalType": "uint256",
          "name": "_generationRate",
          "type": "uint256"
        }
      ],
      "name": "setGenerationRate",
      "outputs": [],
      "stateMutability": "nonpayable",
      "type": "function"
    },
    {
      "inputs": [
        {
          "internalType": "uint256",
          "name": "_maxCapRatio",
          "type": "uint256"
        }
      ],
      "name": "setMaxCapRatio",
      "outputs": [],
      "stateMutability": "nonpayable",
      "type": "function"
    },
    {
      "inputs": [],
      "name": "symbol",
      "outputs": [
        {
          "internalType": "string",
          "name": "",
          "type": "string"
        }
      ],
      "stateMutability": "view",
      "type": "function"
    },
    {
      "inputs": [],
      "name": "totalSupply",
      "outputs": [
        {
          "internalType": "uint256",
          "name": "",
          "type": "uint256"
        }
      ],
      "stateMutability": "view",
      "type": "function"
    },
    {
      "inputs": [
        {
          "internalType": "address",
          "name": "newOwner",
          "type": "address"
        }
      ],
      "name": "transferOwnership",
      "outputs": [],
      "stateMutability": "nonpayable",
      "type": "function"
    },
    {
      "inputs": [
        {
          "internalType": "address",
          "name": "_to",
          "type": "address"
        },
        {
          "internalType": "uint256",
          "name": "_amount",
          "type": "uint256"
        }
      ],
      "name": "unlockVeDEG",
      "outputs": [],
      "stateMutability": "nonpayable",
      "type": "function"
    },
    {
      "inputs": [],
      "name": "unpause",
      "outputs": [],
      "stateMutability": "nonpayable",
      "type": "function"
    },
    {
      "inputs": [
        {
          "internalType": "address",
          "name": "",
          "type": "address"
        }
      ],
      "name": "users",
      "outputs": [
        {
          "internalType": "uint256",
          "name": "amount",
          "type": "uint256"
        },
        {
          "internalType": "uint256",
          "name": "lastRelease",
          "type": "uint256"
        },
        {
          "internalType": "uint256",
          "name": "amountLocked",
          "type": "uint256"
        },
        {
          "internalType": "uint256",
          "name": "lockUntil",
          "type": "uint256"
        }
      ],
      "stateMutability": "view",
      "type": "function"
    },
    {
      "inputs": [
        {
          "internalType": "uint256",
          "name": "_amount",
          "type": "uint256"
        }
      ],
      "name": "withdraw",
      "outputs": [],
      "stateMutability": "nonpayable",
      "type": "function"
    },
    {
      "inputs": [],
      "name": "withdrawLocked",
      "outputs": [],
      "stateMutability": "nonpayable",
      "type": "function"
    }
  ],
  "transactionHash": "0x5f817372216acc5c5d88fe4dd6b4a07f174a310a95dbe1f11990bdb661ee40ac",
  "args": [],
  "numDeployments": 3,
  "solcInputHash": "e77a61d09eeb82c82e940ae38e1e59b8",
  "bytecode": "0x608060405234801561001057600080fd5b50612490806100206000396000f3fe608060405234801561001057600080fd5b50600436106101f05760003560e01c80637b196fbc1161010f578063b6b55f25116100a2578063d75aca1911610071578063d75aca1914610423578063eced552614610436578063f2fde38b14610445578063f80f5dd51461045857600080fd5b8063b6b55f25146103d4578063b93dd6ad146103e7578063cbf9fe5f146103fa578063d135cc4b1461041b57600080fd5b806395d89b41116100de57806395d89b411461036157806397b85b6a14610369578063a87430ba1461037c578063ae4210b0146103c157600080fd5b80637b196fbc146103245780637b1ba250146103375780638456cb59146103405780638da5cb5b1461034857600080fd5b8063485cc95511610187578063715018a611610156578063715018a6146102ed57806374819f4a146102f557806378ad54c2146102fe57806378c8cda71461031157600080fd5b8063485cc955146102965780634e71d92d146102a95780635c975abb146102b157806370a08231146102c457600080fd5b80632e1a7d4d116101c35780632e1a7d4d14610259578063313ce5671461026c5780633f4ba83a1461027b578063402914f51461028357600080fd5b806306fdde03146101f557806318160ddd14610213578063282a11291461022457806329fd200714610239575b600080fd5b6101fd61046b565b60405161020a9190611cae565b60405180910390f35b60cb545b60405161020a9190611cc7565b610237610232366004611ced565b6104fd565b005b60fc5461024c906001600160a01b031681565b60405161020a9190611d3e565b610237610267366004611ced565b610591565b601260405161020a9190611d55565b61023761072e565b610217610291366004611d77565b610762565b6102376102a4366004611d98565b610894565b610237610a1d565b60975460ff1660405161020a9190611ddd565b6102176102d2366004611d77565b6001600160a01b0316600090815260c9602052604090205490565b610237610aa6565b61021760fe5481565b61023761030c366004611deb565b610ada565b61023761031f366004611d77565b610bb4565b610237610332366004611ced565b610c3a565b61021760ff5481565b610237610d90565b6033546001600160a01b031660405161020a9190611e27565b6101fd610dc2565b610237610377366004611deb565b610dd1565b6103b161038a366004611d77565b60fb6020526000908152604090208054600182015460028301546003909301549192909184565b60405161020a9493929190611e35565b6102376103cf366004611deb565b610e89565b6102376103e2366004611ced565b610f07565b6102376103f5366004611ced565b611077565b610217610408366004611d77565b6101016020526000908152604090205481565b610237611102565b60fd5461024c906001600160a01b031681565b610217670de0b6b3a764000081565b610237610453366004611d77565b611274565b610237610466366004611d77565b6112d0565b606060cc805461047a90611e89565b80601f01602080910402602001604051908101604052809291908181526020018280546104a690611e89565b80156104f35780601f106104c8576101008083540402835291602001916104f3565b820191906000526020600020905b8154815290600101906020018083116104d657829003601f168201915b5050505050905090565b6033546001600160a01b031633146105305760405162461bcd60e51b815260040161052790611ee7565b60405180910390fd5b8060000361055157604051631f2e205f60e21b815260040160405180910390fd5b7fe5f68083dea62da883cd798293e1c21d050b1fb0d77ef46e71ac77e5bab3533460ff5482604051610584929190611ef7565b60405180910390a160ff55565b6002606554036105b35760405162461bcd60e51b815260040161052790611f44565b600260655560975460ff16156105db5760405162461bcd60e51b815260040161052790611f86565b33600081815261010160205260409020541561060a57604051639c72879360e01b815260040160405180910390fd5b8160000361062b57604051631f2e205f60e21b815260040160405180910390fd5b33600090815260fb602052604090205482111561065b57604051632d230a6960e21b815260040160405180910390fd5b33600090815260fb602052604081204260018201558054849290610680908490611fac565b909155505060fe5433600090815260fb602052604081206002015490916106a691611fc3565b33600090815260c960205260409020546106c09190611fac565b90506106cc338261134e565b60fc546106e3906001600160a01b03163385611448565b336001600160a01b03167f884edad9ce6fa2440d8a54cc123490eb96d2768479d49ff9c7366125a94243648460405161071c9190611cc7565b60405180910390a25050600160655550565b6033546001600160a01b031633146107585760405162461bcd60e51b815260040161052790611ee7565b6107606114cb565b565b60006001600160a01b03821661078b576040516315fdcee360e21b815260040160405180910390fd5b6001600160a01b038216600090815260fb60209081526040808320815160808101835281548152600182015493810184905260028201549281019290925260030154606082015291906107de9042611fac565b905060006107fd836000015160ff54846107f89190611fc3565b611531565b9050600060fe5484604001516108139190611fc3565b6001600160a01b038716600090815260c960205260409020546108369190611fac565b9050600060fe54856000015161084c9190611fc3565b90508082101561088757806108618484611fe2565b111561087c576108718282611fac565b979650505050505050565b509095945050505050565b5060009695505050505050565b600054610100900460ff166108af5760005460ff16156108b3565b303b155b6108cf5760405162461bcd60e51b815260040161052790612054565b600054610100900460ff161580156108f1576000805461ffff19166101011790555b6001600160a01b038316158061090e57506001600160a01b038216155b1561092c576040516315fdcee360e21b815260040160405180910390fd5b6109a06040518060400160405280601381526020017f566f746520457363726f776564204465676973000000000000000000000000008152506040518060400160405280600581526020017f766544454700000000000000000000000000000000000000000000000000000081525061156e565b6109a86115ab565b6109b06115da565b6109b8611601565b670de0b6b3a764000060ff55606460fe5560fc80546001600160a01b0380861673ffffffffffffffffffffffffffffffffffffffff199283161790925560fd8054928516929091169190911790558015610a18576000805461ff00191690555b505050565b600260655403610a3f5760405162461bcd60e51b815260040161052790611f44565b600260655560975460ff1615610a675760405162461bcd60e51b815260040161052790611f86565b33600090815260fb60205260408120549003610a9657604051631f2e205f60e21b815260040160405180910390fd5b610a9f33611634565b6001606555565b6033546001600160a01b03163314610ad05760405162461bcd60e51b815260040161052790611ee7565b61076060006116b1565b336000908152610100602052604090205460ff16610b0b57604051633d07cdc960e21b815260040160405180910390fd5b6001600160a01b038216600090815260c9602090815260408083205461010190925290912054610b3c908390611fe2565b1115610b5b57604051630b1b1a5560e31b815260040160405180910390fd5b610b658282611710565b816001600160a01b0316336001600160a01b03167f93a795780f13556c14c8b9c16ccadbc51b7c478437678803f77560f8917aa63683604051610ba89190611cc7565b60405180910390a35050565b6033546001600160a01b03163314610bde5760405162461bcd60e51b815260040161052790611ee7565b6001600160a01b0381166000908152610100602052604090819020805460ff19169055517fdb0d54f6e7ff4a52bdc49b4c8d9ff245f409fee25c2c0a0a72ece14e2ddf4cfc90610c2f908390611e27565b60405180910390a150565b600260655403610c5c5760405162461bcd60e51b815260040161052790611f44565b600260655560975460ff1615610c845760405162461bcd60e51b815260040161052790611f86565b80600003610ca557604051631f2e205f60e21b815260040160405180910390fd5b600060ff54670de0b6b3a764000060fe54610cc09190611fc3565b610cca919061207a565b90506000610cd9826002611fc3565b610ce39042611fe2565b33600090815260fb6020526040812060020180549293508592909190610d0a908490611fe2565b909155505033600081815260fb6020526040902060030182905560fc54610d3e916001600160a01b03909116903086611742565b610d55338460fe54610d509190611fc3565b611769565b336001600160a01b03167f04f776f8541a42e1afd64d9da6f0d06963de15f3239e9fefc564deb64627b288848360405161071c929190611ef7565b6033546001600160a01b03163314610dba5760405162461bcd60e51b815260040161052790611ee7565b61076061183a565b606060cd805461047a90611e89565b336000908152610100602052604090205460ff16610e0257604051633d07cdc960e21b815260040160405180910390fd5b6001600160a01b03821660009081526101016020526040902054811115610e3c57604051630b1b1a5560e31b815260040160405180910390fd5b610e468282611892565b816001600160a01b0316336001600160a01b03167fcbc7e17e101b714ec71d03c4097cc449cb6bce4570ba056c8ac33df6a114ba7483604051610ba89190611cc7565b336000908152610100602052604090205460ff16610eba57604051633d07cdc960e21b815260040160405180910390fd5b610ec4828261134e565b816001600160a01b0316336001600160a01b03167f84c383384f51b3d0e13f44451483837016049c1ee070bdaabf204c9fe1b74b1383604051610ba89190611cc7565b600260655403610f295760405162461bcd60e51b815260040161052790611f44565b600260655560975460ff1615610f515760405162461bcd60e51b815260040161052790611f86565b33328114610f93576001600160a01b0381166000908152610100602052604090205460ff16610f9357604051633d07cdc960e21b815260040160405180910390fd5b81600003610fb457604051631f2e205f60e21b815260040160405180910390fd5b33600090815260fb602052604090205415610ffc57610fd233611634565b33600090815260fb602052604081208054849290610ff1908490611fe2565b909155506110159050565b33600090815260fb602052604090204260018201558290555b60fc5461102d906001600160a01b0316333085611742565b336001600160a01b03167fe1fffcc4923d04b559f4d29a8bfc6cda04eb5b0d3c460751c2402c5c5cc9109c836040516110669190611cc7565b60405180910390a250506001606555565b6033546001600160a01b031633146110a15760405162461bcd60e51b815260040161052790611ee7565b806000036110c257604051631f2e205f60e21b815260040160405180910390fd5b7f62dddf41445412836e2d6efb42e6554a3ae782ae5d6400cc73dc641198da053a60fe54826040516110f5929190611ef7565b60405180910390a160fe55565b6002606554036111245760405162461bcd60e51b815260040161052790611f44565b600260655560975460ff161561114c5760405162461bcd60e51b815260040161052790611f86565b33600081815261010160205260409020541561117b57604051639c72879360e01b815260040160405180910390fd5b33600090815260fb6020908152604080832081516080810183528154815260018201549381019390935260028101549183018290526003015460608301529091036111d957604051631f2e205f60e21b815260040160405180910390fd5b8060600151421015611217576040517f143cafc800000000000000000000000000000000000000000000000000000000815260040160405180910390fd5b6112323360fe54836040015161122d9190611fc3565b61134e565b33600081815260fb6020526040808220600281018390556003019190915582015160fc5461126b926001600160a01b0390911691611448565b50506001606555565b6033546001600160a01b0316331461129e5760405162461bcd60e51b815260040161052790611ee7565b6001600160a01b0381166112c45760405162461bcd60e51b8152600401610527906120e6565b6112cd816116b1565b50565b6033546001600160a01b031633146112fa5760405162461bcd60e51b815260040161052790611ee7565b6001600160a01b0381166000908152610100602052604090819020805460ff19166001179055517fbf309892cce19064e6d63ba3339f893b199c8cb5041fc6731702cb18e805d29190610c2f908390611e27565b6001600160a01b0382166113745760405162461bcd60e51b81526004016105279061214e565b6001600160a01b038216600090815260c96020526040902054818110156113ad5760405162461bcd60e51b8152600401610527906121b6565b6001600160a01b038316600090815260c960205260408120838303905560cb80548492906113dc908490611fac565b92505081905550826001600160a01b03167fcc16f5dbb4873280815c1ee09dbd06736cffcc184412cf7a71a0fdb75d397ca58360405161141c9190611cc7565b60405180910390a26001600160a01b038316600090815260c96020526040902054610a189084906118f5565b610a188363a9059cbb60e01b84846040516024016114679291906121c6565b60408051601f198184030181529190526020810180517bffffffffffffffffffffffffffffffffffffffffffffffffffffffff167fffffffff0000000000000000000000000000000000000000000000000000000090931692909217909152611976565b60975460ff166114ed5760405162461bcd60e51b815260040161052790612206565b6097805460ff191690557f5db9ee0a495bf2e6ff9c91a7834c1ba4fdd244a5e8aa4e537bd38aeae4b073aa335b6040516115279190611e27565b60405180910390a1565b6000670de0b6b3a764000061154760028261207a565b6115518486611fc3565b61155b9190611fe2565b611565919061207a565b90505b92915050565b600054610100900460ff166115955760405162461bcd60e51b81526004016105279061226e565b61159d611a05565b6115a78282611a2c565b5050565b600054610100900460ff166115d25760405162461bcd60e51b81526004016105279061226e565b610760611a7a565b600054610100900460ff16610a9f5760405162461bcd60e51b81526004016105279061226e565b600054610100900460ff166116285760405162461bcd60e51b81526004016105279061226e565b6097805460ff19169055565b600061163f82610762565b6001600160a01b038316600090815260fb6020526040902042600190910155905080156115a757816001600160a01b03167fd8138f8a3f377c5259ca548e70e4c2de94f129f5a11036a15b69513cba2b426a8260405161169f9190611cc7565b60405180910390a26115a78282611769565b603380546001600160a01b0383811673ffffffffffffffffffffffffffffffffffffffff19831681179093556040519116919082907f8be0079c531659141344cd1fd0a4f28419497f9722a3daafe3b4186f6b6457e090600090a35050565b6001600160a01b0382166000908152610101602052604081208054839290611739908490611fe2565b90915550505050565b611763846323b872dd60e01b8585856040516024016114679392919061227e565b50505050565b6001600160a01b03821661178f5760405162461bcd60e51b8152600401610527906122d8565b8060cb60008282546117a19190611fe2565b90915550506001600160a01b038216600090815260c96020526040812080548392906117ce908490611fe2565b92505081905550816001600160a01b03167f0f6798a560793a54c3bcfe86a93cde1e73087d944c0ea20544137d41213968858260405161180e9190611cc7565b60405180910390a26001600160a01b038216600090815260c960205260409020546115a79083906118f5565b60975460ff161561185d5760405162461bcd60e51b815260040161052790611f86565b6097805460ff191660011790557f62e78cea01bee320cd4e420270b5ea74000d11b0c9f74754ebdbfc544b05a25861151a3390565b6001600160a01b038216600090815261010160205260409020548111156118cc57604051632d230a6960e21b815260040160405180910390fd5b6001600160a01b0382166000908152610101602052604081208054839290611739908490611fac565b60fd546040517fd54465180000000000000000000000000000000000000000000000000000000081526001600160a01b039091169063d54465189061194090859085906004016121c6565b600060405180830381600087803b15801561195a57600080fd5b505af115801561196e573d6000803e3d6000fd5b505050505050565b60006119cb826040518060400160405280602081526020017f5361666545524332303a206c6f772d6c6576656c2063616c6c206661696c6564815250856001600160a01b0316611aaa9092919063ffffffff16565b805190915015610a1857808060200190518101906119e991906122fb565b610a185760405162461bcd60e51b815260040161052790612374565b600054610100900460ff166107605760405162461bcd60e51b81526004016105279061226e565b600054610100900460ff16611a535760405162461bcd60e51b81526004016105279061226e565b8151611a669060cc906020850190611bb7565b508051610a189060cd906020840190611bb7565b600054610100900460ff16611aa15760405162461bcd60e51b81526004016105279061226e565b610760336116b1565b6060611ab98484600085611ac3565b90505b9392505050565b606082471015611ae55760405162461bcd60e51b8152600401610527906123dc565b843b611b035760405162461bcd60e51b81526004016105279061241e565b600080866001600160a01b03168587604051611b1f9190612450565b60006040518083038185875af1925050503d8060008114611b5c576040519150601f19603f3d011682016040523d82523d6000602084013e611b61565b606091505b5091509150611b71828286611b7e565b925050505b949350505050565b60608315611b8d575081611abc565b825115611b9d5782518084602001fd5b8160405162461bcd60e51b81526004016105279190611cae565b828054611bc390611e89565b90600052602060002090601f016020900481019282611be55760008555611c2b565b82601f10611bfe57805160ff1916838001178555611c2b565b82800160010185558215611c2b579182015b82811115611c2b578251825591602001919060010190611c10565b50611c37929150611c3b565b5090565b5b80821115611c375760008155600101611c3c565b60005b83811015611c6b578181015183820152602001611c53565b838111156117635750506000910152565b6000611c86825190565b808452602084019350611c9d818560208601611c50565b601f01601f19169290920192915050565b602080825281016115658184611c7c565b805b82525050565b602081016115688284611cbf565b805b81146112cd57600080fd5b803561156881611cd5565b600060208284031215611d0257611d02600080fd5b6000611b768484611ce2565b60006001600160a01b038216611568565b600061156882611d0e565b600061156882611d1f565b611cc181611d2a565b602081016115688284611d35565b60ff8116611cc1565b602081016115688284611d4c565b611cd781611d0e565b803561156881611d63565b600060208284031215611d8c57611d8c600080fd5b6000611b768484611d6c565b60008060408385031215611dae57611dae600080fd5b6000611dba8585611d6c565b9250506020611dcb85828601611d6c565b9150509250929050565b801515611cc1565b602081016115688284611dd5565b60008060408385031215611e0157611e01600080fd5b6000611e0d8585611d6c565b9250506020611dcb85828601611ce2565b611cc181611d0e565b602081016115688284611e1e565b60808101611e438287611cbf565b611e506020830186611cbf565b611e5d6040830185611cbf565b611e6a6060830184611cbf565b95945050505050565b634e487b7160e01b600052602260045260246000fd5b600281046001821680611e9d57607f821691505b602082108103611eaf57611eaf611e73565b50919050565b60208082527f4f776e61626c653a2063616c6c6572206973206e6f7420746865206f776e657291019081525b60200190565b6020808252810161156881611eb5565b60408101611f058285611cbf565b611abc6020830184611cbf565b601f8152602081017f5265656e7472616e637947756172643a207265656e7472616e742063616c6c0081529050611ee1565b6020808252810161156881611f12565b60108152602081017f5061757361626c653a207061757365640000000000000000000000000000000081529050611ee1565b6020808252810161156881611f54565b634e487b7160e01b600052601160045260246000fd5b600082821015611fbe57611fbe611f96565b500390565b6000816000190483118215151615611fdd57611fdd611f96565b500290565b60008219821115611ff557611ff5611f96565b500190565b602e8152602081017f496e697469616c697a61626c653a20636f6e747261637420697320616c72656181527f647920696e697469616c697a6564000000000000000000000000000000000000602082015290505b60400190565b6020808252810161156881611ffa565b634e487b7160e01b600052601260045260246000fd5b60008261208957612089612064565b500490565b60268152602081017f4f776e61626c653a206e6577206f776e657220697320746865207a65726f206181527f64647265737300000000000000000000000000000000000000000000000000006020820152905061204e565b602080825281016115688161208e565b60218152602081017f45524332303a206275726e2066726f6d20746865207a65726f2061646472657381527f73000000000000000000000000000000000000000000000000000000000000006020820152905061204e565b60208082528101611568816120f6565b60228152602081017f45524332303a206275726e20616d6f756e7420657863656564732062616c616e81527f63650000000000000000000000000000000000000000000000000000000000006020820152905061204e565b602080825281016115688161215e565b60408101611f058285611e1e565b60148152602081017f5061757361626c653a206e6f742070617573656400000000000000000000000081529050611ee1565b60208082528101611568816121d4565b602b8152602081017f496e697469616c697a61626c653a20636f6e7472616374206973206e6f74206981527f6e697469616c697a696e670000000000000000000000000000000000000000006020820152905061204e565b6020808252810161156881612216565b6060810161228c8286611e1e565b6122996020830185611e1e565b611b766040830184611cbf565b601f8152602081017f45524332303a206d696e7420746f20746865207a65726f20616464726573730081529050611ee1565b60208082528101611568816122a6565b801515611cd7565b8051611568816122e8565b60006020828403121561231057612310600080fd5b6000611b7684846122f0565b602a8152602081017f5361666545524332303a204552433230206f7065726174696f6e20646964206e81527f6f742073756363656564000000000000000000000000000000000000000000006020820152905061204e565b602080825281016115688161231c565b60268152602081017f416464726573733a20696e73756666696369656e742062616c616e636520666f81527f722063616c6c00000000000000000000000000000000000000000000000000006020820152905061204e565b6020808252810161156881612384565b601d8152602081017f416464726573733a2063616c6c20746f206e6f6e2d636f6e747261637400000081529050611ee1565b60208082528101611568816123ec565b6000612438825190565b612446818560208601611c50565b9290920192915050565b611568818361242e56fea26469706673582212207188f0ed9772b4f5f0b94aa540c64efc9b5956b8ea61028ae6547abdc283e23664736f6c634300080d0033",
  "devdoc": {
    "kind": "dev",
    "methods": {
      "addWhitelist(address)": {
        "params": {
          "_account": "Address to add"
        }
      },
      "balanceOf(address)": {
        "details": "See {IERC20-balanceOf}."
      },
      "burnVeDEG(address,uint256)": {
        "details": "Only whitelisted contract      For future use, some contracts may need veDEG for entrance",
        "params": {
          "_amount": "Amount to burn",
          "_to": "Address to burn"
        }
      },
      "claimable(address)": {
        "params": {
          "_user": "User address"
        }
      },
      "decimals()": {
        "details": "Returns the number of decimals used to get its user representation. For example, if `decimals` equals `2`, a balance of `505` tokens should be displayed to a user as `5.05` (`505 / 10 ** 2`). Tokens usually opt for a value of 18, imitating the relationship between Ether and Wei. This is the value {ERC20} uses, unless this function is overridden; NOTE: This information is only used for _display_ purposes: it in no way affects any of the arithmetic of the contract, including {IERC20-balanceOf} and {IERC20-transfer}."
      },
      "deposit(uint256)": {
        "details": "Only EOA or whitelisted contract address",
        "params": {
          "_amount": "Amount to deposit"
        }
      },
      "depositMaxTime(uint256)": {
        "details": "Release the max amount one time"
      },
      "lockVeDEG(address,uint256)": {
        "details": "Only whitelisted contract      Income sharing contract will lock veDEG as entrance",
        "params": {
          "_amount": "Amount to lock",
          "_to": "User address"
        }
      },
      "name()": {
        "details": "Returns the name of the token."
      },
      "owner()": {
        "details": "Returns the address of the current owner."
      },
      "paused()": {
        "details": "Returns true if the contract is paused, and false otherwise."
      },
      "removeWhitelist(address)": {
        "params": {
          "_account": "Address to remove"
        }
      },
      "renounceOwnership()": {
        "details": "Leaves the contract without owner. It will not be possible to call `onlyOwner` functions anymore. Can only be called by the current owner. NOTE: Renouncing ownership will leave the contract without an owner, thereby removing any functionality that is only available to the owner."
      },
      "setGenerationRate(uint256)": {
        "params": {
          "_generationRate": "New generation rate"
        }
      },
      "setMaxCapRatio(uint256)": {
        "params": {
          "_maxCapRatio": "the new max ratio"
        }
      },
      "symbol()": {
        "details": "Returns the symbol of the token, usually a shorter version of the name."
      },
      "totalSupply()": {
        "details": "See {IERC20-totalSupply}."
      },
      "transferOwnership(address)": {
        "details": "Transfers ownership of the contract to a new account (`newOwner`). Can only be called by the current owner."
      },
      "unlockVeDEG(address,uint256)": {
        "params": {
          "_amount": "Amount to unlock",
          "_to": "User address"
        }
      },
      "withdraw(uint256)": {
        "details": "User will lose all veDEG once he withdrawed",
        "params": {
          "_amount": "Amount to withdraw"
        }
      }
    },
    "title": "Vote Escrowed Degis",
    "version": 1
  },
  "userdoc": {
    "kind": "user",
    "methods": {
      "addWhitelist(address)": {
        "notice": "Add a new whitelist address"
      },
      "burnVeDEG(address,uint256)": {
        "notice": "Burn veDEG"
      },
      "claim()": {
        "notice": "Claims accumulated veDEG for flex deposit"
      },
      "claimable(address)": {
        "notice": "Calculate the amount of veDEG that can be claimed by user"
      },
      "deposit(uint256)": {
        "notice": "Depisit degis for veDEG"
      },
      "depositMaxTime(uint256)": {
        "notice": "Deposit for the max time"
      },
      "lockVeDEG(address,uint256)": {
        "notice": "Lock veDEG token"
      },
      "removeWhitelist(address)": {
        "notice": "Remove a new whitelist address"
      },
      "setGenerationRate(uint256)": {
        "notice": "Set generationRate"
      },
      "setMaxCapRatio(uint256)": {
        "notice": "Set maxCap ratio"
      },
      "unlockVeDEG(address,uint256)": {
        "notice": "Unlock veDEG token"
      },
      "withdraw(uint256)": {
        "notice": "Withdraw degis token"
      },
      "withdrawLocked()": {
        "notice": "Withdraw all the locked veDEG"
      }
    },
    "notice": "The staking contract for DEG -> veDEG         veDEG:            - Boosting the farming reward            - Governance            - Participate in Initial Liquidity Matching (naughty price)            - etc.         If you stake degis, you generate veDEG at the current `generationRate` until you reach `maxCap`         If you unstake any amount of degis, you will lose all of your veDEG tokens         There is also an option that you lock your DEG for the max time         and get the maximum veDEG balance immediately.         !! Attention !!         If you stake DEG for the max time for more than once, the lockUntil timestamp will         be updated to the latest one.",
    "version": 1
  },
  "storageLayout": {
    "storage": [
      {
        "astId": 2523,
        "contract": "contracts/governance/VoteEscrowedDegis.sol:VoteEscrowedDegis",
        "label": "_initialized",
        "offset": 0,
        "slot": "0",
        "type": "t_bool"
      },
      {
        "astId": 2526,
        "contract": "contracts/governance/VoteEscrowedDegis.sol:VoteEscrowedDegis",
        "label": "_initializing",
        "offset": 1,
        "slot": "0",
        "type": "t_bool"
      },
      {
        "astId": 3044,
        "contract": "contracts/governance/VoteEscrowedDegis.sol:VoteEscrowedDegis",
        "label": "__gap",
        "offset": 0,
        "slot": "1",
        "type": "t_array(t_uint256)50_storage"
      },
      {
        "astId": 2403,
        "contract": "contracts/governance/VoteEscrowedDegis.sol:VoteEscrowedDegis",
        "label": "_owner",
        "offset": 0,
        "slot": "51",
        "type": "t_address"
      },
      {
        "astId": 2515,
        "contract": "contracts/governance/VoteEscrowedDegis.sol:VoteEscrowedDegis",
        "label": "__gap",
        "offset": 0,
        "slot": "52",
        "type": "t_array(t_uint256)49_storage"
      },
      {
        "astId": 2715,
        "contract": "contracts/governance/VoteEscrowedDegis.sol:VoteEscrowedDegis",
        "label": "_status",
        "offset": 0,
        "slot": "101",
        "type": "t_uint256"
      },
      {
        "astId": 2759,
        "contract": "contracts/governance/VoteEscrowedDegis.sol:VoteEscrowedDegis",
        "label": "__gap",
        "offset": 0,
        "slot": "102",
        "type": "t_array(t_uint256)49_storage"
      },
      {
        "astId": 2611,
        "contract": "contracts/governance/VoteEscrowedDegis.sol:VoteEscrowedDegis",
        "label": "_paused",
        "offset": 0,
        "slot": "151",
        "type": "t_bool"
      },
      {
        "astId": 2700,
        "contract": "contracts/governance/VoteEscrowedDegis.sol:VoteEscrowedDegis",
        "label": "__gap",
        "offset": 0,
        "slot": "152",
        "type": "t_array(t_uint256)49_storage"
      },
      {
        "astId": 14962,
        "contract": "contracts/governance/VoteEscrowedDegis.sol:VoteEscrowedDegis",
        "label": "_balances",
        "offset": 0,
        "slot": "201",
        "type": "t_mapping(t_address,t_uint256)"
      },
      {
        "astId": 14968,
        "contract": "contracts/governance/VoteEscrowedDegis.sol:VoteEscrowedDegis",
        "label": "_allowances",
        "offset": 0,
        "slot": "202",
        "type": "t_mapping(t_address,t_mapping(t_address,t_uint256))"
      },
      {
        "astId": 14970,
        "contract": "contracts/governance/VoteEscrowedDegis.sol:VoteEscrowedDegis",
        "label": "_totalSupply",
        "offset": 0,
        "slot": "203",
        "type": "t_uint256"
      },
      {
        "astId": 14972,
        "contract": "contracts/governance/VoteEscrowedDegis.sol:VoteEscrowedDegis",
        "label": "_name",
        "offset": 0,
        "slot": "204",
        "type": "t_string_storage"
      },
      {
        "astId": 14974,
        "contract": "contracts/governance/VoteEscrowedDegis.sol:VoteEscrowedDegis",
        "label": "_symbol",
        "offset": 0,
        "slot": "205",
        "type": "t_string_storage"
      },
      {
        "astId": 15213,
        "contract": "contracts/governance/VoteEscrowedDegis.sol:VoteEscrowedDegis",
        "label": "__gap",
        "offset": 0,
        "slot": "206",
        "type": "t_array(t_uint256)45_storage"
      },
      {
        "astId": 15260,
        "contract": "contracts/governance/VoteEscrowedDegis.sol:VoteEscrowedDegis",
        "label": "users",
        "offset": 0,
        "slot": "251",
        "type": "t_mapping(t_address,t_struct(UserInfo)15255_storage)"
      },
      {
        "astId": 15263,
        "contract": "contracts/governance/VoteEscrowedDegis.sol:VoteEscrowedDegis",
        "label": "degis",
        "offset": 0,
        "slot": "252",
        "type": "t_contract(IERC20)4752"
      },
      {
        "astId": 15266,
        "contract": "contracts/governance/VoteEscrowedDegis.sol:VoteEscrowedDegis",
        "label": "farmingPool",
        "offset": 0,
        "slot": "253",
        "type": "t_contract(IFarmingPool)14167"
      },
      {
        "astId": 15268,
        "contract": "contracts/governance/VoteEscrowedDegis.sol:VoteEscrowedDegis",
        "label": "maxCapRatio",
        "offset": 0,
        "slot": "254",
        "type": "t_uint256"
      },
      {
        "astId": 15270,
        "contract": "contracts/governance/VoteEscrowedDegis.sol:VoteEscrowedDegis",
        "label": "generationRate",
        "offset": 0,
        "slot": "255",
        "type": "t_uint256"
      },
      {
        "astId": 15277,
        "contract": "contracts/governance/VoteEscrowedDegis.sol:VoteEscrowedDegis",
        "label": "whitelist",
        "offset": 0,
        "slot": "256",
        "type": "t_mapping(t_address,t_bool)"
      },
      {
        "astId": 15281,
        "contract": "contracts/governance/VoteEscrowedDegis.sol:VoteEscrowedDegis",
        "label": "locked",
        "offset": 0,
        "slot": "257",
        "type": "t_mapping(t_address,t_uint256)"
      }
    ],
    "types": {
      "t_address": {
        "encoding": "inplace",
        "label": "address",
        "numberOfBytes": "20"
      },
      "t_array(t_uint256)45_storage": {
        "base": "t_uint256",
        "encoding": "inplace",
        "label": "uint256[45]",
        "numberOfBytes": "1440"
      },
      "t_array(t_uint256)49_storage": {
        "base": "t_uint256",
        "encoding": "inplace",
        "label": "uint256[49]",
        "numberOfBytes": "1568"
      },
      "t_array(t_uint256)50_storage": {
        "base": "t_uint256",
        "encoding": "inplace",
        "label": "uint256[50]",
        "numberOfBytes": "1600"
      },
      "t_bool": {
        "encoding": "inplace",
        "label": "bool",
        "numberOfBytes": "1"
      },
      "t_contract(IERC20)4752": {
        "encoding": "inplace",
        "label": "contract IERC20",
        "numberOfBytes": "20"
      },
      "t_contract(IFarmingPool)14167": {
        "encoding": "inplace",
        "label": "contract IFarmingPool",
        "numberOfBytes": "20"
      },
      "t_mapping(t_address,t_bool)": {
        "encoding": "mapping",
        "key": "t_address",
        "label": "mapping(address => bool)",
        "numberOfBytes": "32",
        "value": "t_bool"
      },
      "t_mapping(t_address,t_mapping(t_address,t_uint256))": {
        "encoding": "mapping",
        "key": "t_address",
        "label": "mapping(address => mapping(address => uint256))",
        "numberOfBytes": "32",
        "value": "t_mapping(t_address,t_uint256)"
      },
      "t_mapping(t_address,t_struct(UserInfo)15255_storage)": {
        "encoding": "mapping",
        "key": "t_address",
        "label": "mapping(address => struct VoteEscrowedDegis.UserInfo)",
        "numberOfBytes": "32",
        "value": "t_struct(UserInfo)15255_storage"
      },
      "t_mapping(t_address,t_uint256)": {
        "encoding": "mapping",
        "key": "t_address",
        "label": "mapping(address => uint256)",
        "numberOfBytes": "32",
        "value": "t_uint256"
      },
      "t_string_storage": {
        "encoding": "bytes",
        "label": "string",
        "numberOfBytes": "32"
      },
      "t_struct(UserInfo)15255_storage": {
        "encoding": "inplace",
        "label": "struct VoteEscrowedDegis.UserInfo",
        "members": [
          {
            "astId": 15248,
            "contract": "contracts/governance/VoteEscrowedDegis.sol:VoteEscrowedDegis",
            "label": "amount",
            "offset": 0,
            "slot": "0",
            "type": "t_uint256"
          },
          {
            "astId": 15250,
            "contract": "contracts/governance/VoteEscrowedDegis.sol:VoteEscrowedDegis",
            "label": "lastRelease",
            "offset": 0,
            "slot": "1",
            "type": "t_uint256"
          },
          {
            "astId": 15252,
            "contract": "contracts/governance/VoteEscrowedDegis.sol:VoteEscrowedDegis",
            "label": "amountLocked",
            "offset": 0,
            "slot": "2",
            "type": "t_uint256"
          },
          {
            "astId": 15254,
            "contract": "contracts/governance/VoteEscrowedDegis.sol:VoteEscrowedDegis",
            "label": "lockUntil",
            "offset": 0,
            "slot": "3",
            "type": "t_uint256"
          }
        ],
        "numberOfBytes": "128"
      },
      "t_uint256": {
        "encoding": "inplace",
        "label": "uint256",
        "numberOfBytes": "32"
      }
    }
  }
}