{
  "address": "0x9eC6599DE436189B38e709B94dbc6A690dD8c49d",
  "abi": [
    {
      "inputs": [],
      "stateMutability": "nonpayable",
      "type": "constructor"
    },
    {
      "anonymous": false,
      "inputs": [
        {
          "indexed": true,
          "internalType": "address",
          "name": "owner",
          "type": "address"
        },
        {
          "indexed": true,
          "internalType": "address",
          "name": "spender",
          "type": "address"
        },
        {
          "indexed": false,
          "internalType": "uint256",
          "name": "value",
          "type": "uint256"
        }
      ],
      "name": "Approval",
      "type": "event"
    },
    {
      "anonymous": false,
      "inputs": [
        {
          "indexed": true,
          "internalType": "address",
          "name": "from",
          "type": "address"
        },
        {
          "indexed": true,
          "internalType": "address",
          "name": "to",
          "type": "address"
        },
        {
          "indexed": false,
          "internalType": "uint256",
          "name": "value",
          "type": "uint256"
        }
      ],
      "name": "Transfer",
      "type": "event"
    },
    {
      "inputs": [],
      "name": "INITIAL_SUPPLY",
      "outputs": [
        {
          "internalType": "uint256",
          "name": "",
          "type": "uint256"
        }
      ],
      "stateMutability": "view",
      "type": "function"
    },
    {
      "inputs": [
        {
          "internalType": "address",
          "name": "owner",
          "type": "address"
        },
        {
          "internalType": "address",
          "name": "spender",
          "type": "address"
        }
      ],
      "name": "allowance",
      "outputs": [
        {
          "internalType": "uint256",
          "name": "",
          "type": "uint256"
        }
      ],
      "stateMutability": "view",
      "type": "function"
    },
    {
      "inputs": [
        {
          "internalType": "address",
          "name": "spender",
          "type": "address"
        },
        {
          "internalType": "uint256",
          "name": "amount",
          "type": "uint256"
        }
      ],
      "name": "approve",
      "outputs": [
        {
          "internalType": "bool",
          "name": "",
          "type": "bool"
        }
      ],
      "stateMutability": "nonpayable",
      "type": "function"
    },
    {
      "inputs": [
        {
          "internalType": "address",
          "name": "account",
          "type": "address"
        }
      ],
      "name": "balanceOf",
      "outputs": [
        {
          "internalType": "uint256",
          "name": "",
          "type": "uint256"
        }
      ],
      "stateMutability": "view",
      "type": "function"
    },
    {
      "inputs": [],
      "name": "decimals",
      "outputs": [
        {
          "internalType": "uint8",
          "name": "",
          "type": "uint8"
        }
      ],
      "stateMutability": "pure",
      "type": "function"
    },
    {
      "inputs": [
        {
          "internalType": "address",
          "name": "spender",
          "type": "address"
        },
        {
          "internalType": "uint256",
          "name": "subtractedValue",
          "type": "uint256"
        }
      ],
      "name": "decreaseAllowance",
      "outputs": [
        {
          "internalType": "bool",
          "name": "",
          "type": "bool"
        }
      ],
      "stateMutability": "nonpayable",
      "type": "function"
    },
    {
      "inputs": [
        {
          "internalType": "address",
          "name": "spender",
          "type": "address"
        },
        {
          "internalType": "uint256",
          "name": "addedValue",
          "type": "uint256"
        }
      ],
      "name": "increaseAllowance",
      "outputs": [
        {
          "internalType": "bool",
          "name": "",
          "type": "bool"
        }
      ],
      "stateMutability": "nonpayable",
      "type": "function"
    },
    {
      "inputs": [
        {
          "internalType": "address",
          "name": "_account",
          "type": "address"
        },
        {
          "internalType": "uint256",
          "name": "_amount",
          "type": "uint256"
        }
      ],
      "name": "mint",
      "outputs": [],
      "stateMutability": "nonpayable",
      "type": "function"
    },
    {
      "inputs": [],
      "name": "name",
      "outputs": [
        {
          "internalType": "string",
          "name": "",
          "type": "string"
        }
      ],
      "stateMutability": "view",
      "type": "function"
    },
    {
      "inputs": [],
      "name": "symbol",
      "outputs": [
        {
          "internalType": "string",
          "name": "",
          "type": "string"
        }
      ],
      "stateMutability": "view",
      "type": "function"
    },
    {
      "inputs": [],
      "name": "totalSupply",
      "outputs": [
        {
          "internalType": "uint256",
          "name": "",
          "type": "uint256"
        }
      ],
      "stateMutability": "view",
      "type": "function"
    },
    {
      "inputs": [
        {
          "internalType": "address",
          "name": "recipient",
          "type": "address"
        },
        {
          "internalType": "uint256",
          "name": "amount",
          "type": "uint256"
        }
      ],
      "name": "transfer",
      "outputs": [
        {
          "internalType": "bool",
          "name": "",
          "type": "bool"
        }
      ],
      "stateMutability": "nonpayable",
      "type": "function"
    },
    {
      "inputs": [
        {
          "internalType": "address",
          "name": "sender",
          "type": "address"
        },
        {
          "internalType": "address",
          "name": "recipient",
          "type": "address"
        },
        {
          "internalType": "uint256",
          "name": "amount",
          "type": "uint256"
        }
      ],
      "name": "transferFrom",
      "outputs": [
        {
          "internalType": "bool",
          "name": "",
          "type": "bool"
        }
      ],
      "stateMutability": "nonpayable",
      "type": "function"
    }
  ],
  "transactionHash": "0xed8586a3cf8d2609c5e17b9437b7c9d0aed0d1ecfe3803c584e00d94546d9553",
  "args": [],
  "numDeployments": 1,
  "solcInputHash": "6d4dd83c4a663718ef385fcc76e9bab5",
  "bytecode": "0x60806040523480156200001157600080fd5b5060408051808201825260078152661353d0d2d554d160ca1b6020808301918252835180850190945260048452635553444360e01b9084015281519192916200005d916003916200015a565b508051620000739060049060208401906200015a565b5050506200008e336509184e72a0006200009460201b60201c565b620002c6565b6001600160a01b038216620000c65760405162461bcd60e51b8152600401620000bd9062000200565b60405180910390fd5b8060026000828254620000da919062000258565b90915550506001600160a01b038216600090815260208190526040812080548392906200010990849062000258565b90915550506040516001600160a01b038316906000907fddf252ad1be2c89b69c2b068fc378daa952ba7f163c4a11628f55a4df523b3ef906200014e90859062000273565b60405180910390a35050565b828054620001689062000296565b90600052602060002090601f0160209004810192826200018c5760008555620001d7565b82601f10620001a757805160ff1916838001178555620001d7565b82800160010185558215620001d7579182015b82811115620001d7578251825591602001919060010190620001ba565b50620001e5929150620001e9565b5090565b5b80821115620001e55760008155600101620001ea565b602080825281016200023c81601f81527f45524332303a206d696e7420746f20746865207a65726f206164647265737300602082015260400190565b92915050565b634e487b7160e01b600052601160045260246000fd5b600082198211156200026e576200026e62000242565b500190565b818152602081016200023c565b634e487b7160e01b600052602260045260246000fd5b600281046001821680620002ab57607f821691505b602082108103620002c057620002c062000280565b50919050565b610c1480620002d66000396000f3fe608060405234801561001057600080fd5b50600436106100df5760003560e01c8063395093511161008c57806395d89b411161006657806395d89b41146101b3578063a457c2d7146101bb578063a9059cbb146101ce578063dd62ed3e146101e157600080fd5b8063395093511461016257806340c10f191461017557806370a082311461018a57600080fd5b806323b872dd116100bd57806323b872dd146101335780632ff2e9dc14610146578063313ce5671461015357600080fd5b806306fdde03146100e4578063095ea7b31461010257806318160ddd14610122575b600080fd5b6100ec61021a565b6040516100f991906106d1565b60405180910390f35b61011561011036600461072d565b6102ac565b6040516100f99190610774565b6002545b6040516100f99190610788565b610115610141366004610796565b6102c3565b6101266509184e72a00081565b60066040516100f991906107ef565b61011561017036600461072d565b610335565b61018861018336600461072d565b610371565b005b6101266101983660046107fd565b6001600160a01b031660009081526020819052604090205490565b6100ec61037f565b6101156101c936600461072d565b61038e565b6101156101dc36600461072d565b6103e9565b6101266101ef366004610826565b6001600160a01b03918216600090815260016020908152604080832093909416825291909152205490565b6060600380546102299061086f565b80601f01602080910402602001604051908101604052809291908181526020018280546102559061086f565b80156102a25780601f10610277576101008083540402835291602001916102a2565b820191906000526020600020905b81548152906001019060200180831161028557829003601f168201915b5050505050905090565b60006102b93384846103f6565b5060015b92915050565b60006102d08484846104aa565b6001600160a01b03841660009081526001602090815260408083203384529091529020548281101561031d5760405162461bcd60e51b8152600401610314906108f5565b60405180910390fd5b61032a85338584036103f6565b506001949350505050565b3360008181526001602090815260408083206001600160a01b038716845290915281205490916102b991859061036c90869061091b565b6103f6565b61037b82826105bf565b5050565b6060600480546102299061086f565b3360009081526001602090815260408083206001600160a01b0386168452909152812054828110156103d25760405162461bcd60e51b81526004016103149061098b565b6103df33858584036103f6565b5060019392505050565b60006102b93384846104aa565b6001600160a01b03831661041c5760405162461bcd60e51b8152600401610314906109f3565b6001600160a01b0382166104425760405162461bcd60e51b815260040161031490610a5b565b6001600160a01b0380841660008181526001602090815260408083209487168084529490915290819020849055517f8c5be1e5ebec7d5bd14f71427d1e84f3dd0314c0f7b2291e5b200ac8c7c3b9259061049d908590610788565b60405180910390a3505050565b6001600160a01b0383166104d05760405162461bcd60e51b815260040161031490610ac3565b6001600160a01b0382166104f65760405162461bcd60e51b815260040161031490610b2b565b6001600160a01b0383166000908152602081905260409020548181101561052f5760405162461bcd60e51b815260040161031490610b93565b6001600160a01b0380851660009081526020819052604080822085850390559185168152908120805484929061056690849061091b565b92505081905550826001600160a01b0316846001600160a01b03167fddf252ad1be2c89b69c2b068fc378daa952ba7f163c4a11628f55a4df523b3ef846040516105b09190610788565b60405180910390a35b50505050565b6001600160a01b0382166105e55760405162461bcd60e51b815260040161031490610ba3565b80600260008282546105f7919061091b565b90915550506001600160a01b0382166000908152602081905260408120805483929061062490849061091b565b90915550506040516001600160a01b038316906000907fddf252ad1be2c89b69c2b068fc378daa952ba7f163c4a11628f55a4df523b3ef90610667908590610788565b60405180910390a35050565b60005b8381101561068e578181015183820152602001610676565b838111156105b95750506000910152565b60006106a9825190565b8084526020840193506106c0818560208601610673565b601f01601f19169290920192915050565b602080825281016106e2818461069f565b9392505050565b60006001600160a01b0382166102bd565b610703816106e9565b811461070e57600080fd5b50565b80356102bd816106fa565b80610703565b80356102bd8161071c565b6000806040838503121561074357610743600080fd5b600061074f8585610711565b925050602061076085828601610722565b9150509250929050565b8015155b82525050565b602081016102bd828461076a565b8061076e565b602081016102bd8284610782565b6000806000606084860312156107ae576107ae600080fd5b60006107ba8686610711565b93505060206107cb86828701610711565b92505060406107dc86828701610722565b9150509250925092565b60ff811661076e565b602081016102bd82846107e6565b60006020828403121561081257610812600080fd5b600061081e8484610711565b949350505050565b6000806040838503121561083c5761083c600080fd5b60006108488585610711565b925050602061076085828601610711565b634e487b7160e01b600052602260045260246000fd5b60028104600182168061088357607f821691505b60208210810361089557610895610859565b50919050565b60288152602081017f45524332303a207472616e7366657220616d6f756e742065786365656473206181527f6c6c6f77616e6365000000000000000000000000000000000000000000000000602082015290505b60400190565b602080825281016102bd8161089b565b634e487b7160e01b600052601160045260246000fd5b6000821982111561092e5761092e610905565b500190565b60258152602081017f45524332303a2064656372656173656420616c6c6f77616e63652062656c6f7781527f207a65726f000000000000000000000000000000000000000000000000000000602082015290506108ef565b602080825281016102bd81610933565b60248152602081017f45524332303a20617070726f76652066726f6d20746865207a65726f2061646481527f7265737300000000000000000000000000000000000000000000000000000000602082015290506108ef565b602080825281016102bd8161099b565b60228152602081017f45524332303a20617070726f766520746f20746865207a65726f20616464726581527f7373000000000000000000000000000000000000000000000000000000000000602082015290506108ef565b602080825281016102bd81610a03565b60258152602081017f45524332303a207472616e736665722066726f6d20746865207a65726f20616481527f6472657373000000000000000000000000000000000000000000000000000000602082015290506108ef565b602080825281016102bd81610a6b565b60238152602081017f45524332303a207472616e7366657220746f20746865207a65726f206164647281527f6573730000000000000000000000000000000000000000000000000000000000602082015290506108ef565b602080825281016102bd81610ad3565b60268152602081017f45524332303a207472616e7366657220616d6f756e742065786365656473206281527f616c616e63650000000000000000000000000000000000000000000000000000602082015290506108ef565b602080825281016102bd81610b3b565b602080825281016102bd81601f81527f45524332303a206d696e7420746f20746865207a65726f20616464726573730060208201526040019056fea2646970667358221220185ca17d9904486e940f85a4f81d0c6100eea0fe93f32ebff54e34f480223ab964736f6c634300080d0033",
  "devdoc": {
    "kind": "dev",
    "methods": {
      "allowance(address,address)": {
        "details": "See {IERC20-allowance}."
      },
      "approve(address,uint256)": {
        "details": "See {IERC20-approve}. Requirements: - `spender` cannot be the zero address."
      },
      "balanceOf(address)": {
        "details": "See {IERC20-balanceOf}."
      },
      "decimals()": {
        "details": "Returns the number of decimals used to get its user representation. For example, if `decimals` equals `2`, a balance of `505` tokens should be displayed to a user as `5.05` (`505 / 10 ** 2`). Tokens usually opt for a value of 18, imitating the relationship between Ether and Wei. This is the value {ERC20} uses, unless this function is overridden; NOTE: This information is only used for _display_ purposes: it in no way affects any of the arithmetic of the contract, including {IERC20-balanceOf} and {IERC20-transfer}."
      },
      "decreaseAllowance(address,uint256)": {
        "details": "Atomically decreases the allowance granted to `spender` by the caller. This is an alternative to {approve} that can be used as a mitigation for problems described in {IERC20-approve}. Emits an {Approval} event indicating the updated allowance. Requirements: - `spender` cannot be the zero address. - `spender` must have allowance for the caller of at least `subtractedValue`."
      },
      "increaseAllowance(address,uint256)": {
        "details": "Atomically increases the allowance granted to `spender` by the caller. This is an alternative to {approve} that can be used as a mitigation for problems described in {IERC20-approve}. Emits an {Approval} event indicating the updated allowance. Requirements: - `spender` cannot be the zero address."
      },
      "name()": {
        "details": "Returns the name of the token."
      },
      "symbol()": {
        "details": "Returns the symbol of the token, usually a shorter version of the name."
      },
      "totalSupply()": {
        "details": "See {IERC20-totalSupply}."
      },
      "transfer(address,uint256)": {
        "details": "See {IERC20-transfer}. Requirements: - `recipient` cannot be the zero address. - the caller must have a balance of at least `amount`."
      },
      "transferFrom(address,address,uint256)": {
        "details": "See {IERC20-transferFrom}. Emits an {Approval} event indicating the updated allowance. This is not required by the EIP. See the note at the beginning of {ERC20}. Requirements: - `sender` and `recipient` cannot be the zero address. - `sender` must have a balance of at least `amount`. - the caller must have allowance for ``sender``'s tokens of at least `amount`."
      }
    },
    "version": 1
  },
  "userdoc": {
    "kind": "user",
    "methods": {},
    "notice": "This is the MockUSD used in testnet         Maximum mint amount is 500k for each user.         Maximum mint amount for every single tx is 100k.",
    "version": 1
  },
  "storageLayout": {
    "storage": [
      {
        "astId": 4755,
        "contract": "contracts/mocks/MockUSD.sol:MockUSD",
        "label": "_balances",
        "offset": 0,
        "slot": "0",
        "type": "t_mapping(t_address,t_uint256)"
      },
      {
        "astId": 4761,
        "contract": "contracts/mocks/MockUSD.sol:MockUSD",
        "label": "_allowances",
        "offset": 0,
        "slot": "1",
        "type": "t_mapping(t_address,t_mapping(t_address,t_uint256))"
      },
      {
        "astId": 4763,
        "contract": "contracts/mocks/MockUSD.sol:MockUSD",
        "label": "_totalSupply",
        "offset": 0,
        "slot": "2",
        "type": "t_uint256"
      },
      {
        "astId": 4765,
        "contract": "contracts/mocks/MockUSD.sol:MockUSD",
        "label": "_name",
        "offset": 0,
        "slot": "3",
        "type": "t_string_storage"
      },
      {
        "astId": 4767,
        "contract": "contracts/mocks/MockUSD.sol:MockUSD",
        "label": "_symbol",
        "offset": 0,
        "slot": "4",
        "type": "t_string_storage"
      }
    ],
    "types": {
      "t_address": {
        "encoding": "inplace",
        "label": "address",
        "numberOfBytes": "20"
      },
      "t_mapping(t_address,t_mapping(t_address,t_uint256))": {
        "encoding": "mapping",
        "key": "t_address",
        "label": "mapping(address => mapping(address => uint256))",
        "numberOfBytes": "32",
        "value": "t_mapping(t_address,t_uint256)"
      },
      "t_mapping(t_address,t_uint256)": {
        "encoding": "mapping",
        "key": "t_address",
        "label": "mapping(address => uint256)",
        "numberOfBytes": "32",
        "value": "t_uint256"
      },
      "t_string_storage": {
        "encoding": "bytes",
        "label": "string",
        "numberOfBytes": "32"
      },
      "t_uint256": {
        "encoding": "inplace",
        "label": "uint256",
        "numberOfBytes": "32"
      }
    }
  }
}