{
  "address": "0xa513E6E4b8f2a923D98304ec87F64353C4D5C853",
  "abi": [
    {
      "inputs": [
        {
          "internalType": "address",
          "name": "_DEGTokenAddress",
          "type": "address"
        },
        {
          "internalType": "address",
          "name": "_USDTokenAddress",
          "type": "address"
        },
        {
          "internalType": "address",
          "name": "_randomGeneratorAddress",
          "type": "address"
        }
      ],
      "stateMutability": "nonpayable",
      "type": "constructor"
    },
    {
      "anonymous": false,
      "inputs": [
        {
          "indexed": true,
          "internalType": "address",
          "name": "token",
          "type": "address"
        },
        {
          "indexed": false,
          "internalType": "uint256",
          "name": "amount",
          "type": "uint256"
        }
      ],
      "name": "AdminTokenRecovery",
      "type": "event"
    },
    {
      "anonymous": false,
      "inputs": [
        {
          "indexed": true,
          "internalType": "uint256",
          "name": "lotteryId",
          "type": "uint256"
        }
      ],
      "name": "LotteryClose",
      "type": "event"
    },
    {
      "anonymous": false,
      "inputs": [
        {
          "indexed": true,
          "internalType": "uint256",
          "name": "lotteryId",
          "type": "uint256"
        },
        {
          "indexed": false,
          "internalType": "uint256",
          "name": "injectedAmount",
          "type": "uint256"
        }
      ],
      "name": "LotteryFundInjection",
      "type": "event"
    },
    {
      "anonymous": false,
      "inputs": [
        {
          "indexed": true,
          "internalType": "uint256",
          "name": "lotteryId",
          "type": "uint256"
        },
        {
          "indexed": false,
          "internalType": "uint256",
          "name": "finalNumber",
          "type": "uint256"
        },
        {
          "indexed": false,
          "internalType": "uint256",
          "name": "pendingRewards",
          "type": "uint256"
        }
      ],
      "name": "LotteryNumberDrawn",
      "type": "event"
    },
    {
      "anonymous": false,
      "inputs": [
        {
          "indexed": true,
          "internalType": "uint256",
          "name": "lotteryId",
          "type": "uint256"
        },
        {
          "indexed": false,
          "internalType": "uint256",
          "name": "startTime",
          "type": "uint256"
        },
        {
          "indexed": false,
          "internalType": "uint256",
          "name": "endTime",
          "type": "uint256"
        },
        {
          "indexed": false,
          "internalType": "uint256",
          "name": "totalRewards",
          "type": "uint256"
        }
      ],
      "name": "LotteryOpen",
      "type": "event"
    },
    {
      "anonymous": false,
      "inputs": [
        {
          "indexed": false,
          "internalType": "address",
          "name": "operator",
          "type": "address"
        }
      ],
      "name": "OperatorAddressChanged",
      "type": "event"
    },
    {
      "anonymous": false,
      "inputs": [
        {
          "indexed": true,
          "internalType": "address",
          "name": "previousOwner",
          "type": "address"
        },
        {
          "indexed": true,
          "internalType": "address",
          "name": "newOwner",
          "type": "address"
        }
      ],
      "name": "OwnershipTransferred",
      "type": "event"
    },
    {
      "anonymous": false,
      "inputs": [
        {
          "indexed": false,
          "internalType": "address",
          "name": "randomGenerator",
          "type": "address"
        }
      ],
      "name": "RandomNumberGeneratorChanged",
      "type": "event"
    },
    {
      "anonymous": false,
      "inputs": [
        {
          "indexed": true,
          "internalType": "address",
          "name": "claimer",
          "type": "address"
        },
        {
          "indexed": false,
          "internalType": "uint256",
          "name": "amount",
          "type": "uint256"
        },
        {
          "indexed": true,
          "internalType": "uint256",
          "name": "lotteryId",
          "type": "uint256"
        }
      ],
      "name": "ReceiveRewards",
      "type": "event"
    },
    {
      "anonymous": false,
      "inputs": [
        {
          "indexed": true,
          "internalType": "address",
          "name": "buyer",
          "type": "address"
        },
        {
          "indexed": true,
          "internalType": "uint256",
          "name": "lotteryId",
          "type": "uint256"
        },
        {
          "indexed": false,
          "internalType": "uint256",
          "name": "totalAmount",
          "type": "uint256"
        }
      ],
      "name": "TicketsPurchase",
      "type": "event"
    },
    {
      "anonymous": false,
      "inputs": [
        {
          "indexed": true,
          "internalType": "address",
          "name": "redeemer",
          "type": "address"
        },
        {
          "indexed": true,
          "internalType": "uint256",
          "name": "lotteryId",
          "type": "uint256"
        },
        {
          "indexed": false,
          "internalType": "uint256",
          "name": "totalAmount",
          "type": "uint256"
        }
      ],
      "name": "TicketsRedeem",
      "type": "event"
    },
    {
      "inputs": [],
      "name": "DEGToken",
      "outputs": [
        {
          "internalType": "contract IERC20",
          "name": "",
          "type": "address"
        }
      ],
      "stateMutability": "view",
      "type": "function"
    },
    {
      "inputs": [],
      "name": "RewardsToNextLottery",
      "outputs": [
        {
          "internalType": "uint256",
          "name": "",
          "type": "uint256"
        }
      ],
      "stateMutability": "view",
      "type": "function"
    },
    {
      "inputs": [],
      "name": "TICKET_PRICE",
      "outputs": [
        {
          "internalType": "uint256",
          "name": "",
          "type": "uint256"
        }
      ],
      "stateMutability": "view",
      "type": "function"
    },
    {
      "inputs": [],
      "name": "USDToken",
      "outputs": [
        {
          "internalType": "contract IERC20",
          "name": "",
          "type": "address"
        }
      ],
      "stateMutability": "view",
      "type": "function"
    },
    {
      "inputs": [],
      "name": "allPendingRewards",
      "outputs": [
        {
          "internalType": "uint256",
          "name": "",
          "type": "uint256"
        }
      ],
      "stateMutability": "view",
      "type": "function"
    },
    {
      "inputs": [
        {
          "internalType": "uint256[]",
          "name": "_ticketNumbers",
          "type": "uint256[]"
        },
        {
          "internalType": "uint256[]",
          "name": "_ticketAmounts",
          "type": "uint256[]"
        }
      ],
      "name": "buyTickets",
      "outputs": [],
      "stateMutability": "nonpayable",
      "type": "function"
    },
    {
      "inputs": [],
      "name": "closeLottery",
      "outputs": [],
      "stateMutability": "nonpayable",
      "type": "function"
    },
    {
      "inputs": [],
      "name": "currentLotteryId",
      "outputs": [
        {
          "internalType": "uint256",
          "name": "",
          "type": "uint256"
        }
      ],
      "stateMutability": "view",
      "type": "function"
    },
    {
      "inputs": [],
      "name": "drawLottery",
      "outputs": [],
      "stateMutability": "nonpayable",
      "type": "function"
    },
    {
      "inputs": [],
      "name": "getCurrentRoundWeight",
      "outputs": [
        {
          "internalType": "uint256",
          "name": "",
          "type": "uint256"
        }
      ],
      "stateMutability": "view",
      "type": "function"
    },
    {
      "inputs": [
        {
          "internalType": "uint256",
          "name": "_startIndex",
          "type": "uint256"
        },
        {
          "internalType": "uint256",
          "name": "_stopIndex",
          "type": "uint256"
        },
        {
          "internalType": "uint256",
          "name": "_position",
          "type": "uint256"
        }
      ],
      "name": "getPoolTicketsInfo",
      "outputs": [
        {
          "internalType": "uint256[]",
          "name": "",
          "type": "uint256[]"
        },
        {
          "internalType": "uint256[]",
          "name": "",
          "type": "uint256[]"
        },
        {
          "internalType": "uint256[]",
          "name": "",
          "type": "uint256[]"
        }
      ],
      "stateMutability": "view",
      "type": "function"
    },
    {
      "inputs": [
        {
          "internalType": "address",
          "name": "user",
          "type": "address"
        },
        {
          "internalType": "uint256",
          "name": "_startIndex",
          "type": "uint256"
        },
        {
          "internalType": "uint256",
          "name": "_stopIndex",
          "type": "uint256"
        },
        {
          "internalType": "uint256",
          "name": "position",
          "type": "uint256"
        }
      ],
      "name": "getUserTicketsInfo",
      "outputs": [
        {
          "internalType": "uint256[]",
          "name": "",
          "type": "uint256[]"
        },
        {
          "internalType": "uint256[]",
          "name": "",
          "type": "uint256[]"
        },
        {
          "internalType": "uint256[]",
          "name": "",
          "type": "uint256[]"
        }
      ],
      "stateMutability": "view",
      "type": "function"
    },
    {
      "inputs": [
        {
          "internalType": "uint256",
          "name": "_amount",
          "type": "uint256"
        }
      ],
      "name": "injectFunds",
      "outputs": [],
      "stateMutability": "nonpayable",
      "type": "function"
    },
    {
      "inputs": [
        {
          "internalType": "uint256",
          "name": "",
          "type": "uint256"
        }
      ],
      "name": "lotteries",
      "outputs": [
        {
          "internalType": "enum DegisLottery.Status",
          "name": "status",
          "type": "uint8"
        },
        {
          "internalType": "uint256",
          "name": "startTime",
          "type": "uint256"
        },
        {
          "internalType": "uint256",
          "name": "endTime",
          "type": "uint256"
        },
        {
          "internalType": "uint256",
          "name": "totalRewards",
          "type": "uint256"
        },
        {
          "internalType": "uint256",
          "name": "pendingRewards",
          "type": "uint256"
        },
        {
          "internalType": "uint256",
          "name": "finalNumber",
          "type": "uint256"
        }
      ],
      "stateMutability": "view",
      "type": "function"
    },
    {
      "inputs": [],
      "name": "operatorAddress",
      "outputs": [
        {
          "internalType": "address",
          "name": "",
          "type": "address"
        }
      ],
      "stateMutability": "view",
      "type": "function"
    },
    {
      "inputs": [],
      "name": "owner",
      "outputs": [
        {
          "internalType": "address",
          "name": "",
          "type": "address"
        }
      ],
      "stateMutability": "view",
      "type": "function"
    },
    {
      "inputs": [],
      "name": "randomGenerator",
      "outputs": [
        {
          "internalType": "contract IRandomNumberGenerator",
          "name": "",
          "type": "address"
        }
      ],
      "stateMutability": "view",
      "type": "function"
    },
    {
      "inputs": [
        {
          "internalType": "uint256",
          "name": "_lotteryId",
          "type": "uint256"
        }
      ],
      "name": "receiveRewards",
      "outputs": [],
      "stateMutability": "nonpayable",
      "type": "function"
    },
    {
      "inputs": [
        {
          "internalType": "uint256",
          "name": "_lotteryId",
          "type": "uint256"
        },
        {
          "internalType": "address",
          "name": "user",
          "type": "address"
        }
      ],
      "name": "receiveRward",
      "outputs": [
        {
          "internalType": "uint256",
          "name": "",
          "type": "uint256"
        }
      ],
      "stateMutability": "view",
      "type": "function"
    },
    {
      "inputs": [
        {
          "internalType": "address",
          "name": "_tokenAddress",
          "type": "address"
        },
        {
          "internalType": "uint256",
          "name": "_tokenAmount",
          "type": "uint256"
        }
      ],
      "name": "recoverWrongTokens",
      "outputs": [],
      "stateMutability": "nonpayable",
      "type": "function"
    },
    {
      "inputs": [
        {
          "internalType": "uint256[]",
          "name": "_ticketNumbers",
          "type": "uint256[]"
        }
      ],
      "name": "redeemTickets",
      "outputs": [],
      "stateMutability": "nonpayable",
      "type": "function"
    },
    {
      "inputs": [],
      "name": "renounceOwnership",
      "outputs": [],
      "stateMutability": "nonpayable",
      "type": "function"
    },
    {
      "inputs": [
        {
          "internalType": "address",
          "name": "_operatorAddress",
          "type": "address"
        }
      ],
      "name": "setOperatorAddress",
      "outputs": [],
      "stateMutability": "nonpayable",
      "type": "function"
    },
    {
      "inputs": [
        {
          "internalType": "address",
          "name": "_randomNumberGenerator",
          "type": "address"
        }
      ],
      "name": "setRandomNumberGenerator",
      "outputs": [],
      "stateMutability": "nonpayable",
      "type": "function"
    },
    {
      "inputs": [
        {
          "internalType": "uint256",
          "name": "_endTime",
          "type": "uint256"
        },
        {
          "internalType": "uint256[4]",
          "name": "_stageProportion",
          "type": "uint256[4]"
        }
      ],
      "name": "startLottery",
      "outputs": [],
      "stateMutability": "nonpayable",
      "type": "function"
    },
    {
      "inputs": [
        {
          "internalType": "address",
          "name": "newOwner",
          "type": "address"
        }
      ],
      "name": "transferOwnership",
      "outputs": [],
      "stateMutability": "nonpayable",
      "type": "function"
    },
    {
      "inputs": [
        {
          "internalType": "address",
          "name": "",
          "type": "address"
        }
      ],
      "name": "userCheckPoint",
      "outputs": [
        {
          "internalType": "uint256",
          "name": "",
          "type": "uint256"
        }
      ],
      "stateMutability": "view",
      "type": "function"
    },
    {
      "inputs": [
        {
          "internalType": "address",
          "name": "",
          "type": "address"
        },
        {
          "internalType": "uint256",
          "name": "",
          "type": "uint256"
        }
      ],
      "name": "usersRewards",
      "outputs": [
        {
          "internalType": "uint256",
          "name": "",
          "type": "uint256"
        }
      ],
      "stateMutability": "view",
      "type": "function"
    },
    {
      "inputs": [
        {
          "internalType": "address",
          "name": "",
          "type": "address"
        }
      ],
      "name": "usersTotalRewards",
      "outputs": [
        {
          "internalType": "uint256",
          "name": "",
          "type": "uint256"
        }
      ],
      "stateMutability": "view",
      "type": "function"
    },
    {
      "inputs": [
        {
          "internalType": "address",
          "name": "user",
          "type": "address"
        },
        {
          "internalType": "uint256",
          "name": "maxAmount",
          "type": "uint256"
        }
      ],
      "name": "viewUserAllTicketsInfo",
      "outputs": [
        {
          "internalType": "uint256[]",
          "name": "",
          "type": "uint256[]"
        },
        {
          "internalType": "uint256[]",
          "name": "",
          "type": "uint256[]"
        },
        {
          "internalType": "uint256[]",
          "name": "",
          "type": "uint256[]"
        },
        {
          "internalType": "uint256",
          "name": "",
          "type": "uint256"
        }
      ],
      "stateMutability": "view",
      "type": "function"
    },
    {
      "inputs": [
        {
          "internalType": "address",
          "name": "user",
          "type": "address"
        },
        {
          "internalType": "uint256",
          "name": "_startRound",
          "type": "uint256"
        },
        {
          "internalType": "uint256",
          "name": "_endRound",
          "type": "uint256"
        }
      ],
      "name": "viewUserRewardsInfo",
      "outputs": [
        {
          "internalType": "uint256[]",
          "name": "",
          "type": "uint256[]"
        },
        {
          "internalType": "uint256[]",
          "name": "",
          "type": "uint256[]"
        },
        {
          "internalType": "uint256[]",
          "name": "",
          "type": "uint256[]"
        }
      ],
      "stateMutability": "view",
      "type": "function"
    }
  ],
  "transactionHash": "0x4113062950ad5c89ab14d3321ea47a84c65f2c03ba016213865438b48ad24c73",
  "args": [
    "0x5FbDB2315678afecb367f032d93F642f64180aa3",
    "0xCf7Ed3AccA5a467e9e704C703E8D87F634fB0Fc9",
    "0x0165878A594ca255338adfa4d48449f69242Eb8F"
  ],
  "numDeployments": 1,
  "solcInputHash": "a36abfdb18cc74309b593cc1c7bfe74a",
  "bytecode": "0x60806040523480156200001157600080fd5b5060405162003a6638038062003a66833981016040819052620000349162000113565b6001600055620000443362000087565b600280546001600160a01b039485166001600160a01b0319918216179091556003805493851693821693909317909255600480549190931691161790556200016b565b600180546001600160a01b038381166001600160a01b0319831681179093556040519116919082907f8be0079c531659141344cd1fd0a4f28419497f9722a3daafe3b4186f6b6457e090600090a35050565b60006001600160a01b0382165b92915050565b620000f781620000d9565b81146200010357600080fd5b50565b8051620000e681620000ec565b6000806000606084860312156200012d576200012d600080fd5b60006200013b868662000106565b93505060206200014e8682870162000106565b9250506040620001618682870162000106565b9150509250925092565b6138eb806200017b6000396000f3fe608060405234801561001057600080fd5b50600436106101e55760003560e01c80638b06a51f1161010f578063d07f8a43116100a2578063e359ebec11610071578063e359ebec14610464578063e6c1066114610477578063f2fde38b1461048a578063f43d11af1461049d57600080fd5b8063d07f8a4314610418578063d3c89b681461042b578063d77868da1461043e578063dcbad90d1461045157600080fd5b8063929a25ba116100de578063929a25ba146103af578063967159f3146103cf5780639dd693ed146103e2578063c05851441461040557600080fd5b80638b06a51f146103495780638da5cb5b146103695780638f966b4f1461037a5780638fab78b51461038d57600080fd5b80633f138d4b116101875780636be4097c116101565780636be4097c1461031d5780636fd0981614610326578063715018a61461032e57806386c594181461033657600080fd5b80633f138d4b146102d95780634019c948146102ec578063605f73a81461030c57806369d40f781461031557600080fd5b80631398e076116101c35780631398e076146102545780631a95f15f146102ad57806327e605ec146102bc5780632f1d5a60146102c657600080fd5b8063045abca0146101ea5780630db0bf5914610209578063127effb214610234575b600080fd5b6101f3600a5481565b60405161020091906128fe565b60405180910390f35b6101f361021736600461294d565b600f60209081526000928352604080842090915290825290205481565b600554610247906001600160a01b031681565b6040516102009190612993565b61029b6102623660046129a1565b60096020526000908152604090208054600182015460028301546013840154601485015460159095015460ff9094169492939192909186565b60405161020096959493929190612a0b565b6101f3678ac7230489e8000081565b6102c46104b0565b005b6102c46102d4366004612a5a565b610951565b6102c46102e736600461294d565b610a06565b6002546102ff906001600160a01b031681565b6040516102009190612a9a565b6101f3600b5481565b6101f3610ac6565b6101f3600c5481565b6102c4610b01565b6102c4610c77565b6003546102ff906001600160a01b031681565b6101f3610357366004612a5a565b600d6020526000908152604090205481565b6001546001600160a01b0316610247565b6101f3610388366004612aa8565b610cbc565b6103a061039b366004612adb565b610e09565b60405161020093929190612b89565b6101f36103bd366004612a5a565b600e6020526000908152604090205481565b6102c46103dd366004612c1c565b610fee565b6103f56103f036600461294d565b61126d565b6040516102009493929190612c63565b6102c4610413366004612cab565b6115bd565b6102c4610426366004612a5a565b611850565b6102c4610439366004612d36565b6118fa565b6102c461044c3660046129a1565b611bdd565b6004546102ff906001600160a01b031681565b6102c46104723660046129a1565b611dda565b6103a0610485366004612d69565b611fca565b6102c4610498366004612a5a565b6122a9565b6103a06104ab366004612d8d565b612314565b6005546001600160a01b0316336001600160a01b031614806104dc57506001546001600160a01b031633145b6105015760405162461bcd60e51b81526004016104f890612e12565b60405180910390fd5b600260005414156105245760405162461bcd60e51b81526004016104f890612e54565b60026000818155600c5481526009602052604090205460ff16600381111561054e5761054e6129c2565b1461056b5760405162461bcd60e51b81526004016104f890612eb7565b600480546040805163776c70f760e11b815290516001600160a01b039092169263eed8e1ee9282820192602092908290030181865afa1580156105b2573d6000803e3d6000fd5b505050506040513d601f19601f820116820180604052508101906105d69190612ed2565b600c54146105f65760405162461bcd60e51b81526004016104f890612f31565b6000600460009054906101000a90046001600160a01b03166001600160a01b03166342619f666040518163ffffffff1660e01b8152600401602060405180830381865afa15801561064b573d6000803e3d6000fd5b505050506040513d601f19601f8201168201806040525081019061066f9190612f58565b600c54600090815260096020526040812063ffffffff92909216925090819081805b60048110156107f65760006106a7826003612f8f565b905060006106b588836124fd565b6000818152600760205260409020549091506106d2908890612f8f565b85600b0183600481106106e7576106e7612fa6565b0155600081815260076020908152604080832054600690925290912054909750610712908790612f8f565b85600f01836004811061072757610727612fa6565b01556000818152600660205260409020549550600b8501826004811061074f5761074f612fa6565b015461077357600085600701836004811061076c5761076c612fa6565b01556107be565b612710856013015486600301846004811061079057610790612fa6565b015461079c9190612fbc565b6107a69190612ff1565b8560070183600481106107bb576107bb612fa6565b01555b8460070182600481106107d3576107d3612fa6565b01546107df9085613005565b9350505080806107ee9061301d565b915050610691565b508082601401600082825461080b9190613005565b9091555050601482015460138301546108249190612f8f565b600a556003546040516370a0823160e01b81526001600160a01b03909116906370a0823190610857903090600401612993565b602060405180830381865afa158015610874573d6000803e3d6000fd5b505050506040513d601f19601f820116820180604052508101906108989190612ed2565b8260130154600b546108aa9190613005565b11156108c85760405162461bcd60e51b81526004016104f89061305d565b60158201859055815460ff191660031782556014820154600b80546000906108f1908490613005565b9091555050600c54600081815260096020526040908190206014015490517f98e31a6607b8b15b4d5b91de54f4c09ffe4c4cf162aa532c70b5213754e2e7039161093d9189919061306d565b60405180910390a250506001600055505050565b336109646001546001600160a01b031690565b6001600160a01b03161461098a5760405162461bcd60e51b81526004016104f8906130b8565b6001600160a01b0381166109b05760405162461bcd60e51b81526004016104f8906130f3565b600580546001600160a01b0319166001600160a01b0383161790556040517f2cbac2b64384bea29a06e4e8a692a6e5320bfa529be0407a03d41605cb698173906109fb908390612993565b60405180910390a150565b33610a196001546001600160a01b031690565b6001600160a01b031614610a3f5760405162461bcd60e51b81526004016104f8906130b8565b6002546001600160a01b0383811691161415610a6d5760405162461bcd60e51b81526004016104f890613135565b610a816001600160a01b038316338361253c565b816001600160a01b03167f74545154aac348a3eac92596bd1971957ca94795f4e954ec5f613b55fab7812982604051610aba91906128fe565b60405180910390a25050565b6000600c54600c610ad79190613005565b600c54610ae5906018613005565b610af290620f4240612fbc565b610afc9190612ff1565b905090565b6005546001600160a01b0316336001600160a01b03161480610b2d57506001546001600160a01b031633145b610b495760405162461bcd60e51b81526004016104f890612e12565b60026000541415610b6c5760405162461bcd60e51b81526004016104f890612e54565b60026000556001600c5460009081526009602052604090205460ff166003811115610b9957610b996129c2565b14610bb65760405162461bcd60e51b81526004016104f890613177565b600c546000908152600960205260408082204260029091015560048054825163dbdff2c160e01b815292516001600160a01b039091169363dbdff2c193808401939192919082900301818387803b158015610c1057600080fd5b505af1158015610c24573d6000803e3d6000fd5b5050600c8054600090815260096020526040808220805460ff19166002179055915491519193507f8bc84e5d97533c428862626ac41fe7bc09b1ea2ed5e9e330d84092db8df15366925090a26001600055565b33610c8a6001546001600160a01b031690565b6001600160a01b031614610cb05760405162461bcd60e51b81526004016104f8906130b8565b610cba6000612597565b565b60008281526009602052604081206015015481908190815b6004811015610dfc576000610cea826003612f8f565b90506000610cf884836124fd565b6001600160a01b038916600090815260086020908152604080832084845290915281205491925090610d2b908790612f8f565b6001600160a01b038a1660009081526008602090815260408083208684528252808320548e84526009909252909120909750909150600f018360048110610d7457610d74612fa6565b015415610de65760008a8152600960205260409020600f018360048110610d9d57610d9d612fa6565b015460008b815260096020526040902082906007018560048110610dc357610dc3612fa6565b0154610dcf9190612fbc565b610dd99190612ff1565b610de39088613005565b96505b5050508080610df49061301d565b915050610cd4565b5091925050505b92915050565b606080806000610e198787612f8f565b610e24906001613005565b6001600160401b03811115610e3b57610e3b613187565b604051908082528060200260200182016040528015610e64578160200160208202803683370190505b5090506000610e738888612f8f565b610e7e906001613005565b6001600160401b03811115610e9557610e95613187565b604051908082528060200260200182016040528015610ebe578160200160208202803683370190505b5090506000610ecd8989612f8f565b610ed8906001613005565b6001600160401b03811115610eef57610eef613187565b604051908082528060200260200182016040528015610f18578160200160208202803683370190505b509050885b888111610fde576000610f30828a6124fd565b90508185610f3e8d83612f8f565b81518110610f4e57610f4e612fa6565b60209081029190910181019190915260008281526007909152604090205484610f778d85612f8f565b81518110610f8757610f87612fa6565b60209081029190910181019190915260008281526006909152604090205483610fb08d85612f8f565b81518110610fc057610fc0612fa6565b60209081029190910101525080610fd68161301d565b915050610f1d565b5091989097509095509350505050565b610ff9335b3b151590565b156110165760405162461bcd60e51b81526004016104f8906131c6565b3332146110355760405162461bcd60e51b81526004016104f890613208565b600260005414156110585760405162461bcd60e51b81526004016104f890612e54565b60026000558061107a5760405162461bcd60e51b81526004016104f89061324a565b6001600c5460009081526009602052604090205460ff1660038111156110a2576110a26129c2565b146110bf5760405162461bcd60e51b81526004016104f890613297565b336000908152600d60205260409020546110e757600c54336000908152600d60205260409020555b600c54336000908152600d60205260409020541015611112576111126001600c5461044c9190612f8f565b6000805b828110156111d857600061114385858481811061113557611135612fa6565b9050602002013560036124fd565b3360009081526008602090815260408083208484526001810183528184205492529091205491925090611191600688888781811061118357611183612fa6565b9050602002013584846125e9565b3360009081526008602052604090206111b69088888781811061118357611183612fa6565b6111c08286613005565b945050505080806111d09061301d565b915050611116565b50806111f65760405162461bcd60e51b81526004016104f8906132d9565b61121f3361120c678ac7230489e8000084612fbc565b6002546001600160a01b0316919061253c565b600c54336001600160a01b03167f4351c1b0eab3edfe3ae632c43d3c33b0ce389aa3bebe2586cd5a064b26b666f58360405161125b91906128fe565b60405180910390a35050600160005550565b6060806060600080856001600160401b0381111561128d5761128d613187565b6040519080825280602002602001820160405280156112b6578160200160208202803683370190505b5090506000866001600160401b038111156112d3576112d3613187565b6040519080825280602002602001820160405280156112fc578160200160208202803683370190505b5090506000876001600160401b0381111561131957611319613187565b604051908082528060200260200182016040528015611342578160200160208202803683370190505b509050600080808080805b600984116115a2578394506113938f6113678760006124fd565b6001600160a01b0391909116600090815260086020908152604080832093835260019093019052205490565b61139c57611590565b600092505b60098311611590576113b483600a612fbc565b6113be9085613005565b94506113cf8f6113678760016124fd565b6113d85761157e565b600091505b6009821161157e576113f0826064612fbc565b6113fb84600a612fbc565b6114059086613005565b61140f9190613005565b94506114208f6113678760026124fd565b6114295761156c565b5060005b6009811161156c57611441816103e8612fbc565b61144c836064612fbc565b61145785600a612fbc565b6114619087613005565b61146b9190613005565b6114759190613005565b94506114868f6113678760036124fd565b61148f5761155a565b848987815181106114a2576114a2612fa6565b6020026020010181815250506114bd8f6113678760036124fd565b8887815181106114cf576114cf612fa6565b6020026020010181815250506115128f6114ea8760036124fd565b6001600160a01b03919091166000908152600860209081526040808320938352929052205490565b87878151811061152457611524612fa6565b6020908102919091010152856115398161301d565b9650508d861061155a5750969a509498509296509094506115b49350505050565b806115648161301d565b91505061142d565b816115768161301d565b9250506113dd565b826115888161301d565b9350506113a1565b8361159a8161301d565b94505061134d565b50969a50949850929650909450505050505b92959194509250565b6115c633610ff3565b156115e35760405162461bcd60e51b81526004016104f8906131c6565b3332146116025760405162461bcd60e51b81526004016104f890613208565b600260005414156116255760405162461bcd60e51b81526004016104f890612e54565b6002600055826116475760405162461bcd60e51b81526004016104f8906132d9565b8281146116665760405162461bcd60e51b81526004016104f89061330f565b6001600c5460009081526009602052604090205460ff16600381111561168e5761168e6129c2565b146116ab5760405162461bcd60e51b81526004016104f890613177565b336000908152600d60205260409020546116d357600c54336000908152600d60205260409020555b600c54336000908152600d602052604090205410156116fe576116fe6001600c5461044c9190612f8f565b6000611708610ac6565b90506000805b858110156117d357611776600688888481811061172d5761172d612fa6565b9050602002013587878581811061174657611746612fa6565b9050602002013588888681811061175f5761175f612fa6565b90506020020135876117719190612fbc565b61266a565b33600090815260086020526040902061179b9088888481811061172d5761172d612fa6565b8484828181106117ad576117ad612fa6565b90506020020135826117bf9190613005565b9150806117cb8161301d565b91505061170e565b506117ff33306117eb678ac7230489e8000085612fbc565b6002546001600160a01b03169291906126e4565b600c54336001600160a01b03167fd7d247b583de1023852eef87b48f54354dbec771d01bc2cc49e96094efc322b98360405161183b91906128fe565b60405180910390a35050600160005550505050565b336118636001546001600160a01b031690565b6001600160a01b0316146118895760405162461bcd60e51b81526004016104f8906130b8565b6001600160a01b0381166118af5760405162461bcd60e51b81526004016104f890613351565b600480546001600160a01b0319166001600160a01b0383161790556040517ff9dbce95dc1315f700e67e068c99d0807af333f0b0e29b0e453c733fcfc7e2aa906109fb908390612993565b6005546001600160a01b0316336001600160a01b0316148061192657506001546001600160a01b031633145b6119425760405162461bcd60e51b81526004016104f890612e12565b600c54158061197657506003600c5460009081526009602052604090205460ff166003811115611974576119746129c2565b145b6119925760405162461bcd60e51b81526004016104f890613393565b612710606082013560408301356119ae60208501358535613005565b6119b89190613005565b6119c29190613005565b11156119e05760405162461bcd60e51b81526004016104f8906133eb565b600c80549060006119f08361301d565b90915550506040805161014081019091528060018152602001428152602001838152602001826004806020026040519081016040528092919082600460200280828437600092018290525092845250506040805160808082018352838252602082810185905282840185905260608084018690528187019390935283518083018552858152808201869052808501869052808401869052848701528351808301855285815280820186905280850186905280840186905292860192909252600a549085015260a0840183905260c0909301829052600c54825260099092522081518154829060ff19166001836003811115611aed57611aed6129c2565b021790555060208201516001820155604082015160028201556060820151611b1b90600383019060046128a3565b506080820151611b3190600783019060046128a3565b5060a0820151611b4790600b83019060046128a3565b5060c0820151611b5d90600f83019060046128a3565b5060e08201516013808301919091556101008301516014830155610120909201516015909101556000600a819055600c548082526009602052604091829020600181015460028201549190940154925191937f7745060911034707e68f2069481cb119df60e1d0ca97cb79d00dadfd83f7ad1393610aba939192916133fb565b611be633610ff3565b15611c035760405162461bcd60e51b81526004016104f8906131c6565b333214611c225760405162461bcd60e51b81526004016104f890613208565b600360008281526009602052604090205460ff166003811115611c4757611c476129c2565b14611c645760405162461bcd60e51b81526004016104f89061346e565b336000908152600d6020526040902054811015611c935760405162461bcd60e51b81526004016104f8906134b0565b336000908152600d60205260408120545b828111611d41576000611cb78233610cbc565b9050611cc38184613005565b925080600960008481526020019081526020016000206014016000828254611ceb9190612f8f565b9091555050336000818152600f602090815260408083208684528252808320859055928252600e90529081208054839290611d27908490613005565b90915550829150611d3990508161301d565b915050611ca4565b50611d4d826001613005565b336000908152600d6020526040812091909155600b8054839290611d72908490612f8f565b90915550508015611d9457600354611d94906001600160a01b0316338361253c565b81336001600160a01b03167fe75628587fccf98394f5c7b83e27a7f98b529519f8dd4fb7aa8a6093ee91afa483604051611dce91906128fe565b60405180910390a35050565b6005546001600160a01b0316336001600160a01b03161480611e0657506001546001600160a01b031633145b611e225760405162461bcd60e51b81526004016104f890612e12565b60026000541415611e455760405162461bcd60e51b81526004016104f890612e54565b6002600055611e62336003546001600160a01b03169030846126e4565b6001600c5460009081526009602052604090205460ff166003811115611e8a57611e8a6129c2565b1415611ebf57600c5460009081526009602052604081206013018054839290611eb4908490613005565b90915550611ed79050565b80600a6000828254611ed19190613005565b90915550505b6003546040516370a0823160e01b81526001600160a01b03909116906370a0823190611f07903090600401612993565b602060405180830381865afa158015611f24573d6000803e3d6000fd5b505050506040513d601f19601f82011682018060405250810190611f489190612ed2565b600c54600090815260096020526040902060130154600b54611f6a9190613005565b1115611f885760405162461bcd60e51b81526004016104f89061305d565b600c547fd313907aae54d62a2116f9b590d5c0c5d89daceaa23cc97230f0162c8bf55c7982604051611fba91906128fe565b60405180910390a2506001600055565b606080606083851115611fef5760405162461bcd60e51b81526004016104f890613501565b600c548411156120115760405162461bcd60e51b81526004016104f890613543565b600360008581526009602052604090205460ff166003811115612036576120366129c2565b146120535760405162461bcd60e51b81526004016104f89061346e565b600061205f8686612f8f565b61206a906001613005565b6001600160401b0381111561208157612081613187565b6040519080825280602002602001820160405280156120aa578160200160208202803683370190505b50905060006120b98787612f8f565b6120c4906001613005565b6001600160401b038111156120db576120db613187565b604051908082528060200260200182016040528015612104578160200160208202803683370190505b50905060006121138888612f8f565b61211e906001613005565b6001600160401b0381111561213557612135613187565b60405190808252806020026020018201604052801561215e578160200160208202803683370190505b506001600160a01b038a166000908152600d6020526040902054909150885b8881116122995780856121908c83612f8f565b815181106121a0576121a0612fa6565b6020026020010181815250508181101561222c576001836121c18c84612f8f565b815181106121d1576121d1612fa6565b6020908102919091018101919091526001600160a01b038c166000908152600f8252604080822084835290925220548461220b8c84612f8f565b8151811061221b5761221b612fa6565b602002602001018181525050612287565b6000836122398c84612f8f565b8151811061224957612249612fa6565b60200260200101818152505061225f818c610cbc565b8461226a8c84612f8f565b8151811061227a5761227a612fa6565b6020026020010181815250505b806122918161301d565b91505061217d565b5092999198509650945050505050565b336122bc6001546001600160a01b031690565b6001600160a01b0316146122e25760405162461bcd60e51b81526004016104f8906130b8565b6001600160a01b0381166123085760405162461bcd60e51b81526004016104f890613594565b61231181612597565b50565b6060808060006123248787612f8f565b61232f906001613005565b90506000816001600160401b0381111561234b5761234b613187565b604051908082528060200260200182016040528015612374578160200160208202803683370190505b5090506000826001600160401b0381111561239157612391613187565b6040519080825280602002602001820160405280156123ba578160200160208202803683370190505b5090506000836001600160401b038111156123d7576123d7613187565b604051908082528060200260200182016040528015612400578160200160208202803683370190505b509050895b8981116124eb576000612418828b6124fd565b905081856124268e83612f8f565b8151811061243657612436612fa6565b6020908102919091018101919091526001600160a01b038e1660009081526008825260408082208483526001019092522054846124738e85612f8f565b8151811061248357612483612fa6565b6020908102919091018101919091526001600160a01b038e1660009081526008825260408082208483529092522054836124bd8e85612f8f565b815181106124cd576124cd612fa6565b602090810291909101015250806124e38161301d565b915050612405565b50919a90995090975095505050505050565b600061250b82612710612fbc565b612516836001613005565b61252190600a6136b2565b61252b90856136c1565b6125359190613005565b9392505050565b6125928363a9059cbb60e01b848460405160240161255b9291906136d5565b60408051601f198184030181529190526020810180516001600160e01b03166001600160e01b03199093169290921790915261270b565b505050565b600180546001600160a01b038381166001600160a01b0319831681179093556040519116919082907f8be0079c531659141344cd1fd0a4f28419497f9722a3daafe3b4186f6b6457e090600090a35050565b60005b600481101561266357600061260185836124fd565b600081815260208890526040812080549293508592909190612624908490612f8f565b9091555050600081815260018701602052604081208054869290612649908490612f8f565b9091555082915061265b90508161301d565b9150506125ec565b5050505050565b60005b600481101561266357600061268285836124fd565b6000818152602088905260408120805492935085929091906126a5908490613005565b90915550506000818152600187016020526040812080548692906126ca908490613005565b909155508291506126dc90508161301d565b91505061266d565b612705846323b872dd60e01b85858560405160240161255b939291906136e3565b50505050565b6000612760826040518060400160405280602081526020017f5361666545524332303a206c6f772d6c6576656c2063616c6c206661696c6564815250856001600160a01b031661279a9092919063ffffffff16565b805190915015612592578080602001905181019061277e9190613711565b6125925760405162461bcd60e51b81526004016104f890613777565b60606127a984846000856127b1565b949350505050565b6060824710156127d35760405162461bcd60e51b81526004016104f8906137c8565b843b6127f15760405162461bcd60e51b81526004016104f89061380a565b600080866001600160a01b0316858760405161280d9190613868565b60006040518083038185875af1925050503d806000811461284a576040519150601f19603f3d011682016040523d82523d6000602084013e61284f565b606091505b509150915061285f82828661286a565b979650505050505050565b60608315612879575081612535565b8251156128895782518084602001fd5b8160405162461bcd60e51b81526004016104f891906138a4565b82600481019282156128d1579160200282015b828111156128d15782518255916020019190600101906128b6565b506128dd9291506128e1565b5090565b5b808211156128dd57600081556001016128e2565b805b82525050565b60208101610e0382846128f6565b60006001600160a01b038216610e03565b6129268161290c565b811461231157600080fd5b8035610e038161291d565b80612926565b8035610e038161293c565b6000806040838503121561296357612963600080fd5b600061296f8585612931565b925050602061298085828601612942565b9150509250929050565b6128f88161290c565b60208101610e03828461298a565b6000602082840312156129b6576129b6600080fd5b60006127a98484612942565b634e487b7160e01b600052602160045260246000fd5b60048110612311576123116129c2565b806129f2816129d8565b919050565b6000610e03826129e8565b6128f8816129f7565b60c08101612a198289612a02565b612a2660208301886128f6565b612a3360408301876128f6565b612a4060608301866128f6565b612a4d60808301856128f6565b61285f60a08301846128f6565b600060208284031215612a6f57612a6f600080fd5b60006127a98484612931565b6000610e038261290c565b6000610e0382612a7b565b6128f881612a86565b60208101610e038284612a91565b60008060408385031215612abe57612abe600080fd5b6000612aca8585612942565b925050602061298085828601612931565b600080600060608486031215612af357612af3600080fd5b6000612aff8686612942565b9350506020612b1086828701612942565b9250506040612b2186828701612942565b9150509250925092565b612b3582826128f6565b5060200190565b60200190565b6000612b4c825190565b808452602093840193830160005b82811015612b7f578151612b6e8782612b2b565b965050602082019150600101612b5a565b5093949350505050565b60608082528101612b9a8186612b42565b90508181036020830152612bae8185612b42565b90508181036040830152612bc28184612b42565b95945050505050565b60008083601f840112612be057612be0600080fd5b5081356001600160401b03811115612bfa57612bfa600080fd5b602083019150836020820283011115612c1557612c15600080fd5b9250929050565b60008060208385031215612c3257612c32600080fd5b82356001600160401b03811115612c4b57612c4b600080fd5b612c5785828601612bcb565b92509250509250929050565b60808082528101612c748187612b42565b90508181036020830152612c888186612b42565b90508181036040830152612c9c8185612b42565b9050612bc260608301846128f6565b60008060008060408587031215612cc457612cc4600080fd5b84356001600160401b03811115612cdd57612cdd600080fd5b612ce987828801612bcb565b945094505060208501356001600160401b03811115612d0a57612d0a600080fd5b612d1687828801612bcb565b95989497509550505050565b8060808101831015610e0357610e03600080fd5b60008060a08385031215612d4c57612d4c600080fd5b6000612d588585612942565b925050602061298085828601612d22565b600080600060608486031215612d8157612d81600080fd5b6000612aff8686612931565b60008060008060808587031215612da657612da6600080fd5b6000612db28787612931565b9450506020612dc387828801612942565b9350506040612dd487828801612942565b9250506060612de587828801612942565b91505092959194509250565b600c8152602081016b2737ba1037b832b930ba37b960a11b81529050612b3c565b60208082528101610e0381612df1565b601f8152602081017f5265656e7472616e637947756172643a207265656e7472616e742063616c6c0081529050612b3c565b60208082528101610e0381612e22565b60368152602081017f74686973206c6f747465727920686173206e6f7420636c6f7365642c20796f75815275081cda1bdd5b1908199a5c9cdd0818db1bdcd9481a5d60521b602082015290505b60400190565b60208082528101610e0381612e64565b8051610e038161293c565b600060208284031215612ee757612ee7600080fd5b60006127a98484612ec7565b60238152602081017f7468652066696e616c206e756d62657220686173206e6f74206265656e20647281526230bbb760e91b60208201529050612eb1565b60208082528101610e0381612ef3565b63ffffffff8116612926565b8051610e0381612f41565b600060208284031215612f6d57612f6d600080fd5b60006127a98484612f4d565b634e487b7160e01b600052601160045260246000fd5b600082821015612fa157612fa1612f79565b500390565b634e487b7160e01b600052603260045260246000fd5b6000816000190483118215151615612fd657612fd6612f79565b500290565b634e487b7160e01b600052601260045260246000fd5b60008261300057613000612fdb565b500490565b6000821982111561301857613018612f79565b500190565b600060001982141561303157613031612f79565b5060010190565b60108152602081016f15dc9bdb99c81554d108185b5bdd5b9d60821b81529050612b3c565b60208082528101610e0381613038565b6040810161307b82856128f6565b61253560208301846128f6565b60208082527f4f776e61626c653a2063616c6c6572206973206e6f7420746865206f776e65729101908152612b3c565b60208082528101610e0381613088565b60168152602081017543616e6e6f74206265207a65726f206164647265737360501b81529050612b3c565b60208082528101610e03816130c8565b60188152602081017f43616e6e6f74207265636f7665722044454720746f6b656e000000000000000081529050612b3c565b60208082528101610e0381613103565b601b8152602081017f43757272656e74206c6f7474657279206973206e6f74206f70656e000000000081529050612b3c565b60208082528101610e0381613145565b634e487b7160e01b600052604160045260246000fd5b60148152602081017310dbdb9d1c9858dd081b9bdd08185b1b1bddd95960621b81529050612b3c565b60208082528101610e038161319d565b601a8152602081017f50726f787920636f6e7472616374206e6f7420616c6c6f77656400000000000081529050612b3c565b60208082528101610e03816131d6565b601b8152602081017f4e6f207469636b65747320617265206265696e672072656465656d000000000081529050612b3c565b60208082528101610e0381613218565b60228152602081017f536f7272792c2063757272656e74206c6f7474657279206973206e6f74206f7081526132b760f11b60208201529050612eb1565b60208082528101610e038161325a565b601b8152602081017f4e6f207469636b65747320617265206265696e6720626f75676874000000000081529050612b3c565b60208082528101610e03816132a7565b601181526020810170446966666572656e74206c656e6774687360781b81529050612b3c565b60208082528101610e03816132e9565b60178152602081017f43616e206e6f74206265207a65726f206164647265737300000000000000000081529050612b3c565b60208082528101610e038161331f565b60198152602081017f4e6f742074696d6520746f207374617274206c6f74746572790000000000000081529050612b3c565b60208082528101610e0381613361565b602d8152602081017f546f74616c2072657761726473206f66206561636820627261636b657420736881526c06f756c64203c3d20313030303609c1b60208201529050612eb1565b60208082528101610e03816133a3565b6060810161340982866128f6565b61341660208301856128f6565b6127a960408301846128f6565b60308152602081017f7468697320726f756e64206f66206c6f747465727920617265206e6f7420726581526f61647920666f7220636c61696d696e6760801b60208201529050612eb1565b60208082528101610e0381613423565b601d8152602081017f616c6c206177617264732068617665206265656e20726563656976656400000081529050612b3c565b60208082528101610e038161347e565b60268152602081017f456e64206c6f747465727920736d616c6c6572207468616e207374617274206c8152656f747465727960d01b60208201529050612eb1565b60208082528101610e03816134c0565b601a8152602081017f456e64206c6f747465727920726f756e64206e6f74206f70656e00000000000081529050612b3c565b60208082528101610e0381613511565b60268152602081017f4f776e61626c653a206e6577206f776e657220697320746865207a65726f206181526564647265737360d01b60208201529050612eb1565b60208082528101610e0381613553565b80825b60018511156135e3578086048111156135c2576135c2612f79565b60018516156135d057908102905b80026135dc8560011c90565b94506135a7565b94509492505050565b6000826135fb57506001612535565b8161360857506000612535565b816001811461361e576002811461362857613655565b6001915050612535565b60ff84111561363957613639612f79565b8360020a91508482111561364f5761364f612f79565b50612535565b5060208310610133831016604e8410600b8410161715613688575081810a8381111561368357613683612f79565b612535565b61369584848460016135a4565b925090508184048111156136ab576136ab612f79565b0292915050565b600061253560001984846135ec565b6000826136d0576136d0612fdb565b500690565b6040810161307b828561298a565b606081016136f1828661298a565b613416602083018561298a565b801515612926565b8051610e03816136fe565b60006020828403121561372657613726600080fd5b60006127a98484613706565b602a8152602081017f5361666545524332303a204552433230206f7065726174696f6e20646964206e8152691bdd081cdd58d8d9595960b21b60208201529050612eb1565b60208082528101610e0381613732565b60268152602081017f416464726573733a20696e73756666696369656e742062616c616e636520666f8152651c8818d85b1b60d21b60208201529050612eb1565b60208082528101610e0381613787565b601d8152602081017f416464726573733a2063616c6c20746f206e6f6e2d636f6e747261637400000081529050612b3c565b60208082528101610e03816137d8565b60005b8381101561383557818101518382015260200161381d565b838111156127055750506000910152565b6000613850825190565b61385e81856020860161381a565b9290920192915050565b610e038183613846565b600061387c825190565b80845260208401935061389381856020860161381a565b601f01601f19169290920192915050565b60208082528101612535818461387256fea26469706673582212200f8d4a29b4eda25c574419ac7936e38cb29f3fe290f2c5a26b09f94989d0361b64736f6c634300080a0033",
  "devdoc": {
    "kind": "dev",
    "methods": {
      "buyTickets(uint256[],uint256[])": {
        "details": "Can not be called by a smart contract",
        "params": {
          "_ticketAmounts": "array of ticket amount",
          "_ticketNumbers": "array of ticket numbers between 0 and 9999"
        }
      },
      "closeLottery()": {
        "details": "Callable only by the operator"
      },
      "constructor": {
        "details": "RandomNumberGenerator must be deployed prior to this contract",
        "params": {
          "_DEGTokenAddress": "Address of the DEG token (for buying tickets)",
          "_USDTokenAddress": "Address of the USD token (for prize distribution)",
          "_randomGeneratorAddress": "Address of the RandomGenerator contract used to work with ChainLink VRF"
        }
      },
      "drawLottery()": {
        "details": "Callable only by the operator"
      },
      "getPoolTicketsInfo(uint256,uint256,uint256)": {
        "details": "May be a huge number, avoid reading this frequently",
        "params": {
          "_position": "Which level to check (0, 1, 2, 3), use 0 to check the 4-digit number",
          "_startIndex": "Start number",
          "_stopIndex": "Stop number"
        }
      },
      "injectFunds(uint256)": {
        "details": "Callable by owner(incentive) or injector address(insurancePool income) First transfer USD and then call this function to record",
        "params": {
          "_amount": "amount to inject "
        }
      },
      "receiveRewards(uint256)": {
        "details": "Callable by users only, not contract!",
        "params": {
          "_lotteryId": "lottery id"
        }
      },
      "receiveRward(uint256,address)": {
        "params": {
          "_lotteryId": "lottery id",
          "user": "user address"
        }
      },
      "recoverWrongTokens(address,uint256)": {
        "params": {
          "_tokenAddress": "the address of the token to withdraw",
          "_tokenAmount": "token amount to withdraw"
        }
      },
      "redeemTickets(uint256[])": {
        "details": "Callable by users",
        "params": {
          "_ticketNumbers": "Array of ticket numbers"
        }
      },
      "renounceOwnership()": {
        "details": "Renouncing ownership will leave the contract without an owner,         thereby removing any functionality that is only available to the owner."
      },
      "setOperatorAddress(address)": {
        "details": "Only callable by the owner",
        "params": {
          "_operatorAddress": "address of the operator"
        }
      },
      "startLottery(uint256,uint256[4])": {
        "details": "Callable only by operator",
        "params": {
          "_endTime": "endTime of the lottery (timestamp in s)",
          "_stageProportion": "breakdown of rewards per bracket (must sum to 10,000)(100 <=> 1)"
        }
      },
      "transferOwnership(address)": {
        "details": "Can only be called by the current owner.",
        "params": {
          "newOwner": "Address of the new owner"
        }
      }
    },
    "version": 1
  },
  "userdoc": {
    "kind": "user",
    "methods": {
      "buyTickets(uint256[],uint256[])": {
        "notice": "Buy tickets for the current lottery round"
      },
      "closeLottery()": {
        "notice": "Close a lottery"
      },
      "constructor": {
        "notice": "Constructor function"
      },
      "drawLottery()": {
        "notice": "Draw the final number, calculate reward in DEG for each group,         and make this lottery claimable (need to wait for the random generator)"
      },
      "getPoolTicketsInfo(uint256,uint256,uint256)": {
        "notice": "Get pool tickets info"
      },
      "getUserTicketsInfo(address,uint256,uint256,uint256)": {
        "notice": "Get user tickets info"
      },
      "injectFunds(uint256)": {
        "notice": "Inject funds"
      },
      "owner()": {
        "notice": "Returns the address of the current owner."
      },
      "receiveRewards(uint256)": {
        "notice": "Receive all awards from lottery before lottery id"
      },
      "receiveRward(uint256,address)": {
        "notice": "Receive award from a lottery"
      },
      "recoverWrongTokens(address,uint256)": {
        "notice": "Recover wrong tokens sent to the contract, only by the owner All tokens except DEG and USD are wrong tokens"
      },
      "redeemTickets(uint256[])": {
        "notice": "Redeem tickets for all lottery"
      },
      "renounceOwnership()": {
        "notice": "Leaves the contract without owner. It will not be possible to call         `onlyOwner` functions anymore. Can only be called by the current owner."
      },
      "setOperatorAddress(address)": {
        "notice": "Set operator, treasury, and injector addresses"
      },
      "startLottery(uint256,uint256[4])": {
        "notice": "Start the lottery"
      },
      "transferOwnership(address)": {
        "notice": "Transfers ownership of the contract to a new account (`newOwner`)."
      }
    },
    "version": 1
  },
  "storageLayout": {
    "storage": [
      {
        "astId": 2403,
        "contract": "contracts/lucky-box/DegisLottery.sol:DegisLottery",
        "label": "_status",
        "offset": 0,
        "slot": "0",
        "type": "t_uint256"
      },
      {
        "astId": 21731,
        "contract": "contracts/lucky-box/DegisLottery.sol:DegisLottery",
        "label": "_owner",
        "offset": 0,
        "slot": "1",
        "type": "t_address"
      },
      {
        "astId": 9374,
        "contract": "contracts/lucky-box/DegisLottery.sol:DegisLottery",
        "label": "DEGToken",
        "offset": 0,
        "slot": "2",
        "type": "t_contract(IERC20)3056"
      },
      {
        "astId": 9377,
        "contract": "contracts/lucky-box/DegisLottery.sol:DegisLottery",
        "label": "USDToken",
        "offset": 0,
        "slot": "3",
        "type": "t_contract(IERC20)3056"
      },
      {
        "astId": 9380,
        "contract": "contracts/lucky-box/DegisLottery.sol:DegisLottery",
        "label": "randomGenerator",
        "offset": 0,
        "slot": "4",
        "type": "t_contract(IRandomNumberGenerator)11806"
      },
      {
        "astId": 9382,
        "contract": "contracts/lucky-box/DegisLottery.sol:DegisLottery",
        "label": "operatorAddress",
        "offset": 0,
        "slot": "5",
        "type": "t_address"
      },
      {
        "astId": 9397,
        "contract": "contracts/lucky-box/DegisLottery.sol:DegisLottery",
        "label": "poolTickets",
        "offset": 0,
        "slot": "6",
        "type": "t_struct(Tickets)9394_storage"
      },
      {
        "astId": 9402,
        "contract": "contracts/lucky-box/DegisLottery.sol:DegisLottery",
        "label": "usersTickets",
        "offset": 0,
        "slot": "8",
        "type": "t_mapping(t_address,t_struct(Tickets)9394_storage)"
      },
      {
        "astId": 9442,
        "contract": "contracts/lucky-box/DegisLottery.sol:DegisLottery",
        "label": "lotteries",
        "offset": 0,
        "slot": "9",
        "type": "t_mapping(t_uint256,t_struct(LotteryInfo)9437_storage)"
      },
      {
        "astId": 9444,
        "contract": "contracts/lucky-box/DegisLottery.sol:DegisLottery",
        "label": "RewardsToNextLottery",
        "offset": 0,
        "slot": "10",
        "type": "t_uint256"
      },
      {
        "astId": 9446,
        "contract": "contracts/lucky-box/DegisLottery.sol:DegisLottery",
        "label": "allPendingRewards",
        "offset": 0,
        "slot": "11",
        "type": "t_uint256"
      },
      {
        "astId": 9448,
        "contract": "contracts/lucky-box/DegisLottery.sol:DegisLottery",
        "label": "currentLotteryId",
        "offset": 0,
        "slot": "12",
        "type": "t_uint256"
      },
      {
        "astId": 9452,
        "contract": "contracts/lucky-box/DegisLottery.sol:DegisLottery",
        "label": "userCheckPoint",
        "offset": 0,
        "slot": "13",
        "type": "t_mapping(t_address,t_uint256)"
      },
      {
        "astId": 9456,
        "contract": "contracts/lucky-box/DegisLottery.sol:DegisLottery",
        "label": "usersTotalRewards",
        "offset": 0,
        "slot": "14",
        "type": "t_mapping(t_address,t_uint256)"
      },
      {
        "astId": 9462,
        "contract": "contracts/lucky-box/DegisLottery.sol:DegisLottery",
        "label": "usersRewards",
        "offset": 0,
        "slot": "15",
        "type": "t_mapping(t_address,t_mapping(t_uint256,t_uint256))"
      }
    ],
    "types": {
      "t_address": {
        "encoding": "inplace",
        "label": "address",
        "numberOfBytes": "20"
      },
      "t_array(t_uint256)4_storage": {
        "base": "t_uint256",
        "encoding": "inplace",
        "label": "uint256[4]",
        "numberOfBytes": "128"
      },
      "t_contract(IERC20)3056": {
        "encoding": "inplace",
        "label": "contract IERC20",
        "numberOfBytes": "20"
      },
      "t_contract(IRandomNumberGenerator)11806": {
        "encoding": "inplace",
        "label": "contract IRandomNumberGenerator",
        "numberOfBytes": "20"
      },
      "t_enum(Status)9407": {
        "encoding": "inplace",
        "label": "enum DegisLottery.Status",
        "numberOfBytes": "1"
      },
      "t_mapping(t_address,t_mapping(t_uint256,t_uint256))": {
        "encoding": "mapping",
        "key": "t_address",
        "label": "mapping(address => mapping(uint256 => uint256))",
        "numberOfBytes": "32",
        "value": "t_mapping(t_uint256,t_uint256)"
      },
      "t_mapping(t_address,t_struct(Tickets)9394_storage)": {
        "encoding": "mapping",
        "key": "t_address",
        "label": "mapping(address => struct DegisLottery.Tickets)",
        "numberOfBytes": "32",
        "value": "t_struct(Tickets)9394_storage"
      },
      "t_mapping(t_address,t_uint256)": {
        "encoding": "mapping",
        "key": "t_address",
        "label": "mapping(address => uint256)",
        "numberOfBytes": "32",
        "value": "t_uint256"
      },
      "t_mapping(t_uint256,t_struct(LotteryInfo)9437_storage)": {
        "encoding": "mapping",
        "key": "t_uint256",
        "label": "mapping(uint256 => struct DegisLottery.LotteryInfo)",
        "numberOfBytes": "32",
        "value": "t_struct(LotteryInfo)9437_storage"
      },
      "t_mapping(t_uint256,t_uint256)": {
        "encoding": "mapping",
        "key": "t_uint256",
        "label": "mapping(uint256 => uint256)",
        "numberOfBytes": "32",
        "value": "t_uint256"
      },
      "t_struct(LotteryInfo)9437_storage": {
        "encoding": "inplace",
        "label": "struct DegisLottery.LotteryInfo",
        "members": [
          {
            "astId": 9410,
            "contract": "contracts/lucky-box/DegisLottery.sol:DegisLottery",
            "label": "status",
            "offset": 0,
            "slot": "0",
            "type": "t_enum(Status)9407"
          },
          {
            "astId": 9412,
            "contract": "contracts/lucky-box/DegisLottery.sol:DegisLottery",
            "label": "startTime",
            "offset": 0,
            "slot": "1",
            "type": "t_uint256"
          },
          {
            "astId": 9414,
            "contract": "contracts/lucky-box/DegisLottery.sol:DegisLottery",
            "label": "endTime",
            "offset": 0,
            "slot": "2",
            "type": "t_uint256"
          },
          {
            "astId": 9418,
            "contract": "contracts/lucky-box/DegisLottery.sol:DegisLottery",
            "label": "stageProportion",
            "offset": 0,
            "slot": "3",
            "type": "t_array(t_uint256)4_storage"
          },
          {
            "astId": 9422,
            "contract": "contracts/lucky-box/DegisLottery.sol:DegisLottery",
            "label": "stageReward",
            "offset": 0,
            "slot": "7",
            "type": "t_array(t_uint256)4_storage"
          },
          {
            "astId": 9426,
            "contract": "contracts/lucky-box/DegisLottery.sol:DegisLottery",
            "label": "stageAmount",
            "offset": 0,
            "slot": "11",
            "type": "t_array(t_uint256)4_storage"
          },
          {
            "astId": 9430,
            "contract": "contracts/lucky-box/DegisLottery.sol:DegisLottery",
            "label": "stageWeight",
            "offset": 0,
            "slot": "15",
            "type": "t_array(t_uint256)4_storage"
          },
          {
            "astId": 9432,
            "contract": "contracts/lucky-box/DegisLottery.sol:DegisLottery",
            "label": "totalRewards",
            "offset": 0,
            "slot": "19",
            "type": "t_uint256"
          },
          {
            "astId": 9434,
            "contract": "contracts/lucky-box/DegisLottery.sol:DegisLottery",
            "label": "pendingRewards",
            "offset": 0,
            "slot": "20",
            "type": "t_uint256"
          },
          {
            "astId": 9436,
            "contract": "contracts/lucky-box/DegisLottery.sol:DegisLottery",
            "label": "finalNumber",
            "offset": 0,
            "slot": "21",
            "type": "t_uint256"
          }
        ],
        "numberOfBytes": "704"
      },
      "t_struct(Tickets)9394_storage": {
        "encoding": "inplace",
        "label": "struct DegisLottery.Tickets",
        "members": [
          {
            "astId": 9389,
            "contract": "contracts/lucky-box/DegisLottery.sol:DegisLottery",
            "label": "ticketsWeight",
            "offset": 0,
            "slot": "0",
            "type": "t_mapping(t_uint256,t_uint256)"
          },
          {
            "astId": 9393,
            "contract": "contracts/lucky-box/DegisLottery.sol:DegisLottery",
            "label": "ticketsAmount",
            "offset": 0,
            "slot": "1",
            "type": "t_mapping(t_uint256,t_uint256)"
          }
        ],
        "numberOfBytes": "64"
      },
      "t_uint256": {
        "encoding": "inplace",
        "label": "uint256",
        "numberOfBytes": "32"
      }
    }
  }
}