{
  "address": "0xDc64a140Aa3E981100a9becA4E685f962f0cF6C9",
  "abi": [
    {
      "inputs": [
        {
          "internalType": "address",
          "name": "_degis",
          "type": "address"
        }
      ],
      "stateMutability": "nonpayable",
      "type": "constructor"
    },
    {
      "inputs": [
        {
          "internalType": "uint256",
          "name": "prod1",
          "type": "uint256"
        }
      ],
      "name": "PRBMath__MulDivFixedPointOverflow",
      "type": "error"
    },
    {
      "inputs": [
        {
          "internalType": "uint256",
          "name": "prod1",
          "type": "uint256"
        },
        {
          "internalType": "uint256",
          "name": "denominator",
          "type": "uint256"
        }
      ],
      "name": "PRBMath__MulDivOverflow",
      "type": "error"
    },
    {
      "anonymous": false,
      "inputs": [
        {
          "indexed": false,
          "internalType": "uint256",
          "name": "poolId",
          "type": "uint256"
        },
        {
          "indexed": false,
          "internalType": "uint256",
          "name": "blockNumber",
          "type": "uint256"
        }
      ],
      "name": "FarmingPoolStopped",
      "type": "event"
    },
    {
      "anonymous": false,
      "inputs": [
        {
          "indexed": false,
          "internalType": "address",
          "name": "staker",
          "type": "address"
        },
        {
          "indexed": false,
          "internalType": "address",
          "name": "rewardReceiver",
          "type": "address"
        },
        {
          "indexed": false,
          "internalType": "uint256",
          "name": "poolId",
          "type": "uint256"
        },
        {
          "indexed": false,
          "internalType": "uint256",
          "name": "pendingReward",
          "type": "uint256"
        }
      ],
      "name": "Harvest",
      "type": "event"
    },
    {
      "anonymous": false,
      "inputs": [
        {
          "indexed": false,
          "internalType": "address",
          "name": "staker",
          "type": "address"
        },
        {
          "indexed": false,
          "internalType": "uint256",
          "name": "poolId",
          "type": "uint256"
        },
        {
          "indexed": false,
          "internalType": "uint256",
          "name": "pendingReward",
          "type": "uint256"
        }
      ],
      "name": "HarvestAndCompound",
      "type": "event"
    },
    {
      "anonymous": false,
      "inputs": [
        {
          "indexed": false,
          "internalType": "address",
          "name": "lpToken",
          "type": "address"
        },
        {
          "indexed": false,
          "internalType": "uint256",
          "name": "degisPerBlock",
          "type": "uint256"
        }
      ],
      "name": "NewPoolAdded",
      "type": "event"
    },
    {
      "anonymous": false,
      "inputs": [
        {
          "indexed": true,
          "internalType": "address",
          "name": "previousOwner",
          "type": "address"
        },
        {
          "indexed": true,
          "internalType": "address",
          "name": "newOwner",
          "type": "address"
        }
      ],
      "name": "OwnershipTransferred",
      "type": "event"
    },
    {
      "anonymous": false,
      "inputs": [
        {
          "indexed": false,
          "internalType": "uint256",
          "name": "poolId",
          "type": "uint256"
        }
      ],
      "name": "PoolUpdated",
      "type": "event"
    },
    {
      "anonymous": false,
      "inputs": [
        {
          "indexed": false,
          "internalType": "uint256",
          "name": "poolId",
          "type": "uint256"
        },
        {
          "indexed": false,
          "internalType": "uint256",
          "name": "blockNumber",
          "type": "uint256"
        }
      ],
      "name": "RestartFarmingPool",
      "type": "event"
    },
    {
      "anonymous": false,
      "inputs": [
        {
          "indexed": false,
          "internalType": "address",
          "name": "staker",
          "type": "address"
        },
        {
          "indexed": false,
          "internalType": "uint256",
          "name": "poolId",
          "type": "uint256"
        },
        {
          "indexed": false,
          "internalType": "uint256",
          "name": "amount",
          "type": "uint256"
        }
      ],
      "name": "Stake",
      "type": "event"
    },
    {
      "anonymous": false,
      "inputs": [
        {
          "indexed": false,
          "internalType": "uint256",
          "name": "startBlock",
          "type": "uint256"
        }
      ],
      "name": "StartBlockChanged",
      "type": "event"
    },
    {
      "anonymous": false,
      "inputs": [
        {
          "indexed": false,
          "internalType": "address",
          "name": "staker",
          "type": "address"
        },
        {
          "indexed": false,
          "internalType": "uint256",
          "name": "poolId",
          "type": "uint256"
        },
        {
          "indexed": false,
          "internalType": "uint256",
          "name": "amount",
          "type": "uint256"
        }
      ],
      "name": "Withdraw",
      "type": "event"
    },
    {
      "inputs": [],
      "name": "_nextPoolId",
      "outputs": [
        {
          "internalType": "uint256",
          "name": "",
          "type": "uint256"
        }
      ],
      "stateMutability": "view",
      "type": "function"
    },
    {
      "inputs": [
        {
          "internalType": "address",
          "name": "_lpToken",
          "type": "address"
        },
        {
          "internalType": "uint256",
          "name": "_degisPerBlock",
          "type": "uint256"
        },
        {
          "internalType": "bool",
          "name": "_withUpdate",
          "type": "bool"
        }
      ],
      "name": "add",
      "outputs": [],
      "stateMutability": "nonpayable",
      "type": "function"
    },
    {
      "inputs": [],
      "name": "degis",
      "outputs": [
        {
          "internalType": "contract IDegisToken",
          "name": "",
          "type": "address"
        }
      ],
      "stateMutability": "view",
      "type": "function"
    },
    {
      "inputs": [],
      "name": "getPoolList",
      "outputs": [
        {
          "components": [
            {
              "internalType": "address",
              "name": "lpToken",
              "type": "address"
            },
            {
              "internalType": "uint256",
              "name": "degisPerBlock",
              "type": "uint256"
            },
            {
              "internalType": "uint256",
              "name": "lastRewardBlock",
              "type": "uint256"
            },
            {
              "internalType": "uint256",
              "name": "accDegisPerShare",
              "type": "uint256"
            }
          ],
          "internalType": "struct FarmingPool.PoolInfo[]",
          "name": "",
          "type": "tuple[]"
        }
      ],
      "stateMutability": "view",
      "type": "function"
    },
    {
      "inputs": [
        {
          "internalType": "uint256",
          "name": "_poolId",
          "type": "uint256"
        },
        {
          "internalType": "address",
          "name": "_user",
          "type": "address"
        }
      ],
      "name": "getUserBalance",
      "outputs": [
        {
          "internalType": "uint256",
          "name": "_balance",
          "type": "uint256"
        }
      ],
      "stateMutability": "view",
      "type": "function"
    },
    {
      "inputs": [
        {
          "internalType": "uint256",
          "name": "_poolId",
          "type": "uint256"
        },
        {
          "internalType": "address",
          "name": "_to",
          "type": "address"
        }
      ],
      "name": "harvest",
      "outputs": [],
      "stateMutability": "nonpayable",
      "type": "function"
    },
    {
      "inputs": [
        {
          "internalType": "uint256",
          "name": "_poolId",
          "type": "uint256"
        }
      ],
      "name": "harvestAndCompound",
      "outputs": [],
      "stateMutability": "nonpayable",
      "type": "function"
    },
    {
      "inputs": [
        {
          "internalType": "uint256",
          "name": "",
          "type": "uint256"
        }
      ],
      "name": "isFarming",
      "outputs": [
        {
          "internalType": "bool",
          "name": "",
          "type": "bool"
        }
      ],
      "stateMutability": "view",
      "type": "function"
    },
    {
      "inputs": [],
      "name": "massUpdatePools",
      "outputs": [],
      "stateMutability": "nonpayable",
      "type": "function"
    },
    {
      "inputs": [],
      "name": "owner",
      "outputs": [
        {
          "internalType": "address",
          "name": "",
          "type": "address"
        }
      ],
      "stateMutability": "view",
      "type": "function"
    },
    {
      "inputs": [
        {
          "internalType": "uint256",
          "name": "_poolId",
          "type": "uint256"
        },
        {
          "internalType": "address",
          "name": "_user",
          "type": "address"
        }
      ],
      "name": "pendingDegis",
      "outputs": [
        {
          "internalType": "uint256",
          "name": "",
          "type": "uint256"
        }
      ],
      "stateMutability": "view",
      "type": "function"
    },
    {
      "inputs": [
        {
          "internalType": "uint256",
          "name": "",
          "type": "uint256"
        }
      ],
      "name": "poolList",
      "outputs": [
        {
          "internalType": "address",
          "name": "lpToken",
          "type": "address"
        },
        {
          "internalType": "uint256",
          "name": "degisPerBlock",
          "type": "uint256"
        },
        {
          "internalType": "uint256",
          "name": "lastRewardBlock",
          "type": "uint256"
        },
        {
          "internalType": "uint256",
          "name": "accDegisPerShare",
          "type": "uint256"
        }
      ],
      "stateMutability": "view",
      "type": "function"
    },
    {
      "inputs": [
        {
          "internalType": "address",
          "name": "",
          "type": "address"
        }
      ],
      "name": "poolMapping",
      "outputs": [
        {
          "internalType": "uint256",
          "name": "",
          "type": "uint256"
        }
      ],
      "stateMutability": "view",
      "type": "function"
    },
    {
      "inputs": [],
      "name": "renounceOwnership",
      "outputs": [],
      "stateMutability": "nonpayable",
      "type": "function"
    },
    {
      "inputs": [
        {
          "internalType": "uint256",
          "name": "_poolId",
          "type": "uint256"
        },
        {
          "internalType": "uint256",
          "name": "_degisPerBlock",
          "type": "uint256"
        },
        {
          "internalType": "bool",
          "name": "_withUpdate",
          "type": "bool"
        }
      ],
      "name": "setDegisReward",
      "outputs": [],
      "stateMutability": "nonpayable",
      "type": "function"
    },
    {
      "inputs": [
        {
          "internalType": "uint256",
          "name": "_startBlock",
          "type": "uint256"
        }
      ],
      "name": "setStartBlock",
      "outputs": [],
      "stateMutability": "nonpayable",
      "type": "function"
    },
    {
      "inputs": [
        {
          "internalType": "uint256",
          "name": "_poolId",
          "type": "uint256"
        },
        {
          "internalType": "uint256",
          "name": "_amount",
          "type": "uint256"
        }
      ],
      "name": "stake",
      "outputs": [],
      "stateMutability": "nonpayable",
      "type": "function"
    },
    {
      "inputs": [],
      "name": "startBlock",
      "outputs": [
        {
          "internalType": "uint256",
          "name": "",
          "type": "uint256"
        }
      ],
      "stateMutability": "view",
      "type": "function"
    },
    {
      "inputs": [
        {
          "internalType": "uint256",
          "name": "_poolId",
          "type": "uint256"
        },
        {
          "internalType": "bool",
          "name": "_withUpdate",
          "type": "bool"
        }
      ],
      "name": "stop",
      "outputs": [],
      "stateMutability": "nonpayable",
      "type": "function"
    },
    {
      "inputs": [
        {
          "internalType": "address",
          "name": "newOwner",
          "type": "address"
        }
      ],
      "name": "transferOwnership",
      "outputs": [],
      "stateMutability": "nonpayable",
      "type": "function"
    },
    {
      "inputs": [
        {
          "internalType": "uint256",
          "name": "_poolId",
          "type": "uint256"
        }
      ],
      "name": "updatePool",
      "outputs": [],
      "stateMutability": "nonpayable",
      "type": "function"
    },
    {
      "inputs": [
        {
          "internalType": "uint256",
          "name": "",
          "type": "uint256"
        },
        {
          "internalType": "address",
          "name": "",
          "type": "address"
        }
      ],
      "name": "userInfo",
      "outputs": [
        {
          "internalType": "uint256",
          "name": "rewardDebt",
          "type": "uint256"
        },
        {
          "internalType": "uint256",
          "name": "stakingBalance",
          "type": "uint256"
        }
      ],
      "stateMutability": "view",
      "type": "function"
    },
    {
      "inputs": [
        {
          "internalType": "uint256",
          "name": "_poolId",
          "type": "uint256"
        },
        {
          "internalType": "uint256",
          "name": "_amount",
          "type": "uint256"
        }
      ],
      "name": "withdraw",
      "outputs": [],
      "stateMutability": "nonpayable",
      "type": "function"
    }
  ],
  "transactionHash": "0x72726ffcf5aa7c1358e733c3e82eeca8d9ca574f7cb8089631fec0c0aaa4e600",
  "args": [
    "0x5FbDB2315678afecb367f032d93F642f64180aa3"
  ],
  "numDeployments": 1,
  "solcInputHash": "891f6e83b97076056766f10193ee5514",
  "bytecode": "0x60806040523480156200001157600080fd5b50604051620023ac380380620023ac8339810160408190526200003491620001d1565b6200003f3362000147565b6001808055600780546001600160a01b03199081166001600160a01b03948516179091556002829055604080516080810182526000808252602082018181529282018181526060830182815260038054978801815590925291517fc2575a0e9e593c00f959f8c92f12db2869c3395a3b0502d05e2516446f71f85b60049096029586018054909516961695909517909255517fc2575a0e9e593c00f959f8c92f12db2869c3395a3b0502d05e2516446f71f85c830155517fc2575a0e9e593c00f959f8c92f12db2869c3395a3b0502d05e2516446f71f85d82015590517fc2575a0e9e593c00f959f8c92f12db2869c3395a3b0502d05e2516446f71f85e90910155620001fe565b600080546001600160a01b038381166001600160a01b0319831681178455604051919092169283917f8be0079c531659141344cd1fd0a4f28419497f9722a3daafe3b4186f6b6457e09190a35050565b60006001600160a01b0382165b92915050565b620001b58162000197565b8114620001c157600080fd5b50565b8051620001a481620001aa565b600060208284031215620001e857620001e8600080fd5b6000620001f68484620001c4565b949350505050565b61219e806200020e6000396000f3fe608060405234801561001057600080fd5b506004361061014d5760003560e01c8063715018a6116100c3578063cdfb6cf31161007c578063cdfb6cf3146102fd578063d13f67bc14610310578063d41dcbea14610323578063f2fde38b14610338578063f35e4a6e1461034b578063f3c30c0a1461035e57600080fd5b8063715018a6146102465780637b0472f01461024e5780638da5cb5b1461026157806393f1a40b1461027a578063a06ddcb3146102ba578063be66e393146102ea57600080fd5b80632c678a3e116101155780632c678a3e146101dc5780633c3f862d146101fc578063441a3e701461020f57806348cd4cb11461022257806351eb05a61461022b578063630b5ba11461023e57600080fd5b80630dec23121461015257806317fb77de1461016757806318fccc761461018657806329fd2007146101995780632a48235b146101b9575b600080fd5b610165610160366004611956565b610371565b005b61017060025481565b60405161017d91906119ae565b60405180910390f35b6101656101943660046119bc565b610597565b6007546101ac906001600160a01b031681565b60405161017d9190611a18565b6101cc6101c7366004611a26565b610708565b60405161017d9493929190611a50565b6101706101ea366004611a8e565b60046020526000908152604090205481565b61016561020a366004611aaf565b61074c565b61016561021d366004611ae2565b610844565b61017060085481565b610165610239366004611a26565b6109bb565b610165610b5e565b610165610ba6565b61016561025c366004611ae2565b610beb565b6000546001600160a01b031660405161017d9190611b15565b6102ac6102883660046119bc565b60066020908152600092835260408084209091529082529020805460019091015482565b60405161017d929190611b23565b6102dd6102c8366004611a26565b60056020526000908152604090205460ff1681565b60405161017d9190611b46565b6101656102f8366004611a26565b610d5b565b61017061030b3660046119bc565b610ecb565b61017061031e3660046119bc565b610ef8565b61032b6110e0565b60405161017d9190611bf7565b610165610346366004611a8e565b61116a565b610165610359366004611a26565b6111d5565b61016561036c366004611c08565b61124e565b826001600160a01b0381166103a15760405162461bcd60e51b815260040161039890611c5e565b60405180910390fd5b336103b46000546001600160a01b031690565b6001600160a01b0316146103da5760405162461bcd60e51b815260040161039890611c9e565b6103e3846113a2565b156104005760405162461bcd60e51b815260040161039890611cf6565b811561040e5761040e610b5e565b6000600854431161042157600854610423565b435b604080516080810182526001600160a01b0388811680835260208084018a8152848601878152600060608701818152600380546001808201835591845298517fc2575a0e9e593c00f959f8c92f12db2869c3395a3b0502d05e2516446f71f85b60049a8b0290810180546001600160a01b03191692909a169190911790985593517fc2575a0e9e593c00f959f8c92f12db2869c3395a3b0502d05e2516446f71f85c88015591517fc2575a0e9e593c00f959f8c92f12db2869c3395a3b0502d05e2516446f71f85d87015590517fc2575a0e9e593c00f959f8c92f12db2869c3395a3b0502d05e2516446f71f85e909501949094556002805493855294825285842083905591835260059052928120805460ff19168417905581549394509192909190610551908490611d1c565b90915550506040517f38bff197ec9fef6e32271789b78dca0f10af5b2b546ce690a67899f608ba4f4c906105889087908790611d34565b60405180910390a15050505050565b600260015414156105ba5760405162461bcd60e51b815260040161039890611d74565b60026001556105c8826109bb565b6000600383815481106105dd576105dd611d84565b6000918252602080832060408051608081018252600490940290910180546001600160a01b0316845260018101548484015260028101548483015260030154606084015286845260069091528220909250816106363390565b6001600160a01b03166001600160a01b0316815260200190815260200160002090506000816000015461067a846060015184600101546113d190919063ffffffff16565b6106849190611d9a565b90506106a1836060015183600101546113d190919063ffffffff16565b825580156106c0576007546106c0906001600160a01b031685836113dd565b7fdec9257d126f56798a34ce7ca0ffedeaa9a024543946f79c3b5038035ba32a1e338587846040516106f59493929190611db1565b60405180910390a1505060018055505050565b6003818154811061071857600080fd5b600091825260209091206004909102018054600182015460028301546003909301546001600160a01b039092169350919084565b6003828154811061075f5761075f611d84565b906000526020600020906004020160020154600014156107915760405162461bcd60e51b815260040161039890611df0565b80156107a45761079f610b5e565b6107ad565b6107ad826109bb565b6000828152600560205260409020805460ff1916905560038054839081106107d7576107d7611d84565b60009182526020822060049091020180546001600160a01b03191681556001810182905560028101829055600301556040517f4654f9b7bb3ba4d66e3a4e972e39db189ac7b4fdf5f2a95d57a4eb4d91a16d45906108389084904390611b23565b60405180910390a15050565b600260015414156108675760405162461bcd60e51b815260040161039890611d74565b6002600155806108895760405162461bcd60e51b815260040161039890611e20565b60006003838154811061089e5761089e611d84565b600091825260208083208684526006909152604083206004909202019250816108c43390565b6001600160a01b03166001600160a01b031681526020019081526020016000209050828160010154101561090a5760405162461bcd60e51b815260040161039890611e62565b610913846109bb565b8054600383015460018301546000929161092d91906113d1565b6109379190611d9a565b9050610944335b82611433565b838260010160008282546109589190611d9a565b909155505060038301546001830154610970916113d1565b82556109883384546001600160a01b031690866113dd565b7ff279e6a1f5e320cca91135676d9cb6e44ca8a08c0b88342bcdb1144f6511b5683386866040516106f593929190611e72565b6000600382815481106109d0576109d0611d84565b90600052602060002090600402019050806002015443116109ef575050565b80546040516370a0823160e01b81526000916001600160a01b0316906370a0823190610a1f903090600401611b15565b602060405180830381865afa158015610a3c573d6000803e3d6000fd5b505050506040513d601f19601f82011682018060405250810190610a609190611ea5565b905080610a7257504360029091015550565b6000826002015443610a849190611d9a565b90506000836001015482610a989190611ec6565b60075460405163168ece7360e31b81529192506001600160a01b03169063b476739890610acb9030908590600401611d34565b600060405180830381600087803b158015610ae557600080fd5b505af1158015610af9573d6000803e3d6000fd5b50505050610b10838261155c90919063ffffffff16565b846003016000828254610b239190611d1c565b90915550504360028501556040517f141d729c29cc848b27c53f7dbe9f9542cedc4ed2efa7bd2aeb2a4bdce06a407f906105889087906119ae565b60035460005b81811015610ba25760008181526005602052604090205460ff16610b8757610b90565b610b90816109bb565b80610b9a81611ee5565b915050610b64565b5050565b33610bb96000546001600160a01b031690565b6001600160a01b031614610bdf5760405162461bcd60e51b815260040161039890611c9e565b610be96000611571565b565b60026001541415610c0e5760405162461bcd60e51b815260040161039890611d74565b600260015580610c305760405162461bcd60e51b815260040161039890611f27565b600060038381548110610c4557610c45611d84565b60009182526020808320868452600690915260408320600490920201925081610c6b3390565b6001600160a01b03166001600160a01b031681526020019081526020016000209050610c96846109bb565b600181015415610cd15780546003830154600183015460009291610cba91906113d1565b610cc49190611d9a565b9050610ccf3361093e565b505b610ce83383546001600160a01b03169030866115c1565b82816001016000828254610cfc9190611d1c565b909155505060038201546001820154610d14916113d1565b81557f5af417134f72a9d41143ace85b0a26dce6f550f894f2cbc1eeee8810603d91b6338585604051610d4993929190611e72565b60405180910390a15050600180555050565b60026001541415610d7e5760405162461bcd60e51b815260040161039890611d74565b6002600155610d8c816109bb565b600060038281548110610da157610da1611d84565b6000918252602080832060408051608081018252600490940290910180546001600160a01b031684526001810154848401526002810154848301526003015460608401528584526006909152822090925081610dfa3390565b6001600160a01b03166001600160a01b03168152602001908152602001600020905060008160000154610e3e846060015184600101546113d190919063ffffffff16565b610e489190611d9a565b905080610e5757505050610ec4565b80826001016000828254610e6b9190611d1c565b909155505060608301516001830154610e83916113d1565b82557fd1d91d813b765a7f751a3423268a032aa96ed1d01cda5b4415f36a85d18af150338583604051610eb893929190611e72565b60405180910390a15050505b5060018055565b60008281526006602090815260408083206001600160a01b03851684529091529020600101545b92915050565b6000816001600160a01b038116610f215760405162461bcd60e51b815260040161039890611c5e565b600060038581548110610f3657610f36611d84565b600091825260209182902060408051608081018252600490930290910180546001600160a01b031683526001810154938301939093526002830154908201819052600390920154606082015291501580610f935750806040015143105b80610f9f575060085443105b15610fae5760009250506110d9565b60008581526006602090815260408083206001600160a01b038089168552908352818420825180840184528154815260019091015493810193909352845191516370a0823160e01b81529293929116906370a0823190611012903090600401611b15565b602060405180830381865afa15801561102f573d6000803e3d6000fd5b505050506040513d601f19601f820116820180604052508101906110539190611ea5565b60608401519091508161106d5760009550505050506110d9565b600084604001514361107f9190611d9a565b905060008186602001516110939190611ec6565b905061109f818561155c565b6110a99084611d1c565b855160208701519194506000916110c090866113d1565b6110ca9190611d9a565b98506110d99650505050505050565b5092915050565b60606003805480602002602001604051908101604052809291908181526020016000905b82821015611161576000848152602090819020604080516080810182526004860290920180546001600160a01b03168352600180820154848601526002820154928401929092526003015460608301529083529092019101611104565b50505050905090565b3361117d6000546001600160a01b031690565b6001600160a01b0316146111a35760405162461bcd60e51b815260040161039890611c9e565b6001600160a01b0381166111c95760405162461bcd60e51b815260040161039890611f78565b6111d281611571565b50565b336111e86000546001600160a01b031690565b6001600160a01b03161461120e5760405162461bcd60e51b815260040161039890611c9e565b60088190556040517f2ff5a4bd003b5c8c334ec018975259184173d0eabd4384b3ddbf74f447dd5a74906112439083906119ae565b60405180910390a150565b336112616000546001600160a01b031690565b6001600160a01b0316146112875760405162461bcd60e51b815260040161039890611c9e565b6003838154811061129a5761129a611d84565b906000526020600020906004020160020154600014156112cc5760405162461bcd60e51b815260040161039890611df0565b80156112df576112da610b5e565b6112e8565b6112e8836109bb565b60008381526005602052604090205460ff161580156113075750600082115b156113605760008381526005602052604090819020805460ff19166001179055517ff8e91eae4b15c98725305987a69db94bae83b5d11ced334a69fc66ffe30811a2906113579085904390611b23565b60405180910390a15b816113745761136f838261074c565b505050565b816003848154811061138857611388611d84565b906000526020600020906004020160010181905550505050565b6001600160a01b038116600090815260046020526040812054806113c75760006113ca565b60015b9392505050565b60006113ca83836115e2565b61136f8363a9059cbb60e01b84846040516024016113fc929190611d34565b60408051601f198184030181529190526020810180516001600160e01b03166001600160e01b0319909316929092179091526116a3565b6007546040516370a0823160e01b81526000916001600160a01b0316906370a0823190611464903090600401611b15565b602060405180830381865afa158015611481573d6000803e3d6000fd5b505050506040513d601f19601f820116820180604052508101906114a59190611ea5565b90508082111561152a5760075460405163a9059cbb60e01b81526001600160a01b039091169063a9059cbb906114e19086908590600401611d34565b6020604051808303816000875af1158015611500573d6000803e3d6000fd5b505050506040513d601f19601f820116820180604052508101906115249190611f93565b50505050565b60075460405163a9059cbb60e01b81526001600160a01b039091169063a9059cbb906114e19086908690600401611d34565b60006113ca83670de0b6b3a764000084611732565b600080546001600160a01b038381166001600160a01b0319831681178455604051919092169283917f8be0079c531659141344cd1fd0a4f28419497f9722a3daafe3b4186f6b6457e09190a35050565b611524846323b872dd60e01b8585856040516024016113fc93929190611fb4565b60008080600019848609848602925082811083820303915050670de0b6b3a76400008110611625578060405163698d9a0160e11b815260040161039891906119ae565b600080670de0b6b3a76400008688099150506706f05b59d3b1ffff81118261165f5780670de0b6b3a7640000850401945050505050610ef2565b620400008285030493909111909103600160ee1b02919091177faccb18165bd6fe31ae1cf318dc5b51eee0e1ba569b88cd74c1773b91fac106690201905092915050565b60006116f8826040518060400160405280602081526020017f5361666545524332303a206c6f772d6c6576656c2063616c6c206661696c6564815250856001600160a01b03166117f99092919063ffffffff16565b80519091501561136f57808060200190518101906117169190611f93565b61136f5760405162461bcd60e51b81526004016103989061202a565b60008080600019858709858702925082811083820303915050806000141561176d5783828161176357611763611fcf565b04925050506113ca565b838110611791578084604051631dcf306360e21b8152600401610398929190611b23565b600084868809600260036001881981018916988990049182028318808302840302808302840302808302840302808302840302808302840302918202909203026000889003889004909101858311909403939093029303949094049190911702949350505050565b60606118088484600085611810565b949350505050565b6060824710156118325760405162461bcd60e51b81526004016103989061207b565b843b6118505760405162461bcd60e51b8152600401610398906120bd565b600080866001600160a01b0316858760405161186c919061211b565b60006040518083038185875af1925050503d80600081146118a9576040519150601f19603f3d011682016040523d82523d6000602084013e6118ae565b606091505b50915091506118be8282866118c9565b979650505050505050565b606083156118d85750816113ca565b8251156118e85782518084602001fd5b8160405162461bcd60e51b81526004016103989190612157565b60006001600160a01b038216610ef2565b61191c81611902565b81146111d257600080fd5b8035610ef281611913565b8061191c565b8035610ef281611932565b80151561191c565b8035610ef281611943565b60008060006060848603121561196e5761196e600080fd5b600061197a8686611927565b935050602061198b86828701611938565b925050604061199c8682870161194b565b9150509250925092565b805b82525050565b60208101610ef282846119a6565b600080604083850312156119d2576119d2600080fd5b60006119de8585611938565b92505060206119ef85828601611927565b9150509250929050565b6000610ef282611902565b6000610ef2826119f9565b6119a881611a04565b60208101610ef28284611a0f565b600060208284031215611a3b57611a3b600080fd5b60006118088484611938565b6119a881611902565b60808101611a5e8287611a47565b611a6b60208301866119a6565b611a7860408301856119a6565b611a8560608301846119a6565b95945050505050565b600060208284031215611aa357611aa3600080fd5b60006118088484611927565b60008060408385031215611ac557611ac5600080fd5b6000611ad18585611938565b92505060206119ef8582860161194b565b60008060408385031215611af857611af8600080fd5b6000611b048585611938565b92505060206119ef85828601611938565b60208101610ef28284611a47565b60408101611b3182856119a6565b6113ca60208301846119a6565b8015156119a8565b60208101610ef28284611b3e565b8051611b608382611a47565b506020810151611b7360208401826119a6565b506040810151611b8660408401826119a6565b50606081015161136f60608401826119a6565b611ba38282611b54565b5060800190565b60200190565b6000611bba825190565b808452602093840193830160005b82811015611bed578151611bdc8782611b99565b965050602082019150600101611bc8565b5093949350505050565b602080825281016113ca8184611bb0565b600080600060608486031215611c2057611c20600080fd5b600061197a8686611938565b60178152602081017f43616e206e6f74206265207a65726f206164647265737300000000000000000081529050611baa565b60208082528101610ef281611c2c565b60208082527f4f776e61626c653a2063616c6c6572206973206e6f7420746865206f776e65729101908152611baa565b60208082528101610ef281611c6e565b602b8152602081017f54686973206c70746f6b656e20697320616c726561647920696e20746865206681526a185c9b5a5b99c81c1bdbdb60aa1b602082015290505b60400190565b60208082528101610ef281611cae565b634e487b7160e01b600052601160045260246000fd5b60008219821115611d2f57611d2f611d06565b500190565b60408101611b318285611a47565b601f8152602081017f5265656e7472616e637947756172643a207265656e7472616e742063616c6c0081529050611baa565b60208082528101610ef281611d42565b634e487b7160e01b600052603260045260246000fd5b600082821015611dac57611dac611d06565b500390565b60808101611dbf8287611a47565b611a6b6020830186611a47565b600f8152602081016e506f6f6c206e6f742065786973747360881b81529050611baa565b60208082528101610ef281611dcc565b600b8152602081016a16995c9bc8185b5bdd5b9d60aa1b81529050611baa565b60208082528101610ef281611e00565b60198152602081017f4e6f7420656e6f756768207374616b696e6742616c616e63650000000000000081529050611baa565b60208082528101610ef281611e30565b60608101611e808286611a47565b611e8d60208301856119a6565b61180860408301846119a6565b8051610ef281611932565b600060208284031215611eba57611eba600080fd5b60006118088484611e9a565b6000816000190483118215151615611ee057611ee0611d06565b500290565b6000600019821415611ef957611ef9611d06565b5060010190565b60128152602081017143616e206e6f74207374616b65207a65726f60701b81529050611baa565b60208082528101610ef281611f00565b60268152602081017f4f776e61626c653a206e6577206f776e657220697320746865207a65726f206181526564647265737360d01b60208201529050611cf0565b60208082528101610ef281611f37565b8051610ef281611943565b600060208284031215611fa857611fa8600080fd5b60006118088484611f88565b60608101611fc28286611a47565b611e8d6020830185611a47565b634e487b7160e01b600052601260045260246000fd5b602a8152602081017f5361666545524332303a204552433230206f7065726174696f6e20646964206e8152691bdd081cdd58d8d9595960b21b60208201529050611cf0565b60208082528101610ef281611fe5565b60268152602081017f416464726573733a20696e73756666696369656e742062616c616e636520666f8152651c8818d85b1b60d21b60208201529050611cf0565b60208082528101610ef28161203a565b601d8152602081017f416464726573733a2063616c6c20746f206e6f6e2d636f6e747261637400000081529050611baa565b60208082528101610ef28161208b565b60005b838110156120e85781810151838201526020016120d0565b838111156115245750506000910152565b6000612103825190565b6121118185602086016120cd565b9290920192915050565b610ef281836120f9565b600061212f825190565b8084526020840193506121468185602086016120cd565b601f01601f19169290920192915050565b602080825281016113ca818461212556fea2646970667358221220235cdfb08e667a2d407e02b8f6e07e87db8324303b92d179f1c7308e11a672df64736f6c634300080a0033",
  "devdoc": {
    "details": "The pool id starts from 1 not 0",
    "kind": "dev",
    "methods": {
      "add(address,uint256,bool)": {
        "params": {
          "_degisPerBlock": "Reward distribution per block for this new pool",
          "_lpToken": "LP token address",
          "_withUpdate": "Whether update all pools' status"
        }
      },
      "getUserBalance(uint256,address)": {
        "params": {
          "_poolId": "Id of the pool",
          "_user": "Address of the user"
        },
        "returns": {
          "_balance": "User's balance (lpToken)"
        }
      },
      "harvest(uint256,address)": {
        "params": {
          "_poolId": ": Id of the farming pool",
          "_to": "Receiver of degis rewards."
        }
      },
      "pendingDegis(uint256,address)": {
        "params": {
          "_poolId": "PoolId of this farming pool",
          "_user": "User address"
        },
        "returns": {
          "_0": "pendingDegisAmount Amount of pending degis"
        }
      },
      "renounceOwnership()": {
        "details": "Renouncing ownership will leave the contract without an owner,         thereby removing any functionality that is only available to the owner."
      },
      "setDegisReward(uint256,uint256,bool)": {
        "params": {
          "_degisPerBlock": "New reward amount per block",
          "_poolId": "Id of the farming pool",
          "_withUpdate": "Whether update all the pool"
        }
      },
      "setStartBlock(uint256)": {
        "params": {
          "_startBlock": "New start block number"
        }
      },
      "stake(uint256,uint256)": {
        "params": {
          "_amount": "Staking amount",
          "_poolId": "Id of the farming pool"
        }
      },
      "transferOwnership(address)": {
        "details": "Can only be called by the current owner.",
        "params": {
          "newOwner": "Address of the new owner"
        }
      },
      "updatePool(uint256)": {
        "params": {
          "_poolId": "Id of the farming pool"
        }
      },
      "withdraw(uint256,uint256)": {
        "params": {
          "_amount": "Amount of lp tokens to withdraw",
          "_poolId": "Id of the farming pool"
        }
      }
    },
    "title": "Farming Pool",
    "version": 1
  },
  "userdoc": {
    "errors": {
      "PRBMath__MulDivFixedPointOverflow(uint256)": [
        {
          "notice": "Emitted when the result overflows uint256."
        }
      ],
      "PRBMath__MulDivOverflow(uint256,uint256)": [
        {
          "notice": "Emitted when the result overflows uint256."
        }
      ]
    },
    "kind": "user",
    "methods": {
      "add(address,uint256,bool)": {
        "notice": "Add a new lp to the pool. Can only be called by the owner."
      },
      "getPoolList()": {
        "notice": "Get the total pool list"
      },
      "getUserBalance(uint256,address)": {
        "notice": "Get user balance"
      },
      "harvest(uint256,address)": {
        "notice": "Harvest the degis reward and can be sent to another address"
      },
      "massUpdatePools()": {
        "notice": "Update all farming pools (except for those stopped ones)"
      },
      "owner()": {
        "notice": "Returns the address of the current owner."
      },
      "pendingDegis(uint256,address)": {
        "notice": "Check the amount of pending degis reward"
      },
      "renounceOwnership()": {
        "notice": "Leaves the contract without owner. It will not be possible to call         `onlyOwner` functions anymore. Can only be called by the current owner."
      },
      "setDegisReward(uint256,uint256,bool)": {
        "notice": "Update the degisPerBlock for a specific pool (set to 0 to stop farming)"
      },
      "setStartBlock(uint256)": {
        "notice": "Set the start block number"
      },
      "stake(uint256,uint256)": {
        "notice": "Stake LP token into the farming pool"
      },
      "transferOwnership(address)": {
        "notice": "Transfers ownership of the contract to a new account (`newOwner`)."
      },
      "updatePool(uint256)": {
        "notice": "Update the pool's reward status"
      },
      "withdraw(uint256,uint256)": {
        "notice": "Withdraw lptoken from the pool"
      }
    },
    "notice": "This contract is for LPToken mining on Degis",
    "version": 1
  },
  "storageLayout": {
    "storage": [
      {
        "astId": 21695,
        "contract": "contracts/farming/FarmingPool.sol:FarmingPool",
        "label": "_owner",
        "offset": 0,
        "slot": "0",
        "type": "t_address"
      },
      {
        "astId": 2403,
        "contract": "contracts/farming/FarmingPool.sol:FarmingPool",
        "label": "_status",
        "offset": 0,
        "slot": "1",
        "type": "t_uint256"
      },
      {
        "astId": 6506,
        "contract": "contracts/farming/FarmingPool.sol:FarmingPool",
        "label": "_nextPoolId",
        "offset": 0,
        "slot": "2",
        "type": "t_uint256"
      },
      {
        "astId": 6519,
        "contract": "contracts/farming/FarmingPool.sol:FarmingPool",
        "label": "poolList",
        "offset": 0,
        "slot": "3",
        "type": "t_array(t_struct(PoolInfo)6515_storage)dyn_storage"
      },
      {
        "astId": 6523,
        "contract": "contracts/farming/FarmingPool.sol:FarmingPool",
        "label": "poolMapping",
        "offset": 0,
        "slot": "4",
        "type": "t_mapping(t_address,t_uint256)"
      },
      {
        "astId": 6527,
        "contract": "contracts/farming/FarmingPool.sol:FarmingPool",
        "label": "isFarming",
        "offset": 0,
        "slot": "5",
        "type": "t_mapping(t_uint256,t_bool)"
      },
      {
        "astId": 6539,
        "contract": "contracts/farming/FarmingPool.sol:FarmingPool",
        "label": "userInfo",
        "offset": 0,
        "slot": "6",
        "type": "t_mapping(t_uint256,t_mapping(t_address,t_struct(UserInfo)6532_storage))"
      },
      {
        "astId": 6542,
        "contract": "contracts/farming/FarmingPool.sol:FarmingPool",
        "label": "degis",
        "offset": 0,
        "slot": "7",
        "type": "t_contract(IDegisToken)21226"
      },
      {
        "astId": 6544,
        "contract": "contracts/farming/FarmingPool.sol:FarmingPool",
        "label": "startBlock",
        "offset": 0,
        "slot": "8",
        "type": "t_uint256"
      }
    ],
    "types": {
      "t_address": {
        "encoding": "inplace",
        "label": "address",
        "numberOfBytes": "20"
      },
      "t_array(t_struct(PoolInfo)6515_storage)dyn_storage": {
        "base": "t_struct(PoolInfo)6515_storage",
        "encoding": "dynamic_array",
        "label": "struct FarmingPool.PoolInfo[]",
        "numberOfBytes": "32"
      },
      "t_bool": {
        "encoding": "inplace",
        "label": "bool",
        "numberOfBytes": "1"
      },
      "t_contract(IDegisToken)21226": {
        "encoding": "inplace",
        "label": "contract IDegisToken",
        "numberOfBytes": "20"
      },
      "t_mapping(t_address,t_struct(UserInfo)6532_storage)": {
        "encoding": "mapping",
        "key": "t_address",
        "label": "mapping(address => struct FarmingPool.UserInfo)",
        "numberOfBytes": "32",
        "value": "t_struct(UserInfo)6532_storage"
      },
      "t_mapping(t_address,t_uint256)": {
        "encoding": "mapping",
        "key": "t_address",
        "label": "mapping(address => uint256)",
        "numberOfBytes": "32",
        "value": "t_uint256"
      },
      "t_mapping(t_uint256,t_bool)": {
        "encoding": "mapping",
        "key": "t_uint256",
        "label": "mapping(uint256 => bool)",
        "numberOfBytes": "32",
        "value": "t_bool"
      },
      "t_mapping(t_uint256,t_mapping(t_address,t_struct(UserInfo)6532_storage))": {
        "encoding": "mapping",
        "key": "t_uint256",
        "label": "mapping(uint256 => mapping(address => struct FarmingPool.UserInfo))",
        "numberOfBytes": "32",
        "value": "t_mapping(t_address,t_struct(UserInfo)6532_storage)"
      },
      "t_struct(PoolInfo)6515_storage": {
        "encoding": "inplace",
        "label": "struct FarmingPool.PoolInfo",
        "members": [
          {
            "astId": 6508,
            "contract": "contracts/farming/FarmingPool.sol:FarmingPool",
            "label": "lpToken",
            "offset": 0,
            "slot": "0",
            "type": "t_address"
          },
          {
            "astId": 6510,
            "contract": "contracts/farming/FarmingPool.sol:FarmingPool",
            "label": "degisPerBlock",
            "offset": 0,
            "slot": "1",
            "type": "t_uint256"
          },
          {
            "astId": 6512,
            "contract": "contracts/farming/FarmingPool.sol:FarmingPool",
            "label": "lastRewardBlock",
            "offset": 0,
            "slot": "2",
            "type": "t_uint256"
          },
          {
            "astId": 6514,
            "contract": "contracts/farming/FarmingPool.sol:FarmingPool",
            "label": "accDegisPerShare",
            "offset": 0,
            "slot": "3",
            "type": "t_uint256"
          }
        ],
        "numberOfBytes": "128"
      },
      "t_struct(UserInfo)6532_storage": {
        "encoding": "inplace",
        "label": "struct FarmingPool.UserInfo",
        "members": [
          {
            "astId": 6529,
            "contract": "contracts/farming/FarmingPool.sol:FarmingPool",
            "label": "rewardDebt",
            "offset": 0,
            "slot": "0",
            "type": "t_uint256"
          },
          {
            "astId": 6531,
            "contract": "contracts/farming/FarmingPool.sol:FarmingPool",
            "label": "stakingBalance",
            "offset": 0,
            "slot": "1",
            "type": "t_uint256"
          }
        ],
        "numberOfBytes": "64"
      },
      "t_uint256": {
        "encoding": "inplace",
        "label": "uint256",
        "numberOfBytes": "32"
      }
    }
  }
}