{
  "address": "0x610178dA211FEF7D417bC0e6FeD39F05609AD788",
  "abi": [
    {
      "inputs": [
        {
          "internalType": "address",
          "name": "_emergencyPool",
          "type": "address"
        },
        {
          "internalType": "address",
          "name": "_degisLottery",
          "type": "address"
        },
        {
          "internalType": "address",
          "name": "_usdtAddress",
          "type": "address"
        }
      ],
      "stateMutability": "nonpayable",
      "type": "constructor"
    },
    {
      "inputs": [
        {
          "internalType": "uint256",
          "name": "prod1",
          "type": "uint256"
        }
      ],
      "name": "PRBMath__MulDivFixedPointOverflow",
      "type": "error"
    },
    {
      "inputs": [
        {
          "internalType": "uint256",
          "name": "prod1",
          "type": "uint256"
        },
        {
          "internalType": "uint256",
          "name": "denominator",
          "type": "uint256"
        }
      ],
      "name": "PRBMath__MulDivOverflow",
      "type": "error"
    },
    {
      "anonymous": false,
      "inputs": [
        {
          "indexed": true,
          "internalType": "address",
          "name": "owner",
          "type": "address"
        },
        {
          "indexed": true,
          "internalType": "address",
          "name": "spender",
          "type": "address"
        },
        {
          "indexed": false,
          "internalType": "uint256",
          "name": "value",
          "type": "uint256"
        }
      ],
      "name": "Approval",
      "type": "event"
    },
    {
      "anonymous": false,
      "inputs": [
        {
          "indexed": true,
          "internalType": "address",
          "name": "userAddress",
          "type": "address"
        },
        {
          "indexed": false,
          "internalType": "uint256",
          "name": "premium",
          "type": "uint256"
        },
        {
          "indexed": false,
          "internalType": "uint256",
          "name": "payout",
          "type": "uint256"
        }
      ],
      "name": "BuyNewPolicy",
      "type": "event"
    },
    {
      "anonymous": false,
      "inputs": [
        {
          "indexed": false,
          "internalType": "uint256",
          "name": "oldFactor",
          "type": "uint256"
        },
        {
          "indexed": false,
          "internalType": "uint256",
          "name": "newFactor",
          "type": "uint256"
        }
      ],
      "name": "CollateralFactorChanged",
      "type": "event"
    },
    {
      "anonymous": false,
      "inputs": [
        {
          "indexed": false,
          "internalType": "uint256",
          "name": "_newFrozenTime",
          "type": "uint256"
        }
      ],
      "name": "FrozenTimeChanged",
      "type": "event"
    },
    {
      "anonymous": false,
      "inputs": [
        {
          "indexed": true,
          "internalType": "address",
          "name": "previousOwner",
          "type": "address"
        },
        {
          "indexed": true,
          "internalType": "address",
          "name": "newOwner",
          "type": "address"
        }
      ],
      "name": "OwnershipTransferred",
      "type": "event"
    },
    {
      "anonymous": false,
      "inputs": [
        {
          "indexed": false,
          "internalType": "address",
          "name": "policyFlowAddress",
          "type": "address"
        }
      ],
      "name": "PolicyFlowChanged",
      "type": "event"
    },
    {
      "anonymous": false,
      "inputs": [
        {
          "indexed": false,
          "internalType": "uint256",
          "name": "_premiumToEmergency",
          "type": "uint256"
        },
        {
          "indexed": false,
          "internalType": "uint256",
          "name": "_premiumToLottery",
          "type": "uint256"
        }
      ],
      "name": "PremiumDistributed",
      "type": "event"
    },
    {
      "anonymous": false,
      "inputs": [
        {
          "indexed": false,
          "internalType": "uint256",
          "name": "toLP",
          "type": "uint256"
        },
        {
          "indexed": false,
          "internalType": "uint256",
          "name": "toLottery",
          "type": "uint256"
        },
        {
          "indexed": false,
          "internalType": "uint256",
          "name": "toEmergency",
          "type": "uint256"
        }
      ],
      "name": "RewardDistributionChanged",
      "type": "event"
    },
    {
      "anonymous": false,
      "inputs": [
        {
          "indexed": true,
          "internalType": "address",
          "name": "userAddress",
          "type": "address"
        },
        {
          "indexed": false,
          "internalType": "uint256",
          "name": "amount",
          "type": "uint256"
        }
      ],
      "name": "Stake",
      "type": "event"
    },
    {
      "anonymous": false,
      "inputs": [
        {
          "indexed": true,
          "internalType": "address",
          "name": "from",
          "type": "address"
        },
        {
          "indexed": true,
          "internalType": "address",
          "name": "to",
          "type": "address"
        },
        {
          "indexed": false,
          "internalType": "uint256",
          "name": "value",
          "type": "uint256"
        }
      ],
      "name": "Transfer",
      "type": "event"
    },
    {
      "anonymous": false,
      "inputs": [
        {
          "indexed": true,
          "internalType": "address",
          "name": "userAddress",
          "type": "address"
        },
        {
          "indexed": false,
          "internalType": "uint256",
          "name": "amount",
          "type": "uint256"
        }
      ],
      "name": "Unstake",
      "type": "event"
    },
    {
      "inputs": [],
      "name": "LPValue",
      "outputs": [
        {
          "internalType": "uint256",
          "name": "",
          "type": "uint256"
        }
      ],
      "stateMutability": "view",
      "type": "function"
    },
    {
      "inputs": [],
      "name": "USDT",
      "outputs": [
        {
          "internalType": "contract IERC20",
          "name": "",
          "type": "address"
        }
      ],
      "stateMutability": "view",
      "type": "function"
    },
    {
      "inputs": [],
      "name": "activePremiums",
      "outputs": [
        {
          "internalType": "uint256",
          "name": "",
          "type": "uint256"
        }
      ],
      "stateMutability": "view",
      "type": "function"
    },
    {
      "inputs": [
        {
          "internalType": "address",
          "name": "owner",
          "type": "address"
        },
        {
          "internalType": "address",
          "name": "spender",
          "type": "address"
        }
      ],
      "name": "allowance",
      "outputs": [
        {
          "internalType": "uint256",
          "name": "",
          "type": "uint256"
        }
      ],
      "stateMutability": "view",
      "type": "function"
    },
    {
      "inputs": [
        {
          "internalType": "address",
          "name": "spender",
          "type": "address"
        },
        {
          "internalType": "uint256",
          "name": "amount",
          "type": "uint256"
        }
      ],
      "name": "approve",
      "outputs": [
        {
          "internalType": "bool",
          "name": "",
          "type": "bool"
        }
      ],
      "stateMutability": "nonpayable",
      "type": "function"
    },
    {
      "inputs": [],
      "name": "availableCapacity",
      "outputs": [
        {
          "internalType": "uint256",
          "name": "",
          "type": "uint256"
        }
      ],
      "stateMutability": "view",
      "type": "function"
    },
    {
      "inputs": [
        {
          "internalType": "address",
          "name": "account",
          "type": "address"
        }
      ],
      "name": "balanceOf",
      "outputs": [
        {
          "internalType": "uint256",
          "name": "",
          "type": "uint256"
        }
      ],
      "stateMutability": "view",
      "type": "function"
    },
    {
      "inputs": [
        {
          "internalType": "uint256",
          "name": "_payoff",
          "type": "uint256"
        }
      ],
      "name": "checkCapacity",
      "outputs": [
        {
          "internalType": "bool",
          "name": "",
          "type": "bool"
        }
      ],
      "stateMutability": "view",
      "type": "function"
    },
    {
      "inputs": [],
      "name": "collateralFactor",
      "outputs": [
        {
          "internalType": "uint256",
          "name": "",
          "type": "uint256"
        }
      ],
      "stateMutability": "view",
      "type": "function"
    },
    {
      "inputs": [],
      "name": "decimals",
      "outputs": [
        {
          "internalType": "uint8",
          "name": "",
          "type": "uint8"
        }
      ],
      "stateMutability": "view",
      "type": "function"
    },
    {
      "inputs": [
        {
          "internalType": "address",
          "name": "spender",
          "type": "address"
        },
        {
          "internalType": "uint256",
          "name": "subtractedValue",
          "type": "uint256"
        }
      ],
      "name": "decreaseAllowance",
      "outputs": [
        {
          "internalType": "bool",
          "name": "",
          "type": "bool"
        }
      ],
      "stateMutability": "nonpayable",
      "type": "function"
    },
    {
      "inputs": [],
      "name": "degisLottery",
      "outputs": [
        {
          "internalType": "contract IDegisLottery",
          "name": "",
          "type": "address"
        }
      ],
      "stateMutability": "view",
      "type": "function"
    },
    {
      "inputs": [],
      "name": "emergencyPool",
      "outputs": [
        {
          "internalType": "address",
          "name": "",
          "type": "address"
        }
      ],
      "stateMutability": "view",
      "type": "function"
    },
    {
      "inputs": [],
      "name": "frozenTime",
      "outputs": [
        {
          "internalType": "uint256",
          "name": "",
          "type": "uint256"
        }
      ],
      "stateMutability": "view",
      "type": "function"
    },
    {
      "inputs": [
        {
          "internalType": "address",
          "name": "_user",
          "type": "address"
        }
      ],
      "name": "getUnlockedFor",
      "outputs": [
        {
          "internalType": "uint256",
          "name": "_unlockedAmount",
          "type": "uint256"
        }
      ],
      "stateMutability": "view",
      "type": "function"
    },
    {
      "inputs": [
        {
          "internalType": "address",
          "name": "_user",
          "type": "address"
        }
      ],
      "name": "getUserBalance",
      "outputs": [
        {
          "internalType": "uint256",
          "name": "_userBalance",
          "type": "uint256"
        }
      ],
      "stateMutability": "view",
      "type": "function"
    },
    {
      "inputs": [
        {
          "internalType": "address",
          "name": "spender",
          "type": "address"
        },
        {
          "internalType": "uint256",
          "name": "addedValue",
          "type": "uint256"
        }
      ],
      "name": "increaseAllowance",
      "outputs": [
        {
          "internalType": "bool",
          "name": "",
          "type": "bool"
        }
      ],
      "stateMutability": "nonpayable",
      "type": "function"
    },
    {
      "inputs": [],
      "name": "lockedBalance",
      "outputs": [
        {
          "internalType": "uint256",
          "name": "",
          "type": "uint256"
        }
      ],
      "stateMutability": "view",
      "type": "function"
    },
    {
      "inputs": [],
      "name": "lockedRatio",
      "outputs": [
        {
          "internalType": "uint256",
          "name": "",
          "type": "uint256"
        }
      ],
      "stateMutability": "view",
      "type": "function"
    },
    {
      "inputs": [],
      "name": "name",
      "outputs": [
        {
          "internalType": "string",
          "name": "",
          "type": "string"
        }
      ],
      "stateMutability": "view",
      "type": "function"
    },
    {
      "inputs": [],
      "name": "owner",
      "outputs": [
        {
          "internalType": "address",
          "name": "",
          "type": "address"
        }
      ],
      "stateMutability": "view",
      "type": "function"
    },
    {
      "inputs": [
        {
          "internalType": "uint256",
          "name": "_premium",
          "type": "uint256"
        },
        {
          "internalType": "uint256",
          "name": "_payoff",
          "type": "uint256"
        },
        {
          "internalType": "uint256",
          "name": "_realPayoff",
          "type": "uint256"
        },
        {
          "internalType": "address",
          "name": "_user",
          "type": "address"
        }
      ],
      "name": "payClaim",
      "outputs": [],
      "stateMutability": "nonpayable",
      "type": "function"
    },
    {
      "inputs": [],
      "name": "policyFlow",
      "outputs": [
        {
          "internalType": "address",
          "name": "",
          "type": "address"
        }
      ],
      "stateMutability": "view",
      "type": "function"
    },
    {
      "inputs": [],
      "name": "purchaseIncentiveAmount",
      "outputs": [
        {
          "internalType": "uint256",
          "name": "",
          "type": "uint256"
        }
      ],
      "stateMutability": "view",
      "type": "function"
    },
    {
      "inputs": [],
      "name": "realStakingBalance",
      "outputs": [
        {
          "internalType": "uint256",
          "name": "",
          "type": "uint256"
        }
      ],
      "stateMutability": "view",
      "type": "function"
    },
    {
      "inputs": [],
      "name": "renounceOwnership",
      "outputs": [],
      "stateMutability": "nonpayable",
      "type": "function"
    },
    {
      "inputs": [
        {
          "internalType": "address",
          "name": "_user",
          "type": "address"
        }
      ],
      "name": "revertAllUnstakeRequest",
      "outputs": [],
      "stateMutability": "nonpayable",
      "type": "function"
    },
    {
      "inputs": [
        {
          "internalType": "address",
          "name": "_user",
          "type": "address"
        }
      ],
      "name": "revertUnstakeRequest",
      "outputs": [],
      "stateMutability": "nonpayable",
      "type": "function"
    },
    {
      "inputs": [
        {
          "internalType": "uint256",
          "name": "",
          "type": "uint256"
        }
      ],
      "name": "rewardDistribution",
      "outputs": [
        {
          "internalType": "uint256",
          "name": "",
          "type": "uint256"
        }
      ],
      "stateMutability": "view",
      "type": "function"
    },
    {
      "inputs": [
        {
          "internalType": "uint256",
          "name": "_factor",
          "type": "uint256"
        }
      ],
      "name": "setCollateralFactor",
      "outputs": [],
      "stateMutability": "nonpayable",
      "type": "function"
    },
    {
      "inputs": [
        {
          "internalType": "uint256",
          "name": "_newFrozenTime",
          "type": "uint256"
        }
      ],
      "name": "setFrozenTime",
      "outputs": [],
      "stateMutability": "nonpayable",
      "type": "function"
    },
    {
      "inputs": [
        {
          "internalType": "uint256[3]",
          "name": "_newDistribution",
          "type": "uint256[3]"
        }
      ],
      "name": "setIncomeDistribution",
      "outputs": [],
      "stateMutability": "nonpayable",
      "type": "function"
    },
    {
      "inputs": [
        {
          "internalType": "address",
          "name": "_policyFlowAddress",
          "type": "address"
        }
      ],
      "name": "setPolicyFlow",
      "outputs": [],
      "stateMutability": "nonpayable",
      "type": "function"
    },
    {
      "inputs": [
        {
          "internalType": "uint256",
          "name": "_amount",
          "type": "uint256"
        }
      ],
      "name": "stake",
      "outputs": [],
      "stateMutability": "nonpayable",
      "type": "function"
    },
    {
      "inputs": [],
      "name": "symbol",
      "outputs": [
        {
          "internalType": "string",
          "name": "",
          "type": "string"
        }
      ],
      "stateMutability": "view",
      "type": "function"
    },
    {
      "inputs": [],
      "name": "totalStakingBalance",
      "outputs": [
        {
          "internalType": "uint256",
          "name": "",
          "type": "uint256"
        }
      ],
      "stateMutability": "view",
      "type": "function"
    },
    {
      "inputs": [],
      "name": "totalSupply",
      "outputs": [
        {
          "internalType": "uint256",
          "name": "",
          "type": "uint256"
        }
      ],
      "stateMutability": "view",
      "type": "function"
    },
    {
      "inputs": [
        {
          "internalType": "address",
          "name": "recipient",
          "type": "address"
        },
        {
          "internalType": "uint256",
          "name": "amount",
          "type": "uint256"
        }
      ],
      "name": "transfer",
      "outputs": [
        {
          "internalType": "bool",
          "name": "",
          "type": "bool"
        }
      ],
      "stateMutability": "nonpayable",
      "type": "function"
    },
    {
      "inputs": [
        {
          "internalType": "address",
          "name": "sender",
          "type": "address"
        },
        {
          "internalType": "address",
          "name": "recipient",
          "type": "address"
        },
        {
          "internalType": "uint256",
          "name": "amount",
          "type": "uint256"
        }
      ],
      "name": "transferFrom",
      "outputs": [
        {
          "internalType": "bool",
          "name": "",
          "type": "bool"
        }
      ],
      "stateMutability": "nonpayable",
      "type": "function"
    },
    {
      "inputs": [
        {
          "internalType": "address",
          "name": "newOwner",
          "type": "address"
        }
      ],
      "name": "transferOwnership",
      "outputs": [],
      "stateMutability": "nonpayable",
      "type": "function"
    },
    {
      "inputs": [
        {
          "internalType": "uint256",
          "name": "_amount",
          "type": "uint256"
        }
      ],
      "name": "unstake",
      "outputs": [],
      "stateMutability": "nonpayable",
      "type": "function"
    },
    {
      "inputs": [],
      "name": "unstakeMax",
      "outputs": [],
      "stateMutability": "nonpayable",
      "type": "function"
    },
    {
      "inputs": [
        {
          "internalType": "uint256",
          "name": "_premium",
          "type": "uint256"
        },
        {
          "internalType": "uint256",
          "name": "_payoff",
          "type": "uint256"
        },
        {
          "internalType": "address",
          "name": "_user",
          "type": "address"
        }
      ],
      "name": "updateWhenBuy",
      "outputs": [],
      "stateMutability": "nonpayable",
      "type": "function"
    },
    {
      "inputs": [
        {
          "internalType": "uint256",
          "name": "_premium",
          "type": "uint256"
        },
        {
          "internalType": "uint256",
          "name": "_payoff",
          "type": "uint256"
        }
      ],
      "name": "updateWhenExpire",
      "outputs": [],
      "stateMutability": "nonpayable",
      "type": "function"
    }
  ],
  "transactionHash": "0x43fd2370258530cb3ecbf94b95490c4357d79e6c4f36f8f76920f0e0850e0775",
  "args": [
    "0x9fE46736679d2D9a65F0992F2272dE9f3c7fa6e0",
    "0xa513E6E4b8f2a923D98304ec87F64353C4D5C853",
    "0xCf7Ed3AccA5a467e9e704C703E8D87F634fB0Fc9"
  ],
  "numDeployments": 1,
  "solcInputHash": "891f6e83b97076056766f10193ee5514",
  "bytecode": "0x608060405262093a806008553480156200001857600080fd5b5060405162003561380380620035618339810160408190526200003b9162000275565b6040518060400160405280601981526020017f446567697320466c6967687444656c6179204c50546f6b656e00000000000000815250604051806040016040528060038152602001620444c560ec1b8152508160039080519060200190620000a592919062000195565b508051620000bb90600490602084019062000195565b505050620000cf336200014360201b60201c565b6001601855670de0b6b3a764000060118190556010819055600c55600680546001600160a01b03199081166001600160a01b039586161790915560198054821692851692909217909155601a80549091169190921617905560326014556028601555600a60165562093a8060085562000314565b601780546001600160a01b038381166001600160a01b0319831681179093556040519116919082907f8be0079c531659141344cd1fd0a4f28419497f9722a3daafe3b4186f6b6457e090600090a35050565b828054620001a390620002e3565b90600052602060002090601f016020900481019282620001c7576000855562000212565b82601f10620001e257805160ff191683800117855562000212565b8280016001018555821562000212579182015b8281111562000212578251825591602001919060010190620001f5565b506200022092915062000224565b5090565b5b8082111562000220576000815560010162000225565b60006001600160a01b0382165b92915050565b62000259816200023b565b81146200026557600080fd5b50565b805162000248816200024e565b6000806000606084860312156200028f576200028f600080fd5b60006200029d868662000268565b9350506020620002b08682870162000268565b9250506040620002c38682870162000268565b9150509250925092565b634e487b7160e01b600052602260045260246000fd5b600281046001821680620002f857607f821691505b602082108114156200030e576200030e620002cd565b50919050565b61323d80620003246000396000f3fe608060405234801561001057600080fd5b50600436106102735760003560e01c806395d89b4111610151578063cba9aa4f116100c3578063df011c4111610087578063df011c4114610552578063e766c8351461055b578063ea1a767914610564578063f03816ea1461056d578063f2fde38b14610580578063fa4bc20a1461059357600080fd5b8063cba9aa4f146104eb578063d8a9bdb7146104f4578063dd62ed3e146104fd578063ddc2c18514610536578063de2fbaba1461054957600080fd5b8063a9059cbb11610115578063a9059cbb14610476578063b496991a14610489578063b5c2215714610492578063bf131f4b146104a5578063bff9e65f146104b8578063c54e44eb146104d857600080fd5b806395d89b411461042c578063a21bc3fb14610434578063a457c2d71461043d578063a59b364514610450578063a694fc3a1461046357600080fd5b806347734892116101ea5780637b80889b116101ae5780637b80889b146103d05780637d36f766146103d95780638da5cb5b146103ec5780638f6987a2146103fd578063906db9ff14610410578063942465ed1461041957600080fd5b80634773489214610371578063561dae91146103845780635c326caf1461038c57806370a082311461039f578063715018a6146103c857600080fd5b806323b872dd1161023c57806323b872dd146102f45780632e17de7814610307578063313ce5671461031c578063395093511461032b5780634020a4ad1461033e57806343d387f81461035157600080fd5b806216bd781461027857806306fdde03146102a4578063095ea7b3146102b957806312fa0d7a146102cc57806318160ddd146102ec575b600080fd5b61028e610286366004612461565b601254101590565b60405161029b919061248c565b60405180910390f35b6102ac6105a6565b60405161029b91906124f8565b61028e6102c736600461252e565b610638565b6102df6102da36600461256b565b61064f565b60405161029b9190612592565b6002546102df565b61028e6103023660046125a0565b610678565b61031a610315366004612461565b6106ea565b005b601260405161029b91906125f9565b61028e61033936600461252e565b6108b9565b61031a61034c36600461256b565b6108f5565b600554610364906001600160a01b031681565b60405161029b9190612610565b6102df61037f36600461256b565b610a0f565b61031a610a36565b61031a61039a36600461256b565b610bd8565b6102df6103ad36600461256b565b6001600160a01b031660009081526020819052604090205490565b61031a610c8f565b6102df600f5481565b6102df6103e7366004612461565b610cd4565b6017546001600160a01b0316610364565b61031a61040b36600461261e565b610ceb565b6102df60085481565b61031a610427366004612640565b610d91565b6102ac610e7d565b6102df60125481565b61028e61044b36600461252e565b610e8c565b600654610364906001600160a01b031681565b61031a610471366004612461565b610ee7565b61028e61048436600461252e565b610fdb565b6102df60075481565b61031a6104a0366004612461565b610fe8565b61031a6104b33660046126a4565b611084565b601a546104cb906001600160a01b031681565b60405161029b9190612709565b6019546104cb906001600160a01b031681565b6102df600c5481565b6102df600e5481565b6102df61050b366004612717565b6001600160a01b03918216600090815260016020908152604080832093909416825291909152205490565b61031a610544366004612461565b611169565b6102df60105481565b6102df60115481565b6102df600d5481565b6102df60135481565b61031a61057b36600461256b565b6111e2565b61031a61058e36600461256b565b611336565b61031a6105a1366004612843565b6113a1565b6060600380546105b59061287a565b80601f01602080910402602001604051908101604052809291908181526020018280546105e19061287a565b801561062e5780601f106106035761010080835404028352916020019161062e565b820191906000526020600020905b81548152906001019060200180831161061157829003601f168201915b5050505050905090565b60006106453384846114a8565b5060015b92915050565b60008061065b83610a0f565b905080601254101561066f57601254610671565b805b9392505050565b600061068584848461155c565b6001600160a01b0384166000908152600160209081526040808320338452909152902054828110156106d25760405162461bcd60e51b81526004016106c9906128ec565b60405180910390fd5b6106df85338584036114a8565b506001949350505050565b33806107085760405162461bcd60e51b81526004016106c990612930565b60085433600081815260096020526040902054909161072691612956565b4210156107455760405162461bcd60e51b81526004016106c9906129b0565b600260185414156107685760405162461bcd60e51b81526004016106c9906129f2565b600260185533600061077982610a0f565b905080851115801561078b5750600085115b6107a75760405162461bcd60e51b81526004016106c990612a5a565b6000600f54600d546107b99190612a6a565b905085818111156108a15760006107d08389612a6a565b6001600160a01b0386166000818152600a60209081526040808320815160608101835286815280840185815281840186815283546001808201865594885286882093516003909102909301928355905182840155516002909101805460ff1916911515919091179055600b80548083019091557f0175b7a638427703f0dbe7bb9bbf987a2551717b34e79f33b5b1008d1fa01db90180546001600160a01b03191686179055938352600990915281209091018054869550929350839290919061089a908490612956565b9091555050505b6108ab8482611671565b505060016018555050505050565b3360008181526001602090815260408083206001600160a01b038716845290915281205490916106459185906108f0908690612956565b6114a8565b806001600160a01b03811661091c5760405162461bcd60e51b81526004016106c990612930565b336001600160a01b038316148061093d57506017546001600160a01b031633145b6109595760405162461bcd60e51b81526004016106c990612ac9565b6001600160a01b0382166000908152600a60205260409020805461098f5760405162461bcd60e51b81526004016106c990612b1c565b6109988361175d565b6001600160a01b0383166000908152600a602052604081206109b991612402565b6001600160a01b038316600090815260096020526040812060010154600e8054919283926109e8908490612956565b9091555050506001600160a01b039092166000908152600960205260408120600101555050565b6001600160a01b038116600090815260208190526040812054600c5461067190829061179f565b3380610a545760405162461bcd60e51b81526004016106c990612930565b600854336000818152600960205260409020549091610a7291612956565b421015610a915760405162461bcd60e51b81526004016106c9906129b0565b60026018541415610ab45760405162461bcd60e51b81526004016106c9906129f2565b6002601855336000610ac582610a0f565b90506000600f54600d54610ad99190612a6a565b90508181811115610bc1576000610af08385612a6a565b6001600160a01b0386166000818152600a60209081526040808320815160608101835286815280840185815281840186815283546001808201865594885286882093516003909102909301928355905182840155516002909101805460ff1916911515919091179055600b80548083019091557f0175b7a638427703f0dbe7bb9bbf987a2551717b34e79f33b5b1008d1fa01db90180546001600160a01b031916861790559383526009909152812090910180548695509293508392909190610bba908490612956565b9091555050505b610bcb8482611671565b5050600160185550505050565b33610beb6017546001600160a01b031690565b6001600160a01b031614610c115760405162461bcd60e51b81526004016106c990612b5c565b806001600160a01b038116610c385760405162461bcd60e51b81526004016106c990612930565b600580546001600160a01b0319166001600160a01b0384161790556040517f5555268576901f37625e3ab2764fd0bbb1f18eea39aa25cccf9789842520210690610c83908490612610565b60405180910390a15050565b33610ca26017546001600160a01b031690565b6001600160a01b031614610cc85760405162461bcd60e51b81526004016106c990612b5c565b610cd260006117ab565b565b60148160038110610ce457600080fd5b0154905081565b6005546001600160a01b0316336001600160a01b031614610d1e5760405162461bcd60e51b81526004016106c990612bba565b8160136000828254610d309190612a6a565b9250508190555080600f6000828254610d499190612a6a565b925050819055508060126000828254610d629190612956565b90915550610d719050826117fd565b600b54819015610d8457610d84816118f7565b610d8c611be2565b505050565b6005546001600160a01b0316336001600160a01b031614610dc45760405162461bcd60e51b81526004016106c990612bba565b806001600160a01b038116610deb5760405162461bcd60e51b81526004016106c990612930565b83600f6000828254610dfd9190612a6a565b9250508190555082600d6000828254610e169190612a6a565b9250508190555082600e6000828254610e2f9190612a6a565b925050819055508460136000828254610e489190612a6a565b90915550610e579050856117fd565b601954610e6e906001600160a01b03168385611c85565b610e76611be2565b5050505050565b6060600480546105b59061287a565b3360009081526001602090815260408083206001600160a01b038616845290915281205482811015610ed05760405162461bcd60e51b81526004016106c990612c0a565b610edd33858584036114a8565b5060019392505050565b3380610f055760405162461bcd60e51b81526004016106c990612930565b60026018541415610f285760405162461bcd60e51b81526004016106c9906129f2565b60026018556019546040516370a0823160e01b815283916001600160a01b0316906370a0823190610f5d903390600401612610565b602060405180830381865afa158015610f7a573d6000803e3d6000fd5b505050506040513d601f19601f82011682018060405250810190610f9e9190612c25565b10158015610fac5750600082115b610fc85760405162461bcd60e51b81526004016106c990612c8d565b610fd23383611cdb565b50506001601855565b600061064533848461155c565b33610ffb6017546001600160a01b031690565b6001600160a01b0316146110215760405162461bcd60e51b81526004016106c990612b5c565b600081116110415760405162461bcd60e51b81526004016106c990612ce1565b60115461104f826064611dcc565b6011556040517f2fb14d81e1059e5450c519131ffcfc7c4b522c061d35cc68611bacca1f82e37590610c839083908590612cf1565b6005546001600160a01b0316336001600160a01b0316146110b75760405162461bcd60e51b81526004016106c990612bba565b81600f60008282546110c99190612956565b9250508190555082601360008282546110e29190612956565b9250508190555081601260008282546110fb9190612a6a565b909155506111099050611de1565b601954611121906001600160a01b0316823086611e03565b806001600160a01b03167f48a70649351698478f15267ca75cb3da80814ac5087d87178c657801b662fa96848460405161115c929190612cf1565b60405180910390a2505050565b3361117c6017546001600160a01b031690565b6001600160a01b0316146111a25760405162461bcd60e51b81526004016106c990612b5c565b60088190556040517fd0ba4d65f742a2b66a0a13ef1de69627184d31735bd5ae1f01899de3a213e4aa906111d7908390612592565b60405180910390a150565b806001600160a01b0381166112095760405162461bcd60e51b81526004016106c990612930565b336001600160a01b038316148061122a57506017546001600160a01b031633145b6112465760405162461bcd60e51b81526004016106c990612ac9565b6001600160a01b0382166000908152600a60205260409020805461127c5760405162461bcd60e51b81526004016106c990612b1c565b805460009061128d90600190612a6a565b905060008282815481106112a3576112a3612d0c565b9060005260206000209060030201600101548383815481106112c7576112c7612d0c565b9060005260206000209060030201600001546112e39190612a6a565b905080600e60008282546112f79190612956565b90915550506001600160a01b03851660009081526009602052604081206001018054839290611327908490612a6a565b90915550610e76905085611e24565b336113496017546001600160a01b031690565b6001600160a01b03161461136f5760405162461bcd60e51b81526004016106c990612b5c565b6001600160a01b0381166113955760405162461bcd60e51b81526004016106c990612d63565b61139e816117ab565b50565b336113b46017546001600160a01b031690565b6001600160a01b0316146113da5760405162461bcd60e51b81526004016106c990612b5c565b604081015160208201518251600092916113f391612956565b6113fd9190612956565b90508060641461141f5760405162461bcd60e51b81526004016106c990612db1565b60005b60038110156114695782816003811061143d5761143d612d0c565b60200201516014826003811061145557611455612d0c565b01558061146181612dc1565b915050611422565b508151602083015160408085015190517f2501d1816d6e1d277a8cbb431b1a33074b592eb245028dba71f05d558fafae3793610c839390929091612ddc565b6001600160a01b0383166114ce5760405162461bcd60e51b81526004016106c990612e43565b6001600160a01b0382166114f45760405162461bcd60e51b81526004016106c990612e90565b6001600160a01b0380841660008181526001602090815260408083209487168084529490915290819020849055517f8c5be1e5ebec7d5bd14f71427d1e84f3dd0314c0f7b2291e5b200ac8c7c3b9259061154f908590612592565b60405180910390a3505050565b6001600160a01b0383166115825760405162461bcd60e51b81526004016106c990612ee0565b6001600160a01b0382166115a85760405162461bcd60e51b81526004016106c990612f2e565b6001600160a01b038316600090815260208190526040902054818110156115e15760405162461bcd60e51b81526004016106c990612f7f565b6001600160a01b03808516600090815260208190526040808220858503905591851681529081208054849290611618908490612956565b92505081905550826001600160a01b0316846001600160a01b03167fddf252ad1be2c89b69c2b068fc378daa952ba7f163c4a11628f55a4df523b3ef846040516116629190612592565b60405180910390a35b50505050565b60006116886011548361179f90919063ffffffff16565b905081600d600082825461169c9190612a6a565b9250508190555081600e60008282546116b59190612a6a565b9250508190555080601260008282546116ce9190612a6a565b909155506116dc9050611de1565b6019546116f3906001600160a01b03168484611c85565b600061170a600c5484611dcc90919063ffffffff16565b90506117168482611f5c565b836001600160a01b03167f85082129d87b2fe11527cb1b3b7a520aeb5aa6913f88a3d8757fe40d1db02fdd8460405161174f9190612592565b60405180910390a250505050565b60005b6001600160a01b0382166000908152600a602052604090205481101561179b5761178982611e24565b611794600182612956565b9050611760565b5050565b6000610671838361202d565b601780546001600160a01b038381166001600160a01b0319831681179093556040519116919082907f8be0079c531659141344cd1fd0a4f28419497f9722a3daafe3b4186f6b6457e090600090a35050565b600061181b6118146064601460015b015490611dcc565b839061179f565b9050600061183761183060646014600261180c565b849061179f565b600654601954919250611857916001600160a01b03908116911683611c85565b601a546040516338d67afb60e21b81526001600160a01b039091169063e359ebec90611887908590600401612592565b600060405180830381600087803b1580156118a157600080fd5b505af11580156118b5573d6000803e3d6000fd5b505050507f9761fc045fbd64d3df258b9138e72c435856255787dfef0428a74ead73954fb481836040516118ea929190612cf1565b60405180910390a1505050565b600b54600090819061190b90600190612a6a565b90505b6000600b828154811061192357611923612d0c565b60009182526020822001546001600160a01b031691505b6001600160a01b0382166000908152600a6020526040902054811015611bce576001600160a01b0382166000908152600a6020526040902080548290811061198457611984612d0c565b906000526020600020906003020160000154935083851115611b04576119aa8486612a6a565b945060005b6001600160a01b0383166000908152600a60205260409020546119d490600190612a6a565b811015611aa0576001600160a01b0383166000908152600a602052604090206119fe826001612956565b81548110611a0e57611a0e612d0c565b9060005260206000209060030201600a6000856001600160a01b03166001600160a01b031681526020019081526020016000208281548110611a5257611a52612d0c565b6000918252602090912082546003909202019081556001808301548183015560029283015492909101805460ff191660ff909316151592909217909155611a999082612956565b90506119af565b506001600160a01b0382166000908152600a60205260409020805480611ac857611ac8612f8f565b6000828152602081206003600019909301928302018181556001810191909155600201805460ff191690559055611aff8285611671565b611bbc565b6001600160a01b0382166000908152600a60205260409020805486919083908110611b3157611b31612d0c565b90600052602060002090600302016000016000828254611b519190612a6a565b90915550506001600160a01b0382166000908152600a60205260409020805486919083908110611b8357611b83612d0c565b90600052602060002090600302016001016000828254611ba39190612956565b90915550611bb390508286611671565b60009450611bce565b80611bc681612dc1565b91505061193a565b5050611bdb600182612a6a565b905061190e565b6000611bed60025490565b6019546040516370a0823160e01b81529192506000916001600160a01b03909116906370a0823190611c23903090600401612610565b602060405180830381865afa158015611c40573d6000803e3d6000fd5b505050506040513d601f19601f82011682018060405250810190611c649190612c25565b9050611c7e8260135483611c789190612a6a565b90611dcc565b600c555050565b610d8c8363a9059cbb60e01b8484604051602401611ca4929190612fa5565b60408051601f198184030181529190526020810180516001600160e01b03166001600160e01b0319909316929092179091526120ee565b6000611cf26011548361179f90919063ffffffff16565b905081600d6000828254611d069190612956565b9250508190555081600e6000828254611d1f9190612956565b925050819055508060126000828254611d389190612956565b90915550611d469050611de1565b601954611d5e906001600160a01b0316843085611e03565b6000611d75600c5484611dcc90919063ffffffff16565b9050611d81848261217d565b6001600160a01b03841660008181526009602052604090819020429055517febedb8b3c678666e7f36970bc8f57abf6d8fa2e828c0da91ea5b75bf68ed101a9061174f908690612592565b600061067183670de0b6b3a764000084612231565b600f54611def576000601055565b600d54600f54611dfe91611dcc565b601055565b61166b846323b872dd60e01b858585604051602401611ca493929190612fb3565b600b54600090611e3690600190612a6a565b90505b816001600160a01b0316600b8281548110611e5657611e56612d0c565b6000918252602090912001546001600160a01b03161415611e7657611e88565b611e81600182612a6a565b9050611e39565b805b600b54611e9990600190612a6a565b811015611f2457600b611ead826001612956565b81548110611ebd57611ebd612d0c565b600091825260209091200154600b80546001600160a01b039092169183908110611ee957611ee9612d0c565b600091825260209091200180546001600160a01b0319166001600160a01b0392909216919091179055611f1d600182612956565b9050611e8a565b50600b805480611f3657611f36612f8f565b600082815260209020810160001990810180546001600160a01b03191690550190555050565b6001600160a01b038216611f825760405162461bcd60e51b81526004016106c99061300a565b6001600160a01b03821660009081526020819052604090205481811015611fbb5760405162461bcd60e51b81526004016106c990613057565b6001600160a01b0383166000908152602081905260408120838303905560028054849290611fea908490612a6a565b90915550506040516000906001600160a01b038516907fddf252ad1be2c89b69c2b068fc378daa952ba7f163c4a11628f55a4df523b3ef9061154f908690612592565b60008080600019848609848602925082811083820303915050670de0b6b3a76400008110612070578060405163698d9a0160e11b81526004016106c99190612592565b600080670de0b6b3a76400008688099150506706f05b59d3b1ffff8111826120aa5780670de0b6b3a7640000850401945050505050610649565b620400008285030493909111909103600160ee1b02919091177faccb18165bd6fe31ae1cf318dc5b51eee0e1ba569b88cd74c1773b91fac106690201905092915050565b6000612143826040518060400160405280602081526020017f5361666545524332303a206c6f772d6c6576656c2063616c6c206661696c6564815250856001600160a01b03166122f99092919063ffffffff16565b805190915015610d8c57808060200190518101906121619190613090565b610d8c5760405162461bcd60e51b81526004016106c9906130f6565b6001600160a01b0382166121a35760405162461bcd60e51b81526004016106c990613138565b80600260008282546121b59190612956565b90915550506001600160a01b038216600090815260208190526040812080548392906121e2908490612956565b90915550506040516001600160a01b038316906000907fddf252ad1be2c89b69c2b068fc378daa952ba7f163c4a11628f55a4df523b3ef90612225908590612592565b60405180910390a35050565b60008080600019858709858702925082811083820303915050806000141561226c5783828161226257612262613067565b0492505050610671565b838110612290578084604051631dcf306360e21b81526004016106c9929190612cf1565b60008486880960026001871981018816978890046003810283188082028403028082028403028082028403028082028403028082028403029081029092039091026000889003889004909101858311909403939093029303949094049190911702949350505050565b60606123088484600085612310565b949350505050565b6060824710156123325760405162461bcd60e51b81526004016106c990613189565b843b6123505760405162461bcd60e51b81526004016106c9906131cb565b600080866001600160a01b0316858760405161236c91906131fd565b60006040518083038185875af1925050503d80600081146123a9576040519150601f19603f3d011682016040523d82523d6000602084013e6123ae565b606091505b50915091506123be8282866123c9565b979650505050505050565b606083156123d8575081610671565b8251156123e85782518084602001fd5b8160405162461bcd60e51b81526004016106c991906124f8565b508054600082556003029060005260206000209081019061139e91905b80821115612445576000808255600182015560028101805460ff1916905560030161241f565b5090565b805b811461139e57600080fd5b803561064981612449565b60006020828403121561247657612476600080fd5b60006123088484612456565b8015155b82525050565b602081016106498284612482565b60005b838110156124b557818101518382015260200161249d565b8381111561166b5750506000910152565b60006124d0825190565b8084526020840193506124e781856020860161249a565b601f01601f19169290920192915050565b6020808252810161067181846124c6565b60006001600160a01b038216610649565b61244b81612509565b80356106498161251a565b6000806040838503121561254457612544600080fd5b60006125508585612523565b925050602061256185828601612456565b9150509250929050565b60006020828403121561258057612580600080fd5b60006123088484612523565b80612486565b60208101610649828461258c565b6000806000606084860312156125b8576125b8600080fd5b60006125c48686612523565b93505060206125d586828701612523565b92505060406125e686828701612456565b9150509250925092565b60ff8116612486565b6020810161064982846125f0565b61248681612509565b602081016106498284612607565b6000806040838503121561263457612634600080fd5b60006125508585612456565b6000806000806080858703121561265957612659600080fd5b60006126658787612456565b945050602061267687828801612456565b935050604061268787828801612456565b925050606061269887828801612523565b91505092959194509250565b6000806000606084860312156126bc576126bc600080fd5b60006126c88686612456565b93505060206126d986828701612456565b92505060406125e686828701612523565b600061064982612509565b6000610649826126ea565b612486816126f5565b602081016106498284612700565b6000806040838503121561272d5761272d600080fd5b60006127398585612523565b925050602061256185828601612523565b634e487b7160e01b600052604160045260246000fd5b601f19601f830116810181811067ffffffffffffffff821117156127865761278661274a565b6040525050565b600061279860405190565b90506127a48282612760565b919050565b600067ffffffffffffffff8211156127c3576127c361274a565b5060200290565b60006127dd6127d8846127a9565b61278d565b905080602084028301858111156127f6576127f6600080fd5b835b818110156128185761280a8782612456565b8352602092830192016127f8565b5050509392505050565b600082601f83011261283657612836600080fd5b60036123088482856127ca565b60006060828403121561285857612858600080fd5b60006123088484612822565b634e487b7160e01b600052602260045260246000fd5b60028104600182168061288e57607f821691505b602082108114156128a1576128a1612864565b50919050565b60288152602081017f45524332303a207472616e7366657220616d6f756e74206578636565647320618152676c6c6f77616e636560c01b602082015290505b60400190565b60208082528101610649816128a7565b60178152602081017f43616e206e6f74206265207a65726f2061646472657373000000000000000000815290505b60200190565b60208082528101610649816128fc565b634e487b7160e01b600052601160045260246000fd5b6000821982111561296957612969612940565b500190565b60278152602081017f43616e206e6f7420776974686472617720756e74696c207468652066726f6e7a815266656e2074696d6560c81b602082015290506128e6565b602080825281016106498161296e565b601f8152602081017f5265656e7472616e637947756172643a207265656e7472616e742063616c6c008152905061292a565b60208082528101610649816129c0565b603e8152602081017f4e6f7420656e6f7567682062616c616e636520746f20626520756e6c6f636b6581527f64206f7220796f757220776974686472617720616d6f756e7420697320300000602082015290506128e6565b6020808252810161064981612a02565b600082821015612a7c57612a7c612940565b500390565b602d8152602081017f4f6e6c7920746865206f776e6572206f722074686520757365722068696d736581526c1b198818d85b881c995d995c9d609a1b602082015290506128e6565b6020808252810161064981612a81565b60288152602081017f74686973207573657220686173206e6f2070656e64696e6720756e7374616b65815267081c995c5d595cdd60c21b602082015290506128e6565b6020808252810161064981612ad9565b60208082527f4f776e61626c653a2063616c6c6572206973206e6f7420746865206f776e6572910190815261292a565b6020808252810161064981612b2c565b60338152602081017f4f6e6c792074686520706f6c696379466c6f7720636f6e74726163742063616e8152721031b0b636103a3434b990333ab731ba34b7b760691b602082015290506128e6565b6020808252810161064981612b6c565b60258152602081017f45524332303a2064656372656173656420616c6c6f77616e63652062656c6f77815264207a65726f60d81b602082015290506128e6565b6020808252810161064981612bca565b805161064981612449565b600060208284031215612c3a57612c3a600080fd5b60006123088484612c1a565b602c8152602081017f596f7520646f206e6f74206861766520656e6f75676820555344206f7220696e81526b1c1d5d080c08185b5bdd5b9d60a21b602082015290506128e6565b6020808252810161064981612c46565b60298152602081017f436f6c6c61746572616c20466163746f722073686f756c64206265206c61726781526806572207468616e20360bc1b602082015290506128e6565b6020808252810161064981612c9d565b60408101612cff828561258c565b610671602083018461258c565b634e487b7160e01b600052603260045260246000fd5b60268152602081017f4f776e61626c653a206e6577206f776e657220697320746865207a65726f206181526564647265737360d01b602082015290506128e6565b6020808252810161064981612d22565b60238152602081017f52657761726420646973747269627574696f6e206d7573742073756d20746f2081526203130360ec1b602082015290506128e6565b6020808252810161064981612d73565b6000600019821415612dd557612dd5612940565b5060010190565b60608101612dea828661258c565b612df7602083018561258c565b612308604083018461258c565b60248152602081017f45524332303a20617070726f76652066726f6d20746865207a65726f206164648152637265737360e01b602082015290506128e6565b6020808252810161064981612e04565b60228152602081017f45524332303a20617070726f766520746f20746865207a65726f206164647265815261737360f01b602082015290506128e6565b6020808252810161064981612e53565b60258152602081017f45524332303a207472616e736665722066726f6d20746865207a65726f206164815264647265737360d81b602082015290506128e6565b6020808252810161064981612ea0565b60238152602081017f45524332303a207472616e7366657220746f20746865207a65726f206164647281526265737360e81b602082015290506128e6565b6020808252810161064981612ef0565b60268152602081017f45524332303a207472616e7366657220616d6f756e7420657863656564732062815265616c616e636560d01b602082015290506128e6565b6020808252810161064981612f3e565b634e487b7160e01b600052603160045260246000fd5b60408101612cff8285612607565b60608101612fc18286612607565b612df76020830185612607565b60218152602081017f45524332303a206275726e2066726f6d20746865207a65726f206164647265738152607360f81b602082015290506128e6565b6020808252810161064981612fce565b60228152602081017f45524332303a206275726e20616d6f756e7420657863656564732062616c616e815261636560f01b602082015290506128e6565b602080825281016106498161301a565b634e487b7160e01b600052601260045260246000fd5b80151561244b565b80516106498161307d565b6000602082840312156130a5576130a5600080fd5b60006123088484613085565b602a8152602081017f5361666545524332303a204552433230206f7065726174696f6e20646964206e8152691bdd081cdd58d8d9595960b21b602082015290506128e6565b60208082528101610649816130b1565b601f8152602081017f45524332303a206d696e7420746f20746865207a65726f2061646472657373008152905061292a565b6020808252810161064981613106565b60268152602081017f416464726573733a20696e73756666696369656e742062616c616e636520666f8152651c8818d85b1b60d21b602082015290506128e6565b6020808252810161064981613148565b601d8152602081017f416464726573733a2063616c6c20746f206e6f6e2d636f6e74726163740000008152905061292a565b6020808252810161064981613199565b60006131e5825190565b6131f381856020860161249a565b9290920192915050565b61064981836131db56fea26469706673582212206bda7f4fd79efc41fd0edc78207b201e97e580f1059dcb4a67ce483730ff6f4064736f6c634300080a0033",
  "devdoc": {
    "kind": "dev",
    "methods": {
      "allowance(address,address)": {
        "details": "See {IERC20-allowance}."
      },
      "approve(address,uint256)": {
        "details": "See {IERC20-approve}. Requirements: - `spender` cannot be the zero address."
      },
      "balanceOf(address)": {
        "details": "See {IERC20-balanceOf}."
      },
      "checkCapacity(uint256)": {
        "params": {
          "_payoff": "Payoff of the policy to be bought"
        },
        "returns": {
          "_0": "Whether there is enough capacity in the pool for this payoff"
        }
      },
      "constructor": {
        "params": {
          "_degisLottery": "Lottery address",
          "_emergencyPool": "Emergency pool address",
          "_usdtAddress": "USDT address"
        }
      },
      "decimals()": {
        "details": "Returns the number of decimals used to get its user representation. For example, if `decimals` equals `2`, a balance of `505` tokens should be displayed to a user as `5.05` (`505 / 10 ** 2`). Tokens usually opt for a value of 18, imitating the relationship between Ether and Wei. This is the value {ERC20} uses, unless this function is overridden; NOTE: This information is only used for _display_ purposes: it in no way affects any of the arithmetic of the contract, including {IERC20-balanceOf} and {IERC20-transfer}."
      },
      "decreaseAllowance(address,uint256)": {
        "details": "Atomically decreases the allowance granted to `spender` by the caller. This is an alternative to {approve} that can be used as a mitigation for problems described in {IERC20-approve}. Emits an {Approval} event indicating the updated allowance. Requirements: - `spender` cannot be the zero address. - `spender` must have allowance for the caller of at least `subtractedValue`."
      },
      "getUnlockedFor(address)": {
        "params": {
          "_user": "User's address"
        },
        "returns": {
          "_unlockedAmount": "Unlocked amount of the pool"
        }
      },
      "getUserBalance(address)": {
        "details": "Used in many places so give it a seperate function",
        "params": {
          "_user": "User's address"
        },
        "returns": {
          "_userBalance": "Real balance of this user"
        }
      },
      "increaseAllowance(address,uint256)": {
        "details": "Atomically increases the allowance granted to `spender` by the caller. This is an alternative to {approve} that can be used as a mitigation for problems described in {IERC20-approve}. Emits an {Approval} event indicating the updated allowance. Requirements: - `spender` cannot be the zero address."
      },
      "name()": {
        "details": "Returns the name of the token."
      },
      "payClaim(uint256,uint256,uint256,address)": {
        "params": {
          "_payoff": "Max payoff of the policy",
          "_premium": "Premium of the policy",
          "_realPayoff": "Real payoff of the policy",
          "_user": "Address of the policy claimer"
        }
      },
      "renounceOwnership()": {
        "details": "Renouncing ownership will leave the contract without an owner,         thereby removing any functionality that is only available to the owner."
      },
      "revertAllUnstakeRequest(address)": {
        "params": {
          "_user": "user's address"
        }
      },
      "revertUnstakeRequest(address)": {
        "params": {
          "_user": "user's address"
        }
      },
      "setCollateralFactor(uint256)": {
        "params": {
          "_factor": "The new collateral factor"
        }
      },
      "setFrozenTime(uint256)": {
        "params": {
          "_newFrozenTime": "New frozen time, in timestamp(s)"
        }
      },
      "setIncomeDistribution(uint256[3])": {
        "params": {
          "_newDistribution": "New distribution [LP, Lottery, Emergency]"
        }
      },
      "stake(uint256)": {
        "params": {
          "_amount": "The amount that the user want to stake"
        }
      },
      "symbol()": {
        "details": "Returns the symbol of the token, usually a shorter version of the name."
      },
      "totalSupply()": {
        "details": "See {IERC20-totalSupply}."
      },
      "transfer(address,uint256)": {
        "details": "See {IERC20-transfer}. Requirements: - `recipient` cannot be the zero address. - the caller must have a balance of at least `amount`."
      },
      "transferFrom(address,address,uint256)": {
        "details": "See {IERC20-transferFrom}. Emits an {Approval} event indicating the updated allowance. This is not required by the EIP. See the note at the beginning of {ERC20}. Requirements: - `sender` and `recipient` cannot be the zero address. - `sender` must have a balance of at least `amount`. - the caller must have allowance for ``sender``'s tokens of at least `amount`."
      },
      "transferOwnership(address)": {
        "details": "Can only be called by the current owner.",
        "params": {
          "newOwner": "Address of the new owner"
        }
      },
      "unstake(uint256)": {
        "details": "Only unstake by yourself",
        "params": {
          "_amount": "The amount that the user want to unstake"
        }
      },
      "updateWhenBuy(uint256,uint256,address)": {
        "details": "Capacity check is done before calling this function",
        "params": {
          "_payoff": "Policy's payoff (max payoff)",
          "_premium": "Policy's premium",
          "_user": "Address of the buyer"
        }
      },
      "updateWhenExpire(uint256,uint256)": {
        "params": {
          "_payoff": "Policy's payoff (max payoff)",
          "_premium": "Policy's premium"
        }
      }
    },
    "title": "Insurance Pool",
    "version": 1
  },
  "userdoc": {
    "errors": {
      "PRBMath__MulDivFixedPointOverflow(uint256)": [
        {
          "notice": "Emitted when the result overflows uint256."
        }
      ],
      "PRBMath__MulDivOverflow(uint256,uint256)": [
        {
          "notice": "Emitted when the result overflows uint256."
        }
      ]
    },
    "kind": "user",
    "methods": {
      "checkCapacity(uint256)": {
        "notice": "Check the conditions when receive new buying request"
      },
      "constructor": {
        "notice": "Constructor function"
      },
      "getUnlockedFor(address)": {
        "notice": "Get the balance that one user(LP) can unlock"
      },
      "getUserBalance(address)": {
        "notice": "Get the real balance: LPValue * LP_Num"
      },
      "owner()": {
        "notice": "Returns the address of the current owner."
      },
      "payClaim(uint256,uint256,uint256,address)": {
        "notice": "Pay a claim"
      },
      "renounceOwnership()": {
        "notice": "Leaves the contract without owner. It will not be possible to call         `onlyOwner` functions anymore. Can only be called by the current owner."
      },
      "revertAllUnstakeRequest(address)": {
        "notice": "revert all unstake requests for a user"
      },
      "revertUnstakeRequest(address)": {
        "notice": "revert the last unstake request for a user"
      },
      "setCollateralFactor(uint256)": {
        "notice": "Change the collateral factor"
      },
      "setFrozenTime(uint256)": {
        "notice": "Set a new frozen time"
      },
      "setIncomeDistribution(uint256[3])": {
        "notice": "Set the premium reward distribution"
      },
      "setPolicyFlow(address)": {
        "notice": "Set the address of policyFlow"
      },
      "stake(uint256)": {
        "notice": "LPs stake assets into the pool"
      },
      "transferOwnership(address)": {
        "notice": "Transfers ownership of the contract to a new account (`newOwner`)."
      },
      "unstake(uint256)": {
        "notice": "Unstake from the pool (May fail if a claim happens before this operation)"
      },
      "unstakeMax()": {
        "notice": "Unstake the max amount of a user"
      },
      "updateWhenBuy(uint256,uint256,address)": {
        "notice": "Update the pool variables when buying policies"
      },
      "updateWhenExpire(uint256,uint256)": {
        "notice": "Update the status when a policy expires"
      }
    },
    "notice": "Insurance pool is the reserved risk pool for flight delay product.         For simplicity, some state variables are in the InsurancePoolStore contract.",
    "version": 1
  },
  "storageLayout": {
    "storage": [
      {
        "astId": 2448,
        "contract": "contracts/miserable-flight/InsurancePool.sol:InsurancePool",
        "label": "_balances",
        "offset": 0,
        "slot": "0",
        "type": "t_mapping(t_address,t_uint256)"
      },
      {
        "astId": 2454,
        "contract": "contracts/miserable-flight/InsurancePool.sol:InsurancePool",
        "label": "_allowances",
        "offset": 0,
        "slot": "1",
        "type": "t_mapping(t_address,t_mapping(t_address,t_uint256))"
      },
      {
        "astId": 2456,
        "contract": "contracts/miserable-flight/InsurancePool.sol:InsurancePool",
        "label": "_totalSupply",
        "offset": 0,
        "slot": "2",
        "type": "t_uint256"
      },
      {
        "astId": 2458,
        "contract": "contracts/miserable-flight/InsurancePool.sol:InsurancePool",
        "label": "_name",
        "offset": 0,
        "slot": "3",
        "type": "t_string_storage"
      },
      {
        "astId": 2460,
        "contract": "contracts/miserable-flight/InsurancePool.sol:InsurancePool",
        "label": "_symbol",
        "offset": 0,
        "slot": "4",
        "type": "t_string_storage"
      },
      {
        "astId": 14917,
        "contract": "contracts/miserable-flight/InsurancePool.sol:InsurancePool",
        "label": "policyFlow",
        "offset": 0,
        "slot": "5",
        "type": "t_address"
      },
      {
        "astId": 14919,
        "contract": "contracts/miserable-flight/InsurancePool.sol:InsurancePool",
        "label": "emergencyPool",
        "offset": 0,
        "slot": "6",
        "type": "t_address"
      },
      {
        "astId": 14921,
        "contract": "contracts/miserable-flight/InsurancePool.sol:InsurancePool",
        "label": "purchaseIncentiveAmount",
        "offset": 0,
        "slot": "7",
        "type": "t_uint256"
      },
      {
        "astId": 14924,
        "contract": "contracts/miserable-flight/InsurancePool.sol:InsurancePool",
        "label": "frozenTime",
        "offset": 0,
        "slot": "8",
        "type": "t_uint256"
      },
      {
        "astId": 14934,
        "contract": "contracts/miserable-flight/InsurancePool.sol:InsurancePool",
        "label": "userInfo",
        "offset": 0,
        "slot": "9",
        "type": "t_mapping(t_address,t_struct(UserInfo)14929_storage)"
      },
      {
        "astId": 14947,
        "contract": "contracts/miserable-flight/InsurancePool.sol:InsurancePool",
        "label": "unstakeRequests",
        "offset": 0,
        "slot": "10",
        "type": "t_mapping(t_address,t_array(t_struct(UnstakeRequest)14941_storage)dyn_storage)"
      },
      {
        "astId": 14950,
        "contract": "contracts/miserable-flight/InsurancePool.sol:InsurancePool",
        "label": "unstakeQueue",
        "offset": 0,
        "slot": "11",
        "type": "t_array(t_address)dyn_storage"
      },
      {
        "astId": 14952,
        "contract": "contracts/miserable-flight/InsurancePool.sol:InsurancePool",
        "label": "LPValue",
        "offset": 0,
        "slot": "12",
        "type": "t_uint256"
      },
      {
        "astId": 14954,
        "contract": "contracts/miserable-flight/InsurancePool.sol:InsurancePool",
        "label": "totalStakingBalance",
        "offset": 0,
        "slot": "13",
        "type": "t_uint256"
      },
      {
        "astId": 14956,
        "contract": "contracts/miserable-flight/InsurancePool.sol:InsurancePool",
        "label": "realStakingBalance",
        "offset": 0,
        "slot": "14",
        "type": "t_uint256"
      },
      {
        "astId": 14958,
        "contract": "contracts/miserable-flight/InsurancePool.sol:InsurancePool",
        "label": "lockedBalance",
        "offset": 0,
        "slot": "15",
        "type": "t_uint256"
      },
      {
        "astId": 14960,
        "contract": "contracts/miserable-flight/InsurancePool.sol:InsurancePool",
        "label": "lockedRatio",
        "offset": 0,
        "slot": "16",
        "type": "t_uint256"
      },
      {
        "astId": 14962,
        "contract": "contracts/miserable-flight/InsurancePool.sol:InsurancePool",
        "label": "collateralFactor",
        "offset": 0,
        "slot": "17",
        "type": "t_uint256"
      },
      {
        "astId": 14964,
        "contract": "contracts/miserable-flight/InsurancePool.sol:InsurancePool",
        "label": "availableCapacity",
        "offset": 0,
        "slot": "18",
        "type": "t_uint256"
      },
      {
        "astId": 14966,
        "contract": "contracts/miserable-flight/InsurancePool.sol:InsurancePool",
        "label": "activePremiums",
        "offset": 0,
        "slot": "19",
        "type": "t_uint256"
      },
      {
        "astId": 14970,
        "contract": "contracts/miserable-flight/InsurancePool.sol:InsurancePool",
        "label": "rewardDistribution",
        "offset": 0,
        "slot": "20",
        "type": "t_array(t_uint256)3_storage"
      },
      {
        "astId": 21796,
        "contract": "contracts/miserable-flight/InsurancePool.sol:InsurancePool",
        "label": "_owner",
        "offset": 0,
        "slot": "23",
        "type": "t_address"
      },
      {
        "astId": 2403,
        "contract": "contracts/miserable-flight/InsurancePool.sol:InsurancePool",
        "label": "_status",
        "offset": 0,
        "slot": "24",
        "type": "t_uint256"
      },
      {
        "astId": 12451,
        "contract": "contracts/miserable-flight/InsurancePool.sol:InsurancePool",
        "label": "USDT",
        "offset": 0,
        "slot": "25",
        "type": "t_contract(IERC20)3056"
      },
      {
        "astId": 12454,
        "contract": "contracts/miserable-flight/InsurancePool.sol:InsurancePool",
        "label": "degisLottery",
        "offset": 0,
        "slot": "26",
        "type": "t_contract(IDegisLottery)11789"
      }
    ],
    "types": {
      "t_address": {
        "encoding": "inplace",
        "label": "address",
        "numberOfBytes": "20"
      },
      "t_array(t_address)dyn_storage": {
        "base": "t_address",
        "encoding": "dynamic_array",
        "label": "address[]",
        "numberOfBytes": "32"
      },
      "t_array(t_struct(UnstakeRequest)14941_storage)dyn_storage": {
        "base": "t_struct(UnstakeRequest)14941_storage",
        "encoding": "dynamic_array",
        "label": "struct InsurancePoolStore.UnstakeRequest[]",
        "numberOfBytes": "32"
      },
      "t_array(t_uint256)3_storage": {
        "base": "t_uint256",
        "encoding": "inplace",
        "label": "uint256[3]",
        "numberOfBytes": "96"
      },
      "t_bool": {
        "encoding": "inplace",
        "label": "bool",
        "numberOfBytes": "1"
      },
      "t_contract(IDegisLottery)11789": {
        "encoding": "inplace",
        "label": "contract IDegisLottery",
        "numberOfBytes": "20"
      },
      "t_contract(IERC20)3056": {
        "encoding": "inplace",
        "label": "contract IERC20",
        "numberOfBytes": "20"
      },
      "t_mapping(t_address,t_array(t_struct(UnstakeRequest)14941_storage)dyn_storage)": {
        "encoding": "mapping",
        "key": "t_address",
        "label": "mapping(address => struct InsurancePoolStore.UnstakeRequest[])",
        "numberOfBytes": "32",
        "value": "t_array(t_struct(UnstakeRequest)14941_storage)dyn_storage"
      },
      "t_mapping(t_address,t_mapping(t_address,t_uint256))": {
        "encoding": "mapping",
        "key": "t_address",
        "label": "mapping(address => mapping(address => uint256))",
        "numberOfBytes": "32",
        "value": "t_mapping(t_address,t_uint256)"
      },
      "t_mapping(t_address,t_struct(UserInfo)14929_storage)": {
        "encoding": "mapping",
        "key": "t_address",
        "label": "mapping(address => struct InsurancePoolStore.UserInfo)",
        "numberOfBytes": "32",
        "value": "t_struct(UserInfo)14929_storage"
      },
      "t_mapping(t_address,t_uint256)": {
        "encoding": "mapping",
        "key": "t_address",
        "label": "mapping(address => uint256)",
        "numberOfBytes": "32",
        "value": "t_uint256"
      },
      "t_string_storage": {
        "encoding": "bytes",
        "label": "string",
        "numberOfBytes": "32"
      },
      "t_struct(UnstakeRequest)14941_storage": {
        "encoding": "inplace",
        "label": "struct InsurancePoolStore.UnstakeRequest",
        "members": [
          {
            "astId": 14936,
            "contract": "contracts/miserable-flight/InsurancePool.sol:InsurancePool",
            "label": "pendingAmount",
            "offset": 0,
            "slot": "0",
            "type": "t_uint256"
          },
          {
            "astId": 14938,
            "contract": "contracts/miserable-flight/InsurancePool.sol:InsurancePool",
            "label": "fulfilledAmount",
            "offset": 0,
            "slot": "1",
            "type": "t_uint256"
          },
          {
            "astId": 14940,
            "contract": "contracts/miserable-flight/InsurancePool.sol:InsurancePool",
            "label": "isPaidOut",
            "offset": 0,
            "slot": "2",
            "type": "t_bool"
          }
        ],
        "numberOfBytes": "96"
      },
      "t_struct(UserInfo)14929_storage": {
        "encoding": "inplace",
        "label": "struct InsurancePoolStore.UserInfo",
        "members": [
          {
            "astId": 14926,
            "contract": "contracts/miserable-flight/InsurancePool.sol:InsurancePool",
            "label": "depositTime",
            "offset": 0,
            "slot": "0",
            "type": "t_uint256"
          },
          {
            "astId": 14928,
            "contract": "contracts/miserable-flight/InsurancePool.sol:InsurancePool",
            "label": "pendingBalance",
            "offset": 0,
            "slot": "1",
            "type": "t_uint256"
          }
        ],
        "numberOfBytes": "64"
      },
      "t_uint256": {
        "encoding": "inplace",
        "label": "uint256",
        "numberOfBytes": "32"
      }
    }
  }
}