{
  "address": "0x9A676e781A523b5d0C0e43731313A708CB607508",
  "abi": [
    {
      "inputs": [
        {
          "internalType": "address",
          "name": "_usdt",
          "type": "address"
        },
        {
          "internalType": "address",
          "name": "_factory",
          "type": "address"
        },
        {
          "internalType": "address",
          "name": "_priceGetter",
          "type": "address"
        }
      ],
      "stateMutability": "nonpayable",
      "type": "constructor"
    },
    {
      "anonymous": false,
      "inputs": [
        {
          "indexed": false,
          "internalType": "address",
          "name": "payerAddress",
          "type": "address"
        },
        {
          "indexed": false,
          "internalType": "address",
          "name": "userAddress",
          "type": "address"
        },
        {
          "indexed": false,
          "internalType": "string",
          "name": "policyTokenName",
          "type": "string"
        },
        {
          "indexed": false,
          "internalType": "address",
          "name": "stablecoin",
          "type": "address"
        },
        {
          "indexed": false,
          "internalType": "uint256",
          "name": "amount",
          "type": "uint256"
        }
      ],
      "name": "DelegateDeposit",
      "type": "event"
    },
    {
      "anonymous": false,
      "inputs": [
        {
          "indexed": false,
          "internalType": "address",
          "name": "userAddress",
          "type": "address"
        },
        {
          "indexed": false,
          "internalType": "string",
          "name": "policyTokenName",
          "type": "string"
        },
        {
          "indexed": false,
          "internalType": "address",
          "name": "stablecoin",
          "type": "address"
        },
        {
          "indexed": false,
          "internalType": "uint256",
          "name": "amount",
          "type": "uint256"
        }
      ],
      "name": "Deposit",
      "type": "event"
    },
    {
      "anonymous": false,
      "inputs": [
        {
          "indexed": false,
          "internalType": "address",
          "name": "newEmergencyPool",
          "type": "address"
        }
      ],
      "name": "EmergencyPoolChanged",
      "type": "event"
    },
    {
      "anonymous": false,
      "inputs": [
        {
          "indexed": false,
          "internalType": "string",
          "name": "_policyTokenName",
          "type": "string"
        },
        {
          "indexed": false,
          "internalType": "uint256",
          "name": "price",
          "type": "uint256"
        },
        {
          "indexed": false,
          "internalType": "bool",
          "name": "isHappened",
          "type": "bool"
        }
      ],
      "name": "FinalResultSettled",
      "type": "event"
    },
    {
      "anonymous": false,
      "inputs": [
        {
          "indexed": false,
          "internalType": "address",
          "name": "_policyTokenAddress",
          "type": "address"
        },
        {
          "indexed": false,
          "internalType": "address",
          "name": "_stablecoin",
          "type": "address"
        }
      ],
      "name": "FinishSettlementPolicies",
      "type": "event"
    },
    {
      "anonymous": false,
      "inputs": [
        {
          "indexed": false,
          "internalType": "address",
          "name": "newLotteryAddress",
          "type": "address"
        }
      ],
      "name": "LotteryChanged",
      "type": "event"
    },
    {
      "anonymous": false,
      "inputs": [
        {
          "indexed": false,
          "internalType": "address",
          "name": "newRouter",
          "type": "address"
        }
      ],
      "name": "NaughtyRouterChanged",
      "type": "event"
    },
    {
      "anonymous": false,
      "inputs": [
        {
          "indexed": false,
          "internalType": "address",
          "name": "_newStablecoin",
          "type": "address"
        }
      ],
      "name": "NewStablecoinAdded",
      "type": "event"
    },
    {
      "anonymous": false,
      "inputs": [
        {
          "indexed": true,
          "internalType": "address",
          "name": "previousOwner",
          "type": "address"
        },
        {
          "indexed": true,
          "internalType": "address",
          "name": "newOwner",
          "type": "address"
        }
      ],
      "name": "OwnershipTransferred",
      "type": "event"
    },
    {
      "anonymous": false,
      "inputs": [
        {
          "indexed": false,
          "internalType": "string",
          "name": "tokenName",
          "type": "string"
        },
        {
          "indexed": false,
          "internalType": "address",
          "name": "tokenAddress",
          "type": "address"
        },
        {
          "indexed": false,
          "internalType": "uint256",
          "name": "deadline",
          "type": "uint256"
        },
        {
          "indexed": false,
          "internalType": "uint256",
          "name": "settleTimestamp",
          "type": "uint256"
        }
      ],
      "name": "PolicyTokenDeployed",
      "type": "event"
    },
    {
      "anonymous": false,
      "inputs": [
        {
          "indexed": false,
          "internalType": "address",
          "name": "poolAddress",
          "type": "address"
        },
        {
          "indexed": false,
          "internalType": "address",
          "name": "policyTokenAddress",
          "type": "address"
        },
        {
          "indexed": false,
          "internalType": "address",
          "name": "stablecoin",
          "type": "address"
        }
      ],
      "name": "PoolDeployed",
      "type": "event"
    },
    {
      "inputs": [
        {
          "internalType": "string",
          "name": "_tokenName",
          "type": "string"
        },
        {
          "internalType": "uint256",
          "name": "_decimals",
          "type": "uint256"
        },
        {
          "internalType": "uint256",
          "name": "_strikePrice",
          "type": "uint256"
        },
        {
          "internalType": "bool",
          "name": "_isCall",
          "type": "bool"
        },
        {
          "internalType": "uint256",
          "name": "_round",
          "type": "uint256"
        }
      ],
      "name": "_generateName",
      "outputs": [
        {
          "internalType": "string",
          "name": "",
          "type": "string"
        }
      ],
      "stateMutability": "pure",
      "type": "function"
    },
    {
      "inputs": [
        {
          "internalType": "address",
          "name": "_newStablecoin",
          "type": "address"
        }
      ],
      "name": "addStablecoin",
      "outputs": [],
      "stateMutability": "nonpayable",
      "type": "function"
    },
    {
      "inputs": [
        {
          "internalType": "address",
          "name": "",
          "type": "address"
        },
        {
          "internalType": "uint256",
          "name": "",
          "type": "uint256"
        }
      ],
      "name": "allDepositors",
      "outputs": [
        {
          "internalType": "address",
          "name": "",
          "type": "address"
        }
      ],
      "stateMutability": "view",
      "type": "function"
    },
    {
      "inputs": [
        {
          "internalType": "uint256",
          "name": "",
          "type": "uint256"
        }
      ],
      "name": "allPolicyTokens",
      "outputs": [
        {
          "internalType": "string",
          "name": "",
          "type": "string"
        }
      ],
      "stateMutability": "view",
      "type": "function"
    },
    {
      "inputs": [
        {
          "internalType": "address",
          "name": "_user",
          "type": "address"
        },
        {
          "internalType": "address",
          "name": "_policyTokenAddress",
          "type": "address"
        }
      ],
      "name": "checkUserQuota",
      "outputs": [
        {
          "internalType": "uint256",
          "name": "_quota",
          "type": "uint256"
        }
      ],
      "stateMutability": "view",
      "type": "function"
    },
    {
      "inputs": [
        {
          "internalType": "string",
          "name": "_policyTokenName",
          "type": "string"
        },
        {
          "internalType": "address",
          "name": "_stablecoin",
          "type": "address"
        },
        {
          "internalType": "uint256",
          "name": "_amount",
          "type": "uint256"
        }
      ],
      "name": "claim",
      "outputs": [],
      "stateMutability": "nonpayable",
      "type": "function"
    },
    {
      "inputs": [],
      "name": "currentDistributionIndex",
      "outputs": [
        {
          "internalType": "uint256",
          "name": "",
          "type": "uint256"
        }
      ],
      "stateMutability": "view",
      "type": "function"
    },
    {
      "inputs": [
        {
          "internalType": "string",
          "name": "_policyTokenName",
          "type": "string"
        },
        {
          "internalType": "address",
          "name": "_stablecoin",
          "type": "address"
        },
        {
          "internalType": "uint256",
          "name": "_amount",
          "type": "uint256"
        },
        {
          "internalType": "address",
          "name": "_user",
          "type": "address"
        }
      ],
      "name": "delegateDeposit",
      "outputs": [],
      "stateMutability": "nonpayable",
      "type": "function"
    },
    {
      "inputs": [
        {
          "internalType": "string",
          "name": "_tokenName",
          "type": "string"
        },
        {
          "internalType": "bool",
          "name": "_isCall",
          "type": "bool"
        },
        {
          "internalType": "uint256",
          "name": "_decimals",
          "type": "uint256"
        },
        {
          "internalType": "uint256",
          "name": "_strikePrice",
          "type": "uint256"
        },
        {
          "internalType": "uint256",
          "name": "_round",
          "type": "uint256"
        },
        {
          "internalType": "uint256",
          "name": "_deadline",
          "type": "uint256"
        },
        {
          "internalType": "uint256",
          "name": "_settleTimestamp",
          "type": "uint256"
        }
      ],
      "name": "deployPolicyToken",
      "outputs": [
        {
          "internalType": "address",
          "name": "",
          "type": "address"
        }
      ],
      "stateMutability": "nonpayable",
      "type": "function"
    },
    {
      "inputs": [
        {
          "internalType": "string",
          "name": "_policyTokenName",
          "type": "string"
        },
        {
          "internalType": "address",
          "name": "_stablecoin",
          "type": "address"
        },
        {
          "internalType": "uint256",
          "name": "_poolDeadline",
          "type": "uint256"
        },
        {
          "internalType": "uint256",
          "name": "_feeRate",
          "type": "uint256"
        }
      ],
      "name": "deployPool",
      "outputs": [
        {
          "internalType": "address",
          "name": "",
          "type": "address"
        }
      ],
      "stateMutability": "nonpayable",
      "type": "function"
    },
    {
      "inputs": [
        {
          "internalType": "string",
          "name": "_policyTokenName",
          "type": "string"
        },
        {
          "internalType": "address",
          "name": "_stablecoin",
          "type": "address"
        },
        {
          "internalType": "uint256",
          "name": "_amount",
          "type": "uint256"
        }
      ],
      "name": "deposit",
      "outputs": [],
      "stateMutability": "nonpayable",
      "type": "function"
    },
    {
      "inputs": [],
      "name": "emergencyPool",
      "outputs": [
        {
          "internalType": "address",
          "name": "",
          "type": "address"
        }
      ],
      "stateMutability": "view",
      "type": "function"
    },
    {
      "inputs": [],
      "name": "factory",
      "outputs": [
        {
          "internalType": "contract INaughtyFactory",
          "name": "",
          "type": "address"
        }
      ],
      "stateMutability": "view",
      "type": "function"
    },
    {
      "inputs": [
        {
          "internalType": "string",
          "name": "_policyTokenName",
          "type": "string"
        }
      ],
      "name": "findAddressbyName",
      "outputs": [
        {
          "internalType": "address",
          "name": "",
          "type": "address"
        }
      ],
      "stateMutability": "view",
      "type": "function"
    },
    {
      "inputs": [
        {
          "internalType": "address",
          "name": "_policyTokenAddress",
          "type": "address"
        }
      ],
      "name": "findNamebyAddress",
      "outputs": [
        {
          "internalType": "string",
          "name": "",
          "type": "string"
        }
      ],
      "stateMutability": "view",
      "type": "function"
    },
    {
      "inputs": [],
      "name": "getAllTokens",
      "outputs": [
        {
          "components": [
            {
              "internalType": "address",
              "name": "policyTokenAddress",
              "type": "address"
            },
            {
              "internalType": "bool",
              "name": "isCall",
              "type": "bool"
            },
            {
              "internalType": "uint256",
              "name": "decimals",
              "type": "uint256"
            },
            {
              "internalType": "uint256",
              "name": "strikePrice",
              "type": "uint256"
            },
            {
              "internalType": "uint256",
              "name": "deadline",
              "type": "uint256"
            },
            {
              "internalType": "uint256",
              "name": "settleTimestamp",
              "type": "uint256"
            }
          ],
          "internalType": "struct PolicyCore.PolicyTokenInfo[]",
          "name": "",
          "type": "tuple[]"
        }
      ],
      "stateMutability": "view",
      "type": "function"
    },
    {
      "inputs": [
        {
          "internalType": "string",
          "name": "_policyTokenName",
          "type": "string"
        }
      ],
      "name": "getPolicyTokenInfo",
      "outputs": [
        {
          "components": [
            {
              "internalType": "address",
              "name": "policyTokenAddress",
              "type": "address"
            },
            {
              "internalType": "bool",
              "name": "isCall",
              "type": "bool"
            },
            {
              "internalType": "uint256",
              "name": "decimals",
              "type": "uint256"
            },
            {
              "internalType": "uint256",
              "name": "strikePrice",
              "type": "uint256"
            },
            {
              "internalType": "uint256",
              "name": "deadline",
              "type": "uint256"
            },
            {
              "internalType": "uint256",
              "name": "settleTimestamp",
              "type": "uint256"
            }
          ],
          "internalType": "struct PolicyCore.PolicyTokenInfo",
          "name": "",
          "type": "tuple"
        }
      ],
      "stateMutability": "view",
      "type": "function"
    },
    {
      "inputs": [],
      "name": "lottery",
      "outputs": [
        {
          "internalType": "address",
          "name": "",
          "type": "address"
        }
      ],
      "stateMutability": "view",
      "type": "function"
    },
    {
      "inputs": [],
      "name": "naughtyRouter",
      "outputs": [
        {
          "internalType": "address",
          "name": "",
          "type": "address"
        }
      ],
      "stateMutability": "view",
      "type": "function"
    },
    {
      "inputs": [],
      "name": "owner",
      "outputs": [
        {
          "internalType": "address",
          "name": "",
          "type": "address"
        }
      ],
      "stateMutability": "view",
      "type": "function"
    },
    {
      "inputs": [
        {
          "internalType": "address",
          "name": "",
          "type": "address"
        }
      ],
      "name": "policyTokenAddressToName",
      "outputs": [
        {
          "internalType": "string",
          "name": "",
          "type": "string"
        }
      ],
      "stateMutability": "view",
      "type": "function"
    },
    {
      "inputs": [
        {
          "internalType": "string",
          "name": "",
          "type": "string"
        }
      ],
      "name": "policyTokenInfoMapping",
      "outputs": [
        {
          "internalType": "address",
          "name": "policyTokenAddress",
          "type": "address"
        },
        {
          "internalType": "bool",
          "name": "isCall",
          "type": "bool"
        },
        {
          "internalType": "uint256",
          "name": "decimals",
          "type": "uint256"
        },
        {
          "internalType": "uint256",
          "name": "strikePrice",
          "type": "uint256"
        },
        {
          "internalType": "uint256",
          "name": "deadline",
          "type": "uint256"
        },
        {
          "internalType": "uint256",
          "name": "settleTimestamp",
          "type": "uint256"
        }
      ],
      "stateMutability": "view",
      "type": "function"
    },
    {
      "inputs": [],
      "name": "priceGetter",
      "outputs": [
        {
          "internalType": "contract IPriceGetter",
          "name": "",
          "type": "address"
        }
      ],
      "stateMutability": "view",
      "type": "function"
    },
    {
      "inputs": [
        {
          "internalType": "string",
          "name": "_policyTokenName",
          "type": "string"
        },
        {
          "internalType": "address",
          "name": "_stablecoin",
          "type": "address"
        },
        {
          "internalType": "uint256",
          "name": "_amount",
          "type": "uint256"
        }
      ],
      "name": "redeem",
      "outputs": [],
      "stateMutability": "nonpayable",
      "type": "function"
    },
    {
      "inputs": [
        {
          "internalType": "string",
          "name": "_policyTokenName",
          "type": "string"
        },
        {
          "internalType": "address",
          "name": "_stablecoin",
          "type": "address"
        }
      ],
      "name": "redeemAfterSettlement",
      "outputs": [],
      "stateMutability": "nonpayable",
      "type": "function"
    },
    {
      "inputs": [],
      "name": "renounceOwnership",
      "outputs": [],
      "stateMutability": "nonpayable",
      "type": "function"
    },
    {
      "inputs": [
        {
          "internalType": "address",
          "name": "_emergencyPool",
          "type": "address"
        }
      ],
      "name": "setEmergencyPool",
      "outputs": [],
      "stateMutability": "nonpayable",
      "type": "function"
    },
    {
      "inputs": [
        {
          "internalType": "address",
          "name": "_lotteryAddress",
          "type": "address"
        }
      ],
      "name": "setLottery",
      "outputs": [],
      "stateMutability": "nonpayable",
      "type": "function"
    },
    {
      "inputs": [
        {
          "internalType": "address",
          "name": "_router",
          "type": "address"
        }
      ],
      "name": "setNaughtyRouter",
      "outputs": [],
      "stateMutability": "nonpayable",
      "type": "function"
    },
    {
      "inputs": [
        {
          "internalType": "string",
          "name": "_policyTokenName",
          "type": "string"
        },
        {
          "internalType": "address",
          "name": "_stablecoin",
          "type": "address"
        },
        {
          "internalType": "uint256",
          "name": "_startIndex",
          "type": "uint256"
        },
        {
          "internalType": "uint256",
          "name": "_stopIndex",
          "type": "uint256"
        }
      ],
      "name": "settleAllPolicyTokens",
      "outputs": [],
      "stateMutability": "nonpayable",
      "type": "function"
    },
    {
      "inputs": [
        {
          "internalType": "string",
          "name": "_policyTokenName",
          "type": "string"
        }
      ],
      "name": "settleFinalResult",
      "outputs": [],
      "stateMutability": "nonpayable",
      "type": "function"
    },
    {
      "inputs": [
        {
          "internalType": "address",
          "name": "",
          "type": "address"
        }
      ],
      "name": "supportedStablecoin",
      "outputs": [
        {
          "internalType": "bool",
          "name": "",
          "type": "bool"
        }
      ],
      "stateMutability": "view",
      "type": "function"
    },
    {
      "inputs": [
        {
          "internalType": "address",
          "name": "newOwner",
          "type": "address"
        }
      ],
      "name": "transferOwnership",
      "outputs": [],
      "stateMutability": "nonpayable",
      "type": "function"
    },
    {
      "inputs": [
        {
          "internalType": "address",
          "name": "",
          "type": "address"
        }
      ],
      "name": "whichStablecoin",
      "outputs": [
        {
          "internalType": "address",
          "name": "",
          "type": "address"
        }
      ],
      "stateMutability": "view",
      "type": "function"
    }
  ],
  "transactionHash": "0x389493fce9d5ed7612d6bc6250848b75f077d31bf7a9af675299316700463f92",
  "args": [
    "0xCf7Ed3AccA5a467e9e704C703E8D87F634fB0Fc9",
    "0xA51c1fc2f0D1a1b8494Ed1FE312d7C3a78Ed91C0",
    "0x0DCd1Bf9A1b36cE34237eEaFef220932846BCD82"
  ],
  "numDeployments": 1,
  "solcInputHash": "a36abfdb18cc74309b593cc1c7bfe74a",
  "bytecode": "0x60806040523480156200001157600080fd5b5060405162003cf338038062003cf3833981016040819052620000349162000117565b6200003f336200008d565b6001600160a01b039283166000908152600a60205260409020805460ff1916600190811790915580549284166001600160a01b0319938416179055600280549190931691161790556200016f565b600080546001600160a01b038381166001600160a01b0319831681178455604051919092169283917f8be0079c531659141344cd1fd0a4f28419497f9722a3daafe3b4186f6b6457e09190a35050565b60006001600160a01b0382165b92915050565b620000fb81620000dd565b81146200010757600080fd5b50565b8051620000ea81620000f0565b600080600060608486031215620001315762000131600080fd5b60006200013f86866200010a565b935050602062000152868287016200010a565b925050604062000165868287016200010a565b9150509250925092565b613b74806200017f6000396000f3fe608060405234801561001057600080fd5b50600436106102065760003560e01c80638da5cb5b1161011a578063ceed1b90116100ad578063e62512371161007c578063e62512371461051a578063eb9132dd1461052d578063f15cac3414610540578063f298083b14610553578063f2fde38b1461056657600080fd5b8063ceed1b90146104c1578063d3628145146104d4578063d4ae823e146104e7578063d9e85c84146104fa57600080fd5b8063bb9febaf116100e9578063bb9febaf14610442578063bd75660b14610455578063c45a01551461048e578063c49df4bf146104ae57600080fd5b80638da5cb5b146103f8578063a59b364514610409578063a815a2211461041c578063ba13a5721461042f57600080fd5b80632a5c792a1161019d5780635cb3b14f1161016c5780635cb3b14f1461036e5780635eb1877e1461039e5780636ff85ea9146103c7578063715018a6146103dd5780637336c38d146103e557600080fd5b80632a5c792a146102c857806338081de2146102dd57806339f67738146102f05780634e75ce891461035b57600080fd5b80631306c0a5116101d95780631306c0a51461026f57806318dd152f1461028f5780631d7ad9d8146102a25780632a48ac9a146102b557600080fd5b8063038440971461020b5780630418945a1461022057806308d89d5f146102335780630dc7264714610246575b600080fd5b61021e610219366004612790565b610579565b005b61021e61022e3660046127fd565b6108af565b61021e61024136600461282f565b610946565b610259610254366004612899565b610b68565b6040516102669190612918565b60405180910390f35b61028261027d366004612929565b610c14565b6040516102669190612975565b61025961029d3660046127fd565b610c4c565b61021e6102b03660046127fd565b610c65565b61021e6102c336600461282f565b610ce9565b6102d0610e6c565b6040516102669190612a5a565b6102596102eb3660046127fd565b610f9c565b6103496102fe366004612790565b8051602081830181018051600782529282019190930120915280546001820154600283015460038401546004909401546001600160a01b03841694600160a01b90940460ff16939086565b60405161026696959493929190612a6b565b610282610369366004612790565b611048565b61039161037c3660046127fd565b600a6020526000908152604090205460ff1681565b6040516102669190612aba565b6102826103ac3660046127fd565b600b602052600090815260409020546001600160a01b031681565b6103d060065481565b6040516102669190612ac8565b61021e611079565b61021e6103f336600461282f565b6110be565b6000546001600160a01b0316610282565b600454610282906001600160a01b031681565b61021e61042a3660046127fd565b611295565b600354610282906001600160a01b031681565b610282610450366004612ad6565b611319565b6103d0610463366004612b54565b6001600160a01b039182166000908152600d6020908152604080832093909416825291909152205490565b6001546104a1906001600160a01b031681565b6040516102669190612bb7565b61021e6104bc366004612bc5565b611509565b6002546104a1906001600160a01b031681565b6102596104e2366004612c14565b61166e565b6102826104f5366004612ca6565b61174a565b61050d610508366004612790565b6119d7565b6040516102669190612d5f565b600554610282906001600160a01b031681565b61021e61053b366004612ad6565b611a58565b61021e61054e366004612d6d565b611be7565b61021e6105613660046127fd565b611da0565b61021e6105743660046127fd565b611e24565b80600060078260405161058c9190612e01565b9081526020016040518091039020600401549050804210156105c95760405162461bcd60e51b81526004016105c090612e5e565b60405180910390fd5b8260006007826040516105dc9190612e01565b9081526040805160209281900383019020546001600160a01b03166000818152600f909352912060010154909150610100900460ff161561062f5760405162461bcd60e51b81526004016105c090612ead565b60006007866040516106419190612e01565b908152604080516020928190038301812060c08201835280546001600160a01b038116808452600160a01b90910460ff16151594830194909452600181015492820192909252600282015460608201526003820154608082015260049091015460a08201529150806106c55760405162461bcd60e51b81526004016105c090612f15565b6001600160a01b0381166000908152600f60209081526040808320600c909252822080549192916106f590612f3b565b80601f016020809104026020016040519081016040528092919081815260200182805461072190612f3b565b801561076e5780601f106107435761010080835404028352916020019161076e565b820191906000526020600020905b81548152906001019060200180831161075157829003601f168201915b505060025460405163f66a1b7160e01b81529495506000946001600160a01b03909116935063f66a1b7192506107a991508590600401612918565b6020604051808303816000875af11580156107c8573d6000803e3d6000fd5b505050506040513d601f19601f820116820180604052508101906107ec9190612f73565b8084556060860151909150600090821080159061080a575085602001515b905060008660600151831115801561082457508660200151155b9050818061082f5750805b61083a57600061083d565b60015b60018601805461010061ffff1990911692151561ff0019169290921791909117908190556040517f4f7bb4bf5b5d9e711ae7506fc1acd843eea9f216861a09c312fefb7e05095a3691610899918f91879160ff90911690612f94565b60405180910390a1505050505050505050505050565b336108c26000546001600160a01b031690565b6001600160a01b0316146108e85760405162461bcd60e51b81526004016105c090612ff1565b6001600160a01b0381166000908152600a602052604090819020805460ff19166001179055517f86b377b6d485043d4a8b2b0c26051f82529ea2d7c23b1188598416473c1230939061093b908390612975565b60405180910390a150565b818180826001600160a01b03166370a08231306040518263ffffffff1660e01b81526004016109759190612975565b602060405180830381865afa158015610992573d6000803e3d6000fd5b505050506040513d601f19601f820116820180604052508101906109b69190612f73565b10156109d45760405162461bcd60e51b81526004016105c090613046565b8460006007826040516109e79190612e01565b908152602001604051809103902060040154905080421015610a1b5760405162461bcd60e51b81526004016105c090612e5e565b6000610a2688611048565b6001600160a01b0381166000908152600f6020526040902060010154909150610100900460ff16610a695760405162461bcd60e51b81526004016105c090613088565b6001600160a01b0381166000908152600f602052604090206001015460ff16610aa45760405162461bcd60e51b81526004016105c0906130e0565b60006103e8610ab5886103de613106565b610abf919061313b565b6040516370a0823160e01b8152909150829088906001600160a01b038316906370a0823190610af2903390600401612975565b602060405180830381865afa158015610b0f573d6000803e3d6000fd5b505050506040513d601f19601f82011682018060405250810190610b339190612f73565b1015610b515760405162461bcd60e51b81526004016105c09061319b565b610b5c838a84611e8f565b50505050505050505050565b60098181548110610b7857600080fd5b906000526020600020016000915090508054610b9390612f3b565b80601f0160208091040260200160405190810160405280929190818152602001828054610bbf90612f3b565b8015610c0c5780601f10610be157610100808354040283529160200191610c0c565b820191906000526020600020905b815481529060010190602001808311610bef57829003601f168201915b505050505081565b600e6020528160005260406000208181548110610c3057600080fd5b6000918252602090912001546001600160a01b03169150829050565b60086020526000908152604090208054610b9390612f3b565b33610c786000546001600160a01b031690565b6001600160a01b031614610c9e5760405162461bcd60e51b81526004016105c090612ff1565b600480546001600160a01b0319166001600160a01b0383161790556040517f6fc32d8d0721139a274b6368b7febce03d80adce9dc0fad439ebb101b22a30949061093b908390612975565b826000600782604051610cfc9190612e01565b908152602001604051809103902060030154905080421115610d305760405162461bcd60e51b81526004016105c0906131f5565b6000610d3b86611048565b6001600160a01b038181166000908152600b6020526040902054919250868116911614610d7a5760405162461bcd60e51b81526004016105c090613246565b6040516370a0823160e01b815284906001600160a01b038716906370a0823190610da8903390600401612975565b602060405180830381865afa158015610dc5573d6000803e3d6000fd5b505050506040513d601f19601f82011682018060405250810190610de99190612f73565b1015610e075760405162461bcd60e51b81526004016105c090613299565b610e1c6001600160a01b038616333087611f08565b610e27818533611f66565b7faad69ef0c77f7c04ba3390022ae56a77ba8686b6cd9530eff3a0a8c38d33e5ad33878787604051610e5c94939291906132a9565b60405180910390a1505050505050565b60095460609060008167ffffffffffffffff811115610e8d57610e8d612695565b604051908082528060200260200182016040528015610ec657816020015b610eb36125bb565b815260200190600190039081610eab5790505b50905060005b82811015610f9557600760098281548110610ee957610ee96132e5565b90600052602060002001604051610f009190613369565b90815260408051918290036020908101832060c08401835280546001600160a01b038116855260ff600160a01b9091041615159184019190915260018101549183019190915260028101546060830152600381015460808301526004015460a08201528251839083908110610f7757610f776132e5565b60200260200101819052508080610f8d90613373565b915050610ecc565b5092915050565b6001600160a01b0381166000908152600860205260409020805460609190610fc390612f3b565b80601f0160208091040260200160405190810160405280929190818152602001828054610fef90612f3b565b801561103c5780601f106110115761010080835404028352916020019161103c565b820191906000526020600020905b81548152906001019060200180831161101f57829003601f168201915b50505050509050919050565b600060078260405161105a9190612e01565b908152604051908190036020019020546001600160a01b031692915050565b3361108c6000546001600160a01b031690565b6001600160a01b0316146110b25760405162461bcd60e51b81526004016105c090612ff1565b6110bc6000612073565b565b818180826001600160a01b03166370a08231306040518263ffffffff1660e01b81526004016110ed9190612975565b602060405180830381865afa15801561110a573d6000803e3d6000fd5b505050506040513d601f19601f8201168201806040525081019061112e9190612f73565b101561114c5760405162461bcd60e51b81526004016105c090613046565b84600060078260405161115f9190612e01565b9081526020016040518091039020600301549050804211156111935760405162461bcd60e51b81526004016105c0906131f5565b60006007886040516111a59190612e01565b908152604080516020928190038301902054336000908152600d84528281206001600160a01b03909216808252919093529120549091508611156111fb5760405162461bcd60e51b81526004016105c0906133c0565b611206818888611e8f565b336000908152600d602090815260408083206001600160a01b0385168452909152812080548892906112399084906133d0565b9091555050336000908152600d602090815260408083206001600160a01b038516845290915290205461128b57336000908152600d602090815260408083206001600160a01b03851684529091528120555b5050505050505050565b336112a86000546001600160a01b031690565b6001600160a01b0316146112ce5760405162461bcd60e51b81526004016105c090612ff1565b600580546001600160a01b0319166001600160a01b0383161790556040517f82b306b4712e26cb08bc1bd049ca46818dea8d7bacdd8988f7557fd887a49e0f9061093b908390612975565b60003361132e6000546001600160a01b031690565b6001600160a01b0316146113545760405162461bcd60e51b81526004016105c090612ff1565b6001600160a01b0384166000908152600a6020526040902054849060ff1615156001146113935760405162461bcd60e51b81526004016105c09061342a565b8560006001600160a01b03166007826040516113af9190612e01565b908152604051908190036020019020546001600160a01b031614156113e65760405162461bcd60e51b81526004016105c090613492565b4285116114055760405162461bcd60e51b81526004016105c0906134c5565b600061141088611048565b60015460405163074bed3f60e31b81529192506000916001600160a01b0390911690633a5f69f89061144c9085908c908c908c906004016134d5565b6020604051808303816000875af115801561146b573d6000803e3d6000fd5b505050506040513d601f19601f8201168201806040525081019061148f9190613508565b6001600160a01b038381166000908152600b60205260409081902080546001600160a01b031916928c1692909217909155519091507f04c12766244f2559dd215eecd69f70fdfce0e2c2260b5d52cb8b63738622eaa4906114f590839085908c90613529565b60405180910390a198975050505050505050565b600061151483611048565b6001600160a01b0381166000908152600f60209081526040918290208251606081018452815480825260019092015460ff808216151594830194909452610100900490921615159282019290925291925015801590611574575080604001515b6115905760405162461bcd60e51b81526004016105c090613088565b6020810151156115b25760405162461bcd60e51b81526004016105c0906135a2565b336000908152600d602090815260408083206001600160a01b03861684529091529020546115f25760405162461bcd60e51b81526004016105c09061360a565b336000908152600d602090815260408083206001600160a01b0386168452909152812054906103e8611626836103de613106565b611630919061313b565b905061163d848683611e8f565b5050336000908152600d602090815260408083206001600160a01b0395909516835293905291822091909155505050565b606060008361169657604051806040016040528060018152602001601360fa1b8152506116b1565b604051806040016040528060018152602001600960fb1b8152505b905060006116c7670de0b6b3a76400008761313b565b905060006116d68860126133d0565b6116e190600a613728565b6116f590670de0b6b3a7640000890661313b565b9050600089611703846120c3565b61170c846120c3565b866117168a6120c3565b60405160200161172a959493929190613751565b60408051601f198184030181529190529450505050505b95945050505050565b60003361175f6000546001600160a01b031690565b6001600160a01b0316146117855760405162461bcd60e51b81526004016105c090612ff1565b60128611156117a65760405162461bcd60e51b81526004016105c0906137e7565b4283116117c55760405162461bcd60e51b81526004016105c0906134c5565b60006117d48988888b8961166e565b60015460405163781e309960e11b81529192506000916001600160a01b039091169063f03c61329061180a908590600401612918565b6020604051808303816000875af1158015611829573d6000803e3d6000fd5b505050506040513d601f19601f8201168201806040525081019061184d9190613508565b90506040518060c00160405280826001600160a01b031681526020018a15158152602001898152602001888152602001868152602001858152506007836040516118979190612e01565b9081526040805191829003602090810190922083518154858501511515600160a01b026001600160a81b03199091166001600160a01b0392831617178255848301516001830155606085015160028301556080850151600383015560a0909401516004909101559183166000908152600c8252919091208b5161191c928d01906125fc565b506001600160a01b03811660009081526008602090815260409091208351611946928501906125fc565b5060098054600181018255600091909152825161198a917f6e1540171b6c0c960b71a7020d9f60077f6af931a8bbf590da0223dacf75c7af019060208501906125fc565b507f405ecebb090d5b2eb1eff17eae8e649a7c79591418988c347b8e641f46f9b034828287876040516119c094939291906137f7565b60405180910390a19150505b979650505050505050565b6119df6125bb565b6007826040516119ef9190612e01565b90815260408051918290036020908101832060c08401835280546001600160a01b038116855260ff600160a01b9091041615159184019190915260018101549183019190915260028101546060830152600381015460808301526004015460a082015292915050565b33611a6b6000546001600160a01b031690565b6001600160a01b031614611a915760405162461bcd60e51b81526004016105c090612ff1565b6000611a9c85611048565b6001600160a01b0381166000908152600f60209081526040918290208251606081018452815480825260019092015460ff808216151594830194909452610100900490921615159282019290925291925015801590611b015750604081015115156001145b611b1d5760405162461bcd60e51b81526004016105c090613088565b602081015115611b3f5760405162461bcd60e51b81526004016105c0906135a2565b83158015611b4b575082155b15611b80576001600160a01b0382166000908152600e602052604081205490611b789084908890846121c9565b600655611bb3565b8360065414611ba15760405162461bcd60e51b81526004016105c090613864565b611bad828686866121c9565b60068390555b6001600160a01b0382166000908152600e60205260409020546006541415611bdf57611bdf82866122b9565b505050505050565b836000600782604051611bfa9190612e01565b908152602001604051809103902060030154905080421115611c2e5760405162461bcd60e51b81526004016105c0906131f5565b6005546001600160a01b0316336001600160a01b031614611c615760405162461bcd60e51b81526004016105c0906138b4565b6000611c6c87611048565b6001600160a01b038181166000908152600b6020526040902054919250878116911614611cab5760405162461bcd60e51b81526004016105c090613246565b6040516370a0823160e01b815285906001600160a01b038816906370a0823190611cd9908890600401612975565b602060405180830381865afa158015611cf6573d6000803e3d6000fd5b505050506040513d601f19601f82011682018060405250810190611d1a9190612f73565b1015611d385760405162461bcd60e51b81526004016105c090613299565b611d4d6001600160a01b038716853088611f08565b611d58818686611f66565b7f99f877ebe25ff1544a89db7db58d9d0b180af2288344cf1792272a4a07fd7c993385898989604051611d8f9594939291906138c4565b60405180910390a150505050505050565b33611db36000546001600160a01b031690565b6001600160a01b031614611dd95760405162461bcd60e51b81526004016105c090612ff1565b600380546001600160a01b0319166001600160a01b0383161790556040517f925ca4fe13c96d03d284548722ea2b894a5c446495703091e537b85dc54a2a079061093b908390612975565b33611e376000546001600160a01b031690565b6001600160a01b031614611e5d5760405162461bcd60e51b81526004016105c090612ff1565b6001600160a01b038116611e835760405162461bcd60e51b81526004016105c09061394e565b611e8c81612073565b50565b611ea36001600160a01b038316338361240d565b604051632770a7eb60e21b81526001600160a01b03841690639dc29fac90611ed1903390859060040161395e565b600060405180830381600087803b158015611eeb57600080fd5b505af1158015611eff573d6000803e3d6000fd5b50505050505050565b611f60846323b872dd60e01b858585604051602401611f2993929190613979565b60408051601f198184030181529190526020810180516001600160e01b03166001600160e01b031990931692909217909152612431565b50505050565b6040516340c10f1960e01b815283906001600160a01b038216906340c10f1990611f96908590879060040161395e565b600060405180830381600087803b158015611fb057600080fd5b505af1158015611fc4573d6000803e3d6000fd5b505050506001600160a01b038281166000908152600d6020908152604080832093881683529290522054612031576001600160a01b038481166000908152600e602090815260408220805460018101825590835291200180546001600160a01b0319169184169190911790555b6001600160a01b038083166000908152600d60209081526040808320938816835292905290812080548592906120689084906139a1565b909155505050505050565b600080546001600160a01b038381166001600160a01b0319831681178455604051919092169283917f8be0079c531659141344cd1fd0a4f28419497f9722a3daafe3b4186f6b6457e09190a35050565b6060816120e75750506040805180820190915260018152600360fc1b602082015290565b8160005b811561211157806120fb81613373565b915061210a9050600a8361313b565b91506120eb565b60008167ffffffffffffffff81111561212c5761212c612695565b6040519080825280601f01601f191660200182016040528015612156576020820181803683370190505b5090505b84156121c15761216b6001836133d0565b9150612178600a866139b9565b6121839060306139a1565b60f81b818381518110612198576121986132e5565b60200101906001600160f81b031916908160001a9053506121ba600a8661313b565b945061215a565b949350505050565b815b818110156122b2576001600160a01b0385166000908152600e602052604081208054839081106121fd576121fd6132e5565b60009182526020808320909101546001600160a01b03908116808452600d83526040808520928b16855291909252822054909250906103e8612241836103de613106565b61224b919061313b565b90508015612294576122676001600160a01b038816848361240d565b6001600160a01b038084166000908152600d60209081526040808320938c1683529290529081205561229c565b5050506122a0565b5050505b806122aa81613373565b9150506121cb565b5050505050565b600060068190556040516370a0823160e01b81526001600160a01b038316906370a08231906122ec903090600401612975565b602060405180830381865afa158015612309573d6000803e3d6000fd5b505050506040513d601f19601f8201168201806040525081019061232d9190612f73565b90506000600a61233e836008613106565b612348919061313b565b9050600061235682846133d0565b6003549091506001600160a01b03161580159061237d57506004546001600160a01b031615155b6123995760405162461bcd60e51b81526004016105c0906139ff565b6003546123b3906001600160a01b0386811691168461240d565b6004546123cd906001600160a01b0386811691168361240d565b7f9be8aebde8bc066adab8cd0ac86eaa76eddd5d8e421a8c4428f1b2811dee890d85856040516123fe929190613a0f565b60405180910390a15050505050565b61242c8363a9059cbb60e01b8484604051602401611f2992919061395e565b505050565b6000612486826040518060400160405280602081526020017f5361666545524332303a206c6f772d6c6576656c2063616c6c206661696c6564815250856001600160a01b03166124c09092919063ffffffff16565b80519091501561242c57808060200190518101906124a49190613a35565b61242c5760405162461bcd60e51b81526004016105c090613a9b565b60606124cf84846000856124d9565b90505b9392505050565b6060824710156124fb5760405162461bcd60e51b81526004016105c090613aec565b843b6125195760405162461bcd60e51b81526004016105c090613b2e565b600080866001600160a01b031685876040516125359190612e01565b60006040518083038185875af1925050503d8060008114612572576040519150601f19603f3d011682016040523d82523d6000602084013e612577565b606091505b50915091506119cc828286606083156125915750816124d2565b8251156125a15782518084602001fd5b8160405162461bcd60e51b81526004016105c09190612918565b6040518060c0016040528060006001600160a01b03168152602001600015158152602001600081526020016000815260200160008152602001600081525090565b82805461260890612f3b565b90600052602060002090601f01602090048101928261262a5760008555612670565b82601f1061264357805160ff1916838001178555612670565b82800160010185558215612670579182015b82811115612670578251825591602001919060010190612655565b5061267c929150612680565b5090565b5b8082111561267c5760008155600101612681565b634e487b7160e01b600052604160045260246000fd5b601f19601f830116810181811067ffffffffffffffff821117156126d1576126d1612695565b6040525050565b60006126e360405190565b90506126ef82826126ab565b919050565b600067ffffffffffffffff82111561270e5761270e612695565b601f19601f83011660200192915050565b82818337506000910152565b600061273e612739846126f4565b6126d8565b90508281526020810184848401111561275957612759600080fd5b61276484828561271f565b509392505050565b600082601f83011261278057612780600080fd5b81356121c184826020860161272b565b6000602082840312156127a5576127a5600080fd5b813567ffffffffffffffff8111156127bf576127bf600080fd5b6121c18482850161276c565b60006001600160a01b0382165b92915050565b6127e7816127cb565b8114611e8c57600080fd5b80356127d8816127de565b60006020828403121561281257612812600080fd5b60006121c184846127f2565b806127e7565b80356127d88161281e565b60008060006060848603121561284757612847600080fd5b833567ffffffffffffffff81111561286157612861600080fd5b61286d8682870161276c565b935050602061287e868287016127f2565b925050604061288f86828701612824565b9150509250925092565b6000602082840312156128ae576128ae600080fd5b60006121c18484612824565b60005b838110156128d55781810151838201526020016128bd565b83811115611f605750506000910152565b60006128f0825190565b8084526020840193506129078185602086016128ba565b601f01601f19169290920192915050565b602080825281016124d281846128e6565b6000806040838503121561293f5761293f600080fd5b600061294b85856127f2565b925050602061295c85828601612824565b9150509250929050565b61296f816127cb565b82525050565b602081016127d88284612966565b80151561296f565b8061296f565b805161299d8382612966565b5060208101516129b06020840182612983565b5060408101516129c3604084018261298b565b5060608101516129d6606084018261298b565b5060808101516129e9608084018261298b565b5060a081015161242c60a084018261298b565b612a068282612991565b5060c00190565b60200190565b6000612a1d825190565b808452602093840193830160005b82811015612a50578151612a3f87826129fc565b965050602082019150600101612a2b565b5093949350505050565b602080825281016124d28184612a13565b60c08101612a798289612966565b612a866020830188612983565b612a93604083018761298b565b612aa0606083018661298b565b612aad608083018561298b565b6119cc60a083018461298b565b602081016127d88284612983565b602081016127d8828461298b565b60008060008060808587031215612aef57612aef600080fd5b843567ffffffffffffffff811115612b0957612b09600080fd5b612b158782880161276c565b9450506020612b26878288016127f2565b9350506040612b3787828801612824565b9250506060612b4887828801612824565b91505092959194509250565b60008060408385031215612b6a57612b6a600080fd5b6000612b7685856127f2565b925050602061295c858286016127f2565b60006001600160a01b0382166127d8565b60006127d882612b87565b60006127d882612b98565b61296f81612ba3565b602081016127d88284612bae565b60008060408385031215612bdb57612bdb600080fd5b823567ffffffffffffffff811115612bf557612bf5600080fd5b612b768582860161276c565b8015156127e7565b80356127d881612c01565b600080600080600060a08688031215612c2f57612c2f600080fd5b853567ffffffffffffffff811115612c4957612c49600080fd5b612c558882890161276c565b9550506020612c6688828901612824565b9450506040612c7788828901612824565b9350506060612c8888828901612c09565b9250506080612c9988828901612824565b9150509295509295909350565b600080600080600080600060e0888a031215612cc457612cc4600080fd5b873567ffffffffffffffff811115612cde57612cde600080fd5b612cea8a828b0161276c565b9750506020612cfb8a828b01612c09565b9650506040612d0c8a828b01612824565b9550506060612d1d8a828b01612824565b9450506080612d2e8a828b01612824565b93505060a0612d3f8a828b01612824565b92505060c0612d508a828b01612824565b91505092959891949750929550565b60c081016127d88284612991565b60008060008060808587031215612d8657612d86600080fd5b843567ffffffffffffffff811115612da057612da0600080fd5b612dac8782880161276c565b9450506020612dbd878288016127f2565b9350506040612dce87828801612824565b9250506060612b48878288016127f2565b6000612de9825190565b612df78185602086016128ba565b9290920192915050565b6127d88183612ddf565b60368152602081017f43616e206e6f7420736574746c652f636c61696d2c2068617665206e6f742072815275065616368656420736574746c6554696d657374616d760541b602082015290505b60400190565b602080825281016127d881612e0b565b60248152602081017f5468697320706f6c6963792068617320616c7265616479206265656e207365748152631d1b195960e21b60208201529050612e58565b602080825281016127d881612e6e565b603e8152602081017f5468697320706f6c69637920746f6b656e20646f6573206e6f7420657869737481527f2c206d6179626520796f7520696e70757420612077726f6e67206e616d65000060208201529050612e58565b602080825281016127d881612ebd565b634e487b7160e01b600052602260045260246000fd5b600281046001821680612f4f57607f821691505b60208210811415612f6257612f62612f25565b50919050565b80516127d88161281e565b600060208284031215612f8857612f88600080fd5b60006121c18484612f68565b60608082528101612fa581866128e6565b9050612fb4602083018561298b565b6121c16040830184612983565b60208082527f4f776e61626c653a2063616c6c6572206973206e6f7420746865206f776e65729101908152612a0d565b602080825281016127d881612fc1565b602a8152602081017f4e6f742073756666696369656e7420737461626c65636f696e7320696e207468815269194818dbdb9d1c9858dd60b21b60208201529050612e58565b602080825281016127d881613001565b601e8152602081017f48617665206e6f7420676f7420746865206f7261636c6520726573756c74000081529050612a0d565b602080825281016127d881613056565b602d8152602081017f54686520726573756c7420646f6573206e6f742068617070656e2c20796f752081526c63616e206e6f7420636c61696d60981b60208201529050612e58565b602080825281016127d881613098565b634e487b7160e01b600052601160045260246000fd5b6000816000190483118215151615613120576131206130f0565b500290565b634e487b7160e01b600052601260045260246000fd5b60008261314a5761314a613125565b500490565b60318152602081017f596f7520646f206e6f7420686176652073756666696369656e7420706f6c69638152707920746f6b656e7320746f20636c61696d60781b60208201529050612e58565b602080825281016127d88161314f565b602f8152602081017f43616e206e6f74206465706f7369742f72656465656d2c20686173207061737381526e65642074686520646561646c696e6560881b60208201529050612e58565b602080825281016127d8816131ab565b60268152602081017f506f6c696379546f6b656e20616e6420737461626c65636f696e206e6f74206d815265185d18da195960d21b60208201529050612e58565b602080825281016127d881613205565b60288152602081017f55736572277320737461626c65636f696e2062616c616e6365206e6f7420737581526719999a58da595b9d60c21b60208201529050612e58565b602080825281016127d881613256565b608081016132b78287612966565b81810360208301526132c981866128e6565b90506132d86040830185612966565b611741606083018461298b565b634e487b7160e01b600052603260045260246000fd5b6000815461330881612f3b565b60018216801561331f576001811461333057613360565b60ff19831686528186019350613360565b60008581526020902060005b838110156133585781548882015260019091019060200161333c565b505081860193505b50505092915050565b6127d881836132fb565b6000600019821415613387576133876130f0565b5060010190565b601b8152602081017f5573657227732071756f7461206e6f742073756666696369656e74000000000081529050612a0d565b602080825281016127d88161338e565b6000828210156133e2576133e26130f0565b500390565b60288152602081017f446f206e6f7420737570706f7274207468697320737461626c65636f696e2063815267757272656e746c7960c01b60208201529050612e58565b602080825281016127d8816133e7565b603f8152602081017f5468697320706f6c69637920746f6b656e20686173206e6f74206265656e206481527f65706c6f7965642c20706c65617365206465706c6f792069742066697273740060208201529050612e58565b602080825281016127d88161343a565b600e8152602081016d57726f6e6720646561646c696e6560901b81529050612a0d565b602080825281016127d8816134a2565b608081016134e38287612966565b6134f06020830186612966565b6132d8604083018561298b565b80516127d8816127de565b60006020828403121561351d5761351d600080fd5b60006121c184846134fd565b606081016135378286612966565b6135446020830185612966565b6121c16040830184612966565b60368152602081017f4f6e6c792063616c6c20746869732066756e6374696f6e207768656e207468658152751032bb32b73a103237b2b9903737ba103430b83832b760511b60208201529050612e58565b602080825281016127d881613551565b603b8152602081017f4e6f2071756f74612c20796f7520646964206e6f74206465706f73697420616e81527f64206d696e7420706f6c69637920746f6b656e73206265666f7265000000000060208201529050612e58565b602080825281016127d8816135b2565b80825b600185111561365957808604811115613638576136386130f0565b600185161561364657908102905b80026136528560011c90565b945061361d565b94509492505050565b600082613671575060016124d2565b8161367e575060006124d2565b8160018114613694576002811461369e576136cb565b60019150506124d2565b60ff8411156136af576136af6130f0565b8360020a9150848211156136c5576136c56130f0565b506124d2565b5060208310610133831016604e8410600b84101617156136fe575081810a838111156136f9576136f96130f0565b6124d2565b61370b848484600161361a565b92509050818404811115613721576137216130f0565b0292915050565b60006124d26000198484613662565b605f60f81b81525b60010190565b601760f91b815261373f565b61375b8187612ddf565b905061376681613737565b90506137728186612ddf565b905061377d81613745565b90506137898185612ddf565b905061379481613737565b90506137a08184612ddf565b90506137ab81613737565b90506137b78183612ddf565b9695505050505050565b601181526020810170546f6f206d616e7920646563696d616c7360781b81529050612a0d565b602080825281016127d8816137c1565b6080808252810161380881876128e6565b90506134f06020830186612966565b60328152602081017f596f75206e65656420746f2073746172742066726f6d20746865206c61737420815271191a5cdd1c9a589d5d1a5bdb881c1bda5b9d60721b60208201529050612e58565b602080825281016127d881613817565b60258152602081017f4f6e6c792074686520726f7574657220636f6e74726163742063616e2064656c815264656761746560d81b60208201529050612e58565b602080825281016127d881613874565b60a081016138d28288612966565b6138df6020830187612966565b81810360408301526138f181866128e6565b90506139006060830185612966565b6137b7608083018461298b565b60268152602081017f4f776e61626c653a206e6577206f776e657220697320746865207a65726f206181526564647265737360d01b60208201529050612e58565b602080825281016127d88161390d565b6040810161396c8285612966565b6124d2602083018461298b565b606081016139878286612966565b6139946020830185612966565b6121c1604083018461298b565b600082198211156139b4576139b46130f0565b500190565b6000826139c8576139c8613125565b500690565b601e8152602081017f506c656173652073657420746865206c6f74746572792061646472657373000081529050612a0d565b602080825281016127d8816139cd565b60408101613a1d8285612966565b6124d26020830184612966565b80516127d881612c01565b600060208284031215613a4a57613a4a600080fd5b60006121c18484613a2a565b602a8152602081017f5361666545524332303a204552433230206f7065726174696f6e20646964206e8152691bdd081cdd58d8d9595960b21b60208201529050612e58565b602080825281016127d881613a56565b60268152602081017f416464726573733a20696e73756666696369656e742062616c616e636520666f8152651c8818d85b1b60d21b60208201529050612e58565b602080825281016127d881613aab565b601d8152602081017f416464726573733a2063616c6c20746f206e6f6e2d636f6e747261637400000081529050612a0d565b602080825281016127d881613afc56fea2646970667358221220f136d5157385ecfa0d8b77b2ff52820af1c0f01f35c3756e49f6cbeb37930da564736f6c634300080a0033",
  "devdoc": {
    "details": "Most of the functions to be called from outside will use the name of policyToken         rather than the address (easy to read).         Other variables or functions still use address to index.         The rule of policyToken naming is Original Token Name + Strike Price + Lower or Higher + Date         E.g.  AVAX_30_L_2101, BTC_30000_L_2102, ETH_8000_H_2109",
    "kind": "dev",
    "methods": {
      "_generateName(string,uint256,uint256,bool,uint256)": {
        "params": {
          "_decimals": "Decimals of the name generation (0,1=>1)",
          "_isCall": "The policy's payoff is triggered when higher or lower",
          "_round": "Round of the policy (e.g. 2112, 2201)",
          "_strikePrice": "Strike price of the policy",
          "_tokenName": "Name of the token"
        }
      },
      "addStablecoin(address)": {
        "params": {
          "_newStablecoin": "Address of the new stablecoin"
        }
      },
      "checkUserQuota(address,address)": {
        "params": {
          "_policyTokenAddress": "Address of the policy token",
          "_user": "Address of the user to be checked"
        },
        "returns": {
          "_quota": "User's quota result"
        }
      },
      "claim(string,address,uint256)": {
        "details": "It is done after result settlement and only if the result is true",
        "params": {
          "_amount": "Amount of USDT (also the amount of policy tokens)",
          "_policyTokenName": "Name of the policy token",
          "_stablecoin": "Address of the stable coin"
        }
      },
      "constructor": {
        "params": {
          "_factory": "Address of naughty factory",
          "_priceGetter": "Address of the oracle contract",
          "_usdt": "USDT is the first stablecoin supported in the pool"
        }
      },
      "delegateDeposit(string,address,uint256,address)": {
        "details": "Only called by the router contract",
        "params": {
          "_amount": "Amount of stablecoin (also the amount of policy tokens)",
          "_policyTokenName": "Name of the policy token",
          "_stablecoin": "Address of the sable coin",
          "_user": "Address to receive the policy tokens"
        }
      },
      "deployPolicyToken(string,bool,uint256,uint256,uint256,uint256,uint256)": {
        "details": "Only the owner can deploy new policy token      The name form is like \"AVAX_50_L_202101\" and is built inside the contract.",
        "params": {
          "_deadline": "Deadline of this policy token (deposit / redeem / swap)",
          "_decimals": "Decimals of this token's price (0~18)",
          "_isCall": "The policy is for higher or lower than the strike price (call / put)",
          "_settleTimestamp": "Can settle after this timestamp (for oracle)",
          "_strikePrice": "Strike price of the policy (have already been transferred with 1e18)",
          "_tokenName": "Name of the original token (e.g. AVAX, BTC, ETH...)"
        },
        "returns": {
          "_0": "policyTokenAddress The address of the policy token just deployed"
        }
      },
      "deployPool(string,address,uint256,uint256)": {
        "params": {
          "_feeRate": "Fee rate given to LP holders",
          "_policyTokenName": "Name of the policy token",
          "_poolDeadline": "Swapping deadline of the pool",
          "_stablecoin": "Address of the stable coin"
        },
        "returns": {
          "_0": "poolAddress The address of the pool just deployed"
        }
      },
      "deposit(string,address,uint256)": {
        "params": {
          "_amount": "Amount of stablecoin (also the amount of policy tokens)",
          "_policyTokenName": "Name of the policy token",
          "_stablecoin": "Address of the sable coin"
        }
      },
      "findAddressbyName(string)": {
        "params": {
          "_policyTokenName": "Name of the policy token (e.g. \"AVAX_30_L_2103\")"
        },
        "returns": {
          "_0": "policyTokenAddress Address of the policy token"
        }
      },
      "findNamebyAddress(address)": {
        "params": {
          "_policyTokenAddress": "Address of the policy token"
        },
        "returns": {
          "_0": "policyTokenName Name of the policy token"
        }
      },
      "getAllTokens()": {
        "returns": {
          "_0": "tokensInfo Token information list"
        }
      },
      "getPolicyTokenInfo(string)": {
        "params": {
          "_policyTokenName": "Name of the policy token (e.g. \"AVAX30L202103\")"
        },
        "returns": {
          "_0": "policyTokenInfo PolicyToken detail information"
        }
      },
      "redeem(string,address,uint256)": {
        "details": "Redeem happens before the deadline and is different from claim/settle",
        "params": {
          "_amount": "Amount of USDT (also the amount of policy tokens)",
          "_policyTokenName": "Name of the policy token",
          "_stablecoin": "Address of the stablecoin"
        }
      },
      "redeemAfterSettlement(string,address)": {
        "params": {
          "_policyTokenName": "Name of the policy token",
          "_stablecoin": "Address of the stablecoin"
        }
      },
      "renounceOwnership()": {
        "details": "Renouncing ownership will leave the contract without an owner,         thereby removing any functionality that is only available to the owner."
      },
      "setEmergencyPool(address)": {
        "params": {
          "_emergencyPool": "Address of the new emergencyPool"
        }
      },
      "setLottery(address)": {
        "params": {
          "_lotteryAddress": "Address of the new lottery"
        }
      },
      "setNaughtyRouter(address)": {
        "params": {
          "_router": "Address of the new naughty router"
        }
      },
      "settleAllPolicyTokens(string,address,uint256,uint256)": {
        "details": "Take care of the gas cost and can use the _startIndex and _stopIndex to control the size",
        "params": {
          "_policyTokenName": "Name of policy token",
          "_stablecoin": "Address of stablecoin",
          "_startIndex": "Settlement start index",
          "_stopIndex": "Settlement stop index"
        }
      },
      "settleFinalResult(string)": {
        "params": {
          "_policyTokenName": "Name of the policy token"
        }
      },
      "transferOwnership(address)": {
        "details": "Can only be called by the current owner.",
        "params": {
          "newOwner": "Address of the new owner"
        }
      }
    },
    "title": "PolicyCore",
    "version": 1
  },
  "userdoc": {
    "kind": "user",
    "methods": {
      "_generateName(string,uint256,uint256,bool,uint256)": {
        "notice": "Generate the policy token name"
      },
      "addStablecoin(address)": {
        "notice": "Add a newly supported stablecoin"
      },
      "checkUserQuota(address,address)": {
        "notice": "Check a user's quota for a certain policy token"
      },
      "claim(string,address,uint256)": {
        "notice": "Claim a payoff based on policy tokens"
      },
      "constructor": {
        "notice": "Constructor, for some addresses"
      },
      "delegateDeposit(string,address,uint256,address)": {
        "notice": "Delegate deposit (deposit and mint for other addresses)"
      },
      "deployPolicyToken(string,bool,uint256,uint256,uint256,uint256,uint256)": {
        "notice": "Deploy a new policy token and return the token address"
      },
      "deployPool(string,address,uint256,uint256)": {
        "notice": "Deploy a new pair (pool)"
      },
      "deposit(string,address,uint256)": {
        "notice": "Deposit stablecoins and get policy tokens"
      },
      "findAddressbyName(string)": {
        "notice": "Find the token address by its name"
      },
      "findNamebyAddress(address)": {
        "notice": "Find the token name by its address"
      },
      "getAllTokens()": {
        "notice": "Get the information about all the tokens"
      },
      "getPolicyTokenInfo(string)": {
        "notice": "Find the token information by its name"
      },
      "owner()": {
        "notice": "Returns the address of the current owner."
      },
      "redeem(string,address,uint256)": {
        "notice": "Burn policy tokens and redeem USDT"
      },
      "redeemAfterSettlement(string,address)": {
        "notice": "Redeem policy tokens and get stablecoins by the user himeself"
      },
      "renounceOwnership()": {
        "notice": "Leaves the contract without owner. It will not be possible to call         `onlyOwner` functions anymore. Can only be called by the current owner."
      },
      "setEmergencyPool(address)": {
        "notice": "Change the address of emergency pool"
      },
      "setLottery(address)": {
        "notice": "Change the address of lottery"
      },
      "setNaughtyRouter(address)": {
        "notice": "Change the address of naughty router"
      },
      "settleAllPolicyTokens(string,address,uint256,uint256)": {
        "notice": "Settle the policies when then insurance event do not happen         Funds are automatically distributed back to the depositors"
      },
      "settleFinalResult(string)": {
        "notice": "Get the final price from the PriceGetter contract"
      },
      "transferOwnership(address)": {
        "notice": "Transfers ownership of the contract to a new account (`newOwner`)."
      }
    },
    "notice": "Core logic of Naughty Price Product         Preset:              (Done in the naughtyFactory contract)              1. Deploy policyToken contract              2. Deploy policyToken-Stablecoin pool contract         User Interaction:              1. Deposit Stablecoin and mint PolicyTokens              2. Redeem their Stablecoin and burn the PolicyTokens (before settlement)              3. Claim for payout with PolicyTokens (after settlement)         PolicyTokens are minted with the ratio 1:1 to Stablecoin         The PolicyTokens are traded in the pool with CFMM (xy=k)         When the event happens, a PolicyToken can be burned for claiming 1 Stablecoin.         When the event does not happen, the PolicyToken depositors can         redeem their 1 deposited Stablecoin",
    "version": 1
  },
  "storageLayout": {
    "storage": [
      {
        "astId": 21731,
        "contract": "contracts/naughty-price/PolicyCore.sol:PolicyCore",
        "label": "_owner",
        "offset": 0,
        "slot": "0",
        "type": "t_address"
      },
      {
        "astId": 17715,
        "contract": "contracts/naughty-price/PolicyCore.sol:PolicyCore",
        "label": "factory",
        "offset": 0,
        "slot": "1",
        "type": "t_contract(INaughtyFactory)19485"
      },
      {
        "astId": 17718,
        "contract": "contracts/naughty-price/PolicyCore.sol:PolicyCore",
        "label": "priceGetter",
        "offset": 0,
        "slot": "2",
        "type": "t_contract(IPriceGetter)19729"
      },
      {
        "astId": 17720,
        "contract": "contracts/naughty-price/PolicyCore.sol:PolicyCore",
        "label": "lottery",
        "offset": 0,
        "slot": "3",
        "type": "t_address"
      },
      {
        "astId": 17722,
        "contract": "contracts/naughty-price/PolicyCore.sol:PolicyCore",
        "label": "emergencyPool",
        "offset": 0,
        "slot": "4",
        "type": "t_address"
      },
      {
        "astId": 17724,
        "contract": "contracts/naughty-price/PolicyCore.sol:PolicyCore",
        "label": "naughtyRouter",
        "offset": 0,
        "slot": "5",
        "type": "t_address"
      },
      {
        "astId": 17726,
        "contract": "contracts/naughty-price/PolicyCore.sol:PolicyCore",
        "label": "currentDistributionIndex",
        "offset": 0,
        "slot": "6",
        "type": "t_uint256"
      },
      {
        "astId": 17744,
        "contract": "contracts/naughty-price/PolicyCore.sol:PolicyCore",
        "label": "policyTokenInfoMapping",
        "offset": 0,
        "slot": "7",
        "type": "t_mapping(t_string_memory_ptr,t_struct(PolicyTokenInfo)17739_storage)"
      },
      {
        "astId": 17748,
        "contract": "contracts/naughty-price/PolicyCore.sol:PolicyCore",
        "label": "policyTokenAddressToName",
        "offset": 0,
        "slot": "8",
        "type": "t_mapping(t_address,t_string_storage)"
      },
      {
        "astId": 17751,
        "contract": "contracts/naughty-price/PolicyCore.sol:PolicyCore",
        "label": "allPolicyTokens",
        "offset": 0,
        "slot": "9",
        "type": "t_array(t_string_storage)dyn_storage"
      },
      {
        "astId": 17755,
        "contract": "contracts/naughty-price/PolicyCore.sol:PolicyCore",
        "label": "supportedStablecoin",
        "offset": 0,
        "slot": "10",
        "type": "t_mapping(t_address,t_bool)"
      },
      {
        "astId": 17759,
        "contract": "contracts/naughty-price/PolicyCore.sol:PolicyCore",
        "label": "whichStablecoin",
        "offset": 0,
        "slot": "11",
        "type": "t_mapping(t_address,t_address)"
      },
      {
        "astId": 17763,
        "contract": "contracts/naughty-price/PolicyCore.sol:PolicyCore",
        "label": "policyTokenToOriginal",
        "offset": 0,
        "slot": "12",
        "type": "t_mapping(t_address,t_string_storage)"
      },
      {
        "astId": 17769,
        "contract": "contracts/naughty-price/PolicyCore.sol:PolicyCore",
        "label": "userQuota",
        "offset": 0,
        "slot": "13",
        "type": "t_mapping(t_address,t_mapping(t_address,t_uint256))"
      },
      {
        "astId": 17774,
        "contract": "contracts/naughty-price/PolicyCore.sol:PolicyCore",
        "label": "allDepositors",
        "offset": 0,
        "slot": "14",
        "type": "t_mapping(t_address,t_array(t_address)dyn_storage)"
      },
      {
        "astId": 17786,
        "contract": "contracts/naughty-price/PolicyCore.sol:PolicyCore",
        "label": "settleResult",
        "offset": 0,
        "slot": "15",
        "type": "t_mapping(t_address,t_struct(SettlementInfo)17781_storage)"
      }
    ],
    "types": {
      "t_address": {
        "encoding": "inplace",
        "label": "address",
        "numberOfBytes": "20"
      },
      "t_array(t_address)dyn_storage": {
        "base": "t_address",
        "encoding": "dynamic_array",
        "label": "address[]",
        "numberOfBytes": "32"
      },
      "t_array(t_string_storage)dyn_storage": {
        "base": "t_string_storage",
        "encoding": "dynamic_array",
        "label": "string[]",
        "numberOfBytes": "32"
      },
      "t_bool": {
        "encoding": "inplace",
        "label": "bool",
        "numberOfBytes": "1"
      },
      "t_contract(INaughtyFactory)19485": {
        "encoding": "inplace",
        "label": "contract INaughtyFactory",
        "numberOfBytes": "20"
      },
      "t_contract(IPriceGetter)19729": {
        "encoding": "inplace",
        "label": "contract IPriceGetter",
        "numberOfBytes": "20"
      },
      "t_mapping(t_address,t_address)": {
        "encoding": "mapping",
        "key": "t_address",
        "label": "mapping(address => address)",
        "numberOfBytes": "32",
        "value": "t_address"
      },
      "t_mapping(t_address,t_array(t_address)dyn_storage)": {
        "encoding": "mapping",
        "key": "t_address",
        "label": "mapping(address => address[])",
        "numberOfBytes": "32",
        "value": "t_array(t_address)dyn_storage"
      },
      "t_mapping(t_address,t_bool)": {
        "encoding": "mapping",
        "key": "t_address",
        "label": "mapping(address => bool)",
        "numberOfBytes": "32",
        "value": "t_bool"
      },
      "t_mapping(t_address,t_mapping(t_address,t_uint256))": {
        "encoding": "mapping",
        "key": "t_address",
        "label": "mapping(address => mapping(address => uint256))",
        "numberOfBytes": "32",
        "value": "t_mapping(t_address,t_uint256)"
      },
      "t_mapping(t_address,t_string_storage)": {
        "encoding": "mapping",
        "key": "t_address",
        "label": "mapping(address => string)",
        "numberOfBytes": "32",
        "value": "t_string_storage"
      },
      "t_mapping(t_address,t_struct(SettlementInfo)17781_storage)": {
        "encoding": "mapping",
        "key": "t_address",
        "label": "mapping(address => struct PolicyCore.SettlementInfo)",
        "numberOfBytes": "32",
        "value": "t_struct(SettlementInfo)17781_storage"
      },
      "t_mapping(t_address,t_uint256)": {
        "encoding": "mapping",
        "key": "t_address",
        "label": "mapping(address => uint256)",
        "numberOfBytes": "32",
        "value": "t_uint256"
      },
      "t_mapping(t_string_memory_ptr,t_struct(PolicyTokenInfo)17739_storage)": {
        "encoding": "mapping",
        "key": "t_string_memory_ptr",
        "label": "mapping(string => struct PolicyCore.PolicyTokenInfo)",
        "numberOfBytes": "32",
        "value": "t_struct(PolicyTokenInfo)17739_storage"
      },
      "t_string_memory_ptr": {
        "encoding": "bytes",
        "label": "string",
        "numberOfBytes": "32"
      },
      "t_string_storage": {
        "encoding": "bytes",
        "label": "string",
        "numberOfBytes": "32"
      },
      "t_struct(PolicyTokenInfo)17739_storage": {
        "encoding": "inplace",
        "label": "struct PolicyCore.PolicyTokenInfo",
        "members": [
          {
            "astId": 17728,
            "contract": "contracts/naughty-price/PolicyCore.sol:PolicyCore",
            "label": "policyTokenAddress",
            "offset": 0,
            "slot": "0",
            "type": "t_address"
          },
          {
            "astId": 17730,
            "contract": "contracts/naughty-price/PolicyCore.sol:PolicyCore",
            "label": "isCall",
            "offset": 20,
            "slot": "0",
            "type": "t_bool"
          },
          {
            "astId": 17732,
            "contract": "contracts/naughty-price/PolicyCore.sol:PolicyCore",
            "label": "decimals",
            "offset": 0,
            "slot": "1",
            "type": "t_uint256"
          },
          {
            "astId": 17734,
            "contract": "contracts/naughty-price/PolicyCore.sol:PolicyCore",
            "label": "strikePrice",
            "offset": 0,
            "slot": "2",
            "type": "t_uint256"
          },
          {
            "astId": 17736,
            "contract": "contracts/naughty-price/PolicyCore.sol:PolicyCore",
            "label": "deadline",
            "offset": 0,
            "slot": "3",
            "type": "t_uint256"
          },
          {
            "astId": 17738,
            "contract": "contracts/naughty-price/PolicyCore.sol:PolicyCore",
            "label": "settleTimestamp",
            "offset": 0,
            "slot": "4",
            "type": "t_uint256"
          }
        ],
        "numberOfBytes": "160"
      },
      "t_struct(SettlementInfo)17781_storage": {
        "encoding": "inplace",
        "label": "struct PolicyCore.SettlementInfo",
        "members": [
          {
            "astId": 17776,
            "contract": "contracts/naughty-price/PolicyCore.sol:PolicyCore",
            "label": "price",
            "offset": 0,
            "slot": "0",
            "type": "t_uint256"
          },
          {
            "astId": 17778,
            "contract": "contracts/naughty-price/PolicyCore.sol:PolicyCore",
            "label": "isHappened",
            "offset": 0,
            "slot": "1",
            "type": "t_bool"
          },
          {
            "astId": 17780,
            "contract": "contracts/naughty-price/PolicyCore.sol:PolicyCore",
            "label": "alreadySettled",
            "offset": 1,
            "slot": "1",
            "type": "t_bool"
          }
        ],
        "numberOfBytes": "64"
      },
      "t_uint256": {
        "encoding": "inplace",
        "label": "uint256",
        "numberOfBytes": "32"
      }
    }
  }
}