{
  "address": "0x0B306BF915C4d645ff596e518fAf3F9669b97016",
  "abi": [
    {
      "inputs": [
        {
          "internalType": "address",
          "name": "_usdt",
          "type": "address"
        },
        {
          "internalType": "address",
          "name": "_factory",
          "type": "address"
        },
        {
          "internalType": "address",
          "name": "_priceGetter",
          "type": "address"
        }
      ],
      "stateMutability": "nonpayable",
      "type": "constructor"
    },
    {
      "anonymous": false,
      "inputs": [
        {
          "indexed": false,
          "internalType": "address",
          "name": "payerAddress",
          "type": "address"
        },
        {
          "indexed": false,
          "internalType": "address",
          "name": "userAddress",
          "type": "address"
        },
        {
          "indexed": false,
          "internalType": "string",
          "name": "policyTokenName",
          "type": "string"
        },
        {
          "indexed": false,
          "internalType": "address",
          "name": "stablecoin",
          "type": "address"
        },
        {
          "indexed": false,
          "internalType": "uint256",
          "name": "amount",
          "type": "uint256"
        }
      ],
      "name": "DelegateDeposit",
      "type": "event"
    },
    {
      "anonymous": false,
      "inputs": [
        {
          "indexed": false,
          "internalType": "address",
          "name": "userAddress",
          "type": "address"
        },
        {
          "indexed": false,
          "internalType": "string",
          "name": "policyTokenName",
          "type": "string"
        },
        {
          "indexed": false,
          "internalType": "address",
          "name": "stablecoin",
          "type": "address"
        },
        {
          "indexed": false,
          "internalType": "uint256",
          "name": "amount",
          "type": "uint256"
        }
      ],
      "name": "Deposit",
      "type": "event"
    },
    {
      "anonymous": false,
      "inputs": [
        {
          "indexed": false,
          "internalType": "address",
          "name": "newEmergencyPool",
          "type": "address"
        }
      ],
      "name": "EmergencyPoolChanged",
      "type": "event"
    },
    {
      "anonymous": false,
      "inputs": [
        {
          "indexed": false,
          "internalType": "string",
          "name": "_policyTokenName",
          "type": "string"
        },
        {
          "indexed": false,
          "internalType": "uint256",
          "name": "price",
          "type": "uint256"
        },
        {
          "indexed": false,
          "internalType": "bool",
          "name": "isHappened",
          "type": "bool"
        }
      ],
      "name": "FinalResultSettled",
      "type": "event"
    },
    {
      "anonymous": false,
      "inputs": [
        {
          "indexed": false,
          "internalType": "address",
          "name": "_policyTokenAddress",
          "type": "address"
        },
        {
          "indexed": false,
          "internalType": "address",
          "name": "_stablecoin",
          "type": "address"
        }
      ],
      "name": "FinishSettlementPolicies",
      "type": "event"
    },
    {
      "anonymous": false,
      "inputs": [
        {
          "indexed": false,
          "internalType": "address",
          "name": "newLotteryAddress",
          "type": "address"
        }
      ],
      "name": "LotteryChanged",
      "type": "event"
    },
    {
      "anonymous": false,
      "inputs": [
        {
          "indexed": false,
          "internalType": "address",
          "name": "newRouter",
          "type": "address"
        }
      ],
      "name": "NaughtyRouterChanged",
      "type": "event"
    },
    {
      "anonymous": false,
      "inputs": [
        {
          "indexed": false,
          "internalType": "address",
          "name": "_newStablecoin",
          "type": "address"
        }
      ],
      "name": "NewStablecoinAdded",
      "type": "event"
    },
    {
      "anonymous": false,
      "inputs": [
        {
          "indexed": true,
          "internalType": "address",
          "name": "previousOwner",
          "type": "address"
        },
        {
          "indexed": true,
          "internalType": "address",
          "name": "newOwner",
          "type": "address"
        }
      ],
      "name": "OwnershipTransferred",
      "type": "event"
    },
    {
      "anonymous": false,
      "inputs": [
        {
          "indexed": false,
          "internalType": "string",
          "name": "tokenName",
          "type": "string"
        },
        {
          "indexed": false,
          "internalType": "address",
          "name": "tokenAddress",
          "type": "address"
        },
        {
          "indexed": false,
          "internalType": "uint256",
          "name": "deadline",
          "type": "uint256"
        },
        {
          "indexed": false,
          "internalType": "uint256",
          "name": "settleTimestamp",
          "type": "uint256"
        }
      ],
      "name": "PolicyTokenDeployed",
      "type": "event"
    },
    {
      "anonymous": false,
      "inputs": [
        {
          "indexed": false,
          "internalType": "address",
          "name": "poolAddress",
          "type": "address"
        },
        {
          "indexed": false,
          "internalType": "address",
          "name": "policyTokenAddress",
          "type": "address"
        },
        {
          "indexed": false,
          "internalType": "address",
          "name": "stablecoin",
          "type": "address"
        }
      ],
      "name": "PoolDeployed",
      "type": "event"
    },
    {
      "inputs": [
        {
          "internalType": "address",
          "name": "_newStablecoin",
          "type": "address"
        }
      ],
      "name": "addStablecoin",
      "outputs": [],
      "stateMutability": "nonpayable",
      "type": "function"
    },
    {
      "inputs": [
        {
          "internalType": "address",
          "name": "",
          "type": "address"
        },
        {
          "internalType": "uint256",
          "name": "",
          "type": "uint256"
        }
      ],
      "name": "allDepositors",
      "outputs": [
        {
          "internalType": "address",
          "name": "",
          "type": "address"
        }
      ],
      "stateMutability": "view",
      "type": "function"
    },
    {
      "inputs": [
        {
          "internalType": "uint256",
          "name": "",
          "type": "uint256"
        }
      ],
      "name": "allPolicyTokens",
      "outputs": [
        {
          "internalType": "string",
          "name": "",
          "type": "string"
        }
      ],
      "stateMutability": "view",
      "type": "function"
    },
    {
      "inputs": [
        {
          "internalType": "address",
          "name": "_user",
          "type": "address"
        },
        {
          "internalType": "address",
          "name": "_policyTokenAddress",
          "type": "address"
        }
      ],
      "name": "checkUserQuota",
      "outputs": [
        {
          "internalType": "uint256",
          "name": "_quota",
          "type": "uint256"
        }
      ],
      "stateMutability": "view",
      "type": "function"
    },
    {
      "inputs": [
        {
          "internalType": "string",
          "name": "_policyTokenName",
          "type": "string"
        },
        {
          "internalType": "address",
          "name": "_stablecoin",
          "type": "address"
        },
        {
          "internalType": "uint256",
          "name": "_amount",
          "type": "uint256"
        }
      ],
      "name": "claim",
      "outputs": [],
      "stateMutability": "nonpayable",
      "type": "function"
    },
    {
      "inputs": [],
      "name": "currentDistributionIndex",
      "outputs": [
        {
          "internalType": "uint256",
          "name": "",
          "type": "uint256"
        }
      ],
      "stateMutability": "view",
      "type": "function"
    },
    {
      "inputs": [
        {
          "internalType": "string",
          "name": "_policyTokenName",
          "type": "string"
        },
        {
          "internalType": "address",
          "name": "_stablecoin",
          "type": "address"
        },
        {
          "internalType": "uint256",
          "name": "_amount",
          "type": "uint256"
        },
        {
          "internalType": "address",
          "name": "_user",
          "type": "address"
        }
      ],
      "name": "delegateDeposit",
      "outputs": [],
      "stateMutability": "nonpayable",
      "type": "function"
    },
    {
      "inputs": [
        {
          "internalType": "string",
          "name": "_tokenName",
          "type": "string"
        },
        {
          "internalType": "bool",
          "name": "_isCall",
          "type": "bool"
        },
        {
          "internalType": "uint256",
          "name": "_decimals",
          "type": "uint256"
        },
        {
          "internalType": "uint256",
          "name": "_strikePrice",
          "type": "uint256"
        },
        {
          "internalType": "uint256",
          "name": "_round",
          "type": "uint256"
        },
        {
          "internalType": "uint256",
          "name": "_deadline",
          "type": "uint256"
        },
        {
          "internalType": "uint256",
          "name": "_settleTimestamp",
          "type": "uint256"
        }
      ],
      "name": "deployPolicyToken",
      "outputs": [
        {
          "internalType": "address",
          "name": "",
          "type": "address"
        }
      ],
      "stateMutability": "nonpayable",
      "type": "function"
    },
    {
      "inputs": [
        {
          "internalType": "string",
          "name": "_policyTokenName",
          "type": "string"
        },
        {
          "internalType": "address",
          "name": "_stablecoin",
          "type": "address"
        },
        {
          "internalType": "uint256",
          "name": "_poolDeadline",
          "type": "uint256"
        },
        {
          "internalType": "uint256",
          "name": "_feeRate",
          "type": "uint256"
        }
      ],
      "name": "deployPool",
      "outputs": [
        {
          "internalType": "address",
          "name": "",
          "type": "address"
        }
      ],
      "stateMutability": "nonpayable",
      "type": "function"
    },
    {
      "inputs": [
        {
          "internalType": "string",
          "name": "_policyTokenName",
          "type": "string"
        },
        {
          "internalType": "address",
          "name": "_stablecoin",
          "type": "address"
        },
        {
          "internalType": "uint256",
          "name": "_amount",
          "type": "uint256"
        }
      ],
      "name": "deposit",
      "outputs": [],
      "stateMutability": "nonpayable",
      "type": "function"
    },
    {
      "inputs": [],
      "name": "emergencyPool",
      "outputs": [
        {
          "internalType": "address",
          "name": "",
          "type": "address"
        }
      ],
      "stateMutability": "view",
      "type": "function"
    },
    {
      "inputs": [],
      "name": "factory",
      "outputs": [
        {
          "internalType": "contract INaughtyFactory",
          "name": "",
          "type": "address"
        }
      ],
      "stateMutability": "view",
      "type": "function"
    },
    {
      "inputs": [
        {
          "internalType": "string",
          "name": "_policyTokenName",
          "type": "string"
        }
      ],
      "name": "findAddressbyName",
      "outputs": [
        {
          "internalType": "address",
          "name": "",
          "type": "address"
        }
      ],
      "stateMutability": "view",
      "type": "function"
    },
    {
      "inputs": [
        {
          "internalType": "address",
          "name": "_policyTokenAddress",
          "type": "address"
        }
      ],
      "name": "findNamebyAddress",
      "outputs": [
        {
          "internalType": "string",
          "name": "",
          "type": "string"
        }
      ],
      "stateMutability": "view",
      "type": "function"
    },
    {
      "inputs": [],
      "name": "getAllTokens",
      "outputs": [
        {
          "components": [
            {
              "internalType": "address",
              "name": "policyTokenAddress",
              "type": "address"
            },
            {
              "internalType": "bool",
              "name": "isCall",
              "type": "bool"
            },
            {
              "internalType": "uint256",
              "name": "decimals",
              "type": "uint256"
            },
            {
              "internalType": "uint256",
              "name": "strikePrice",
              "type": "uint256"
            },
            {
              "internalType": "uint256",
              "name": "deadline",
              "type": "uint256"
            },
            {
              "internalType": "uint256",
              "name": "settleTimestamp",
              "type": "uint256"
            }
          ],
          "internalType": "struct PolicyCore.PolicyTokenInfo[]",
          "name": "",
          "type": "tuple[]"
        }
      ],
      "stateMutability": "view",
      "type": "function"
    },
    {
      "inputs": [
        {
          "internalType": "string",
          "name": "_policyTokenName",
          "type": "string"
        }
      ],
      "name": "getPolicyTokenInfo",
      "outputs": [
        {
          "components": [
            {
              "internalType": "address",
              "name": "policyTokenAddress",
              "type": "address"
            },
            {
              "internalType": "bool",
              "name": "isCall",
              "type": "bool"
            },
            {
              "internalType": "uint256",
              "name": "decimals",
              "type": "uint256"
            },
            {
              "internalType": "uint256",
              "name": "strikePrice",
              "type": "uint256"
            },
            {
              "internalType": "uint256",
              "name": "deadline",
              "type": "uint256"
            },
            {
              "internalType": "uint256",
              "name": "settleTimestamp",
              "type": "uint256"
            }
          ],
          "internalType": "struct PolicyCore.PolicyTokenInfo",
          "name": "",
          "type": "tuple"
        }
      ],
      "stateMutability": "view",
      "type": "function"
    },
    {
      "inputs": [],
      "name": "lottery",
      "outputs": [
        {
          "internalType": "address",
          "name": "",
          "type": "address"
        }
      ],
      "stateMutability": "view",
      "type": "function"
    },
    {
      "inputs": [],
      "name": "naughtyRouter",
      "outputs": [
        {
          "internalType": "address",
          "name": "",
          "type": "address"
        }
      ],
      "stateMutability": "view",
      "type": "function"
    },
    {
      "inputs": [],
      "name": "owner",
      "outputs": [
        {
          "internalType": "address",
          "name": "",
          "type": "address"
        }
      ],
      "stateMutability": "view",
      "type": "function"
    },
    {
      "inputs": [
        {
          "internalType": "address",
          "name": "",
          "type": "address"
        }
      ],
      "name": "policyTokenAddressToName",
      "outputs": [
        {
          "internalType": "string",
          "name": "",
          "type": "string"
        }
      ],
      "stateMutability": "view",
      "type": "function"
    },
    {
      "inputs": [
        {
          "internalType": "string",
          "name": "",
          "type": "string"
        }
      ],
      "name": "policyTokenInfoMapping",
      "outputs": [
        {
          "internalType": "address",
          "name": "policyTokenAddress",
          "type": "address"
        },
        {
          "internalType": "bool",
          "name": "isCall",
          "type": "bool"
        },
        {
          "internalType": "uint256",
          "name": "decimals",
          "type": "uint256"
        },
        {
          "internalType": "uint256",
          "name": "strikePrice",
          "type": "uint256"
        },
        {
          "internalType": "uint256",
          "name": "deadline",
          "type": "uint256"
        },
        {
          "internalType": "uint256",
          "name": "settleTimestamp",
          "type": "uint256"
        }
      ],
      "stateMutability": "view",
      "type": "function"
    },
    {
      "inputs": [],
      "name": "priceGetter",
      "outputs": [
        {
          "internalType": "contract IPriceGetter",
          "name": "",
          "type": "address"
        }
      ],
      "stateMutability": "view",
      "type": "function"
    },
    {
      "inputs": [
        {
          "internalType": "string",
          "name": "_policyTokenName",
          "type": "string"
        },
        {
          "internalType": "address",
          "name": "_stablecoin",
          "type": "address"
        },
        {
          "internalType": "uint256",
          "name": "_amount",
          "type": "uint256"
        }
      ],
      "name": "redeem",
      "outputs": [],
      "stateMutability": "nonpayable",
      "type": "function"
    },
    {
      "inputs": [
        {
          "internalType": "string",
          "name": "_policyTokenName",
          "type": "string"
        },
        {
          "internalType": "address",
          "name": "_stablecoin",
          "type": "address"
        }
      ],
      "name": "redeemAfterSettlement",
      "outputs": [],
      "stateMutability": "nonpayable",
      "type": "function"
    },
    {
      "inputs": [],
      "name": "renounceOwnership",
      "outputs": [],
      "stateMutability": "nonpayable",
      "type": "function"
    },
    {
      "inputs": [
        {
          "internalType": "address",
          "name": "_emergencyPool",
          "type": "address"
        }
      ],
      "name": "setEmergencyPool",
      "outputs": [],
      "stateMutability": "nonpayable",
      "type": "function"
    },
    {
      "inputs": [
        {
          "internalType": "address",
          "name": "_lotteryAddress",
          "type": "address"
        }
      ],
      "name": "setLottery",
      "outputs": [],
      "stateMutability": "nonpayable",
      "type": "function"
    },
    {
      "inputs": [
        {
          "internalType": "address",
          "name": "_router",
          "type": "address"
        }
      ],
      "name": "setNaughtyRouter",
      "outputs": [],
      "stateMutability": "nonpayable",
      "type": "function"
    },
    {
      "inputs": [
        {
          "internalType": "string",
          "name": "_policyTokenName",
          "type": "string"
        },
        {
          "internalType": "address",
          "name": "_stablecoin",
          "type": "address"
        },
        {
          "internalType": "uint256",
          "name": "_startIndex",
          "type": "uint256"
        },
        {
          "internalType": "uint256",
          "name": "_stopIndex",
          "type": "uint256"
        }
      ],
      "name": "settleAllPolicyTokens",
      "outputs": [],
      "stateMutability": "nonpayable",
      "type": "function"
    },
    {
      "inputs": [
        {
          "internalType": "string",
          "name": "_policyTokenName",
          "type": "string"
        }
      ],
      "name": "settleFinalResult",
      "outputs": [],
      "stateMutability": "nonpayable",
      "type": "function"
    },
    {
      "inputs": [
        {
          "internalType": "address",
          "name": "",
          "type": "address"
        }
      ],
      "name": "supportedStablecoin",
      "outputs": [
        {
          "internalType": "bool",
          "name": "",
          "type": "bool"
        }
      ],
      "stateMutability": "view",
      "type": "function"
    },
    {
      "inputs": [
        {
          "internalType": "address",
          "name": "newOwner",
          "type": "address"
        }
      ],
      "name": "transferOwnership",
      "outputs": [],
      "stateMutability": "nonpayable",
      "type": "function"
    },
    {
      "inputs": [
        {
          "internalType": "address",
          "name": "",
          "type": "address"
        }
      ],
      "name": "whichStablecoin",
      "outputs": [
        {
          "internalType": "address",
          "name": "",
          "type": "address"
        }
      ],
      "stateMutability": "view",
      "type": "function"
    }
  ],
  "transactionHash": "0xae753a826b0e44c4239dec2a7f9429a0e755a6759fbcb11097a20ddb38b2a901",
  "args": [
    "0xDc64a140Aa3E981100a9becA4E685f962f0cF6C9",
    "0x0DCd1Bf9A1b36cE34237eEaFef220932846BCD82",
    "0x9A676e781A523b5d0C0e43731313A708CB607508"
  ],
  "numDeployments": 1,
  "solcInputHash": "891f6e83b97076056766f10193ee5514",
  "bytecode": "0x60806040523480156200001157600080fd5b5060405162003bd238038062003bd2833981016040819052620000349162000117565b6200003f336200008d565b6001600160a01b039283166000908152600a60205260409020805460ff1916600190811790915580549284166001600160a01b0319938416179055600280549190931691161790556200016f565b600080546001600160a01b038381166001600160a01b0319831681178455604051919092169283917f8be0079c531659141344cd1fd0a4f28419497f9722a3daafe3b4186f6b6457e09190a35050565b60006001600160a01b0382165b92915050565b620000fb81620000dd565b81146200010757600080fd5b50565b8051620000ea81620000f0565b600080600060608486031215620001315762000131600080fd5b60006200013f86866200010a565b935050602062000152868287016200010a565b925050604062000165868287016200010a565b9150509250925092565b613a53806200017f6000396000f3fe608060405234801561001057600080fd5b50600436106101fb5760003560e01c80637336c38d1161011a578063c49df4bf116100ad578063e62512371161007c578063e6251237146104fc578063eb9132dd1461050f578063f15cac3414610522578063f298083b14610535578063f2fde38b1461054857600080fd5b8063c49df4bf146104a3578063ceed1b90146104b6578063d4ae823e146104c9578063d9e85c84146104dc57600080fd5b8063ba13a572116100e9578063ba13a57214610424578063bb9febaf14610437578063bd75660b1461044a578063c45a01551461048357600080fd5b80637336c38d146103da5780638da5cb5b146103ed578063a59b3645146103fe578063a815a2211461041157600080fd5b80632a5c792a116101925780635cb3b14f116101615780635cb3b14f146103635780635eb1877e146103935780636ff85ea9146103bc578063715018a6146103d257600080fd5b80632a5c792a146102bd57806338081de2146102d257806339f67738146102e55780634e75ce891461035057600080fd5b80631306c0a5116101ce5780631306c0a51461026457806318dd152f146102845780631d7ad9d8146102975780632a48ac9a146102aa57600080fd5b806303844097146102005780630418945a1461021557806308d89d5f146102285780630dc726471461023b575b600080fd5b61021361020e366004612734565b61055b565b005b6102136102233660046127a1565b610891565b6102136102363660046127d3565b610928565b61024e61024936600461283d565b610b4a565b60405161025b91906128bc565b60405180910390f35b6102776102723660046128cd565b610bf6565b60405161025b9190612919565b61024e6102923660046127a1565b610c2e565b6102136102a53660046127a1565b610c47565b6102136102b83660046127d3565b610ccb565b6102c5610e4e565b60405161025b91906129fe565b61024e6102e03660046127a1565b610f7e565b61033e6102f3366004612734565b8051602081830181018051600782529282019190930120915280546001820154600283015460038401546004909401546001600160a01b03841694600160a01b90940460ff16939086565b60405161025b96959493929190612a0f565b61027761035e366004612734565b61102a565b6103866103713660046127a1565b600a6020526000908152604090205460ff1681565b60405161025b9190612a5e565b6102776103a13660046127a1565b600b602052600090815260409020546001600160a01b031681565b6103c560065481565b60405161025b9190612a6c565b61021361105b565b6102136103e83660046127d3565b6110a0565b6000546001600160a01b0316610277565b600454610277906001600160a01b031681565b61021361041f3660046127a1565b611277565b600354610277906001600160a01b031681565b610277610445366004612a7a565b6112fb565b6103c5610458366004612af8565b6001600160a01b039182166000908152600d6020908152604080832093909416825291909152205490565b600154610496906001600160a01b031681565b60405161025b9190612b5b565b6102136104b1366004612b69565b6114cc565b600254610496906001600160a01b031681565b6102776104d7366004612bb8565b611631565b6104ef6104ea366004612734565b61189f565b60405161025b9190612c71565b600554610277906001600160a01b031681565b61021361051d366004612a7a565b611920565b610213610530366004612c7f565b611aaf565b6102136105433660046127a1565b611c68565b6102136105563660046127a1565b611cec565b80600060078260405161056e9190612d13565b9081526020016040518091039020600401549050804210156105ab5760405162461bcd60e51b81526004016105a290612d70565b60405180910390fd5b8260006007826040516105be9190612d13565b9081526040805160209281900383019020546001600160a01b03166000818152600f909352912060010154909150610100900460ff16156106115760405162461bcd60e51b81526004016105a290612dbf565b60006007866040516106239190612d13565b908152604080516020928190038301812060c08201835280546001600160a01b038116808452600160a01b90910460ff16151594830194909452600181015492820192909252600282015460608201526003820154608082015260049091015460a08201529150806106a75760405162461bcd60e51b81526004016105a290612e27565b6001600160a01b0381166000908152600f60209081526040808320600c909252822080549192916106d790612e4d565b80601f016020809104026020016040519081016040528092919081815260200182805461070390612e4d565b80156107505780601f1061072557610100808354040283529160200191610750565b820191906000526020600020905b81548152906001019060200180831161073357829003601f168201915b505060025460405163f66a1b7160e01b81529495506000946001600160a01b03909116935063f66a1b71925061078b915085906004016128bc565b6020604051808303816000875af11580156107aa573d6000803e3d6000fd5b505050506040513d601f19601f820116820180604052508101906107ce9190612e85565b808455606086015190915060009082108015906107ec575085602001515b905060008660600151831115801561080657508660200151155b905081806108115750805b61081c57600061081f565b60015b60018601805461010061ffff1990911692151561ff0019169290921791909117908190556040517f4f7bb4bf5b5d9e711ae7506fc1acd843eea9f216861a09c312fefb7e05095a369161087b918f91879160ff90911690612ea6565b60405180910390a1505050505050505050505050565b336108a46000546001600160a01b031690565b6001600160a01b0316146108ca5760405162461bcd60e51b81526004016105a290612f03565b6001600160a01b0381166000908152600a602052604090819020805460ff19166001179055517f86b377b6d485043d4a8b2b0c26051f82529ea2d7c23b1188598416473c1230939061091d908390612919565b60405180910390a150565b818180826001600160a01b03166370a08231306040518263ffffffff1660e01b81526004016109579190612919565b602060405180830381865afa158015610974573d6000803e3d6000fd5b505050506040513d601f19601f820116820180604052508101906109989190612e85565b10156109b65760405162461bcd60e51b81526004016105a290612f58565b8460006007826040516109c99190612d13565b9081526020016040518091039020600401549050804210156109fd5760405162461bcd60e51b81526004016105a290612d70565b6000610a088861102a565b6001600160a01b0381166000908152600f6020526040902060010154909150610100900460ff16610a4b5760405162461bcd60e51b81526004016105a290612f9a565b6001600160a01b0381166000908152600f602052604090206001015460ff16610a865760405162461bcd60e51b81526004016105a290612ff2565b60006103e8610a97886103de613018565b610aa1919061304d565b6040516370a0823160e01b8152909150829088906001600160a01b038316906370a0823190610ad4903390600401612919565b602060405180830381865afa158015610af1573d6000803e3d6000fd5b505050506040513d601f19601f82011682018060405250810190610b159190612e85565b1015610b335760405162461bcd60e51b81526004016105a2906130ad565b610b3e838a84611d57565b50505050505050505050565b60098181548110610b5a57600080fd5b906000526020600020016000915090508054610b7590612e4d565b80601f0160208091040260200160405190810160405280929190818152602001828054610ba190612e4d565b8015610bee5780601f10610bc357610100808354040283529160200191610bee565b820191906000526020600020905b815481529060010190602001808311610bd157829003601f168201915b505050505081565b600e6020528160005260406000208181548110610c1257600080fd5b6000918252602090912001546001600160a01b03169150829050565b60086020526000908152604090208054610b7590612e4d565b33610c5a6000546001600160a01b031690565b6001600160a01b031614610c805760405162461bcd60e51b81526004016105a290612f03565b600480546001600160a01b0319166001600160a01b0383161790556040517f6fc32d8d0721139a274b6368b7febce03d80adce9dc0fad439ebb101b22a30949061091d908390612919565b826000600782604051610cde9190612d13565b908152602001604051809103902060030154905080421115610d125760405162461bcd60e51b81526004016105a290613107565b6000610d1d8661102a565b6001600160a01b038181166000908152600b6020526040902054919250868116911614610d5c5760405162461bcd60e51b81526004016105a290613158565b6040516370a0823160e01b815284906001600160a01b038716906370a0823190610d8a903390600401612919565b602060405180830381865afa158015610da7573d6000803e3d6000fd5b505050506040513d601f19601f82011682018060405250810190610dcb9190612e85565b1015610de95760405162461bcd60e51b81526004016105a2906131ab565b610dfe6001600160a01b038616333087611dd0565b610e09818533611e2e565b7faad69ef0c77f7c04ba3390022ae56a77ba8686b6cd9530eff3a0a8c38d33e5ad33878787604051610e3e94939291906131bb565b60405180910390a1505050505050565b60095460609060008167ffffffffffffffff811115610e6f57610e6f612639565b604051908082528060200260200182016040528015610ea857816020015b610e9561255f565b815260200190600190039081610e8d5790505b50905060005b82811015610f7757600760098281548110610ecb57610ecb6131f7565b90600052602060002001604051610ee2919061327b565b90815260408051918290036020908101832060c08401835280546001600160a01b038116855260ff600160a01b9091041615159184019190915260018101549183019190915260028101546060830152600381015460808301526004015460a08201528251839083908110610f5957610f596131f7565b60200260200101819052508080610f6f90613285565b915050610eae565b5092915050565b6001600160a01b0381166000908152600860205260409020805460609190610fa590612e4d565b80601f0160208091040260200160405190810160405280929190818152602001828054610fd190612e4d565b801561101e5780601f10610ff35761010080835404028352916020019161101e565b820191906000526020600020905b81548152906001019060200180831161100157829003601f168201915b50505050509050919050565b600060078260405161103c9190612d13565b908152604051908190036020019020546001600160a01b031692915050565b3361106e6000546001600160a01b031690565b6001600160a01b0316146110945760405162461bcd60e51b81526004016105a290612f03565b61109e6000611f3b565b565b818180826001600160a01b03166370a08231306040518263ffffffff1660e01b81526004016110cf9190612919565b602060405180830381865afa1580156110ec573d6000803e3d6000fd5b505050506040513d601f19601f820116820180604052508101906111109190612e85565b101561112e5760405162461bcd60e51b81526004016105a290612f58565b8460006007826040516111419190612d13565b9081526020016040518091039020600301549050804211156111755760405162461bcd60e51b81526004016105a290613107565b60006007886040516111879190612d13565b908152604080516020928190038301902054336000908152600d84528281206001600160a01b03909216808252919093529120549091508611156111dd5760405162461bcd60e51b81526004016105a2906132d2565b6111e8818888611d57565b336000908152600d602090815260408083206001600160a01b03851684529091528120805488929061121b9084906132e2565b9091555050336000908152600d602090815260408083206001600160a01b038516845290915290205461126d57336000908152600d602090815260408083206001600160a01b03851684529091528120555b5050505050505050565b3361128a6000546001600160a01b031690565b6001600160a01b0316146112b05760405162461bcd60e51b81526004016105a290612f03565b600580546001600160a01b0319166001600160a01b0383161790556040517f82b306b4712e26cb08bc1bd049ca46818dea8d7bacdd8988f7557fd887a49e0f9061091d908390612919565b6000336113106000546001600160a01b031690565b6001600160a01b0316146113365760405162461bcd60e51b81526004016105a290612f03565b6001600160a01b0384166000908152600a6020526040902054849060ff1615156001146113755760405162461bcd60e51b81526004016105a29061333c565b8560006001600160a01b03166007826040516113919190612d13565b908152604051908190036020019020546001600160a01b031614156113c85760405162461bcd60e51b81526004016105a2906133a4565b60006113d38861102a565b60015460405163074bed3f60e31b81529192506000916001600160a01b0390911690633a5f69f89061140f9085908c908c908c906004016133b4565b6020604051808303816000875af115801561142e573d6000803e3d6000fd5b505050506040513d601f19601f8201168201806040525081019061145291906133e7565b6001600160a01b038381166000908152600b60205260409081902080546001600160a01b031916928c1692909217909155519091507f04c12766244f2559dd215eecd69f70fdfce0e2c2260b5d52cb8b63738622eaa4906114b890839085908c90613408565b60405180910390a198975050505050505050565b60006114d78361102a565b6001600160a01b0381166000908152600f60209081526040918290208251606081018452815480825260019092015460ff808216151594830194909452610100900490921615159282019290925291925015801590611537575080604001515b6115535760405162461bcd60e51b81526004016105a290612f9a565b6020810151156115755760405162461bcd60e51b81526004016105a290613481565b336000908152600d602090815260408083206001600160a01b03861684529091529020546115b55760405162461bcd60e51b81526004016105a2906134e9565b336000908152600d602090815260408083206001600160a01b0386168452909152812054906103e86115e9836103de613018565b6115f3919061304d565b9050611600848683611d57565b5050336000908152600d602090815260408083206001600160a01b0395909516835293905291822091909155505050565b6000336116466000546001600160a01b031690565b6001600160a01b03161461166c5760405162461bcd60e51b81526004016105a290612f03565b601286111561168d5760405162461bcd60e51b81526004016105a29061351f565b600061169c8988888b89611f8b565b60015460405163781e309960e11b81529192506000916001600160a01b039091169063f03c6132906116d29085906004016128bc565b6020604051808303816000875af11580156116f1573d6000803e3d6000fd5b505050506040513d601f19601f8201168201806040525081019061171591906133e7565b90506040518060c00160405280826001600160a01b031681526020018a151581526020018981526020018881526020018681526020018581525060078360405161175f9190612d13565b9081526040805191829003602090810190922083518154858501511515600160a01b026001600160a81b03199091166001600160a01b0392831617178255848301516001830155606085015160028301556080850151600383015560a0909401516004909101559183166000908152600c8252919091208b516117e4928d01906125a0565b506001600160a01b0381166000908152600860209081526040909120835161180e928501906125a0565b50600980546001810182556000919091528251611852917f6e1540171b6c0c960b71a7020d9f60077f6af931a8bbf590da0223dacf75c7af019060208501906125a0565b507f405ecebb090d5b2eb1eff17eae8e649a7c79591418988c347b8e641f46f9b03482828787604051611888949392919061352f565b60405180910390a19150505b979650505050505050565b6118a761255f565b6007826040516118b79190612d13565b90815260408051918290036020908101832060c08401835280546001600160a01b038116855260ff600160a01b9091041615159184019190915260018101549183019190915260028101546060830152600381015460808301526004015460a082015292915050565b336119336000546001600160a01b031690565b6001600160a01b0316146119595760405162461bcd60e51b81526004016105a290612f03565b60006119648561102a565b6001600160a01b0381166000908152600f60209081526040918290208251606081018452815480825260019092015460ff8082161515948301949094526101009004909216151592820192909252919250158015906119c95750604081015115156001145b6119e55760405162461bcd60e51b81526004016105a290612f9a565b602081015115611a075760405162461bcd60e51b81526004016105a290613481565b83158015611a13575082155b15611a48576001600160a01b0382166000908152600e602052604081205490611a40908490889084612067565b600655611a7b565b8360065414611a695760405162461bcd60e51b81526004016105a29061359c565b611a7582868686612067565b60068390555b6001600160a01b0382166000908152600e60205260409020546006541415611aa757611aa78286612157565b505050505050565b836000600782604051611ac29190612d13565b908152602001604051809103902060030154905080421115611af65760405162461bcd60e51b81526004016105a290613107565b6005546001600160a01b0316336001600160a01b031614611b295760405162461bcd60e51b81526004016105a2906135ec565b6000611b348761102a565b6001600160a01b038181166000908152600b6020526040902054919250878116911614611b735760405162461bcd60e51b81526004016105a290613158565b6040516370a0823160e01b815285906001600160a01b038816906370a0823190611ba1908890600401612919565b602060405180830381865afa158015611bbe573d6000803e3d6000fd5b505050506040513d601f19601f82011682018060405250810190611be29190612e85565b1015611c005760405162461bcd60e51b81526004016105a2906131ab565b611c156001600160a01b038716853088611dd0565b611c20818686611e2e565b7f99f877ebe25ff1544a89db7db58d9d0b180af2288344cf1792272a4a07fd7c993385898989604051611c579594939291906135fc565b60405180910390a150505050505050565b33611c7b6000546001600160a01b031690565b6001600160a01b031614611ca15760405162461bcd60e51b81526004016105a290612f03565b600380546001600160a01b0319166001600160a01b0383161790556040517f925ca4fe13c96d03d284548722ea2b894a5c446495703091e537b85dc54a2a079061091d908390612919565b33611cff6000546001600160a01b031690565b6001600160a01b031614611d255760405162461bcd60e51b81526004016105a290612f03565b6001600160a01b038116611d4b5760405162461bcd60e51b81526004016105a290613690565b611d5481611f3b565b50565b611d6b6001600160a01b03831633836122ab565b604051632770a7eb60e21b81526001600160a01b03841690639dc29fac90611d9990339085906004016136a0565b600060405180830381600087803b158015611db357600080fd5b505af1158015611dc7573d6000803e3d6000fd5b50505050505050565b611e28846323b872dd60e01b858585604051602401611df1939291906136bb565b60408051601f198184030181529190526020810180516001600160e01b03166001600160e01b0319909316929092179091526122cf565b50505050565b6040516340c10f1960e01b815283906001600160a01b038216906340c10f1990611e5e90859087906004016136a0565b600060405180830381600087803b158015611e7857600080fd5b505af1158015611e8c573d6000803e3d6000fd5b505050506001600160a01b038281166000908152600d6020908152604080832093881683529290522054611ef9576001600160a01b038481166000908152600e602090815260408220805460018101825590835291200180546001600160a01b0319169184169190911790555b6001600160a01b038083166000908152600d6020908152604080832093881683529290529081208054859290611f309084906136e3565b909155505050505050565b600080546001600160a01b038381166001600160a01b0319831681178455604051919092169283917f8be0079c531659141344cd1fd0a4f28419497f9722a3daafe3b4186f6b6457e09190a35050565b6060600083611fb357604051806040016040528060018152602001601360fa1b815250611fce565b604051806040016040528060018152602001600960fb1b8152505b90506000611fe4670de0b6b3a76400008761304d565b90506000611ff38860126132e2565b611ffe90600a613809565b61201290670de0b6b3a7640000890661304d565b90506000896120208461235e565b6120298461235e565b866120338a61235e565b604051602001612047959493929190613832565b60408051601f198184030181529190529450505050505b95945050505050565b815b81811015612150576001600160a01b0385166000908152600e6020526040812080548390811061209b5761209b6131f7565b60009182526020808320909101546001600160a01b03908116808452600d83526040808520928b16855291909252822054909250906103e86120df836103de613018565b6120e9919061304d565b90508015612132576121056001600160a01b03881684836122ab565b6001600160a01b038084166000908152600d60209081526040808320938c1683529290529081205561213a565b50505061213e565b5050505b8061214881613285565b915050612069565b5050505050565b600060068190556040516370a0823160e01b81526001600160a01b038316906370a082319061218a903090600401612919565b602060405180830381865afa1580156121a7573d6000803e3d6000fd5b505050506040513d601f19601f820116820180604052508101906121cb9190612e85565b90506000600a6121dc836008613018565b6121e6919061304d565b905060006121f482846132e2565b6003549091506001600160a01b03161580159061221b57506004546001600160a01b031615155b6122375760405162461bcd60e51b81526004016105a2906138ca565b600354612251906001600160a01b038681169116846122ab565b60045461226b906001600160a01b038681169116836122ab565b7f9be8aebde8bc066adab8cd0ac86eaa76eddd5d8e421a8c4428f1b2811dee890d858560405161229c9291906138da565b60405180910390a15050505050565b6122ca8363a9059cbb60e01b8484604051602401611df19291906136a0565b505050565b6000612324826040518060400160405280602081526020017f5361666545524332303a206c6f772d6c6576656c2063616c6c206661696c6564815250856001600160a01b03166124649092919063ffffffff16565b8051909150156122ca57808060200190518101906123429190613900565b6122ca5760405162461bcd60e51b81526004016105a290613966565b6060816123825750506040805180820190915260018152600360fc1b602082015290565b8160005b81156123ac578061239681613285565b91506123a59050600a8361304d565b9150612386565b60008167ffffffffffffffff8111156123c7576123c7612639565b6040519080825280601f01601f1916602001820160405280156123f1576020820181803683370190505b5090505b841561245c576124066001836132e2565b9150612413600a86613976565b61241e9060306136e3565b60f81b818381518110612433576124336131f7565b60200101906001600160f81b031916908160001a905350612455600a8661304d565b94506123f5565b949350505050565b6060612473848460008561247d565b90505b9392505050565b60608247101561249f5760405162461bcd60e51b81526004016105a2906139cb565b843b6124bd5760405162461bcd60e51b81526004016105a290613a0d565b600080866001600160a01b031685876040516124d99190612d13565b60006040518083038185875af1925050503d8060008114612516576040519150601f19603f3d011682016040523d82523d6000602084013e61251b565b606091505b509150915061189482828660608315612535575081612476565b8251156125455782518084602001fd5b8160405162461bcd60e51b81526004016105a291906128bc565b6040518060c0016040528060006001600160a01b03168152602001600015158152602001600081526020016000815260200160008152602001600081525090565b8280546125ac90612e4d565b90600052602060002090601f0160209004810192826125ce5760008555612614565b82601f106125e757805160ff1916838001178555612614565b82800160010185558215612614579182015b828111156126145782518255916020019190600101906125f9565b50612620929150612624565b5090565b5b808211156126205760008155600101612625565b634e487b7160e01b600052604160045260246000fd5b601f19601f830116810181811067ffffffffffffffff8211171561267557612675612639565b6040525050565b600061268760405190565b9050612693828261264f565b919050565b600067ffffffffffffffff8211156126b2576126b2612639565b601f19601f83011660200192915050565b82818337506000910152565b60006126e26126dd84612698565b61267c565b9050828152602081018484840111156126fd576126fd600080fd5b6127088482856126c3565b509392505050565b600082601f83011261272457612724600080fd5b813561245c8482602086016126cf565b60006020828403121561274957612749600080fd5b813567ffffffffffffffff81111561276357612763600080fd5b61245c84828501612710565b60006001600160a01b0382165b92915050565b61278b8161276f565b8114611d5457600080fd5b803561277c81612782565b6000602082840312156127b6576127b6600080fd5b600061245c8484612796565b8061278b565b803561277c816127c2565b6000806000606084860312156127eb576127eb600080fd5b833567ffffffffffffffff81111561280557612805600080fd5b61281186828701612710565b935050602061282286828701612796565b9250506040612833868287016127c8565b9150509250925092565b60006020828403121561285257612852600080fd5b600061245c84846127c8565b60005b83811015612879578181015183820152602001612861565b83811115611e285750506000910152565b6000612894825190565b8084526020840193506128ab81856020860161285e565b601f01601f19169290920192915050565b60208082528101612476818461288a565b600080604083850312156128e3576128e3600080fd5b60006128ef8585612796565b9250506020612900858286016127c8565b9150509250929050565b6129138161276f565b82525050565b6020810161277c828461290a565b801515612913565b80612913565b8051612941838261290a565b5060208101516129546020840182612927565b506040810151612967604084018261292f565b50606081015161297a606084018261292f565b50608081015161298d608084018261292f565b5060a08101516122ca60a084018261292f565b6129aa8282612935565b5060c00190565b60200190565b60006129c1825190565b808452602093840193830160005b828110156129f45781516129e387826129a0565b9650506020820191506001016129cf565b5093949350505050565b6020808252810161247681846129b7565b60c08101612a1d828961290a565b612a2a6020830188612927565b612a37604083018761292f565b612a44606083018661292f565b612a51608083018561292f565b61189460a083018461292f565b6020810161277c8284612927565b6020810161277c828461292f565b60008060008060808587031215612a9357612a93600080fd5b843567ffffffffffffffff811115612aad57612aad600080fd5b612ab987828801612710565b9450506020612aca87828801612796565b9350506040612adb878288016127c8565b9250506060612aec878288016127c8565b91505092959194509250565b60008060408385031215612b0e57612b0e600080fd5b6000612b1a8585612796565b925050602061290085828601612796565b60006001600160a01b03821661277c565b600061277c82612b2b565b600061277c82612b3c565b61291381612b47565b6020810161277c8284612b52565b60008060408385031215612b7f57612b7f600080fd5b823567ffffffffffffffff811115612b9957612b99600080fd5b612b1a85828601612710565b80151561278b565b803561277c81612ba5565b600080600080600080600060e0888a031215612bd657612bd6600080fd5b873567ffffffffffffffff811115612bf057612bf0600080fd5b612bfc8a828b01612710565b9750506020612c0d8a828b01612bad565b9650506040612c1e8a828b016127c8565b9550506060612c2f8a828b016127c8565b9450506080612c408a828b016127c8565b93505060a0612c518a828b016127c8565b92505060c0612c628a828b016127c8565b91505092959891949750929550565b60c0810161277c8284612935565b60008060008060808587031215612c9857612c98600080fd5b843567ffffffffffffffff811115612cb257612cb2600080fd5b612cbe87828801612710565b9450506020612ccf87828801612796565b9350506040612ce0878288016127c8565b9250506060612aec87828801612796565b6000612cfb825190565b612d0981856020860161285e565b9290920192915050565b61277c8183612cf1565b60368152602081017f43616e206e6f7420736574746c652f636c61696d2c2068617665206e6f742072815275065616368656420736574746c6554696d657374616d760541b602082015290505b60400190565b6020808252810161277c81612d1d565b60248152602081017f5468697320706f6c6963792068617320616c7265616479206265656e207365748152631d1b195960e21b60208201529050612d6a565b6020808252810161277c81612d80565b603e8152602081017f5468697320706f6c69637920746f6b656e20646f6573206e6f7420657869737481527f2c206d6179626520796f7520696e70757420612077726f6e67206e616d65000060208201529050612d6a565b6020808252810161277c81612dcf565b634e487b7160e01b600052602260045260246000fd5b600281046001821680612e6157607f821691505b60208210811415612e7457612e74612e37565b50919050565b805161277c816127c2565b600060208284031215612e9a57612e9a600080fd5b600061245c8484612e7a565b60608082528101612eb7818661288a565b9050612ec6602083018561292f565b61245c6040830184612927565b60208082527f4f776e61626c653a2063616c6c6572206973206e6f7420746865206f776e657291019081526129b1565b6020808252810161277c81612ed3565b602a8152602081017f4e6f742073756666696369656e7420737461626c65636f696e7320696e207468815269194818dbdb9d1c9858dd60b21b60208201529050612d6a565b6020808252810161277c81612f13565b601e8152602081017f48617665206e6f7420676f7420746865206f7261636c6520726573756c740000815290506129b1565b6020808252810161277c81612f68565b602d8152602081017f54686520726573756c7420646f6573206e6f742068617070656e2c20796f752081526c63616e206e6f7420636c61696d60981b60208201529050612d6a565b6020808252810161277c81612faa565b634e487b7160e01b600052601160045260246000fd5b600081600019048311821515161561303257613032613002565b500290565b634e487b7160e01b600052601260045260246000fd5b60008261305c5761305c613037565b500490565b60318152602081017f596f7520646f206e6f7420686176652073756666696369656e7420706f6c69638152707920746f6b656e7320746f20636c61696d60781b60208201529050612d6a565b6020808252810161277c81613061565b602f8152602081017f43616e206e6f74206465706f7369742f72656465656d2c20686173207061737381526e65642074686520646561646c696e6560881b60208201529050612d6a565b6020808252810161277c816130bd565b60268152602081017f506f6c696379546f6b656e20616e6420737461626c65636f696e206e6f74206d815265185d18da195960d21b60208201529050612d6a565b6020808252810161277c81613117565b60288152602081017f55736572277320737461626c65636f696e2062616c616e6365206e6f7420737581526719999a58da595b9d60c21b60208201529050612d6a565b6020808252810161277c81613168565b608081016131c9828761290a565b81810360208301526131db818661288a565b90506131ea604083018561290a565b61205e606083018461292f565b634e487b7160e01b600052603260045260246000fd5b6000815461321a81612e4d565b600182168015613231576001811461324257613272565b60ff19831686528186019350613272565b60008581526020902060005b8381101561326a5781548882015260019091019060200161324e565b505081860193505b50505092915050565b61277c818361320d565b600060001982141561329957613299613002565b5060010190565b601b8152602081017f5573657227732071756f7461206e6f742073756666696369656e740000000000815290506129b1565b6020808252810161277c816132a0565b6000828210156132f4576132f4613002565b500390565b60288152602081017f446f206e6f7420737570706f7274207468697320737461626c65636f696e2063815267757272656e746c7960c01b60208201529050612d6a565b6020808252810161277c816132f9565b603f8152602081017f5468697320706f6c69637920746f6b656e20686173206e6f74206265656e206481527f65706c6f7965642c20706c65617365206465706c6f792069742066697273740060208201529050612d6a565b6020808252810161277c8161334c565b608081016133c2828761290a565b6133cf602083018661290a565b6131ea604083018561292f565b805161277c81612782565b6000602082840312156133fc576133fc600080fd5b600061245c84846133dc565b60608101613416828661290a565b613423602083018561290a565b61245c604083018461290a565b60368152602081017f4f6e6c792063616c6c20746869732066756e6374696f6e207768656e207468658152751032bb32b73a103237b2b9903737ba103430b83832b760511b60208201529050612d6a565b6020808252810161277c81613430565b603b8152602081017f4e6f2071756f74612c20796f7520646964206e6f74206465706f73697420616e81527f64206d696e7420706f6c69637920746f6b656e73206265666f7265000000000060208201529050612d6a565b6020808252810161277c81613491565b601181526020810170546f6f206d616e7920646563696d616c7360781b815290506129b1565b6020808252810161277c816134f9565b60808082528101613540818761288a565b90506133cf602083018661290a565b60328152602081017f596f75206e65656420746f2073746172742066726f6d20746865206c61737420815271191a5cdd1c9a589d5d1a5bdb881c1bda5b9d60721b60208201529050612d6a565b6020808252810161277c8161354f565b60258152602081017f4f6e6c792074686520726f7574657220636f6e74726163742063616e2064656c815264656761746560d81b60208201529050612d6a565b6020808252810161277c816135ac565b60a0810161360a828861290a565b613617602083018761290a565b8181036040830152613629818661288a565b9050613638606083018561290a565b613645608083018461292f565b9695505050505050565b60268152602081017f4f776e61626c653a206e6577206f776e657220697320746865207a65726f206181526564647265737360d01b60208201529050612d6a565b6020808252810161277c8161364f565b604081016136ae828561290a565b612476602083018461292f565b606081016136c9828661290a565b6136d6602083018561290a565b61245c604083018461292f565b600082198211156136f6576136f6613002565b500190565b80825b600185111561373a5780860481111561371957613719613002565b600185161561372757908102905b80026137338560011c90565b94506136fe565b94509492505050565b60008261375257506001612476565b8161375f57506000612476565b8160018114613775576002811461377f576137ac565b6001915050612476565b60ff84111561379057613790613002565b8360020a9150848211156137a6576137a6613002565b50612476565b5060208310610133831016604e8410600b84101617156137df575081810a838111156137da576137da613002565b612476565b6137ec84848460016136fb565b9250905081840481111561380257613802613002565b0292915050565b60006124766000198484613743565b605f60f81b81525b60010190565b601760f91b8152613820565b61383c8187612cf1565b905061384781613818565b90506138538186612cf1565b905061385e81613826565b905061386a8185612cf1565b905061387581613818565b90506138818184612cf1565b905061388c81613818565b90506136458183612cf1565b601e8152602081017f506c656173652073657420746865206c6f747465727920616464726573730000815290506129b1565b6020808252810161277c81613898565b604081016138e8828561290a565b612476602083018461290a565b805161277c81612ba5565b60006020828403121561391557613915600080fd5b600061245c84846138f5565b602a8152602081017f5361666545524332303a204552433230206f7065726174696f6e20646964206e8152691bdd081cdd58d8d9595960b21b60208201529050612d6a565b6020808252810161277c81613921565b60008261398557613985613037565b500690565b60268152602081017f416464726573733a20696e73756666696369656e742062616c616e636520666f8152651c8818d85b1b60d21b60208201529050612d6a565b6020808252810161277c8161398a565b601d8152602081017f416464726573733a2063616c6c20746f206e6f6e2d636f6e7472616374000000815290506129b1565b6020808252810161277c816139db56fea2646970667358221220ab031e47f17b5548a595ee54d45c88e41f973ee811bf522bb14463d312fb907864736f6c634300080a0033",
  "devdoc": {
    "details": "Most of the functions to be called from outside will use the name of policyToken         rather than the address (easy to read).         Other variables or functions still use address to index.         The rule of policyToken naming is Original Token Name + Strike Price + Lower or Higher + Date         E.g.  AVAX_30_L_2101, BTC_30000_L_2102, ETH_8000_H_2109",
    "kind": "dev",
    "methods": {
      "addStablecoin(address)": {
        "params": {
          "_newStablecoin": "Address of the new stablecoin"
        }
      },
      "checkUserQuota(address,address)": {
        "params": {
          "_policyTokenAddress": "Address of the policy token",
          "_user": "Address of the user to be checked"
        },
        "returns": {
          "_quota": "User's quota result"
        }
      },
      "claim(string,address,uint256)": {
        "details": "It is done after result settlement and only if the result is true",
        "params": {
          "_amount": "Amount of USDT (also the amount of policy tokens)",
          "_policyTokenName": "Name of the policy token",
          "_stablecoin": "Address of the stable coin"
        }
      },
      "constructor": {
        "params": {
          "_factory": "Address of naughty factory",
          "_priceGetter": "Address of the oracle contract",
          "_usdt": "USDT is the first stablecoin supported in the pool"
        }
      },
      "delegateDeposit(string,address,uint256,address)": {
        "details": "Only called by the router contract",
        "params": {
          "_amount": "Amount of stablecoin (also the amount of policy tokens)",
          "_policyTokenName": "Name of the policy token",
          "_stablecoin": "Address of the sable coin",
          "_user": "Address to receive the policy tokens"
        }
      },
      "deployPolicyToken(string,bool,uint256,uint256,uint256,uint256,uint256)": {
        "details": "Only the owner can deploy new policy token      The name form is like \"AVAX_50_L_202101\" and is built inside the contract.",
        "params": {
          "_deadline": "Deadline of this policy token (deposit / redeem / swap)",
          "_decimals": "Decimals of this token's price (0~18)",
          "_isCall": "The policy is for higher or lower than the strike price (call / put)",
          "_settleTimestamp": "Can settle after this timestamp (for oracle)",
          "_strikePrice": "Strike price of the policy (have not been transferred with 1e18)",
          "_tokenName": "Name of the original token (e.g. AVAX, BTC, ETH...)"
        },
        "returns": {
          "_0": "policyTokenAddress The address of the policy token just deployed"
        }
      },
      "deployPool(string,address,uint256,uint256)": {
        "params": {
          "_feeRate": "Fee rate given to LP holders",
          "_policyTokenName": "Name of the policy token",
          "_poolDeadline": "Swapping deadline of the pool",
          "_stablecoin": "Address of the stable coin"
        },
        "returns": {
          "_0": "poolAddress The address of the pool just deployed"
        }
      },
      "deposit(string,address,uint256)": {
        "params": {
          "_amount": "Amount of stablecoin (also the amount of policy tokens)",
          "_policyTokenName": "Name of the policy token",
          "_stablecoin": "Address of the sable coin"
        }
      },
      "findAddressbyName(string)": {
        "params": {
          "_policyTokenName": "Name of the policy token (e.g. \"AVAX30L202103\")"
        },
        "returns": {
          "_0": "policyTokenAddress Address of the policy token"
        }
      },
      "findNamebyAddress(address)": {
        "params": {
          "_policyTokenAddress": "Address of the policy token"
        },
        "returns": {
          "_0": "policyTokenName Name of the policy token"
        }
      },
      "getAllTokens()": {
        "returns": {
          "_0": "tokensInfo Token information list"
        }
      },
      "getPolicyTokenInfo(string)": {
        "params": {
          "_policyTokenName": "Name of the policy token (e.g. \"AVAX30L202103\")"
        },
        "returns": {
          "_0": "policyTokenInfo PolicyToken detail information"
        }
      },
      "redeem(string,address,uint256)": {
        "details": "Redeem happens before the deadline and is different from claim/settle",
        "params": {
          "_amount": "Amount of USDT (also the amount of policy tokens)",
          "_policyTokenName": "Name of the policy token",
          "_stablecoin": "Address of the stablecoin"
        }
      },
      "redeemAfterSettlement(string,address)": {
        "params": {
          "_policyTokenName": "Name of the policy token",
          "_stablecoin": "Address of the stablecoin"
        }
      },
      "renounceOwnership()": {
        "details": "Renouncing ownership will leave the contract without an owner,         thereby removing any functionality that is only available to the owner."
      },
      "setEmergencyPool(address)": {
        "params": {
          "_emergencyPool": "Address of the new emergencyPool"
        }
      },
      "setLottery(address)": {
        "params": {
          "_lotteryAddress": "Address of the new lottery"
        }
      },
      "setNaughtyRouter(address)": {
        "params": {
          "_router": "Address of the new naughty router"
        }
      },
      "settleAllPolicyTokens(string,address,uint256,uint256)": {
        "details": "Take care of the gas cost and can use the _startIndex and _stopIndex to control the size",
        "params": {
          "_policyTokenName": "Name of policy token",
          "_stablecoin": "Address of stablecoin",
          "_startIndex": "Settlement start index",
          "_stopIndex": "Settlement stop index"
        }
      },
      "settleFinalResult(string)": {
        "params": {
          "_policyTokenName": "Name of the policy token"
        }
      },
      "transferOwnership(address)": {
        "details": "Can only be called by the current owner.",
        "params": {
          "newOwner": "Address of the new owner"
        }
      }
    },
    "title": "PolicyCore",
    "version": 1
  },
  "userdoc": {
    "kind": "user",
    "methods": {
      "addStablecoin(address)": {
        "notice": "Add a newly supported stablecoin"
      },
      "checkUserQuota(address,address)": {
        "notice": "Check a user's quota for a certain policy token"
      },
      "claim(string,address,uint256)": {
        "notice": "Claim a payoff based on policy tokens"
      },
      "constructor": {
        "notice": "Constructor, for some addresses"
      },
      "delegateDeposit(string,address,uint256,address)": {
        "notice": "Delegate deposit (deposit and mint for other addresses)"
      },
      "deployPolicyToken(string,bool,uint256,uint256,uint256,uint256,uint256)": {
        "notice": "Deploy a new policy token and return the token address"
      },
      "deployPool(string,address,uint256,uint256)": {
        "notice": "Deploy a new pair (pool)"
      },
      "deposit(string,address,uint256)": {
        "notice": "Deposit stablecoins and get policy tokens"
      },
      "findAddressbyName(string)": {
        "notice": "Find the token address by its name"
      },
      "findNamebyAddress(address)": {
        "notice": "Find the token name by its address"
      },
      "getAllTokens()": {
        "notice": "Get the information about all the tokens"
      },
      "getPolicyTokenInfo(string)": {
        "notice": "Find the token information by its name"
      },
      "owner()": {
        "notice": "Returns the address of the current owner."
      },
      "redeem(string,address,uint256)": {
        "notice": "Burn policy tokens and redeem USDT"
      },
      "redeemAfterSettlement(string,address)": {
        "notice": "Redeem policy tokens and get stablecoins by the user himeself"
      },
      "renounceOwnership()": {
        "notice": "Leaves the contract without owner. It will not be possible to call         `onlyOwner` functions anymore. Can only be called by the current owner."
      },
      "setEmergencyPool(address)": {
        "notice": "Change the address of emergency pool"
      },
      "setLottery(address)": {
        "notice": "Change the address of lottery"
      },
      "setNaughtyRouter(address)": {
        "notice": "Change the address of naughty router"
      },
      "settleAllPolicyTokens(string,address,uint256,uint256)": {
        "notice": "Settle the policies when then insurance event do not happen         Funds are automatically distributed back to the depositors"
      },
      "settleFinalResult(string)": {
        "notice": "Get the final price from the PriceGetter contract"
      },
      "transferOwnership(address)": {
        "notice": "Transfers ownership of the contract to a new account (`newOwner`)."
      }
    },
    "notice": "Core logic of Naughty Price Product         Preset:              (Done in the naughtyFactory contract)              1. Deploy policyToken contract              2. Deploy policyToken-Stablecoin pool contract         User Interaction:              1. Deposit Stablecoin and mint PolicyTokens              2. Redeem their Stablecoin and burn the PolicyTokens (before settlement)              3. Claim for payout with PolicyTokens (after settlement)         PolicyTokens are minted with the ratio 1:1 to Stablecoin         The PolicyTokens are traded in the pool with CFMM (xy=k)         When the event happens, a PolicyToken can be burned for claiming 1 Stablecoin.         When the event does not happen, the PolicyToken depositors can         redeem their 1 deposited Stablecoin",
    "version": 1
  },
  "storageLayout": {
    "storage": [
      {
        "astId": 21695,
        "contract": "contracts/naughty-price/PolicyCore.sol:PolicyCore",
        "label": "_owner",
        "offset": 0,
        "slot": "0",
        "type": "t_address"
      },
      {
        "astId": 17695,
        "contract": "contracts/naughty-price/PolicyCore.sol:PolicyCore",
        "label": "factory",
        "offset": 0,
        "slot": "1",
        "type": "t_contract(INaughtyFactory)19449"
      },
      {
        "astId": 17698,
        "contract": "contracts/naughty-price/PolicyCore.sol:PolicyCore",
        "label": "priceGetter",
        "offset": 0,
        "slot": "2",
        "type": "t_contract(IPriceGetter)19693"
      },
      {
        "astId": 17700,
        "contract": "contracts/naughty-price/PolicyCore.sol:PolicyCore",
        "label": "lottery",
        "offset": 0,
        "slot": "3",
        "type": "t_address"
      },
      {
        "astId": 17702,
        "contract": "contracts/naughty-price/PolicyCore.sol:PolicyCore",
        "label": "emergencyPool",
        "offset": 0,
        "slot": "4",
        "type": "t_address"
      },
      {
        "astId": 17704,
        "contract": "contracts/naughty-price/PolicyCore.sol:PolicyCore",
        "label": "naughtyRouter",
        "offset": 0,
        "slot": "5",
        "type": "t_address"
      },
      {
        "astId": 17706,
        "contract": "contracts/naughty-price/PolicyCore.sol:PolicyCore",
        "label": "currentDistributionIndex",
        "offset": 0,
        "slot": "6",
        "type": "t_uint256"
      },
      {
        "astId": 17724,
        "contract": "contracts/naughty-price/PolicyCore.sol:PolicyCore",
        "label": "policyTokenInfoMapping",
        "offset": 0,
        "slot": "7",
        "type": "t_mapping(t_string_memory_ptr,t_struct(PolicyTokenInfo)17719_storage)"
      },
      {
        "astId": 17728,
        "contract": "contracts/naughty-price/PolicyCore.sol:PolicyCore",
        "label": "policyTokenAddressToName",
        "offset": 0,
        "slot": "8",
        "type": "t_mapping(t_address,t_string_storage)"
      },
      {
        "astId": 17731,
        "contract": "contracts/naughty-price/PolicyCore.sol:PolicyCore",
        "label": "allPolicyTokens",
        "offset": 0,
        "slot": "9",
        "type": "t_array(t_string_storage)dyn_storage"
      },
      {
        "astId": 17735,
        "contract": "contracts/naughty-price/PolicyCore.sol:PolicyCore",
        "label": "supportedStablecoin",
        "offset": 0,
        "slot": "10",
        "type": "t_mapping(t_address,t_bool)"
      },
      {
        "astId": 17739,
        "contract": "contracts/naughty-price/PolicyCore.sol:PolicyCore",
        "label": "whichStablecoin",
        "offset": 0,
        "slot": "11",
        "type": "t_mapping(t_address,t_address)"
      },
      {
        "astId": 17743,
        "contract": "contracts/naughty-price/PolicyCore.sol:PolicyCore",
        "label": "policyTokenToOriginal",
        "offset": 0,
        "slot": "12",
        "type": "t_mapping(t_address,t_string_storage)"
      },
      {
        "astId": 17749,
        "contract": "contracts/naughty-price/PolicyCore.sol:PolicyCore",
        "label": "userQuota",
        "offset": 0,
        "slot": "13",
        "type": "t_mapping(t_address,t_mapping(t_address,t_uint256))"
      },
      {
        "astId": 17754,
        "contract": "contracts/naughty-price/PolicyCore.sol:PolicyCore",
        "label": "allDepositors",
        "offset": 0,
        "slot": "14",
        "type": "t_mapping(t_address,t_array(t_address)dyn_storage)"
      },
      {
        "astId": 17766,
        "contract": "contracts/naughty-price/PolicyCore.sol:PolicyCore",
        "label": "settleResult",
        "offset": 0,
        "slot": "15",
        "type": "t_mapping(t_address,t_struct(SettlementInfo)17761_storage)"
      }
    ],
    "types": {
      "t_address": {
        "encoding": "inplace",
        "label": "address",
        "numberOfBytes": "20"
      },
      "t_array(t_address)dyn_storage": {
        "base": "t_address",
        "encoding": "dynamic_array",
        "label": "address[]",
        "numberOfBytes": "32"
      },
      "t_array(t_string_storage)dyn_storage": {
        "base": "t_string_storage",
        "encoding": "dynamic_array",
        "label": "string[]",
        "numberOfBytes": "32"
      },
      "t_bool": {
        "encoding": "inplace",
        "label": "bool",
        "numberOfBytes": "1"
      },
      "t_contract(INaughtyFactory)19449": {
        "encoding": "inplace",
        "label": "contract INaughtyFactory",
        "numberOfBytes": "20"
      },
      "t_contract(IPriceGetter)19693": {
        "encoding": "inplace",
        "label": "contract IPriceGetter",
        "numberOfBytes": "20"
      },
      "t_mapping(t_address,t_address)": {
        "encoding": "mapping",
        "key": "t_address",
        "label": "mapping(address => address)",
        "numberOfBytes": "32",
        "value": "t_address"
      },
      "t_mapping(t_address,t_array(t_address)dyn_storage)": {
        "encoding": "mapping",
        "key": "t_address",
        "label": "mapping(address => address[])",
        "numberOfBytes": "32",
        "value": "t_array(t_address)dyn_storage"
      },
      "t_mapping(t_address,t_bool)": {
        "encoding": "mapping",
        "key": "t_address",
        "label": "mapping(address => bool)",
        "numberOfBytes": "32",
        "value": "t_bool"
      },
      "t_mapping(t_address,t_mapping(t_address,t_uint256))": {
        "encoding": "mapping",
        "key": "t_address",
        "label": "mapping(address => mapping(address => uint256))",
        "numberOfBytes": "32",
        "value": "t_mapping(t_address,t_uint256)"
      },
      "t_mapping(t_address,t_string_storage)": {
        "encoding": "mapping",
        "key": "t_address",
        "label": "mapping(address => string)",
        "numberOfBytes": "32",
        "value": "t_string_storage"
      },
      "t_mapping(t_address,t_struct(SettlementInfo)17761_storage)": {
        "encoding": "mapping",
        "key": "t_address",
        "label": "mapping(address => struct PolicyCore.SettlementInfo)",
        "numberOfBytes": "32",
        "value": "t_struct(SettlementInfo)17761_storage"
      },
      "t_mapping(t_address,t_uint256)": {
        "encoding": "mapping",
        "key": "t_address",
        "label": "mapping(address => uint256)",
        "numberOfBytes": "32",
        "value": "t_uint256"
      },
      "t_mapping(t_string_memory_ptr,t_struct(PolicyTokenInfo)17719_storage)": {
        "encoding": "mapping",
        "key": "t_string_memory_ptr",
        "label": "mapping(string => struct PolicyCore.PolicyTokenInfo)",
        "numberOfBytes": "32",
        "value": "t_struct(PolicyTokenInfo)17719_storage"
      },
      "t_string_memory_ptr": {
        "encoding": "bytes",
        "label": "string",
        "numberOfBytes": "32"
      },
      "t_string_storage": {
        "encoding": "bytes",
        "label": "string",
        "numberOfBytes": "32"
      },
      "t_struct(PolicyTokenInfo)17719_storage": {
        "encoding": "inplace",
        "label": "struct PolicyCore.PolicyTokenInfo",
        "members": [
          {
            "astId": 17708,
            "contract": "contracts/naughty-price/PolicyCore.sol:PolicyCore",
            "label": "policyTokenAddress",
            "offset": 0,
            "slot": "0",
            "type": "t_address"
          },
          {
            "astId": 17710,
            "contract": "contracts/naughty-price/PolicyCore.sol:PolicyCore",
            "label": "isCall",
            "offset": 20,
            "slot": "0",
            "type": "t_bool"
          },
          {
            "astId": 17712,
            "contract": "contracts/naughty-price/PolicyCore.sol:PolicyCore",
            "label": "decimals",
            "offset": 0,
            "slot": "1",
            "type": "t_uint256"
          },
          {
            "astId": 17714,
            "contract": "contracts/naughty-price/PolicyCore.sol:PolicyCore",
            "label": "strikePrice",
            "offset": 0,
            "slot": "2",
            "type": "t_uint256"
          },
          {
            "astId": 17716,
            "contract": "contracts/naughty-price/PolicyCore.sol:PolicyCore",
            "label": "deadline",
            "offset": 0,
            "slot": "3",
            "type": "t_uint256"
          },
          {
            "astId": 17718,
            "contract": "contracts/naughty-price/PolicyCore.sol:PolicyCore",
            "label": "settleTimestamp",
            "offset": 0,
            "slot": "4",
            "type": "t_uint256"
          }
        ],
        "numberOfBytes": "160"
      },
      "t_struct(SettlementInfo)17761_storage": {
        "encoding": "inplace",
        "label": "struct PolicyCore.SettlementInfo",
        "members": [
          {
            "astId": 17756,
            "contract": "contracts/naughty-price/PolicyCore.sol:PolicyCore",
            "label": "price",
            "offset": 0,
            "slot": "0",
            "type": "t_uint256"
          },
          {
            "astId": 17758,
            "contract": "contracts/naughty-price/PolicyCore.sol:PolicyCore",
            "label": "isHappened",
            "offset": 0,
            "slot": "1",
            "type": "t_bool"
          },
          {
            "astId": 17760,
            "contract": "contracts/naughty-price/PolicyCore.sol:PolicyCore",
            "label": "alreadySettled",
            "offset": 1,
            "slot": "1",
            "type": "t_bool"
          }
        ],
        "numberOfBytes": "64"
      },
      "t_uint256": {
        "encoding": "inplace",
        "label": "uint256",
        "numberOfBytes": "32"
      }
    }
  }
}