{
  "address": "0x5FC8d32690cc91D4c39d9d3abcBD16989F875707",
  "abi": [
    {
      "inputs": [
        {
          "internalType": "address",
          "name": "_buyerToken",
          "type": "address"
        },
        {
          "internalType": "address",
          "name": "_degisToken",
          "type": "address"
        }
      ],
      "stateMutability": "nonpayable",
      "type": "constructor"
    },
    {
      "inputs": [
        {
          "internalType": "uint256",
          "name": "prod1",
          "type": "uint256"
        }
      ],
      "name": "PRBMath__MulDivFixedPointOverflow",
      "type": "error"
    },
    {
      "inputs": [
        {
          "internalType": "uint256",
          "name": "prod1",
          "type": "uint256"
        },
        {
          "internalType": "uint256",
          "name": "denominator",
          "type": "uint256"
        }
      ],
      "name": "PRBMath__MulDivOverflow",
      "type": "error"
    },
    {
      "anonymous": false,
      "inputs": [
        {
          "indexed": false,
          "internalType": "uint256",
          "name": "oldPerRound",
          "type": "uint256"
        },
        {
          "indexed": false,
          "internalType": "uint256",
          "name": "newPerRound",
          "type": "uint256"
        }
      ],
      "name": "DegisPerRoundChanged",
      "type": "event"
    },
    {
      "anonymous": false,
      "inputs": [
        {
          "indexed": false,
          "internalType": "uint256",
          "name": "oldInterval",
          "type": "uint256"
        },
        {
          "indexed": false,
          "internalType": "uint256",
          "name": "newInterval",
          "type": "uint256"
        }
      ],
      "name": "DistributionIntervalChanged",
      "type": "event"
    },
    {
      "anonymous": false,
      "inputs": [
        {
          "indexed": true,
          "internalType": "address",
          "name": "previousOwner",
          "type": "address"
        },
        {
          "indexed": true,
          "internalType": "address",
          "name": "newOwner",
          "type": "address"
        }
      ],
      "name": "OwnershipTransferred",
      "type": "event"
    },
    {
      "anonymous": false,
      "inputs": [
        {
          "indexed": false,
          "internalType": "address",
          "name": "userAddress",
          "type": "address"
        },
        {
          "indexed": false,
          "internalType": "uint256",
          "name": "currentRound",
          "type": "uint256"
        },
        {
          "indexed": false,
          "internalType": "uint256",
          "name": "amount",
          "type": "uint256"
        }
      ],
      "name": "Redeem",
      "type": "event"
    },
    {
      "anonymous": false,
      "inputs": [
        {
          "indexed": false,
          "internalType": "address",
          "name": "userAddress",
          "type": "address"
        },
        {
          "indexed": false,
          "internalType": "uint256",
          "name": "userReward",
          "type": "uint256"
        }
      ],
      "name": "RewardClaimed",
      "type": "event"
    },
    {
      "anonymous": false,
      "inputs": [
        {
          "indexed": false,
          "internalType": "address",
          "name": "userAddress",
          "type": "address"
        },
        {
          "indexed": false,
          "internalType": "uint256",
          "name": "currentRound",
          "type": "uint256"
        },
        {
          "indexed": false,
          "internalType": "uint256",
          "name": "amount",
          "type": "uint256"
        }
      ],
      "name": "Stake",
      "type": "event"
    },
    {
      "inputs": [],
      "name": "MAX_ROUND",
      "outputs": [
        {
          "internalType": "uint256",
          "name": "",
          "type": "uint256"
        }
      ],
      "stateMutability": "view",
      "type": "function"
    },
    {
      "inputs": [],
      "name": "claimOwnReward",
      "outputs": [],
      "stateMutability": "nonpayable",
      "type": "function"
    },
    {
      "inputs": [],
      "name": "currentRound",
      "outputs": [
        {
          "internalType": "uint256",
          "name": "",
          "type": "uint256"
        }
      ],
      "stateMutability": "view",
      "type": "function"
    },
    {
      "inputs": [],
      "name": "degisPerRound",
      "outputs": [
        {
          "internalType": "uint256",
          "name": "",
          "type": "uint256"
        }
      ],
      "stateMutability": "view",
      "type": "function"
    },
    {
      "inputs": [],
      "name": "distributionInterval",
      "outputs": [
        {
          "internalType": "uint256",
          "name": "",
          "type": "uint256"
        }
      ],
      "stateMutability": "view",
      "type": "function"
    },
    {
      "inputs": [
        {
          "internalType": "uint256",
          "name": "_round",
          "type": "uint256"
        }
      ],
      "name": "getTotalUsersInRound",
      "outputs": [
        {
          "internalType": "uint256",
          "name": "",
          "type": "uint256"
        }
      ],
      "stateMutability": "view",
      "type": "function"
    },
    {
      "inputs": [
        {
          "internalType": "address",
          "name": "_user",
          "type": "address"
        }
      ],
      "name": "getUserShares",
      "outputs": [
        {
          "internalType": "uint256",
          "name": "",
          "type": "uint256"
        }
      ],
      "stateMutability": "view",
      "type": "function"
    },
    {
      "inputs": [],
      "name": "lastDistributionBlock",
      "outputs": [
        {
          "internalType": "uint256",
          "name": "",
          "type": "uint256"
        }
      ],
      "stateMutability": "view",
      "type": "function"
    },
    {
      "inputs": [],
      "name": "owner",
      "outputs": [
        {
          "internalType": "address",
          "name": "",
          "type": "address"
        }
      ],
      "stateMutability": "view",
      "type": "function"
    },
    {
      "inputs": [],
      "name": "pendingReward",
      "outputs": [
        {
          "internalType": "uint256",
          "name": "",
          "type": "uint256"
        }
      ],
      "stateMutability": "view",
      "type": "function"
    },
    {
      "inputs": [
        {
          "internalType": "uint256",
          "name": "_amount",
          "type": "uint256"
        }
      ],
      "name": "redeem",
      "outputs": [],
      "stateMutability": "nonpayable",
      "type": "function"
    },
    {
      "inputs": [],
      "name": "renounceOwnership",
      "outputs": [],
      "stateMutability": "nonpayable",
      "type": "function"
    },
    {
      "inputs": [
        {
          "internalType": "uint256",
          "name": "_degisPerRound",
          "type": "uint256"
        }
      ],
      "name": "setDegisPerRound",
      "outputs": [],
      "stateMutability": "nonpayable",
      "type": "function"
    },
    {
      "inputs": [
        {
          "internalType": "uint256",
          "name": "_newInterval",
          "type": "uint256"
        }
      ],
      "name": "setDistributionInterval",
      "outputs": [],
      "stateMutability": "nonpayable",
      "type": "function"
    },
    {
      "inputs": [],
      "name": "settleCurrentRound",
      "outputs": [],
      "stateMutability": "nonpayable",
      "type": "function"
    },
    {
      "inputs": [
        {
          "internalType": "uint256",
          "name": "_amount",
          "type": "uint256"
        }
      ],
      "name": "stake",
      "outputs": [],
      "stateMutability": "nonpayable",
      "type": "function"
    },
    {
      "inputs": [
        {
          "internalType": "address",
          "name": "newOwner",
          "type": "address"
        }
      ],
      "name": "transferOwnership",
      "outputs": [],
      "stateMutability": "nonpayable",
      "type": "function"
    },
    {
      "inputs": [
        {
          "internalType": "address",
          "name": "",
          "type": "address"
        }
      ],
      "name": "userLastRewardRound",
      "outputs": [
        {
          "internalType": "uint256",
          "name": "",
          "type": "uint256"
        }
      ],
      "stateMutability": "view",
      "type": "function"
    },
    {
      "inputs": [
        {
          "internalType": "address",
          "name": "",
          "type": "address"
        }
      ],
      "name": "userRewards",
      "outputs": [
        {
          "internalType": "uint256",
          "name": "",
          "type": "uint256"
        }
      ],
      "stateMutability": "view",
      "type": "function"
    },
    {
      "inputs": [
        {
          "internalType": "address",
          "name": "",
          "type": "address"
        },
        {
          "internalType": "uint256",
          "name": "",
          "type": "uint256"
        }
      ],
      "name": "userSharesInRound",
      "outputs": [
        {
          "internalType": "uint256",
          "name": "",
          "type": "uint256"
        }
      ],
      "stateMutability": "view",
      "type": "function"
    }
  ],
  "transactionHash": "0xf12a7e5c547c4483866da49ffb3934fefb432c30746821b6b3c69699cbb6f9ee",
  "args": [
    "0xe7f1725E7734CE288F8367e1Bb143E90bb3F0512",
    "0x5FbDB2315678afecb367f032d93F642f64180aa3"
  ],
  "numDeployments": 1,
  "solcInputHash": "891f6e83b97076056766f10193ee5514",
  "bytecode": "0x608060405260326007553480156200001657600080fd5b50604051620015d0380380620015d0833981016040819052620000399162000104565b62000044336200007a565b600180546001600160a01b039384166001600160a01b031991821617909155600280549290931691161790554360065562000147565b600080546001600160a01b038381166001600160a01b0319831681178455604051919092169283917f8be0079c531659141344cd1fd0a4f28419497f9722a3daafe3b4186f6b6457e09190a35050565b60006001600160a01b0382165b92915050565b620000e881620000ca565b8114620000f457600080fd5b50565b8051620000d781620000dd565b600080604083850312156200011c576200011c600080fd5b60006200012a8585620000f7565b92505060206200013d85828601620000f7565b9150509250929050565b61147980620001576000396000f3fe608060405234801561001057600080fd5b506004361061012c5760003560e01c80638da5cb5b116100ad578063ca1fe80911610071578063ca1fe80914610288578063db006a7514610290578063e6848ead146102a3578063f2bc79a3146102b6578063f2fde38b146102bf57600080fd5b80638da5cb5b14610214578063a694fc3a1461022d578063b4ac62c514610240578063ba0cb22b14610249578063c708c5f41461027f57600080fd5b8063582c7460116100f4578063582c7460146101dd57806371201a0e146101e7578063715018a6146101f05780637a16a49e146101f85780638a19c8bc1461020b57600080fd5b80630660f1e814610131578063137ee36e146101675780631aeee41d1461016f5780632c7d9f8a146101925780632f017901146101b2575b600080fd5b61015161013f366004610f54565b600c6020526000908152604090205481565b60405161015e9190610f7d565b60405180910390f35b6101516102d2565b61015161017d366004610f9c565b60009081526009602052604090206001015490565b6101516101a0366004610f54565b600d6020526000908152604090205481565b6101516101c0366004610fbd565b600b60209081526000928352604080842090915290825290205481565b6101e561040b565b005b61015160055481565b6101e5610637565b6101e5610206366004610f9c565b61067c565b61015160035481565b6000546001600160a01b031660405161015e9190611003565b6101e561023b366004610f9c565b6106fb565b61015160075481565b610151610257366004610f54565b6001600160a01b03166000908152600b60209081526040808320600354845290915290205490565b61015160045481565b6101e5610853565b6101e561029e366004610f9c565b61090c565b6101e56102b1366004610f9c565b610a2b565b61015160065481565b6101e56102cd366004610f54565b610a9e565b336000908152600a60209081526040808320815180830183528154815260018201805484518187028101870190955280855286959294858401939092919083018282801561033f57602002820191906000526020600020905b81548152602001906001019080831161032b575b5050505050815250509050600081600001518260200151516103619190611027565b82519091506000815b610374848461103e565b8110156104025760008560200151828151811061039357610393611056565b602002602001015190506103e2600b60006103ab3390565b6001600160a01b03168152602080820192909252604090810160009081208582528352818120546009909352206003015490610b09565b6103ec908461103e565b92505080806103fa9061106c565b91505061036a565b50949350505050565b336000908152600a602090815260408083208151808301835281548152600182018054845181870281018701909552808552919492938584019390929083018282801561047757602002820191906000526020600020905b815481526020019060010190808311610463575b5050505050815250509050806020015151600014156104b15760405162461bcd60e51b81526004016104a8906110bb565b60405180910390fd5b80516020820151516000916104c591611027565b8251600754919250908211156105245760075491508260200151600754815181106104f2576104f2611056565b6020026020010151600a60006105053390565b6001600160a01b03168152602081019190915260400160002055610569565b6020830151610534600184611027565b8151811061054457610544611056565b60200260200101516001610558919061103e565b336000908152600a60205260409020555b6000815b610577848461103e565b8110156105ce5760008560200151828151811061059657610596611056565b602002602001015190506105ae600b60006103ab3390565b6105b8908461103e565b92505080806105c69061106c565b91505061056d565b506002546001600160a01b031663b476739833836040518363ffffffff1660e01b81526004016105ff9291906110cb565b600060405180830381600087803b15801561061957600080fd5b505af115801561062d573d6000803e3d6000fd5b5050505050505050565b3361064a6000546001600160a01b031690565b6001600160a01b0316146106705760405162461bcd60e51b81526004016104a890611116565b61067a6000610b1c565b565b3361068f6000546001600160a01b031690565b6001600160a01b0316146106b55760405162461bcd60e51b81526004016104a890611116565b60058054908290556040517f0bcbec4c9da357687b1300891e9be5627182572bb49e955ea7d37afcd9275984906106ef9083908590611126565b60405180910390a15050565b610713336001546001600160a01b0316903084610b6c565b336000908152600b6020908152604080832060035484529091529020546107695760035460009081526009602090815260408220600190810180549182018155835291200180546001600160a01b031916331790555b336000908152600b6020908152604080832060035484529091528120805483929061079590849061103e565b9091555050336000908152600a60205260409020600101546107c557600354336000908152600a60205260409020555b336000908152600a602090815260408083206003805460019283018054938401815586528486209092019190915554835260099091528120805483929061080d90849061103e565b909155507f5af417134f72a9d41143ace85b0a26dce6f550f894f2cbc1eeee8810603d91b69050336003548360405161084893929190611134565b60405180910390a150565b336108666000546001600160a01b031690565b6001600160a01b03161461088c5760405162461bcd60e51b81526004016104a890611116565b6003546000908152600960205260409020600281015460ff16156108c25760405162461bcd60e51b81526004016104a89061118e565b80546004546108d19082610bca565b60038084019190915560028301805460ff1916600190811790915581549091906000906108ff90849061103e565b9091555050436006555050565b336000908152600b602090815260408083206003548452909152902054818110156109495760405162461bcd60e51b81526004016104a8906111e4565b610960336001546001600160a01b03169084610bdf565b336000908152600b6020908152604080832060035484529091528120805484929061098c908490611027565b9091555050336000908152600a602052604090206001018054806109b2576109b26111f4565b600190038181906000526020600020016000905590558160096000600354815260200190815260200160002060000160008282546109f09190611027565b909155507fe5b754fb1abb7f01b499791d0b820ae3b6af3424ac1c59768edb53f4ec31a929905033600354846040516106ef93929190611134565b33610a3e6000546001600160a01b031690565b6001600160a01b031614610a645760405162461bcd60e51b81526004016104a890611116565b60048054908290556040517fa1c3380bad48ec737194c876d07b4d6c49471396974e2bdc613491a82a3c8c86906106ef9083908590611126565b33610ab16000546001600160a01b031690565b6001600160a01b031614610ad75760405162461bcd60e51b81526004016104a890611116565b6001600160a01b038116610afd5760405162461bcd60e51b81526004016104a89061124b565b610b0681610b1c565b50565b6000610b158383610c03565b9392505050565b600080546001600160a01b038381166001600160a01b0319831681178455604051919092169283917f8be0079c531659141344cd1fd0a4f28419497f9722a3daafe3b4186f6b6457e09190a35050565b610bc4846323b872dd60e01b858585604051602401610b8d9392919061125b565b60408051601f198184030181529190526020810180516001600160e01b03166001600160e01b031990931692909217909152610cc5565b50505050565b6000610b1583670de0b6b3a764000084610d54565b610bfe8363a9059cbb60e01b8484604051602401610b8d9291906110cb565b505050565b60008080600019848609848602925082811083820303915050670de0b6b3a76400008110610c46578060405163698d9a0160e11b81526004016104a89190610f7d565b600080670de0b6b3a76400008688099150506706f05b59d3b1ffff811182610c805780670de0b6b3a7640000850401945050505050610cbf565b620400008285030493909111909103600160ee1b02919091177faccb18165bd6fe31ae1cf318dc5b51eee0e1ba569b88cd74c1773b91fac10669020190505b92915050565b6000610d1a826040518060400160405280602081526020017f5361666545524332303a206c6f772d6c6576656c2063616c6c206661696c6564815250856001600160a01b0316610e1b9092919063ffffffff16565b805190915015610bfe5780806020019051810190610d38919061129f565b610bfe5760405162461bcd60e51b81526004016104a890611305565b600080806000198587098587029250828110838203039150508060001415610d8f57838281610d8557610d85611276565b0492505050610b15565b838110610db3578084604051631dcf306360e21b81526004016104a8929190611126565b600084868809600260036001881981018916988990049182028318808302840302808302840302808302840302808302840302808302840302918202909203026000889003889004909101858311909403939093029303949094049190911702949350505050565b6060610e2a8484600085610e32565b949350505050565b606082471015610e545760405162461bcd60e51b81526004016104a890611356565b843b610e725760405162461bcd60e51b81526004016104a890611398565b600080866001600160a01b03168587604051610e8e91906113f6565b60006040518083038185875af1925050503d8060008114610ecb576040519150601f19603f3d011682016040523d82523d6000602084013e610ed0565b606091505b5091509150610ee0828286610eeb565b979650505050505050565b60608315610efa575081610b15565b825115610f0a5782518084602001fd5b8160405162461bcd60e51b81526004016104a89190611432565b60006001600160a01b038216610cbf565b610f3e81610f24565b8114610b0657600080fd5b8035610cbf81610f35565b600060208284031215610f6957610f69600080fd5b6000610e2a8484610f49565b805b82525050565b60208101610cbf8284610f75565b80610f3e565b8035610cbf81610f8b565b600060208284031215610fb157610fb1600080fd5b6000610e2a8484610f91565b60008060408385031215610fd357610fd3600080fd5b6000610fdf8585610f49565b9250506020610ff085828601610f91565b9150509250929050565b610f7781610f24565b60208101610cbf8284610ffa565b634e487b7160e01b600052601160045260246000fd5b60008282101561103957611039611011565b500390565b6000821982111561105157611051611011565b500190565b634e487b7160e01b600052603260045260246000fd5b600060001982141561108057611080611011565b5060010190565b60178152602081017f596f752068617665206e6f207368617265732065766572000000000000000000815290505b60200190565b60208082528101610cbf81611087565b604081016110d98285610ffa565b610b156020830184610f75565b60208082527f4f776e61626c653a2063616c6c6572206973206e6f7420746865206f776e657291019081526110b5565b60208082528101610cbf816110e6565b604081016110d98285610f75565b606081016111428286610ffa565b61114f6020830185610f75565b610e2a6040830184610f75565b601e8152602081017f416c7265616479206469737472696275746564207468697320726f756e640000815290506110b5565b60208082528101610cbf8161115c565b60298152602081017f4e6f7420656e6f75676820627579657220746f6b656e7320666f7220796f7520815268746f2072656465656d60b81b602082015290505b60400190565b60208082528101610cbf8161119e565b634e487b7160e01b600052603160045260246000fd5b60268152602081017f4f776e61626c653a206e6577206f776e657220697320746865207a65726f206181526564647265737360d01b602082015290506111de565b60208082528101610cbf8161120a565b606081016112698286610ffa565b61114f6020830185610ffa565b634e487b7160e01b600052601260045260246000fd5b801515610f3e565b8051610cbf8161128c565b6000602082840312156112b4576112b4600080fd5b6000610e2a8484611294565b602a8152602081017f5361666545524332303a204552433230206f7065726174696f6e20646964206e8152691bdd081cdd58d8d9595960b21b602082015290506111de565b60208082528101610cbf816112c0565b60268152602081017f416464726573733a20696e73756666696369656e742062616c616e636520666f8152651c8818d85b1b60d21b602082015290506111de565b60208082528101610cbf81611315565b601d8152602081017f416464726573733a2063616c6c20746f206e6f6e2d636f6e7472616374000000815290506110b5565b60208082528101610cbf81611366565b60005b838110156113c35781810151838201526020016113ab565b83811115610bc45750506000910152565b60006113de825190565b6113ec8185602086016113a8565b9290920192915050565b610cbf81836113d4565b600061140a825190565b8084526020840193506114218185602086016113a8565b601f01601f19169290920192915050565b60208082528101610b15818461140056fea264697066735822122092edf9f028aa37457d07b1d5257ccaeeeb6b55f0bbb3ef533c17899a3dd584b964736f6c634300080a0033",
  "devdoc": {
    "kind": "dev",
    "methods": {
      "getTotalUsersInRound(uint256)": {
        "params": {
          "_round": "Round number to check"
        },
        "returns": {
          "_0": "totalUsers Total amount of users in _round"
        }
      },
      "getUserShares(address)": {
        "params": {
          "_user": "Address of the user"
        }
      },
      "pendingReward()": {
        "returns": {
          "_0": "userPendingReward User's pending reward"
        }
      },
      "redeem(uint256)": {
        "params": {
          "_amount": "Amount to redeem"
        }
      },
      "renounceOwnership()": {
        "details": "Renouncing ownership will leave the contract without an owner,         thereby removing any functionality that is only available to the owner."
      },
      "setDegisPerRound(uint256)": {
        "params": {
          "_degisPerRound": "Degis distribution per round to be set"
        }
      },
      "setDistributionInterval(uint256)": {
        "params": {
          "_newInterval": "The new interval"
        }
      },
      "stake(uint256)": {
        "params": {
          "_amount": "Amount of buyer tokens to stake"
        }
      },
      "transferOwnership(address)": {
        "details": "Can only be called by the current owner.",
        "params": {
          "newOwner": "Address of the new owner"
        }
      }
    },
    "title": "Purchase Incentive Vault",
    "version": 1
  },
  "userdoc": {
    "errors": {
      "PRBMath__MulDivFixedPointOverflow(uint256)": [
        {
          "notice": "Emitted when the result overflows uint256."
        }
      ],
      "PRBMath__MulDivOverflow(uint256,uint256)": [
        {
          "notice": "Emitted when the result overflows uint256."
        }
      ]
    },
    "kind": "user",
    "methods": {
      "claimOwnReward()": {
        "notice": "User can claim his own reward"
      },
      "getTotalUsersInRound(uint256)": {
        "notice": "Get the amount of users in _round, used for distribution"
      },
      "getUserShares(address)": {
        "notice": "Get your shares in the current round"
      },
      "owner()": {
        "notice": "Returns the address of the current owner."
      },
      "pendingReward()": {
        "notice": "Get a user's pending reward"
      },
      "redeem(uint256)": {
        "notice": "Redeem buyer token from the vault"
      },
      "renounceOwnership()": {
        "notice": "Leaves the contract without owner. It will not be possible to call         `onlyOwner` functions anymore. Can only be called by the current owner."
      },
      "setDegisPerRound(uint256)": {
        "notice": "Set degis distribution per round"
      },
      "setDistributionInterval(uint256)": {
        "notice": "Set a new distribution interval"
      },
      "settleCurrentRound()": {
        "notice": "Setttle the current round"
      },
      "stake(uint256)": {
        "notice": "Stake buyer tokens into this contract"
      },
      "transferOwnership(address)": {
        "notice": "Transfers ownership of the contract to a new account (`newOwner`)."
      }
    },
    "notice": "This is the purchase incentive vault for staking buyer tokens.         Users first stake their buyer tokens and wait for distribution.         About every 24 hours, the reward will be calculated to users' account.         After disrtribution, users' reward balance will update but they still need to manually claim the reward.",
    "version": 1
  },
  "storageLayout": {
    "storage": [
      {
        "astId": 21695,
        "contract": "contracts/farming/PurchaseIncentiveVault.sol:PurchaseIncentiveVault",
        "label": "_owner",
        "offset": 0,
        "slot": "0",
        "type": "t_address"
      },
      {
        "astId": 7552,
        "contract": "contracts/farming/PurchaseIncentiveVault.sol:PurchaseIncentiveVault",
        "label": "buyerToken",
        "offset": 0,
        "slot": "1",
        "type": "t_contract(IBuyerToken)21196"
      },
      {
        "astId": 7555,
        "contract": "contracts/farming/PurchaseIncentiveVault.sol:PurchaseIncentiveVault",
        "label": "degis",
        "offset": 0,
        "slot": "2",
        "type": "t_contract(IDegisToken)21226"
      },
      {
        "astId": 7557,
        "contract": "contracts/farming/PurchaseIncentiveVault.sol:PurchaseIncentiveVault",
        "label": "currentRound",
        "offset": 0,
        "slot": "3",
        "type": "t_uint256"
      },
      {
        "astId": 7559,
        "contract": "contracts/farming/PurchaseIncentiveVault.sol:PurchaseIncentiveVault",
        "label": "degisPerRound",
        "offset": 0,
        "slot": "4",
        "type": "t_uint256"
      },
      {
        "astId": 7561,
        "contract": "contracts/farming/PurchaseIncentiveVault.sol:PurchaseIncentiveVault",
        "label": "distributionInterval",
        "offset": 0,
        "slot": "5",
        "type": "t_uint256"
      },
      {
        "astId": 7563,
        "contract": "contracts/farming/PurchaseIncentiveVault.sol:PurchaseIncentiveVault",
        "label": "lastDistributionBlock",
        "offset": 0,
        "slot": "6",
        "type": "t_uint256"
      },
      {
        "astId": 7566,
        "contract": "contracts/farming/PurchaseIncentiveVault.sol:PurchaseIncentiveVault",
        "label": "MAX_ROUND",
        "offset": 0,
        "slot": "7",
        "type": "t_uint256"
      },
      {
        "astId": 7568,
        "contract": "contracts/farming/PurchaseIncentiveVault.sol:PurchaseIncentiveVault",
        "label": "currentDistributionIndex",
        "offset": 0,
        "slot": "8",
        "type": "t_uint256"
      },
      {
        "astId": 7583,
        "contract": "contracts/farming/PurchaseIncentiveVault.sol:PurchaseIncentiveVault",
        "label": "roundInfo",
        "offset": 0,
        "slot": "9",
        "type": "t_mapping(t_uint256,t_struct(RoundInfo)7578_storage)"
      },
      {
        "astId": 7594,
        "contract": "contracts/farming/PurchaseIncentiveVault.sol:PurchaseIncentiveVault",
        "label": "userInfo",
        "offset": 0,
        "slot": "10",
        "type": "t_mapping(t_address,t_struct(UserInfo)7589_storage)"
      },
      {
        "astId": 7600,
        "contract": "contracts/farming/PurchaseIncentiveVault.sol:PurchaseIncentiveVault",
        "label": "userSharesInRound",
        "offset": 0,
        "slot": "11",
        "type": "t_mapping(t_address,t_mapping(t_uint256,t_uint256))"
      },
      {
        "astId": 7604,
        "contract": "contracts/farming/PurchaseIncentiveVault.sol:PurchaseIncentiveVault",
        "label": "userRewards",
        "offset": 0,
        "slot": "12",
        "type": "t_mapping(t_address,t_uint256)"
      },
      {
        "astId": 7608,
        "contract": "contracts/farming/PurchaseIncentiveVault.sol:PurchaseIncentiveVault",
        "label": "userLastRewardRound",
        "offset": 0,
        "slot": "13",
        "type": "t_mapping(t_address,t_uint256)"
      }
    ],
    "types": {
      "t_address": {
        "encoding": "inplace",
        "label": "address",
        "numberOfBytes": "20"
      },
      "t_array(t_address)dyn_storage": {
        "base": "t_address",
        "encoding": "dynamic_array",
        "label": "address[]",
        "numberOfBytes": "32"
      },
      "t_array(t_uint256)dyn_storage": {
        "base": "t_uint256",
        "encoding": "dynamic_array",
        "label": "uint256[]",
        "numberOfBytes": "32"
      },
      "t_bool": {
        "encoding": "inplace",
        "label": "bool",
        "numberOfBytes": "1"
      },
      "t_contract(IBuyerToken)21196": {
        "encoding": "inplace",
        "label": "contract IBuyerToken",
        "numberOfBytes": "20"
      },
      "t_contract(IDegisToken)21226": {
        "encoding": "inplace",
        "label": "contract IDegisToken",
        "numberOfBytes": "20"
      },
      "t_mapping(t_address,t_mapping(t_uint256,t_uint256))": {
        "encoding": "mapping",
        "key": "t_address",
        "label": "mapping(address => mapping(uint256 => uint256))",
        "numberOfBytes": "32",
        "value": "t_mapping(t_uint256,t_uint256)"
      },
      "t_mapping(t_address,t_struct(UserInfo)7589_storage)": {
        "encoding": "mapping",
        "key": "t_address",
        "label": "mapping(address => struct PurchaseIncentiveVault.UserInfo)",
        "numberOfBytes": "32",
        "value": "t_struct(UserInfo)7589_storage"
      },
      "t_mapping(t_address,t_uint256)": {
        "encoding": "mapping",
        "key": "t_address",
        "label": "mapping(address => uint256)",
        "numberOfBytes": "32",
        "value": "t_uint256"
      },
      "t_mapping(t_uint256,t_struct(RoundInfo)7578_storage)": {
        "encoding": "mapping",
        "key": "t_uint256",
        "label": "mapping(uint256 => struct PurchaseIncentiveVault.RoundInfo)",
        "numberOfBytes": "32",
        "value": "t_struct(RoundInfo)7578_storage"
      },
      "t_mapping(t_uint256,t_uint256)": {
        "encoding": "mapping",
        "key": "t_uint256",
        "label": "mapping(uint256 => uint256)",
        "numberOfBytes": "32",
        "value": "t_uint256"
      },
      "t_struct(RoundInfo)7578_storage": {
        "encoding": "inplace",
        "label": "struct PurchaseIncentiveVault.RoundInfo",
        "members": [
          {
            "astId": 7570,
            "contract": "contracts/farming/PurchaseIncentiveVault.sol:PurchaseIncentiveVault",
            "label": "shares",
            "offset": 0,
            "slot": "0",
            "type": "t_uint256"
          },
          {
            "astId": 7573,
            "contract": "contracts/farming/PurchaseIncentiveVault.sol:PurchaseIncentiveVault",
            "label": "users",
            "offset": 0,
            "slot": "1",
            "type": "t_array(t_address)dyn_storage"
          },
          {
            "astId": 7575,
            "contract": "contracts/farming/PurchaseIncentiveVault.sol:PurchaseIncentiveVault",
            "label": "hasDistributed",
            "offset": 0,
            "slot": "2",
            "type": "t_bool"
          },
          {
            "astId": 7577,
            "contract": "contracts/farming/PurchaseIncentiveVault.sol:PurchaseIncentiveVault",
            "label": "degisPerShare",
            "offset": 0,
            "slot": "3",
            "type": "t_uint256"
          }
        ],
        "numberOfBytes": "128"
      },
      "t_struct(UserInfo)7589_storage": {
        "encoding": "inplace",
        "label": "struct PurchaseIncentiveVault.UserInfo",
        "members": [
          {
            "astId": 7585,
            "contract": "contracts/farming/PurchaseIncentiveVault.sol:PurchaseIncentiveVault",
            "label": "lastRewardRound",
            "offset": 0,
            "slot": "0",
            "type": "t_uint256"
          },
          {
            "astId": 7588,
            "contract": "contracts/farming/PurchaseIncentiveVault.sol:PurchaseIncentiveVault",
            "label": "pendingRounds",
            "offset": 0,
            "slot": "1",
            "type": "t_array(t_uint256)dyn_storage"
          }
        ],
        "numberOfBytes": "64"
      },
      "t_uint256": {
        "encoding": "inplace",
        "label": "uint256",
        "numberOfBytes": "32"
      }
    }
  }
}