{
  "address": "0x610178dA211FEF7D417bC0e6FeD39F05609AD788",
  "abi": [
    {
      "inputs": [],
      "stateMutability": "nonpayable",
      "type": "constructor"
    },
    {
      "anonymous": false,
      "inputs": [
        {
          "indexed": true,
          "internalType": "address",
          "name": "previousOwner",
          "type": "address"
        },
        {
          "indexed": true,
          "internalType": "address",
          "name": "newOwner",
          "type": "address"
        }
      ],
      "name": "OwnershipTransferred",
      "type": "event"
    },
    {
      "anonymous": false,
      "inputs": [
        {
          "indexed": false,
          "internalType": "address",
          "name": "_newSigner",
          "type": "address"
        }
      ],
      "name": "SignerAdded",
      "type": "event"
    },
    {
      "anonymous": false,
      "inputs": [
        {
          "indexed": false,
          "internalType": "address",
          "name": "_oldSigner",
          "type": "address"
        }
      ],
      "name": "SignerRemoved",
      "type": "event"
    },
    {
      "inputs": [],
      "name": "_SUBMIT_APPLICATION_TYPEHASH",
      "outputs": [
        {
          "internalType": "bytes32",
          "name": "",
          "type": "bytes32"
        }
      ],
      "stateMutability": "view",
      "type": "function"
    },
    {
      "inputs": [
        {
          "internalType": "address",
          "name": "",
          "type": "address"
        }
      ],
      "name": "_isValidSigner",
      "outputs": [
        {
          "internalType": "bool",
          "name": "",
          "type": "bool"
        }
      ],
      "stateMutability": "view",
      "type": "function"
    },
    {
      "inputs": [
        {
          "internalType": "address",
          "name": "_newSigner",
          "type": "address"
        }
      ],
      "name": "addSigner",
      "outputs": [],
      "stateMutability": "nonpayable",
      "type": "function"
    },
    {
      "inputs": [
        {
          "internalType": "bytes",
          "name": "signature",
          "type": "bytes"
        },
        {
          "internalType": "string",
          "name": "_flightNumber",
          "type": "string"
        },
        {
          "internalType": "address",
          "name": "_user",
          "type": "address"
        },
        {
          "internalType": "uint256",
          "name": "_premium",
          "type": "uint256"
        },
        {
          "internalType": "uint256",
          "name": "_deadline",
          "type": "uint256"
        }
      ],
      "name": "checkSignature",
      "outputs": [],
      "stateMutability": "view",
      "type": "function"
    },
    {
      "inputs": [
        {
          "internalType": "address",
          "name": "_address",
          "type": "address"
        }
      ],
      "name": "isValidSigner",
      "outputs": [
        {
          "internalType": "bool",
          "name": "",
          "type": "bool"
        }
      ],
      "stateMutability": "view",
      "type": "function"
    },
    {
      "inputs": [],
      "name": "owner",
      "outputs": [
        {
          "internalType": "address",
          "name": "",
          "type": "address"
        }
      ],
      "stateMutability": "view",
      "type": "function"
    },
    {
      "inputs": [
        {
          "internalType": "address",
          "name": "_oldSigner",
          "type": "address"
        }
      ],
      "name": "removeSigner",
      "outputs": [],
      "stateMutability": "nonpayable",
      "type": "function"
    },
    {
      "inputs": [],
      "name": "renounceOwnership",
      "outputs": [],
      "stateMutability": "nonpayable",
      "type": "function"
    },
    {
      "inputs": [
        {
          "internalType": "address",
          "name": "newOwner",
          "type": "address"
        }
      ],
      "name": "transferOwnership",
      "outputs": [],
      "stateMutability": "nonpayable",
      "type": "function"
    }
  ],
  "transactionHash": "0x09acd8dbe1a713d7f9844bf7b576b5616cd792c00a2dd34c71f057ebb6acd834",
  "args": [],
  "numDeployments": 1,
  "solcInputHash": "891f6e83b97076056766f10193ee5514",
  "bytecode": "0x608060405234801561001057600080fd5b5061001a33610043565b7f06baab66e8ca47b9c4b53e6feffeb23eddc677943a22a6c8cc553c71e1e66856600255610093565b600080546001600160a01b038381166001600160a01b0319831681178455604051919092169283917f8be0079c531659141344cd1fd0a4f28419497f9722a3daafe3b4186f6b6457e09190a35050565b6110a9806100a26000396000f3fe608060405234801561001057600080fd5b50600436106100935760003560e01c80638da5cb5b116100665780638da5cb5b14610101578063b4f841891461011a578063d5f5058214610130578063eb12d61e1461015c578063f2fde38b1461016f57600080fd5b80630e316ab7146100985780633dc039c3146100ad578063715018a6146100c0578063755f22f6146100c8575b600080fd5b6100ab6100a63660046109df565b610182565b005b6100ab6100bb366004610b5f565b610274565b6100ab6103ea565b6100eb6100d63660046109df565b60016020526000908152604090205460ff1681565b6040516100f89190610c19565b60405180910390f35b6000546001600160a01b03166040516100f89190610c30565b61012360025481565b6040516100f89190610c44565b6100eb61013e3660046109df565b6001600160a01b031660009081526001602052604090205460ff1690565b6100ab61016a3660046109df565b61042f565b6100ab61017d3660046109df565b61050d565b806001600160a01b03811661019957610199610c52565b336101ac6000546001600160a01b031690565b6001600160a01b0316146101db5760405162461bcd60e51b81526004016101d290610c9a565b60405180910390fd5b6001600160a01b03821660009081526001602052604090205460ff1615156001146102185760405162461bcd60e51b81526004016101d290610cdc565b6001600160a01b03821660009081526001602052604090819020805460ff19169055517f3525e22824a8a7df2c9a6029941c824cf95b6447f1e13d5128fd3826d35afe8b90610268908490610c30565b60405180910390a15050565b61029e604051806040016040528060098152602001687369676e617475726560b81b815250610578565b6102dd86868080601f0160208091040260200160405190810160405280939291908181526020018383808284376000920191909152506105bb92505050565b600084805190602001209050600060025482868686604051602001610306959493929190610d14565b604051602081830303815290604052805190602001209050600061036b89898080601f01602080910402602001604051908101604052809392919081815260200183838082843760009201919091525061036592508691506105fe9050565b9061062e565b905061037682610654565b61039e6040518060400160405280600781526020016629a4b3b732b91d60c91b815250610578565b6103a781610697565b6001600160a01b03811660009081526001602052604090205460ff166103df5760405162461bcd60e51b81526004016101d290610da5565b505050505050505050565b336103fd6000546001600160a01b031690565b6001600160a01b0316146104235760405162461bcd60e51b81526004016101d290610c9a565b61042d60006106da565b565b806001600160a01b03811661044657610446610c52565b336104596000546001600160a01b031690565b6001600160a01b03161461047f5760405162461bcd60e51b81526004016101d290610c9a565b6001600160a01b03821660009081526001602052604090205460ff16156104b85760405162461bcd60e51b81526004016101d290610de5565b6001600160a01b038216600090815260016020819052604091829020805460ff19169091179055517f47d1c22a25bb3a5d4e481b9b1e6944c2eade3181a0a20b495ed61d35b5323f2490610268908490610c30565b336105206000546001600160a01b031690565b6001600160a01b0316146105465760405162461bcd60e51b81526004016101d290610c9a565b6001600160a01b03811661056c5760405162461bcd60e51b81526004016101d290610e36565b610575816106da565b50565b6105758160405160240161058c9190610ea8565b60408051601f198184030181529190526020810180516001600160e01b031663104c13eb60e21b17905261072a565b610575816040516024016105cf9190610ea8565b60408051601f198184030181529190526020810180516001600160e01b03166305f3bfab60e11b17905261072a565b6000816040516020016106119190610ec0565b604051602081830303815290604052805190602001209050919050565b600080600061063d858561074b565b9150915061064a816107bb565b5090505b92915050565b610575816040516024016106689190610c44565b60408051601f198184030181529190526020810180516001600160e01b03166327b7cf8560e01b17905261072a565b610575816040516024016106ab9190610c30565b60408051601f198184030181529190526020810180516001600160e01b031663161765e160e11b17905261072a565b600080546001600160a01b038381166001600160a01b0319831681178455604051919092169283917f8be0079c531659141344cd1fd0a4f28419497f9722a3daafe3b4186f6b6457e09190a35050565b80516a636f6e736f6c652e6c6f67602083016000808483855afa5050505050565b6000808251604114156107825760208301516040840151606085015160001a610776878285856108a0565b945094505050506107b4565b8251604014156107ac57602083015160408401516107a1868383610980565b9350935050506107b4565b506000905060025b9250929050565b60008160048111156107cf576107cf610ef8565b14156107d85750565b60018160048111156107ec576107ec610ef8565b141561080a5760405162461bcd60e51b81526004016101d290610f40565b600281600481111561081e5761081e610ef8565b141561083c5760405162461bcd60e51b81526004016101d290610f82565b600381600481111561085057610850610ef8565b141561086e5760405162461bcd60e51b81526004016101d290610fcf565b600481600481111561088257610882610ef8565b14156105755760405162461bcd60e51b81526004016101d29061101c565b6000807f7fffffffffffffffffffffffffffffff5d576e7357a4501ddfe92f46681b20a08311156108d75750600090506003610977565b8460ff16601b141580156108ef57508460ff16601c14155b156109005750600090506004610977565b6000600187878787604051600081526020016040526040516109259493929190611035565b6020604051602081039080840390855afa158015610947573d6000803e3d6000fd5b5050604051601f1901519150506001600160a01b03811661097057600060019250925050610977565b9150600090505b94509492505050565b6000806001600160ff1b03831660ff84901c601b016109a1878288856108a0565b935093505050935093915050565b60006001600160a01b03821661064e565b6109c9816109af565b811461057557600080fd5b803561064e816109c0565b6000602082840312156109f4576109f4600080fd5b6000610a0084846109d4565b949350505050565b60008083601f840112610a1d57610a1d600080fd5b50813567ffffffffffffffff811115610a3857610a38600080fd5b6020830191508360018202830111156107b4576107b4600080fd5b634e487b7160e01b600052604160045260246000fd5b601f19601f830116810181811067ffffffffffffffff82111715610a8f57610a8f610a53565b6040525050565b6000610aa160405190565b9050610aad8282610a69565b919050565b600067ffffffffffffffff821115610acc57610acc610a53565b601f19601f83011660200192915050565b82818337506000910152565b6000610afc610af784610ab2565b610a96565b905082815260208101848484011115610b1757610b17600080fd5b610b22848285610add565b509392505050565b600082601f830112610b3e57610b3e600080fd5b8135610a00848260208601610ae9565b806109c9565b803561064e81610b4e565b60008060008060008060a08789031215610b7b57610b7b600080fd5b863567ffffffffffffffff811115610b9557610b95600080fd5b610ba189828a01610a08565b9650965050602087013567ffffffffffffffff811115610bc357610bc3600080fd5b610bcf89828a01610b2a565b9450506040610be089828a016109d4565b9350506060610bf189828a01610b54565b9250506080610c0289828a01610b54565b9150509295509295509295565b8015155b82525050565b6020810161064e8284610c0f565b610c13816109af565b6020810161064e8284610c27565b80610c13565b6020810161064e8284610c3e565b634e487b7160e01b600052600160045260246000fd5b60208082527f4f776e61626c653a2063616c6c6572206973206e6f7420746865206f776e657291019081525b60200190565b6020808252810161064e81610c68565b601c8152602081017f746869732061646472657373206973206e6f742061207369676e65720000000081529050610c94565b6020808252810161064e81610caa565b600061064e8260601b90565b600061064e82610cec565b610c13610d0f826109af565b610cf8565b610d1e8187610c3e565b602001610d2b8186610c3e565b602001610d388185610d03565b601401610d458184610c3e565b602001610d528183610c3e565b60200195945050505050565b602a8152602081017f43616e206f6e6c79206265207375626d697474656420627920617574686f72698152693d32b21039b4b3b732b960b11b602082015290505b60400190565b6020808252810161064e81610d5e565b60208082527f74686973206164647265737320697320616c72656164792061207369676e65729101908152610c94565b6020808252810161064e81610db5565b60268152602081017f4f776e61626c653a206e6577206f776e657220697320746865207a65726f206181526564647265737360d01b60208201529050610d9f565b6020808252810161064e81610df5565b60005b83811015610e61578181015183820152602001610e49565b83811115610e70576000848401525b50505050565b6000610e80825190565b808452602084019350610e97818560208601610e46565b601f01601f19169290920192915050565b60208082528101610eb98184610e76565b9392505050565b7f19457468657265756d205369676e6564204d6573736167653a0a3332000000008152601c01610ef08183610c3e565b602001919050565b634e487b7160e01b600052602160045260246000fd5b60188152602081017f45434453413a20696e76616c6964207369676e6174757265000000000000000081529050610c94565b6020808252810161064e81610f0e565b601f8152602081017f45434453413a20696e76616c6964207369676e6174757265206c656e6774680081529050610c94565b6020808252810161064e81610f50565b60228152602081017f45434453413a20696e76616c6964207369676e6174757265202773272076616c815261756560f01b60208201529050610d9f565b6020808252810161064e81610f92565b60228152602081017f45434453413a20696e76616c6964207369676e6174757265202776272076616c815261756560f01b60208201529050610d9f565b6020808252810161064e81610fdf565b60ff8116610c13565b608081016110438287610c3e565b611050602083018661102c565b61105d6040830185610c3e565b61106a6060830184610c3e565b9594505050505056fea2646970667358221220389718cfc38332f29c9cf350bec38a41f7be7f26bec6c2a1365ca34b86a3bf2b64736f6c634300080a0033",
  "devdoc": {
    "kind": "dev",
    "methods": {
      "addSigner(address)": {
        "params": {
          "_newSigner": "The new signer address"
        }
      },
      "checkSignature(bytes,string,address,uint256,uint256)": {
        "params": {
          "_deadline": "Deadline of a policy",
          "_flightNumber": "Flight number",
          "_premium": "Policy premium",
          "_user": "User address",
          "signature": "65 bytes array: [[v (1)], [r (32)], [s (32)]]"
        }
      },
      "isValidSigner(address)": {
        "params": {
          "_address": "The input address"
        },
        "returns": {
          "_0": "isValidSigner Whether this address is"
        }
      },
      "removeSigner(address)": {
        "params": {
          "_oldSigner": "The old signer address to be removed"
        }
      },
      "renounceOwnership()": {
        "details": "Renouncing ownership will leave the contract without an owner,         thereby removing any functionality that is only available to the owner."
      },
      "transferOwnership(address)": {
        "details": "Can only be called by the current owner.",
        "params": {
          "newOwner": "Address of the new owner"
        }
      }
    },
    "title": "Signature Manager",
    "version": 1
  },
  "userdoc": {
    "kind": "user",
    "methods": {
      "addSigner(address)": {
        "notice": "Add a signer into valid signer list"
      },
      "checkSignature(bytes,string,address,uint256,uint256)": {
        "notice": "Check signature when buying a new policy (avoid arbitrary premium amount)"
      },
      "isValidSigner(address)": {
        "notice": "Check whether the address is a valid signer"
      },
      "owner()": {
        "notice": "Returns the address of the current owner."
      },
      "removeSigner(address)": {
        "notice": "Remove a signer from the valid signer list"
      },
      "renounceOwnership()": {
        "notice": "Leaves the contract without owner. It will not be possible to call         `onlyOwner` functions anymore. Can only be called by the current owner."
      },
      "transferOwnership(address)": {
        "notice": "Transfers ownership of the contract to a new account (`newOwner`)."
      }
    },
    "notice": "Signature is used when submitting new applications.         The premium should be decided by the pricing model and be signed by a private key.         Other submission will not be accepted.         Please keep the signer key safe.",
    "version": 1
  },
  "storageLayout": {
    "storage": [
      {
        "astId": 21695,
        "contract": "contracts/miserable-flight/SigManager.sol:SigManager",
        "label": "_owner",
        "offset": 0,
        "slot": "0",
        "type": "t_address"
      },
      {
        "astId": 14718,
        "contract": "contracts/miserable-flight/SigManager.sol:SigManager",
        "label": "_isValidSigner",
        "offset": 0,
        "slot": "1",
        "type": "t_mapping(t_address,t_bool)"
      },
      {
        "astId": 14720,
        "contract": "contracts/miserable-flight/SigManager.sol:SigManager",
        "label": "_SUBMIT_APPLICATION_TYPEHASH",
        "offset": 0,
        "slot": "2",
        "type": "t_bytes32"
      }
    ],
    "types": {
      "t_address": {
        "encoding": "inplace",
        "label": "address",
        "numberOfBytes": "20"
      },
      "t_bool": {
        "encoding": "inplace",
        "label": "bool",
        "numberOfBytes": "1"
      },
      "t_bytes32": {
        "encoding": "inplace",
        "label": "bytes32",
        "numberOfBytes": "32"
      },
      "t_mapping(t_address,t_bool)": {
        "encoding": "mapping",
        "key": "t_address",
        "label": "mapping(address => bool)",
        "numberOfBytes": "32",
        "value": "t_bool"
      }
    }
  }
}