{
  "address": "0x9A9f2CCfdE556A7E9Ff0848998Aa4a0CFD8863AE",
  "abi": [
    {
      "inputs": [
        {
          "internalType": "address",
          "name": "_degisToken",
          "type": "address"
        }
      ],
      "stateMutability": "nonpayable",
      "type": "constructor"
    },
    {
      "anonymous": false,
      "inputs": [
        {
          "indexed": false,
          "internalType": "address",
          "name": "pool",
          "type": "address"
        },
        {
          "indexed": false,
          "internalType": "uint256",
          "name": "degisPerBlock",
          "type": "uint256"
        }
      ],
      "name": "DegisPerBlockChanged",
      "type": "event"
    },
    {
      "anonymous": false,
      "inputs": [
        {
          "indexed": true,
          "internalType": "address",
          "name": "previousOwner",
          "type": "address"
        },
        {
          "indexed": true,
          "internalType": "address",
          "name": "newOwner",
          "type": "address"
        }
      ],
      "name": "OwnershipTransferred",
      "type": "event"
    },
    {
      "anonymous": false,
      "inputs": [
        {
          "indexed": true,
          "internalType": "address",
          "name": "by",
          "type": "address"
        },
        {
          "indexed": true,
          "internalType": "address",
          "name": "poolToken",
          "type": "address"
        },
        {
          "indexed": true,
          "internalType": "address",
          "name": "poolAddress",
          "type": "address"
        },
        {
          "indexed": false,
          "internalType": "uint256",
          "name": "degisPerBlock",
          "type": "uint256"
        },
        {
          "indexed": false,
          "internalType": "bool",
          "name": "isFlashPool",
          "type": "bool"
        }
      ],
      "name": "PoolRegistered",
      "type": "event"
    },
    {
      "inputs": [
        {
          "internalType": "address",
          "name": "poolToken",
          "type": "address"
        },
        {
          "internalType": "uint256",
          "name": "startBlock",
          "type": "uint256"
        },
        {
          "internalType": "uint256",
          "name": "degisPerBlock",
          "type": "uint256"
        },
        {
          "internalType": "bool",
          "name": "isFlashPool",
          "type": "bool"
        }
      ],
      "name": "createPool",
      "outputs": [],
      "stateMutability": "nonpayable",
      "type": "function"
    },
    {
      "inputs": [],
      "name": "degisToken",
      "outputs": [
        {
          "internalType": "address",
          "name": "",
          "type": "address"
        }
      ],
      "stateMutability": "view",
      "type": "function"
    },
    {
      "inputs": [
        {
          "internalType": "address",
          "name": "poolToken",
          "type": "address"
        }
      ],
      "name": "getPoolAddress",
      "outputs": [
        {
          "internalType": "address",
          "name": "",
          "type": "address"
        }
      ],
      "stateMutability": "view",
      "type": "function"
    },
    {
      "inputs": [
        {
          "internalType": "address",
          "name": "_poolToken",
          "type": "address"
        }
      ],
      "name": "getPoolData",
      "outputs": [
        {
          "components": [
            {
              "internalType": "address",
              "name": "poolToken",
              "type": "address"
            },
            {
              "internalType": "address",
              "name": "poolAddress",
              "type": "address"
            },
            {
              "internalType": "uint256",
              "name": "startBlock",
              "type": "uint256"
            },
            {
              "internalType": "uint256",
              "name": "degisPerBlock",
              "type": "uint256"
            },
            {
              "internalType": "bool",
              "name": "isFlashPool",
              "type": "bool"
            }
          ],
          "internalType": "struct StakingPoolFactory.PoolData",
          "name": "",
          "type": "tuple"
        }
      ],
      "stateMutability": "view",
      "type": "function"
    },
    {
      "inputs": [
        {
          "internalType": "address",
          "name": "_to",
          "type": "address"
        },
        {
          "internalType": "uint256",
          "name": "_amount",
          "type": "uint256"
        }
      ],
      "name": "mintReward",
      "outputs": [],
      "stateMutability": "nonpayable",
      "type": "function"
    },
    {
      "inputs": [],
      "name": "owner",
      "outputs": [
        {
          "internalType": "address",
          "name": "",
          "type": "address"
        }
      ],
      "stateMutability": "view",
      "type": "function"
    },
    {
      "inputs": [
        {
          "internalType": "address",
          "name": "",
          "type": "address"
        }
      ],
      "name": "poolExists",
      "outputs": [
        {
          "internalType": "bool",
          "name": "",
          "type": "bool"
        }
      ],
      "stateMutability": "view",
      "type": "function"
    },
    {
      "inputs": [
        {
          "internalType": "address",
          "name": "",
          "type": "address"
        }
      ],
      "name": "pools",
      "outputs": [
        {
          "internalType": "address",
          "name": "",
          "type": "address"
        }
      ],
      "stateMutability": "view",
      "type": "function"
    },
    {
      "inputs": [],
      "name": "renounceOwnership",
      "outputs": [],
      "stateMutability": "nonpayable",
      "type": "function"
    },
    {
      "inputs": [
        {
          "internalType": "address",
          "name": "_pool",
          "type": "address"
        },
        {
          "internalType": "uint256",
          "name": "_degisPerBlock",
          "type": "uint256"
        }
      ],
      "name": "setDegisPerBlock",
      "outputs": [],
      "stateMutability": "nonpayable",
      "type": "function"
    },
    {
      "inputs": [
        {
          "internalType": "address",
          "name": "newOwner",
          "type": "address"
        }
      ],
      "name": "transferOwnership",
      "outputs": [],
      "stateMutability": "nonpayable",
      "type": "function"
    }
  ],
  "transactionHash": "0x078558dfa1ffbb5b138737b98291f57c828d77fa2e019dae79cfc63e145cc2e2",
  "args": [
    "0xe7f1725E7734CE288F8367e1Bb143E90bb3F0512"
  ],
  "numDeployments": 1,
  "solcInputHash": "891f6e83b97076056766f10193ee5514",
  "bytecode": "0x608060405234801561001057600080fd5b5060405162002c8238038062002c82833981016040819052610031916100e4565b61003a3361005f565b600180546001600160a01b0319166001600160a01b039290921691909117905561010d565b600080546001600160a01b038381166001600160a01b0319831681178455604051919092169283917f8be0079c531659141344cd1fd0a4f28419497f9722a3daafe3b4186f6b6457e09190a35050565b60006001600160a01b0382165b92915050565b6100cb816100af565b81146100d657600080fd5b50565b80516100bc816100c2565b6000602082840312156100f9576100f9600080fd5b600061010584846100d9565b949350505050565b612b65806200011d6000396000f3fe60806040523480156200001157600080fd5b5060043610620000b75760003560e01c80638da5cb5b116200007a5780638da5cb5b146200017e5780639a49090e1462000190578063a4063dbc14620001a7578063b75e2a5e14620001d3578063df2db4c614620001ea578063f2fde38b146200020157600080fd5b80631228cbee14620000bc57806313d21cdf14620001035780631e1c6a0714620001295780635a1c7e79146200015e578063715018a61462000172575b600080fd5b620000eb620000cd366004620009e1565b6001600160a01b039081166000908152600260205260409020541690565b604051620000fa919062000a1f565b60405180910390f35b6200011a62000114366004620009e1565b62000218565b604051620000fa919062000aa6565b6200014f6200013a366004620009e1565b60036020526000908152604090205460ff1681565b604051620000fa919062000ab6565b600154620000eb906001600160a01b031681565b6200017c62000466565b005b6000546001600160a01b0316620000eb565b6200017c620001a136600462000ada565b620004b1565b620000eb620001b8366004620009e1565b6002602052600090815260409020546001600160a01b031681565b6200017c620001e436600462000ada565b6200054f565b6200017c620001fb36600462000b33565b6200062d565b6200017c62000212366004620009e1565b620006d8565b6040805160a0810182526000808252602082018190529181018290526060810182905260808101919091526001600160a01b038083166000908152600260205260409020541680620002875760405162461bcd60e51b81526004016200027e9062000bc6565b60405180910390fd5b6000816001600160a01b031663cbdf382c6040518163ffffffff1660e01b8152600401602060405180830381865afa158015620002c8573d6000803e3d6000fd5b505050506040513d601f19601f82011682018060405250810190620002ee919062000be5565b90506000826001600160a01b0316631da10d916040518163ffffffff1660e01b8152600401602060405180830381865afa15801562000331573d6000803e3d6000fd5b505050506040513d601f19601f8201168201806040525081019062000357919062000c17565b90506000836001600160a01b03166348cd4cb16040518163ffffffff1660e01b8152600401602060405180830381865afa1580156200039a573d6000803e3d6000fd5b505050506040513d601f19601f82011682018060405250810190620003c0919062000c49565b90506000846001600160a01b0316638354d1c86040518163ffffffff1660e01b8152600401602060405180830381865afa15801562000403573d6000803e3d6000fd5b505050506040513d601f19601f8201168201806040525081019062000429919062000c49565b6040805160a0810182526001600160a01b039687168152969095166020870152938501919091525060608301919091521515608082015292915050565b336200047a6000546001600160a01b031690565b6001600160a01b031614620004a35760405162461bcd60e51b81526004016200027e9062000c9f565b620004af60006200074c565b565b3360009081526003602052604090205460ff16620004e35760405162461bcd60e51b81526004016200027e9062000cdc565b60015460405163168ece7360e31b81526001600160a01b039091169063b47673989062000517908590859060040162000cee565b600060405180830381600087803b1580156200053257600080fd5b505af115801562000547573d6000803e3d6000fd5b505050505050565b33620005636000546001600160a01b031690565b6001600160a01b0316146200058c5760405162461bcd60e51b81526004016200027e9062000c9f565b60405163739e8b6160e11b81526001600160a01b0383169063e73d16c290620005ba90849060040162000d14565b600060405180830381600087803b158015620005d557600080fd5b505af1158015620005ea573d6000803e3d6000fd5b505050507f40fa23ae394ce3b9539f33900a9cab98c5df371cd337838dad12264e7781649182826040516200062192919062000cee565b60405180910390a15050565b33620006416000546001600160a01b031690565b6001600160a01b0316146200066a5760405162461bcd60e51b81526004016200027e9062000c9f565b6000600160009054906101000a90046001600160a01b0316853086868660405162000695906200099c565b620006a69695949392919062000d24565b604051809103906000f080158015620006c3573d6000803e3d6000fd5b509050620006d1816200079c565b5050505050565b33620006ec6000546001600160a01b031690565b6001600160a01b031614620007155760405162461bcd60e51b81526004016200027e9062000c9f565b6001600160a01b0381166200073e5760405162461bcd60e51b81526004016200027e9062000d8a565b62000749816200074c565b50565b600080546001600160a01b038381166001600160a01b0319831681178455604051919092169283917f8be0079c531659141344cd1fd0a4f28419497f9722a3daafe3b4186f6b6457e09190a35050565b6000816001600160a01b031663cbdf382c6040518163ffffffff1660e01b8152600401602060405180830381865afa158015620007dd573d6000803e3d6000fd5b505050506040513d601f19601f8201168201806040525081019062000803919062000be5565b90506000826001600160a01b0316631da10d916040518163ffffffff1660e01b8152600401602060405180830381865afa15801562000846573d6000803e3d6000fd5b505050506040513d601f19601f820116820180604052508101906200086c919062000c17565b90506000836001600160a01b0316638354d1c86040518163ffffffff1660e01b8152600401602060405180830381865afa158015620008af573d6000803e3d6000fd5b505050506040513d601f19601f82011682018060405250810190620008d5919062000c49565b6001600160a01b038481166000908152600260205260409020549192501615620009135760405162461bcd60e51b81526004016200027e9062000e08565b6001600160a01b03838116600081815260026020908152604080832080546001600160a01b031916958a169586179055848352600390915290819020805460ff191660011790555133907fd39ed1ed3913abae7eaf4fab2b80e003b8263f81484c2436b44492a09505ad5d906200098e908690889062000e1a565b60405180910390a450505050565b611cf68062000e3a83390190565b60006001600160a01b0382165b92915050565b620009c881620009aa565b81146200074957600080fd5b8035620009b781620009bd565b600060208284031215620009f857620009f8600080fd5b600062000a068484620009d4565b949350505050565b62000a1981620009aa565b82525050565b60208101620009b7828462000a0e565b8062000a19565b80151562000a19565b805162000a4d838262000a0e565b50602081015162000a62602084018262000a0e565b50604081015162000a77604084018262000a2f565b50606081015162000a8c606084018262000a2f565b50608081015162000aa1608084018262000a36565b505050565b60a08101620009b7828462000a3f565b60208101620009b7828462000a36565b80620009c8565b8035620009b78162000ac6565b6000806040838503121562000af25762000af2600080fd5b600062000b008585620009d4565b925050602062000b138582860162000acd565b9150509250929050565b801515620009c8565b8035620009b78162000b1d565b6000806000806080858703121562000b4e5762000b4e600080fd5b600062000b5c8787620009d4565b945050602062000b6f8782880162000acd565b935050604062000b828782880162000acd565b925050606062000b958782880162000b26565b91505092959194509250565b600e8152602081016d1c1bdbdb081b9bdd08199bdd5b9960921b815290505b60200190565b60208082528101620009b78162000ba1565b8051620009b781620009bd565b60006020828403121562000bfc5762000bfc600080fd5b600062000a06848462000bd8565b8051620009b78162000b1d565b60006020828403121562000c2e5762000c2e600080fd5b600062000a06848462000c0a565b8051620009b78162000ac6565b60006020828403121562000c605762000c60600080fd5b600062000a06848462000c3c565b60208082527f4f776e61626c653a2063616c6c6572206973206e6f7420746865206f776e6572910190815262000bc0565b60208082528101620009b78162000c6e565b60158152602081017413db9b1e4818d85b1b195908199c9bdb481c1bdbdb605a1b8152905062000bc0565b60208082528101620009b78162000cb1565b6040810162000cfe828562000a0e565b62000d0d602083018462000a2f565b9392505050565b60208101620009b7828462000a2f565b60c0810162000d34828962000a0e565b62000d43602083018862000a0e565b62000d52604083018762000a0e565b62000d61606083018662000a2f565b62000d70608083018562000a2f565b62000d7f60a083018462000a36565b979650505050505050565b60208082528101620009b781602681527f4f776e61626c653a206e6577206f776e657220697320746865207a65726f206160208201526564647265737360d01b604082015260600190565b601f8152602081017f7468697320706f6f6c20697320616c72656164792072656769737465726564008152905062000bc0565b60208082528101620009b78162000dd5565b6040810162000e2a828562000a2f565b62000d0d602083018462000a3656fe60806040523480156200001157600080fd5b5060405162001cf638038062001cf6833981016040819052620000349162000166565b8585858585856200004533620000b2565b60018055600480546001600160a01b03199081166001600160a01b039889161790915560038054821696881696909617909555600b805490951693909516929092179092556007805460ff19169315159390931790925560069190915560055550620001fe945050505050565b600080546001600160a01b038381166001600160a01b0319831681178455604051919092169283917f8be0079c531659141344cd1fd0a4f28419497f9722a3daafe3b4186f6b6457e09190a35050565b60006001600160a01b0382165b92915050565b620001208162000102565b81146200012c57600080fd5b50565b80516200010f8162000115565b8062000120565b80516200010f816200013c565b80151562000120565b80516200010f8162000150565b60008060008060008060c08789031215620001845762000184600080fd5b60006200019289896200012f565b9650506020620001a589828a016200012f565b9550506040620001b889828a016200012f565b9450506060620001cb89828a0162000143565b9350506080620001de89828a0162000143565b92505060a0620001f189828a0162000159565b9150509295509295509295565b611ae8806200020e6000396000f3fe608060405234801561001057600080fd5b506004361061014d5760003560e01c806396c82e57116100c3578063cbdf382c1161007c578063cbdf382c146102ab578063e3161ddd146102be578063e73d16c2146102c6578063e8d3cad5146102d9578063eb42aa4014610305578063f2fde38b1461030e57600080fd5b806396c82e57146102235780639e2c8a5b1461022c578063a156dc281461023f578063a87430ba14610252578063a9f8d1811461028f578063c45a01551461029857600080fd5b8063715018a611610115578063715018a6146101c85780637b0472f0146101d05780638354d1c8146101e35780638da5cb5b146101ec5780638e169d47146101fd578063906ce8a91461021057600080fd5b80631da10d911461015257806331d7a262146101755780634641257d1461019557806348cd4cb11461019f5780635a1c7e79146101a8575b600080fd5b60075461015f9060ff1681565b60405161016c9190611465565b60405180910390f35b6101886101833660046114a3565b610321565b60405161016c91906114ca565b61019d61046e565b005b61018860055481565b6004546101bb906001600160a01b031681565b60405161016c91906114e1565b61019d610500565b61019d6101de366004611500565b61054e565b61018860065481565b6000546001600160a01b03166101bb565b61018861020b366004611500565b61055d565b61018861021e36600461153d565b610582565b610188600a5481565b61019d61023a366004611500565b6105ab565b61018861024d366004611500565b6105b6565b6102806102603660046114a3565b600260208190526000918252604090912080546001820154919092015483565b60405161016c9392919061155e565b61018860085481565b600b546101bb906001600160a01b031681565b6003546101bb906001600160a01b031681565b61019d6105d1565b61019d6102d436600461153d565b610754565b6101886102e73660046114a3565b6001600160a01b031660009081526002602052604090206003015490565b61018860095481565b61019d61031c3660046114a3565b610783565b6000600854431080610334575060055443105b1561034157506000919050565b600060085443610351919061159c565b905060006006548261036391906115b3565b9050600060095461037683600a546105b6565b61038091906115d2565b6001600160a01b038616600090815260026020818152604080842081516080810183528154815260018201548185015293810154848301526003810180548351818602810186019094528084529697509495939490936060860193879084015b8282101561043a5783829060005260206000209060040201604051806080016040529081600082015481526020016001820154815260200160028201548152602001600382015481525050815260200190600101906103e0565b505050508152505090506000816040015161045983602001518561055d565b610463919061159c565b979650505050505050565b6104766105d1565b3360008181526002602052604081209161048f906107ee565b905061049a816108d8565b806104a3575050565b6104ad338261091b565b6104bd826001015460095461055d565b60028301556040517fc9695243a805adb74c91f28311176c65b417e842d5699893cef56d18bfa48cba906104f490339084906115ea565b60405180910390a15050565b336105136000546001600160a01b031690565b6001600160a01b0316146105425760405162461bcd60e51b815260040161053990611637565b60405180910390fd5b61054c60006109cb565b565b610559338383610a1b565b5050565b600064e8d4a5100061056f8484610a26565b610579919061165d565b90505b92915050565b6000620f4240806105976301e133808561165d565b6105a191906115b3565b61057c91906115d2565b610559338383610a32565b6000610579826105cb64e8d4a51000866115b3565b90610ae2565b6008544310806105e2575060055443105b156105e957565b6003546040516370a0823160e01b81526000916001600160a01b0316906370a082319061061a9030906004016114e1565b602060405180830381865afa158015610637573d6000803e3d6000fd5b505050506040513d601f19601f8201168201806040525081019061065b919061167c565b905080610669575043600855565b600060085443610679919061159c565b9050610684816108d8565b60006006548261069491906115b3565b90506106c56040518060400160405280600d81526020016c3232b3b4b9903932bbb0b9321d60991b81525082610af7565b600b54604051634d24848760e11b81526001600160a01b0390911690639a49090e906106f790309085906004016115ea565b600060405180830381600087803b15801561071157600080fd5b505af1158015610725573d6000803e3d6000fd5b5050505061073581600a546105b6565b6009600082825461074691906115d2565b909155505043600855505050565b600b546001600160a01b0316331461077e5760405162461bcd60e51b8152600401610539906116be565b600655565b336107966000546001600160a01b031690565b6001600160a01b0316146107bc5760405162461bcd60e51b815260040161053990611637565b6001600160a01b0381166107e25760405162461bcd60e51b815260040161053990611711565b6107eb816109cb565b50565b6001600160a01b038116600090815260026020818152604080842081516080810183528154815260018201548185015293810154848301526003810180548351818602810186019094528084528695949293606086019390929190879084015b828210156108a857838290600052602060002090600402016040518060800160405290816000820154815260200160018201548152602001600282015481526020016003820154815250508152602001906001019061084e565b5050505081525050905080604001516108c7826020015160095461055d565b6108d1919061159c565b9392505050565b6107eb816040516024016108ec91906114ca565b60408051601f198184030181529190526020810180516001600160e01b031663f5b1bba960e01b179052610b38565b600480546040516370a0823160e01b81526000926001600160a01b03909216916370a082319161094d913091016114e1565b602060405180830381865afa15801561096a573d6000803e3d6000fd5b505050506040513d601f19601f8201168201806040525081019061098e919061167c565b9050808211156109b4576004546109af906001600160a01b03168483610b59565b505050565b6004546109af906001600160a01b03168484610b59565b600080546001600160a01b038381166001600160a01b0319831681178455604051919092169283917f8be0079c531659141344cd1fd0a4f28419497f9722a3daafe3b4186f6b6457e09190a35050565b6109af838383610baf565b60006105798383610eb2565b33600090815260026020526040812060038101805491929185908110610a5a57610a5a611721565b90600052602060002090600402016040518060800160405290816000820154815260200160018201548152602001600282015481526020016003820154815250509050806040015160001480610ab4575080606001514210155b610ad05760405162461bcd60e51b815260040161053990611769565b610adb858585610f73565b5050505050565b600061057983670de0b6b3a764000084611196565b6105598282604051602401610b0d9291906117d7565b60408051601f198184030181529190526020810180516001600160e01b03166309710a9d60e41b1790525b80516a636f6e736f6c652e6c6f67602083016000808483855afa5050505050565b6109af8363a9059cbb60e01b8484604051602401610b789291906115ea565b60408051601f198184030181529190526020810180516001600160e01b03166001600160e01b03199093169290921790915261125d565b60026001541415610bd25760405162461bcd60e51b815260040161053990611829565b600260015581610bf45760405162461bcd60e51b815260040161053990611859565b801580610c1857504281118015610c1857506301e13380610c15428361159c565b11155b610c345760405162461bcd60e51b815260040161053990611893565b610c3c6105d1565b6001600160a01b0383166000908152600260205260409020805415610c6457610c64846112ec565b6003546040516370a0823160e01b81526000916001600160a01b0316906370a0823190610c959030906004016114e1565b602060405180830381865afa158015610cb2573d6000803e3d6000fd5b505050506040513d601f19601f82011682018060405250810190610cd6919061167c565b9050610ce333308661130c565b6003546040516370a0823160e01b81526000916001600160a01b0316906370a0823190610d149030906004016114e1565b602060405180830381865afa158015610d31573d6000803e3d6000fd5b505050506040513d601f19601f82011682018060405250810190610d55919061167c565b90506000610d63838361159c565b90506000808611610d75576000610d77565b425b905085600083610d8a61021e858561159c565b610d9491906115b3565b905060008111610da657610da66118a3565b604080516080810182528581526020808201848152928201868152606083018681526003808d018054600181810183556000928352958220875160049092020190815596519487019490945591516002860155519301929092558854909186918a9190610e149084906115d2565b9250508190555081886001016000828254610e2f91906115d2565b92505081905550610e46886001015460095461055d565b886002018190555081600a6000828254610e6091906115d2565b90915550506040517f5af417134f72a9d41143ace85b0a26dce6f550f894f2cbc1eeee8810603d91b690610e999033908d908d906118b9565b60405180910390a1505060018055505050505050505050565b60008080600019848609848602925082811083820303915050670de0b6b3a76400008110610ef5578060405163698d9a0160e11b815260040161053991906114ca565b600080670de0b6b3a76400008688099150506706f05b59d3b1ffff811182610f2f5780670de0b6b3a764000085040194505050505061057c565b620400008285030493909111909103600160ee1b02919091177faccb18165bd6fe31ae1cf318dc5b51eee0e1ba569b88cd74c1773b91fac106690201905092915050565b60026001541415610f965760405162461bcd60e51b815260040161053990611829565b600260015580610fb85760405162461bcd60e51b8152600401610539906118e7565b6001600160a01b038316600090815260026020526040812060038101805491929185908110610fe957610fe9611721565b90600052602060002090600402019050828160000154101561101d5760405162461bcd60e51b815260040161053990611920565b6110256105d1565b61102e856112ec565b6001810154815460009061104390869061159c565b61105a8460020154856003015461021e919061159c565b61106491906115b3565b835490915061107490869061159c565b6110b65783600301868154811061108d5761108d611721565b6000918252602082206004909102018181556001810182905560028101829055600301556110d7565b848360000160008282546110ca919061159c565b9091555050600183018190555b848460000160008282546110eb919061159c565b90915550506001840154819061110290849061159c565b61110c91906115d2565b60018501819055600954611120919061055d565b600285015561112f818361159c565b600a6000828254611140919061159c565b9091555061115090503386611324565b7f85082129d87b2fe11527cb1b3b7a520aeb5aa6913f88a3d8757fe40d1db02fdd33866040516111819291906115ea565b60405180910390a15050600180555050505050565b6000808060001985870985870292508281108382030391505080600014156111d1578382816111c7576111c7611647565b04925050506108d1565b8381106111f5578084604051631dcf306360e21b8152600401610539929190611930565b600084868809600260036001881981018916988990049182028318808302840302808302840302808302840302808302840302808302840302918202909203026000889003889004909101858311909403939093029303949094049190911702949350505050565b60006112b2826040518060400160405280602081526020017f5361666545524332303a206c6f772d6c6576656c2063616c6c206661696c6564815250856001600160a01b031661133b9092919063ffffffff16565b8051909150156109af57808060200190518101906112d09190611951565b6109af5760405162461bcd60e51b8152600401610539906119b7565b60006112f7826107ee565b905080611302575050565b610559828261091b565b6003546109af906001600160a01b0316848484611352565b600354610559906001600160a01b03168383610b59565b606061134a8484600085611379565b949350505050565b611373846323b872dd60e01b858585604051602401610b78939291906119c7565b50505050565b60608247101561139b5760405162461bcd60e51b815260040161053990611a23565b843b6113b95760405162461bcd60e51b815260040161053990611a65565b600080866001600160a01b031685876040516113d59190611a97565b60006040518083038185875af1925050503d8060008114611412576040519150601f19603f3d011682016040523d82523d6000602084013e611417565b606091505b5091509150610463828286606083156114315750816108d1565b8251156114415782518084602001fd5b8160405162461bcd60e51b81526004016105399190611aa1565b8015155b82525050565b6020810161057c828461145b565b60006001600160a01b03821661057c565b61148d81611473565b81146107eb57600080fd5b803561057c81611484565b6000602082840312156114b8576114b8600080fd5b600061134a8484611498565b8061145f565b6020810161057c82846114c4565b61145f81611473565b6020810161057c82846114d8565b8061148d565b803561057c816114ef565b6000806040838503121561151657611516600080fd5b600061152285856114f5565b9250506020611533858286016114f5565b9150509250929050565b60006020828403121561155257611552600080fd5b600061134a84846114f5565b6060810161156c82866114c4565b61157960208301856114c4565b61134a60408301846114c4565b634e487b7160e01b600052601160045260246000fd5b6000828210156115ae576115ae611586565b500390565b60008160001904831182151516156115cd576115cd611586565b500290565b600082198211156115e5576115e5611586565b500190565b604081016115f882856114d8565b6108d160208301846114c4565b60208082527f4f776e61626c653a2063616c6c6572206973206e6f7420746865206f776e657291019081525b60200190565b6020808252810161057c81611605565b634e487b7160e01b600052601260045260246000fd5b60008261166c5761166c611647565b500490565b805161057c816114ef565b60006020828403121561169157611691600080fd5b600061134a8484611671565b600c8152602081016b4f6e6c7920666163746f727960a01b81529050611631565b6020808252810161057c8161169d565b60268152602081017f4f776e61626c653a206e6577206f776e657220697320746865207a65726f206181526564647265737360d01b602082015290505b60400190565b6020808252810161057c816116ce565b634e487b7160e01b600052603260045260246000fd5b60188152602081017f4465706f736974206e6f742079657420756e6c6f636b6564000000000000000081529050611631565b6020808252810161057c81611737565b60005b8381101561179457818101518382015260200161177c565b838111156113735750506000910152565b60006117af825190565b8084526020840193506117c6818560208601611779565b601f01601f19169290920192915050565b604080825281016117e881856117a5565b90506108d160208301846114c4565b601f8152602081017f5265656e7472616e637947756172643a207265656e7472616e742063616c6c0081529050611631565b6020808252810161057c816117f7565b600b8152602081016a16995c9bc8185b5bdd5b9d60aa1b81529050611631565b6020808252810161057c81611839565b601581526020810174125b9d985b1a59081b1bd8dac81a5b9d195c9d985b605a1b81529050611631565b6020808252810161057c81611869565b634e487b7160e01b600052600160045260246000fd5b6060810161156c82866114d8565b600b8152602081016a1e995c9bc8185b5bdd5b9d60aa1b81529050611631565b6020808252810161057c816118c7565b601481526020810173616d6f756e742065786365656473207374616b6560601b81529050611631565b6020808252810161057c816118f7565b604081016115f882856114c4565b80151561148d565b805161057c8161193e565b60006020828403121561196657611966600080fd5b600061134a8484611946565b602a8152602081017f5361666545524332303a204552433230206f7065726174696f6e20646964206e8152691bdd081cdd58d8d9595960b21b6020820152905061170b565b6020808252810161057c81611972565b606081016119d582866114d8565b61157960208301856114d8565b60268152602081017f416464726573733a20696e73756666696369656e742062616c616e636520666f8152651c8818d85b1b60d21b6020820152905061170b565b6020808252810161057c816119e2565b601d8152602081017f416464726573733a2063616c6c20746f206e6f6e2d636f6e747261637400000081529050611631565b6020808252810161057c81611a33565b6000611a7f825190565b611a8d818560208601611779565b9290920192915050565b61057c8183611a75565b6020808252810161057981846117a556fea2646970667358221220987af8bb90e29d94311eb2c3e5a7a9f349d9174defc92ab653210eff7cacd6f664736f6c634300080a0033a264697066735822122045e44ea1c872a9bd3ef28da785efe962893b71d7a6120bbdd21880016b5ff3aa64736f6c634300080a0033",
  "devdoc": {
    "events": {
      "PoolRegistered(address,address,address,uint256,bool)": {
        "details": "Fired in createPool() and registerPool()",
        "params": {
          "by": "who deploys a new pool",
          "degisPerBlock": "pool weight",
          "isFlashPool": "flag indicating if pool is a flash pool",
          "poolAddress": "deployed pool instance address",
          "poolToken": "pool token address "
        }
      }
    },
    "kind": "dev",
    "methods": {
      "constructor": {
        "details": "Creates/deploys a factory instance",
        "params": {
          "_degisToken": "Degis token address"
        }
      },
      "createPool(address,uint256,uint256,bool)": {
        "details": "Creates a staking pool and registers it within the factory",
        "params": {
          "degisPerBlock": "weight of the pool to be created",
          "poolToken": "pool token address ",
          "startBlock": "init block to be used for the pool created"
        }
      },
      "mintReward(address,uint256)": {
        "details": "With this function, we only need to add factory contract into minterList",
        "params": {
          "_amount": "Amount of degis tokens to mint",
          "_to": "The address to mint tokens to"
        }
      },
      "renounceOwnership()": {
        "details": "Renouncing ownership will leave the contract without an owner,         thereby removing any functionality that is only available to the owner."
      },
      "transferOwnership(address)": {
        "details": "Can only be called by the current owner.",
        "params": {
          "newOwner": "Address of the new owner"
        }
      }
    },
    "stateVariables": {
      "poolExists": {
        "details": "Keeps track of registered pool addresses, pool address -> whether exists"
      },
      "pools": {
        "details": "Pool token address  => pool address"
      }
    },
    "version": 1
  },
  "userdoc": {
    "kind": "user",
    "methods": {
      "mintReward(address,uint256)": {
        "notice": "Mint degis tokens as reward"
      },
      "owner()": {
        "notice": "Returns the address of the current owner."
      },
      "renounceOwnership()": {
        "notice": "Leaves the contract without owner. It will not be possible to call         `onlyOwner` functions anymore. Can only be called by the current owner."
      },
      "setDegisPerBlock(address,uint256)": {
        "notice": "Set degis per block"
      },
      "transferOwnership(address)": {
        "notice": "Transfers ownership of the contract to a new account (`newOwner`)."
      }
    },
    "version": 1
  },
  "storageLayout": {
    "storage": [
      {
        "astId": 21695,
        "contract": "contracts/staking/StakingPoolFactory.sol:StakingPoolFactory",
        "label": "_owner",
        "offset": 0,
        "slot": "0",
        "type": "t_address"
      },
      {
        "astId": 19815,
        "contract": "contracts/staking/StakingPoolFactory.sol:StakingPoolFactory",
        "label": "degisToken",
        "offset": 0,
        "slot": "1",
        "type": "t_address"
      },
      {
        "astId": 19820,
        "contract": "contracts/staking/StakingPoolFactory.sol:StakingPoolFactory",
        "label": "pools",
        "offset": 0,
        "slot": "2",
        "type": "t_mapping(t_address,t_address)"
      },
      {
        "astId": 19825,
        "contract": "contracts/staking/StakingPoolFactory.sol:StakingPoolFactory",
        "label": "poolExists",
        "offset": 0,
        "slot": "3",
        "type": "t_mapping(t_address,t_bool)"
      }
    ],
    "types": {
      "t_address": {
        "encoding": "inplace",
        "label": "address",
        "numberOfBytes": "20"
      },
      "t_bool": {
        "encoding": "inplace",
        "label": "bool",
        "numberOfBytes": "1"
      },
      "t_mapping(t_address,t_address)": {
        "encoding": "mapping",
        "key": "t_address",
        "label": "mapping(address => address)",
        "numberOfBytes": "32",
        "value": "t_address"
      },
      "t_mapping(t_address,t_bool)": {
        "encoding": "mapping",
        "key": "t_address",
        "label": "mapping(address => bool)",
        "numberOfBytes": "32",
        "value": "t_bool"
      }
    }
  }
}