{
  "address": "0x416b8dE4DAc50D27893BD654532108BE37B4Cf41",
  "abi": [
    {
      "anonymous": false,
      "inputs": [
        {
          "indexed": false,
          "internalType": "uint256",
          "name": "poolId",
          "type": "uint256"
        },
        {
          "indexed": false,
          "internalType": "uint256",
          "name": "basicDegisPerSecond",
          "type": "uint256"
        },
        {
          "indexed": false,
          "internalType": "uint256",
          "name": "bonusDegisPerSecond",
          "type": "uint256"
        }
      ],
      "name": "DegisRewardChanged",
      "type": "event"
    },
    {
      "anonymous": false,
      "inputs": [
        {
          "indexed": false,
          "internalType": "uint256",
          "name": "poolId",
          "type": "uint256"
        },
        {
          "indexed": false,
          "internalType": "uint256",
          "name": "timestamp",
          "type": "uint256"
        }
      ],
      "name": "FarmingPoolStarted",
      "type": "event"
    },
    {
      "anonymous": false,
      "inputs": [
        {
          "indexed": false,
          "internalType": "uint256",
          "name": "poolId",
          "type": "uint256"
        },
        {
          "indexed": false,
          "internalType": "uint256",
          "name": "timestamp",
          "type": "uint256"
        }
      ],
      "name": "FarmingPoolStopped",
      "type": "event"
    },
    {
      "anonymous": false,
      "inputs": [
        {
          "indexed": false,
          "internalType": "address",
          "name": "staker",
          "type": "address"
        },
        {
          "indexed": false,
          "internalType": "address",
          "name": "rewardReceiver",
          "type": "address"
        },
        {
          "indexed": false,
          "internalType": "uint256",
          "name": "poolId",
          "type": "uint256"
        },
        {
          "indexed": false,
          "internalType": "uint256",
          "name": "pendingReward",
          "type": "uint256"
        }
      ],
      "name": "Harvest",
      "type": "event"
    },
    {
      "anonymous": false,
      "inputs": [
        {
          "indexed": false,
          "internalType": "address",
          "name": "lpToken",
          "type": "address"
        },
        {
          "indexed": false,
          "internalType": "uint256",
          "name": "basicDegisPerSecond",
          "type": "uint256"
        },
        {
          "indexed": false,
          "internalType": "uint256",
          "name": "bonusDegisPerSecond",
          "type": "uint256"
        }
      ],
      "name": "NewPoolAdded",
      "type": "event"
    },
    {
      "anonymous": false,
      "inputs": [
        {
          "indexed": true,
          "internalType": "address",
          "name": "previousOwner",
          "type": "address"
        },
        {
          "indexed": true,
          "internalType": "address",
          "name": "newOwner",
          "type": "address"
        }
      ],
      "name": "OwnershipTransferred",
      "type": "event"
    },
    {
      "anonymous": false,
      "inputs": [
        {
          "indexed": false,
          "internalType": "address",
          "name": "account",
          "type": "address"
        }
      ],
      "name": "Paused",
      "type": "event"
    },
    {
      "anonymous": false,
      "inputs": [
        {
          "indexed": false,
          "internalType": "uint256",
          "name": "poolId",
          "type": "uint256"
        },
        {
          "indexed": false,
          "internalType": "uint256",
          "name": "accDegisPerShare",
          "type": "uint256"
        },
        {
          "indexed": false,
          "internalType": "uint256",
          "name": "accDegisPerBonusShare",
          "type": "uint256"
        }
      ],
      "name": "PoolUpdated",
      "type": "event"
    },
    {
      "anonymous": false,
      "inputs": [
        {
          "indexed": false,
          "internalType": "address",
          "name": "staker",
          "type": "address"
        },
        {
          "indexed": false,
          "internalType": "uint256",
          "name": "poolId",
          "type": "uint256"
        },
        {
          "indexed": false,
          "internalType": "uint256",
          "name": "amount",
          "type": "uint256"
        }
      ],
      "name": "Stake",
      "type": "event"
    },
    {
      "anonymous": false,
      "inputs": [
        {
          "indexed": false,
          "internalType": "uint256",
          "name": "startTimestamp",
          "type": "uint256"
        }
      ],
      "name": "StartTimestampChanged",
      "type": "event"
    },
    {
      "anonymous": false,
      "inputs": [
        {
          "indexed": false,
          "internalType": "address",
          "name": "account",
          "type": "address"
        }
      ],
      "name": "Unpaused",
      "type": "event"
    },
    {
      "anonymous": false,
      "inputs": [
        {
          "indexed": false,
          "internalType": "address",
          "name": "staker",
          "type": "address"
        },
        {
          "indexed": false,
          "internalType": "uint256",
          "name": "poolId",
          "type": "uint256"
        },
        {
          "indexed": false,
          "internalType": "uint256",
          "name": "amount",
          "type": "uint256"
        }
      ],
      "name": "Withdraw",
      "type": "event"
    },
    {
      "inputs": [],
      "name": "DEG",
      "outputs": [
        {
          "internalType": "contract IDegisToken",
          "name": "",
          "type": "address"
        }
      ],
      "stateMutability": "view",
      "type": "function"
    },
    {
      "inputs": [],
      "name": "SCALE",
      "outputs": [
        {
          "internalType": "uint256",
          "name": "",
          "type": "uint256"
        }
      ],
      "stateMutability": "view",
      "type": "function"
    },
    {
      "inputs": [
        {
          "internalType": "address",
          "name": "_lpToken",
          "type": "address"
        },
        {
          "internalType": "uint256",
          "name": "_basicDegisPerSecond",
          "type": "uint256"
        },
        {
          "internalType": "uint256",
          "name": "_bonusDegisPerSecond",
          "type": "uint256"
        },
        {
          "internalType": "bool",
          "name": "_withUpdate",
          "type": "bool"
        },
        {
          "internalType": "address",
          "name": "_doubleRewardToken",
          "type": "address"
        }
      ],
      "name": "add",
      "outputs": [],
      "stateMutability": "nonpayable",
      "type": "function"
    },
    {
      "inputs": [
        {
          "internalType": "uint256",
          "name": "",
          "type": "uint256"
        }
      ],
      "name": "doubleRewarder",
      "outputs": [
        {
          "internalType": "address",
          "name": "",
          "type": "address"
        }
      ],
      "stateMutability": "view",
      "type": "function"
    },
    {
      "inputs": [],
      "name": "doubleRewarderContract",
      "outputs": [
        {
          "internalType": "contract IDoubleRewarder",
          "name": "",
          "type": "address"
        }
      ],
      "stateMutability": "view",
      "type": "function"
    },
    {
      "inputs": [
        {
          "internalType": "uint256",
          "name": "",
          "type": "uint256"
        },
        {
          "internalType": "address",
          "name": "",
          "type": "address"
        }
      ],
      "name": "extraClaimable",
      "outputs": [
        {
          "internalType": "uint256",
          "name": "",
          "type": "uint256"
        }
      ],
      "stateMutability": "view",
      "type": "function"
    },
    {
      "inputs": [],
      "name": "getPoolList",
      "outputs": [
        {
          "components": [
            {
              "internalType": "address",
              "name": "lpToken",
              "type": "address"
            },
            {
              "internalType": "uint256",
              "name": "basicDegisPerSecond",
              "type": "uint256"
            },
            {
              "internalType": "uint256",
              "name": "bonusDegisPerSecond",
              "type": "uint256"
            },
            {
              "internalType": "uint256",
              "name": "lastRewardTimestamp",
              "type": "uint256"
            },
            {
              "internalType": "uint256",
              "name": "accDegisPerShare",
              "type": "uint256"
            },
            {
              "internalType": "uint256",
              "name": "accDegisPerBonusShare",
              "type": "uint256"
            },
            {
              "internalType": "uint256",
              "name": "totalBonus",
              "type": "uint256"
            }
          ],
          "internalType": "struct FarmingPoolUpgradeable.PoolInfo[]",
          "name": "",
          "type": "tuple[]"
        }
      ],
      "stateMutability": "view",
      "type": "function"
    },
    {
      "inputs": [
        {
          "internalType": "uint256",
          "name": "_poolId",
          "type": "uint256"
        },
        {
          "internalType": "address",
          "name": "_user",
          "type": "address"
        }
      ],
      "name": "getUserBalance",
      "outputs": [
        {
          "internalType": "uint256",
          "name": "",
          "type": "uint256"
        }
      ],
      "stateMutability": "view",
      "type": "function"
    },
    {
      "inputs": [
        {
          "internalType": "uint256",
          "name": "_poolId",
          "type": "uint256"
        },
        {
          "internalType": "address",
          "name": "_to",
          "type": "address"
        }
      ],
      "name": "harvest",
      "outputs": [],
      "stateMutability": "nonpayable",
      "type": "function"
    },
    {
      "inputs": [
        {
          "internalType": "address",
          "name": "_DEG",
          "type": "address"
        }
      ],
      "name": "initialize",
      "outputs": [],
      "stateMutability": "nonpayable",
      "type": "function"
    },
    {
      "inputs": [
        {
          "internalType": "uint256",
          "name": "",
          "type": "uint256"
        }
      ],
      "name": "isFarming",
      "outputs": [
        {
          "internalType": "bool",
          "name": "",
          "type": "bool"
        }
      ],
      "stateMutability": "view",
      "type": "function"
    },
    {
      "inputs": [],
      "name": "massUpdatePools",
      "outputs": [],
      "stateMutability": "nonpayable",
      "type": "function"
    },
    {
      "inputs": [],
      "name": "name",
      "outputs": [
        {
          "internalType": "string",
          "name": "",
          "type": "string"
        }
      ],
      "stateMutability": "view",
      "type": "function"
    },
    {
      "inputs": [],
      "name": "nextPoolId",
      "outputs": [
        {
          "internalType": "uint256",
          "name": "",
          "type": "uint256"
        }
      ],
      "stateMutability": "view",
      "type": "function"
    },
    {
      "inputs": [],
      "name": "owner",
      "outputs": [
        {
          "internalType": "address",
          "name": "",
          "type": "address"
        }
      ],
      "stateMutability": "view",
      "type": "function"
    },
    {
      "inputs": [],
      "name": "pause",
      "outputs": [],
      "stateMutability": "nonpayable",
      "type": "function"
    },
    {
      "inputs": [],
      "name": "paused",
      "outputs": [
        {
          "internalType": "bool",
          "name": "",
          "type": "bool"
        }
      ],
      "stateMutability": "view",
      "type": "function"
    },
    {
      "inputs": [
        {
          "internalType": "uint256",
          "name": "_poolId",
          "type": "uint256"
        },
        {
          "internalType": "address",
          "name": "_user",
          "type": "address"
        }
      ],
      "name": "pendingDegis",
      "outputs": [
        {
          "internalType": "uint256",
          "name": "",
          "type": "uint256"
        }
      ],
      "stateMutability": "view",
      "type": "function"
    },
    {
      "inputs": [
        {
          "internalType": "uint256",
          "name": "_poolId",
          "type": "uint256"
        },
        {
          "internalType": "address",
          "name": "_user",
          "type": "address"
        }
      ],
      "name": "pendingDoubleReward",
      "outputs": [
        {
          "internalType": "address",
          "name": "doubleRewardToken",
          "type": "address"
        },
        {
          "internalType": "uint256",
          "name": "pending",
          "type": "uint256"
        }
      ],
      "stateMutability": "view",
      "type": "function"
    },
    {
      "inputs": [
        {
          "internalType": "uint256",
          "name": "",
          "type": "uint256"
        },
        {
          "internalType": "uint256",
          "name": "",
          "type": "uint256"
        }
      ],
      "name": "piecewiseBasic",
      "outputs": [
        {
          "internalType": "uint256",
          "name": "",
          "type": "uint256"
        }
      ],
      "stateMutability": "view",
      "type": "function"
    },
    {
      "inputs": [
        {
          "internalType": "uint256",
          "name": "",
          "type": "uint256"
        }
      ],
      "name": "poolList",
      "outputs": [
        {
          "internalType": "address",
          "name": "lpToken",
          "type": "address"
        },
        {
          "internalType": "uint256",
          "name": "basicDegisPerSecond",
          "type": "uint256"
        },
        {
          "internalType": "uint256",
          "name": "bonusDegisPerSecond",
          "type": "uint256"
        },
        {
          "internalType": "uint256",
          "name": "lastRewardTimestamp",
          "type": "uint256"
        },
        {
          "internalType": "uint256",
          "name": "accDegisPerShare",
          "type": "uint256"
        },
        {
          "internalType": "uint256",
          "name": "accDegisPerBonusShare",
          "type": "uint256"
        },
        {
          "internalType": "uint256",
          "name": "totalBonus",
          "type": "uint256"
        }
      ],
      "stateMutability": "view",
      "type": "function"
    },
    {
      "inputs": [
        {
          "internalType": "address",
          "name": "",
          "type": "address"
        }
      ],
      "name": "poolMapping",
      "outputs": [
        {
          "internalType": "uint256",
          "name": "",
          "type": "uint256"
        }
      ],
      "stateMutability": "view",
      "type": "function"
    },
    {
      "inputs": [
        {
          "internalType": "uint256",
          "name": "",
          "type": "uint256"
        }
      ],
      "name": "poolRewardLevel",
      "outputs": [
        {
          "internalType": "uint256",
          "name": "",
          "type": "uint256"
        }
      ],
      "stateMutability": "view",
      "type": "function"
    },
    {
      "inputs": [],
      "name": "renounceOwnership",
      "outputs": [],
      "stateMutability": "nonpayable",
      "type": "function"
    },
    {
      "inputs": [
        {
          "internalType": "uint256",
          "name": "_poolId",
          "type": "uint256"
        },
        {
          "internalType": "uint256",
          "name": "_basicDegisPerSecond",
          "type": "uint256"
        },
        {
          "internalType": "uint256",
          "name": "_bonusDegisPerSecond",
          "type": "uint256"
        },
        {
          "internalType": "bool",
          "name": "_withUpdate",
          "type": "bool"
        }
      ],
      "name": "setDegisReward",
      "outputs": [],
      "stateMutability": "nonpayable",
      "type": "function"
    },
    {
      "inputs": [
        {
          "internalType": "address",
          "name": "_rewarder",
          "type": "address"
        }
      ],
      "name": "setDoubleRewarderContract",
      "outputs": [],
      "stateMutability": "nonpayable",
      "type": "function"
    },
    {
      "inputs": [
        {
          "internalType": "uint256",
          "name": "_poolId",
          "type": "uint256"
        },
        {
          "internalType": "uint256[]",
          "name": "_threshold",
          "type": "uint256[]"
        },
        {
          "internalType": "uint256[]",
          "name": "_reward",
          "type": "uint256[]"
        }
      ],
      "name": "setPiecewise",
      "outputs": [],
      "stateMutability": "nonpayable",
      "type": "function"
    },
    {
      "inputs": [
        {
          "internalType": "uint256",
          "name": "_startTimestamp",
          "type": "uint256"
        }
      ],
      "name": "setStartTimestamp",
      "outputs": [],
      "stateMutability": "nonpayable",
      "type": "function"
    },
    {
      "inputs": [
        {
          "internalType": "address",
          "name": "_veDEG",
          "type": "address"
        }
      ],
      "name": "setVeDEG",
      "outputs": [],
      "stateMutability": "nonpayable",
      "type": "function"
    },
    {
      "inputs": [
        {
          "internalType": "uint256",
          "name": "_poolId",
          "type": "uint256"
        },
        {
          "internalType": "uint256",
          "name": "_amount",
          "type": "uint256"
        }
      ],
      "name": "stake",
      "outputs": [],
      "stateMutability": "nonpayable",
      "type": "function"
    },
    {
      "inputs": [],
      "name": "startTimestamp",
      "outputs": [
        {
          "internalType": "uint256",
          "name": "",
          "type": "uint256"
        }
      ],
      "stateMutability": "view",
      "type": "function"
    },
    {
      "inputs": [
        {
          "internalType": "uint256",
          "name": "",
          "type": "uint256"
        },
        {
          "internalType": "uint256",
          "name": "",
          "type": "uint256"
        }
      ],
      "name": "thresholdBasic",
      "outputs": [
        {
          "internalType": "uint256",
          "name": "",
          "type": "uint256"
        }
      ],
      "stateMutability": "view",
      "type": "function"
    },
    {
      "inputs": [
        {
          "internalType": "address",
          "name": "newOwner",
          "type": "address"
        }
      ],
      "name": "transferOwnership",
      "outputs": [],
      "stateMutability": "nonpayable",
      "type": "function"
    },
    {
      "inputs": [],
      "name": "unpause",
      "outputs": [],
      "stateMutability": "nonpayable",
      "type": "function"
    },
    {
      "inputs": [
        {
          "internalType": "address",
          "name": "_user",
          "type": "address"
        },
        {
          "internalType": "uint256",
          "name": "_newVeDEGBalance",
          "type": "uint256"
        }
      ],
      "name": "updateBonus",
      "outputs": [],
      "stateMutability": "nonpayable",
      "type": "function"
    },
    {
      "inputs": [
        {
          "internalType": "uint256",
          "name": "_poolId",
          "type": "uint256"
        }
      ],
      "name": "updatePool",
      "outputs": [],
      "stateMutability": "nonpayable",
      "type": "function"
    },
    {
      "inputs": [
        {
          "internalType": "uint256",
          "name": "",
          "type": "uint256"
        },
        {
          "internalType": "address",
          "name": "",
          "type": "address"
        }
      ],
      "name": "userInfo",
      "outputs": [
        {
          "internalType": "uint256",
          "name": "rewardDebt",
          "type": "uint256"
        },
        {
          "internalType": "uint256",
          "name": "balance",
          "type": "uint256"
        },
        {
          "internalType": "uint256",
          "name": "bonus",
          "type": "uint256"
        }
      ],
      "stateMutability": "view",
      "type": "function"
    },
    {
      "inputs": [],
      "name": "veDEG",
      "outputs": [
        {
          "internalType": "contract IVeDEG",
          "name": "",
          "type": "address"
        }
      ],
      "stateMutability": "view",
      "type": "function"
    },
    {
      "inputs": [
        {
          "internalType": "uint256",
          "name": "_poolId",
          "type": "uint256"
        },
        {
          "internalType": "uint256",
          "name": "_amount",
          "type": "uint256"
        }
      ],
      "name": "withdraw",
      "outputs": [],
      "stateMutability": "nonpayable",
      "type": "function"
    }
  ],
  "transactionHash": "0x5f297d1a7947860c861030a276996155a366ee47c1193011620e768a2217c8a8",
  "args": [],
  "numDeployments": 1,
  "solcInputHash": "0908b805372ad3a5b867a88c8d84f329",
  "bytecode": "0x608060405234801561001057600080fd5b50613e21806100206000396000f3fe608060405234801561001057600080fd5b50600436106102ac5760003560e01c80638456cb591161017b578063cdcd2907116100d8578063e3b93b601161008c578063eced552611610071578063eced55261461061b578063ef1d9f6714610627578063f2fde38b1461065057600080fd5b8063e3b93b60146105ff578063e6fd48bc1461061257600080fd5b8063d13f67bc116100bd578063d13f67bc146105c4578063d41dcbea146105d7578063d5446518146105ec57600080fd5b8063cdcd29071461059e578063cdfb6cf3146105b157600080fd5b8063bea10f001161012f578063c44bef7511610114578063c44bef751461054d578063c4d66de814610560578063c73d2bae1461057357600080fd5b8063bea10f001461051a578063bfa7decb1461052d57600080fd5b80638da5cb5b116101605780638da5cb5b1461049457806393f1a40b146104ae578063a06ddcb3146104f757600080fd5b80638456cb591461047957806389147f551461048157600080fd5b80634810d910116102295780635c975abb116101dd578063630b5ba1116101c2578063630b5ba114610456578063715018a61461045e5780637b0472f01461046657600080fd5b80635c975abb1461042f5780635e4651f91461044357600080fd5b80634f3e7ba61161020e5780634f3e7ba6146103e957806351eb05a6146104095780635bf560681461041c57600080fd5b80634810d910146103b55780634b34b687146103d657600080fd5b806318fccc76116102805780632c678a3e116102655780632c678a3e1461037a5780633f4ba83a1461039a578063441a3e70146103a257600080fd5b806318fccc76146103415780632a48235b1461035457600080fd5b8062334017146102b157806306fdde03146102c657806307a96cbf1461031857806318e561311461032b575b600080fd5b6102c46102bf3660046130ac565b610663565b005b6103026040518060400160405280601581526020017f4465676973204c50204661726d696e6720506f6f6c000000000000000000000081525081565b60405161030f9190613182565b60405180910390f35b6102c4610326366004613193565b610987565b61033460cb5481565b60405161030f91906131bc565b6102c461034f3660046131ca565b6109d3565b610367610362366004613207565b610d6f565b60405161030f9796959493929190613231565b610334610388366004613193565b60ce6020526000908152604090205481565b6102c4610dc8565b6102c46103b0366004613299565b610dfc565b6103c86103c33660046131ca565b61127f565b60405161030f9291906132cc565b6102c46103e4366004613339565b611328565b60ca546103fc906001600160a01b031681565b60405161030f91906133e8565b6102c4610417366004613207565b6113e4565b61033461042a366004613299565b6116e9565b60975460ff165b60405161030f91906133fe565b610334610451366004613299565b61171a565b6102c4611736565b6102c46117a9565b6102c4610474366004613299565b6117dd565b6102c4611c3a565b6102c461048f366004613193565b611c6c565b6033546001600160a01b03165b60405161030f919061340c565b6104e86104bc3660046131ca565b60d060209081526000928352604080842090915290825290208054600182015460029092015490919083565b60405161030f9392919061341a565b610436610505366004613207565b60cf6020526000908152604090205460ff1681565b60d5546103fc906001600160a01b031681565b61033461053b366004613207565b60d46020526000908152604090205481565b6102c461055b366004613207565b611cb8565b6102c461056e366004613193565b611d67565b6103346105813660046131ca565b60d160209081526000928352604080842090915290825290205481565b6102c46105ac366004613442565b611fa1565b6103346105bf3660046131ca565b61222f565b6103346105d23660046131ca565b61225c565b6105df612513565b60405161030f9190613582565b6102c46105fa366004613593565b6125bb565b60c9546103fc906001600160a01b031681565b61033460cc5481565b61033464e8d4a5100081565b6104a1610635366004613207565b60d6602052600090815260409020546001600160a01b031681565b6102c461065e366004613193565b61279a565b846001600160a01b0381166106935760405162461bcd60e51b815260040161068a906135e7565b60405180910390fd5b6033546001600160a01b031633146106bd5760405162461bcd60e51b815260040161068a90613627565b60975460ff16156106e05760405162461bcd60e51b815260040161068a90613669565b6106e9866127f6565b156107065760405162461bcd60e51b815260040161068a906136ab565b831561072c576000851161072c5760405162461bcd60e51b815260040161068a906136ed565b821561073a5761073a611736565b600060cc54421161074d5760cc5461074f565b425b6040805160e0810182526001600160a01b038a81168252602082018a81529282018981526060830185815260006080850181815260a0860182815260c0870183815260cd8054600181018255945296517f83978b4c69c48dd978ab43fe30f077615294f938fb7f936d9eb340e51ea7db2e600790940293840180546001600160a01b031916919097161790955595517f83978b4c69c48dd978ab43fe30f077615294f938fb7f936d9eb340e51ea7db2f82015591517f83978b4c69c48dd978ab43fe30f077615294f938fb7f936d9eb340e51ea7db30830155517f83978b4c69c48dd978ab43fe30f077615294f938fb7f936d9eb340e51ea7db3182015592517f83978b4c69c48dd978ab43fe30f077615294f938fb7f936d9eb340e51ea7db32840155517f83978b4c69c48dd978ab43fe30f077615294f938fb7f936d9eb340e51ea7db33830155517f83978b4c69c48dd978ab43fe30f077615294f938fb7f936d9eb340e51ea7db3490910155905085156108e35760cb54600090815260cf60205260409020805460ff191660011790555b60cb8054600091826108f483613713565b909155506001600160a01b038916600090815260ce602052604090819020829055519091507f5f9d2cd19aa3f32e9e8cc45267a493f9956c1b955a220136161ff8ad595bc7829061094a908a908a908a9061372c565b60405180910390a1600090815260d66020526040902080546001600160a01b0319166001600160a01b039490941693909317909255505050505050565b6033546001600160a01b031633146109b15760405162461bcd60e51b815260040161068a90613627565b60ca80546001600160a01b0319166001600160a01b0392909216919091179055565b6002606554036109f55760405162461bcd60e51b815260040161068a9061376c565b600260655560975460ff1615610a1d5760405162461bcd60e51b815260040161068a90613669565b600082815260cf602052604090205460ff1615610a4257610a3d826113e4565b610a6c565b4260cd8381548110610a5657610a5661377c565b9060005260206000209060070201600301819055505b600060cd8381548110610a8157610a8161377c565b600091825260208083206040805160e081018252600790940290910180546001600160a01b03168452600181015484840152600280820154858401526003820154606086015260048201546080860152600582015460a0860190815260069092015460c086015288865260d084528286203380885290855283872080548b895260d1875285892092895291909552928620549151908401549496509294939192909164e8d4a5100091610b3391613792565b86608001518660010154610b479190613792565b610b5191906137b1565b610b5b91906137df565b610b6591906137b1565b610b6f91906137f3565b600086815260d160209081526040808320338452909152812055905080610ba85760405162461bcd60e51b815260040161068a9061383c565b600085815260d660205260409020546001600160a01b031615610cd35782516040516370a0823160e01b81526000916001600160a01b0316906370a0823190610bf590309060040161340c565b602060405180830381865afa158015610c12573d6000803e3d6000fd5b505050506040513d601f19601f82011682018060405250810190610c369190613857565b60d5548551600089815260d660205260409081902054600188015491517f83c40a8f0000000000000000000000000000000000000000000000000000000081529495506001600160a01b03938416946383c40a8f94610c9f949392169133918890600401613878565b600060405180830381600087803b158015610cb957600080fd5b505af1158015610ccd573d6000803e3d6000fd5b50505050505b64e8d4a510008360a001518360020154610ced9190613792565b84608001518460010154610d019190613792565b610d0b91906137b1565b610d1591906137df565b82556000610d238583612827565b90507fdec9257d126f56798a34ce7ca0ffedeaa9a024543946f79c3b5038035ba32a1e33868884604051610d5a94939291906138c4565b60405180910390a15050600160655550505050565b60cd8181548110610d7f57600080fd5b600091825260209091206007909102018054600182015460028301546003840154600485015460058601546006909601546001600160a01b039095169650929491939092919087565b6033546001600160a01b03163314610df25760405162461bcd60e51b815260040161068a90613627565b610dfa612905565b565b600260655403610e1e5760405162461bcd60e51b815260040161068a9061376c565b600260655560975460ff1615610e465760405162461bcd60e51b815260040161068a90613669565b60008111610e665760405162461bcd60e51b815260040161068a90613934565b600060cd8381548110610e7b57610e7b61377c565b6000918252602080832086845260d0825260408085203386529092529220600181015460079092029092019250831115610ec75760405162461bcd60e51b815260040161068a90613976565b600084815260cf602052604090205460ff1615610eec57610ee7846113e4565b610ef3565b4260038301555b8054600085815260d1602090815260408083203384529091528120546005850154600285015492939264e8d4a5100091610f2c91613792565b86600401548660010154610f409190613792565b610f4a91906137b1565b610f5491906137df565b610f5e91906137b1565b610f6891906137f3565b600086815260d160209081526040808320338085529252822082905591925090610f929083612827565b90507fdec9257d126f56798a34ce7ca0ffedeaa9a024543946f79c3b5038035ba32a1e33338884604051610fc994939291906138c4565b60405180910390a18354600090610fed906001906001600160a01b0316338961296b565b90508084600101600082825461100391906137f3565b909155505060ca546001600160a01b0316156110cd57600284015460ca546040516370a0823160e01b81526110a5916001600160a01b0316906370a082319061105090339060040161340c565b602060405180830381865afa15801561106d573d6000803e3d6000fd5b505050506040513d601f19601f820116820180604052508101906110919190613857565b86600101546110a09190613792565b612aae565b60028601819055600687015482916110bc916137b1565b6110c691906137f3565b6006870155505b600087815260d660205260409020546001600160a01b0316156111f15784546040516370a0823160e01b81526000916001600160a01b0316906370a082319061111a90309060040161340c565b602060405180830381865afa158015611137573d6000803e3d6000fd5b505050506040513d601f19601f8201168201806040525081019061115b9190613857565b60d554875460008b815260d6602052604090205460018901549394506001600160a01b03928316936383c40a8f939283169290911690339061119d88886137b1565b6040518663ffffffff1660e01b81526004016111bd959493929190613878565b600060405180830381600087803b1580156111d757600080fd5b505af11580156111eb573d6000803e3d6000fd5b50505050505b64e8d4a510008560050154856002015461120b9190613792565b8660040154866001015461121f9190613792565b61122991906137b1565b61123391906137df565b84556040517ff279e6a1f5e320cca91135676d9cb6e44ca8a08c0b88342bcdb1144f6511b568906112699033908a90859061372c565b60405180910390a1505060016065555050505050565b600082815260d660205260408082205460d55491517f9ced7e760000000000000000000000000000000000000000000000000000000081526001600160a01b03918216939290911690639ced7e76906112de9085908790600401613986565b602060405180830381865afa1580156112fb573d6000803e3d6000fd5b505050506040513d601f19601f8201168201806040525081019061131f9190613857565b90509250929050565b6033546001600160a01b031633146113525760405162461bcd60e51b815260040161068a90613627565b600085815260d26020526040902061136b908585612ff8565b50600085815260d360205260409020611385908383612ff8565b5060008282600081811061139b5761139b61377c565b9050602002013511156113c657600085815260cf60205260409020805460ff191660011790556113dd565b600085815260cf60205260409020805460ff191690555b5050505050565b600060cd82815481106113f9576113f961377c565b9060005260206000209060070201905080600301544211611418575050565b80546040516370a0823160e01b81526000916001600160a01b0316906370a082319061144890309060040161340c565b602060405180830381865afa158015611465573d6000803e3d6000fd5b505050506040513d601f19601f820116820180604052508101906114899190613857565b90508060000361149e57504260039091015550565b60008260030154426114b091906137f3565b905060008360010154826114c49190613792565b905060008460020154836114d89190613792565b9050836114ea64e8d4a5100084613792565b6114f491906137df565b85600401600082825461150791906137b1565b90915550506006850154600003611524576000600586015561155b565b600685015461153864e8d4a5100083613792565b61154291906137df565b85600501600082825461155591906137b1565b90915550505b60c9546001600160a01b031663b47673983061157784866137b1565b6040518363ffffffff1660e01b81526004016115949291906132cc565b600060405180830381600087803b1580156115ae57600080fd5b505af11580156115c2573d6000803e3d6000fd5b50504260038801555050600086815260d4602090815260408083205460d2909252909120541561169e57600087815260d26020526040812080548390811061160c5761160c61377c565b60009182526020808320909101548a835260d2909152604090912054909150611637906001906137f3565b821080156116785750600088815260d2602052604090206116598360016137b1565b815481106116695761166961377c565b90600052602060002001548610155b1561168b5761168688612b1e565b61169c565b8086101561169c5761169c88612b1e565b505b600486015460058701546040517f17b8644f386d1c7c7138ef98b3c8035622bbe94d7be9b26f71d2654a547c2943926116d8928b9261341a565b60405180910390a150505050505050565b60d3602052816000526040600020818154811061170557600080fd5b90600052602060002001600091509150505481565b60d2602052816000526040600020818154811061170557600080fd5b60cd5460015b818110156117a557600081815260cf602052604081205460ff161515900361178c574260cd82815481106117725761177261377c565b906000526020600020906007020160030181905550611795565b611795816113e4565b61179e81613713565b905061173c565b5050565b6033546001600160a01b031633146117d35760405162461bcd60e51b815260040161068a90613627565b610dfa6000612c8b565b6002606554036117ff5760405162461bcd60e51b815260040161068a9061376c565b600260655560975460ff16156118275760405162461bcd60e51b815260040161068a90613669565b600082815260cf6020526040902054829060ff166118575760405162461bcd60e51b815260040161068a906139d3565b600082116118775760405162461bcd60e51b815260040161068a90613a15565b600060cd848154811061188c5761188c61377c565b6000918252602080832087845260d0825260408085203386529092529220600790910290910191506118bd856113e4565b6001810154156119a8578054600086815260d1602090815260408083203384529091528120546005850154600285015492939264e8d4a510009161190091613792565b866004015486600101546119149190613792565b61191e91906137b1565b61192891906137df565b61193291906137b1565b61193c91906137f3565b600087815260d1602090815260408083203380855292528220829055919250906119669083612827565b90507fdec9257d126f56798a34ce7ca0ffedeaa9a024543946f79c3b5038035ba32a1e3333898460405161199d94939291906138c4565b60405180910390a150505b81546000906119c39082906001600160a01b0316338861296b565b9050808260010160008282546119d991906137b1565b909155505060ca546001600160a01b031615611a9e57600282015460ca546040516370a0823160e01b8152611a76916001600160a01b0316906370a0823190611a2690339060040161340c565b602060405180830381865afa158015611a43573d6000803e3d6000fd5b505050506040513d601f19601f82011682018060405250810190611a679190613857565b84600101546110a09190613792565b6002840181905560068501548291611a8d916137b1565b611a9791906137f3565b6006850155505b600086815260d660205260409020546001600160a01b031615611bc25782546040516370a0823160e01b81526000916001600160a01b0316906370a0823190611aeb90309060040161340c565b602060405180830381865afa158015611b08573d6000803e3d6000fd5b505050506040513d601f19601f82011682018060405250810190611b2c9190613857565b60d554855460008a815260d6602052604090205460018701549394506001600160a01b03928316936383c40a8f9392831692909116903390611b6e88886137f3565b6040518663ffffffff1660e01b8152600401611b8e959493929190613878565b600060405180830381600087803b158015611ba857600080fd5b505af1158015611bbc573d6000803e3d6000fd5b50505050505b64e8d4a5100083600501548360020154611bdc9190613792565b84600401548460010154611bf09190613792565b611bfa91906137b1565b611c0491906137df565b82556040517f5af417134f72a9d41143ace85b0a26dce6f550f894f2cbc1eeee8810603d91b690610d5a9033908990859061372c565b6033546001600160a01b03163314611c645760405162461bcd60e51b815260040161068a90613627565b610dfa612cdd565b6033546001600160a01b03163314611c965760405162461bcd60e51b815260040161068a90613627565b60d580546001600160a01b0319166001600160a01b0392909216919091179055565b6033546001600160a01b03163314611ce25760405162461bcd60e51b815260040161068a90613627565b60975460ff1615611d055760405162461bcd60e51b815260040161068a90613669565b60cb54600114611d275760405162461bcd60e51b815260040161068a90613a57565b60cc8190556040517faf8fc8a4c9a55a9a29c3e99cd1797d43062c696f192896c79cbebd7da3286d8290611d5c9083906131bc565b60405180910390a150565b600054610100900460ff16611d825760005460ff1615611d86565b303b155b611da25760405162461bcd60e51b815260040161068a90613ac1565b600054610100900460ff16158015611dc4576000805461ffff19166101011790555b6001600160a01b038216611dea5760405162461bcd60e51b815260040161068a906135e7565b611df2612d35565b611dfa612d64565b611e02612d92565b60c980546001600160a01b038085166001600160a01b031992831617909255600160cb8190556040805160e081018252600080825260208201818152928201818152606083018281526080840183815260a0850184815260c0860185815260cd8054998a018155909552945160079097027f83978b4c69c48dd978ab43fe30f077615294f938fb7f936d9eb340e51ea7db2e8101805498909a16979098169690961790975592517f83978b4c69c48dd978ab43fe30f077615294f938fb7f936d9eb340e51ea7db2f86015591517f83978b4c69c48dd978ab43fe30f077615294f938fb7f936d9eb340e51ea7db3085015593517f83978b4c69c48dd978ab43fe30f077615294f938fb7f936d9eb340e51ea7db3184015590517f83978b4c69c48dd978ab43fe30f077615294f938fb7f936d9eb340e51ea7db3283015591517f83978b4c69c48dd978ab43fe30f077615294f938fb7f936d9eb340e51ea7db3382015590517f83978b4c69c48dd978ab43fe30f077615294f938fb7f936d9eb340e51ea7db349091015580156117a5576000805461ff00191690555050565b6033546001600160a01b03163314611fcb5760405162461bcd60e51b815260040161068a90613627565b60975460ff1615611fee5760405162461bcd60e51b815260040161068a90613669565b60cd84815481106120015761200161377c565b9060005260206000209060070201600301546000036120325760405162461bcd60e51b815260040161068a90613b03565b811561205857600083116120585760405162461bcd60e51b815260040161068a906136ed565b801561206b57612066611736565b612074565b612074846113e4565b600084815260cf602052604090205460ff161580156120935750600083115b156120ec57600084815260cf602052604090819020805460ff19166001179055517f6140f1d5adcbca6c6b24c3b5e695335cd1a2071c7e03881172dc9eb0e488225c906120e39086904290613b13565b60405180910390a15b8260000361219b57600084815260cf60205260408120805460ff1916905560cd80548690811061211e5761211e61377c565b906000526020600020906007020160010181905550600060cd85815481106121485761214861377c565b9060005260206000209060070201600201819055507f4654f9b7bb3ba4d66e3a4e972e39db189ac7b4fdf5f2a95d57a4eb4d91a16d45844260405161218e929190613b13565b60405180910390a1612229565b8260cd85815481106121af576121af61377c565b9060005260206000209060070201600101819055508160cd85815481106121d8576121d861377c565b9060005260206000209060070201600201819055507f12558fa101886c4fd9ad5e0b9932a6ffd3653b63380b1da3f024ddaf506c22eb8484846040516122209392919061341a565b60405180910390a15b50505050565b600082815260d0602090815260408083206001600160a01b03851684529091529020600101545b92915050565b60008060cd84815481106122725761227261377c565b60009182526020918290206040805160e081018252600790930290910180546001600160a01b0316835260018101549383019390935260028301549082015260038201546060820181905260048301546080830152600583015460a083015260069092015460c0820152915015806122ed5750806060015142105b806122f9575060cc5442105b15612308576000915050612256565b600084815260d0602090815260408083206001600160a01b0380881685529083528184208251606081018452815481526001820154948101949094526002015483830152845191516370a0823160e01b81529293929116906370a082319061237490309060040161340c565b602060405180830381865afa158015612391573d6000803e3d6000fd5b505050506040513d601f19601f820116820180604052508101906123b59190613857565b608084015160a08501519192509060008390036123da57600095505050505050612256565b600088815260cf602052604090205460ff161561248e57600085606001514261240391906137f3565b905060008187602001516124179190613792565b90508461242964e8d4a5100083613792565b61243391906137df565b61243d90856137b1565b60c08801519094501561248b57600082886040015161245c9190613792565b60c089015190915061247364e8d4a5100083613792565b61247d91906137df565b61248790856137b1565b9350505b50505b8351600089815260d1602090815260408083206001600160a01b038c168452909152808220549087015191929164e8d4a51000906124cd908690613792565b8689602001516124dd9190613792565b6124e791906137b1565b6124f191906137df565b6124fb91906137b1565b61250591906137f3565b965061225695505050505050565b606060cd805480602002602001604051908101604052809291908181526020016000905b828210156125b25760008481526020908190206040805160e0810182526007860290920180546001600160a01b03168352600180820154848601526002820154928401929092526003810154606084015260048101546080840152600581015460a08401526006015460c08301529083529092019101612537565b50505050905090565b60ca546001600160a01b031633146125e55760405162461bcd60e51b815260040161068a90613b53565b60cd5460005b8181101561222957600081815260cf602052604090205460ff161561278a57600081815260d0602090815260408083206001600160a01b03881684529091528120600181015490910361263e575061278a565b600060cd83815481106126535761265361377c565b9060005260206000209060070201905061266c836113e4565b6000826000015464e8d4a510008360050154856002015461268d9190613792565b846004015486600101546126a19190613792565b6126ab91906137b1565b6126b591906137df565b6126bf91906137f3565b600085815260d1602090815260408083206001600160a01b038c1684529091528120805492935083929091906126f69084906137b1565b909155505060028301546001840154600090612716906110a0908a613792565b60028601819055600585015490915064e8d4a51000906127369083613792565b8560040154876001015461274a9190613792565b61275491906137b1565b61275e91906137df565b8555600684015482906127729083906137b1565b61277c91906137f3565b846006018190555050505050505b61279381613713565b90506125eb565b6033546001600160a01b031633146127c45760405162461bcd60e51b815260040161068a90613627565b6001600160a01b0381166127ea5760405162461bcd60e51b815260040161068a90613bbb565b6127f381612c8b565b50565b6001600160a01b038116600090815260ce602052604081205480820361281d576000612820565b60015b9392505050565b60c9546040516370a0823160e01b815260009182916001600160a01b03909116906370a082319061285c90309060040161340c565b602060405180830381865afa158015612879573d6000803e3d6000fd5b505050506040513d601f19601f8201168201806040525081019061289d9190613857565b9050600081116128bf5760405162461bcd60e51b815260040161068a90613bfd565b808311156128e55760c9546128de906001600160a01b03168583612dc5565b9050612256565b60c9546128fc906001600160a01b03168585612dc5565b82915050612256565b60975460ff166129275760405162461bcd60e51b815260040161068a90613c3f565b6097805460ff191690557f5db9ee0a495bf2e6ff9c91a7834c1ba4fdd244a5e8aa4e537bd38aeae4b073aa335b604051612961919061340c565b60405180910390a1565b600080846001600160a01b03166370a08231306040518263ffffffff1660e01b815260040161299a919061340c565b602060405180830381865afa1580156129b7573d6000803e3d6000fd5b505050506040513d601f19601f820116820180604052508101906129db9190613857565b905085156129fc576129f76001600160a01b0386168585612dc5565b612a11565b612a116001600160a01b038616853086612e4d565b6040516370a0823160e01b81526000906001600160a01b038716906370a0823190612a4090309060040161340c565b602060405180830381865afa158015612a5d573d6000803e3d6000fd5b505050506040513d601f19601f82011682018060405250810190612a819190613857565b905086612a9757612a9282826137f3565b612aa1565b612aa181836137f3565b925050505b949350505050565b60006003821115612b0f5750806000612ac86002836137df565b612ad39060016137b1565b90505b81811015612b0957905080600281612aee81866137df565b612af891906137b1565b612b0291906137df565b9050612ad6565b50919050565b8115612b19575060015b919050565b600060cd8281548110612b3357612b3361377c565b60009182526020909120600790910201546040516370a0823160e01b81526001600160a01b03909116906370a0823190612b7190309060040161340c565b602060405180830381865afa158015612b8e573d6000803e3d6000fd5b505050506040513d601f19601f82011682018060405250810190612bb29190613857565b600083815260d26020526040812054919250908190612bd3906001906137f3565b90505b600084815260d260205260409020805482908110612bf657612bf661377c565b90600052602060002001548310612c4c57600084815260d360205260409020805482908110612c2757612c2761377c565b600091825260208083209091015486835260d490915260409091208290559150612c5c565b612c5581613c4f565b9050612bd6565b508060cd8481548110612c7157612c7161377c565b906000526020600020906007020160010181905550505050565b603380546001600160a01b038381166001600160a01b0319831681179093556040519116919082907f8be0079c531659141344cd1fd0a4f28419497f9722a3daafe3b4186f6b6457e090600090a35050565b60975460ff1615612d005760405162461bcd60e51b815260040161068a90613669565b6097805460ff191660011790557f62e78cea01bee320cd4e420270b5ea74000d11b0c9f74754ebdbfc544b05a2586129543390565b600054610100900460ff16612d5c5760405162461bcd60e51b815260040161068a90613cbe565b610dfa612e6e565b600054610100900460ff16612d8b5760405162461bcd60e51b815260040161068a90613cbe565b6001606555565b600054610100900460ff16612db95760405162461bcd60e51b815260040161068a90613cbe565b6097805460ff19169055565b612e488363a9059cbb60e01b8484604051602401612de49291906132cc565b60408051601f198184030181529190526020810180517bffffffffffffffffffffffffffffffffffffffffffffffffffffffff167fffffffff0000000000000000000000000000000000000000000000000000000090931692909217909152612e9e565b505050565b612229846323b872dd60e01b858585604051602401612de493929190613cce565b600054610100900460ff16612e955760405162461bcd60e51b815260040161068a90613cbe565b610dfa33612c8b565b6000612ef3826040518060400160405280602081526020017f5361666545524332303a206c6f772d6c6576656c2063616c6c206661696c6564815250856001600160a01b0316612f2d9092919063ffffffff16565b805190915015612e485780806020019051810190612f119190613cf4565b612e485760405162461bcd60e51b815260040161068a90613d6d565b6060612aa6848460008585843b612f565760405162461bcd60e51b815260040161068a90613daf565b600080866001600160a01b03168587604051612f729190613de1565b60006040518083038185875af1925050503d8060008114612faf576040519150601f19603f3d011682016040523d82523d6000602084013e612fb4565b606091505b5091509150612aa182828660608315612fce575081612820565b825115612fde5782518084602001fd5b8160405162461bcd60e51b815260040161068a9190613182565b828054828255906000526020600020908101928215613033579160200282015b82811115613033578235825591602001919060010190613018565b5061303f929150613043565b5090565b5b8082111561303f5760008155600101613044565b60006001600160a01b038216612256565b61307281613058565b81146127f357600080fd5b803561225681613069565b80613072565b803561225681613088565b801515613072565b803561225681613099565b600080600080600060a086880312156130c7576130c7600080fd5b60006130d3888861307d565b95505060206130e48882890161308e565b94505060406130f58882890161308e565b9350506060613106888289016130a1565b92505060806131178882890161307d565b9150509295509295909350565b60005b8381101561313f578181015183820152602001613127565b838111156122295750506000910152565b600061315a825190565b808452602084019350613171818560208601613124565b601f01601f19169290920192915050565b602080825281016128208184613150565b6000602082840312156131a8576131a8600080fd5b6000612aa6848461307d565b805b82525050565b6020810161225682846131b4565b600080604083850312156131e0576131e0600080fd5b60006131ec858561308e565b92505060206131fd8582860161307d565b9150509250929050565b60006020828403121561321c5761321c600080fd5b6000612aa6848461308e565b6131b681613058565b60e0810161323f828a613228565b61324c60208301896131b4565b61325960408301886131b4565b61326660608301876131b4565b61327360808301866131b4565b61328060a08301856131b4565b61328d60c08301846131b4565b98975050505050505050565b600080604083850312156132af576132af600080fd5b60006132bb858561308e565b92505060206131fd8582860161308e565b604081016132da8285613228565b61282060208301846131b4565b60008083601f8401126132fc576132fc600080fd5b50813567ffffffffffffffff81111561331757613317600080fd5b60208301915083602082028301111561333257613332600080fd5b9250929050565b60008060008060006060868803121561335457613354600080fd5b6000613360888861308e565b955050602086013567ffffffffffffffff81111561338057613380600080fd5b61338c888289016132e7565b9450945050604086013567ffffffffffffffff8111156133ae576133ae600080fd5b6133ba888289016132e7565b92509250509295509295909350565b600061225682613058565b6000612256826133c9565b6131b6816133d4565b6020810161225682846133df565b8015156131b6565b6020810161225682846133f6565b602081016122568284613228565b6060810161342882866131b4565b61343560208301856131b4565b612aa660408301846131b4565b6000806000806080858703121561345b5761345b600080fd5b6000613467878761308e565b94505060206134788782880161308e565b93505060406134898782880161308e565b925050606061349a878288016130a1565b91505092959194509250565b80516134b28382613228565b5060208101516134c560208401826131b4565b5060408101516134d860408401826131b4565b5060608101516134eb60608401826131b4565b5060808101516134fe60808401826131b4565b5060a081015161351160a08401826131b4565b5060c0810151612e4860c08401826131b4565b61352e82826134a6565b5060e00190565b60200190565b6000613545825190565b808452602093840193830160005b828110156135785781516135678782613524565b965050602082019150600101613553565b5093949350505050565b60208082528101612820818461353b565b600080604083850312156135a9576135a9600080fd5b60006132bb858561307d565b600c8152602081017f5a65726f2061646472657373000000000000000000000000000000000000000081529050613535565b60208082528101612256816135b5565b60208082527f4f776e61626c653a2063616c6c6572206973206e6f7420746865206f776e65729101908152613535565b60208082528101612256816135f7565b60108152602081017f5061757361626c653a207061757365640000000000000000000000000000000081529050613535565b6020808252810161225681613637565b60138152602081017f416c726561647920696e2074686520706f6f6c0000000000000000000000000081529050613535565b6020808252810161225681613679565b600a8152602081017f4f6e6c7920626f6e75730000000000000000000000000000000000000000000081529050613535565b60208082528101612256816136bb565b634e487b7160e01b600052601160045260246000fd5b600060018201613725576137256136fd565b5060010190565b606081016134288286613228565b601f8152602081017f5265656e7472616e637947756172643a207265656e7472616e742063616c6c0081529050613535565b602080825281016122568161373a565b634e487b7160e01b600052603260045260246000fd5b60008160001904831182151516156137ac576137ac6136fd565b500290565b600082198211156137c4576137c46136fd565b500190565b634e487b7160e01b600052601260045260246000fd5b6000826137ee576137ee6137c9565b500490565b600082821015613805576138056136fd565b500390565b60118152602081017f4e6f2070656e64696e672072657761726400000000000000000000000000000081529050613535565b602080825281016122568161380a565b805161225681613088565b60006020828403121561386c5761386c600080fd5b6000612aa6848461384c565b60a081016138868288613228565b6138936020830187613228565b6138a06040830186613228565b6138ad60608301856131b4565b6138ba60808301846131b4565b9695505050505050565b608081016138d28287613228565b6138df6020830186613228565b6138ec60408301856131b4565b6138f960608301846131b4565b95945050505050565b600b8152602081017f5a65726f20616d6f756e7400000000000000000000000000000000000000000081529050613535565b6020808252810161225681613902565b60128152602081017f4e6f7420656e6f7567682062616c616e6365000000000000000000000000000081529050613535565b6020808252810161225681613944565b604081016139948285613228565b6128206020830184613228565b60138152602081017f506f6f6c206973206e6f74206661726d696e670000000000000000000000000081529050613535565b60208082528101612256816139a1565b60128152602081017f43616e206e6f74207374616b65207a65726f000000000000000000000000000081529050613535565b60208082528101612256816139e3565b601f8152602081017f43616e206f6e6c792073657420737461727454696d652061742066697273740081529050613535565b6020808252810161225681613a25565b602e8152602081017f496e697469616c697a61626c653a20636f6e747261637420697320616c72656181527f647920696e697469616c697a6564000000000000000000000000000000000000602082015290505b60400190565b6020808252810161225681613a67565b600f8152602081017f506f6f6c206e6f7420657869737473000000000000000000000000000000000081529050613535565b6020808252810161225681613ad1565b604081016132da82856131b4565b60138152602081017f4f6e6c7920766544454720636f6e74726163740000000000000000000000000081529050613535565b6020808252810161225681613b21565b60268152602081017f4f776e61626c653a206e6577206f776e657220697320746865207a65726f206181527f646472657373000000000000000000000000000000000000000000000000000060208201529050613abb565b6020808252810161225681613b63565b601a8152602081017f4e6f20446567697320746f6b656e20696e2074686520706f6f6c00000000000081529050613535565b6020808252810161225681613bcb565b60148152602081017f5061757361626c653a206e6f742070617573656400000000000000000000000081529050613535565b6020808252810161225681613c0d565b600081613c5e57613c5e6136fd565b506000190190565b602b8152602081017f496e697469616c697a61626c653a20636f6e7472616374206973206e6f74206981527f6e697469616c697a696e6700000000000000000000000000000000000000000060208201529050613abb565b6020808252810161225681613c66565b60608101613cdc8286613228565b6134356020830185613228565b805161225681613099565b600060208284031215613d0957613d09600080fd5b6000612aa68484613ce9565b602a8152602081017f5361666545524332303a204552433230206f7065726174696f6e20646964206e81527f6f7420737563636565640000000000000000000000000000000000000000000060208201529050613abb565b6020808252810161225681613d15565b601d8152602081017f416464726573733a2063616c6c20746f206e6f6e2d636f6e747261637400000081529050613535565b6020808252810161225681613d7d565b6000613dc9825190565b613dd7818560208601613124565b9290920192915050565b6122568183613dbf56fea26469706673582212208c35a100d5d841fdaec16048984714f23fa1325e5066427f6ded132ba34b3ca164736f6c634300080d0033",
  "devdoc": {
    "details": "Differences from MasterChef:           - The pool id starts from 1 rather than 0.           - The degis reward is calculated by timestamp rather than block number.           - Support double reward together with another token. (one lp => mine two tokens) (related contract is DoubleRewarder.sol)         VeDEG will boost the farming speed by having a extra reward field.         Mining Reward = DEG Basic Reward + DEG Bonus Reward + Double Reward           - DEG Basic Reward = Shared by all users who staked lp tokens inside.           - DEG Bonus Reward = Shared by all users who staked lp tokens inside and have veDEG balance at the same time.           - Double Reward = Shared by all users who staked lp tokens inside.         For DEG bonus reward, every time the veDEG balance changes, the reward will be updated. (called from veDEG contract)         The basic reward depends on the liquidity inside the pool (optional)         Update with a piecewise function         liquidity amount:   |---------------|------------------|----------------                             0           threshold 1        threshold 2          reward speed:            speed1          speed2             speed3         The speed update will be updated one tx after the last tx that triggers the threshold         The reward update will be another one tx later         This piecewise-style reward can be used or not for each pool to decide         Ways to start pools: 1) set the basic reward to >0 2) set the piecewise and threshold to >0                 stop pools: 1) set the basic reward to 0 2) set the piecewise and threshold to 0",
    "kind": "dev",
    "methods": {
      "add(address,uint256,uint256,bool,address)": {
        "details": "Can only be called by the owner      The reward speed can be 0 and set later by setDegisReward function      The pool may have a double reward token",
        "params": {
          "_basicDegisPerSecond": "Basic reward speed(per second) for this new pool",
          "_bonusDegisPerSecond": "Bonus reward speed(per second) for this new pool",
          "_doubleRewardToken": "Double reward token address",
          "_lpToken": "LP token address",
          "_withUpdate": "Whether update all pools' status"
        }
      },
      "getPoolList()": {
        "returns": {
          "_0": "pooList Total pool list"
        }
      },
      "getUserBalance(uint256,address)": {
        "params": {
          "_poolId": "Id of the pool",
          "_user": "User address"
        },
        "returns": {
          "_0": "balance User's balance (lpToken)"
        }
      },
      "harvest(uint256,address)": {
        "params": {
          "_poolId": "Id of the farming pool",
          "_to": "Receiver of degis rewards"
        }
      },
      "massUpdatePools()": {
        "details": "Can be called by anyone      Only update those active pools"
      },
      "owner()": {
        "details": "Returns the address of the current owner."
      },
      "paused()": {
        "details": "Returns true if the contract is paused, and false otherwise."
      },
      "pendingDegis(uint256,address)": {
        "params": {
          "_poolId": "PoolId of this farming pool",
          "_user": "User address"
        },
        "returns": {
          "_0": "pendingDegisAmount Amount of pending degis"
        }
      },
      "renounceOwnership()": {
        "details": "Leaves the contract without owner. It will not be possible to call `onlyOwner` functions anymore. Can only be called by the current owner. NOTE: Renouncing ownership will leave the contract without an owner, thereby removing any functionality that is only available to the owner."
      },
      "setDegisReward(uint256,uint256,uint256,bool)": {
        "params": {
          "_basicDegisPerSecond": "New basic reward amount per second",
          "_bonusDegisPerSecond": "New bonus reward amount per second",
          "_poolId": "Id of the farming pool",
          "_withUpdate": "Whether update all pools"
        }
      },
      "setPiecewise(uint256,uint256[],uint256[])": {
        "params": {
          "_poolId": "Id of the pool",
          "_reward": "Piecewise reward",
          "_threshold": "Piecewise threshold"
        }
      },
      "setStartTimestamp(uint256)": {
        "params": {
          "_startTimestamp": "New start block timestamp"
        }
      },
      "stake(uint256,uint256)": {
        "details": "Can only stake to the pools that are still farming",
        "params": {
          "_amount": "Staking amount",
          "_poolId": "Id of the farming pool"
        }
      },
      "transferOwnership(address)": {
        "details": "Transfers ownership of the contract to a new account (`newOwner`). Can only be called by the current owner."
      },
      "updateBonus(address,uint256)": {
        "details": "When veDEG has balance change      Only called by veDEG contract",
        "params": {
          "_newVeDEGBalance": "New veDEG balance",
          "_user": "User address"
        }
      },
      "updatePool(uint256)": {
        "params": {
          "_poolId": "Id of the farming pool"
        }
      },
      "withdraw(uint256,uint256)": {
        "params": {
          "_amount": "Amount of lp tokens to withdraw",
          "_poolId": "Id of the farming pool"
        }
      }
    },
    "title": "Farming Pool",
    "version": 1
  },
  "userdoc": {
    "kind": "user",
    "methods": {
      "add(address,uint256,uint256,bool,address)": {
        "notice": "Add a new lp into the pool"
      },
      "getPoolList()": {
        "notice": "Get the total pool list"
      },
      "getUserBalance(uint256,address)": {
        "notice": "Get a user's balance"
      },
      "harvest(uint256,address)": {
        "notice": "Harvest the degis reward and can be sent to another address"
      },
      "massUpdatePools()": {
        "notice": "Update all farming pools (except for those stopped ones)"
      },
      "pendingDegis(uint256,address)": {
        "notice": "Check the amount of pending degis reward"
      },
      "setDegisReward(uint256,uint256,uint256,bool)": {
        "notice": "Update the degisPerSecond for a specific pool (set to 0 to stop farming)"
      },
      "setDoubleRewarderContract(address)": {
        "notice": "Set double rewarder contract"
      },
      "setPiecewise(uint256,uint256[],uint256[])": {
        "notice": "Set piecewise reward and threshold"
      },
      "setStartTimestamp(uint256)": {
        "notice": "Set the start block timestamp"
      },
      "stake(uint256,uint256)": {
        "notice": "Stake LP token into the farming pool"
      },
      "updateBonus(address,uint256)": {
        "notice": "Update a user's bonus"
      },
      "updatePool(uint256)": {
        "notice": "Update the pool's reward status"
      },
      "withdraw(uint256,uint256)": {
        "notice": "Withdraw lptoken from the pool\\"
      }
    },
    "notice": "This contract is for LPToken mining on Degis.",
    "version": 1
  },
  "storageLayout": {
    "storage": [
      {
        "astId": 323,
        "contract": "contracts/farming/FarmingPoolUpgradeable.sol:FarmingPoolUpgradeable",
        "label": "_initialized",
        "offset": 0,
        "slot": "0",
        "type": "t_bool"
      },
      {
        "astId": 326,
        "contract": "contracts/farming/FarmingPoolUpgradeable.sol:FarmingPoolUpgradeable",
        "label": "_initializing",
        "offset": 1,
        "slot": "0",
        "type": "t_bool"
      },
      {
        "astId": 1560,
        "contract": "contracts/farming/FarmingPoolUpgradeable.sol:FarmingPoolUpgradeable",
        "label": "__gap",
        "offset": 0,
        "slot": "1",
        "type": "t_array(t_uint256)50_storage"
      },
      {
        "astId": 203,
        "contract": "contracts/farming/FarmingPoolUpgradeable.sol:FarmingPoolUpgradeable",
        "label": "_owner",
        "offset": 0,
        "slot": "51",
        "type": "t_address"
      },
      {
        "astId": 315,
        "contract": "contracts/farming/FarmingPoolUpgradeable.sol:FarmingPoolUpgradeable",
        "label": "__gap",
        "offset": 0,
        "slot": "52",
        "type": "t_array(t_uint256)49_storage"
      },
      {
        "astId": 515,
        "contract": "contracts/farming/FarmingPoolUpgradeable.sol:FarmingPoolUpgradeable",
        "label": "_status",
        "offset": 0,
        "slot": "101",
        "type": "t_uint256"
      },
      {
        "astId": 559,
        "contract": "contracts/farming/FarmingPoolUpgradeable.sol:FarmingPoolUpgradeable",
        "label": "__gap",
        "offset": 0,
        "slot": "102",
        "type": "t_array(t_uint256)49_storage"
      },
      {
        "astId": 411,
        "contract": "contracts/farming/FarmingPoolUpgradeable.sol:FarmingPoolUpgradeable",
        "label": "_paused",
        "offset": 0,
        "slot": "151",
        "type": "t_bool"
      },
      {
        "astId": 500,
        "contract": "contracts/farming/FarmingPoolUpgradeable.sol:FarmingPoolUpgradeable",
        "label": "__gap",
        "offset": 0,
        "slot": "152",
        "type": "t_array(t_uint256)49_storage"
      },
      {
        "astId": 7496,
        "contract": "contracts/farming/FarmingPoolUpgradeable.sol:FarmingPoolUpgradeable",
        "label": "DEG",
        "offset": 0,
        "slot": "201",
        "type": "t_contract(IDegisToken)27502"
      },
      {
        "astId": 7499,
        "contract": "contracts/farming/FarmingPoolUpgradeable.sol:FarmingPoolUpgradeable",
        "label": "veDEG",
        "offset": 0,
        "slot": "202",
        "type": "t_contract(IVeDEG)12899"
      },
      {
        "astId": 7501,
        "contract": "contracts/farming/FarmingPoolUpgradeable.sol:FarmingPoolUpgradeable",
        "label": "nextPoolId",
        "offset": 0,
        "slot": "203",
        "type": "t_uint256"
      },
      {
        "astId": 7503,
        "contract": "contracts/farming/FarmingPoolUpgradeable.sol:FarmingPoolUpgradeable",
        "label": "startTimestamp",
        "offset": 0,
        "slot": "204",
        "type": "t_uint256"
      },
      {
        "astId": 7522,
        "contract": "contracts/farming/FarmingPoolUpgradeable.sol:FarmingPoolUpgradeable",
        "label": "poolList",
        "offset": 0,
        "slot": "205",
        "type": "t_array(t_struct(PoolInfo)7518_storage)dyn_storage"
      },
      {
        "astId": 7526,
        "contract": "contracts/farming/FarmingPoolUpgradeable.sol:FarmingPoolUpgradeable",
        "label": "poolMapping",
        "offset": 0,
        "slot": "206",
        "type": "t_mapping(t_address,t_uint256)"
      },
      {
        "astId": 7530,
        "contract": "contracts/farming/FarmingPoolUpgradeable.sol:FarmingPoolUpgradeable",
        "label": "isFarming",
        "offset": 0,
        "slot": "207",
        "type": "t_mapping(t_uint256,t_bool)"
      },
      {
        "astId": 7544,
        "contract": "contracts/farming/FarmingPoolUpgradeable.sol:FarmingPoolUpgradeable",
        "label": "userInfo",
        "offset": 0,
        "slot": "208",
        "type": "t_mapping(t_uint256,t_mapping(t_address,t_struct(UserInfo)7537_storage))"
      },
      {
        "astId": 7550,
        "contract": "contracts/farming/FarmingPoolUpgradeable.sol:FarmingPoolUpgradeable",
        "label": "extraClaimable",
        "offset": 0,
        "slot": "209",
        "type": "t_mapping(t_uint256,t_mapping(t_address,t_uint256))"
      },
      {
        "astId": 7555,
        "contract": "contracts/farming/FarmingPoolUpgradeable.sol:FarmingPoolUpgradeable",
        "label": "thresholdBasic",
        "offset": 0,
        "slot": "210",
        "type": "t_mapping(t_uint256,t_array(t_uint256)dyn_storage)"
      },
      {
        "astId": 7560,
        "contract": "contracts/farming/FarmingPoolUpgradeable.sol:FarmingPoolUpgradeable",
        "label": "piecewiseBasic",
        "offset": 0,
        "slot": "211",
        "type": "t_mapping(t_uint256,t_array(t_uint256)dyn_storage)"
      },
      {
        "astId": 7564,
        "contract": "contracts/farming/FarmingPoolUpgradeable.sol:FarmingPoolUpgradeable",
        "label": "poolRewardLevel",
        "offset": 0,
        "slot": "212",
        "type": "t_mapping(t_uint256,t_uint256)"
      },
      {
        "astId": 7567,
        "contract": "contracts/farming/FarmingPoolUpgradeable.sol:FarmingPoolUpgradeable",
        "label": "doubleRewarderContract",
        "offset": 0,
        "slot": "213",
        "type": "t_contract(IDoubleRewarder)10410"
      },
      {
        "astId": 7571,
        "contract": "contracts/farming/FarmingPoolUpgradeable.sol:FarmingPoolUpgradeable",
        "label": "doubleRewarder",
        "offset": 0,
        "slot": "214",
        "type": "t_mapping(t_uint256,t_address)"
      }
    ],
    "types": {
      "t_address": {
        "encoding": "inplace",
        "label": "address",
        "numberOfBytes": "20"
      },
      "t_array(t_struct(PoolInfo)7518_storage)dyn_storage": {
        "base": "t_struct(PoolInfo)7518_storage",
        "encoding": "dynamic_array",
        "label": "struct FarmingPoolUpgradeable.PoolInfo[]",
        "numberOfBytes": "32"
      },
      "t_array(t_uint256)49_storage": {
        "base": "t_uint256",
        "encoding": "inplace",
        "label": "uint256[49]",
        "numberOfBytes": "1568"
      },
      "t_array(t_uint256)50_storage": {
        "base": "t_uint256",
        "encoding": "inplace",
        "label": "uint256[50]",
        "numberOfBytes": "1600"
      },
      "t_array(t_uint256)dyn_storage": {
        "base": "t_uint256",
        "encoding": "dynamic_array",
        "label": "uint256[]",
        "numberOfBytes": "32"
      },
      "t_bool": {
        "encoding": "inplace",
        "label": "bool",
        "numberOfBytes": "1"
      },
      "t_contract(IDegisToken)27502": {
        "encoding": "inplace",
        "label": "contract IDegisToken",
        "numberOfBytes": "20"
      },
      "t_contract(IDoubleRewarder)10410": {
        "encoding": "inplace",
        "label": "contract IDoubleRewarder",
        "numberOfBytes": "20"
      },
      "t_contract(IVeDEG)12899": {
        "encoding": "inplace",
        "label": "contract IVeDEG",
        "numberOfBytes": "20"
      },
      "t_mapping(t_address,t_struct(UserInfo)7537_storage)": {
        "encoding": "mapping",
        "key": "t_address",
        "label": "mapping(address => struct FarmingPoolUpgradeable.UserInfo)",
        "numberOfBytes": "32",
        "value": "t_struct(UserInfo)7537_storage"
      },
      "t_mapping(t_address,t_uint256)": {
        "encoding": "mapping",
        "key": "t_address",
        "label": "mapping(address => uint256)",
        "numberOfBytes": "32",
        "value": "t_uint256"
      },
      "t_mapping(t_uint256,t_address)": {
        "encoding": "mapping",
        "key": "t_uint256",
        "label": "mapping(uint256 => address)",
        "numberOfBytes": "32",
        "value": "t_address"
      },
      "t_mapping(t_uint256,t_array(t_uint256)dyn_storage)": {
        "encoding": "mapping",
        "key": "t_uint256",
        "label": "mapping(uint256 => uint256[])",
        "numberOfBytes": "32",
        "value": "t_array(t_uint256)dyn_storage"
      },
      "t_mapping(t_uint256,t_bool)": {
        "encoding": "mapping",
        "key": "t_uint256",
        "label": "mapping(uint256 => bool)",
        "numberOfBytes": "32",
        "value": "t_bool"
      },
      "t_mapping(t_uint256,t_mapping(t_address,t_struct(UserInfo)7537_storage))": {
        "encoding": "mapping",
        "key": "t_uint256",
        "label": "mapping(uint256 => mapping(address => struct FarmingPoolUpgradeable.UserInfo))",
        "numberOfBytes": "32",
        "value": "t_mapping(t_address,t_struct(UserInfo)7537_storage)"
      },
      "t_mapping(t_uint256,t_mapping(t_address,t_uint256))": {
        "encoding": "mapping",
        "key": "t_uint256",
        "label": "mapping(uint256 => mapping(address => uint256))",
        "numberOfBytes": "32",
        "value": "t_mapping(t_address,t_uint256)"
      },
      "t_mapping(t_uint256,t_uint256)": {
        "encoding": "mapping",
        "key": "t_uint256",
        "label": "mapping(uint256 => uint256)",
        "numberOfBytes": "32",
        "value": "t_uint256"
      },
      "t_struct(PoolInfo)7518_storage": {
        "encoding": "inplace",
        "label": "struct FarmingPoolUpgradeable.PoolInfo",
        "members": [
          {
            "astId": 7505,
            "contract": "contracts/farming/FarmingPoolUpgradeable.sol:FarmingPoolUpgradeable",
            "label": "lpToken",
            "offset": 0,
            "slot": "0",
            "type": "t_address"
          },
          {
            "astId": 7507,
            "contract": "contracts/farming/FarmingPoolUpgradeable.sol:FarmingPoolUpgradeable",
            "label": "basicDegisPerSecond",
            "offset": 0,
            "slot": "1",
            "type": "t_uint256"
          },
          {
            "astId": 7509,
            "contract": "contracts/farming/FarmingPoolUpgradeable.sol:FarmingPoolUpgradeable",
            "label": "bonusDegisPerSecond",
            "offset": 0,
            "slot": "2",
            "type": "t_uint256"
          },
          {
            "astId": 7511,
            "contract": "contracts/farming/FarmingPoolUpgradeable.sol:FarmingPoolUpgradeable",
            "label": "lastRewardTimestamp",
            "offset": 0,
            "slot": "3",
            "type": "t_uint256"
          },
          {
            "astId": 7513,
            "contract": "contracts/farming/FarmingPoolUpgradeable.sol:FarmingPoolUpgradeable",
            "label": "accDegisPerShare",
            "offset": 0,
            "slot": "4",
            "type": "t_uint256"
          },
          {
            "astId": 7515,
            "contract": "contracts/farming/FarmingPoolUpgradeable.sol:FarmingPoolUpgradeable",
            "label": "accDegisPerBonusShare",
            "offset": 0,
            "slot": "5",
            "type": "t_uint256"
          },
          {
            "astId": 7517,
            "contract": "contracts/farming/FarmingPoolUpgradeable.sol:FarmingPoolUpgradeable",
            "label": "totalBonus",
            "offset": 0,
            "slot": "6",
            "type": "t_uint256"
          }
        ],
        "numberOfBytes": "224"
      },
      "t_struct(UserInfo)7537_storage": {
        "encoding": "inplace",
        "label": "struct FarmingPoolUpgradeable.UserInfo",
        "members": [
          {
            "astId": 7532,
            "contract": "contracts/farming/FarmingPoolUpgradeable.sol:FarmingPoolUpgradeable",
            "label": "rewardDebt",
            "offset": 0,
            "slot": "0",
            "type": "t_uint256"
          },
          {
            "astId": 7534,
            "contract": "contracts/farming/FarmingPoolUpgradeable.sol:FarmingPoolUpgradeable",
            "label": "balance",
            "offset": 0,
            "slot": "1",
            "type": "t_uint256"
          },
          {
            "astId": 7536,
            "contract": "contracts/farming/FarmingPoolUpgradeable.sol:FarmingPoolUpgradeable",
            "label": "bonus",
            "offset": 0,
            "slot": "2",
            "type": "t_uint256"
          }
        ],
        "numberOfBytes": "96"
      },
      "t_uint256": {
        "encoding": "inplace",
        "label": "uint256",
        "numberOfBytes": "32"
      }
    }
  }
}