{
  "address": "0x22b167Fc21c3C85992Fa7790B6aF24b518CeB189",
  "abi": [
    {
      "anonymous": false,
      "inputs": [
        {
          "indexed": false,
          "internalType": "address",
          "name": "caller",
          "type": "address"
        },
        {
          "indexed": false,
          "internalType": "address",
          "name": "policyTokenAddress",
          "type": "address"
        },
        {
          "indexed": false,
          "internalType": "address",
          "name": "stablecoin",
          "type": "address"
        },
        {
          "indexed": false,
          "internalType": "uint256",
          "name": "policyTokenAmount",
          "type": "uint256"
        },
        {
          "indexed": false,
          "internalType": "uint256",
          "name": "stablecoinAmount",
          "type": "uint256"
        },
        {
          "indexed": false,
          "internalType": "uint256",
          "name": "stablecoinBackAmount",
          "type": "uint256"
        }
      ],
      "name": "ConvertIncome",
      "type": "event"
    },
    {
      "anonymous": false,
      "inputs": [
        {
          "indexed": false,
          "internalType": "address",
          "name": "token",
          "type": "address"
        },
        {
          "indexed": false,
          "internalType": "uint256",
          "name": "amount",
          "type": "uint256"
        }
      ],
      "name": "EmergencyWithdraw",
      "type": "event"
    },
    {
      "anonymous": false,
      "inputs": [
        {
          "indexed": false,
          "internalType": "address",
          "name": "policyTokenAddress",
          "type": "address"
        },
        {
          "indexed": false,
          "internalType": "address",
          "name": "stablecoin",
          "type": "address"
        },
        {
          "indexed": false,
          "internalType": "uint256",
          "name": "amountOut",
          "type": "uint256"
        }
      ],
      "name": "IncomeToUSD",
      "type": "event"
    },
    {
      "anonymous": false,
      "inputs": [
        {
          "indexed": true,
          "internalType": "address",
          "name": "previousOwner",
          "type": "address"
        },
        {
          "indexed": true,
          "internalType": "address",
          "name": "newOwner",
          "type": "address"
        }
      ],
      "name": "OwnershipTransferred",
      "type": "event"
    },
    {
      "inputs": [],
      "name": "UINT256_MAX",
      "outputs": [
        {
          "internalType": "uint256",
          "name": "",
          "type": "uint256"
        }
      ],
      "stateMutability": "view",
      "type": "function"
    },
    {
      "inputs": [
        {
          "internalType": "address",
          "name": "_policyToken",
          "type": "address"
        },
        {
          "internalType": "address",
          "name": "_stablecoin",
          "type": "address"
        }
      ],
      "name": "convertIncome",
      "outputs": [],
      "stateMutability": "nonpayable",
      "type": "function"
    },
    {
      "inputs": [
        {
          "internalType": "address",
          "name": "_token",
          "type": "address"
        },
        {
          "internalType": "uint256",
          "name": "_amount",
          "type": "uint256"
        }
      ],
      "name": "emergencyWithdraw",
      "outputs": [],
      "stateMutability": "nonpayable",
      "type": "function"
    },
    {
      "inputs": [],
      "name": "factory",
      "outputs": [
        {
          "internalType": "contract INaughtyFactory",
          "name": "",
          "type": "address"
        }
      ],
      "stateMutability": "view",
      "type": "function"
    },
    {
      "inputs": [],
      "name": "incomeSharingVault",
      "outputs": [
        {
          "internalType": "address",
          "name": "",
          "type": "address"
        }
      ],
      "stateMutability": "view",
      "type": "function"
    },
    {
      "inputs": [
        {
          "internalType": "address",
          "name": "_router",
          "type": "address"
        },
        {
          "internalType": "address",
          "name": "_factory",
          "type": "address"
        },
        {
          "internalType": "address",
          "name": "_vault",
          "type": "address"
        }
      ],
      "name": "initialize",
      "outputs": [],
      "stateMutability": "nonpayable",
      "type": "function"
    },
    {
      "inputs": [],
      "name": "owner",
      "outputs": [
        {
          "internalType": "address",
          "name": "",
          "type": "address"
        }
      ],
      "stateMutability": "view",
      "type": "function"
    },
    {
      "inputs": [],
      "name": "renounceOwnership",
      "outputs": [],
      "stateMutability": "nonpayable",
      "type": "function"
    },
    {
      "inputs": [],
      "name": "router",
      "outputs": [
        {
          "internalType": "contract INaughtyRouter",
          "name": "",
          "type": "address"
        }
      ],
      "stateMutability": "view",
      "type": "function"
    },
    {
      "inputs": [
        {
          "internalType": "address",
          "name": "newOwner",
          "type": "address"
        }
      ],
      "name": "transferOwnership",
      "outputs": [],
      "stateMutability": "nonpayable",
      "type": "function"
    }
  ],
  "transactionHash": "0xfed938e43a8ba9d860ee681030c55224b29367a848c5f0cf019de0feed5a1f8e",
  "args": [],
  "numDeployments": 1,
  "solcInputHash": "d5a9e9a25ef04c87381975d08a927a92",
  "bytecode": "0x608060405234801561001057600080fd5b50611310806100206000396000f3fe608060405234801561001057600080fd5b50600436106100be5760003560e01c8063c0c53b8b11610076578063d0949f991161005b578063d0949f9914610160578063f2fde38b14610176578063f887ea401461018957600080fd5b8063c0c53b8b1461012d578063c45a01551461014057600080fd5b8063715018a6116100a7578063715018a6146101015780638da5cb5b1461010957806395ccea671461011a57600080fd5b80633037b57f146100c357806344224a84146100d8575b600080fd5b6100d66100d1366004610b8e565b61019c565b005b6067546100eb906001600160a01b031681565b6040516100f89190610bda565b60405180910390f35b6100d6610434565b6033546001600160a01b03166100eb565b6100d6610128366004610bf9565b61046a565b6100d661013b366004610c2c565b6104e5565b606654610153906001600160a01b031681565b6040516100f89190610cbe565b61016960001981565b6040516100f89190610cd2565b6100d6610184366004610ce0565b6105ac565b606554610153906001600160a01b031681565b60665460405163b4f69a2f60e01b81526000916001600160a01b03169063b4f69a2f906101cf9086908690600401610d01565b602060405180830381865afa1580156101ec573d6000803e3d6000fd5b505050506040513d601f19601f820116820180604052508101906102109190610d27565b90506001600160a01b0381166102415760405162461bcd60e51b815260040161023890610d7c565b60405180910390fd5b6102c381826001600160a01b03166370a08231306040518263ffffffff1660e01b81526004016102719190610bda565b602060405180830381865afa15801561028e573d6000803e3d6000fd5b505050506040513d601f19601f820116820180604052508101906102b29190610d97565b6001600160a01b0384169190610608565b600080826001600160a01b03166389afcb44306040518263ffffffff1660e01b81526004016102f29190610bda565b60408051808303816000875af1158015610310573d6000803e3d6000fd5b505050506040513d601f19601f820116820180604052508101906103349190610db8565b91509150600061034686868530610690565b6067546040517f70a082310000000000000000000000000000000000000000000000000000000081529192506103eb916001600160a01b03918216918816906370a0823190610399903090600401610bda565b602060405180830381865afa1580156103b6573d6000803e3d6000fd5b505050506040513d601f19601f820116820180604052508101906103da9190610d97565b6001600160a01b0388169190610608565b7f164bcdcd46149eafbf59dd32071ba9e0571d25241bfa1f49e12a2ead6afb283a33878786868660405161042496959493929190610deb565b60405180910390a1505050505050565b6033546001600160a01b0316331461045e5760405162461bcd60e51b815260040161023890610e75565b6104686000610902565b565b6033546001600160a01b031633146104945760405162461bcd60e51b815260040161023890610e75565b6104a86001600160a01b0383163383610608565b7f5fafa99d0643513820be26656b45130b01e1c03062e1266bf36f88cbd3bd969582826040516104d9929190610e85565b60405180910390a15050565b600054610100900460ff166105005760005460ff1615610504565b303b155b6105205760405162461bcd60e51b815260040161023890610efa565b600054610100900460ff16158015610542576000805461ffff19166101011790555b61054a610961565b606580546001600160a01b0380871673ffffffffffffffffffffffffffffffffffffffff199283161790925560668054868416908316179055606780549285169290911691909117905580156105a6576000805461ff00191690555b50505050565b6033546001600160a01b031633146105d65760405162461bcd60e51b815260040161023890610e75565b6001600160a01b0381166105fc5760405162461bcd60e51b815260040161023890610f62565b61060581610902565b50565b61068b8363a9059cbb60e01b8484604051602401610627929190610e85565b60408051601f198184030181529190526020810180517bffffffffffffffffffffffffffffffffffffffffffffffffffffffff167fffffffff0000000000000000000000000000000000000000000000000000000090931692909217909152610990565b505050565b60665460405163b4f69a2f60e01b815260009182916001600160a01b039091169063b4f69a2f906106c79089908990600401610d01565b602060405180830381865afa1580156106e4573d6000803e3d6000fd5b505050506040513d601f19601f820116820180604052508101906107089190610d27565b90506001600160a01b0381166107305760405162461bcd60e51b815260040161023890610d7c565b600080826001600160a01b0316630902f1ac6040518163ffffffff1660e01b81526004016040805180830381865afa158015610770573d6000803e3d6000fd5b505050506040513d601f19601f820116820180604052508101906107949190610f93565b6dffffffffffffffffffffffffffff1691506dffffffffffffffffffffffffffff1691506000836001600160a01b031663978bbdb96040518163ffffffff1660e01b8152600401602060405180830381865afa1580156107f8573d6000803e3d6000fd5b505050506040513d601f19601f8201168201806040525081019061081c9190610d97565b9050600061082c826103e8610fdc565b6108369089610ff3565b905080610845856103e8610ff3565b61084f9190611012565b6108598483610ff3565b6108639190611040565b95506108796001600160a01b038b16868a610608565b6040517f6d9a640a0000000000000000000000000000000000000000000000000000000081526001600160a01b03861690636d9a640a906108c3906000908a908c90600401611069565b600060405180830381600087803b1580156108dd57600080fd5b505af11580156108f1573d6000803e3d6000fd5b505050505050505050949350505050565b603380546001600160a01b0383811673ffffffffffffffffffffffffffffffffffffffff19831681179093556040519116919082907f8be0079c531659141344cd1fd0a4f28419497f9722a3daafe3b4186f6b6457e090600090a35050565b600054610100900460ff166109885760405162461bcd60e51b8152600401610238906110e9565b610468610a1f565b60006109e5826040518060400160405280602081526020017f5361666545524332303a206c6f772d6c6576656c2063616c6c206661696c6564815250856001600160a01b0316610a4f9092919063ffffffff16565b80519091501561068b5780806020019051810190610a03919061110c565b61068b5760405162461bcd60e51b815260040161023890611185565b600054610100900460ff16610a465760405162461bcd60e51b8152600401610238906110e9565b61046833610902565b6060610a5e8484600085610a68565b90505b9392505050565b606082471015610a8a5760405162461bcd60e51b8152600401610238906111ed565b843b610aa85760405162461bcd60e51b81526004016102389061122f565b600080866001600160a01b03168587604051610ac4919061128d565b60006040518083038185875af1925050503d8060008114610b01576040519150601f19603f3d011682016040523d82523d6000602084013e610b06565b606091505b5091509150610b16828286610b23565b925050505b949350505050565b60608315610b32575081610a61565b825115610b425782518084602001fd5b8160405162461bcd60e51b815260040161023891906112c9565b60006001600160a01b0382165b92915050565b610b7881610b5c565b811461060557600080fd5b8035610b6981610b6f565b60008060408385031215610ba457610ba4600080fd5b6000610bb08585610b83565b9250506020610bc185828601610b83565b9150509250929050565b610bd481610b5c565b82525050565b60208101610b698284610bcb565b80610b78565b8035610b6981610be8565b60008060408385031215610c0f57610c0f600080fd5b6000610c1b8585610b83565b9250506020610bc185828601610bee565b600080600060608486031215610c4457610c44600080fd5b6000610c508686610b83565b9350506020610c6186828701610b83565b9250506040610c7286828701610b83565b9150509250925092565b6000610b696001600160a01b038316610c93565b90565b6001600160a01b031690565b6000610b6982610c7c565b6000610b6982610c9f565b610bd481610caa565b60208101610b698284610cb5565b80610bd4565b60208101610b698284610ccc565b600060208284031215610cf557610cf5600080fd5b6000610b1b8484610b83565b60408101610d0f8285610bcb565b610a616020830184610bcb565b8051610b6981610b6f565b600060208284031215610d3c57610d3c600080fd5b6000610b1b8484610d1c565b600e8152602081017f50616972206e6f74206578697374000000000000000000000000000000000000815290505b60200190565b60208082528101610b6981610d48565b8051610b6981610be8565b600060208284031215610dac57610dac600080fd5b6000610b1b8484610d8c565b60008060408385031215610dce57610dce600080fd5b6000610dda8585610d8c565b9250506020610bc185828601610d8c565b60c08101610df98289610bcb565b610e066020830188610bcb565b610e136040830187610bcb565b610e206060830186610ccc565b610e2d6080830185610ccc565b610e3a60a0830184610ccc565b979650505050505050565b60208082527f4f776e61626c653a2063616c6c6572206973206e6f7420746865206f776e65729101908152610d76565b60208082528101610b6981610e45565b60408101610e938285610bcb565b610a616020830184610ccc565b602e8152602081017f496e697469616c697a61626c653a20636f6e747261637420697320616c72656181527f647920696e697469616c697a6564000000000000000000000000000000000000602082015290505b60400190565b60208082528101610b6981610ea0565b60268152602081017f4f776e61626c653a206e6577206f776e657220697320746865207a65726f206181527f646472657373000000000000000000000000000000000000000000000000000060208201529050610ef4565b60208082528101610b6981610f0a565b6dffffffffffffffffffffffffffff8116610b78565b8051610b6981610f72565b60008060408385031215610fa957610fa9600080fd5b6000610fb58585610f88565b9250506020610bc185828601610f88565b634e487b7160e01b600052601160045260246000fd5b600082821015610fee57610fee610fc6565b500390565b600081600019048311821515161561100d5761100d610fc6565b500290565b6000821982111561102557611025610fc6565b500190565b634e487b7160e01b600052601260045260246000fd5b60008261104f5761104f61102a565b500490565b6000610b69610c908381565b610bd481611054565b606081016110778286611060565b6110846020830185610ccc565b610b1b6040830184610bcb565b602b8152602081017f496e697469616c697a61626c653a20636f6e7472616374206973206e6f74206981527f6e697469616c697a696e6700000000000000000000000000000000000000000060208201529050610ef4565b60208082528101610b6981611091565b801515610b78565b8051610b69816110f9565b60006020828403121561112157611121600080fd5b6000610b1b8484611101565b602a8152602081017f5361666545524332303a204552433230206f7065726174696f6e20646964206e81527f6f7420737563636565640000000000000000000000000000000000000000000060208201529050610ef4565b60208082528101610b698161112d565b60268152602081017f416464726573733a20696e73756666696369656e742062616c616e636520666f81527f722063616c6c000000000000000000000000000000000000000000000000000060208201529050610ef4565b60208082528101610b6981611195565b601d8152602081017f416464726573733a2063616c6c20746f206e6f6e2d636f6e747261637400000081529050610d76565b60208082528101610b69816111fd565b60005b8381101561125a578181015183820152602001611242565b838111156105a65750506000910152565b6000611275825190565b61128381856020860161123f565b9290920192915050565b610b69818361126b565b60006112a1825190565b8084526020840193506112b881856020860161123f565b601f01601f19169290920192915050565b60208082528101610a61818461129756fea2646970667358221220205d7191217e9dde32d4fec61e2b8b3347b7d7181040b6e85f86155a516f0f2464736f6c634300080d0033",
  "devdoc": {
    "details": "This contract will receive the transaction fee from swap pool      Then it will transfer",
    "kind": "dev",
    "methods": {
      "convertIncome(address,address)": {
        "params": {
          "_policyToken": "Address of the policy token",
          "_stablecoin": "Address of the stablecoi"
        }
      },
      "emergencyWithdraw(address,uint256)": {
        "params": {
          "_amount": "Amount of the token",
          "_token": "Address of the token"
        }
      },
      "initialize(address,address,address)": {
        "params": {
          "_factory": "Address of the naughty factory",
          "_router": "Address of the naughty router",
          "_vault": "Address of the income sharing vault"
        }
      },
      "owner()": {
        "details": "Returns the address of the current owner."
      },
      "renounceOwnership()": {
        "details": "Leaves the contract without owner. It will not be possible to call `onlyOwner` functions anymore. Can only be called by the current owner. NOTE: Renouncing ownership will leave the contract without an owner, thereby removing any functionality that is only available to the owner."
      },
      "transferOwnership(address)": {
        "details": "Transfers ownership of the contract to a new account (`newOwner`). Can only be called by the current owner."
      }
    },
    "title": "Degis Maker Contract",
    "version": 1
  },
  "userdoc": {
    "kind": "user",
    "methods": {
      "convertIncome(address,address)": {
        "notice": "Convert the income to stablecoin and transfer to the incomeSharingVault"
      },
      "emergencyWithdraw(address,uint256)": {
        "notice": "Emergency withdraw by the owner"
      },
      "initialize(address,address,address)": {
        "notice": "Initialize function"
      }
    },
    "version": 1
  },
  "storageLayout": {
    "storage": [
      {
        "astId": 323,
        "contract": "contracts/income/IncomeMaker.sol:IncomeMaker",
        "label": "_initialized",
        "offset": 0,
        "slot": "0",
        "type": "t_bool"
      },
      {
        "astId": 326,
        "contract": "contracts/income/IncomeMaker.sol:IncomeMaker",
        "label": "_initializing",
        "offset": 1,
        "slot": "0",
        "type": "t_bool"
      },
      {
        "astId": 1560,
        "contract": "contracts/income/IncomeMaker.sol:IncomeMaker",
        "label": "__gap",
        "offset": 0,
        "slot": "1",
        "type": "t_array(t_uint256)50_storage"
      },
      {
        "astId": 203,
        "contract": "contracts/income/IncomeMaker.sol:IncomeMaker",
        "label": "_owner",
        "offset": 0,
        "slot": "51",
        "type": "t_address"
      },
      {
        "astId": 315,
        "contract": "contracts/income/IncomeMaker.sol:IncomeMaker",
        "label": "__gap",
        "offset": 0,
        "slot": "52",
        "type": "t_array(t_uint256)49_storage"
      },
      {
        "astId": 12938,
        "contract": "contracts/income/IncomeMaker.sol:IncomeMaker",
        "label": "router",
        "offset": 0,
        "slot": "101",
        "type": "t_contract(INaughtyRouter)23584"
      },
      {
        "astId": 12941,
        "contract": "contracts/income/IncomeMaker.sol:IncomeMaker",
        "label": "factory",
        "offset": 0,
        "slot": "102",
        "type": "t_contract(INaughtyFactory)23416"
      },
      {
        "astId": 12943,
        "contract": "contracts/income/IncomeMaker.sol:IncomeMaker",
        "label": "incomeSharingVault",
        "offset": 0,
        "slot": "103",
        "type": "t_address"
      }
    ],
    "types": {
      "t_address": {
        "encoding": "inplace",
        "label": "address",
        "numberOfBytes": "20"
      },
      "t_array(t_uint256)49_storage": {
        "base": "t_uint256",
        "encoding": "inplace",
        "label": "uint256[49]",
        "numberOfBytes": "1568"
      },
      "t_array(t_uint256)50_storage": {
        "base": "t_uint256",
        "encoding": "inplace",
        "label": "uint256[50]",
        "numberOfBytes": "1600"
      },
      "t_bool": {
        "encoding": "inplace",
        "label": "bool",
        "numberOfBytes": "1"
      },
      "t_contract(INaughtyFactory)23416": {
        "encoding": "inplace",
        "label": "contract INaughtyFactory",
        "numberOfBytes": "20"
      },
      "t_contract(INaughtyRouter)23584": {
        "encoding": "inplace",
        "label": "contract INaughtyRouter",
        "numberOfBytes": "20"
      },
      "t_uint256": {
        "encoding": "inplace",
        "label": "uint256",
        "numberOfBytes": "32"
      }
    }
  }
}