{
  "address": "0x86c2e9b8e25a5577bbE222768e06192276e840a0",
  "abi": [
    {
      "inputs": [],
      "name": "DIS__NotEnoughVeDEG",
      "type": "error"
    },
    {
      "inputs": [],
      "name": "DIS__PoolNotAvailable",
      "type": "error"
    },
    {
      "inputs": [],
      "name": "DIS__WrongSpeed",
      "type": "error"
    },
    {
      "inputs": [],
      "name": "DIS__ZeroAmount",
      "type": "error"
    },
    {
      "anonymous": false,
      "inputs": [
        {
          "indexed": false,
          "internalType": "address",
          "name": "user",
          "type": "address"
        },
        {
          "indexed": false,
          "internalType": "uint256",
          "name": "poolId",
          "type": "uint256"
        },
        {
          "indexed": false,
          "internalType": "uint256",
          "name": "amount",
          "type": "uint256"
        }
      ],
      "name": "Deposit",
      "type": "event"
    },
    {
      "anonymous": false,
      "inputs": [
        {
          "indexed": false,
          "internalType": "address",
          "name": "user",
          "type": "address"
        },
        {
          "indexed": false,
          "internalType": "uint256",
          "name": "poolId",
          "type": "uint256"
        },
        {
          "indexed": false,
          "internalType": "uint256",
          "name": "amount",
          "type": "uint256"
        }
      ],
      "name": "Harvest",
      "type": "event"
    },
    {
      "anonymous": false,
      "inputs": [
        {
          "indexed": false,
          "internalType": "uint256",
          "name": "poolId",
          "type": "uint256"
        },
        {
          "indexed": false,
          "internalType": "address",
          "name": "rewardToken",
          "type": "address"
        }
      ],
      "name": "NewRewardPoolStart",
      "type": "event"
    },
    {
      "anonymous": false,
      "inputs": [
        {
          "indexed": true,
          "internalType": "address",
          "name": "previousOwner",
          "type": "address"
        },
        {
          "indexed": true,
          "internalType": "address",
          "name": "newOwner",
          "type": "address"
        }
      ],
      "name": "OwnershipTransferred",
      "type": "event"
    },
    {
      "anonymous": false,
      "inputs": [
        {
          "indexed": false,
          "internalType": "address",
          "name": "account",
          "type": "address"
        }
      ],
      "name": "Paused",
      "type": "event"
    },
    {
      "anonymous": false,
      "inputs": [
        {
          "indexed": false,
          "internalType": "uint256",
          "name": "poolId",
          "type": "uint256"
        },
        {
          "indexed": false,
          "internalType": "uint256",
          "name": "accRewardPerSecond",
          "type": "uint256"
        }
      ],
      "name": "PoolUpdated",
      "type": "event"
    },
    {
      "anonymous": false,
      "inputs": [
        {
          "indexed": false,
          "internalType": "uint256",
          "name": "poolId",
          "type": "uint256"
        },
        {
          "indexed": false,
          "internalType": "uint256",
          "name": "rewardPerSecond",
          "type": "uint256"
        }
      ],
      "name": "RewardSpeedSet",
      "type": "event"
    },
    {
      "anonymous": false,
      "inputs": [
        {
          "indexed": false,
          "internalType": "address",
          "name": "account",
          "type": "address"
        }
      ],
      "name": "Unpaused",
      "type": "event"
    },
    {
      "anonymous": false,
      "inputs": [
        {
          "indexed": false,
          "internalType": "address",
          "name": "user",
          "type": "address"
        },
        {
          "indexed": false,
          "internalType": "uint256",
          "name": "poolId",
          "type": "uint256"
        },
        {
          "indexed": false,
          "internalType": "uint256",
          "name": "amount",
          "type": "uint256"
        }
      ],
      "name": "Withdraw",
      "type": "event"
    },
    {
      "inputs": [],
      "name": "SCALE",
      "outputs": [
        {
          "internalType": "uint256",
          "name": "",
          "type": "uint256"
        }
      ],
      "stateMutability": "view",
      "type": "function"
    },
    {
      "inputs": [
        {
          "internalType": "uint256",
          "name": "_poolId",
          "type": "uint256"
        },
        {
          "internalType": "uint256",
          "name": "_amount",
          "type": "uint256"
        }
      ],
      "name": "deposit",
      "outputs": [],
      "stateMutability": "nonpayable",
      "type": "function"
    },
    {
      "inputs": [
        {
          "internalType": "uint256",
          "name": "_poolId",
          "type": "uint256"
        },
        {
          "internalType": "address",
          "name": "_to",
          "type": "address"
        }
      ],
      "name": "harvest",
      "outputs": [],
      "stateMutability": "nonpayable",
      "type": "function"
    },
    {
      "inputs": [
        {
          "internalType": "address",
          "name": "_veDEG",
          "type": "address"
        }
      ],
      "name": "initialize",
      "outputs": [],
      "stateMutability": "nonpayable",
      "type": "function"
    },
    {
      "inputs": [],
      "name": "nextPool",
      "outputs": [
        {
          "internalType": "uint256",
          "name": "",
          "type": "uint256"
        }
      ],
      "stateMutability": "view",
      "type": "function"
    },
    {
      "inputs": [],
      "name": "owner",
      "outputs": [
        {
          "internalType": "address",
          "name": "",
          "type": "address"
        }
      ],
      "stateMutability": "view",
      "type": "function"
    },
    {
      "inputs": [],
      "name": "paused",
      "outputs": [
        {
          "internalType": "bool",
          "name": "",
          "type": "bool"
        }
      ],
      "stateMutability": "view",
      "type": "function"
    },
    {
      "inputs": [
        {
          "internalType": "uint256",
          "name": "_poolId",
          "type": "uint256"
        },
        {
          "internalType": "address",
          "name": "_user",
          "type": "address"
        }
      ],
      "name": "pendingReward",
      "outputs": [
        {
          "internalType": "uint256",
          "name": "",
          "type": "uint256"
        }
      ],
      "stateMutability": "view",
      "type": "function"
    },
    {
      "inputs": [
        {
          "internalType": "uint256",
          "name": "",
          "type": "uint256"
        }
      ],
      "name": "pools",
      "outputs": [
        {
          "internalType": "bool",
          "name": "available",
          "type": "bool"
        },
        {
          "internalType": "address",
          "name": "rewardToken",
          "type": "address"
        },
        {
          "internalType": "uint256",
          "name": "totalAmount",
          "type": "uint256"
        },
        {
          "internalType": "uint256",
          "name": "accRewardPerShare",
          "type": "uint256"
        },
        {
          "internalType": "uint256",
          "name": "lastRewardBalance",
          "type": "uint256"
        }
      ],
      "stateMutability": "view",
      "type": "function"
    },
    {
      "inputs": [],
      "name": "renounceOwnership",
      "outputs": [],
      "stateMutability": "nonpayable",
      "type": "function"
    },
    {
      "inputs": [
        {
          "internalType": "address",
          "name": "_rewardToken",
          "type": "address"
        }
      ],
      "name": "startPool",
      "outputs": [],
      "stateMutability": "nonpayable",
      "type": "function"
    },
    {
      "inputs": [
        {
          "internalType": "address",
          "name": "newOwner",
          "type": "address"
        }
      ],
      "name": "transferOwnership",
      "outputs": [],
      "stateMutability": "nonpayable",
      "type": "function"
    },
    {
      "inputs": [
        {
          "internalType": "uint256",
          "name": "_poolId",
          "type": "uint256"
        }
      ],
      "name": "updateLastRewardBalance",
      "outputs": [],
      "stateMutability": "nonpayable",
      "type": "function"
    },
    {
      "inputs": [
        {
          "internalType": "uint256",
          "name": "_poolId",
          "type": "uint256"
        }
      ],
      "name": "updatePool",
      "outputs": [],
      "stateMutability": "nonpayable",
      "type": "function"
    },
    {
      "inputs": [
        {
          "internalType": "uint256",
          "name": "",
          "type": "uint256"
        },
        {
          "internalType": "address",
          "name": "",
          "type": "address"
        }
      ],
      "name": "users",
      "outputs": [
        {
          "internalType": "uint256",
          "name": "totalAmount",
          "type": "uint256"
        },
        {
          "internalType": "uint256",
          "name": "rewardDebt",
          "type": "uint256"
        }
      ],
      "stateMutability": "view",
      "type": "function"
    },
    {
      "inputs": [],
      "name": "veDEG",
      "outputs": [
        {
          "internalType": "contract IVeDEG",
          "name": "",
          "type": "address"
        }
      ],
      "stateMutability": "view",
      "type": "function"
    },
    {
      "inputs": [
        {
          "internalType": "uint256",
          "name": "_poolId",
          "type": "uint256"
        },
        {
          "internalType": "uint256",
          "name": "_amount",
          "type": "uint256"
        }
      ],
      "name": "withdraw",
      "outputs": [],
      "stateMutability": "nonpayable",
      "type": "function"
    },
    {
      "inputs": [
        {
          "internalType": "uint256",
          "name": "_poolId",
          "type": "uint256"
        }
      ],
      "name": "withdrawAll",
      "outputs": [],
      "stateMutability": "nonpayable",
      "type": "function"
    }
  ],
  "transactionHash": "0x3f64465a48926f71eaf0a3a14fadceb65ece55558160aa19007a4670acf26a28",
  "args": [],
  "numDeployments": 1,
  "solcInputHash": "d5a9e9a25ef04c87381975d08a927a92",
  "bytecode": "0x608060405234801561001057600080fd5b50611be1806100206000396000f3fe608060405234801561001057600080fd5b50600436106101365760003560e01c80638da5cb5b116100b2578063b9d02df411610081578063e2bbb15811610066578063e2bbb158146102e0578063eced5526146102f3578063f2fde38b1461030757600080fd5b8063b9d02df41461028d578063c4d66de8146102cd57600080fd5b80638da5cb5b146101f6578063958e2d311461020f57806398969e8214610222578063ac4afa381461023557600080fd5b80634f3e7ba6116101095780635c975abb116100ee5780635c975abb146101c85780635e3df141146101db578063715018a6146101ee57600080fd5b80634f3e7ba61461019557806351eb05a6146101b557600080fd5b806318fccc761461013b578063243d6585146101505780633c3b6a681461016f578063441a3e7014610182575b600080fd5b61014e6101493660046114d7565b61031a565b005b61015960cc5481565b604051610166919061151c565b60405180910390f35b61014e61017d36600461152a565b6104bc565b61014e61019036600461154b565b610580565b60c9546101a8906001600160a01b031681565b604051610166919061159d565b61014e6101c336600461152a565b6107da565b60655460ff1660405161016691906115b3565b61014e6101e93660046115c1565b61091e565b61014e6109fa565b6033546001600160a01b031660405161016691906115eb565b61014e61021d36600461152a565b610a30565b6101596102303660046114d7565b610a58565b61027c61024336600461152a565b60ca60205260009081526040902080546001820154600283015460039093015460ff8316936101009093046001600160a01b0316929085565b6040516101669594939291906115f9565b6102bf61029b3660046114d7565b60cb6020908152600092835260408084209091529082529020805460019091015482565b604051610166929190611645565b61014e6102db3660046115c1565b610c0a565b61014e6102ee36600461154b565b610cc2565b6101596c0c9f2c9cd04674edea4000000081565b61014e6103153660046115c1565b610ff2565b6002609754036103455760405162461bcd60e51b815260040161033c90611694565b60405180910390fd5b600260975560655460ff161561036d5760405162461bcd60e51b815260040161033c906116d6565b610376826107da565b600082815260ca60209081526040808320815160a081018352815460ff81161515825261010090046001600160a01b03168185015260018083015482850152600283015460608301908152600390930154608083015287865260cb855283862033875290945291842092830154905183549294926c0c9f2c9cd04674edea4000000091610402916116fc565b61040c9190611731565b6104169190611745565b90506c0c9f2c9cd04674edea400000008360600151836000015461043a91906116fc565b6104449190611731565b6001830155602083015160009061045c90868461104b565b905080846080018181516104709190611745565b9052506040517f71bab65ced2e5750775a0613be067df48ef06cf92a496ebf7663ae0660924954906104a79033908990859061175c565b60405180910390a15050600160975550505050565b6033546001600160a01b031633146104e65760405162461bcd60e51b815260040161033c906117b4565b600081815260ca60205260408082205490516370a0823160e01b81526101009091046001600160a01b0316906370a08231906105269030906004016115eb565b602060405180830381865afa158015610543573d6000803e3d6000fd5b505050506040513d601f19601f8201168201806040525081019061056791906117cf565b600092835260ca60205260409092206003019190915550565b6002609754036105a25760405162461bcd60e51b815260040161033c90611694565b600260975560008190036105c957604051631ec840e160e01b815260040160405180910390fd5b600082815260ca6020908152604080832060cb8352818420338552909252909120805483111561060c5760405163445d638d60e01b815260040160405180910390fd5b610615846107da565b600081600101546c0c9f2c9cd04674edea400000008360000154856002015461063e91906116fc565b6106489190611731565b6106529190611745565b83549091506000906106739061010090046001600160a01b0316338461104b565b9050808460030160008282546106899190611745565b90915550506040517f71bab65ced2e5750775a0613be067df48ef06cf92a496ebf7663ae0660924954906106c29033908990859061175c565b60405180910390a1848460010160008282546106de9190611745565b90915550508254859084906000906106f7908490611745565b9091555050600284015483546c0c9f2c9cd04674edea400000009161071b916116fc565b6107259190611731565b600184015560c9546040517f97b85b6a0000000000000000000000000000000000000000000000000000000081526001600160a01b03909116906397b85b6a9061077590339089906004016117f0565b600060405180830381600087803b15801561078f57600080fd5b505af11580156107a3573d6000803e3d6000fd5b505050507ff279e6a1f5e320cca91135676d9cb6e44ca8a08c0b88342bcdb1144f6511b5683387876040516104a79392919061175c565b600081815260ca60205260408082206001810154815492516370a0823160e01b81529193909290916101009091046001600160a01b0316906370a08231906108269030906004016115eb565b602060405180830381865afa158015610843573d6000803e3d6000fd5b505050506040513d601f19601f8201168201806040525081019061086791906117cf565b90508260030154811480610879575081155b156108845750505050565b60008360030154826108969190611745565b9050826108b06c0c9f2c9cd04674edea40000000836116fc565b6108ba9190611731565b8460020160008282546108cd91906117fe565b90915550506003840182905560028401546040517f7fa9647ec1cc14e3822b46d05a2b9d4e019bde8875c0088c46b6503d71bf17229161090f91889190611645565b60405180910390a15050505050565b6033546001600160a01b031633146109485760405162461bcd60e51b815260040161033c906117b4565b60cc805460009160ca9183918261095e83611816565b9091555081526020810191909152604001600020805460017fffffffffffffffffffffff0000000000000000000000000000000000000000009091166101006001600160a01b03861602178117825560cc549192507fc152e0e959f429700442d55214616143637a2b01940082fcaaba253ab85c17b9916109df9190611745565b836040516109ee92919061182f565b60405180910390a15050565b6033546001600160a01b03163314610a245760405162461bcd60e51b815260040161033c906117b4565b610a2e60006110fd565b565b600081815260cb60209081526040808320338452909152902054610a55908290610580565b50565b600082815260ca60209081526040808320815160a081018352815460ff81161515825261010090046001600160a01b03169381019390935260018101549183018290526002810154606084018190526003909101546080840152908303610ac457600092505050610c04565b600085815260cb602090815260408083206001600160a01b0380891685529083528184208251808401845281548152600190910154818501529286015191516370a0823160e01b81529293929116906370a0823190610b279030906004016115eb565b602060405180830381865afa158015610b44573d6000803e3d6000fd5b505050506040513d601f19601f82011682018060405250810190610b6891906117cf565b905083608001518114610bbe576000846080015182610b879190611745565b6040860151909150610ba66c0c9f2c9cd04674edea40000000836116fc565b610bb09190611731565b610bba90856117fe565b9350505b600082602001516c0c9f2c9cd04674edea40000000858560000151610be391906116fc565b610bed9190611731565b610bf79190611745565b9550610c04945050505050565b92915050565b600054610100900460ff16610c255760005460ff1615610c29565b303b155b610c455760405162461bcd60e51b815260040161033c906118a4565b600054610100900460ff16158015610c67576000805461ffff19166101011790555b610c6f61115c565b610c7761118b565b610c7f6111ba565b60c9805473ffffffffffffffffffffffffffffffffffffffff19166001600160a01b038416179055600160cc558015610cbe576000805461ff00191690555b5050565b600260975403610ce45760405162461bcd60e51b815260040161033c90611694565b6002609755600082815260ca602052604090205460ff16610d31576040517f4aa48a8100000000000000000000000000000000000000000000000000000000815260040160405180910390fd5b80600003610d5257604051631ec840e160e01b815260040160405180910390fd5b60c9546040516370a0823160e01b815282916001600160a01b0316906370a0823190610d829033906004016115eb565b602060405180830381865afa158015610d9f573d6000803e3d6000fd5b505050506040513d601f19601f82011682018060405250810190610dc391906117cf565b1015610de25760405163445d638d60e01b815260040160405180910390fd5b610deb826107da565b60c9546040517f78ad54c20000000000000000000000000000000000000000000000000000000081526001600160a01b03909116906378ad54c290610e3690339085906004016117f0565b600060405180830381600087803b158015610e5057600080fd5b505af1158015610e64573d6000803e3d6000fd5b505050600083815260ca6020908152604080832060cb835281842033855290925290912080549192509015610f4b57600081600101546c0c9f2c9cd04674edea4000000083600001548560020154610ebc91906116fc565b610ec69190611731565b610ed09190611745565b8354909150600090610ef19061010090046001600160a01b0316338461104b565b905080846003016000828254610f079190611745565b90915550506040517f71bab65ced2e5750775a0613be067df48ef06cf92a496ebf7663ae066092495490610f409033908990859061175c565b60405180910390a150505b82826001016000828254610f5f91906117fe565b9091555050805483908290600090610f789084906117fe565b9091555050805460028301546c0c9f2c9cd04674edea4000000091610f9c916116fc565b610fa69190611731565b60018201556040517f90890809c654f11d6e72a28fa60149770a0d11ec6c92319d6ceb2bb0a4ea1a1590610fdf9033908790879061175c565b60405180910390a1505060016097555050565b6033546001600160a01b0316331461101c5760405162461bcd60e51b815260040161033c906117b4565b6001600160a01b0381166110425760405162461bcd60e51b815260040161033c9061190c565b610a55816110fd565b600080846001600160a01b03166370a08231306040518263ffffffff1660e01b815260040161107a91906115eb565b602060405180830381865afa158015611097573d6000803e3d6000fd5b505050506040513d601f19601f820116820180604052508101906110bb91906117cf565b9050808311156110dd5760405162461bcd60e51b815260040161033c9061194e565b6110f16001600160a01b03861685856111e9565b829150505b9392505050565b603380546001600160a01b0383811673ffffffffffffffffffffffffffffffffffffffff19831681179093556040519116919082907f8be0079c531659141344cd1fd0a4f28419497f9722a3daafe3b4186f6b6457e090600090a35050565b600054610100900460ff166111835760405162461bcd60e51b815260040161033c906119b6565b610a2e611271565b600054610100900460ff166111b25760405162461bcd60e51b815260040161033c906119b6565b610a2e6112a1565b600054610100900460ff166111e15760405162461bcd60e51b815260040161033c906119b6565b610a2e6112d4565b61126c8363a9059cbb60e01b84846040516024016112089291906117f0565b60408051601f198184030181529190526020810180517bffffffffffffffffffffffffffffffffffffffffffffffffffffffff167fffffffff0000000000000000000000000000000000000000000000000000000090931692909217909152611302565b505050565b600054610100900460ff166112985760405162461bcd60e51b815260040161033c906119b6565b610a2e336110fd565b600054610100900460ff166112c85760405162461bcd60e51b815260040161033c906119b6565b6065805460ff19169055565b600054610100900460ff166112fb5760405162461bcd60e51b815260040161033c906119b6565b6001609755565b6000611357826040518060400160405280602081526020017f5361666545524332303a206c6f772d6c6576656c2063616c6c206661696c6564815250856001600160a01b03166113919092919063ffffffff16565b80519091501561126c578080602001905181019061137591906119d9565b61126c5760405162461bcd60e51b815260040161033c90611a52565b60606113a084846000856113a8565b949350505050565b6060824710156113ca5760405162461bcd60e51b815260040161033c90611aba565b843b6113e85760405162461bcd60e51b815260040161033c90611afc565b600080866001600160a01b031685876040516114049190611b5e565b60006040518083038185875af1925050503d8060008114611441576040519150601f19603f3d011682016040523d82523d6000602084013e611446565b606091505b5091509150611456828286611461565b979650505050505050565b606083156114705750816110f6565b8251156114805782518084602001fd5b8160405162461bcd60e51b815260040161033c9190611b9a565b805b8114610a5557600080fd5b8035610c048161149a565b60006001600160a01b038216610c04565b61149c816114b2565b8035610c04816114c3565b600080604083850312156114ed576114ed600080fd5b60006114f985856114a7565b925050602061150a858286016114cc565b9150509250929050565b805b82525050565b60208101610c048284611514565b60006020828403121561153f5761153f600080fd5b60006113a084846114a7565b6000806040838503121561156157611561600080fd5b600061156d85856114a7565b925050602061150a858286016114a7565b6000610c04826114b2565b6000610c048261157e565b61151681611589565b60208101610c048284611594565b801515611516565b60208101610c0482846115ab565b6000602082840312156115d6576115d6600080fd5b60006113a084846114cc565b611516816114b2565b60208101610c0482846115e2565b60a0810161160782886115ab565b61161460208301876115e2565b6116216040830186611514565b61162e6060830185611514565b61163b6080830184611514565b9695505050505050565b604081016116538285611514565b6110f66020830184611514565b601f8152602081017f5265656e7472616e637947756172643a207265656e7472616e742063616c6c00815290505b60200190565b60208082528101610c0481611660565b60108152602081017f5061757361626c653a20706175736564000000000000000000000000000000008152905061168e565b60208082528101610c04816116a4565b634e487b7160e01b600052601160045260246000fd5b6000816000190483118215151615611716576117166116e6565b500290565b634e487b7160e01b600052601260045260246000fd5b6000826117405761174061171b565b500490565b600082821015611757576117576116e6565b500390565b6060810161176a82866115e2565b6117776020830185611514565b6113a06040830184611514565b60208082527f4f776e61626c653a2063616c6c6572206973206e6f7420746865206f776e6572910190815261168e565b60208082528101610c0481611784565b8051610c048161149a565b6000602082840312156117e4576117e4600080fd5b60006113a084846117c4565b6040810161165382856115e2565b60008219821115611811576118116116e6565b500190565b600060018201611828576118286116e6565b5060010190565b6040810161183d8285611514565b6110f660208301846115e2565b602e8152602081017f496e697469616c697a61626c653a20636f6e747261637420697320616c72656181527f647920696e697469616c697a6564000000000000000000000000000000000000602082015290505b60400190565b60208082528101610c048161184a565b60268152602081017f4f776e61626c653a206e6577206f776e657220697320746865207a65726f206181527f64647265737300000000000000000000000000000000000000000000000000006020820152905061189e565b60208082528101610c04816118b4565b601f8152602081017f496e73756666696369656e742062616c616e636520666f7220726577617264008152905061168e565b60208082528101610c048161191c565b602b8152602081017f496e697469616c697a61626c653a20636f6e7472616374206973206e6f74206981527f6e697469616c697a696e670000000000000000000000000000000000000000006020820152905061189e565b60208082528101610c048161195e565b80151561149c565b8051610c04816119c6565b6000602082840312156119ee576119ee600080fd5b60006113a084846119ce565b602a8152602081017f5361666545524332303a204552433230206f7065726174696f6e20646964206e81527f6f742073756363656564000000000000000000000000000000000000000000006020820152905061189e565b60208082528101610c04816119fa565b60268152602081017f416464726573733a20696e73756666696369656e742062616c616e636520666f81527f722063616c6c00000000000000000000000000000000000000000000000000006020820152905061189e565b60208082528101610c0481611a62565b601d8152602081017f416464726573733a2063616c6c20746f206e6f6e2d636f6e74726163740000008152905061168e565b60208082528101610c0481611aca565b60005b83811015611b27578181015183820152602001611b0f565b83811115611b36576000848401525b50505050565b6000611b46825190565b611b54818560208601611b0c565b9290920192915050565b610c048183611b3c565b6000611b72825190565b808452602084019350611b89818560208601611b0c565b601f01601f19169290920192915050565b602080825281016110f68184611b6856fea26469706673582212209be08ebbec2fb0d6d2e154ebfca03c527415c9185d454c4cf554311bfb266db664736f6c634300080d0033",
  "devdoc": {
    "kind": "dev",
    "methods": {
      "deposit(uint256,uint256)": {
        "params": {
          "_amount": "Amount of tokens to deposit",
          "_poolId": "Pool Id"
        }
      },
      "harvest(uint256,address)": {
        "params": {
          "_poolId": "Pool Id",
          "_to": "Reward receiver address"
        }
      },
      "owner()": {
        "details": "Returns the address of the current owner."
      },
      "paused()": {
        "details": "Returns true if the contract is paused, and false otherwise."
      },
      "pendingReward(uint256,address)": {
        "params": {
          "_poolId": "Pool Id",
          "_user": "User address"
        },
        "returns": {
          "_0": "pendingReward Amount of pending reward"
        }
      },
      "renounceOwnership()": {
        "details": "Leaves the contract without owner. It will not be possible to call `onlyOwner` functions anymore. Can only be called by the current owner. NOTE: Renouncing ownership will leave the contract without an owner, thereby removing any functionality that is only available to the owner."
      },
      "startPool(address)": {
        "params": {
          "_rewardToken": "Reward token address"
        }
      },
      "transferOwnership(address)": {
        "details": "Transfers ownership of the contract to a new account (`newOwner`). Can only be called by the current owner."
      },
      "updatePool(uint256)": {
        "params": {
          "_poolId": "Pool id"
        }
      },
      "withdraw(uint256,uint256)": {
        "params": {
          "_amount": "Amount to withdraw",
          "_poolId": "Pool Id"
        }
      },
      "withdrawAll(uint256)": {
        "params": {
          "_poolId": "Pool Id"
        }
      }
    },
    "title": "Degis Income Sharing Contract",
    "version": 1
  },
  "userdoc": {
    "kind": "user",
    "methods": {
      "deposit(uint256,uint256)": {
        "notice": "Deposit         Will: update pool, lock veDEG, claim pending reward, update user info "
      },
      "harvest(uint256,address)": {
        "notice": "Harvest income reward "
      },
      "pendingReward(uint256,address)": {
        "notice": "Pending reward"
      },
      "startPool(address)": {
        "notice": "Start a new income sharing pool with its reward token"
      },
      "updatePool(uint256)": {
        "notice": "Update pool"
      },
      "withdraw(uint256,uint256)": {
        "notice": "Withdraw veDEG from a pool         Will: update pool, unlock veDEG, harvest reward, update user info "
      },
      "withdrawAll(uint256)": {
        "notice": "Withdraw all veDEG from a pool "
      }
    },
    "notice": "This contract will receive part of the income from Degis products         And the income will be shared by DEG holders (in the form of veDEG)         It is designed to be an ever-lasting reward         This contract will have several pools: one pool for each reward token (e.g. USDC, USDT, etc.)         To enter the income sharing vault, you need to lock some veDEG             - When your veDEG is locked, it can not be withdrawed         The reward is updated each time there is an interaction with the contract.         But the reward amount depends on the token already came to the contract.         It is not a fixed amount of reward per second.          The income will come from (to be updated)             - IncomeMaker: Collect swap fee in naughty price pool             - PolicyCore: Collect deposit/redeem fee in policy core",
    "version": 1
  },
  "storageLayout": {
    "storage": [
      {
        "astId": 323,
        "contract": "contracts/income/IncomeSharingVaultV2.sol:IncomeSharingVaultV2",
        "label": "_initialized",
        "offset": 0,
        "slot": "0",
        "type": "t_bool"
      },
      {
        "astId": 326,
        "contract": "contracts/income/IncomeSharingVaultV2.sol:IncomeSharingVaultV2",
        "label": "_initializing",
        "offset": 1,
        "slot": "0",
        "type": "t_bool"
      },
      {
        "astId": 1560,
        "contract": "contracts/income/IncomeSharingVaultV2.sol:IncomeSharingVaultV2",
        "label": "__gap",
        "offset": 0,
        "slot": "1",
        "type": "t_array(t_uint256)50_storage"
      },
      {
        "astId": 203,
        "contract": "contracts/income/IncomeSharingVaultV2.sol:IncomeSharingVaultV2",
        "label": "_owner",
        "offset": 0,
        "slot": "51",
        "type": "t_address"
      },
      {
        "astId": 315,
        "contract": "contracts/income/IncomeSharingVaultV2.sol:IncomeSharingVaultV2",
        "label": "__gap",
        "offset": 0,
        "slot": "52",
        "type": "t_array(t_uint256)49_storage"
      },
      {
        "astId": 411,
        "contract": "contracts/income/IncomeSharingVaultV2.sol:IncomeSharingVaultV2",
        "label": "_paused",
        "offset": 0,
        "slot": "101",
        "type": "t_bool"
      },
      {
        "astId": 500,
        "contract": "contracts/income/IncomeSharingVaultV2.sol:IncomeSharingVaultV2",
        "label": "__gap",
        "offset": 0,
        "slot": "102",
        "type": "t_array(t_uint256)49_storage"
      },
      {
        "astId": 515,
        "contract": "contracts/income/IncomeSharingVaultV2.sol:IncomeSharingVaultV2",
        "label": "_status",
        "offset": 0,
        "slot": "151",
        "type": "t_uint256"
      },
      {
        "astId": 559,
        "contract": "contracts/income/IncomeSharingVaultV2.sol:IncomeSharingVaultV2",
        "label": "__gap",
        "offset": 0,
        "slot": "152",
        "type": "t_array(t_uint256)49_storage"
      },
      {
        "astId": 13258,
        "contract": "contracts/income/IncomeSharingVaultV2.sol:IncomeSharingVaultV2",
        "label": "veDEG",
        "offset": 0,
        "slot": "201",
        "type": "t_contract(IVeDEG)12898"
      },
      {
        "astId": 13274,
        "contract": "contracts/income/IncomeSharingVaultV2.sol:IncomeSharingVaultV2",
        "label": "pools",
        "offset": 0,
        "slot": "202",
        "type": "t_mapping(t_uint256,t_struct(PoolInfo)13269_storage)"
      },
      {
        "astId": 13286,
        "contract": "contracts/income/IncomeSharingVaultV2.sol:IncomeSharingVaultV2",
        "label": "users",
        "offset": 0,
        "slot": "203",
        "type": "t_mapping(t_uint256,t_mapping(t_address,t_struct(UserInfo)13279_storage))"
      },
      {
        "astId": 13288,
        "contract": "contracts/income/IncomeSharingVaultV2.sol:IncomeSharingVaultV2",
        "label": "nextPool",
        "offset": 0,
        "slot": "204",
        "type": "t_uint256"
      }
    ],
    "types": {
      "t_address": {
        "encoding": "inplace",
        "label": "address",
        "numberOfBytes": "20"
      },
      "t_array(t_uint256)49_storage": {
        "base": "t_uint256",
        "encoding": "inplace",
        "label": "uint256[49]",
        "numberOfBytes": "1568"
      },
      "t_array(t_uint256)50_storage": {
        "base": "t_uint256",
        "encoding": "inplace",
        "label": "uint256[50]",
        "numberOfBytes": "1600"
      },
      "t_bool": {
        "encoding": "inplace",
        "label": "bool",
        "numberOfBytes": "1"
      },
      "t_contract(IVeDEG)12898": {
        "encoding": "inplace",
        "label": "contract IVeDEG",
        "numberOfBytes": "20"
      },
      "t_mapping(t_address,t_struct(UserInfo)13279_storage)": {
        "encoding": "mapping",
        "key": "t_address",
        "label": "mapping(address => struct IncomeSharingVaultV2.UserInfo)",
        "numberOfBytes": "32",
        "value": "t_struct(UserInfo)13279_storage"
      },
      "t_mapping(t_uint256,t_mapping(t_address,t_struct(UserInfo)13279_storage))": {
        "encoding": "mapping",
        "key": "t_uint256",
        "label": "mapping(uint256 => mapping(address => struct IncomeSharingVaultV2.UserInfo))",
        "numberOfBytes": "32",
        "value": "t_mapping(t_address,t_struct(UserInfo)13279_storage)"
      },
      "t_mapping(t_uint256,t_struct(PoolInfo)13269_storage)": {
        "encoding": "mapping",
        "key": "t_uint256",
        "label": "mapping(uint256 => struct IncomeSharingVaultV2.PoolInfo)",
        "numberOfBytes": "32",
        "value": "t_struct(PoolInfo)13269_storage"
      },
      "t_struct(PoolInfo)13269_storage": {
        "encoding": "inplace",
        "label": "struct IncomeSharingVaultV2.PoolInfo",
        "members": [
          {
            "astId": 13260,
            "contract": "contracts/income/IncomeSharingVaultV2.sol:IncomeSharingVaultV2",
            "label": "available",
            "offset": 0,
            "slot": "0",
            "type": "t_bool"
          },
          {
            "astId": 13262,
            "contract": "contracts/income/IncomeSharingVaultV2.sol:IncomeSharingVaultV2",
            "label": "rewardToken",
            "offset": 1,
            "slot": "0",
            "type": "t_address"
          },
          {
            "astId": 13264,
            "contract": "contracts/income/IncomeSharingVaultV2.sol:IncomeSharingVaultV2",
            "label": "totalAmount",
            "offset": 0,
            "slot": "1",
            "type": "t_uint256"
          },
          {
            "astId": 13266,
            "contract": "contracts/income/IncomeSharingVaultV2.sol:IncomeSharingVaultV2",
            "label": "accRewardPerShare",
            "offset": 0,
            "slot": "2",
            "type": "t_uint256"
          },
          {
            "astId": 13268,
            "contract": "contracts/income/IncomeSharingVaultV2.sol:IncomeSharingVaultV2",
            "label": "lastRewardBalance",
            "offset": 0,
            "slot": "3",
            "type": "t_uint256"
          }
        ],
        "numberOfBytes": "128"
      },
      "t_struct(UserInfo)13279_storage": {
        "encoding": "inplace",
        "label": "struct IncomeSharingVaultV2.UserInfo",
        "members": [
          {
            "astId": 13276,
            "contract": "contracts/income/IncomeSharingVaultV2.sol:IncomeSharingVaultV2",
            "label": "totalAmount",
            "offset": 0,
            "slot": "0",
            "type": "t_uint256"
          },
          {
            "astId": 13278,
            "contract": "contracts/income/IncomeSharingVaultV2.sol:IncomeSharingVaultV2",
            "label": "rewardDebt",
            "offset": 0,
            "slot": "1",
            "type": "t_uint256"
          }
        ],
        "numberOfBytes": "64"
      },
      "t_uint256": {
        "encoding": "inplace",
        "label": "uint256",
        "numberOfBytes": "32"
      }
    }
  }
}