{
  "address": "0x201D821d88451EC0f8dFe652DEeb1BB59f4BFA3c",
  "abi": [
    {
      "anonymous": false,
      "inputs": [
        {
          "indexed": false,
          "internalType": "address",
          "name": "oldArbitraryPriceGetter",
          "type": "address"
        },
        {
          "indexed": false,
          "internalType": "address",
          "name": "newArbitraryPriceGetter",
          "type": "address"
        }
      ],
      "name": "ArbitraryPriceGetterChanged",
      "type": "event"
    },
    {
      "anonymous": false,
      "inputs": [
        {
          "indexed": false,
          "internalType": "address",
          "name": "payerAddress",
          "type": "address"
        },
        {
          "indexed": false,
          "internalType": "address",
          "name": "userAddress",
          "type": "address"
        },
        {
          "indexed": false,
          "internalType": "string",
          "name": "policyTokenName",
          "type": "string"
        },
        {
          "indexed": false,
          "internalType": "address",
          "name": "stablecoin",
          "type": "address"
        },
        {
          "indexed": false,
          "internalType": "uint256",
          "name": "amount",
          "type": "uint256"
        }
      ],
      "name": "DelegateDeposit",
      "type": "event"
    },
    {
      "anonymous": false,
      "inputs": [
        {
          "indexed": true,
          "internalType": "address",
          "name": "userAddress",
          "type": "address"
        },
        {
          "indexed": true,
          "internalType": "string",
          "name": "policyTokenName",
          "type": "string"
        },
        {
          "indexed": true,
          "internalType": "address",
          "name": "stablecoin",
          "type": "address"
        },
        {
          "indexed": false,
          "internalType": "uint256",
          "name": "amount",
          "type": "uint256"
        }
      ],
      "name": "Deposit",
      "type": "event"
    },
    {
      "anonymous": false,
      "inputs": [
        {
          "indexed": false,
          "internalType": "string",
          "name": "_policyTokenName",
          "type": "string"
        },
        {
          "indexed": false,
          "internalType": "uint256",
          "name": "price",
          "type": "uint256"
        },
        {
          "indexed": false,
          "internalType": "bool",
          "name": "isHappened",
          "type": "bool"
        }
      ],
      "name": "FinalResultSettled",
      "type": "event"
    },
    {
      "anonymous": false,
      "inputs": [
        {
          "indexed": false,
          "internalType": "address",
          "name": "oldPriceGetter",
          "type": "address"
        },
        {
          "indexed": false,
          "internalType": "address",
          "name": "newPriceGetter",
          "type": "address"
        }
      ],
      "name": "IDOPriceGetterChanged",
      "type": "event"
    },
    {
      "anonymous": false,
      "inputs": [
        {
          "indexed": false,
          "internalType": "address",
          "name": "oldILM",
          "type": "address"
        },
        {
          "indexed": false,
          "internalType": "address",
          "name": "newILM",
          "type": "address"
        }
      ],
      "name": "ILMChanged",
      "type": "event"
    },
    {
      "anonymous": false,
      "inputs": [
        {
          "indexed": false,
          "internalType": "address",
          "name": "oldIncomeSharing",
          "type": "address"
        },
        {
          "indexed": false,
          "internalType": "address",
          "name": "newIncomeSharing",
          "type": "address"
        }
      ],
      "name": "IncomeSharingChanged",
      "type": "event"
    },
    {
      "anonymous": false,
      "inputs": [
        {
          "indexed": false,
          "internalType": "uint256",
          "name": "oldToLottery",
          "type": "uint256"
        },
        {
          "indexed": false,
          "internalType": "uint256",
          "name": "newToLottery",
          "type": "uint256"
        }
      ],
      "name": "IncomeToLotteryChanged",
      "type": "event"
    },
    {
      "anonymous": false,
      "inputs": [
        {
          "indexed": false,
          "internalType": "address",
          "name": "oldLotteryAddress",
          "type": "address"
        },
        {
          "indexed": false,
          "internalType": "address",
          "name": "newLotteryAddress",
          "type": "address"
        }
      ],
      "name": "LotteryChanged",
      "type": "event"
    },
    {
      "anonymous": false,
      "inputs": [
        {
          "indexed": false,
          "internalType": "address",
          "name": "oldRouter",
          "type": "address"
        },
        {
          "indexed": false,
          "internalType": "address",
          "name": "newRouter",
          "type": "address"
        }
      ],
      "name": "NaughtyRouterChanged",
      "type": "event"
    },
    {
      "anonymous": false,
      "inputs": [
        {
          "indexed": false,
          "internalType": "address",
          "name": "_newStablecoin",
          "type": "address"
        }
      ],
      "name": "NewStablecoinAdded",
      "type": "event"
    },
    {
      "anonymous": false,
      "inputs": [
        {
          "indexed": true,
          "internalType": "address",
          "name": "previousOwner",
          "type": "address"
        },
        {
          "indexed": true,
          "internalType": "address",
          "name": "newOwner",
          "type": "address"
        }
      ],
      "name": "OwnershipTransferred",
      "type": "event"
    },
    {
      "anonymous": false,
      "inputs": [
        {
          "indexed": false,
          "internalType": "string",
          "name": "tokenName",
          "type": "string"
        },
        {
          "indexed": false,
          "internalType": "address",
          "name": "tokenAddress",
          "type": "address"
        },
        {
          "indexed": false,
          "internalType": "uint256",
          "name": "tokenDecimals",
          "type": "uint256"
        },
        {
          "indexed": false,
          "internalType": "uint256",
          "name": "deadline",
          "type": "uint256"
        },
        {
          "indexed": false,
          "internalType": "uint256",
          "name": "settleTimestamp",
          "type": "uint256"
        }
      ],
      "name": "PolicyTokenDeployed",
      "type": "event"
    },
    {
      "anonymous": false,
      "inputs": [
        {
          "indexed": false,
          "internalType": "address",
          "name": "poolAddress",
          "type": "address"
        },
        {
          "indexed": false,
          "internalType": "address",
          "name": "policyTokenAddress",
          "type": "address"
        },
        {
          "indexed": false,
          "internalType": "address",
          "name": "stablecoin",
          "type": "address"
        }
      ],
      "name": "PoolDeployed",
      "type": "event"
    },
    {
      "anonymous": false,
      "inputs": [
        {
          "indexed": true,
          "internalType": "address",
          "name": "userAddress",
          "type": "address"
        },
        {
          "indexed": true,
          "internalType": "string",
          "name": "policyTokenName",
          "type": "string"
        },
        {
          "indexed": true,
          "internalType": "address",
          "name": "stablecoin",
          "type": "address"
        },
        {
          "indexed": false,
          "internalType": "uint256",
          "name": "amount",
          "type": "uint256"
        }
      ],
      "name": "Redeem",
      "type": "event"
    },
    {
      "anonymous": false,
      "inputs": [
        {
          "indexed": true,
          "internalType": "address",
          "name": "userAddress",
          "type": "address"
        },
        {
          "indexed": true,
          "internalType": "string",
          "name": "policyTokenName",
          "type": "string"
        },
        {
          "indexed": true,
          "internalType": "address",
          "name": "stablecoin",
          "type": "address"
        },
        {
          "indexed": false,
          "internalType": "uint256",
          "name": "amount",
          "type": "uint256"
        }
      ],
      "name": "RedeemAfterSettlement",
      "type": "event"
    },
    {
      "anonymous": false,
      "inputs": [
        {
          "indexed": false,
          "internalType": "address",
          "name": "user",
          "type": "address"
        },
        {
          "indexed": false,
          "internalType": "address",
          "name": "policyTokenAddress",
          "type": "address"
        },
        {
          "indexed": false,
          "internalType": "uint256",
          "name": "amount",
          "type": "uint256"
        }
      ],
      "name": "UpdateUserQuota",
      "type": "event"
    },
    {
      "inputs": [],
      "name": "ILMContract",
      "outputs": [
        {
          "internalType": "address",
          "name": "",
          "type": "address"
        }
      ],
      "stateMutability": "view",
      "type": "function"
    },
    {
      "inputs": [
        {
          "internalType": "string",
          "name": "_tokenName",
          "type": "string"
        },
        {
          "internalType": "uint256",
          "name": "_decimals",
          "type": "uint256"
        },
        {
          "internalType": "uint256",
          "name": "_strikePrice",
          "type": "uint256"
        },
        {
          "internalType": "bool",
          "name": "_isCall",
          "type": "bool"
        },
        {
          "internalType": "string",
          "name": "_round",
          "type": "string"
        }
      ],
      "name": "_generateName",
      "outputs": [
        {
          "internalType": "string",
          "name": "",
          "type": "string"
        }
      ],
      "stateMutability": "pure",
      "type": "function"
    },
    {
      "inputs": [
        {
          "internalType": "uint256",
          "name": "num",
          "type": "uint256"
        }
      ],
      "name": "_returnZeroes",
      "outputs": [
        {
          "internalType": "string",
          "name": "zeroString",
          "type": "string"
        }
      ],
      "stateMutability": "pure",
      "type": "function"
    },
    {
      "inputs": [
        {
          "internalType": "address",
          "name": "_newStablecoin",
          "type": "address"
        }
      ],
      "name": "addStablecoin",
      "outputs": [],
      "stateMutability": "nonpayable",
      "type": "function"
    },
    {
      "inputs": [
        {
          "internalType": "uint256",
          "name": "",
          "type": "uint256"
        }
      ],
      "name": "allPolicyTokens",
      "outputs": [
        {
          "internalType": "string",
          "name": "",
          "type": "string"
        }
      ],
      "stateMutability": "view",
      "type": "function"
    },
    {
      "inputs": [],
      "name": "arbitraryPriceGetter",
      "outputs": [
        {
          "internalType": "contract IPriceGetter",
          "name": "",
          "type": "address"
        }
      ],
      "stateMutability": "view",
      "type": "function"
    },
    {
      "inputs": [
        {
          "internalType": "string",
          "name": "_policyTokenName",
          "type": "string"
        },
        {
          "internalType": "address",
          "name": "_stablecoin",
          "type": "address"
        },
        {
          "internalType": "uint256",
          "name": "_amount",
          "type": "uint256"
        }
      ],
      "name": "claim",
      "outputs": [],
      "stateMutability": "nonpayable",
      "type": "function"
    },
    {
      "inputs": [
        {
          "internalType": "address",
          "name": "_stablecoin",
          "type": "address"
        }
      ],
      "name": "collectIncome",
      "outputs": [],
      "stateMutability": "nonpayable",
      "type": "function"
    },
    {
      "inputs": [
        {
          "internalType": "string",
          "name": "_policyTokenName",
          "type": "string"
        },
        {
          "internalType": "address",
          "name": "_stablecoin",
          "type": "address"
        },
        {
          "internalType": "uint256",
          "name": "_amount",
          "type": "uint256"
        },
        {
          "internalType": "address",
          "name": "_user",
          "type": "address"
        }
      ],
      "name": "delegateDeposit",
      "outputs": [],
      "stateMutability": "nonpayable",
      "type": "function"
    },
    {
      "inputs": [
        {
          "internalType": "string",
          "name": "_tokenName",
          "type": "string"
        },
        {
          "internalType": "address",
          "name": "_stablecoin",
          "type": "address"
        },
        {
          "internalType": "bool",
          "name": "_isCall",
          "type": "bool"
        },
        {
          "internalType": "uint256",
          "name": "_nameDecimals",
          "type": "uint256"
        },
        {
          "internalType": "uint256",
          "name": "_tokenDecimals",
          "type": "uint256"
        },
        {
          "internalType": "uint256",
          "name": "_strikePrice",
          "type": "uint256"
        },
        {
          "internalType": "string",
          "name": "_round",
          "type": "string"
        },
        {
          "internalType": "uint256",
          "name": "_deadline",
          "type": "uint256"
        },
        {
          "internalType": "uint256",
          "name": "_settleTimestamp",
          "type": "uint256"
        },
        {
          "internalType": "uint256",
          "name": "_poolType",
          "type": "uint256"
        }
      ],
      "name": "deployPolicyToken",
      "outputs": [],
      "stateMutability": "nonpayable",
      "type": "function"
    },
    {
      "inputs": [
        {
          "internalType": "string",
          "name": "_policyTokenName",
          "type": "string"
        },
        {
          "internalType": "address",
          "name": "_stablecoin",
          "type": "address"
        },
        {
          "internalType": "uint256",
          "name": "_poolDeadline",
          "type": "uint256"
        },
        {
          "internalType": "uint256",
          "name": "_feeRate",
          "type": "uint256"
        }
      ],
      "name": "deployPool",
      "outputs": [
        {
          "internalType": "address",
          "name": "",
          "type": "address"
        }
      ],
      "stateMutability": "nonpayable",
      "type": "function"
    },
    {
      "inputs": [
        {
          "internalType": "string",
          "name": "_policyTokenName",
          "type": "string"
        },
        {
          "internalType": "address",
          "name": "_stablecoin",
          "type": "address"
        },
        {
          "internalType": "uint256",
          "name": "_amount",
          "type": "uint256"
        }
      ],
      "name": "deposit",
      "outputs": [],
      "stateMutability": "nonpayable",
      "type": "function"
    },
    {
      "inputs": [],
      "name": "factory",
      "outputs": [
        {
          "internalType": "contract INaughtyFactory",
          "name": "",
          "type": "address"
        }
      ],
      "stateMutability": "view",
      "type": "function"
    },
    {
      "inputs": [
        {
          "internalType": "string",
          "name": "_policyTokenName",
          "type": "string"
        }
      ],
      "name": "findAddressbyName",
      "outputs": [
        {
          "internalType": "address",
          "name": "policyTokenAddress",
          "type": "address"
        }
      ],
      "stateMutability": "view",
      "type": "function"
    },
    {
      "inputs": [
        {
          "internalType": "address",
          "name": "_policyTokenAddress",
          "type": "address"
        }
      ],
      "name": "findNamebyAddress",
      "outputs": [
        {
          "internalType": "string",
          "name": "policyTokenName",
          "type": "string"
        }
      ],
      "stateMutability": "view",
      "type": "function"
    },
    {
      "inputs": [],
      "name": "getAllTokens",
      "outputs": [
        {
          "components": [
            {
              "internalType": "address",
              "name": "policyTokenAddress",
              "type": "address"
            },
            {
              "internalType": "bool",
              "name": "isCall",
              "type": "bool"
            },
            {
              "internalType": "uint256",
              "name": "nameDecimals",
              "type": "uint256"
            },
            {
              "internalType": "uint256",
              "name": "tokenDecimals",
              "type": "uint256"
            },
            {
              "internalType": "uint256",
              "name": "strikePrice",
              "type": "uint256"
            },
            {
              "internalType": "uint256",
              "name": "deadline",
              "type": "uint256"
            },
            {
              "internalType": "uint256",
              "name": "settleTimestamp",
              "type": "uint256"
            }
          ],
          "internalType": "struct PolicyCore.PolicyTokenInfo[]",
          "name": "",
          "type": "tuple[]"
        }
      ],
      "stateMutability": "view",
      "type": "function"
    },
    {
      "inputs": [
        {
          "internalType": "string",
          "name": "_policyTokenName",
          "type": "string"
        }
      ],
      "name": "getPolicyTokenInfo",
      "outputs": [
        {
          "components": [
            {
              "internalType": "address",
              "name": "policyTokenAddress",
              "type": "address"
            },
            {
              "internalType": "bool",
              "name": "isCall",
              "type": "bool"
            },
            {
              "internalType": "uint256",
              "name": "nameDecimals",
              "type": "uint256"
            },
            {
              "internalType": "uint256",
              "name": "tokenDecimals",
              "type": "uint256"
            },
            {
              "internalType": "uint256",
              "name": "strikePrice",
              "type": "uint256"
            },
            {
              "internalType": "uint256",
              "name": "deadline",
              "type": "uint256"
            },
            {
              "internalType": "uint256",
              "name": "settleTimestamp",
              "type": "uint256"
            }
          ],
          "internalType": "struct PolicyCore.PolicyTokenInfo",
          "name": "",
          "type": "tuple"
        }
      ],
      "stateMutability": "view",
      "type": "function"
    },
    {
      "inputs": [
        {
          "internalType": "address",
          "name": "_user",
          "type": "address"
        },
        {
          "internalType": "address",
          "name": "_policyTokenAddress",
          "type": "address"
        }
      ],
      "name": "getUserQuota",
      "outputs": [
        {
          "internalType": "uint256",
          "name": "_quota",
          "type": "uint256"
        }
      ],
      "stateMutability": "view",
      "type": "function"
    },
    {
      "inputs": [],
      "name": "idoPriceGetter",
      "outputs": [
        {
          "internalType": "contract IPriceGetter",
          "name": "",
          "type": "address"
        }
      ],
      "stateMutability": "view",
      "type": "function"
    },
    {
      "inputs": [],
      "name": "incomeSharing",
      "outputs": [
        {
          "internalType": "address",
          "name": "",
          "type": "address"
        }
      ],
      "stateMutability": "view",
      "type": "function"
    },
    {
      "inputs": [
        {
          "internalType": "address",
          "name": "_factory",
          "type": "address"
        },
        {
          "internalType": "address",
          "name": "_priceGetter",
          "type": "address"
        }
      ],
      "name": "initialize",
      "outputs": [],
      "stateMutability": "nonpayable",
      "type": "function"
    },
    {
      "inputs": [
        {
          "internalType": "string",
          "name": "",
          "type": "string"
        }
      ],
      "name": "isArbitraryPool",
      "outputs": [
        {
          "internalType": "bool",
          "name": "",
          "type": "bool"
        }
      ],
      "stateMutability": "view",
      "type": "function"
    },
    {
      "inputs": [
        {
          "internalType": "string",
          "name": "",
          "type": "string"
        }
      ],
      "name": "isIDOPool",
      "outputs": [
        {
          "internalType": "bool",
          "name": "",
          "type": "bool"
        }
      ],
      "stateMutability": "view",
      "type": "function"
    },
    {
      "inputs": [],
      "name": "lottery",
      "outputs": [
        {
          "internalType": "address",
          "name": "",
          "type": "address"
        }
      ],
      "stateMutability": "view",
      "type": "function"
    },
    {
      "inputs": [],
      "name": "naughtyRouter",
      "outputs": [
        {
          "internalType": "address",
          "name": "",
          "type": "address"
        }
      ],
      "stateMutability": "view",
      "type": "function"
    },
    {
      "inputs": [],
      "name": "owner",
      "outputs": [
        {
          "internalType": "address",
          "name": "",
          "type": "address"
        }
      ],
      "stateMutability": "view",
      "type": "function"
    },
    {
      "inputs": [
        {
          "internalType": "address",
          "name": "",
          "type": "address"
        }
      ],
      "name": "pendingIncomeToLottery",
      "outputs": [
        {
          "internalType": "uint256",
          "name": "",
          "type": "uint256"
        }
      ],
      "stateMutability": "view",
      "type": "function"
    },
    {
      "inputs": [
        {
          "internalType": "address",
          "name": "",
          "type": "address"
        }
      ],
      "name": "pendingIncomeToSharing",
      "outputs": [
        {
          "internalType": "uint256",
          "name": "",
          "type": "uint256"
        }
      ],
      "stateMutability": "view",
      "type": "function"
    },
    {
      "inputs": [
        {
          "internalType": "address",
          "name": "",
          "type": "address"
        }
      ],
      "name": "policyTokenAddressToName",
      "outputs": [
        {
          "internalType": "string",
          "name": "",
          "type": "string"
        }
      ],
      "stateMutability": "view",
      "type": "function"
    },
    {
      "inputs": [
        {
          "internalType": "string",
          "name": "",
          "type": "string"
        }
      ],
      "name": "policyTokenInfoMapping",
      "outputs": [
        {
          "internalType": "address",
          "name": "policyTokenAddress",
          "type": "address"
        },
        {
          "internalType": "bool",
          "name": "isCall",
          "type": "bool"
        },
        {
          "internalType": "uint256",
          "name": "nameDecimals",
          "type": "uint256"
        },
        {
          "internalType": "uint256",
          "name": "tokenDecimals",
          "type": "uint256"
        },
        {
          "internalType": "uint256",
          "name": "strikePrice",
          "type": "uint256"
        },
        {
          "internalType": "uint256",
          "name": "deadline",
          "type": "uint256"
        },
        {
          "internalType": "uint256",
          "name": "settleTimestamp",
          "type": "uint256"
        }
      ],
      "stateMutability": "view",
      "type": "function"
    },
    {
      "inputs": [],
      "name": "priceGetter",
      "outputs": [
        {
          "internalType": "contract IPriceGetter",
          "name": "",
          "type": "address"
        }
      ],
      "stateMutability": "view",
      "type": "function"
    },
    {
      "inputs": [
        {
          "internalType": "string",
          "name": "_policyTokenName",
          "type": "string"
        },
        {
          "internalType": "address",
          "name": "_stablecoin",
          "type": "address"
        },
        {
          "internalType": "uint256",
          "name": "_amount",
          "type": "uint256"
        }
      ],
      "name": "redeem",
      "outputs": [],
      "stateMutability": "nonpayable",
      "type": "function"
    },
    {
      "inputs": [
        {
          "internalType": "string",
          "name": "_policyTokenName",
          "type": "string"
        },
        {
          "internalType": "address",
          "name": "_stablecoin",
          "type": "address"
        }
      ],
      "name": "redeemAfterSettlement",
      "outputs": [],
      "stateMutability": "nonpayable",
      "type": "function"
    },
    {
      "inputs": [],
      "name": "renounceOwnership",
      "outputs": [],
      "stateMutability": "nonpayable",
      "type": "function"
    },
    {
      "inputs": [
        {
          "internalType": "address",
          "name": "_arbitraryPriceGetter",
          "type": "address"
        }
      ],
      "name": "setArbitraryPriceGetter",
      "outputs": [],
      "stateMutability": "nonpayable",
      "type": "function"
    },
    {
      "inputs": [
        {
          "internalType": "address",
          "name": "_idoPriceGetter",
          "type": "address"
        }
      ],
      "name": "setIDOPriceGetter",
      "outputs": [],
      "stateMutability": "nonpayable",
      "type": "function"
    },
    {
      "inputs": [
        {
          "internalType": "address",
          "name": "_ILM",
          "type": "address"
        }
      ],
      "name": "setILMContract",
      "outputs": [],
      "stateMutability": "nonpayable",
      "type": "function"
    },
    {
      "inputs": [
        {
          "internalType": "address",
          "name": "_incomeSharing",
          "type": "address"
        }
      ],
      "name": "setIncomeSharing",
      "outputs": [],
      "stateMutability": "nonpayable",
      "type": "function"
    },
    {
      "inputs": [
        {
          "internalType": "uint256",
          "name": "_toLottery",
          "type": "uint256"
        }
      ],
      "name": "setIncomeToLottery",
      "outputs": [],
      "stateMutability": "nonpayable",
      "type": "function"
    },
    {
      "inputs": [
        {
          "internalType": "address",
          "name": "_lotteryAddress",
          "type": "address"
        }
      ],
      "name": "setLottery",
      "outputs": [],
      "stateMutability": "nonpayable",
      "type": "function"
    },
    {
      "inputs": [
        {
          "internalType": "address",
          "name": "_router",
          "type": "address"
        }
      ],
      "name": "setNaughtyRouter",
      "outputs": [],
      "stateMutability": "nonpayable",
      "type": "function"
    },
    {
      "inputs": [
        {
          "internalType": "string",
          "name": "_policyTokenName",
          "type": "string"
        }
      ],
      "name": "settleFinalResult",
      "outputs": [],
      "stateMutability": "nonpayable",
      "type": "function"
    },
    {
      "inputs": [
        {
          "internalType": "address",
          "name": "",
          "type": "address"
        }
      ],
      "name": "settleResult",
      "outputs": [
        {
          "internalType": "uint256",
          "name": "price",
          "type": "uint256"
        },
        {
          "internalType": "bool",
          "name": "isHappened",
          "type": "bool"
        },
        {
          "internalType": "bool",
          "name": "alreadySettled",
          "type": "bool"
        },
        {
          "internalType": "uint256",
          "name": "currentDistributionIndex",
          "type": "uint256"
        }
      ],
      "stateMutability": "view",
      "type": "function"
    },
    {
      "inputs": [
        {
          "internalType": "address",
          "name": "",
          "type": "address"
        }
      ],
      "name": "supportedStablecoin",
      "outputs": [
        {
          "internalType": "bool",
          "name": "",
          "type": "bool"
        }
      ],
      "stateMutability": "view",
      "type": "function"
    },
    {
      "inputs": [],
      "name": "toLotteryPart",
      "outputs": [
        {
          "internalType": "uint256",
          "name": "",
          "type": "uint256"
        }
      ],
      "stateMutability": "view",
      "type": "function"
    },
    {
      "inputs": [
        {
          "internalType": "address",
          "name": "newOwner",
          "type": "address"
        }
      ],
      "name": "transferOwnership",
      "outputs": [],
      "stateMutability": "nonpayable",
      "type": "function"
    },
    {
      "inputs": [
        {
          "internalType": "address",
          "name": "_user",
          "type": "address"
        },
        {
          "internalType": "address",
          "name": "_policyToken",
          "type": "address"
        },
        {
          "internalType": "uint256",
          "name": "_amount",
          "type": "uint256"
        }
      ],
      "name": "updateUserQuota",
      "outputs": [],
      "stateMutability": "nonpayable",
      "type": "function"
    },
    {
      "inputs": [
        {
          "internalType": "address",
          "name": "",
          "type": "address"
        }
      ],
      "name": "whichStablecoin",
      "outputs": [
        {
          "internalType": "address",
          "name": "",
          "type": "address"
        }
      ],
      "stateMutability": "view",
      "type": "function"
    }
  ],
  "transactionHash": "0x3d97c3f0b5f5aa86321e9dd59d0b25c6d08cec8f235a3859befe5fc2635e9b64",
  "args": [],
  "numDeployments": 1,
  "solcInputHash": "0908b805372ad3a5b867a88c8d84f329",
  "bytecode": "0x608060405234801561001057600080fd5b50614621806100206000396000f3fe608060405234801561001057600080fd5b50600436106103205760003560e01c80637336c38d116101a7578063c45a0155116100ee578063e01f8e4b11610097578063f15cac3411610071578063f15cac34146107f3578063f298083b14610806578063f2fde38b1461081957600080fd5b8063e01f8e4b146107ba578063e6251237146107cd578063f10cffbd146107e057600080fd5b8063d700e89f116100c8578063d700e89f14610758578063d9e85c8414610761578063da1428071461078157600080fd5b8063c45a01551461071f578063c49df4bf14610732578063ceed1b901461074557600080fd5b8063a8e577e311610150578063bb9febaf1161012a578063bb9febaf146106e6578063bdc2b166146106f9578063be3f34a11461070c57600080fd5b8063a8e577e3146106a0578063ba13a572146106c0578063bb245c63146106d357600080fd5b806394567d4e1161018157806394567d4e146106675780639f6f85541461067a578063a815a2211461068d57600080fd5b80637336c38d1461061557806383d83c98146106285780638da5cb5b1461065657600080fd5b806339f677381161026b5780635cb3b14f116102145780636978531a116101ee5780636978531a146105cc578063715018a6146105df578063727e0deb146105e757600080fd5b80635cb3b14f146105535780635db0862d146105835780635eb1877e146105a357600080fd5b80634ae33139116102455780634ae331391461050d5780634c330fbc146105205780634e75ce891461053357600080fd5b806339f6773814610476578063448299b3146104e7578063485cc955146104fa57600080fd5b806318dd152f116102cd5780632a48ac9a116102a75780632a48ac9a1461043b5780632a5c792a1461044e57806338081de21461046357600080fd5b806318dd152f146103c95780631ee08fa1146103dc578063210123e51461042857600080fd5b806307962845116102fe578063079628451461037657806308d89d5f146103a35780630dc72647146103b657600080fd5b806303844097146103255780630418945a1461033a5780630627e3801461034d575b600080fd5b610338610333366004612fce565b61082c565b005b610338610348366004613039565b610c3a565b61036061035b36600461306b565b610cc2565b60405161036d91906130ea565b60405180910390f35b610396610384366004613039565b60746020526000908152604090205481565b60405161036d9190613103565b6103386103b1366004613111565b610d00565b6103606103c436600461306b565b610ed6565b6103606103d7366004613039565b610f82565b6104186103ea366004613039565b607360205260009081526040902080546001820154600290920154909160ff80821692610100909204169084565b60405161036d9493929190613183565b610338610436366004613039565b610f9b565b610338610449366004613111565b61102e565b6104566110f7565b60405161036d919061329d565b610360610471366004613039565b611274565b6104d4610484366004612fce565b8051602081830181018051606c825292820191909301209152805460018201546002830154600384015460048501546005909501546001600160a01b03851695600160a01b90950460ff16949087565b60405161036d97969594939291906132ae565b6103386104f5366004613039565b611341565b610338610508366004613316565b6113d4565b61033861051b366004613366565b611485565b61033861052e366004613039565b61186f565b610546610541366004612fce565b611902565b60405161036d9190613477565b610576610561366004613039565b606f6020526000908152604090205460ff1681565b60405161036d9190613485565b607954610596906001600160a01b031681565b60405161036d91906134b2565b6105466105b1366004613039565b6070602052600090815260409020546001600160a01b031681565b606a54610546906001600160a01b031681565b61033861194c565b6105766105f5366004612fce565b805160208183018101805160768252928201919093012091525460ff1681565b610338610623366004613111565b611982565b610576610636366004612fce565b805160208183018101805160788252928201919093012091525460ff1681565b6033546001600160a01b0316610546565b606854610546906001600160a01b031681565b610338610688366004613039565b611b91565b61033861069b366004613039565b611c24565b6103966106ae366004613039565b60756020526000908152604090205481565b606754610546906001600160a01b031681565b607754610596906001600160a01b031681565b6105466106f43660046134c0565b611cb7565b61033861070736600461306b565b611e4a565b61033861071a366004613039565b611ed5565b606554610596906001600160a01b031681565b61033861074036600461353e565b611fc1565b606654610596906001600160a01b031681565b610396606b5481565b61077461076f366004612fce565b6121e3565b60405161036d919061357a565b61039661078f366004613316565b6001600160a01b03918216600090815260726020908152604080832093909416825291909152205490565b6103386107c8366004613588565b6122b1565b606954610546906001600160a01b031681565b6103606107ee3660046135ac565b612358565b610338610801366004613659565b6124c7565b610338610814366004613039565b6125fa565b610338610827366004613039565b61268d565b806000606c8260405161083f91906136ed565b90815260200160405180910390206005015490508042101561087c5760405162461bcd60e51b815260040161087390613729565b60405180910390fd5b82600061088882611902565b6001600160a01b038116600090815260736020526040902060010154909150610100900460ff16156108cc5760405162461bcd60e51b81526004016108739061376b565b60006108d786611902565b6001600160a01b0381166000908152607360209081526040808320607190925282208054939450909261090990613791565b80601f016020809104026020016040519081016040528092919081815260200182805461093590613791565b80156109825780601f1061095757610100808354040283529160200191610982565b820191906000526020600020905b81548152906001019060200180831161096557829003601f168201915b50505050509050600060768960405161099b91906136ed565b9081526040519081900360200190205460ff1615610a2d5760775460405163f66a1b7160e01b81526001600160a01b039091169063f66a1b71906109e3908c906004016130ea565b6020604051808303816000875af1158015610a02573d6000803e3d6000fd5b505050506040513d601f19601f82011682018060405250810190610a2691906137c2565b9050610afb565b607889604051610a3d91906136ed565b9081526040519081900360200190205460ff1615610a855760795460405163f66a1b7160e01b81526001600160a01b039091169063f66a1b71906109e3908c906004016130ea565b60665460405163f66a1b7160e01b81526001600160a01b039091169063f66a1b7190610ab59085906004016130ea565b6020604051808303816000875af1158015610ad4573d6000803e3d6000fd5b505050506040513d601f19601f82011682018060405250810190610af891906137c2565b90505b60018301805461ff001916610100179055808355604051600090606c90610b23908c906136ed565b908152604080516020928190038301812060e08201835280546001600160a01b0381168352600160a01b900460ff1615159382019390935260018301549181019190915260028201546060820152600382015460808201819052600483015460a083015260059092015460c082015291506000908310801590610ba7575081602001515b9050600082608001518411158015610bc157508260200151155b905060008280610bce5750815b610bd9576000610bdc565b60015b60018801805460ff19168215151790556040519091507f4f7bb4bf5b5d9e711ae7506fc1acd843eea9f216861a09c312fefb7e05095a3690610c23908f90889085906137e3565b60405180910390a150505050505050505050505050565b6033546001600160a01b03163314610c645760405162461bcd60e51b815260040161087390613840565b6001600160a01b0381166000908152606f602052604090819020805460ff19166001179055517f86b377b6d485043d4a8b2b0c26051f82529ea2d7c23b1188598416473c12309390610cb7908390613477565b60405180910390a150565b606060005b82811015610cfa5781604051602001610ce0919061385e565b60408051601f198184030181529190529150600101610cc7565b50919050565b826000606c82604051610d1391906136ed565b908152602001604051809103902060050154905080421015610d475760405162461bcd60e51b815260040161087390613729565b84846000610d5483611902565b6001600160a01b03818116600090815260706020526040902054919250838116911614610d935760405162461bcd60e51b8152600401610873906138a5565b6000610d9e89611902565b6001600160a01b03811660009081526073602090815260409182902082516080810184528154808252600183015460ff80821615159584019590955261010090049093161515938101939093526002015460608301529192509015801590610e07575080604001515b610e235760405162461bcd60e51b8152600401610873906138e7565b8060200151610e445760405162461bcd60e51b815260040161087390613929565b6000610e508a8a6126e9565b9050610e666001600160a01b038b1633836127a7565b604051632770a7eb60e21b815283906001600160a01b03821690639dc29fac90610e969033908e90600401613939565b600060405180830381600087803b158015610eb057600080fd5b505af1158015610ec4573d6000803e3d6000fd5b50505050505050505050505050505050565b606e8181548110610ee657600080fd5b906000526020600020016000915090508054610f0190613791565b80601f0160208091040260200160405190810160405280929190818152602001828054610f2d90613791565b8015610f7a5780601f10610f4f57610100808354040283529160200191610f7a565b820191906000526020600020905b815481529060010190602001808311610f5d57829003601f168201915b505050505081565b606d6020526000908152604090208054610f0190613791565b6033546001600160a01b03163314610fc55760405162461bcd60e51b815260040161087390613840565b6068546040517ff4b601aa15ee1d2340ac8d1e8f1ddf16fe98866801b5c057bec51086aa6d750291611004916001600160a01b03909116908490613954565b60405180910390a1606880546001600160a01b0319166001600160a01b0392909216919091179055565b826000606c8260405161104191906136ed565b9081526020016040518091039020600401549050804211156110755760405162461bcd60e51b8152600401610873906139a1565b8484600061108283611902565b6001600160a01b038181166000908152607060205260409020549192508381169116146110c15760405162461bcd60e51b8152600401610873906138a5565b600086116110e15760405162461bcd60e51b8152600401610873906139e3565b6110ed8888883361282a565b5050505050505050565b606e5460609060008167ffffffffffffffff81111561111857611118612ed8565b60405190808252806020026020018201604052801561119457816020015b6111816040518060e0016040528060006001600160a01b0316815260200160001515815260200160008152602001600081526020016000815260200160008152602001600081525090565b8152602001906001900390816111365790505b50905060005b8281101561126d57606c606e82815481106111b7576111b76139f3565b906000526020600020016040516111ce9190613a77565b90815260408051918290036020908101832060e08401835280546001600160a01b038116855260ff600160a01b909104161515918401919091526001810154918301919091526002810154606083015260038101546080830152600481015460a08301526005015460c0820152825183908390811061124f5761124f6139f3565b6020026020010181905250808061126590613a97565b91505061119a565b5092915050565b6001600160a01b0381166000908152606d6020526040902080546060919061129b90613791565b80601f01602080910402602001604051908101604052809291908181526020018280546112c790613791565b80156113145780601f106112e957610100808354040283529160200191611314565b820191906000526020600020905b8154815290600101906020018083116112f757829003601f168201915b50505050509050600081511161133c5760405162461bcd60e51b815260040161087390613ae2565b919050565b6033546001600160a01b0316331461136b5760405162461bcd60e51b815260040161087390613840565b6077546040517f7fa20b7236ace70bca6943a342603ca5d68d220e2f7b4a81ebe52fe8b618ba28916113aa916001600160a01b03909116908490613954565b60405180910390a1607780546001600160a01b0319166001600160a01b0392909216919091179055565b600054610100900460ff166113ef5760005460ff16156113f3565b303b155b61140f5760405162461bcd60e51b815260040161087390613b4c565b600054610100900460ff16158015611431576000805461ffff19166101011790555b611439612970565b606580546001600160a01b038086166001600160a01b03199283161790925560668054928516929091169190911790556002606b558015611480576000805461ff00191690555b505050565b6033546001600160a01b031633146114af5760405162461bcd60e51b815260040161087390613840565b601287111580156114c1575060128611155b6114dd5760405162461bcd60e51b815260040161087390613b8e565b85896001600160a01b031663313ce5676040518163ffffffff1660e01b8152600401602060405180830381865afa15801561151c573d6000803e3d6000fd5b505050506040513d601f19601f820116820180604052508101906115409190613bb2565b60ff16146115605760405162461bcd60e51b815260040161087390613c05565b42831161157f5760405162461bcd60e51b815260040161087390613c47565b8282101561159f5760405162461bcd60e51b815260040161087390613c89565b60006115ae8b89888c89612358565b6065546040517f87f0061a0000000000000000000000000000000000000000000000000000000081529192506000916001600160a01b03909116906387f0061a906115ff9085908c90600401613c99565b6020604051808303816000875af115801561161e573d6000803e3d6000fd5b505050506040513d601f19601f820116820180604052508101906116429190613cc4565b90506040518060e00160405280826001600160a01b031681526020018b151581526020018a815260200189815260200188815260200186815260200185815250606c8360405161169291906136ed565b9081526040805191829003602090810190922083518154858501511515600160a01b027fffffffffffffffffffffff0000000000000000000000000000000000000000009091166001600160a01b0392831617178255848301516001830155606085015160028301556080850151600383015560a0850151600483015560c090940151600590910155918316600090815260718252919091208d51611739928f0190612e3f565b506001600160a01b0381166000908152606d60209081526040909120835161176392850190612e3f565b50606e805460018101825560009190915282516117a7917f9930d9ff0dee0ef5ca2f7710ea66b8f84dd0f5f5351ecffe72b952cd9db7142a01906020850190612e3f565b507f5c781be7034983eed256e8250b1df5111e452c6dd41a3e415bdeda1cac92348882828a88886040516117df959493929190613ce5565b60405180910390a18260010361182657600160768360405161180191906136ed565b908152604051908190036020019020805491151560ff19909216919091179055611861565b8260020361186157600160788360405161184091906136ed565b908152604051908190036020019020805491151560ff199092169190911790555b505050505050505050505050565b6033546001600160a01b031633146118995760405162461bcd60e51b815260040161087390613840565b606a546040517f5a1397fff7d6f4aaebc9effcfc3a2fa8e89631d59ec574c1eaef6d709b5c9ab0916118d8916001600160a01b03909116908490613954565b60405180910390a1606a80546001600160a01b0319166001600160a01b0392909216919091179055565b6000606c8260405161191491906136ed565b908152604051908190036020019020546001600160a01b031690508061133c5760405162461bcd60e51b815260040161087390613d68565b6033546001600160a01b031633146119765760405162461bcd60e51b815260040161087390613840565b611980600061299f565b565b826000606c8260405161199591906136ed565b9081526020016040518091039020600401549050804211156119c95760405162461bcd60e51b8152600401610873906139a1565b848460006119d683611902565b6001600160a01b03818116600090815260706020526040902054919250838116911614611a155760405162461bcd60e51b8152600401610873906138a5565b6000611a2089611902565b3360009081526072602090815260408083206001600160a01b0385168452909152902054909150871115611a665760405162461bcd60e51b815260040161087390613daa565b3360009081526072602090815260408083206001600160a01b038516845290915281208054899290611a99908490613dba565b9091555060009050611aab89896126e9565b9050611ac16001600160a01b038a1633836127a7565b604051632770a7eb60e21b815282906001600160a01b03821690639dc29fac90611af19033908d90600401613939565b600060405180830381600087803b158015611b0b57600080fd5b505af1158015611b1f573d6000803e3d6000fd5b50505050896001600160a01b03168b604051611b3b91906136ed565b6040518091039020336001600160a01b03167fae452465b27fa0406f99c961c3bbf8215e6dabe24c0da5dd5981206d9038500a8c604051611b7c9190613103565b60405180910390a45050505050505050505050565b6033546001600160a01b03163314611bbb5760405162461bcd60e51b815260040161087390613840565b6079546040517fc4cae50b1b6dc542da9d15a83b544e8c7316282359fb2e6f8835278cfef3905891611bfa916001600160a01b03909116908490613954565b60405180910390a1607980546001600160a01b0319166001600160a01b0392909216919091179055565b6033546001600160a01b03163314611c4e5760405162461bcd60e51b815260040161087390613840565b6069546040517f991cc531d0c7ce0a4a8db8a26f722bbbe727c8f45445520fa447050bb313457f91611c8d916001600160a01b03909116908490613954565b60405180910390a1606980546001600160a01b0319166001600160a01b0392909216919091179055565b6001600160a01b0383166000908152606f6020526040812054849060ff161515600114611cf65760405162461bcd60e51b815260040161087390613e03565b8560006001600160a01b0316606c82604051611d1291906136ed565b908152604051908190036020019020546001600160a01b031603611d485760405162461bcd60e51b815260040161087390613e45565b6033546001600160a01b0316331480611d6b5750606a546001600160a01b031633145b611d875760405162461bcd60e51b815260040161087390613e87565b428511611da65760405162461bcd60e51b815260040161087390613c47565b606c87604051611db691906136ed565b9081526020016040518091039020600401548514611de65760405162461bcd60e51b815260040161087390613ec9565b6000611df188611902565b90506000611e01828989896129f1565b90507f04c12766244f2559dd215eecd69f70fdfce0e2c2260b5d52cb8b63738622eaa481838a604051611e3693929190613ed9565b60405180910390a198975050505050505050565b6033546001600160a01b03163314611e745760405162461bcd60e51b815260040161087390613840565b600a811115611e955760405162461bcd60e51b815260040161087390613f33565b7f5102efe34236afea4a39241911bce7d2001cd809276c20be9dceb33a59c13cc6606b5482604051611ec8929190613f43565b60405180910390a1606b55565b6067546001600160a01b031615801590611ef957506068546001600160a01b031615155b611f155760405162461bcd60e51b815260040161087390613f83565b6001600160a01b03811660009081526074602090815260408083205460759092529091205481151580611f485750600081115b611f645760405162461bcd60e51b815260040161087390613fc5565b606754611f7e906001600160a01b038581169116846127a7565b606854611f98906001600160a01b038581169116836127a7565b50506001600160a01b031660009081526074602090815260408083208390556075909152812055565b816000606c82604051611fd491906136ed565b9081526020016040518091039020600501549050804210156120085760405162461bcd60e51b815260040161087390613729565b8383600061201583611902565b6001600160a01b038181166000908152607060205260409020549192508381169116146120545760405162461bcd60e51b8152600401610873906138a5565b600061205f88611902565b6001600160a01b03811660009081526073602090815260409182902082516080810184528154808252600183015460ff808216151595840195909552610100900490931615159381019390935260020154606083015291925090158015906120c8575080604001515b6120e45760405162461bcd60e51b8152600401610873906138e7565b6020810151156121065760405162461bcd60e51b815260040161087390614007565b3360009081526072602090815260408083206001600160a01b0386168452909152902054806121475760405162461bcd60e51b815260040161087390614049565b60006121538a836126e9565b90506121696001600160a01b038b1633836127a7565b3360009081526072602090815260408083206001600160a01b0388811685529252808320929092559051908b16906121a2908d906136ed565b6040518091039020336001600160a01b03167f03562b7020b16271daf63f8af4dfad66194d3a83359909327c31983326b1287f84604051611b7c9190613103565b61222e6040518060e0016040528060006001600160a01b0316815260200160001515815260200160008152602001600081526020016000815260200160008152602001600081525090565b606c8260405161223e91906136ed565b90815260408051918290036020908101832060e08401835280546001600160a01b038116855260ff600160a01b909104161515918401919091526001810154918301919091526002810154606083015260038101546080830152600481015460a08301526005015460c082015292915050565b606a546001600160a01b031633146122db5760405162461bcd60e51b81526004016108739061408b565b6001600160a01b0380841660009081526072602090815260408083209386168352929052908120805483929061231290849061409b565b90915550506040517feebcbef3192071bb2337eab3d89bd9a6b2cfb3218aae8627e9c1eab826b88ace9061234b908590859085906140b3565b60405180910390a1505050565b606060008361239c576040518060400160405280600181526020017f4c000000000000000000000000000000000000000000000000000000000000008152506123d3565b6040518060400160405280600181526020017f48000000000000000000000000000000000000000000000000000000000000008152505b905060006123e9670de0b6b3a7640000876140f1565b905060006060670de0b6b3a764000088066124058a6012613dba565b61241090600a614213565b61241a90826140f1565b925061242760018b613dba565b61243290600a614213565b8310156124765761244661035b828c612ac2565b61244f84612b35565b604051602001612460929190614222565b6040516020818303038152906040529150612482565b61247f83612b35565b91505b60008b61248e86612b35565b84888b6040516020016124a5959493929190614288565b60408051601f1981840301815291905296505050505050505b95945050505050565b836000606c826040516124da91906136ed565b90815260200160405180910390206004015490508042111561250e5760405162461bcd60e51b8152600401610873906139a1565b8585600061251b83611902565b6001600160a01b0381811660009081526070602052604090205491925083811691161461255a5760405162461bcd60e51b8152600401610873906138a5565b6069546001600160a01b031633146125845760405162461bcd60e51b815260040161087390614320565b600087116125a45760405162461bcd60e51b8152600401610873906139e3565b6125b08989898961282a565b7f99f877ebe25ff1544a89db7db58d9d0b180af2288344cf1792272a4a07fd7c9933878b8b8b6040516125e7959493929190614330565b60405180910390a1505050505050505050565b6033546001600160a01b031633146126245760405162461bcd60e51b815260040161087390613840565b6067546040517f5bbcd5c9a4c18f44ac2b1174e1034735fda1eb2008b8cc091ef347c7f6b9690a91612663916001600160a01b03909116908490613954565b60405180910390a1606780546001600160a01b0319166001600160a01b0392909216919091179055565b6033546001600160a01b031633146126b75760405162461bcd60e51b815260040161087390613840565b6001600160a01b0381166126dd5760405162461bcd60e51b8152600401610873906143c4565b6126e68161299f565b50565b6000806103e86126fb846103de6143d4565b61270591906140f1565b905060006127138285613dba565b90506000600a606b548361272791906143d4565b61273191906140f1565b6001600160a01b03871660009081526074602052604081208054929350839290919061275e90849061409b565b9091555061276e90508183613dba565b6001600160a01b0387166000908152607560205260408120805490919061279690849061409b565b909155509293505050505b92915050565b6114808363a9059cbb60e01b84846040516024016127c6929190613939565b60408051601f198184030181529190526020810180517bffffffffffffffffffffffffffffffffffffffffffffffffffffffff167fffffffff0000000000000000000000000000000000000000000000000000000090931692909217909152612c4e565b600061283585611902565b6001600160a01b03808416600090815260726020908152604080832093851683529290529081208054929350859290919061287190849061409b565b9091555061288c90506001600160a01b038516833086612cdd565b6040517f40c10f1900000000000000000000000000000000000000000000000000000000815281906001600160a01b038216906340c10f19906128d59086908890600401613939565b600060405180830381600087803b1580156128ef57600080fd5b505af1158015612903573d6000803e3d6000fd5b50505050846001600160a01b03168660405161291f91906136ed565b6040518091039020846001600160a01b03167faad69ef0c77f7c04ba3390022ae56a77ba8686b6cd9530eff3a0a8c38d33e5ad876040516129609190613103565b60405180910390a4505050505050565b600054610100900460ff166129975760405162461bcd60e51b81526004016108739061444b565b611980612d04565b603380546001600160a01b038381166001600160a01b0319831681179093556040519116919082907f8be0079c531659141344cd1fd0a4f28419497f9722a3daafe3b4186f6b6457e090600090a35050565b6065546040517f3a5f69f800000000000000000000000000000000000000000000000000000000815260009182916001600160a01b0390911690633a5f69f890612a4590899089908990899060040161445b565b6020604051808303816000875af1158015612a64573d6000803e3d6000fd5b505050506040513d601f19601f82011682018060405250810190612a889190613cc4565b6001600160a01b03878116600090815260706020526040902080546001600160a01b0319169188169190911790559150505b949350505050565b60006010821115612ad557612ad5614483565b5060016000805b83811015612b2d57612aef816010613dba565b612afa90600a614213565b612b0490866140f1565b915081600003612b205782612b1881613a97565b935050612b25565b612b2d565b600101612adc565b505092915050565b606081600003612b5c5750506040805180820190915260018152600360fc1b602082015290565b8160005b8115612b865780612b7081613a97565b9150612b7f9050600a836140f1565b9150612b60565b60008167ffffffffffffffff811115612ba157612ba1612ed8565b6040519080825280601f01601f191660200182016040528015612bcb576020820181803683370190505b5090505b8415612aba57612be0600183613dba565b9150612bed600a86614499565b612bf890603061409b565b60f81b818381518110612c0d57612c0d6139f3565b60200101907effffffffffffffffffffffffffffffffffffffffffffffffffffffffffffff1916908160001a905350612c47600a866140f1565b9450612bcf565b6000612ca3826040518060400160405280602081526020017f5361666545524332303a206c6f772d6c6576656c2063616c6c206661696c6564815250856001600160a01b0316612d349092919063ffffffff16565b8051909150156114805780806020019051810190612cc191906144b8565b6114805760405162461bcd60e51b815260040161087390614531565b612cfe846323b872dd60e01b8585856040516024016127c6939291906140b3565b50505050565b600054610100900460ff16612d2b5760405162461bcd60e51b81526004016108739061444b565b6119803361299f565b6060612d438484600085612d4d565b90505b9392505050565b606082471015612d6f5760405162461bcd60e51b815260040161087390614599565b843b612d8d5760405162461bcd60e51b8152600401610873906145db565b600080866001600160a01b03168587604051612da991906136ed565b60006040518083038185875af1925050503d8060008114612de6576040519150601f19603f3d011682016040523d82523d6000602084013e612deb565b606091505b5091509150612dfb828286612e06565b979650505050505050565b60608315612e15575081612d46565b825115612e255782518084602001fd5b8160405162461bcd60e51b815260040161087391906130ea565b828054612e4b90613791565b90600052602060002090601f016020900481019282612e6d5760008555612eb3565b82601f10612e8657805160ff1916838001178555612eb3565b82800160010185558215612eb3579182015b82811115612eb3578251825591602001919060010190612e98565b50612ebf929150612ec3565b5090565b5b80821115612ebf5760008155600101612ec4565b634e487b7160e01b600052604160045260246000fd5b601f19601f830116810181811067ffffffffffffffff82111715612f1457612f14612ed8565b6040525050565b6000612f2660405190565b905061133c8282612eee565b600067ffffffffffffffff821115612f4c57612f4c612ed8565b601f19601f83011660200192915050565b82818337506000910152565b6000612f7c612f7784612f32565b612f1b565b905082815260208101848484011115612f9757612f97600080fd5b612fa2848285612f5d565b509392505050565b600082601f830112612fbe57612fbe600080fd5b8135612aba848260208601612f69565b600060208284031215612fe357612fe3600080fd5b813567ffffffffffffffff811115612ffd57612ffd600080fd5b612aba84828501612faa565b60006001600160a01b0382166127a1565b61302381613009565b81146126e657600080fd5b80356127a18161301a565b60006020828403121561304e5761304e600080fd5b6000612aba848461302e565b80613023565b80356127a18161305a565b60006020828403121561308057613080600080fd5b6000612aba8484613060565b60005b838110156130a757818101518382015260200161308f565b83811115612cfe5750506000910152565b60006130c2825190565b8084526020840193506130d981856020860161308c565b601f01601f19169290920192915050565b60208082528101612d4681846130b8565b805b82525050565b602081016127a182846130fb565b60008060006060848603121561312957613129600080fd5b833567ffffffffffffffff81111561314357613143600080fd5b61314f86828701612faa565b93505060206131608682870161302e565b925050604061317186828701613060565b9150509250925092565b8015156130fd565b6080810161319182876130fb565b61319e602083018661317b565b6131ab604083018561317b565b6124be60608301846130fb565b6130fd81613009565b80516131cd83826131b8565b5060208101516131e0602084018261317b565b5060408101516131f360408401826130fb565b50606081015161320660608401826130fb565b50608081015161321960808401826130fb565b5060a081015161322c60a08401826130fb565b5060c081015161148060c08401826130fb565b61324982826131c1565b5060e00190565b60200190565b6000613260825190565b808452602093840193830160005b82811015613293578151613282878261323f565b96505060208201915060010161326e565b5093949350505050565b60208082528101612d468184613256565b60e081016132bc828a6131b8565b6132c9602083018961317b565b6132d660408301886130fb565b6132e360608301876130fb565b6132f060808301866130fb565b6132fd60a08301856130fb565b61330a60c08301846130fb565b98975050505050505050565b6000806040838503121561332c5761332c600080fd5b6000613338858561302e565b92505060206133498582860161302e565b9150509250929050565b801515613023565b80356127a181613353565b6000806000806000806000806000806101408b8d03121561338957613389600080fd5b8a3567ffffffffffffffff8111156133a3576133a3600080fd5b6133af8d828e01612faa565b9a505060206133c08d828e0161302e565b99505060406133d18d828e0161335b565b98505060606133e28d828e01613060565b97505060806133f38d828e01613060565b96505060a06134048d828e01613060565b95505060c08b013567ffffffffffffffff81111561342457613424600080fd5b6134308d828e01612faa565b94505060e06134418d828e01613060565b9350506101006134538d828e01613060565b9250506101206134658d828e01613060565b9150509295989b9194979a5092959850565b602081016127a182846131b8565b602081016127a1828461317b565b60006127a182613009565b60006127a182613493565b6130fd8161349e565b602081016127a182846134a9565b600080600080608085870312156134d9576134d9600080fd5b843567ffffffffffffffff8111156134f3576134f3600080fd5b6134ff87828801612faa565b94505060206135108782880161302e565b935050604061352187828801613060565b925050606061353287828801613060565b91505092959194509250565b6000806040838503121561355457613554600080fd5b823567ffffffffffffffff81111561356e5761356e600080fd5b61333885828601612faa565b60e081016127a182846131c1565b6000806000606084860312156135a0576135a0600080fd5b600061314f868661302e565b600080600080600060a086880312156135c7576135c7600080fd5b853567ffffffffffffffff8111156135e1576135e1600080fd5b6135ed88828901612faa565b95505060206135fe88828901613060565b945050604061360f88828901613060565b93505060606136208882890161335b565b925050608086013567ffffffffffffffff81111561364057613640600080fd5b61364c88828901612faa565b9150509295509295909350565b6000806000806080858703121561367257613672600080fd5b843567ffffffffffffffff81111561368c5761368c600080fd5b61369887828801612faa565b94505060206136a98782880161302e565b93505060406136ba87828801613060565b92505060606135328782880161302e565b60006136d5825190565b6136e381856020860161308c565b9290920192915050565b6127a181836136cb565b60158152602081017f4e6f7420726561636820736574746c652074696d65000000000000000000000081529050613250565b602080825281016127a1816136f7565b600f8152602081017f416c726561647920736574746c6564000000000000000000000000000000000081529050613250565b602080825281016127a181613739565b634e487b7160e01b600052602260045260246000fd5b6002810460018216806137a557607f821691505b602082108103610cfa57610cfa61377b565b80516127a18161305a565b6000602082840312156137d7576137d7600080fd5b6000612aba84846137b7565b606080825281016137f481866130b8565b905061380360208301856130fb565b612aba604083018461317b565b60208082527f4f776e61626c653a2063616c6c6572206973206e6f7420746865206f776e65729101908152613250565b602080825281016127a181613810565b600360fc1b81525b60010190565b61386881836136cb565b90506127a181613850565b601e8152602081017f496e76616c696420706f6c696379746f6b656e26737461626c65636f696e000081529050613250565b602080825281016127a181613873565b601e8152602081017f48617665206e6f7420676f7420746865206f7261636c6520726573756c74000081529050613250565b602080825281016127a1816138b5565b60118152602081017f4576656e74206d7573742068617070656e00000000000000000000000000000081529050613250565b602080825281016127a1816138f7565b6040810161394782856131b8565b612d4660208301846130fb565b6040810161396282856131b8565b612d4660208301846131b8565b600f8152602081017f446561646c696e6520706173736564000000000000000000000000000000000081529050613250565b602080825281016127a18161396f565b600b8152602081017f5a65726f20416d6f756e7400000000000000000000000000000000000000000081529050613250565b602080825281016127a1816139b1565b634e487b7160e01b600052603260045260246000fd5b60008154613a1681613791565b600182168015613a2d5760018114613a3e57613a6e565b60ff19831686528186019350613a6e565b60008581526020902060005b83811015613a6657815488820152600190910190602001613a4a565b505081860193505b50505092915050565b6127a18183613a09565b634e487b7160e01b600052601160045260246000fd5b600060018201613aa957613aa9613a81565b5060010190565b60158152602081017f506f6c696379206e616d65206e6f7420666f756e64000000000000000000000081529050613250565b602080825281016127a181613ab0565b602e8152602081017f496e697469616c697a61626c653a20636f6e747261637420697320616c72656181527f647920696e697469616c697a6564000000000000000000000000000000000000602082015290505b60400190565b602080825281016127a181613af2565b60118152602081017f546f6f206d616e7920646563696d616c7300000000000000000000000000000081529050613250565b602080825281016127a181613b5c565b60ff8116613023565b80516127a181613b9e565b600060208284031215613bc757613bc7600080fd5b6000612aba8484613ba7565b60138152602081017f446563696d616c73206e6f74207061697265640000000000000000000000000081529050613250565b602080825281016127a181613bd3565b600e8152602081017f57726f6e6720646561646c696e6500000000000000000000000000000000000081529050613250565b602080825281016127a181613c15565b60158152602081017f57726f6e6720736574746c6554696d657374616d70000000000000000000000081529050613250565b602080825281016127a181613c57565b60408082528101613caa81856130b8565b9050612d4660208301846130fb565b80516127a18161301a565b600060208284031215613cd957613cd9600080fd5b6000612aba8484613cb9565b60a08082528101613cf681886130b8565b9050613d0560208301876131b8565b613d1260408301866130fb565b613d1f60608301856130fb565b613d2c60808301846130fb565b9695505050505050565b60168152602081017f506f6c69637920746f6b656e206e6f7420666f756e640000000000000000000081529050613250565b602080825281016127a181613d36565b601b8152602081017f5573657227732071756f7461206e6f742073756666696369656e74000000000081529050613250565b602080825281016127a181613d78565b600082821015613dcc57613dcc613a81565b500390565b60168152602081017f537461626c65636f696e206e6f7420737570706f72740000000000000000000081529050613250565b602080825281016127a181613dd1565b60188152602081017f506f6c696379746f6b656e206e6f74206465706c6f796564000000000000000081529050613250565b602080825281016127a181613e13565b60118152602081017f4f6e6c79206f776e6572206f7220494c4d00000000000000000000000000000081529050613250565b602080825281016127a181613e55565b60128152602081017f446966666572656e7420646561646c696e65000000000000000000000000000081529050613250565b602080825281016127a181613e97565b60608101613ee782866131b8565b613ef460208301856131b8565b612aba60408301846131b8565b60068152602081017f4d6178203130000000000000000000000000000000000000000000000000000081529050613250565b602080825281016127a181613f01565b6040810161394782856130fb565b601d8152602081017f4e6f7420736574206c6f74746572792f696e636f6d6553686172696e6700000081529050613250565b602080825281016127a181613f51565b60118152602081017f4e6f2070656e64696e6720696e636f6d6500000000000000000000000000000081529050613250565b602080825281016127a181613f93565b60158152602081017f4576656e74206d757374206e6f742068617070656e000000000000000000000081529050613250565b602080825281016127a181613fd5565b60088152602081017f4e6f2071756f746100000000000000000000000000000000000000000000000081529050613250565b602080825281016127a181614017565b60088152602081017f4f6e6c7920494c4d00000000000000000000000000000000000000000000000081529050613250565b602080825281016127a181614059565b600082198211156140ae576140ae613a81565b500190565b606081016140c182866131b8565b6140ce60208301856131b8565b612aba60408301846130fb565b634e487b7160e01b600052601260045260246000fd5b600082614100576141006140db565b500490565b80825b60018511156141445780860481111561412357614123613a81565b600185161561413157908102905b800261413d8560011c90565b9450614108565b94509492505050565b60008261415c57506001612d46565b8161416957506000612d46565b816001811461417f5760028114614189576141b6565b6001915050612d46565b60ff84111561419a5761419a613a81565b8360020a9150848211156141b0576141b0613a81565b50612d46565b5060208310610133831016604e8410600b84101617156141e9575081810a838111156141e4576141e4613a81565b612d46565b6141f68484846001614105565b9250905081840481111561420c5761420c613a81565b0292915050565b6000612d46600019848461414d565b61422c81846136cb565b9050612d4681836136cb565b7f5f000000000000000000000000000000000000000000000000000000000000008152613858565b7f2e000000000000000000000000000000000000000000000000000000000000008152613858565b61429281876136cb565b905061429d81614238565b90506142a981866136cb565b90506142b481614260565b90506142c081856136cb565b90506142cb81614238565b90506142d781846136cb565b90506142e281614238565b9050613d2c81836136cb565b60188152602081017f4f6e6c7920726f757465722063616e2064656c6567617465000000000000000081529050613250565b602080825281016127a1816142ee565b60a0810161433e82886131b8565b61434b60208301876131b8565b818103604083015261435d81866130b8565b9050613d1f60608301856131b8565b60268152602081017f4f776e61626c653a206e6577206f776e657220697320746865207a65726f206181527f646472657373000000000000000000000000000000000000000000000000000060208201529050613b46565b602080825281016127a18161436c565b60008160001904831182151516156143ee576143ee613a81565b500290565b602b8152602081017f496e697469616c697a61626c653a20636f6e7472616374206973206e6f74206981527f6e697469616c697a696e6700000000000000000000000000000000000000000060208201529050613b46565b602080825281016127a1816143f3565b6080810161446982876131b8565b61447660208301866131b8565b6131ab60408301856130fb565b634e487b7160e01b600052600160045260246000fd5b6000826144a8576144a86140db565b500690565b80516127a181613353565b6000602082840312156144cd576144cd600080fd5b6000612aba84846144ad565b602a8152602081017f5361666545524332303a204552433230206f7065726174696f6e20646964206e81527f6f7420737563636565640000000000000000000000000000000000000000000060208201529050613b46565b602080825281016127a1816144d9565b60268152602081017f416464726573733a20696e73756666696369656e742062616c616e636520666f81527f722063616c6c000000000000000000000000000000000000000000000000000060208201529050613b46565b602080825281016127a181614541565b601d8152602081017f416464726573733a2063616c6c20746f206e6f6e2d636f6e747261637400000081529050613250565b602080825281016127a1816145a956fea26469706673582212208498c159292280faac7fdb99aa346b4e753fc2fccb1cce161a57de639ed0cb1a64736f6c634300080d0033",
  "devdoc": {
    "details": "Most of the functions to be called from outside will use the name of policyToken         rather than the address (easy to read).         Other variables or functions still use address to index.         The rule of policyToken naming is:              Original Token Name(with decimals) + Strike Price + Lower or Higher + Date         E.g.  AVAX_30.0_L_2101, BTC_30000.0_L_2102, ETH_8000.0_H_2109         (the original name need to be the same as in the chainlink oracle)         There are three decimals for a policy token:              1. Name decimals: Only for generating the name of policyToken              2. Token decimals: The decimals of the policyToken                 (should be the same as the paired stablecoin)              3. Price decimals: Always 18. The oracle result will be transferred for settlement",
    "kind": "dev",
    "methods": {
      "_generateName(string,uint256,uint256,bool,string)": {
        "params": {
          "_decimals": "Decimals of the name generation (0,1=>1, 2=>2)",
          "_isCall": "The policy's payoff is triggered when higher(true) or lower(false)",
          "_round": "Round of the policy, named by <month><day> (e.g. 0320, 1215)",
          "_strikePrice": "Strike price of the policy (18 decimals)",
          "_tokenName": "Name of the stike token (BTC, ETH, AVAX...)"
        }
      },
      "addStablecoin(address)": {
        "params": {
          "_newStablecoin": "Address of the new stablecoin"
        }
      },
      "claim(string,address,uint256)": {
        "details": "It is done after result settlement and only if the result is true",
        "params": {
          "_amount": "Amount of stablecoin",
          "_policyTokenName": "Name of the policy token",
          "_stablecoin": "Address of the stable coin"
        }
      },
      "collectIncome(address)": {
        "details": "Can be done by anyone, only when there is some income to be distributed      For each stablecoin, this function need to called separately",
        "params": {
          "_stablecoin": "Address of stablecoin"
        }
      },
      "delegateDeposit(string,address,uint256,address)": {
        "details": "Only called by the router contract",
        "params": {
          "_amount": "Amount of stablecoin",
          "_policyTokenName": "Name of the policy token",
          "_stablecoin": "Address of the sable coin",
          "_user": "Address to receive the policy tokens"
        }
      },
      "deployPolicyToken(string,address,bool,uint256,uint256,uint256,string,uint256,uint256,uint256)": {
        "details": "Only the owner can deploy new policy tokens.      The name form is like \"Token_Price_Direction_Date\" (\"AVAX_50_L_2203\") and is built inside the contract.      Name decimals and token decimals are different here.      Token decimals = Stablecoin decimals      For normal tokens: The original token name should be the same in Chainlink PriceFeeds.                         Those tokens that are not listed on Chainlink are not supported.      For DEX tokens:    The original token should have a valid DEX pair and be manually set in IDOPriceGetter.      For arbitrary tokens: The original token's price source should be manually set in ArbitraryPriceGetter.",
        "params": {
          "_deadline": "Deadline of this policy token (deposit / redeem / swap)",
          "_isCall": "The policy is for higher or lower than the strike price (call / put)",
          "_nameDecimals": "Decimals of this token's name (0~18)",
          "_poolType": "_poolType: 0 normal 1 IDO 2 arbitrary",
          "_round": "Round of the token (e.g. 2203 -> expired at 22 March)",
          "_settleTimestamp": "Can settle after this timestamp (for oracle)",
          "_stablecoin": "Address of the stablecoin (check decimals here, should be the same stablecoin when deploying pools)",
          "_strikePrice": "Strike price of the policy (have already been transferred with 1e18)",
          "_tokenDecimals": "Decimals of this token's value (0~18) (same as paired stablecoin)",
          "_tokenName": "Name of the original token (e.g. AVAX, BTC, ETH...)"
        }
      },
      "deployPool(string,address,uint256,uint256)": {
        "params": {
          "_feeRate": "Fee rate given to LP holders.",
          "_policyTokenName": "Name of the policy token.",
          "_poolDeadline": "Swapping deadline of the pool (normally the same as the token's deadline).",
          "_stablecoin": "Address of the stable coin."
        }
      },
      "deposit(string,address,uint256)": {
        "params": {
          "_amount": "Amount of stablecoin",
          "_policyTokenName": "Name of the policy token",
          "_stablecoin": "Address of the stable coin"
        }
      },
      "findAddressbyName(string)": {
        "params": {
          "_policyTokenName": "Name of the policy token (e.g. \"AVAX_30_L_2103\")"
        },
        "returns": {
          "policyTokenAddress": "Address of the policy token"
        }
      },
      "findNamebyAddress(address)": {
        "params": {
          "_policyTokenAddress": "Address of the policy token"
        },
        "returns": {
          "policyTokenName": "Name of the policy token"
        }
      },
      "getAllTokens()": {
        "details": "Include all active&expired tokens",
        "returns": {
          "_0": "tokensInfo Token information list"
        }
      },
      "getPolicyTokenInfo(string)": {
        "params": {
          "_policyTokenName": "Name of the policy token (e.g. \"AVAX30L202103\")"
        },
        "returns": {
          "_0": "policyTokenInfo PolicyToken detail information"
        }
      },
      "getUserQuota(address,address)": {
        "params": {
          "_policyTokenAddress": "Address of the policy token",
          "_user": "Address of the user to be checked"
        },
        "returns": {
          "_quota": "User's quota result"
        }
      },
      "initialize(address,address)": {
        "params": {
          "_factory": "Address of naughty factory",
          "_priceGetter": "Address of the oracle contract"
        }
      },
      "owner()": {
        "details": "Returns the address of the current owner."
      },
      "redeem(string,address,uint256)": {
        "details": "Redeem happens before the deadline and is different from claim/settle",
        "params": {
          "_amount": "Amount to redeem",
          "_policyTokenName": "Name of the policy token",
          "_stablecoin": "Address of the stablecoin"
        }
      },
      "redeemAfterSettlement(string,address)": {
        "params": {
          "_policyTokenName": "Name of the policy token",
          "_stablecoin": "Address of the stablecoin"
        }
      },
      "renounceOwnership()": {
        "details": "Leaves the contract without owner. It will not be possible to call `onlyOwner` functions anymore. Can only be called by the current owner. NOTE: Renouncing ownership will leave the contract without an owner, thereby removing any functionality that is only available to the owner."
      },
      "setIDOPriceGetter(address)": {
        "params": {
          "_idoPriceGetter": "Address of the new IDO price getter contract"
        }
      },
      "setILMContract(address)": {
        "params": {
          "_ILM": "Address of the new ILM"
        }
      },
      "setIncomeSharing(address)": {
        "params": {
          "_incomeSharing": "Address of the new incomeSharing"
        }
      },
      "setIncomeToLottery(uint256)": {
        "details": "The remaining part will be distributed to incomeSharing",
        "params": {
          "_toLottery": "Proportion to lottery"
        }
      },
      "setLottery(address)": {
        "params": {
          "_lotteryAddress": "Address of the new lottery"
        }
      },
      "setNaughtyRouter(address)": {
        "params": {
          "_router": "Address of the new naughty router"
        }
      },
      "settleFinalResult(string)": {
        "params": {
          "_policyTokenName": "Name of the policy token"
        }
      },
      "transferOwnership(address)": {
        "details": "Transfers ownership of the contract to a new account (`newOwner`). Can only be called by the current owner."
      },
      "updateUserQuota(address,address,uint256)": {
        "details": "When you claim your liquidity from ILM, you will get normal quota as you are using policyCore",
        "params": {
          "_amount": "Quota amount",
          "_policyToken": "PolicyToken address",
          "_user": "User address"
        }
      }
    },
    "title": "PolicyCore",
    "version": 1
  },
  "userdoc": {
    "kind": "user",
    "methods": {
      "_generateName(string,uint256,uint256,bool,string)": {
        "notice": "Generate the policy token name"
      },
      "addStablecoin(address)": {
        "notice": "Add a new supported stablecoin"
      },
      "claim(string,address,uint256)": {
        "notice": "Claim a payoff based on policy tokens"
      },
      "collectIncome(address)": {
        "notice": "Collect the income"
      },
      "delegateDeposit(string,address,uint256,address)": {
        "notice": "Delegate deposit (deposit and mint for other addresses)"
      },
      "deployPolicyToken(string,address,bool,uint256,uint256,uint256,string,uint256,uint256,uint256)": {
        "notice": "Deploy a new policy token and return the token address."
      },
      "deployPool(string,address,uint256,uint256)": {
        "notice": "Deploy a new pair (pool).         The policy token should be already deployed.         Caller can be the owner or ILM contract."
      },
      "deposit(string,address,uint256)": {
        "notice": "Deposit stablecoins and get policy tokens"
      },
      "findAddressbyName(string)": {
        "notice": "Find the token address by its name"
      },
      "findNamebyAddress(address)": {
        "notice": "Find the token name by its address"
      },
      "getAllTokens()": {
        "notice": "Get the information about all the tokens"
      },
      "getPolicyTokenInfo(string)": {
        "notice": "Find the token information by its name"
      },
      "getUserQuota(address,address)": {
        "notice": "Get a user's quota for a certain policy token"
      },
      "initialize(address,address)": {
        "notice": "Constructor, for some addresses"
      },
      "redeem(string,address,uint256)": {
        "notice": "Burn policy tokens and redeem stablecoins"
      },
      "redeemAfterSettlement(string,address)": {
        "notice": "Redeem policy tokens and get stablecoins by the user himeself"
      },
      "setIDOPriceGetter(address)": {
        "notice": "Set IDO price getter contract"
      },
      "setILMContract(address)": {
        "notice": "Change the address of ILM"
      },
      "setIncomeSharing(address)": {
        "notice": "Change the address of emergency pool"
      },
      "setIncomeToLottery(uint256)": {
        "notice": "Change the income part to lottery"
      },
      "setLottery(address)": {
        "notice": "Change the address of lottery"
      },
      "setNaughtyRouter(address)": {
        "notice": "Change the address of naughty router"
      },
      "settleFinalResult(string)": {
        "notice": "Get the final price from the PriceGetter contract"
      },
      "updateUserQuota(address,address,uint256)": {
        "notice": "Update user quota from ILM when claim"
      }
    },
    "notice": "Core logic of Naughty Price Product         Preset:              (Done in the naughtyFactory contract)              1. Deploy policyToken contract              2. Deploy policyToken-Stablecoin pool contract         User Interaction:              1. Deposit Stablecoin and mint PolicyTokens              2. Redeem their Stablecoin and burn the PolicyTokens (before settlement)              3. Claim for payout with PolicyTokens (after settlement)         PolicyTokens are minted with the ratio 1:1 to Stablecoin         The PolicyTokens are traded in the pool with CFMM (xy=k)         When the event happens, a PolicyToken can be burned for claiming 1 Stablecoin.         When the event does not happen, the PolicyToken depositors can         redeem their 1 deposited Stablecoin",
    "version": 1
  },
  "storageLayout": {
    "storage": [
      {
        "astId": 323,
        "contract": "contracts/naughty-price/PolicyCore.sol:PolicyCore",
        "label": "_initialized",
        "offset": 0,
        "slot": "0",
        "type": "t_bool"
      },
      {
        "astId": 326,
        "contract": "contracts/naughty-price/PolicyCore.sol:PolicyCore",
        "label": "_initializing",
        "offset": 1,
        "slot": "0",
        "type": "t_bool"
      },
      {
        "astId": 1560,
        "contract": "contracts/naughty-price/PolicyCore.sol:PolicyCore",
        "label": "__gap",
        "offset": 0,
        "slot": "1",
        "type": "t_array(t_uint256)50_storage"
      },
      {
        "astId": 203,
        "contract": "contracts/naughty-price/PolicyCore.sol:PolicyCore",
        "label": "_owner",
        "offset": 0,
        "slot": "51",
        "type": "t_address"
      },
      {
        "astId": 315,
        "contract": "contracts/naughty-price/PolicyCore.sol:PolicyCore",
        "label": "__gap",
        "offset": 0,
        "slot": "52",
        "type": "t_array(t_uint256)49_storage"
      },
      {
        "astId": 21329,
        "contract": "contracts/naughty-price/PolicyCore.sol:PolicyCore",
        "label": "factory",
        "offset": 0,
        "slot": "101",
        "type": "t_contract(INaughtyFactory)23417"
      },
      {
        "astId": 21332,
        "contract": "contracts/naughty-price/PolicyCore.sol:PolicyCore",
        "label": "priceGetter",
        "offset": 0,
        "slot": "102",
        "type": "t_contract(IPriceGetter)23692"
      },
      {
        "astId": 21334,
        "contract": "contracts/naughty-price/PolicyCore.sol:PolicyCore",
        "label": "lottery",
        "offset": 0,
        "slot": "103",
        "type": "t_address"
      },
      {
        "astId": 21336,
        "contract": "contracts/naughty-price/PolicyCore.sol:PolicyCore",
        "label": "incomeSharing",
        "offset": 0,
        "slot": "104",
        "type": "t_address"
      },
      {
        "astId": 21338,
        "contract": "contracts/naughty-price/PolicyCore.sol:PolicyCore",
        "label": "naughtyRouter",
        "offset": 0,
        "slot": "105",
        "type": "t_address"
      },
      {
        "astId": 21340,
        "contract": "contracts/naughty-price/PolicyCore.sol:PolicyCore",
        "label": "ILMContract",
        "offset": 0,
        "slot": "106",
        "type": "t_address"
      },
      {
        "astId": 21342,
        "contract": "contracts/naughty-price/PolicyCore.sol:PolicyCore",
        "label": "toLotteryPart",
        "offset": 0,
        "slot": "107",
        "type": "t_uint256"
      },
      {
        "astId": 21362,
        "contract": "contracts/naughty-price/PolicyCore.sol:PolicyCore",
        "label": "policyTokenInfoMapping",
        "offset": 0,
        "slot": "108",
        "type": "t_mapping(t_string_memory_ptr,t_struct(PolicyTokenInfo)21357_storage)"
      },
      {
        "astId": 21366,
        "contract": "contracts/naughty-price/PolicyCore.sol:PolicyCore",
        "label": "policyTokenAddressToName",
        "offset": 0,
        "slot": "109",
        "type": "t_mapping(t_address,t_string_storage)"
      },
      {
        "astId": 21369,
        "contract": "contracts/naughty-price/PolicyCore.sol:PolicyCore",
        "label": "allPolicyTokens",
        "offset": 0,
        "slot": "110",
        "type": "t_array(t_string_storage)dyn_storage"
      },
      {
        "astId": 21373,
        "contract": "contracts/naughty-price/PolicyCore.sol:PolicyCore",
        "label": "supportedStablecoin",
        "offset": 0,
        "slot": "111",
        "type": "t_mapping(t_address,t_bool)"
      },
      {
        "astId": 21377,
        "contract": "contracts/naughty-price/PolicyCore.sol:PolicyCore",
        "label": "whichStablecoin",
        "offset": 0,
        "slot": "112",
        "type": "t_mapping(t_address,t_address)"
      },
      {
        "astId": 21381,
        "contract": "contracts/naughty-price/PolicyCore.sol:PolicyCore",
        "label": "policyTokenToOriginal",
        "offset": 0,
        "slot": "113",
        "type": "t_mapping(t_address,t_string_storage)"
      },
      {
        "astId": 21387,
        "contract": "contracts/naughty-price/PolicyCore.sol:PolicyCore",
        "label": "userQuota",
        "offset": 0,
        "slot": "114",
        "type": "t_mapping(t_address,t_mapping(t_address,t_uint256))"
      },
      {
        "astId": 21401,
        "contract": "contracts/naughty-price/PolicyCore.sol:PolicyCore",
        "label": "settleResult",
        "offset": 0,
        "slot": "115",
        "type": "t_mapping(t_address,t_struct(SettlementInfo)21396_storage)"
      },
      {
        "astId": 21405,
        "contract": "contracts/naughty-price/PolicyCore.sol:PolicyCore",
        "label": "pendingIncomeToLottery",
        "offset": 0,
        "slot": "116",
        "type": "t_mapping(t_address,t_uint256)"
      },
      {
        "astId": 21409,
        "contract": "contracts/naughty-price/PolicyCore.sol:PolicyCore",
        "label": "pendingIncomeToSharing",
        "offset": 0,
        "slot": "117",
        "type": "t_mapping(t_address,t_uint256)"
      },
      {
        "astId": 21413,
        "contract": "contracts/naughty-price/PolicyCore.sol:PolicyCore",
        "label": "isIDOPool",
        "offset": 0,
        "slot": "118",
        "type": "t_mapping(t_string_memory_ptr,t_bool)"
      },
      {
        "astId": 21416,
        "contract": "contracts/naughty-price/PolicyCore.sol:PolicyCore",
        "label": "idoPriceGetter",
        "offset": 0,
        "slot": "119",
        "type": "t_contract(IPriceGetter)23692"
      },
      {
        "astId": 21420,
        "contract": "contracts/naughty-price/PolicyCore.sol:PolicyCore",
        "label": "isArbitraryPool",
        "offset": 0,
        "slot": "120",
        "type": "t_mapping(t_string_memory_ptr,t_bool)"
      },
      {
        "astId": 21423,
        "contract": "contracts/naughty-price/PolicyCore.sol:PolicyCore",
        "label": "arbitraryPriceGetter",
        "offset": 0,
        "slot": "121",
        "type": "t_contract(IPriceGetter)23692"
      }
    ],
    "types": {
      "t_address": {
        "encoding": "inplace",
        "label": "address",
        "numberOfBytes": "20"
      },
      "t_array(t_string_storage)dyn_storage": {
        "base": "t_string_storage",
        "encoding": "dynamic_array",
        "label": "string[]",
        "numberOfBytes": "32"
      },
      "t_array(t_uint256)49_storage": {
        "base": "t_uint256",
        "encoding": "inplace",
        "label": "uint256[49]",
        "numberOfBytes": "1568"
      },
      "t_array(t_uint256)50_storage": {
        "base": "t_uint256",
        "encoding": "inplace",
        "label": "uint256[50]",
        "numberOfBytes": "1600"
      },
      "t_bool": {
        "encoding": "inplace",
        "label": "bool",
        "numberOfBytes": "1"
      },
      "t_contract(INaughtyFactory)23417": {
        "encoding": "inplace",
        "label": "contract INaughtyFactory",
        "numberOfBytes": "20"
      },
      "t_contract(IPriceGetter)23692": {
        "encoding": "inplace",
        "label": "contract IPriceGetter",
        "numberOfBytes": "20"
      },
      "t_mapping(t_address,t_address)": {
        "encoding": "mapping",
        "key": "t_address",
        "label": "mapping(address => address)",
        "numberOfBytes": "32",
        "value": "t_address"
      },
      "t_mapping(t_address,t_bool)": {
        "encoding": "mapping",
        "key": "t_address",
        "label": "mapping(address => bool)",
        "numberOfBytes": "32",
        "value": "t_bool"
      },
      "t_mapping(t_address,t_mapping(t_address,t_uint256))": {
        "encoding": "mapping",
        "key": "t_address",
        "label": "mapping(address => mapping(address => uint256))",
        "numberOfBytes": "32",
        "value": "t_mapping(t_address,t_uint256)"
      },
      "t_mapping(t_address,t_string_storage)": {
        "encoding": "mapping",
        "key": "t_address",
        "label": "mapping(address => string)",
        "numberOfBytes": "32",
        "value": "t_string_storage"
      },
      "t_mapping(t_address,t_struct(SettlementInfo)21396_storage)": {
        "encoding": "mapping",
        "key": "t_address",
        "label": "mapping(address => struct PolicyCore.SettlementInfo)",
        "numberOfBytes": "32",
        "value": "t_struct(SettlementInfo)21396_storage"
      },
      "t_mapping(t_address,t_uint256)": {
        "encoding": "mapping",
        "key": "t_address",
        "label": "mapping(address => uint256)",
        "numberOfBytes": "32",
        "value": "t_uint256"
      },
      "t_mapping(t_string_memory_ptr,t_bool)": {
        "encoding": "mapping",
        "key": "t_string_memory_ptr",
        "label": "mapping(string => bool)",
        "numberOfBytes": "32",
        "value": "t_bool"
      },
      "t_mapping(t_string_memory_ptr,t_struct(PolicyTokenInfo)21357_storage)": {
        "encoding": "mapping",
        "key": "t_string_memory_ptr",
        "label": "mapping(string => struct PolicyCore.PolicyTokenInfo)",
        "numberOfBytes": "32",
        "value": "t_struct(PolicyTokenInfo)21357_storage"
      },
      "t_string_memory_ptr": {
        "encoding": "bytes",
        "label": "string",
        "numberOfBytes": "32"
      },
      "t_string_storage": {
        "encoding": "bytes",
        "label": "string",
        "numberOfBytes": "32"
      },
      "t_struct(PolicyTokenInfo)21357_storage": {
        "encoding": "inplace",
        "label": "struct PolicyCore.PolicyTokenInfo",
        "members": [
          {
            "astId": 21344,
            "contract": "contracts/naughty-price/PolicyCore.sol:PolicyCore",
            "label": "policyTokenAddress",
            "offset": 0,
            "slot": "0",
            "type": "t_address"
          },
          {
            "astId": 21346,
            "contract": "contracts/naughty-price/PolicyCore.sol:PolicyCore",
            "label": "isCall",
            "offset": 20,
            "slot": "0",
            "type": "t_bool"
          },
          {
            "astId": 21348,
            "contract": "contracts/naughty-price/PolicyCore.sol:PolicyCore",
            "label": "nameDecimals",
            "offset": 0,
            "slot": "1",
            "type": "t_uint256"
          },
          {
            "astId": 21350,
            "contract": "contracts/naughty-price/PolicyCore.sol:PolicyCore",
            "label": "tokenDecimals",
            "offset": 0,
            "slot": "2",
            "type": "t_uint256"
          },
          {
            "astId": 21352,
            "contract": "contracts/naughty-price/PolicyCore.sol:PolicyCore",
            "label": "strikePrice",
            "offset": 0,
            "slot": "3",
            "type": "t_uint256"
          },
          {
            "astId": 21354,
            "contract": "contracts/naughty-price/PolicyCore.sol:PolicyCore",
            "label": "deadline",
            "offset": 0,
            "slot": "4",
            "type": "t_uint256"
          },
          {
            "astId": 21356,
            "contract": "contracts/naughty-price/PolicyCore.sol:PolicyCore",
            "label": "settleTimestamp",
            "offset": 0,
            "slot": "5",
            "type": "t_uint256"
          }
        ],
        "numberOfBytes": "192"
      },
      "t_struct(SettlementInfo)21396_storage": {
        "encoding": "inplace",
        "label": "struct PolicyCore.SettlementInfo",
        "members": [
          {
            "astId": 21389,
            "contract": "contracts/naughty-price/PolicyCore.sol:PolicyCore",
            "label": "price",
            "offset": 0,
            "slot": "0",
            "type": "t_uint256"
          },
          {
            "astId": 21391,
            "contract": "contracts/naughty-price/PolicyCore.sol:PolicyCore",
            "label": "isHappened",
            "offset": 0,
            "slot": "1",
            "type": "t_bool"
          },
          {
            "astId": 21393,
            "contract": "contracts/naughty-price/PolicyCore.sol:PolicyCore",
            "label": "alreadySettled",
            "offset": 1,
            "slot": "1",
            "type": "t_bool"
          },
          {
            "astId": 21395,
            "contract": "contracts/naughty-price/PolicyCore.sol:PolicyCore",
            "label": "currentDistributionIndex",
            "offset": 0,
            "slot": "2",
            "type": "t_uint256"
          }
        ],
        "numberOfBytes": "96"
      },
      "t_uint256": {
        "encoding": "inplace",
        "label": "uint256",
        "numberOfBytes": "32"
      }
    }
  }
}