{
  "address": "0x1bCf3Dbf835b2D2d1fFE44502907436cA508942b",
  "abi": [
    {
      "anonymous": false,
      "inputs": [
        {
          "indexed": false,
          "internalType": "string",
          "name": "policyToken",
          "type": "string"
        },
        {
          "indexed": false,
          "internalType": "address",
          "name": "contractAddress",
          "type": "address"
        },
        {
          "indexed": false,
          "internalType": "string",
          "name": "functionSignature",
          "type": "string"
        }
      ],
      "name": "NewPair",
      "type": "event"
    },
    {
      "anonymous": false,
      "inputs": [
        {
          "indexed": true,
          "internalType": "address",
          "name": "previousOwner",
          "type": "address"
        },
        {
          "indexed": true,
          "internalType": "address",
          "name": "newOwner",
          "type": "address"
        }
      ],
      "name": "OwnershipTransferred",
      "type": "event"
    },
    {
      "anonymous": false,
      "inputs": [
        {
          "indexed": false,
          "internalType": "string",
          "name": "policyToken",
          "type": "string"
        },
        {
          "indexed": false,
          "internalType": "uint256",
          "name": "price",
          "type": "uint256"
        }
      ],
      "name": "SamplePrice",
      "type": "event"
    },
    {
      "inputs": [
        {
          "internalType": "string",
          "name": "_policyToken",
          "type": "string"
        },
        {
          "internalType": "address",
          "name": "_contractAddress",
          "type": "address"
        },
        {
          "internalType": "string",
          "name": "_functionSignature",
          "type": "string"
        },
        {
          "internalType": "bytes",
          "name": "_calldata",
          "type": "bytes"
        }
      ],
      "name": "addPair",
      "outputs": [],
      "stateMutability": "nonpayable",
      "type": "function"
    },
    {
      "inputs": [
        {
          "internalType": "string",
          "name": "_policyToken",
          "type": "string"
        }
      ],
      "name": "getLatestPrice",
      "outputs": [
        {
          "internalType": "uint256",
          "name": "price",
          "type": "uint256"
        }
      ],
      "stateMutability": "nonpayable",
      "type": "function"
    },
    {
      "inputs": [
        {
          "internalType": "address",
          "name": "_policyCore",
          "type": "address"
        }
      ],
      "name": "initialize",
      "outputs": [],
      "stateMutability": "nonpayable",
      "type": "function"
    },
    {
      "inputs": [],
      "name": "owner",
      "outputs": [
        {
          "internalType": "address",
          "name": "",
          "type": "address"
        }
      ],
      "stateMutability": "view",
      "type": "function"
    },
    {
      "inputs": [],
      "name": "policyCore",
      "outputs": [
        {
          "internalType": "contract IPolicyCore",
          "name": "",
          "type": "address"
        }
      ],
      "stateMutability": "view",
      "type": "function"
    },
    {
      "inputs": [
        {
          "internalType": "string",
          "name": "",
          "type": "string"
        }
      ],
      "name": "priceFeeds",
      "outputs": [
        {
          "internalType": "address",
          "name": "contractAddress",
          "type": "address"
        },
        {
          "internalType": "string",
          "name": "functionSignature",
          "type": "string"
        },
        {
          "internalType": "bytes",
          "name": "callData",
          "type": "bytes"
        }
      ],
      "stateMutability": "view",
      "type": "function"
    },
    {
      "inputs": [],
      "name": "renounceOwnership",
      "outputs": [],
      "stateMutability": "nonpayable",
      "type": "function"
    },
    {
      "inputs": [
        {
          "internalType": "address",
          "name": "newOwner",
          "type": "address"
        }
      ],
      "name": "transferOwnership",
      "outputs": [],
      "stateMutability": "nonpayable",
      "type": "function"
    }
  ],
  "transactionHash": "0x5f466f739c402cbe61ec70a6b6452f33c9d58a79ba118fea9c4dd31165179053",
  "args": [],
  "numDeployments": 2,
  "solcInputHash": "e0a1c79b2530fd08d454bf8582f3e071",
  "bytecode": "0x608060405234801561001057600080fd5b50611243806100206000396000f3fe608060405234801561001057600080fd5b50600436106100885760003560e01c8063cb8ae86c1161005b578063cb8ae86c146100df578063e30145e014610101578063f2fde38b14610121578063f66a1b711461013457600080fd5b8063715018a61461008d5780638da5cb5b14610097578063b19e9814146100b9578063c4d66de8146100cc575b600080fd5b610095610154565b005b6033546001600160a01b03166040516100b091906109a2565b60405180910390f35b6100956100c7366004610a21565b610193565b6100956100da366004610ae3565b61040a565b6100f26100ed366004610c07565b6104ad565b6040516100b093929190610ca4565b606554610114906001600160a01b031681565b6040516100b09190610d11565b61009561012f366004610ae3565b6105f5565b610147610142366004610d1f565b610651565b6040516100b09190610d6d565b6033546001600160a01b031633146101875760405162461bcd60e51b815260040161017e90610dad565b60405180910390fd5b610191600061082e565b565b6033546001600160a01b031633146101bd5760405162461bcd60e51b815260040161017e90610dad565b60006001600160a01b0316606688886040516101da929190610dcd565b908152604051908190036020019020546001600160a01b0316146102105760405162461bcd60e51b815260040161017e90610e11565b600060668888604051610224929190610dcd565b90815260405190819003602001902080546001600160a01b03881673ffffffffffffffffffffffffffffffffffffffff19909116178155905061026b6001820186866108e7565b5061027a6002820184846108e7565b50610289600460008486610e21565b61029291610e51565b7bffffffffffffffffffffffffffffffffffffffffffffffffffffffff191685856040516102c1929190610dcd565b60405180910390207bffffffffffffffffffffffffffffffffffffffffffffffffffffffff1916146103055760405162461bcd60e51b815260040161017e90610eea565b600080876001600160a01b03168585604051610322929190610dcd565b6000604051808303816000865af19150503d806000811461035f576040519150601f19603f3d011682016040523d82523d6000602084013e610364565b606091505b5091509150816103865760405162461bcd60e51b815260040161017e90610f2c565b60008180602001905181019061039c9190610f4d565b9050600081116103be5760405162461bcd60e51b815260040161017e90610fa0565b7fa727af2abd973d4751385537ce3635220db5b391f19509a35f6294a7cb5c68ba8b8b8b8b8b6040516103f5959493929190610fd0565b60405180910390a15050505050505050505050565b600054610100900460ff166104255760005460ff1615610429565b303b155b6104455760405162461bcd60e51b815260040161017e90611069565b600054610100900460ff16158015610467576000805461ffff19166101011790555b61046f61088d565b6065805473ffffffffffffffffffffffffffffffffffffffff19166001600160a01b03841617905580156104a9576000805461ff00191690555b5050565b8051602081830181018051606682529282019190930120915280546001820180546001600160a01b0390921692916104e49061108f565b80601f01602080910402602001604051908101604052809291908181526020018280546105109061108f565b801561055d5780601f106105325761010080835404028352916020019161055d565b820191906000526020600020905b81548152906001019060200180831161054057829003601f168201915b5050505050908060020180546105729061108f565b80601f016020809104026020016040519081016040528092919081815260200182805461059e9061108f565b80156105eb5780601f106105c0576101008083540402835291602001916105eb565b820191906000526020600020905b8154815290600101906020018083116105ce57829003601f168201915b5050505050905083565b6033546001600160a01b0316331461061f5760405162461bcd60e51b815260040161017e90610dad565b6001600160a01b0381166106455760405162461bcd60e51b815260040161017e90611113565b61064e8161082e565b50565b60008060668484604051610666929190610dcd565b908152602001604051809103902060020180546106829061108f565b80601f01602080910402602001604051908101604052809291908181526020018280546106ae9061108f565b80156106fb5780601f106106d0576101008083540402835291602001916106fb565b820191906000526020600020905b8154815290600101906020018083116106de57829003601f168201915b5050505050905060008060668686604051610717929190610dcd565b908152604051908190036020018120546001600160a01b03169061073c908590611145565b6000604051808303816000865af19150503d8060008114610779576040519150601f19603f3d011682016040523d82523d6000602084013e61077e565b606091505b5091509150816107a05760405162461bcd60e51b815260040161017e90610f2c565b6000818060200190518101906107b69190610f4d565b9050600081116107d85760405162461bcd60e51b815260040161017e90610fa0565b6107e78164e8d4a51000611165565b94507fb6256454ce779a462ca44000558484a07dadbb3c3ac7d9e096655f526923978387878760405161081c93929190611184565b60405180910390a15050505092915050565b603380546001600160a01b0383811673ffffffffffffffffffffffffffffffffffffffff19831681179093556040519116919082907f8be0079c531659141344cd1fd0a4f28419497f9722a3daafe3b4186f6b6457e090600090a35050565b600054610100900460ff166108b45760405162461bcd60e51b815260040161017e906111fd565b610191600054610100900460ff166108de5760405162461bcd60e51b815260040161017e906111fd565b6101913361082e565b8280546108f39061108f565b90600052602060002090601f016020900481019282610915576000855561095b565b82601f1061092e5782800160ff1982351617855561095b565b8280016001018555821561095b579182015b8281111561095b578235825591602001919060010190610940565b5061096792915061096b565b5090565b5b80821115610967576000815560010161096c565b60006001600160a01b0382165b92915050565b61099c81610980565b82525050565b6020810161098d8284610993565b60008083601f8401126109c5576109c5600080fd5b50813567ffffffffffffffff8111156109e0576109e0600080fd5b6020830191508360018202830111156109fb576109fb600080fd5b9250929050565b610a0b81610980565b811461064e57600080fd5b803561098d81610a02565b60008060008060008060006080888a031215610a3f57610a3f600080fd5b873567ffffffffffffffff811115610a5957610a59600080fd5b610a658a828b016109b0565b97509750506020610a788a828b01610a16565b955050604088013567ffffffffffffffff811115610a9857610a98600080fd5b610aa48a828b016109b0565b9450945050606088013567ffffffffffffffff811115610ac657610ac6600080fd5b610ad28a828b016109b0565b925092505092959891949750929550565b600060208284031215610af857610af8600080fd5b6000610b048484610a16565b949350505050565b634e487b7160e01b600052604160045260246000fd5b601f19601f830116810181811067ffffffffffffffff82111715610b4857610b48610b0c565b6040525050565b6000610b5a60405190565b9050610b668282610b22565b919050565b600067ffffffffffffffff821115610b8557610b85610b0c565b601f19601f83011660200192915050565b82818337506000910152565b6000610bb5610bb084610b6b565b610b4f565b905082815260208101848484011115610bd057610bd0600080fd5b610bdb848285610b96565b509392505050565b600082601f830112610bf757610bf7600080fd5b8135610b04848260208601610ba2565b600060208284031215610c1c57610c1c600080fd5b813567ffffffffffffffff811115610c3657610c36600080fd5b610b0484828501610be3565b60005b83811015610c5d578181015183820152602001610c45565b83811115610c6c576000848401525b50505050565b6000610c7c825190565b808452602084019350610c93818560208601610c42565b601f01601f19169290920192915050565b60608101610cb28286610993565b8181036020830152610cc48185610c72565b90508181036040830152610cd88184610c72565b95945050505050565b60006001600160a01b03821661098d565b600061098d82610ce1565b600061098d82610cf2565b61099c81610cfd565b6020810161098d8284610d08565b60008060208385031215610d3557610d35600080fd5b823567ffffffffffffffff811115610d4f57610d4f600080fd5b610d5b858286016109b0565b92509250509250929050565b8061099c565b6020810161098d8284610d67565b60208082527f4f776e61626c653a2063616c6c6572206973206e6f7420746865206f776e657291019081525b60200190565b6020808252810161098d81610d7b565b610dc8828483610b96565b500190565b610dd8818385610dbd565b9392505050565b60138152602081017f5061697220616c7265616479206578697374730000000000000000000000000081529050610da7565b6020808252810161098d81610ddf565b60008085851115610e3457610e34600080fd5b83861115610e4457610e44600080fd5b5050820193919092039150565b80357fffffffff0000000000000000000000000000000000000000000000000000000016826004811015610eb357610eae7fffffffff00000000000000000000000000000000000000000000000000000000826004036008021b90565b821691505b5092915050565b60208082527f5369676e617475726520616e642063616c6c64617461206e6f74206d617463689101908152610da7565b6020808252810161098d81610eba565b600b8152602081017f43616c6c206661696c656400000000000000000000000000000000000000000081529050610da7565b6020808252810161098d81610efa565b80610a0b565b805161098d81610f3c565b600060208284031215610f6257610f62600080fd5b6000610b048484610f42565b60148152602081017f496e76616c696420707269636520726573756c7400000000000000000000000081529050610da7565b6020808252810161098d81610f6e565b818352602083019250610fc4828483610b96565b50601f01601f19160190565b60608082528101610fe2818789610fb0565b9050610ff16020830186610993565b8181036040830152611004818486610fb0565b979650505050505050565b602e8152602081017f496e697469616c697a61626c653a20636f6e747261637420697320616c72656181527f647920696e697469616c697a6564000000000000000000000000000000000000602082015290505b60400190565b6020808252810161098d8161100f565b634e487b7160e01b600052602260045260246000fd5b6002810460018216806110a357607f821691505b6020821081036110b5576110b5611079565b50919050565b60268152602081017f4f776e61626c653a206e6577206f776e657220697320746865207a65726f206181527f646472657373000000000000000000000000000000000000000000000000000060208201529050611063565b6020808252810161098d816110bb565b600061112d825190565b61113b818560208601610c42565b9290920192915050565b61098d8183611123565b634e487b7160e01b600052601160045260246000fd5b600081600019048311821515161561117f5761117f61114f565b500290565b60408082528101611196818587610fb0565b9050610b046020830184610d67565b602b8152602081017f496e697469616c697a61626c653a20636f6e7472616374206973206e6f74206981527f6e697469616c697a696e6700000000000000000000000000000000000000000060208201529050611063565b6020808252810161098d816111a556fea2646970667358221220cb8f417b21ea4c242d8794cb6359ff83ad14b6117a5d4b84a4c93554b3a1b94d64736f6c634300080d0033",
  "devdoc": {
    "kind": "dev",
    "methods": {
      "getLatestPrice(string)": {
        "params": {
          "_policyToken": "Policy token name"
        },
        "returns": {
          "price": "USD price of the base token (1e18 decimal)"
        }
      },
      "owner()": {
        "details": "Returns the address of the current owner."
      },
      "renounceOwnership()": {
        "details": "Leaves the contract without owner. It will not be possible to call `onlyOwner` functions anymore. Can only be called by the current owner. NOTE: Renouncing ownership will leave the contract without an owner, thereby removing any functionality that is only available to the owner."
      },
      "transferOwnership(address)": {
        "details": "Transfers ownership of the contract to a new account (`newOwner`). Can only be called by the current owner."
      }
    },
    "title": "Price Getter for arbitrary contract",
    "version": 1
  },
  "userdoc": {
    "kind": "user",
    "methods": {
      "getLatestPrice(string)": {
        "notice": "Get latest price"
      }
    },
    "notice": "This is the contract for getting price feed from arbitrary contract         A special case of PriceGetter, not a normal \"token price\"",
    "version": 1
  },
  "storageLayout": {
    "storage": [
      {
        "astId": 2670,
        "contract": "contracts/naughty-price/ArbitraryPriceGetter.sol:ArbitraryPriceGetter",
        "label": "_initialized",
        "offset": 0,
        "slot": "0",
        "type": "t_bool"
      },
      {
        "astId": 2673,
        "contract": "contracts/naughty-price/ArbitraryPriceGetter.sol:ArbitraryPriceGetter",
        "label": "_initializing",
        "offset": 1,
        "slot": "0",
        "type": "t_bool"
      },
      {
        "astId": 3907,
        "contract": "contracts/naughty-price/ArbitraryPriceGetter.sol:ArbitraryPriceGetter",
        "label": "__gap",
        "offset": 0,
        "slot": "1",
        "type": "t_array(t_uint256)50_storage"
      },
      {
        "astId": 2550,
        "contract": "contracts/naughty-price/ArbitraryPriceGetter.sol:ArbitraryPriceGetter",
        "label": "_owner",
        "offset": 0,
        "slot": "51",
        "type": "t_address"
      },
      {
        "astId": 2662,
        "contract": "contracts/naughty-price/ArbitraryPriceGetter.sol:ArbitraryPriceGetter",
        "label": "__gap",
        "offset": 0,
        "slot": "52",
        "type": "t_array(t_uint256)49_storage"
      },
      {
        "astId": 31321,
        "contract": "contracts/naughty-price/ArbitraryPriceGetter.sol:ArbitraryPriceGetter",
        "label": "policyCore",
        "offset": 0,
        "slot": "101",
        "type": "t_contract(IPolicyCore)37012"
      },
      {
        "astId": 31333,
        "contract": "contracts/naughty-price/ArbitraryPriceGetter.sol:ArbitraryPriceGetter",
        "label": "priceFeeds",
        "offset": 0,
        "slot": "102",
        "type": "t_mapping(t_string_memory_ptr,t_struct(PriceInfo)31328_storage)"
      }
    ],
    "types": {
      "t_address": {
        "encoding": "inplace",
        "label": "address",
        "numberOfBytes": "20"
      },
      "t_array(t_uint256)49_storage": {
        "base": "t_uint256",
        "encoding": "inplace",
        "label": "uint256[49]",
        "numberOfBytes": "1568"
      },
      "t_array(t_uint256)50_storage": {
        "base": "t_uint256",
        "encoding": "inplace",
        "label": "uint256[50]",
        "numberOfBytes": "1600"
      },
      "t_bool": {
        "encoding": "inplace",
        "label": "bool",
        "numberOfBytes": "1"
      },
      "t_bytes_storage": {
        "encoding": "bytes",
        "label": "bytes",
        "numberOfBytes": "32"
      },
      "t_contract(IPolicyCore)37012": {
        "encoding": "inplace",
        "label": "contract IPolicyCore",
        "numberOfBytes": "20"
      },
      "t_mapping(t_string_memory_ptr,t_struct(PriceInfo)31328_storage)": {
        "encoding": "mapping",
        "key": "t_string_memory_ptr",
        "label": "mapping(string => struct ArbitraryPriceGetter.PriceInfo)",
        "numberOfBytes": "32",
        "value": "t_struct(PriceInfo)31328_storage"
      },
      "t_string_memory_ptr": {
        "encoding": "bytes",
        "label": "string",
        "numberOfBytes": "32"
      },
      "t_string_storage": {
        "encoding": "bytes",
        "label": "string",
        "numberOfBytes": "32"
      },
      "t_struct(PriceInfo)31328_storage": {
        "encoding": "inplace",
        "label": "struct ArbitraryPriceGetter.PriceInfo",
        "members": [
          {
            "astId": 31323,
            "contract": "contracts/naughty-price/ArbitraryPriceGetter.sol:ArbitraryPriceGetter",
            "label": "contractAddress",
            "offset": 0,
            "slot": "0",
            "type": "t_address"
          },
          {
            "astId": 31325,
            "contract": "contracts/naughty-price/ArbitraryPriceGetter.sol:ArbitraryPriceGetter",
            "label": "functionSignature",
            "offset": 0,
            "slot": "1",
            "type": "t_string_storage"
          },
          {
            "astId": 31327,
            "contract": "contracts/naughty-price/ArbitraryPriceGetter.sol:ArbitraryPriceGetter",
            "label": "callData",
            "offset": 0,
            "slot": "2",
            "type": "t_bytes_storage"
          }
        ],
        "numberOfBytes": "96"
      },
      "t_uint256": {
        "encoding": "inplace",
        "label": "uint256",
        "numberOfBytes": "32"
      }
    }
  }
}