{
  "address": "0xdBEd26a6147496481dF372e19A2fe808C8Df80B5",
  "abi": [
    {
      "anonymous": false,
      "inputs": [
        {
          "indexed": false,
          "internalType": "string",
          "name": "policyToken",
          "type": "string"
        },
        {
          "indexed": false,
          "internalType": "address",
          "name": "contractAddress",
          "type": "address"
        },
        {
          "indexed": false,
          "internalType": "string",
          "name": "functionSignature",
          "type": "string"
        }
      ],
      "name": "NewPair",
      "type": "event"
    },
    {
      "anonymous": false,
      "inputs": [
        {
          "indexed": true,
          "internalType": "address",
          "name": "previousOwner",
          "type": "address"
        },
        {
          "indexed": true,
          "internalType": "address",
          "name": "newOwner",
          "type": "address"
        }
      ],
      "name": "OwnershipTransferred",
      "type": "event"
    },
    {
      "anonymous": false,
      "inputs": [
        {
          "indexed": false,
          "internalType": "string",
          "name": "policyToken",
          "type": "string"
        },
        {
          "indexed": false,
          "internalType": "uint256",
          "name": "price",
          "type": "uint256"
        }
      ],
      "name": "SamplePrice",
      "type": "event"
    },
    {
      "inputs": [
        {
          "internalType": "string",
          "name": "_baseToken",
          "type": "string"
        },
        {
          "internalType": "address",
          "name": "_contractAddress",
          "type": "address"
        },
        {
          "internalType": "string",
          "name": "_functionSignature",
          "type": "string"
        },
        {
          "internalType": "bytes",
          "name": "_calldata",
          "type": "bytes"
        }
      ],
      "name": "addPair",
      "outputs": [],
      "stateMutability": "nonpayable",
      "type": "function"
    },
    {
      "inputs": [
        {
          "internalType": "string",
          "name": "",
          "type": "string"
        }
      ],
      "name": "baseTokens",
      "outputs": [
        {
          "internalType": "string",
          "name": "",
          "type": "string"
        }
      ],
      "stateMutability": "view",
      "type": "function"
    },
    {
      "inputs": [
        {
          "internalType": "string",
          "name": "_policyToken",
          "type": "string"
        }
      ],
      "name": "getLatestPrice",
      "outputs": [
        {
          "internalType": "uint256",
          "name": "price",
          "type": "uint256"
        }
      ],
      "stateMutability": "nonpayable",
      "type": "function"
    },
    {
      "inputs": [
        {
          "internalType": "address",
          "name": "_policyCore",
          "type": "address"
        }
      ],
      "name": "initialize",
      "outputs": [],
      "stateMutability": "nonpayable",
      "type": "function"
    },
    {
      "inputs": [],
      "name": "owner",
      "outputs": [
        {
          "internalType": "address",
          "name": "",
          "type": "address"
        }
      ],
      "stateMutability": "view",
      "type": "function"
    },
    {
      "inputs": [],
      "name": "policyCore",
      "outputs": [
        {
          "internalType": "contract IPolicyCore",
          "name": "",
          "type": "address"
        }
      ],
      "stateMutability": "view",
      "type": "function"
    },
    {
      "inputs": [
        {
          "internalType": "string",
          "name": "",
          "type": "string"
        }
      ],
      "name": "priceFeeds",
      "outputs": [
        {
          "internalType": "address",
          "name": "contractAddress",
          "type": "address"
        },
        {
          "internalType": "string",
          "name": "functionSignature",
          "type": "string"
        },
        {
          "internalType": "bytes",
          "name": "callData",
          "type": "bytes"
        }
      ],
      "stateMutability": "view",
      "type": "function"
    },
    {
      "inputs": [],
      "name": "renounceOwnership",
      "outputs": [],
      "stateMutability": "nonpayable",
      "type": "function"
    },
    {
      "inputs": [
        {
          "internalType": "string",
          "name": "_policyToken",
          "type": "string"
        },
        {
          "internalType": "string",
          "name": "_baseToken",
          "type": "string"
        }
      ],
      "name": "setBaseToken",
      "outputs": [],
      "stateMutability": "nonpayable",
      "type": "function"
    },
    {
      "inputs": [
        {
          "internalType": "address",
          "name": "newOwner",
          "type": "address"
        }
      ],
      "name": "transferOwnership",
      "outputs": [],
      "stateMutability": "nonpayable",
      "type": "function"
    }
  ],
  "transactionHash": "0x5070ecb17105304e268b95edd10b3561764470b37d4563e9675c0d93de46f45b",
  "args": [],
  "numDeployments": 3,
  "solcInputHash": "20134a08eca780e7e3a7228ce1dc2c53",
  "bytecode": "0x608060405234801561001057600080fd5b50611553806100206000396000f3fe608060405234801561001057600080fd5b50600436106100be5760003560e01c8063c4d66de811610076578063e30145e01161005b578063e30145e01461016a578063f2fde38b1461018a578063f66a1b711461019d57600080fd5b8063c4d66de814610135578063cb8ae86c1461014857600080fd5b8063715018a6116100a7578063715018a6146101015780638da5cb5b14610109578063b19e98141461012257600080fd5b80635520dcb6146100c357806370656346146100ec575b600080fd5b6100d66100d1366004610d10565b6101bd565b6040516100e39190610dad565b60405180910390f35b6100ff6100fa366004610dc5565b610262565b005b6100ff6102cc565b6033546001600160a01b03166040516100e39190610e59565b6100ff610130366004610ed8565b610302565b6100ff610143366004610f9a565b610579565b61015b610156366004610d10565b61061c565b6040516100e393929190610fbb565b60655461017d906001600160a01b031681565b6040516100e39190611028565b6100ff610198366004610f9a565b610764565b6101b06101ab366004611036565b6107c0565b6040516100e39190611084565b8051602081830181018051606782529282019190930120915280546101e1906110a8565b80601f016020809104026020016040519081016040528092919081815260200182805461020d906110a8565b801561025a5780601f1061022f5761010080835404028352916020019161025a565b820191906000526020600020905b81548152906001019060200180831161023d57829003601f168201915b505050505081565b6033546001600160a01b031633146102955760405162461bcd60e51b815260040161028c90611106565b60405180910390fd5b806067836040516102a69190611138565b908152602001604051809103902090805190602001906102c7929190610b00565b505050565b6033546001600160a01b031633146102f65760405162461bcd60e51b815260040161028c90611106565b6103006000610a47565b565b6033546001600160a01b0316331461032c5760405162461bcd60e51b815260040161028c90611106565b60006001600160a01b031660668888604051610349929190611152565b908152604051908190036020019020546001600160a01b03161461037f5760405162461bcd60e51b815260040161028c9061118f565b600060668888604051610393929190611152565b90815260405190819003602001902080546001600160a01b03881673ffffffffffffffffffffffffffffffffffffffff1990911617815590506103da600182018686610b84565b506103e9600282018484610b84565b506103f860046000848661119f565b610401916111cf565b7bffffffffffffffffffffffffffffffffffffffffffffffffffffffff19168585604051610430929190611152565b60405180910390207bffffffffffffffffffffffffffffffffffffffffffffffffffffffff1916146104745760405162461bcd60e51b815260040161028c90611268565b600080876001600160a01b03168585604051610491929190611152565b6000604051808303816000865af19150503d80600081146104ce576040519150601f19603f3d011682016040523d82523d6000602084013e6104d3565b606091505b5091509150816104f55760405162461bcd60e51b815260040161028c906112aa565b60008180602001905181019061050b91906112cb565b90506000811161052d5760405162461bcd60e51b815260040161028c9061131e565b7fa727af2abd973d4751385537ce3635220db5b391f19509a35f6294a7cb5c68ba8b8b8b8b8b60405161056495949392919061134e565b60405180910390a15050505050505050505050565b600054610100900460ff166105945760005460ff1615610598565b303b155b6105b45760405162461bcd60e51b815260040161028c906113e7565b600054610100900460ff161580156105d6576000805461ffff19166101011790555b6105de610aa6565b6065805473ffffffffffffffffffffffffffffffffffffffff19166001600160a01b0384161790558015610618576000805461ff00191690555b5050565b8051602081830181018051606682529282019190930120915280546001820180546001600160a01b039092169291610653906110a8565b80601f016020809104026020016040519081016040528092919081815260200182805461067f906110a8565b80156106cc5780601f106106a1576101008083540402835291602001916106cc565b820191906000526020600020905b8154815290600101906020018083116106af57829003601f168201915b5050505050908060020180546106e1906110a8565b80601f016020809104026020016040519081016040528092919081815260200182805461070d906110a8565b801561075a5780601f1061072f5761010080835404028352916020019161075a565b820191906000526020600020905b81548152906001019060200180831161073d57829003601f168201915b5050505050905083565b6033546001600160a01b0316331461078e5760405162461bcd60e51b815260040161028c90611106565b6001600160a01b0381166107b45760405162461bcd60e51b815260040161028c9061144f565b6107bd81610a47565b50565b600080606784846040516107d5929190611152565b908152602001604051809103902080546107ee906110a8565b80601f016020809104026020016040519081016040528092919081815260200182805461081a906110a8565b80156108675780601f1061083c57610100808354040283529160200191610867565b820191906000526020600020905b81548152906001019060200180831161084a57829003601f168201915b5050505050905060006066826040516108809190611138565b9081526020016040518091039020600201805461089c906110a8565b80601f01602080910402602001604051908101604052809291908181526020018280546108c8906110a8565b80156109155780601f106108ea57610100808354040283529160200191610915565b820191906000526020600020905b8154815290600101906020018083116108f857829003601f168201915b5050505050905060008060668460405161092f9190611138565b908152604051908190036020018120546001600160a01b031690610954908590611138565b6000604051808303816000865af19150503d8060008114610991576040519150601f19603f3d011682016040523d82523d6000602084013e610996565b606091505b5091509150816109b85760405162461bcd60e51b815260040161028c906112aa565b6000818060200190518101906109ce91906112cb565b9050600081116109f05760405162461bcd60e51b815260040161028c9061131e565b6109ff8164e8d4a51000611475565b95507fb6256454ce779a462ca44000558484a07dadbb3c3ac7d9e096655f5269239783888888604051610a3493929190611494565b60405180910390a1505050505092915050565b603380546001600160a01b0383811673ffffffffffffffffffffffffffffffffffffffff19831681179093556040519116919082907f8be0079c531659141344cd1fd0a4f28419497f9722a3daafe3b4186f6b6457e090600090a35050565b600054610100900460ff16610acd5760405162461bcd60e51b815260040161028c9061150d565b610300600054610100900460ff16610af75760405162461bcd60e51b815260040161028c9061150d565b61030033610a47565b828054610b0c906110a8565b90600052602060002090601f016020900481019282610b2e5760008555610b74565b82601f10610b4757805160ff1916838001178555610b74565b82800160010185558215610b74579182015b82811115610b74578251825591602001919060010190610b59565b50610b80929150610bf8565b5090565b828054610b90906110a8565b90600052602060002090601f016020900481019282610bb25760008555610b74565b82601f10610bcb5782800160ff19823516178555610b74565b82800160010185558215610b74579182015b82811115610b74578235825591602001919060010190610bdd565b5b80821115610b805760008155600101610bf9565b634e487b7160e01b600052604160045260246000fd5b601f19601f830116810181811067ffffffffffffffff82111715610c4957610c49610c0d565b6040525050565b6000610c5b60405190565b9050610c678282610c23565b919050565b600067ffffffffffffffff821115610c8657610c86610c0d565b601f19601f83011660200192915050565b82818337506000910152565b6000610cb6610cb184610c6c565b610c50565b905082815260208101848484011115610cd157610cd1600080fd5b610cdc848285610c97565b509392505050565b600082601f830112610cf857610cf8600080fd5b8135610d08848260208601610ca3565b949350505050565b600060208284031215610d2557610d25600080fd5b813567ffffffffffffffff811115610d3f57610d3f600080fd5b610d0884828501610ce4565b60005b83811015610d66578181015183820152602001610d4e565b83811115610d75576000848401525b50505050565b6000610d85825190565b808452602084019350610d9c818560208601610d4b565b601f01601f19169290920192915050565b60208082528101610dbe8184610d7b565b9392505050565b60008060408385031215610ddb57610ddb600080fd5b823567ffffffffffffffff811115610df557610df5600080fd5b610e0185828601610ce4565b925050602083013567ffffffffffffffff811115610e2157610e21600080fd5b610e2d85828601610ce4565b9150509250929050565b60006001600160a01b0382165b92915050565b610e5381610e37565b82525050565b60208101610e448284610e4a565b60008083601f840112610e7c57610e7c600080fd5b50813567ffffffffffffffff811115610e9757610e97600080fd5b602083019150836001820283011115610eb257610eb2600080fd5b9250929050565b610ec281610e37565b81146107bd57600080fd5b8035610e4481610eb9565b60008060008060008060006080888a031215610ef657610ef6600080fd5b873567ffffffffffffffff811115610f1057610f10600080fd5b610f1c8a828b01610e67565b97509750506020610f2f8a828b01610ecd565b955050604088013567ffffffffffffffff811115610f4f57610f4f600080fd5b610f5b8a828b01610e67565b9450945050606088013567ffffffffffffffff811115610f7d57610f7d600080fd5b610f898a828b01610e67565b925092505092959891949750929550565b600060208284031215610faf57610faf600080fd5b6000610d088484610ecd565b60608101610fc98286610e4a565b8181036020830152610fdb8185610d7b565b90508181036040830152610fef8184610d7b565b95945050505050565b60006001600160a01b038216610e44565b6000610e4482610ff8565b6000610e4482611009565b610e5381611014565b60208101610e44828461101f565b6000806020838503121561104c5761104c600080fd5b823567ffffffffffffffff81111561106657611066600080fd5b61107285828601610e67565b92509250509250929050565b80610e53565b60208101610e44828461107e565b634e487b7160e01b600052602260045260246000fd5b6002810460018216806110bc57607f821691505b6020821081036110ce576110ce611092565b50919050565b60208082527f4f776e61626c653a2063616c6c6572206973206e6f7420746865206f776e657291019081525b60200190565b60208082528101610e44816110d4565b6000611120825190565b61112e818560208601610d4b565b9290920192915050565b610e448183611116565b61114d828483610c97565b500190565b610dbe818385611142565b60138152602081017f5061697220616c7265616479206578697374730000000000000000000000000081529050611100565b60208082528101610e448161115d565b600080858511156111b2576111b2600080fd5b838611156111c2576111c2600080fd5b5050820193919092039150565b80357fffffffff00000000000000000000000000000000000000000000000000000000168260048110156112315761122c7fffffffff00000000000000000000000000000000000000000000000000000000826004036008021b90565b821691505b5092915050565b60208082527f5369676e617475726520616e642063616c6c64617461206e6f74206d617463689101908152611100565b60208082528101610e4481611238565b600b8152602081017f43616c6c206661696c656400000000000000000000000000000000000000000081529050611100565b60208082528101610e4481611278565b80610ec2565b8051610e44816112ba565b6000602082840312156112e0576112e0600080fd5b6000610d0884846112c0565b60148152602081017f496e76616c696420707269636520726573756c7400000000000000000000000081529050611100565b60208082528101610e44816112ec565b818352602083019250611342828483610c97565b50601f01601f19160190565b6060808252810161136081878961132e565b905061136f6020830186610e4a565b818103604083015261138281848661132e565b979650505050505050565b602e8152602081017f496e697469616c697a61626c653a20636f6e747261637420697320616c72656181527f647920696e697469616c697a6564000000000000000000000000000000000000602082015290505b60400190565b60208082528101610e448161138d565b60268152602081017f4f776e61626c653a206e6577206f776e657220697320746865207a65726f206181527f6464726573730000000000000000000000000000000000000000000000000000602082015290506113e1565b60208082528101610e44816113f7565b634e487b7160e01b600052601160045260246000fd5b600081600019048311821515161561148f5761148f61145f565b500290565b604080825281016114a681858761132e565b9050610d08602083018461107e565b602b8152602081017f496e697469616c697a61626c653a20636f6e7472616374206973206e6f74206981527f6e697469616c697a696e67000000000000000000000000000000000000000000602082015290506113e1565b60208082528101610e44816114b556fea264697066735822122048ae67d74de29ef5d140718acaf7f758c88f7b265ccd1b675bf4e91038412a3464736f6c634300080d0033",
  "devdoc": {
    "kind": "dev",
    "methods": {
      "getLatestPrice(string)": {
        "params": {
          "_policyToken": "Policy token name"
        },
        "returns": {
          "price": "USD price of the base token (1e18 decimal)"
        }
      },
      "owner()": {
        "details": "Returns the address of the current owner."
      },
      "renounceOwnership()": {
        "details": "Leaves the contract without owner. It will not be possible to call `onlyOwner` functions anymore. Can only be called by the current owner. NOTE: Renouncing ownership will leave the contract without an owner, thereby removing any functionality that is only available to the owner."
      },
      "transferOwnership(address)": {
        "details": "Transfers ownership of the contract to a new account (`newOwner`). Can only be called by the current owner."
      }
    },
    "title": "Price Getter for arbitrary contract",
    "version": 1
  },
  "userdoc": {
    "kind": "user",
    "methods": {
      "getLatestPrice(string)": {
        "notice": "Get latest price"
      }
    },
    "notice": "This is the contract for getting price feed from arbitrary contract         A special case of PriceGetter, not a normal \"token price\"",
    "version": 1
  },
  "storageLayout": {
    "storage": [
      {
        "astId": 2670,
        "contract": "contracts/naughty-price/ArbitraryPriceGetter.sol:ArbitraryPriceGetter",
        "label": "_initialized",
        "offset": 0,
        "slot": "0",
        "type": "t_bool"
      },
      {
        "astId": 2673,
        "contract": "contracts/naughty-price/ArbitraryPriceGetter.sol:ArbitraryPriceGetter",
        "label": "_initializing",
        "offset": 1,
        "slot": "0",
        "type": "t_bool"
      },
      {
        "astId": 3907,
        "contract": "contracts/naughty-price/ArbitraryPriceGetter.sol:ArbitraryPriceGetter",
        "label": "__gap",
        "offset": 0,
        "slot": "1",
        "type": "t_array(t_uint256)50_storage"
      },
      {
        "astId": 2550,
        "contract": "contracts/naughty-price/ArbitraryPriceGetter.sol:ArbitraryPriceGetter",
        "label": "_owner",
        "offset": 0,
        "slot": "51",
        "type": "t_address"
      },
      {
        "astId": 2662,
        "contract": "contracts/naughty-price/ArbitraryPriceGetter.sol:ArbitraryPriceGetter",
        "label": "__gap",
        "offset": 0,
        "slot": "52",
        "type": "t_array(t_uint256)49_storage"
      },
      {
        "astId": 31321,
        "contract": "contracts/naughty-price/ArbitraryPriceGetter.sol:ArbitraryPriceGetter",
        "label": "policyCore",
        "offset": 0,
        "slot": "101",
        "type": "t_contract(IPolicyCore)37168"
      },
      {
        "astId": 31333,
        "contract": "contracts/naughty-price/ArbitraryPriceGetter.sol:ArbitraryPriceGetter",
        "label": "priceFeeds",
        "offset": 0,
        "slot": "102",
        "type": "t_mapping(t_string_memory_ptr,t_struct(PriceInfo)31328_storage)"
      },
      {
        "astId": 31337,
        "contract": "contracts/naughty-price/ArbitraryPriceGetter.sol:ArbitraryPriceGetter",
        "label": "baseTokens",
        "offset": 0,
        "slot": "103",
        "type": "t_mapping(t_string_memory_ptr,t_string_storage)"
      }
    ],
    "types": {
      "t_address": {
        "encoding": "inplace",
        "label": "address",
        "numberOfBytes": "20"
      },
      "t_array(t_uint256)49_storage": {
        "base": "t_uint256",
        "encoding": "inplace",
        "label": "uint256[49]",
        "numberOfBytes": "1568"
      },
      "t_array(t_uint256)50_storage": {
        "base": "t_uint256",
        "encoding": "inplace",
        "label": "uint256[50]",
        "numberOfBytes": "1600"
      },
      "t_bool": {
        "encoding": "inplace",
        "label": "bool",
        "numberOfBytes": "1"
      },
      "t_bytes_storage": {
        "encoding": "bytes",
        "label": "bytes",
        "numberOfBytes": "32"
      },
      "t_contract(IPolicyCore)37168": {
        "encoding": "inplace",
        "label": "contract IPolicyCore",
        "numberOfBytes": "20"
      },
      "t_mapping(t_string_memory_ptr,t_string_storage)": {
        "encoding": "mapping",
        "key": "t_string_memory_ptr",
        "label": "mapping(string => string)",
        "numberOfBytes": "32",
        "value": "t_string_storage"
      },
      "t_mapping(t_string_memory_ptr,t_struct(PriceInfo)31328_storage)": {
        "encoding": "mapping",
        "key": "t_string_memory_ptr",
        "label": "mapping(string => struct ArbitraryPriceGetter.PriceInfo)",
        "numberOfBytes": "32",
        "value": "t_struct(PriceInfo)31328_storage"
      },
      "t_string_memory_ptr": {
        "encoding": "bytes",
        "label": "string",
        "numberOfBytes": "32"
      },
      "t_string_storage": {
        "encoding": "bytes",
        "label": "string",
        "numberOfBytes": "32"
      },
      "t_struct(PriceInfo)31328_storage": {
        "encoding": "inplace",
        "label": "struct ArbitraryPriceGetter.PriceInfo",
        "members": [
          {
            "astId": 31323,
            "contract": "contracts/naughty-price/ArbitraryPriceGetter.sol:ArbitraryPriceGetter",
            "label": "contractAddress",
            "offset": 0,
            "slot": "0",
            "type": "t_address"
          },
          {
            "astId": 31325,
            "contract": "contracts/naughty-price/ArbitraryPriceGetter.sol:ArbitraryPriceGetter",
            "label": "functionSignature",
            "offset": 0,
            "slot": "1",
            "type": "t_string_storage"
          },
          {
            "astId": 31327,
            "contract": "contracts/naughty-price/ArbitraryPriceGetter.sol:ArbitraryPriceGetter",
            "label": "callData",
            "offset": 0,
            "slot": "2",
            "type": "t_bytes_storage"
          }
        ],
        "numberOfBytes": "96"
      },
      "t_uint256": {
        "encoding": "inplace",
        "label": "uint256",
        "numberOfBytes": "32"
      }
    }
  }
}