{
  "address": "0xf8fA2eF5bf5087e9b5a124591E82b5d9E2807dba",
  "abi": [
    {
      "inputs": [],
      "stateMutability": "nonpayable",
      "type": "constructor"
    },
    {
      "anonymous": false,
      "inputs": [
        {
          "indexed": true,
          "internalType": "address",
          "name": "owner",
          "type": "address"
        },
        {
          "indexed": true,
          "internalType": "address",
          "name": "spender",
          "type": "address"
        },
        {
          "indexed": false,
          "internalType": "uint256",
          "name": "value",
          "type": "uint256"
        }
      ],
      "name": "Approval",
      "type": "event"
    },
    {
      "anonymous": false,
      "inputs": [
        {
          "indexed": true,
          "internalType": "address",
          "name": "account",
          "type": "address"
        },
        {
          "indexed": false,
          "internalType": "uint256",
          "name": "amount",
          "type": "uint256"
        }
      ],
      "name": "Burn",
      "type": "event"
    },
    {
      "anonymous": false,
      "inputs": [
        {
          "indexed": false,
          "internalType": "address",
          "name": "newBurner",
          "type": "address"
        }
      ],
      "name": "BurnerAdded",
      "type": "event"
    },
    {
      "anonymous": false,
      "inputs": [
        {
          "indexed": false,
          "internalType": "address",
          "name": "oldBurner",
          "type": "address"
        }
      ],
      "name": "BurnerRemoved",
      "type": "event"
    },
    {
      "anonymous": false,
      "inputs": [
        {
          "indexed": true,
          "internalType": "address",
          "name": "account",
          "type": "address"
        },
        {
          "indexed": false,
          "internalType": "uint256",
          "name": "amount",
          "type": "uint256"
        }
      ],
      "name": "Mint",
      "type": "event"
    },
    {
      "anonymous": false,
      "inputs": [
        {
          "indexed": false,
          "internalType": "address",
          "name": "newMinter",
          "type": "address"
        }
      ],
      "name": "MinterAdded",
      "type": "event"
    },
    {
      "anonymous": false,
      "inputs": [
        {
          "indexed": false,
          "internalType": "address",
          "name": "oldMinter",
          "type": "address"
        }
      ],
      "name": "MinterRemoved",
      "type": "event"
    },
    {
      "anonymous": false,
      "inputs": [
        {
          "indexed": true,
          "internalType": "address",
          "name": "previousOwner",
          "type": "address"
        },
        {
          "indexed": true,
          "internalType": "address",
          "name": "newOwner",
          "type": "address"
        }
      ],
      "name": "OwnershipTransferred",
      "type": "event"
    },
    {
      "anonymous": false,
      "inputs": [
        {
          "indexed": true,
          "internalType": "address",
          "name": "from",
          "type": "address"
        },
        {
          "indexed": true,
          "internalType": "address",
          "name": "to",
          "type": "address"
        },
        {
          "indexed": false,
          "internalType": "uint256",
          "name": "value",
          "type": "uint256"
        }
      ],
      "name": "Transfer",
      "type": "event"
    },
    {
      "inputs": [],
      "name": "DOMAIN_SEPARATOR",
      "outputs": [
        {
          "internalType": "bytes32",
          "name": "",
          "type": "bytes32"
        }
      ],
      "stateMutability": "view",
      "type": "function"
    },
    {
      "inputs": [
        {
          "internalType": "address",
          "name": "_newBurner",
          "type": "address"
        }
      ],
      "name": "addBurner",
      "outputs": [],
      "stateMutability": "nonpayable",
      "type": "function"
    },
    {
      "inputs": [
        {
          "internalType": "address",
          "name": "_newMinter",
          "type": "address"
        }
      ],
      "name": "addMinter",
      "outputs": [],
      "stateMutability": "nonpayable",
      "type": "function"
    },
    {
      "inputs": [
        {
          "internalType": "address",
          "name": "owner",
          "type": "address"
        },
        {
          "internalType": "address",
          "name": "spender",
          "type": "address"
        }
      ],
      "name": "allowance",
      "outputs": [
        {
          "internalType": "uint256",
          "name": "",
          "type": "uint256"
        }
      ],
      "stateMutability": "view",
      "type": "function"
    },
    {
      "inputs": [
        {
          "internalType": "address",
          "name": "spender",
          "type": "address"
        },
        {
          "internalType": "uint256",
          "name": "amount",
          "type": "uint256"
        }
      ],
      "name": "approve",
      "outputs": [
        {
          "internalType": "bool",
          "name": "",
          "type": "bool"
        }
      ],
      "stateMutability": "nonpayable",
      "type": "function"
    },
    {
      "inputs": [
        {
          "internalType": "address",
          "name": "account",
          "type": "address"
        }
      ],
      "name": "balanceOf",
      "outputs": [
        {
          "internalType": "uint256",
          "name": "",
          "type": "uint256"
        }
      ],
      "stateMutability": "view",
      "type": "function"
    },
    {
      "inputs": [
        {
          "internalType": "address",
          "name": "_account",
          "type": "address"
        },
        {
          "internalType": "uint256",
          "name": "_amount",
          "type": "uint256"
        }
      ],
      "name": "burnBuyerToken",
      "outputs": [],
      "stateMutability": "nonpayable",
      "type": "function"
    },
    {
      "inputs": [],
      "name": "decimals",
      "outputs": [
        {
          "internalType": "uint8",
          "name": "",
          "type": "uint8"
        }
      ],
      "stateMutability": "view",
      "type": "function"
    },
    {
      "inputs": [
        {
          "internalType": "address",
          "name": "spender",
          "type": "address"
        },
        {
          "internalType": "uint256",
          "name": "subtractedValue",
          "type": "uint256"
        }
      ],
      "name": "decreaseAllowance",
      "outputs": [
        {
          "internalType": "bool",
          "name": "",
          "type": "bool"
        }
      ],
      "stateMutability": "nonpayable",
      "type": "function"
    },
    {
      "inputs": [
        {
          "internalType": "address",
          "name": "spender",
          "type": "address"
        },
        {
          "internalType": "uint256",
          "name": "addedValue",
          "type": "uint256"
        }
      ],
      "name": "increaseAllowance",
      "outputs": [
        {
          "internalType": "bool",
          "name": "",
          "type": "bool"
        }
      ],
      "stateMutability": "nonpayable",
      "type": "function"
    },
    {
      "inputs": [
        {
          "internalType": "address",
          "name": "",
          "type": "address"
        }
      ],
      "name": "isBurner",
      "outputs": [
        {
          "internalType": "bool",
          "name": "",
          "type": "bool"
        }
      ],
      "stateMutability": "view",
      "type": "function"
    },
    {
      "inputs": [
        {
          "internalType": "address",
          "name": "",
          "type": "address"
        }
      ],
      "name": "isMinter",
      "outputs": [
        {
          "internalType": "bool",
          "name": "",
          "type": "bool"
        }
      ],
      "stateMutability": "view",
      "type": "function"
    },
    {
      "inputs": [
        {
          "internalType": "address",
          "name": "_account",
          "type": "address"
        },
        {
          "internalType": "uint256",
          "name": "_amount",
          "type": "uint256"
        }
      ],
      "name": "mintBuyerToken",
      "outputs": [],
      "stateMutability": "nonpayable",
      "type": "function"
    },
    {
      "inputs": [],
      "name": "name",
      "outputs": [
        {
          "internalType": "string",
          "name": "",
          "type": "string"
        }
      ],
      "stateMutability": "view",
      "type": "function"
    },
    {
      "inputs": [
        {
          "internalType": "address",
          "name": "owner",
          "type": "address"
        }
      ],
      "name": "nonces",
      "outputs": [
        {
          "internalType": "uint256",
          "name": "",
          "type": "uint256"
        }
      ],
      "stateMutability": "view",
      "type": "function"
    },
    {
      "inputs": [],
      "name": "owner",
      "outputs": [
        {
          "internalType": "address",
          "name": "",
          "type": "address"
        }
      ],
      "stateMutability": "view",
      "type": "function"
    },
    {
      "inputs": [
        {
          "internalType": "address",
          "name": "owner",
          "type": "address"
        },
        {
          "internalType": "address",
          "name": "spender",
          "type": "address"
        },
        {
          "internalType": "uint256",
          "name": "value",
          "type": "uint256"
        },
        {
          "internalType": "uint256",
          "name": "deadline",
          "type": "uint256"
        },
        {
          "internalType": "uint8",
          "name": "v",
          "type": "uint8"
        },
        {
          "internalType": "bytes32",
          "name": "r",
          "type": "bytes32"
        },
        {
          "internalType": "bytes32",
          "name": "s",
          "type": "bytes32"
        }
      ],
      "name": "permit",
      "outputs": [],
      "stateMutability": "nonpayable",
      "type": "function"
    },
    {
      "inputs": [
        {
          "internalType": "address",
          "name": "_oldBurner",
          "type": "address"
        }
      ],
      "name": "removeBurner",
      "outputs": [],
      "stateMutability": "nonpayable",
      "type": "function"
    },
    {
      "inputs": [
        {
          "internalType": "address",
          "name": "_oldMinter",
          "type": "address"
        }
      ],
      "name": "removeMinter",
      "outputs": [],
      "stateMutability": "nonpayable",
      "type": "function"
    },
    {
      "inputs": [],
      "name": "renounceOwnership",
      "outputs": [],
      "stateMutability": "nonpayable",
      "type": "function"
    },
    {
      "inputs": [],
      "name": "symbol",
      "outputs": [
        {
          "internalType": "string",
          "name": "",
          "type": "string"
        }
      ],
      "stateMutability": "view",
      "type": "function"
    },
    {
      "inputs": [],
      "name": "totalSupply",
      "outputs": [
        {
          "internalType": "uint256",
          "name": "",
          "type": "uint256"
        }
      ],
      "stateMutability": "view",
      "type": "function"
    },
    {
      "inputs": [
        {
          "internalType": "address",
          "name": "recipient",
          "type": "address"
        },
        {
          "internalType": "uint256",
          "name": "amount",
          "type": "uint256"
        }
      ],
      "name": "transfer",
      "outputs": [
        {
          "internalType": "bool",
          "name": "",
          "type": "bool"
        }
      ],
      "stateMutability": "nonpayable",
      "type": "function"
    },
    {
      "inputs": [
        {
          "internalType": "address",
          "name": "sender",
          "type": "address"
        },
        {
          "internalType": "address",
          "name": "recipient",
          "type": "address"
        },
        {
          "internalType": "uint256",
          "name": "amount",
          "type": "uint256"
        }
      ],
      "name": "transferFrom",
      "outputs": [
        {
          "internalType": "bool",
          "name": "",
          "type": "bool"
        }
      ],
      "stateMutability": "nonpayable",
      "type": "function"
    },
    {
      "inputs": [
        {
          "internalType": "address",
          "name": "newOwner",
          "type": "address"
        }
      ],
      "name": "transferOwnership",
      "outputs": [],
      "stateMutability": "nonpayable",
      "type": "function"
    }
  ],
  "transactionHash": "0xf051ed9c500fe6468465946a6b09c429a706ca7e009f4eaf8d714bad5998daf6",
  "args": [],
  "numDeployments": 1,
  "solcInputHash": "8d54052dd6ff531ba200587187db4baa",
  "bytecode": "0x6101606040527f6e71edae12b1b97f4d1f60370fef10105fa2faae0126114a169c64845d6126c9610140523480156200003757600080fd5b506040518060400160405280600f81526020016e2232b3b4b9a13abcb2b92a37b5b2b760891b8152506040518060400160405280600381526020016211109560ea1b8152508180604051806040016040528060018152602001603160f81b81525084848160039080519060200190620000b2929190620001ec565b508051620000c8906004906020840190620001ec565b5050825160208085019190912083519184019190912060e08290526101008190524660a0529091507f8b73c3c69bb8fe3d512ecc4cf759cc79239f7b179b0ffacaa9a75d522b39400f6200011e8184846200015e565b6080523060c05261012052506200013c9350339250506200019a9050565b5050336000908152600760205260409020805460ff1916600117905562000347565b600083838346306040516020016200017b959493929190620002aa565b6040516020818303038152906040528051906020012090509392505050565b600680546001600160a01b038381166001600160a01b0319831681179093556040519116919082907f8be0079c531659141344cd1fd0a4f28419497f9722a3daafe3b4186f6b6457e090600090a35050565b828054620001fa9062000316565b90600052602060002090601f0160209004810192826200021e576000855562000269565b82601f106200023957805160ff191683800117855562000269565b8280016001018555821562000269579182015b82811115620002695782518255916020019190600101906200024c565b50620002779291506200027b565b5090565b5b808211156200027757600081556001016200027c565b805b82525050565b6001600160a01b03811662000294565b60a08101620002ba828862000292565b620002c9602083018762000292565b620002d8604083018662000292565b620002e7606083018562000292565b620002f660808301846200029a565b9695505050505050565b634e487b7160e01b600052602260045260246000fd5b6002810460018216806200032b57607f821691505b6020821081141562000341576200034162000300565b50919050565b60805160a05160c05160e051610100516101205161014051611d74620003a2600039600061087601526000610d3401526000610d7601526000610d5501526000610cb901526000610ce301526000610d0d0152611d746000f3fe608060405234801561001057600080fd5b50600436106101735760003560e01c8063715018a6116100de578063a9059cbb11610097578063d505accf11610071578063d505accf14610336578063dd62ed3e14610349578063f2fde38b14610382578063f44637ba1461039557600080fd5b8063a9059cbb146102ed578063aa271e1a14610300578063c767f1a11461032357600080fd5b8063715018a61461028b5780637ecebe00146102935780638da5cb5b146102a657806395d89b41146102bf578063983b2d56146102c7578063a457c2d7146102da57600080fd5b80633092afd5116101305780633092afd514610202578063313ce567146102155780633644e51514610224578063395093511461022c5780634334614a1461023f57806370a082311461026257600080fd5b8063028468581461017857806306fdde031461018d578063095ea7b3146101ab57806318160ddd146101cb5780632290e106146101dc57806323b872dd146101ef575b600080fd5b61018b6101863660046112a8565b6103a8565b005b61019561047d565b6040516101a2919061132f565b60405180910390f35b6101be6101b9366004611358565b61050f565b6040516101a2919061139f565b6002545b6040516101a291906113b3565b61018b6101ea366004611358565b610526565b6101be6101fd3660046113c1565b610534565b61018b6102103660046112a8565b61059d565b60126040516101a2919061141a565b6101cf61065e565b6101be61023a366004611358565b61066d565b6101be61024d3660046112a8565b60086020526000908152604090205460ff1681565b6101cf6102703660046112a8565b6001600160a01b031660009081526020819052604090205490565b61018b6106a9565b6101cf6102a13660046112a8565b6106ee565b6006546001600160a01b03166040516101a29190611431565b61019561070c565b61018b6102d53660046112a8565b61071b565b6101be6102e8366004611358565b6107e0565b6101be6102fb366004611358565b61083b565b6101be61030e3660046112a8565b60076020526000908152604090205460ff1681565b61018b610331366004611358565b610848565b61018b610344366004611453565b610852565b6101cf6103573660046114f2565b6001600160a01b03918216600090815260016020908152604080832093909416825291909152205490565b61018b6103903660046112a8565b610934565b61018b6103a33660046112a8565b61099f565b336103bb6006546001600160a01b031690565b6001600160a01b0316146103ea5760405162461bcd60e51b81526004016103e190611557565b60405180910390fd5b6001600160a01b03811660009081526007602052604090205460ff166104225760405162461bcd60e51b81526004016103e190611588565b6001600160a01b03811660009081526008602052604090819020805460ff19169055517f90eabbc0c667db2a5029ed6bc0f5fe9f356d11684a4ca9fcfaec0e53f12b9c8e90610472908390611431565b60405180910390a150565b60606003805461048c906115ae565b80601f01602080910402602001604051908101604052809291908181526020018280546104b8906115ae565b80156105055780601f106104da57610100808354040283529160200191610505565b820191906000526020600020905b8154815290600101906020018083116104e857829003601f168201915b5050505050905090565b600061051c338484610a64565b5060015b92915050565b6105308282610b18565b5050565b6000610541848484610b97565b6001600160a01b0384166000908152600160209081526040808320338452909152902054828110156105855760405162461bcd60e51b81526004016103e19061161a565b6105928533858403610a64565b506001949350505050565b336105b06006546001600160a01b031690565b6001600160a01b0316146105d65760405162461bcd60e51b81526004016103e190611557565b6001600160a01b03811660009081526007602052604090205460ff1661060e5760405162461bcd60e51b81526004016103e19061164b565b6001600160a01b03811660009081526007602052604090819020805460ff19169055517fe94479a9f7e1952cc78f2d6baab678adc1b772d936c6583def489e524cb6669290610472908390611431565b6000610668610cac565b905090565b3360008181526001602090815260408083206001600160a01b0387168452909152812054909161051c9185906106a4908690611671565b610a64565b336106bc6006546001600160a01b031690565b6001600160a01b0316146106e25760405162461bcd60e51b81526004016103e190611557565b6106ec6000610d9a565b565b6001600160a01b038116600090815260056020526040812054610520565b60606004805461048c906115ae565b3361072e6006546001600160a01b031690565b6001600160a01b0316146107545760405162461bcd60e51b81526004016103e190611557565b6001600160a01b03811660009081526007602052604090205460ff161561078d5760405162461bcd60e51b81526004016103e1906116ae565b6001600160a01b03811660009081526007602052604090819020805460ff19166001179055517f6ae172837ea30b801fbfcdd4108aa1d5bf8ff775444fd70256b44e6bf3dfc3f690610472908390611431565b3360009081526001602090815260408083206001600160a01b0386168452909152812054828110156108245760405162461bcd60e51b81526004016103e1906116fe565b6108313385858403610a64565b5060019392505050565b600061051c338484610b97565b6105308282610dec565b834211156108725760405162461bcd60e51b81526004016103e190611740565b60007f00000000000000000000000000000000000000000000000000000000000000008888886108a18c610e5e565b896040516020016108b796959493929190611750565b60405160208183030381529060405280519060200120905060006108da82610e86565b905060006108ea82878787610e99565b9050896001600160a01b0316816001600160a01b03161461091d5760405162461bcd60e51b81526004016103e1906117dc565b6109288a8a8a610a64565b50505050505050505050565b336109476006546001600160a01b031690565b6001600160a01b03161461096d5760405162461bcd60e51b81526004016103e190611557565b6001600160a01b0381166109935760405162461bcd60e51b81526004016103e19061182d565b61099c81610d9a565b50565b336109b26006546001600160a01b031690565b6001600160a01b0316146109d85760405162461bcd60e51b81526004016103e190611557565b6001600160a01b03811660009081526008602052604090205460ff1615610a115760405162461bcd60e51b81526004016103e190611862565b6001600160a01b03811660009081526008602052604090819020805460ff19166001179055517f86e57fd2b90329052917118de7c3f521f400d439b9650deaa906a25b08b9456090610472908390611431565b6001600160a01b038316610a8a5760405162461bcd60e51b81526004016103e1906118b1565b6001600160a01b038216610ab05760405162461bcd60e51b81526004016103e1906118fe565b6001600160a01b0380841660008181526001602090815260408083209487168084529490915290819020849055517f8c5be1e5ebec7d5bd14f71427d1e84f3dd0314c0f7b2291e5b200ac8c7c3b92590610b0b9085906113b3565b60405180910390a3505050565b3360008181526007602052604090205460ff16610b475760405162461bcd60e51b81526004016103e190611931565b610b518383610ec1565b826001600160a01b03167f0f6798a560793a54c3bcfe86a93cde1e73087d944c0ea20544137d412139688583604051610b8a91906113b3565b60405180910390a2505050565b6001600160a01b038316610bbd5760405162461bcd60e51b81526004016103e190611981565b6001600160a01b038216610be35760405162461bcd60e51b81526004016103e1906119cf565b6001600160a01b03831660009081526020819052604090205481811015610c1c5760405162461bcd60e51b81526004016103e190611a20565b6001600160a01b03808516600090815260208190526040808220858503905591851681529081208054849290610c53908490611671565b92505081905550826001600160a01b0316846001600160a01b03167fddf252ad1be2c89b69c2b068fc378daa952ba7f163c4a11628f55a4df523b3ef84604051610c9d91906113b3565b60405180910390a35b50505050565b6000306001600160a01b037f000000000000000000000000000000000000000000000000000000000000000016148015610d0557507f000000000000000000000000000000000000000000000000000000000000000046145b15610d2f57507f000000000000000000000000000000000000000000000000000000000000000090565b6106687f00000000000000000000000000000000000000000000000000000000000000007f00000000000000000000000000000000000000000000000000000000000000007f0000000000000000000000000000000000000000000000000000000000000000610f75565b600680546001600160a01b038381166001600160a01b0319831681179093556040519116919082907f8be0079c531659141344cd1fd0a4f28419497f9722a3daafe3b4186f6b6457e090600090a35050565b3360008181526008602052604090205460ff16610e1b5760405162461bcd60e51b81526004016103e190611a53565b610e258383610faf565b826001600160a01b03167fcc16f5dbb4873280815c1ee09dbd06736cffcc184412cf7a71a0fdb75d397ca583604051610b8a91906113b3565b6001600160a01b03811660009081526005602052604090208054600181018255905b50919050565b6000610520610e93610cac565b83611080565b6000806000610eaa878787876110b3565b91509150610eb781611193565b5095945050505050565b6001600160a01b038216610ee75760405162461bcd60e51b81526004016103e190611a95565b8060026000828254610ef99190611671565b90915550506001600160a01b03821660009081526020819052604081208054839290610f26908490611671565b90915550506040516001600160a01b038316906000907fddf252ad1be2c89b69c2b068fc378daa952ba7f163c4a11628f55a4df523b3ef90610f699085906113b3565b60405180910390a35050565b60008383834630604051602001610f90959493929190611aa5565b6040516020818303038152906040528051906020012090509392505050565b6001600160a01b038216610fd55760405162461bcd60e51b81526004016103e190611b2d565b6001600160a01b0382166000908152602081905260409020548181101561100e5760405162461bcd60e51b81526004016103e190611b7a565b6001600160a01b038316600090815260208190526040812083830390556002805484929061103d908490611b8a565b90915550506040516000906001600160a01b038516907fddf252ad1be2c89b69c2b068fc378daa952ba7f163c4a11628f55a4df523b3ef90610b0b9086906113b3565b60008282604051602001611095929190611ba1565b60405160208183030381529060405280519060200120905092915050565b6000807f7fffffffffffffffffffffffffffffff5d576e7357a4501ddfe92f46681b20a08311156110ea575060009050600361118a565b8460ff16601b1415801561110257508460ff16601c14155b15611113575060009050600461118a565b6000600187878787604051600081526020016040526040516111389493929190611bcc565b6020604051602081039080840390855afa15801561115a573d6000803e3d6000fd5b5050604051601f1901519150506001600160a01b0381166111835760006001925092505061118a565b9150600090505b94509492505050565b60008160048111156111a7576111a7611c0a565b14156111b05750565b60018160048111156111c4576111c4611c0a565b14156111e25760405162461bcd60e51b81526004016103e190611c52565b60028160048111156111f6576111f6611c0a565b14156112145760405162461bcd60e51b81526004016103e190611c94565b600381600481111561122857611228611c0a565b14156112465760405162461bcd60e51b81526004016103e190611ce1565b600481600481111561125a5761125a611c0a565b141561099c5760405162461bcd60e51b81526004016103e190611d2e565b60006001600160a01b038216610520565b61129281611278565b811461099c57600080fd5b803561052081611289565b6000602082840312156112bd576112bd600080fd5b60006112c9848461129d565b949350505050565b60005b838110156112ec5781810151838201526020016112d4565b83811115610ca65750506000910152565b6000611307825190565b80845260208401935061131e8185602086016112d1565b601f01601f19169290920192915050565b6020808252810161134081846112fd565b9392505050565b80611292565b803561052081611347565b6000806040838503121561136e5761136e600080fd5b600061137a858561129d565b925050602061138b8582860161134d565b9150509250929050565b8015155b82525050565b602081016105208284611395565b80611399565b6020810161052082846113ad565b6000806000606084860312156113d9576113d9600080fd5b60006113e5868661129d565b93505060206113f68682870161129d565b92505060406114078682870161134d565b9150509250925092565b60ff8116611399565b602081016105208284611411565b61139981611278565b602081016105208284611428565b60ff8116611292565b80356105208161143f565b600080600080600080600060e0888a03121561147157611471600080fd5b600061147d8a8a61129d565b975050602061148e8a828b0161129d565b965050604061149f8a828b0161134d565b95505060606114b08a828b0161134d565b94505060806114c18a828b01611448565b93505060a06114d28a828b0161134d565b92505060c06114e38a828b0161134d565b91505092959891949750929550565b6000806040838503121561150857611508600080fd5b6000611514858561129d565b925050602061138b8582860161129d565b60208082527f4f776e61626c653a2063616c6c6572206973206e6f7420746865206f776e657291019081525b60200190565b6020808252810161052081611525565b600c8152602081016b2737ba103090313ab93732b960a11b81529050611551565b6020808252810161052081611567565b634e487b7160e01b600052602260045260246000fd5b6002810460018216806115c257607f821691505b60208210811415610e8057610e80611598565b60288152602081017f45524332303a207472616e7366657220616d6f756e74206578636565647320618152676c6c6f77616e636560c01b602082015290505b60400190565b60208082528101610520816115d5565b600c8152602081016b2737ba10309036b4b73a32b960a11b81529050611551565b602080825281016105208161162a565b634e487b7160e01b600052601160045260246000fd5b600082198211156116845761168461165b565b500190565b60108152602081016f20b63932b0b23c90309036b4b73a32b960811b81529050611551565b6020808252810161052081611689565b60258152602081017f45524332303a2064656372656173656420616c6c6f77616e63652062656c6f77815264207a65726f60d81b60208201529050611614565b60208082528101610520816116be565b601d8152602081017f45524332305065726d69743a206578706972656420646561646c696e6500000081529050611551565b602080825281016105208161170e565b60c0810161175e82896113ad565b61176b6020830188611428565b6117786040830187611428565b61178560608301866113ad565b61179260808301856113ad565b61179f60a08301846113ad565b979650505050505050565b601e8152602081017f45524332305065726d69743a20696e76616c6964207369676e6174757265000081529050611551565b60208082528101610520816117aa565b60268152602081017f4f776e61626c653a206e6577206f776e657220697320746865207a65726f206181526564647265737360d01b60208201529050611614565b60208082528101610520816117ec565b60108152602081016f20b63932b0b23c903090313ab93732b960811b81529050611551565b602080825281016105208161183d565b60248152602081017f45524332303a20617070726f76652066726f6d20746865207a65726f206164648152637265737360e01b60208201529050611614565b6020808252810161052081611872565b60228152602081017f45524332303a20617070726f766520746f20746865207a65726f206164647265815261737360f01b60208201529050611614565b60208082528101610520816118c1565b600e8152602081016d24b73b30b634b21036b4b73a32b960911b81529050611551565b602080825281016105208161190e565b60258152602081017f45524332303a207472616e736665722066726f6d20746865207a65726f206164815264647265737360d81b60208201529050611614565b6020808252810161052081611941565b60238152602081017f45524332303a207472616e7366657220746f20746865207a65726f206164647281526265737360e81b60208201529050611614565b6020808252810161052081611991565b60268152602081017f45524332303a207472616e7366657220616d6f756e7420657863656564732062815265616c616e636560d01b60208201529050611614565b60208082528101610520816119df565b600e8152602081016d24b73b30b634b210313ab93732b960911b81529050611551565b6020808252810161052081611a30565b601f8152602081017f45524332303a206d696e7420746f20746865207a65726f20616464726573730081529050611551565b6020808252810161052081611a63565b60a08101611ab382886113ad565b611ac060208301876113ad565b611acd60408301866113ad565b611ada60608301856113ad565b611ae76080830184611428565b9695505050505050565b60218152602081017f45524332303a206275726e2066726f6d20746865207a65726f206164647265738152607360f81b60208201529050611614565b6020808252810161052081611af1565b60228152602081017f45524332303a206275726e20616d6f756e7420657863656564732062616c616e815261636560f01b60208201529050611614565b6020808252810161052081611b3d565b600082821015611b9c57611b9c61165b565b500390565b61190160f01b8152600201611bb681846113ad565b602001611bc381836113ad565b60200192915050565b60808101611bda82876113ad565b611be76020830186611411565b611bf460408301856113ad565b611c0160608301846113ad565b95945050505050565b634e487b7160e01b600052602160045260246000fd5b60188152602081017f45434453413a20696e76616c6964207369676e6174757265000000000000000081529050611551565b6020808252810161052081611c20565b601f8152602081017f45434453413a20696e76616c6964207369676e6174757265206c656e6774680081529050611551565b6020808252810161052081611c62565b60228152602081017f45434453413a20696e76616c6964207369676e6174757265202773272076616c815261756560f01b60208201529050611614565b6020808252810161052081611ca4565b60228152602081017f45434453413a20696e76616c6964207369676e6174757265202776272076616c815261756560f01b60208201529050611614565b6020808252810161052081611cf156fea26469706673582212202d77ba715b0571b2029a5607c34088fc28b8b0c10a3f4e47ac3a5cfac78add8764736f6c634300080a0033",
  "devdoc": {
    "details": "Need to set the correct minters and burners when reploying this contract.",
    "kind": "dev",
    "methods": {
      "DOMAIN_SEPARATOR()": {
        "details": "See {IERC20Permit-DOMAIN_SEPARATOR}."
      },
      "addBurner(address)": {
        "params": {
          "_newBurner": "Address of the new burner"
        }
      },
      "addMinter(address)": {
        "params": {
          "_newMinter": "Address of the new minter"
        }
      },
      "allowance(address,address)": {
        "details": "See {IERC20-allowance}."
      },
      "approve(address,uint256)": {
        "details": "See {IERC20-approve}. Requirements: - `spender` cannot be the zero address."
      },
      "balanceOf(address)": {
        "details": "See {IERC20-balanceOf}."
      },
      "burnBuyerToken(address,uint256)": {
        "params": {
          "_account": "Receiver's address",
          "_amount": "Amount to be burned"
        }
      },
      "decimals()": {
        "details": "Returns the number of decimals used to get its user representation. For example, if `decimals` equals `2`, a balance of `505` tokens should be displayed to a user as `5.05` (`505 / 10 ** 2`). Tokens usually opt for a value of 18, imitating the relationship between Ether and Wei. This is the value {ERC20} uses, unless this function is overridden; NOTE: This information is only used for _display_ purposes: it in no way affects any of the arithmetic of the contract, including {IERC20-balanceOf} and {IERC20-transfer}."
      },
      "decreaseAllowance(address,uint256)": {
        "details": "Atomically decreases the allowance granted to `spender` by the caller. This is an alternative to {approve} that can be used as a mitigation for problems described in {IERC20-approve}. Emits an {Approval} event indicating the updated allowance. Requirements: - `spender` cannot be the zero address. - `spender` must have allowance for the caller of at least `subtractedValue`."
      },
      "increaseAllowance(address,uint256)": {
        "details": "Atomically increases the allowance granted to `spender` by the caller. This is an alternative to {approve} that can be used as a mitigation for problems described in {IERC20-approve}. Emits an {Approval} event indicating the updated allowance. Requirements: - `spender` cannot be the zero address."
      },
      "mintBuyerToken(address,uint256)": {
        "params": {
          "_account": "Receiver's address",
          "_amount": "Amount to be minted"
        }
      },
      "name()": {
        "details": "Returns the name of the token."
      },
      "nonces(address)": {
        "details": "See {IERC20Permit-nonces}."
      },
      "permit(address,address,uint256,uint256,uint8,bytes32,bytes32)": {
        "details": "See {IERC20Permit-permit}."
      },
      "removeBurner(address)": {
        "params": {
          "_oldBurner": "Address of the minter to be removed"
        }
      },
      "removeMinter(address)": {
        "params": {
          "_oldMinter": "Address of the minter to be removed"
        }
      },
      "renounceOwnership()": {
        "details": "Renouncing ownership will leave the contract without an owner,         thereby removing any functionality that is only available to the owner."
      },
      "symbol()": {
        "details": "Returns the symbol of the token, usually a shorter version of the name."
      },
      "totalSupply()": {
        "details": "See {IERC20-totalSupply}."
      },
      "transfer(address,uint256)": {
        "details": "See {IERC20-transfer}. Requirements: - `recipient` cannot be the zero address. - the caller must have a balance of at least `amount`."
      },
      "transferFrom(address,address,uint256)": {
        "details": "See {IERC20-transferFrom}. Emits an {Approval} event indicating the updated allowance. This is not required by the EIP. See the note at the beginning of {ERC20}. Requirements: - `sender` and `recipient` cannot be the zero address. - `sender` must have a balance of at least `amount`. - the caller must have allowance for ``sender``'s tokens of at least `amount`."
      },
      "transferOwnership(address)": {
        "details": "Can only be called by the current owner.",
        "params": {
          "newOwner": "Address of the new owner"
        }
      }
    },
    "title": "Buyer Token",
    "version": 1
  },
  "userdoc": {
    "kind": "user",
    "methods": {
      "addBurner(address)": {
        "notice": "Add a new burner into the burnerList"
      },
      "addMinter(address)": {
        "notice": "Add a new minter into the minterList"
      },
      "burnBuyerToken(address,uint256)": {
        "notice": "Burn buyer tokens"
      },
      "mintBuyerToken(address,uint256)": {
        "notice": "Mint buyer tokens"
      },
      "owner()": {
        "notice": "Returns the address of the current owner."
      },
      "removeBurner(address)": {
        "notice": "Remove a minter from the minterList"
      },
      "removeMinter(address)": {
        "notice": "Remove a minter from the minterList"
      },
      "renounceOwnership()": {
        "notice": "Leaves the contract without owner. It will not be possible to call         `onlyOwner` functions anymore. Can only be called by the current owner."
      },
      "transferOwnership(address)": {
        "notice": "Transfers ownership of the contract to a new account (`newOwner`)."
      }
    },
    "notice": "Buyer tokens are distributed to buyers corresponding to the usd value they spend.         Users can deposit their buyer tokens into PurchaseIncentiveVault.         Periodical reward will be given to the participants in PurchaseIncentiveVault.         When distributing purchase incentive reward, the buyer tokens will be burned.",
    "version": 1
  },
  "storageLayout": {
    "storage": [
      {
        "astId": 2448,
        "contract": "contracts/tokens/BuyerToken.sol:BuyerToken",
        "label": "_balances",
        "offset": 0,
        "slot": "0",
        "type": "t_mapping(t_address,t_uint256)"
      },
      {
        "astId": 2454,
        "contract": "contracts/tokens/BuyerToken.sol:BuyerToken",
        "label": "_allowances",
        "offset": 0,
        "slot": "1",
        "type": "t_mapping(t_address,t_mapping(t_address,t_uint256))"
      },
      {
        "astId": 2456,
        "contract": "contracts/tokens/BuyerToken.sol:BuyerToken",
        "label": "_totalSupply",
        "offset": 0,
        "slot": "2",
        "type": "t_uint256"
      },
      {
        "astId": 2458,
        "contract": "contracts/tokens/BuyerToken.sol:BuyerToken",
        "label": "_name",
        "offset": 0,
        "slot": "3",
        "type": "t_string_storage"
      },
      {
        "astId": 2460,
        "contract": "contracts/tokens/BuyerToken.sol:BuyerToken",
        "label": "_symbol",
        "offset": 0,
        "slot": "4",
        "type": "t_string_storage"
      },
      {
        "astId": 3104,
        "contract": "contracts/tokens/BuyerToken.sol:BuyerToken",
        "label": "_nonces",
        "offset": 0,
        "slot": "5",
        "type": "t_mapping(t_address,t_struct(Counter)5196_storage)"
      },
      {
        "astId": 21603,
        "contract": "contracts/tokens/BuyerToken.sol:BuyerToken",
        "label": "_owner",
        "offset": 0,
        "slot": "6",
        "type": "t_address"
      },
      {
        "astId": 21260,
        "contract": "contracts/tokens/BuyerToken.sol:BuyerToken",
        "label": "isMinter",
        "offset": 0,
        "slot": "7",
        "type": "t_mapping(t_address,t_bool)"
      },
      {
        "astId": 21264,
        "contract": "contracts/tokens/BuyerToken.sol:BuyerToken",
        "label": "isBurner",
        "offset": 0,
        "slot": "8",
        "type": "t_mapping(t_address,t_bool)"
      }
    ],
    "types": {
      "t_address": {
        "encoding": "inplace",
        "label": "address",
        "numberOfBytes": "20"
      },
      "t_bool": {
        "encoding": "inplace",
        "label": "bool",
        "numberOfBytes": "1"
      },
      "t_mapping(t_address,t_bool)": {
        "encoding": "mapping",
        "key": "t_address",
        "label": "mapping(address => bool)",
        "numberOfBytes": "32",
        "value": "t_bool"
      },
      "t_mapping(t_address,t_mapping(t_address,t_uint256))": {
        "encoding": "mapping",
        "key": "t_address",
        "label": "mapping(address => mapping(address => uint256))",
        "numberOfBytes": "32",
        "value": "t_mapping(t_address,t_uint256)"
      },
      "t_mapping(t_address,t_struct(Counter)5196_storage)": {
        "encoding": "mapping",
        "key": "t_address",
        "label": "mapping(address => struct Counters.Counter)",
        "numberOfBytes": "32",
        "value": "t_struct(Counter)5196_storage"
      },
      "t_mapping(t_address,t_uint256)": {
        "encoding": "mapping",
        "key": "t_address",
        "label": "mapping(address => uint256)",
        "numberOfBytes": "32",
        "value": "t_uint256"
      },
      "t_string_storage": {
        "encoding": "bytes",
        "label": "string",
        "numberOfBytes": "32"
      },
      "t_struct(Counter)5196_storage": {
        "encoding": "inplace",
        "label": "struct Counters.Counter",
        "members": [
          {
            "astId": 5195,
            "contract": "contracts/tokens/BuyerToken.sol:BuyerToken",
            "label": "_value",
            "offset": 0,
            "slot": "0",
            "type": "t_uint256"
          }
        ],
        "numberOfBytes": "32"
      },
      "t_uint256": {
        "encoding": "inplace",
        "label": "uint256",
        "numberOfBytes": "32"
      }
    }
  }
}