{
  "address": "0xeaaBe93479A1D019ab13AEcEDAbAe1485Fa0CAF8",
  "abi": [
    {
      "anonymous": false,
      "inputs": [
        {
          "indexed": false,
          "internalType": "address",
          "name": "rewardToken",
          "type": "address"
        },
        {
          "indexed": false,
          "internalType": "address",
          "name": "user",
          "type": "address"
        },
        {
          "indexed": false,
          "internalType": "uint256",
          "name": "amount",
          "type": "uint256"
        }
      ],
      "name": "ClaimReward",
      "type": "event"
    },
    {
      "anonymous": false,
      "inputs": [
        {
          "indexed": false,
          "internalType": "address",
          "name": "user",
          "type": "address"
        },
        {
          "indexed": false,
          "internalType": "uint256",
          "name": "amount",
          "type": "uint256"
        }
      ],
      "name": "DistributeReward",
      "type": "event"
    },
    {
      "anonymous": false,
      "inputs": [
        {
          "indexed": false,
          "internalType": "address",
          "name": "rewardToken",
          "type": "address"
        }
      ],
      "name": "NewRewardTokenAdded",
      "type": "event"
    },
    {
      "anonymous": false,
      "inputs": [
        {
          "indexed": true,
          "internalType": "address",
          "name": "previousOwner",
          "type": "address"
        },
        {
          "indexed": true,
          "internalType": "address",
          "name": "newOwner",
          "type": "address"
        }
      ],
      "name": "OwnershipTransferred",
      "type": "event"
    },
    {
      "anonymous": false,
      "inputs": [
        {
          "indexed": false,
          "internalType": "address",
          "name": "rewardToken",
          "type": "address"
        }
      ],
      "name": "RewardClaimable",
      "type": "event"
    },
    {
      "anonymous": false,
      "inputs": [
        {
          "indexed": false,
          "internalType": "uint256",
          "name": "oldRate",
          "type": "uint256"
        },
        {
          "indexed": false,
          "internalType": "uint256",
          "name": "newRate",
          "type": "uint256"
        }
      ],
      "name": "RewardRateUpdated",
      "type": "event"
    },
    {
      "inputs": [
        {
          "internalType": "address",
          "name": "_rewardToken",
          "type": "address"
        },
        {
          "internalType": "address",
          "name": "_lpToken",
          "type": "address"
        }
      ],
      "name": "addRewardToken",
      "outputs": [],
      "stateMutability": "nonpayable",
      "type": "function"
    },
    {
      "inputs": [
        {
          "internalType": "address",
          "name": "_lpToken",
          "type": "address"
        },
        {
          "internalType": "address",
          "name": "_realRewardToken",
          "type": "address"
        }
      ],
      "name": "addRewardTokenWithMock",
      "outputs": [],
      "stateMutability": "nonpayable",
      "type": "function"
    },
    {
      "inputs": [
        {
          "internalType": "address",
          "name": "_rewardToken",
          "type": "address"
        }
      ],
      "name": "claim",
      "outputs": [],
      "stateMutability": "nonpayable",
      "type": "function"
    },
    {
      "inputs": [
        {
          "internalType": "address",
          "name": "",
          "type": "address"
        }
      ],
      "name": "claimable",
      "outputs": [
        {
          "internalType": "bool",
          "name": "",
          "type": "bool"
        }
      ],
      "stateMutability": "view",
      "type": "function"
    },
    {
      "inputs": [
        {
          "internalType": "address",
          "name": "_lpToken",
          "type": "address"
        },
        {
          "internalType": "address",
          "name": "_rewardToken",
          "type": "address"
        },
        {
          "internalType": "address",
          "name": "_user",
          "type": "address"
        },
        {
          "internalType": "uint256",
          "name": "_lpAmount",
          "type": "uint256"
        },
        {
          "internalType": "uint256",
          "name": "_lpSupply",
          "type": "uint256"
        }
      ],
      "name": "distributeReward",
      "outputs": [],
      "stateMutability": "nonpayable",
      "type": "function"
    },
    {
      "inputs": [
        {
          "internalType": "address",
          "name": "_token",
          "type": "address"
        }
      ],
      "name": "emergencyWithdraw",
      "outputs": [],
      "stateMutability": "nonpayable",
      "type": "function"
    },
    {
      "inputs": [],
      "name": "farmingPool",
      "outputs": [
        {
          "internalType": "contract IFarmingPool",
          "name": "",
          "type": "address"
        }
      ],
      "stateMutability": "view",
      "type": "function"
    },
    {
      "inputs": [
        {
          "internalType": "address",
          "name": "_lpToken",
          "type": "address"
        },
        {
          "internalType": "address",
          "name": "_realRewardToken",
          "type": "address"
        }
      ],
      "name": "getMockRewardToken",
      "outputs": [
        {
          "internalType": "address",
          "name": "mockRewardToken",
          "type": "address"
        }
      ],
      "stateMutability": "pure",
      "type": "function"
    },
    {
      "inputs": [
        {
          "internalType": "address",
          "name": "_farmingPool",
          "type": "address"
        }
      ],
      "name": "initialize",
      "outputs": [],
      "stateMutability": "nonpayable",
      "type": "function"
    },
    {
      "inputs": [
        {
          "internalType": "address",
          "name": "",
          "type": "address"
        },
        {
          "internalType": "address",
          "name": "",
          "type": "address"
        }
      ],
      "name": "newUserInfo",
      "outputs": [
        {
          "internalType": "uint256",
          "name": "amount",
          "type": "uint256"
        },
        {
          "internalType": "uint256",
          "name": "rewardDebt",
          "type": "uint256"
        }
      ],
      "stateMutability": "view",
      "type": "function"
    },
    {
      "inputs": [],
      "name": "owner",
      "outputs": [
        {
          "internalType": "address",
          "name": "",
          "type": "address"
        }
      ],
      "stateMutability": "view",
      "type": "function"
    },
    {
      "inputs": [
        {
          "internalType": "address",
          "name": "_token",
          "type": "address"
        },
        {
          "internalType": "address",
          "name": "_user",
          "type": "address"
        }
      ],
      "name": "pendingReward",
      "outputs": [
        {
          "internalType": "uint256",
          "name": "pending",
          "type": "uint256"
        }
      ],
      "stateMutability": "view",
      "type": "function"
    },
    {
      "inputs": [
        {
          "internalType": "address",
          "name": "",
          "type": "address"
        }
      ],
      "name": "pools",
      "outputs": [
        {
          "internalType": "address",
          "name": "lpToken",
          "type": "address"
        },
        {
          "internalType": "uint256",
          "name": "rewardPerSecond",
          "type": "uint256"
        },
        {
          "internalType": "uint256",
          "name": "accTokenPerShare",
          "type": "uint256"
        },
        {
          "internalType": "uint256",
          "name": "lastRewardTimestamp",
          "type": "uint256"
        }
      ],
      "stateMutability": "view",
      "type": "function"
    },
    {
      "inputs": [
        {
          "internalType": "address",
          "name": "",
          "type": "address"
        }
      ],
      "name": "realRewardToken",
      "outputs": [
        {
          "internalType": "address",
          "name": "",
          "type": "address"
        }
      ],
      "stateMutability": "view",
      "type": "function"
    },
    {
      "inputs": [],
      "name": "renounceOwnership",
      "outputs": [],
      "stateMutability": "nonpayable",
      "type": "function"
    },
    {
      "inputs": [
        {
          "internalType": "address",
          "name": "_rewardToken",
          "type": "address"
        },
        {
          "internalType": "address",
          "name": "_realRewardToken",
          "type": "address"
        }
      ],
      "name": "setClaimable",
      "outputs": [],
      "stateMutability": "nonpayable",
      "type": "function"
    },
    {
      "inputs": [
        {
          "internalType": "address",
          "name": "_rewardToken",
          "type": "address"
        },
        {
          "internalType": "uint256",
          "name": "_timestamp",
          "type": "uint256"
        }
      ],
      "name": "setLastRewardTimestamp",
      "outputs": [],
      "stateMutability": "nonpayable",
      "type": "function"
    },
    {
      "inputs": [
        {
          "internalType": "address",
          "name": "_lpToken",
          "type": "address"
        },
        {
          "internalType": "address",
          "name": "_rewardToken",
          "type": "address"
        },
        {
          "internalType": "uint256",
          "name": "_reward",
          "type": "uint256"
        }
      ],
      "name": "setRewardSpeed",
      "outputs": [],
      "stateMutability": "nonpayable",
      "type": "function"
    },
    {
      "inputs": [
        {
          "internalType": "address",
          "name": "_rewardToken",
          "type": "address"
        }
      ],
      "name": "setSupported",
      "outputs": [],
      "stateMutability": "nonpayable",
      "type": "function"
    },
    {
      "inputs": [
        {
          "internalType": "address",
          "name": "",
          "type": "address"
        }
      ],
      "name": "supportedRewardToken",
      "outputs": [
        {
          "internalType": "bool",
          "name": "",
          "type": "bool"
        }
      ],
      "stateMutability": "view",
      "type": "function"
    },
    {
      "inputs": [
        {
          "internalType": "address",
          "name": "newOwner",
          "type": "address"
        }
      ],
      "name": "transferOwnership",
      "outputs": [],
      "stateMutability": "nonpayable",
      "type": "function"
    },
    {
      "inputs": [
        {
          "internalType": "address",
          "name": "",
          "type": "address"
        }
      ],
      "name": "userInfo",
      "outputs": [
        {
          "internalType": "uint256",
          "name": "amount",
          "type": "uint256"
        },
        {
          "internalType": "uint256",
          "name": "rewardDebt",
          "type": "uint256"
        }
      ],
      "stateMutability": "view",
      "type": "function"
    },
    {
      "inputs": [
        {
          "internalType": "address",
          "name": "",
          "type": "address"
        },
        {
          "internalType": "address",
          "name": "",
          "type": "address"
        }
      ],
      "name": "userPendingReward",
      "outputs": [
        {
          "internalType": "uint256",
          "name": "",
          "type": "uint256"
        }
      ],
      "stateMutability": "view",
      "type": "function"
    }
  ],
  "transactionHash": "0x52278e84b9ac3ec5f9fb19db6c7e5a00ec3548c89a201a16f2f523fdb3f857d0",
  "args": [],
  "numDeployments": 10,
  "solcInputHash": "3f8f634ebfb937053d469ef1cd3476c1",
  "bytecode": "0x608060405234801561001057600080fd5b50611caa806100206000396000f3fe608060405234801561001057600080fd5b506004361061018d5760003560e01c80638da5cb5b116100e3578063c4d66de81161008c578063ece34ddd11610066578063ece34ddd1461040b578063f2fde38b1461041e578063f6fe29e91461043157600080fd5b8063c4d66de8146103af578063d75aca19146103c2578063d939363d146103e257600080fd5b80639ced7e76116100bd5780639ced7e761461033a578063a4063dbc1461034d578063b52c24081461039c57600080fd5b80638da5cb5b146102bf578063947f1484146102d0578063981e6fb81461030257600080fd5b8063402914f511610145578063715018a61161011f578063715018a614610284578063800984fe1461028c57806383c40a8f146102ac57600080fd5b8063402914f51461021e57806360b7975c1461024e5780636ff1c9bc1461027157600080fd5b806323cb23901161017657806323cb2390146101e5578063361a790f146101f85780633a07bc9d1461020b57600080fd5b80631959a002146101925780631e83409a146101d0575b600080fd5b6101b96101a03660046113c9565b6068602052600090815260409020805460019091015482565b6040516101c79291906113f2565b60405180910390f35b6101e36101de3660046113c9565b610444565b005b6101e36101f336600461140d565b6105a8565b6101e361020636600461140d565b6106a3565b6101e36102193660046113c9565b61075c565b61024161022c3660046113c9565b606a6020526000908152604090205460ff1681565b6040516101c79190611452565b61024161025c3660046113c9565b60666020526000908152604090205460ff1681565b6101e361027f3660046113c9565b6107aa565b6101e3610859565b61029f61029a36600461140d565b61088f565b6040516101c79190611469565b6101e36102ba366004611488565b6108c3565b6033546001600160a01b031661029f565b6101b96102de36600461140d565b606c6020908152600092835260408084209091529082529020805460019091015482565b61032d61031036600461140d565b606960209081526000928352604080842090915290825290205481565b6040516101c79190611500565b61032d61034836600461140d565b610ab2565b61038c61035b3660046113c9565b60676020526000908152604090208054600182015460028301546003909301546001600160a01b0390921692909184565b6040516101c7949392919061150e565b6101e36103aa36600461140d565b610c7d565b6101e36103bd3660046113c9565b610cfd565b6065546103d5906001600160a01b031681565b6040516101c7919061157c565b61029f6103f03660046113c9565b606b602052600090815260409020546001600160a01b031681565b6101e361041936600461158a565b610da0565b6101e361042c3660046113c9565b610de9565b6101e361043f3660046115bd565b610e42565b6001600160a01b038116600090815260666020526040902054819060ff166104875760405162461bcd60e51b815260040161047e90611641565b60405180910390fd5b6001600160a01b0382166000908152606a602052604090205460ff166104bf5760405162461bcd60e51b815260040161047e90611683565b3360009081526069602090815260408083206001600160a01b03868116855290835281842054606b909352908320549192911615610517576001600160a01b038085166000908152606b602052604090205416610519565b835b90506000610528823385610f72565b3360009081526069602090815260408083206001600160a01b038a1684529091528120805492935083929091906105609084906116a9565b90915550506040517f7e77f685b38c861064cb08f2776eb5dfd3c82f652ed9f21221b8c53b75628e5190610599908790339085906116c0565b60405180910390a15050505050565b6033546001600160a01b031633146105d25760405162461bcd60e51b815260040161047e90611718565b6001600160a01b0382166000908152606760205260409020600301541561060b5760405162461bcd60e51b815260040161047e9061175a565b6001600160a01b038083166000908152606660209081526040808320805460ff19166001179055606790915290819020805492841673ffffffffffffffffffffffffffffffffffffffff1990931692909217825542600390920191909155517fa7cc21f8c1b7896da70a20b7b578666328cbf74bb04fb4ff5cb05faf743939d790610697908490611469565b60405180910390a15050565b6033546001600160a01b031633146106cd5760405162461bcd60e51b815260040161047e90611718565b6001600160a01b038281166000908152606b60205260409020548116908216146107095760405162461bcd60e51b815260040161047e9061179c565b6001600160a01b0382166000908152606a602052604090819020805460ff19166001179055517fe856763711aabf0847b40626ccc13e01d6183e3a6c4a497936af9e7789703fcc90610697908490611469565b6033546001600160a01b031633146107865760405162461bcd60e51b815260040161047e90611718565b6001600160a01b03166000908152606660205260409020805460ff19166001179055565b6033546001600160a01b031633146107d45760405162461bcd60e51b815260040161047e90611718565b61085633826001600160a01b03166370a08231306040518263ffffffff1660e01b81526004016108049190611469565b602060405180830381865afa158015610821573d6000803e3d6000fd5b505050506040513d601f19601f8201168201806040525081019061084591906117b7565b6001600160a01b0384169190611027565b50565b6033546001600160a01b031633146108835760405162461bcd60e51b815260040161047e90611718565b61088d60006110af565b565b600082826040516020016108a4929190611800565b60408051601f1981840301815291905280516020909101209392505050565b6065546001600160a01b031633146108ed5760405162461bcd60e51b815260040161047e90611852565b6001600160a01b038416600090815260666020526040902054849060ff166109275760405162461bcd60e51b815260040161047e90611641565b6001600160a01b038581166000908152606760205260409020548116908716146109635760405162461bcd60e51b815260040161047e90611894565b61096d858361110e565b6001600160a01b03808616600081815260676020908152604080832081516080810183528154871681526001808301548286015260028301548285019081526003909301546060830152968b168552606c8452828520958552949092528220938401549051845493949364e8d4a51000916109e7916118a4565b6109f191906118d9565b6109fb91906116a9565b825487845560408501519192509064e8d4a5100090610a1a90896118a4565b610a2491906118d9565b60018401558015610aa6576001600160a01b038089166000908152606960209081526040808320938d1683529290529081208054849290610a669084906118ed565b90915550506040517fe8b160e373db99a103e0a2abfa029b9c3fc8b328984a1ead8a65ae68ae646db790610a9d908a908590611905565b60405180910390a15b50505050505050505050565b6001600160a01b038216600090815260676020526040812060030154610aea5760405162461bcd60e51b815260040161047e90611945565b6001600160a01b038084166000818152606760209081526040808320815160808101835281548716815260018083015482860152600283015482850190815260039093015460608301528988168652606c855283862096865295845282852083518085018552815481529601549386019390935251825160655492516370a0823160e01b81529396919493908216926370a0823192610b8e92911690600401611469565b602060405180830381865afa158015610bab573d6000803e3d6000fd5b505050506040513d601f19601f82011682018060405250810190610bcf91906117b7565b602085015190915015610c4557836060015142118015610bef5750600081115b15610c45576000846060015142610c0691906116a9565b90506000856020015182610c1a91906118a4565b905082610c2c64e8d4a51000836118a4565b610c3691906118d9565b610c4090856118ed565b935050505b6020830151835164e8d4a5100090610c5e9085906118a4565b610c6891906118d9565b610c7291906116a9565b979650505050505050565b6033546001600160a01b03163314610ca75760405162461bcd60e51b815260040161047e90611718565b6000610cb3838361088f565b9050610cbf81846105a8565b6001600160a01b039081166000908152606b6020526040902080549190921673ffffffffffffffffffffffffffffffffffffffff1990911617905550565b600054610100900460ff16610d185760005460ff1615610d1c565b303b155b610d385760405162461bcd60e51b815260040161047e906119af565b600054610100900460ff16158015610d5a576000805461ffff19166101011790555b610d626111b0565b6065805473ffffffffffffffffffffffffffffffffffffffff19166001600160a01b0384161790558015610d9c576000805461ff00191690555b5050565b6033546001600160a01b03163314610dca5760405162461bcd60e51b815260040161047e90611718565b6001600160a01b03909116600090815260676020526040902060030155565b6033546001600160a01b03163314610e135760405162461bcd60e51b815260040161047e90611718565b6001600160a01b038116610e395760405162461bcd60e51b815260040161047e90611a17565b610856816110af565b6033546001600160a01b03163314610e6c5760405162461bcd60e51b815260040161047e90611718565b6065546040516370a0823160e01b81526000916001600160a01b03808716926370a0823192610e9f921690600401611469565b602060405180830381865afa158015610ebc573d6000803e3d6000fd5b505050506040513d601f19601f82011682018060405250810190610ee091906117b7565b90506000610eee858561088f565b9050610efa818361110e565b6001600160a01b038116600090815260676020526040908190206001015490517fc390a98ace15a7bb6bab611eedfdbb2685043b241a869420043cdfb23ccfee5091610f479186906113f2565b60405180910390a16001600160a01b0316600090815260676020526040902060010191909155505050565b600080846001600160a01b03166370a08231306040518263ffffffff1660e01b8152600401610fa19190611469565b602060405180830381865afa158015610fbe573d6000803e3d6000fd5b505050506040513d601f19601f82011682018060405250810190610fe291906117b7565b905080831115611007576110006001600160a01b0386168583611027565b9050611020565b61101b6001600160a01b0386168585611027565b829150505b9392505050565b6110aa8363a9059cbb60e01b8484604051602401611046929190611905565b60408051601f198184030181529190526020810180517bffffffffffffffffffffffffffffffffffffffffffffffffffffffff167fffffffff00000000000000000000000000000000000000000000000000000000909316929092179091526111df565b505050565b603380546001600160a01b0383811673ffffffffffffffffffffffffffffffffffffffff19831681179093556040519116919082907f8be0079c531659141344cd1fd0a4f28419497f9722a3daafe3b4186f6b6457e090600090a35050565b6001600160a01b03821660009081526067602052604090206001810154156111a5578060030154421180156111435750600082115b156111a557600081600301544261115a91906116a9565b9050600082600101548261116e91906118a4565b90508361118064e8d4a51000836118a4565b61118a91906118d9565b83600201600082825461119d91906118ed565b909155505050505b426003909101555050565b600054610100900460ff166111d75760405162461bcd60e51b815260040161047e90611a7f565b61088d61126e565b6000611234826040518060400160405280602081526020017f5361666545524332303a206c6f772d6c6576656c2063616c6c206661696c6564815250856001600160a01b031661129e9092919063ffffffff16565b8051909150156110aa57808060200190518101906112529190611aa2565b6110aa5760405162461bcd60e51b815260040161047e90611b1b565b600054610100900460ff166112955760405162461bcd60e51b815260040161047e90611a7f565b61088d336110af565b60606112ad84846000856112b5565b949350505050565b6060824710156112d75760405162461bcd60e51b815260040161047e90611b83565b843b6112f55760405162461bcd60e51b815260040161047e90611bc5565b600080866001600160a01b031685876040516113119190611c27565b60006040518083038185875af1925050503d806000811461134e576040519150601f19603f3d011682016040523d82523d6000602084013e611353565b606091505b5091509150610c728282866060831561136d575081611020565b82511561137d5782518084602001fd5b8160405162461bcd60e51b815260040161047e9190611c63565b60006001600160a01b0382165b92915050565b6113b381611397565b811461085657600080fd5b80356113a4816113aa565b6000602082840312156113de576113de600080fd5b60006112ad84846113be565b805b82525050565b6040810161140082856113ea565b61102060208301846113ea565b6000806040838503121561142357611423600080fd5b600061142f85856113be565b9250506020611440858286016113be565b9150509250929050565b8015156113ec565b602081016113a4828461144a565b6113ec81611397565b602081016113a48284611460565b806113b3565b80356113a481611477565b600080600080600060a086880312156114a3576114a3600080fd5b60006114af88886113be565b95505060206114c0888289016113be565b94505060406114d1888289016113be565b93505060606114e28882890161147d565b92505060806114f38882890161147d565b9150509295509295909350565b602081016113a482846113ea565b6080810161151c8287611460565b61152960208301866113ea565b61153660408301856113ea565b61154360608301846113ea565b95945050505050565b60006001600160a01b0382166113a4565b60006113a48261154c565b60006113a48261155d565b6113ec81611568565b602081016113a48284611573565b600080604083850312156115a0576115a0600080fd5b60006115ac85856113be565b92505060206114408582860161147d565b6000806000606084860312156115d5576115d5600080fd5b60006115e186866113be565b93505060206115f2868287016113be565b92505060406116038682870161147d565b9150509250925092565b60138152602081017f546f6b656e206e6f7420737570706f7274656400000000000000000000000000815290505b60200190565b602080825281016113a48161160d565b600d8152602081017f4e6f7420636c61696d61626c65000000000000000000000000000000000000008152905061163b565b602080825281016113a481611651565b634e487b7160e01b600052601160045260246000fd5b6000828210156116bb576116bb611693565b500390565b606081016116ce8286611460565b6116db6020830185611460565b6112ad60408301846113ea565b60208082527f4f776e61626c653a2063616c6c6572206973206e6f7420746865206f776e6572910190815261163b565b602080825281016113a4816116e8565b600d8152602081017f416c7265616479206578697374000000000000000000000000000000000000008152905061163b565b602080825281016113a481611728565b60078152602081017f496e76616c6964000000000000000000000000000000000000000000000000008152905061163b565b602080825281016113a48161176a565b80516113a481611477565b6000602082840312156117cc576117cc600080fd5b60006112ad84846117ac565b60006113a48260601b90565b60006113a4826117d8565b6113ec6117fb82611397565b6117e4565b61180a81846117ef565b60140161181781836117ef565b60140192915050565b60108152602081017f4f6e6c79206661726d696e67506f6f6c000000000000000000000000000000008152905061163b565b602080825281016113a481611820565b60098152602081017f4e6f74206d6174636800000000000000000000000000000000000000000000008152905061163b565b602080825281016113a481611862565b60008160001904831182151516156118be576118be611693565b500290565b634e487b7160e01b600052601260045260246000fd5b6000826118e8576118e86118c3565b500490565b6000821982111561190057611900611693565b500190565b604081016114008285611460565b600e8152602081017f4e6f6e20657869737420706f6f6c0000000000000000000000000000000000008152905061163b565b602080825281016113a481611913565b602e8152602081017f496e697469616c697a61626c653a20636f6e747261637420697320616c72656181527f647920696e697469616c697a6564000000000000000000000000000000000000602082015290505b60400190565b602080825281016113a481611955565b60268152602081017f4f776e61626c653a206e6577206f776e657220697320746865207a65726f206181527f6464726573730000000000000000000000000000000000000000000000000000602082015290506119a9565b602080825281016113a4816119bf565b602b8152602081017f496e697469616c697a61626c653a20636f6e7472616374206973206e6f74206981527f6e697469616c697a696e67000000000000000000000000000000000000000000602082015290506119a9565b602080825281016113a481611a27565b8015156113b3565b80516113a481611a8f565b600060208284031215611ab757611ab7600080fd5b60006112ad8484611a97565b602a8152602081017f5361666545524332303a204552433230206f7065726174696f6e20646964206e81527f6f74207375636365656400000000000000000000000000000000000000000000602082015290506119a9565b602080825281016113a481611ac3565b60268152602081017f416464726573733a20696e73756666696369656e742062616c616e636520666f81527f722063616c6c0000000000000000000000000000000000000000000000000000602082015290506119a9565b602080825281016113a481611b2b565b601d8152602081017f416464726573733a2063616c6c20746f206e6f6e2d636f6e74726163740000008152905061163b565b602080825281016113a481611b93565b60005b83811015611bf0578181015183820152602001611bd8565b83811115611bff576000848401525b50505050565b6000611c0f825190565b611c1d818560208601611bd5565b9290920192915050565b6113a48183611c05565b6000611c3b825190565b808452602084019350611c52818560208601611bd5565b601f01601f19169290920192915050565b602080825281016110208184611c3156fea26469706673582212203c75f52f6c9e44f4b7baa4fb6d1efaacfdc0707e545655dca8a427b50becf47f64736f6c634300080d0033",
  "devdoc": {
    "kind": "dev",
    "methods": {
      "addRewardToken(address,address)": {
        "params": {
          "_lpToken": "LP token address",
          "_rewardToken": "Reward token address (mock)"
        }
      },
      "addRewardTokenWithMock(address,address)": {
        "params": {
          "_lpToken": "LP token address used for double farming",
          "_realRewardToken": "Real reward token address"
        }
      },
      "claim(address)": {
        "params": {
          "_rewardToken": "Reward token address (mock)"
        }
      },
      "distributeReward(address,address,address,uint256,uint256)": {
        "params": {
          "_lpAmount": "LP amount of user",
          "_lpSupply": "LP token balance of farming pool",
          "_lpToken": "LP token address",
          "_rewardToken": "Reward token address",
          "_user": "User address"
        }
      },
      "getMockRewardToken(address,address)": {
        "params": {
          "_lpToken": "LP token address",
          "_realRewardToken": "Real reward token address"
        },
        "returns": {
          "mockRewardToken": "Mock reward token address"
        }
      },
      "owner()": {
        "details": "Returns the address of the current owner."
      },
      "pendingReward(address,address)": {
        "params": {
          "_token": "Reward token address",
          "_user": "User address"
        },
        "returns": {
          "pending": "Pending reward"
        }
      },
      "renounceOwnership()": {
        "details": "Leaves the contract without owner. It will not be possible to call `onlyOwner` functions anymore. Can only be called by the current owner. NOTE: Renouncing ownership will leave the contract without an owner, thereby removing any functionality that is only available to the owner."
      },
      "setClaimable(address,address)": {
        "params": {
          "_realRewardToken": "Real reward token adedress",
          "_rewardToken": "Reward token address (mock)"
        }
      },
      "setRewardSpeed(address,address,uint256)": {
        "params": {
          "_lpToken": "LP token address",
          "_reward": "Reward per second",
          "_rewardToken": "Reward token address (real)"
        }
      },
      "transferOwnership(address)": {
        "details": "Transfers ownership of the contract to a new account (`newOwner`). Can only be called by the current owner."
      }
    },
    "title": "Degis Double Rewarder Contract",
    "version": 1
  },
  "userdoc": {
    "kind": "user",
    "methods": {
      "addRewardToken(address,address)": {
        "notice": "Add a new reward token"
      },
      "addRewardTokenWithMock(address,address)": {
        "notice": "Add a new reward token but with mocked address"
      },
      "claim(address)": {
        "notice": "Claim pending reward         During IDO protection, the insured token have not been issued yet         So we need to claim the pending reward later (after the farming)"
      },
      "distributeReward(address,address,address,uint256,uint256)": {
        "notice": "Distribute reward when user get reward in farming pool         User lpAmount will be updated here"
      },
      "emergencyWithdraw(address)": {
        "notice": "Withdraw tokens         When stopping double reward, first set the reward speed, then withdraw tokens"
      },
      "getMockRewardToken(address,address)": {
        "notice": "Get mock reward token address         E.g. lpToken = IM_CAI  realRewardToken = CAI         mockAddress = address(keccak256(abi.encodePacked(IM_CAI_LP, CAI)))"
      },
      "initialize(address)": {
        "notice": "Constructor         Only need to set farming pool address"
      },
      "pendingReward(address,address)": {
        "notice": "Get pending reward"
      },
      "setClaimable(address,address)": {
        "notice": "Make a reward token claimable         If the token has been deployed when the farming start,         then the real reward token should be address(0)         Mock reward address should match the real reward address"
      },
      "setRewardSpeed(address,address,uint256)": {
        "notice": "Set reward speed for a pool"
      }
    },
    "notice": "This contract is used to distribute double reward tokens (from other projects)         PoolInfo is stored with the reward token address as the key         E.g. Double reward for TraderJoe         JoeAddress => PoolInfo         Except the \"rewardToken\" this is also \"realRewardToken\" for the pool         - RewardToken is used for storing the info         - RealRewardToken is used for transfering the reward         If realRewardToken is set as ZeroAddress, then rewardToken is used for transfering the reward         Reward claiming is only available when that pool is set to be claimable\"         Before claimable, the reward is only calculated but not transfered         Typically, if multiple lp tokens are used for farming the same token reward,         We need a mock address to represent the reward token         E.g.         - IM_CAI_10.0_L_1610 => CLY             Reward token is CLY             Real reward token is ZeroAddress         - CAI_10.0_L_1610 => CLY             Reward token is address(keccak256(abi.encodePacked(\"IM_CAI_10.0_L_1610\", \"CLY\")))             Real reward token is CLY         - CAI_10.0_L_1612 => CLY             Reward token is address(keccak256(abi.encodePacked(\"IM_CAI_10.0_L_1610\", \"CLY\")))             Real reward token is CLY",
    "version": 1
  },
  "storageLayout": {
    "storage": [
      {
        "astId": 2670,
        "contract": "contracts/farming/DoubleRewarder.sol:DoubleRewarder",
        "label": "_initialized",
        "offset": 0,
        "slot": "0",
        "type": "t_bool"
      },
      {
        "astId": 2673,
        "contract": "contracts/farming/DoubleRewarder.sol:DoubleRewarder",
        "label": "_initializing",
        "offset": 1,
        "slot": "0",
        "type": "t_bool"
      },
      {
        "astId": 3907,
        "contract": "contracts/farming/DoubleRewarder.sol:DoubleRewarder",
        "label": "__gap",
        "offset": 0,
        "slot": "1",
        "type": "t_array(t_uint256)50_storage"
      },
      {
        "astId": 2550,
        "contract": "contracts/farming/DoubleRewarder.sol:DoubleRewarder",
        "label": "_owner",
        "offset": 0,
        "slot": "51",
        "type": "t_address"
      },
      {
        "astId": 2662,
        "contract": "contracts/farming/DoubleRewarder.sol:DoubleRewarder",
        "label": "__gap",
        "offset": 0,
        "slot": "52",
        "type": "t_array(t_uint256)49_storage"
      },
      {
        "astId": 10615,
        "contract": "contracts/farming/DoubleRewarder.sol:DoubleRewarder",
        "label": "farmingPool",
        "offset": 0,
        "slot": "101",
        "type": "t_contract(IFarmingPool)15970"
      },
      {
        "astId": 10619,
        "contract": "contracts/farming/DoubleRewarder.sol:DoubleRewarder",
        "label": "supportedRewardToken",
        "offset": 0,
        "slot": "102",
        "type": "t_mapping(t_address,t_bool)"
      },
      {
        "astId": 10633,
        "contract": "contracts/farming/DoubleRewarder.sol:DoubleRewarder",
        "label": "pools",
        "offset": 0,
        "slot": "103",
        "type": "t_mapping(t_address,t_struct(PoolInfo)10628_storage)"
      },
      {
        "astId": 10643,
        "contract": "contracts/farming/DoubleRewarder.sol:DoubleRewarder",
        "label": "userInfo",
        "offset": 0,
        "slot": "104",
        "type": "t_mapping(t_address,t_struct(UserInfo)10638_storage)"
      },
      {
        "astId": 10649,
        "contract": "contracts/farming/DoubleRewarder.sol:DoubleRewarder",
        "label": "userPendingReward",
        "offset": 0,
        "slot": "105",
        "type": "t_mapping(t_address,t_mapping(t_address,t_uint256))"
      },
      {
        "astId": 10653,
        "contract": "contracts/farming/DoubleRewarder.sol:DoubleRewarder",
        "label": "claimable",
        "offset": 0,
        "slot": "106",
        "type": "t_mapping(t_address,t_bool)"
      },
      {
        "astId": 10657,
        "contract": "contracts/farming/DoubleRewarder.sol:DoubleRewarder",
        "label": "realRewardToken",
        "offset": 0,
        "slot": "107",
        "type": "t_mapping(t_address,t_address)"
      },
      {
        "astId": 10664,
        "contract": "contracts/farming/DoubleRewarder.sol:DoubleRewarder",
        "label": "newUserInfo",
        "offset": 0,
        "slot": "108",
        "type": "t_mapping(t_address,t_mapping(t_address,t_struct(UserInfo)10638_storage))"
      }
    ],
    "types": {
      "t_address": {
        "encoding": "inplace",
        "label": "address",
        "numberOfBytes": "20"
      },
      "t_array(t_uint256)49_storage": {
        "base": "t_uint256",
        "encoding": "inplace",
        "label": "uint256[49]",
        "numberOfBytes": "1568"
      },
      "t_array(t_uint256)50_storage": {
        "base": "t_uint256",
        "encoding": "inplace",
        "label": "uint256[50]",
        "numberOfBytes": "1600"
      },
      "t_bool": {
        "encoding": "inplace",
        "label": "bool",
        "numberOfBytes": "1"
      },
      "t_contract(IFarmingPool)15970": {
        "encoding": "inplace",
        "label": "contract IFarmingPool",
        "numberOfBytes": "20"
      },
      "t_mapping(t_address,t_address)": {
        "encoding": "mapping",
        "key": "t_address",
        "label": "mapping(address => address)",
        "numberOfBytes": "32",
        "value": "t_address"
      },
      "t_mapping(t_address,t_bool)": {
        "encoding": "mapping",
        "key": "t_address",
        "label": "mapping(address => bool)",
        "numberOfBytes": "32",
        "value": "t_bool"
      },
      "t_mapping(t_address,t_mapping(t_address,t_struct(UserInfo)10638_storage))": {
        "encoding": "mapping",
        "key": "t_address",
        "label": "mapping(address => mapping(address => struct DoubleRewarder.UserInfo))",
        "numberOfBytes": "32",
        "value": "t_mapping(t_address,t_struct(UserInfo)10638_storage)"
      },
      "t_mapping(t_address,t_mapping(t_address,t_uint256))": {
        "encoding": "mapping",
        "key": "t_address",
        "label": "mapping(address => mapping(address => uint256))",
        "numberOfBytes": "32",
        "value": "t_mapping(t_address,t_uint256)"
      },
      "t_mapping(t_address,t_struct(PoolInfo)10628_storage)": {
        "encoding": "mapping",
        "key": "t_address",
        "label": "mapping(address => struct DoubleRewarder.PoolInfo)",
        "numberOfBytes": "32",
        "value": "t_struct(PoolInfo)10628_storage"
      },
      "t_mapping(t_address,t_struct(UserInfo)10638_storage)": {
        "encoding": "mapping",
        "key": "t_address",
        "label": "mapping(address => struct DoubleRewarder.UserInfo)",
        "numberOfBytes": "32",
        "value": "t_struct(UserInfo)10638_storage"
      },
      "t_mapping(t_address,t_uint256)": {
        "encoding": "mapping",
        "key": "t_address",
        "label": "mapping(address => uint256)",
        "numberOfBytes": "32",
        "value": "t_uint256"
      },
      "t_struct(PoolInfo)10628_storage": {
        "encoding": "inplace",
        "label": "struct DoubleRewarder.PoolInfo",
        "members": [
          {
            "astId": 10621,
            "contract": "contracts/farming/DoubleRewarder.sol:DoubleRewarder",
            "label": "lpToken",
            "offset": 0,
            "slot": "0",
            "type": "t_address"
          },
          {
            "astId": 10623,
            "contract": "contracts/farming/DoubleRewarder.sol:DoubleRewarder",
            "label": "rewardPerSecond",
            "offset": 0,
            "slot": "1",
            "type": "t_uint256"
          },
          {
            "astId": 10625,
            "contract": "contracts/farming/DoubleRewarder.sol:DoubleRewarder",
            "label": "accTokenPerShare",
            "offset": 0,
            "slot": "2",
            "type": "t_uint256"
          },
          {
            "astId": 10627,
            "contract": "contracts/farming/DoubleRewarder.sol:DoubleRewarder",
            "label": "lastRewardTimestamp",
            "offset": 0,
            "slot": "3",
            "type": "t_uint256"
          }
        ],
        "numberOfBytes": "128"
      },
      "t_struct(UserInfo)10638_storage": {
        "encoding": "inplace",
        "label": "struct DoubleRewarder.UserInfo",
        "members": [
          {
            "astId": 10635,
            "contract": "contracts/farming/DoubleRewarder.sol:DoubleRewarder",
            "label": "amount",
            "offset": 0,
            "slot": "0",
            "type": "t_uint256"
          },
          {
            "astId": 10637,
            "contract": "contracts/farming/DoubleRewarder.sol:DoubleRewarder",
            "label": "rewardDebt",
            "offset": 0,
            "slot": "1",
            "type": "t_uint256"
          }
        ],
        "numberOfBytes": "64"
      },
      "t_uint256": {
        "encoding": "inplace",
        "label": "uint256",
        "numberOfBytes": "32"
      }
    }
  }
}