{
  "address": "0xDC6446Afe79de533BcA4DE28872E8Fd9F0762835",
  "abi": [
    {
      "anonymous": false,
      "inputs": [
        {
          "indexed": true,
          "internalType": "address",
          "name": "tokenAddress",
          "type": "address"
        },
        {
          "indexed": true,
          "internalType": "address",
          "name": "userAddress",
          "type": "address"
        },
        {
          "indexed": false,
          "internalType": "uint256",
          "name": "amount",
          "type": "uint256"
        }
      ],
      "name": "Deposit",
      "type": "event"
    },
    {
      "anonymous": false,
      "inputs": [
        {
          "indexed": true,
          "internalType": "address",
          "name": "previousOwner",
          "type": "address"
        },
        {
          "indexed": true,
          "internalType": "address",
          "name": "newOwner",
          "type": "address"
        }
      ],
      "name": "OwnershipTransferred",
      "type": "event"
    },
    {
      "anonymous": false,
      "inputs": [
        {
          "indexed": true,
          "internalType": "address",
          "name": "tokenAddress",
          "type": "address"
        },
        {
          "indexed": true,
          "internalType": "address",
          "name": "userAddress",
          "type": "address"
        },
        {
          "indexed": false,
          "internalType": "uint256",
          "name": "amount",
          "type": "uint256"
        }
      ],
      "name": "Withdraw",
      "type": "event"
    },
    {
      "inputs": [
        {
          "internalType": "address",
          "name": "_tokenAddress",
          "type": "address"
        },
        {
          "internalType": "uint256",
          "name": "_amount",
          "type": "uint256"
        }
      ],
      "name": "deposit",
      "outputs": [],
      "stateMutability": "nonpayable",
      "type": "function"
    },
    {
      "inputs": [
        {
          "internalType": "address",
          "name": "_tokenAddress",
          "type": "address"
        },
        {
          "internalType": "uint256",
          "name": "_amount",
          "type": "uint256"
        }
      ],
      "name": "emergencyWithdraw",
      "outputs": [],
      "stateMutability": "nonpayable",
      "type": "function"
    },
    {
      "inputs": [],
      "name": "name",
      "outputs": [
        {
          "internalType": "string",
          "name": "",
          "type": "string"
        }
      ],
      "stateMutability": "view",
      "type": "function"
    },
    {
      "inputs": [],
      "name": "owner",
      "outputs": [
        {
          "internalType": "address",
          "name": "",
          "type": "address"
        }
      ],
      "stateMutability": "view",
      "type": "function"
    },
    {
      "inputs": [],
      "name": "renounceOwnership",
      "outputs": [],
      "stateMutability": "nonpayable",
      "type": "function"
    },
    {
      "inputs": [
        {
          "internalType": "address",
          "name": "newOwner",
          "type": "address"
        }
      ],
      "name": "transferOwnership",
      "outputs": [],
      "stateMutability": "nonpayable",
      "type": "function"
    }
  ],
  "transactionHash": "0xa8a8fce90ed9708d16b16da4756875adcfed33268a8d8f0fecc3d1055c3e41fe",
  "args": [],
  "numDeployments": 1,
  "solcInputHash": "8d54052dd6ff531ba200587187db4baa",
  "bytecode": "0x60c0604052601460808190527f446567697320456d657267656e637920506f6f6c00000000000000000000000060a0908152620000409160019190620000b0565b503480156200004e57600080fd5b506200005a3362000060565b6200019d565b600080546001600160a01b038381166001600160a01b0319831681178455604051919092169283917f8be0079c531659141344cd1fd0a4f28419497f9722a3daafe3b4186f6b6457e09190a35050565b828054620000be906200016c565b90600052602060002090601f016020900481019282620000e257600085556200012d565b82601f10620000fd57805160ff19168380011785556200012d565b828001600101855582156200012d579182015b828111156200012d57825182559160200191906001019062000110565b506200013b9291506200013f565b5090565b5b808211156200013b576000815560010162000140565b634e487b7160e01b600052602260045260246000fd5b6002810460018216806200018157607f821691505b6020821081141562000197576200019762000156565b50919050565b610af080620001ad6000396000f3fe608060405234801561001057600080fd5b50600436106100625760003560e01c806306fdde031461006757806347e7ef2414610085578063715018a61461009a5780638da5cb5b146100a257806395ccea67146100bb578063f2fde38b146100ce575b600080fd5b61006f6100e1565b60405161007c91906106c4565b60405180910390f35b610098610093366004610718565b61016f565b005b6100986101fc565b6000546001600160a01b031660405161007c9190610764565b6100986100c9366004610718565b610241565b6100986100dc366004610772565b61038d565b600180546100ee906107a9565b80601f016020809104026020016040519081016040528092919081815260200182805461011a906107a9565b80156101675780601f1061013c57610100808354040283529160200191610167565b820191906000526020600020905b81548152906001019060200180831161014a57829003601f168201915b505050505081565b600081116101985760405162461bcd60e51b815260040161018f9061080a565b60405180910390fd5b6101ad6001600160a01b0383163330846103f8565b336001600160a01b0316826001600160a01b03167f5548c837ab068cf56a2c2479df0882a4922fd203edb7517321831d95078c5f62836040516101f09190610820565b60405180910390a35050565b3361020f6000546001600160a01b031690565b6001600160a01b0316146102355760405162461bcd60e51b815260040161018f9061085e565b61023f6000610456565b565b336102546000546001600160a01b031690565b6001600160a01b03161461027a5760405162461bcd60e51b815260040161018f9061085e565b6040516370a0823160e01b81526000906001600160a01b038416906370a08231906102a9903090600401610764565b602060405180830381865afa1580156102c6573d6000803e3d6000fd5b505050506040513d601f19601f820116820180604052508101906102ea9190610879565b90508082111561030c5760405162461bcd60e51b815260040161018f906108cc565b6103326103216000546001600160a01b031690565b6001600160a01b03851690846104a6565b6000546001600160a01b03166001600160a01b0316836001600160a01b03167f9b1bfa7fa9ee420a16e124f794c35ac9f90472acc99140eb2f6447c714cad8eb846040516103809190610820565b60405180910390a3505050565b336103a06000546001600160a01b031690565b6001600160a01b0316146103c65760405162461bcd60e51b815260040161018f9061085e565b6001600160a01b0381166103ec5760405162461bcd60e51b815260040161018f9061091f565b6103f581610456565b50565b610450846323b872dd60e01b8585856040516024016104199392919061092f565b60408051601f198184030181529190526020810180516001600160e01b03166001600160e01b0319909316929092179091526104ca565b50505050565b600080546001600160a01b038381166001600160a01b0319831681178455604051919092169283917f8be0079c531659141344cd1fd0a4f28419497f9722a3daafe3b4186f6b6457e09190a35050565b6104c58363a9059cbb60e01b8484604051602401610419929190610957565b505050565b600061051f826040518060400160405280602081526020017f5361666545524332303a206c6f772d6c6576656c2063616c6c206661696c6564815250856001600160a01b03166105599092919063ffffffff16565b8051909150156104c5578080602001905181019061053d9190610985565b6104c55760405162461bcd60e51b815260040161018f906109eb565b60606105688484600085610572565b90505b9392505050565b6060824710156105945760405162461bcd60e51b815260040161018f90610a3c565b843b6105b25760405162461bcd60e51b815260040161018f90610a7e565b600080866001600160a01b031685876040516105ce9190610ab0565b60006040518083038185875af1925050503d806000811461060b576040519150601f19603f3d011682016040523d82523d6000602084013e610610565b606091505b509150915061062082828661062d565b925050505b949350505050565b6060831561063c57508161056b565b82511561064c5782518084602001fd5b8160405162461bcd60e51b815260040161018f91906106c4565b60005b83811015610681578181015183820152602001610669565b838111156104505750506000910152565b600061069c825190565b8084526020840193506106b3818560208601610666565b601f01601f19169290920192915050565b6020808252810161056b8184610692565b60006001600160a01b0382165b92915050565b6106f1816106d5565b81146103f557600080fd5b80356106e2816106e8565b806106f1565b80356106e281610707565b6000806040838503121561072e5761072e600080fd5b600061073a85856106fc565b925050602061074b8582860161070d565b9150509250929050565b61075e816106d5565b82525050565b602081016106e28284610755565b60006020828403121561078757610787600080fd5b600061062584846106fc565b634e487b7160e01b600052602260045260246000fd5b6002810460018216806107bd57607f821691505b602082108114156107d0576107d0610793565b50919050565b60198152602081017f506c65617365206465706f73697420736f6d652066756e647300000000000000815290505b60200190565b602080825281016106e2816107d6565b8061075e565b602081016106e2828461081a565b60208082527f4f776e61626c653a2063616c6c6572206973206e6f7420746865206f776e65729101908152610804565b602080825281016106e28161082e565b80516106e281610707565b60006020828403121561088e5761088e600080fd5b6000610625848461086e565b601e8152602081017f4e6f7420656e6f7567682062616c616e636520746f207769746864726177000081529050610804565b602080825281016106e28161089a565b60268152602081017f4f776e61626c653a206e6577206f776e657220697320746865207a65726f206181526564647265737360d01b602082015290505b60400190565b602080825281016106e2816108dc565b6060810161093d8286610755565b61094a6020830185610755565b610625604083018461081a565b604081016109658285610755565b61056b602083018461081a565b8015156106f1565b80516106e281610972565b60006020828403121561099a5761099a600080fd5b6000610625848461097a565b602a8152602081017f5361666545524332303a204552433230206f7065726174696f6e20646964206e8152691bdd081cdd58d8d9595960b21b60208201529050610919565b602080825281016106e2816109a6565b60268152602081017f416464726573733a20696e73756666696369656e742062616c616e636520666f8152651c8818d85b1b60d21b60208201529050610919565b602080825281016106e2816109fb565b601d8152602081017f416464726573733a2063616c6c20746f206e6f6e2d636f6e747261637400000081529050610804565b602080825281016106e281610a4c565b6000610a98825190565b610aa6818560208601610666565b9290920192915050565b6106e28183610a8e56fea264697066735822122085e3821212c62a3c74382ebae8e2923e88d2af88cf5fd630f329e47f189c709064736f6c634300080a0033",
  "devdoc": {
    "kind": "dev",
    "methods": {
      "deposit(address,uint256)": {
        "params": {
          "_amount": "The amount that the user want to stake",
          "_tokenAddress": "Address of the ERC20 token"
        }
      },
      "emergencyWithdraw(address,uint256)": {
        "details": "The ownership need to be transferred to another contract in the future",
        "params": {
          "_amount": "The amount that the user want to unstake",
          "_tokenAddress": "Address of the ERC20 token"
        }
      },
      "renounceOwnership()": {
        "details": "Renouncing ownership will leave the contract without an owner,         thereby removing any functionality that is only available to the owner."
      },
      "transferOwnership(address)": {
        "details": "Can only be called by the current owner.",
        "params": {
          "newOwner": "Address of the new owner"
        }
      }
    },
    "title": "Emergency Pool",
    "version": 1
  },
  "userdoc": {
    "kind": "user",
    "methods": {
      "deposit(address,uint256)": {
        "notice": "Manually stake into the pool"
      },
      "emergencyWithdraw(address,uint256)": {
        "notice": "Withdraw the asset when emergency (only by the owner)"
      },
      "owner()": {
        "notice": "Returns the address of the current owner."
      },
      "renounceOwnership()": {
        "notice": "Leaves the contract without owner. It will not be possible to call         `onlyOwner` functions anymore. Can only be called by the current owner."
      },
      "transferOwnership(address)": {
        "notice": "Transfers ownership of the contract to a new account (`newOwner`)."
      }
    },
    "notice": "Emergency pool in degis will keep a reserve vault for emergency usage.         The asset comes from part of the product's income (currently 10%).         Users can also stake funds into this contract manually.         The owner has the right to withdraw funds from emergency pool and it would be passed to community governance.",
    "version": 1
  },
  "storageLayout": {
    "storage": [
      {
        "astId": 21502,
        "contract": "contracts/EmergencyPool.sol:EmergencyPool",
        "label": "_owner",
        "offset": 0,
        "slot": "0",
        "type": "t_address"
      },
      {
        "astId": 6061,
        "contract": "contracts/EmergencyPool.sol:EmergencyPool",
        "label": "name",
        "offset": 0,
        "slot": "1",
        "type": "t_string_storage"
      }
    ],
    "types": {
      "t_address": {
        "encoding": "inplace",
        "label": "address",
        "numberOfBytes": "20"
      },
      "t_string_storage": {
        "encoding": "bytes",
        "label": "string",
        "numberOfBytes": "32"
      }
    }
  }
}