{
  "address": "0x7Df9E40Bcff4BF187F18e5F5F9361267a894beFc",
  "abi": [
    {
      "anonymous": false,
      "inputs": [
        {
          "indexed": false,
          "internalType": "uint256",
          "name": "poolId",
          "type": "uint256"
        },
        {
          "indexed": false,
          "internalType": "uint256",
          "name": "basicDegisPerSecond",
          "type": "uint256"
        },
        {
          "indexed": false,
          "internalType": "uint256",
          "name": "bonusDegisPerSecond",
          "type": "uint256"
        }
      ],
      "name": "DegisRewardChanged",
      "type": "event"
    },
    {
      "anonymous": false,
      "inputs": [
        {
          "indexed": false,
          "internalType": "uint256",
          "name": "poolId",
          "type": "uint256"
        },
        {
          "indexed": false,
          "internalType": "uint256",
          "name": "timestamp",
          "type": "uint256"
        }
      ],
      "name": "FarmingPoolStarted",
      "type": "event"
    },
    {
      "anonymous": false,
      "inputs": [
        {
          "indexed": false,
          "internalType": "uint256",
          "name": "poolId",
          "type": "uint256"
        },
        {
          "indexed": false,
          "internalType": "uint256",
          "name": "timestamp",
          "type": "uint256"
        }
      ],
      "name": "FarmingPoolStopped",
      "type": "event"
    },
    {
      "anonymous": false,
      "inputs": [
        {
          "indexed": false,
          "internalType": "address",
          "name": "staker",
          "type": "address"
        },
        {
          "indexed": false,
          "internalType": "address",
          "name": "rewardReceiver",
          "type": "address"
        },
        {
          "indexed": false,
          "internalType": "uint256",
          "name": "poolId",
          "type": "uint256"
        },
        {
          "indexed": false,
          "internalType": "uint256",
          "name": "pendingReward",
          "type": "uint256"
        }
      ],
      "name": "Harvest",
      "type": "event"
    },
    {
      "anonymous": false,
      "inputs": [
        {
          "indexed": false,
          "internalType": "address",
          "name": "lpToken",
          "type": "address"
        },
        {
          "indexed": false,
          "internalType": "uint256",
          "name": "basicDegisPerSecond",
          "type": "uint256"
        },
        {
          "indexed": false,
          "internalType": "uint256",
          "name": "bonusDegisPerSecond",
          "type": "uint256"
        }
      ],
      "name": "NewPoolAdded",
      "type": "event"
    },
    {
      "anonymous": false,
      "inputs": [
        {
          "indexed": true,
          "internalType": "address",
          "name": "previousOwner",
          "type": "address"
        },
        {
          "indexed": true,
          "internalType": "address",
          "name": "newOwner",
          "type": "address"
        }
      ],
      "name": "OwnershipTransferred",
      "type": "event"
    },
    {
      "anonymous": false,
      "inputs": [
        {
          "indexed": false,
          "internalType": "address",
          "name": "account",
          "type": "address"
        }
      ],
      "name": "Paused",
      "type": "event"
    },
    {
      "anonymous": false,
      "inputs": [
        {
          "indexed": false,
          "internalType": "uint256",
          "name": "poolId",
          "type": "uint256"
        },
        {
          "indexed": false,
          "internalType": "uint256",
          "name": "accDegisPerShare",
          "type": "uint256"
        },
        {
          "indexed": false,
          "internalType": "uint256",
          "name": "accDegisPerBonusShare",
          "type": "uint256"
        }
      ],
      "name": "PoolUpdated",
      "type": "event"
    },
    {
      "anonymous": false,
      "inputs": [
        {
          "indexed": false,
          "internalType": "address",
          "name": "staker",
          "type": "address"
        },
        {
          "indexed": false,
          "internalType": "uint256",
          "name": "poolId",
          "type": "uint256"
        },
        {
          "indexed": false,
          "internalType": "uint256",
          "name": "amount",
          "type": "uint256"
        }
      ],
      "name": "Stake",
      "type": "event"
    },
    {
      "anonymous": false,
      "inputs": [
        {
          "indexed": false,
          "internalType": "uint256",
          "name": "startTimestamp",
          "type": "uint256"
        }
      ],
      "name": "StartTimestampChanged",
      "type": "event"
    },
    {
      "anonymous": false,
      "inputs": [
        {
          "indexed": false,
          "internalType": "address",
          "name": "account",
          "type": "address"
        }
      ],
      "name": "Unpaused",
      "type": "event"
    },
    {
      "anonymous": false,
      "inputs": [
        {
          "indexed": false,
          "internalType": "address",
          "name": "staker",
          "type": "address"
        },
        {
          "indexed": false,
          "internalType": "uint256",
          "name": "poolId",
          "type": "uint256"
        },
        {
          "indexed": false,
          "internalType": "uint256",
          "name": "amount",
          "type": "uint256"
        }
      ],
      "name": "Withdraw",
      "type": "event"
    },
    {
      "inputs": [],
      "name": "SCALE",
      "outputs": [
        {
          "internalType": "uint256",
          "name": "",
          "type": "uint256"
        }
      ],
      "stateMutability": "view",
      "type": "function"
    },
    {
      "inputs": [],
      "name": "_nextPoolId",
      "outputs": [
        {
          "internalType": "uint256",
          "name": "",
          "type": "uint256"
        }
      ],
      "stateMutability": "view",
      "type": "function"
    },
    {
      "inputs": [
        {
          "internalType": "address",
          "name": "_lpToken",
          "type": "address"
        },
        {
          "internalType": "uint256",
          "name": "_basicDegisPerSecond",
          "type": "uint256"
        },
        {
          "internalType": "uint256",
          "name": "_bonusDegisPerSecond",
          "type": "uint256"
        },
        {
          "internalType": "bool",
          "name": "_withUpdate",
          "type": "bool"
        }
      ],
      "name": "add",
      "outputs": [],
      "stateMutability": "nonpayable",
      "type": "function"
    },
    {
      "inputs": [],
      "name": "currentRewardLevel",
      "outputs": [
        {
          "internalType": "uint256",
          "name": "",
          "type": "uint256"
        }
      ],
      "stateMutability": "view",
      "type": "function"
    },
    {
      "inputs": [],
      "name": "degis",
      "outputs": [
        {
          "internalType": "contract IDegisToken",
          "name": "",
          "type": "address"
        }
      ],
      "stateMutability": "view",
      "type": "function"
    },
    {
      "inputs": [
        {
          "internalType": "uint256",
          "name": "",
          "type": "uint256"
        },
        {
          "internalType": "address",
          "name": "",
          "type": "address"
        }
      ],
      "name": "extraClaimable",
      "outputs": [
        {
          "internalType": "uint256",
          "name": "",
          "type": "uint256"
        }
      ],
      "stateMutability": "view",
      "type": "function"
    },
    {
      "inputs": [],
      "name": "getPoolList",
      "outputs": [
        {
          "components": [
            {
              "internalType": "address",
              "name": "lpToken",
              "type": "address"
            },
            {
              "internalType": "uint256",
              "name": "basicDegisPerSecond",
              "type": "uint256"
            },
            {
              "internalType": "uint256",
              "name": "bonusDegisPerSecond",
              "type": "uint256"
            },
            {
              "internalType": "uint256",
              "name": "lastRewardTimestamp",
              "type": "uint256"
            },
            {
              "internalType": "uint256",
              "name": "accDegisPerShare",
              "type": "uint256"
            },
            {
              "internalType": "uint256",
              "name": "accDegisPerBonusShare",
              "type": "uint256"
            },
            {
              "internalType": "uint256",
              "name": "totalBonus",
              "type": "uint256"
            }
          ],
          "internalType": "struct FarmingPoolUpgradeable.PoolInfo[]",
          "name": "",
          "type": "tuple[]"
        }
      ],
      "stateMutability": "view",
      "type": "function"
    },
    {
      "inputs": [
        {
          "internalType": "uint256",
          "name": "_poolId",
          "type": "uint256"
        },
        {
          "internalType": "address",
          "name": "_user",
          "type": "address"
        }
      ],
      "name": "getUserBalance",
      "outputs": [
        {
          "internalType": "uint256",
          "name": "",
          "type": "uint256"
        }
      ],
      "stateMutability": "view",
      "type": "function"
    },
    {
      "inputs": [
        {
          "internalType": "uint256",
          "name": "_poolId",
          "type": "uint256"
        },
        {
          "internalType": "address",
          "name": "_to",
          "type": "address"
        }
      ],
      "name": "harvest",
      "outputs": [],
      "stateMutability": "nonpayable",
      "type": "function"
    },
    {
      "inputs": [
        {
          "internalType": "address",
          "name": "_degis",
          "type": "address"
        }
      ],
      "name": "initialize",
      "outputs": [],
      "stateMutability": "nonpayable",
      "type": "function"
    },
    {
      "inputs": [
        {
          "internalType": "uint256",
          "name": "",
          "type": "uint256"
        }
      ],
      "name": "isFarming",
      "outputs": [
        {
          "internalType": "bool",
          "name": "",
          "type": "bool"
        }
      ],
      "stateMutability": "view",
      "type": "function"
    },
    {
      "inputs": [],
      "name": "massUpdatePools",
      "outputs": [],
      "stateMutability": "nonpayable",
      "type": "function"
    },
    {
      "inputs": [],
      "name": "name",
      "outputs": [
        {
          "internalType": "string",
          "name": "",
          "type": "string"
        }
      ],
      "stateMutability": "view",
      "type": "function"
    },
    {
      "inputs": [],
      "name": "owner",
      "outputs": [
        {
          "internalType": "address",
          "name": "",
          "type": "address"
        }
      ],
      "stateMutability": "view",
      "type": "function"
    },
    {
      "inputs": [],
      "name": "pause",
      "outputs": [],
      "stateMutability": "nonpayable",
      "type": "function"
    },
    {
      "inputs": [],
      "name": "paused",
      "outputs": [
        {
          "internalType": "bool",
          "name": "",
          "type": "bool"
        }
      ],
      "stateMutability": "view",
      "type": "function"
    },
    {
      "inputs": [
        {
          "internalType": "uint256",
          "name": "_poolId",
          "type": "uint256"
        },
        {
          "internalType": "address",
          "name": "_user",
          "type": "address"
        }
      ],
      "name": "pendingDegis",
      "outputs": [
        {
          "internalType": "uint256",
          "name": "",
          "type": "uint256"
        }
      ],
      "stateMutability": "view",
      "type": "function"
    },
    {
      "inputs": [
        {
          "internalType": "uint256",
          "name": "",
          "type": "uint256"
        },
        {
          "internalType": "uint256",
          "name": "",
          "type": "uint256"
        }
      ],
      "name": "piecewiseBasic",
      "outputs": [
        {
          "internalType": "uint256",
          "name": "",
          "type": "uint256"
        }
      ],
      "stateMutability": "view",
      "type": "function"
    },
    {
      "inputs": [
        {
          "internalType": "uint256",
          "name": "",
          "type": "uint256"
        }
      ],
      "name": "poolList",
      "outputs": [
        {
          "internalType": "address",
          "name": "lpToken",
          "type": "address"
        },
        {
          "internalType": "uint256",
          "name": "basicDegisPerSecond",
          "type": "uint256"
        },
        {
          "internalType": "uint256",
          "name": "bonusDegisPerSecond",
          "type": "uint256"
        },
        {
          "internalType": "uint256",
          "name": "lastRewardTimestamp",
          "type": "uint256"
        },
        {
          "internalType": "uint256",
          "name": "accDegisPerShare",
          "type": "uint256"
        },
        {
          "internalType": "uint256",
          "name": "accDegisPerBonusShare",
          "type": "uint256"
        },
        {
          "internalType": "uint256",
          "name": "totalBonus",
          "type": "uint256"
        }
      ],
      "stateMutability": "view",
      "type": "function"
    },
    {
      "inputs": [
        {
          "internalType": "address",
          "name": "",
          "type": "address"
        }
      ],
      "name": "poolMapping",
      "outputs": [
        {
          "internalType": "uint256",
          "name": "",
          "type": "uint256"
        }
      ],
      "stateMutability": "view",
      "type": "function"
    },
    {
      "inputs": [
        {
          "internalType": "uint256",
          "name": "",
          "type": "uint256"
        }
      ],
      "name": "poolRewardLevel",
      "outputs": [
        {
          "internalType": "uint256",
          "name": "",
          "type": "uint256"
        }
      ],
      "stateMutability": "view",
      "type": "function"
    },
    {
      "inputs": [],
      "name": "renounceOwnership",
      "outputs": [],
      "stateMutability": "nonpayable",
      "type": "function"
    },
    {
      "inputs": [
        {
          "internalType": "uint256",
          "name": "_poolId",
          "type": "uint256"
        },
        {
          "internalType": "uint256",
          "name": "_basicDegisPerSecond",
          "type": "uint256"
        },
        {
          "internalType": "uint256",
          "name": "_bonusDegisPerSecond",
          "type": "uint256"
        },
        {
          "internalType": "bool",
          "name": "_withUpdate",
          "type": "bool"
        }
      ],
      "name": "setDegisReward",
      "outputs": [],
      "stateMutability": "nonpayable",
      "type": "function"
    },
    {
      "inputs": [
        {
          "internalType": "uint256",
          "name": "_poolId",
          "type": "uint256"
        },
        {
          "internalType": "uint256[]",
          "name": "_threshold",
          "type": "uint256[]"
        },
        {
          "internalType": "uint256[]",
          "name": "_reward",
          "type": "uint256[]"
        }
      ],
      "name": "setPiecewise",
      "outputs": [],
      "stateMutability": "nonpayable",
      "type": "function"
    },
    {
      "inputs": [
        {
          "internalType": "uint256",
          "name": "_startTimestamp",
          "type": "uint256"
        }
      ],
      "name": "setStartTimestamp",
      "outputs": [],
      "stateMutability": "nonpayable",
      "type": "function"
    },
    {
      "inputs": [
        {
          "internalType": "address",
          "name": "_veDEG",
          "type": "address"
        }
      ],
      "name": "setVeDEG",
      "outputs": [],
      "stateMutability": "nonpayable",
      "type": "function"
    },
    {
      "inputs": [
        {
          "internalType": "uint256",
          "name": "_poolId",
          "type": "uint256"
        },
        {
          "internalType": "uint256",
          "name": "_amount",
          "type": "uint256"
        }
      ],
      "name": "stake",
      "outputs": [],
      "stateMutability": "nonpayable",
      "type": "function"
    },
    {
      "inputs": [],
      "name": "startTimestamp",
      "outputs": [
        {
          "internalType": "uint256",
          "name": "",
          "type": "uint256"
        }
      ],
      "stateMutability": "view",
      "type": "function"
    },
    {
      "inputs": [
        {
          "internalType": "uint256",
          "name": "",
          "type": "uint256"
        },
        {
          "internalType": "uint256",
          "name": "",
          "type": "uint256"
        }
      ],
      "name": "thresholdBasic",
      "outputs": [
        {
          "internalType": "uint256",
          "name": "",
          "type": "uint256"
        }
      ],
      "stateMutability": "view",
      "type": "function"
    },
    {
      "inputs": [
        {
          "internalType": "address",
          "name": "newOwner",
          "type": "address"
        }
      ],
      "name": "transferOwnership",
      "outputs": [],
      "stateMutability": "nonpayable",
      "type": "function"
    },
    {
      "inputs": [],
      "name": "unpause",
      "outputs": [],
      "stateMutability": "nonpayable",
      "type": "function"
    },
    {
      "inputs": [
        {
          "internalType": "address",
          "name": "_user",
          "type": "address"
        },
        {
          "internalType": "uint256",
          "name": "_newVeDEGBalance",
          "type": "uint256"
        }
      ],
      "name": "updateBonus",
      "outputs": [],
      "stateMutability": "nonpayable",
      "type": "function"
    },
    {
      "inputs": [
        {
          "internalType": "uint256",
          "name": "_poolId",
          "type": "uint256"
        }
      ],
      "name": "updatePool",
      "outputs": [],
      "stateMutability": "nonpayable",
      "type": "function"
    },
    {
      "inputs": [
        {
          "internalType": "uint256",
          "name": "",
          "type": "uint256"
        },
        {
          "internalType": "address",
          "name": "",
          "type": "address"
        }
      ],
      "name": "userInfo",
      "outputs": [
        {
          "internalType": "uint256",
          "name": "rewardDebt",
          "type": "uint256"
        },
        {
          "internalType": "uint256",
          "name": "stakingBalance",
          "type": "uint256"
        },
        {
          "internalType": "uint256",
          "name": "bonus",
          "type": "uint256"
        }
      ],
      "stateMutability": "view",
      "type": "function"
    },
    {
      "inputs": [],
      "name": "veDEG",
      "outputs": [
        {
          "internalType": "contract IVeDEG",
          "name": "",
          "type": "address"
        }
      ],
      "stateMutability": "view",
      "type": "function"
    },
    {
      "inputs": [
        {
          "internalType": "uint256",
          "name": "_poolId",
          "type": "uint256"
        },
        {
          "internalType": "uint256",
          "name": "_amount",
          "type": "uint256"
        }
      ],
      "name": "withdraw",
      "outputs": [],
      "stateMutability": "nonpayable",
      "type": "function"
    }
  ],
  "transactionHash": "0x8fe79b729e785582f90bfd1b9c45326b6ba605e2a852960e5bd7036e332ece4f",
  "args": [],
  "numDeployments": 3,
  "solcInputHash": "c9c062601ced39fb658308cb86377c61",
  "bytecode": "0x608060405234801561001057600080fd5b50613871806100206000396000f3fe608060405234801561001057600080fd5b506004361061025c5760003560e01c80637b0472f011610145578063cdcd2907116100bd578063d54465181161008c578063e6fd48bc11610071578063e6fd48bc14610583578063eced55261461058c578063f2fde38b1461059857600080fd5b8063d54465181461055d578063e4a763151461057057600080fd5b8063cdcd29071461050f578063cdfb6cf314610522578063d13f67bc14610535578063d41dcbea1461054857600080fd5b8063a06ddcb311610114578063c44bef75116100f9578063c44bef75146104be578063c4d66de8146104d1578063c73d2bae146104e457600080fd5b8063a06ddcb31461047b578063bfa7decb1461049e57600080fd5b80637b0472f0146103fe5780638456cb59146104115780638da5cb5b1461041957806393f1a40b1461043257600080fd5b8063441a3e70116101d85780635bf56068116101a75780635e4651f91161018c5780635e4651f9146103db578063630b5ba1146103ee578063715018a6146103f657600080fd5b80635bf56068146103b45780635c975abb146103c757600080fd5b8063441a3e70146103685780634b34b6871461037b5780634f3e7ba61461038e57806351eb05a6146103a157600080fd5b806329baefff1161022f5780632a48235b116102145780632a48235b1461031a5780632c678a3e146103405780633f4ba83a1461036057600080fd5b806329baefff146102f157806329fd2007146102fa57600080fd5b806306fdde031461026157806307a96cbf146102b357806317fb77de146102c857806318fccc76146102de575b600080fd5b61029d6040518060400160405280601581526020017f4465676973204c50204661726d696e6720506f6f6c000000000000000000000081525081565b6040516102aa9190612b9a565b60405180910390f35b6102c66102c1366004612bdb565b6105ab565b005b6102d160cb5481565b6040516102aa9190612c04565b6102c66102ec366004612c23565b61060d565b6102d160d45481565b60c95461030d906001600160a01b031681565b6040516102aa9190612c7f565b61032d610328366004612c8d565b61087e565b6040516102aa9796959493929190612cb7565b6102d161034e366004612bdb565b60ce6020526000908152604090205481565b6102c66108d7565b6102c6610376366004612d1f565b61090b565b6102c6610389366004612da4565b610c6a565b60ca5461030d906001600160a01b031681565b6102c66103af366004612c8d565b610d26565b6102d16103c2366004612d1f565b61102b565b60975460ff165b6040516102aa9190612e3c565b6102d16103e9366004612d1f565b61105c565b6102c6611078565b6102c66110eb565b6102c661040c366004612d1f565b61111f565b6102c6611458565b6033546001600160a01b03166040516102aa9190612e4a565b61046c610440366004612c23565b60d060209081526000928352604080842090915290825290208054600182015460029092015490919083565b6040516102aa93929190612e58565b6103ce610489366004612c8d565b60cf6020526000908152604090205460ff1681565b6102d16104ac366004612c8d565b60d56020526000908152604090205481565b6102c66104cc366004612c8d565b61148a565b6102c66104df366004612bdb565b611539565b6102d16104f2366004612c23565b60d160209081526000928352604080842090915290825290205481565b6102c661051d366004612e93565b611780565b6102d1610530366004612c23565b611a0e565b6102d1610543366004612c23565b611a3b565b610550611cf2565b6040516102aa9190612fd3565b6102c661056b366004612fe4565b611d9a565b6102c661057e366004613006565b611f79565b6102d160cc5481565b6102d164e8d4a5100081565b6102c66105a6366004612bdb565b612271565b6033546001600160a01b031633146105de5760405162461bcd60e51b81526004016105d59061305b565b60405180910390fd5b60ca805473ffffffffffffffffffffffffffffffffffffffff19166001600160a01b0392909216919091179055565b60026065540361062f5760405162461bcd60e51b81526004016105d59061309d565b600260655560975460ff16156106575760405162461bcd60e51b81526004016105d5906130df565b600082815260cf602052604090205460ff161561067c5761067782610d26565b6106a6565b4260cd8381548110610690576106906130ef565b9060005260206000209060070201600301819055505b600060cd83815481106106bb576106bb6130ef565b600091825260208083206040805160e081018252600790940290910180546001600160a01b03168452600181015484840152600280820154858401526003820154606086015260048201546080860152600582015460a0860190815260069092015460c086015288865260d084528286203380885290855283872080548b895260d1875285892092895291909552928620549151908401549496509294939192909164e8d4a510009161076d9161311b565b86608001518660010154610781919061311b565b61078b919061313a565b6107959190613168565b61079f919061313a565b6107a9919061317c565b600086815260d1602090815260408083203384529091528120559050806107e25760405162461bcd60e51b81526004016105d5906131c5565b64e8d4a510008360a0015183600201546107fc919061311b565b84608001518460010154610810919061311b565b61081a919061313a565b6108249190613168565b8255600061083285836122cd565b90507fdec9257d126f56798a34ce7ca0ffedeaa9a024543946f79c3b5038035ba32a1e3386888460405161086994939291906131d5565b60405180910390a15050600160655550505050565b60cd818154811061088e57600080fd5b600091825260209091206007909102018054600182015460028301546003840154600485015460058601546006909601546001600160a01b039095169650929491939092919087565b6033546001600160a01b031633146109015760405162461bcd60e51b81526004016105d59061305b565b6109096123ab565b565b60026065540361092d5760405162461bcd60e51b81526004016105d59061309d565b600260655560975460ff16156109555760405162461bcd60e51b81526004016105d5906130df565b600081116109755760405162461bcd60e51b81526004016105d590613245565b600060cd838154811061098a5761098a6130ef565b6000918252602080832086845260d08252604080852033865290925292206001810154600790920290920192508311156109d65760405162461bcd60e51b81526004016105d590613287565b600084815260cf602052604090205460ff16156109fb576109f684610d26565b610a02565b4260038301555b8054600085815260d1602090815260408083203384529091528120546005850154600285015492939264e8d4a5100091610a3b9161311b565b86600401548660010154610a4f919061311b565b610a59919061313a565b610a639190613168565b610a6d919061313a565b610a77919061317c565b600086815260d160209081526040808320338085529252822082905591925090610aa190836122cd565b90507fdec9257d126f56798a34ce7ca0ffedeaa9a024543946f79c3b5038035ba32a1e33338884604051610ad894939291906131d5565b60405180910390a18354600090610afc906001906001600160a01b03163389612411565b905080846001016000828254610b12919061317c565b909155505060ca546001600160a01b031615610bdc57600284015460ca546040516370a0823160e01b8152610bb4916001600160a01b0316906370a0823190610b5f903390600401612e4a565b602060405180830381865afa158015610b7c573d6000803e3d6000fd5b505050506040513d601f19601f82011682018060405250810190610ba091906132a2565b8660010154610baf919061311b565b612554565b6002860181905560068701548291610bcb9161313a565b610bd5919061317c565b6006870155505b64e8d4a5100085600501548560020154610bf6919061311b565b86600401548660010154610c0a919061311b565b610c14919061313a565b610c1e9190613168565b84556040517ff279e6a1f5e320cca91135676d9cb6e44ca8a08c0b88342bcdb1144f6511b56890610c549033908a9085906132c3565b60405180910390a1505060016065555050505050565b6033546001600160a01b03163314610c945760405162461bcd60e51b81526004016105d59061305b565b600085815260d260205260409020610cad908585612adc565b50600085815260d360205260409020610cc7908383612adc565b50600082826000818110610cdd57610cdd6130ef565b905060200201351115610d0857600085815260cf60205260409020805460ff19166001179055610d1f565b600085815260cf60205260409020805460ff191690555b5050505050565b600060cd8281548110610d3b57610d3b6130ef565b9060005260206000209060070201905080600301544211610d5a575050565b80546040516370a0823160e01b81526000916001600160a01b0316906370a0823190610d8a903090600401612e4a565b602060405180830381865afa158015610da7573d6000803e3d6000fd5b505050506040513d601f19601f82011682018060405250810190610dcb91906132a2565b905080600003610de057504260039091015550565b6000826003015442610df2919061317c565b90506000836001015482610e06919061311b565b90506000846002015483610e1a919061311b565b905083610e2c64e8d4a510008461311b565b610e369190613168565b856004016000828254610e49919061313a565b90915550506006850154600003610e665760006005860155610e9d565b6006850154610e7a64e8d4a510008361311b565b610e849190613168565b856005016000828254610e97919061313a565b90915550505b60c9546001600160a01b031663b476739830610eb9848661313a565b6040518363ffffffff1660e01b8152600401610ed69291906132d1565b600060405180830381600087803b158015610ef057600080fd5b505af1158015610f04573d6000803e3d6000fd5b50504260038801555050600086815260d5602090815260408083205460d29092529091205415610fe057600087815260d260205260408120805483908110610f4e57610f4e6130ef565b60009182526020808320909101548a835260d2909152604090912054909150610f799060019061317c565b82108015610fba5750600088815260d260205260409020610f9b83600161313a565b81548110610fab57610fab6130ef565b90600052602060002001548610155b15610fcd57610fc8886125c4565b610fde565b80861015610fde57610fde886125c4565b505b600486015460058701546040517f17b8644f386d1c7c7138ef98b3c8035622bbe94d7be9b26f71d2654a547c29439261101a928b92612e58565b60405180910390a150505050505050565b60d3602052816000526040600020818154811061104757600080fd5b90600052602060002001600091509150505481565b60d2602052816000526040600020818154811061104757600080fd5b60cd5460015b818110156110e757600081815260cf602052604081205460ff16151590036110ce574260cd82815481106110b4576110b46130ef565b9060005260206000209060070201600301819055506110d7565b6110d781610d26565b6110e0816132ec565b905061107e565b5050565b6033546001600160a01b031633146111155760405162461bcd60e51b81526004016105d59061305b565b6109096000612731565b6002606554036111415760405162461bcd60e51b81526004016105d59061309d565b600260655560975460ff16156111695760405162461bcd60e51b81526004016105d5906130df565b600082815260cf6020526040902054829060ff166111995760405162461bcd60e51b81526004016105d590613337565b600082116111b95760405162461bcd60e51b81526004016105d590613379565b600060cd84815481106111ce576111ce6130ef565b6000918252602080832087845260d0825260408085203386529092529220600790910290910191506111ff85610d26565b6001810154156112ea578054600086815260d1602090815260408083203384529091528120546005850154600285015492939264e8d4a51000916112429161311b565b86600401548660010154611256919061311b565b611260919061313a565b61126a9190613168565b611274919061313a565b61127e919061317c565b600087815260d1602090815260408083203380855292528220829055919250906112a890836122cd565b90507fdec9257d126f56798a34ce7ca0ffedeaa9a024543946f79c3b5038035ba32a1e333389846040516112df94939291906131d5565b60405180910390a150505b81546000906113059082906001600160a01b03163388612411565b90508082600101600082825461131b919061313a565b909155505060ca546001600160a01b0316156113e057600282015460ca546040516370a0823160e01b81526113b8916001600160a01b0316906370a0823190611368903390600401612e4a565b602060405180830381865afa158015611385573d6000803e3d6000fd5b505050506040513d601f19601f820116820180604052508101906113a991906132a2565b8460010154610baf919061311b565b60028401819055600685015482916113cf9161313a565b6113d9919061317c565b6006850155505b64e8d4a51000836005015483600201546113fa919061311b565b8460040154846001015461140e919061311b565b611418919061313a565b6114229190613168565b82556040517f5af417134f72a9d41143ace85b0a26dce6f550f894f2cbc1eeee8810603d91b690610869903390899085906132c3565b6033546001600160a01b031633146114825760405162461bcd60e51b81526004016105d59061305b565b610909612790565b6033546001600160a01b031633146114b45760405162461bcd60e51b81526004016105d59061305b565b60975460ff16156114d75760405162461bcd60e51b81526004016105d5906130df565b60cb546001146114f95760405162461bcd60e51b81526004016105d5906133e3565b60cc8190556040517faf8fc8a4c9a55a9a29c3e99cd1797d43062c696f192896c79cbebd7da3286d829061152e908390612c04565b60405180910390a150565b600054610100900460ff166115545760005460ff1615611558565b303b155b6115745760405162461bcd60e51b81526004016105d59061344b565b600054610100900460ff16158015611596576000805461ffff19166101011790555b6001600160a01b0382166115bc5760405162461bcd60e51b81526004016105d59061348d565b6115c46127e8565b6115cc612817565b6115d4612845565b60c980546001600160a01b0380851673ffffffffffffffffffffffffffffffffffffffff1992831617909255600160cb8190556040805160e081018252600080825260208201818152928201818152606083018281526080840183815260a0850184815260c0860185815260cd8054998a018155909552945160079097027f83978b4c69c48dd978ab43fe30f077615294f938fb7f936d9eb340e51ea7db2e8101805498909a16979098169690961790975592517f83978b4c69c48dd978ab43fe30f077615294f938fb7f936d9eb340e51ea7db2f86015591517f83978b4c69c48dd978ab43fe30f077615294f938fb7f936d9eb340e51ea7db3085015593517f83978b4c69c48dd978ab43fe30f077615294f938fb7f936d9eb340e51ea7db3184015590517f83978b4c69c48dd978ab43fe30f077615294f938fb7f936d9eb340e51ea7db3283015591517f83978b4c69c48dd978ab43fe30f077615294f938fb7f936d9eb340e51ea7db3382015590517f83978b4c69c48dd978ab43fe30f077615294f938fb7f936d9eb340e51ea7db349091015580156110e7576000805461ff00191690555050565b6033546001600160a01b031633146117aa5760405162461bcd60e51b81526004016105d59061305b565b60975460ff16156117cd5760405162461bcd60e51b81526004016105d5906130df565b60cd84815481106117e0576117e06130ef565b9060005260206000209060070201600301546000036118115760405162461bcd60e51b81526004016105d5906134cf565b811561183757600083116118375760405162461bcd60e51b81526004016105d590613511565b801561184a57611845611078565b611853565b61185384610d26565b600084815260cf602052604090205460ff161580156118725750600083115b156118cb57600084815260cf602052604090819020805460ff19166001179055517f6140f1d5adcbca6c6b24c3b5e695335cd1a2071c7e03881172dc9eb0e488225c906118c29086904290613521565b60405180910390a15b8260000361197a57600084815260cf60205260408120805460ff1916905560cd8054869081106118fd576118fd6130ef565b906000526020600020906007020160010181905550600060cd8581548110611927576119276130ef565b9060005260206000209060070201600201819055507f4654f9b7bb3ba4d66e3a4e972e39db189ac7b4fdf5f2a95d57a4eb4d91a16d45844260405161196d929190613521565b60405180910390a1611a08565b8260cd858154811061198e5761198e6130ef565b9060005260206000209060070201600101819055508160cd85815481106119b7576119b76130ef565b9060005260206000209060070201600201819055507f12558fa101886c4fd9ad5e0b9932a6ffd3653b63380b1da3f024ddaf506c22eb8484846040516119ff93929190612e58565b60405180910390a15b50505050565b600082815260d0602090815260408083206001600160a01b03851684529091529020600101545b92915050565b60008060cd8481548110611a5157611a516130ef565b60009182526020918290206040805160e081018252600790930290910180546001600160a01b0316835260018101549383019390935260028301549082015260038201546060820181905260048301546080830152600583015460a083015260069092015460c082015291501580611acc5750806060015142105b80611ad8575060cc5442105b15611ae7576000915050611a35565b600084815260d0602090815260408083206001600160a01b0380881685529083528184208251606081018452815481526001820154948101949094526002015483830152845191516370a0823160e01b81529293929116906370a0823190611b53903090600401612e4a565b602060405180830381865afa158015611b70573d6000803e3d6000fd5b505050506040513d601f19601f82011682018060405250810190611b9491906132a2565b608084015160a0850151919250906000839003611bb957600095505050505050611a35565b600088815260cf602052604090205460ff1615611c6d576000856060015142611be2919061317c565b90506000818760200151611bf6919061311b565b905084611c0864e8d4a510008361311b565b611c129190613168565b611c1c908561313a565b60c088015190945015611c6a576000828860400151611c3b919061311b565b60c0890151909150611c5264e8d4a510008361311b565b611c5c9190613168565b611c66908561313a565b9350505b50505b8351600089815260d1602090815260408083206001600160a01b038c168452909152808220549087015191929164e8d4a5100090611cac90869061311b565b868960200151611cbc919061311b565b611cc6919061313a565b611cd09190613168565b611cda919061313a565b611ce4919061317c565b9650611a3595505050505050565b606060cd805480602002602001604051908101604052809291908181526020016000905b82821015611d915760008481526020908190206040805160e0810182526007860290920180546001600160a01b03168352600180820154848601526002820154928401929092526003810154606084015260048101546080840152600581015460a08401526006015460c08301529083529092019101611d16565b50505050905090565b60ca546001600160a01b03163314611dc45760405162461bcd60e51b81526004016105d590613561565b60cd5460005b81811015611a0857600081815260cf602052604090205460ff1615611f6957600081815260d0602090815260408083206001600160a01b038816845290915281206001810154909103611e1d5750611f69565b600060cd8381548110611e3257611e326130ef565b90600052602060002090600702019050611e4b83610d26565b6000826000015464e8d4a5100083600501548560020154611e6c919061311b565b84600401548660010154611e80919061311b565b611e8a919061313a565b611e949190613168565b611e9e919061317c565b600085815260d1602090815260408083206001600160a01b038c168452909152812080549293508392909190611ed590849061313a565b909155505060028301546001840154600090611ef590610baf908a61311b565b60028601819055600585015490915064e8d4a5100090611f15908361311b565b85600401548760010154611f29919061311b565b611f33919061313a565b611f3d9190613168565b855560068401548290611f5190839061313a565b611f5b919061317c565b846006018190555050505050505b611f72816132ec565b9050611dca565b836001600160a01b038116611fa05760405162461bcd60e51b81526004016105d59061348d565b6033546001600160a01b03163314611fca5760405162461bcd60e51b81526004016105d59061305b565b60975460ff1615611fed5760405162461bcd60e51b81526004016105d5906130df565b611ff685612878565b156120135760405162461bcd60e51b81526004016105d5906135a3565b821561203957600084116120395760405162461bcd60e51b81526004016105d590613511565b811561204757612047611078565b600060cc54421161205a5760cc5461205c565b425b6040805160e0810182526001600160a01b038981168252602082018981529282018881526060830185815260006080850181815260a0860182815260c0870183815260cd8054600181018255945296517f83978b4c69c48dd978ab43fe30f077615294f938fb7f936d9eb340e51ea7db2e6007909402938401805473ffffffffffffffffffffffffffffffffffffffff1916919097161790955595517f83978b4c69c48dd978ab43fe30f077615294f938fb7f936d9eb340e51ea7db2f82015591517f83978b4c69c48dd978ab43fe30f077615294f938fb7f936d9eb340e51ea7db30830155517f83978b4c69c48dd978ab43fe30f077615294f938fb7f936d9eb340e51ea7db3182015592517f83978b4c69c48dd978ab43fe30f077615294f938fb7f936d9eb340e51ea7db32840155517f83978b4c69c48dd978ab43fe30f077615294f938fb7f936d9eb340e51ea7db33830155517f83978b4c69c48dd978ab43fe30f077615294f938fb7f936d9eb340e51ea7db3490910155905084156121fd5760cb54600090815260cf60205260409020805460ff191660011790555b60cb805490600061220d836132ec565b909155506001600160a01b038716600090815260ce60205260409081902091909155517f5f9d2cd19aa3f32e9e8cc45267a493f9956c1b955a220136161ff8ad595bc78290612261908890889088906132c3565b60405180910390a1505050505050565b6033546001600160a01b0316331461229b5760405162461bcd60e51b81526004016105d59061305b565b6001600160a01b0381166122c15760405162461bcd60e51b81526004016105d59061360b565b6122ca81612731565b50565b60c9546040516370a0823160e01b815260009182916001600160a01b03909116906370a0823190612302903090600401612e4a565b602060405180830381865afa15801561231f573d6000803e3d6000fd5b505050506040513d601f19601f8201168201806040525081019061234391906132a2565b9050600081116123655760405162461bcd60e51b81526004016105d59061364d565b8083111561238b5760c954612384906001600160a01b031685836128a9565b9050611a35565b60c9546123a2906001600160a01b031685856128a9565b82915050611a35565b60975460ff166123cd5760405162461bcd60e51b81526004016105d59061368f565b6097805460ff191690557f5db9ee0a495bf2e6ff9c91a7834c1ba4fdd244a5e8aa4e537bd38aeae4b073aa335b6040516124079190612e4a565b60405180910390a1565b600080846001600160a01b03166370a08231306040518263ffffffff1660e01b81526004016124409190612e4a565b602060405180830381865afa15801561245d573d6000803e3d6000fd5b505050506040513d601f19601f8201168201806040525081019061248191906132a2565b905085156124a25761249d6001600160a01b03861685856128a9565b6124b7565b6124b76001600160a01b038616853086612931565b6040516370a0823160e01b81526000906001600160a01b038716906370a08231906124e6903090600401612e4a565b602060405180830381865afa158015612503573d6000803e3d6000fd5b505050506040513d601f19601f8201168201806040525081019061252791906132a2565b90508661253d57612538828261317c565b612547565b612547818361317c565b925050505b949350505050565b600060038211156125b5575080600061256e600283613168565b61257990600161313a565b90505b818110156125af579050806002816125948186613168565b61259e919061313a565b6125a89190613168565b905061257c565b50919050565b81156125bf575060015b919050565b600060cd82815481106125d9576125d96130ef565b60009182526020909120600790910201546040516370a0823160e01b81526001600160a01b03909116906370a0823190612617903090600401612e4a565b602060405180830381865afa158015612634573d6000803e3d6000fd5b505050506040513d601f19601f8201168201806040525081019061265891906132a2565b600083815260d260205260408120549192509081906126799060019061317c565b90505b600084815260d26020526040902080548290811061269c5761269c6130ef565b906000526020600020015483106126f257600084815260d3602052604090208054829081106126cd576126cd6130ef565b600091825260208083209091015486835260d590915260409091208290559150612702565b6126fb8161369f565b905061267c565b508060cd8481548110612717576127176130ef565b906000526020600020906007020160010181905550505050565b603380546001600160a01b0383811673ffffffffffffffffffffffffffffffffffffffff19831681179093556040519116919082907f8be0079c531659141344cd1fd0a4f28419497f9722a3daafe3b4186f6b6457e090600090a35050565b60975460ff16156127b35760405162461bcd60e51b81526004016105d5906130df565b6097805460ff191660011790557f62e78cea01bee320cd4e420270b5ea74000d11b0c9f74754ebdbfc544b05a2586123fa3390565b600054610100900460ff1661280f5760405162461bcd60e51b81526004016105d59061370e565b610909612952565b600054610100900460ff1661283e5760405162461bcd60e51b81526004016105d59061370e565b6001606555565b600054610100900460ff1661286c5760405162461bcd60e51b81526004016105d59061370e565b6097805460ff19169055565b6001600160a01b038116600090815260ce602052604081205480820361289f5760006128a2565b60015b9392505050565b61292c8363a9059cbb60e01b84846040516024016128c89291906132d1565b60408051601f198184030181529190526020810180517bffffffffffffffffffffffffffffffffffffffffffffffffffffffff167fffffffff0000000000000000000000000000000000000000000000000000000090931692909217909152612982565b505050565b611a08846323b872dd60e01b8585856040516024016128c89392919061371e565b600054610100900460ff166129795760405162461bcd60e51b81526004016105d59061370e565b61090933612731565b60006129d7826040518060400160405280602081526020017f5361666545524332303a206c6f772d6c6576656c2063616c6c206661696c6564815250856001600160a01b0316612a119092919063ffffffff16565b80519091501561292c57808060200190518101906129f59190613744565b61292c5760405162461bcd60e51b81526004016105d5906137bd565b606061254c848460008585843b612a3a5760405162461bcd60e51b81526004016105d5906137ff565b600080866001600160a01b03168587604051612a569190613831565b60006040518083038185875af1925050503d8060008114612a93576040519150601f19603f3d011682016040523d82523d6000602084013e612a98565b606091505b509150915061254782828660608315612ab25750816128a2565b825115612ac25782518084602001fd5b8160405162461bcd60e51b81526004016105d59190612b9a565b828054828255906000526020600020908101928215612b17579160200282015b82811115612b17578235825591602001919060010190612afc565b50612b23929150612b27565b5090565b5b80821115612b235760008155600101612b28565b60005b83811015612b57578181015183820152602001612b3f565b83811115611a085750506000910152565b6000612b72825190565b808452602084019350612b89818560208601612b3c565b601f01601f19169290920192915050565b602080825281016128a28184612b68565b60006001600160a01b038216611a35565b612bc581612bab565b81146122ca57600080fd5b8035611a3581612bbc565b600060208284031215612bf057612bf0600080fd5b600061254c8484612bd0565b805b82525050565b60208101611a358284612bfc565b80612bc5565b8035611a3581612c12565b60008060408385031215612c3957612c39600080fd5b6000612c458585612c18565b9250506020612c5685828601612bd0565b9150509250929050565b6000611a3582612bab565b6000611a3582612c60565b612bfe81612c6b565b60208101611a358284612c76565b600060208284031215612ca257612ca2600080fd5b600061254c8484612c18565b612bfe81612bab565b60e08101612cc5828a612cae565b612cd26020830189612bfc565b612cdf6040830188612bfc565b612cec6060830187612bfc565b612cf96080830186612bfc565b612d0660a0830185612bfc565b612d1360c0830184612bfc565b98975050505050505050565b60008060408385031215612d3557612d35600080fd5b6000612d418585612c18565b9250506020612c5685828601612c18565b60008083601f840112612d6757612d67600080fd5b50813567ffffffffffffffff811115612d8257612d82600080fd5b602083019150836020820283011115612d9d57612d9d600080fd5b9250929050565b600080600080600060608688031215612dbf57612dbf600080fd5b6000612dcb8888612c18565b955050602086013567ffffffffffffffff811115612deb57612deb600080fd5b612df788828901612d52565b9450945050604086013567ffffffffffffffff811115612e1957612e19600080fd5b612e2588828901612d52565b92509250509295509295909350565b801515612bfe565b60208101611a358284612e34565b60208101611a358284612cae565b60608101612e668286612bfc565b612e736020830185612bfc565b61254c6040830184612bfc565b801515612bc5565b8035611a3581612e80565b60008060008060808587031215612eac57612eac600080fd5b6000612eb88787612c18565b9450506020612ec987828801612c18565b9350506040612eda87828801612c18565b9250506060612eeb87828801612e88565b91505092959194509250565b8051612f038382612cae565b506020810151612f166020840182612bfc565b506040810151612f296040840182612bfc565b506060810151612f3c6060840182612bfc565b506080810151612f4f6080840182612bfc565b5060a0810151612f6260a0840182612bfc565b5060c081015161292c60c0840182612bfc565b612f7f8282612ef7565b5060e00190565b60200190565b6000612f96825190565b808452602093840193830160005b82811015612fc9578151612fb88782612f75565b965050602082019150600101612fa4565b5093949350505050565b602080825281016128a28184612f8c565b60008060408385031215612ffa57612ffa600080fd5b6000612d418585612bd0565b6000806000806080858703121561301f5761301f600080fd5b6000612eb88787612bd0565b60208082527f4f776e61626c653a2063616c6c6572206973206e6f7420746865206f776e65729101908152612f86565b60208082528101611a358161302b565b601f8152602081017f5265656e7472616e637947756172643a207265656e7472616e742063616c6c0081529050612f86565b60208082528101611a358161306b565b60108152602081017f5061757361626c653a207061757365640000000000000000000000000000000081529050612f86565b60208082528101611a35816130ad565b634e487b7160e01b600052603260045260246000fd5b634e487b7160e01b600052601160045260246000fd5b600081600019048311821515161561313557613135613105565b500290565b6000821982111561314d5761314d613105565b500190565b634e487b7160e01b600052601260045260246000fd5b60008261317757613177613152565b500490565b60008282101561318e5761318e613105565b500390565b60118152602081017f4e6f2070656e64696e672072657761726400000000000000000000000000000081529050612f86565b60208082528101611a3581613193565b608081016131e38287612cae565b6131f06020830186612cae565b6131fd6040830185612bfc565b61320a6060830184612bfc565b95945050505050565b600b8152602081017f5a65726f20616d6f756e7400000000000000000000000000000000000000000081529050612f86565b60208082528101611a3581613213565b60198152602081017f4e6f7420656e6f756768207374616b696e6742616c616e63650000000000000081529050612f86565b60208082528101611a3581613255565b8051611a3581612c12565b6000602082840312156132b7576132b7600080fd5b600061254c8484613297565b60608101612e668286612cae565b604081016132df8285612cae565b6128a26020830184612bfc565b6000600182016132fe576132fe613105565b5060010190565b60138152602081017f506f6f6c206973206e6f74206661726d696e670000000000000000000000000081529050612f86565b60208082528101611a3581613305565b60128152602081017f43616e206e6f74207374616b65207a65726f000000000000000000000000000081529050612f86565b60208082528101611a3581613347565b602f8152602081017f43616e206e6f74207365742073746172742074696d657374616d70206166746581527f7220616464696e67206120706f6f6c0000000000000000000000000000000000602082015290505b60400190565b60208082528101611a3581613389565b602e8152602081017f496e697469616c697a61626c653a20636f6e747261637420697320616c72656181527f647920696e697469616c697a6564000000000000000000000000000000000000602082015290506133dd565b60208082528101611a35816133f3565b600c8152602081017f5a65726f2061646472657373000000000000000000000000000000000000000081529050612f86565b60208082528101611a358161345b565b600f8152602081017f506f6f6c206e6f7420657869737473000000000000000000000000000000000081529050612f86565b60208082528101611a358161349d565b600a8152602081017f4f6e6c7920626f6e75730000000000000000000000000000000000000000000081529050612f86565b60208082528101611a35816134df565b604081016132df8285612bfc565b60138152602081017f4f6e6c7920766544454720636f6e74726163740000000000000000000000000081529050612f86565b60208082528101611a358161352f565b60138152602081017f416c726561647920696e2074686520706f6f6c0000000000000000000000000081529050612f86565b60208082528101611a3581613571565b60268152602081017f4f776e61626c653a206e6577206f776e657220697320746865207a65726f206181527f6464726573730000000000000000000000000000000000000000000000000000602082015290506133dd565b60208082528101611a35816135b3565b601a8152602081017f4e6f20446567697320746f6b656e20696e2074686520706f6f6c00000000000081529050612f86565b60208082528101611a358161361b565b60148152602081017f5061757361626c653a206e6f742070617573656400000000000000000000000081529050612f86565b60208082528101611a358161365d565b6000816136ae576136ae613105565b506000190190565b602b8152602081017f496e697469616c697a61626c653a20636f6e7472616374206973206e6f74206981527f6e697469616c697a696e67000000000000000000000000000000000000000000602082015290506133dd565b60208082528101611a35816136b6565b6060810161372c8286612cae565b612e736020830185612cae565b8051611a3581612e80565b60006020828403121561375957613759600080fd5b600061254c8484613739565b602a8152602081017f5361666545524332303a204552433230206f7065726174696f6e20646964206e81527f6f74207375636365656400000000000000000000000000000000000000000000602082015290506133dd565b60208082528101611a3581613765565b601d8152602081017f416464726573733a2063616c6c20746f206e6f6e2d636f6e747261637400000081529050612f86565b60208082528101611a35816137cd565b6000613819825190565b613827818560208601612b3c565b9290920192915050565b611a35818361380f56fea2646970667358221220ffcc75fcc29ecb16e105e7b002874edc0782cc8655d9a9903156b99a5556c47164736f6c634300080d0033",
  "devdoc": {
    "details": "The pool id starts from 1 rather than 0         The degis reward is calculated by timestamp rather than block number         VeDEG will boost the farming speed by having a extra reward type         The extra reward is shared by those staking lptokens with veDEG balances         Every time the veDEG balance change, the reward will be updated         The basic reward depends on the liquidity inside the pool         Update with a piecewise function         liquidity amount:   |---------------|------------------|----------------                             0           threshold 1        threshold 2          reward speed:            speed1          speed2             speed3         The speed update will be updated one tx after the last tx that triggers the threshold         The reward update will be another one tx later",
    "kind": "dev",
    "methods": {
      "add(address,uint256,uint256,bool)": {
        "details": "Can only be called by the owner      The reward speed can be 0 and set later by setDegisReward function",
        "params": {
          "_basicDegisPerSecond": "Basic reward speed(per second) for this new pool",
          "_bonusDegisPerSecond": "Bonus reward speed(per second) for this new pool",
          "_lpToken": "LP token address",
          "_withUpdate": "Whether update all pools' status"
        }
      },
      "getPoolList()": {
        "returns": {
          "_0": "pooList Total pool list"
        }
      },
      "getUserBalance(uint256,address)": {
        "params": {
          "_poolId": "Id of the pool",
          "_user": "User address"
        },
        "returns": {
          "_0": "balance User's balance (lpToken)"
        }
      },
      "harvest(uint256,address)": {
        "params": {
          "_poolId": "Id of the farming pool",
          "_to": "Receiver of degis rewards"
        }
      },
      "massUpdatePools()": {
        "details": "Can be called by anyone      Only update those active pools"
      },
      "owner()": {
        "details": "Returns the address of the current owner."
      },
      "paused()": {
        "details": "Returns true if the contract is paused, and false otherwise."
      },
      "pendingDegis(uint256,address)": {
        "params": {
          "_poolId": "PoolId of this farming pool",
          "_user": "User address"
        },
        "returns": {
          "_0": "pendingDegisAmount Amount of pending degis"
        }
      },
      "renounceOwnership()": {
        "details": "Leaves the contract without owner. It will not be possible to call `onlyOwner` functions anymore. Can only be called by the current owner. NOTE: Renouncing ownership will leave the contract without an owner, thereby removing any functionality that is only available to the owner."
      },
      "setDegisReward(uint256,uint256,uint256,bool)": {
        "params": {
          "_basicDegisPerSecond": "New basic reward amount per second",
          "_bonusDegisPerSecond": "New bonus reward amount per second",
          "_poolId": "Id of the farming pool",
          "_withUpdate": "Whether update all pools"
        }
      },
      "setPiecewise(uint256,uint256[],uint256[])": {
        "params": {
          "_poolId": "Id of the pool",
          "_reward": "Piecewise reward",
          "_threshold": "Piecewise threshold"
        }
      },
      "setStartTimestamp(uint256)": {
        "params": {
          "_startTimestamp": "New start block timestamp"
        }
      },
      "stake(uint256,uint256)": {
        "details": "Can only stake to the pools that are still farming",
        "params": {
          "_amount": "Staking amount",
          "_poolId": "Id of the farming pool"
        }
      },
      "transferOwnership(address)": {
        "details": "Transfers ownership of the contract to a new account (`newOwner`). Can only be called by the current owner."
      },
      "updateBonus(address,uint256)": {
        "details": "When veDEG has balance change      Only called by veDEG contract",
        "params": {
          "_newVeDEGBalance": "New veDEG balance",
          "_user": "User address"
        }
      },
      "updatePool(uint256)": {
        "params": {
          "_poolId": "Id of the farming pool"
        }
      },
      "withdraw(uint256,uint256)": {
        "params": {
          "_amount": "Amount of lp tokens to withdraw",
          "_poolId": "Id of the farming pool"
        }
      }
    },
    "title": "Farming Pool",
    "version": 1
  },
  "userdoc": {
    "kind": "user",
    "methods": {
      "add(address,uint256,uint256,bool)": {
        "notice": "Add a new lp into the pool"
      },
      "getPoolList()": {
        "notice": "Get the total pool list"
      },
      "getUserBalance(uint256,address)": {
        "notice": "Get a user's balance"
      },
      "harvest(uint256,address)": {
        "notice": "Harvest the degis reward and can be sent to another address"
      },
      "massUpdatePools()": {
        "notice": "Update all farming pools (except for those stopped ones)"
      },
      "pendingDegis(uint256,address)": {
        "notice": "Check the amount of pending degis reward"
      },
      "setDegisReward(uint256,uint256,uint256,bool)": {
        "notice": "Update the degisPerSecond for a specific pool (set to 0 to stop farming)"
      },
      "setPiecewise(uint256,uint256[],uint256[])": {
        "notice": "Set piecewise reward and threshold"
      },
      "setStartTimestamp(uint256)": {
        "notice": "Set the start block timestamp"
      },
      "stake(uint256,uint256)": {
        "notice": "Stake LP token into the farming pool"
      },
      "updateBonus(address,uint256)": {
        "notice": "Update a user's bonus"
      },
      "updatePool(uint256)": {
        "notice": "Update the pool's reward status"
      },
      "withdraw(uint256,uint256)": {
        "notice": "Withdraw lptoken from the pool"
      }
    },
    "notice": "This contract is for LPToken mining on Degis",
    "version": 1
  },
  "storageLayout": {
    "storage": [
      {
        "astId": 2523,
        "contract": "contracts/farming/FarmingPoolUpgradeable.sol:FarmingPoolUpgradeable",
        "label": "_initialized",
        "offset": 0,
        "slot": "0",
        "type": "t_bool"
      },
      {
        "astId": 2526,
        "contract": "contracts/farming/FarmingPoolUpgradeable.sol:FarmingPoolUpgradeable",
        "label": "_initializing",
        "offset": 1,
        "slot": "0",
        "type": "t_bool"
      },
      {
        "astId": 3760,
        "contract": "contracts/farming/FarmingPoolUpgradeable.sol:FarmingPoolUpgradeable",
        "label": "__gap",
        "offset": 0,
        "slot": "1",
        "type": "t_array(t_uint256)50_storage"
      },
      {
        "astId": 2403,
        "contract": "contracts/farming/FarmingPoolUpgradeable.sol:FarmingPoolUpgradeable",
        "label": "_owner",
        "offset": 0,
        "slot": "51",
        "type": "t_address"
      },
      {
        "astId": 2515,
        "contract": "contracts/farming/FarmingPoolUpgradeable.sol:FarmingPoolUpgradeable",
        "label": "__gap",
        "offset": 0,
        "slot": "52",
        "type": "t_array(t_uint256)49_storage"
      },
      {
        "astId": 2715,
        "contract": "contracts/farming/FarmingPoolUpgradeable.sol:FarmingPoolUpgradeable",
        "label": "_status",
        "offset": 0,
        "slot": "101",
        "type": "t_uint256"
      },
      {
        "astId": 2759,
        "contract": "contracts/farming/FarmingPoolUpgradeable.sol:FarmingPoolUpgradeable",
        "label": "__gap",
        "offset": 0,
        "slot": "102",
        "type": "t_array(t_uint256)49_storage"
      },
      {
        "astId": 2611,
        "contract": "contracts/farming/FarmingPoolUpgradeable.sol:FarmingPoolUpgradeable",
        "label": "_paused",
        "offset": 0,
        "slot": "151",
        "type": "t_bool"
      },
      {
        "astId": 2700,
        "contract": "contracts/farming/FarmingPoolUpgradeable.sol:FarmingPoolUpgradeable",
        "label": "__gap",
        "offset": 0,
        "slot": "152",
        "type": "t_array(t_uint256)49_storage"
      },
      {
        "astId": 12031,
        "contract": "contracts/farming/FarmingPoolUpgradeable.sol:FarmingPoolUpgradeable",
        "label": "degis",
        "offset": 0,
        "slot": "201",
        "type": "t_contract(IDegisToken)35545"
      },
      {
        "astId": 12034,
        "contract": "contracts/farming/FarmingPoolUpgradeable.sol:FarmingPoolUpgradeable",
        "label": "veDEG",
        "offset": 0,
        "slot": "202",
        "type": "t_contract(IVeDEG)17259"
      },
      {
        "astId": 12039,
        "contract": "contracts/farming/FarmingPoolUpgradeable.sol:FarmingPoolUpgradeable",
        "label": "_nextPoolId",
        "offset": 0,
        "slot": "203",
        "type": "t_uint256"
      },
      {
        "astId": 12041,
        "contract": "contracts/farming/FarmingPoolUpgradeable.sol:FarmingPoolUpgradeable",
        "label": "startTimestamp",
        "offset": 0,
        "slot": "204",
        "type": "t_uint256"
      },
      {
        "astId": 12060,
        "contract": "contracts/farming/FarmingPoolUpgradeable.sol:FarmingPoolUpgradeable",
        "label": "poolList",
        "offset": 0,
        "slot": "205",
        "type": "t_array(t_struct(PoolInfo)12056_storage)dyn_storage"
      },
      {
        "astId": 12064,
        "contract": "contracts/farming/FarmingPoolUpgradeable.sol:FarmingPoolUpgradeable",
        "label": "poolMapping",
        "offset": 0,
        "slot": "206",
        "type": "t_mapping(t_address,t_uint256)"
      },
      {
        "astId": 12068,
        "contract": "contracts/farming/FarmingPoolUpgradeable.sol:FarmingPoolUpgradeable",
        "label": "isFarming",
        "offset": 0,
        "slot": "207",
        "type": "t_mapping(t_uint256,t_bool)"
      },
      {
        "astId": 12082,
        "contract": "contracts/farming/FarmingPoolUpgradeable.sol:FarmingPoolUpgradeable",
        "label": "userInfo",
        "offset": 0,
        "slot": "208",
        "type": "t_mapping(t_uint256,t_mapping(t_address,t_struct(UserInfo)12075_storage))"
      },
      {
        "astId": 12088,
        "contract": "contracts/farming/FarmingPoolUpgradeable.sol:FarmingPoolUpgradeable",
        "label": "extraClaimable",
        "offset": 0,
        "slot": "209",
        "type": "t_mapping(t_uint256,t_mapping(t_address,t_uint256))"
      },
      {
        "astId": 12093,
        "contract": "contracts/farming/FarmingPoolUpgradeable.sol:FarmingPoolUpgradeable",
        "label": "thresholdBasic",
        "offset": 0,
        "slot": "210",
        "type": "t_mapping(t_uint256,t_array(t_uint256)dyn_storage)"
      },
      {
        "astId": 12098,
        "contract": "contracts/farming/FarmingPoolUpgradeable.sol:FarmingPoolUpgradeable",
        "label": "piecewiseBasic",
        "offset": 0,
        "slot": "211",
        "type": "t_mapping(t_uint256,t_array(t_uint256)dyn_storage)"
      },
      {
        "astId": 12100,
        "contract": "contracts/farming/FarmingPoolUpgradeable.sol:FarmingPoolUpgradeable",
        "label": "currentRewardLevel",
        "offset": 0,
        "slot": "212",
        "type": "t_uint256"
      },
      {
        "astId": 12104,
        "contract": "contracts/farming/FarmingPoolUpgradeable.sol:FarmingPoolUpgradeable",
        "label": "poolRewardLevel",
        "offset": 0,
        "slot": "213",
        "type": "t_mapping(t_uint256,t_uint256)"
      }
    ],
    "types": {
      "t_address": {
        "encoding": "inplace",
        "label": "address",
        "numberOfBytes": "20"
      },
      "t_array(t_struct(PoolInfo)12056_storage)dyn_storage": {
        "base": "t_struct(PoolInfo)12056_storage",
        "encoding": "dynamic_array",
        "label": "struct FarmingPoolUpgradeable.PoolInfo[]",
        "numberOfBytes": "32"
      },
      "t_array(t_uint256)49_storage": {
        "base": "t_uint256",
        "encoding": "inplace",
        "label": "uint256[49]",
        "numberOfBytes": "1568"
      },
      "t_array(t_uint256)50_storage": {
        "base": "t_uint256",
        "encoding": "inplace",
        "label": "uint256[50]",
        "numberOfBytes": "1600"
      },
      "t_array(t_uint256)dyn_storage": {
        "base": "t_uint256",
        "encoding": "dynamic_array",
        "label": "uint256[]",
        "numberOfBytes": "32"
      },
      "t_bool": {
        "encoding": "inplace",
        "label": "bool",
        "numberOfBytes": "1"
      },
      "t_contract(IDegisToken)35545": {
        "encoding": "inplace",
        "label": "contract IDegisToken",
        "numberOfBytes": "20"
      },
      "t_contract(IVeDEG)17259": {
        "encoding": "inplace",
        "label": "contract IVeDEG",
        "numberOfBytes": "20"
      },
      "t_mapping(t_address,t_struct(UserInfo)12075_storage)": {
        "encoding": "mapping",
        "key": "t_address",
        "label": "mapping(address => struct FarmingPoolUpgradeable.UserInfo)",
        "numberOfBytes": "32",
        "value": "t_struct(UserInfo)12075_storage"
      },
      "t_mapping(t_address,t_uint256)": {
        "encoding": "mapping",
        "key": "t_address",
        "label": "mapping(address => uint256)",
        "numberOfBytes": "32",
        "value": "t_uint256"
      },
      "t_mapping(t_uint256,t_array(t_uint256)dyn_storage)": {
        "encoding": "mapping",
        "key": "t_uint256",
        "label": "mapping(uint256 => uint256[])",
        "numberOfBytes": "32",
        "value": "t_array(t_uint256)dyn_storage"
      },
      "t_mapping(t_uint256,t_bool)": {
        "encoding": "mapping",
        "key": "t_uint256",
        "label": "mapping(uint256 => bool)",
        "numberOfBytes": "32",
        "value": "t_bool"
      },
      "t_mapping(t_uint256,t_mapping(t_address,t_struct(UserInfo)12075_storage))": {
        "encoding": "mapping",
        "key": "t_uint256",
        "label": "mapping(uint256 => mapping(address => struct FarmingPoolUpgradeable.UserInfo))",
        "numberOfBytes": "32",
        "value": "t_mapping(t_address,t_struct(UserInfo)12075_storage)"
      },
      "t_mapping(t_uint256,t_mapping(t_address,t_uint256))": {
        "encoding": "mapping",
        "key": "t_uint256",
        "label": "mapping(uint256 => mapping(address => uint256))",
        "numberOfBytes": "32",
        "value": "t_mapping(t_address,t_uint256)"
      },
      "t_mapping(t_uint256,t_uint256)": {
        "encoding": "mapping",
        "key": "t_uint256",
        "label": "mapping(uint256 => uint256)",
        "numberOfBytes": "32",
        "value": "t_uint256"
      },
      "t_struct(PoolInfo)12056_storage": {
        "encoding": "inplace",
        "label": "struct FarmingPoolUpgradeable.PoolInfo",
        "members": [
          {
            "astId": 12043,
            "contract": "contracts/farming/FarmingPoolUpgradeable.sol:FarmingPoolUpgradeable",
            "label": "lpToken",
            "offset": 0,
            "slot": "0",
            "type": "t_address"
          },
          {
            "astId": 12045,
            "contract": "contracts/farming/FarmingPoolUpgradeable.sol:FarmingPoolUpgradeable",
            "label": "basicDegisPerSecond",
            "offset": 0,
            "slot": "1",
            "type": "t_uint256"
          },
          {
            "astId": 12047,
            "contract": "contracts/farming/FarmingPoolUpgradeable.sol:FarmingPoolUpgradeable",
            "label": "bonusDegisPerSecond",
            "offset": 0,
            "slot": "2",
            "type": "t_uint256"
          },
          {
            "astId": 12049,
            "contract": "contracts/farming/FarmingPoolUpgradeable.sol:FarmingPoolUpgradeable",
            "label": "lastRewardTimestamp",
            "offset": 0,
            "slot": "3",
            "type": "t_uint256"
          },
          {
            "astId": 12051,
            "contract": "contracts/farming/FarmingPoolUpgradeable.sol:FarmingPoolUpgradeable",
            "label": "accDegisPerShare",
            "offset": 0,
            "slot": "4",
            "type": "t_uint256"
          },
          {
            "astId": 12053,
            "contract": "contracts/farming/FarmingPoolUpgradeable.sol:FarmingPoolUpgradeable",
            "label": "accDegisPerBonusShare",
            "offset": 0,
            "slot": "5",
            "type": "t_uint256"
          },
          {
            "astId": 12055,
            "contract": "contracts/farming/FarmingPoolUpgradeable.sol:FarmingPoolUpgradeable",
            "label": "totalBonus",
            "offset": 0,
            "slot": "6",
            "type": "t_uint256"
          }
        ],
        "numberOfBytes": "224"
      },
      "t_struct(UserInfo)12075_storage": {
        "encoding": "inplace",
        "label": "struct FarmingPoolUpgradeable.UserInfo",
        "members": [
          {
            "astId": 12070,
            "contract": "contracts/farming/FarmingPoolUpgradeable.sol:FarmingPoolUpgradeable",
            "label": "rewardDebt",
            "offset": 0,
            "slot": "0",
            "type": "t_uint256"
          },
          {
            "astId": 12072,
            "contract": "contracts/farming/FarmingPoolUpgradeable.sol:FarmingPoolUpgradeable",
            "label": "stakingBalance",
            "offset": 0,
            "slot": "1",
            "type": "t_uint256"
          },
          {
            "astId": 12074,
            "contract": "contracts/farming/FarmingPoolUpgradeable.sol:FarmingPoolUpgradeable",
            "label": "bonus",
            "offset": 0,
            "slot": "2",
            "type": "t_uint256"
          }
        ],
        "numberOfBytes": "96"
      },
      "t_uint256": {
        "encoding": "inplace",
        "label": "uint256",
        "numberOfBytes": "32"
      }
    }
  }
}