{
  "address": "0x8dEF813554877f123Dd59c38B9536DcADE2309A7",
  "abi": [
    {
      "anonymous": false,
      "inputs": [
        {
          "indexed": false,
          "internalType": "string",
          "name": "policyToken",
          "type": "string"
        },
        {
          "indexed": false,
          "internalType": "address",
          "name": "pair",
          "type": "address"
        },
        {
          "indexed": false,
          "internalType": "uint256",
          "name": "decimals",
          "type": "uint256"
        },
        {
          "indexed": false,
          "internalType": "uint256",
          "name": "sampleInterval",
          "type": "uint256"
        },
        {
          "indexed": false,
          "internalType": "uint256",
          "name": "isToken0",
          "type": "uint256"
        }
      ],
      "name": "NewIDOPair",
      "type": "event"
    },
    {
      "anonymous": false,
      "inputs": [
        {
          "indexed": true,
          "internalType": "address",
          "name": "previousOwner",
          "type": "address"
        },
        {
          "indexed": true,
          "internalType": "address",
          "name": "newOwner",
          "type": "address"
        }
      ],
      "name": "OwnershipTransferred",
      "type": "event"
    },
    {
      "anonymous": false,
      "inputs": [
        {
          "indexed": false,
          "internalType": "string",
          "name": "policyToken",
          "type": "string"
        },
        {
          "indexed": false,
          "internalType": "uint256",
          "name": "priceAverage",
          "type": "uint256"
        },
        {
          "indexed": false,
          "internalType": "uint256",
          "name": "timestamp",
          "type": "uint256"
        }
      ],
      "name": "SamplePrice",
      "type": "event"
    },
    {
      "inputs": [],
      "name": "PERIOD",
      "outputs": [
        {
          "internalType": "uint256",
          "name": "",
          "type": "uint256"
        }
      ],
      "stateMutability": "view",
      "type": "function"
    },
    {
      "inputs": [],
      "name": "WAVAX",
      "outputs": [
        {
          "internalType": "address",
          "name": "",
          "type": "address"
        }
      ],
      "stateMutability": "view",
      "type": "function"
    },
    {
      "inputs": [
        {
          "internalType": "string",
          "name": "_policyToken",
          "type": "string"
        },
        {
          "internalType": "address",
          "name": "_pair",
          "type": "address"
        },
        {
          "internalType": "uint256",
          "name": "_decimals",
          "type": "uint256"
        },
        {
          "internalType": "uint256",
          "name": "_interval",
          "type": "uint256"
        },
        {
          "internalType": "uint256",
          "name": "_startTime",
          "type": "uint256"
        }
      ],
      "name": "addIDOPair",
      "outputs": [],
      "stateMutability": "nonpayable",
      "type": "function"
    },
    {
      "inputs": [],
      "name": "basePriceGetter",
      "outputs": [
        {
          "internalType": "contract IPriceGetter",
          "name": "",
          "type": "address"
        }
      ],
      "stateMutability": "view",
      "type": "function"
    },
    {
      "inputs": [
        {
          "internalType": "string",
          "name": "_policyToken",
          "type": "string"
        }
      ],
      "name": "getLatestPrice",
      "outputs": [
        {
          "internalType": "uint256",
          "name": "price",
          "type": "uint256"
        }
      ],
      "stateMutability": "nonpayable",
      "type": "function"
    },
    {
      "inputs": [
        {
          "internalType": "address",
          "name": "_priceGetter",
          "type": "address"
        },
        {
          "internalType": "address",
          "name": "_policyCore",
          "type": "address"
        }
      ],
      "name": "initialize",
      "outputs": [],
      "stateMutability": "nonpayable",
      "type": "function"
    },
    {
      "inputs": [],
      "name": "owner",
      "outputs": [
        {
          "internalType": "address",
          "name": "",
          "type": "address"
        }
      ],
      "stateMutability": "view",
      "type": "function"
    },
    {
      "inputs": [],
      "name": "policyCore",
      "outputs": [
        {
          "internalType": "contract IPolicyCore",
          "name": "",
          "type": "address"
        }
      ],
      "stateMutability": "view",
      "type": "function"
    },
    {
      "inputs": [
        {
          "internalType": "string",
          "name": "",
          "type": "string"
        }
      ],
      "name": "priceFeeds",
      "outputs": [
        {
          "internalType": "address",
          "name": "pair",
          "type": "address"
        },
        {
          "internalType": "uint256",
          "name": "decimals",
          "type": "uint256"
        },
        {
          "internalType": "uint256",
          "name": "sampleInterval",
          "type": "uint256"
        },
        {
          "internalType": "uint256",
          "name": "isToken0",
          "type": "uint256"
        },
        {
          "internalType": "uint256",
          "name": "priceAverage",
          "type": "uint256"
        },
        {
          "internalType": "uint256",
          "name": "priceCumulativeLast",
          "type": "uint256"
        },
        {
          "internalType": "uint256",
          "name": "lastTimestamp",
          "type": "uint256"
        },
        {
          "internalType": "uint256",
          "name": "startTime",
          "type": "uint256"
        },
        {
          "internalType": "uint256",
          "name": "endTime",
          "type": "uint256"
        }
      ],
      "stateMutability": "view",
      "type": "function"
    },
    {
      "inputs": [],
      "name": "renounceOwnership",
      "outputs": [],
      "stateMutability": "nonpayable",
      "type": "function"
    },
    {
      "inputs": [
        {
          "internalType": "string",
          "name": "_policyToken",
          "type": "string"
        }
      ],
      "name": "samplePrice",
      "outputs": [],
      "stateMutability": "nonpayable",
      "type": "function"
    },
    {
      "inputs": [
        {
          "internalType": "string",
          "name": "_policyToken",
          "type": "string"
        },
        {
          "internalType": "uint256",
          "name": "_price",
          "type": "uint256"
        }
      ],
      "name": "setPrice",
      "outputs": [],
      "stateMutability": "nonpayable",
      "type": "function"
    },
    {
      "inputs": [
        {
          "internalType": "address",
          "name": "newOwner",
          "type": "address"
        }
      ],
      "name": "transferOwnership",
      "outputs": [],
      "stateMutability": "nonpayable",
      "type": "function"
    }
  ],
  "transactionHash": "0x5f5eb8ff18e7b311075622594b4be9794798612e47dff0cb36198e33d3079dc3",
  "args": [],
  "numDeployments": 4,
  "solcInputHash": "4b087e450ae9d3e4ca2c2d85a2c7ac33",
  "bytecode": "0x608060405234801561001057600080fd5b50611c67806100206000396000f3fe608060405234801561001057600080fd5b50600436106100df5760003560e01c8063b4d1d7951161008c578063e239271811610066578063e239271814610223578063e30145e014610236578063f2fde38b14610249578063f66a1b711461025c57600080fd5b8063b4d1d79514610176578063cb8ae86c1461018d578063d2d1072d1461021057600080fd5b8063715018a6116100bd578063715018a61461013557806373b295c21461013d5780638da5cb5b1461016557600080fd5b806322e01192146100e4578063485cc955146100f95780636bf8910a1461010c575b600080fd5b6100f76100f2366004611023565b61026f565b005b6100f76101073660046110a3565b6102cd565b60655461011f906001600160a01b031681565b60405161012c9190611128565b60405180910390f35b6100f7610386565b61015873b31f66aa3c1e785363f0875a1b74e27b85fd66c781565b60405161012c919061113f565b6033546001600160a01b0316610158565b6101806202a30081565b60405161012c9190611153565b6101fb61019b366004611264565b80516020818301810180516067825292820191909301209152805460018201546002830154600384015460048501546005860154600687015460078801546008909801546001600160a01b03909716979596949593949293919290919089565b60405161012c9998979695949392919061129f565b6100f761021e366004611325565b6103bc565b6100f76102313660046113ba565b61096e565b60665461011f906001600160a01b031681565b6100f7610257366004611402565b610b1f565b61018061026a3660046113ba565b610b7b565b6033546001600160a01b031633146102a25760405162461bcd60e51b815260040161029990611455565b60405180910390fd5b80606784846040516102b5929190611475565b90815260405190819003602001902060040155505050565b600054610100900460ff166102e85760005460ff16156102ec565b303b155b6103085760405162461bcd60e51b8152600401610299906114e1565b600054610100900460ff1615801561032a576000805461ffff19166101011790555b610332610c77565b606580546001600160a01b0380861673ffffffffffffffffffffffffffffffffffffffff199283161790925560668054928516929091169190911790558015610381576000805461ff00191690555b505050565b6033546001600160a01b031633146103b05760405162461bcd60e51b815260040161029990611455565b6103ba6000610ca6565b565b6033546001600160a01b031633146103e65760405162461bcd60e51b815260040161029990611455565b60006001600160a01b0316846001600160a01b0316630dfe16816040518163ffffffff1660e01b8152600401602060405180830381865afa15801561042f573d6000803e3d6000fd5b505050506040513d601f19601f8201168201806040525081019061045391906114fc565b6001600160a01b0316036104795760405162461bcd60e51b81526004016102999061154f565b73b31f66aa3c1e785363f0875a1b74e27b85fd66c76001600160a01b0316846001600160a01b0316630dfe16816040518163ffffffff1660e01b8152600401602060405180830381865afa1580156104d5573d6000803e3d6000fd5b505050506040513d601f19601f820116820180604052508101906104f991906114fc565b6001600160a01b03161480610594575073b31f66aa3c1e785363f0875a1b74e27b85fd66c76001600160a01b0316846001600160a01b031663d21220a76040518163ffffffff1660e01b8152600401602060405180830381865afa158015610565573d6000803e3d6000fd5b505050506040513d601f19601f8201168201806040525081019061058991906114fc565b6001600160a01b0316145b6105b05760405162461bcd60e51b815260040161029990611591565b60006001600160a01b0316606787876040516105cd929190611475565b908152604051908190036020019020546001600160a01b0316146106035760405162461bcd60e51b8152600401610299906115d3565b600060678787604051610617929190611475565b9081526040805160209281900383018120805473ffffffffffffffffffffffffffffffffffffffff19166001600160a01b038a16908117825560018201899055600282018890557f0dfe1681000000000000000000000000000000000000000000000000000000008352925190945060009373b31f66aa3c1e785363f0875a1b74e27b85fd66c79392630dfe168192600480830193928290030181865afa1580156106c6573d6000803e3d6000fd5b505050506040513d601f19601f820116820180604052508101906106ea91906114fc565b6001600160a01b03161415905080610703576000610706565b60015b60ff168260030181905550856001600160a01b0316630902f1ac6040518163ffffffff1660e01b8152600401606060405180830381865afa15801561074f573d6000803e3d6000fd5b505050506040513d601f19601f82011682018060405250810190610773919061161b565b63ffffffff166006850155508190506107ed57856001600160a01b0316635a3d54936040518163ffffffff1660e01b8152600401602060405180830381865afa1580156107c4573d6000803e3d6000fd5b505050506040513d601f19601f820116820180604052508101906107e8919061166c565b61084f565b856001600160a01b0316635909c0d56040518163ffffffff1660e01b8152600401602060405180830381865afa15801561082b573d6000803e3d6000fd5b505050506040513d601f19601f8201168201806040525081019061084f919061166c565b60058301556066546040517fd9e85c840000000000000000000000000000000000000000000000000000000081526000916001600160a01b03169063d9e85c84906108a0908c908c906004016116ad565b60e060405180830381865afa1580156108bd573d6000803e3d6000fd5b505050506040513d601f19601f820116820180604052508101906108e19190611775565b60c00151905080841080156109025750806108ff6202a300866117ac565b10155b61091e5760405162461bcd60e51b8152600401610299906117f1565b7f212544a34bde618b1304355fe54ed52a00db3723be0aae4d1f842043a23579af8989898989886003015460405161095b96959493929190611801565b60405180910390a1505050505050505050565b600060678383604051610982929190611475565b9081526040519081900360200190208054909150600090819081906109af906001600160a01b0316610d05565b92509250925060008460060154826109c79190611854565b600186015460028701549192509063ffffffff8316116109f95760405162461bcd60e51b8152600401610299906118ab565b600386015460009015610a8b57610a6d60405180602001604052808563ffffffff1685600a610a2891906119c9565b60058c0154610a37908c6119d8565b610a4191906119de565b610a4b9190611a13565b6001600160e01b031690525160701c6dffffffffffffffffffffffffffff1690565b600588018790556dffffffffffffffffffffffffffff169050610ad6565b610abc60405180602001604052808563ffffffff1685600a610aad91906119c9565b60058c0154610a37908b6119d8565b600588018690556dffffffffffffffffffffffffffff1690505b6004870181905563ffffffff841660068801556040517f9b4359a4024cf42372af876d367b36bafd6cb68f8b58b78b1611b664ea994a299061095b908b908b9085908990611a46565b6033546001600160a01b03163314610b495760405162461bcd60e51b815260040161029990611455565b6001600160a01b038116610b6f5760405162461bcd60e51b815260040161029990611acc565b610b7881610ca6565b50565b60008060678484604051610b90929190611475565b908152602001604051809103902060040154905060008111610bc45760405162461bcd60e51b815260040161029990611b0e565b6065546040517ff66a1b710000000000000000000000000000000000000000000000000000000081526000916001600160a01b03169063f66a1b7190610c0c90600401611b50565b6020604051808303816000875af1158015610c2b573d6000803e3d6000fd5b505050506040513d601f19601f82011682018060405250810190610c4f919061166c565b9050670de0b6b3a7640000610c6483836119de565b610c6e9190611a13565b95945050505050565b600054610100900460ff16610c9e5760405162461bcd60e51b815260040161029990611bb8565b6103ba610ed8565b603380546001600160a01b0383811673ffffffffffffffffffffffffffffffffffffffff19831681179093556040519116919082907f8be0079c531659141344cd1fd0a4f28419497f9722a3daafe3b4186f6b6457e090600090a35050565b6000806000610d12610f08565b9050836001600160a01b0316635909c0d56040518163ffffffff1660e01b8152600401602060405180830381865afa158015610d52573d6000803e3d6000fd5b505050506040513d601f19601f82011682018060405250810190610d76919061166c565b9250836001600160a01b0316635a3d54936040518163ffffffff1660e01b8152600401602060405180830381865afa158015610db6573d6000803e3d6000fd5b505050506040513d601f19601f82011682018060405250810190610dda919061166c565b91506000806000866001600160a01b0316630902f1ac6040518163ffffffff1660e01b8152600401606060405180830381865afa158015610e1f573d6000803e3d6000fd5b505050506040513d601f19601f82011682018060405250810190610e43919061161b565b9250925092508363ffffffff168163ffffffff1614610ece576000610e688286611854565b90508063ffffffff16610e7b8486610f1e565b51610e8f91906001600160e01b03166119de565b610e9990886117ac565b96508063ffffffff16610eac8585610f1e565b51610ec091906001600160e01b03166119de565b610eca90876117ac565b9550505b5050509193909250565b600054610100900460ff16610eff5760405162461bcd60e51b815260040161029990611bb8565b6103ba33610ca6565b6000610f1964010000000042611bc8565b905090565b6040805160208101909152600081526000826dffffffffffffffffffffffffffff1611610f5d5760405162461bcd60e51b815260040161029990611c0e565b604080516020810190915280610fa56dffffffffffffffffffffffffffff85167bffffffffffffffffffffffffffff0000000000000000000000000000607088901b16611c1e565b6001600160e01b0316905290505b92915050565b60008083601f840112610fce57610fce600080fd5b50813567ffffffffffffffff811115610fe957610fe9600080fd5b60208301915083600182028301111561100457611004600080fd5b9250929050565b805b8114610b7857600080fd5b8035610fb38161100b565b60008060006040848603121561103b5761103b600080fd5b833567ffffffffffffffff81111561105557611055600080fd5b61106186828701610fb9565b9350935050602061107486828701611018565b9150509250925092565b60006001600160a01b038216610fb3565b61100d8161107e565b8035610fb38161108f565b600080604083850312156110b9576110b9600080fd5b60006110c58585611098565b92505060206110d685828601611098565b9150509250929050565b6000610fb36001600160a01b0383166110f7565b90565b6001600160a01b031690565b6000610fb3826110e0565b6000610fb382611103565b6111228161110e565b82525050565b60208101610fb38284611119565b6111228161107e565b60208101610fb38284611136565b80611122565b60208101610fb3828461114d565b634e487b7160e01b600052604160045260246000fd5b601f19601f830116810181811067ffffffffffffffff8211171561119d5761119d611161565b6040525050565b60006111af60405190565b90506111bb8282611177565b919050565b600067ffffffffffffffff8211156111da576111da611161565b601f19601f83011660200192915050565b82818337506000910152565b600061120a611205846111c0565b6111a4565b90508281526020810184848401111561122557611225600080fd5b6112308482856111eb565b509392505050565b600082601f83011261124c5761124c600080fd5b813561125c8482602086016111f7565b949350505050565b60006020828403121561127957611279600080fd5b813567ffffffffffffffff81111561129357611293600080fd5b61125c84828501611238565b61012081016112ae828c611136565b6112bb602083018b61114d565b6112c8604083018a61114d565b6112d5606083018961114d565b6112e2608083018861114d565b6112ef60a083018761114d565b6112fc60c083018661114d565b61130960e083018561114d565b61131761010083018461114d565b9a9950505050505050505050565b60008060008060008060a0878903121561134157611341600080fd5b863567ffffffffffffffff81111561135b5761135b600080fd5b61136789828a01610fb9565b9650965050602061137a89828a01611098565b945050604061138b89828a01611018565b935050606061139c89828a01611018565b92505060806113ad89828a01611018565b9150509295509295509295565b600080602083850312156113d0576113d0600080fd5b823567ffffffffffffffff8111156113ea576113ea600080fd5b6113f685828601610fb9565b92509250509250929050565b60006020828403121561141757611417600080fd5b600061125c8484611098565b60208082527f4f776e61626c653a2063616c6c6572206973206e6f7420746865206f776e657291019081525b60200190565b60208082528101610fb381611423565b6114708284836111eb565b500190565b611480818385611465565b9392505050565b602e8152602081017f496e697469616c697a61626c653a20636f6e747261637420697320616c72656181527f647920696e697469616c697a6564000000000000000000000000000000000000602082015290505b60400190565b60208082528101610fb381611487565b8051610fb38161108f565b60006020828403121561151157611511600080fd5b600061125c84846114f1565b600e8152602081017f4e6f6e20657869737420706169720000000000000000000000000000000000008152905061144f565b60208082528101610fb38161151d565b600d8152602081017f4e6f7420617661782070616972000000000000000000000000000000000000008152905061144f565b60208082528101610fb38161155f565b60138152602081017f5061697220616c726561647920657869737473000000000000000000000000008152905061144f565b60208082528101610fb3816115a1565b6dffffffffffffffffffffffffffff811661100d565b8051610fb3816115e3565b63ffffffff811661100d565b8051610fb381611604565b60008060006060848603121561163357611633600080fd5b600061163f86866115f9565b9350506020611650868287016115f9565b925050604061107486828701611610565b8051610fb38161100b565b60006020828403121561168157611681600080fd5b600061125c8484611661565b8183526020830192506116a18284836111eb565b50601f01601f19160190565b6020808252810161125c81848661168d565b80151561100d565b8051610fb3816116bf565b600060e082840312156116e7576116e7600080fd5b6116f160e06111a4565b905060006116ff84846114f1565b908201526020611711848483016116c7565b90820152604061172384848301611661565b90820152606061173584848301611661565b90820152608061174784848301611661565b9082015260a061175984848301611661565b9082015260c061176b84848301611661565b9082015292915050565b600060e0828403121561178a5761178a600080fd5b600061125c84846116d2565b634e487b7160e01b600052601160045260246000fd5b6000821982111561147057611470611796565b60108152602081017f57726f6e672073746172742074696d65000000000000000000000000000000008152905061144f565b60208082528101610fb3816117bf565b60a0808252810161181381888a61168d565b90506118226020830187611136565b61182f604083018661114d565b61183c606083018561114d565b611849608083018461114d565b979650505050505050565b63ffffffff9081169082165b915060008282101561187457611874611796565b500390565b60178152602081017f4d696e696d756d2073616d706c6520696e74657276616c0000000000000000008152905061144f565b60208082528101610fb381611879565b80825b60018511156118fa578086048111156118d9576118d9611796565b60018516156118e757908102905b80026118f38560011c90565b94506118be565b94509492505050565b60008261191257506001611480565b8161191f57506000611480565b8160018114611935576002811461193f5761196c565b6001915050611480565b60ff84111561195057611950611796565b8360020a91508482111561196657611966611796565b50611480565b5060208310610133831016604e8410600b841016171561199f575081810a8381111561199a5761199a611796565b611480565b6119ac84848460016118bb565b925090508184048111156119c2576119c2611796565b0292915050565b60006114806000198484611903565b81611860565b60008160001904831182151516156119f8576119f8611796565b500290565b634e487b7160e01b600052601260045260246000fd5b815b9150600082611a2657611a266119fd565b500490565b6000610fb36110f463ffffffff841681565b61112281611a2b565b60608082528101611a5881868861168d565b9050611a67602083018561114d565b610c6e6040830184611a3d565b60268152602081017f4f776e61626c653a206e6577206f776e657220697320746865207a65726f206181527f6464726573730000000000000000000000000000000000000000000000000000602082015290506114db565b60208082528101610fb381611a74565b600a8152602081017f5a65726f205072696365000000000000000000000000000000000000000000008152905061144f565b60208082528101610fb381611adc565b60048152602081017f41564158000000000000000000000000000000000000000000000000000000008152905061144f565b60208082528101610fb381611b1e565b602b8152602081017f496e697469616c697a61626c653a20636f6e7472616374206973206e6f74206981527f6e697469616c697a696e67000000000000000000000000000000000000000000602082015290506114db565b60208082528101610fb381611b60565b600082611bd757611bd76119fd565b500690565b60178152602081017f4669786564506f696e743a204449565f42595f5a45524f0000000000000000008152905061144f565b60208082528101610fb381611bdc565b6001600160e01b03908116908216611a1556fea264697066735822122093c8135c845e12fb46ec826b8ebe51f8c2167a210ad605bef26ae64fad4d7f7e64736f6c634300080d0033",
  "devdoc": {
    "kind": "dev",
    "methods": {
      "getLatestPrice(string)": {
        "params": {
          "_policyToken": "Policy token name"
        },
        "returns": {
          "price": "USD price of the base token"
        }
      },
      "owner()": {
        "details": "Returns the address of the current owner."
      },
      "renounceOwnership()": {
        "details": "Leaves the contract without owner. It will not be possible to call `onlyOwner` functions anymore. Can only be called by the current owner. NOTE: Renouncing ownership will leave the contract without an owner, thereby removing any functionality that is only available to the owner."
      },
      "setPrice(string,uint256)": {
        "params": {
          "_policyToken": "Policy token name",
          "_price": "Price in avax"
        }
      },
      "transferOwnership(address)": {
        "details": "Transfers ownership of the contract to a new account (`newOwner`). Can only be called by the current owner."
      }
    },
    "title": "Price Getter for IDO Protection",
    "version": 1
  },
  "userdoc": {
    "kind": "user",
    "methods": {
      "getLatestPrice(string)": {
        "notice": "Get latest price"
      },
      "setPrice(string,uint256)": {
        "notice": "Set price in avax         Price in avax should be in 1e18"
      }
    },
    "notice": "This is the contract for getting price feed from DEX         IDO projects does not have Chainlink feeds so we use DEX TWAP price as oracle         Workflow:         1. Deploy naughty token for the IDO project and set its type as \"IDO\"         2. Add ido price feed info by calling \"addIDOPair\" function         3. Set auto tasks start within PERIOD to endTime to sample prices from DEX         4. Call \"settleFinalResult\" function in core to settle the final price",
    "version": 1
  },
  "storageLayout": {
    "storage": [
      {
        "astId": 2670,
        "contract": "contracts/naughty-price/IDOPriceGetter.sol:IDOPriceGetter",
        "label": "_initialized",
        "offset": 0,
        "slot": "0",
        "type": "t_bool"
      },
      {
        "astId": 2673,
        "contract": "contracts/naughty-price/IDOPriceGetter.sol:IDOPriceGetter",
        "label": "_initializing",
        "offset": 1,
        "slot": "0",
        "type": "t_bool"
      },
      {
        "astId": 3907,
        "contract": "contracts/naughty-price/IDOPriceGetter.sol:IDOPriceGetter",
        "label": "__gap",
        "offset": 0,
        "slot": "1",
        "type": "t_array(t_uint256)50_storage"
      },
      {
        "astId": 2550,
        "contract": "contracts/naughty-price/IDOPriceGetter.sol:IDOPriceGetter",
        "label": "_owner",
        "offset": 0,
        "slot": "51",
        "type": "t_address"
      },
      {
        "astId": 2662,
        "contract": "contracts/naughty-price/IDOPriceGetter.sol:IDOPriceGetter",
        "label": "__gap",
        "offset": 0,
        "slot": "52",
        "type": "t_array(t_uint256)49_storage"
      },
      {
        "astId": 31181,
        "contract": "contracts/naughty-price/IDOPriceGetter.sol:IDOPriceGetter",
        "label": "basePriceGetter",
        "offset": 0,
        "slot": "101",
        "type": "t_contract(IPriceGetter)36584"
      },
      {
        "astId": 31184,
        "contract": "contracts/naughty-price/IDOPriceGetter.sol:IDOPriceGetter",
        "label": "policyCore",
        "offset": 0,
        "slot": "102",
        "type": "t_contract(IPolicyCore)36560"
      },
      {
        "astId": 31208,
        "contract": "contracts/naughty-price/IDOPriceGetter.sol:IDOPriceGetter",
        "label": "priceFeeds",
        "offset": 0,
        "slot": "103",
        "type": "t_mapping(t_string_memory_ptr,t_struct(IDOPriceInfo)31203_storage)"
      }
    ],
    "types": {
      "t_address": {
        "encoding": "inplace",
        "label": "address",
        "numberOfBytes": "20"
      },
      "t_array(t_uint256)49_storage": {
        "base": "t_uint256",
        "encoding": "inplace",
        "label": "uint256[49]",
        "numberOfBytes": "1568"
      },
      "t_array(t_uint256)50_storage": {
        "base": "t_uint256",
        "encoding": "inplace",
        "label": "uint256[50]",
        "numberOfBytes": "1600"
      },
      "t_bool": {
        "encoding": "inplace",
        "label": "bool",
        "numberOfBytes": "1"
      },
      "t_contract(IPolicyCore)36560": {
        "encoding": "inplace",
        "label": "contract IPolicyCore",
        "numberOfBytes": "20"
      },
      "t_contract(IPriceGetter)36584": {
        "encoding": "inplace",
        "label": "contract IPriceGetter",
        "numberOfBytes": "20"
      },
      "t_mapping(t_string_memory_ptr,t_struct(IDOPriceInfo)31203_storage)": {
        "encoding": "mapping",
        "key": "t_string_memory_ptr",
        "label": "mapping(string => struct IDOPriceGetter.IDOPriceInfo)",
        "numberOfBytes": "32",
        "value": "t_struct(IDOPriceInfo)31203_storage"
      },
      "t_string_memory_ptr": {
        "encoding": "bytes",
        "label": "string",
        "numberOfBytes": "32"
      },
      "t_struct(IDOPriceInfo)31203_storage": {
        "encoding": "inplace",
        "label": "struct IDOPriceGetter.IDOPriceInfo",
        "members": [
          {
            "astId": 31186,
            "contract": "contracts/naughty-price/IDOPriceGetter.sol:IDOPriceGetter",
            "label": "pair",
            "offset": 0,
            "slot": "0",
            "type": "t_address"
          },
          {
            "astId": 31188,
            "contract": "contracts/naughty-price/IDOPriceGetter.sol:IDOPriceGetter",
            "label": "decimals",
            "offset": 0,
            "slot": "1",
            "type": "t_uint256"
          },
          {
            "astId": 31190,
            "contract": "contracts/naughty-price/IDOPriceGetter.sol:IDOPriceGetter",
            "label": "sampleInterval",
            "offset": 0,
            "slot": "2",
            "type": "t_uint256"
          },
          {
            "astId": 31192,
            "contract": "contracts/naughty-price/IDOPriceGetter.sol:IDOPriceGetter",
            "label": "isToken0",
            "offset": 0,
            "slot": "3",
            "type": "t_uint256"
          },
          {
            "astId": 31194,
            "contract": "contracts/naughty-price/IDOPriceGetter.sol:IDOPriceGetter",
            "label": "priceAverage",
            "offset": 0,
            "slot": "4",
            "type": "t_uint256"
          },
          {
            "astId": 31196,
            "contract": "contracts/naughty-price/IDOPriceGetter.sol:IDOPriceGetter",
            "label": "priceCumulativeLast",
            "offset": 0,
            "slot": "5",
            "type": "t_uint256"
          },
          {
            "astId": 31198,
            "contract": "contracts/naughty-price/IDOPriceGetter.sol:IDOPriceGetter",
            "label": "lastTimestamp",
            "offset": 0,
            "slot": "6",
            "type": "t_uint256"
          },
          {
            "astId": 31200,
            "contract": "contracts/naughty-price/IDOPriceGetter.sol:IDOPriceGetter",
            "label": "startTime",
            "offset": 0,
            "slot": "7",
            "type": "t_uint256"
          },
          {
            "astId": 31202,
            "contract": "contracts/naughty-price/IDOPriceGetter.sol:IDOPriceGetter",
            "label": "endTime",
            "offset": 0,
            "slot": "8",
            "type": "t_uint256"
          }
        ],
        "numberOfBytes": "288"
      },
      "t_uint256": {
        "encoding": "inplace",
        "label": "uint256",
        "numberOfBytes": "32"
      }
    }
  }
}