{
  "address": "0x3b6Ae75B45eaA1e6A7D9B3491545dab3830FC4A5",
  "abi": [
    {
      "inputs": [],
      "name": "ILM__NoDeposit",
      "type": "error"
    },
    {
      "inputs": [],
      "name": "ILM__NotActiveILM",
      "type": "error"
    },
    {
      "inputs": [],
      "name": "ILM__NotEnoughDeposit",
      "type": "error"
    },
    {
      "inputs": [],
      "name": "ILM__PairNotActive",
      "type": "error"
    },
    {
      "inputs": [],
      "name": "ILM__RoundNotOver",
      "type": "error"
    },
    {
      "inputs": [],
      "name": "ILM__RoundOver",
      "type": "error"
    },
    {
      "inputs": [],
      "name": "ILM__StablecoinNotPaired",
      "type": "error"
    },
    {
      "inputs": [],
      "name": "ILM__StablecoinNotSupport",
      "type": "error"
    },
    {
      "inputs": [],
      "name": "ILM__WrongILMDeadline",
      "type": "error"
    },
    {
      "inputs": [],
      "name": "ILM__ZeroAddress",
      "type": "error"
    },
    {
      "inputs": [],
      "name": "ILM__ZeroAmount",
      "type": "error"
    },
    {
      "anonymous": false,
      "inputs": [
        {
          "indexed": false,
          "internalType": "address",
          "name": "user",
          "type": "address"
        },
        {
          "indexed": false,
          "internalType": "uint256",
          "name": "amountA",
          "type": "uint256"
        },
        {
          "indexed": false,
          "internalType": "uint256",
          "name": "amountB",
          "type": "uint256"
        }
      ],
      "name": "Claim",
      "type": "event"
    },
    {
      "anonymous": false,
      "inputs": [
        {
          "indexed": true,
          "internalType": "address",
          "name": "policyToken",
          "type": "address"
        },
        {
          "indexed": true,
          "internalType": "address",
          "name": "stablecoin",
          "type": "address"
        },
        {
          "indexed": false,
          "internalType": "uint256",
          "name": "amountA",
          "type": "uint256"
        },
        {
          "indexed": false,
          "internalType": "uint256",
          "name": "amountB",
          "type": "uint256"
        }
      ],
      "name": "Deposit",
      "type": "event"
    },
    {
      "anonymous": false,
      "inputs": [
        {
          "indexed": false,
          "internalType": "address",
          "name": "owner",
          "type": "address"
        },
        {
          "indexed": false,
          "internalType": "uint256",
          "name": "amount",
          "type": "uint256"
        }
      ],
      "name": "EmergencyWithdraw",
      "type": "event"
    },
    {
      "anonymous": false,
      "inputs": [
        {
          "indexed": false,
          "internalType": "address",
          "name": "user",
          "type": "address"
        },
        {
          "indexed": false,
          "internalType": "uint256",
          "name": "reward",
          "type": "uint256"
        }
      ],
      "name": "Harvest",
      "type": "event"
    },
    {
      "anonymous": false,
      "inputs": [
        {
          "indexed": false,
          "internalType": "address",
          "name": "policyToken",
          "type": "address"
        },
        {
          "indexed": false,
          "internalType": "address",
          "name": "stablecoin",
          "type": "address"
        },
        {
          "indexed": false,
          "internalType": "address",
          "name": "poolAddress",
          "type": "address"
        },
        {
          "indexed": false,
          "internalType": "uint256",
          "name": "amountA",
          "type": "uint256"
        },
        {
          "indexed": false,
          "internalType": "uint256",
          "name": "amountB",
          "type": "uint256"
        }
      ],
      "name": "ILMFinish",
      "type": "event"
    },
    {
      "anonymous": false,
      "inputs": [
        {
          "indexed": false,
          "internalType": "address",
          "name": "policyToken",
          "type": "address"
        },
        {
          "indexed": false,
          "internalType": "address",
          "name": "stablecoin",
          "type": "address"
        },
        {
          "indexed": false,
          "internalType": "uint256",
          "name": "deadline",
          "type": "uint256"
        },
        {
          "indexed": false,
          "internalType": "address",
          "name": "lptokenAddress",
          "type": "address"
        }
      ],
      "name": "ILMStart",
      "type": "event"
    },
    {
      "anonymous": false,
      "inputs": [
        {
          "indexed": true,
          "internalType": "address",
          "name": "previousOwner",
          "type": "address"
        },
        {
          "indexed": true,
          "internalType": "address",
          "name": "newOwner",
          "type": "address"
        }
      ],
      "name": "OwnershipTransferred",
      "type": "event"
    },
    {
      "anonymous": false,
      "inputs": [
        {
          "indexed": true,
          "internalType": "address",
          "name": "policyToken",
          "type": "address"
        },
        {
          "indexed": true,
          "internalType": "address",
          "name": "stablecoin",
          "type": "address"
        },
        {
          "indexed": true,
          "internalType": "address",
          "name": "user",
          "type": "address"
        },
        {
          "indexed": false,
          "internalType": "uint256",
          "name": "amountA",
          "type": "uint256"
        },
        {
          "indexed": false,
          "internalType": "uint256",
          "name": "amountB",
          "type": "uint256"
        }
      ],
      "name": "Withdraw",
      "type": "event"
    },
    {
      "inputs": [],
      "name": "FEE_DENOMINATOR",
      "outputs": [
        {
          "internalType": "uint256",
          "name": "",
          "type": "uint256"
        }
      ],
      "stateMutability": "view",
      "type": "function"
    },
    {
      "inputs": [],
      "name": "MAX_UINT256",
      "outputs": [
        {
          "internalType": "uint256",
          "name": "",
          "type": "uint256"
        }
      ],
      "stateMutability": "view",
      "type": "function"
    },
    {
      "inputs": [],
      "name": "MINIMUM_AMOUNT",
      "outputs": [
        {
          "internalType": "uint256",
          "name": "",
          "type": "uint256"
        }
      ],
      "stateMutability": "view",
      "type": "function"
    },
    {
      "inputs": [],
      "name": "SCALE",
      "outputs": [
        {
          "internalType": "uint256",
          "name": "",
          "type": "uint256"
        }
      ],
      "stateMutability": "view",
      "type": "function"
    },
    {
      "inputs": [
        {
          "internalType": "address",
          "name": "_stablecoin",
          "type": "address"
        }
      ],
      "name": "approveStablecoin",
      "outputs": [],
      "stateMutability": "nonpayable",
      "type": "function"
    },
    {
      "inputs": [
        {
          "internalType": "address",
          "name": "_policyToken",
          "type": "address"
        },
        {
          "internalType": "address",
          "name": "_stablecoin",
          "type": "address"
        },
        {
          "internalType": "uint256",
          "name": "_amount",
          "type": "uint256"
        },
        {
          "internalType": "uint256",
          "name": "_amountAMin",
          "type": "uint256"
        },
        {
          "internalType": "uint256",
          "name": "_amountBMin",
          "type": "uint256"
        }
      ],
      "name": "claim",
      "outputs": [],
      "stateMutability": "nonpayable",
      "type": "function"
    },
    {
      "inputs": [],
      "name": "degis",
      "outputs": [
        {
          "internalType": "address",
          "name": "",
          "type": "address"
        }
      ],
      "stateMutability": "view",
      "type": "function"
    },
    {
      "inputs": [
        {
          "internalType": "address",
          "name": "_policyToken",
          "type": "address"
        },
        {
          "internalType": "address",
          "name": "_stablecoin",
          "type": "address"
        },
        {
          "internalType": "uint256",
          "name": "_amountA",
          "type": "uint256"
        },
        {
          "internalType": "uint256",
          "name": "_amountB",
          "type": "uint256"
        }
      ],
      "name": "deposit",
      "outputs": [],
      "stateMutability": "nonpayable",
      "type": "function"
    },
    {
      "inputs": [],
      "name": "emergencyPool",
      "outputs": [
        {
          "internalType": "address",
          "name": "",
          "type": "address"
        }
      ],
      "stateMutability": "view",
      "type": "function"
    },
    {
      "inputs": [
        {
          "internalType": "address",
          "name": "_policyToken",
          "type": "address"
        }
      ],
      "name": "emergencyRestart",
      "outputs": [],
      "stateMutability": "nonpayable",
      "type": "function"
    },
    {
      "inputs": [
        {
          "internalType": "address",
          "name": "_policyToken",
          "type": "address"
        }
      ],
      "name": "emergencyStop",
      "outputs": [],
      "stateMutability": "nonpayable",
      "type": "function"
    },
    {
      "inputs": [
        {
          "internalType": "address",
          "name": "_token",
          "type": "address"
        },
        {
          "internalType": "uint256",
          "name": "_amount",
          "type": "uint256"
        }
      ],
      "name": "emergencyWithdraw",
      "outputs": [],
      "stateMutability": "nonpayable",
      "type": "function"
    },
    {
      "inputs": [
        {
          "internalType": "address",
          "name": "_policyToken",
          "type": "address"
        },
        {
          "internalType": "uint256",
          "name": "_deadlineForSwap",
          "type": "uint256"
        },
        {
          "internalType": "uint256",
          "name": "_feeRate",
          "type": "uint256"
        }
      ],
      "name": "finishILM",
      "outputs": [],
      "stateMutability": "nonpayable",
      "type": "function"
    },
    {
      "inputs": [
        {
          "internalType": "address",
          "name": "_policyToken",
          "type": "address"
        }
      ],
      "name": "getPairTotalAmount",
      "outputs": [
        {
          "internalType": "uint256",
          "name": "totalAmount",
          "type": "uint256"
        }
      ],
      "stateMutability": "view",
      "type": "function"
    },
    {
      "inputs": [
        {
          "internalType": "address",
          "name": "_policyToken",
          "type": "address"
        }
      ],
      "name": "getPrice",
      "outputs": [
        {
          "internalType": "uint256",
          "name": "",
          "type": "uint256"
        }
      ],
      "stateMutability": "view",
      "type": "function"
    },
    {
      "inputs": [
        {
          "internalType": "address",
          "name": "_user",
          "type": "address"
        },
        {
          "internalType": "address",
          "name": "_policyToken",
          "type": "address"
        }
      ],
      "name": "getUserDeposit",
      "outputs": [
        {
          "internalType": "uint256",
          "name": "amountA",
          "type": "uint256"
        },
        {
          "internalType": "uint256",
          "name": "amountB",
          "type": "uint256"
        }
      ],
      "stateMutability": "view",
      "type": "function"
    },
    {
      "inputs": [
        {
          "internalType": "address",
          "name": "_degis",
          "type": "address"
        },
        {
          "internalType": "address",
          "name": "_policyCore",
          "type": "address"
        },
        {
          "internalType": "address",
          "name": "_router",
          "type": "address"
        },
        {
          "internalType": "address",
          "name": "_emergencyPool",
          "type": "address"
        }
      ],
      "name": "initialize",
      "outputs": [],
      "stateMutability": "nonpayable",
      "type": "function"
    },
    {
      "inputs": [],
      "name": "owner",
      "outputs": [
        {
          "internalType": "address",
          "name": "",
          "type": "address"
        }
      ],
      "stateMutability": "view",
      "type": "function"
    },
    {
      "inputs": [
        {
          "internalType": "address",
          "name": "",
          "type": "address"
        }
      ],
      "name": "pairs",
      "outputs": [
        {
          "internalType": "enum NaughtyPriceILM.Status",
          "name": "status",
          "type": "uint8"
        },
        {
          "internalType": "address",
          "name": "lptoken",
          "type": "address"
        },
        {
          "internalType": "uint256",
          "name": "ILMDeadline",
          "type": "uint256"
        },
        {
          "internalType": "address",
          "name": "stablecoin",
          "type": "address"
        },
        {
          "internalType": "uint256",
          "name": "amountA",
          "type": "uint256"
        },
        {
          "internalType": "uint256",
          "name": "amountB",
          "type": "uint256"
        },
        {
          "internalType": "address",
          "name": "naughtyPairAddress",
          "type": "address"
        },
        {
          "internalType": "uint256",
          "name": "degisAmount",
          "type": "uint256"
        },
        {
          "internalType": "uint256",
          "name": "accDegisPerShare",
          "type": "uint256"
        }
      ],
      "stateMutability": "view",
      "type": "function"
    },
    {
      "inputs": [],
      "name": "policyCore",
      "outputs": [
        {
          "internalType": "address",
          "name": "",
          "type": "address"
        }
      ],
      "stateMutability": "view",
      "type": "function"
    },
    {
      "inputs": [],
      "name": "renounceOwnership",
      "outputs": [],
      "stateMutability": "nonpayable",
      "type": "function"
    },
    {
      "inputs": [],
      "name": "router",
      "outputs": [
        {
          "internalType": "address",
          "name": "",
          "type": "address"
        }
      ],
      "stateMutability": "view",
      "type": "function"
    },
    {
      "inputs": [
        {
          "internalType": "address",
          "name": "_policyToken",
          "type": "address"
        },
        {
          "internalType": "address",
          "name": "_stablecoin",
          "type": "address"
        },
        {
          "internalType": "uint256",
          "name": "_ILMDeadline",
          "type": "uint256"
        }
      ],
      "name": "startILM",
      "outputs": [],
      "stateMutability": "nonpayable",
      "type": "function"
    },
    {
      "inputs": [
        {
          "internalType": "address",
          "name": "newOwner",
          "type": "address"
        }
      ],
      "name": "transferOwnership",
      "outputs": [],
      "stateMutability": "nonpayable",
      "type": "function"
    },
    {
      "inputs": [
        {
          "internalType": "address",
          "name": "",
          "type": "address"
        },
        {
          "internalType": "address",
          "name": "",
          "type": "address"
        }
      ],
      "name": "users",
      "outputs": [
        {
          "internalType": "uint256",
          "name": "amountA",
          "type": "uint256"
        },
        {
          "internalType": "uint256",
          "name": "amountB",
          "type": "uint256"
        },
        {
          "internalType": "uint256",
          "name": "degisDebt",
          "type": "uint256"
        }
      ],
      "stateMutability": "view",
      "type": "function"
    },
    {
      "inputs": [
        {
          "internalType": "address",
          "name": "_policyToken",
          "type": "address"
        },
        {
          "internalType": "address",
          "name": "_stablecoin",
          "type": "address"
        },
        {
          "internalType": "uint256",
          "name": "_amountA",
          "type": "uint256"
        },
        {
          "internalType": "uint256",
          "name": "_amountB",
          "type": "uint256"
        }
      ],
      "name": "withdraw",
      "outputs": [],
      "stateMutability": "nonpayable",
      "type": "function"
    },
    {
      "inputs": [
        {
          "internalType": "address",
          "name": "_policyToken",
          "type": "address"
        },
        {
          "internalType": "address",
          "name": "_stablecoin",
          "type": "address"
        }
      ],
      "name": "withdrawAll",
      "outputs": [],
      "stateMutability": "nonpayable",
      "type": "function"
    }
  ],
  "transactionHash": "0x08b010bc2e5fdced0578e7ff32121e3b5bb8691a52be35e446c5b257d38ff540",
  "args": [],
  "numDeployments": 1,
  "solcInputHash": "e92b3aabbd5d630d2eec11846db601ec",
  "bytecode": "0x608060405234801561001057600080fd5b50614533806100206000396000f3fe60806040523480156200001157600080fd5b5060043610620001dd5760003560e01c80636632a96d116200010d578063d73792a911620000a3578063f2fde38b116200007a578063f2fde38b1462000444578063f887ea40146200045b578063f8c8765e146200046f578063fe33b302146200048657600080fd5b8063d73792a9146200041a578063e30145e01462000423578063eced5526146200043757600080fd5b80638da5cb5b11620000e45780638da5cb5b14620003c657806395ccea6714620003d8578063a27cd0e814620003ef578063a59b3645146200040657600080fd5b80636632a96d146200038e578063715018a614620003a55780637bfe950c14620003af57600080fd5b806329fd2007116200018357806341976e09116200015a57806341976e0914620002fb5780634a72185114620003125780634f54cf8f14620003295780635e80536a146200034057600080fd5b806329fd200714620002b757806333a581d214620002da5780633c82491914620002e457600080fd5b806320e8c56511620001b857806320e8c565146200026f57806323d7bcb31462000286578063257d9bb814620002ac57600080fd5b806309cae2c814620001e2578063148c658c14620001fb57806315dd337d1462000258575b600080fd5b620001f9620001f3366004620023e0565b62000504565b005b6200023f6200020c366004620023e0565b6001600160a01b039182166000908152606960209081526040808320939094168252919091522080546001909101549091565b6040516200024f9291906200242b565b60405180910390f35b620001f9620002693660046200245e565b62000543565b620001f962000280366004620024b6565b6200091f565b6200029d6200029736600462002524565b62000c9e565b6040516200024f919062002549565b6200029d620f424081565b606554620002cb906001600160a01b031681565b6040516200024f919062002564565b6200029d60001981565b620001f9620002f536600462002574565b62000cd3565b6200029d6200030c36600462002524565b62001080565b620001f96200032336600462002524565b620010c9565b620001f96200033a366004620025f8565b62001123565b6200037d62000351366004620023e0565b606960209081526000928352604080842090915290825290208054600182015460029092015490919083565b6040516200024f9392919062002633565b620001f96200039f36600462002524565b6200158c565b620001f9620015e4565b620001f9620003c0366004620024b6565b6200161f565b6033546001600160a01b0316620002cb565b620001f9620003e936600462002661565b620019be565b620001f96200040036600462002524565b62001a38565b606854620002cb906001600160a01b031681565b6200029d606481565b606654620002cb906001600160a01b031681565b6200029d64e8d4a5100081565b620001f96200045536600462002524565b62001b39565b606754620002cb906001600160a01b031681565b620001f9620004803660046200269a565b62001b9d565b620004ed6200049736600462002524565b606a602052600090815260409020805460018201546002830154600384015460048501546005860154600687015460079097015460ff8716976101009097046001600160a01b0390811697958116959216919089565b6040516200024f999897969594939291906200274e565b3360009081526069602090815260408083206001600160a01b0386168452909152902080546001909101546200053d848484846200161f565b50505050565b6033546001600160a01b03163314620005795760405162461bcd60e51b8152600401620005709062002818565b60405180910390fd5b606654604051631c040ef160e11b81526000916001600160a01b0316906338081de290620005ac90879060040162002564565b600060405180830381865afa158015620005ca573d6000803e3d6000fd5b505050506040513d6000823e601f3d908101601f19168201604052620005f4919081019062002950565b6066546040517f5cb3b14f0000000000000000000000000000000000000000000000000000000081529192506000916001600160a01b0390911690635cb3b14f906200064590879060040162002564565b602060405180830381865afa15801562000663573d6000803e3d6000fd5b505050506040513d601f19601f82011682018060405250810190620006899190620029a7565b905080620006c3576040517fcd3966a800000000000000000000000000000000000000000000000000000000815260040160405180910390fd5b6066546040517fd9e85c840000000000000000000000000000000000000000000000000000000081526000916001600160a01b03169063d9e85c84906200070f90869060040162002a01565b60e060405180830381865afa1580156200072d573d6000803e3d6000fd5b505050506040513d601f19601f8201168201806040525081019062000753919062002ae3565b60a00151905080841062000793576040517f7b884d0e00000000000000000000000000000000000000000000000000000000815260040160405180910390fd5b6001600160a01b0386166000908152606a602052604090208054600190829060ff19168280021790555060028101805473ffffffffffffffffffffffffffffffffffffffff19166001600160a01b038816179055600181018590556040516000906200080490869060200162002b2d565b60405160208183030381529060405290506000620008228262001cd1565b83546001600160a01b03808316610100027fffffffffffffffffffffff0000000000000000000000000000000000000000ff90921691909117855560675460405163095ea7b360e01b81529293508b82169263095ea7b3926200088e9216906000199060040162002b5f565b6020604051808303816000875af1158015620008ae573d6000803e3d6000fd5b505050506040513d601f19601f82011682018060405250810190620008d49190620029a7565b507f6ea6ad3ca002ab8f03809d36e8eaadb449ac327b72310b4727feaaa2191debd0898989846040516200090c949392919062002b6f565b60405180910390a1505050505050505050565b8360016001600160a01b0382166000908152606a602052604090205460ff166003811115620009525762000952620026fc565b146200097157604051631667fd6360e31b815260040160405180910390fd5b620f424062000981838562002bcb565b1015620009a15760405163120ed7c160e01b815260040160405180910390fd5b6001600160a01b038086166000908152606a6020526040902060020154858216911614620009fb576040517fe93fc48e00000000000000000000000000000000000000000000000000000000815260040160405180910390fd5b600062000a09838562002bcb565b90506000856001600160a01b031663313ce5676040518163ffffffff1660e01b8152600401602060405180830381865afa15801562000a4c573d6000803e3d6000fd5b505050506040513d601f19601f8201168201806040525081019062000a72919062002bfd565b62000a7f90601262002c22565b60ff1690506000606462000a9583600a62002d75565b62000aa1908562002d86565b62000aad919062002dbe565b905062000abd8884838562001d18565b6001600160a01b0388166000818152606a60209081526040808320338452606983528184209484529390915281206006830180549192859262000b0290849062002bcb565b909155505060655462000b21906001600160a01b031633308662001ed9565b8782600301600082825462000b37919062002bcb565b925050819055508682600401600082825462000b54919062002bcb565b909155505080548890829060009062000b6f90849062002bcb565b925050819055508681600101600082825462000b8c919062002bcb565b9091555062000ba990506001600160a01b038a1633308862001ed9565b6001600160a01b03808b166000908152606a6020526040908190205490517f40c10f190000000000000000000000000000000000000000000000000000000081526101009091049091169081906340c10f199062000c0e9033908a9060040162002b5f565b600060405180830381600087803b15801562000c2957600080fd5b505af115801562000c3e573d6000803e3d6000fd5b50505050896001600160a01b03168b6001600160a01b03167fdcbc1c05240f31ff3ad067ef1ee35ce4997762752e3a095284754544f4c709d78b8b60405162000c899291906200242b565b60405180910390a35050505050505050505050565b6001600160a01b0381166000908152606a60205260408120600481015460039091015462000ccd919062002bcb565b92915050565b8260000362000cf55760405163120ed7c160e01b815260040160405180910390fd5b6001600160a01b038086166000908152606a60205260408082206005810154905491517f70a0823100000000000000000000000000000000000000000000000000000000815290841693610100909204909116919082906370a082319062000d6290339060040162002564565b602060405180830381865afa15801562000d80573d6000803e3d6000fd5b505050506040513d601f19601f8201168201806040525081019062000da6919062002dd5565b9050600081871162000db9578662000dbb565b815b90506000846001600160a01b03166370a08231306040518263ffffffff1660e01b815260040162000ded919062002564565b602060405180830381865afa15801562000e0b573d6000803e3d6000fd5b505050506040513d601f19601f8201168201806040525081019062000e31919062002dd5565b90506000846001600160a01b03166318160ddd6040518163ffffffff1660e01b8152600401602060405180830381865afa15801562000e74573d6000803e3d6000fd5b505050506040513d601f19601f8201168201806040525081019062000e9a919062002dd5565b62000ea6838562002d86565b62000eb2919062002dbe565b905062000ebf8b62001f62565b60675460009081906001600160a01b031663baa2abde8e8e868e8e3362000ee842603c62002bcb565b6040518863ffffffff1660e01b815260040162000f0c979695949392919062002dfa565b60408051808303816000875af115801562000f2b573d6000803e3d6000fd5b505050506040513d601f19601f8201168201806040525081019062000f51919062002e70565b91509150606660009054906101000a90046001600160a01b03166001600160a01b031663e01f8e4b338f856040518463ffffffff1660e01b815260040162000f9c9392919062002ea9565b600060405180830381600087803b15801562000fb757600080fd5b505af115801562000fcc573d6000803e3d6000fd5b5050604051632770a7eb60e21b81526001600160a01b038a169250639dc29fac915062001000903390899060040162002b5f565b600060405180830381600087803b1580156200101b57600080fd5b505af115801562001030573d6000803e3d6000fd5b505050507f34fcbac0073d7c3d388e51312faf357774904998eeb8fca628b9e6f65ee1cbf7338383604051620010699392919062002ec8565b60405180910390a150505050505050505050505050565b6001600160a01b0381166000908152606a60205260408120600381015460049091015481620010b564e8d4a510008362002d86565b620010c1919062002dbe565b949350505050565b6033546001600160a01b03163314620010f65760405162461bcd60e51b8152600401620005709062002818565b6001600160a01b0381166000908152606a6020526040902080546001919060ff191682805b021790555050565b8260016001600160a01b0382166000908152606a602052604090205460ff166003811115620011565762001156620026fc565b146200117557604051631667fd6360e31b815260040160405180910390fd5b6001600160a01b0384166000908152606a6020526040808220815161012081019092528054829060ff166003811115620011b357620011b3620026fc565b6003811115620011c757620011c7620026fc565b815281546001600160a01b036101009182900481166020840152600184015460408085019190915260028501548216606085015260038501546080850152600485015460a0850152600585015490911660c0840152600684015460e084015260079093015491015281015190915042116200126e576040517fe95501d800000000000000000000000000000000000000000000000000000000815260040160405180910390fd5b8060a00151816080015162001284919062002bcb565b600003620012a5576040516309899a2960e01b815260040160405180910390fd5b6001600160a01b038581166000908152606a6020526040808220805460ff191660021790556066549051631c040ef160e11b8152919216906338081de290620012f390899060040162002564565b600060405180830381865afa15801562001311573d6000803e3d6000fd5b505050506040513d6000823e601f3d908101601f191682016040526200133b919081019062002950565b60665460608401516040517fbb9febaf0000000000000000000000000000000000000000000000000000000081529293506000926001600160a01b039092169163bb9febaf9162001396918691908b908b9060040162002ed8565b6020604051808303816000875af1158015620013b6573d6000803e3d6000fd5b505050506040513d601f19601f82011682018060405250810190620013dc919062002f1a565b6001600160a01b038881166000908152606a602052604090819020600501805473ffffffffffffffffffffffffffffffffffffffff1916848416908117909155606754915163095ea7b360e01b81529394509263095ea7b392620014499216906000199060040162002b5f565b6020604051808303816000875af115801562001469573d6000803e3d6000fd5b505050506040513d601f19601f820116820180604052508101906200148f9190620029a7565b506067546060840151608085015160a08601516001600160a01b0390931692632d2cac24928b929091818130620014c842603c62002bcb565b6040518963ffffffff1660e01b8152600401620014ed98979695949392919062002f3f565b6060604051808303816000875af11580156200150d573d6000803e3d6000fd5b505050506040513d601f19601f8201168201806040525081019062001533919062002fc6565b5050507febfc813979aeb299817f3ac454ec6a4b9627229ae579f3203c040f8bc463bdab8784606001518386608001518760a001516040516200157b95949392919062003014565b60405180910390a150505050505050565b6033546001600160a01b03163314620015b95760405162461bcd60e51b8152600401620005709062002818565b6001600160a01b0381166000908152606a6020526040902080546003919060ff19166001836200111b565b6033546001600160a01b03163314620016115760405162461bcd60e51b8152600401620005709062002818565b6200161d60006200206c565b565b8360016001600160a01b0382166000908152606a602052604090205460ff166003811115620016525762001652620026fc565b146200167157604051631667fd6360e31b815260040160405180910390fd5b3360009081526069602090815260408083206001600160a01b038916845282529182902082516060810184528154808252600183015493820184905260029092015493810193909352620016c6919062002bcb565b600003620016e7576040516309899a2960e01b815260040160405180910390fd5b8051841180620016fa5750806020015183115b1562001732576040517f43f6c61d00000000000000000000000000000000000000000000000000000000815260040160405180910390fd5b6001600160a01b0386166000818152606a6020908152604080832033845260698352818420948452938252808320908501519185015185519193929164e8d4a5100091620017809162002bcb565b856007015462001791919062002d86565b6200179d919062002dbe565b620017a991906200306a565b905080156200182057606554606854600091620017d4916001600160a01b03918216911684620020cb565b6068546040519192507fc9695243a805adb74c91f28311176c65b417e842d5699893cef56d18bfa48cba9162001816916001600160a01b031690849062002b5f565b60405180910390a1505b868360030160008282546200183691906200306a565b92505081905550858360040160008282546200185391906200306a565b90915550508154879083906000906200186e9084906200306a565b92505081905550858260010160008282546200188b91906200306a565b90915550600090506200189f878962002bcb565b9050620018ae893383620020cb565b508354604051632770a7eb60e21b81526101009091046001600160a01b031690639dc29fac90620018e6903390859060040162002b5f565b600060405180830381600087803b1580156200190157600080fd5b505af115801562001916573d6000803e3d6000fd5b50505060078501546001850154855464e8d4a51000935062001939919062002bcb565b62001945919062002d86565b62001951919062002dbe565b8360020181905550336001600160a01b0316896001600160a01b03168b6001600160a01b03167ffbde797d201c681b91056529119e0b02407c7bb96a4a2c75c01fc9667232c8db8b8b604051620019aa9291906200242b565b60405180910390a450505050505050505050565b620019e7620019d56033546001600160a01b031690565b6001600160a01b03841690836200218b565b7f5fafa99d0643513820be26656b45130b01e1c03062e1266bf36f88cbd3bd969562001a1b6033546001600160a01b031690565b8260405162001a2c92919062002b5f565b60405180910390a15050565b60675460405163095ea7b360e01b81526001600160a01b038381169263095ea7b39262001a7092909116906000199060040162002b5f565b6020604051808303816000875af115801562001a90573d6000803e3d6000fd5b505050506040513d601f19601f8201168201806040525081019062001ab69190620029a7565b5060665460405163095ea7b360e01b81526001600160a01b038381169263095ea7b39262001aef92909116906000199060040162002b5f565b6020604051808303816000875af115801562001b0f573d6000803e3d6000fd5b505050506040513d601f19601f8201168201806040525081019062001b359190620029a7565b5050565b6033546001600160a01b0316331462001b665760405162461bcd60e51b8152600401620005709062002818565b6001600160a01b03811662001b8f5760405162461bcd60e51b81526004016200057090620030cb565b62001b9a816200206c565b50565b600054610100900460ff1662001bba5760005460ff161562001bbe565b303b155b62001bdd5760405162461bcd60e51b8152600401620005709062003136565b600054610100900460ff1615801562001c00576000805461ffff19166101011790555b6001600160a01b038416158062001c1e57506001600160a01b038316155b1562001c56576040517fff056daf00000000000000000000000000000000000000000000000000000000815260040160405180910390fd5b62001c60620021b2565b606580546001600160a01b0380881673ffffffffffffffffffffffffffffffffffffffff199283161790925560668054878416908316179055606780548684169083161790556068805492851692909116919091179055801562001cca576000805461ff00191690555b5050505050565b60008030838460405162001ce5906200239c565b62001cf39392919062003148565b604051809103906000f08015801562001d10573d6000803e3d6000fd5b509392505050565b6001600160a01b0384166000908152606a60205260408120600681015490910362001d7557606462001d4c83600a62002d75565b62001d5d9064e8d4a5100062002d86565b62001d69919062002dbe565b6007909101556200053d565b3360009081526069602090815260408083206001600160a01b038916845290915290206004820154600383015462001dae919062002bcb565b62001dbf64e8d4a510008662002d86565b62001dcb919062002dbe565b82600701600082825462001de0919062002bcb565b90915550506001810154815460009162001dfa9162002bcb565b9050801562001e99576000826002015464e8d4a5100085600701548462001e22919062002d86565b62001e2e919062002dbe565b62001e3a91906200306a565b60655490915060009062001e59906001600160a01b03163384620020cb565b90507fc9695243a805adb74c91f28311176c65b417e842d5699893cef56d18bfa48cba338260405162001e8e92919062002b5f565b60405180910390a150505b64e8d4a5100062001eab878362002bcb565b846007015462001ebc919062002d86565b62001ec8919062002dbe565b826002018190555050505050505050565b6200053d846323b872dd60e01b85858560405160240162001efd9392919062002ea9565b60408051601f198184030181529190526020810180517bffffffffffffffffffffffffffffffffffffffffffffffffffffffff167fffffffff0000000000000000000000000000000000000000000000000000000090931692909217909152620021e6565b6001600160a01b0381166000818152606a6020908152604080832060070154338452606983528184209484529390915281206001810154815491929162001faa919062002bcb565b90506000826002015464e8d4a51000858462001fc7919062002d86565b62001fd3919062002dbe565b62001fdf91906200306a565b9050801562001cca5764e8d4a5100062001ffa858462002d86565b62002006919062002dbe565b600284015560655460009062002027906001600160a01b03163384620020cb565b90507fc9695243a805adb74c91f28311176c65b417e842d5699893cef56d18bfa48cba33826040516200205c92919062002b5f565b60405180910390a1505050505050565b603380546001600160a01b0383811673ffffffffffffffffffffffffffffffffffffffff19831681179093556040519116919082907f8be0079c531659141344cd1fd0a4f28419497f9722a3daafe3b4186f6b6457e090600090a35050565b600080846001600160a01b03166370a08231306040518263ffffffff1660e01b8152600401620020fc919062002564565b602060405180830381865afa1580156200211a573d6000803e3d6000fd5b505050506040513d601f19601f8201168201806040525081019062002140919062002dd5565b9050808311156200216957620021616001600160a01b03861685836200218b565b905062002184565b6200217f6001600160a01b03861685856200218b565b829150505b9392505050565b620021ad8363a9059cbb60e01b848460405160240162001efd92919062002b5f565b505050565b600054610100900460ff16620021dc5760405162461bcd60e51b81526004016200057090620031db565b6200161d6200227d565b60006200223d826040518060400160405280602081526020017f5361666545524332303a206c6f772d6c6576656c2063616c6c206661696c6564815250856001600160a01b0316620022b29092919063ffffffff16565b805190915015620021ad57808060200190518101906200225e9190620029a7565b620021ad5760405162461bcd60e51b8152600401620005709062003246565b600054610100900460ff16620022a75760405162461bcd60e51b81526004016200057090620031db565b6200161d336200206c565b6060620010c1848460008585843b620022df5760405162461bcd60e51b815260040162000570906200328b565b600080866001600160a01b03168587604051620022fd91906200329d565b60006040518083038185875af1925050503d80600081146200233c576040519150601f19603f3d011682016040523d82523d6000602084013e62002341565b606091505b5091509150620023538282866200235e565b979650505050505050565b606083156200236f57508162002184565b825115620023805782518084602001fd5b8160405162461bcd60e51b815260040162000570919062002a01565b61125480620032aa83390190565b60006001600160a01b03821662000ccd565b620023c781620023aa565b811462001b9a57600080fd5b803562000ccd81620023bc565b60008060408385031215620023f857620023f8600080fd5b6000620024068585620023d3565b92505060206200241985828601620023d3565b9150509250929050565b805b82525050565b604081016200243b828562002423565b62002184602083018462002423565b80620023c7565b803562000ccd816200244a565b600080600060608486031215620024785762002478600080fd5b6000620024868686620023d3565b93505060206200249986828701620023d3565b9250506040620024ac8682870162002451565b9150509250925092565b60008060008060808587031215620024d157620024d1600080fd5b6000620024df8787620023d3565b9450506020620024f287828801620023d3565b9350506040620025058782880162002451565b9250506060620025188782880162002451565b91505092959194509250565b6000602082840312156200253b576200253b600080fd5b6000620010c18484620023d3565b6020810162000ccd828462002423565b6200242581620023aa565b6020810162000ccd828462002559565b600080600080600060a08688031215620025915762002591600080fd5b60006200259f8888620023d3565b9550506020620025b288828901620023d3565b9450506040620025c58882890162002451565b9350506060620025d88882890162002451565b9250506080620025eb8882890162002451565b9150509295509295909350565b600080600060608486031215620026125762002612600080fd5b6000620026208686620023d3565b9350506020620024998682870162002451565b6060810162002643828662002423565b62002652602083018562002423565b620010c1604083018462002423565b60008060408385031215620026795762002679600080fd5b6000620026878585620023d3565b9250506020620024198582860162002451565b60008060008060808587031215620026b557620026b5600080fd5b6000620026c38787620023d3565b9450506020620026d687828801620023d3565b9350506040620026e987828801620023d3565b92505060606200251887828801620023d3565b634e487b7160e01b600052602160045260246000fd5b6004811062001b9a5762001b9a620026fc565b80620027318162002712565b919050565b600062000ccd8262002725565b620024258162002736565b61012081016200275f828c62002743565b6200276e602083018b62002559565b6200277d604083018a62002423565b6200278c606083018962002559565b6200279b608083018862002423565b620027aa60a083018762002423565b620027b960c083018662002559565b620027c860e083018562002423565b620027d861010083018462002423565b9a9950505050505050505050565b60208082527f4f776e61626c653a2063616c6c6572206973206e6f7420746865206f776e657291019081525b60200190565b6020808252810162000ccd81620027e6565b634e487b7160e01b600052604160045260246000fd5b601f19601f830116810181811067ffffffffffffffff821117156200286957620028696200282a565b6040525050565b60006200287c60405190565b905062002731828262002840565b600067ffffffffffffffff821115620028a757620028a76200282a565b601f19601f83011660200192915050565b60005b83811015620028d5578181015183820152602001620028bb565b838111156200053d5750506000910152565b6000620028fe620028f8846200288a565b62002870565b9050828152602081018484840111156200291b576200291b600080fd5b62001d10848285620028b8565b600082601f8301126200293e576200293e600080fd5b8151620010c1848260208601620028e7565b600060208284031215620029675762002967600080fd5b815167ffffffffffffffff811115620029835762002983600080fd5b620010c18482850162002928565b801515620023c7565b805162000ccd8162002991565b600060208284031215620029be57620029be600080fd5b6000620010c184846200299a565b6000620029d7825190565b808452602084019350620029f0818560208601620028b8565b601f01601f19169290920192915050565b60208082528101620021848184620029cc565b805162000ccd81620023bc565b805162000ccd816200244a565b600060e0828403121562002a455762002a45600080fd5b62002a5160e062002870565b9050600062002a61848462002a14565b90820152602062002a75848483016200299a565b90820152604062002a898484830162002a21565b90820152606062002a9d8484830162002a21565b90820152608062002ab18484830162002a21565b9082015260a062002ac58484830162002a21565b9082015260c062002ad98484830162002a21565b9082015292915050565b600060e0828403121562002afa5762002afa600080fd5b6000620010c1848462002a2e565b600062002b13825190565b62002b23818560208601620028b8565b9290920192915050565b7f494c4d2d00000000000000000000000000000000000000000000000000000000815260040162000ccd818362002b08565b604081016200243b828562002559565b6080810162002b7f828762002559565b62002b8e602083018662002559565b62002b9d604083018562002423565b62002bac606083018462002559565b95945050505050565b634e487b7160e01b600052601160045260246000fd5b6000821982111562002be15762002be162002bb5565b500190565b60ff8116620023c7565b805162000ccd8162002be6565b60006020828403121562002c145762002c14600080fd5b6000620010c1848462002bf0565b60ff9081169082165b915060008282101562002c425762002c4262002bb5565b500390565b80825b600185111562002c8d5780860481111562002c695762002c6962002bb5565b600185161562002c7857908102905b800262002c858560011c90565b945062002c4a565b94509492505050565b60008262002ca75750600162002184565b8162002cb65750600062002184565b816001811462002ccf576002811462002cda5762002d0e565b600191505062002184565b60ff84111562002cee5762002cee62002bb5565b8360020a91508482111562002d075762002d0762002bb5565b5062002184565b5060208310610133831016604e8410600b841016171562002d46575081810a8381111562002d405762002d4062002bb5565b62002184565b62002d55848484600162002c47565b9250905081840481111562002d6e5762002d6e62002bb5565b0292915050565b600062002184600019848462002c96565b600081600019048311821515161562002da35762002da362002bb5565b500290565b634e487b7160e01b600052601260045260246000fd5b60008262002dd05762002dd062002da8565b500490565b60006020828403121562002dec5762002dec600080fd5b6000620010c1848462002a21565b60e0810162002e0a828a62002559565b62002e19602083018962002559565b62002e28604083018862002423565b62002e37606083018762002423565b62002e46608083018662002423565b62002e5560a083018562002559565b62002e6460c083018462002423565b98975050505050505050565b6000806040838503121562002e885762002e88600080fd5b600062002e96858562002a21565b9250506020620024198582860162002a21565b6060810162002eb9828662002559565b62002652602083018562002559565b6060810162002643828662002559565b6080808252810162002eeb8187620029cc565b905062002efc602083018662002559565b62002f0b604083018562002423565b62002bac606083018462002423565b60006020828403121562002f315762002f31600080fd5b6000620010c1848462002a14565b610100810162002f50828b62002559565b62002f5f602083018a62002559565b62002f6e604083018962002423565b62002f7d606083018862002423565b62002f8c608083018762002423565b62002f9b60a083018662002423565b62002faa60c083018562002559565b62002fb960e083018462002423565b9998505050505050505050565b60008060006060848603121562002fe05762002fe0600080fd5b600062002fee868662002a21565b9350506020620030018682870162002a21565b9250506040620024ac8682870162002a21565b60a0810162003024828862002559565b62003033602083018762002559565b62003042604083018662002559565b62003051606083018562002423565b62003060608083018462002423565b9695505050505050565b8162002c2b565b60268152602081017f4f776e61626c653a206e6577206f776e657220697320746865207a65726f206181527f6464726573730000000000000000000000000000000000000000000000000000602082015290505b60400190565b6020808252810162000ccd8162003071565b602e8152602081017f496e697469616c697a61626c653a20636f6e747261637420697320616c72656181527f647920696e697469616c697a656400000000000000000000000000000000000060208201529050620030c5565b6020808252810162000ccd81620030dd565b6060810162003158828662002559565b81810360208301526200316c8185620029cc565b9050818103604083015262002bac8184620029cc565b602b8152602081017f496e697469616c697a61626c653a20636f6e7472616374206973206e6f74206981527f6e697469616c697a696e6700000000000000000000000000000000000000000060208201529050620030c5565b6020808252810162000ccd8162003182565b602a8152602081017f5361666545524332303a204552433230206f7065726174696f6e20646964206e81527f6f7420737563636565640000000000000000000000000000000000000000000060208201529050620030c5565b6020808252810162000ccd81620031ed565b601d8152602081017f416464726573733a2063616c6c20746f206e6f6e2d636f6e74726163740000008152905062002812565b6020808252810162000ccd8162003258565b62000ccd818362002b0856fe60806040523480156200001157600080fd5b5060405162001254380380620012548339810160408190526200003491620002ad565b8151829082906200004d90600390602085019062000090565b5080516200006390600490602084019062000090565b5050600580546001600160a01b0319166001600160a01b0395909516949094179093555062000387915050565b8280546200009e9062000357565b90600052602060002090601f016020900481019282620000c257600085556200010d565b82601f10620000dd57805160ff19168380011785556200010d565b828001600101855582156200010d579182015b828111156200010d578251825591602001919060010190620000f0565b506200011b9291506200011f565b5090565b5b808211156200011b576000815560010162000120565b60006001600160a01b0382165b92915050565b620001548162000136565b81146200016057600080fd5b50565b8051620001438162000149565b634e487b7160e01b600052604160045260246000fd5b601f19601f83011681016001600160401b0381118282101715620001ae57620001ae62000170565b6040525050565b6000620001c160405190565b9050620001cf828262000186565b919050565b60006001600160401b03821115620001f057620001f062000170565b601f19601f83011660200192915050565b60005b838110156200021e57818101518382015260200162000204565b838111156200022e576000848401525b50505050565b60006200024b6200024584620001d4565b620001b5565b905082815260208101848484011115620002685762000268600080fd5b6200027584828562000201565b509392505050565b600082601f830112620002935762000293600080fd5b8151620002a584826020860162000234565b949350505050565b600080600060608486031215620002c757620002c7600080fd5b6000620002d5868662000163565b602086015190945090506001600160401b03811115620002f857620002f8600080fd5b62000306868287016200027d565b604086015190935090506001600160401b03811115620003295762000329600080fd5b62000337868287016200027d565b9150509250925092565b634e487b7160e01b600052602260045260246000fd5b6002810460018216806200036c57607f821691505b60208210810362000381576200038162000341565b50919050565b610ebd80620003976000396000f3fe608060405234801561001057600080fd5b50600436106100ea5760003560e01c80636978531a1161008c5780639dc29fac116100665780639dc29fac146101d9578063a457c2d7146101ec578063a9059cbb146101ff578063dd62ed3e1461021257600080fd5b80636978531a1461018857806370a08231146101a857806395d89b41146101d157600080fd5b806323b872dd116100c857806323b872dd1461013e578063313ce56714610151578063395093511461016057806340c10f191461017357600080fd5b806306fdde03146100ef578063095ea7b31461010d57806318160ddd1461012d575b600080fd5b6100f761024b565b6040516101049190610831565b60405180910390f35b61012061011b36600461088d565b6102dd565b60405161010491906108d4565b6002545b60405161010491906108e8565b61012061014c3660046108f6565b6102f4565b6012604051610104919061094f565b61012061016e36600461088d565b610366565b61018661018136600461088d565b6103a2565b005b60055461019b906001600160a01b031681565b6040516101049190610966565b6101316101b6366004610974565b6001600160a01b031660009081526020819052604090205490565b6100f76103da565b6101866101e736600461088d565b6103e9565b6101206101fa36600461088d565b61041d565b61012061020d36600461088d565b610478565b61013161022036600461099d565b6001600160a01b03918216600090815260016020908152604080832093909416825291909152205490565b60606003805461025a906109e6565b80601f0160208091040260200160405190810160405280929190818152602001828054610286906109e6565b80156102d35780601f106102a8576101008083540402835291602001916102d3565b820191906000526020600020905b8154815290600101906020018083116102b657829003601f168201915b5050505050905090565b60006102ea338484610485565b5060015b92915050565b6000610301848484610539565b6001600160a01b03841660009081526001602090815260408083203384529091529020548281101561034e5760405162461bcd60e51b815260040161034590610a6c565b60405180910390fd5b61035b8533858403610485565b506001949350505050565b3360008181526001602090815260408083206001600160a01b038716845290915281205490916102ea91859061039d908690610a92565b610485565b6005546001600160a01b031633146103cc5760405162461bcd60e51b815260040161034590610ade565b6103d6828261064e565b5050565b60606004805461025a906109e6565b6005546001600160a01b031633146104135760405162461bcd60e51b815260040161034590610ade565b6103d68282610702565b3360009081526001602090815260408083206001600160a01b0386168452909152812054828110156104615760405162461bcd60e51b815260040161034590610b46565b61046e3385858403610485565b5060019392505050565b60006102ea338484610539565b6001600160a01b0383166104ab5760405162461bcd60e51b815260040161034590610bae565b6001600160a01b0382166104d15760405162461bcd60e51b815260040161034590610c16565b6001600160a01b0380841660008181526001602090815260408083209487168084529490915290819020849055517f8c5be1e5ebec7d5bd14f71427d1e84f3dd0314c0f7b2291e5b200ac8c7c3b9259061052c9085906108e8565b60405180910390a3505050565b6001600160a01b03831661055f5760405162461bcd60e51b815260040161034590610c7e565b6001600160a01b0382166105855760405162461bcd60e51b815260040161034590610ce6565b6001600160a01b038316600090815260208190526040902054818110156105be5760405162461bcd60e51b815260040161034590610d4e565b6001600160a01b038085166000908152602081905260408082208585039055918516815290812080548492906105f5908490610a92565b92505081905550826001600160a01b0316846001600160a01b03167fddf252ad1be2c89b69c2b068fc378daa952ba7f163c4a11628f55a4df523b3ef8460405161063f91906108e8565b60405180910390a35b50505050565b6001600160a01b0382166106745760405162461bcd60e51b815260040161034590610d90565b80600260008282546106869190610a92565b90915550506001600160a01b038216600090815260208190526040812080548392906106b3908490610a92565b90915550506040516001600160a01b038316906000907fddf252ad1be2c89b69c2b068fc378daa952ba7f163c4a11628f55a4df523b3ef906106f69085906108e8565b60405180910390a35050565b6001600160a01b0382166107285760405162461bcd60e51b815260040161034590610df8565b6001600160a01b038216600090815260208190526040902054818110156107615760405162461bcd60e51b815260040161034590610e60565b6001600160a01b0383166000908152602081905260408120838303905560028054849290610790908490610e70565b90915550506040516000906001600160a01b038516907fddf252ad1be2c89b69c2b068fc378daa952ba7f163c4a11628f55a4df523b3ef9061052c9086906108e8565b60005b838110156107ee5781810151838201526020016107d6565b838111156106485750506000910152565b6000610809825190565b8084526020840193506108208185602086016107d3565b601f01601f19169290920192915050565b6020808252810161084281846107ff565b9392505050565b60006001600160a01b0382166102ee565b61086381610849565b811461086e57600080fd5b50565b80356102ee8161085a565b80610863565b80356102ee8161087c565b600080604083850312156108a3576108a3600080fd5b60006108af8585610871565b92505060206108c085828601610882565b9150509250929050565b8015155b82525050565b602081016102ee82846108ca565b806108ce565b602081016102ee82846108e2565b60008060006060848603121561090e5761090e600080fd5b600061091a8686610871565b935050602061092b86828701610871565b925050604061093c86828701610882565b9150509250925092565b60ff81166108ce565b602081016102ee8284610946565b6108ce81610849565b602081016102ee828461095d565b60006020828403121561098957610989600080fd5b60006109958484610871565b949350505050565b600080604083850312156109b3576109b3600080fd5b60006109bf8585610871565b92505060206108c085828601610871565b634e487b7160e01b600052602260045260246000fd5b6002810460018216806109fa57607f821691505b602082108103610a0c57610a0c6109d0565b50919050565b60288152602081017f45524332303a207472616e7366657220616d6f756e742065786365656473206181527f6c6c6f77616e6365000000000000000000000000000000000000000000000000602082015290505b60400190565b602080825281016102ee81610a12565b634e487b7160e01b600052601160045260246000fd5b60008219821115610aa557610aa5610a7c565b500190565b60088152602081017f4f6e6c7920494c4d000000000000000000000000000000000000000000000000815290505b60200190565b602080825281016102ee81610aaa565b60258152602081017f45524332303a2064656372656173656420616c6c6f77616e63652062656c6f7781527f207a65726f00000000000000000000000000000000000000000000000000000060208201529050610a66565b602080825281016102ee81610aee565b60248152602081017f45524332303a20617070726f76652066726f6d20746865207a65726f2061646481527f726573730000000000000000000000000000000000000000000000000000000060208201529050610a66565b602080825281016102ee81610b56565b60228152602081017f45524332303a20617070726f766520746f20746865207a65726f20616464726581527f737300000000000000000000000000000000000000000000000000000000000060208201529050610a66565b602080825281016102ee81610bbe565b60258152602081017f45524332303a207472616e736665722066726f6d20746865207a65726f20616481527f647265737300000000000000000000000000000000000000000000000000000060208201529050610a66565b602080825281016102ee81610c26565b60238152602081017f45524332303a207472616e7366657220746f20746865207a65726f206164647281527f657373000000000000000000000000000000000000000000000000000000000060208201529050610a66565b602080825281016102ee81610c8e565b60268152602081017f45524332303a207472616e7366657220616d6f756e742065786365656473206281527f616c616e6365000000000000000000000000000000000000000000000000000060208201529050610a66565b602080825281016102ee81610cf6565b601f8152602081017f45524332303a206d696e7420746f20746865207a65726f20616464726573730081529050610ad8565b602080825281016102ee81610d5e565b60218152602081017f45524332303a206275726e2066726f6d20746865207a65726f2061646472657381527f730000000000000000000000000000000000000000000000000000000000000060208201529050610a66565b602080825281016102ee81610da0565b60228152602081017f45524332303a206275726e20616d6f756e7420657863656564732062616c616e81527f636500000000000000000000000000000000000000000000000000000000000060208201529050610a66565b602080825281016102ee81610e08565b600082821015610e8257610e82610a7c565b50039056fea2646970667358221220ec686029629d0ed8d038bd7be84dfc7a4aeea6ea9735f37f74e2ebd5176021f364736f6c634300080d0033a264697066735822122078b5f360092bf43cb2bc3a84556a2fc83914c572a949b12d061a8997b080cf3f64736f6c634300080d0033",
  "devdoc": {
    "kind": "dev",
    "methods": {
      "approveStablecoin(address)": {
        "params": {
          "_stablecoin": "Stablecoin address"
        }
      },
      "claim(address,address,uint256,uint256,uint256)": {
        "details": "You will get back some DEG (depending on how many users deposit after you)      The claim amount is determined by the LP Token balance of you (you can buy from others)      But the DEG reward would only be got once      Your LP token will be burnt and you can not join ILM farming pool again",
        "params": {
          "_amountAMin": "Minimum amount of policy token (slippage)",
          "_amountBMin": "Minimum amount of stablecoin (slippage)",
          "_policyToken": "Policy token address",
          "_stablecoin": "Stablecoin address"
        }
      },
      "deposit(address,address,uint256,uint256)": {
        "details": "Deposit only check the pair status not the deadline      There may be a zero ILM and we still need to deposit some asset to make it start      Anyone wants to enter ILM need to pay some DEG as entrance fee      The ratio is 100:1(usd:deg) and your fee is distributed to the users prior to you",
        "params": {
          "_amountA": "Amount of policy token (virtual)",
          "_amountB": "Amount of stablecoin (virtual)",
          "_policyToken": "Policy token address",
          "_stablecoin": "Stablecoin address"
        }
      },
      "emergencyRestart(address)": {
        "params": {
          "_policyToken": "Policy token address to be restarted"
        }
      },
      "emergencyStop(address)": {
        "params": {
          "_policyToken": "Policy token address to be stopped"
        }
      },
      "emergencyWithdraw(address,uint256)": {
        "params": {
          "_amount": "Token amount",
          "_token": "Token address"
        }
      },
      "finishILM(address,uint256,uint256)": {
        "details": "The swap pool for the protection token will be deployed with inital liquidity\\      The amount of initial liquidity will be the total amount of the pair      Can be called by any address",
        "params": {
          "_deadlineForSwap": "Pool deadline",
          "_feeRate": "Fee rate of the swap pool",
          "_policyToken": "Policy token address"
        }
      },
      "getPairTotalAmount(address)": {
        "params": {
          "_policyToken": "Policy token address"
        },
        "returns": {
          "totalAmount": "Total amount of a pair"
        }
      },
      "getPrice(address)": {
        "details": "Price has a scale of 1e12",
        "params": {
          "_policyToken": "Policy token address"
        },
        "returns": {
          "_0": "price Price of the token pair"
        }
      },
      "getUserDeposit(address,address)": {
        "params": {
          "_policyToken": "Policy token address",
          "_user": "User address"
        }
      },
      "initialize(address,address,address,address)": {
        "details": "Called only when deploying proxy contract",
        "params": {
          "_degis": "Degis token address",
          "_emergencyPool": "EmergencyPool contract address",
          "_policyCore": "PolicyCore contract address",
          "_router": "NaughtyRouter contract address"
        }
      },
      "owner()": {
        "details": "Returns the address of the current owner."
      },
      "renounceOwnership()": {
        "details": "Leaves the contract without owner. It will not be possible to call `onlyOwner` functions anymore. Can only be called by the current owner. NOTE: Renouncing ownership will leave the contract without an owner, thereby removing any functionality that is only available to the owner."
      },
      "startILM(address,address,uint256)": {
        "details": "A new lp token will be deployed when starting a new ILM round      It will have a special farming reward pool",
        "params": {
          "_ILMDeadline": "Deadline of ILM period",
          "_policyToken": "Policy token address",
          "_stablecoin": "Stablecoin address"
        }
      },
      "transferOwnership(address)": {
        "details": "Transfers ownership of the contract to a new account (`newOwner`). Can only be called by the current owner."
      },
      "withdraw(address,address,uint256,uint256)": {
        "details": "Only checks the status not the deadline",
        "params": {
          "_amountA": "Amount of policy token (virtual)",
          "_amountB": "Amount of stablecoin (virtual)",
          "_policyToken": "Policy token address",
          "_stablecoin": "Stablecoin address"
        }
      },
      "withdrawAll(address,address)": {
        "params": {
          "_policyToken": "Policy token address",
          "_stablecoin": "Stablecoin address"
        }
      }
    },
    "title": "Naughty Price Initial Liquidity Matching",
    "version": 1
  },
  "userdoc": {
    "kind": "user",
    "methods": {
      "approveStablecoin(address)": {
        "notice": "Approve stablecoins for naughty price contracts"
      },
      "claim(address,address,uint256,uint256,uint256)": {
        "notice": "Claim liquidity back"
      },
      "deposit(address,address,uint256,uint256)": {
        "notice": "Deposit stablecoin and choose the price"
      },
      "emergencyRestart(address)": {
        "notice": "Emergency restart ILM"
      },
      "emergencyStop(address)": {
        "notice": "Emergency stop ILM"
      },
      "emergencyWithdraw(address,uint256)": {
        "notice": "Emergency withdraw a certain token"
      },
      "finishILM(address,uint256,uint256)": {
        "notice": "Finish a round of ILM"
      },
      "getPairTotalAmount(address)": {
        "notice": "Get the total amount of a pair"
      },
      "getPrice(address)": {
        "notice": "Get the current price"
      },
      "getUserDeposit(address,address)": {
        "notice": "Get the amount of user's deposit"
      },
      "initialize(address,address,address,address)": {
        "notice": "Initialze function for proxy"
      },
      "startILM(address,address,uint256)": {
        "notice": "Start a new ILM round"
      },
      "withdraw(address,address,uint256,uint256)": {
        "notice": "Withdraw stablecoins"
      },
      "withdrawAll(address,address)": {
        "notice": "Withdraw all stablecoins of a certain policy token"
      }
    },
    "notice": "Naughty Price timeline: 1 -- 14 -- 5         The first day of each round would be the time for liquidity matching         User           - Select the naughty token           - Provide stablecoins into this contract & Select your price choice           - Change the amountA and amountB of this pair         When reach deadline           - Final price of ILM = Initial price of naughty price pair = amountA/amountB",
    "version": 1
  },
  "storageLayout": {
    "storage": [
      {
        "astId": 2523,
        "contract": "contracts/ILM/NaughtyPriceILM.sol:NaughtyPriceILM",
        "label": "_initialized",
        "offset": 0,
        "slot": "0",
        "type": "t_bool"
      },
      {
        "astId": 2526,
        "contract": "contracts/ILM/NaughtyPriceILM.sol:NaughtyPriceILM",
        "label": "_initializing",
        "offset": 1,
        "slot": "0",
        "type": "t_bool"
      },
      {
        "astId": 3760,
        "contract": "contracts/ILM/NaughtyPriceILM.sol:NaughtyPriceILM",
        "label": "__gap",
        "offset": 0,
        "slot": "1",
        "type": "t_array(t_uint256)50_storage"
      },
      {
        "astId": 2403,
        "contract": "contracts/ILM/NaughtyPriceILM.sol:NaughtyPriceILM",
        "label": "_owner",
        "offset": 0,
        "slot": "51",
        "type": "t_address"
      },
      {
        "astId": 2515,
        "contract": "contracts/ILM/NaughtyPriceILM.sol:NaughtyPriceILM",
        "label": "__gap",
        "offset": 0,
        "slot": "52",
        "type": "t_array(t_uint256)49_storage"
      },
      {
        "astId": 8701,
        "contract": "contracts/ILM/NaughtyPriceILM.sol:NaughtyPriceILM",
        "label": "degis",
        "offset": 0,
        "slot": "101",
        "type": "t_address"
      },
      {
        "astId": 8703,
        "contract": "contracts/ILM/NaughtyPriceILM.sol:NaughtyPriceILM",
        "label": "policyCore",
        "offset": 0,
        "slot": "102",
        "type": "t_address"
      },
      {
        "astId": 8705,
        "contract": "contracts/ILM/NaughtyPriceILM.sol:NaughtyPriceILM",
        "label": "router",
        "offset": 0,
        "slot": "103",
        "type": "t_address"
      },
      {
        "astId": 8707,
        "contract": "contracts/ILM/NaughtyPriceILM.sol:NaughtyPriceILM",
        "label": "emergencyPool",
        "offset": 0,
        "slot": "104",
        "type": "t_address"
      },
      {
        "astId": 8721,
        "contract": "contracts/ILM/NaughtyPriceILM.sol:NaughtyPriceILM",
        "label": "users",
        "offset": 0,
        "slot": "105",
        "type": "t_mapping(t_address,t_mapping(t_address,t_struct(UserInfo)8714_storage))"
      },
      {
        "astId": 8751,
        "contract": "contracts/ILM/NaughtyPriceILM.sol:NaughtyPriceILM",
        "label": "pairs",
        "offset": 0,
        "slot": "106",
        "type": "t_mapping(t_address,t_struct(PairInfo)8746_storage)"
      }
    ],
    "types": {
      "t_address": {
        "encoding": "inplace",
        "label": "address",
        "numberOfBytes": "20"
      },
      "t_array(t_uint256)49_storage": {
        "base": "t_uint256",
        "encoding": "inplace",
        "label": "uint256[49]",
        "numberOfBytes": "1568"
      },
      "t_array(t_uint256)50_storage": {
        "base": "t_uint256",
        "encoding": "inplace",
        "label": "uint256[50]",
        "numberOfBytes": "1600"
      },
      "t_bool": {
        "encoding": "inplace",
        "label": "bool",
        "numberOfBytes": "1"
      },
      "t_enum(Status)8726": {
        "encoding": "inplace",
        "label": "enum NaughtyPriceILM.Status",
        "numberOfBytes": "1"
      },
      "t_mapping(t_address,t_mapping(t_address,t_struct(UserInfo)8714_storage))": {
        "encoding": "mapping",
        "key": "t_address",
        "label": "mapping(address => mapping(address => struct NaughtyPriceILM.UserInfo))",
        "numberOfBytes": "32",
        "value": "t_mapping(t_address,t_struct(UserInfo)8714_storage)"
      },
      "t_mapping(t_address,t_struct(PairInfo)8746_storage)": {
        "encoding": "mapping",
        "key": "t_address",
        "label": "mapping(address => struct NaughtyPriceILM.PairInfo)",
        "numberOfBytes": "32",
        "value": "t_struct(PairInfo)8746_storage"
      },
      "t_mapping(t_address,t_struct(UserInfo)8714_storage)": {
        "encoding": "mapping",
        "key": "t_address",
        "label": "mapping(address => struct NaughtyPriceILM.UserInfo)",
        "numberOfBytes": "32",
        "value": "t_struct(UserInfo)8714_storage"
      },
      "t_struct(PairInfo)8746_storage": {
        "encoding": "inplace",
        "label": "struct NaughtyPriceILM.PairInfo",
        "members": [
          {
            "astId": 8729,
            "contract": "contracts/ILM/NaughtyPriceILM.sol:NaughtyPriceILM",
            "label": "status",
            "offset": 0,
            "slot": "0",
            "type": "t_enum(Status)8726"
          },
          {
            "astId": 8731,
            "contract": "contracts/ILM/NaughtyPriceILM.sol:NaughtyPriceILM",
            "label": "lptoken",
            "offset": 1,
            "slot": "0",
            "type": "t_address"
          },
          {
            "astId": 8733,
            "contract": "contracts/ILM/NaughtyPriceILM.sol:NaughtyPriceILM",
            "label": "ILMDeadline",
            "offset": 0,
            "slot": "1",
            "type": "t_uint256"
          },
          {
            "astId": 8735,
            "contract": "contracts/ILM/NaughtyPriceILM.sol:NaughtyPriceILM",
            "label": "stablecoin",
            "offset": 0,
            "slot": "2",
            "type": "t_address"
          },
          {
            "astId": 8737,
            "contract": "contracts/ILM/NaughtyPriceILM.sol:NaughtyPriceILM",
            "label": "amountA",
            "offset": 0,
            "slot": "3",
            "type": "t_uint256"
          },
          {
            "astId": 8739,
            "contract": "contracts/ILM/NaughtyPriceILM.sol:NaughtyPriceILM",
            "label": "amountB",
            "offset": 0,
            "slot": "4",
            "type": "t_uint256"
          },
          {
            "astId": 8741,
            "contract": "contracts/ILM/NaughtyPriceILM.sol:NaughtyPriceILM",
            "label": "naughtyPairAddress",
            "offset": 0,
            "slot": "5",
            "type": "t_address"
          },
          {
            "astId": 8743,
            "contract": "contracts/ILM/NaughtyPriceILM.sol:NaughtyPriceILM",
            "label": "degisAmount",
            "offset": 0,
            "slot": "6",
            "type": "t_uint256"
          },
          {
            "astId": 8745,
            "contract": "contracts/ILM/NaughtyPriceILM.sol:NaughtyPriceILM",
            "label": "accDegisPerShare",
            "offset": 0,
            "slot": "7",
            "type": "t_uint256"
          }
        ],
        "numberOfBytes": "256"
      },
      "t_struct(UserInfo)8714_storage": {
        "encoding": "inplace",
        "label": "struct NaughtyPriceILM.UserInfo",
        "members": [
          {
            "astId": 8709,
            "contract": "contracts/ILM/NaughtyPriceILM.sol:NaughtyPriceILM",
            "label": "amountA",
            "offset": 0,
            "slot": "0",
            "type": "t_uint256"
          },
          {
            "astId": 8711,
            "contract": "contracts/ILM/NaughtyPriceILM.sol:NaughtyPriceILM",
            "label": "amountB",
            "offset": 0,
            "slot": "1",
            "type": "t_uint256"
          },
          {
            "astId": 8713,
            "contract": "contracts/ILM/NaughtyPriceILM.sol:NaughtyPriceILM",
            "label": "degisDebt",
            "offset": 0,
            "slot": "2",
            "type": "t_uint256"
          }
        ],
        "numberOfBytes": "96"
      },
      "t_uint256": {
        "encoding": "inplace",
        "label": "uint256",
        "numberOfBytes": "32"
      }
    }
  }
}