{
  "address": "0x7a56508cae0458De21d496D94214a16775431F53",
  "abi": [
    {
      "inputs": [],
      "name": "USDCe",
      "outputs": [
        {
          "internalType": "address",
          "name": "",
          "type": "address"
        }
      ],
      "stateMutability": "view",
      "type": "function"
    },
    {
      "inputs": [
        {
          "internalType": "address",
          "name": "_user",
          "type": "address"
        },
        {
          "internalType": "uint256",
          "name": "_amount",
          "type": "uint256"
        }
      ],
      "name": "compensate",
      "outputs": [],
      "stateMutability": "nonpayable",
      "type": "function"
    },
    {
      "inputs": [],
      "name": "incomeSharingVault",
      "outputs": [
        {
          "internalType": "address",
          "name": "",
          "type": "address"
        }
      ],
      "stateMutability": "view",
      "type": "function"
    }
  ],
  "transactionHash": "0x60201e112c0b62ed0c3eb8a2ed844d282ce4789e109f1fd1b13042596a3dd5ae",
  "args": [],
  "numDeployments": 1,
  "solcInputHash": "4546d111016874f94b6f8c61c5a45ee5",
  "bytecode": "0x608060405234801561001057600080fd5b50610319806100206000396000f3fe608060405234801561001057600080fd5b50600436106100415760003560e01c806344224a84146100465780638a1bd7c0146100775780638a4d786b1461008c575b600080fd5b610061737a5c17292affb5cffd34991058e44c81c856f10b81565b60405161006e91906101c6565b60405180910390f35b61008a610085366004610207565b6100a7565b005b61006173a7d7079b0fead91f3e65f86e8915cb59c1a4c66481565b33737a5c17292affb5cffd34991058e44c81c856f10b146100fd576040517f08c379a00000000000000000000000000000000000000000000000000000000081526004016100f490610244565b60405180910390fd5b6040517fa9059cbb00000000000000000000000000000000000000000000000000000000815273a7d7079b0fead91f3e65f86e8915cb59c1a4c6649063a9059cbb9061014f9085908590600401610285565b6020604051808303816000875af115801561016e573d6000803e3d6000fd5b505050506040513d601f19601f8201168201806040525081019061019291906102ba565b505050565b600073ffffffffffffffffffffffffffffffffffffffff82165b92915050565b6101c081610197565b82525050565b602081016101b182846101b7565b6101dd81610197565b81146101e857600080fd5b50565b80356101b1816101d4565b806101dd565b80356101b1816101f6565b6000806040838503121561021d5761021d600080fd5b600061022985856101eb565b925050602061023a858286016101fc565b9150509250929050565b602080825281016101b181600a81527f4f6e6c79207661756c7400000000000000000000000000000000000000000000602082015260400190565b806101c0565b6040810161029382856101b7565b6102a0602083018461027f565b9392505050565b8015156101dd565b80516101b1816102a7565b6000602082840312156102cf576102cf600080fd5b60006102db84846102af565b94935050505056fea26469706673582212200b06b5e2b8207c0636d5849ea2409a09c752b9b9021923f441c4d2391801401764736f6c634300080d0033",
  "devdoc": {
    "kind": "dev",
    "methods": {},
    "version": 1
  },
  "userdoc": {
    "kind": "user",
    "methods": {},
    "version": 1
  },
  "storageLayout": {
    "storage": [],
    "types": null
  }
}