{
  "address": "0xC2fEB9032363d90E277b818c5D19fc04cc884048",
  "abi": [
    {
      "inputs": [],
      "name": "DIS__NotEnoughVeDEG",
      "type": "error"
    },
    {
      "inputs": [],
      "name": "DIS__PoolNotAvailable",
      "type": "error"
    },
    {
      "inputs": [],
      "name": "DIS__WrongSpeed",
      "type": "error"
    },
    {
      "inputs": [],
      "name": "DIS__ZeroAmount",
      "type": "error"
    },
    {
      "anonymous": false,
      "inputs": [
        {
          "indexed": false,
          "internalType": "address",
          "name": "user",
          "type": "address"
        },
        {
          "indexed": false,
          "internalType": "uint256",
          "name": "poolId",
          "type": "uint256"
        },
        {
          "indexed": false,
          "internalType": "uint256",
          "name": "amount",
          "type": "uint256"
        }
      ],
      "name": "Deposit",
      "type": "event"
    },
    {
      "anonymous": false,
      "inputs": [
        {
          "indexed": false,
          "internalType": "address",
          "name": "user",
          "type": "address"
        },
        {
          "indexed": false,
          "internalType": "uint256",
          "name": "poolId",
          "type": "uint256"
        },
        {
          "indexed": false,
          "internalType": "uint256",
          "name": "amount",
          "type": "uint256"
        }
      ],
      "name": "Harvest",
      "type": "event"
    },
    {
      "anonymous": false,
      "inputs": [
        {
          "indexed": false,
          "internalType": "uint256",
          "name": "poolId",
          "type": "uint256"
        },
        {
          "indexed": false,
          "internalType": "address",
          "name": "rewardToken",
          "type": "address"
        }
      ],
      "name": "NewRewardPoolStart",
      "type": "event"
    },
    {
      "anonymous": false,
      "inputs": [
        {
          "indexed": true,
          "internalType": "address",
          "name": "previousOwner",
          "type": "address"
        },
        {
          "indexed": true,
          "internalType": "address",
          "name": "newOwner",
          "type": "address"
        }
      ],
      "name": "OwnershipTransferred",
      "type": "event"
    },
    {
      "anonymous": false,
      "inputs": [
        {
          "indexed": false,
          "internalType": "address",
          "name": "account",
          "type": "address"
        }
      ],
      "name": "Paused",
      "type": "event"
    },
    {
      "anonymous": false,
      "inputs": [
        {
          "indexed": false,
          "internalType": "uint256",
          "name": "poolId",
          "type": "uint256"
        },
        {
          "indexed": false,
          "internalType": "uint256",
          "name": "accRewardPerSecond",
          "type": "uint256"
        }
      ],
      "name": "PoolUpdated",
      "type": "event"
    },
    {
      "anonymous": false,
      "inputs": [
        {
          "indexed": false,
          "internalType": "uint256",
          "name": "poolId",
          "type": "uint256"
        },
        {
          "indexed": false,
          "internalType": "uint256",
          "name": "rewardPerSecond",
          "type": "uint256"
        }
      ],
      "name": "RewardSpeedSet",
      "type": "event"
    },
    {
      "anonymous": false,
      "inputs": [
        {
          "indexed": false,
          "internalType": "uint256",
          "name": "oldRoundTime",
          "type": "uint256"
        },
        {
          "indexed": false,
          "internalType": "uint256",
          "name": "newRoundTime",
          "type": "uint256"
        }
      ],
      "name": "RoundTimeChanged",
      "type": "event"
    },
    {
      "anonymous": false,
      "inputs": [
        {
          "indexed": false,
          "internalType": "address",
          "name": "account",
          "type": "address"
        }
      ],
      "name": "Unpaused",
      "type": "event"
    },
    {
      "anonymous": false,
      "inputs": [
        {
          "indexed": false,
          "internalType": "address",
          "name": "user",
          "type": "address"
        },
        {
          "indexed": false,
          "internalType": "uint256",
          "name": "poolId",
          "type": "uint256"
        },
        {
          "indexed": false,
          "internalType": "uint256",
          "name": "amount",
          "type": "uint256"
        }
      ],
      "name": "Withdraw",
      "type": "event"
    },
    {
      "inputs": [],
      "name": "SCALE",
      "outputs": [
        {
          "internalType": "uint256",
          "name": "",
          "type": "uint256"
        }
      ],
      "stateMutability": "view",
      "type": "function"
    },
    {
      "inputs": [
        {
          "internalType": "uint256",
          "name": "_poolId",
          "type": "uint256"
        },
        {
          "internalType": "uint256",
          "name": "_amount",
          "type": "uint256"
        }
      ],
      "name": "deposit",
      "outputs": [],
      "stateMutability": "nonpayable",
      "type": "function"
    },
    {
      "inputs": [
        {
          "internalType": "uint256",
          "name": "_poolId",
          "type": "uint256"
        },
        {
          "internalType": "address",
          "name": "_to",
          "type": "address"
        }
      ],
      "name": "harvest",
      "outputs": [],
      "stateMutability": "nonpayable",
      "type": "function"
    },
    {
      "inputs": [
        {
          "internalType": "address",
          "name": "_veDEG",
          "type": "address"
        }
      ],
      "name": "initialize",
      "outputs": [],
      "stateMutability": "nonpayable",
      "type": "function"
    },
    {
      "inputs": [],
      "name": "nextPool",
      "outputs": [
        {
          "internalType": "uint256",
          "name": "",
          "type": "uint256"
        }
      ],
      "stateMutability": "view",
      "type": "function"
    },
    {
      "inputs": [],
      "name": "owner",
      "outputs": [
        {
          "internalType": "address",
          "name": "",
          "type": "address"
        }
      ],
      "stateMutability": "view",
      "type": "function"
    },
    {
      "inputs": [],
      "name": "paused",
      "outputs": [
        {
          "internalType": "bool",
          "name": "",
          "type": "bool"
        }
      ],
      "stateMutability": "view",
      "type": "function"
    },
    {
      "inputs": [
        {
          "internalType": "uint256",
          "name": "_poolId",
          "type": "uint256"
        },
        {
          "internalType": "address",
          "name": "_user",
          "type": "address"
        }
      ],
      "name": "pendingReward",
      "outputs": [
        {
          "internalType": "uint256",
          "name": "",
          "type": "uint256"
        }
      ],
      "stateMutability": "view",
      "type": "function"
    },
    {
      "inputs": [
        {
          "internalType": "uint256",
          "name": "",
          "type": "uint256"
        }
      ],
      "name": "pools",
      "outputs": [
        {
          "internalType": "bool",
          "name": "available",
          "type": "bool"
        },
        {
          "internalType": "address",
          "name": "rewardToken",
          "type": "address"
        },
        {
          "internalType": "uint256",
          "name": "totalAmount",
          "type": "uint256"
        },
        {
          "internalType": "uint256",
          "name": "rewardPerSecond",
          "type": "uint256"
        },
        {
          "internalType": "uint256",
          "name": "accRewardPerShare",
          "type": "uint256"
        },
        {
          "internalType": "uint256",
          "name": "lastRewardTimestamp",
          "type": "uint256"
        }
      ],
      "stateMutability": "view",
      "type": "function"
    },
    {
      "inputs": [],
      "name": "renounceOwnership",
      "outputs": [],
      "stateMutability": "nonpayable",
      "type": "function"
    },
    {
      "inputs": [],
      "name": "roundTime",
      "outputs": [
        {
          "internalType": "uint256",
          "name": "",
          "type": "uint256"
        }
      ],
      "stateMutability": "view",
      "type": "function"
    },
    {
      "inputs": [
        {
          "internalType": "uint256",
          "name": "_poolId",
          "type": "uint256"
        },
        {
          "internalType": "uint256",
          "name": "_rewardPerSecond",
          "type": "uint256"
        }
      ],
      "name": "setRewardSpeed",
      "outputs": [],
      "stateMutability": "nonpayable",
      "type": "function"
    },
    {
      "inputs": [
        {
          "internalType": "uint256",
          "name": "_roundTime",
          "type": "uint256"
        }
      ],
      "name": "setRoundTime",
      "outputs": [],
      "stateMutability": "nonpayable",
      "type": "function"
    },
    {
      "inputs": [
        {
          "internalType": "address",
          "name": "_rewardToken",
          "type": "address"
        }
      ],
      "name": "startPool",
      "outputs": [],
      "stateMutability": "nonpayable",
      "type": "function"
    },
    {
      "inputs": [
        {
          "internalType": "address",
          "name": "newOwner",
          "type": "address"
        }
      ],
      "name": "transferOwnership",
      "outputs": [],
      "stateMutability": "nonpayable",
      "type": "function"
    },
    {
      "inputs": [
        {
          "internalType": "uint256",
          "name": "_poolId",
          "type": "uint256"
        }
      ],
      "name": "updatePool",
      "outputs": [],
      "stateMutability": "nonpayable",
      "type": "function"
    },
    {
      "inputs": [
        {
          "internalType": "uint256",
          "name": "",
          "type": "uint256"
        },
        {
          "internalType": "address",
          "name": "",
          "type": "address"
        }
      ],
      "name": "users",
      "outputs": [
        {
          "internalType": "uint256",
          "name": "totalAmount",
          "type": "uint256"
        },
        {
          "internalType": "uint256",
          "name": "rewardDebt",
          "type": "uint256"
        }
      ],
      "stateMutability": "view",
      "type": "function"
    },
    {
      "inputs": [],
      "name": "veDEG",
      "outputs": [
        {
          "internalType": "contract IVeDEG",
          "name": "",
          "type": "address"
        }
      ],
      "stateMutability": "view",
      "type": "function"
    },
    {
      "inputs": [
        {
          "internalType": "uint256",
          "name": "_poolId",
          "type": "uint256"
        },
        {
          "internalType": "uint256",
          "name": "_amount",
          "type": "uint256"
        }
      ],
      "name": "withdraw",
      "outputs": [],
      "stateMutability": "nonpayable",
      "type": "function"
    },
    {
      "inputs": [
        {
          "internalType": "uint256",
          "name": "_poolId",
          "type": "uint256"
        }
      ],
      "name": "withdrawAll",
      "outputs": [],
      "stateMutability": "nonpayable",
      "type": "function"
    }
  ],
  "transactionHash": "0x6575ae9c6e62e6f9dd064c430dc52332d26ece8978ab96693a89261219c32a1b",
  "args": [],
  "numDeployments": 3,
  "solcInputHash": "2a2ee303f2b4d7afa0577a8b5adc9892",
  "bytecode": "0x608060405234801561001057600080fd5b50611d50806100206000396000f3fe608060405234801561001057600080fd5b506004361061016c5760003560e01c806398969e82116100cd578063e2bbb15811610081578063ee5f8c8f11610066578063ee5f8c8f14610343578063f2fde38b1461034c578063fa65cb041461035f57600080fd5b8063e2bbb1581461031c578063eced55261461032f57600080fd5b8063b9d02df4116100b2578063b9d02df4146102b6578063c4d66de8146102f6578063d03a7d251461030957600080fd5b806398969e8214610245578063ac4afa381461025857600080fd5b80635c975abb11610124578063715018a611610109578063715018a6146102115780638da5cb5b14610219578063958e2d311461023257600080fd5b80635c975abb146101eb5780635e3df141146101fe57600080fd5b8063441a3e7011610155578063441a3e70146101a55780634f3e7ba6146101b857806351eb05a6146101d857600080fd5b806318fccc7614610171578063243d658514610186575b600080fd5b61018461017f366004611685565b610372565b005b61018f60cd5481565b60405161019c91906116ca565b60405180910390f35b6101846101b33660046116d8565b610508565b60ca546101cb906001600160a01b031681565b60405161019c919061172a565b6101846101e6366004611738565b610748565b60655460ff1660405161019c9190611761565b61018461020c36600461176f565b6108c2565b61018461099e565b6033546001600160a01b031660405161019c9190611799565b610184610240366004611738565b6109d4565b61018f610253366004611685565b6109fc565b6102a4610266366004611738565b60cb602052600090815260409020805460018201546002830154600384015460049094015460ff8416946101009094046001600160a01b0316939086565b60405161019c969594939291906117a7565b6102e86102c4366004611685565b60cc6020908152600092835260408084209091529082529020805460019091015482565b60405161019c9291906117f6565b61018461030436600461176f565b610c04565b6101846103173660046116d8565b610cbc565b61018461032a3660046116d8565b610e1d565b61018f6c0c9f2c9cd04674edea4000000081565b61018f60c95481565b61018461035a36600461176f565b611133565b61018461036d366004611738565b61118c565b60026097540361039d5760405162461bcd60e51b815260040161039490611845565b60405180910390fd5b600260975560655460ff16156103c55760405162461bcd60e51b815260040161039490611887565b6103ce82610748565b600082815260cb60209081526040808320815160c081018352815460ff81161515825261010090046001600160a01b031681850152600180830154828501526002830154606083015260038301546080830190815260049093015460a083015287865260cc855283862033875290945291842092830154905183549294926c0c9f2c9cd04674edea4000000091610464916118ad565b61046e91906118e2565b61047891906118f6565b90506c0c9f2c9cd04674edea400000008360800151836000015461049c91906118ad565b6104a691906118e2565b600183015560208301516000906104be9086846111f6565b90507f71bab65ced2e5750775a0613be067df48ef06cf92a496ebf7663ae06609249543387836040516104f39392919061190d565b60405180910390a15050600160975550505050565b60026097540361052a5760405162461bcd60e51b815260040161039490611845565b6002609755600081900361055157604051631ec840e160e01b815260040160405180910390fd5b600082815260cb6020908152604080832060cc835281842033855290925290912080548311156105945760405163445d638d60e01b815260040160405180910390fd5b61059d84610748565b600081600101546c0c9f2c9cd04674edea40000000836000015485600301546105c691906118ad565b6105d091906118e2565b6105da91906118f6565b83549091506000906105fb9061010090046001600160a01b031633846111f6565b90507f71bab65ced2e5750775a0613be067df48ef06cf92a496ebf7663ae06609249543387836040516106309392919061190d565b60405180910390a18484600101600082825461064c91906118f6565b90915550508254859084906000906106659084906118f6565b9091555050600384015483546c0c9f2c9cd04674edea4000000091610689916118ad565b61069391906118e2565b600184015560ca546040517f97b85b6a0000000000000000000000000000000000000000000000000000000081526001600160a01b03909116906397b85b6a906106e39033908990600401611935565b600060405180830381600087803b1580156106fd57600080fd5b505af1158015610711573d6000803e3d6000fd5b505050507ff279e6a1f5e320cca91135676d9cb6e44ca8a08c0b88342bcdb1144f6511b5683387876040516104f39392919061190d565b600081815260cb6020526040902060048101544211610765575050565b6001810154600282015481158061077a575080155b1561078b5750504260049091015550565b600083600401544261079d91906118f6565b905060006107ab83836118ad565b85546040516370a0823160e01b81529192506000916101009091046001600160a01b0316906370a08231906107e4903090600401611799565b602060405180830381865afa158015610801573d6000803e3d6000fd5b505050506040513d601f19601f82011682018060405250810190610825919061194e565b905060008183116108365782610838565b815b9050856108526c0c9f2c9cd04674edea40000000836118ad565b61085c91906118e2565b87600301600082825461086f919061196f565b909155505042600488015560038701546040517f7fa9647ec1cc14e3822b46d05a2b9d4e019bde8875c0088c46b6503d71bf1722916108b0918b91906117f6565b60405180910390a15050505050505050565b6033546001600160a01b031633146108ec5760405162461bcd60e51b8152600401610394906119b7565b60cd805460009160cb91839182610902836119c7565b9091555081526020810191909152604001600020805460017fffffffffffffffffffffff0000000000000000000000000000000000000000009091166101006001600160a01b03861602178117825560cd549192507fc152e0e959f429700442d55214616143637a2b01940082fcaaba253ab85c17b99161098391906118f6565b836040516109929291906119e0565b60405180910390a15050565b6033546001600160a01b031633146109c85760405162461bcd60e51b8152600401610394906119b7565b6109d260006112ab565b565b600081815260cc602090815260408083203384529091529020546109f9908290610508565b50565b600082815260cb60209081526040808320815160c081018352815460ff81161515825261010090046001600160a01b03169381019390935260018101549183019190915260028101546060830152600381015460808301526004015460a082018190521580610a6e57508060a0015142105b15610a7d576000915050610bfe565b60808101516040820151600003610a9957600092505050610bfe565b600085815260cc602090815260408083206001600160a01b03881684528252808320815180830190925280548252600101549181019190915260a0840151909190610ae490426118f6565b90506000846060015182610af891906118ad565b9050600085602001516001600160a01b03166370a08231306040518263ffffffff1660e01b8152600401610b2c9190611799565b602060405180830381865afa158015610b49573d6000803e3d6000fd5b505050506040513d601f19601f82011682018060405250810190610b6d919061194e565b90506000818311610b7e5782610b80565b815b6040880151909150610b9f6c0c9f2c9cd04674edea40000000836118ad565b610ba991906118e2565b610bb3908761196f565b9550600085602001516c0c9f2c9cd04674edea40000000888860000151610bda91906118ad565b610be491906118e2565b610bee91906118f6565b9850610bfe975050505050505050565b92915050565b600054610100900460ff16610c1f5760005460ff1615610c23565b303b155b610c3f5760405162461bcd60e51b815260040161039490611a55565b600054610100900460ff16158015610c61576000805461ffff19166101011790555b610c6961130a565b610c71611339565b610c79611368565b60ca805473ffffffffffffffffffffffffffffffffffffffff19166001600160a01b038416179055600160cd558015610cb8576000805461ff00191690555b5050565b610cc582610748565b600082815260cb6020908152604091829020825160c081018452815460ff81161515825261010090046001600160a01b0316928101839052600182015481850152600282015460608201526003820154608082015260049182015460a082015292516370a0823160e01b81526370a0823191610d4391309101611799565b602060405180830381865afa158015610d60573d6000803e3d6000fd5b505050506040513d601f19601f82011682018060405250810190610d84919061194e565b8260c954610d9291906118ad565b1115610dca576040517f58a110e800000000000000000000000000000000000000000000000000000000815260040160405180910390fd5b600083815260cb602052604090819020600201839055517f01daaf9017881672e5509b604c12ed0f4eab658d04c732febc698b8ed42397e390610e1090859085906117f6565b60405180910390a1505050565b600260975403610e3f5760405162461bcd60e51b815260040161039490611845565b6002609755600082815260cb602052604090205460ff16610e8c576040517f4aa48a8100000000000000000000000000000000000000000000000000000000815260040160405180910390fd5b80600003610ead57604051631ec840e160e01b815260040160405180910390fd5b60ca546040516370a0823160e01b815282916001600160a01b0316906370a0823190610edd903390600401611799565b602060405180830381865afa158015610efa573d6000803e3d6000fd5b505050506040513d601f19601f82011682018060405250810190610f1e919061194e565b1015610f3d5760405163445d638d60e01b815260040160405180910390fd5b610f4682610748565b60ca546040517f78ad54c20000000000000000000000000000000000000000000000000000000081526001600160a01b03909116906378ad54c290610f919033908590600401611935565b600060405180830381600087803b158015610fab57600080fd5b505af1158015610fbf573d6000803e3d6000fd5b505050600083815260cb6020908152604080832060cc83528184203385529092529091208054919250901561108c57600081600101546c0c9f2c9cd04674edea400000008360000154856003015461101791906118ad565b61102191906118e2565b61102b91906118f6565b835490915060009061104c9061010090046001600160a01b031633846111f6565b90507f71bab65ced2e5750775a0613be067df48ef06cf92a496ebf7663ae06609249543387836040516110819392919061190d565b60405180910390a150505b828260010160008282546110a0919061196f565b90915550508054839082906000906110b990849061196f565b9091555050805460038301546c0c9f2c9cd04674edea40000000916110dd916118ad565b6110e791906118e2565b60018201556040517f90890809c654f11d6e72a28fa60149770a0d11ec6c92319d6ceb2bb0a4ea1a15906111209033908790879061190d565b60405180910390a1505060016097555050565b6033546001600160a01b0316331461115d5760405162461bcd60e51b8152600401610394906119b7565b6001600160a01b0381166111835760405162461bcd60e51b815260040161039490611abd565b6109f9816112ab565b6033546001600160a01b031633146111b65760405162461bcd60e51b8152600401610394906119b7565b7f0591d85ff40c6aa3ea8d23e0b0e8224ffef96db2722859b2752cfed2e8ae004d60c954826040516111e99291906117f6565b60405180910390a160c955565b600080846001600160a01b03166370a08231306040518263ffffffff1660e01b81526004016112259190611799565b602060405180830381865afa158015611242573d6000803e3d6000fd5b505050506040513d601f19601f82011682018060405250810190611266919061194e565b90508083111561128b576112846001600160a01b0386168583611397565b90506112a4565b61129f6001600160a01b0386168585611397565b829150505b9392505050565b603380546001600160a01b0383811673ffffffffffffffffffffffffffffffffffffffff19831681179093556040519116919082907f8be0079c531659141344cd1fd0a4f28419497f9722a3daafe3b4186f6b6457e090600090a35050565b600054610100900460ff166113315760405162461bcd60e51b815260040161039490611b25565b6109d261141f565b600054610100900460ff166113605760405162461bcd60e51b815260040161039490611b25565b6109d261144f565b600054610100900460ff1661138f5760405162461bcd60e51b815260040161039490611b25565b6109d2611482565b61141a8363a9059cbb60e01b84846040516024016113b6929190611935565b60408051601f198184030181529190526020810180517bffffffffffffffffffffffffffffffffffffffffffffffffffffffff167fffffffff00000000000000000000000000000000000000000000000000000000909316929092179091526114b0565b505050565b600054610100900460ff166114465760405162461bcd60e51b815260040161039490611b25565b6109d2336112ab565b600054610100900460ff166114765760405162461bcd60e51b815260040161039490611b25565b6065805460ff19169055565b600054610100900460ff166114a95760405162461bcd60e51b815260040161039490611b25565b6001609755565b6000611505826040518060400160405280602081526020017f5361666545524332303a206c6f772d6c6576656c2063616c6c206661696c6564815250856001600160a01b031661153f9092919063ffffffff16565b80519091501561141a57808060200190518101906115239190611b48565b61141a5760405162461bcd60e51b815260040161039490611bc1565b606061154e8484600085611556565b949350505050565b6060824710156115785760405162461bcd60e51b815260040161039490611c29565b843b6115965760405162461bcd60e51b815260040161039490611c6b565b600080866001600160a01b031685876040516115b29190611ccd565b60006040518083038185875af1925050503d80600081146115ef576040519150601f19603f3d011682016040523d82523d6000602084013e6115f4565b606091505b509150915061160482828661160f565b979650505050505050565b6060831561161e5750816112a4565b82511561162e5782518084602001fd5b8160405162461bcd60e51b81526004016103949190611d09565b805b81146109f957600080fd5b8035610bfe81611648565b60006001600160a01b038216610bfe565b61164a81611660565b8035610bfe81611671565b6000806040838503121561169b5761169b600080fd5b60006116a78585611655565b92505060206116b88582860161167a565b9150509250929050565b805b82525050565b60208101610bfe82846116c2565b600080604083850312156116ee576116ee600080fd5b60006116fa8585611655565b92505060206116b885828601611655565b6000610bfe82611660565b6000610bfe8261170b565b6116c481611716565b60208101610bfe8284611721565b60006020828403121561174d5761174d600080fd5b600061154e8484611655565b8015156116c4565b60208101610bfe8284611759565b60006020828403121561178457611784600080fd5b600061154e848461167a565b6116c481611660565b60208101610bfe8284611790565b60c081016117b58289611759565b6117c26020830188611790565b6117cf60408301876116c2565b6117dc60608301866116c2565b6117e960808301856116c2565b61160460a08301846116c2565b6040810161180482856116c2565b6112a460208301846116c2565b601f8152602081017f5265656e7472616e637947756172643a207265656e7472616e742063616c6c00815290505b60200190565b60208082528101610bfe81611811565b60108152602081017f5061757361626c653a20706175736564000000000000000000000000000000008152905061183f565b60208082528101610bfe81611855565b634e487b7160e01b600052601160045260246000fd5b60008160001904831182151516156118c7576118c7611897565b500290565b634e487b7160e01b600052601260045260246000fd5b6000826118f1576118f16118cc565b500490565b60008282101561190857611908611897565b500390565b6060810161191b8286611790565b61192860208301856116c2565b61154e60408301846116c2565b604081016118048285611790565b8051610bfe81611648565b60006020828403121561196357611963600080fd5b600061154e8484611943565b6000821982111561198257611982611897565b500190565b60208082527f4f776e61626c653a2063616c6c6572206973206e6f7420746865206f776e6572910190815261183f565b60208082528101610bfe81611987565b6000600182016119d9576119d9611897565b5060010190565b604081016119ee82856116c2565b6112a46020830184611790565b602e8152602081017f496e697469616c697a61626c653a20636f6e747261637420697320616c72656181527f647920696e697469616c697a6564000000000000000000000000000000000000602082015290505b60400190565b60208082528101610bfe816119fb565b60268152602081017f4f776e61626c653a206e6577206f776e657220697320746865207a65726f206181527f646472657373000000000000000000000000000000000000000000000000000060208201529050611a4f565b60208082528101610bfe81611a65565b602b8152602081017f496e697469616c697a61626c653a20636f6e7472616374206973206e6f74206981527f6e697469616c697a696e6700000000000000000000000000000000000000000060208201529050611a4f565b60208082528101610bfe81611acd565b80151561164a565b8051610bfe81611b35565b600060208284031215611b5d57611b5d600080fd5b600061154e8484611b3d565b602a8152602081017f5361666545524332303a204552433230206f7065726174696f6e20646964206e81527f6f7420737563636565640000000000000000000000000000000000000000000060208201529050611a4f565b60208082528101610bfe81611b69565b60268152602081017f416464726573733a20696e73756666696369656e742062616c616e636520666f81527f722063616c6c000000000000000000000000000000000000000000000000000060208201529050611a4f565b60208082528101610bfe81611bd1565b601d8152602081017f416464726573733a2063616c6c20746f206e6f6e2d636f6e74726163740000008152905061183f565b60208082528101610bfe81611c39565b60005b83811015611c96578181015183820152602001611c7e565b83811115611ca5576000848401525b50505050565b6000611cb5825190565b611cc3818560208601611c7b565b9290920192915050565b610bfe8183611cab565b6000611ce1825190565b808452602084019350611cf8818560208601611c7b565b601f01601f19169290920192915050565b602080825281016112a48184611cd756fea264697066735822122015fb9eeccdd5caa8c6a9a5419cabb2630467b05774685583a44d14b04155649d64736f6c634300080d0033",
  "devdoc": {
    "kind": "dev",
    "methods": {
      "deposit(uint256,uint256)": {
        "params": {
          "_amount": "Amount of tokens to deposit",
          "_poolId": "Pool Id"
        }
      },
      "harvest(uint256,address)": {
        "params": {
          "_poolId": "Pool Id",
          "_to": "Reward receiver address"
        }
      },
      "owner()": {
        "details": "Returns the address of the current owner."
      },
      "paused()": {
        "details": "Returns true if the contract is paused, and false otherwise."
      },
      "pendingReward(uint256,address)": {
        "params": {
          "_poolId": "Pool Id",
          "_user": "User address"
        },
        "returns": {
          "_0": "pendingReward Amount of pending reward"
        }
      },
      "renounceOwnership()": {
        "details": "Leaves the contract without owner. It will not be possible to call `onlyOwner` functions anymore. Can only be called by the current owner. NOTE: Renouncing ownership will leave the contract without an owner, thereby removing any functionality that is only available to the owner."
      },
      "setRewardSpeed(uint256,uint256)": {
        "params": {
          "_poolId": "Pool id",
          "_rewardPerSecond": "Reward speed"
        }
      },
      "setRoundTime(uint256)": {
        "details": "Round time is only used for checking reward speed",
        "params": {
          "_roundTime": "Round time in seconds"
        }
      },
      "startPool(address)": {
        "details": "Normally there will be two pools          - USDC.e as reward (1)          - Shield as reward (2)",
        "params": {
          "_rewardToken": "Reward token address"
        }
      },
      "transferOwnership(address)": {
        "details": "Transfers ownership of the contract to a new account (`newOwner`). Can only be called by the current owner."
      },
      "updatePool(uint256)": {
        "params": {
          "_poolId": "Pool id"
        }
      },
      "withdraw(uint256,uint256)": {
        "params": {
          "_amount": "Amount to withdraw",
          "_poolId": "Pool Id"
        }
      },
      "withdrawAll(uint256)": {
        "params": {
          "_poolId": "Pool Id"
        }
      }
    },
    "title": "Degis Income Sharing Contract",
    "version": 1
  },
  "userdoc": {
    "kind": "user",
    "methods": {
      "deposit(uint256,uint256)": {
        "notice": "Deposit"
      },
      "harvest(uint256,address)": {
        "notice": "Harvest income reward"
      },
      "pendingReward(uint256,address)": {
        "notice": "Pending reward"
      },
      "setRewardSpeed(uint256,uint256)": {
        "notice": "Set reward speed for a pool"
      },
      "setRoundTime(uint256)": {
        "notice": "Set round time"
      },
      "startPool(address)": {
        "notice": "Start a new income sharing pool"
      },
      "updatePool(uint256)": {
        "notice": "Update pool"
      },
      "withdraw(uint256,uint256)": {
        "notice": "Withdraw the reward from the pool"
      },
      "withdrawAll(uint256)": {
        "notice": "Withdraw all veDEG"
      }
    },
    "notice": "This contract will receive part of the income from Degis products         And the income will be shared by DEG holders (in the form of veDEG)         It is designed to be an ever-lasting reward         At first the reward is USDC.e and later may be transferred to Shield         To enter the income sharing vault, you need to lock some veDEG             - When your veDEG is locked, it can not be withdrawed         The reward is distributed per second like a farming pool         The income will come from (to be updated)             - IncomeMaker: Collect swap fee in naughty price pool             - PolicyCore: Collect deposit/redeem fee in policy core",
    "version": 1
  },
  "storageLayout": {
    "storage": [
      {
        "astId": 2523,
        "contract": "contracts/income/IncomeSharingVault.sol:IncomeSharingVault",
        "label": "_initialized",
        "offset": 0,
        "slot": "0",
        "type": "t_bool"
      },
      {
        "astId": 2526,
        "contract": "contracts/income/IncomeSharingVault.sol:IncomeSharingVault",
        "label": "_initializing",
        "offset": 1,
        "slot": "0",
        "type": "t_bool"
      },
      {
        "astId": 3760,
        "contract": "contracts/income/IncomeSharingVault.sol:IncomeSharingVault",
        "label": "__gap",
        "offset": 0,
        "slot": "1",
        "type": "t_array(t_uint256)50_storage"
      },
      {
        "astId": 2403,
        "contract": "contracts/income/IncomeSharingVault.sol:IncomeSharingVault",
        "label": "_owner",
        "offset": 0,
        "slot": "51",
        "type": "t_address"
      },
      {
        "astId": 2515,
        "contract": "contracts/income/IncomeSharingVault.sol:IncomeSharingVault",
        "label": "__gap",
        "offset": 0,
        "slot": "52",
        "type": "t_array(t_uint256)49_storage"
      },
      {
        "astId": 2611,
        "contract": "contracts/income/IncomeSharingVault.sol:IncomeSharingVault",
        "label": "_paused",
        "offset": 0,
        "slot": "101",
        "type": "t_bool"
      },
      {
        "astId": 2700,
        "contract": "contracts/income/IncomeSharingVault.sol:IncomeSharingVault",
        "label": "__gap",
        "offset": 0,
        "slot": "102",
        "type": "t_array(t_uint256)49_storage"
      },
      {
        "astId": 2715,
        "contract": "contracts/income/IncomeSharingVault.sol:IncomeSharingVault",
        "label": "_status",
        "offset": 0,
        "slot": "151",
        "type": "t_uint256"
      },
      {
        "astId": 2759,
        "contract": "contracts/income/IncomeSharingVault.sol:IncomeSharingVault",
        "label": "__gap",
        "offset": 0,
        "slot": "152",
        "type": "t_array(t_uint256)49_storage"
      },
      {
        "astId": 17610,
        "contract": "contracts/income/IncomeSharingVault.sol:IncomeSharingVault",
        "label": "roundTime",
        "offset": 0,
        "slot": "201",
        "type": "t_uint256"
      },
      {
        "astId": 17613,
        "contract": "contracts/income/IncomeSharingVault.sol:IncomeSharingVault",
        "label": "veDEG",
        "offset": 0,
        "slot": "202",
        "type": "t_contract(IVeDEG)17247"
      },
      {
        "astId": 17631,
        "contract": "contracts/income/IncomeSharingVault.sol:IncomeSharingVault",
        "label": "pools",
        "offset": 0,
        "slot": "203",
        "type": "t_mapping(t_uint256,t_struct(PoolInfo)17626_storage)"
      },
      {
        "astId": 17643,
        "contract": "contracts/income/IncomeSharingVault.sol:IncomeSharingVault",
        "label": "users",
        "offset": 0,
        "slot": "204",
        "type": "t_mapping(t_uint256,t_mapping(t_address,t_struct(UserInfo)17636_storage))"
      },
      {
        "astId": 17645,
        "contract": "contracts/income/IncomeSharingVault.sol:IncomeSharingVault",
        "label": "nextPool",
        "offset": 0,
        "slot": "205",
        "type": "t_uint256"
      }
    ],
    "types": {
      "t_address": {
        "encoding": "inplace",
        "label": "address",
        "numberOfBytes": "20"
      },
      "t_array(t_uint256)49_storage": {
        "base": "t_uint256",
        "encoding": "inplace",
        "label": "uint256[49]",
        "numberOfBytes": "1568"
      },
      "t_array(t_uint256)50_storage": {
        "base": "t_uint256",
        "encoding": "inplace",
        "label": "uint256[50]",
        "numberOfBytes": "1600"
      },
      "t_bool": {
        "encoding": "inplace",
        "label": "bool",
        "numberOfBytes": "1"
      },
      "t_contract(IVeDEG)17247": {
        "encoding": "inplace",
        "label": "contract IVeDEG",
        "numberOfBytes": "20"
      },
      "t_mapping(t_address,t_struct(UserInfo)17636_storage)": {
        "encoding": "mapping",
        "key": "t_address",
        "label": "mapping(address => struct IncomeSharingVault.UserInfo)",
        "numberOfBytes": "32",
        "value": "t_struct(UserInfo)17636_storage"
      },
      "t_mapping(t_uint256,t_mapping(t_address,t_struct(UserInfo)17636_storage))": {
        "encoding": "mapping",
        "key": "t_uint256",
        "label": "mapping(uint256 => mapping(address => struct IncomeSharingVault.UserInfo))",
        "numberOfBytes": "32",
        "value": "t_mapping(t_address,t_struct(UserInfo)17636_storage)"
      },
      "t_mapping(t_uint256,t_struct(PoolInfo)17626_storage)": {
        "encoding": "mapping",
        "key": "t_uint256",
        "label": "mapping(uint256 => struct IncomeSharingVault.PoolInfo)",
        "numberOfBytes": "32",
        "value": "t_struct(PoolInfo)17626_storage"
      },
      "t_struct(PoolInfo)17626_storage": {
        "encoding": "inplace",
        "label": "struct IncomeSharingVault.PoolInfo",
        "members": [
          {
            "astId": 17615,
            "contract": "contracts/income/IncomeSharingVault.sol:IncomeSharingVault",
            "label": "available",
            "offset": 0,
            "slot": "0",
            "type": "t_bool"
          },
          {
            "astId": 17617,
            "contract": "contracts/income/IncomeSharingVault.sol:IncomeSharingVault",
            "label": "rewardToken",
            "offset": 1,
            "slot": "0",
            "type": "t_address"
          },
          {
            "astId": 17619,
            "contract": "contracts/income/IncomeSharingVault.sol:IncomeSharingVault",
            "label": "totalAmount",
            "offset": 0,
            "slot": "1",
            "type": "t_uint256"
          },
          {
            "astId": 17621,
            "contract": "contracts/income/IncomeSharingVault.sol:IncomeSharingVault",
            "label": "rewardPerSecond",
            "offset": 0,
            "slot": "2",
            "type": "t_uint256"
          },
          {
            "astId": 17623,
            "contract": "contracts/income/IncomeSharingVault.sol:IncomeSharingVault",
            "label": "accRewardPerShare",
            "offset": 0,
            "slot": "3",
            "type": "t_uint256"
          },
          {
            "astId": 17625,
            "contract": "contracts/income/IncomeSharingVault.sol:IncomeSharingVault",
            "label": "lastRewardTimestamp",
            "offset": 0,
            "slot": "4",
            "type": "t_uint256"
          }
        ],
        "numberOfBytes": "160"
      },
      "t_struct(UserInfo)17636_storage": {
        "encoding": "inplace",
        "label": "struct IncomeSharingVault.UserInfo",
        "members": [
          {
            "astId": 17633,
            "contract": "contracts/income/IncomeSharingVault.sol:IncomeSharingVault",
            "label": "totalAmount",
            "offset": 0,
            "slot": "0",
            "type": "t_uint256"
          },
          {
            "astId": 17635,
            "contract": "contracts/income/IncomeSharingVault.sol:IncomeSharingVault",
            "label": "rewardDebt",
            "offset": 0,
            "slot": "1",
            "type": "t_uint256"
          }
        ],
        "numberOfBytes": "64"
      },
      "t_uint256": {
        "encoding": "inplace",
        "label": "uint256",
        "numberOfBytes": "32"
      }
    }
  }
}