{
  "address": "0x80F0a0391Be08D131147Db1c66f165048045b0cc",
  "abi": [
    {
      "inputs": [],
      "name": "DIS__NotEnoughVeDEG",
      "type": "error"
    },
    {
      "inputs": [],
      "name": "DIS__PoolNotAvailable",
      "type": "error"
    },
    {
      "inputs": [],
      "name": "DIS__WrongSpeed",
      "type": "error"
    },
    {
      "inputs": [],
      "name": "DIS__ZeroAmount",
      "type": "error"
    },
    {
      "anonymous": false,
      "inputs": [
        {
          "indexed": false,
          "internalType": "address",
          "name": "user",
          "type": "address"
        },
        {
          "indexed": false,
          "internalType": "uint256",
          "name": "poolId",
          "type": "uint256"
        },
        {
          "indexed": false,
          "internalType": "uint256",
          "name": "amount",
          "type": "uint256"
        }
      ],
      "name": "Deposit",
      "type": "event"
    },
    {
      "anonymous": false,
      "inputs": [
        {
          "indexed": false,
          "internalType": "address",
          "name": "user",
          "type": "address"
        },
        {
          "indexed": false,
          "internalType": "uint256",
          "name": "poolId",
          "type": "uint256"
        },
        {
          "indexed": false,
          "internalType": "uint256",
          "name": "amount",
          "type": "uint256"
        }
      ],
      "name": "Harvest",
      "type": "event"
    },
    {
      "anonymous": false,
      "inputs": [
        {
          "indexed": false,
          "internalType": "uint256",
          "name": "poolId",
          "type": "uint256"
        },
        {
          "indexed": false,
          "internalType": "address",
          "name": "rewardToken",
          "type": "address"
        }
      ],
      "name": "NewRewardPoolStart",
      "type": "event"
    },
    {
      "anonymous": false,
      "inputs": [
        {
          "indexed": true,
          "internalType": "address",
          "name": "previousOwner",
          "type": "address"
        },
        {
          "indexed": true,
          "internalType": "address",
          "name": "newOwner",
          "type": "address"
        }
      ],
      "name": "OwnershipTransferred",
      "type": "event"
    },
    {
      "anonymous": false,
      "inputs": [
        {
          "indexed": false,
          "internalType": "address",
          "name": "account",
          "type": "address"
        }
      ],
      "name": "Paused",
      "type": "event"
    },
    {
      "anonymous": false,
      "inputs": [
        {
          "indexed": false,
          "internalType": "uint256",
          "name": "poolId",
          "type": "uint256"
        },
        {
          "indexed": false,
          "internalType": "uint256",
          "name": "accRewardPerSecond",
          "type": "uint256"
        }
      ],
      "name": "PoolUpdated",
      "type": "event"
    },
    {
      "anonymous": false,
      "inputs": [
        {
          "indexed": false,
          "internalType": "uint256",
          "name": "poolId",
          "type": "uint256"
        },
        {
          "indexed": false,
          "internalType": "uint256",
          "name": "rewardPerSecond",
          "type": "uint256"
        }
      ],
      "name": "RewardSpeedSet",
      "type": "event"
    },
    {
      "anonymous": false,
      "inputs": [
        {
          "indexed": false,
          "internalType": "uint256",
          "name": "oldRoundTime",
          "type": "uint256"
        },
        {
          "indexed": false,
          "internalType": "uint256",
          "name": "newRoundTime",
          "type": "uint256"
        }
      ],
      "name": "RoundTimeChanged",
      "type": "event"
    },
    {
      "anonymous": false,
      "inputs": [
        {
          "indexed": false,
          "internalType": "address",
          "name": "account",
          "type": "address"
        }
      ],
      "name": "Unpaused",
      "type": "event"
    },
    {
      "anonymous": false,
      "inputs": [
        {
          "indexed": false,
          "internalType": "address",
          "name": "user",
          "type": "address"
        },
        {
          "indexed": false,
          "internalType": "uint256",
          "name": "poolId",
          "type": "uint256"
        },
        {
          "indexed": false,
          "internalType": "uint256",
          "name": "amount",
          "type": "uint256"
        }
      ],
      "name": "Withdraw",
      "type": "event"
    },
    {
      "inputs": [],
      "name": "SCALE",
      "outputs": [
        {
          "internalType": "uint256",
          "name": "",
          "type": "uint256"
        }
      ],
      "stateMutability": "view",
      "type": "function"
    },
    {
      "inputs": [
        {
          "internalType": "uint256",
          "name": "_poolId",
          "type": "uint256"
        },
        {
          "internalType": "uint256",
          "name": "_amount",
          "type": "uint256"
        }
      ],
      "name": "deposit",
      "outputs": [],
      "stateMutability": "nonpayable",
      "type": "function"
    },
    {
      "inputs": [
        {
          "internalType": "uint256",
          "name": "_poolId",
          "type": "uint256"
        },
        {
          "internalType": "address",
          "name": "_to",
          "type": "address"
        }
      ],
      "name": "harvest",
      "outputs": [],
      "stateMutability": "nonpayable",
      "type": "function"
    },
    {
      "inputs": [
        {
          "internalType": "address",
          "name": "_veDEG",
          "type": "address"
        }
      ],
      "name": "initialize",
      "outputs": [],
      "stateMutability": "nonpayable",
      "type": "function"
    },
    {
      "inputs": [
        {
          "internalType": "uint256",
          "name": "",
          "type": "uint256"
        }
      ],
      "name": "lastRewardBalance",
      "outputs": [
        {
          "internalType": "uint256",
          "name": "",
          "type": "uint256"
        }
      ],
      "stateMutability": "view",
      "type": "function"
    },
    {
      "inputs": [],
      "name": "nextPool",
      "outputs": [
        {
          "internalType": "uint256",
          "name": "",
          "type": "uint256"
        }
      ],
      "stateMutability": "view",
      "type": "function"
    },
    {
      "inputs": [],
      "name": "owner",
      "outputs": [
        {
          "internalType": "address",
          "name": "",
          "type": "address"
        }
      ],
      "stateMutability": "view",
      "type": "function"
    },
    {
      "inputs": [],
      "name": "paused",
      "outputs": [
        {
          "internalType": "bool",
          "name": "",
          "type": "bool"
        }
      ],
      "stateMutability": "view",
      "type": "function"
    },
    {
      "inputs": [
        {
          "internalType": "uint256",
          "name": "_poolId",
          "type": "uint256"
        },
        {
          "internalType": "address",
          "name": "_user",
          "type": "address"
        }
      ],
      "name": "pendingReward",
      "outputs": [
        {
          "internalType": "uint256",
          "name": "",
          "type": "uint256"
        }
      ],
      "stateMutability": "view",
      "type": "function"
    },
    {
      "inputs": [
        {
          "internalType": "uint256",
          "name": "",
          "type": "uint256"
        }
      ],
      "name": "pools",
      "outputs": [
        {
          "internalType": "bool",
          "name": "available",
          "type": "bool"
        },
        {
          "internalType": "address",
          "name": "rewardToken",
          "type": "address"
        },
        {
          "internalType": "uint256",
          "name": "totalAmount",
          "type": "uint256"
        },
        {
          "internalType": "uint256",
          "name": "rewardPerSecond",
          "type": "uint256"
        },
        {
          "internalType": "uint256",
          "name": "accRewardPerShare",
          "type": "uint256"
        },
        {
          "internalType": "uint256",
          "name": "lastRewardTimestamp",
          "type": "uint256"
        }
      ],
      "stateMutability": "view",
      "type": "function"
    },
    {
      "inputs": [],
      "name": "renounceOwnership",
      "outputs": [],
      "stateMutability": "nonpayable",
      "type": "function"
    },
    {
      "inputs": [],
      "name": "roundTime",
      "outputs": [
        {
          "internalType": "uint256",
          "name": "",
          "type": "uint256"
        }
      ],
      "stateMutability": "view",
      "type": "function"
    },
    {
      "inputs": [
        {
          "internalType": "uint256",
          "name": "_poolId",
          "type": "uint256"
        },
        {
          "internalType": "uint256",
          "name": "_rewardPerSecond",
          "type": "uint256"
        }
      ],
      "name": "setRewardSpeed",
      "outputs": [],
      "stateMutability": "nonpayable",
      "type": "function"
    },
    {
      "inputs": [
        {
          "internalType": "uint256",
          "name": "_roundTime",
          "type": "uint256"
        }
      ],
      "name": "setRoundTime",
      "outputs": [],
      "stateMutability": "nonpayable",
      "type": "function"
    },
    {
      "inputs": [
        {
          "internalType": "address",
          "name": "_rewardToken",
          "type": "address"
        }
      ],
      "name": "startPool",
      "outputs": [],
      "stateMutability": "nonpayable",
      "type": "function"
    },
    {
      "inputs": [
        {
          "internalType": "address",
          "name": "newOwner",
          "type": "address"
        }
      ],
      "name": "transferOwnership",
      "outputs": [],
      "stateMutability": "nonpayable",
      "type": "function"
    },
    {
      "inputs": [
        {
          "internalType": "uint256",
          "name": "_poolId",
          "type": "uint256"
        }
      ],
      "name": "updateLastRewardBalance",
      "outputs": [],
      "stateMutability": "nonpayable",
      "type": "function"
    },
    {
      "inputs": [
        {
          "internalType": "uint256",
          "name": "_poolId",
          "type": "uint256"
        }
      ],
      "name": "updatePool",
      "outputs": [],
      "stateMutability": "nonpayable",
      "type": "function"
    },
    {
      "inputs": [
        {
          "internalType": "uint256",
          "name": "",
          "type": "uint256"
        },
        {
          "internalType": "address",
          "name": "",
          "type": "address"
        }
      ],
      "name": "users",
      "outputs": [
        {
          "internalType": "uint256",
          "name": "totalAmount",
          "type": "uint256"
        },
        {
          "internalType": "uint256",
          "name": "rewardDebt",
          "type": "uint256"
        }
      ],
      "stateMutability": "view",
      "type": "function"
    },
    {
      "inputs": [],
      "name": "veDEG",
      "outputs": [
        {
          "internalType": "contract IVeDEG",
          "name": "",
          "type": "address"
        }
      ],
      "stateMutability": "view",
      "type": "function"
    },
    {
      "inputs": [
        {
          "internalType": "uint256",
          "name": "_poolId",
          "type": "uint256"
        },
        {
          "internalType": "uint256",
          "name": "_amount",
          "type": "uint256"
        }
      ],
      "name": "withdraw",
      "outputs": [],
      "stateMutability": "nonpayable",
      "type": "function"
    },
    {
      "inputs": [
        {
          "internalType": "uint256",
          "name": "_poolId",
          "type": "uint256"
        }
      ],
      "name": "withdrawAll",
      "outputs": [],
      "stateMutability": "nonpayable",
      "type": "function"
    }
  ],
  "transactionHash": "0xb0463cb15b274d0f84303f9a8f4bfbf6eeb2ca17bb8fe350e238cdda76a95485",
  "args": [],
  "numDeployments": 6,
  "solcInputHash": "5b2f60bccce989732395830178bd7933",
  "bytecode": "0x608060405234801561001057600080fd5b50611ec0806100206000396000f3fe608060405234801561001057600080fd5b50600436106101825760003560e01c8063958e2d31116100d8578063d03a7d251161008c578063ee5f8c8f11610066578063ee5f8c8f1461038c578063f2fde38b14610395578063fa65cb04146103a857600080fd5b8063d03a7d2514610352578063e2bbb15814610365578063eced55261461037857600080fd5b8063ac4afa38116100bd578063ac4afa38146102a1578063b9d02df4146102ff578063c4d66de81461033f57600080fd5b8063958e2d311461027b57806398969e821461028e57600080fd5b80634f3e7ba61161013a5780635e3df141116101145780635e3df14114610247578063715018a61461025a5780638da5cb5b1461026257600080fd5b80634f3e7ba61461020157806351eb05a6146102215780635c975abb1461023457600080fd5b8063394701471161016b57806339470147146101bb5780633c3b6a68146101db578063441a3e70146101ee57600080fd5b806318fccc7614610187578063243d65851461019c575b600080fd5b61019a6101953660046117f5565b6103bb565b005b6101a560cd5481565b6040516101b2919061183a565b60405180910390f35b6101a56101c9366004611848565b60ce6020526000908152604090205481565b61019a6101e9366004611848565b61057a565b61019a6101fc366004611869565b61063b565b60ca54610214906001600160a01b031681565b6040516101b291906118bb565b61019a61022f366004611848565b6108a4565b60655460ff166040516101b291906118d1565b61019a6102553660046118df565b610a1c565b61019a610af8565b6033546001600160a01b03166040516101b29190611909565b61019a610289366004611848565b610b2e565b6101a561029c3660046117f5565b610b56565b6102ed6102af366004611848565b60cb602052600090815260409020805460018201546002830154600384015460049094015460ff8416946101009094046001600160a01b0316939086565b6040516101b296959493929190611917565b61033161030d3660046117f5565b60cc6020908152600092835260408084209091529082529020805460019091015482565b6040516101b2929190611966565b61019a61034d3660046118df565b610d4b565b61019a610360366004611869565b610e03565b61019a610373366004611869565b610f64565b6101a56c0c9f2c9cd04674edea4000000081565b6101a560c95481565b61019a6103a33660046118df565b6112a3565b61019a6103b6366004611848565b6112fc565b6002609754036103e65760405162461bcd60e51b81526004016103dd906119b5565b60405180910390fd5b600260975560655460ff161561040e5760405162461bcd60e51b81526004016103dd906119f7565b610417826108a4565b600082815260cb60209081526040808320815160c081018352815460ff81161515825261010090046001600160a01b031681850152600180830154828501526002830154606083015260038301546080830190815260049093015460a083015287865260cc855283862033875290945291842092830154905183549294926c0c9f2c9cd04674edea40000000916104ad91611a1d565b6104b79190611a52565b6104c19190611a66565b90506c0c9f2c9cd04674edea40000000836080015183600001546104e59190611a1d565b6104ef9190611a52565b60018301556020830151600090610507908684611366565b90508060ce6000888152602001908152602001600020600082825461052c9190611a66565b90915550506040517f71bab65ced2e5750775a0613be067df48ef06cf92a496ebf7663ae06609249549061056590339089908590611a7d565b60405180910390a15050600160975550505050565b6033546001600160a01b031633146105a45760405162461bcd60e51b81526004016103dd90611ad5565b600081815260cb60205260408082205490516370a0823160e01b81526101009091046001600160a01b0316906370a08231906105e4903090600401611909565b602060405180830381865afa158015610601573d6000803e3d6000fd5b505050506040513d601f19601f820116820180604052508101906106259190611af0565b600092835260ce60205260409092209190915550565b60026097540361065d5760405162461bcd60e51b81526004016103dd906119b5565b6002609755600081900361068457604051631ec840e160e01b815260040160405180910390fd5b600082815260cb6020908152604080832060cc835281842033855290925290912080548311156106c75760405163445d638d60e01b815260040160405180910390fd5b6106d0846108a4565b600081600101546c0c9f2c9cd04674edea40000000836000015485600301546106f99190611a1d565b6107039190611a52565b61070d9190611a66565b835490915060009061072e9061010090046001600160a01b03163384611366565b90508060ce600088815260200190815260200160002060008282546107539190611a66565b90915550506040517f71bab65ced2e5750775a0613be067df48ef06cf92a496ebf7663ae06609249549061078c90339089908590611a7d565b60405180910390a1848460010160008282546107a89190611a66565b90915550508254859084906000906107c1908490611a66565b9091555050600384015483546c0c9f2c9cd04674edea40000000916107e591611a1d565b6107ef9190611a52565b600184015560ca546040517f97b85b6a0000000000000000000000000000000000000000000000000000000081526001600160a01b03909116906397b85b6a9061083f9033908990600401611b11565b600060405180830381600087803b15801561085957600080fd5b505af115801561086d573d6000803e3d6000fd5b505050507ff279e6a1f5e320cca91135676d9cb6e44ca8a08c0b88342bcdb1144f6511b56833878760405161056593929190611a7d565b600081815260cb60205260409020600481015442116108c1575050565b600181015481546040516370a0823160e01b815260009161010090046001600160a01b0316906370a08231906108fb903090600401611909565b602060405180830381865afa158015610918573d6000803e3d6000fd5b505050506040513d601f19601f8201168201806040525081019061093c9190611af0565b600085815260ce6020526040902054909150811480610959575081155b1561096a5750504260049091015550565b600084815260ce60205260408120546109839083611a66565b90508261099d6c0c9f2c9cd04674edea4000000083611a1d565b6109a79190611a52565b8460030160008282546109ba9190611b1f565b9091555050426004850155600085815260ce602052604090819020839055600385015490517f7fa9647ec1cc14e3822b46d05a2b9d4e019bde8875c0088c46b6503d71bf172291610a0d91889190611966565b60405180910390a15050505050565b6033546001600160a01b03163314610a465760405162461bcd60e51b81526004016103dd90611ad5565b60cd805460009160cb91839182610a5c83611b37565b9091555081526020810191909152604001600020805460017fffffffffffffffffffffff0000000000000000000000000000000000000000009091166101006001600160a01b03861602178117825560cd549192507fc152e0e959f429700442d55214616143637a2b01940082fcaaba253ab85c17b991610add9190611a66565b83604051610aec929190611b50565b60405180910390a15050565b6033546001600160a01b03163314610b225760405162461bcd60e51b81526004016103dd90611ad5565b610b2c600061141b565b565b600081815260cc60209081526040808320338452909152902054610b5390829061063b565b50565b600082815260cb60209081526040808320815160c081018352815460ff81161515825261010090046001600160a01b03169381019390935260018101549183019190915260028101546060830152600381015460808301526004015460a082018190521580610bc857508060a0015142105b15610bd7576000915050610d45565b60808101516040820151600003610bf357600092505050610d45565b600085815260cc602090815260408083206001600160a01b0380891685529083528184208251808401845281548152600190910154818501529286015191516370a0823160e01b81529293929116906370a0823190610c56903090600401611909565b602060405180830381865afa158015610c73573d6000803e3d6000fd5b505050506040513d601f19601f82011682018060405250810190610c979190611af0565b600088815260ce60205260409020549091508114610cff57600087815260ce6020526040812054610cc89083611a66565b6040860151909150610ce76c0c9f2c9cd04674edea4000000083611a1d565b610cf19190611a52565b610cfb9085611b1f565b9350505b600082602001516c0c9f2c9cd04674edea40000000858560000151610d249190611a1d565b610d2e9190611a52565b610d389190611a66565b9550610d45945050505050565b92915050565b600054610100900460ff16610d665760005460ff1615610d6a565b303b155b610d865760405162461bcd60e51b81526004016103dd90611bc5565b600054610100900460ff16158015610da8576000805461ffff19166101011790555b610db061147a565b610db86114a9565b610dc06114d8565b60ca805473ffffffffffffffffffffffffffffffffffffffff19166001600160a01b038416179055600160cd558015610dff576000805461ff00191690555b5050565b610e0c826108a4565b600082815260cb6020908152604091829020825160c081018452815460ff81161515825261010090046001600160a01b0316928101839052600182015481850152600282015460608201526003820154608082015260049182015460a082015292516370a0823160e01b81526370a0823191610e8a91309101611909565b602060405180830381865afa158015610ea7573d6000803e3d6000fd5b505050506040513d601f19601f82011682018060405250810190610ecb9190611af0565b8260c954610ed99190611a1d565b1115610f11576040517f58a110e800000000000000000000000000000000000000000000000000000000815260040160405180910390fd5b600083815260cb602052604090819020600201839055517f01daaf9017881672e5509b604c12ed0f4eab658d04c732febc698b8ed42397e390610f579085908590611966565b60405180910390a1505050565b600260975403610f865760405162461bcd60e51b81526004016103dd906119b5565b6002609755600082815260cb602052604090205460ff16610fd3576040517f4aa48a8100000000000000000000000000000000000000000000000000000000815260040160405180910390fd5b80600003610ff457604051631ec840e160e01b815260040160405180910390fd5b60ca546040516370a0823160e01b815282916001600160a01b0316906370a0823190611024903390600401611909565b602060405180830381865afa158015611041573d6000803e3d6000fd5b505050506040513d601f19601f820116820180604052508101906110659190611af0565b10156110845760405163445d638d60e01b815260040160405180910390fd5b61108d826108a4565b60ca546040517f78ad54c20000000000000000000000000000000000000000000000000000000081526001600160a01b03909116906378ad54c2906110d89033908590600401611b11565b600060405180830381600087803b1580156110f257600080fd5b505af1158015611106573d6000803e3d6000fd5b505050600083815260cb6020908152604080832060cc8352818420338552909252909120805491925090156111fc57600081600101546c0c9f2c9cd04674edea400000008360000154856003015461115e9190611a1d565b6111689190611a52565b6111729190611a66565b83549091506000906111939061010090046001600160a01b03163384611366565b90508060ce600088815260200190815260200160002060008282546111b89190611a66565b90915550506040517f71bab65ced2e5750775a0613be067df48ef06cf92a496ebf7663ae0660924954906111f190339089908590611a7d565b60405180910390a150505b828260010160008282546112109190611b1f565b9091555050805483908290600090611229908490611b1f565b9091555050805460038301546c0c9f2c9cd04674edea400000009161124d91611a1d565b6112579190611a52565b60018201556040517f90890809c654f11d6e72a28fa60149770a0d11ec6c92319d6ceb2bb0a4ea1a159061129090339087908790611a7d565b60405180910390a1505060016097555050565b6033546001600160a01b031633146112cd5760405162461bcd60e51b81526004016103dd90611ad5565b6001600160a01b0381166112f35760405162461bcd60e51b81526004016103dd90611c2d565b610b538161141b565b6033546001600160a01b031633146113265760405162461bcd60e51b81526004016103dd90611ad5565b7f0591d85ff40c6aa3ea8d23e0b0e8224ffef96db2722859b2752cfed2e8ae004d60c95482604051611359929190611966565b60405180910390a160c955565b600080846001600160a01b03166370a08231306040518263ffffffff1660e01b81526004016113959190611909565b602060405180830381865afa1580156113b2573d6000803e3d6000fd5b505050506040513d601f19601f820116820180604052508101906113d69190611af0565b9050808311156113fb576113f46001600160a01b0386168583611507565b9050611414565b61140f6001600160a01b0386168585611507565b829150505b9392505050565b603380546001600160a01b0383811673ffffffffffffffffffffffffffffffffffffffff19831681179093556040519116919082907f8be0079c531659141344cd1fd0a4f28419497f9722a3daafe3b4186f6b6457e090600090a35050565b600054610100900460ff166114a15760405162461bcd60e51b81526004016103dd90611c95565b610b2c61158f565b600054610100900460ff166114d05760405162461bcd60e51b81526004016103dd90611c95565b610b2c6115bf565b600054610100900460ff166114ff5760405162461bcd60e51b81526004016103dd90611c95565b610b2c6115f2565b61158a8363a9059cbb60e01b8484604051602401611526929190611b11565b60408051601f198184030181529190526020810180517bffffffffffffffffffffffffffffffffffffffffffffffffffffffff167fffffffff0000000000000000000000000000000000000000000000000000000090931692909217909152611620565b505050565b600054610100900460ff166115b65760405162461bcd60e51b81526004016103dd90611c95565b610b2c3361141b565b600054610100900460ff166115e65760405162461bcd60e51b81526004016103dd90611c95565b6065805460ff19169055565b600054610100900460ff166116195760405162461bcd60e51b81526004016103dd90611c95565b6001609755565b6000611675826040518060400160405280602081526020017f5361666545524332303a206c6f772d6c6576656c2063616c6c206661696c6564815250856001600160a01b03166116af9092919063ffffffff16565b80519091501561158a57808060200190518101906116939190611cb8565b61158a5760405162461bcd60e51b81526004016103dd90611d31565b60606116be84846000856116c6565b949350505050565b6060824710156116e85760405162461bcd60e51b81526004016103dd90611d99565b843b6117065760405162461bcd60e51b81526004016103dd90611ddb565b600080866001600160a01b031685876040516117229190611e3d565b60006040518083038185875af1925050503d806000811461175f576040519150601f19603f3d011682016040523d82523d6000602084013e611764565b606091505b509150915061177482828661177f565b979650505050505050565b6060831561178e575081611414565b82511561179e5782518084602001fd5b8160405162461bcd60e51b81526004016103dd9190611e79565b805b8114610b5357600080fd5b8035610d45816117b8565b60006001600160a01b038216610d45565b6117ba816117d0565b8035610d45816117e1565b6000806040838503121561180b5761180b600080fd5b600061181785856117c5565b9250506020611828858286016117ea565b9150509250929050565b805b82525050565b60208101610d458284611832565b60006020828403121561185d5761185d600080fd5b60006116be84846117c5565b6000806040838503121561187f5761187f600080fd5b600061188b85856117c5565b9250506020611828858286016117c5565b6000610d45826117d0565b6000610d458261189c565b611834816118a7565b60208101610d4582846118b2565b801515611834565b60208101610d4582846118c9565b6000602082840312156118f4576118f4600080fd5b60006116be84846117ea565b611834816117d0565b60208101610d458284611900565b60c0810161192582896118c9565b6119326020830188611900565b61193f6040830187611832565b61194c6060830186611832565b6119596080830185611832565b61177460a0830184611832565b604081016119748285611832565b6114146020830184611832565b601f8152602081017f5265656e7472616e637947756172643a207265656e7472616e742063616c6c00815290505b60200190565b60208082528101610d4581611981565b60108152602081017f5061757361626c653a2070617573656400000000000000000000000000000000815290506119af565b60208082528101610d45816119c5565b634e487b7160e01b600052601160045260246000fd5b6000816000190483118215151615611a3757611a37611a07565b500290565b634e487b7160e01b600052601260045260246000fd5b600082611a6157611a61611a3c565b500490565b600082821015611a7857611a78611a07565b500390565b60608101611a8b8286611900565b611a986020830185611832565b6116be6040830184611832565b60208082527f4f776e61626c653a2063616c6c6572206973206e6f7420746865206f776e657291019081526119af565b60208082528101610d4581611aa5565b8051610d45816117b8565b600060208284031215611b0557611b05600080fd5b60006116be8484611ae5565b604081016119748285611900565b60008219821115611b3257611b32611a07565b500190565b600060018201611b4957611b49611a07565b5060010190565b60408101611b5e8285611832565b6114146020830184611900565b602e8152602081017f496e697469616c697a61626c653a20636f6e747261637420697320616c72656181527f647920696e697469616c697a6564000000000000000000000000000000000000602082015290505b60400190565b60208082528101610d4581611b6b565b60268152602081017f4f776e61626c653a206e6577206f776e657220697320746865207a65726f206181527f646472657373000000000000000000000000000000000000000000000000000060208201529050611bbf565b60208082528101610d4581611bd5565b602b8152602081017f496e697469616c697a61626c653a20636f6e7472616374206973206e6f74206981527f6e697469616c697a696e6700000000000000000000000000000000000000000060208201529050611bbf565b60208082528101610d4581611c3d565b8015156117ba565b8051610d4581611ca5565b600060208284031215611ccd57611ccd600080fd5b60006116be8484611cad565b602a8152602081017f5361666545524332303a204552433230206f7065726174696f6e20646964206e81527f6f7420737563636565640000000000000000000000000000000000000000000060208201529050611bbf565b60208082528101610d4581611cd9565b60268152602081017f416464726573733a20696e73756666696369656e742062616c616e636520666f81527f722063616c6c000000000000000000000000000000000000000000000000000060208201529050611bbf565b60208082528101610d4581611d41565b601d8152602081017f416464726573733a2063616c6c20746f206e6f6e2d636f6e7472616374000000815290506119af565b60208082528101610d4581611da9565b60005b83811015611e06578181015183820152602001611dee565b83811115611e15576000848401525b50505050565b6000611e25825190565b611e33818560208601611deb565b9290920192915050565b610d458183611e1b565b6000611e51825190565b808452602084019350611e68818560208601611deb565b601f01601f19169290920192915050565b602080825281016114148184611e4756fea2646970667358221220d4aac7c5d39815ac9ef84c8fe5448be3b556d05c0adbb8b6c428d78280ce9a5564736f6c634300080d0033",
  "devdoc": {
    "kind": "dev",
    "methods": {
      "deposit(uint256,uint256)": {
        "params": {
          "_amount": "Amount of tokens to deposit",
          "_poolId": "Pool Id"
        }
      },
      "harvest(uint256,address)": {
        "params": {
          "_poolId": "Pool Id",
          "_to": "Reward receiver address"
        }
      },
      "owner()": {
        "details": "Returns the address of the current owner."
      },
      "paused()": {
        "details": "Returns true if the contract is paused, and false otherwise."
      },
      "pendingReward(uint256,address)": {
        "params": {
          "_poolId": "Pool Id",
          "_user": "User address"
        },
        "returns": {
          "_0": "pendingReward Amount of pending reward"
        }
      },
      "renounceOwnership()": {
        "details": "Leaves the contract without owner. It will not be possible to call `onlyOwner` functions anymore. Can only be called by the current owner. NOTE: Renouncing ownership will leave the contract without an owner, thereby removing any functionality that is only available to the owner."
      },
      "setRewardSpeed(uint256,uint256)": {
        "params": {
          "_poolId": "Pool id",
          "_rewardPerSecond": "Reward speed"
        }
      },
      "setRoundTime(uint256)": {
        "details": "Round time is only used for checking reward speed",
        "params": {
          "_roundTime": "Round time in seconds"
        }
      },
      "startPool(address)": {
        "details": "Normally there will be two pools          - USDC.e as reward (1)          - Shield as reward (2)",
        "params": {
          "_rewardToken": "Reward token address"
        }
      },
      "transferOwnership(address)": {
        "details": "Transfers ownership of the contract to a new account (`newOwner`). Can only be called by the current owner."
      },
      "updatePool(uint256)": {
        "params": {
          "_poolId": "Pool id"
        }
      },
      "withdraw(uint256,uint256)": {
        "params": {
          "_amount": "Amount to withdraw",
          "_poolId": "Pool Id"
        }
      },
      "withdrawAll(uint256)": {
        "params": {
          "_poolId": "Pool Id"
        }
      }
    },
    "title": "Degis Income Sharing Contract",
    "version": 1
  },
  "userdoc": {
    "kind": "user",
    "methods": {
      "deposit(uint256,uint256)": {
        "notice": "Deposit"
      },
      "harvest(uint256,address)": {
        "notice": "Harvest income reward"
      },
      "pendingReward(uint256,address)": {
        "notice": "Pending reward"
      },
      "setRewardSpeed(uint256,uint256)": {
        "notice": "Set reward speed for a pool"
      },
      "setRoundTime(uint256)": {
        "notice": "Set round time"
      },
      "startPool(address)": {
        "notice": "Start a new income sharing pool"
      },
      "updatePool(uint256)": {
        "notice": "Update pool"
      },
      "withdraw(uint256,uint256)": {
        "notice": "Withdraw the reward from the pool"
      },
      "withdrawAll(uint256)": {
        "notice": "Withdraw all veDEG"
      }
    },
    "notice": "This contract will receive part of the income from Degis products         And the income will be shared by DEG holders (in the form of veDEG)         It is designed to be an ever-lasting reward         At first the reward is USDC.e and later may be transferred to Shield         To enter the income sharing vault, you need to lock some veDEG             - When your veDEG is locked, it can not be withdrawed         The reward is distributed per second like a farming pool         The income will come from (to be updated)             - IncomeMaker: Collect swap fee in naughty price pool             - PolicyCore: Collect deposit/redeem fee in policy core",
    "version": 1
  },
  "storageLayout": {
    "storage": [
      {
        "astId": 2670,
        "contract": "contracts/income/IncomeSharingVaultV2.sol:IncomeSharingVaultV2",
        "label": "_initialized",
        "offset": 0,
        "slot": "0",
        "type": "t_bool"
      },
      {
        "astId": 2673,
        "contract": "contracts/income/IncomeSharingVaultV2.sol:IncomeSharingVaultV2",
        "label": "_initializing",
        "offset": 1,
        "slot": "0",
        "type": "t_bool"
      },
      {
        "astId": 3907,
        "contract": "contracts/income/IncomeSharingVaultV2.sol:IncomeSharingVaultV2",
        "label": "__gap",
        "offset": 0,
        "slot": "1",
        "type": "t_array(t_uint256)50_storage"
      },
      {
        "astId": 2550,
        "contract": "contracts/income/IncomeSharingVaultV2.sol:IncomeSharingVaultV2",
        "label": "_owner",
        "offset": 0,
        "slot": "51",
        "type": "t_address"
      },
      {
        "astId": 2662,
        "contract": "contracts/income/IncomeSharingVaultV2.sol:IncomeSharingVaultV2",
        "label": "__gap",
        "offset": 0,
        "slot": "52",
        "type": "t_array(t_uint256)49_storage"
      },
      {
        "astId": 2758,
        "contract": "contracts/income/IncomeSharingVaultV2.sol:IncomeSharingVaultV2",
        "label": "_paused",
        "offset": 0,
        "slot": "101",
        "type": "t_bool"
      },
      {
        "astId": 2847,
        "contract": "contracts/income/IncomeSharingVaultV2.sol:IncomeSharingVaultV2",
        "label": "__gap",
        "offset": 0,
        "slot": "102",
        "type": "t_array(t_uint256)49_storage"
      },
      {
        "astId": 2862,
        "contract": "contracts/income/IncomeSharingVaultV2.sol:IncomeSharingVaultV2",
        "label": "_status",
        "offset": 0,
        "slot": "151",
        "type": "t_uint256"
      },
      {
        "astId": 2906,
        "contract": "contracts/income/IncomeSharingVaultV2.sol:IncomeSharingVaultV2",
        "label": "__gap",
        "offset": 0,
        "slot": "152",
        "type": "t_array(t_uint256)49_storage"
      },
      {
        "astId": 19510,
        "contract": "contracts/income/IncomeSharingVaultV2.sol:IncomeSharingVaultV2",
        "label": "roundTime",
        "offset": 0,
        "slot": "201",
        "type": "t_uint256"
      },
      {
        "astId": 19513,
        "contract": "contracts/income/IncomeSharingVaultV2.sol:IncomeSharingVaultV2",
        "label": "veDEG",
        "offset": 0,
        "slot": "202",
        "type": "t_contract(IVeDEG)18270"
      },
      {
        "astId": 19531,
        "contract": "contracts/income/IncomeSharingVaultV2.sol:IncomeSharingVaultV2",
        "label": "pools",
        "offset": 0,
        "slot": "203",
        "type": "t_mapping(t_uint256,t_struct(PoolInfo)19526_storage)"
      },
      {
        "astId": 19543,
        "contract": "contracts/income/IncomeSharingVaultV2.sol:IncomeSharingVaultV2",
        "label": "users",
        "offset": 0,
        "slot": "204",
        "type": "t_mapping(t_uint256,t_mapping(t_address,t_struct(UserInfo)19536_storage))"
      },
      {
        "astId": 19545,
        "contract": "contracts/income/IncomeSharingVaultV2.sol:IncomeSharingVaultV2",
        "label": "nextPool",
        "offset": 0,
        "slot": "205",
        "type": "t_uint256"
      },
      {
        "astId": 19549,
        "contract": "contracts/income/IncomeSharingVaultV2.sol:IncomeSharingVaultV2",
        "label": "lastRewardBalance",
        "offset": 0,
        "slot": "206",
        "type": "t_mapping(t_uint256,t_uint256)"
      }
    ],
    "types": {
      "t_address": {
        "encoding": "inplace",
        "label": "address",
        "numberOfBytes": "20"
      },
      "t_array(t_uint256)49_storage": {
        "base": "t_uint256",
        "encoding": "inplace",
        "label": "uint256[49]",
        "numberOfBytes": "1568"
      },
      "t_array(t_uint256)50_storage": {
        "base": "t_uint256",
        "encoding": "inplace",
        "label": "uint256[50]",
        "numberOfBytes": "1600"
      },
      "t_bool": {
        "encoding": "inplace",
        "label": "bool",
        "numberOfBytes": "1"
      },
      "t_contract(IVeDEG)18270": {
        "encoding": "inplace",
        "label": "contract IVeDEG",
        "numberOfBytes": "20"
      },
      "t_mapping(t_address,t_struct(UserInfo)19536_storage)": {
        "encoding": "mapping",
        "key": "t_address",
        "label": "mapping(address => struct IncomeSharingVaultV2.UserInfo)",
        "numberOfBytes": "32",
        "value": "t_struct(UserInfo)19536_storage"
      },
      "t_mapping(t_uint256,t_mapping(t_address,t_struct(UserInfo)19536_storage))": {
        "encoding": "mapping",
        "key": "t_uint256",
        "label": "mapping(uint256 => mapping(address => struct IncomeSharingVaultV2.UserInfo))",
        "numberOfBytes": "32",
        "value": "t_mapping(t_address,t_struct(UserInfo)19536_storage)"
      },
      "t_mapping(t_uint256,t_struct(PoolInfo)19526_storage)": {
        "encoding": "mapping",
        "key": "t_uint256",
        "label": "mapping(uint256 => struct IncomeSharingVaultV2.PoolInfo)",
        "numberOfBytes": "32",
        "value": "t_struct(PoolInfo)19526_storage"
      },
      "t_mapping(t_uint256,t_uint256)": {
        "encoding": "mapping",
        "key": "t_uint256",
        "label": "mapping(uint256 => uint256)",
        "numberOfBytes": "32",
        "value": "t_uint256"
      },
      "t_struct(PoolInfo)19526_storage": {
        "encoding": "inplace",
        "label": "struct IncomeSharingVaultV2.PoolInfo",
        "members": [
          {
            "astId": 19515,
            "contract": "contracts/income/IncomeSharingVaultV2.sol:IncomeSharingVaultV2",
            "label": "available",
            "offset": 0,
            "slot": "0",
            "type": "t_bool"
          },
          {
            "astId": 19517,
            "contract": "contracts/income/IncomeSharingVaultV2.sol:IncomeSharingVaultV2",
            "label": "rewardToken",
            "offset": 1,
            "slot": "0",
            "type": "t_address"
          },
          {
            "astId": 19519,
            "contract": "contracts/income/IncomeSharingVaultV2.sol:IncomeSharingVaultV2",
            "label": "totalAmount",
            "offset": 0,
            "slot": "1",
            "type": "t_uint256"
          },
          {
            "astId": 19521,
            "contract": "contracts/income/IncomeSharingVaultV2.sol:IncomeSharingVaultV2",
            "label": "rewardPerSecond",
            "offset": 0,
            "slot": "2",
            "type": "t_uint256"
          },
          {
            "astId": 19523,
            "contract": "contracts/income/IncomeSharingVaultV2.sol:IncomeSharingVaultV2",
            "label": "accRewardPerShare",
            "offset": 0,
            "slot": "3",
            "type": "t_uint256"
          },
          {
            "astId": 19525,
            "contract": "contracts/income/IncomeSharingVaultV2.sol:IncomeSharingVaultV2",
            "label": "lastRewardTimestamp",
            "offset": 0,
            "slot": "4",
            "type": "t_uint256"
          }
        ],
        "numberOfBytes": "160"
      },
      "t_struct(UserInfo)19536_storage": {
        "encoding": "inplace",
        "label": "struct IncomeSharingVaultV2.UserInfo",
        "members": [
          {
            "astId": 19533,
            "contract": "contracts/income/IncomeSharingVaultV2.sol:IncomeSharingVaultV2",
            "label": "totalAmount",
            "offset": 0,
            "slot": "0",
            "type": "t_uint256"
          },
          {
            "astId": 19535,
            "contract": "contracts/income/IncomeSharingVaultV2.sol:IncomeSharingVaultV2",
            "label": "rewardDebt",
            "offset": 0,
            "slot": "1",
            "type": "t_uint256"
          }
        ],
        "numberOfBytes": "64"
      },
      "t_uint256": {
        "encoding": "inplace",
        "label": "uint256",
        "numberOfBytes": "32"
      }
    }
  }
}