{
  "address": "0x87A20bF57567E6771982e79E5CB3cD2A49b97cC8",
  "abi": [
    {
      "anonymous": false,
      "inputs": [
        {
          "indexed": false,
          "internalType": "address",
          "name": "caller",
          "type": "address"
        },
        {
          "indexed": false,
          "internalType": "address",
          "name": "policyTokenAddress",
          "type": "address"
        },
        {
          "indexed": false,
          "internalType": "address",
          "name": "stablecoin",
          "type": "address"
        },
        {
          "indexed": false,
          "internalType": "uint256",
          "name": "policyTokenAmount",
          "type": "uint256"
        },
        {
          "indexed": false,
          "internalType": "uint256",
          "name": "stablecoinAmount",
          "type": "uint256"
        },
        {
          "indexed": false,
          "internalType": "uint256",
          "name": "stablecoinBackAmount",
          "type": "uint256"
        }
      ],
      "name": "ConvertIncome",
      "type": "event"
    },
    {
      "anonymous": false,
      "inputs": [
        {
          "indexed": false,
          "internalType": "address",
          "name": "token",
          "type": "address"
        },
        {
          "indexed": false,
          "internalType": "uint256",
          "name": "amount",
          "type": "uint256"
        }
      ],
      "name": "EmergencyWithdraw",
      "type": "event"
    },
    {
      "anonymous": false,
      "inputs": [
        {
          "indexed": false,
          "internalType": "address",
          "name": "policyTokenAddress",
          "type": "address"
        },
        {
          "indexed": false,
          "internalType": "address",
          "name": "stablecoin",
          "type": "address"
        },
        {
          "indexed": false,
          "internalType": "uint256",
          "name": "amountOut",
          "type": "uint256"
        }
      ],
      "name": "IncomeToUSD",
      "type": "event"
    },
    {
      "anonymous": false,
      "inputs": [
        {
          "indexed": true,
          "internalType": "address",
          "name": "previousOwner",
          "type": "address"
        },
        {
          "indexed": true,
          "internalType": "address",
          "name": "newOwner",
          "type": "address"
        }
      ],
      "name": "OwnershipTransferred",
      "type": "event"
    },
    {
      "inputs": [],
      "name": "PRICE_SCALE",
      "outputs": [
        {
          "internalType": "uint256",
          "name": "",
          "type": "uint256"
        }
      ],
      "stateMutability": "view",
      "type": "function"
    },
    {
      "inputs": [],
      "name": "UINT256_MAX",
      "outputs": [
        {
          "internalType": "uint256",
          "name": "",
          "type": "uint256"
        }
      ],
      "stateMutability": "view",
      "type": "function"
    },
    {
      "inputs": [
        {
          "internalType": "address",
          "name": "_policyToken",
          "type": "address"
        },
        {
          "internalType": "address",
          "name": "_stablecoin",
          "type": "address"
        }
      ],
      "name": "convertIncome",
      "outputs": [],
      "stateMutability": "nonpayable",
      "type": "function"
    },
    {
      "inputs": [
        {
          "internalType": "address",
          "name": "_token",
          "type": "address"
        },
        {
          "internalType": "uint256",
          "name": "_amount",
          "type": "uint256"
        }
      ],
      "name": "emergencyWithdraw",
      "outputs": [],
      "stateMutability": "nonpayable",
      "type": "function"
    },
    {
      "inputs": [],
      "name": "factory",
      "outputs": [
        {
          "internalType": "contract INaughtyFactory",
          "name": "",
          "type": "address"
        }
      ],
      "stateMutability": "view",
      "type": "function"
    },
    {
      "inputs": [],
      "name": "incomeSharingVault",
      "outputs": [
        {
          "internalType": "address",
          "name": "",
          "type": "address"
        }
      ],
      "stateMutability": "view",
      "type": "function"
    },
    {
      "inputs": [
        {
          "internalType": "address",
          "name": "_router",
          "type": "address"
        },
        {
          "internalType": "address",
          "name": "_factory",
          "type": "address"
        },
        {
          "internalType": "address",
          "name": "_vault",
          "type": "address"
        }
      ],
      "name": "initialize",
      "outputs": [],
      "stateMutability": "nonpayable",
      "type": "function"
    },
    {
      "inputs": [],
      "name": "owner",
      "outputs": [
        {
          "internalType": "address",
          "name": "",
          "type": "address"
        }
      ],
      "stateMutability": "view",
      "type": "function"
    },
    {
      "inputs": [],
      "name": "renounceOwnership",
      "outputs": [],
      "stateMutability": "nonpayable",
      "type": "function"
    },
    {
      "inputs": [],
      "name": "router",
      "outputs": [
        {
          "internalType": "contract INaughtyRouter",
          "name": "",
          "type": "address"
        }
      ],
      "stateMutability": "view",
      "type": "function"
    },
    {
      "inputs": [
        {
          "internalType": "address",
          "name": "newOwner",
          "type": "address"
        }
      ],
      "name": "transferOwnership",
      "outputs": [],
      "stateMutability": "nonpayable",
      "type": "function"
    }
  ],
  "transactionHash": "0xa070f381ec8877fd2bfa77174377b3abefe9827c8a26db825ab098d2d2f558e5",
  "args": [],
  "numDeployments": 1,
  "solcInputHash": "5f70b07ed339af3b6bbc0e602cd61865",
  "bytecode": "0x6080604052620f424060685534801561001757600080fd5b50611324806100276000396000f3fe608060405234801561001057600080fd5b50600436106100c95760003560e01c8063c0c53b8b11610081578063d0949f991161005b578063d0949f9914610181578063f2fde38b1461018a578063f887ea401461019d57600080fd5b8063c0c53b8b14610138578063c33f59d31461014b578063c45a01551461016157600080fd5b8063715018a6116100b2578063715018a61461010c5780638da5cb5b1461011457806395ccea671461012557600080fd5b80633037b57f146100ce57806344224a84146100e3575b600080fd5b6100e16100dc366004610ba2565b6101b0565b005b6067546100f6906001600160a01b031681565b6040516101039190610bee565b60405180910390f35b6100e1610448565b6033546001600160a01b03166100f6565b6100e1610133366004610c0d565b61047e565b6100e1610146366004610c40565b6104f9565b61015460685481565b6040516101039190610c96565b606654610174906001600160a01b031681565b6040516101039190610ce6565b61015460001981565b6100e1610198366004610cf4565b6105c0565b606554610174906001600160a01b031681565b60665460405163b4f69a2f60e01b81526000916001600160a01b03169063b4f69a2f906101e39086908690600401610d15565b602060405180830381865afa158015610200573d6000803e3d6000fd5b505050506040513d601f19601f820116820180604052508101906102249190610d3b565b90506001600160a01b0381166102555760405162461bcd60e51b815260040161024c90610d90565b60405180910390fd5b6102d781826001600160a01b03166370a08231306040518263ffffffff1660e01b81526004016102859190610bee565b602060405180830381865afa1580156102a2573d6000803e3d6000fd5b505050506040513d601f19601f820116820180604052508101906102c69190610dab565b6001600160a01b038416919061061c565b600080826001600160a01b03166389afcb44306040518263ffffffff1660e01b81526004016103069190610bee565b60408051808303816000875af1158015610324573d6000803e3d6000fd5b505050506040513d601f19601f820116820180604052508101906103489190610dcc565b91509150600061035a868685306106a4565b6067546040517f70a082310000000000000000000000000000000000000000000000000000000081529192506103ff916001600160a01b03918216918816906370a08231906103ad903090600401610bee565b602060405180830381865afa1580156103ca573d6000803e3d6000fd5b505050506040513d601f19601f820116820180604052508101906103ee9190610dab565b6001600160a01b038816919061061c565b7f164bcdcd46149eafbf59dd32071ba9e0571d25241bfa1f49e12a2ead6afb283a33878786868660405161043896959493929190610dff565b60405180910390a1505050505050565b6033546001600160a01b031633146104725760405162461bcd60e51b815260040161024c90610e89565b61047c6000610916565b565b6033546001600160a01b031633146104a85760405162461bcd60e51b815260040161024c90610e89565b6104bc6001600160a01b038316338361061c565b7f5fafa99d0643513820be26656b45130b01e1c03062e1266bf36f88cbd3bd969582826040516104ed929190610e99565b60405180910390a15050565b600054610100900460ff166105145760005460ff1615610518565b303b155b6105345760405162461bcd60e51b815260040161024c90610f0e565b600054610100900460ff16158015610556576000805461ffff19166101011790555b61055e610975565b606580546001600160a01b0380871673ffffffffffffffffffffffffffffffffffffffff199283161790925560668054868416908316179055606780549285169290911691909117905580156105ba576000805461ff00191690555b50505050565b6033546001600160a01b031633146105ea5760405162461bcd60e51b815260040161024c90610e89565b6001600160a01b0381166106105760405162461bcd60e51b815260040161024c90610f76565b61061981610916565b50565b61069f8363a9059cbb60e01b848460405160240161063b929190610e99565b60408051601f198184030181529190526020810180517bffffffffffffffffffffffffffffffffffffffffffffffffffffffff167fffffffff00000000000000000000000000000000000000000000000000000000909316929092179091526109a4565b505050565b60665460405163b4f69a2f60e01b815260009182916001600160a01b039091169063b4f69a2f906106db9089908990600401610d15565b602060405180830381865afa1580156106f8573d6000803e3d6000fd5b505050506040513d601f19601f8201168201806040525081019061071c9190610d3b565b90506001600160a01b0381166107445760405162461bcd60e51b815260040161024c90610d90565b600080826001600160a01b0316630902f1ac6040518163ffffffff1660e01b81526004016040805180830381865afa158015610784573d6000803e3d6000fd5b505050506040513d601f19601f820116820180604052508101906107a89190610fa7565b6dffffffffffffffffffffffffffff1691506dffffffffffffffffffffffffffff1691506000836001600160a01b031663978bbdb96040518163ffffffff1660e01b8152600401602060405180830381865afa15801561080c573d6000803e3d6000fd5b505050506040513d601f19601f820116820180604052508101906108309190610dab565b90506000610840826103e8610ff0565b61084a9089611007565b905080610859856103e8611007565b6108639190611026565b61086d8483611007565b6108779190611054565b955061088d6001600160a01b038b16868a61061c565b6040517f6d9a640a0000000000000000000000000000000000000000000000000000000081526001600160a01b03861690636d9a640a906108d7906000908a908c9060040161107d565b600060405180830381600087803b1580156108f157600080fd5b505af1158015610905573d6000803e3d6000fd5b505050505050505050949350505050565b603380546001600160a01b0383811673ffffffffffffffffffffffffffffffffffffffff19831681179093556040519116919082907f8be0079c531659141344cd1fd0a4f28419497f9722a3daafe3b4186f6b6457e090600090a35050565b600054610100900460ff1661099c5760405162461bcd60e51b815260040161024c906110fd565b61047c610a33565b60006109f9826040518060400160405280602081526020017f5361666545524332303a206c6f772d6c6576656c2063616c6c206661696c6564815250856001600160a01b0316610a639092919063ffffffff16565b80519091501561069f5780806020019051810190610a179190611120565b61069f5760405162461bcd60e51b815260040161024c90611199565b600054610100900460ff16610a5a5760405162461bcd60e51b815260040161024c906110fd565b61047c33610916565b6060610a728484600085610a7c565b90505b9392505050565b606082471015610a9e5760405162461bcd60e51b815260040161024c90611201565b843b610abc5760405162461bcd60e51b815260040161024c90611243565b600080866001600160a01b03168587604051610ad891906112a1565b60006040518083038185875af1925050503d8060008114610b15576040519150601f19603f3d011682016040523d82523d6000602084013e610b1a565b606091505b5091509150610b2a828286610b37565b925050505b949350505050565b60608315610b46575081610a75565b825115610b565782518084602001fd5b8160405162461bcd60e51b815260040161024c91906112dd565b60006001600160a01b0382165b92915050565b610b8c81610b70565b811461061957600080fd5b8035610b7d81610b83565b60008060408385031215610bb857610bb8600080fd5b6000610bc48585610b97565b9250506020610bd585828601610b97565b9150509250929050565b610be881610b70565b82525050565b60208101610b7d8284610bdf565b80610b8c565b8035610b7d81610bfc565b60008060408385031215610c2357610c23600080fd5b6000610c2f8585610b97565b9250506020610bd585828601610c02565b600080600060608486031215610c5857610c58600080fd5b6000610c648686610b97565b9350506020610c7586828701610b97565b9250506040610c8686828701610b97565b9150509250925092565b80610be8565b60208101610b7d8284610c90565b6000610b7d6001600160a01b038316610cbb565b90565b6001600160a01b031690565b6000610b7d82610ca4565b6000610b7d82610cc7565b610be881610cd2565b60208101610b7d8284610cdd565b600060208284031215610d0957610d09600080fd5b6000610b2f8484610b97565b60408101610d238285610bdf565b610a756020830184610bdf565b8051610b7d81610b83565b600060208284031215610d5057610d50600080fd5b6000610b2f8484610d30565b600e8152602081017f50616972206e6f74206578697374000000000000000000000000000000000000815290505b60200190565b60208082528101610b7d81610d5c565b8051610b7d81610bfc565b600060208284031215610dc057610dc0600080fd5b6000610b2f8484610da0565b60008060408385031215610de257610de2600080fd5b6000610dee8585610da0565b9250506020610bd585828601610da0565b60c08101610e0d8289610bdf565b610e1a6020830188610bdf565b610e276040830187610bdf565b610e346060830186610c90565b610e416080830185610c90565b610e4e60a0830184610c90565b979650505050505050565b60208082527f4f776e61626c653a2063616c6c6572206973206e6f7420746865206f776e65729101908152610d8a565b60208082528101610b7d81610e59565b60408101610ea78285610bdf565b610a756020830184610c90565b602e8152602081017f496e697469616c697a61626c653a20636f6e747261637420697320616c72656181527f647920696e697469616c697a6564000000000000000000000000000000000000602082015290505b60400190565b60208082528101610b7d81610eb4565b60268152602081017f4f776e61626c653a206e6577206f776e657220697320746865207a65726f206181527f646472657373000000000000000000000000000000000000000000000000000060208201529050610f08565b60208082528101610b7d81610f1e565b6dffffffffffffffffffffffffffff8116610b8c565b8051610b7d81610f86565b60008060408385031215610fbd57610fbd600080fd5b6000610fc98585610f9c565b9250506020610bd585828601610f9c565b634e487b7160e01b600052601160045260246000fd5b60008282101561100257611002610fda565b500390565b600081600019048311821515161561102157611021610fda565b500290565b6000821982111561103957611039610fda565b500190565b634e487b7160e01b600052601260045260246000fd5b6000826110635761106361103e565b500490565b6000610b7d610cb88381565b610be881611068565b6060810161108b8286611074565b6110986020830185610c90565b610b2f6040830184610bdf565b602b8152602081017f496e697469616c697a61626c653a20636f6e7472616374206973206e6f74206981527f6e697469616c697a696e6700000000000000000000000000000000000000000060208201529050610f08565b60208082528101610b7d816110a5565b801515610b8c565b8051610b7d8161110d565b60006020828403121561113557611135600080fd5b6000610b2f8484611115565b602a8152602081017f5361666545524332303a204552433230206f7065726174696f6e20646964206e81527f6f7420737563636565640000000000000000000000000000000000000000000060208201529050610f08565b60208082528101610b7d81611141565b60268152602081017f416464726573733a20696e73756666696369656e742062616c616e636520666f81527f722063616c6c000000000000000000000000000000000000000000000000000060208201529050610f08565b60208082528101610b7d816111a9565b601d8152602081017f416464726573733a2063616c6c20746f206e6f6e2d636f6e747261637400000081529050610d8a565b60208082528101610b7d81611211565b60005b8381101561126e578181015183820152602001611256565b838111156105ba5750506000910152565b6000611289825190565b611297818560208601611253565b9290920192915050565b610b7d818361127f565b60006112b5825190565b8084526020840193506112cc818560208601611253565b601f01601f19169290920192915050565b60208082528101610a7581846112ab56fea2646970667358221220b79febdbbf69c5420b4796d47bf3950ff6e87876e3e7ba83dfe6ad766373e64964736f6c634300080d0033",
  "devdoc": {
    "details": "This contract will receive the transaction fee from swap pool      Then it will transfer",
    "kind": "dev",
    "methods": {
      "convertIncome(address,address)": {
        "params": {
          "_policyToken": "Address of the policy token",
          "_stablecoin": "Address of the stablecoi"
        }
      },
      "emergencyWithdraw(address,uint256)": {
        "params": {
          "_amount": "Amount of the token",
          "_token": "Address of the token"
        }
      },
      "initialize(address,address,address)": {
        "params": {
          "_factory": "Address of the naughty factory",
          "_router": "Address of the naughty router",
          "_vault": "Address of the income sharing vault"
        }
      },
      "owner()": {
        "details": "Returns the address of the current owner."
      },
      "renounceOwnership()": {
        "details": "Leaves the contract without owner. It will not be possible to call `onlyOwner` functions anymore. Can only be called by the current owner. NOTE: Renouncing ownership will leave the contract without an owner, thereby removing any functionality that is only available to the owner."
      },
      "transferOwnership(address)": {
        "details": "Transfers ownership of the contract to a new account (`newOwner`). Can only be called by the current owner."
      }
    },
    "title": "Degis Maker Contract",
    "version": 1
  },
  "userdoc": {
    "kind": "user",
    "methods": {
      "convertIncome(address,address)": {
        "notice": "Convert the income to stablecoin and transfer to the incomeSharingVault"
      },
      "emergencyWithdraw(address,uint256)": {
        "notice": "Emergency withdraw by the owner"
      },
      "initialize(address,address,address)": {
        "notice": "Initialize function"
      }
    },
    "version": 1
  },
  "storageLayout": {
    "storage": [
      {
        "astId": 2523,
        "contract": "contracts/income/IncomeMaker.sol:IncomeMaker",
        "label": "_initialized",
        "offset": 0,
        "slot": "0",
        "type": "t_bool"
      },
      {
        "astId": 2526,
        "contract": "contracts/income/IncomeMaker.sol:IncomeMaker",
        "label": "_initializing",
        "offset": 1,
        "slot": "0",
        "type": "t_bool"
      },
      {
        "astId": 3760,
        "contract": "contracts/income/IncomeMaker.sol:IncomeMaker",
        "label": "__gap",
        "offset": 0,
        "slot": "1",
        "type": "t_array(t_uint256)50_storage"
      },
      {
        "astId": 2403,
        "contract": "contracts/income/IncomeMaker.sol:IncomeMaker",
        "label": "_owner",
        "offset": 0,
        "slot": "51",
        "type": "t_address"
      },
      {
        "astId": 2515,
        "contract": "contracts/income/IncomeMaker.sol:IncomeMaker",
        "label": "__gap",
        "offset": 0,
        "slot": "52",
        "type": "t_array(t_uint256)49_storage"
      },
      {
        "astId": 17010,
        "contract": "contracts/income/IncomeMaker.sol:IncomeMaker",
        "label": "router",
        "offset": 0,
        "slot": "101",
        "type": "t_contract(INaughtyRouter)33311"
      },
      {
        "astId": 17013,
        "contract": "contracts/income/IncomeMaker.sol:IncomeMaker",
        "label": "factory",
        "offset": 0,
        "slot": "102",
        "type": "t_contract(INaughtyFactory)33143"
      },
      {
        "astId": 17015,
        "contract": "contracts/income/IncomeMaker.sol:IncomeMaker",
        "label": "incomeSharingVault",
        "offset": 0,
        "slot": "103",
        "type": "t_address"
      },
      {
        "astId": 17018,
        "contract": "contracts/income/IncomeMaker.sol:IncomeMaker",
        "label": "PRICE_SCALE",
        "offset": 0,
        "slot": "104",
        "type": "t_uint256"
      }
    ],
    "types": {
      "t_address": {
        "encoding": "inplace",
        "label": "address",
        "numberOfBytes": "20"
      },
      "t_array(t_uint256)49_storage": {
        "base": "t_uint256",
        "encoding": "inplace",
        "label": "uint256[49]",
        "numberOfBytes": "1568"
      },
      "t_array(t_uint256)50_storage": {
        "base": "t_uint256",
        "encoding": "inplace",
        "label": "uint256[50]",
        "numberOfBytes": "1600"
      },
      "t_bool": {
        "encoding": "inplace",
        "label": "bool",
        "numberOfBytes": "1"
      },
      "t_contract(INaughtyFactory)33143": {
        "encoding": "inplace",
        "label": "contract INaughtyFactory",
        "numberOfBytes": "20"
      },
      "t_contract(INaughtyRouter)33311": {
        "encoding": "inplace",
        "label": "contract INaughtyRouter",
        "numberOfBytes": "20"
      },
      "t_uint256": {
        "encoding": "inplace",
        "label": "uint256",
        "numberOfBytes": "32"
      }
    }
  }
}