{
  "address": "0x2Ec0DcbB700273E7563F32A09e5a2Cbd22d04a45",
  "abi": [
    {
      "inputs": [
        {
          "internalType": "address",
          "name": "_usdt",
          "type": "address"
        },
        {
          "internalType": "address",
          "name": "_factory",
          "type": "address"
        },
        {
          "internalType": "address",
          "name": "_priceGetter",
          "type": "address"
        }
      ],
      "stateMutability": "nonpayable",
      "type": "constructor"
    },
    {
      "anonymous": false,
      "inputs": [
        {
          "indexed": false,
          "internalType": "address",
          "name": "payerAddress",
          "type": "address"
        },
        {
          "indexed": false,
          "internalType": "address",
          "name": "userAddress",
          "type": "address"
        },
        {
          "indexed": false,
          "internalType": "string",
          "name": "policyTokenName",
          "type": "string"
        },
        {
          "indexed": false,
          "internalType": "address",
          "name": "stablecoin",
          "type": "address"
        },
        {
          "indexed": false,
          "internalType": "uint256",
          "name": "amount",
          "type": "uint256"
        }
      ],
      "name": "DelegateDeposit",
      "type": "event"
    },
    {
      "anonymous": false,
      "inputs": [
        {
          "indexed": false,
          "internalType": "address",
          "name": "userAddress",
          "type": "address"
        },
        {
          "indexed": false,
          "internalType": "string",
          "name": "policyTokenName",
          "type": "string"
        },
        {
          "indexed": false,
          "internalType": "address",
          "name": "stablecoin",
          "type": "address"
        },
        {
          "indexed": false,
          "internalType": "uint256",
          "name": "amount",
          "type": "uint256"
        }
      ],
      "name": "Deposit",
      "type": "event"
    },
    {
      "anonymous": false,
      "inputs": [
        {
          "indexed": false,
          "internalType": "string",
          "name": "_policyTokenName",
          "type": "string"
        },
        {
          "indexed": false,
          "internalType": "uint256",
          "name": "price",
          "type": "uint256"
        },
        {
          "indexed": false,
          "internalType": "bool",
          "name": "isHappened",
          "type": "bool"
        }
      ],
      "name": "FinalResultSettled",
      "type": "event"
    },
    {
      "anonymous": false,
      "inputs": [
        {
          "indexed": false,
          "internalType": "address",
          "name": "oldILM",
          "type": "address"
        },
        {
          "indexed": false,
          "internalType": "address",
          "name": "newILM",
          "type": "address"
        }
      ],
      "name": "ILMChanged",
      "type": "event"
    },
    {
      "anonymous": false,
      "inputs": [
        {
          "indexed": false,
          "internalType": "address",
          "name": "oldIncomeSharing",
          "type": "address"
        },
        {
          "indexed": false,
          "internalType": "address",
          "name": "newIncomeSharing",
          "type": "address"
        }
      ],
      "name": "IncomeSharingChanged",
      "type": "event"
    },
    {
      "anonymous": false,
      "inputs": [
        {
          "indexed": false,
          "internalType": "uint256",
          "name": "oldToLottery",
          "type": "uint256"
        },
        {
          "indexed": false,
          "internalType": "uint256",
          "name": "newToLottery",
          "type": "uint256"
        }
      ],
      "name": "IncomeToLotteryChanged",
      "type": "event"
    },
    {
      "anonymous": false,
      "inputs": [
        {
          "indexed": false,
          "internalType": "address",
          "name": "oldLotteryAddress",
          "type": "address"
        },
        {
          "indexed": false,
          "internalType": "address",
          "name": "newLotteryAddress",
          "type": "address"
        }
      ],
      "name": "LotteryChanged",
      "type": "event"
    },
    {
      "anonymous": false,
      "inputs": [
        {
          "indexed": false,
          "internalType": "address",
          "name": "oldRouter",
          "type": "address"
        },
        {
          "indexed": false,
          "internalType": "address",
          "name": "newRouter",
          "type": "address"
        }
      ],
      "name": "NaughtyRouterChanged",
      "type": "event"
    },
    {
      "anonymous": false,
      "inputs": [
        {
          "indexed": false,
          "internalType": "address",
          "name": "_newStablecoin",
          "type": "address"
        }
      ],
      "name": "NewStablecoinAdded",
      "type": "event"
    },
    {
      "anonymous": false,
      "inputs": [
        {
          "indexed": true,
          "internalType": "address",
          "name": "previousOwner",
          "type": "address"
        },
        {
          "indexed": true,
          "internalType": "address",
          "name": "newOwner",
          "type": "address"
        }
      ],
      "name": "OwnershipTransferred",
      "type": "event"
    },
    {
      "anonymous": false,
      "inputs": [
        {
          "indexed": false,
          "internalType": "string",
          "name": "tokenName",
          "type": "string"
        },
        {
          "indexed": false,
          "internalType": "address",
          "name": "tokenAddress",
          "type": "address"
        },
        {
          "indexed": false,
          "internalType": "uint256",
          "name": "tokenDecimals",
          "type": "uint256"
        },
        {
          "indexed": false,
          "internalType": "uint256",
          "name": "deadline",
          "type": "uint256"
        },
        {
          "indexed": false,
          "internalType": "uint256",
          "name": "settleTimestamp",
          "type": "uint256"
        }
      ],
      "name": "PolicyTokenDeployed",
      "type": "event"
    },
    {
      "anonymous": false,
      "inputs": [
        {
          "indexed": false,
          "internalType": "string",
          "name": "policyTokenName",
          "type": "string"
        },
        {
          "indexed": false,
          "internalType": "address",
          "name": "stablecoin",
          "type": "address"
        },
        {
          "indexed": false,
          "internalType": "uint256",
          "name": "startIndex",
          "type": "uint256"
        },
        {
          "indexed": false,
          "internalType": "uint256",
          "name": "stopIndex",
          "type": "uint256"
        }
      ],
      "name": "PolicyTokensSettledForUsers",
      "type": "event"
    },
    {
      "anonymous": false,
      "inputs": [
        {
          "indexed": false,
          "internalType": "address",
          "name": "poolAddress",
          "type": "address"
        },
        {
          "indexed": false,
          "internalType": "address",
          "name": "policyTokenAddress",
          "type": "address"
        },
        {
          "indexed": false,
          "internalType": "address",
          "name": "stablecoin",
          "type": "address"
        }
      ],
      "name": "PoolDeployed",
      "type": "event"
    },
    {
      "anonymous": false,
      "inputs": [
        {
          "indexed": false,
          "internalType": "address",
          "name": "poolAddress",
          "type": "address"
        },
        {
          "indexed": false,
          "internalType": "address",
          "name": "policyTokenAddress",
          "type": "address"
        },
        {
          "indexed": false,
          "internalType": "address",
          "name": "stablecoin",
          "type": "address"
        },
        {
          "indexed": false,
          "internalType": "uint256",
          "name": "initLiquidityA",
          "type": "uint256"
        },
        {
          "indexed": false,
          "internalType": "uint256",
          "name": "initLiquidityB",
          "type": "uint256"
        }
      ],
      "name": "PoolDeployedWithInitialLiquidity",
      "type": "event"
    },
    {
      "anonymous": false,
      "inputs": [
        {
          "indexed": false,
          "internalType": "address",
          "name": "userAddress",
          "type": "address"
        },
        {
          "indexed": false,
          "internalType": "string",
          "name": "policyTokenName",
          "type": "string"
        },
        {
          "indexed": false,
          "internalType": "address",
          "name": "stablecoin",
          "type": "address"
        },
        {
          "indexed": false,
          "internalType": "uint256",
          "name": "amount",
          "type": "uint256"
        }
      ],
      "name": "Redeem",
      "type": "event"
    },
    {
      "anonymous": false,
      "inputs": [
        {
          "indexed": false,
          "internalType": "address",
          "name": "userAddress",
          "type": "address"
        },
        {
          "indexed": false,
          "internalType": "string",
          "name": "policyTokenName",
          "type": "string"
        },
        {
          "indexed": false,
          "internalType": "address",
          "name": "stablecoin",
          "type": "address"
        },
        {
          "indexed": false,
          "internalType": "uint256",
          "name": "amount",
          "type": "uint256"
        }
      ],
      "name": "RedeemAfterSettlement",
      "type": "event"
    },
    {
      "inputs": [],
      "name": "ILMContract",
      "outputs": [
        {
          "internalType": "address",
          "name": "",
          "type": "address"
        }
      ],
      "stateMutability": "view",
      "type": "function"
    },
    {
      "inputs": [
        {
          "internalType": "string",
          "name": "_tokenName",
          "type": "string"
        },
        {
          "internalType": "uint256",
          "name": "_decimals",
          "type": "uint256"
        },
        {
          "internalType": "uint256",
          "name": "_strikePrice",
          "type": "uint256"
        },
        {
          "internalType": "bool",
          "name": "_isCall",
          "type": "bool"
        },
        {
          "internalType": "string",
          "name": "_round",
          "type": "string"
        }
      ],
      "name": "_generateName",
      "outputs": [
        {
          "internalType": "string",
          "name": "",
          "type": "string"
        }
      ],
      "stateMutability": "pure",
      "type": "function"
    },
    {
      "inputs": [
        {
          "internalType": "address",
          "name": "_newStablecoin",
          "type": "address"
        }
      ],
      "name": "addStablecoin",
      "outputs": [],
      "stateMutability": "nonpayable",
      "type": "function"
    },
    {
      "inputs": [
        {
          "internalType": "address",
          "name": "",
          "type": "address"
        },
        {
          "internalType": "uint256",
          "name": "",
          "type": "uint256"
        }
      ],
      "name": "allDepositors",
      "outputs": [
        {
          "internalType": "address",
          "name": "",
          "type": "address"
        }
      ],
      "stateMutability": "view",
      "type": "function"
    },
    {
      "inputs": [
        {
          "internalType": "uint256",
          "name": "",
          "type": "uint256"
        }
      ],
      "name": "allPolicyTokens",
      "outputs": [
        {
          "internalType": "string",
          "name": "",
          "type": "string"
        }
      ],
      "stateMutability": "view",
      "type": "function"
    },
    {
      "inputs": [
        {
          "internalType": "string",
          "name": "_policyTokenName",
          "type": "string"
        },
        {
          "internalType": "address",
          "name": "_stablecoin",
          "type": "address"
        },
        {
          "internalType": "uint256",
          "name": "_amount",
          "type": "uint256"
        }
      ],
      "name": "claim",
      "outputs": [],
      "stateMutability": "nonpayable",
      "type": "function"
    },
    {
      "inputs": [
        {
          "internalType": "address",
          "name": "_stablecoin",
          "type": "address"
        }
      ],
      "name": "collectIncome",
      "outputs": [],
      "stateMutability": "nonpayable",
      "type": "function"
    },
    {
      "inputs": [
        {
          "internalType": "string",
          "name": "_policyTokenName",
          "type": "string"
        },
        {
          "internalType": "address",
          "name": "_stablecoin",
          "type": "address"
        },
        {
          "internalType": "uint256",
          "name": "_amount",
          "type": "uint256"
        },
        {
          "internalType": "address",
          "name": "_user",
          "type": "address"
        }
      ],
      "name": "delegateDeposit",
      "outputs": [],
      "stateMutability": "nonpayable",
      "type": "function"
    },
    {
      "inputs": [
        {
          "internalType": "string",
          "name": "_tokenName",
          "type": "string"
        },
        {
          "internalType": "address",
          "name": "_stablecoin",
          "type": "address"
        },
        {
          "internalType": "bool",
          "name": "_isCall",
          "type": "bool"
        },
        {
          "internalType": "uint256",
          "name": "_nameDecimals",
          "type": "uint256"
        },
        {
          "internalType": "uint256",
          "name": "_tokenDecimals",
          "type": "uint256"
        },
        {
          "internalType": "uint256",
          "name": "_strikePrice",
          "type": "uint256"
        },
        {
          "internalType": "string",
          "name": "_round",
          "type": "string"
        },
        {
          "internalType": "uint256",
          "name": "_deadline",
          "type": "uint256"
        },
        {
          "internalType": "uint256",
          "name": "_settleTimestamp",
          "type": "uint256"
        }
      ],
      "name": "deployPolicyToken",
      "outputs": [],
      "stateMutability": "nonpayable",
      "type": "function"
    },
    {
      "inputs": [
        {
          "internalType": "string",
          "name": "_policyTokenName",
          "type": "string"
        },
        {
          "internalType": "address",
          "name": "_stablecoin",
          "type": "address"
        },
        {
          "internalType": "uint256",
          "name": "_poolDeadline",
          "type": "uint256"
        },
        {
          "internalType": "uint256",
          "name": "_feeRate",
          "type": "uint256"
        }
      ],
      "name": "deployPool",
      "outputs": [
        {
          "internalType": "address",
          "name": "",
          "type": "address"
        }
      ],
      "stateMutability": "nonpayable",
      "type": "function"
    },
    {
      "inputs": [
        {
          "internalType": "string",
          "name": "_policyTokenName",
          "type": "string"
        },
        {
          "internalType": "address",
          "name": "_stablecoin",
          "type": "address"
        },
        {
          "internalType": "uint256",
          "name": "_amount",
          "type": "uint256"
        }
      ],
      "name": "deposit",
      "outputs": [],
      "stateMutability": "nonpayable",
      "type": "function"
    },
    {
      "inputs": [],
      "name": "factory",
      "outputs": [
        {
          "internalType": "contract INaughtyFactory",
          "name": "",
          "type": "address"
        }
      ],
      "stateMutability": "view",
      "type": "function"
    },
    {
      "inputs": [
        {
          "internalType": "string",
          "name": "_policyTokenName",
          "type": "string"
        }
      ],
      "name": "findAddressbyName",
      "outputs": [
        {
          "internalType": "address",
          "name": "policyTokenAddress",
          "type": "address"
        }
      ],
      "stateMutability": "view",
      "type": "function"
    },
    {
      "inputs": [
        {
          "internalType": "address",
          "name": "_policyTokenAddress",
          "type": "address"
        }
      ],
      "name": "findNamebyAddress",
      "outputs": [
        {
          "internalType": "string",
          "name": "policyTokenName",
          "type": "string"
        }
      ],
      "stateMutability": "view",
      "type": "function"
    },
    {
      "inputs": [],
      "name": "getAllTokens",
      "outputs": [
        {
          "components": [
            {
              "internalType": "address",
              "name": "policyTokenAddress",
              "type": "address"
            },
            {
              "internalType": "bool",
              "name": "isCall",
              "type": "bool"
            },
            {
              "internalType": "uint256",
              "name": "nameDecimals",
              "type": "uint256"
            },
            {
              "internalType": "uint256",
              "name": "tokenDecimals",
              "type": "uint256"
            },
            {
              "internalType": "uint256",
              "name": "strikePrice",
              "type": "uint256"
            },
            {
              "internalType": "uint256",
              "name": "deadline",
              "type": "uint256"
            },
            {
              "internalType": "uint256",
              "name": "settleTimestamp",
              "type": "uint256"
            }
          ],
          "internalType": "struct PolicyCore.PolicyTokenInfo[]",
          "name": "",
          "type": "tuple[]"
        }
      ],
      "stateMutability": "view",
      "type": "function"
    },
    {
      "inputs": [
        {
          "internalType": "string",
          "name": "_policyTokenName",
          "type": "string"
        }
      ],
      "name": "getPolicyTokenInfo",
      "outputs": [
        {
          "components": [
            {
              "internalType": "address",
              "name": "policyTokenAddress",
              "type": "address"
            },
            {
              "internalType": "bool",
              "name": "isCall",
              "type": "bool"
            },
            {
              "internalType": "uint256",
              "name": "nameDecimals",
              "type": "uint256"
            },
            {
              "internalType": "uint256",
              "name": "tokenDecimals",
              "type": "uint256"
            },
            {
              "internalType": "uint256",
              "name": "strikePrice",
              "type": "uint256"
            },
            {
              "internalType": "uint256",
              "name": "deadline",
              "type": "uint256"
            },
            {
              "internalType": "uint256",
              "name": "settleTimestamp",
              "type": "uint256"
            }
          ],
          "internalType": "struct PolicyCore.PolicyTokenInfo",
          "name": "",
          "type": "tuple"
        }
      ],
      "stateMutability": "view",
      "type": "function"
    },
    {
      "inputs": [
        {
          "internalType": "address",
          "name": "_user",
          "type": "address"
        },
        {
          "internalType": "address",
          "name": "_policyTokenAddress",
          "type": "address"
        }
      ],
      "name": "getUserQuota",
      "outputs": [
        {
          "internalType": "uint256",
          "name": "_quota",
          "type": "uint256"
        }
      ],
      "stateMutability": "view",
      "type": "function"
    },
    {
      "inputs": [],
      "name": "incomeSharing",
      "outputs": [
        {
          "internalType": "address",
          "name": "",
          "type": "address"
        }
      ],
      "stateMutability": "view",
      "type": "function"
    },
    {
      "inputs": [],
      "name": "lottery",
      "outputs": [
        {
          "internalType": "address",
          "name": "",
          "type": "address"
        }
      ],
      "stateMutability": "view",
      "type": "function"
    },
    {
      "inputs": [],
      "name": "naughtyRouter",
      "outputs": [
        {
          "internalType": "address",
          "name": "",
          "type": "address"
        }
      ],
      "stateMutability": "view",
      "type": "function"
    },
    {
      "inputs": [],
      "name": "owner",
      "outputs": [
        {
          "internalType": "address",
          "name": "",
          "type": "address"
        }
      ],
      "stateMutability": "view",
      "type": "function"
    },
    {
      "inputs": [
        {
          "internalType": "address",
          "name": "",
          "type": "address"
        }
      ],
      "name": "pendingIncomeToLottery",
      "outputs": [
        {
          "internalType": "uint256",
          "name": "",
          "type": "uint256"
        }
      ],
      "stateMutability": "view",
      "type": "function"
    },
    {
      "inputs": [
        {
          "internalType": "address",
          "name": "",
          "type": "address"
        }
      ],
      "name": "pendingIncomeToSharing",
      "outputs": [
        {
          "internalType": "uint256",
          "name": "",
          "type": "uint256"
        }
      ],
      "stateMutability": "view",
      "type": "function"
    },
    {
      "inputs": [
        {
          "internalType": "address",
          "name": "",
          "type": "address"
        }
      ],
      "name": "policyTokenAddressToName",
      "outputs": [
        {
          "internalType": "string",
          "name": "",
          "type": "string"
        }
      ],
      "stateMutability": "view",
      "type": "function"
    },
    {
      "inputs": [
        {
          "internalType": "string",
          "name": "",
          "type": "string"
        }
      ],
      "name": "policyTokenInfoMapping",
      "outputs": [
        {
          "internalType": "address",
          "name": "policyTokenAddress",
          "type": "address"
        },
        {
          "internalType": "bool",
          "name": "isCall",
          "type": "bool"
        },
        {
          "internalType": "uint256",
          "name": "nameDecimals",
          "type": "uint256"
        },
        {
          "internalType": "uint256",
          "name": "tokenDecimals",
          "type": "uint256"
        },
        {
          "internalType": "uint256",
          "name": "strikePrice",
          "type": "uint256"
        },
        {
          "internalType": "uint256",
          "name": "deadline",
          "type": "uint256"
        },
        {
          "internalType": "uint256",
          "name": "settleTimestamp",
          "type": "uint256"
        }
      ],
      "stateMutability": "view",
      "type": "function"
    },
    {
      "inputs": [],
      "name": "priceGetter",
      "outputs": [
        {
          "internalType": "contract IPriceGetter",
          "name": "",
          "type": "address"
        }
      ],
      "stateMutability": "view",
      "type": "function"
    },
    {
      "inputs": [
        {
          "internalType": "string",
          "name": "_policyTokenName",
          "type": "string"
        },
        {
          "internalType": "address",
          "name": "_stablecoin",
          "type": "address"
        },
        {
          "internalType": "uint256",
          "name": "_amount",
          "type": "uint256"
        }
      ],
      "name": "redeem",
      "outputs": [],
      "stateMutability": "nonpayable",
      "type": "function"
    },
    {
      "inputs": [
        {
          "internalType": "string",
          "name": "_policyTokenName",
          "type": "string"
        },
        {
          "internalType": "address",
          "name": "_stablecoin",
          "type": "address"
        }
      ],
      "name": "redeemAfterSettlement",
      "outputs": [],
      "stateMutability": "nonpayable",
      "type": "function"
    },
    {
      "inputs": [],
      "name": "renounceOwnership",
      "outputs": [],
      "stateMutability": "nonpayable",
      "type": "function"
    },
    {
      "inputs": [
        {
          "internalType": "address",
          "name": "_ILM",
          "type": "address"
        }
      ],
      "name": "setILMContract",
      "outputs": [],
      "stateMutability": "nonpayable",
      "type": "function"
    },
    {
      "inputs": [
        {
          "internalType": "address",
          "name": "_incomeSharing",
          "type": "address"
        }
      ],
      "name": "setIncomeSharing",
      "outputs": [],
      "stateMutability": "nonpayable",
      "type": "function"
    },
    {
      "inputs": [
        {
          "internalType": "uint256",
          "name": "_toLottery",
          "type": "uint256"
        }
      ],
      "name": "setIncomeToLottery",
      "outputs": [],
      "stateMutability": "nonpayable",
      "type": "function"
    },
    {
      "inputs": [
        {
          "internalType": "address",
          "name": "_lotteryAddress",
          "type": "address"
        }
      ],
      "name": "setLottery",
      "outputs": [],
      "stateMutability": "nonpayable",
      "type": "function"
    },
    {
      "inputs": [
        {
          "internalType": "address",
          "name": "_router",
          "type": "address"
        }
      ],
      "name": "setNaughtyRouter",
      "outputs": [],
      "stateMutability": "nonpayable",
      "type": "function"
    },
    {
      "inputs": [
        {
          "internalType": "string",
          "name": "_policyTokenName",
          "type": "string"
        },
        {
          "internalType": "address",
          "name": "_stablecoin",
          "type": "address"
        },
        {
          "internalType": "uint256",
          "name": "_startIndex",
          "type": "uint256"
        },
        {
          "internalType": "uint256",
          "name": "_stopIndex",
          "type": "uint256"
        }
      ],
      "name": "settleAllPolicyTokens",
      "outputs": [],
      "stateMutability": "nonpayable",
      "type": "function"
    },
    {
      "inputs": [
        {
          "internalType": "string",
          "name": "_policyTokenName",
          "type": "string"
        }
      ],
      "name": "settleFinalResult",
      "outputs": [],
      "stateMutability": "nonpayable",
      "type": "function"
    },
    {
      "inputs": [
        {
          "internalType": "address",
          "name": "",
          "type": "address"
        }
      ],
      "name": "settleResult",
      "outputs": [
        {
          "internalType": "uint256",
          "name": "price",
          "type": "uint256"
        },
        {
          "internalType": "bool",
          "name": "isHappened",
          "type": "bool"
        },
        {
          "internalType": "bool",
          "name": "alreadySettled",
          "type": "bool"
        },
        {
          "internalType": "uint256",
          "name": "currentDistributionIndex",
          "type": "uint256"
        }
      ],
      "stateMutability": "view",
      "type": "function"
    },
    {
      "inputs": [
        {
          "internalType": "address",
          "name": "",
          "type": "address"
        }
      ],
      "name": "supportedStablecoin",
      "outputs": [
        {
          "internalType": "bool",
          "name": "",
          "type": "bool"
        }
      ],
      "stateMutability": "view",
      "type": "function"
    },
    {
      "inputs": [],
      "name": "toLottery",
      "outputs": [
        {
          "internalType": "uint256",
          "name": "",
          "type": "uint256"
        }
      ],
      "stateMutability": "view",
      "type": "function"
    },
    {
      "inputs": [
        {
          "internalType": "address",
          "name": "newOwner",
          "type": "address"
        }
      ],
      "name": "transferOwnership",
      "outputs": [],
      "stateMutability": "nonpayable",
      "type": "function"
    },
    {
      "inputs": [
        {
          "internalType": "address",
          "name": "",
          "type": "address"
        }
      ],
      "name": "whichStablecoin",
      "outputs": [
        {
          "internalType": "address",
          "name": "",
          "type": "address"
        }
      ],
      "stateMutability": "view",
      "type": "function"
    }
  ],
  "transactionHash": "0x682372a026f8998102484d316de9da91fae438bb931237064cced9e8933e53d8",
  "args": [
    "0xA7D7079b0FEaD91F3e65f86E8915Cb59c1a4C664",
    "0x4389817D9525a54211C2E14DaA03C6FBd42Dc23e",
    "0x00897AA2d5992d0bff7177da59553Ef4dD1e3776"
  ],
  "numDeployments": 1,
  "solcInputHash": "5d69373591e8167ec6bb1a459f6000ca",
  "bytecode": "0x60806040523480156200001157600080fd5b50604051620049db380380620049db83398101604081905262000034916200011c565b33620000408162000092565b506001600160a01b039283166000908152600b60205260409020805460ff1916600190811790915580549284166001600160a01b03199384161790556002805491909316911617815560075562000174565b600080546001600160a01b038381166001600160a01b0319831681178455604051919092169283917f8be0079c531659141344cd1fd0a4f28419497f9722a3daafe3b4186f6b6457e09190a35050565b60006001600160a01b0382165b92915050565b6200010081620000e2565b81146200010c57600080fd5b50565b8051620000ef81620000f5565b600080600060608486031215620001365762000136600080fd5b60006200014486866200010f565b935050602062000157868287016200010f565b92505060406200016a868287016200010f565b9150509250925092565b61485780620001846000396000f3fe608060405234801561001057600080fd5b50600436106102d35760003560e01c80637336c38d11610186578063c49df4bf116100e3578063eb9132dd11610097578063f15cac3411610071578063f15cac34146106eb578063f298083b146106fe578063f2fde38b1461071157600080fd5b8063eb9132dd146106bc578063f0cd3c1f146106cf578063f10cffbd146106d857600080fd5b8063d9e85c84116100c8578063d9e85c8414610650578063da14280714610670578063e6251237146106a957600080fd5b8063c49df4bf1461062a578063ceed1b901461063d57600080fd5b8063ba13a5721161013a578063bdc2b1661161011f578063bdc2b166146105e4578063be3f34a1146105f7578063c45a01551461060a57600080fd5b8063ba13a572146105be578063bb9febaf146105d157600080fd5b806394567d4e1161016b57806394567d4e14610578578063a815a2211461058b578063a8e577e31461059e57600080fd5b80637336c38d146105545780638da5cb5b1461056757600080fd5b80632a5c792a116102345780635cb3b14f116101e85780635eb1877e116101cd5780635eb1877e146105105780636978531a14610539578063715018a61461054c57600080fd5b80635cb3b14f146104cd5780635e49b5de146104fd57600080fd5b806339f677381161021957806339f67738146104365780634c330fbc146104a75780634e75ce89146104ba57600080fd5b80632a5c792a1461040e57806338081de21461042357600080fd5b80631306c0a51161028b5780631ee08fa1116102705780631ee08fa11461039c578063210123e5146103e85780632a48ac9a146103fb57600080fd5b80631306c0a51461036957806318dd152f1461038957600080fd5b806307962845116102bc578063079628451461030057806308d89d5f146103365780630dc726471461034957600080fd5b806303844097146102d85780630418945a146102ed575b600080fd5b6102eb6102e6366004612fb4565b610724565b005b6102eb6102fb366004613021565b610a53565b61032061030e366004613021565b60116020526000908152604090205481565b60405161032d919061304a565b60405180910390f35b6102eb610344366004613069565b610aea565b61035c6103573660046130d3565b610d77565b60405161032d9190613152565b61037c610377366004613163565b610e23565b60405161032d91906131a9565b61035c610397366004613021565b610e5b565b6103d86103aa366004613021565b601060205260009081526040902080546001820154600290920154909160ff80821692610100909204169084565b60405161032d94939291906131bf565b6102eb6103f6366004613021565b610e74565b6102eb610409366004613069565b610f16565b610416610fbf565b60405161032d91906132d0565b61035c610431366004613021565b61113c565b610494610444366004612fb4565b80516020818301810180516008825292820191909301209152805460018201546002830154600384015460048501546005909501546001600160a01b03851695600160a01b90950460ff16949087565b60405161032d97969594939291906132e1565b6102eb6104b5366004613021565b611209565b61037c6104c8366004612fb4565b6112ab565b6104f06104db366004613021565b600b6020526000908152604090205460ff1681565b60405161032d9190613349565b6102eb61050b36600461336a565b6112f5565b61037c61051e366004613021565b600c602052600090815260409020546001600160a01b031681565b60065461037c906001600160a01b031681565b6102eb611673565b6102eb610562366004613069565b6116b8565b6000546001600160a01b031661037c565b60045461037c906001600160a01b031681565b6102eb610599366004613021565b611894565b6103206105ac366004613021565b60126020526000908152604090205481565b60035461037c906001600160a01b031681565b61037c6105df366004613466565b611936565b6102eb6105f23660046130d3565b611aca565b6102eb610605366004613021565b611b64565b60015461061d906001600160a01b031681565b60405161032d9190613526565b6102eb610638366004613534565b611c2c565b60025461061d906001600160a01b031681565b61066361065e366004612fb4565b611efa565b60405161032d9190613581565b61032061067e36600461358f565b6001600160a01b039182166000908152600e6020908152604080832093909416825291909152205490565b60055461037c906001600160a01b031681565b6102eb6106ca366004613466565b611fc8565b61032060075481565b61035c6106e63660046135b1565b612373565b6102eb6106f936600461365e565b6124db565b6102eb61070c366004613021565b6125ee565b6102eb61071f366004613021565b612690565b80600060088260405161073791906136f2565b9081526020016040518091039020600501549050804210156107745760405162461bcd60e51b815260040161076b90613756565b60405180910390fd5b826000610780826112ab565b6001600160a01b038116600090815260106020526040902060010154909150610100900460ff16156107c45760405162461bcd60e51b815260040161076b906137be565b60006107cf866112ab565b6001600160a01b0381166000908152601060209081526040808320600d909252822080549394509092610801906137e4565b80601f016020809104026020016040519081016040528092919081815260200182805461082d906137e4565b801561087a5780601f1061084f5761010080835404028352916020019161087a565b820191906000526020600020905b81548152906001019060200180831161085d57829003601f168201915b50506002546040517ff66a1b710000000000000000000000000000000000000000000000000000000081529495506000946001600160a01b03909116935063f66a1b7192506108ce91508590600401613152565b6020604051808303816000875af11580156108ed573d6000803e3d6000fd5b505050506040513d601f19601f82011682018060405250810190610911919061381c565b60018401805461ff00191661010017905580845560405190915060009060089061093c908c906136f2565b908152604080516020928190038301812060e08201835280546001600160a01b0381168352600160a01b900460ff1615159382019390935260018301549181019190915260028201546060820152600382015460808201819052600483015460a083015260059092015460c0820152915060009083108015906109c0575081602001515b90506000826080015184111580156109da57508260200151155b9050600082806109e75750815b6109f25760006109f5565b60015b60018801805460ff19168215151790556040519091507f4f7bb4bf5b5d9e711ae7506fc1acd843eea9f216861a09c312fefb7e05095a3690610a3c908f908890859061383d565b60405180910390a150505050505050505050505050565b33610a666000546001600160a01b031690565b6001600160a01b031614610a8c5760405162461bcd60e51b815260040161076b9061389a565b6001600160a01b0381166000908152600b602052604090819020805460ff19166001179055517f86b377b6d485043d4a8b2b0c26051f82529ea2d7c23b1188598416473c12309390610adf9083906131a9565b60405180910390a150565b826000600882604051610afd91906136f2565b908152602001604051809103902060050154905080421015610b315760405162461bcd60e51b815260040161076b90613756565b84846000610b3e836112ab565b6001600160a01b038181166000908152600c6020526040902054919250838116911614610b7d5760405162461bcd60e51b815260040161076b90613902565b6000610b88896112ab565b6001600160a01b03811660009081526010602090815260409182902082516080810184528154808252600183015460ff80821615159584019590955261010090049093161515938101939093526002015460608301529192509015801590610bf1575080604001515b610c0d5760405162461bcd60e51b815260040161076b90613944565b8060200151610c2e5760405162461bcd60e51b815260040161076b906139ac565b60006103e8610c3f8a6103de6139d2565b610c499190613a07565b90506000610c57828b613a1b565b9050600a60075482610c6991906139d2565b610c739190613a07565b6001600160a01b038c1660009081526011602052604081208054909190610c9b908490613a32565b9091555050600754600a90610cb090836139d2565b610cba9190613a07565b610cc49082613a1b565b6001600160a01b038c1660009081526012602052604081208054909190610cec908490613a32565b90915550610d0690506001600160a01b038c1633846126fb565b604051632770a7eb60e21b815284906001600160a01b03821690639dc29fac90610d369033908f90600401613a4a565b600060405180830381600087803b158015610d5057600080fd5b505af1158015610d64573d6000803e3d6000fd5b5050505050505050505050505050505050565b600a8181548110610d8757600080fd5b906000526020600020016000915090508054610da2906137e4565b80601f0160208091040260200160405190810160405280929190818152602001828054610dce906137e4565b8015610e1b5780601f10610df057610100808354040283529160200191610e1b565b820191906000526020600020905b815481529060010190602001808311610dfe57829003601f168201915b505050505081565b600f6020528160005260406000208181548110610e3f57600080fd5b6000918252602090912001546001600160a01b03169150829050565b60096020526000908152604090208054610da2906137e4565b33610e876000546001600160a01b031690565b6001600160a01b031614610ead5760405162461bcd60e51b815260040161076b9061389a565b6004546040517ff4b601aa15ee1d2340ac8d1e8f1ddf16fe98866801b5c057bec51086aa6d750291610eec916001600160a01b03909116908490613a65565b60405180910390a1600480546001600160a01b0319166001600160a01b0392909216919091179055565b826000600882604051610f2991906136f2565b908152602001604051809103902060040154905080421115610f5d5760405162461bcd60e51b815260040161076b90613ad8565b84846000610f6a836112ab565b6001600160a01b038181166000908152600c6020526040902054919250838116911614610fa95760405162461bcd60e51b815260040161076b90613902565b610fb58888883361277e565b5050505050505050565b600a5460609060008167ffffffffffffffff811115610fe057610fe0612ebe565b60405190808252806020026020018201604052801561105c57816020015b6110496040518060e0016040528060006001600160a01b0316815260200160001515815260200160008152602001600081526020016000815260200160008152602001600081525090565b815260200190600190039081610ffe5790505b50905060005b82811015611135576008600a828154811061107f5761107f613ae8565b906000526020600020016040516110969190613b6c565b90815260408051918290036020908101832060e08401835280546001600160a01b038116855260ff600160a01b909104161515918401919091526001810154918301919091526002810154606083015260038101546080830152600481015460a08301526005015460c0820152825183908390811061111757611117613ae8565b6020026020010181905250808061112d90613b76565b915050611062565b5092915050565b6001600160a01b0381166000908152600960205260409020805460609190611163906137e4565b80601f016020809104026020016040519081016040528092919081815260200182805461118f906137e4565b80156111dc5780601f106111b1576101008083540402835291602001916111dc565b820191906000526020600020905b8154815290600101906020018083116111bf57829003601f168201915b5050505050905060008151116112045760405162461bcd60e51b815260040161076b90613bc3565b919050565b3361121c6000546001600160a01b031690565b6001600160a01b0316146112425760405162461bcd60e51b815260040161076b9061389a565b6006546040517f5a1397fff7d6f4aaebc9effcfc3a2fa8e89631d59ec574c1eaef6d709b5c9ab091611281916001600160a01b03909116908490613a65565b60405180910390a1600680546001600160a01b0319166001600160a01b0392909216919091179055565b60006008826040516112bd91906136f2565b908152604051908190036020019020546001600160a01b03169050806112045760405162461bcd60e51b815260040161076b90613c05565b336113086000546001600160a01b031690565b6001600160a01b03161461132e5760405162461bcd60e51b815260040161076b9061389a565b60128611158015611340575060128511155b61135c5760405162461bcd60e51b815260040161076b90613c47565b84886001600160a01b031663313ce5676040518163ffffffff1660e01b8152600401602060405180830381865afa15801561139b573d6000803e3d6000fd5b505050506040513d601f19601f820116820180604052508101906113bf9190613c6b565b60ff16146113df5760405162461bcd60e51b815260040161076b90613cbe565b4282116113fe5760405162461bcd60e51b815260040161076b90613d00565b8181101561141e5760405162461bcd60e51b815260040161076b90613d42565b600061142d8a88878b88612373565b6001546040517f87f0061a0000000000000000000000000000000000000000000000000000000081529192506000916001600160a01b03909116906387f0061a9061147e9085908b90600401613d52565b6020604051808303816000875af115801561149d573d6000803e3d6000fd5b505050506040513d601f19601f820116820180604052508101906114c19190613d7d565b90506040518060e00160405280826001600160a01b031681526020018a151581526020018981526020018881526020018781526020018581526020018481525060088360405161151191906136f2565b9081526040805191829003602090810190922083518154858501511515600160a01b027fffffffffffffffffffffff0000000000000000000000000000000000000000009091166001600160a01b0392831617178255848301516001830155606085015160028301556080850151600383015560a0850151600483015560c0909401516005909101559183166000908152600d8252919091208c516115b8928e0190612e25565b506001600160a01b038116600090815260096020908152604090912083516115e292850190612e25565b50600a80546001810182556000919091528251611626917fc65a7bb8d6351c1cf70c95a316cc6a92839c986682d98bc35f958f4883f9d2a801906020850190612e25565b507f5c781be7034983eed256e8250b1df5111e452c6dd41a3e415bdeda1cac923488828289878760405161165e959493929190613d9e565b60405180910390a15050505050505050505050565b336116866000546001600160a01b031690565b6001600160a01b0316146116ac5760405162461bcd60e51b815260040161076b9061389a565b6116b66000612907565b565b8260006008826040516116cb91906136f2565b9081526020016040518091039020600401549050804211156116ff5760405162461bcd60e51b815260040161076b90613ad8565b8484600061170c836112ab565b6001600160a01b038181166000908152600c602052604090205491925083811691161461174b5760405162461bcd60e51b815260040161076b90613902565b6000611756896112ab565b336000908152600e602090815260408083206001600160a01b038516845290915290205490915087111561179c5760405162461bcd60e51b815260040161076b90613e21565b336000908152600e602090815260408083206001600160a01b0385168452909152812080548992906117cf908490613a1b565b909155506117e990506001600160a01b03891633896126fb565b604051632770a7eb60e21b815281906001600160a01b03821690639dc29fac906118199033908c90600401613a4a565b600060405180830381600087803b15801561183357600080fd5b505af1158015611847573d6000803e3d6000fd5b505050507fae452465b27fa0406f99c961c3bbf8215e6dabe24c0da5dd5981206d9038500a338b8b8b6040516118809493929190613e31565b60405180910390a150505050505050505050565b336118a76000546001600160a01b031690565b6001600160a01b0316146118cd5760405162461bcd60e51b815260040161076b9061389a565b6005546040517f991cc531d0c7ce0a4a8db8a26f722bbbe727c8f45445520fa447050bb313457f9161190c916001600160a01b03909116908490613a65565b60405180910390a1600580546001600160a01b0319166001600160a01b0392909216919091179055565b6001600160a01b0383166000908152600b6020526040812054849060ff1615156001146119755760405162461bcd60e51b815260040161076b90613eb8565b8560006001600160a01b031660088260405161199191906136f2565b908152604051908190036020019020546001600160a01b031614156119c85760405162461bcd60e51b815260040161076b90613f20565b6000546001600160a01b03163314806119eb57506006546001600160a01b031633145b611a075760405162461bcd60e51b815260040161076b90613f62565b428511611a265760405162461bcd60e51b815260040161076b90613d00565b600887604051611a3691906136f2565b9081526020016040518091039020600401548514611a665760405162461bcd60e51b815260040161076b90613fca565b6000611a71886112ab565b90506000611a8182898989612957565b90507f04c12766244f2559dd215eecd69f70fdfce0e2c2260b5d52cb8b63738622eaa481838a604051611ab693929190613fda565b60405180910390a198975050505050505050565b33611add6000546001600160a01b031690565b6001600160a01b031614611b035760405162461bcd60e51b815260040161076b9061389a565b600a811115611b245760405162461bcd60e51b815260040161076b90614034565b7f5102efe34236afea4a39241911bce7d2001cd809276c20be9dceb33a59c13cc660075482604051611b57929190614044565b60405180910390a1600755565b6003546001600160a01b031615801590611b8857506004546001600160a01b031615155b611ba45760405162461bcd60e51b815260040161076b906140aa565b6001600160a01b03811660009081526011602090815260408083205460129092529091205481151580611bd75750600081115b611bf35760405162461bcd60e51b815260040161076b906140ec565b600354611c0d906001600160a01b038581169116846126fb565b600454611c27906001600160a01b038581169116836126fb565b505050565b816000600882604051611c3f91906136f2565b908152602001604051809103902060050154905080421015611c735760405162461bcd60e51b815260040161076b90613756565b83836000611c80836112ab565b6001600160a01b038181166000908152600c6020526040902054919250838116911614611cbf5760405162461bcd60e51b815260040161076b90613902565b6000611cca886112ab565b6001600160a01b03811660009081526010602090815260409182902082516080810184528154808252600183015460ff80821615159584019590955261010090049093161515938101939093526002015460608301529192509015801590611d33575080604001515b611d4f5760405162461bcd60e51b815260040161076b90613944565b602081015115611d715760405162461bcd60e51b815260040161076b90614154565b336000908152600e602090815260408083206001600160a01b038616845290915290205480611db25760405162461bcd60e51b815260040161076b906141bc565b60006103e8611dc3836103de6139d2565b611dcd9190613a07565b90506000611ddb8284613a1b565b9050600a60075482611ded91906139d2565b611df79190613a07565b6001600160a01b038c1660009081526011602052604081208054909190611e1f908490613a32565b9091555050600754600a90611e3490836139d2565b611e3e9190613a07565b611e489082613a1b565b6001600160a01b038c1660009081526012602052604081208054909190611e70908490613a32565b90915550611e8a90506001600160a01b038c1633846126fb565b336000818152600e602090815260408083206001600160a01b038a16845290915280822091909155517f03562b7020b16271daf63f8af4dfad66194d3a83359909327c31983326b1287f91611ee4918f908f908790613e31565b60405180910390a1505050505050505050505050565b611f456040518060e0016040528060006001600160a01b0316815260200160001515815260200160008152602001600081526020016000815260200160008152602001600081525090565b600882604051611f5591906136f2565b90815260408051918290036020908101832060e08401835280546001600160a01b038116855260ff600160a01b909104161515918401919091526001810154918301919091526002810154606083015260038101546080830152600481015460a08301526005015460c082015292915050565b33611fdb6000546001600160a01b031690565b6001600160a01b0316146120015760405162461bcd60e51b815260040161076b9061389a565b600061200c856112ab565b6001600160a01b03811660009081526010602090815260409182902082516080810184528154808252600183015460ff8082161515958401959095526101009004909316151593810193909352600201546060830152919250901580159061207a5750604081015115156001145b6120965760405162461bcd60e51b815260040161076b90613944565b6020810151156120b85760405162461bcd60e51b815260040161076b90614154565b6001600160a01b0382166000908152600f602052604081205460608301518110156120f55760405162461bcd60e51b815260040161076b906141fe565b85158015612101575084155b1561221a576121138488600084612a28565b61211d9083613a32565b6001600160a01b0385166000908152601060205260409020600201829055600754909250600a9061214e90846139d2565b6121589190613a07565b6001600160a01b03881660009081526011602052604081208054909190612180908490613a32565b9091555050600754600a9061219590846139d2565b61219f9190613a07565b6121a99083613a1b565b6001600160a01b038816600090815260126020526040812080549091906121d1908490613a32565b90915550506040517fb882f84541d4c34087dd3a3971b96ad170bc52a7907def174bb86f986bce6e2c9061220d908a908a906000908690614223565b60405180910390a1610fb5565b8583606001511461223d5760405162461bcd60e51b815260040161076b906142a8565b80851061225c5760405162461bcd60e51b815260040161076b906142ea565b61226884888888612a28565b6122729083613a32565b6001600160a01b0385166000908152601060205260409020600201869055600754909250600a906122a390846139d2565b6122ad9190613a07565b6001600160a01b038816600090815260116020526040812080549091906122d5908490613a32565b9091555050600754600a906122ea90846139d2565b6122f49190613a07565b6122fe9083613a1b565b6001600160a01b03881660009081526012602052604081208054909190612326908490613a32565b90915550506040517fb882f84541d4c34087dd3a3971b96ad170bc52a7907def174bb86f986bce6e2c90612361908a908a908a908a906142fa565b60405180910390a15050505050505050565b60606000836123b7576040518060400160405280600181526020017f4c000000000000000000000000000000000000000000000000000000000000008152506123ee565b6040518060400160405280600181526020017f48000000000000000000000000000000000000000000000000000000000000008152505b90506000612404670de0b6b3a764000087613a07565b9050600081116124265760405162461bcd60e51b815260040161076b90614359565b6000612433886012613a1b565b61243e90600a614477565b61245290670de0b6b3a76400008906613a07565b90506002881061249057612467600189613a1b565b61247290600a614477565b81116124905760405162461bcd60e51b815260040161076b906144b8565b60008961249c84612b32565b6124a584612b32565b86896040516020016124bb95949392919061451a565b60408051601f198184030181529190529450505050505b95945050505050565b8360006008826040516124ee91906136f2565b9081526020016040518091039020600401549050804211156125225760405162461bcd60e51b815260040161076b90613ad8565b8585600061252f836112ab565b6001600160a01b038181166000908152600c602052604090205491925083811691161461256e5760405162461bcd60e51b815260040161076b90613902565b6005546001600160a01b031633146125985760405162461bcd60e51b815260040161076b906145d8565b6125a48989898961277e565b7f99f877ebe25ff1544a89db7db58d9d0b180af2288344cf1792272a4a07fd7c9933878b8b8b6040516125db9594939291906145e8565b60405180910390a1505050505050505050565b336126016000546001600160a01b031690565b6001600160a01b0316146126275760405162461bcd60e51b815260040161076b9061389a565b6003546040517f5bbcd5c9a4c18f44ac2b1174e1034735fda1eb2008b8cc091ef347c7f6b9690a91612666916001600160a01b03909116908490613a65565b60405180910390a1600380546001600160a01b0319166001600160a01b0392909216919091179055565b336126a36000546001600160a01b031690565b6001600160a01b0316146126c95760405162461bcd60e51b815260040161076b9061389a565b6001600160a01b0381166126ef5760405162461bcd60e51b815260040161076b9061467c565b6126f881612907565b50565b611c278363a9059cbb60e01b848460405160240161271a929190613a4a565b60408051601f198184030181529190526020810180517bffffffffffffffffffffffffffffffffffffffffffffffffffffffff167fffffffff0000000000000000000000000000000000000000000000000000000090931692909217909152612c64565b6000612789856112ab565b6001600160a01b038084166000908152600e60209081526040808320938516835292905220549091506127f5576001600160a01b038181166000908152600f602090815260408220805460018101825590835291200180546001600160a01b0319169184169190911790555b6001600160a01b038083166000908152600e602090815260408083209385168352929052908120805485929061282c908490613a32565b9091555061284790506001600160a01b038516833086612cf3565b6040517f40c10f1900000000000000000000000000000000000000000000000000000000815281906001600160a01b038216906340c10f19906128909086908890600401613a4a565b600060405180830381600087803b1580156128aa57600080fd5b505af11580156128be573d6000803e3d6000fd5b505050507faad69ef0c77f7c04ba3390022ae56a77ba8686b6cd9530eff3a0a8c38d33e5ad838787876040516128f79493929190613e31565b60405180910390a1505050505050565b600080546001600160a01b038381166001600160a01b0319831681178455604051919092169283917f8be0079c531659141344cd1fd0a4f28419497f9722a3daafe3b4186f6b6457e09190a35050565b6001546040517f3a5f69f800000000000000000000000000000000000000000000000000000000815260009182916001600160a01b0390911690633a5f69f8906129ab90899089908990899060040161468c565b6020604051808303816000875af11580156129ca573d6000803e3d6000fd5b505050506040513d601f19601f820116820180604052508101906129ee9190613d7d565b6001600160a01b038781166000908152600c6020526040902080546001600160a01b0319169188169190911790559150505b949350505050565b6000825b82811015612b29576001600160a01b0386166000908152600f60205260408120805483908110612a5e57612a5e613ae8565b60009182526020808320909101546001600160a01b03908116808452600e83526040808520928c16855291909252822054909250906103e8612aa2836103de6139d2565b612aac9190613a07565b90508015612b0b57612ac86001600160a01b03891684836126fb565b6001600160a01b038084166000908152600e60209081526040808320938d16835292905290812055612afa8183613a1b565b612b049086613a32565b9450612b13565b505050612b17565b5050505b80612b2181613b76565b915050612a2c565b50949350505050565b606081612b7257505060408051808201909152600181527f3000000000000000000000000000000000000000000000000000000000000000602082015290565b8160005b8115612b9c5780612b8681613b76565b9150612b959050600a83613a07565b9150612b76565b60008167ffffffffffffffff811115612bb757612bb7612ebe565b6040519080825280601f01601f191660200182016040528015612be1576020820181803683370190505b5090505b8415612a2057612bf6600183613a1b565b9150612c03600a866146a7565b612c0e906030613a32565b60f81b818381518110612c2357612c23613ae8565b60200101907effffffffffffffffffffffffffffffffffffffffffffffffffffffffffffff1916908160001a905350612c5d600a86613a07565b9450612be5565b6000612cb9826040518060400160405280602081526020017f5361666545524332303a206c6f772d6c6576656c2063616c6c206661696c6564815250856001600160a01b0316612d1a9092919063ffffffff16565b805190915015611c275780806020019051810190612cd791906146c6565b611c275760405162461bcd60e51b815260040161076b9061473f565b612d14846323b872dd60e01b85858560405160240161271a9392919061474f565b50505050565b6060612d298484600085612d33565b90505b9392505050565b606082471015612d555760405162461bcd60e51b815260040161076b906147cf565b843b612d735760405162461bcd60e51b815260040161076b90614811565b600080866001600160a01b03168587604051612d8f91906136f2565b60006040518083038185875af1925050503d8060008114612dcc576040519150601f19603f3d011682016040523d82523d6000602084013e612dd1565b606091505b5091509150612de1828286612dec565b979650505050505050565b60608315612dfb575081612d2c565b825115612e0b5782518084602001fd5b8160405162461bcd60e51b815260040161076b9190613152565b828054612e31906137e4565b90600052602060002090601f016020900481019282612e535760008555612e99565b82601f10612e6c57805160ff1916838001178555612e99565b82800160010185558215612e99579182015b82811115612e99578251825591602001919060010190612e7e565b50612ea5929150612ea9565b5090565b5b80821115612ea55760008155600101612eaa565b634e487b7160e01b600052604160045260246000fd5b601f19601f830116810181811067ffffffffffffffff82111715612efa57612efa612ebe565b6040525050565b6000612f0c60405190565b90506112048282612ed4565b600067ffffffffffffffff821115612f3257612f32612ebe565b601f19601f83011660200192915050565b82818337506000910152565b6000612f62612f5d84612f18565b612f01565b905082815260208101848484011115612f7d57612f7d600080fd5b612f88848285612f43565b509392505050565b600082601f830112612fa457612fa4600080fd5b8135612a20848260208601612f4f565b600060208284031215612fc957612fc9600080fd5b813567ffffffffffffffff811115612fe357612fe3600080fd5b612a2084828501612f90565b60006001600160a01b0382165b92915050565b61300b81612fef565b81146126f857600080fd5b8035612ffc81613002565b60006020828403121561303657613036600080fd5b6000612a208484613016565b805b82525050565b60208101612ffc8284613042565b8061300b565b8035612ffc81613058565b60008060006060848603121561308157613081600080fd5b833567ffffffffffffffff81111561309b5761309b600080fd5b6130a786828701612f90565b93505060206130b886828701613016565b92505060406130c98682870161305e565b9150509250925092565b6000602082840312156130e8576130e8600080fd5b6000612a20848461305e565b60005b8381101561310f5781810151838201526020016130f7565b83811115612d145750506000910152565b600061312a825190565b8084526020840193506131418185602086016130f4565b601f01601f19169290920192915050565b60208082528101612d2c8184613120565b6000806040838503121561317957613179600080fd5b60006131858585613016565b92505060206131968582860161305e565b9150509250929050565b61304481612fef565b60208101612ffc82846131a0565b801515613044565b608081016131cd8287613042565b6131da60208301866131b7565b6131e760408301856131b7565b6124d26060830184613042565b805161320083826131a0565b50602081015161321360208401826131b7565b5060408101516132266040840182613042565b5060608101516132396060840182613042565b50608081015161324c6080840182613042565b5060a081015161325f60a0840182613042565b5060c0810151611c2760c0840182613042565b61327c82826131f4565b5060e00190565b60200190565b6000613293825190565b808452602093840193830160005b828110156132c65781516132b58782613272565b9650506020820191506001016132a1565b5093949350505050565b60208082528101612d2c8184613289565b60e081016132ef828a6131a0565b6132fc60208301896131b7565b6133096040830188613042565b6133166060830187613042565b6133236080830186613042565b61333060a0830185613042565b61333d60c0830184613042565b98975050505050505050565b60208101612ffc82846131b7565b80151561300b565b8035612ffc81613357565b60008060008060008060008060006101208a8c03121561338c5761338c600080fd5b893567ffffffffffffffff8111156133a6576133a6600080fd5b6133b28c828d01612f90565b99505060206133c38c828d01613016565b98505060406133d48c828d0161335f565b97505060606133e58c828d0161305e565b96505060806133f68c828d0161305e565b95505060a06134078c828d0161305e565b94505060c08a013567ffffffffffffffff81111561342757613427600080fd5b6134338c828d01612f90565b93505060e06134448c828d0161305e565b9250506101006134568c828d0161305e565b9150509295985092959850929598565b6000806000806080858703121561347f5761347f600080fd5b843567ffffffffffffffff81111561349957613499600080fd5b6134a587828801612f90565b94505060206134b687828801613016565b93505060406134c78782880161305e565b92505060606134d88782880161305e565b91505092959194509250565b6000612ffc6001600160a01b0383166134fb565b90565b6001600160a01b031690565b6000612ffc826134e4565b6000612ffc82613507565b61304481613512565b60208101612ffc828461351d565b6000806040838503121561354a5761354a600080fd5b823567ffffffffffffffff81111561356457613564600080fd5b61357085828601612f90565b925050602061319685828601613016565b60e08101612ffc82846131f4565b600080604083850312156135a5576135a5600080fd5b60006135708585613016565b600080600080600060a086880312156135cc576135cc600080fd5b853567ffffffffffffffff8111156135e6576135e6600080fd5b6135f288828901612f90565b95505060206136038882890161305e565b94505060406136148882890161305e565b93505060606136258882890161335f565b925050608086013567ffffffffffffffff81111561364557613645600080fd5b61365188828901612f90565b9150509295509295909350565b6000806000806080858703121561367757613677600080fd5b843567ffffffffffffffff81111561369157613691600080fd5b61369d87828801612f90565b94505060206136ae87828801613016565b93505060406136bf8782880161305e565b92505060606134d887828801613016565b60006136da825190565b6136e88185602086016130f4565b9290920192915050565b612ffc81836136d0565b60368152602081017f43616e206e6f7420736574746c652f636c61696d2c2068617665206e6f74207281527f65616368656420736574746c6554696d657374616d7000000000000000000000602082015290505b60400190565b60208082528101612ffc816136fc565b60248152602081017f5468697320706f6c6963792068617320616c7265616479206265656e2073657481527f746c65640000000000000000000000000000000000000000000000000000000060208201529050613750565b60208082528101612ffc81613766565b634e487b7160e01b600052602260045260246000fd5b6002810460018216806137f857607f821691505b6020821081141561380b5761380b6137ce565b50919050565b8051612ffc81613058565b60006020828403121561383157613831600080fd5b6000612a208484613811565b6060808252810161384e8186613120565b905061385d6020830185613042565b612a2060408301846131b7565b60208082527f4f776e61626c653a2063616c6c6572206973206e6f7420746865206f776e65729101908152613283565b60208082528101612ffc8161386a565b60238152602081017f496e76616c696420706f6c696379746f6b656e207769746820737461626c656381527f6f696e000000000000000000000000000000000000000000000000000000000060208201529050613750565b60208082528101612ffc816138aa565b601e8152602081017f48617665206e6f7420676f7420746865206f7261636c6520726573756c74000081529050613283565b60208082528101612ffc81613912565b602d8152602081017f54686520726573756c7420646f6573206e6f742068617070656e2c20796f752081527f63616e206e6f7420636c61696d0000000000000000000000000000000000000060208201529050613750565b60208082528101612ffc81613954565b634e487b7160e01b600052601160045260246000fd5b60008160001904831182151516156139ec576139ec6139bc565b500290565b634e487b7160e01b600052601260045260246000fd5b600082613a1657613a166139f1565b500490565b600082821015613a2d57613a2d6139bc565b500390565b60008219821115613a4557613a456139bc565b500190565b60408101613a5882856131a0565b612d2c6020830184613042565b60408101613a7382856131a0565b612d2c60208301846131a0565b602f8152602081017f43616e206e6f74206465706f7369742f72656465656d2c20686173207061737381527f65642074686520646561646c696e65000000000000000000000000000000000060208201529050613750565b60208082528101612ffc81613a80565b634e487b7160e01b600052603260045260246000fd5b60008154613b0b816137e4565b600182168015613b225760018114613b3357613b63565b60ff19831686528186019350613b63565b60008581526020902060005b83811015613b5b57815488820152600190910190602001613b3f565b505081860193505b50505092915050565b612ffc8183613afe565b6000600019821415613b8a57613b8a6139bc565b5060010190565b60158152602081017f506f6c696379206e616d65206e6f7420666f756e64000000000000000000000081529050613283565b60208082528101612ffc81613b91565b60168152602081017f506f6c69637920746f6b656e206e6f7420666f756e640000000000000000000081529050613283565b60208082528101612ffc81613bd3565b60118152602081017f546f6f206d616e7920646563696d616c7300000000000000000000000000000081529050613283565b60208082528101612ffc81613c15565b60ff811661300b565b8051612ffc81613c57565b600060208284031215613c8057613c80600080fd5b6000612a208484613c60565b60138152602081017f446563696d616c73206e6f74207061697265640000000000000000000000000081529050613283565b60208082528101612ffc81613c8c565b600e8152602081017f57726f6e6720646561646c696e6500000000000000000000000000000000000081529050613283565b60208082528101612ffc81613cce565b60158152602081017f57726f6e6720736574746c6554696d657374616d70000000000000000000000081529050613283565b60208082528101612ffc81613d10565b60408082528101613d638185613120565b9050612d2c6020830184613042565b8051612ffc81613002565b600060208284031215613d9257613d92600080fd5b6000612a208484613d72565b60a08082528101613daf8188613120565b9050613dbe60208301876131a0565b613dcb6040830186613042565b613dd86060830185613042565b613de56080830184613042565b9695505050505050565b601b8152602081017f5573657227732071756f7461206e6f742073756666696369656e74000000000081529050613283565b60208082528101612ffc81613def565b60808101613e3f82876131a0565b8181036020830152613e518186613120565b90506131e760408301856131a0565b60288152602081017f446f206e6f7420737570706f7274207468697320737461626c65636f696e206381527f757272656e746c7900000000000000000000000000000000000000000000000060208201529050613750565b60208082528101612ffc81613e60565b603f8152602081017f5468697320706f6c69637920746f6b656e20686173206e6f74206265656e206481527f65706c6f7965642c20706c65617365206465706c6f792069742066697273740060208201529050613750565b60208082528101612ffc81613ec8565b60118152602081017f4f6e6c79206f776e6572206f7220494c4d00000000000000000000000000000081529050613283565b60208082528101612ffc81613f30565b602b8152602081017f506f6c69637920746f6b656e20616e6420706f6f6c20646561646c696e65206e81527f6f74207468652073616d6500000000000000000000000000000000000000000060208201529050613750565b60208082528101612ffc81613f72565b60608101613fe882866131a0565b613ff560208301856131a0565b612a2060408301846131a0565b60068152602081017f4d6178203130000000000000000000000000000000000000000000000000000081529050613283565b60208082528101612ffc81614002565b60408101613a588285613042565b602e8152602081017f506c656173652073657420746865206c6f7474657279202620696e636f6d655381527f686172696e67206164647265737300000000000000000000000000000000000060208201529050613750565b60208082528101612ffc81614052565b60118152602081017f4e6f2070656e64696e6720696e636f6d6500000000000000000000000000000081529050613283565b60208082528101612ffc816140ba565b60368152602081017f4f6e6c792063616c6c20746869732066756e6374696f6e207768656e2074686581527f206576656e7420646f6573206e6f742068617070656e0000000000000000000060208201529050613750565b60208082528101612ffc816140fc565b603b8152602081017f4e6f2071756f74612c20796f7520646964206e6f74206465706f73697420616e81527f64206d696e7420706f6c69637920746f6b656e73206265666f7265000000000060208201529050613750565b60208082528101612ffc81614164565b60148152602081017f4861766520646973747269627574656420616c6c00000000000000000000000081529050613283565b60208082528101612ffc816141cc565b6000612ffc6134f88381565b6130448161420e565b608080825281016142348187613120565b905061424360208301866131a0565b6131e7604083018561421a565b60328152602081017f596f75206e65656420746f2073746172742066726f6d20746865206c6173742081527f646973747269627574696f6e20706f696e74000000000000000000000000000060208201529050613750565b60208082528101612ffc81614250565b60128152602081017f496e76616c69642073746f7020696e646578000000000000000000000000000081529050613283565b60208082528101612ffc816142b8565b6080808252810161430b8187613120565b905061431a60208301866131a0565b6131e76040830185613042565b60108152602081017f496e76616c696420696e7420706172740000000000000000000000000000000081529050613283565b60208082528101612ffc81614327565b80825b60018511156143a857808604811115614387576143876139bc565b600185161561439557908102905b80026143a18560011c90565b945061436c565b94509492505050565b6000826143c057506001612d2c565b816143cd57506000612d2c565b81600181146143e357600281146143ed5761441a565b6001915050612d2c565b60ff8411156143fe576143fe6139bc565b8360020a915084821115614414576144146139bc565b50612d2c565b5060208310610133831016604e8410600b841016171561444d575081810a83811115614448576144486139bc565b612d2c565b61445a8484846001614369565b92509050818404811115614470576144706139bc565b0292915050565b6000612d2c60001984846143b1565b60148152602081017f496e76616c696420646563696d616c207061727400000000000000000000000081529050613283565b60208082528101612ffc81614486565b7f5f0000000000000000000000000000000000000000000000000000000000000081525b60010190565b7f2e0000000000000000000000000000000000000000000000000000000000000081526144ec565b61452481876136d0565b905061452f816144c8565b905061453b81866136d0565b9050614546816144f2565b905061455281856136d0565b905061455d816144c8565b905061456981846136d0565b9050614574816144c8565b9050613de581836136d0565b60258152602081017f4f6e6c792074686520726f7574657220636f6e74726163742063616e2064656c81527f656761746500000000000000000000000000000000000000000000000000000060208201529050613750565b60208082528101612ffc81614580565b60a081016145f682886131a0565b61460360208301876131a0565b81810360408301526146158186613120565b9050613dd860608301856131a0565b60268152602081017f4f776e61626c653a206e6577206f776e657220697320746865207a65726f206181527f646472657373000000000000000000000000000000000000000000000000000060208201529050613750565b60208082528101612ffc81614624565b6080810161469a82876131a0565b61431a60208301866131a0565b6000826146b6576146b66139f1565b500690565b8051612ffc81613357565b6000602082840312156146db576146db600080fd5b6000612a2084846146bb565b602a8152602081017f5361666545524332303a204552433230206f7065726174696f6e20646964206e81527f6f7420737563636565640000000000000000000000000000000000000000000060208201529050613750565b60208082528101612ffc816146e7565b6060810161475d82866131a0565b61476a60208301856131a0565b612a206040830184613042565b60268152602081017f416464726573733a20696e73756666696369656e742062616c616e636520666f81527f722063616c6c000000000000000000000000000000000000000000000000000060208201529050613750565b60208082528101612ffc81614777565b601d8152602081017f416464726573733a2063616c6c20746f206e6f6e2d636f6e747261637400000081529050613283565b60208082528101612ffc816147df56fea2646970667358221220bd10b9f4ff443e0a28e8c74a75c6302511fcb2243482a12f0764b32ba768a4f964736f6c634300080a0033",
  "devdoc": {
    "details": "Most of the functions to be called from outside will use the name of policyToken         rather than the address (easy to read).         Other variables or functions still use address to index.         The rule of policyToken naming is:              Original Token Name(with decimals) + Strike Price + Lower or Higher + Date         E.g.  AVAX_30.0_L_2101, BTC_30000.0_L_2102, ETH_8000.0_H_2109         (the original name need to be the same as in the chainlink oracle)         There are three decimals for a policy token:              1. Name decimals: Only for generating the name of policyToken              2. Token decimals: The decimals of the policyToken                 (should be the same as the paired stablecoin)              3. Price decimals: Always 18. The oracle result will be transferred for settlement",
    "kind": "dev",
    "methods": {
      "_generateName(string,uint256,uint256,bool,string)": {
        "params": {
          "_decimals": "Decimals of the name generation (0,1=>1, 2=>2)",
          "_isCall": "The policy's payoff is triggered when higher(true) or lower(false)",
          "_round": "Round of the policy, named by <month><day> (e.g. 0320, 1215)",
          "_strikePrice": "Strike price of the policy (18 decimals)",
          "_tokenName": "Name of the stike token (BTC, ETH, AVAX...)"
        }
      },
      "addStablecoin(address)": {
        "params": {
          "_newStablecoin": "Address of the new stablecoin"
        }
      },
      "claim(string,address,uint256)": {
        "details": "It is done after result settlement and only if the result is true",
        "params": {
          "_amount": "Amount of stablecoin",
          "_policyTokenName": "Name of the policy token",
          "_stablecoin": "Address of the stable coin"
        }
      },
      "collectIncome(address)": {
        "details": "Can be done by anyone, only when there is some income to be distributed",
        "params": {
          "_stablecoin": "Address of stablecoin"
        }
      },
      "constructor": {
        "params": {
          "_factory": "Address of naughty factory",
          "_priceGetter": "Address of the oracle contract",
          "_usdt": "USDT.e is the first stablecoin supported in the pool"
        }
      },
      "delegateDeposit(string,address,uint256,address)": {
        "details": "Only called by the router contract",
        "params": {
          "_amount": "Amount of stablecoin",
          "_policyTokenName": "Name of the policy token",
          "_stablecoin": "Address of the sable coin",
          "_user": "Address to receive the policy tokens"
        }
      },
      "deployPolicyToken(string,address,bool,uint256,uint256,uint256,string,uint256,uint256)": {
        "details": "Only the owner can deploy new policy token      The name form is like \"AVAX_50_L_2203\" and is built inside the contract.",
        "params": {
          "_deadline": "Deadline of this policy token (deposit / redeem / swap)",
          "_isCall": "The policy is for higher or lower than the strike price (call / put)",
          "_nameDecimals": "Decimals of this token's name (0~18)",
          "_round": "Round of the token (e.g. 2203 -> expired at 22 March)",
          "_settleTimestamp": "Can settle after this timestamp (for oracle)",
          "_stablecoin": "Address of the stablecoin (Just for check decimals here)",
          "_strikePrice": "Strike price of the policy (have already been transferred with 1e18)",
          "_tokenDecimals": "Decimals of this token's value (0~18) (same as paired stablecoin)",
          "_tokenName": "Name of the original token (e.g. AVAX, BTC, ETH...)"
        }
      },
      "deployPool(string,address,uint256,uint256)": {
        "params": {
          "_feeRate": "Fee rate given to LP holders",
          "_policyTokenName": "Name of the policy token",
          "_poolDeadline": "Swapping deadline of the pool (normally the same as the token's deadline)",
          "_stablecoin": "Address of the stable coin"
        }
      },
      "deposit(string,address,uint256)": {
        "params": {
          "_amount": "Amount of stablecoin",
          "_policyTokenName": "Name of the policy token",
          "_stablecoin": "Address of the stable coin"
        }
      },
      "findAddressbyName(string)": {
        "params": {
          "_policyTokenName": "Name of the policy token (e.g. \"AVAX_30_L_2103\")"
        },
        "returns": {
          "policyTokenAddress": "Address of the policy token"
        }
      },
      "findNamebyAddress(address)": {
        "params": {
          "_policyTokenAddress": "Address of the policy token"
        },
        "returns": {
          "policyTokenName": "Name of the policy token"
        }
      },
      "getAllTokens()": {
        "details": "Include all active&expired tokens",
        "returns": {
          "_0": "tokensInfo Token information list"
        }
      },
      "getPolicyTokenInfo(string)": {
        "params": {
          "_policyTokenName": "Name of the policy token (e.g. \"AVAX30L202103\")"
        },
        "returns": {
          "_0": "policyTokenInfo PolicyToken detail information"
        }
      },
      "getUserQuota(address,address)": {
        "params": {
          "_policyTokenAddress": "Address of the policy token",
          "_user": "Address of the user to be checked"
        },
        "returns": {
          "_quota": "User's quota result"
        }
      },
      "redeem(string,address,uint256)": {
        "details": "Redeem happens before the deadline and is different from claim/settle",
        "params": {
          "_amount": "Amount to redeem",
          "_policyTokenName": "Name of the policy token",
          "_stablecoin": "Address of the stablecoin"
        }
      },
      "redeemAfterSettlement(string,address)": {
        "params": {
          "_policyTokenName": "Name of the policy token",
          "_stablecoin": "Address of the stablecoin"
        }
      },
      "renounceOwnership()": {
        "details": "Renouncing ownership will leave the contract without an owner,         thereby removing any functionality that is only available to the owner."
      },
      "setIncomeSharing(address)": {
        "params": {
          "_incomeSharing": "Address of the new incomeSharing"
        }
      },
      "setLottery(address)": {
        "params": {
          "_lotteryAddress": "Address of the new lottery"
        }
      },
      "setNaughtyRouter(address)": {
        "params": {
          "_router": "Address of the new naughty router"
        }
      },
      "settleAllPolicyTokens(string,address,uint256,uint256)": {
        "details": "Take care of the gas cost and can use the _startIndex and _stopIndex to control the size",
        "params": {
          "_policyTokenName": "Name of policy token",
          "_stablecoin": "Address of stablecoin",
          "_startIndex": "Settlement start index",
          "_stopIndex": "Settlement stop index"
        }
      },
      "settleFinalResult(string)": {
        "params": {
          "_policyTokenName": "Name of the policy token"
        }
      },
      "transferOwnership(address)": {
        "details": "Can only be called by the current owner.",
        "params": {
          "newOwner": "Address of the new owner"
        }
      }
    },
    "title": "PolicyCore",
    "version": 1
  },
  "userdoc": {
    "kind": "user",
    "methods": {
      "_generateName(string,uint256,uint256,bool,string)": {
        "notice": "Generate the policy token name"
      },
      "addStablecoin(address)": {
        "notice": "Add a new supported stablecoin"
      },
      "claim(string,address,uint256)": {
        "notice": "Claim a payoff based on policy tokens"
      },
      "collectIncome(address)": {
        "notice": "Collect the income"
      },
      "constructor": {
        "notice": "Constructor, for some addresses"
      },
      "delegateDeposit(string,address,uint256,address)": {
        "notice": "Delegate deposit (deposit and mint for other addresses)"
      },
      "deployPolicyToken(string,address,bool,uint256,uint256,uint256,string,uint256,uint256)": {
        "notice": "Deploy a new policy token and return the token address"
      },
      "deployPool(string,address,uint256,uint256)": {
        "notice": "Deploy a new pair (pool)"
      },
      "deposit(string,address,uint256)": {
        "notice": "Deposit stablecoins and get policy tokens"
      },
      "findAddressbyName(string)": {
        "notice": "Find the token address by its name"
      },
      "findNamebyAddress(address)": {
        "notice": "Find the token name by its address"
      },
      "getAllTokens()": {
        "notice": "Get the information about all the tokens"
      },
      "getPolicyTokenInfo(string)": {
        "notice": "Find the token information by its name"
      },
      "getUserQuota(address,address)": {
        "notice": "Get a user's quota for a certain policy token"
      },
      "owner()": {
        "notice": "Returns the address of the current owner."
      },
      "redeem(string,address,uint256)": {
        "notice": "Burn policy tokens and redeem stablecoins"
      },
      "redeemAfterSettlement(string,address)": {
        "notice": "Redeem policy tokens and get stablecoins by the user himeself"
      },
      "renounceOwnership()": {
        "notice": "Leaves the contract without owner. It will not be possible to call         `onlyOwner` functions anymore. Can only be called by the current owner."
      },
      "setIncomeSharing(address)": {
        "notice": "Change the address of emergency pool"
      },
      "setLottery(address)": {
        "notice": "Change the address of lottery"
      },
      "setNaughtyRouter(address)": {
        "notice": "Change the address of naughty router"
      },
      "settleAllPolicyTokens(string,address,uint256,uint256)": {
        "notice": "Settle the policies for the users when insurance events do not happen         Funds are automatically distributed back to the depositors"
      },
      "settleFinalResult(string)": {
        "notice": "Get the final price from the PriceGetter contract"
      },
      "transferOwnership(address)": {
        "notice": "Transfers ownership of the contract to a new account (`newOwner`)."
      }
    },
    "notice": "Core logic of Naughty Price Product         Preset:              (Done in the naughtyFactory contract)              1. Deploy policyToken contract              2. Deploy policyToken-Stablecoin pool contract         User Interaction:              1. Deposit Stablecoin and mint PolicyTokens              2. Redeem their Stablecoin and burn the PolicyTokens (before settlement)              3. Claim for payout with PolicyTokens (after settlement)         PolicyTokens are minted with the ratio 1:1 to Stablecoin         The PolicyTokens are traded in the pool with CFMM (xy=k)         When the event happens, a PolicyToken can be burned for claiming 1 Stablecoin.         When the event does not happen, the PolicyToken depositors can         redeem their 1 deposited Stablecoin",
    "version": 1
  },
  "storageLayout": {
    "storage": [
      {
        "astId": 29107,
        "contract": "contracts/naughty-price/PolicyCore.sol:PolicyCore",
        "label": "_owner",
        "offset": 0,
        "slot": "0",
        "type": "t_address"
      },
      {
        "astId": 24502,
        "contract": "contracts/naughty-price/PolicyCore.sol:PolicyCore",
        "label": "factory",
        "offset": 0,
        "slot": "1",
        "type": "t_contract(INaughtyFactory)26608"
      },
      {
        "astId": 24505,
        "contract": "contracts/naughty-price/PolicyCore.sol:PolicyCore",
        "label": "priceGetter",
        "offset": 0,
        "slot": "2",
        "type": "t_contract(IPriceGetter)26813"
      },
      {
        "astId": 24507,
        "contract": "contracts/naughty-price/PolicyCore.sol:PolicyCore",
        "label": "lottery",
        "offset": 0,
        "slot": "3",
        "type": "t_address"
      },
      {
        "astId": 24509,
        "contract": "contracts/naughty-price/PolicyCore.sol:PolicyCore",
        "label": "incomeSharing",
        "offset": 0,
        "slot": "4",
        "type": "t_address"
      },
      {
        "astId": 24511,
        "contract": "contracts/naughty-price/PolicyCore.sol:PolicyCore",
        "label": "naughtyRouter",
        "offset": 0,
        "slot": "5",
        "type": "t_address"
      },
      {
        "astId": 24513,
        "contract": "contracts/naughty-price/PolicyCore.sol:PolicyCore",
        "label": "ILMContract",
        "offset": 0,
        "slot": "6",
        "type": "t_address"
      },
      {
        "astId": 24515,
        "contract": "contracts/naughty-price/PolicyCore.sol:PolicyCore",
        "label": "toLottery",
        "offset": 0,
        "slot": "7",
        "type": "t_uint256"
      },
      {
        "astId": 24535,
        "contract": "contracts/naughty-price/PolicyCore.sol:PolicyCore",
        "label": "policyTokenInfoMapping",
        "offset": 0,
        "slot": "8",
        "type": "t_mapping(t_string_memory_ptr,t_struct(PolicyTokenInfo)24530_storage)"
      },
      {
        "astId": 24539,
        "contract": "contracts/naughty-price/PolicyCore.sol:PolicyCore",
        "label": "policyTokenAddressToName",
        "offset": 0,
        "slot": "9",
        "type": "t_mapping(t_address,t_string_storage)"
      },
      {
        "astId": 24542,
        "contract": "contracts/naughty-price/PolicyCore.sol:PolicyCore",
        "label": "allPolicyTokens",
        "offset": 0,
        "slot": "10",
        "type": "t_array(t_string_storage)dyn_storage"
      },
      {
        "astId": 24546,
        "contract": "contracts/naughty-price/PolicyCore.sol:PolicyCore",
        "label": "supportedStablecoin",
        "offset": 0,
        "slot": "11",
        "type": "t_mapping(t_address,t_bool)"
      },
      {
        "astId": 24550,
        "contract": "contracts/naughty-price/PolicyCore.sol:PolicyCore",
        "label": "whichStablecoin",
        "offset": 0,
        "slot": "12",
        "type": "t_mapping(t_address,t_address)"
      },
      {
        "astId": 24554,
        "contract": "contracts/naughty-price/PolicyCore.sol:PolicyCore",
        "label": "policyTokenToOriginal",
        "offset": 0,
        "slot": "13",
        "type": "t_mapping(t_address,t_string_storage)"
      },
      {
        "astId": 24560,
        "contract": "contracts/naughty-price/PolicyCore.sol:PolicyCore",
        "label": "userQuota",
        "offset": 0,
        "slot": "14",
        "type": "t_mapping(t_address,t_mapping(t_address,t_uint256))"
      },
      {
        "astId": 24565,
        "contract": "contracts/naughty-price/PolicyCore.sol:PolicyCore",
        "label": "allDepositors",
        "offset": 0,
        "slot": "15",
        "type": "t_mapping(t_address,t_array(t_address)dyn_storage)"
      },
      {
        "astId": 24579,
        "contract": "contracts/naughty-price/PolicyCore.sol:PolicyCore",
        "label": "settleResult",
        "offset": 0,
        "slot": "16",
        "type": "t_mapping(t_address,t_struct(SettlementInfo)24574_storage)"
      },
      {
        "astId": 24583,
        "contract": "contracts/naughty-price/PolicyCore.sol:PolicyCore",
        "label": "pendingIncomeToLottery",
        "offset": 0,
        "slot": "17",
        "type": "t_mapping(t_address,t_uint256)"
      },
      {
        "astId": 24587,
        "contract": "contracts/naughty-price/PolicyCore.sol:PolicyCore",
        "label": "pendingIncomeToSharing",
        "offset": 0,
        "slot": "18",
        "type": "t_mapping(t_address,t_uint256)"
      }
    ],
    "types": {
      "t_address": {
        "encoding": "inplace",
        "label": "address",
        "numberOfBytes": "20"
      },
      "t_array(t_address)dyn_storage": {
        "base": "t_address",
        "encoding": "dynamic_array",
        "label": "address[]",
        "numberOfBytes": "32"
      },
      "t_array(t_string_storage)dyn_storage": {
        "base": "t_string_storage",
        "encoding": "dynamic_array",
        "label": "string[]",
        "numberOfBytes": "32"
      },
      "t_bool": {
        "encoding": "inplace",
        "label": "bool",
        "numberOfBytes": "1"
      },
      "t_contract(INaughtyFactory)26608": {
        "encoding": "inplace",
        "label": "contract INaughtyFactory",
        "numberOfBytes": "20"
      },
      "t_contract(IPriceGetter)26813": {
        "encoding": "inplace",
        "label": "contract IPriceGetter",
        "numberOfBytes": "20"
      },
      "t_mapping(t_address,t_address)": {
        "encoding": "mapping",
        "key": "t_address",
        "label": "mapping(address => address)",
        "numberOfBytes": "32",
        "value": "t_address"
      },
      "t_mapping(t_address,t_array(t_address)dyn_storage)": {
        "encoding": "mapping",
        "key": "t_address",
        "label": "mapping(address => address[])",
        "numberOfBytes": "32",
        "value": "t_array(t_address)dyn_storage"
      },
      "t_mapping(t_address,t_bool)": {
        "encoding": "mapping",
        "key": "t_address",
        "label": "mapping(address => bool)",
        "numberOfBytes": "32",
        "value": "t_bool"
      },
      "t_mapping(t_address,t_mapping(t_address,t_uint256))": {
        "encoding": "mapping",
        "key": "t_address",
        "label": "mapping(address => mapping(address => uint256))",
        "numberOfBytes": "32",
        "value": "t_mapping(t_address,t_uint256)"
      },
      "t_mapping(t_address,t_string_storage)": {
        "encoding": "mapping",
        "key": "t_address",
        "label": "mapping(address => string)",
        "numberOfBytes": "32",
        "value": "t_string_storage"
      },
      "t_mapping(t_address,t_struct(SettlementInfo)24574_storage)": {
        "encoding": "mapping",
        "key": "t_address",
        "label": "mapping(address => struct PolicyCore.SettlementInfo)",
        "numberOfBytes": "32",
        "value": "t_struct(SettlementInfo)24574_storage"
      },
      "t_mapping(t_address,t_uint256)": {
        "encoding": "mapping",
        "key": "t_address",
        "label": "mapping(address => uint256)",
        "numberOfBytes": "32",
        "value": "t_uint256"
      },
      "t_mapping(t_string_memory_ptr,t_struct(PolicyTokenInfo)24530_storage)": {
        "encoding": "mapping",
        "key": "t_string_memory_ptr",
        "label": "mapping(string => struct PolicyCore.PolicyTokenInfo)",
        "numberOfBytes": "32",
        "value": "t_struct(PolicyTokenInfo)24530_storage"
      },
      "t_string_memory_ptr": {
        "encoding": "bytes",
        "label": "string",
        "numberOfBytes": "32"
      },
      "t_string_storage": {
        "encoding": "bytes",
        "label": "string",
        "numberOfBytes": "32"
      },
      "t_struct(PolicyTokenInfo)24530_storage": {
        "encoding": "inplace",
        "label": "struct PolicyCore.PolicyTokenInfo",
        "members": [
          {
            "astId": 24517,
            "contract": "contracts/naughty-price/PolicyCore.sol:PolicyCore",
            "label": "policyTokenAddress",
            "offset": 0,
            "slot": "0",
            "type": "t_address"
          },
          {
            "astId": 24519,
            "contract": "contracts/naughty-price/PolicyCore.sol:PolicyCore",
            "label": "isCall",
            "offset": 20,
            "slot": "0",
            "type": "t_bool"
          },
          {
            "astId": 24521,
            "contract": "contracts/naughty-price/PolicyCore.sol:PolicyCore",
            "label": "nameDecimals",
            "offset": 0,
            "slot": "1",
            "type": "t_uint256"
          },
          {
            "astId": 24523,
            "contract": "contracts/naughty-price/PolicyCore.sol:PolicyCore",
            "label": "tokenDecimals",
            "offset": 0,
            "slot": "2",
            "type": "t_uint256"
          },
          {
            "astId": 24525,
            "contract": "contracts/naughty-price/PolicyCore.sol:PolicyCore",
            "label": "strikePrice",
            "offset": 0,
            "slot": "3",
            "type": "t_uint256"
          },
          {
            "astId": 24527,
            "contract": "contracts/naughty-price/PolicyCore.sol:PolicyCore",
            "label": "deadline",
            "offset": 0,
            "slot": "4",
            "type": "t_uint256"
          },
          {
            "astId": 24529,
            "contract": "contracts/naughty-price/PolicyCore.sol:PolicyCore",
            "label": "settleTimestamp",
            "offset": 0,
            "slot": "5",
            "type": "t_uint256"
          }
        ],
        "numberOfBytes": "192"
      },
      "t_struct(SettlementInfo)24574_storage": {
        "encoding": "inplace",
        "label": "struct PolicyCore.SettlementInfo",
        "members": [
          {
            "astId": 24567,
            "contract": "contracts/naughty-price/PolicyCore.sol:PolicyCore",
            "label": "price",
            "offset": 0,
            "slot": "0",
            "type": "t_uint256"
          },
          {
            "astId": 24569,
            "contract": "contracts/naughty-price/PolicyCore.sol:PolicyCore",
            "label": "isHappened",
            "offset": 0,
            "slot": "1",
            "type": "t_bool"
          },
          {
            "astId": 24571,
            "contract": "contracts/naughty-price/PolicyCore.sol:PolicyCore",
            "label": "alreadySettled",
            "offset": 1,
            "slot": "1",
            "type": "t_bool"
          },
          {
            "astId": 24573,
            "contract": "contracts/naughty-price/PolicyCore.sol:PolicyCore",
            "label": "currentDistributionIndex",
            "offset": 0,
            "slot": "2",
            "type": "t_uint256"
          }
        ],
        "numberOfBytes": "96"
      },
      "t_uint256": {
        "encoding": "inplace",
        "label": "uint256",
        "numberOfBytes": "32"
      }
    }
  }
}