{
  "address": "0xC722Fd7AC84219Ca63a704221aA341ffd504fD92",
  "abi": [
    {
      "anonymous": false,
      "inputs": [
        {
          "indexed": false,
          "internalType": "address",
          "name": "payerAddress",
          "type": "address"
        },
        {
          "indexed": false,
          "internalType": "address",
          "name": "userAddress",
          "type": "address"
        },
        {
          "indexed": false,
          "internalType": "string",
          "name": "policyTokenName",
          "type": "string"
        },
        {
          "indexed": false,
          "internalType": "address",
          "name": "stablecoin",
          "type": "address"
        },
        {
          "indexed": false,
          "internalType": "uint256",
          "name": "amount",
          "type": "uint256"
        }
      ],
      "name": "DelegateDeposit",
      "type": "event"
    },
    {
      "anonymous": false,
      "inputs": [
        {
          "indexed": true,
          "internalType": "address",
          "name": "userAddress",
          "type": "address"
        },
        {
          "indexed": true,
          "internalType": "string",
          "name": "policyTokenName",
          "type": "string"
        },
        {
          "indexed": true,
          "internalType": "address",
          "name": "stablecoin",
          "type": "address"
        },
        {
          "indexed": false,
          "internalType": "uint256",
          "name": "amount",
          "type": "uint256"
        }
      ],
      "name": "Deposit",
      "type": "event"
    },
    {
      "anonymous": false,
      "inputs": [
        {
          "indexed": false,
          "internalType": "string",
          "name": "_policyTokenName",
          "type": "string"
        },
        {
          "indexed": false,
          "internalType": "uint256",
          "name": "price",
          "type": "uint256"
        },
        {
          "indexed": false,
          "internalType": "bool",
          "name": "isHappened",
          "type": "bool"
        }
      ],
      "name": "FinalResultSettled",
      "type": "event"
    },
    {
      "anonymous": false,
      "inputs": [
        {
          "indexed": false,
          "internalType": "address",
          "name": "oldPriceGetter",
          "type": "address"
        },
        {
          "indexed": false,
          "internalType": "address",
          "name": "newPriceGetter",
          "type": "address"
        }
      ],
      "name": "IDOPriceGetterChanged",
      "type": "event"
    },
    {
      "anonymous": false,
      "inputs": [
        {
          "indexed": false,
          "internalType": "address",
          "name": "oldILM",
          "type": "address"
        },
        {
          "indexed": false,
          "internalType": "address",
          "name": "newILM",
          "type": "address"
        }
      ],
      "name": "ILMChanged",
      "type": "event"
    },
    {
      "anonymous": false,
      "inputs": [
        {
          "indexed": false,
          "internalType": "address",
          "name": "oldIncomeSharing",
          "type": "address"
        },
        {
          "indexed": false,
          "internalType": "address",
          "name": "newIncomeSharing",
          "type": "address"
        }
      ],
      "name": "IncomeSharingChanged",
      "type": "event"
    },
    {
      "anonymous": false,
      "inputs": [
        {
          "indexed": false,
          "internalType": "uint256",
          "name": "oldToLottery",
          "type": "uint256"
        },
        {
          "indexed": false,
          "internalType": "uint256",
          "name": "newToLottery",
          "type": "uint256"
        }
      ],
      "name": "IncomeToLotteryChanged",
      "type": "event"
    },
    {
      "anonymous": false,
      "inputs": [
        {
          "indexed": false,
          "internalType": "address",
          "name": "oldLotteryAddress",
          "type": "address"
        },
        {
          "indexed": false,
          "internalType": "address",
          "name": "newLotteryAddress",
          "type": "address"
        }
      ],
      "name": "LotteryChanged",
      "type": "event"
    },
    {
      "anonymous": false,
      "inputs": [
        {
          "indexed": false,
          "internalType": "address",
          "name": "oldRouter",
          "type": "address"
        },
        {
          "indexed": false,
          "internalType": "address",
          "name": "newRouter",
          "type": "address"
        }
      ],
      "name": "NaughtyRouterChanged",
      "type": "event"
    },
    {
      "anonymous": false,
      "inputs": [
        {
          "indexed": false,
          "internalType": "address",
          "name": "_newStablecoin",
          "type": "address"
        }
      ],
      "name": "NewStablecoinAdded",
      "type": "event"
    },
    {
      "anonymous": false,
      "inputs": [
        {
          "indexed": true,
          "internalType": "address",
          "name": "previousOwner",
          "type": "address"
        },
        {
          "indexed": true,
          "internalType": "address",
          "name": "newOwner",
          "type": "address"
        }
      ],
      "name": "OwnershipTransferred",
      "type": "event"
    },
    {
      "anonymous": false,
      "inputs": [
        {
          "indexed": false,
          "internalType": "string",
          "name": "tokenName",
          "type": "string"
        },
        {
          "indexed": false,
          "internalType": "address",
          "name": "tokenAddress",
          "type": "address"
        },
        {
          "indexed": false,
          "internalType": "uint256",
          "name": "tokenDecimals",
          "type": "uint256"
        },
        {
          "indexed": false,
          "internalType": "uint256",
          "name": "deadline",
          "type": "uint256"
        },
        {
          "indexed": false,
          "internalType": "uint256",
          "name": "settleTimestamp",
          "type": "uint256"
        }
      ],
      "name": "PolicyTokenDeployed",
      "type": "event"
    },
    {
      "anonymous": false,
      "inputs": [
        {
          "indexed": false,
          "internalType": "string",
          "name": "policyTokenName",
          "type": "string"
        },
        {
          "indexed": false,
          "internalType": "address",
          "name": "stablecoin",
          "type": "address"
        },
        {
          "indexed": false,
          "internalType": "uint256",
          "name": "startIndex",
          "type": "uint256"
        },
        {
          "indexed": false,
          "internalType": "uint256",
          "name": "stopIndex",
          "type": "uint256"
        }
      ],
      "name": "PolicyTokensSettledForUsers",
      "type": "event"
    },
    {
      "anonymous": false,
      "inputs": [
        {
          "indexed": false,
          "internalType": "address",
          "name": "poolAddress",
          "type": "address"
        },
        {
          "indexed": false,
          "internalType": "address",
          "name": "policyTokenAddress",
          "type": "address"
        },
        {
          "indexed": false,
          "internalType": "address",
          "name": "stablecoin",
          "type": "address"
        }
      ],
      "name": "PoolDeployed",
      "type": "event"
    },
    {
      "anonymous": false,
      "inputs": [
        {
          "indexed": false,
          "internalType": "address",
          "name": "poolAddress",
          "type": "address"
        },
        {
          "indexed": false,
          "internalType": "address",
          "name": "policyTokenAddress",
          "type": "address"
        },
        {
          "indexed": false,
          "internalType": "address",
          "name": "stablecoin",
          "type": "address"
        },
        {
          "indexed": false,
          "internalType": "uint256",
          "name": "initLiquidityA",
          "type": "uint256"
        },
        {
          "indexed": false,
          "internalType": "uint256",
          "name": "initLiquidityB",
          "type": "uint256"
        }
      ],
      "name": "PoolDeployedWithInitialLiquidity",
      "type": "event"
    },
    {
      "anonymous": false,
      "inputs": [
        {
          "indexed": true,
          "internalType": "address",
          "name": "userAddress",
          "type": "address"
        },
        {
          "indexed": true,
          "internalType": "string",
          "name": "policyTokenName",
          "type": "string"
        },
        {
          "indexed": true,
          "internalType": "address",
          "name": "stablecoin",
          "type": "address"
        },
        {
          "indexed": false,
          "internalType": "uint256",
          "name": "amount",
          "type": "uint256"
        }
      ],
      "name": "Redeem",
      "type": "event"
    },
    {
      "anonymous": false,
      "inputs": [
        {
          "indexed": true,
          "internalType": "address",
          "name": "userAddress",
          "type": "address"
        },
        {
          "indexed": true,
          "internalType": "string",
          "name": "policyTokenName",
          "type": "string"
        },
        {
          "indexed": true,
          "internalType": "address",
          "name": "stablecoin",
          "type": "address"
        },
        {
          "indexed": false,
          "internalType": "uint256",
          "name": "amount",
          "type": "uint256"
        }
      ],
      "name": "RedeemAfterSettlement",
      "type": "event"
    },
    {
      "anonymous": false,
      "inputs": [
        {
          "indexed": false,
          "internalType": "address",
          "name": "user",
          "type": "address"
        },
        {
          "indexed": false,
          "internalType": "address",
          "name": "policyTokenAddress",
          "type": "address"
        },
        {
          "indexed": false,
          "internalType": "uint256",
          "name": "amount",
          "type": "uint256"
        }
      ],
      "name": "UpdateUserQuota",
      "type": "event"
    },
    {
      "inputs": [
        {
          "internalType": "address[]",
          "name": "_user",
          "type": "address[]"
        },
        {
          "internalType": "uint256[]",
          "name": "_amount",
          "type": "uint256[]"
        },
        {
          "internalType": "address",
          "name": "_policyToken",
          "type": "address"
        }
      ],
      "name": "Depost",
      "outputs": [],
      "stateMutability": "nonpayable",
      "type": "function"
    },
    {
      "inputs": [],
      "name": "ILMContract",
      "outputs": [
        {
          "internalType": "address",
          "name": "",
          "type": "address"
        }
      ],
      "stateMutability": "view",
      "type": "function"
    },
    {
      "inputs": [
        {
          "internalType": "string",
          "name": "_tokenName",
          "type": "string"
        },
        {
          "internalType": "uint256",
          "name": "_decimals",
          "type": "uint256"
        },
        {
          "internalType": "uint256",
          "name": "_strikePrice",
          "type": "uint256"
        },
        {
          "internalType": "bool",
          "name": "_isCall",
          "type": "bool"
        },
        {
          "internalType": "string",
          "name": "_round",
          "type": "string"
        }
      ],
      "name": "_generateName",
      "outputs": [
        {
          "internalType": "string",
          "name": "",
          "type": "string"
        }
      ],
      "stateMutability": "pure",
      "type": "function"
    },
    {
      "inputs": [
        {
          "internalType": "address",
          "name": "_newStablecoin",
          "type": "address"
        }
      ],
      "name": "addStablecoin",
      "outputs": [],
      "stateMutability": "nonpayable",
      "type": "function"
    },
    {
      "inputs": [
        {
          "internalType": "address",
          "name": "",
          "type": "address"
        },
        {
          "internalType": "uint256",
          "name": "",
          "type": "uint256"
        }
      ],
      "name": "allDepositors",
      "outputs": [
        {
          "internalType": "address",
          "name": "",
          "type": "address"
        }
      ],
      "stateMutability": "view",
      "type": "function"
    },
    {
      "inputs": [
        {
          "internalType": "uint256",
          "name": "",
          "type": "uint256"
        }
      ],
      "name": "allPolicyTokens",
      "outputs": [
        {
          "internalType": "string",
          "name": "",
          "type": "string"
        }
      ],
      "stateMutability": "view",
      "type": "function"
    },
    {
      "inputs": [
        {
          "internalType": "string",
          "name": "_policyTokenName",
          "type": "string"
        },
        {
          "internalType": "address",
          "name": "_stablecoin",
          "type": "address"
        },
        {
          "internalType": "uint256",
          "name": "_amount",
          "type": "uint256"
        }
      ],
      "name": "claim",
      "outputs": [],
      "stateMutability": "nonpayable",
      "type": "function"
    },
    {
      "inputs": [
        {
          "internalType": "address",
          "name": "_stablecoin",
          "type": "address"
        }
      ],
      "name": "collectIncome",
      "outputs": [],
      "stateMutability": "nonpayable",
      "type": "function"
    },
    {
      "inputs": [
        {
          "internalType": "string",
          "name": "_policyTokenName",
          "type": "string"
        },
        {
          "internalType": "address",
          "name": "_stablecoin",
          "type": "address"
        },
        {
          "internalType": "uint256",
          "name": "_amount",
          "type": "uint256"
        },
        {
          "internalType": "address",
          "name": "_user",
          "type": "address"
        }
      ],
      "name": "delegateDeposit",
      "outputs": [],
      "stateMutability": "nonpayable",
      "type": "function"
    },
    {
      "inputs": [
        {
          "internalType": "string",
          "name": "_tokenName",
          "type": "string"
        },
        {
          "internalType": "address",
          "name": "_stablecoin",
          "type": "address"
        },
        {
          "internalType": "bool",
          "name": "_isCall",
          "type": "bool"
        },
        {
          "internalType": "uint256",
          "name": "_nameDecimals",
          "type": "uint256"
        },
        {
          "internalType": "uint256",
          "name": "_tokenDecimals",
          "type": "uint256"
        },
        {
          "internalType": "uint256",
          "name": "_strikePrice",
          "type": "uint256"
        },
        {
          "internalType": "string",
          "name": "_round",
          "type": "string"
        },
        {
          "internalType": "uint256",
          "name": "_deadline",
          "type": "uint256"
        },
        {
          "internalType": "uint256",
          "name": "_settleTimestamp",
          "type": "uint256"
        },
        {
          "internalType": "bool",
          "name": "_isIDOPool",
          "type": "bool"
        }
      ],
      "name": "deployPolicyToken",
      "outputs": [],
      "stateMutability": "nonpayable",
      "type": "function"
    },
    {
      "inputs": [
        {
          "internalType": "string",
          "name": "_policyTokenName",
          "type": "string"
        },
        {
          "internalType": "address",
          "name": "_stablecoin",
          "type": "address"
        },
        {
          "internalType": "uint256",
          "name": "_poolDeadline",
          "type": "uint256"
        },
        {
          "internalType": "uint256",
          "name": "_feeRate",
          "type": "uint256"
        }
      ],
      "name": "deployPool",
      "outputs": [
        {
          "internalType": "address",
          "name": "",
          "type": "address"
        }
      ],
      "stateMutability": "nonpayable",
      "type": "function"
    },
    {
      "inputs": [
        {
          "internalType": "string",
          "name": "_policyTokenName",
          "type": "string"
        },
        {
          "internalType": "address",
          "name": "_stablecoin",
          "type": "address"
        },
        {
          "internalType": "uint256",
          "name": "_amount",
          "type": "uint256"
        }
      ],
      "name": "deposit",
      "outputs": [],
      "stateMutability": "nonpayable",
      "type": "function"
    },
    {
      "inputs": [],
      "name": "factory",
      "outputs": [
        {
          "internalType": "contract INaughtyFactory",
          "name": "",
          "type": "address"
        }
      ],
      "stateMutability": "view",
      "type": "function"
    },
    {
      "inputs": [
        {
          "internalType": "string",
          "name": "_policyTokenName",
          "type": "string"
        }
      ],
      "name": "findAddressbyName",
      "outputs": [
        {
          "internalType": "address",
          "name": "policyTokenAddress",
          "type": "address"
        }
      ],
      "stateMutability": "view",
      "type": "function"
    },
    {
      "inputs": [
        {
          "internalType": "address",
          "name": "_policyTokenAddress",
          "type": "address"
        }
      ],
      "name": "findNamebyAddress",
      "outputs": [
        {
          "internalType": "string",
          "name": "policyTokenName",
          "type": "string"
        }
      ],
      "stateMutability": "view",
      "type": "function"
    },
    {
      "inputs": [],
      "name": "getAllTokens",
      "outputs": [
        {
          "components": [
            {
              "internalType": "address",
              "name": "policyTokenAddress",
              "type": "address"
            },
            {
              "internalType": "bool",
              "name": "isCall",
              "type": "bool"
            },
            {
              "internalType": "uint256",
              "name": "nameDecimals",
              "type": "uint256"
            },
            {
              "internalType": "uint256",
              "name": "tokenDecimals",
              "type": "uint256"
            },
            {
              "internalType": "uint256",
              "name": "strikePrice",
              "type": "uint256"
            },
            {
              "internalType": "uint256",
              "name": "deadline",
              "type": "uint256"
            },
            {
              "internalType": "uint256",
              "name": "settleTimestamp",
              "type": "uint256"
            }
          ],
          "internalType": "struct PolicyCore.PolicyTokenInfo[]",
          "name": "",
          "type": "tuple[]"
        }
      ],
      "stateMutability": "view",
      "type": "function"
    },
    {
      "inputs": [
        {
          "internalType": "string",
          "name": "_policyTokenName",
          "type": "string"
        }
      ],
      "name": "getPolicyTokenInfo",
      "outputs": [
        {
          "components": [
            {
              "internalType": "address",
              "name": "policyTokenAddress",
              "type": "address"
            },
            {
              "internalType": "bool",
              "name": "isCall",
              "type": "bool"
            },
            {
              "internalType": "uint256",
              "name": "nameDecimals",
              "type": "uint256"
            },
            {
              "internalType": "uint256",
              "name": "tokenDecimals",
              "type": "uint256"
            },
            {
              "internalType": "uint256",
              "name": "strikePrice",
              "type": "uint256"
            },
            {
              "internalType": "uint256",
              "name": "deadline",
              "type": "uint256"
            },
            {
              "internalType": "uint256",
              "name": "settleTimestamp",
              "type": "uint256"
            }
          ],
          "internalType": "struct PolicyCore.PolicyTokenInfo",
          "name": "",
          "type": "tuple"
        }
      ],
      "stateMutability": "view",
      "type": "function"
    },
    {
      "inputs": [
        {
          "internalType": "address",
          "name": "_user",
          "type": "address"
        },
        {
          "internalType": "address",
          "name": "_policyTokenAddress",
          "type": "address"
        }
      ],
      "name": "getUserQuota",
      "outputs": [
        {
          "internalType": "uint256",
          "name": "_quota",
          "type": "uint256"
        }
      ],
      "stateMutability": "view",
      "type": "function"
    },
    {
      "inputs": [],
      "name": "idoPriceGetter",
      "outputs": [
        {
          "internalType": "contract IPriceGetter",
          "name": "",
          "type": "address"
        }
      ],
      "stateMutability": "view",
      "type": "function"
    },
    {
      "inputs": [],
      "name": "incomeSharing",
      "outputs": [
        {
          "internalType": "address",
          "name": "",
          "type": "address"
        }
      ],
      "stateMutability": "view",
      "type": "function"
    },
    {
      "inputs": [
        {
          "internalType": "address",
          "name": "_usdc",
          "type": "address"
        },
        {
          "internalType": "address",
          "name": "_factory",
          "type": "address"
        },
        {
          "internalType": "address",
          "name": "_priceGetter",
          "type": "address"
        }
      ],
      "name": "initialize",
      "outputs": [],
      "stateMutability": "nonpayable",
      "type": "function"
    },
    {
      "inputs": [
        {
          "internalType": "string",
          "name": "",
          "type": "string"
        }
      ],
      "name": "isIDOPool",
      "outputs": [
        {
          "internalType": "bool",
          "name": "",
          "type": "bool"
        }
      ],
      "stateMutability": "view",
      "type": "function"
    },
    {
      "inputs": [],
      "name": "lottery",
      "outputs": [
        {
          "internalType": "address",
          "name": "",
          "type": "address"
        }
      ],
      "stateMutability": "view",
      "type": "function"
    },
    {
      "inputs": [],
      "name": "naughtyRouter",
      "outputs": [
        {
          "internalType": "address",
          "name": "",
          "type": "address"
        }
      ],
      "stateMutability": "view",
      "type": "function"
    },
    {
      "inputs": [],
      "name": "owner",
      "outputs": [
        {
          "internalType": "address",
          "name": "",
          "type": "address"
        }
      ],
      "stateMutability": "view",
      "type": "function"
    },
    {
      "inputs": [
        {
          "internalType": "address",
          "name": "",
          "type": "address"
        }
      ],
      "name": "pendingIncomeToLottery",
      "outputs": [
        {
          "internalType": "uint256",
          "name": "",
          "type": "uint256"
        }
      ],
      "stateMutability": "view",
      "type": "function"
    },
    {
      "inputs": [
        {
          "internalType": "address",
          "name": "",
          "type": "address"
        }
      ],
      "name": "pendingIncomeToSharing",
      "outputs": [
        {
          "internalType": "uint256",
          "name": "",
          "type": "uint256"
        }
      ],
      "stateMutability": "view",
      "type": "function"
    },
    {
      "inputs": [
        {
          "internalType": "address",
          "name": "",
          "type": "address"
        }
      ],
      "name": "policyTokenAddressToName",
      "outputs": [
        {
          "internalType": "string",
          "name": "",
          "type": "string"
        }
      ],
      "stateMutability": "view",
      "type": "function"
    },
    {
      "inputs": [
        {
          "internalType": "string",
          "name": "",
          "type": "string"
        }
      ],
      "name": "policyTokenInfoMapping",
      "outputs": [
        {
          "internalType": "address",
          "name": "policyTokenAddress",
          "type": "address"
        },
        {
          "internalType": "bool",
          "name": "isCall",
          "type": "bool"
        },
        {
          "internalType": "uint256",
          "name": "nameDecimals",
          "type": "uint256"
        },
        {
          "internalType": "uint256",
          "name": "tokenDecimals",
          "type": "uint256"
        },
        {
          "internalType": "uint256",
          "name": "strikePrice",
          "type": "uint256"
        },
        {
          "internalType": "uint256",
          "name": "deadline",
          "type": "uint256"
        },
        {
          "internalType": "uint256",
          "name": "settleTimestamp",
          "type": "uint256"
        }
      ],
      "stateMutability": "view",
      "type": "function"
    },
    {
      "inputs": [],
      "name": "priceGetter",
      "outputs": [
        {
          "internalType": "contract IPriceGetter",
          "name": "",
          "type": "address"
        }
      ],
      "stateMutability": "view",
      "type": "function"
    },
    {
      "inputs": [
        {
          "internalType": "string",
          "name": "_policyTokenName",
          "type": "string"
        },
        {
          "internalType": "address",
          "name": "_stablecoin",
          "type": "address"
        },
        {
          "internalType": "uint256",
          "name": "_amount",
          "type": "uint256"
        }
      ],
      "name": "redeem",
      "outputs": [],
      "stateMutability": "nonpayable",
      "type": "function"
    },
    {
      "inputs": [
        {
          "internalType": "string",
          "name": "_policyTokenName",
          "type": "string"
        },
        {
          "internalType": "address",
          "name": "_stablecoin",
          "type": "address"
        }
      ],
      "name": "redeemAfterSettlement",
      "outputs": [],
      "stateMutability": "nonpayable",
      "type": "function"
    },
    {
      "inputs": [],
      "name": "renounceOwnership",
      "outputs": [],
      "stateMutability": "nonpayable",
      "type": "function"
    },
    {
      "inputs": [
        {
          "internalType": "address",
          "name": "_idoPriceGetter",
          "type": "address"
        }
      ],
      "name": "setIDOPriceGetter",
      "outputs": [],
      "stateMutability": "nonpayable",
      "type": "function"
    },
    {
      "inputs": [
        {
          "internalType": "address",
          "name": "_ILM",
          "type": "address"
        }
      ],
      "name": "setILMContract",
      "outputs": [],
      "stateMutability": "nonpayable",
      "type": "function"
    },
    {
      "inputs": [
        {
          "internalType": "address",
          "name": "_incomeSharing",
          "type": "address"
        }
      ],
      "name": "setIncomeSharing",
      "outputs": [],
      "stateMutability": "nonpayable",
      "type": "function"
    },
    {
      "inputs": [
        {
          "internalType": "uint256",
          "name": "_toLottery",
          "type": "uint256"
        }
      ],
      "name": "setIncomeToLottery",
      "outputs": [],
      "stateMutability": "nonpayable",
      "type": "function"
    },
    {
      "inputs": [
        {
          "internalType": "address",
          "name": "_lotteryAddress",
          "type": "address"
        }
      ],
      "name": "setLottery",
      "outputs": [],
      "stateMutability": "nonpayable",
      "type": "function"
    },
    {
      "inputs": [
        {
          "internalType": "address",
          "name": "_router",
          "type": "address"
        }
      ],
      "name": "setNaughtyRouter",
      "outputs": [],
      "stateMutability": "nonpayable",
      "type": "function"
    },
    {
      "inputs": [
        {
          "internalType": "string",
          "name": "_policyTokenName",
          "type": "string"
        },
        {
          "internalType": "address",
          "name": "_stablecoin",
          "type": "address"
        },
        {
          "internalType": "uint256",
          "name": "_startIndex",
          "type": "uint256"
        },
        {
          "internalType": "uint256",
          "name": "_stopIndex",
          "type": "uint256"
        }
      ],
      "name": "settleAllPolicyTokens",
      "outputs": [],
      "stateMutability": "nonpayable",
      "type": "function"
    },
    {
      "inputs": [
        {
          "internalType": "string",
          "name": "_policyTokenName",
          "type": "string"
        }
      ],
      "name": "settleFinalResult",
      "outputs": [],
      "stateMutability": "nonpayable",
      "type": "function"
    },
    {
      "inputs": [
        {
          "internalType": "address",
          "name": "",
          "type": "address"
        }
      ],
      "name": "settleResult",
      "outputs": [
        {
          "internalType": "uint256",
          "name": "price",
          "type": "uint256"
        },
        {
          "internalType": "bool",
          "name": "isHappened",
          "type": "bool"
        },
        {
          "internalType": "bool",
          "name": "alreadySettled",
          "type": "bool"
        },
        {
          "internalType": "uint256",
          "name": "currentDistributionIndex",
          "type": "uint256"
        }
      ],
      "stateMutability": "view",
      "type": "function"
    },
    {
      "inputs": [
        {
          "internalType": "address",
          "name": "",
          "type": "address"
        }
      ],
      "name": "supportedStablecoin",
      "outputs": [
        {
          "internalType": "bool",
          "name": "",
          "type": "bool"
        }
      ],
      "stateMutability": "view",
      "type": "function"
    },
    {
      "inputs": [],
      "name": "toLotteryPart",
      "outputs": [
        {
          "internalType": "uint256",
          "name": "",
          "type": "uint256"
        }
      ],
      "stateMutability": "view",
      "type": "function"
    },
    {
      "inputs": [
        {
          "internalType": "address",
          "name": "newOwner",
          "type": "address"
        }
      ],
      "name": "transferOwnership",
      "outputs": [],
      "stateMutability": "nonpayable",
      "type": "function"
    },
    {
      "inputs": [
        {
          "internalType": "address",
          "name": "_user",
          "type": "address"
        },
        {
          "internalType": "address",
          "name": "_policyToken",
          "type": "address"
        },
        {
          "internalType": "uint256",
          "name": "_amount",
          "type": "uint256"
        }
      ],
      "name": "updateUserQuota",
      "outputs": [],
      "stateMutability": "nonpayable",
      "type": "function"
    },
    {
      "inputs": [
        {
          "internalType": "address",
          "name": "",
          "type": "address"
        }
      ],
      "name": "whichStablecoin",
      "outputs": [
        {
          "internalType": "address",
          "name": "",
          "type": "address"
        }
      ],
      "stateMutability": "view",
      "type": "function"
    }
  ],
  "transactionHash": "0xff90e154dc2d4983d0c1afc39b3cbf66aeca7374bb176a3046247fcb4e55fd04",
  "args": [],
  "numDeployments": 7,
  "solcInputHash": "0f2636ce16ce6de43d7688c4490406ed",
  "bytecode": "0x608060405234801561001057600080fd5b50614d86806100206000396000f3fe608060405234801561001057600080fd5b50600436106103155760003560e01c80638da5cb5b116101a7578063c49df4bf116100ee578063e625123711610097578063f15cac3411610071578063f15cac34146107ba578063f298083b146107cd578063f2fde38b146107e057600080fd5b8063e625123714610781578063eb9132dd14610794578063f10cffbd146107a757600080fd5b8063d9e85c84116100c8578063d9e85c8414610715578063da14280714610735578063e01f8e4b1461076e57600080fd5b8063c49df4bf146106e6578063ceed1b90146106f9578063d700e89f1461070c57600080fd5b8063bb245c6311610150578063be3f34a11161012a578063be3f34a1146106ad578063c0c53b8b146106c0578063c45a0155146106d357600080fd5b8063bb245c6314610667578063bb9febaf14610687578063bdc2b1661461069a57600080fd5b8063a8e577e311610181578063a8e577e314610621578063aa59b04514610641578063ba13a5721461065457600080fd5b80638da5cb5b146105ea57806394567d4e146105fb578063a815a2211461060e57600080fd5b806338081de21161026b5780635eb1877e11610214578063715018a6116101ee578063715018a6146105a1578063727e0deb146105a95780637336c38d146105d757600080fd5b80635eb1877e146105525780636978531a1461057b5780636a9d7be01461058e57600080fd5b80634c330fbc116102455780634c330fbc146104fc5780634e75ce891461050f5780635cb3b14f1461052257600080fd5b806338081de21461046557806339f6773814610478578063448299b3146104e957600080fd5b80631306c0a5116102cd578063210123e5116102a7578063210123e51461042a5780632a48ac9a1461043d5780632a5c792a1461045057600080fd5b80631306c0a5146103ab57806318dd152f146103cb5780631ee08fa1146103de57600080fd5b806307962845116102fe578063079628451461034257806308d89d5f146103785780630dc726471461038b57600080fd5b8063038440971461031a5780630418945a1461032f575b600080fd5b61032d6103283660046132b2565b6107f3565b005b61032d61033d36600461331d565b610ba9565b61036261035036600461331d565b60756020526000908152604090205481565b60405161036f9190613346565b60405180910390f35b61032d610386366004613365565b610c31565b61039e6103993660046133cf565b610e07565b60405161036f919061344e565b6103be6103b936600461345f565b610eb3565b60405161036f91906134a5565b61039e6103d936600461331d565b610eeb565b61041a6103ec36600461331d565b607460205260009081526040902080546001820154600290920154909160ff80821692610100909204169084565b60405161036f94939291906134bb565b61032d61043836600461331d565b610f04565b61032d61044b366004613365565b610f97565b610458611060565b60405161036f91906135cc565b61039e61047336600461331d565b6111dd565b6104d66104863660046132b2565b8051602081830181018051606c825292820191909301209152805460018201546002830154600384015460048501546005909501546001600160a01b03851695600160a01b90950460ff16949087565b60405161036f97969594939291906135dd565b61032d6104f736600461331d565b6112aa565b61032d61050a36600461331d565b61133d565b6103be61051d3660046132b2565b6113d0565b61054561053036600461331d565b606f6020526000908152604090205460ff1681565b60405161036f9190613645565b6103be61056036600461331d565b6070602052600090815260409020546001600160a01b031681565b606a546103be906001600160a01b031681565b61032d61059c366004613666565b61141a565b61032d6117bb565b6105456105b73660046132b2565b805160208183018101805160778252928201919093012091525460ff1681565b61032d6105e5366004613365565b6117f1565b6033546001600160a01b03166103be565b6068546103be906001600160a01b031681565b61032d61061c36600461331d565b611a00565b61036261062f36600461331d565b60766020526000908152604090205481565b61032d61064f3660046137c9565b611a93565b6067546103be906001600160a01b031681565b60785461067a906001600160a01b031681565b60405161036f919061389a565b6103be6106953660046138a8565b611b7e565b61032d6106a83660046133cf565b611d11565b61032d6106bb36600461331d565b611d9c565b61032d6106ce366004613926565b611e88565b60655461067a906001600160a01b031681565b61032d6106f436600461396c565b611f56565b60665461067a906001600160a01b031681565b610362606b5481565b6107286107233660046132b2565b612178565b60405161036f91906139b9565b6103626107433660046139c7565b6001600160a01b03918216600090815260726020908152604080832093909416825291909152205490565b61032d61077c3660046139e9565b612246565b6069546103be906001600160a01b031681565b61032d6107a23660046138a8565b6122ed565b61039e6107b5366004613a0d565b612556565b61032d6107c8366004613aad565b61269e565b61032d6107db36600461331d565b6127d1565b61032d6107ee36600461331d565b612864565b806000606c826040516108069190613b41565b9081526020016040518091039020600501549050804210156108435760405162461bcd60e51b815260040161083a90613ba5565b60405180910390fd5b82600061084f826113d0565b6001600160a01b038116600090815260746020526040902060010154909150610100900460ff16156108935760405162461bcd60e51b815260040161083a90613c0d565b600061089e866113d0565b6001600160a01b038116600090815260746020908152604080832060719092528220805493945090926108d090613c33565b80601f01602080910402602001604051908101604052809291908181526020018280546108fc90613c33565b80156109495780601f1061091e57610100808354040283529160200191610949565b820191906000526020600020905b81548152906001019060200180831161092c57829003601f168201915b5050505050905060006077896040516109629190613b41565b9081526040519081900360200190205460ff16156109f45760785460405163f66a1b7160e01b81526001600160a01b039091169063f66a1b71906109aa908c9060040161344e565b6020604051808303816000875af11580156109c9573d6000803e3d6000fd5b505050506040513d601f19601f820116820180604052508101906109ed9190613c6a565b9050610a6a565b60665460405163f66a1b7160e01b81526001600160a01b039091169063f66a1b7190610a2490859060040161344e565b6020604051808303816000875af1158015610a43573d6000803e3d6000fd5b505050506040513d601f19601f82011682018060405250810190610a679190613c6a565b90505b60018301805461ff001916610100179055808355604051600090606c90610a92908c90613b41565b908152604080516020928190038301812060e08201835280546001600160a01b0381168352600160a01b900460ff1615159382019390935260018301549181019190915260028201546060820152600382015460808201819052600483015460a083015260059092015460c082015291506000908310801590610b16575081602001515b9050600082608001518411158015610b3057508260200151155b905060008280610b3d5750815b610b48576000610b4b565b60015b60018801805460ff19168215151790556040519091507f4f7bb4bf5b5d9e711ae7506fc1acd843eea9f216861a09c312fefb7e05095a3690610b92908f9088908590613c8b565b60405180910390a150505050505050505050505050565b6033546001600160a01b03163314610bd35760405162461bcd60e51b815260040161083a90613ce8565b6001600160a01b0381166000908152606f602052604090819020805460ff19166001179055517f86b377b6d485043d4a8b2b0c26051f82529ea2d7c23b1188598416473c12309390610c269083906134a5565b60405180910390a150565b826000606c82604051610c449190613b41565b908152602001604051809103902060050154905080421015610c785760405162461bcd60e51b815260040161083a90613ba5565b84846000610c85836113d0565b6001600160a01b03818116600090815260706020526040902054919250838116911614610cc45760405162461bcd60e51b815260040161083a90613d50565b6000610ccf896113d0565b6001600160a01b03811660009081526074602090815260409182902082516080810184528154808252600183015460ff80821615159584019590955261010090049093161515938101939093526002015460608301529192509015801590610d38575080604001515b610d545760405162461bcd60e51b815260040161083a90613d92565b8060200151610d755760405162461bcd60e51b815260040161083a90613dfa565b6000610d818a8a6128c0565b9050610d976001600160a01b038b16338361297e565b604051632770a7eb60e21b815283906001600160a01b03821690639dc29fac90610dc79033908e90600401613e0a565b600060405180830381600087803b158015610de157600080fd5b505af1158015610df5573d6000803e3d6000fd5b50505050505050505050505050505050565b606e8181548110610e1757600080fd5b906000526020600020016000915090508054610e3290613c33565b80601f0160208091040260200160405190810160405280929190818152602001828054610e5e90613c33565b8015610eab5780601f10610e8057610100808354040283529160200191610eab565b820191906000526020600020905b815481529060010190602001808311610e8e57829003601f168201915b505050505081565b60736020528160005260406000208181548110610ecf57600080fd5b6000918252602090912001546001600160a01b03169150829050565b606d6020526000908152604090208054610e3290613c33565b6033546001600160a01b03163314610f2e5760405162461bcd60e51b815260040161083a90613ce8565b6068546040517ff4b601aa15ee1d2340ac8d1e8f1ddf16fe98866801b5c057bec51086aa6d750291610f6d916001600160a01b03909116908490613e25565b60405180910390a1606880546001600160a01b0319166001600160a01b0392909216919091179055565b826000606c82604051610faa9190613b41565b908152602001604051809103902060040154905080421115610fde5760405162461bcd60e51b815260040161083a90613e98565b84846000610feb836113d0565b6001600160a01b0381811660009081526070602052604090205491925083811691161461102a5760405162461bcd60e51b815260040161083a90613d50565b6000861161104a5760405162461bcd60e51b815260040161083a90613eda565b61105688888833612a06565b5050505050505050565b606e5460609060008167ffffffffffffffff811115611081576110816131bc565b6040519080825280602002602001820160405280156110fd57816020015b6110ea6040518060e0016040528060006001600160a01b0316815260200160001515815260200160008152602001600081526020016000815260200160008152602001600081525090565b81526020019060019003908161109f5790505b50905060005b828110156111d657606c606e828154811061112057611120613eea565b906000526020600020016040516111379190613f6e565b90815260408051918290036020908101832060e08401835280546001600160a01b038116855260ff600160a01b909104161515918401919091526001810154918301919091526002810154606083015260038101546080830152600481015460a08301526005015460c082015282518390839081106111b8576111b8613eea565b602002602001018190525080806111ce90613f8e565b915050611103565b5092915050565b6001600160a01b0381166000908152606d6020526040902080546060919061120490613c33565b80601f016020809104026020016040519081016040528092919081815260200182805461123090613c33565b801561127d5780601f106112525761010080835404028352916020019161127d565b820191906000526020600020905b81548152906001019060200180831161126057829003601f168201915b5050505050905060008151116112a55760405162461bcd60e51b815260040161083a90613fd9565b919050565b6033546001600160a01b031633146112d45760405162461bcd60e51b815260040161083a90613ce8565b6078546040517f7fa20b7236ace70bca6943a342603ca5d68d220e2f7b4a81ebe52fe8b618ba2891611313916001600160a01b03909116908490613e25565b60405180910390a1607880546001600160a01b0319166001600160a01b0392909216919091179055565b6033546001600160a01b031633146113675760405162461bcd60e51b815260040161083a90613ce8565b606a546040517f5a1397fff7d6f4aaebc9effcfc3a2fa8e89631d59ec574c1eaef6d709b5c9ab0916113a6916001600160a01b03909116908490613e25565b60405180910390a1606a80546001600160a01b0319166001600160a01b0392909216919091179055565b6000606c826040516113e29190613b41565b908152604051908190036020019020546001600160a01b03169050806112a55760405162461bcd60e51b815260040161083a9061401b565b6033546001600160a01b031633146114445760405162461bcd60e51b815260040161083a90613ce8565b60128711158015611456575060128611155b6114725760405162461bcd60e51b815260040161083a9061405d565b85896001600160a01b031663313ce5676040518163ffffffff1660e01b8152600401602060405180830381865afa1580156114b1573d6000803e3d6000fd5b505050506040513d601f19601f820116820180604052508101906114d59190614081565b60ff16146114f55760405162461bcd60e51b815260040161083a906140d4565b4283116115145760405162461bcd60e51b815260040161083a90614116565b828210156115345760405162461bcd60e51b815260040161083a90614158565b60006115438b89888c89612556565b6065546040517f87f0061a0000000000000000000000000000000000000000000000000000000081529192506000916001600160a01b03909116906387f0061a906115949085908c90600401614168565b6020604051808303816000875af11580156115b3573d6000803e3d6000fd5b505050506040513d601f19601f820116820180604052508101906115d79190614193565b90506040518060e00160405280826001600160a01b031681526020018b151581526020018a815260200189815260200188815260200186815260200185815250606c836040516116279190613b41565b9081526040805191829003602090810190922083518154858501511515600160a01b027fffffffffffffffffffffff0000000000000000000000000000000000000000009091166001600160a01b0392831617178255848301516001830155606085015160028301556080850151600383015560a0850151600483015560c090940151600590910155918316600090815260718252919091208d516116ce928f0190613123565b506001600160a01b0381166000908152606d6020908152604090912083516116f892850190613123565b50606e8054600181018255600091909152825161173c917f9930d9ff0dee0ef5ca2f7710ea66b8f84dd0f5f5351ecffe72b952cd9db7142a01906020850190613123565b507f5c781be7034983eed256e8250b1df5111e452c6dd41a3e415bdeda1cac92348882828a88886040516117749594939291906141b4565b60405180910390a18260778360405161178d9190613b41565b908152604051908190036020019020805491151560ff19909216919091179055505050505050505050505050565b6033546001600160a01b031633146117e55760405162461bcd60e51b815260040161083a90613ce8565b6117ef6000612bb6565b565b826000606c826040516118049190613b41565b9081526020016040518091039020600401549050804211156118385760405162461bcd60e51b815260040161083a90613e98565b84846000611845836113d0565b6001600160a01b038181166000908152607060205260409020549192508381169116146118845760405162461bcd60e51b815260040161083a90613d50565b600061188f896113d0565b3360009081526072602090815260408083206001600160a01b03851684529091529020549091508711156118d55760405162461bcd60e51b815260040161083a90614237565b3360009081526072602090815260408083206001600160a01b038516845290915281208054899290611908908490614247565b909155506000905061191a89896128c0565b90506119306001600160a01b038a16338361297e565b604051632770a7eb60e21b815282906001600160a01b03821690639dc29fac906119609033908d90600401613e0a565b600060405180830381600087803b15801561197a57600080fd5b505af115801561198e573d6000803e3d6000fd5b50505050896001600160a01b03168b6040516119aa9190613b41565b6040518091039020336001600160a01b03167fae452465b27fa0406f99c961c3bbf8215e6dabe24c0da5dd5981206d9038500a8c6040516119eb9190613346565b60405180910390a45050505050505050505050565b6033546001600160a01b03163314611a2a5760405162461bcd60e51b815260040161083a90613ce8565b6069546040517f991cc531d0c7ce0a4a8db8a26f722bbbe727c8f45445520fa447050bb313457f91611a69916001600160a01b03909116908490613e25565b60405180910390a1606980546001600160a01b0319166001600160a01b0392909216919091179055565b6033546001600160a01b03163314611abd5760405162461bcd60e51b815260040161083a90613ce8565b60005b84811015611b7657838382818110611ada57611ada613eea565b9050602002013560726000888885818110611af757611af7613eea565b9050602002016020810190611b0c919061331d565b6001600160a01b03166001600160a01b031681526020019081526020016000206000846001600160a01b03166001600160a01b031681526020019081526020016000206000828254611b5e919061425e565b90915550819050611b6e81613f8e565b915050611ac0565b505050505050565b6001600160a01b0383166000908152606f6020526040812054849060ff161515600114611bbd5760405162461bcd60e51b815260040161083a906142ce565b8560006001600160a01b0316606c82604051611bd99190613b41565b908152604051908190036020019020546001600160a01b031603611c0f5760405162461bcd60e51b815260040161083a90614336565b6033546001600160a01b0316331480611c325750606a546001600160a01b031633145b611c4e5760405162461bcd60e51b815260040161083a90614378565b428511611c6d5760405162461bcd60e51b815260040161083a90614116565b606c87604051611c7d9190613b41565b9081526020016040518091039020600401548514611cad5760405162461bcd60e51b815260040161083a906143e0565b6000611cb8886113d0565b90506000611cc882898989612c08565b90507f04c12766244f2559dd215eecd69f70fdfce0e2c2260b5d52cb8b63738622eaa481838a604051611cfd939291906143f0565b60405180910390a198975050505050505050565b6033546001600160a01b03163314611d3b5760405162461bcd60e51b815260040161083a90613ce8565b600a811115611d5c5760405162461bcd60e51b815260040161083a9061444a565b7f5102efe34236afea4a39241911bce7d2001cd809276c20be9dceb33a59c13cc6606b5482604051611d8f92919061445a565b60405180910390a1606b55565b6067546001600160a01b031615801590611dc057506068546001600160a01b031615155b611ddc5760405162461bcd60e51b815260040161083a906144c0565b6001600160a01b03811660009081526075602090815260408083205460769092529091205481151580611e0f5750600081115b611e2b5760405162461bcd60e51b815260040161083a90614502565b606754611e45906001600160a01b0385811691168461297e565b606854611e5f906001600160a01b0385811691168361297e565b50506001600160a01b031660009081526075602090815260408083208390556076909152812055565b600054610100900460ff16611ea35760005460ff1615611ea7565b303b155b611ec35760405162461bcd60e51b815260040161083a9061456a565b600054610100900460ff16158015611ee5576000805461ffff19166101011790555b611eed612cd9565b6001600160a01b038085166000908152606f60205260409020805460ff19166001179055606580548583166001600160a01b03199182161790915560668054928516929091169190911790556002606b558015611f50576000805461ff00191690555b50505050565b816000606c82604051611f699190613b41565b908152602001604051809103902060050154905080421015611f9d5760405162461bcd60e51b815260040161083a90613ba5565b83836000611faa836113d0565b6001600160a01b03818116600090815260706020526040902054919250838116911614611fe95760405162461bcd60e51b815260040161083a90613d50565b6000611ff4886113d0565b6001600160a01b03811660009081526074602090815260409182902082516080810184528154808252600183015460ff8082161515958401959095526101009004909316151593810193909352600201546060830152919250901580159061205d575080604001515b6120795760405162461bcd60e51b815260040161083a90613d92565b60208101511561209b5760405162461bcd60e51b815260040161083a906145d2565b3360009081526072602090815260408083206001600160a01b0386168452909152902054806120dc5760405162461bcd60e51b815260040161083a9061463a565b60006120e88a836128c0565b90506120fe6001600160a01b038b16338361297e565b3360009081526072602090815260408083206001600160a01b0388811685529252808320929092559051908b1690612137908d90613b41565b6040518091039020336001600160a01b03167f03562b7020b16271daf63f8af4dfad66194d3a83359909327c31983326b1287f846040516119eb9190613346565b6121c36040518060e0016040528060006001600160a01b0316815260200160001515815260200160008152602001600081526020016000815260200160008152602001600081525090565b606c826040516121d39190613b41565b90815260408051918290036020908101832060e08401835280546001600160a01b038116855260ff600160a01b909104161515918401919091526001810154918301919091526002810154606083015260038101546080830152600481015460a08301526005015460c082015292915050565b606a546001600160a01b031633146122705760405162461bcd60e51b815260040161083a9061467c565b6001600160a01b038084166000908152607260209081526040808320938616835292905290812080548392906122a790849061425e565b90915550506040517feebcbef3192071bb2337eab3d89bd9a6b2cfb3218aae8627e9c1eab826b88ace906122e09085908590859061468c565b60405180910390a1505050565b6033546001600160a01b031633146123175760405162461bcd60e51b815260040161083a90613ce8565b6000612322856113d0565b6001600160a01b03811660009081526074602090815260409182902082516080810184528154808252600183015460ff808216151595840195909552610100900490931615159381019390935260020154606083015291925090158015906123905750604081015115156001145b6123ac5760405162461bcd60e51b815260040161083a90613d92565b6020810151156123ce5760405162461bcd60e51b815260040161083a906145d2565b6001600160a01b038216600090815260736020526040812054606083015181101561240b5760405162461bcd60e51b815260040161083a906146e6565b85158015612417575084155b15612495576124298488600084612d08565b612433908361425e565b6001600160a01b038516600090815260746020526040808220600201849055519193507fb882f84541d4c34087dd3a3971b96ad170bc52a7907def174bb86f986bce6e2c91612488918b918b9190869061470b565b60405180910390a1611056565b858360600151146124b85760405162461bcd60e51b815260040161083a90614790565b8085106124d75760405162461bcd60e51b815260040161083a906147d2565b6124e384888888612d08565b6124ed908361425e565b6001600160a01b03851660009081526074602052604090819020600201879055519092507fb882f84541d4c34087dd3a3971b96ad170bc52a7907def174bb86f986bce6e2c90612544908a908a908a908a906147e2565b60405180910390a15050505050505050565b606060008361259a576040518060400160405280600181526020017f4c000000000000000000000000000000000000000000000000000000000000008152506125d1565b6040518060400160405280600181526020017f48000000000000000000000000000000000000000000000000000000000000008152505b905060006125e7670de0b6b3a764000087614825565b905060006125f6886012614247565b61260190600a614947565b61261590670de0b6b3a76400008906614825565b9050600288106126535761262a600189614247565b61263590600a614947565b81116126535760405162461bcd60e51b815260040161083a90614988565b60008961265f84612e03565b61266884612e03565b868960405160200161267e9594939291906149ea565b60408051601f198184030181529190529450505050505b95945050505050565b836000606c826040516126b19190613b41565b9081526020016040518091039020600401549050804211156126e55760405162461bcd60e51b815260040161083a90613e98565b858560006126f2836113d0565b6001600160a01b038181166000908152607060205260409020549192508381169116146127315760405162461bcd60e51b815260040161083a90613d50565b6069546001600160a01b0316331461275b5760405162461bcd60e51b815260040161083a90614aa8565b6000871161277b5760405162461bcd60e51b815260040161083a90613eda565b61278789898989612a06565b7f99f877ebe25ff1544a89db7db58d9d0b180af2288344cf1792272a4a07fd7c9933878b8b8b6040516127be959493929190614ab8565b60405180910390a1505050505050505050565b6033546001600160a01b031633146127fb5760405162461bcd60e51b815260040161083a90613ce8565b6067546040517f5bbcd5c9a4c18f44ac2b1174e1034735fda1eb2008b8cc091ef347c7f6b9690a9161283a916001600160a01b03909116908490613e25565b60405180910390a1606780546001600160a01b0319166001600160a01b0392909216919091179055565b6033546001600160a01b0316331461288e5760405162461bcd60e51b815260040161083a90613ce8565b6001600160a01b0381166128b45760405162461bcd60e51b815260040161083a90614b4c565b6128bd81612bb6565b50565b6000806103e86128d2846103de614b5c565b6128dc9190614825565b905060006128ea8285614247565b90506000600a606b54836128fe9190614b5c565b6129089190614825565b6001600160a01b03871660009081526075602052604081208054929350839290919061293590849061425e565b9091555061294590508183614247565b6001600160a01b0387166000908152607660205260408120805490919061296d90849061425e565b909155509293505050505b92915050565b612a018363a9059cbb60e01b848460405160240161299d929190613e0a565b60408051601f198184030181529190526020810180517bffffffffffffffffffffffffffffffffffffffffffffffffffffffff167fffffffff0000000000000000000000000000000000000000000000000000000090931692909217909152612f38565b505050565b6000612a11856113d0565b6001600160a01b03808416600090815260726020908152604080832093851683529290529081205491925003612a80576001600160a01b0381811660009081526073602090815260408220805460018101825590835291200180546001600160a01b0319169184169190911790555b6001600160a01b03808316600090815260726020908152604080832093851683529290529081208054859290612ab790849061425e565b90915550612ad290506001600160a01b038516833086612fc7565b6040517f40c10f1900000000000000000000000000000000000000000000000000000000815281906001600160a01b038216906340c10f1990612b1b9086908890600401613e0a565b600060405180830381600087803b158015612b3557600080fd5b505af1158015612b49573d6000803e3d6000fd5b50505050846001600160a01b031686604051612b659190613b41565b6040518091039020846001600160a01b03167faad69ef0c77f7c04ba3390022ae56a77ba8686b6cd9530eff3a0a8c38d33e5ad87604051612ba69190613346565b60405180910390a4505050505050565b603380546001600160a01b038381166001600160a01b0319831681179093556040519116919082907f8be0079c531659141344cd1fd0a4f28419497f9722a3daafe3b4186f6b6457e090600090a35050565b6065546040517f3a5f69f800000000000000000000000000000000000000000000000000000000815260009182916001600160a01b0390911690633a5f69f890612c5c908990899089908990600401614b7b565b6020604051808303816000875af1158015612c7b573d6000803e3d6000fd5b505050506040513d601f19601f82011682018060405250810190612c9f9190614193565b6001600160a01b03878116600090815260706020526040902080546001600160a01b0319169188169190911790559150505b949350505050565b600054610100900460ff16612d005760405162461bcd60e51b815260040161083a90614bee565b6117ef612fe8565b6000825b82811015612dfa576001600160a01b0386166000908152607360205260408120805483908110612d3e57612d3e613eea565b60009182526020808320909101546001600160a01b03908116808452607283526040808520928c1685529190925282205490925090612d7d88836128c0565b90508015612ddc57612d996001600160a01b038916848361297e565b6001600160a01b038084166000908152607260209081526040808320938d16835292905290812055612dcb8183614247565b612dd5908661425e565b9450612de4565b505050612de8565b5050505b80612df281613f8e565b915050612d0c565b50949350505050565b606081600003612e4657505060408051808201909152600181527f3000000000000000000000000000000000000000000000000000000000000000602082015290565b8160005b8115612e705780612e5a81613f8e565b9150612e699050600a83614825565b9150612e4a565b60008167ffffffffffffffff811115612e8b57612e8b6131bc565b6040519080825280601f01601f191660200182016040528015612eb5576020820181803683370190505b5090505b8415612cd157612eca600183614247565b9150612ed7600a86614bfe565b612ee290603061425e565b60f81b818381518110612ef757612ef7613eea565b60200101907effffffffffffffffffffffffffffffffffffffffffffffffffffffffffffff1916908160001a905350612f31600a86614825565b9450612eb9565b6000612f8d826040518060400160405280602081526020017f5361666545524332303a206c6f772d6c6576656c2063616c6c206661696c6564815250856001600160a01b03166130189092919063ffffffff16565b805190915015612a015780806020019051810190612fab9190614c1d565b612a015760405162461bcd60e51b815260040161083a90614c96565b611f50846323b872dd60e01b85858560405160240161299d9392919061468c565b600054610100900460ff1661300f5760405162461bcd60e51b815260040161083a90614bee565b6117ef33612bb6565b60606130278484600085613031565b90505b9392505050565b6060824710156130535760405162461bcd60e51b815260040161083a90614cfe565b843b6130715760405162461bcd60e51b815260040161083a90614d40565b600080866001600160a01b0316858760405161308d9190613b41565b60006040518083038185875af1925050503d80600081146130ca576040519150601f19603f3d011682016040523d82523d6000602084013e6130cf565b606091505b50915091506130df8282866130ea565b979650505050505050565b606083156130f957508161302a565b8251156131095782518084602001fd5b8160405162461bcd60e51b815260040161083a919061344e565b82805461312f90613c33565b90600052602060002090601f0160209004810192826131515760008555613197565b82601f1061316a57805160ff1916838001178555613197565b82800160010185558215613197579182015b8281111561319757825182559160200191906001019061317c565b506131a39291506131a7565b5090565b5b808211156131a357600081556001016131a8565b634e487b7160e01b600052604160045260246000fd5b601f19601f830116810181811067ffffffffffffffff821117156131f8576131f86131bc565b6040525050565b600061320a60405190565b90506112a582826131d2565b600067ffffffffffffffff821115613230576132306131bc565b601f19601f83011660200192915050565b82818337506000910152565b600061326061325b84613216565b6131ff565b90508281526020810184848401111561327b5761327b600080fd5b613286848285613241565b509392505050565b600082601f8301126132a2576132a2600080fd5b8135612cd184826020860161324d565b6000602082840312156132c7576132c7600080fd5b813567ffffffffffffffff8111156132e1576132e1600080fd5b612cd18482850161328e565b60006001600160a01b038216612978565b613307816132ed565b81146128bd57600080fd5b8035612978816132fe565b60006020828403121561333257613332600080fd5b6000612cd18484613312565b805b82525050565b60208101612978828461333e565b80613307565b803561297881613354565b60008060006060848603121561337d5761337d600080fd5b833567ffffffffffffffff81111561339757613397600080fd5b6133a38682870161328e565b93505060206133b486828701613312565b92505060406133c58682870161335a565b9150509250925092565b6000602082840312156133e4576133e4600080fd5b6000612cd1848461335a565b60005b8381101561340b5781810151838201526020016133f3565b83811115611f505750506000910152565b6000613426825190565b80845260208401935061343d8185602086016133f0565b601f01601f19169290920192915050565b6020808252810161302a818461341c565b6000806040838503121561347557613475600080fd5b60006134818585613312565b92505060206134928582860161335a565b9150509250929050565b613340816132ed565b60208101612978828461349c565b801515613340565b608081016134c9828761333e565b6134d660208301866134b3565b6134e360408301856134b3565b612695606083018461333e565b80516134fc838261349c565b50602081015161350f60208401826134b3565b506040810151613522604084018261333e565b506060810151613535606084018261333e565b506080810151613548608084018261333e565b5060a081015161355b60a084018261333e565b5060c0810151612a0160c084018261333e565b61357882826134f0565b5060e00190565b60200190565b600061358f825190565b808452602093840193830160005b828110156135c25781516135b1878261356e565b96505060208201915060010161359d565b5093949350505050565b6020808252810161302a8184613585565b60e081016135eb828a61349c565b6135f860208301896134b3565b613605604083018861333e565b613612606083018761333e565b61361f608083018661333e565b61362c60a083018561333e565b61363960c083018461333e565b98975050505050505050565b6020810161297882846134b3565b801515613307565b803561297881613653565b6000806000806000806000806000806101408b8d03121561368957613689600080fd5b8a3567ffffffffffffffff8111156136a3576136a3600080fd5b6136af8d828e0161328e565b9a505060206136c08d828e01613312565b99505060406136d18d828e0161365b565b98505060606136e28d828e0161335a565b97505060806136f38d828e0161335a565b96505060a06137048d828e0161335a565b95505060c08b013567ffffffffffffffff81111561372457613724600080fd5b6137308d828e0161328e565b94505060e06137418d828e0161335a565b9350506101006137538d828e0161335a565b9250506101206137658d828e0161365b565b9150509295989b9194979a5092959850565b60008083601f84011261378c5761378c600080fd5b50813567ffffffffffffffff8111156137a7576137a7600080fd5b6020830191508360208202830111156137c2576137c2600080fd5b9250929050565b6000806000806000606086880312156137e4576137e4600080fd5b853567ffffffffffffffff8111156137fe576137fe600080fd5b61380a88828901613777565b9550955050602086013567ffffffffffffffff81111561382c5761382c600080fd5b61383888828901613777565b9350935050604061384b88828901613312565b9150509295509295909350565b60006129786001600160a01b03831661386f565b90565b6001600160a01b031690565b600061297882613858565b60006129788261387b565b61334081613886565b602081016129788284613891565b600080600080608085870312156138c1576138c1600080fd5b843567ffffffffffffffff8111156138db576138db600080fd5b6138e78782880161328e565b94505060206138f887828801613312565b93505060406139098782880161335a565b925050606061391a8782880161335a565b91505092959194509250565b60008060006060848603121561393e5761393e600080fd5b600061394a8686613312565b935050602061395b86828701613312565b92505060406133c586828701613312565b6000806040838503121561398257613982600080fd5b823567ffffffffffffffff81111561399c5761399c600080fd5b6139a88582860161328e565b925050602061349285828601613312565b60e0810161297882846134f0565b600080604083850312156139dd576139dd600080fd5b60006139a88585613312565b600080600060608486031215613a0157613a01600080fd5b60006133a38686613312565b600080600080600060a08688031215613a2857613a28600080fd5b853567ffffffffffffffff811115613a4257613a42600080fd5b613a4e8882890161328e565b9550506020613a5f8882890161335a565b9450506040613a708882890161335a565b9350506060613a818882890161365b565b925050608086013567ffffffffffffffff811115613aa157613aa1600080fd5b61384b8882890161328e565b60008060008060808587031215613ac657613ac6600080fd5b843567ffffffffffffffff811115613ae057613ae0600080fd5b613aec8782880161328e565b9450506020613afd87828801613312565b9350506040613b0e8782880161335a565b925050606061391a87828801613312565b6000613b29825190565b613b378185602086016133f0565b9290920192915050565b6129788183613b1f565b60368152602081017f43616e206e6f7420736574746c652f636c61696d2c2068617665206e6f74207281527f65616368656420736574746c6554696d657374616d7000000000000000000000602082015290505b60400190565b6020808252810161297881613b4b565b60248152602081017f5468697320706f6c6963792068617320616c7265616479206265656e2073657481527f746c65640000000000000000000000000000000000000000000000000000000060208201529050613b9f565b6020808252810161297881613bb5565b634e487b7160e01b600052602260045260246000fd5b600281046001821680613c4757607f821691505b602082108103613c5957613c59613c1d565b50919050565b805161297881613354565b600060208284031215613c7f57613c7f600080fd5b6000612cd18484613c5f565b60608082528101613c9c818661341c565b9050613cab602083018561333e565b612cd160408301846134b3565b60208082527f4f776e61626c653a2063616c6c6572206973206e6f7420746865206f776e6572910190815261357f565b6020808252810161297881613cb8565b60238152602081017f496e76616c696420706f6c696379746f6b656e207769746820737461626c656381527f6f696e000000000000000000000000000000000000000000000000000000000060208201529050613b9f565b6020808252810161297881613cf8565b601e8152602081017f48617665206e6f7420676f7420746865206f7261636c6520726573756c7400008152905061357f565b6020808252810161297881613d60565b602d8152602081017f54686520726573756c7420646f6573206e6f742068617070656e2c20796f752081527f63616e206e6f7420636c61696d0000000000000000000000000000000000000060208201529050613b9f565b6020808252810161297881613da2565b60408101613e18828561349c565b61302a602083018461333e565b60408101613e33828561349c565b61302a602083018461349c565b602f8152602081017f43616e206e6f74206465706f7369742f72656465656d2c20686173207061737381527f65642074686520646561646c696e65000000000000000000000000000000000060208201529050613b9f565b6020808252810161297881613e40565b600b8152602081017f5a65726f20416d6f756e740000000000000000000000000000000000000000008152905061357f565b6020808252810161297881613ea8565b634e487b7160e01b600052603260045260246000fd5b60008154613f0d81613c33565b600182168015613f245760018114613f3557613f65565b60ff19831686528186019350613f65565b60008581526020902060005b83811015613f5d57815488820152600190910190602001613f41565b505081860193505b50505092915050565b6129788183613f00565b634e487b7160e01b600052601160045260246000fd5b600060018201613fa057613fa0613f78565b5060010190565b60158152602081017f506f6c696379206e616d65206e6f7420666f756e6400000000000000000000008152905061357f565b6020808252810161297881613fa7565b60168152602081017f506f6c69637920746f6b656e206e6f7420666f756e64000000000000000000008152905061357f565b6020808252810161297881613fe9565b60118152602081017f546f6f206d616e7920646563696d616c730000000000000000000000000000008152905061357f565b602080825281016129788161402b565b60ff8116613307565b80516129788161406d565b60006020828403121561409657614096600080fd5b6000612cd18484614076565b60138152602081017f446563696d616c73206e6f7420706169726564000000000000000000000000008152905061357f565b60208082528101612978816140a2565b600e8152602081017f57726f6e6720646561646c696e650000000000000000000000000000000000008152905061357f565b60208082528101612978816140e4565b60158152602081017f57726f6e6720736574746c6554696d657374616d7000000000000000000000008152905061357f565b6020808252810161297881614126565b60408082528101614179818561341c565b905061302a602083018461333e565b8051612978816132fe565b6000602082840312156141a8576141a8600080fd5b6000612cd18484614188565b60a080825281016141c5818861341c565b90506141d4602083018761349c565b6141e1604083018661333e565b6141ee606083018561333e565b6141fb608083018461333e565b9695505050505050565b601b8152602081017f5573657227732071756f7461206e6f742073756666696369656e7400000000008152905061357f565b6020808252810161297881614205565b60008282101561425957614259613f78565b500390565b6000821982111561427157614271613f78565b500190565b60288152602081017f446f206e6f7420737570706f7274207468697320737461626c65636f696e206381527f757272656e746c7900000000000000000000000000000000000000000000000060208201529050613b9f565b6020808252810161297881614276565b603f8152602081017f5468697320706f6c69637920746f6b656e20686173206e6f74206265656e206481527f65706c6f7965642c20706c65617365206465706c6f792069742066697273740060208201529050613b9f565b60208082528101612978816142de565b60118152602081017f4f6e6c79206f776e6572206f7220494c4d0000000000000000000000000000008152905061357f565b6020808252810161297881614346565b602b8152602081017f506f6c69637920746f6b656e20616e6420706f6f6c20646561646c696e65206e81527f6f74207468652073616d6500000000000000000000000000000000000000000060208201529050613b9f565b6020808252810161297881614388565b606081016143fe828661349c565b61440b602083018561349c565b612cd1604083018461349c565b60068152602081017f4d617820313000000000000000000000000000000000000000000000000000008152905061357f565b6020808252810161297881614418565b60408101613e18828561333e565b602e8152602081017f506c656173652073657420746865206c6f7474657279202620696e636f6d655381527f686172696e67206164647265737300000000000000000000000000000000000060208201529050613b9f565b6020808252810161297881614468565b60118152602081017f4e6f2070656e64696e6720696e636f6d650000000000000000000000000000008152905061357f565b60208082528101612978816144d0565b602e8152602081017f496e697469616c697a61626c653a20636f6e747261637420697320616c72656181527f647920696e697469616c697a656400000000000000000000000000000000000060208201529050613b9f565b6020808252810161297881614512565b60368152602081017f4f6e6c792063616c6c20746869732066756e6374696f6e207768656e2074686581527f206576656e7420646f6573206e6f742068617070656e0000000000000000000060208201529050613b9f565b602080825281016129788161457a565b603b8152602081017f4e6f2071756f74612c20796f7520646964206e6f74206465706f73697420616e81527f64206d696e7420706f6c69637920746f6b656e73206265666f7265000000000060208201529050613b9f565b60208082528101612978816145e2565b60088152602081017f4f6e6c7920494c4d0000000000000000000000000000000000000000000000008152905061357f565b602080825281016129788161464a565b6060810161469a828661349c565b6146a7602083018561349c565b612cd1604083018461333e565b60148152602081017f4861766520646973747269627574656420616c6c0000000000000000000000008152905061357f565b60208082528101612978816146b4565b600061297861386c8381565b613340816146f6565b6080808252810161471c818761341c565b905061472b602083018661349c565b6134e36040830185614702565b60328152602081017f596f75206e65656420746f2073746172742066726f6d20746865206c6173742081527f646973747269627574696f6e20706f696e74000000000000000000000000000060208201529050613b9f565b6020808252810161297881614738565b60128152602081017f496e76616c69642073746f7020696e64657800000000000000000000000000008152905061357f565b60208082528101612978816147a0565b608080825281016147f3818761341c565b9050614802602083018661349c565b6134e3604083018561333e565b634e487b7160e01b600052601260045260246000fd5b6000826148345761483461480f565b500490565b80825b60018511156148785780860481111561485757614857613f78565b600185161561486557908102905b80026148718560011c90565b945061483c565b94509492505050565b6000826148905750600161302a565b8161489d5750600061302a565b81600181146148b357600281146148bd576148ea565b600191505061302a565b60ff8411156148ce576148ce613f78565b8360020a9150848211156148e4576148e4613f78565b5061302a565b5060208310610133831016604e8410600b841016171561491d575081810a8381111561491857614918613f78565b61302a565b61492a8484846001614839565b9250905081840481111561494057614940613f78565b0292915050565b600061302a6000198484614881565b60148152602081017f496e76616c696420646563696d616c20706172740000000000000000000000008152905061357f565b6020808252810161297881614956565b7f5f0000000000000000000000000000000000000000000000000000000000000081525b60010190565b7f2e0000000000000000000000000000000000000000000000000000000000000081526149bc565b6149f48187613b1f565b90506149ff81614998565b9050614a0b8186613b1f565b9050614a16816149c2565b9050614a228185613b1f565b9050614a2d81614998565b9050614a398184613b1f565b9050614a4481614998565b90506141fb8183613b1f565b60258152602081017f4f6e6c792074686520726f7574657220636f6e74726163742063616e2064656c81527f656761746500000000000000000000000000000000000000000000000000000060208201529050613b9f565b6020808252810161297881614a50565b60a08101614ac6828861349c565b614ad3602083018761349c565b8181036040830152614ae5818661341c565b90506141ee606083018561349c565b60268152602081017f4f776e61626c653a206e6577206f776e657220697320746865207a65726f206181527f646472657373000000000000000000000000000000000000000000000000000060208201529050613b9f565b6020808252810161297881614af4565b6000816000190483118215151615614b7657614b76613f78565b500290565b60808101614b89828761349c565b614802602083018661349c565b602b8152602081017f496e697469616c697a61626c653a20636f6e7472616374206973206e6f74206981527f6e697469616c697a696e6700000000000000000000000000000000000000000060208201529050613b9f565b6020808252810161297881614b96565b600082614c0d57614c0d61480f565b500690565b805161297881613653565b600060208284031215614c3257614c32600080fd5b6000612cd18484614c12565b602a8152602081017f5361666545524332303a204552433230206f7065726174696f6e20646964206e81527f6f7420737563636565640000000000000000000000000000000000000000000060208201529050613b9f565b6020808252810161297881614c3e565b60268152602081017f416464726573733a20696e73756666696369656e742062616c616e636520666f81527f722063616c6c000000000000000000000000000000000000000000000000000060208201529050613b9f565b6020808252810161297881614ca6565b601d8152602081017f416464726573733a2063616c6c20746f206e6f6e2d636f6e74726163740000008152905061357f565b6020808252810161297881614d0e56fea2646970667358221220678f73b31099cc4fcffb608fb4868577e20332754f3ac4ee7fbbe0c0caddda1a64736f6c634300080d0033",
  "devdoc": {
    "details": "Most of the functions to be called from outside will use the name of policyToken         rather than the address (easy to read).         Other variables or functions still use address to index.         The rule of policyToken naming is:              Original Token Name(with decimals) + Strike Price + Lower or Higher + Date         E.g.  AVAX_30.0_L_2101, BTC_30000.0_L_2102, ETH_8000.0_H_2109         (the original name need to be the same as in the chainlink oracle)         There are three decimals for a policy token:              1. Name decimals: Only for generating the name of policyToken              2. Token decimals: The decimals of the policyToken                 (should be the same as the paired stablecoin)              3. Price decimals: Always 18. The oracle result will be transferred for settlement",
    "kind": "dev",
    "methods": {
      "_generateName(string,uint256,uint256,bool,string)": {
        "params": {
          "_decimals": "Decimals of the name generation (0,1=>1, 2=>2)",
          "_isCall": "The policy's payoff is triggered when higher(true) or lower(false)",
          "_round": "Round of the policy, named by <month><day> (e.g. 0320, 1215)",
          "_strikePrice": "Strike price of the policy (18 decimals)",
          "_tokenName": "Name of the stike token (BTC, ETH, AVAX...)"
        }
      },
      "addStablecoin(address)": {
        "params": {
          "_newStablecoin": "Address of the new stablecoin"
        }
      },
      "claim(string,address,uint256)": {
        "details": "It is done after result settlement and only if the result is true",
        "params": {
          "_amount": "Amount of stablecoin",
          "_policyTokenName": "Name of the policy token",
          "_stablecoin": "Address of the stable coin"
        }
      },
      "collectIncome(address)": {
        "details": "Can be done by anyone, only when there is some income to be distributed",
        "params": {
          "_stablecoin": "Address of stablecoin"
        }
      },
      "delegateDeposit(string,address,uint256,address)": {
        "details": "Only called by the router contract",
        "params": {
          "_amount": "Amount of stablecoin",
          "_policyTokenName": "Name of the policy token",
          "_stablecoin": "Address of the sable coin",
          "_user": "Address to receive the policy tokens"
        }
      },
      "deployPolicyToken(string,address,bool,uint256,uint256,uint256,string,uint256,uint256,bool)": {
        "details": "Only the owner can deploy new policy tokens      The name form is like \"AVAX_50_L_2203\" and is built inside the contract      Name decimals and token decimals are different here      The original token name should be the same in Chainlink PriceFeeds      Those tokens that are not listed on Chainlink are not supported",
        "params": {
          "_deadline": "Deadline of this policy token (deposit / redeem / swap)",
          "_isCall": "The policy is for higher or lower than the strike price (call / put)",
          "_isIDOPool": "Whether this token is an IDO pool",
          "_nameDecimals": "Decimals of this token's name (0~18)",
          "_round": "Round of the token (e.g. 2203 -> expired at 22 March)",
          "_settleTimestamp": "Can settle after this timestamp (for oracle)",
          "_stablecoin": "Address of the stablecoin (Just for check decimals here)",
          "_strikePrice": "Strike price of the policy (have already been transferred with 1e18)",
          "_tokenDecimals": "Decimals of this token's value (0~18) (same as paired stablecoin)",
          "_tokenName": "Name of the original token (e.g. AVAX, BTC, ETH...)"
        }
      },
      "deployPool(string,address,uint256,uint256)": {
        "params": {
          "_feeRate": "Fee rate given to LP holders",
          "_policyTokenName": "Name of the policy token",
          "_poolDeadline": "Swapping deadline of the pool (normally the same as the token's deadline)",
          "_stablecoin": "Address of the stable coin"
        }
      },
      "deposit(string,address,uint256)": {
        "params": {
          "_amount": "Amount of stablecoin",
          "_policyTokenName": "Name of the policy token",
          "_stablecoin": "Address of the stable coin"
        }
      },
      "findAddressbyName(string)": {
        "params": {
          "_policyTokenName": "Name of the policy token (e.g. \"AVAX_30_L_2103\")"
        },
        "returns": {
          "policyTokenAddress": "Address of the policy token"
        }
      },
      "findNamebyAddress(address)": {
        "params": {
          "_policyTokenAddress": "Address of the policy token"
        },
        "returns": {
          "policyTokenName": "Name of the policy token"
        }
      },
      "getAllTokens()": {
        "details": "Include all active&expired tokens",
        "returns": {
          "_0": "tokensInfo Token information list"
        }
      },
      "getPolicyTokenInfo(string)": {
        "params": {
          "_policyTokenName": "Name of the policy token (e.g. \"AVAX30L202103\")"
        },
        "returns": {
          "_0": "policyTokenInfo PolicyToken detail information"
        }
      },
      "getUserQuota(address,address)": {
        "params": {
          "_policyTokenAddress": "Address of the policy token",
          "_user": "Address of the user to be checked"
        },
        "returns": {
          "_quota": "User's quota result"
        }
      },
      "initialize(address,address,address)": {
        "params": {
          "_factory": "Address of naughty factory",
          "_priceGetter": "Address of the oracle contract",
          "_usdc": "USDC.e is the first stablecoin supported in the pool"
        }
      },
      "owner()": {
        "details": "Returns the address of the current owner."
      },
      "redeem(string,address,uint256)": {
        "details": "Redeem happens before the deadline and is different from claim/settle",
        "params": {
          "_amount": "Amount to redeem",
          "_policyTokenName": "Name of the policy token",
          "_stablecoin": "Address of the stablecoin"
        }
      },
      "redeemAfterSettlement(string,address)": {
        "params": {
          "_policyTokenName": "Name of the policy token",
          "_stablecoin": "Address of the stablecoin"
        }
      },
      "renounceOwnership()": {
        "details": "Leaves the contract without owner. It will not be possible to call `onlyOwner` functions anymore. Can only be called by the current owner. NOTE: Renouncing ownership will leave the contract without an owner, thereby removing any functionality that is only available to the owner."
      },
      "setIDOPriceGetter(address)": {
        "params": {
          "_idoPriceGetter": "Address of the new IDO price getter contract"
        }
      },
      "setILMContract(address)": {
        "params": {
          "_ILM": "Address of the new ILM"
        }
      },
      "setIncomeSharing(address)": {
        "params": {
          "_incomeSharing": "Address of the new incomeSharing"
        }
      },
      "setIncomeToLottery(uint256)": {
        "details": "The remaining part will be distributed to incomeSharing",
        "params": {
          "_toLottery": "Proportion to lottery"
        }
      },
      "setLottery(address)": {
        "params": {
          "_lotteryAddress": "Address of the new lottery"
        }
      },
      "setNaughtyRouter(address)": {
        "params": {
          "_router": "Address of the new naughty router"
        }
      },
      "settleAllPolicyTokens(string,address,uint256,uint256)": {
        "details": "Take care of the gas cost and can use the _startIndex and _stopIndex to control the size",
        "params": {
          "_policyTokenName": "Name of policy token",
          "_stablecoin": "Address of stablecoin",
          "_startIndex": "Settlement start index",
          "_stopIndex": "Settlement stop index"
        }
      },
      "settleFinalResult(string)": {
        "params": {
          "_policyTokenName": "Name of the policy token"
        }
      },
      "transferOwnership(address)": {
        "details": "Transfers ownership of the contract to a new account (`newOwner`). Can only be called by the current owner."
      },
      "updateUserQuota(address,address,uint256)": {
        "details": "When you claim your liquidity from ILM, you will get normal quota as you are using policyCore",
        "params": {
          "_amount": "Quota amount",
          "_policyToken": "PolicyToken address",
          "_user": "User address"
        }
      }
    },
    "title": "PolicyCore",
    "version": 1
  },
  "userdoc": {
    "kind": "user",
    "methods": {
      "_generateName(string,uint256,uint256,bool,string)": {
        "notice": "Generate the policy token name"
      },
      "addStablecoin(address)": {
        "notice": "Add a new supported stablecoin"
      },
      "claim(string,address,uint256)": {
        "notice": "Claim a payoff based on policy tokens"
      },
      "collectIncome(address)": {
        "notice": "Collect the income"
      },
      "delegateDeposit(string,address,uint256,address)": {
        "notice": "Delegate deposit (deposit and mint for other addresses)"
      },
      "deployPolicyToken(string,address,bool,uint256,uint256,uint256,string,uint256,uint256,bool)": {
        "notice": "Deploy a new policy token and return the token address"
      },
      "deployPool(string,address,uint256,uint256)": {
        "notice": "Deploy a new pair (pool)"
      },
      "deposit(string,address,uint256)": {
        "notice": "Deposit stablecoins and get policy tokens"
      },
      "findAddressbyName(string)": {
        "notice": "Find the token address by its name"
      },
      "findNamebyAddress(address)": {
        "notice": "Find the token name by its address"
      },
      "getAllTokens()": {
        "notice": "Get the information about all the tokens"
      },
      "getPolicyTokenInfo(string)": {
        "notice": "Find the token information by its name"
      },
      "getUserQuota(address,address)": {
        "notice": "Get a user's quota for a certain policy token"
      },
      "initialize(address,address,address)": {
        "notice": "Constructor, for some addresses"
      },
      "redeem(string,address,uint256)": {
        "notice": "Burn policy tokens and redeem stablecoins"
      },
      "redeemAfterSettlement(string,address)": {
        "notice": "Redeem policy tokens and get stablecoins by the user himeself"
      },
      "setIDOPriceGetter(address)": {
        "notice": "Set IDO price getter contract"
      },
      "setILMContract(address)": {
        "notice": "Change the address of ILM"
      },
      "setIncomeSharing(address)": {
        "notice": "Change the address of emergency pool"
      },
      "setIncomeToLottery(uint256)": {
        "notice": "Change the income part to lottery"
      },
      "setLottery(address)": {
        "notice": "Change the address of lottery"
      },
      "setNaughtyRouter(address)": {
        "notice": "Change the address of naughty router"
      },
      "settleAllPolicyTokens(string,address,uint256,uint256)": {
        "notice": "Settle the policies for the users when insurance events do not happen         Funds are automatically distributed back to the depositors"
      },
      "settleFinalResult(string)": {
        "notice": "Get the final price from the PriceGetter contract"
      },
      "updateUserQuota(address,address,uint256)": {
        "notice": "Update user quota from ILM when claim"
      }
    },
    "notice": "Core logic of Naughty Price Product         Preset:              (Done in the naughtyFactory contract)              1. Deploy policyToken contract              2. Deploy policyToken-Stablecoin pool contract         User Interaction:              1. Deposit Stablecoin and mint PolicyTokens              2. Redeem their Stablecoin and burn the PolicyTokens (before settlement)              3. Claim for payout with PolicyTokens (after settlement)         PolicyTokens are minted with the ratio 1:1 to Stablecoin         The PolicyTokens are traded in the pool with CFMM (xy=k)         When the event happens, a PolicyToken can be burned for claiming 1 Stablecoin.         When the event does not happen, the PolicyToken depositors can         redeem their 1 deposited Stablecoin",
    "version": 1
  },
  "storageLayout": {
    "storage": [
      {
        "astId": 2523,
        "contract": "contracts/naughty-price/PolicyCore.sol:PolicyCore",
        "label": "_initialized",
        "offset": 0,
        "slot": "0",
        "type": "t_bool"
      },
      {
        "astId": 2526,
        "contract": "contracts/naughty-price/PolicyCore.sol:PolicyCore",
        "label": "_initializing",
        "offset": 1,
        "slot": "0",
        "type": "t_bool"
      },
      {
        "astId": 3760,
        "contract": "contracts/naughty-price/PolicyCore.sol:PolicyCore",
        "label": "__gap",
        "offset": 0,
        "slot": "1",
        "type": "t_array(t_uint256)50_storage"
      },
      {
        "astId": 2403,
        "contract": "contracts/naughty-price/PolicyCore.sol:PolicyCore",
        "label": "_owner",
        "offset": 0,
        "slot": "51",
        "type": "t_address"
      },
      {
        "astId": 2515,
        "contract": "contracts/naughty-price/PolicyCore.sol:PolicyCore",
        "label": "__gap",
        "offset": 0,
        "slot": "52",
        "type": "t_array(t_uint256)49_storage"
      },
      {
        "astId": 31842,
        "contract": "contracts/naughty-price/PolicyCore.sol:PolicyCore",
        "label": "factory",
        "offset": 0,
        "slot": "101",
        "type": "t_contract(INaughtyFactory)34062"
      },
      {
        "astId": 31845,
        "contract": "contracts/naughty-price/PolicyCore.sol:PolicyCore",
        "label": "priceGetter",
        "offset": 0,
        "slot": "102",
        "type": "t_contract(IPriceGetter)34337"
      },
      {
        "astId": 31847,
        "contract": "contracts/naughty-price/PolicyCore.sol:PolicyCore",
        "label": "lottery",
        "offset": 0,
        "slot": "103",
        "type": "t_address"
      },
      {
        "astId": 31849,
        "contract": "contracts/naughty-price/PolicyCore.sol:PolicyCore",
        "label": "incomeSharing",
        "offset": 0,
        "slot": "104",
        "type": "t_address"
      },
      {
        "astId": 31851,
        "contract": "contracts/naughty-price/PolicyCore.sol:PolicyCore",
        "label": "naughtyRouter",
        "offset": 0,
        "slot": "105",
        "type": "t_address"
      },
      {
        "astId": 31853,
        "contract": "contracts/naughty-price/PolicyCore.sol:PolicyCore",
        "label": "ILMContract",
        "offset": 0,
        "slot": "106",
        "type": "t_address"
      },
      {
        "astId": 31855,
        "contract": "contracts/naughty-price/PolicyCore.sol:PolicyCore",
        "label": "toLotteryPart",
        "offset": 0,
        "slot": "107",
        "type": "t_uint256"
      },
      {
        "astId": 31875,
        "contract": "contracts/naughty-price/PolicyCore.sol:PolicyCore",
        "label": "policyTokenInfoMapping",
        "offset": 0,
        "slot": "108",
        "type": "t_mapping(t_string_memory_ptr,t_struct(PolicyTokenInfo)31870_storage)"
      },
      {
        "astId": 31879,
        "contract": "contracts/naughty-price/PolicyCore.sol:PolicyCore",
        "label": "policyTokenAddressToName",
        "offset": 0,
        "slot": "109",
        "type": "t_mapping(t_address,t_string_storage)"
      },
      {
        "astId": 31882,
        "contract": "contracts/naughty-price/PolicyCore.sol:PolicyCore",
        "label": "allPolicyTokens",
        "offset": 0,
        "slot": "110",
        "type": "t_array(t_string_storage)dyn_storage"
      },
      {
        "astId": 31886,
        "contract": "contracts/naughty-price/PolicyCore.sol:PolicyCore",
        "label": "supportedStablecoin",
        "offset": 0,
        "slot": "111",
        "type": "t_mapping(t_address,t_bool)"
      },
      {
        "astId": 31890,
        "contract": "contracts/naughty-price/PolicyCore.sol:PolicyCore",
        "label": "whichStablecoin",
        "offset": 0,
        "slot": "112",
        "type": "t_mapping(t_address,t_address)"
      },
      {
        "astId": 31894,
        "contract": "contracts/naughty-price/PolicyCore.sol:PolicyCore",
        "label": "policyTokenToOriginal",
        "offset": 0,
        "slot": "113",
        "type": "t_mapping(t_address,t_string_storage)"
      },
      {
        "astId": 31900,
        "contract": "contracts/naughty-price/PolicyCore.sol:PolicyCore",
        "label": "userQuota",
        "offset": 0,
        "slot": "114",
        "type": "t_mapping(t_address,t_mapping(t_address,t_uint256))"
      },
      {
        "astId": 31905,
        "contract": "contracts/naughty-price/PolicyCore.sol:PolicyCore",
        "label": "allDepositors",
        "offset": 0,
        "slot": "115",
        "type": "t_mapping(t_address,t_array(t_address)dyn_storage)"
      },
      {
        "astId": 31919,
        "contract": "contracts/naughty-price/PolicyCore.sol:PolicyCore",
        "label": "settleResult",
        "offset": 0,
        "slot": "116",
        "type": "t_mapping(t_address,t_struct(SettlementInfo)31914_storage)"
      },
      {
        "astId": 31923,
        "contract": "contracts/naughty-price/PolicyCore.sol:PolicyCore",
        "label": "pendingIncomeToLottery",
        "offset": 0,
        "slot": "117",
        "type": "t_mapping(t_address,t_uint256)"
      },
      {
        "astId": 31927,
        "contract": "contracts/naughty-price/PolicyCore.sol:PolicyCore",
        "label": "pendingIncomeToSharing",
        "offset": 0,
        "slot": "118",
        "type": "t_mapping(t_address,t_uint256)"
      },
      {
        "astId": 31931,
        "contract": "contracts/naughty-price/PolicyCore.sol:PolicyCore",
        "label": "isIDOPool",
        "offset": 0,
        "slot": "119",
        "type": "t_mapping(t_string_memory_ptr,t_bool)"
      },
      {
        "astId": 31934,
        "contract": "contracts/naughty-price/PolicyCore.sol:PolicyCore",
        "label": "idoPriceGetter",
        "offset": 0,
        "slot": "120",
        "type": "t_contract(IPriceGetter)34337"
      }
    ],
    "types": {
      "t_address": {
        "encoding": "inplace",
        "label": "address",
        "numberOfBytes": "20"
      },
      "t_array(t_address)dyn_storage": {
        "base": "t_address",
        "encoding": "dynamic_array",
        "label": "address[]",
        "numberOfBytes": "32"
      },
      "t_array(t_string_storage)dyn_storage": {
        "base": "t_string_storage",
        "encoding": "dynamic_array",
        "label": "string[]",
        "numberOfBytes": "32"
      },
      "t_array(t_uint256)49_storage": {
        "base": "t_uint256",
        "encoding": "inplace",
        "label": "uint256[49]",
        "numberOfBytes": "1568"
      },
      "t_array(t_uint256)50_storage": {
        "base": "t_uint256",
        "encoding": "inplace",
        "label": "uint256[50]",
        "numberOfBytes": "1600"
      },
      "t_bool": {
        "encoding": "inplace",
        "label": "bool",
        "numberOfBytes": "1"
      },
      "t_contract(INaughtyFactory)34062": {
        "encoding": "inplace",
        "label": "contract INaughtyFactory",
        "numberOfBytes": "20"
      },
      "t_contract(IPriceGetter)34337": {
        "encoding": "inplace",
        "label": "contract IPriceGetter",
        "numberOfBytes": "20"
      },
      "t_mapping(t_address,t_address)": {
        "encoding": "mapping",
        "key": "t_address",
        "label": "mapping(address => address)",
        "numberOfBytes": "32",
        "value": "t_address"
      },
      "t_mapping(t_address,t_array(t_address)dyn_storage)": {
        "encoding": "mapping",
        "key": "t_address",
        "label": "mapping(address => address[])",
        "numberOfBytes": "32",
        "value": "t_array(t_address)dyn_storage"
      },
      "t_mapping(t_address,t_bool)": {
        "encoding": "mapping",
        "key": "t_address",
        "label": "mapping(address => bool)",
        "numberOfBytes": "32",
        "value": "t_bool"
      },
      "t_mapping(t_address,t_mapping(t_address,t_uint256))": {
        "encoding": "mapping",
        "key": "t_address",
        "label": "mapping(address => mapping(address => uint256))",
        "numberOfBytes": "32",
        "value": "t_mapping(t_address,t_uint256)"
      },
      "t_mapping(t_address,t_string_storage)": {
        "encoding": "mapping",
        "key": "t_address",
        "label": "mapping(address => string)",
        "numberOfBytes": "32",
        "value": "t_string_storage"
      },
      "t_mapping(t_address,t_struct(SettlementInfo)31914_storage)": {
        "encoding": "mapping",
        "key": "t_address",
        "label": "mapping(address => struct PolicyCore.SettlementInfo)",
        "numberOfBytes": "32",
        "value": "t_struct(SettlementInfo)31914_storage"
      },
      "t_mapping(t_address,t_uint256)": {
        "encoding": "mapping",
        "key": "t_address",
        "label": "mapping(address => uint256)",
        "numberOfBytes": "32",
        "value": "t_uint256"
      },
      "t_mapping(t_string_memory_ptr,t_bool)": {
        "encoding": "mapping",
        "key": "t_string_memory_ptr",
        "label": "mapping(string => bool)",
        "numberOfBytes": "32",
        "value": "t_bool"
      },
      "t_mapping(t_string_memory_ptr,t_struct(PolicyTokenInfo)31870_storage)": {
        "encoding": "mapping",
        "key": "t_string_memory_ptr",
        "label": "mapping(string => struct PolicyCore.PolicyTokenInfo)",
        "numberOfBytes": "32",
        "value": "t_struct(PolicyTokenInfo)31870_storage"
      },
      "t_string_memory_ptr": {
        "encoding": "bytes",
        "label": "string",
        "numberOfBytes": "32"
      },
      "t_string_storage": {
        "encoding": "bytes",
        "label": "string",
        "numberOfBytes": "32"
      },
      "t_struct(PolicyTokenInfo)31870_storage": {
        "encoding": "inplace",
        "label": "struct PolicyCore.PolicyTokenInfo",
        "members": [
          {
            "astId": 31857,
            "contract": "contracts/naughty-price/PolicyCore.sol:PolicyCore",
            "label": "policyTokenAddress",
            "offset": 0,
            "slot": "0",
            "type": "t_address"
          },
          {
            "astId": 31859,
            "contract": "contracts/naughty-price/PolicyCore.sol:PolicyCore",
            "label": "isCall",
            "offset": 20,
            "slot": "0",
            "type": "t_bool"
          },
          {
            "astId": 31861,
            "contract": "contracts/naughty-price/PolicyCore.sol:PolicyCore",
            "label": "nameDecimals",
            "offset": 0,
            "slot": "1",
            "type": "t_uint256"
          },
          {
            "astId": 31863,
            "contract": "contracts/naughty-price/PolicyCore.sol:PolicyCore",
            "label": "tokenDecimals",
            "offset": 0,
            "slot": "2",
            "type": "t_uint256"
          },
          {
            "astId": 31865,
            "contract": "contracts/naughty-price/PolicyCore.sol:PolicyCore",
            "label": "strikePrice",
            "offset": 0,
            "slot": "3",
            "type": "t_uint256"
          },
          {
            "astId": 31867,
            "contract": "contracts/naughty-price/PolicyCore.sol:PolicyCore",
            "label": "deadline",
            "offset": 0,
            "slot": "4",
            "type": "t_uint256"
          },
          {
            "astId": 31869,
            "contract": "contracts/naughty-price/PolicyCore.sol:PolicyCore",
            "label": "settleTimestamp",
            "offset": 0,
            "slot": "5",
            "type": "t_uint256"
          }
        ],
        "numberOfBytes": "192"
      },
      "t_struct(SettlementInfo)31914_storage": {
        "encoding": "inplace",
        "label": "struct PolicyCore.SettlementInfo",
        "members": [
          {
            "astId": 31907,
            "contract": "contracts/naughty-price/PolicyCore.sol:PolicyCore",
            "label": "price",
            "offset": 0,
            "slot": "0",
            "type": "t_uint256"
          },
          {
            "astId": 31909,
            "contract": "contracts/naughty-price/PolicyCore.sol:PolicyCore",
            "label": "isHappened",
            "offset": 0,
            "slot": "1",
            "type": "t_bool"
          },
          {
            "astId": 31911,
            "contract": "contracts/naughty-price/PolicyCore.sol:PolicyCore",
            "label": "alreadySettled",
            "offset": 1,
            "slot": "1",
            "type": "t_bool"
          },
          {
            "astId": 31913,
            "contract": "contracts/naughty-price/PolicyCore.sol:PolicyCore",
            "label": "currentDistributionIndex",
            "offset": 0,
            "slot": "2",
            "type": "t_uint256"
          }
        ],
        "numberOfBytes": "96"
      },
      "t_uint256": {
        "encoding": "inplace",
        "label": "uint256",
        "numberOfBytes": "32"
      }
    }
  }
}