{
  "address": "0x8475334f5Ae5574e0aCb002125f9e69cE06e30dE",
  "abi": [
    {
      "anonymous": false,
      "inputs": [
        {
          "indexed": false,
          "internalType": "address",
          "name": "oldArbitraryPriceGetter",
          "type": "address"
        },
        {
          "indexed": false,
          "internalType": "address",
          "name": "newArbitraryPriceGetter",
          "type": "address"
        }
      ],
      "name": "ArbitraryPriceGetterChanged",
      "type": "event"
    },
    {
      "anonymous": false,
      "inputs": [
        {
          "indexed": false,
          "internalType": "address",
          "name": "payerAddress",
          "type": "address"
        },
        {
          "indexed": false,
          "internalType": "address",
          "name": "userAddress",
          "type": "address"
        },
        {
          "indexed": false,
          "internalType": "string",
          "name": "policyTokenName",
          "type": "string"
        },
        {
          "indexed": false,
          "internalType": "address",
          "name": "stablecoin",
          "type": "address"
        },
        {
          "indexed": false,
          "internalType": "uint256",
          "name": "amount",
          "type": "uint256"
        }
      ],
      "name": "DelegateDeposit",
      "type": "event"
    },
    {
      "anonymous": false,
      "inputs": [
        {
          "indexed": true,
          "internalType": "address",
          "name": "userAddress",
          "type": "address"
        },
        {
          "indexed": true,
          "internalType": "string",
          "name": "policyTokenName",
          "type": "string"
        },
        {
          "indexed": true,
          "internalType": "address",
          "name": "stablecoin",
          "type": "address"
        },
        {
          "indexed": false,
          "internalType": "uint256",
          "name": "amount",
          "type": "uint256"
        }
      ],
      "name": "Deposit",
      "type": "event"
    },
    {
      "anonymous": false,
      "inputs": [
        {
          "indexed": false,
          "internalType": "string",
          "name": "_policyTokenName",
          "type": "string"
        },
        {
          "indexed": false,
          "internalType": "uint256",
          "name": "price",
          "type": "uint256"
        },
        {
          "indexed": false,
          "internalType": "bool",
          "name": "isHappened",
          "type": "bool"
        }
      ],
      "name": "FinalResultSettled",
      "type": "event"
    },
    {
      "anonymous": false,
      "inputs": [
        {
          "indexed": false,
          "internalType": "address",
          "name": "oldPriceGetter",
          "type": "address"
        },
        {
          "indexed": false,
          "internalType": "address",
          "name": "newPriceGetter",
          "type": "address"
        }
      ],
      "name": "IDOPriceGetterChanged",
      "type": "event"
    },
    {
      "anonymous": false,
      "inputs": [
        {
          "indexed": false,
          "internalType": "address",
          "name": "oldILM",
          "type": "address"
        },
        {
          "indexed": false,
          "internalType": "address",
          "name": "newILM",
          "type": "address"
        }
      ],
      "name": "ILMChanged",
      "type": "event"
    },
    {
      "anonymous": false,
      "inputs": [
        {
          "indexed": false,
          "internalType": "address",
          "name": "oldIncomeSharing",
          "type": "address"
        },
        {
          "indexed": false,
          "internalType": "address",
          "name": "newIncomeSharing",
          "type": "address"
        }
      ],
      "name": "IncomeSharingChanged",
      "type": "event"
    },
    {
      "anonymous": false,
      "inputs": [
        {
          "indexed": false,
          "internalType": "uint256",
          "name": "oldToLottery",
          "type": "uint256"
        },
        {
          "indexed": false,
          "internalType": "uint256",
          "name": "newToLottery",
          "type": "uint256"
        }
      ],
      "name": "IncomeToLotteryChanged",
      "type": "event"
    },
    {
      "anonymous": false,
      "inputs": [
        {
          "indexed": false,
          "internalType": "address",
          "name": "oldLotteryAddress",
          "type": "address"
        },
        {
          "indexed": false,
          "internalType": "address",
          "name": "newLotteryAddress",
          "type": "address"
        }
      ],
      "name": "LotteryChanged",
      "type": "event"
    },
    {
      "anonymous": false,
      "inputs": [
        {
          "indexed": false,
          "internalType": "address",
          "name": "oldRouter",
          "type": "address"
        },
        {
          "indexed": false,
          "internalType": "address",
          "name": "newRouter",
          "type": "address"
        }
      ],
      "name": "NaughtyRouterChanged",
      "type": "event"
    },
    {
      "anonymous": false,
      "inputs": [
        {
          "indexed": false,
          "internalType": "address",
          "name": "_newStablecoin",
          "type": "address"
        }
      ],
      "name": "NewStablecoinAdded",
      "type": "event"
    },
    {
      "anonymous": false,
      "inputs": [
        {
          "indexed": true,
          "internalType": "address",
          "name": "previousOwner",
          "type": "address"
        },
        {
          "indexed": true,
          "internalType": "address",
          "name": "newOwner",
          "type": "address"
        }
      ],
      "name": "OwnershipTransferred",
      "type": "event"
    },
    {
      "anonymous": false,
      "inputs": [
        {
          "indexed": false,
          "internalType": "string",
          "name": "tokenName",
          "type": "string"
        },
        {
          "indexed": false,
          "internalType": "address",
          "name": "tokenAddress",
          "type": "address"
        },
        {
          "indexed": false,
          "internalType": "uint256",
          "name": "tokenDecimals",
          "type": "uint256"
        },
        {
          "indexed": false,
          "internalType": "uint256",
          "name": "deadline",
          "type": "uint256"
        },
        {
          "indexed": false,
          "internalType": "uint256",
          "name": "settleTimestamp",
          "type": "uint256"
        }
      ],
      "name": "PolicyTokenDeployed",
      "type": "event"
    },
    {
      "anonymous": false,
      "inputs": [
        {
          "indexed": false,
          "internalType": "string",
          "name": "policyTokenName",
          "type": "string"
        },
        {
          "indexed": false,
          "internalType": "address",
          "name": "stablecoin",
          "type": "address"
        },
        {
          "indexed": false,
          "internalType": "uint256",
          "name": "startIndex",
          "type": "uint256"
        },
        {
          "indexed": false,
          "internalType": "uint256",
          "name": "stopIndex",
          "type": "uint256"
        }
      ],
      "name": "PolicyTokensSettledForUsers",
      "type": "event"
    },
    {
      "anonymous": false,
      "inputs": [
        {
          "indexed": false,
          "internalType": "address",
          "name": "poolAddress",
          "type": "address"
        },
        {
          "indexed": false,
          "internalType": "address",
          "name": "policyTokenAddress",
          "type": "address"
        },
        {
          "indexed": false,
          "internalType": "address",
          "name": "stablecoin",
          "type": "address"
        }
      ],
      "name": "PoolDeployed",
      "type": "event"
    },
    {
      "anonymous": false,
      "inputs": [
        {
          "indexed": false,
          "internalType": "address",
          "name": "poolAddress",
          "type": "address"
        },
        {
          "indexed": false,
          "internalType": "address",
          "name": "policyTokenAddress",
          "type": "address"
        },
        {
          "indexed": false,
          "internalType": "address",
          "name": "stablecoin",
          "type": "address"
        },
        {
          "indexed": false,
          "internalType": "uint256",
          "name": "initLiquidityA",
          "type": "uint256"
        },
        {
          "indexed": false,
          "internalType": "uint256",
          "name": "initLiquidityB",
          "type": "uint256"
        }
      ],
      "name": "PoolDeployedWithInitialLiquidity",
      "type": "event"
    },
    {
      "anonymous": false,
      "inputs": [
        {
          "indexed": true,
          "internalType": "address",
          "name": "userAddress",
          "type": "address"
        },
        {
          "indexed": true,
          "internalType": "string",
          "name": "policyTokenName",
          "type": "string"
        },
        {
          "indexed": true,
          "internalType": "address",
          "name": "stablecoin",
          "type": "address"
        },
        {
          "indexed": false,
          "internalType": "uint256",
          "name": "amount",
          "type": "uint256"
        }
      ],
      "name": "Redeem",
      "type": "event"
    },
    {
      "anonymous": false,
      "inputs": [
        {
          "indexed": true,
          "internalType": "address",
          "name": "userAddress",
          "type": "address"
        },
        {
          "indexed": true,
          "internalType": "string",
          "name": "policyTokenName",
          "type": "string"
        },
        {
          "indexed": true,
          "internalType": "address",
          "name": "stablecoin",
          "type": "address"
        },
        {
          "indexed": false,
          "internalType": "uint256",
          "name": "amount",
          "type": "uint256"
        }
      ],
      "name": "RedeemAfterSettlement",
      "type": "event"
    },
    {
      "anonymous": false,
      "inputs": [
        {
          "indexed": false,
          "internalType": "address",
          "name": "user",
          "type": "address"
        },
        {
          "indexed": false,
          "internalType": "address",
          "name": "policyTokenAddress",
          "type": "address"
        },
        {
          "indexed": false,
          "internalType": "uint256",
          "name": "amount",
          "type": "uint256"
        }
      ],
      "name": "UpdateUserQuota",
      "type": "event"
    },
    {
      "inputs": [],
      "name": "ILMContract",
      "outputs": [
        {
          "internalType": "address",
          "name": "",
          "type": "address"
        }
      ],
      "stateMutability": "view",
      "type": "function"
    },
    {
      "inputs": [
        {
          "internalType": "string",
          "name": "_tokenName",
          "type": "string"
        },
        {
          "internalType": "uint256",
          "name": "_decimals",
          "type": "uint256"
        },
        {
          "internalType": "uint256",
          "name": "_strikePrice",
          "type": "uint256"
        },
        {
          "internalType": "bool",
          "name": "_isCall",
          "type": "bool"
        },
        {
          "internalType": "string",
          "name": "_round",
          "type": "string"
        }
      ],
      "name": "_generateName",
      "outputs": [
        {
          "internalType": "string",
          "name": "",
          "type": "string"
        }
      ],
      "stateMutability": "pure",
      "type": "function"
    },
    {
      "inputs": [
        {
          "internalType": "uint256",
          "name": "num",
          "type": "uint256"
        }
      ],
      "name": "_returnZeroes",
      "outputs": [
        {
          "internalType": "string",
          "name": "zeroString",
          "type": "string"
        }
      ],
      "stateMutability": "pure",
      "type": "function"
    },
    {
      "inputs": [
        {
          "internalType": "address",
          "name": "_newStablecoin",
          "type": "address"
        }
      ],
      "name": "addStablecoin",
      "outputs": [],
      "stateMutability": "nonpayable",
      "type": "function"
    },
    {
      "inputs": [
        {
          "internalType": "address",
          "name": "",
          "type": "address"
        },
        {
          "internalType": "uint256",
          "name": "",
          "type": "uint256"
        }
      ],
      "name": "allDepositors",
      "outputs": [
        {
          "internalType": "address",
          "name": "",
          "type": "address"
        }
      ],
      "stateMutability": "view",
      "type": "function"
    },
    {
      "inputs": [
        {
          "internalType": "uint256",
          "name": "",
          "type": "uint256"
        }
      ],
      "name": "allPolicyTokens",
      "outputs": [
        {
          "internalType": "string",
          "name": "",
          "type": "string"
        }
      ],
      "stateMutability": "view",
      "type": "function"
    },
    {
      "inputs": [],
      "name": "arbitraryPriceGetter",
      "outputs": [
        {
          "internalType": "contract IPriceGetter",
          "name": "",
          "type": "address"
        }
      ],
      "stateMutability": "view",
      "type": "function"
    },
    {
      "inputs": [
        {
          "internalType": "string",
          "name": "_policyTokenName",
          "type": "string"
        },
        {
          "internalType": "address",
          "name": "_stablecoin",
          "type": "address"
        },
        {
          "internalType": "uint256",
          "name": "_amount",
          "type": "uint256"
        }
      ],
      "name": "claim",
      "outputs": [],
      "stateMutability": "nonpayable",
      "type": "function"
    },
    {
      "inputs": [
        {
          "internalType": "address",
          "name": "_stablecoin",
          "type": "address"
        }
      ],
      "name": "collectIncome",
      "outputs": [],
      "stateMutability": "nonpayable",
      "type": "function"
    },
    {
      "inputs": [
        {
          "internalType": "string",
          "name": "_policyTokenName",
          "type": "string"
        },
        {
          "internalType": "address",
          "name": "_stablecoin",
          "type": "address"
        },
        {
          "internalType": "uint256",
          "name": "_amount",
          "type": "uint256"
        },
        {
          "internalType": "address",
          "name": "_user",
          "type": "address"
        }
      ],
      "name": "delegateDeposit",
      "outputs": [],
      "stateMutability": "nonpayable",
      "type": "function"
    },
    {
      "inputs": [
        {
          "internalType": "string",
          "name": "_tokenName",
          "type": "string"
        },
        {
          "internalType": "address",
          "name": "_stablecoin",
          "type": "address"
        },
        {
          "internalType": "bool",
          "name": "_isCall",
          "type": "bool"
        },
        {
          "internalType": "uint256",
          "name": "_nameDecimals",
          "type": "uint256"
        },
        {
          "internalType": "uint256",
          "name": "_tokenDecimals",
          "type": "uint256"
        },
        {
          "internalType": "uint256",
          "name": "_strikePrice",
          "type": "uint256"
        },
        {
          "internalType": "string",
          "name": "_round",
          "type": "string"
        },
        {
          "internalType": "uint256",
          "name": "_deadline",
          "type": "uint256"
        },
        {
          "internalType": "uint256",
          "name": "_settleTimestamp",
          "type": "uint256"
        },
        {
          "internalType": "uint256",
          "name": "_poolType",
          "type": "uint256"
        }
      ],
      "name": "deployPolicyToken",
      "outputs": [],
      "stateMutability": "nonpayable",
      "type": "function"
    },
    {
      "inputs": [
        {
          "internalType": "string",
          "name": "_policyTokenName",
          "type": "string"
        },
        {
          "internalType": "address",
          "name": "_stablecoin",
          "type": "address"
        },
        {
          "internalType": "uint256",
          "name": "_poolDeadline",
          "type": "uint256"
        },
        {
          "internalType": "uint256",
          "name": "_feeRate",
          "type": "uint256"
        }
      ],
      "name": "deployPool",
      "outputs": [
        {
          "internalType": "address",
          "name": "",
          "type": "address"
        }
      ],
      "stateMutability": "nonpayable",
      "type": "function"
    },
    {
      "inputs": [
        {
          "internalType": "string",
          "name": "_policyTokenName",
          "type": "string"
        },
        {
          "internalType": "address",
          "name": "_stablecoin",
          "type": "address"
        },
        {
          "internalType": "uint256",
          "name": "_amount",
          "type": "uint256"
        }
      ],
      "name": "deposit",
      "outputs": [],
      "stateMutability": "nonpayable",
      "type": "function"
    },
    {
      "inputs": [],
      "name": "factory",
      "outputs": [
        {
          "internalType": "contract INaughtyFactory",
          "name": "",
          "type": "address"
        }
      ],
      "stateMutability": "view",
      "type": "function"
    },
    {
      "inputs": [
        {
          "internalType": "string",
          "name": "_policyTokenName",
          "type": "string"
        }
      ],
      "name": "findAddressbyName",
      "outputs": [
        {
          "internalType": "address",
          "name": "policyTokenAddress",
          "type": "address"
        }
      ],
      "stateMutability": "view",
      "type": "function"
    },
    {
      "inputs": [
        {
          "internalType": "address",
          "name": "_policyTokenAddress",
          "type": "address"
        }
      ],
      "name": "findNamebyAddress",
      "outputs": [
        {
          "internalType": "string",
          "name": "policyTokenName",
          "type": "string"
        }
      ],
      "stateMutability": "view",
      "type": "function"
    },
    {
      "inputs": [],
      "name": "getAllTokens",
      "outputs": [
        {
          "components": [
            {
              "internalType": "address",
              "name": "policyTokenAddress",
              "type": "address"
            },
            {
              "internalType": "bool",
              "name": "isCall",
              "type": "bool"
            },
            {
              "internalType": "uint256",
              "name": "nameDecimals",
              "type": "uint256"
            },
            {
              "internalType": "uint256",
              "name": "tokenDecimals",
              "type": "uint256"
            },
            {
              "internalType": "uint256",
              "name": "strikePrice",
              "type": "uint256"
            },
            {
              "internalType": "uint256",
              "name": "deadline",
              "type": "uint256"
            },
            {
              "internalType": "uint256",
              "name": "settleTimestamp",
              "type": "uint256"
            }
          ],
          "internalType": "struct PolicyCore.PolicyTokenInfo[]",
          "name": "",
          "type": "tuple[]"
        }
      ],
      "stateMutability": "view",
      "type": "function"
    },
    {
      "inputs": [
        {
          "internalType": "string",
          "name": "_policyTokenName",
          "type": "string"
        }
      ],
      "name": "getPolicyTokenInfo",
      "outputs": [
        {
          "components": [
            {
              "internalType": "address",
              "name": "policyTokenAddress",
              "type": "address"
            },
            {
              "internalType": "bool",
              "name": "isCall",
              "type": "bool"
            },
            {
              "internalType": "uint256",
              "name": "nameDecimals",
              "type": "uint256"
            },
            {
              "internalType": "uint256",
              "name": "tokenDecimals",
              "type": "uint256"
            },
            {
              "internalType": "uint256",
              "name": "strikePrice",
              "type": "uint256"
            },
            {
              "internalType": "uint256",
              "name": "deadline",
              "type": "uint256"
            },
            {
              "internalType": "uint256",
              "name": "settleTimestamp",
              "type": "uint256"
            }
          ],
          "internalType": "struct PolicyCore.PolicyTokenInfo",
          "name": "",
          "type": "tuple"
        }
      ],
      "stateMutability": "view",
      "type": "function"
    },
    {
      "inputs": [
        {
          "internalType": "address",
          "name": "_user",
          "type": "address"
        },
        {
          "internalType": "address",
          "name": "_policyTokenAddress",
          "type": "address"
        }
      ],
      "name": "getUserQuota",
      "outputs": [
        {
          "internalType": "uint256",
          "name": "_quota",
          "type": "uint256"
        }
      ],
      "stateMutability": "view",
      "type": "function"
    },
    {
      "inputs": [],
      "name": "idoPriceGetter",
      "outputs": [
        {
          "internalType": "contract IPriceGetter",
          "name": "",
          "type": "address"
        }
      ],
      "stateMutability": "view",
      "type": "function"
    },
    {
      "inputs": [],
      "name": "incomeSharing",
      "outputs": [
        {
          "internalType": "address",
          "name": "",
          "type": "address"
        }
      ],
      "stateMutability": "view",
      "type": "function"
    },
    {
      "inputs": [
        {
          "internalType": "address",
          "name": "_usdc",
          "type": "address"
        },
        {
          "internalType": "address",
          "name": "_factory",
          "type": "address"
        },
        {
          "internalType": "address",
          "name": "_priceGetter",
          "type": "address"
        }
      ],
      "name": "initialize",
      "outputs": [],
      "stateMutability": "nonpayable",
      "type": "function"
    },
    {
      "inputs": [
        {
          "internalType": "string",
          "name": "",
          "type": "string"
        }
      ],
      "name": "isArbitraryPool",
      "outputs": [
        {
          "internalType": "bool",
          "name": "",
          "type": "bool"
        }
      ],
      "stateMutability": "view",
      "type": "function"
    },
    {
      "inputs": [
        {
          "internalType": "string",
          "name": "",
          "type": "string"
        }
      ],
      "name": "isIDOPool",
      "outputs": [
        {
          "internalType": "bool",
          "name": "",
          "type": "bool"
        }
      ],
      "stateMutability": "view",
      "type": "function"
    },
    {
      "inputs": [],
      "name": "lottery",
      "outputs": [
        {
          "internalType": "address",
          "name": "",
          "type": "address"
        }
      ],
      "stateMutability": "view",
      "type": "function"
    },
    {
      "inputs": [],
      "name": "naughtyRouter",
      "outputs": [
        {
          "internalType": "address",
          "name": "",
          "type": "address"
        }
      ],
      "stateMutability": "view",
      "type": "function"
    },
    {
      "inputs": [],
      "name": "owner",
      "outputs": [
        {
          "internalType": "address",
          "name": "",
          "type": "address"
        }
      ],
      "stateMutability": "view",
      "type": "function"
    },
    {
      "inputs": [
        {
          "internalType": "address",
          "name": "",
          "type": "address"
        }
      ],
      "name": "pendingIncomeToLottery",
      "outputs": [
        {
          "internalType": "uint256",
          "name": "",
          "type": "uint256"
        }
      ],
      "stateMutability": "view",
      "type": "function"
    },
    {
      "inputs": [
        {
          "internalType": "address",
          "name": "",
          "type": "address"
        }
      ],
      "name": "pendingIncomeToSharing",
      "outputs": [
        {
          "internalType": "uint256",
          "name": "",
          "type": "uint256"
        }
      ],
      "stateMutability": "view",
      "type": "function"
    },
    {
      "inputs": [
        {
          "internalType": "address",
          "name": "",
          "type": "address"
        }
      ],
      "name": "policyTokenAddressToName",
      "outputs": [
        {
          "internalType": "string",
          "name": "",
          "type": "string"
        }
      ],
      "stateMutability": "view",
      "type": "function"
    },
    {
      "inputs": [
        {
          "internalType": "string",
          "name": "",
          "type": "string"
        }
      ],
      "name": "policyTokenInfoMapping",
      "outputs": [
        {
          "internalType": "address",
          "name": "policyTokenAddress",
          "type": "address"
        },
        {
          "internalType": "bool",
          "name": "isCall",
          "type": "bool"
        },
        {
          "internalType": "uint256",
          "name": "nameDecimals",
          "type": "uint256"
        },
        {
          "internalType": "uint256",
          "name": "tokenDecimals",
          "type": "uint256"
        },
        {
          "internalType": "uint256",
          "name": "strikePrice",
          "type": "uint256"
        },
        {
          "internalType": "uint256",
          "name": "deadline",
          "type": "uint256"
        },
        {
          "internalType": "uint256",
          "name": "settleTimestamp",
          "type": "uint256"
        }
      ],
      "stateMutability": "view",
      "type": "function"
    },
    {
      "inputs": [],
      "name": "priceGetter",
      "outputs": [
        {
          "internalType": "contract IPriceGetter",
          "name": "",
          "type": "address"
        }
      ],
      "stateMutability": "view",
      "type": "function"
    },
    {
      "inputs": [
        {
          "internalType": "string",
          "name": "_policyTokenName",
          "type": "string"
        },
        {
          "internalType": "address",
          "name": "_stablecoin",
          "type": "address"
        },
        {
          "internalType": "uint256",
          "name": "_amount",
          "type": "uint256"
        }
      ],
      "name": "redeem",
      "outputs": [],
      "stateMutability": "nonpayable",
      "type": "function"
    },
    {
      "inputs": [
        {
          "internalType": "string",
          "name": "_policyTokenName",
          "type": "string"
        },
        {
          "internalType": "address",
          "name": "_stablecoin",
          "type": "address"
        }
      ],
      "name": "redeemAfterSettlement",
      "outputs": [],
      "stateMutability": "nonpayable",
      "type": "function"
    },
    {
      "inputs": [],
      "name": "renounceOwnership",
      "outputs": [],
      "stateMutability": "nonpayable",
      "type": "function"
    },
    {
      "inputs": [
        {
          "internalType": "address",
          "name": "_arbitraryPriceGetter",
          "type": "address"
        }
      ],
      "name": "setArbitraryPriceGetter",
      "outputs": [],
      "stateMutability": "nonpayable",
      "type": "function"
    },
    {
      "inputs": [
        {
          "internalType": "address",
          "name": "_idoPriceGetter",
          "type": "address"
        }
      ],
      "name": "setIDOPriceGetter",
      "outputs": [],
      "stateMutability": "nonpayable",
      "type": "function"
    },
    {
      "inputs": [
        {
          "internalType": "address",
          "name": "_ILM",
          "type": "address"
        }
      ],
      "name": "setILMContract",
      "outputs": [],
      "stateMutability": "nonpayable",
      "type": "function"
    },
    {
      "inputs": [
        {
          "internalType": "address",
          "name": "_incomeSharing",
          "type": "address"
        }
      ],
      "name": "setIncomeSharing",
      "outputs": [],
      "stateMutability": "nonpayable",
      "type": "function"
    },
    {
      "inputs": [
        {
          "internalType": "uint256",
          "name": "_toLottery",
          "type": "uint256"
        }
      ],
      "name": "setIncomeToLottery",
      "outputs": [],
      "stateMutability": "nonpayable",
      "type": "function"
    },
    {
      "inputs": [
        {
          "internalType": "address",
          "name": "_lotteryAddress",
          "type": "address"
        }
      ],
      "name": "setLottery",
      "outputs": [],
      "stateMutability": "nonpayable",
      "type": "function"
    },
    {
      "inputs": [
        {
          "internalType": "address",
          "name": "_router",
          "type": "address"
        }
      ],
      "name": "setNaughtyRouter",
      "outputs": [],
      "stateMutability": "nonpayable",
      "type": "function"
    },
    {
      "inputs": [
        {
          "internalType": "string",
          "name": "_policyTokenName",
          "type": "string"
        },
        {
          "internalType": "address",
          "name": "_stablecoin",
          "type": "address"
        },
        {
          "internalType": "uint256",
          "name": "_startIndex",
          "type": "uint256"
        },
        {
          "internalType": "uint256",
          "name": "_stopIndex",
          "type": "uint256"
        }
      ],
      "name": "settleAllPolicyTokens",
      "outputs": [],
      "stateMutability": "nonpayable",
      "type": "function"
    },
    {
      "inputs": [
        {
          "internalType": "string",
          "name": "_policyTokenName",
          "type": "string"
        }
      ],
      "name": "settleFinalResult",
      "outputs": [],
      "stateMutability": "nonpayable",
      "type": "function"
    },
    {
      "inputs": [
        {
          "internalType": "address",
          "name": "",
          "type": "address"
        }
      ],
      "name": "settleResult",
      "outputs": [
        {
          "internalType": "uint256",
          "name": "price",
          "type": "uint256"
        },
        {
          "internalType": "bool",
          "name": "isHappened",
          "type": "bool"
        },
        {
          "internalType": "bool",
          "name": "alreadySettled",
          "type": "bool"
        },
        {
          "internalType": "uint256",
          "name": "currentDistributionIndex",
          "type": "uint256"
        }
      ],
      "stateMutability": "view",
      "type": "function"
    },
    {
      "inputs": [
        {
          "internalType": "address",
          "name": "",
          "type": "address"
        }
      ],
      "name": "supportedStablecoin",
      "outputs": [
        {
          "internalType": "bool",
          "name": "",
          "type": "bool"
        }
      ],
      "stateMutability": "view",
      "type": "function"
    },
    {
      "inputs": [],
      "name": "toLotteryPart",
      "outputs": [
        {
          "internalType": "uint256",
          "name": "",
          "type": "uint256"
        }
      ],
      "stateMutability": "view",
      "type": "function"
    },
    {
      "inputs": [
        {
          "internalType": "address",
          "name": "newOwner",
          "type": "address"
        }
      ],
      "name": "transferOwnership",
      "outputs": [],
      "stateMutability": "nonpayable",
      "type": "function"
    },
    {
      "inputs": [
        {
          "internalType": "address",
          "name": "_user",
          "type": "address"
        },
        {
          "internalType": "address",
          "name": "_policyToken",
          "type": "address"
        },
        {
          "internalType": "uint256",
          "name": "_amount",
          "type": "uint256"
        }
      ],
      "name": "updateUserQuota",
      "outputs": [],
      "stateMutability": "nonpayable",
      "type": "function"
    },
    {
      "inputs": [
        {
          "internalType": "address",
          "name": "",
          "type": "address"
        }
      ],
      "name": "whichStablecoin",
      "outputs": [
        {
          "internalType": "address",
          "name": "",
          "type": "address"
        }
      ],
      "stateMutability": "view",
      "type": "function"
    }
  ],
  "transactionHash": "0xabdd50004310b82b990d88c7b8327908a149e42d3cfb748bf4075b46b54dfe38",
  "args": [],
  "numDeployments": 13,
  "solcInputHash": "8426741443c8bc5db799ed9e10b58b00",
  "bytecode": "0x608060405234801561001057600080fd5b50614e31806100206000396000f3fe608060405234801561001057600080fd5b50600436106103365760003560e01c806383d83c98116101b2578063c45a0155116100f9578063e01f8e4b116100a2578063f10cffbd1161007c578063f10cffbd1461081c578063f15cac341461082f578063f298083b14610842578063f2fde38b1461085557600080fd5b8063e01f8e4b146107e3578063e6251237146107f6578063eb9132dd1461080957600080fd5b8063d700e89f116100d3578063d700e89f14610781578063d9e85c841461078a578063da142807146107aa57600080fd5b8063c45a015514610748578063c49df4bf1461075b578063ceed1b901461076e57600080fd5b8063ba13a5721161015b578063bdc2b16611610135578063bdc2b1661461070f578063be3f34a114610722578063c0c53b8b1461073557600080fd5b8063ba13a572146106d6578063bb245c63146106e9578063bb9febaf146106fc57600080fd5b80639f6f85541161018c5780639f6f855414610690578063a815a221146106a3578063a8e577e3146106b657600080fd5b806383d83c981461063e5780638da5cb5b1461066c57806394567d4e1461067d57600080fd5b806338081de2116102815780635cb3b14f1161022a5780636978531a116102045780636978531a146105e2578063715018a6146105f5578063727e0deb146105fd5780637336c38d1461062b57600080fd5b80635cb3b14f146105695780635db0862d146105995780635eb1877e146105b957600080fd5b80634ae331391161025b5780634ae33139146105305780634c330fbc146105435780634e75ce891461055657600080fd5b806338081de21461049957806339f67738146104ac578063448299b31461051d57600080fd5b80631306c0a5116102e3578063210123e5116102bd578063210123e51461045e5780632a48ac9a146104715780632a5c792a1461048457600080fd5b80631306c0a5146103df57806318dd152f146103ff5780631ee08fa11461041257600080fd5b80630796284511610314578063079628451461038c57806308d89d5f146103b95780630dc72647146103cc57600080fd5b8063038440971461033b5780630418945a146103505780630627e38014610363575b600080fd5b61034e61034936600461342c565b610868565b005b61034e61035e366004613497565b610c76565b6103766103713660046134c9565b610cfe565b6040516103839190613548565b60405180910390f35b6103ac61039a366004613497565b60756020526000908152604090205481565b6040516103839190613561565b61034e6103c736600461356f565b610d3c565b6103766103da3660046134c9565b610f12565b6103f26103ed3660046135d9565b610fbe565b604051610383919061361f565b61037661040d366004613497565b610ff6565b61044e610420366004613497565b607460205260009081526040902080546001820154600290920154909160ff80821692610100909204169084565b6040516103839493929190613635565b61034e61046c366004613497565b61100f565b61034e61047f36600461356f565b6110a2565b61048c61116b565b6040516103839190613746565b6103766104a7366004613497565b6112e8565b61050a6104ba36600461342c565b8051602081830181018051606c825292820191909301209152805460018201546002830154600384015460048501546005909501546001600160a01b03851695600160a01b90950460ff16949087565b6040516103839796959493929190613757565b61034e61052b366004613497565b6113b5565b61034e61053e3660046137d2565b611448565b61034e610551366004613497565b611832565b6103f261056436600461342c565b6118c5565b61058c610577366004613497565b606f6020526000908152604090205460ff1681565b60405161038391906138e3565b607a546105ac906001600160a01b031681565b6040516103839190613933565b6103f26105c7366004613497565b6070602052600090815260409020546001600160a01b031681565b606a546103f2906001600160a01b031681565b61034e61190f565b61058c61060b36600461342c565b805160208183018101805160778252928201919093012091525460ff1681565b61034e61063936600461356f565b611945565b61058c61064c36600461342c565b805160208183018101805160798252928201919093012091525460ff1681565b6033546001600160a01b03166103f2565b6068546103f2906001600160a01b031681565b61034e61069e366004613497565b611b54565b61034e6106b1366004613497565b611be7565b6103ac6106c4366004613497565b60766020526000908152604090205481565b6067546103f2906001600160a01b031681565b6078546105ac906001600160a01b031681565b6103f261070a366004613941565b611c7a565b61034e61071d3660046134c9565b611e0d565b61034e610730366004613497565b611e98565b61034e6107433660046139bf565b611f84565b6065546105ac906001600160a01b031681565b61034e610769366004613a05565b612052565b6066546105ac906001600160a01b031681565b6103ac606b5481565b61079d61079836600461342c565b612274565b6040516103839190613a52565b6103ac6107b8366004613a60565b6001600160a01b03918216600090815260726020908152604080832093909416825291909152205490565b61034e6107f1366004613a82565b612342565b6069546103f2906001600160a01b031681565b61034e610817366004613941565b6123e9565b61037661082a366004613aa6565b612652565b61034e61083d366004613b53565b6127c1565b61034e610850366004613497565b6128f4565b61034e610863366004613497565b612987565b806000606c8260405161087b9190613be7565b9081526020016040518091039020600501549050804210156108b85760405162461bcd60e51b81526004016108af90613c4b565b60405180910390fd5b8260006108c4826118c5565b6001600160a01b038116600090815260746020526040902060010154909150610100900460ff16156109085760405162461bcd60e51b81526004016108af90613cb3565b6000610913866118c5565b6001600160a01b0381166000908152607460209081526040808320607190925282208054939450909261094590613cd9565b80601f016020809104026020016040519081016040528092919081815260200182805461097190613cd9565b80156109be5780601f10610993576101008083540402835291602001916109be565b820191906000526020600020905b8154815290600101906020018083116109a157829003601f168201915b5050505050905060006077896040516109d79190613be7565b9081526040519081900360200190205460ff1615610a695760785460405163f66a1b7160e01b81526001600160a01b039091169063f66a1b7190610a1f908c90600401613548565b6020604051808303816000875af1158015610a3e573d6000803e3d6000fd5b505050506040513d601f19601f82011682018060405250810190610a629190613d0a565b9050610b37565b607989604051610a799190613be7565b9081526040519081900360200190205460ff1615610ac157607a5460405163f66a1b7160e01b81526001600160a01b039091169063f66a1b7190610a1f908c90600401613548565b60665460405163f66a1b7160e01b81526001600160a01b039091169063f66a1b7190610af1908590600401613548565b6020604051808303816000875af1158015610b10573d6000803e3d6000fd5b505050506040513d601f19601f82011682018060405250810190610b349190613d0a565b90505b60018301805461ff001916610100179055808355604051600090606c90610b5f908c90613be7565b908152604080516020928190038301812060e08201835280546001600160a01b0381168352600160a01b900460ff1615159382019390935260018301549181019190915260028201546060820152600382015460808201819052600483015460a083015260059092015460c082015291506000908310801590610be3575081602001515b9050600082608001518411158015610bfd57508260200151155b905060008280610c0a5750815b610c15576000610c18565b60015b60018801805460ff19168215151790556040519091507f4f7bb4bf5b5d9e711ae7506fc1acd843eea9f216861a09c312fefb7e05095a3690610c5f908f9088908590613d2b565b60405180910390a150505050505050505050505050565b6033546001600160a01b03163314610ca05760405162461bcd60e51b81526004016108af90613d88565b6001600160a01b0381166000908152606f602052604090819020805460ff19166001179055517f86b377b6d485043d4a8b2b0c26051f82529ea2d7c23b1188598416473c12309390610cf390839061361f565b60405180910390a150565b606060005b82811015610d365781604051602001610d1c9190613da6565b60408051601f198184030181529190529150600101610d03565b50919050565b826000606c82604051610d4f9190613be7565b908152602001604051809103902060050154905080421015610d835760405162461bcd60e51b81526004016108af90613c4b565b84846000610d90836118c5565b6001600160a01b03818116600090815260706020526040902054919250838116911614610dcf5760405162461bcd60e51b81526004016108af90613e13565b6000610dda896118c5565b6001600160a01b03811660009081526074602090815260409182902082516080810184528154808252600183015460ff80821615159584019590955261010090049093161515938101939093526002015460608301529192509015801590610e43575080604001515b610e5f5760405162461bcd60e51b81526004016108af90613e55565b8060200151610e805760405162461bcd60e51b81526004016108af90613ebd565b6000610e8c8a8a6129e3565b9050610ea26001600160a01b038b163383612aa1565b604051632770a7eb60e21b815283906001600160a01b03821690639dc29fac90610ed29033908e90600401613ecd565b600060405180830381600087803b158015610eec57600080fd5b505af1158015610f00573d6000803e3d6000fd5b50505050505050505050505050505050565b606e8181548110610f2257600080fd5b906000526020600020016000915090508054610f3d90613cd9565b80601f0160208091040260200160405190810160405280929190818152602001828054610f6990613cd9565b8015610fb65780601f10610f8b57610100808354040283529160200191610fb6565b820191906000526020600020905b815481529060010190602001808311610f9957829003601f168201915b505050505081565b60736020528160005260406000208181548110610fda57600080fd5b6000918252602090912001546001600160a01b03169150829050565b606d6020526000908152604090208054610f3d90613cd9565b6033546001600160a01b031633146110395760405162461bcd60e51b81526004016108af90613d88565b6068546040517ff4b601aa15ee1d2340ac8d1e8f1ddf16fe98866801b5c057bec51086aa6d750291611078916001600160a01b03909116908490613ee8565b60405180910390a1606880546001600160a01b0319166001600160a01b0392909216919091179055565b826000606c826040516110b59190613be7565b9081526020016040518091039020600401549050804211156110e95760405162461bcd60e51b81526004016108af90613f5b565b848460006110f6836118c5565b6001600160a01b038181166000908152607060205260409020549192508381169116146111355760405162461bcd60e51b81526004016108af90613e13565b600086116111555760405162461bcd60e51b81526004016108af90613f9d565b61116188888833612b29565b5050505050505050565b606e5460609060008167ffffffffffffffff81111561118c5761118c613336565b60405190808252806020026020018201604052801561120857816020015b6111f56040518060e0016040528060006001600160a01b0316815260200160001515815260200160008152602001600081526020016000815260200160008152602001600081525090565b8152602001906001900390816111aa5790505b50905060005b828110156112e157606c606e828154811061122b5761122b613fad565b906000526020600020016040516112429190614031565b90815260408051918290036020908101832060e08401835280546001600160a01b038116855260ff600160a01b909104161515918401919091526001810154918301919091526002810154606083015260038101546080830152600481015460a08301526005015460c082015282518390839081106112c3576112c3613fad565b602002602001018190525080806112d990614051565b91505061120e565b5092915050565b6001600160a01b0381166000908152606d6020526040902080546060919061130f90613cd9565b80601f016020809104026020016040519081016040528092919081815260200182805461133b90613cd9565b80156113885780601f1061135d57610100808354040283529160200191611388565b820191906000526020600020905b81548152906001019060200180831161136b57829003601f168201915b5050505050905060008151116113b05760405162461bcd60e51b81526004016108af9061409c565b919050565b6033546001600160a01b031633146113df5760405162461bcd60e51b81526004016108af90613d88565b6078546040517f7fa20b7236ace70bca6943a342603ca5d68d220e2f7b4a81ebe52fe8b618ba289161141e916001600160a01b03909116908490613ee8565b60405180910390a1607880546001600160a01b0319166001600160a01b0392909216919091179055565b6033546001600160a01b031633146114725760405162461bcd60e51b81526004016108af90613d88565b60128711158015611484575060128611155b6114a05760405162461bcd60e51b81526004016108af906140de565b85896001600160a01b031663313ce5676040518163ffffffff1660e01b8152600401602060405180830381865afa1580156114df573d6000803e3d6000fd5b505050506040513d601f19601f820116820180604052508101906115039190614102565b60ff16146115235760405162461bcd60e51b81526004016108af90614155565b4283116115425760405162461bcd60e51b81526004016108af90614197565b828210156115625760405162461bcd60e51b81526004016108af906141d9565b60006115718b89888c89612652565b6065546040517f87f0061a0000000000000000000000000000000000000000000000000000000081529192506000916001600160a01b03909116906387f0061a906115c29085908c906004016141e9565b6020604051808303816000875af11580156115e1573d6000803e3d6000fd5b505050506040513d601f19601f820116820180604052508101906116059190614214565b90506040518060e00160405280826001600160a01b031681526020018b151581526020018a815260200189815260200188815260200186815260200185815250606c836040516116559190613be7565b9081526040805191829003602090810190922083518154858501511515600160a01b027fffffffffffffffffffffff0000000000000000000000000000000000000000009091166001600160a01b0392831617178255848301516001830155606085015160028301556080850151600383015560a0850151600483015560c090940151600590910155918316600090815260718252919091208d516116fc928f019061329d565b506001600160a01b0381166000908152606d6020908152604090912083516117269285019061329d565b50606e8054600181018255600091909152825161176a917f9930d9ff0dee0ef5ca2f7710ea66b8f84dd0f5f5351ecffe72b952cd9db7142a0190602085019061329d565b507f5c781be7034983eed256e8250b1df5111e452c6dd41a3e415bdeda1cac92348882828a88886040516117a2959493929190614235565b60405180910390a1826001036117e95760016077836040516117c49190613be7565b908152604051908190036020019020805491151560ff19909216919091179055611824565b826002036118245760016079836040516118039190613be7565b908152604051908190036020019020805491151560ff199092169190911790555b505050505050505050505050565b6033546001600160a01b0316331461185c5760405162461bcd60e51b81526004016108af90613d88565b606a546040517f5a1397fff7d6f4aaebc9effcfc3a2fa8e89631d59ec574c1eaef6d709b5c9ab09161189b916001600160a01b03909116908490613ee8565b60405180910390a1606a80546001600160a01b0319166001600160a01b0392909216919091179055565b6000606c826040516118d79190613be7565b908152604051908190036020019020546001600160a01b03169050806113b05760405162461bcd60e51b81526004016108af906142b8565b6033546001600160a01b031633146119395760405162461bcd60e51b81526004016108af90613d88565b6119436000612cd9565b565b826000606c826040516119589190613be7565b90815260200160405180910390206004015490508042111561198c5760405162461bcd60e51b81526004016108af90613f5b565b84846000611999836118c5565b6001600160a01b038181166000908152607060205260409020549192508381169116146119d85760405162461bcd60e51b81526004016108af90613e13565b60006119e3896118c5565b3360009081526072602090815260408083206001600160a01b0385168452909152902054909150871115611a295760405162461bcd60e51b81526004016108af906142fa565b3360009081526072602090815260408083206001600160a01b038516845290915281208054899290611a5c90849061430a565b9091555060009050611a6e89896129e3565b9050611a846001600160a01b038a163383612aa1565b604051632770a7eb60e21b815282906001600160a01b03821690639dc29fac90611ab49033908d90600401613ecd565b600060405180830381600087803b158015611ace57600080fd5b505af1158015611ae2573d6000803e3d6000fd5b50505050896001600160a01b03168b604051611afe9190613be7565b6040518091039020336001600160a01b03167fae452465b27fa0406f99c961c3bbf8215e6dabe24c0da5dd5981206d9038500a8c604051611b3f9190613561565b60405180910390a45050505050505050505050565b6033546001600160a01b03163314611b7e5760405162461bcd60e51b81526004016108af90613d88565b607a546040517fc4cae50b1b6dc542da9d15a83b544e8c7316282359fb2e6f8835278cfef3905891611bbd916001600160a01b03909116908490613ee8565b60405180910390a1607a80546001600160a01b0319166001600160a01b0392909216919091179055565b6033546001600160a01b03163314611c115760405162461bcd60e51b81526004016108af90613d88565b6069546040517f991cc531d0c7ce0a4a8db8a26f722bbbe727c8f45445520fa447050bb313457f91611c50916001600160a01b03909116908490613ee8565b60405180910390a1606980546001600160a01b0319166001600160a01b0392909216919091179055565b6001600160a01b0383166000908152606f6020526040812054849060ff161515600114611cb95760405162461bcd60e51b81526004016108af90614379565b8560006001600160a01b0316606c82604051611cd59190613be7565b908152604051908190036020019020546001600160a01b031603611d0b5760405162461bcd60e51b81526004016108af906143e1565b6033546001600160a01b0316331480611d2e5750606a546001600160a01b031633145b611d4a5760405162461bcd60e51b81526004016108af90614423565b428511611d695760405162461bcd60e51b81526004016108af90614197565b606c87604051611d799190613be7565b9081526020016040518091039020600401548514611da95760405162461bcd60e51b81526004016108af9061448b565b6000611db4886118c5565b90506000611dc482898989612d2b565b90507f04c12766244f2559dd215eecd69f70fdfce0e2c2260b5d52cb8b63738622eaa481838a604051611df99392919061449b565b60405180910390a198975050505050505050565b6033546001600160a01b03163314611e375760405162461bcd60e51b81526004016108af90613d88565b600a811115611e585760405162461bcd60e51b81526004016108af906144f5565b7f5102efe34236afea4a39241911bce7d2001cd809276c20be9dceb33a59c13cc6606b5482604051611e8b929190614505565b60405180910390a1606b55565b6067546001600160a01b031615801590611ebc57506068546001600160a01b031615155b611ed85760405162461bcd60e51b81526004016108af9061456b565b6001600160a01b03811660009081526075602090815260408083205460769092529091205481151580611f0b5750600081115b611f275760405162461bcd60e51b81526004016108af906145ad565b606754611f41906001600160a01b03858116911684612aa1565b606854611f5b906001600160a01b03858116911683612aa1565b50506001600160a01b031660009081526075602090815260408083208390556076909152812055565b600054610100900460ff16611f9f5760005460ff1615611fa3565b303b155b611fbf5760405162461bcd60e51b81526004016108af90614615565b600054610100900460ff16158015611fe1576000805461ffff19166101011790555b611fe9612dfc565b6001600160a01b038085166000908152606f60205260409020805460ff19166001179055606580548583166001600160a01b03199182161790915560668054928516929091169190911790556002606b55801561204c576000805461ff00191690555b50505050565b816000606c826040516120659190613be7565b9081526020016040518091039020600501549050804210156120995760405162461bcd60e51b81526004016108af90613c4b565b838360006120a6836118c5565b6001600160a01b038181166000908152607060205260409020549192508381169116146120e55760405162461bcd60e51b81526004016108af90613e13565b60006120f0886118c5565b6001600160a01b03811660009081526074602090815260409182902082516080810184528154808252600183015460ff80821615159584019590955261010090049093161515938101939093526002015460608301529192509015801590612159575080604001515b6121755760405162461bcd60e51b81526004016108af90613e55565b6020810151156121975760405162461bcd60e51b81526004016108af9061467d565b3360009081526072602090815260408083206001600160a01b0386168452909152902054806121d85760405162461bcd60e51b81526004016108af906146e5565b60006121e48a836129e3565b90506121fa6001600160a01b038b163383612aa1565b3360009081526072602090815260408083206001600160a01b0388811685529252808320929092559051908b1690612233908d90613be7565b6040518091039020336001600160a01b03167f03562b7020b16271daf63f8af4dfad66194d3a83359909327c31983326b1287f84604051611b3f9190613561565b6122bf6040518060e0016040528060006001600160a01b0316815260200160001515815260200160008152602001600081526020016000815260200160008152602001600081525090565b606c826040516122cf9190613be7565b90815260408051918290036020908101832060e08401835280546001600160a01b038116855260ff600160a01b909104161515918401919091526001810154918301919091526002810154606083015260038101546080830152600481015460a08301526005015460c082015292915050565b606a546001600160a01b0316331461236c5760405162461bcd60e51b81526004016108af90614727565b6001600160a01b038084166000908152607260209081526040808320938616835292905290812080548392906123a3908490614737565b90915550506040517feebcbef3192071bb2337eab3d89bd9a6b2cfb3218aae8627e9c1eab826b88ace906123dc9085908590859061474f565b60405180910390a1505050565b6033546001600160a01b031633146124135760405162461bcd60e51b81526004016108af90613d88565b600061241e856118c5565b6001600160a01b03811660009081526074602090815260409182902082516080810184528154808252600183015460ff8082161515958401959095526101009004909316151593810193909352600201546060830152919250901580159061248c5750604081015115156001145b6124a85760405162461bcd60e51b81526004016108af90613e55565b6020810151156124ca5760405162461bcd60e51b81526004016108af9061467d565b6001600160a01b03821660009081526073602052604081205460608301518110156125075760405162461bcd60e51b81526004016108af906147a9565b85158015612513575084155b15612591576125258488600084612e2b565b61252f9083614737565b6001600160a01b038516600090815260746020526040808220600201849055519193507fb882f84541d4c34087dd3a3971b96ad170bc52a7907def174bb86f986bce6e2c91612584918b918b919086906147ce565b60405180910390a1611161565b858360600151146125b45760405162461bcd60e51b81526004016108af90614853565b8085106125d35760405162461bcd60e51b81526004016108af90614895565b6125df84888888612e2b565b6125e99083614737565b6001600160a01b03851660009081526074602052604090819020600201879055519092507fb882f84541d4c34087dd3a3971b96ad170bc52a7907def174bb86f986bce6e2c90612640908a908a908a908a906148a5565b60405180910390a15050505050505050565b6060600083612696576040518060400160405280600181526020017f4c000000000000000000000000000000000000000000000000000000000000008152506126cd565b6040518060400160405280600181526020017f48000000000000000000000000000000000000000000000000000000000000008152505b905060006126e3670de0b6b3a7640000876148e8565b905060006060670de0b6b3a764000088066126ff8a601261430a565b61270a90600a614a0a565b61271490826148e8565b925061272160018b61430a565b61272c90600a614a0a565b83101561277057612740610371828c612f26565b61274984612f99565b60405160200161275a929190614a19565b604051602081830303815290604052915061277c565b61277983612f99565b91505b60008b61278886612f99565b84888b60405160200161279f959493929190614a7f565b60408051601f1981840301815291905296505050505050505b95945050505050565b836000606c826040516127d49190613be7565b9081526020016040518091039020600401549050804211156128085760405162461bcd60e51b81526004016108af90613f5b565b85856000612815836118c5565b6001600160a01b038181166000908152607060205260409020549192508381169116146128545760405162461bcd60e51b81526004016108af90613e13565b6069546001600160a01b0316331461287e5760405162461bcd60e51b81526004016108af90614b3d565b6000871161289e5760405162461bcd60e51b81526004016108af90613f9d565b6128aa89898989612b29565b7f99f877ebe25ff1544a89db7db58d9d0b180af2288344cf1792272a4a07fd7c9933878b8b8b6040516128e1959493929190614b4d565b60405180910390a1505050505050505050565b6033546001600160a01b0316331461291e5760405162461bcd60e51b81526004016108af90613d88565b6067546040517f5bbcd5c9a4c18f44ac2b1174e1034735fda1eb2008b8cc091ef347c7f6b9690a9161295d916001600160a01b03909116908490613ee8565b60405180910390a1606780546001600160a01b0319166001600160a01b0392909216919091179055565b6033546001600160a01b031633146129b15760405162461bcd60e51b81526004016108af90613d88565b6001600160a01b0381166129d75760405162461bcd60e51b81526004016108af90614be1565b6129e081612cd9565b50565b6000806103e86129f5846103de614bf1565b6129ff91906148e8565b90506000612a0d828561430a565b90506000600a606b5483612a219190614bf1565b612a2b91906148e8565b6001600160a01b038716600090815260756020526040812080549293508392909190612a58908490614737565b90915550612a689050818361430a565b6001600160a01b03871660009081526076602052604081208054909190612a90908490614737565b909155509293505050505b92915050565b612b248363a9059cbb60e01b8484604051602401612ac0929190613ecd565b60408051601f198184030181529190526020810180517bffffffffffffffffffffffffffffffffffffffffffffffffffffffff167fffffffff00000000000000000000000000000000000000000000000000000000909316929092179091526130b2565b505050565b6000612b34856118c5565b6001600160a01b03808416600090815260726020908152604080832093851683529290529081205491925003612ba3576001600160a01b0381811660009081526073602090815260408220805460018101825590835291200180546001600160a01b0319169184169190911790555b6001600160a01b03808316600090815260726020908152604080832093851683529290529081208054859290612bda908490614737565b90915550612bf590506001600160a01b038516833086613141565b6040517f40c10f1900000000000000000000000000000000000000000000000000000000815281906001600160a01b038216906340c10f1990612c3e9086908890600401613ecd565b600060405180830381600087803b158015612c5857600080fd5b505af1158015612c6c573d6000803e3d6000fd5b50505050846001600160a01b031686604051612c889190613be7565b6040518091039020846001600160a01b03167faad69ef0c77f7c04ba3390022ae56a77ba8686b6cd9530eff3a0a8c38d33e5ad87604051612cc99190613561565b60405180910390a4505050505050565b603380546001600160a01b038381166001600160a01b0319831681179093556040519116919082907f8be0079c531659141344cd1fd0a4f28419497f9722a3daafe3b4186f6b6457e090600090a35050565b6065546040517f3a5f69f800000000000000000000000000000000000000000000000000000000815260009182916001600160a01b0390911690633a5f69f890612d7f908990899089908990600401614c10565b6020604051808303816000875af1158015612d9e573d6000803e3d6000fd5b505050506040513d601f19601f82011682018060405250810190612dc29190614214565b6001600160a01b03878116600090815260706020526040902080546001600160a01b0319169188169190911790559150505b949350505050565b600054610100900460ff16612e235760405162461bcd60e51b81526004016108af90614c83565b611943613162565b6000825b82811015612f1d576001600160a01b0386166000908152607360205260408120805483908110612e6157612e61613fad565b60009182526020808320909101546001600160a01b03908116808452607283526040808520928c1685529190925282205490925090612ea088836129e3565b90508015612eff57612ebc6001600160a01b0389168483612aa1565b6001600160a01b038084166000908152607260209081526040808320938d16835292905290812055612eee818361430a565b612ef89086614737565b9450612f07565b505050612f0b565b5050505b80612f1581614051565b915050612e2f565b50949350505050565b60006010821115612f3957612f39614c93565b5060016000805b83811015612f9157612f5381601061430a565b612f5e90600a614a0a565b612f6890866148e8565b915081600003612f845782612f7c81614051565b935050612f89565b612f91565b600101612f40565b505092915050565b606081600003612fc05750506040805180820190915260018152600360fc1b602082015290565b8160005b8115612fea5780612fd481614051565b9150612fe39050600a836148e8565b9150612fc4565b60008167ffffffffffffffff81111561300557613005613336565b6040519080825280601f01601f19166020018201604052801561302f576020820181803683370190505b5090505b8415612df45761304460018361430a565b9150613051600a86614ca9565b61305c906030614737565b60f81b81838151811061307157613071613fad565b60200101907effffffffffffffffffffffffffffffffffffffffffffffffffffffffffffff1916908160001a9053506130ab600a866148e8565b9450613033565b6000613107826040518060400160405280602081526020017f5361666545524332303a206c6f772d6c6576656c2063616c6c206661696c6564815250856001600160a01b03166131929092919063ffffffff16565b805190915015612b2457808060200190518101906131259190614cc8565b612b245760405162461bcd60e51b81526004016108af90614d41565b61204c846323b872dd60e01b858585604051602401612ac09392919061474f565b600054610100900460ff166131895760405162461bcd60e51b81526004016108af90614c83565b61194333612cd9565b60606131a184846000856131ab565b90505b9392505050565b6060824710156131cd5760405162461bcd60e51b81526004016108af90614da9565b843b6131eb5760405162461bcd60e51b81526004016108af90614deb565b600080866001600160a01b031685876040516132079190613be7565b60006040518083038185875af1925050503d8060008114613244576040519150601f19603f3d011682016040523d82523d6000602084013e613249565b606091505b5091509150613259828286613264565b979650505050505050565b606083156132735750816131a4565b8251156132835782518084602001fd5b8160405162461bcd60e51b81526004016108af9190613548565b8280546132a990613cd9565b90600052602060002090601f0160209004810192826132cb5760008555613311565b82601f106132e457805160ff1916838001178555613311565b82800160010185558215613311579182015b828111156133115782518255916020019190600101906132f6565b5061331d929150613321565b5090565b5b8082111561331d5760008155600101613322565b634e487b7160e01b600052604160045260246000fd5b601f19601f830116810181811067ffffffffffffffff8211171561337257613372613336565b6040525050565b600061338460405190565b90506113b0828261334c565b600067ffffffffffffffff8211156133aa576133aa613336565b601f19601f83011660200192915050565b82818337506000910152565b60006133da6133d584613390565b613379565b9050828152602081018484840111156133f5576133f5600080fd5b6134008482856133bb565b509392505050565b600082601f83011261341c5761341c600080fd5b8135612df48482602086016133c7565b60006020828403121561344157613441600080fd5b813567ffffffffffffffff81111561345b5761345b600080fd5b612df484828501613408565b60006001600160a01b038216612a9b565b61348181613467565b81146129e057600080fd5b8035612a9b81613478565b6000602082840312156134ac576134ac600080fd5b6000612df4848461348c565b80613481565b8035612a9b816134b8565b6000602082840312156134de576134de600080fd5b6000612df484846134be565b60005b838110156135055781810151838201526020016134ed565b8381111561204c5750506000910152565b6000613520825190565b8084526020840193506135378185602086016134ea565b601f01601f19169290920192915050565b602080825281016131a48184613516565b805b82525050565b60208101612a9b8284613559565b60008060006060848603121561358757613587600080fd5b833567ffffffffffffffff8111156135a1576135a1600080fd5b6135ad86828701613408565b93505060206135be8682870161348c565b92505060406135cf868287016134be565b9150509250925092565b600080604083850312156135ef576135ef600080fd5b60006135fb858561348c565b925050602061360c858286016134be565b9150509250929050565b61355b81613467565b60208101612a9b8284613616565b80151561355b565b608081016136438287613559565b613650602083018661362d565b61365d604083018561362d565b6127b86060830184613559565b80516136768382613616565b506020810151613689602084018261362d565b50604081015161369c6040840182613559565b5060608101516136af6060840182613559565b5060808101516136c26080840182613559565b5060a08101516136d560a0840182613559565b5060c0810151612b2460c0840182613559565b6136f2828261366a565b5060e00190565b60200190565b6000613709825190565b808452602093840193830160005b8281101561373c57815161372b87826136e8565b965050602082019150600101613717565b5093949350505050565b602080825281016131a481846136ff565b60e08101613765828a613616565b613772602083018961362d565b61377f6040830188613559565b61378c6060830187613559565b6137996080830186613559565b6137a660a0830185613559565b6137b360c0830184613559565b98975050505050505050565b801515613481565b8035612a9b816137bf565b6000806000806000806000806000806101408b8d0312156137f5576137f5600080fd5b8a3567ffffffffffffffff81111561380f5761380f600080fd5b61381b8d828e01613408565b9a5050602061382c8d828e0161348c565b995050604061383d8d828e016137c7565b985050606061384e8d828e016134be565b975050608061385f8d828e016134be565b96505060a06138708d828e016134be565b95505060c08b013567ffffffffffffffff81111561389057613890600080fd5b61389c8d828e01613408565b94505060e06138ad8d828e016134be565b9350506101006138bf8d828e016134be565b9250506101206138d18d828e016134be565b9150509295989b9194979a5092959850565b60208101612a9b828461362d565b6000612a9b6001600160a01b038316613908565b90565b6001600160a01b031690565b6000612a9b826138f1565b6000612a9b82613914565b61355b8161391f565b60208101612a9b828461392a565b6000806000806080858703121561395a5761395a600080fd5b843567ffffffffffffffff81111561397457613974600080fd5b61398087828801613408565b94505060206139918782880161348c565b93505060406139a2878288016134be565b92505060606139b3878288016134be565b91505092959194509250565b6000806000606084860312156139d7576139d7600080fd5b60006139e3868661348c565b93505060206139f48682870161348c565b92505060406135cf8682870161348c565b60008060408385031215613a1b57613a1b600080fd5b823567ffffffffffffffff811115613a3557613a35600080fd5b613a4185828601613408565b925050602061360c8582860161348c565b60e08101612a9b828461366a565b60008060408385031215613a7657613a76600080fd5b6000613a41858561348c565b600080600060608486031215613a9a57613a9a600080fd5b60006135ad868661348c565b600080600080600060a08688031215613ac157613ac1600080fd5b853567ffffffffffffffff811115613adb57613adb600080fd5b613ae788828901613408565b9550506020613af8888289016134be565b9450506040613b09888289016134be565b9350506060613b1a888289016137c7565b925050608086013567ffffffffffffffff811115613b3a57613b3a600080fd5b613b4688828901613408565b9150509295509295909350565b60008060008060808587031215613b6c57613b6c600080fd5b843567ffffffffffffffff811115613b8657613b86600080fd5b613b9287828801613408565b9450506020613ba38782880161348c565b9350506040613bb4878288016134be565b92505060606139b38782880161348c565b6000613bcf825190565b613bdd8185602086016134ea565b9290920192915050565b612a9b8183613bc5565b60368152602081017f43616e206e6f7420736574746c652f636c61696d2c2068617665206e6f74207281527f65616368656420736574746c6554696d657374616d7000000000000000000000602082015290505b60400190565b60208082528101612a9b81613bf1565b60248152602081017f5468697320706f6c6963792068617320616c7265616479206265656e2073657481527f746c65640000000000000000000000000000000000000000000000000000000060208201529050613c45565b60208082528101612a9b81613c5b565b634e487b7160e01b600052602260045260246000fd5b600281046001821680613ced57607f821691505b602082108103610d3657610d36613cc3565b8051612a9b816134b8565b600060208284031215613d1f57613d1f600080fd5b6000612df48484613cff565b60608082528101613d3c8186613516565b9050613d4b6020830185613559565b612df4604083018461362d565b60208082527f4f776e61626c653a2063616c6c6572206973206e6f7420746865206f776e657291019081526136f9565b60208082528101612a9b81613d58565b600360fc1b81525b60010190565b613db08183613bc5565b9050612a9b81613d98565b60238152602081017f496e76616c696420706f6c696379746f6b656e207769746820737461626c656381527f6f696e000000000000000000000000000000000000000000000000000000000060208201529050613c45565b60208082528101612a9b81613dbb565b601e8152602081017f48617665206e6f7420676f7420746865206f7261636c6520726573756c740000815290506136f9565b60208082528101612a9b81613e23565b602d8152602081017f54686520726573756c7420646f6573206e6f742068617070656e2c20796f752081527f63616e206e6f7420636c61696d0000000000000000000000000000000000000060208201529050613c45565b60208082528101612a9b81613e65565b60408101613edb8285613616565b6131a46020830184613559565b60408101613ef68285613616565b6131a46020830184613616565b602f8152602081017f43616e206e6f74206465706f7369742f72656465656d2c20686173207061737381527f65642074686520646561646c696e65000000000000000000000000000000000060208201529050613c45565b60208082528101612a9b81613f03565b600b8152602081017f5a65726f20416d6f756e74000000000000000000000000000000000000000000815290506136f9565b60208082528101612a9b81613f6b565b634e487b7160e01b600052603260045260246000fd5b60008154613fd081613cd9565b600182168015613fe75760018114613ff857614028565b60ff19831686528186019350614028565b60008581526020902060005b8381101561402057815488820152600190910190602001614004565b505081860193505b50505092915050565b612a9b8183613fc3565b634e487b7160e01b600052601160045260246000fd5b6000600182016140635761406361403b565b5060010190565b60158152602081017f506f6c696379206e616d65206e6f7420666f756e640000000000000000000000815290506136f9565b60208082528101612a9b8161406a565b60118152602081017f546f6f206d616e7920646563696d616c73000000000000000000000000000000815290506136f9565b60208082528101612a9b816140ac565b60ff8116613481565b8051612a9b816140ee565b60006020828403121561411757614117600080fd5b6000612df484846140f7565b60138152602081017f446563696d616c73206e6f742070616972656400000000000000000000000000815290506136f9565b60208082528101612a9b81614123565b600e8152602081017f57726f6e6720646561646c696e65000000000000000000000000000000000000815290506136f9565b60208082528101612a9b81614165565b60158152602081017f57726f6e6720736574746c6554696d657374616d700000000000000000000000815290506136f9565b60208082528101612a9b816141a7565b604080825281016141fa8185613516565b90506131a46020830184613559565b8051612a9b81613478565b60006020828403121561422957614229600080fd5b6000612df48484614209565b60a080825281016142468188613516565b90506142556020830187613616565b6142626040830186613559565b61426f6060830185613559565b61427c6080830184613559565b9695505050505050565b60168152602081017f506f6c69637920746f6b656e206e6f7420666f756e6400000000000000000000815290506136f9565b60208082528101612a9b81614286565b601b8152602081017f5573657227732071756f7461206e6f742073756666696369656e740000000000815290506136f9565b60208082528101612a9b816142c8565b60008282101561431c5761431c61403b565b500390565b60288152602081017f446f206e6f7420737570706f7274207468697320737461626c65636f696e206381527f757272656e746c7900000000000000000000000000000000000000000000000060208201529050613c45565b60208082528101612a9b81614321565b603f8152602081017f5468697320706f6c69637920746f6b656e20686173206e6f74206265656e206481527f65706c6f7965642c20706c65617365206465706c6f792069742066697273740060208201529050613c45565b60208082528101612a9b81614389565b60118152602081017f4f6e6c79206f776e6572206f7220494c4d000000000000000000000000000000815290506136f9565b60208082528101612a9b816143f1565b602b8152602081017f506f6c69637920746f6b656e20616e6420706f6f6c20646561646c696e65206e81527f6f74207468652073616d6500000000000000000000000000000000000000000060208201529050613c45565b60208082528101612a9b81614433565b606081016144a98286613616565b6144b66020830185613616565b612df46040830184613616565b60068152602081017f4d61782031300000000000000000000000000000000000000000000000000000815290506136f9565b60208082528101612a9b816144c3565b60408101613edb8285613559565b602e8152602081017f506c656173652073657420746865206c6f7474657279202620696e636f6d655381527f686172696e67206164647265737300000000000000000000000000000000000060208201529050613c45565b60208082528101612a9b81614513565b60118152602081017f4e6f2070656e64696e6720696e636f6d65000000000000000000000000000000815290506136f9565b60208082528101612a9b8161457b565b602e8152602081017f496e697469616c697a61626c653a20636f6e747261637420697320616c72656181527f647920696e697469616c697a656400000000000000000000000000000000000060208201529050613c45565b60208082528101612a9b816145bd565b60368152602081017f4f6e6c792063616c6c20746869732066756e6374696f6e207768656e2074686581527f206576656e7420646f6573206e6f742068617070656e0000000000000000000060208201529050613c45565b60208082528101612a9b81614625565b603b8152602081017f4e6f2071756f74612c20796f7520646964206e6f74206465706f73697420616e81527f64206d696e7420706f6c69637920746f6b656e73206265666f7265000000000060208201529050613c45565b60208082528101612a9b8161468d565b60088152602081017f4f6e6c7920494c4d000000000000000000000000000000000000000000000000815290506136f9565b60208082528101612a9b816146f5565b6000821982111561474a5761474a61403b565b500190565b6060810161475d8286613616565b61476a6020830185613616565b612df46040830184613559565b60148152602081017f4861766520646973747269627574656420616c6c000000000000000000000000815290506136f9565b60208082528101612a9b81614777565b6000612a9b6139058381565b61355b816147b9565b608080825281016147df8187613516565b90506147ee6020830186613616565b61365d60408301856147c5565b60328152602081017f596f75206e65656420746f2073746172742066726f6d20746865206c6173742081527f646973747269627574696f6e20706f696e74000000000000000000000000000060208201529050613c45565b60208082528101612a9b816147fb565b60128152602081017f496e76616c69642073746f7020696e6465780000000000000000000000000000815290506136f9565b60208082528101612a9b81614863565b608080825281016148b68187613516565b90506148c56020830186613616565b61365d6040830185613559565b634e487b7160e01b600052601260045260246000fd5b6000826148f7576148f76148d2565b500490565b80825b600185111561493b5780860481111561491a5761491a61403b565b600185161561492857908102905b80026149348560011c90565b94506148ff565b94509492505050565b600082614953575060016131a4565b81614960575060006131a4565b81600181146149765760028114614980576149ad565b60019150506131a4565b60ff8411156149915761499161403b565b8360020a9150848211156149a7576149a761403b565b506131a4565b5060208310610133831016604e8410600b84101617156149e0575081810a838111156149db576149db61403b565b6131a4565b6149ed84848460016148fc565b92509050818404811115614a0357614a0361403b565b0292915050565b60006131a46000198484614944565b614a238184613bc5565b90506131a48183613bc5565b7f5f000000000000000000000000000000000000000000000000000000000000008152613da0565b7f2e000000000000000000000000000000000000000000000000000000000000008152613da0565b614a898187613bc5565b9050614a9481614a2f565b9050614aa08186613bc5565b9050614aab81614a57565b9050614ab78185613bc5565b9050614ac281614a2f565b9050614ace8184613bc5565b9050614ad981614a2f565b905061427c8183613bc5565b60258152602081017f4f6e6c792074686520726f7574657220636f6e74726163742063616e2064656c81527f656761746500000000000000000000000000000000000000000000000000000060208201529050613c45565b60208082528101612a9b81614ae5565b60a08101614b5b8288613616565b614b686020830187613616565b8181036040830152614b7a8186613516565b905061426f6060830185613616565b60268152602081017f4f776e61626c653a206e6577206f776e657220697320746865207a65726f206181527f646472657373000000000000000000000000000000000000000000000000000060208201529050613c45565b60208082528101612a9b81614b89565b6000816000190483118215151615614c0b57614c0b61403b565b500290565b60808101614c1e8287613616565b6148c56020830186613616565b602b8152602081017f496e697469616c697a61626c653a20636f6e7472616374206973206e6f74206981527f6e697469616c697a696e6700000000000000000000000000000000000000000060208201529050613c45565b60208082528101612a9b81614c2b565b634e487b7160e01b600052600160045260246000fd5b600082614cb857614cb86148d2565b500690565b8051612a9b816137bf565b600060208284031215614cdd57614cdd600080fd5b6000612df48484614cbd565b602a8152602081017f5361666545524332303a204552433230206f7065726174696f6e20646964206e81527f6f7420737563636565640000000000000000000000000000000000000000000060208201529050613c45565b60208082528101612a9b81614ce9565b60268152602081017f416464726573733a20696e73756666696369656e742062616c616e636520666f81527f722063616c6c000000000000000000000000000000000000000000000000000060208201529050613c45565b60208082528101612a9b81614d51565b601d8152602081017f416464726573733a2063616c6c20746f206e6f6e2d636f6e7472616374000000815290506136f9565b60208082528101612a9b81614db956fea2646970667358221220fa24d93f5cb84be1e06ff1e55514fa6d4f2594e2ad29a403c821ecd68d51dd0864736f6c634300080d0033",
  "devdoc": {
    "details": "Most of the functions to be called from outside will use the name of policyToken         rather than the address (easy to read).         Other variables or functions still use address to index.         The rule of policyToken naming is:              Original Token Name(with decimals) + Strike Price + Lower or Higher + Date         E.g.  AVAX_30.0_L_2101, BTC_30000.0_L_2102, ETH_8000.0_H_2109         (the original name need to be the same as in the chainlink oracle)         There are three decimals for a policy token:              1. Name decimals: Only for generating the name of policyToken              2. Token decimals: The decimals of the policyToken                 (should be the same as the paired stablecoin)              3. Price decimals: Always 18. The oracle result will be transferred for settlement",
    "kind": "dev",
    "methods": {
      "_generateName(string,uint256,uint256,bool,string)": {
        "params": {
          "_decimals": "Decimals of the name generation (0,1=>1, 2=>2)",
          "_isCall": "The policy's payoff is triggered when higher(true) or lower(false)",
          "_round": "Round of the policy, named by <month><day> (e.g. 0320, 1215)",
          "_strikePrice": "Strike price of the policy (18 decimals)",
          "_tokenName": "Name of the stike token (BTC, ETH, AVAX...)"
        }
      },
      "addStablecoin(address)": {
        "params": {
          "_newStablecoin": "Address of the new stablecoin"
        }
      },
      "claim(string,address,uint256)": {
        "details": "It is done after result settlement and only if the result is true",
        "params": {
          "_amount": "Amount of stablecoin",
          "_policyTokenName": "Name of the policy token",
          "_stablecoin": "Address of the stable coin"
        }
      },
      "collectIncome(address)": {
        "details": "Can be done by anyone, only when there is some income to be distributed",
        "params": {
          "_stablecoin": "Address of stablecoin"
        }
      },
      "delegateDeposit(string,address,uint256,address)": {
        "details": "Only called by the router contract",
        "params": {
          "_amount": "Amount of stablecoin",
          "_policyTokenName": "Name of the policy token",
          "_stablecoin": "Address of the sable coin",
          "_user": "Address to receive the policy tokens"
        }
      },
      "deployPolicyToken(string,address,bool,uint256,uint256,uint256,string,uint256,uint256,uint256)": {
        "details": "Only the owner can deploy new policy tokens      The name form is like \"AVAX_50_L_2203\" and is built inside the contract      Name decimals and token decimals are different here      The original token name should be the same in Chainlink PriceFeeds      Those tokens that are not listed on Chainlink are not supported",
        "params": {
          "_deadline": "Deadline of this policy token (deposit / redeem / swap)",
          "_isCall": "The policy is for higher or lower than the strike price (call / put)",
          "_nameDecimals": "Decimals of this token's name (0~18)",
          "_poolType": "_poolType: 0 normal 1 IDO 2 arbitrary",
          "_round": "Round of the token (e.g. 2203 -> expired at 22 March)",
          "_settleTimestamp": "Can settle after this timestamp (for oracle)",
          "_stablecoin": "Address of the stablecoin (Just for check decimals here)",
          "_strikePrice": "Strike price of the policy (have already been transferred with 1e18)",
          "_tokenDecimals": "Decimals of this token's value (0~18) (same as paired stablecoin)",
          "_tokenName": "Name of the original token (e.g. AVAX, BTC, ETH...)"
        }
      },
      "deployPool(string,address,uint256,uint256)": {
        "params": {
          "_feeRate": "Fee rate given to LP holders",
          "_policyTokenName": "Name of the policy token",
          "_poolDeadline": "Swapping deadline of the pool (normally the same as the token's deadline)",
          "_stablecoin": "Address of the stable coin"
        }
      },
      "deposit(string,address,uint256)": {
        "params": {
          "_amount": "Amount of stablecoin",
          "_policyTokenName": "Name of the policy token",
          "_stablecoin": "Address of the stable coin"
        }
      },
      "findAddressbyName(string)": {
        "params": {
          "_policyTokenName": "Name of the policy token (e.g. \"AVAX_30_L_2103\")"
        },
        "returns": {
          "policyTokenAddress": "Address of the policy token"
        }
      },
      "findNamebyAddress(address)": {
        "params": {
          "_policyTokenAddress": "Address of the policy token"
        },
        "returns": {
          "policyTokenName": "Name of the policy token"
        }
      },
      "getAllTokens()": {
        "details": "Include all active&expired tokens",
        "returns": {
          "_0": "tokensInfo Token information list"
        }
      },
      "getPolicyTokenInfo(string)": {
        "params": {
          "_policyTokenName": "Name of the policy token (e.g. \"AVAX30L202103\")"
        },
        "returns": {
          "_0": "policyTokenInfo PolicyToken detail information"
        }
      },
      "getUserQuota(address,address)": {
        "params": {
          "_policyTokenAddress": "Address of the policy token",
          "_user": "Address of the user to be checked"
        },
        "returns": {
          "_quota": "User's quota result"
        }
      },
      "initialize(address,address,address)": {
        "params": {
          "_factory": "Address of naughty factory",
          "_priceGetter": "Address of the oracle contract",
          "_usdc": "USDC.e is the first stablecoin supported in the pool"
        }
      },
      "owner()": {
        "details": "Returns the address of the current owner."
      },
      "redeem(string,address,uint256)": {
        "details": "Redeem happens before the deadline and is different from claim/settle",
        "params": {
          "_amount": "Amount to redeem",
          "_policyTokenName": "Name of the policy token",
          "_stablecoin": "Address of the stablecoin"
        }
      },
      "redeemAfterSettlement(string,address)": {
        "params": {
          "_policyTokenName": "Name of the policy token",
          "_stablecoin": "Address of the stablecoin"
        }
      },
      "renounceOwnership()": {
        "details": "Leaves the contract without owner. It will not be possible to call `onlyOwner` functions anymore. Can only be called by the current owner. NOTE: Renouncing ownership will leave the contract without an owner, thereby removing any functionality that is only available to the owner."
      },
      "setIDOPriceGetter(address)": {
        "params": {
          "_idoPriceGetter": "Address of the new IDO price getter contract"
        }
      },
      "setILMContract(address)": {
        "params": {
          "_ILM": "Address of the new ILM"
        }
      },
      "setIncomeSharing(address)": {
        "params": {
          "_incomeSharing": "Address of the new incomeSharing"
        }
      },
      "setIncomeToLottery(uint256)": {
        "details": "The remaining part will be distributed to incomeSharing",
        "params": {
          "_toLottery": "Proportion to lottery"
        }
      },
      "setLottery(address)": {
        "params": {
          "_lotteryAddress": "Address of the new lottery"
        }
      },
      "setNaughtyRouter(address)": {
        "params": {
          "_router": "Address of the new naughty router"
        }
      },
      "settleAllPolicyTokens(string,address,uint256,uint256)": {
        "details": "Take care of the gas cost and can use the _startIndex and _stopIndex to control the size",
        "params": {
          "_policyTokenName": "Name of policy token",
          "_stablecoin": "Address of stablecoin",
          "_startIndex": "Settlement start index",
          "_stopIndex": "Settlement stop index"
        }
      },
      "settleFinalResult(string)": {
        "params": {
          "_policyTokenName": "Name of the policy token"
        }
      },
      "transferOwnership(address)": {
        "details": "Transfers ownership of the contract to a new account (`newOwner`). Can only be called by the current owner."
      },
      "updateUserQuota(address,address,uint256)": {
        "details": "When you claim your liquidity from ILM, you will get normal quota as you are using policyCore",
        "params": {
          "_amount": "Quota amount",
          "_policyToken": "PolicyToken address",
          "_user": "User address"
        }
      }
    },
    "title": "PolicyCore",
    "version": 1
  },
  "userdoc": {
    "kind": "user",
    "methods": {
      "_generateName(string,uint256,uint256,bool,string)": {
        "notice": "Generate the policy token name"
      },
      "addStablecoin(address)": {
        "notice": "Add a new supported stablecoin"
      },
      "claim(string,address,uint256)": {
        "notice": "Claim a payoff based on policy tokens"
      },
      "collectIncome(address)": {
        "notice": "Collect the income"
      },
      "delegateDeposit(string,address,uint256,address)": {
        "notice": "Delegate deposit (deposit and mint for other addresses)"
      },
      "deployPolicyToken(string,address,bool,uint256,uint256,uint256,string,uint256,uint256,uint256)": {
        "notice": "Deploy a new policy token and return the token address"
      },
      "deployPool(string,address,uint256,uint256)": {
        "notice": "Deploy a new pair (pool)"
      },
      "deposit(string,address,uint256)": {
        "notice": "Deposit stablecoins and get policy tokens"
      },
      "findAddressbyName(string)": {
        "notice": "Find the token address by its name"
      },
      "findNamebyAddress(address)": {
        "notice": "Find the token name by its address"
      },
      "getAllTokens()": {
        "notice": "Get the information about all the tokens"
      },
      "getPolicyTokenInfo(string)": {
        "notice": "Find the token information by its name"
      },
      "getUserQuota(address,address)": {
        "notice": "Get a user's quota for a certain policy token"
      },
      "initialize(address,address,address)": {
        "notice": "Constructor, for some addresses"
      },
      "redeem(string,address,uint256)": {
        "notice": "Burn policy tokens and redeem stablecoins"
      },
      "redeemAfterSettlement(string,address)": {
        "notice": "Redeem policy tokens and get stablecoins by the user himeself"
      },
      "setIDOPriceGetter(address)": {
        "notice": "Set IDO price getter contract"
      },
      "setILMContract(address)": {
        "notice": "Change the address of ILM"
      },
      "setIncomeSharing(address)": {
        "notice": "Change the address of emergency pool"
      },
      "setIncomeToLottery(uint256)": {
        "notice": "Change the income part to lottery"
      },
      "setLottery(address)": {
        "notice": "Change the address of lottery"
      },
      "setNaughtyRouter(address)": {
        "notice": "Change the address of naughty router"
      },
      "settleAllPolicyTokens(string,address,uint256,uint256)": {
        "notice": "Settle the policies for the users when insurance events do not happen         Funds are automatically distributed back to the depositors"
      },
      "settleFinalResult(string)": {
        "notice": "Get the final price from the PriceGetter contract"
      },
      "updateUserQuota(address,address,uint256)": {
        "notice": "Update user quota from ILM when claim"
      }
    },
    "notice": "Core logic of Naughty Price Product         Preset:              (Done in the naughtyFactory contract)              1. Deploy policyToken contract              2. Deploy policyToken-Stablecoin pool contract         User Interaction:              1. Deposit Stablecoin and mint PolicyTokens              2. Redeem their Stablecoin and burn the PolicyTokens (before settlement)              3. Claim for payout with PolicyTokens (after settlement)         PolicyTokens are minted with the ratio 1:1 to Stablecoin         The PolicyTokens are traded in the pool with CFMM (xy=k)         When the event happens, a PolicyToken can be burned for claiming 1 Stablecoin.         When the event does not happen, the PolicyToken depositors can         redeem their 1 deposited Stablecoin",
    "version": 1
  },
  "storageLayout": {
    "storage": [
      {
        "astId": 2670,
        "contract": "contracts/naughty-price/PolicyCore.sol:PolicyCore",
        "label": "_initialized",
        "offset": 0,
        "slot": "0",
        "type": "t_bool"
      },
      {
        "astId": 2673,
        "contract": "contracts/naughty-price/PolicyCore.sol:PolicyCore",
        "label": "_initializing",
        "offset": 1,
        "slot": "0",
        "type": "t_bool"
      },
      {
        "astId": 3907,
        "contract": "contracts/naughty-price/PolicyCore.sol:PolicyCore",
        "label": "__gap",
        "offset": 0,
        "slot": "1",
        "type": "t_array(t_uint256)50_storage"
      },
      {
        "astId": 2550,
        "contract": "contracts/naughty-price/PolicyCore.sol:PolicyCore",
        "label": "_owner",
        "offset": 0,
        "slot": "51",
        "type": "t_address"
      },
      {
        "astId": 2662,
        "contract": "contracts/naughty-price/PolicyCore.sol:PolicyCore",
        "label": "__gap",
        "offset": 0,
        "slot": "52",
        "type": "t_array(t_uint256)49_storage"
      },
      {
        "astId": 34532,
        "contract": "contracts/naughty-price/PolicyCore.sol:PolicyCore",
        "label": "factory",
        "offset": 0,
        "slot": "101",
        "type": "t_contract(INaughtyFactory)36891"
      },
      {
        "astId": 34535,
        "contract": "contracts/naughty-price/PolicyCore.sol:PolicyCore",
        "label": "priceGetter",
        "offset": 0,
        "slot": "102",
        "type": "t_contract(IPriceGetter)37166"
      },
      {
        "astId": 34537,
        "contract": "contracts/naughty-price/PolicyCore.sol:PolicyCore",
        "label": "lottery",
        "offset": 0,
        "slot": "103",
        "type": "t_address"
      },
      {
        "astId": 34539,
        "contract": "contracts/naughty-price/PolicyCore.sol:PolicyCore",
        "label": "incomeSharing",
        "offset": 0,
        "slot": "104",
        "type": "t_address"
      },
      {
        "astId": 34541,
        "contract": "contracts/naughty-price/PolicyCore.sol:PolicyCore",
        "label": "naughtyRouter",
        "offset": 0,
        "slot": "105",
        "type": "t_address"
      },
      {
        "astId": 34543,
        "contract": "contracts/naughty-price/PolicyCore.sol:PolicyCore",
        "label": "ILMContract",
        "offset": 0,
        "slot": "106",
        "type": "t_address"
      },
      {
        "astId": 34545,
        "contract": "contracts/naughty-price/PolicyCore.sol:PolicyCore",
        "label": "toLotteryPart",
        "offset": 0,
        "slot": "107",
        "type": "t_uint256"
      },
      {
        "astId": 34565,
        "contract": "contracts/naughty-price/PolicyCore.sol:PolicyCore",
        "label": "policyTokenInfoMapping",
        "offset": 0,
        "slot": "108",
        "type": "t_mapping(t_string_memory_ptr,t_struct(PolicyTokenInfo)34560_storage)"
      },
      {
        "astId": 34569,
        "contract": "contracts/naughty-price/PolicyCore.sol:PolicyCore",
        "label": "policyTokenAddressToName",
        "offset": 0,
        "slot": "109",
        "type": "t_mapping(t_address,t_string_storage)"
      },
      {
        "astId": 34572,
        "contract": "contracts/naughty-price/PolicyCore.sol:PolicyCore",
        "label": "allPolicyTokens",
        "offset": 0,
        "slot": "110",
        "type": "t_array(t_string_storage)dyn_storage"
      },
      {
        "astId": 34576,
        "contract": "contracts/naughty-price/PolicyCore.sol:PolicyCore",
        "label": "supportedStablecoin",
        "offset": 0,
        "slot": "111",
        "type": "t_mapping(t_address,t_bool)"
      },
      {
        "astId": 34580,
        "contract": "contracts/naughty-price/PolicyCore.sol:PolicyCore",
        "label": "whichStablecoin",
        "offset": 0,
        "slot": "112",
        "type": "t_mapping(t_address,t_address)"
      },
      {
        "astId": 34584,
        "contract": "contracts/naughty-price/PolicyCore.sol:PolicyCore",
        "label": "policyTokenToOriginal",
        "offset": 0,
        "slot": "113",
        "type": "t_mapping(t_address,t_string_storage)"
      },
      {
        "astId": 34590,
        "contract": "contracts/naughty-price/PolicyCore.sol:PolicyCore",
        "label": "userQuota",
        "offset": 0,
        "slot": "114",
        "type": "t_mapping(t_address,t_mapping(t_address,t_uint256))"
      },
      {
        "astId": 34595,
        "contract": "contracts/naughty-price/PolicyCore.sol:PolicyCore",
        "label": "allDepositors",
        "offset": 0,
        "slot": "115",
        "type": "t_mapping(t_address,t_array(t_address)dyn_storage)"
      },
      {
        "astId": 34609,
        "contract": "contracts/naughty-price/PolicyCore.sol:PolicyCore",
        "label": "settleResult",
        "offset": 0,
        "slot": "116",
        "type": "t_mapping(t_address,t_struct(SettlementInfo)34604_storage)"
      },
      {
        "astId": 34613,
        "contract": "contracts/naughty-price/PolicyCore.sol:PolicyCore",
        "label": "pendingIncomeToLottery",
        "offset": 0,
        "slot": "117",
        "type": "t_mapping(t_address,t_uint256)"
      },
      {
        "astId": 34617,
        "contract": "contracts/naughty-price/PolicyCore.sol:PolicyCore",
        "label": "pendingIncomeToSharing",
        "offset": 0,
        "slot": "118",
        "type": "t_mapping(t_address,t_uint256)"
      },
      {
        "astId": 34621,
        "contract": "contracts/naughty-price/PolicyCore.sol:PolicyCore",
        "label": "isIDOPool",
        "offset": 0,
        "slot": "119",
        "type": "t_mapping(t_string_memory_ptr,t_bool)"
      },
      {
        "astId": 34624,
        "contract": "contracts/naughty-price/PolicyCore.sol:PolicyCore",
        "label": "idoPriceGetter",
        "offset": 0,
        "slot": "120",
        "type": "t_contract(IPriceGetter)37166"
      },
      {
        "astId": 34628,
        "contract": "contracts/naughty-price/PolicyCore.sol:PolicyCore",
        "label": "isArbitraryPool",
        "offset": 0,
        "slot": "121",
        "type": "t_mapping(t_string_memory_ptr,t_bool)"
      },
      {
        "astId": 34631,
        "contract": "contracts/naughty-price/PolicyCore.sol:PolicyCore",
        "label": "arbitraryPriceGetter",
        "offset": 0,
        "slot": "122",
        "type": "t_contract(IPriceGetter)37166"
      }
    ],
    "types": {
      "t_address": {
        "encoding": "inplace",
        "label": "address",
        "numberOfBytes": "20"
      },
      "t_array(t_address)dyn_storage": {
        "base": "t_address",
        "encoding": "dynamic_array",
        "label": "address[]",
        "numberOfBytes": "32"
      },
      "t_array(t_string_storage)dyn_storage": {
        "base": "t_string_storage",
        "encoding": "dynamic_array",
        "label": "string[]",
        "numberOfBytes": "32"
      },
      "t_array(t_uint256)49_storage": {
        "base": "t_uint256",
        "encoding": "inplace",
        "label": "uint256[49]",
        "numberOfBytes": "1568"
      },
      "t_array(t_uint256)50_storage": {
        "base": "t_uint256",
        "encoding": "inplace",
        "label": "uint256[50]",
        "numberOfBytes": "1600"
      },
      "t_bool": {
        "encoding": "inplace",
        "label": "bool",
        "numberOfBytes": "1"
      },
      "t_contract(INaughtyFactory)36891": {
        "encoding": "inplace",
        "label": "contract INaughtyFactory",
        "numberOfBytes": "20"
      },
      "t_contract(IPriceGetter)37166": {
        "encoding": "inplace",
        "label": "contract IPriceGetter",
        "numberOfBytes": "20"
      },
      "t_mapping(t_address,t_address)": {
        "encoding": "mapping",
        "key": "t_address",
        "label": "mapping(address => address)",
        "numberOfBytes": "32",
        "value": "t_address"
      },
      "t_mapping(t_address,t_array(t_address)dyn_storage)": {
        "encoding": "mapping",
        "key": "t_address",
        "label": "mapping(address => address[])",
        "numberOfBytes": "32",
        "value": "t_array(t_address)dyn_storage"
      },
      "t_mapping(t_address,t_bool)": {
        "encoding": "mapping",
        "key": "t_address",
        "label": "mapping(address => bool)",
        "numberOfBytes": "32",
        "value": "t_bool"
      },
      "t_mapping(t_address,t_mapping(t_address,t_uint256))": {
        "encoding": "mapping",
        "key": "t_address",
        "label": "mapping(address => mapping(address => uint256))",
        "numberOfBytes": "32",
        "value": "t_mapping(t_address,t_uint256)"
      },
      "t_mapping(t_address,t_string_storage)": {
        "encoding": "mapping",
        "key": "t_address",
        "label": "mapping(address => string)",
        "numberOfBytes": "32",
        "value": "t_string_storage"
      },
      "t_mapping(t_address,t_struct(SettlementInfo)34604_storage)": {
        "encoding": "mapping",
        "key": "t_address",
        "label": "mapping(address => struct PolicyCore.SettlementInfo)",
        "numberOfBytes": "32",
        "value": "t_struct(SettlementInfo)34604_storage"
      },
      "t_mapping(t_address,t_uint256)": {
        "encoding": "mapping",
        "key": "t_address",
        "label": "mapping(address => uint256)",
        "numberOfBytes": "32",
        "value": "t_uint256"
      },
      "t_mapping(t_string_memory_ptr,t_bool)": {
        "encoding": "mapping",
        "key": "t_string_memory_ptr",
        "label": "mapping(string => bool)",
        "numberOfBytes": "32",
        "value": "t_bool"
      },
      "t_mapping(t_string_memory_ptr,t_struct(PolicyTokenInfo)34560_storage)": {
        "encoding": "mapping",
        "key": "t_string_memory_ptr",
        "label": "mapping(string => struct PolicyCore.PolicyTokenInfo)",
        "numberOfBytes": "32",
        "value": "t_struct(PolicyTokenInfo)34560_storage"
      },
      "t_string_memory_ptr": {
        "encoding": "bytes",
        "label": "string",
        "numberOfBytes": "32"
      },
      "t_string_storage": {
        "encoding": "bytes",
        "label": "string",
        "numberOfBytes": "32"
      },
      "t_struct(PolicyTokenInfo)34560_storage": {
        "encoding": "inplace",
        "label": "struct PolicyCore.PolicyTokenInfo",
        "members": [
          {
            "astId": 34547,
            "contract": "contracts/naughty-price/PolicyCore.sol:PolicyCore",
            "label": "policyTokenAddress",
            "offset": 0,
            "slot": "0",
            "type": "t_address"
          },
          {
            "astId": 34549,
            "contract": "contracts/naughty-price/PolicyCore.sol:PolicyCore",
            "label": "isCall",
            "offset": 20,
            "slot": "0",
            "type": "t_bool"
          },
          {
            "astId": 34551,
            "contract": "contracts/naughty-price/PolicyCore.sol:PolicyCore",
            "label": "nameDecimals",
            "offset": 0,
            "slot": "1",
            "type": "t_uint256"
          },
          {
            "astId": 34553,
            "contract": "contracts/naughty-price/PolicyCore.sol:PolicyCore",
            "label": "tokenDecimals",
            "offset": 0,
            "slot": "2",
            "type": "t_uint256"
          },
          {
            "astId": 34555,
            "contract": "contracts/naughty-price/PolicyCore.sol:PolicyCore",
            "label": "strikePrice",
            "offset": 0,
            "slot": "3",
            "type": "t_uint256"
          },
          {
            "astId": 34557,
            "contract": "contracts/naughty-price/PolicyCore.sol:PolicyCore",
            "label": "deadline",
            "offset": 0,
            "slot": "4",
            "type": "t_uint256"
          },
          {
            "astId": 34559,
            "contract": "contracts/naughty-price/PolicyCore.sol:PolicyCore",
            "label": "settleTimestamp",
            "offset": 0,
            "slot": "5",
            "type": "t_uint256"
          }
        ],
        "numberOfBytes": "192"
      },
      "t_struct(SettlementInfo)34604_storage": {
        "encoding": "inplace",
        "label": "struct PolicyCore.SettlementInfo",
        "members": [
          {
            "astId": 34597,
            "contract": "contracts/naughty-price/PolicyCore.sol:PolicyCore",
            "label": "price",
            "offset": 0,
            "slot": "0",
            "type": "t_uint256"
          },
          {
            "astId": 34599,
            "contract": "contracts/naughty-price/PolicyCore.sol:PolicyCore",
            "label": "isHappened",
            "offset": 0,
            "slot": "1",
            "type": "t_bool"
          },
          {
            "astId": 34601,
            "contract": "contracts/naughty-price/PolicyCore.sol:PolicyCore",
            "label": "alreadySettled",
            "offset": 1,
            "slot": "1",
            "type": "t_bool"
          },
          {
            "astId": 34603,
            "contract": "contracts/naughty-price/PolicyCore.sol:PolicyCore",
            "label": "currentDistributionIndex",
            "offset": 0,
            "slot": "2",
            "type": "t_uint256"
          }
        ],
        "numberOfBytes": "96"
      },
      "t_uint256": {
        "encoding": "inplace",
        "label": "uint256",
        "numberOfBytes": "32"
      }
    }
  }
}