{
  "address": "0xd2A997589d9c0e99DD271C9D60bae4c6273484c7",
  "abi": [
    {
      "anonymous": false,
      "inputs": [
        {
          "indexed": false,
          "internalType": "address",
          "name": "payerAddress",
          "type": "address"
        },
        {
          "indexed": false,
          "internalType": "address",
          "name": "userAddress",
          "type": "address"
        },
        {
          "indexed": false,
          "internalType": "string",
          "name": "policyTokenName",
          "type": "string"
        },
        {
          "indexed": false,
          "internalType": "address",
          "name": "stablecoin",
          "type": "address"
        },
        {
          "indexed": false,
          "internalType": "uint256",
          "name": "amount",
          "type": "uint256"
        }
      ],
      "name": "DelegateDeposit",
      "type": "event"
    },
    {
      "anonymous": false,
      "inputs": [
        {
          "indexed": true,
          "internalType": "address",
          "name": "userAddress",
          "type": "address"
        },
        {
          "indexed": true,
          "internalType": "string",
          "name": "policyTokenName",
          "type": "string"
        },
        {
          "indexed": true,
          "internalType": "address",
          "name": "stablecoin",
          "type": "address"
        },
        {
          "indexed": false,
          "internalType": "uint256",
          "name": "amount",
          "type": "uint256"
        }
      ],
      "name": "Deposit",
      "type": "event"
    },
    {
      "anonymous": false,
      "inputs": [
        {
          "indexed": false,
          "internalType": "string",
          "name": "_policyTokenName",
          "type": "string"
        },
        {
          "indexed": false,
          "internalType": "uint256",
          "name": "price",
          "type": "uint256"
        },
        {
          "indexed": false,
          "internalType": "bool",
          "name": "isHappened",
          "type": "bool"
        }
      ],
      "name": "FinalResultSettled",
      "type": "event"
    },
    {
      "anonymous": false,
      "inputs": [
        {
          "indexed": false,
          "internalType": "address",
          "name": "oldPriceGetter",
          "type": "address"
        },
        {
          "indexed": false,
          "internalType": "address",
          "name": "newPriceGetter",
          "type": "address"
        }
      ],
      "name": "IDOPriceGetterChanged",
      "type": "event"
    },
    {
      "anonymous": false,
      "inputs": [
        {
          "indexed": false,
          "internalType": "address",
          "name": "oldILM",
          "type": "address"
        },
        {
          "indexed": false,
          "internalType": "address",
          "name": "newILM",
          "type": "address"
        }
      ],
      "name": "ILMChanged",
      "type": "event"
    },
    {
      "anonymous": false,
      "inputs": [
        {
          "indexed": false,
          "internalType": "address",
          "name": "oldIncomeSharing",
          "type": "address"
        },
        {
          "indexed": false,
          "internalType": "address",
          "name": "newIncomeSharing",
          "type": "address"
        }
      ],
      "name": "IncomeSharingChanged",
      "type": "event"
    },
    {
      "anonymous": false,
      "inputs": [
        {
          "indexed": false,
          "internalType": "uint256",
          "name": "oldToLottery",
          "type": "uint256"
        },
        {
          "indexed": false,
          "internalType": "uint256",
          "name": "newToLottery",
          "type": "uint256"
        }
      ],
      "name": "IncomeToLotteryChanged",
      "type": "event"
    },
    {
      "anonymous": false,
      "inputs": [
        {
          "indexed": false,
          "internalType": "address",
          "name": "oldLotteryAddress",
          "type": "address"
        },
        {
          "indexed": false,
          "internalType": "address",
          "name": "newLotteryAddress",
          "type": "address"
        }
      ],
      "name": "LotteryChanged",
      "type": "event"
    },
    {
      "anonymous": false,
      "inputs": [
        {
          "indexed": false,
          "internalType": "address",
          "name": "oldRouter",
          "type": "address"
        },
        {
          "indexed": false,
          "internalType": "address",
          "name": "newRouter",
          "type": "address"
        }
      ],
      "name": "NaughtyRouterChanged",
      "type": "event"
    },
    {
      "anonymous": false,
      "inputs": [
        {
          "indexed": false,
          "internalType": "address",
          "name": "_newStablecoin",
          "type": "address"
        }
      ],
      "name": "NewStablecoinAdded",
      "type": "event"
    },
    {
      "anonymous": false,
      "inputs": [
        {
          "indexed": true,
          "internalType": "address",
          "name": "previousOwner",
          "type": "address"
        },
        {
          "indexed": true,
          "internalType": "address",
          "name": "newOwner",
          "type": "address"
        }
      ],
      "name": "OwnershipTransferred",
      "type": "event"
    },
    {
      "anonymous": false,
      "inputs": [
        {
          "indexed": false,
          "internalType": "string",
          "name": "tokenName",
          "type": "string"
        },
        {
          "indexed": false,
          "internalType": "address",
          "name": "tokenAddress",
          "type": "address"
        },
        {
          "indexed": false,
          "internalType": "uint256",
          "name": "tokenDecimals",
          "type": "uint256"
        },
        {
          "indexed": false,
          "internalType": "uint256",
          "name": "deadline",
          "type": "uint256"
        },
        {
          "indexed": false,
          "internalType": "uint256",
          "name": "settleTimestamp",
          "type": "uint256"
        }
      ],
      "name": "PolicyTokenDeployed",
      "type": "event"
    },
    {
      "anonymous": false,
      "inputs": [
        {
          "indexed": false,
          "internalType": "string",
          "name": "policyTokenName",
          "type": "string"
        },
        {
          "indexed": false,
          "internalType": "address",
          "name": "stablecoin",
          "type": "address"
        },
        {
          "indexed": false,
          "internalType": "uint256",
          "name": "startIndex",
          "type": "uint256"
        },
        {
          "indexed": false,
          "internalType": "uint256",
          "name": "stopIndex",
          "type": "uint256"
        }
      ],
      "name": "PolicyTokensSettledForUsers",
      "type": "event"
    },
    {
      "anonymous": false,
      "inputs": [
        {
          "indexed": false,
          "internalType": "address",
          "name": "poolAddress",
          "type": "address"
        },
        {
          "indexed": false,
          "internalType": "address",
          "name": "policyTokenAddress",
          "type": "address"
        },
        {
          "indexed": false,
          "internalType": "address",
          "name": "stablecoin",
          "type": "address"
        }
      ],
      "name": "PoolDeployed",
      "type": "event"
    },
    {
      "anonymous": false,
      "inputs": [
        {
          "indexed": false,
          "internalType": "address",
          "name": "poolAddress",
          "type": "address"
        },
        {
          "indexed": false,
          "internalType": "address",
          "name": "policyTokenAddress",
          "type": "address"
        },
        {
          "indexed": false,
          "internalType": "address",
          "name": "stablecoin",
          "type": "address"
        },
        {
          "indexed": false,
          "internalType": "uint256",
          "name": "initLiquidityA",
          "type": "uint256"
        },
        {
          "indexed": false,
          "internalType": "uint256",
          "name": "initLiquidityB",
          "type": "uint256"
        }
      ],
      "name": "PoolDeployedWithInitialLiquidity",
      "type": "event"
    },
    {
      "anonymous": false,
      "inputs": [
        {
          "indexed": true,
          "internalType": "address",
          "name": "userAddress",
          "type": "address"
        },
        {
          "indexed": true,
          "internalType": "string",
          "name": "policyTokenName",
          "type": "string"
        },
        {
          "indexed": true,
          "internalType": "address",
          "name": "stablecoin",
          "type": "address"
        },
        {
          "indexed": false,
          "internalType": "uint256",
          "name": "amount",
          "type": "uint256"
        }
      ],
      "name": "Redeem",
      "type": "event"
    },
    {
      "anonymous": false,
      "inputs": [
        {
          "indexed": true,
          "internalType": "address",
          "name": "userAddress",
          "type": "address"
        },
        {
          "indexed": true,
          "internalType": "string",
          "name": "policyTokenName",
          "type": "string"
        },
        {
          "indexed": true,
          "internalType": "address",
          "name": "stablecoin",
          "type": "address"
        },
        {
          "indexed": false,
          "internalType": "uint256",
          "name": "amount",
          "type": "uint256"
        }
      ],
      "name": "RedeemAfterSettlement",
      "type": "event"
    },
    {
      "anonymous": false,
      "inputs": [
        {
          "indexed": false,
          "internalType": "address",
          "name": "user",
          "type": "address"
        },
        {
          "indexed": false,
          "internalType": "address",
          "name": "policyTokenAddress",
          "type": "address"
        },
        {
          "indexed": false,
          "internalType": "uint256",
          "name": "amount",
          "type": "uint256"
        }
      ],
      "name": "UpdateUserQuota",
      "type": "event"
    },
    {
      "inputs": [],
      "name": "ILMContract",
      "outputs": [
        {
          "internalType": "address",
          "name": "",
          "type": "address"
        }
      ],
      "stateMutability": "view",
      "type": "function"
    },
    {
      "inputs": [
        {
          "internalType": "string",
          "name": "_tokenName",
          "type": "string"
        },
        {
          "internalType": "uint256",
          "name": "_decimals",
          "type": "uint256"
        },
        {
          "internalType": "uint256",
          "name": "_strikePrice",
          "type": "uint256"
        },
        {
          "internalType": "bool",
          "name": "_isCall",
          "type": "bool"
        },
        {
          "internalType": "string",
          "name": "_round",
          "type": "string"
        }
      ],
      "name": "_generateName",
      "outputs": [
        {
          "internalType": "string",
          "name": "",
          "type": "string"
        }
      ],
      "stateMutability": "pure",
      "type": "function"
    },
    {
      "inputs": [
        {
          "internalType": "address",
          "name": "_newStablecoin",
          "type": "address"
        }
      ],
      "name": "addStablecoin",
      "outputs": [],
      "stateMutability": "nonpayable",
      "type": "function"
    },
    {
      "inputs": [
        {
          "internalType": "address",
          "name": "",
          "type": "address"
        },
        {
          "internalType": "uint256",
          "name": "",
          "type": "uint256"
        }
      ],
      "name": "allDepositors",
      "outputs": [
        {
          "internalType": "address",
          "name": "",
          "type": "address"
        }
      ],
      "stateMutability": "view",
      "type": "function"
    },
    {
      "inputs": [
        {
          "internalType": "uint256",
          "name": "",
          "type": "uint256"
        }
      ],
      "name": "allPolicyTokens",
      "outputs": [
        {
          "internalType": "string",
          "name": "",
          "type": "string"
        }
      ],
      "stateMutability": "view",
      "type": "function"
    },
    {
      "inputs": [
        {
          "internalType": "string",
          "name": "_policyTokenName",
          "type": "string"
        },
        {
          "internalType": "address",
          "name": "_stablecoin",
          "type": "address"
        },
        {
          "internalType": "uint256",
          "name": "_amount",
          "type": "uint256"
        }
      ],
      "name": "claim",
      "outputs": [],
      "stateMutability": "nonpayable",
      "type": "function"
    },
    {
      "inputs": [
        {
          "internalType": "address",
          "name": "_stablecoin",
          "type": "address"
        }
      ],
      "name": "collectIncome",
      "outputs": [],
      "stateMutability": "nonpayable",
      "type": "function"
    },
    {
      "inputs": [
        {
          "internalType": "string",
          "name": "_policyTokenName",
          "type": "string"
        },
        {
          "internalType": "address",
          "name": "_stablecoin",
          "type": "address"
        },
        {
          "internalType": "uint256",
          "name": "_amount",
          "type": "uint256"
        },
        {
          "internalType": "address",
          "name": "_user",
          "type": "address"
        }
      ],
      "name": "delegateDeposit",
      "outputs": [],
      "stateMutability": "nonpayable",
      "type": "function"
    },
    {
      "inputs": [
        {
          "internalType": "string",
          "name": "_tokenName",
          "type": "string"
        },
        {
          "internalType": "address",
          "name": "_stablecoin",
          "type": "address"
        },
        {
          "internalType": "bool",
          "name": "_isCall",
          "type": "bool"
        },
        {
          "internalType": "uint256",
          "name": "_nameDecimals",
          "type": "uint256"
        },
        {
          "internalType": "uint256",
          "name": "_tokenDecimals",
          "type": "uint256"
        },
        {
          "internalType": "uint256",
          "name": "_strikePrice",
          "type": "uint256"
        },
        {
          "internalType": "string",
          "name": "_round",
          "type": "string"
        },
        {
          "internalType": "uint256",
          "name": "_deadline",
          "type": "uint256"
        },
        {
          "internalType": "uint256",
          "name": "_settleTimestamp",
          "type": "uint256"
        },
        {
          "internalType": "bool",
          "name": "_isIDOPool",
          "type": "bool"
        }
      ],
      "name": "deployPolicyToken",
      "outputs": [],
      "stateMutability": "nonpayable",
      "type": "function"
    },
    {
      "inputs": [
        {
          "internalType": "string",
          "name": "_policyTokenName",
          "type": "string"
        },
        {
          "internalType": "address",
          "name": "_stablecoin",
          "type": "address"
        },
        {
          "internalType": "uint256",
          "name": "_poolDeadline",
          "type": "uint256"
        },
        {
          "internalType": "uint256",
          "name": "_feeRate",
          "type": "uint256"
        }
      ],
      "name": "deployPool",
      "outputs": [
        {
          "internalType": "address",
          "name": "",
          "type": "address"
        }
      ],
      "stateMutability": "nonpayable",
      "type": "function"
    },
    {
      "inputs": [
        {
          "internalType": "string",
          "name": "_policyTokenName",
          "type": "string"
        },
        {
          "internalType": "address",
          "name": "_stablecoin",
          "type": "address"
        },
        {
          "internalType": "uint256",
          "name": "_amount",
          "type": "uint256"
        }
      ],
      "name": "deposit",
      "outputs": [],
      "stateMutability": "nonpayable",
      "type": "function"
    },
    {
      "inputs": [],
      "name": "factory",
      "outputs": [
        {
          "internalType": "contract INaughtyFactory",
          "name": "",
          "type": "address"
        }
      ],
      "stateMutability": "view",
      "type": "function"
    },
    {
      "inputs": [
        {
          "internalType": "string",
          "name": "_policyTokenName",
          "type": "string"
        }
      ],
      "name": "findAddressbyName",
      "outputs": [
        {
          "internalType": "address",
          "name": "policyTokenAddress",
          "type": "address"
        }
      ],
      "stateMutability": "view",
      "type": "function"
    },
    {
      "inputs": [
        {
          "internalType": "address",
          "name": "_policyTokenAddress",
          "type": "address"
        }
      ],
      "name": "findNamebyAddress",
      "outputs": [
        {
          "internalType": "string",
          "name": "policyTokenName",
          "type": "string"
        }
      ],
      "stateMutability": "view",
      "type": "function"
    },
    {
      "inputs": [],
      "name": "getAllTokens",
      "outputs": [
        {
          "components": [
            {
              "internalType": "address",
              "name": "policyTokenAddress",
              "type": "address"
            },
            {
              "internalType": "bool",
              "name": "isCall",
              "type": "bool"
            },
            {
              "internalType": "uint256",
              "name": "nameDecimals",
              "type": "uint256"
            },
            {
              "internalType": "uint256",
              "name": "tokenDecimals",
              "type": "uint256"
            },
            {
              "internalType": "uint256",
              "name": "strikePrice",
              "type": "uint256"
            },
            {
              "internalType": "uint256",
              "name": "deadline",
              "type": "uint256"
            },
            {
              "internalType": "uint256",
              "name": "settleTimestamp",
              "type": "uint256"
            }
          ],
          "internalType": "struct PolicyCore.PolicyTokenInfo[]",
          "name": "",
          "type": "tuple[]"
        }
      ],
      "stateMutability": "view",
      "type": "function"
    },
    {
      "inputs": [
        {
          "internalType": "string",
          "name": "_policyTokenName",
          "type": "string"
        }
      ],
      "name": "getPolicyTokenInfo",
      "outputs": [
        {
          "components": [
            {
              "internalType": "address",
              "name": "policyTokenAddress",
              "type": "address"
            },
            {
              "internalType": "bool",
              "name": "isCall",
              "type": "bool"
            },
            {
              "internalType": "uint256",
              "name": "nameDecimals",
              "type": "uint256"
            },
            {
              "internalType": "uint256",
              "name": "tokenDecimals",
              "type": "uint256"
            },
            {
              "internalType": "uint256",
              "name": "strikePrice",
              "type": "uint256"
            },
            {
              "internalType": "uint256",
              "name": "deadline",
              "type": "uint256"
            },
            {
              "internalType": "uint256",
              "name": "settleTimestamp",
              "type": "uint256"
            }
          ],
          "internalType": "struct PolicyCore.PolicyTokenInfo",
          "name": "",
          "type": "tuple"
        }
      ],
      "stateMutability": "view",
      "type": "function"
    },
    {
      "inputs": [
        {
          "internalType": "address",
          "name": "_user",
          "type": "address"
        },
        {
          "internalType": "address",
          "name": "_policyTokenAddress",
          "type": "address"
        }
      ],
      "name": "getUserQuota",
      "outputs": [
        {
          "internalType": "uint256",
          "name": "_quota",
          "type": "uint256"
        }
      ],
      "stateMutability": "view",
      "type": "function"
    },
    {
      "inputs": [],
      "name": "idoPriceGetter",
      "outputs": [
        {
          "internalType": "contract IPriceGetter",
          "name": "",
          "type": "address"
        }
      ],
      "stateMutability": "view",
      "type": "function"
    },
    {
      "inputs": [],
      "name": "incomeSharing",
      "outputs": [
        {
          "internalType": "address",
          "name": "",
          "type": "address"
        }
      ],
      "stateMutability": "view",
      "type": "function"
    },
    {
      "inputs": [
        {
          "internalType": "address",
          "name": "_usdc",
          "type": "address"
        },
        {
          "internalType": "address",
          "name": "_factory",
          "type": "address"
        },
        {
          "internalType": "address",
          "name": "_priceGetter",
          "type": "address"
        }
      ],
      "name": "initialize",
      "outputs": [],
      "stateMutability": "nonpayable",
      "type": "function"
    },
    {
      "inputs": [
        {
          "internalType": "string",
          "name": "",
          "type": "string"
        }
      ],
      "name": "isIDOPool",
      "outputs": [
        {
          "internalType": "bool",
          "name": "",
          "type": "bool"
        }
      ],
      "stateMutability": "view",
      "type": "function"
    },
    {
      "inputs": [],
      "name": "lottery",
      "outputs": [
        {
          "internalType": "address",
          "name": "",
          "type": "address"
        }
      ],
      "stateMutability": "view",
      "type": "function"
    },
    {
      "inputs": [],
      "name": "naughtyRouter",
      "outputs": [
        {
          "internalType": "address",
          "name": "",
          "type": "address"
        }
      ],
      "stateMutability": "view",
      "type": "function"
    },
    {
      "inputs": [],
      "name": "owner",
      "outputs": [
        {
          "internalType": "address",
          "name": "",
          "type": "address"
        }
      ],
      "stateMutability": "view",
      "type": "function"
    },
    {
      "inputs": [
        {
          "internalType": "address",
          "name": "",
          "type": "address"
        }
      ],
      "name": "pendingIncomeToLottery",
      "outputs": [
        {
          "internalType": "uint256",
          "name": "",
          "type": "uint256"
        }
      ],
      "stateMutability": "view",
      "type": "function"
    },
    {
      "inputs": [
        {
          "internalType": "address",
          "name": "",
          "type": "address"
        }
      ],
      "name": "pendingIncomeToSharing",
      "outputs": [
        {
          "internalType": "uint256",
          "name": "",
          "type": "uint256"
        }
      ],
      "stateMutability": "view",
      "type": "function"
    },
    {
      "inputs": [
        {
          "internalType": "address",
          "name": "",
          "type": "address"
        }
      ],
      "name": "policyTokenAddressToName",
      "outputs": [
        {
          "internalType": "string",
          "name": "",
          "type": "string"
        }
      ],
      "stateMutability": "view",
      "type": "function"
    },
    {
      "inputs": [
        {
          "internalType": "string",
          "name": "",
          "type": "string"
        }
      ],
      "name": "policyTokenInfoMapping",
      "outputs": [
        {
          "internalType": "address",
          "name": "policyTokenAddress",
          "type": "address"
        },
        {
          "internalType": "bool",
          "name": "isCall",
          "type": "bool"
        },
        {
          "internalType": "uint256",
          "name": "nameDecimals",
          "type": "uint256"
        },
        {
          "internalType": "uint256",
          "name": "tokenDecimals",
          "type": "uint256"
        },
        {
          "internalType": "uint256",
          "name": "strikePrice",
          "type": "uint256"
        },
        {
          "internalType": "uint256",
          "name": "deadline",
          "type": "uint256"
        },
        {
          "internalType": "uint256",
          "name": "settleTimestamp",
          "type": "uint256"
        }
      ],
      "stateMutability": "view",
      "type": "function"
    },
    {
      "inputs": [],
      "name": "priceGetter",
      "outputs": [
        {
          "internalType": "contract IPriceGetter",
          "name": "",
          "type": "address"
        }
      ],
      "stateMutability": "view",
      "type": "function"
    },
    {
      "inputs": [
        {
          "internalType": "string",
          "name": "_policyTokenName",
          "type": "string"
        },
        {
          "internalType": "address",
          "name": "_stablecoin",
          "type": "address"
        },
        {
          "internalType": "uint256",
          "name": "_amount",
          "type": "uint256"
        }
      ],
      "name": "redeem",
      "outputs": [],
      "stateMutability": "nonpayable",
      "type": "function"
    },
    {
      "inputs": [
        {
          "internalType": "string",
          "name": "_policyTokenName",
          "type": "string"
        },
        {
          "internalType": "address",
          "name": "_stablecoin",
          "type": "address"
        }
      ],
      "name": "redeemAfterSettlement",
      "outputs": [],
      "stateMutability": "nonpayable",
      "type": "function"
    },
    {
      "inputs": [],
      "name": "renounceOwnership",
      "outputs": [],
      "stateMutability": "nonpayable",
      "type": "function"
    },
    {
      "inputs": [
        {
          "internalType": "address",
          "name": "_idoPriceGetter",
          "type": "address"
        }
      ],
      "name": "setIDOPriceGetter",
      "outputs": [],
      "stateMutability": "nonpayable",
      "type": "function"
    },
    {
      "inputs": [
        {
          "internalType": "address",
          "name": "_ILM",
          "type": "address"
        }
      ],
      "name": "setILMContract",
      "outputs": [],
      "stateMutability": "nonpayable",
      "type": "function"
    },
    {
      "inputs": [
        {
          "internalType": "address",
          "name": "_incomeSharing",
          "type": "address"
        }
      ],
      "name": "setIncomeSharing",
      "outputs": [],
      "stateMutability": "nonpayable",
      "type": "function"
    },
    {
      "inputs": [
        {
          "internalType": "uint256",
          "name": "_toLottery",
          "type": "uint256"
        }
      ],
      "name": "setIncomeToLottery",
      "outputs": [],
      "stateMutability": "nonpayable",
      "type": "function"
    },
    {
      "inputs": [
        {
          "internalType": "address",
          "name": "_lotteryAddress",
          "type": "address"
        }
      ],
      "name": "setLottery",
      "outputs": [],
      "stateMutability": "nonpayable",
      "type": "function"
    },
    {
      "inputs": [
        {
          "internalType": "address",
          "name": "_router",
          "type": "address"
        }
      ],
      "name": "setNaughtyRouter",
      "outputs": [],
      "stateMutability": "nonpayable",
      "type": "function"
    },
    {
      "inputs": [
        {
          "internalType": "string",
          "name": "_policyTokenName",
          "type": "string"
        },
        {
          "internalType": "address",
          "name": "_stablecoin",
          "type": "address"
        },
        {
          "internalType": "uint256",
          "name": "_startIndex",
          "type": "uint256"
        },
        {
          "internalType": "uint256",
          "name": "_stopIndex",
          "type": "uint256"
        }
      ],
      "name": "settleAllPolicyTokens",
      "outputs": [],
      "stateMutability": "nonpayable",
      "type": "function"
    },
    {
      "inputs": [
        {
          "internalType": "string",
          "name": "_policyTokenName",
          "type": "string"
        }
      ],
      "name": "settleFinalResult",
      "outputs": [],
      "stateMutability": "nonpayable",
      "type": "function"
    },
    {
      "inputs": [
        {
          "internalType": "address",
          "name": "",
          "type": "address"
        }
      ],
      "name": "settleResult",
      "outputs": [
        {
          "internalType": "uint256",
          "name": "price",
          "type": "uint256"
        },
        {
          "internalType": "bool",
          "name": "isHappened",
          "type": "bool"
        },
        {
          "internalType": "bool",
          "name": "alreadySettled",
          "type": "bool"
        },
        {
          "internalType": "uint256",
          "name": "currentDistributionIndex",
          "type": "uint256"
        }
      ],
      "stateMutability": "view",
      "type": "function"
    },
    {
      "inputs": [
        {
          "internalType": "address",
          "name": "",
          "type": "address"
        }
      ],
      "name": "supportedStablecoin",
      "outputs": [
        {
          "internalType": "bool",
          "name": "",
          "type": "bool"
        }
      ],
      "stateMutability": "view",
      "type": "function"
    },
    {
      "inputs": [],
      "name": "toLotteryPart",
      "outputs": [
        {
          "internalType": "uint256",
          "name": "",
          "type": "uint256"
        }
      ],
      "stateMutability": "view",
      "type": "function"
    },
    {
      "inputs": [
        {
          "internalType": "address",
          "name": "newOwner",
          "type": "address"
        }
      ],
      "name": "transferOwnership",
      "outputs": [],
      "stateMutability": "nonpayable",
      "type": "function"
    },
    {
      "inputs": [
        {
          "internalType": "address",
          "name": "_user",
          "type": "address"
        },
        {
          "internalType": "address",
          "name": "_policyToken",
          "type": "address"
        },
        {
          "internalType": "uint256",
          "name": "_amount",
          "type": "uint256"
        }
      ],
      "name": "updateUserQuota",
      "outputs": [],
      "stateMutability": "nonpayable",
      "type": "function"
    },
    {
      "inputs": [
        {
          "internalType": "address",
          "name": "",
          "type": "address"
        }
      ],
      "name": "whichStablecoin",
      "outputs": [
        {
          "internalType": "address",
          "name": "",
          "type": "address"
        }
      ],
      "stateMutability": "view",
      "type": "function"
    }
  ],
  "transactionHash": "0xa2edd84028cdcff57bae8cbf5151190e9d7e98c1b0920a4fbee38f655a66a6e0",
  "args": [],
  "numDeployments": 4,
  "solcInputHash": "cf74d0409a008b6e9573fc635c4cf45e",
  "bytecode": "0x608060405234801561001057600080fd5b50614ba9806100206000396000f3fe608060405234801561001057600080fd5b506004361061030a5760003560e01c80638da5cb5b1161019c578063c49df4bf116100ee578063e625123711610097578063f15cac3411610071578063f15cac341461079c578063f298083b146107af578063f2fde38b146107c257600080fd5b8063e625123714610763578063eb9132dd14610776578063f10cffbd1461078957600080fd5b8063d9e85c84116100c8578063d9e85c84146106f7578063da14280714610717578063e01f8e4b1461075057600080fd5b8063c49df4bf146106c8578063ceed1b90146106db578063d700e89f146106ee57600080fd5b8063bb245c6311610150578063be3f34a11161012a578063be3f34a11461068f578063c0c53b8b146106a2578063c45a0155146106b557600080fd5b8063bb245c6314610649578063bb9febaf14610669578063bdc2b1661461067c57600080fd5b8063a815a22111610181578063a815a22114610603578063a8e577e314610616578063ba13a5721461063657600080fd5b80638da5cb5b146105df57806394567d4e146105f057600080fd5b806338081de2116102605780635eb1877e11610209578063715018a6116101e3578063715018a614610596578063727e0deb1461059e5780637336c38d146105cc57600080fd5b80635eb1877e146105475780636978531a146105705780636a9d7be01461058357600080fd5b80634c330fbc1161023a5780634c330fbc146104f15780634e75ce89146105045780635cb3b14f1461051757600080fd5b806338081de21461045a57806339f677381461046d578063448299b3146104de57600080fd5b80631306c0a5116102c2578063210123e51161029c578063210123e51461041f5780632a48ac9a146104325780632a5c792a1461044557600080fd5b80631306c0a5146103a057806318dd152f146103c05780631ee08fa1146103d357600080fd5b806307962845116102f3578063079628451461033757806308d89d5f1461036d5780630dc726471461038057600080fd5b8063038440971461030f5780630418945a14610324575b600080fd5b61032261031d3660046131a9565b6107d5565b005b610322610332366004613214565b610b8b565b610357610345366004613214565b60756020526000908152604090205481565b604051610364919061323d565b60405180910390f35b61032261037b36600461325c565b610c13565b61039361038e3660046132c6565b610de9565b6040516103649190613345565b6103b36103ae366004613356565b610e95565b604051610364919061339c565b6103936103ce366004613214565b610ecd565b61040f6103e1366004613214565b607460205260009081526040902080546001820154600290920154909160ff80821692610100909204169084565b60405161036494939291906133b2565b61032261042d366004613214565b610ee6565b61032261044036600461325c565b610f79565b61044d611042565b60405161036491906134c3565b610393610468366004613214565b6111bf565b6104cb61047b3660046131a9565b8051602081830181018051606c825292820191909301209152805460018201546002830154600384015460048501546005909501546001600160a01b03851695600160a01b90950460ff16949087565b60405161036497969594939291906134d4565b6103226104ec366004613214565b61128c565b6103226104ff366004613214565b61131f565b6103b36105123660046131a9565b6113b2565b61053a610525366004613214565b606f6020526000908152604090205460ff1681565b604051610364919061353c565b6103b3610555366004613214565b6070602052600090815260409020546001600160a01b031681565b606a546103b3906001600160a01b031681565b61032261059136600461355d565b6113fc565b61032261179d565b61053a6105ac3660046131a9565b805160208183018101805160778252928201919093012091525460ff1681565b6103226105da36600461325c565b6117d3565b6033546001600160a01b03166103b3565b6068546103b3906001600160a01b031681565b610322610611366004613214565b6119e2565b610357610624366004613214565b60766020526000908152604090205481565b6067546103b3906001600160a01b031681565b60785461065c906001600160a01b031681565b60405161036491906136b0565b6103b36106773660046136be565b611a75565b61032261068a3660046132c6565b611c08565b61032261069d366004613214565b611c93565b6103226106b036600461373c565b611d7f565b60655461065c906001600160a01b031681565b6103226106d6366004613782565b611e4d565b60665461065c906001600160a01b031681565b610357606b5481565b61070a6107053660046131a9565b61206f565b60405161036491906137cf565b6103576107253660046137dd565b6001600160a01b03918216600090815260726020908152604080832093909416825291909152205490565b61032261075e3660046137ff565b61213d565b6069546103b3906001600160a01b031681565b6103226107843660046136be565b6121e4565b610393610797366004613823565b61244d565b6103226107aa3660046138d0565b612595565b6103226107bd366004613214565b6126c8565b6103226107d0366004613214565b61275b565b806000606c826040516107e89190613964565b9081526020016040518091039020600501549050804210156108255760405162461bcd60e51b815260040161081c906139c8565b60405180910390fd5b826000610831826113b2565b6001600160a01b038116600090815260746020526040902060010154909150610100900460ff16156108755760405162461bcd60e51b815260040161081c90613a30565b6000610880866113b2565b6001600160a01b038116600090815260746020908152604080832060719092528220805493945090926108b290613a56565b80601f01602080910402602001604051908101604052809291908181526020018280546108de90613a56565b801561092b5780601f106109005761010080835404028352916020019161092b565b820191906000526020600020905b81548152906001019060200180831161090e57829003601f168201915b5050505050905060006077896040516109449190613964565b9081526040519081900360200190205460ff16156109d65760785460405163f66a1b7160e01b81526001600160a01b039091169063f66a1b719061098c908c90600401613345565b6020604051808303816000875af11580156109ab573d6000803e3d6000fd5b505050506040513d601f19601f820116820180604052508101906109cf9190613a8d565b9050610a4c565b60665460405163f66a1b7160e01b81526001600160a01b039091169063f66a1b7190610a06908590600401613345565b6020604051808303816000875af1158015610a25573d6000803e3d6000fd5b505050506040513d601f19601f82011682018060405250810190610a499190613a8d565b90505b60018301805461ff001916610100179055808355604051600090606c90610a74908c90613964565b908152604080516020928190038301812060e08201835280546001600160a01b0381168352600160a01b900460ff1615159382019390935260018301549181019190915260028201546060820152600382015460808201819052600483015460a083015260059092015460c082015291506000908310801590610af8575081602001515b9050600082608001518411158015610b1257508260200151155b905060008280610b1f5750815b610b2a576000610b2d565b60015b60018801805460ff19168215151790556040519091507f4f7bb4bf5b5d9e711ae7506fc1acd843eea9f216861a09c312fefb7e05095a3690610b74908f9088908590613aae565b60405180910390a150505050505050505050505050565b6033546001600160a01b03163314610bb55760405162461bcd60e51b815260040161081c90613b0b565b6001600160a01b0381166000908152606f602052604090819020805460ff19166001179055517f86b377b6d485043d4a8b2b0c26051f82529ea2d7c23b1188598416473c12309390610c0890839061339c565b60405180910390a150565b826000606c82604051610c269190613964565b908152602001604051809103902060050154905080421015610c5a5760405162461bcd60e51b815260040161081c906139c8565b84846000610c67836113b2565b6001600160a01b03818116600090815260706020526040902054919250838116911614610ca65760405162461bcd60e51b815260040161081c90613b73565b6000610cb1896113b2565b6001600160a01b03811660009081526074602090815260409182902082516080810184528154808252600183015460ff80821615159584019590955261010090049093161515938101939093526002015460608301529192509015801590610d1a575080604001515b610d365760405162461bcd60e51b815260040161081c90613bb5565b8060200151610d575760405162461bcd60e51b815260040161081c90613c1d565b6000610d638a8a6127b7565b9050610d796001600160a01b038b163383612875565b604051632770a7eb60e21b815283906001600160a01b03821690639dc29fac90610da99033908e90600401613c2d565b600060405180830381600087803b158015610dc357600080fd5b505af1158015610dd7573d6000803e3d6000fd5b50505050505050505050505050505050565b606e8181548110610df957600080fd5b906000526020600020016000915090508054610e1490613a56565b80601f0160208091040260200160405190810160405280929190818152602001828054610e4090613a56565b8015610e8d5780601f10610e6257610100808354040283529160200191610e8d565b820191906000526020600020905b815481529060010190602001808311610e7057829003601f168201915b505050505081565b60736020528160005260406000208181548110610eb157600080fd5b6000918252602090912001546001600160a01b03169150829050565b606d6020526000908152604090208054610e1490613a56565b6033546001600160a01b03163314610f105760405162461bcd60e51b815260040161081c90613b0b565b6068546040517ff4b601aa15ee1d2340ac8d1e8f1ddf16fe98866801b5c057bec51086aa6d750291610f4f916001600160a01b03909116908490613c48565b60405180910390a1606880546001600160a01b0319166001600160a01b0392909216919091179055565b826000606c82604051610f8c9190613964565b908152602001604051809103902060040154905080421115610fc05760405162461bcd60e51b815260040161081c90613cbb565b84846000610fcd836113b2565b6001600160a01b0381811660009081526070602052604090205491925083811691161461100c5760405162461bcd60e51b815260040161081c90613b73565b6000861161102c5760405162461bcd60e51b815260040161081c90613cfd565b611038888888336128fd565b5050505050505050565b606e5460609060008167ffffffffffffffff811115611063576110636130b3565b6040519080825280602002602001820160405280156110df57816020015b6110cc6040518060e0016040528060006001600160a01b0316815260200160001515815260200160008152602001600081526020016000815260200160008152602001600081525090565b8152602001906001900390816110815790505b50905060005b828110156111b857606c606e828154811061110257611102613d0d565b906000526020600020016040516111199190613d91565b90815260408051918290036020908101832060e08401835280546001600160a01b038116855260ff600160a01b909104161515918401919091526001810154918301919091526002810154606083015260038101546080830152600481015460a08301526005015460c0820152825183908390811061119a5761119a613d0d565b602002602001018190525080806111b090613db1565b9150506110e5565b5092915050565b6001600160a01b0381166000908152606d602052604090208054606091906111e690613a56565b80601f016020809104026020016040519081016040528092919081815260200182805461121290613a56565b801561125f5780601f106112345761010080835404028352916020019161125f565b820191906000526020600020905b81548152906001019060200180831161124257829003601f168201915b5050505050905060008151116112875760405162461bcd60e51b815260040161081c90613dfc565b919050565b6033546001600160a01b031633146112b65760405162461bcd60e51b815260040161081c90613b0b565b6078546040517f7fa20b7236ace70bca6943a342603ca5d68d220e2f7b4a81ebe52fe8b618ba28916112f5916001600160a01b03909116908490613c48565b60405180910390a1607880546001600160a01b0319166001600160a01b0392909216919091179055565b6033546001600160a01b031633146113495760405162461bcd60e51b815260040161081c90613b0b565b606a546040517f5a1397fff7d6f4aaebc9effcfc3a2fa8e89631d59ec574c1eaef6d709b5c9ab091611388916001600160a01b03909116908490613c48565b60405180910390a1606a80546001600160a01b0319166001600160a01b0392909216919091179055565b6000606c826040516113c49190613964565b908152604051908190036020019020546001600160a01b03169050806112875760405162461bcd60e51b815260040161081c90613e3e565b6033546001600160a01b031633146114265760405162461bcd60e51b815260040161081c90613b0b565b60128711158015611438575060128611155b6114545760405162461bcd60e51b815260040161081c90613e80565b85896001600160a01b031663313ce5676040518163ffffffff1660e01b8152600401602060405180830381865afa158015611493573d6000803e3d6000fd5b505050506040513d601f19601f820116820180604052508101906114b79190613ea4565b60ff16146114d75760405162461bcd60e51b815260040161081c90613ef7565b4283116114f65760405162461bcd60e51b815260040161081c90613f39565b828210156115165760405162461bcd60e51b815260040161081c90613f7b565b60006115258b89888c8961244d565b6065546040517f87f0061a0000000000000000000000000000000000000000000000000000000081529192506000916001600160a01b03909116906387f0061a906115769085908c90600401613f8b565b6020604051808303816000875af1158015611595573d6000803e3d6000fd5b505050506040513d601f19601f820116820180604052508101906115b99190613fb6565b90506040518060e00160405280826001600160a01b031681526020018b151581526020018a815260200189815260200188815260200186815260200185815250606c836040516116099190613964565b9081526040805191829003602090810190922083518154858501511515600160a01b027fffffffffffffffffffffff0000000000000000000000000000000000000000009091166001600160a01b0392831617178255848301516001830155606085015160028301556080850151600383015560a0850151600483015560c090940151600590910155918316600090815260718252919091208d516116b0928f019061301a565b506001600160a01b0381166000908152606d6020908152604090912083516116da9285019061301a565b50606e8054600181018255600091909152825161171e917f9930d9ff0dee0ef5ca2f7710ea66b8f84dd0f5f5351ecffe72b952cd9db7142a0190602085019061301a565b507f5c781be7034983eed256e8250b1df5111e452c6dd41a3e415bdeda1cac92348882828a8888604051611756959493929190613fd7565b60405180910390a18260778360405161176f9190613964565b908152604051908190036020019020805491151560ff19909216919091179055505050505050505050505050565b6033546001600160a01b031633146117c75760405162461bcd60e51b815260040161081c90613b0b565b6117d16000612aad565b565b826000606c826040516117e69190613964565b90815260200160405180910390206004015490508042111561181a5760405162461bcd60e51b815260040161081c90613cbb565b84846000611827836113b2565b6001600160a01b038181166000908152607060205260409020549192508381169116146118665760405162461bcd60e51b815260040161081c90613b73565b6000611871896113b2565b3360009081526072602090815260408083206001600160a01b03851684529091529020549091508711156118b75760405162461bcd60e51b815260040161081c9061405a565b3360009081526072602090815260408083206001600160a01b0385168452909152812080548992906118ea90849061406a565b90915550600090506118fc89896127b7565b90506119126001600160a01b038a163383612875565b604051632770a7eb60e21b815282906001600160a01b03821690639dc29fac906119429033908d90600401613c2d565b600060405180830381600087803b15801561195c57600080fd5b505af1158015611970573d6000803e3d6000fd5b50505050896001600160a01b03168b60405161198c9190613964565b6040518091039020336001600160a01b03167fae452465b27fa0406f99c961c3bbf8215e6dabe24c0da5dd5981206d9038500a8c6040516119cd919061323d565b60405180910390a45050505050505050505050565b6033546001600160a01b03163314611a0c5760405162461bcd60e51b815260040161081c90613b0b565b6069546040517f991cc531d0c7ce0a4a8db8a26f722bbbe727c8f45445520fa447050bb313457f91611a4b916001600160a01b03909116908490613c48565b60405180910390a1606980546001600160a01b0319166001600160a01b0392909216919091179055565b6001600160a01b0383166000908152606f6020526040812054849060ff161515600114611ab45760405162461bcd60e51b815260040161081c906140d9565b8560006001600160a01b0316606c82604051611ad09190613964565b908152604051908190036020019020546001600160a01b031603611b065760405162461bcd60e51b815260040161081c90614141565b6033546001600160a01b0316331480611b295750606a546001600160a01b031633145b611b455760405162461bcd60e51b815260040161081c90614183565b428511611b645760405162461bcd60e51b815260040161081c90613f39565b606c87604051611b749190613964565b9081526020016040518091039020600401548514611ba45760405162461bcd60e51b815260040161081c906141eb565b6000611baf886113b2565b90506000611bbf82898989612aff565b90507f04c12766244f2559dd215eecd69f70fdfce0e2c2260b5d52cb8b63738622eaa481838a604051611bf4939291906141fb565b60405180910390a198975050505050505050565b6033546001600160a01b03163314611c325760405162461bcd60e51b815260040161081c90613b0b565b600a811115611c535760405162461bcd60e51b815260040161081c90614255565b7f5102efe34236afea4a39241911bce7d2001cd809276c20be9dceb33a59c13cc6606b5482604051611c86929190614265565b60405180910390a1606b55565b6067546001600160a01b031615801590611cb757506068546001600160a01b031615155b611cd35760405162461bcd60e51b815260040161081c906142cb565b6001600160a01b03811660009081526075602090815260408083205460769092529091205481151580611d065750600081115b611d225760405162461bcd60e51b815260040161081c9061430d565b606754611d3c906001600160a01b03858116911684612875565b606854611d56906001600160a01b03858116911683612875565b50506001600160a01b031660009081526075602090815260408083208390556076909152812055565b600054610100900460ff16611d9a5760005460ff1615611d9e565b303b155b611dba5760405162461bcd60e51b815260040161081c90614375565b600054610100900460ff16158015611ddc576000805461ffff19166101011790555b611de4612bd0565b6001600160a01b038085166000908152606f60205260409020805460ff19166001179055606580548583166001600160a01b03199182161790915560668054928516929091169190911790556002606b558015611e47576000805461ff00191690555b50505050565b816000606c82604051611e609190613964565b908152602001604051809103902060050154905080421015611e945760405162461bcd60e51b815260040161081c906139c8565b83836000611ea1836113b2565b6001600160a01b03818116600090815260706020526040902054919250838116911614611ee05760405162461bcd60e51b815260040161081c90613b73565b6000611eeb886113b2565b6001600160a01b03811660009081526074602090815260409182902082516080810184528154808252600183015460ff80821615159584019590955261010090049093161515938101939093526002015460608301529192509015801590611f54575080604001515b611f705760405162461bcd60e51b815260040161081c90613bb5565b602081015115611f925760405162461bcd60e51b815260040161081c906143dd565b3360009081526072602090815260408083206001600160a01b038616845290915290205480611fd35760405162461bcd60e51b815260040161081c90614445565b6000611fdf8a836127b7565b9050611ff56001600160a01b038b163383612875565b3360009081526072602090815260408083206001600160a01b0388811685529252808320929092559051908b169061202e908d90613964565b6040518091039020336001600160a01b03167f03562b7020b16271daf63f8af4dfad66194d3a83359909327c31983326b1287f846040516119cd919061323d565b6120ba6040518060e0016040528060006001600160a01b0316815260200160001515815260200160008152602001600081526020016000815260200160008152602001600081525090565b606c826040516120ca9190613964565b90815260408051918290036020908101832060e08401835280546001600160a01b038116855260ff600160a01b909104161515918401919091526001810154918301919091526002810154606083015260038101546080830152600481015460a08301526005015460c082015292915050565b606a546001600160a01b031633146121675760405162461bcd60e51b815260040161081c90614487565b6001600160a01b0380841660009081526072602090815260408083209386168352929052908120805483929061219e908490614497565b90915550506040517feebcbef3192071bb2337eab3d89bd9a6b2cfb3218aae8627e9c1eab826b88ace906121d7908590859085906144af565b60405180910390a1505050565b6033546001600160a01b0316331461220e5760405162461bcd60e51b815260040161081c90613b0b565b6000612219856113b2565b6001600160a01b03811660009081526074602090815260409182902082516080810184528154808252600183015460ff808216151595840195909552610100900490931615159381019390935260020154606083015291925090158015906122875750604081015115156001145b6122a35760405162461bcd60e51b815260040161081c90613bb5565b6020810151156122c55760405162461bcd60e51b815260040161081c906143dd565b6001600160a01b03821660009081526073602052604081205460608301518110156123025760405162461bcd60e51b815260040161081c90614509565b8515801561230e575084155b1561238c576123208488600084612bff565b61232a9083614497565b6001600160a01b038516600090815260746020526040808220600201849055519193507fb882f84541d4c34087dd3a3971b96ad170bc52a7907def174bb86f986bce6e2c9161237f918b918b9190869061452e565b60405180910390a1611038565b858360600151146123af5760405162461bcd60e51b815260040161081c906145b3565b8085106123ce5760405162461bcd60e51b815260040161081c906145f5565b6123da84888888612bff565b6123e49083614497565b6001600160a01b03851660009081526074602052604090819020600201879055519092507fb882f84541d4c34087dd3a3971b96ad170bc52a7907def174bb86f986bce6e2c9061243b908a908a908a908a90614605565b60405180910390a15050505050505050565b6060600083612491576040518060400160405280600181526020017f4c000000000000000000000000000000000000000000000000000000000000008152506124c8565b6040518060400160405280600181526020017f48000000000000000000000000000000000000000000000000000000000000008152505b905060006124de670de0b6b3a764000087614648565b905060006124ed88601261406a565b6124f890600a61476a565b61250c90670de0b6b3a76400008906614648565b90506002881061254a5761252160018961406a565b61252c90600a61476a565b811161254a5760405162461bcd60e51b815260040161081c906147ab565b60008961255684612cfa565b61255f84612cfa565b868960405160200161257595949392919061480d565b60408051601f198184030181529190529450505050505b95945050505050565b836000606c826040516125a89190613964565b9081526020016040518091039020600401549050804211156125dc5760405162461bcd60e51b815260040161081c90613cbb565b858560006125e9836113b2565b6001600160a01b038181166000908152607060205260409020549192508381169116146126285760405162461bcd60e51b815260040161081c90613b73565b6069546001600160a01b031633146126525760405162461bcd60e51b815260040161081c906148cb565b600087116126725760405162461bcd60e51b815260040161081c90613cfd565b61267e898989896128fd565b7f99f877ebe25ff1544a89db7db58d9d0b180af2288344cf1792272a4a07fd7c9933878b8b8b6040516126b59594939291906148db565b60405180910390a1505050505050505050565b6033546001600160a01b031633146126f25760405162461bcd60e51b815260040161081c90613b0b565b6067546040517f5bbcd5c9a4c18f44ac2b1174e1034735fda1eb2008b8cc091ef347c7f6b9690a91612731916001600160a01b03909116908490613c48565b60405180910390a1606780546001600160a01b0319166001600160a01b0392909216919091179055565b6033546001600160a01b031633146127855760405162461bcd60e51b815260040161081c90613b0b565b6001600160a01b0381166127ab5760405162461bcd60e51b815260040161081c9061496f565b6127b481612aad565b50565b6000806103e86127c9846103de61497f565b6127d39190614648565b905060006127e1828561406a565b90506000600a606b54836127f5919061497f565b6127ff9190614648565b6001600160a01b03871660009081526075602052604081208054929350839290919061282c908490614497565b9091555061283c9050818361406a565b6001600160a01b03871660009081526076602052604081208054909190612864908490614497565b909155509293505050505b92915050565b6128f88363a9059cbb60e01b8484604051602401612894929190613c2d565b60408051601f198184030181529190526020810180517bffffffffffffffffffffffffffffffffffffffffffffffffffffffff167fffffffff0000000000000000000000000000000000000000000000000000000090931692909217909152612e2f565b505050565b6000612908856113b2565b6001600160a01b03808416600090815260726020908152604080832093851683529290529081205491925003612977576001600160a01b0381811660009081526073602090815260408220805460018101825590835291200180546001600160a01b0319169184169190911790555b6001600160a01b038083166000908152607260209081526040808320938516835292905290812080548592906129ae908490614497565b909155506129c990506001600160a01b038516833086612ebe565b6040517f40c10f1900000000000000000000000000000000000000000000000000000000815281906001600160a01b038216906340c10f1990612a129086908890600401613c2d565b600060405180830381600087803b158015612a2c57600080fd5b505af1158015612a40573d6000803e3d6000fd5b50505050846001600160a01b031686604051612a5c9190613964565b6040518091039020846001600160a01b03167faad69ef0c77f7c04ba3390022ae56a77ba8686b6cd9530eff3a0a8c38d33e5ad87604051612a9d919061323d565b60405180910390a4505050505050565b603380546001600160a01b038381166001600160a01b0319831681179093556040519116919082907f8be0079c531659141344cd1fd0a4f28419497f9722a3daafe3b4186f6b6457e090600090a35050565b6065546040517f3a5f69f800000000000000000000000000000000000000000000000000000000815260009182916001600160a01b0390911690633a5f69f890612b5390899089908990899060040161499e565b6020604051808303816000875af1158015612b72573d6000803e3d6000fd5b505050506040513d601f19601f82011682018060405250810190612b969190613fb6565b6001600160a01b03878116600090815260706020526040902080546001600160a01b0319169188169190911790559150505b949350505050565b600054610100900460ff16612bf75760405162461bcd60e51b815260040161081c90614a11565b6117d1612edf565b6000825b82811015612cf1576001600160a01b0386166000908152607360205260408120805483908110612c3557612c35613d0d565b60009182526020808320909101546001600160a01b03908116808452607283526040808520928c1685529190925282205490925090612c7488836127b7565b90508015612cd357612c906001600160a01b0389168483612875565b6001600160a01b038084166000908152607260209081526040808320938d16835292905290812055612cc2818361406a565b612ccc9086614497565b9450612cdb565b505050612cdf565b5050505b80612ce981613db1565b915050612c03565b50949350505050565b606081600003612d3d57505060408051808201909152600181527f3000000000000000000000000000000000000000000000000000000000000000602082015290565b8160005b8115612d675780612d5181613db1565b9150612d609050600a83614648565b9150612d41565b60008167ffffffffffffffff811115612d8257612d826130b3565b6040519080825280601f01601f191660200182016040528015612dac576020820181803683370190505b5090505b8415612bc857612dc160018361406a565b9150612dce600a86614a21565b612dd9906030614497565b60f81b818381518110612dee57612dee613d0d565b60200101907effffffffffffffffffffffffffffffffffffffffffffffffffffffffffffff1916908160001a905350612e28600a86614648565b9450612db0565b6000612e84826040518060400160405280602081526020017f5361666545524332303a206c6f772d6c6576656c2063616c6c206661696c6564815250856001600160a01b0316612f0f9092919063ffffffff16565b8051909150156128f85780806020019051810190612ea29190614a40565b6128f85760405162461bcd60e51b815260040161081c90614ab9565b611e47846323b872dd60e01b858585604051602401612894939291906144af565b600054610100900460ff16612f065760405162461bcd60e51b815260040161081c90614a11565b6117d133612aad565b6060612f1e8484600085612f28565b90505b9392505050565b606082471015612f4a5760405162461bcd60e51b815260040161081c90614b21565b843b612f685760405162461bcd60e51b815260040161081c90614b63565b600080866001600160a01b03168587604051612f849190613964565b60006040518083038185875af1925050503d8060008114612fc1576040519150601f19603f3d011682016040523d82523d6000602084013e612fc6565b606091505b5091509150612fd6828286612fe1565b979650505050505050565b60608315612ff0575081612f21565b8251156130005782518084602001fd5b8160405162461bcd60e51b815260040161081c9190613345565b82805461302690613a56565b90600052602060002090601f016020900481019282613048576000855561308e565b82601f1061306157805160ff191683800117855561308e565b8280016001018555821561308e579182015b8281111561308e578251825591602001919060010190613073565b5061309a92915061309e565b5090565b5b8082111561309a576000815560010161309f565b634e487b7160e01b600052604160045260246000fd5b601f19601f830116810181811067ffffffffffffffff821117156130ef576130ef6130b3565b6040525050565b600061310160405190565b905061128782826130c9565b600067ffffffffffffffff821115613127576131276130b3565b601f19601f83011660200192915050565b82818337506000910152565b60006131576131528461310d565b6130f6565b90508281526020810184848401111561317257613172600080fd5b61317d848285613138565b509392505050565b600082601f83011261319957613199600080fd5b8135612bc8848260208601613144565b6000602082840312156131be576131be600080fd5b813567ffffffffffffffff8111156131d8576131d8600080fd5b612bc884828501613185565b60006001600160a01b03821661286f565b6131fe816131e4565b81146127b457600080fd5b803561286f816131f5565b60006020828403121561322957613229600080fd5b6000612bc88484613209565b805b82525050565b6020810161286f8284613235565b806131fe565b803561286f8161324b565b60008060006060848603121561327457613274600080fd5b833567ffffffffffffffff81111561328e5761328e600080fd5b61329a86828701613185565b93505060206132ab86828701613209565b92505060406132bc86828701613251565b9150509250925092565b6000602082840312156132db576132db600080fd5b6000612bc88484613251565b60005b838110156133025781810151838201526020016132ea565b83811115611e475750506000910152565b600061331d825190565b8084526020840193506133348185602086016132e7565b601f01601f19169290920192915050565b60208082528101612f218184613313565b6000806040838503121561336c5761336c600080fd5b60006133788585613209565b925050602061338985828601613251565b9150509250929050565b613237816131e4565b6020810161286f8284613393565b801515613237565b608081016133c08287613235565b6133cd60208301866133aa565b6133da60408301856133aa565b61258c6060830184613235565b80516133f38382613393565b50602081015161340660208401826133aa565b5060408101516134196040840182613235565b50606081015161342c6060840182613235565b50608081015161343f6080840182613235565b5060a081015161345260a0840182613235565b5060c08101516128f860c0840182613235565b61346f82826133e7565b5060e00190565b60200190565b6000613486825190565b808452602093840193830160005b828110156134b95781516134a88782613465565b965050602082019150600101613494565b5093949350505050565b60208082528101612f21818461347c565b60e081016134e2828a613393565b6134ef60208301896133aa565b6134fc6040830188613235565b6135096060830187613235565b6135166080830186613235565b61352360a0830185613235565b61353060c0830184613235565b98975050505050505050565b6020810161286f82846133aa565b8015156131fe565b803561286f8161354a565b6000806000806000806000806000806101408b8d03121561358057613580600080fd5b8a3567ffffffffffffffff81111561359a5761359a600080fd5b6135a68d828e01613185565b9a505060206135b78d828e01613209565b99505060406135c88d828e01613552565b98505060606135d98d828e01613251565b97505060806135ea8d828e01613251565b96505060a06135fb8d828e01613251565b95505060c08b013567ffffffffffffffff81111561361b5761361b600080fd5b6136278d828e01613185565b94505060e06136388d828e01613251565b93505061010061364a8d828e01613251565b92505061012061365c8d828e01613552565b9150509295989b9194979a5092959850565b600061286f6001600160a01b038316613685565b90565b6001600160a01b031690565b600061286f8261366e565b600061286f82613691565b6132378161369c565b6020810161286f82846136a7565b600080600080608085870312156136d7576136d7600080fd5b843567ffffffffffffffff8111156136f1576136f1600080fd5b6136fd87828801613185565b945050602061370e87828801613209565b935050604061371f87828801613251565b925050606061373087828801613251565b91505092959194509250565b60008060006060848603121561375457613754600080fd5b60006137608686613209565b935050602061377186828701613209565b92505060406132bc86828701613209565b6000806040838503121561379857613798600080fd5b823567ffffffffffffffff8111156137b2576137b2600080fd5b6137be85828601613185565b925050602061338985828601613209565b60e0810161286f82846133e7565b600080604083850312156137f3576137f3600080fd5b60006137be8585613209565b60008060006060848603121561381757613817600080fd5b600061329a8686613209565b600080600080600060a0868803121561383e5761383e600080fd5b853567ffffffffffffffff81111561385857613858600080fd5b61386488828901613185565b955050602061387588828901613251565b945050604061388688828901613251565b935050606061389788828901613552565b925050608086013567ffffffffffffffff8111156138b7576138b7600080fd5b6138c388828901613185565b9150509295509295909350565b600080600080608085870312156138e9576138e9600080fd5b843567ffffffffffffffff81111561390357613903600080fd5b61390f87828801613185565b945050602061392087828801613209565b935050604061393187828801613251565b925050606061373087828801613209565b600061394c825190565b61395a8185602086016132e7565b9290920192915050565b61286f8183613942565b60368152602081017f43616e206e6f7420736574746c652f636c61696d2c2068617665206e6f74207281527f65616368656420736574746c6554696d657374616d7000000000000000000000602082015290505b60400190565b6020808252810161286f8161396e565b60248152602081017f5468697320706f6c6963792068617320616c7265616479206265656e2073657481527f746c656400000000000000000000000000000000000000000000000000000000602082015290506139c2565b6020808252810161286f816139d8565b634e487b7160e01b600052602260045260246000fd5b600281046001821680613a6a57607f821691505b602082108103613a7c57613a7c613a40565b50919050565b805161286f8161324b565b600060208284031215613aa257613aa2600080fd5b6000612bc88484613a82565b60608082528101613abf8186613313565b9050613ace6020830185613235565b612bc860408301846133aa565b60208082527f4f776e61626c653a2063616c6c6572206973206e6f7420746865206f776e65729101908152613476565b6020808252810161286f81613adb565b60238152602081017f496e76616c696420706f6c696379746f6b656e207769746820737461626c656381527f6f696e0000000000000000000000000000000000000000000000000000000000602082015290506139c2565b6020808252810161286f81613b1b565b601e8152602081017f48617665206e6f7420676f7420746865206f7261636c6520726573756c74000081529050613476565b6020808252810161286f81613b83565b602d8152602081017f54686520726573756c7420646f6573206e6f742068617070656e2c20796f752081527f63616e206e6f7420636c61696d00000000000000000000000000000000000000602082015290506139c2565b6020808252810161286f81613bc5565b60408101613c3b8285613393565b612f216020830184613235565b60408101613c568285613393565b612f216020830184613393565b602f8152602081017f43616e206e6f74206465706f7369742f72656465656d2c20686173207061737381527f65642074686520646561646c696e650000000000000000000000000000000000602082015290506139c2565b6020808252810161286f81613c63565b600b8152602081017f5a65726f20416d6f756e7400000000000000000000000000000000000000000081529050613476565b6020808252810161286f81613ccb565b634e487b7160e01b600052603260045260246000fd5b60008154613d3081613a56565b600182168015613d475760018114613d5857613d88565b60ff19831686528186019350613d88565b60008581526020902060005b83811015613d8057815488820152600190910190602001613d64565b505081860193505b50505092915050565b61286f8183613d23565b634e487b7160e01b600052601160045260246000fd5b600060018201613dc357613dc3613d9b565b5060010190565b60158152602081017f506f6c696379206e616d65206e6f7420666f756e64000000000000000000000081529050613476565b6020808252810161286f81613dca565b60168152602081017f506f6c69637920746f6b656e206e6f7420666f756e640000000000000000000081529050613476565b6020808252810161286f81613e0c565b60118152602081017f546f6f206d616e7920646563696d616c7300000000000000000000000000000081529050613476565b6020808252810161286f81613e4e565b60ff81166131fe565b805161286f81613e90565b600060208284031215613eb957613eb9600080fd5b6000612bc88484613e99565b60138152602081017f446563696d616c73206e6f74207061697265640000000000000000000000000081529050613476565b6020808252810161286f81613ec5565b600e8152602081017f57726f6e6720646561646c696e6500000000000000000000000000000000000081529050613476565b6020808252810161286f81613f07565b60158152602081017f57726f6e6720736574746c6554696d657374616d70000000000000000000000081529050613476565b6020808252810161286f81613f49565b60408082528101613f9c8185613313565b9050612f216020830184613235565b805161286f816131f5565b600060208284031215613fcb57613fcb600080fd5b6000612bc88484613fab565b60a08082528101613fe88188613313565b9050613ff76020830187613393565b6140046040830186613235565b6140116060830185613235565b61401e6080830184613235565b9695505050505050565b601b8152602081017f5573657227732071756f7461206e6f742073756666696369656e74000000000081529050613476565b6020808252810161286f81614028565b60008282101561407c5761407c613d9b565b500390565b60288152602081017f446f206e6f7420737570706f7274207468697320737461626c65636f696e206381527f757272656e746c79000000000000000000000000000000000000000000000000602082015290506139c2565b6020808252810161286f81614081565b603f8152602081017f5468697320706f6c69637920746f6b656e20686173206e6f74206265656e206481527f65706c6f7965642c20706c65617365206465706c6f7920697420666972737400602082015290506139c2565b6020808252810161286f816140e9565b60118152602081017f4f6e6c79206f776e6572206f7220494c4d00000000000000000000000000000081529050613476565b6020808252810161286f81614151565b602b8152602081017f506f6c69637920746f6b656e20616e6420706f6f6c20646561646c696e65206e81527f6f74207468652073616d65000000000000000000000000000000000000000000602082015290506139c2565b6020808252810161286f81614193565b606081016142098286613393565b6142166020830185613393565b612bc86040830184613393565b60068152602081017f4d6178203130000000000000000000000000000000000000000000000000000081529050613476565b6020808252810161286f81614223565b60408101613c3b8285613235565b602e8152602081017f506c656173652073657420746865206c6f7474657279202620696e636f6d655381527f686172696e672061646472657373000000000000000000000000000000000000602082015290506139c2565b6020808252810161286f81614273565b60118152602081017f4e6f2070656e64696e6720696e636f6d6500000000000000000000000000000081529050613476565b6020808252810161286f816142db565b602e8152602081017f496e697469616c697a61626c653a20636f6e747261637420697320616c72656181527f647920696e697469616c697a6564000000000000000000000000000000000000602082015290506139c2565b6020808252810161286f8161431d565b60368152602081017f4f6e6c792063616c6c20746869732066756e6374696f6e207768656e2074686581527f206576656e7420646f6573206e6f742068617070656e00000000000000000000602082015290506139c2565b6020808252810161286f81614385565b603b8152602081017f4e6f2071756f74612c20796f7520646964206e6f74206465706f73697420616e81527f64206d696e7420706f6c69637920746f6b656e73206265666f72650000000000602082015290506139c2565b6020808252810161286f816143ed565b60088152602081017f4f6e6c7920494c4d00000000000000000000000000000000000000000000000081529050613476565b6020808252810161286f81614455565b600082198211156144aa576144aa613d9b565b500190565b606081016144bd8286613393565b6144ca6020830185613393565b612bc86040830184613235565b60148152602081017f4861766520646973747269627574656420616c6c00000000000000000000000081529050613476565b6020808252810161286f816144d7565b600061286f6136828381565b61323781614519565b6080808252810161453f8187613313565b905061454e6020830186613393565b6133da6040830185614525565b60328152602081017f596f75206e65656420746f2073746172742066726f6d20746865206c6173742081527f646973747269627574696f6e20706f696e740000000000000000000000000000602082015290506139c2565b6020808252810161286f8161455b565b60128152602081017f496e76616c69642073746f7020696e646578000000000000000000000000000081529050613476565b6020808252810161286f816145c3565b608080825281016146168187613313565b90506146256020830186613393565b6133da6040830185613235565b634e487b7160e01b600052601260045260246000fd5b60008261465757614657614632565b500490565b80825b600185111561469b5780860481111561467a5761467a613d9b565b600185161561468857908102905b80026146948560011c90565b945061465f565b94509492505050565b6000826146b357506001612f21565b816146c057506000612f21565b81600181146146d657600281146146e05761470d565b6001915050612f21565b60ff8411156146f1576146f1613d9b565b8360020a91508482111561470757614707613d9b565b50612f21565b5060208310610133831016604e8410600b8410161715614740575081810a8381111561473b5761473b613d9b565b612f21565b61474d848484600161465c565b9250905081840481111561476357614763613d9b565b0292915050565b6000612f2160001984846146a4565b60148152602081017f496e76616c696420646563696d616c207061727400000000000000000000000081529050613476565b6020808252810161286f81614779565b7f5f0000000000000000000000000000000000000000000000000000000000000081525b60010190565b7f2e0000000000000000000000000000000000000000000000000000000000000081526147df565b6148178187613942565b9050614822816147bb565b905061482e8186613942565b9050614839816147e5565b90506148458185613942565b9050614850816147bb565b905061485c8184613942565b9050614867816147bb565b905061401e8183613942565b60258152602081017f4f6e6c792074686520726f7574657220636f6e74726163742063616e2064656c81527f6567617465000000000000000000000000000000000000000000000000000000602082015290506139c2565b6020808252810161286f81614873565b60a081016148e98288613393565b6148f66020830187613393565b81810360408301526149088186613313565b90506140116060830185613393565b60268152602081017f4f776e61626c653a206e6577206f776e657220697320746865207a65726f206181527f6464726573730000000000000000000000000000000000000000000000000000602082015290506139c2565b6020808252810161286f81614917565b600081600019048311821515161561499957614999613d9b565b500290565b608081016149ac8287613393565b6146256020830186613393565b602b8152602081017f496e697469616c697a61626c653a20636f6e7472616374206973206e6f74206981527f6e697469616c697a696e67000000000000000000000000000000000000000000602082015290506139c2565b6020808252810161286f816149b9565b600082614a3057614a30614632565b500690565b805161286f8161354a565b600060208284031215614a5557614a55600080fd5b6000612bc88484614a35565b602a8152602081017f5361666545524332303a204552433230206f7065726174696f6e20646964206e81527f6f74207375636365656400000000000000000000000000000000000000000000602082015290506139c2565b6020808252810161286f81614a61565b60268152602081017f416464726573733a20696e73756666696369656e742062616c616e636520666f81527f722063616c6c0000000000000000000000000000000000000000000000000000602082015290506139c2565b6020808252810161286f81614ac9565b601d8152602081017f416464726573733a2063616c6c20746f206e6f6e2d636f6e747261637400000081529050613476565b6020808252810161286f81614b3156fea2646970667358221220692b408c572ceb1846105a919d392641f7e06d50d6c491df509269fcaf78c9d564736f6c634300080d0033",
  "devdoc": {
    "details": "Most of the functions to be called from outside will use the name of policyToken         rather than the address (easy to read).         Other variables or functions still use address to index.         The rule of policyToken naming is:              Original Token Name(with decimals) + Strike Price + Lower or Higher + Date         E.g.  AVAX_30.0_L_2101, BTC_30000.0_L_2102, ETH_8000.0_H_2109         (the original name need to be the same as in the chainlink oracle)         There are three decimals for a policy token:              1. Name decimals: Only for generating the name of policyToken              2. Token decimals: The decimals of the policyToken                 (should be the same as the paired stablecoin)              3. Price decimals: Always 18. The oracle result will be transferred for settlement",
    "kind": "dev",
    "methods": {
      "_generateName(string,uint256,uint256,bool,string)": {
        "params": {
          "_decimals": "Decimals of the name generation (0,1=>1, 2=>2)",
          "_isCall": "The policy's payoff is triggered when higher(true) or lower(false)",
          "_round": "Round of the policy, named by <month><day> (e.g. 0320, 1215)",
          "_strikePrice": "Strike price of the policy (18 decimals)",
          "_tokenName": "Name of the stike token (BTC, ETH, AVAX...)"
        }
      },
      "addStablecoin(address)": {
        "params": {
          "_newStablecoin": "Address of the new stablecoin"
        }
      },
      "claim(string,address,uint256)": {
        "details": "It is done after result settlement and only if the result is true",
        "params": {
          "_amount": "Amount of stablecoin",
          "_policyTokenName": "Name of the policy token",
          "_stablecoin": "Address of the stable coin"
        }
      },
      "collectIncome(address)": {
        "details": "Can be done by anyone, only when there is some income to be distributed",
        "params": {
          "_stablecoin": "Address of stablecoin"
        }
      },
      "delegateDeposit(string,address,uint256,address)": {
        "details": "Only called by the router contract",
        "params": {
          "_amount": "Amount of stablecoin",
          "_policyTokenName": "Name of the policy token",
          "_stablecoin": "Address of the sable coin",
          "_user": "Address to receive the policy tokens"
        }
      },
      "deployPolicyToken(string,address,bool,uint256,uint256,uint256,string,uint256,uint256,bool)": {
        "details": "Only the owner can deploy new policy tokens      The name form is like \"AVAX_50_L_2203\" and is built inside the contract      Name decimals and token decimals are different here      The original token name should be the same in Chainlink PriceFeeds      Those tokens that are not listed on Chainlink are not supported",
        "params": {
          "_deadline": "Deadline of this policy token (deposit / redeem / swap)",
          "_isCall": "The policy is for higher or lower than the strike price (call / put)",
          "_isIDOPool": "Whether this token is an IDO pool",
          "_nameDecimals": "Decimals of this token's name (0~18)",
          "_round": "Round of the token (e.g. 2203 -> expired at 22 March)",
          "_settleTimestamp": "Can settle after this timestamp (for oracle)",
          "_stablecoin": "Address of the stablecoin (Just for check decimals here)",
          "_strikePrice": "Strike price of the policy (have already been transferred with 1e18)",
          "_tokenDecimals": "Decimals of this token's value (0~18) (same as paired stablecoin)",
          "_tokenName": "Name of the original token (e.g. AVAX, BTC, ETH...)"
        }
      },
      "deployPool(string,address,uint256,uint256)": {
        "params": {
          "_feeRate": "Fee rate given to LP holders",
          "_policyTokenName": "Name of the policy token",
          "_poolDeadline": "Swapping deadline of the pool (normally the same as the token's deadline)",
          "_stablecoin": "Address of the stable coin"
        }
      },
      "deposit(string,address,uint256)": {
        "params": {
          "_amount": "Amount of stablecoin",
          "_policyTokenName": "Name of the policy token",
          "_stablecoin": "Address of the stable coin"
        }
      },
      "findAddressbyName(string)": {
        "params": {
          "_policyTokenName": "Name of the policy token (e.g. \"AVAX_30_L_2103\")"
        },
        "returns": {
          "policyTokenAddress": "Address of the policy token"
        }
      },
      "findNamebyAddress(address)": {
        "params": {
          "_policyTokenAddress": "Address of the policy token"
        },
        "returns": {
          "policyTokenName": "Name of the policy token"
        }
      },
      "getAllTokens()": {
        "details": "Include all active&expired tokens",
        "returns": {
          "_0": "tokensInfo Token information list"
        }
      },
      "getPolicyTokenInfo(string)": {
        "params": {
          "_policyTokenName": "Name of the policy token (e.g. \"AVAX30L202103\")"
        },
        "returns": {
          "_0": "policyTokenInfo PolicyToken detail information"
        }
      },
      "getUserQuota(address,address)": {
        "params": {
          "_policyTokenAddress": "Address of the policy token",
          "_user": "Address of the user to be checked"
        },
        "returns": {
          "_quota": "User's quota result"
        }
      },
      "initialize(address,address,address)": {
        "params": {
          "_factory": "Address of naughty factory",
          "_priceGetter": "Address of the oracle contract",
          "_usdc": "USDC.e is the first stablecoin supported in the pool"
        }
      },
      "owner()": {
        "details": "Returns the address of the current owner."
      },
      "redeem(string,address,uint256)": {
        "details": "Redeem happens before the deadline and is different from claim/settle",
        "params": {
          "_amount": "Amount to redeem",
          "_policyTokenName": "Name of the policy token",
          "_stablecoin": "Address of the stablecoin"
        }
      },
      "redeemAfterSettlement(string,address)": {
        "params": {
          "_policyTokenName": "Name of the policy token",
          "_stablecoin": "Address of the stablecoin"
        }
      },
      "renounceOwnership()": {
        "details": "Leaves the contract without owner. It will not be possible to call `onlyOwner` functions anymore. Can only be called by the current owner. NOTE: Renouncing ownership will leave the contract without an owner, thereby removing any functionality that is only available to the owner."
      },
      "setIDOPriceGetter(address)": {
        "params": {
          "_idoPriceGetter": "Address of the new IDO price getter contract"
        }
      },
      "setILMContract(address)": {
        "params": {
          "_ILM": "Address of the new ILM"
        }
      },
      "setIncomeSharing(address)": {
        "params": {
          "_incomeSharing": "Address of the new incomeSharing"
        }
      },
      "setIncomeToLottery(uint256)": {
        "details": "The remaining part will be distributed to incomeSharing",
        "params": {
          "_toLottery": "Proportion to lottery"
        }
      },
      "setLottery(address)": {
        "params": {
          "_lotteryAddress": "Address of the new lottery"
        }
      },
      "setNaughtyRouter(address)": {
        "params": {
          "_router": "Address of the new naughty router"
        }
      },
      "settleAllPolicyTokens(string,address,uint256,uint256)": {
        "details": "Take care of the gas cost and can use the _startIndex and _stopIndex to control the size",
        "params": {
          "_policyTokenName": "Name of policy token",
          "_stablecoin": "Address of stablecoin",
          "_startIndex": "Settlement start index",
          "_stopIndex": "Settlement stop index"
        }
      },
      "settleFinalResult(string)": {
        "params": {
          "_policyTokenName": "Name of the policy token"
        }
      },
      "transferOwnership(address)": {
        "details": "Transfers ownership of the contract to a new account (`newOwner`). Can only be called by the current owner."
      },
      "updateUserQuota(address,address,uint256)": {
        "details": "When you claim your liquidity from ILM, you will get normal quota as you are using policyCore",
        "params": {
          "_amount": "Quota amount",
          "_policyToken": "PolicyToken address",
          "_user": "User address"
        }
      }
    },
    "title": "PolicyCore",
    "version": 1
  },
  "userdoc": {
    "kind": "user",
    "methods": {
      "_generateName(string,uint256,uint256,bool,string)": {
        "notice": "Generate the policy token name"
      },
      "addStablecoin(address)": {
        "notice": "Add a new supported stablecoin"
      },
      "claim(string,address,uint256)": {
        "notice": "Claim a payoff based on policy tokens"
      },
      "collectIncome(address)": {
        "notice": "Collect the income"
      },
      "delegateDeposit(string,address,uint256,address)": {
        "notice": "Delegate deposit (deposit and mint for other addresses)"
      },
      "deployPolicyToken(string,address,bool,uint256,uint256,uint256,string,uint256,uint256,bool)": {
        "notice": "Deploy a new policy token and return the token address"
      },
      "deployPool(string,address,uint256,uint256)": {
        "notice": "Deploy a new pair (pool)"
      },
      "deposit(string,address,uint256)": {
        "notice": "Deposit stablecoins and get policy tokens"
      },
      "findAddressbyName(string)": {
        "notice": "Find the token address by its name"
      },
      "findNamebyAddress(address)": {
        "notice": "Find the token name by its address"
      },
      "getAllTokens()": {
        "notice": "Get the information about all the tokens"
      },
      "getPolicyTokenInfo(string)": {
        "notice": "Find the token information by its name"
      },
      "getUserQuota(address,address)": {
        "notice": "Get a user's quota for a certain policy token"
      },
      "initialize(address,address,address)": {
        "notice": "Constructor, for some addresses"
      },
      "redeem(string,address,uint256)": {
        "notice": "Burn policy tokens and redeem stablecoins"
      },
      "redeemAfterSettlement(string,address)": {
        "notice": "Redeem policy tokens and get stablecoins by the user himeself"
      },
      "setIDOPriceGetter(address)": {
        "notice": "Set IDO price getter contract"
      },
      "setILMContract(address)": {
        "notice": "Change the address of ILM"
      },
      "setIncomeSharing(address)": {
        "notice": "Change the address of emergency pool"
      },
      "setIncomeToLottery(uint256)": {
        "notice": "Change the income part to lottery"
      },
      "setLottery(address)": {
        "notice": "Change the address of lottery"
      },
      "setNaughtyRouter(address)": {
        "notice": "Change the address of naughty router"
      },
      "settleAllPolicyTokens(string,address,uint256,uint256)": {
        "notice": "Settle the policies for the users when insurance events do not happen         Funds are automatically distributed back to the depositors"
      },
      "settleFinalResult(string)": {
        "notice": "Get the final price from the PriceGetter contract"
      },
      "updateUserQuota(address,address,uint256)": {
        "notice": "Update user quota from ILM when claim"
      }
    },
    "notice": "Core logic of Naughty Price Product         Preset:              (Done in the naughtyFactory contract)              1. Deploy policyToken contract              2. Deploy policyToken-Stablecoin pool contract         User Interaction:              1. Deposit Stablecoin and mint PolicyTokens              2. Redeem their Stablecoin and burn the PolicyTokens (before settlement)              3. Claim for payout with PolicyTokens (after settlement)         PolicyTokens are minted with the ratio 1:1 to Stablecoin         The PolicyTokens are traded in the pool with CFMM (xy=k)         When the event happens, a PolicyToken can be burned for claiming 1 Stablecoin.         When the event does not happen, the PolicyToken depositors can         redeem their 1 deposited Stablecoin",
    "version": 1
  },
  "storageLayout": {
    "storage": [
      {
        "astId": 2523,
        "contract": "contracts/naughty-price/PolicyCore.sol:PolicyCore",
        "label": "_initialized",
        "offset": 0,
        "slot": "0",
        "type": "t_bool"
      },
      {
        "astId": 2526,
        "contract": "contracts/naughty-price/PolicyCore.sol:PolicyCore",
        "label": "_initializing",
        "offset": 1,
        "slot": "0",
        "type": "t_bool"
      },
      {
        "astId": 3760,
        "contract": "contracts/naughty-price/PolicyCore.sol:PolicyCore",
        "label": "__gap",
        "offset": 0,
        "slot": "1",
        "type": "t_array(t_uint256)50_storage"
      },
      {
        "astId": 2403,
        "contract": "contracts/naughty-price/PolicyCore.sol:PolicyCore",
        "label": "_owner",
        "offset": 0,
        "slot": "51",
        "type": "t_address"
      },
      {
        "astId": 2515,
        "contract": "contracts/naughty-price/PolicyCore.sol:PolicyCore",
        "label": "__gap",
        "offset": 0,
        "slot": "52",
        "type": "t_array(t_uint256)49_storage"
      },
      {
        "astId": 31830,
        "contract": "contracts/naughty-price/PolicyCore.sol:PolicyCore",
        "label": "factory",
        "offset": 0,
        "slot": "101",
        "type": "t_contract(INaughtyFactory)34012"
      },
      {
        "astId": 31833,
        "contract": "contracts/naughty-price/PolicyCore.sol:PolicyCore",
        "label": "priceGetter",
        "offset": 0,
        "slot": "102",
        "type": "t_contract(IPriceGetter)34287"
      },
      {
        "astId": 31835,
        "contract": "contracts/naughty-price/PolicyCore.sol:PolicyCore",
        "label": "lottery",
        "offset": 0,
        "slot": "103",
        "type": "t_address"
      },
      {
        "astId": 31837,
        "contract": "contracts/naughty-price/PolicyCore.sol:PolicyCore",
        "label": "incomeSharing",
        "offset": 0,
        "slot": "104",
        "type": "t_address"
      },
      {
        "astId": 31839,
        "contract": "contracts/naughty-price/PolicyCore.sol:PolicyCore",
        "label": "naughtyRouter",
        "offset": 0,
        "slot": "105",
        "type": "t_address"
      },
      {
        "astId": 31841,
        "contract": "contracts/naughty-price/PolicyCore.sol:PolicyCore",
        "label": "ILMContract",
        "offset": 0,
        "slot": "106",
        "type": "t_address"
      },
      {
        "astId": 31843,
        "contract": "contracts/naughty-price/PolicyCore.sol:PolicyCore",
        "label": "toLotteryPart",
        "offset": 0,
        "slot": "107",
        "type": "t_uint256"
      },
      {
        "astId": 31863,
        "contract": "contracts/naughty-price/PolicyCore.sol:PolicyCore",
        "label": "policyTokenInfoMapping",
        "offset": 0,
        "slot": "108",
        "type": "t_mapping(t_string_memory_ptr,t_struct(PolicyTokenInfo)31858_storage)"
      },
      {
        "astId": 31867,
        "contract": "contracts/naughty-price/PolicyCore.sol:PolicyCore",
        "label": "policyTokenAddressToName",
        "offset": 0,
        "slot": "109",
        "type": "t_mapping(t_address,t_string_storage)"
      },
      {
        "astId": 31870,
        "contract": "contracts/naughty-price/PolicyCore.sol:PolicyCore",
        "label": "allPolicyTokens",
        "offset": 0,
        "slot": "110",
        "type": "t_array(t_string_storage)dyn_storage"
      },
      {
        "astId": 31874,
        "contract": "contracts/naughty-price/PolicyCore.sol:PolicyCore",
        "label": "supportedStablecoin",
        "offset": 0,
        "slot": "111",
        "type": "t_mapping(t_address,t_bool)"
      },
      {
        "astId": 31878,
        "contract": "contracts/naughty-price/PolicyCore.sol:PolicyCore",
        "label": "whichStablecoin",
        "offset": 0,
        "slot": "112",
        "type": "t_mapping(t_address,t_address)"
      },
      {
        "astId": 31882,
        "contract": "contracts/naughty-price/PolicyCore.sol:PolicyCore",
        "label": "policyTokenToOriginal",
        "offset": 0,
        "slot": "113",
        "type": "t_mapping(t_address,t_string_storage)"
      },
      {
        "astId": 31888,
        "contract": "contracts/naughty-price/PolicyCore.sol:PolicyCore",
        "label": "userQuota",
        "offset": 0,
        "slot": "114",
        "type": "t_mapping(t_address,t_mapping(t_address,t_uint256))"
      },
      {
        "astId": 31893,
        "contract": "contracts/naughty-price/PolicyCore.sol:PolicyCore",
        "label": "allDepositors",
        "offset": 0,
        "slot": "115",
        "type": "t_mapping(t_address,t_array(t_address)dyn_storage)"
      },
      {
        "astId": 31907,
        "contract": "contracts/naughty-price/PolicyCore.sol:PolicyCore",
        "label": "settleResult",
        "offset": 0,
        "slot": "116",
        "type": "t_mapping(t_address,t_struct(SettlementInfo)31902_storage)"
      },
      {
        "astId": 31911,
        "contract": "contracts/naughty-price/PolicyCore.sol:PolicyCore",
        "label": "pendingIncomeToLottery",
        "offset": 0,
        "slot": "117",
        "type": "t_mapping(t_address,t_uint256)"
      },
      {
        "astId": 31915,
        "contract": "contracts/naughty-price/PolicyCore.sol:PolicyCore",
        "label": "pendingIncomeToSharing",
        "offset": 0,
        "slot": "118",
        "type": "t_mapping(t_address,t_uint256)"
      },
      {
        "astId": 31919,
        "contract": "contracts/naughty-price/PolicyCore.sol:PolicyCore",
        "label": "isIDOPool",
        "offset": 0,
        "slot": "119",
        "type": "t_mapping(t_string_memory_ptr,t_bool)"
      },
      {
        "astId": 31922,
        "contract": "contracts/naughty-price/PolicyCore.sol:PolicyCore",
        "label": "idoPriceGetter",
        "offset": 0,
        "slot": "120",
        "type": "t_contract(IPriceGetter)34287"
      }
    ],
    "types": {
      "t_address": {
        "encoding": "inplace",
        "label": "address",
        "numberOfBytes": "20"
      },
      "t_array(t_address)dyn_storage": {
        "base": "t_address",
        "encoding": "dynamic_array",
        "label": "address[]",
        "numberOfBytes": "32"
      },
      "t_array(t_string_storage)dyn_storage": {
        "base": "t_string_storage",
        "encoding": "dynamic_array",
        "label": "string[]",
        "numberOfBytes": "32"
      },
      "t_array(t_uint256)49_storage": {
        "base": "t_uint256",
        "encoding": "inplace",
        "label": "uint256[49]",
        "numberOfBytes": "1568"
      },
      "t_array(t_uint256)50_storage": {
        "base": "t_uint256",
        "encoding": "inplace",
        "label": "uint256[50]",
        "numberOfBytes": "1600"
      },
      "t_bool": {
        "encoding": "inplace",
        "label": "bool",
        "numberOfBytes": "1"
      },
      "t_contract(INaughtyFactory)34012": {
        "encoding": "inplace",
        "label": "contract INaughtyFactory",
        "numberOfBytes": "20"
      },
      "t_contract(IPriceGetter)34287": {
        "encoding": "inplace",
        "label": "contract IPriceGetter",
        "numberOfBytes": "20"
      },
      "t_mapping(t_address,t_address)": {
        "encoding": "mapping",
        "key": "t_address",
        "label": "mapping(address => address)",
        "numberOfBytes": "32",
        "value": "t_address"
      },
      "t_mapping(t_address,t_array(t_address)dyn_storage)": {
        "encoding": "mapping",
        "key": "t_address",
        "label": "mapping(address => address[])",
        "numberOfBytes": "32",
        "value": "t_array(t_address)dyn_storage"
      },
      "t_mapping(t_address,t_bool)": {
        "encoding": "mapping",
        "key": "t_address",
        "label": "mapping(address => bool)",
        "numberOfBytes": "32",
        "value": "t_bool"
      },
      "t_mapping(t_address,t_mapping(t_address,t_uint256))": {
        "encoding": "mapping",
        "key": "t_address",
        "label": "mapping(address => mapping(address => uint256))",
        "numberOfBytes": "32",
        "value": "t_mapping(t_address,t_uint256)"
      },
      "t_mapping(t_address,t_string_storage)": {
        "encoding": "mapping",
        "key": "t_address",
        "label": "mapping(address => string)",
        "numberOfBytes": "32",
        "value": "t_string_storage"
      },
      "t_mapping(t_address,t_struct(SettlementInfo)31902_storage)": {
        "encoding": "mapping",
        "key": "t_address",
        "label": "mapping(address => struct PolicyCore.SettlementInfo)",
        "numberOfBytes": "32",
        "value": "t_struct(SettlementInfo)31902_storage"
      },
      "t_mapping(t_address,t_uint256)": {
        "encoding": "mapping",
        "key": "t_address",
        "label": "mapping(address => uint256)",
        "numberOfBytes": "32",
        "value": "t_uint256"
      },
      "t_mapping(t_string_memory_ptr,t_bool)": {
        "encoding": "mapping",
        "key": "t_string_memory_ptr",
        "label": "mapping(string => bool)",
        "numberOfBytes": "32",
        "value": "t_bool"
      },
      "t_mapping(t_string_memory_ptr,t_struct(PolicyTokenInfo)31858_storage)": {
        "encoding": "mapping",
        "key": "t_string_memory_ptr",
        "label": "mapping(string => struct PolicyCore.PolicyTokenInfo)",
        "numberOfBytes": "32",
        "value": "t_struct(PolicyTokenInfo)31858_storage"
      },
      "t_string_memory_ptr": {
        "encoding": "bytes",
        "label": "string",
        "numberOfBytes": "32"
      },
      "t_string_storage": {
        "encoding": "bytes",
        "label": "string",
        "numberOfBytes": "32"
      },
      "t_struct(PolicyTokenInfo)31858_storage": {
        "encoding": "inplace",
        "label": "struct PolicyCore.PolicyTokenInfo",
        "members": [
          {
            "astId": 31845,
            "contract": "contracts/naughty-price/PolicyCore.sol:PolicyCore",
            "label": "policyTokenAddress",
            "offset": 0,
            "slot": "0",
            "type": "t_address"
          },
          {
            "astId": 31847,
            "contract": "contracts/naughty-price/PolicyCore.sol:PolicyCore",
            "label": "isCall",
            "offset": 20,
            "slot": "0",
            "type": "t_bool"
          },
          {
            "astId": 31849,
            "contract": "contracts/naughty-price/PolicyCore.sol:PolicyCore",
            "label": "nameDecimals",
            "offset": 0,
            "slot": "1",
            "type": "t_uint256"
          },
          {
            "astId": 31851,
            "contract": "contracts/naughty-price/PolicyCore.sol:PolicyCore",
            "label": "tokenDecimals",
            "offset": 0,
            "slot": "2",
            "type": "t_uint256"
          },
          {
            "astId": 31853,
            "contract": "contracts/naughty-price/PolicyCore.sol:PolicyCore",
            "label": "strikePrice",
            "offset": 0,
            "slot": "3",
            "type": "t_uint256"
          },
          {
            "astId": 31855,
            "contract": "contracts/naughty-price/PolicyCore.sol:PolicyCore",
            "label": "deadline",
            "offset": 0,
            "slot": "4",
            "type": "t_uint256"
          },
          {
            "astId": 31857,
            "contract": "contracts/naughty-price/PolicyCore.sol:PolicyCore",
            "label": "settleTimestamp",
            "offset": 0,
            "slot": "5",
            "type": "t_uint256"
          }
        ],
        "numberOfBytes": "192"
      },
      "t_struct(SettlementInfo)31902_storage": {
        "encoding": "inplace",
        "label": "struct PolicyCore.SettlementInfo",
        "members": [
          {
            "astId": 31895,
            "contract": "contracts/naughty-price/PolicyCore.sol:PolicyCore",
            "label": "price",
            "offset": 0,
            "slot": "0",
            "type": "t_uint256"
          },
          {
            "astId": 31897,
            "contract": "contracts/naughty-price/PolicyCore.sol:PolicyCore",
            "label": "isHappened",
            "offset": 0,
            "slot": "1",
            "type": "t_bool"
          },
          {
            "astId": 31899,
            "contract": "contracts/naughty-price/PolicyCore.sol:PolicyCore",
            "label": "alreadySettled",
            "offset": 1,
            "slot": "1",
            "type": "t_bool"
          },
          {
            "astId": 31901,
            "contract": "contracts/naughty-price/PolicyCore.sol:PolicyCore",
            "label": "currentDistributionIndex",
            "offset": 0,
            "slot": "2",
            "type": "t_uint256"
          }
        ],
        "numberOfBytes": "96"
      },
      "t_uint256": {
        "encoding": "inplace",
        "label": "uint256",
        "numberOfBytes": "32"
      }
    }
  }
}