{
  "address": "0xf8d9c5027bb917ce86371bf5c33eec9c70baae97",
  "abi": [
    {
      "anonymous": false,
      "inputs": [
        {
          "indexed": false,
          "internalType": "address",
          "name": "payerAddress",
          "type": "address"
        },
        {
          "indexed": false,
          "internalType": "address",
          "name": "userAddress",
          "type": "address"
        },
        {
          "indexed": false,
          "internalType": "string",
          "name": "policyTokenName",
          "type": "string"
        },
        {
          "indexed": false,
          "internalType": "address",
          "name": "stablecoin",
          "type": "address"
        },
        {
          "indexed": false,
          "internalType": "uint256",
          "name": "amount",
          "type": "uint256"
        }
      ],
      "name": "DelegateDeposit",
      "type": "event"
    },
    {
      "anonymous": false,
      "inputs": [
        {
          "indexed": false,
          "internalType": "address",
          "name": "userAddress",
          "type": "address"
        },
        {
          "indexed": false,
          "internalType": "string",
          "name": "policyTokenName",
          "type": "string"
        },
        {
          "indexed": false,
          "internalType": "address",
          "name": "stablecoin",
          "type": "address"
        },
        {
          "indexed": false,
          "internalType": "uint256",
          "name": "amount",
          "type": "uint256"
        }
      ],
      "name": "Deposit",
      "type": "event"
    },
    {
      "anonymous": false,
      "inputs": [
        {
          "indexed": false,
          "internalType": "string",
          "name": "_policyTokenName",
          "type": "string"
        },
        {
          "indexed": false,
          "internalType": "uint256",
          "name": "price",
          "type": "uint256"
        },
        {
          "indexed": false,
          "internalType": "bool",
          "name": "isHappened",
          "type": "bool"
        }
      ],
      "name": "FinalResultSettled",
      "type": "event"
    },
    {
      "anonymous": false,
      "inputs": [
        {
          "indexed": false,
          "internalType": "address",
          "name": "oldILM",
          "type": "address"
        },
        {
          "indexed": false,
          "internalType": "address",
          "name": "newILM",
          "type": "address"
        }
      ],
      "name": "ILMChanged",
      "type": "event"
    },
    {
      "anonymous": false,
      "inputs": [
        {
          "indexed": false,
          "internalType": "address",
          "name": "oldIncomeSharing",
          "type": "address"
        },
        {
          "indexed": false,
          "internalType": "address",
          "name": "newIncomeSharing",
          "type": "address"
        }
      ],
      "name": "IncomeSharingChanged",
      "type": "event"
    },
    {
      "anonymous": false,
      "inputs": [
        {
          "indexed": false,
          "internalType": "uint256",
          "name": "oldToLottery",
          "type": "uint256"
        },
        {
          "indexed": false,
          "internalType": "uint256",
          "name": "newToLottery",
          "type": "uint256"
        }
      ],
      "name": "IncomeToLotteryChanged",
      "type": "event"
    },
    {
      "anonymous": false,
      "inputs": [
        {
          "indexed": false,
          "internalType": "address",
          "name": "oldLotteryAddress",
          "type": "address"
        },
        {
          "indexed": false,
          "internalType": "address",
          "name": "newLotteryAddress",
          "type": "address"
        }
      ],
      "name": "LotteryChanged",
      "type": "event"
    },
    {
      "anonymous": false,
      "inputs": [
        {
          "indexed": false,
          "internalType": "address",
          "name": "oldRouter",
          "type": "address"
        },
        {
          "indexed": false,
          "internalType": "address",
          "name": "newRouter",
          "type": "address"
        }
      ],
      "name": "NaughtyRouterChanged",
      "type": "event"
    },
    {
      "anonymous": false,
      "inputs": [
        {
          "indexed": false,
          "internalType": "address",
          "name": "_newStablecoin",
          "type": "address"
        }
      ],
      "name": "NewStablecoinAdded",
      "type": "event"
    },
    {
      "anonymous": false,
      "inputs": [
        {
          "indexed": true,
          "internalType": "address",
          "name": "previousOwner",
          "type": "address"
        },
        {
          "indexed": true,
          "internalType": "address",
          "name": "newOwner",
          "type": "address"
        }
      ],
      "name": "OwnershipTransferred",
      "type": "event"
    },
    {
      "anonymous": false,
      "inputs": [
        {
          "indexed": false,
          "internalType": "string",
          "name": "tokenName",
          "type": "string"
        },
        {
          "indexed": false,
          "internalType": "address",
          "name": "tokenAddress",
          "type": "address"
        },
        {
          "indexed": false,
          "internalType": "uint256",
          "name": "tokenDecimals",
          "type": "uint256"
        },
        {
          "indexed": false,
          "internalType": "uint256",
          "name": "deadline",
          "type": "uint256"
        },
        {
          "indexed": false,
          "internalType": "uint256",
          "name": "settleTimestamp",
          "type": "uint256"
        }
      ],
      "name": "PolicyTokenDeployed",
      "type": "event"
    },
    {
      "anonymous": false,
      "inputs": [
        {
          "indexed": false,
          "internalType": "string",
          "name": "policyTokenName",
          "type": "string"
        },
        {
          "indexed": false,
          "internalType": "address",
          "name": "stablecoin",
          "type": "address"
        },
        {
          "indexed": false,
          "internalType": "uint256",
          "name": "startIndex",
          "type": "uint256"
        },
        {
          "indexed": false,
          "internalType": "uint256",
          "name": "stopIndex",
          "type": "uint256"
        }
      ],
      "name": "PolicyTokensSettledForUsers",
      "type": "event"
    },
    {
      "anonymous": false,
      "inputs": [
        {
          "indexed": false,
          "internalType": "address",
          "name": "poolAddress",
          "type": "address"
        },
        {
          "indexed": false,
          "internalType": "address",
          "name": "policyTokenAddress",
          "type": "address"
        },
        {
          "indexed": false,
          "internalType": "address",
          "name": "stablecoin",
          "type": "address"
        }
      ],
      "name": "PoolDeployed",
      "type": "event"
    },
    {
      "anonymous": false,
      "inputs": [
        {
          "indexed": false,
          "internalType": "address",
          "name": "poolAddress",
          "type": "address"
        },
        {
          "indexed": false,
          "internalType": "address",
          "name": "policyTokenAddress",
          "type": "address"
        },
        {
          "indexed": false,
          "internalType": "address",
          "name": "stablecoin",
          "type": "address"
        },
        {
          "indexed": false,
          "internalType": "uint256",
          "name": "initLiquidityA",
          "type": "uint256"
        },
        {
          "indexed": false,
          "internalType": "uint256",
          "name": "initLiquidityB",
          "type": "uint256"
        }
      ],
      "name": "PoolDeployedWithInitialLiquidity",
      "type": "event"
    },
    {
      "anonymous": false,
      "inputs": [
        {
          "indexed": false,
          "internalType": "address",
          "name": "userAddress",
          "type": "address"
        },
        {
          "indexed": false,
          "internalType": "string",
          "name": "policyTokenName",
          "type": "string"
        },
        {
          "indexed": false,
          "internalType": "address",
          "name": "stablecoin",
          "type": "address"
        },
        {
          "indexed": false,
          "internalType": "uint256",
          "name": "amount",
          "type": "uint256"
        }
      ],
      "name": "Redeem",
      "type": "event"
    },
    {
      "anonymous": false,
      "inputs": [
        {
          "indexed": false,
          "internalType": "address",
          "name": "userAddress",
          "type": "address"
        },
        {
          "indexed": false,
          "internalType": "string",
          "name": "policyTokenName",
          "type": "string"
        },
        {
          "indexed": false,
          "internalType": "address",
          "name": "stablecoin",
          "type": "address"
        },
        {
          "indexed": false,
          "internalType": "uint256",
          "name": "amount",
          "type": "uint256"
        }
      ],
      "name": "RedeemAfterSettlement",
      "type": "event"
    },
    {
      "inputs": [],
      "name": "ILMContract",
      "outputs": [
        {
          "internalType": "address",
          "name": "",
          "type": "address"
        }
      ],
      "stateMutability": "view",
      "type": "function"
    },
    {
      "inputs": [
        {
          "internalType": "string",
          "name": "_tokenName",
          "type": "string"
        },
        {
          "internalType": "uint256",
          "name": "_decimals",
          "type": "uint256"
        },
        {
          "internalType": "uint256",
          "name": "_strikePrice",
          "type": "uint256"
        },
        {
          "internalType": "bool",
          "name": "_isCall",
          "type": "bool"
        },
        {
          "internalType": "string",
          "name": "_round",
          "type": "string"
        }
      ],
      "name": "_generateName",
      "outputs": [
        {
          "internalType": "string",
          "name": "",
          "type": "string"
        }
      ],
      "stateMutability": "pure",
      "type": "function"
    },
    {
      "inputs": [
        {
          "internalType": "address",
          "name": "_newStablecoin",
          "type": "address"
        }
      ],
      "name": "addStablecoin",
      "outputs": [],
      "stateMutability": "nonpayable",
      "type": "function"
    },
    {
      "inputs": [
        {
          "internalType": "address",
          "name": "",
          "type": "address"
        },
        {
          "internalType": "uint256",
          "name": "",
          "type": "uint256"
        }
      ],
      "name": "allDepositors",
      "outputs": [
        {
          "internalType": "address",
          "name": "",
          "type": "address"
        }
      ],
      "stateMutability": "view",
      "type": "function"
    },
    {
      "inputs": [
        {
          "internalType": "uint256",
          "name": "",
          "type": "uint256"
        }
      ],
      "name": "allPolicyTokens",
      "outputs": [
        {
          "internalType": "string",
          "name": "",
          "type": "string"
        }
      ],
      "stateMutability": "view",
      "type": "function"
    },
    {
      "inputs": [
        {
          "internalType": "string",
          "name": "_policyTokenName",
          "type": "string"
        },
        {
          "internalType": "address",
          "name": "_stablecoin",
          "type": "address"
        },
        {
          "internalType": "uint256",
          "name": "_amount",
          "type": "uint256"
        }
      ],
      "name": "claim",
      "outputs": [],
      "stateMutability": "nonpayable",
      "type": "function"
    },
    {
      "inputs": [
        {
          "internalType": "address",
          "name": "_stablecoin",
          "type": "address"
        }
      ],
      "name": "collectIncome",
      "outputs": [],
      "stateMutability": "nonpayable",
      "type": "function"
    },
    {
      "inputs": [
        {
          "internalType": "string",
          "name": "_policyTokenName",
          "type": "string"
        },
        {
          "internalType": "address",
          "name": "_stablecoin",
          "type": "address"
        },
        {
          "internalType": "uint256",
          "name": "_amount",
          "type": "uint256"
        },
        {
          "internalType": "address",
          "name": "_user",
          "type": "address"
        }
      ],
      "name": "delegateDeposit",
      "outputs": [],
      "stateMutability": "nonpayable",
      "type": "function"
    },
    {
      "inputs": [
        {
          "internalType": "string",
          "name": "_tokenName",
          "type": "string"
        },
        {
          "internalType": "address",
          "name": "_stablecoin",
          "type": "address"
        },
        {
          "internalType": "bool",
          "name": "_isCall",
          "type": "bool"
        },
        {
          "internalType": "uint256",
          "name": "_nameDecimals",
          "type": "uint256"
        },
        {
          "internalType": "uint256",
          "name": "_tokenDecimals",
          "type": "uint256"
        },
        {
          "internalType": "uint256",
          "name": "_strikePrice",
          "type": "uint256"
        },
        {
          "internalType": "string",
          "name": "_round",
          "type": "string"
        },
        {
          "internalType": "uint256",
          "name": "_deadline",
          "type": "uint256"
        },
        {
          "internalType": "uint256",
          "name": "_settleTimestamp",
          "type": "uint256"
        }
      ],
      "name": "deployPolicyToken",
      "outputs": [],
      "stateMutability": "nonpayable",
      "type": "function"
    },
    {
      "inputs": [
        {
          "internalType": "string",
          "name": "_policyTokenName",
          "type": "string"
        },
        {
          "internalType": "address",
          "name": "_stablecoin",
          "type": "address"
        },
        {
          "internalType": "uint256",
          "name": "_poolDeadline",
          "type": "uint256"
        },
        {
          "internalType": "uint256",
          "name": "_feeRate",
          "type": "uint256"
        }
      ],
      "name": "deployPool",
      "outputs": [
        {
          "internalType": "address",
          "name": "",
          "type": "address"
        }
      ],
      "stateMutability": "nonpayable",
      "type": "function"
    },
    {
      "inputs": [
        {
          "internalType": "string",
          "name": "_policyTokenName",
          "type": "string"
        },
        {
          "internalType": "address",
          "name": "_stablecoin",
          "type": "address"
        },
        {
          "internalType": "uint256",
          "name": "_amount",
          "type": "uint256"
        }
      ],
      "name": "deposit",
      "outputs": [],
      "stateMutability": "nonpayable",
      "type": "function"
    },
    {
      "inputs": [],
      "name": "factory",
      "outputs": [
        {
          "internalType": "contract INaughtyFactory",
          "name": "",
          "type": "address"
        }
      ],
      "stateMutability": "view",
      "type": "function"
    },
    {
      "inputs": [
        {
          "internalType": "string",
          "name": "_policyTokenName",
          "type": "string"
        }
      ],
      "name": "findAddressbyName",
      "outputs": [
        {
          "internalType": "address",
          "name": "policyTokenAddress",
          "type": "address"
        }
      ],
      "stateMutability": "view",
      "type": "function"
    },
    {
      "inputs": [
        {
          "internalType": "address",
          "name": "_policyTokenAddress",
          "type": "address"
        }
      ],
      "name": "findNamebyAddress",
      "outputs": [
        {
          "internalType": "string",
          "name": "policyTokenName",
          "type": "string"
        }
      ],
      "stateMutability": "view",
      "type": "function"
    },
    {
      "inputs": [],
      "name": "getAllTokens",
      "outputs": [
        {
          "components": [
            {
              "internalType": "address",
              "name": "policyTokenAddress",
              "type": "address"
            },
            {
              "internalType": "bool",
              "name": "isCall",
              "type": "bool"
            },
            {
              "internalType": "uint256",
              "name": "nameDecimals",
              "type": "uint256"
            },
            {
              "internalType": "uint256",
              "name": "tokenDecimals",
              "type": "uint256"
            },
            {
              "internalType": "uint256",
              "name": "strikePrice",
              "type": "uint256"
            },
            {
              "internalType": "uint256",
              "name": "deadline",
              "type": "uint256"
            },
            {
              "internalType": "uint256",
              "name": "settleTimestamp",
              "type": "uint256"
            }
          ],
          "internalType": "struct PolicyCore.PolicyTokenInfo[]",
          "name": "",
          "type": "tuple[]"
        }
      ],
      "stateMutability": "view",
      "type": "function"
    },
    {
      "inputs": [
        {
          "internalType": "string",
          "name": "_policyTokenName",
          "type": "string"
        }
      ],
      "name": "getPolicyTokenInfo",
      "outputs": [
        {
          "components": [
            {
              "internalType": "address",
              "name": "policyTokenAddress",
              "type": "address"
            },
            {
              "internalType": "bool",
              "name": "isCall",
              "type": "bool"
            },
            {
              "internalType": "uint256",
              "name": "nameDecimals",
              "type": "uint256"
            },
            {
              "internalType": "uint256",
              "name": "tokenDecimals",
              "type": "uint256"
            },
            {
              "internalType": "uint256",
              "name": "strikePrice",
              "type": "uint256"
            },
            {
              "internalType": "uint256",
              "name": "deadline",
              "type": "uint256"
            },
            {
              "internalType": "uint256",
              "name": "settleTimestamp",
              "type": "uint256"
            }
          ],
          "internalType": "struct PolicyCore.PolicyTokenInfo",
          "name": "",
          "type": "tuple"
        }
      ],
      "stateMutability": "view",
      "type": "function"
    },
    {
      "inputs": [
        {
          "internalType": "address",
          "name": "_user",
          "type": "address"
        },
        {
          "internalType": "address",
          "name": "_policyTokenAddress",
          "type": "address"
        }
      ],
      "name": "getUserQuota",
      "outputs": [
        {
          "internalType": "uint256",
          "name": "_quota",
          "type": "uint256"
        }
      ],
      "stateMutability": "view",
      "type": "function"
    },
    {
      "inputs": [],
      "name": "incomeSharing",
      "outputs": [
        {
          "internalType": "address",
          "name": "",
          "type": "address"
        }
      ],
      "stateMutability": "view",
      "type": "function"
    },
    {
      "inputs": [
        {
          "internalType": "address",
          "name": "_usdc",
          "type": "address"
        },
        {
          "internalType": "address",
          "name": "_factory",
          "type": "address"
        },
        {
          "internalType": "address",
          "name": "_priceGetter",
          "type": "address"
        }
      ],
      "name": "initialize",
      "outputs": [],
      "stateMutability": "nonpayable",
      "type": "function"
    },
    {
      "inputs": [],
      "name": "lottery",
      "outputs": [
        {
          "internalType": "address",
          "name": "",
          "type": "address"
        }
      ],
      "stateMutability": "view",
      "type": "function"
    },
    {
      "inputs": [],
      "name": "naughtyRouter",
      "outputs": [
        {
          "internalType": "address",
          "name": "",
          "type": "address"
        }
      ],
      "stateMutability": "view",
      "type": "function"
    },
    {
      "inputs": [],
      "name": "owner",
      "outputs": [
        {
          "internalType": "address",
          "name": "",
          "type": "address"
        }
      ],
      "stateMutability": "view",
      "type": "function"
    },
    {
      "inputs": [
        {
          "internalType": "address",
          "name": "",
          "type": "address"
        }
      ],
      "name": "pendingIncomeToLottery",
      "outputs": [
        {
          "internalType": "uint256",
          "name": "",
          "type": "uint256"
        }
      ],
      "stateMutability": "view",
      "type": "function"
    },
    {
      "inputs": [
        {
          "internalType": "address",
          "name": "",
          "type": "address"
        }
      ],
      "name": "pendingIncomeToSharing",
      "outputs": [
        {
          "internalType": "uint256",
          "name": "",
          "type": "uint256"
        }
      ],
      "stateMutability": "view",
      "type": "function"
    },
    {
      "inputs": [
        {
          "internalType": "address",
          "name": "",
          "type": "address"
        }
      ],
      "name": "policyTokenAddressToName",
      "outputs": [
        {
          "internalType": "string",
          "name": "",
          "type": "string"
        }
      ],
      "stateMutability": "view",
      "type": "function"
    },
    {
      "inputs": [
        {
          "internalType": "string",
          "name": "",
          "type": "string"
        }
      ],
      "name": "policyTokenInfoMapping",
      "outputs": [
        {
          "internalType": "address",
          "name": "policyTokenAddress",
          "type": "address"
        },
        {
          "internalType": "bool",
          "name": "isCall",
          "type": "bool"
        },
        {
          "internalType": "uint256",
          "name": "nameDecimals",
          "type": "uint256"
        },
        {
          "internalType": "uint256",
          "name": "tokenDecimals",
          "type": "uint256"
        },
        {
          "internalType": "uint256",
          "name": "strikePrice",
          "type": "uint256"
        },
        {
          "internalType": "uint256",
          "name": "deadline",
          "type": "uint256"
        },
        {
          "internalType": "uint256",
          "name": "settleTimestamp",
          "type": "uint256"
        }
      ],
      "stateMutability": "view",
      "type": "function"
    },
    {
      "inputs": [],
      "name": "priceGetter",
      "outputs": [
        {
          "internalType": "contract IPriceGetter",
          "name": "",
          "type": "address"
        }
      ],
      "stateMutability": "view",
      "type": "function"
    },
    {
      "inputs": [
        {
          "internalType": "string",
          "name": "_policyTokenName",
          "type": "string"
        },
        {
          "internalType": "address",
          "name": "_stablecoin",
          "type": "address"
        },
        {
          "internalType": "uint256",
          "name": "_amount",
          "type": "uint256"
        }
      ],
      "name": "redeem",
      "outputs": [],
      "stateMutability": "nonpayable",
      "type": "function"
    },
    {
      "inputs": [
        {
          "internalType": "string",
          "name": "_policyTokenName",
          "type": "string"
        },
        {
          "internalType": "address",
          "name": "_stablecoin",
          "type": "address"
        }
      ],
      "name": "redeemAfterSettlement",
      "outputs": [],
      "stateMutability": "nonpayable",
      "type": "function"
    },
    {
      "inputs": [],
      "name": "renounceOwnership",
      "outputs": [],
      "stateMutability": "nonpayable",
      "type": "function"
    },
    {
      "inputs": [
        {
          "internalType": "address",
          "name": "_ILM",
          "type": "address"
        }
      ],
      "name": "setILMContract",
      "outputs": [],
      "stateMutability": "nonpayable",
      "type": "function"
    },
    {
      "inputs": [
        {
          "internalType": "address",
          "name": "_incomeSharing",
          "type": "address"
        }
      ],
      "name": "setIncomeSharing",
      "outputs": [],
      "stateMutability": "nonpayable",
      "type": "function"
    },
    {
      "inputs": [
        {
          "internalType": "uint256",
          "name": "_toLottery",
          "type": "uint256"
        }
      ],
      "name": "setIncomeToLottery",
      "outputs": [],
      "stateMutability": "nonpayable",
      "type": "function"
    },
    {
      "inputs": [
        {
          "internalType": "address",
          "name": "_lotteryAddress",
          "type": "address"
        }
      ],
      "name": "setLottery",
      "outputs": [],
      "stateMutability": "nonpayable",
      "type": "function"
    },
    {
      "inputs": [
        {
          "internalType": "address",
          "name": "_router",
          "type": "address"
        }
      ],
      "name": "setNaughtyRouter",
      "outputs": [],
      "stateMutability": "nonpayable",
      "type": "function"
    },
    {
      "inputs": [
        {
          "internalType": "string",
          "name": "_policyTokenName",
          "type": "string"
        },
        {
          "internalType": "address",
          "name": "_stablecoin",
          "type": "address"
        },
        {
          "internalType": "uint256",
          "name": "_startIndex",
          "type": "uint256"
        },
        {
          "internalType": "uint256",
          "name": "_stopIndex",
          "type": "uint256"
        }
      ],
      "name": "settleAllPolicyTokens",
      "outputs": [],
      "stateMutability": "nonpayable",
      "type": "function"
    },
    {
      "inputs": [
        {
          "internalType": "string",
          "name": "_policyTokenName",
          "type": "string"
        }
      ],
      "name": "settleFinalResult",
      "outputs": [],
      "stateMutability": "nonpayable",
      "type": "function"
    },
    {
      "inputs": [
        {
          "internalType": "address",
          "name": "",
          "type": "address"
        }
      ],
      "name": "settleResult",
      "outputs": [
        {
          "internalType": "uint256",
          "name": "price",
          "type": "uint256"
        },
        {
          "internalType": "bool",
          "name": "isHappened",
          "type": "bool"
        },
        {
          "internalType": "bool",
          "name": "alreadySettled",
          "type": "bool"
        },
        {
          "internalType": "uint256",
          "name": "currentDistributionIndex",
          "type": "uint256"
        }
      ],
      "stateMutability": "view",
      "type": "function"
    },
    {
      "inputs": [
        {
          "internalType": "address",
          "name": "",
          "type": "address"
        }
      ],
      "name": "supportedStablecoin",
      "outputs": [
        {
          "internalType": "bool",
          "name": "",
          "type": "bool"
        }
      ],
      "stateMutability": "view",
      "type": "function"
    },
    {
      "inputs": [],
      "name": "toLotteryPart",
      "outputs": [
        {
          "internalType": "uint256",
          "name": "",
          "type": "uint256"
        }
      ],
      "stateMutability": "view",
      "type": "function"
    },
    {
      "inputs": [
        {
          "internalType": "address",
          "name": "newOwner",
          "type": "address"
        }
      ],
      "name": "transferOwnership",
      "outputs": [],
      "stateMutability": "nonpayable",
      "type": "function"
    },
    {
      "inputs": [
        {
          "internalType": "address",
          "name": "",
          "type": "address"
        }
      ],
      "name": "whichStablecoin",
      "outputs": [
        {
          "internalType": "address",
          "name": "",
          "type": "address"
        }
      ],
      "stateMutability": "view",
      "type": "function"
    }
  ],
  "transactionHash": "0x71d1b08019c3e579816070c351642283e145bb3611d79d2f9bf96186a86acb2a",
  "args": [],
  "numDeployments": 1,
  "solcInputHash": "a73c9f29d1207f8d5ceee9f6e1d5d798",
  "bytecode": "0x608060405234801561001057600080fd5b50614893806100206000396000f3fe608060405234801561001057600080fd5b50600436106102de5760003560e01c80638da5cb5b11610186578063c49df4bf116100e3578063e625123711610097578063f15cac3411610071578063f15cac3414610709578063f298083b1461071c578063f2fde38b1461072f57600080fd5b8063e6251237146106d0578063eb9132dd146106e3578063f10cffbd146106f657600080fd5b8063d700e89f116100c8578063d700e89f1461066e578063d9e85c8414610677578063da1428071461069757600080fd5b8063c49df4bf14610648578063ceed1b901461065b57600080fd5b8063bb9febaf1161013a578063be3f34a11161011f578063be3f34a114610602578063c0c53b8b14610615578063c45a01551461062857600080fd5b8063bb9febaf146105dc578063bdc2b166146105ef57600080fd5b8063a815a2211161016b578063a815a22114610596578063a8e577e3146105a9578063ba13a572146105c957600080fd5b80638da5cb5b1461057257806394567d4e1461058357600080fd5b80632a5c792a1161023f5780635cb3b14f116101f35780636978531a116101cd5780636978531a14610544578063715018a6146105575780637336c38d1461055f57600080fd5b80635cb3b14f146104d85780635e49b5de146105085780635eb1877e1461051b57600080fd5b806339f677381161022457806339f67738146104415780634c330fbc146104b25780634e75ce89146104c557600080fd5b80632a5c792a1461041957806338081de21461042e57600080fd5b80631306c0a5116102965780631ee08fa11161027b5780631ee08fa1146103a7578063210123e5146103f35780632a48ac9a1461040657600080fd5b80631306c0a51461037457806318dd152f1461039457600080fd5b806307962845116102c7578063079628451461030b57806308d89d5f146103415780630dc726471461035457600080fd5b806303844097146102e35780630418945a146102f8575b600080fd5b6102f66102f1366004612e9d565b610742565b005b6102f6610306366004612f08565b610a71565b61032b610319366004612f08565b60756020526000908152604090205481565b6040516103389190612f31565b60405180910390f35b6102f661034f366004612f50565b610af9565b610367610362366004612fba565b610ccf565b6040516103389190613039565b61038761038236600461304a565b610d7b565b6040516103389190613090565b6103676103a2366004612f08565b610db3565b6103e36103b5366004612f08565b607460205260009081526040902080546001820154600290920154909160ff80821692610100909204169084565b60405161033894939291906130a6565b6102f6610401366004612f08565b610dcc565b6102f6610414366004612f50565b610e5f565b610421610f28565b60405161033891906131b7565b61036761043c366004612f08565b6110a5565b61049f61044f366004612e9d565b8051602081830181018051606c825292820191909301209152805460018201546002830154600384015460048501546005909501546001600160a01b03851695600160a01b90950460ff16949087565b60405161033897969594939291906131c8565b6102f66104c0366004612f08565b611172565b6103876104d3366004612e9d565b611205565b6104fb6104e6366004612f08565b606f6020526000908152604090205460ff1681565b6040516103389190613230565b6102f6610516366004613251565b61124f565b610387610529366004612f08565b6070602052600090815260409020546001600160a01b031681565b606a54610387906001600160a01b031681565b6102f66115be565b6102f661056d366004612f50565b6115f4565b6033546001600160a01b0316610387565b606854610387906001600160a01b031681565b6102f66105a4366004612f08565b6117ca565b61032b6105b7366004612f08565b60766020526000908152604090205481565b606754610387906001600160a01b031681565b6103876105ea36600461334d565b61185d565b6102f66105fd366004612fba565b6119f0565b6102f6610610366004612f08565b611a7b565b6102f66106233660046133cb565b611b43565b60655461063b906001600160a01b031681565b6040516103389190613453565b6102f6610656366004613461565b611c11565b60665461063b906001600160a01b031681565b61032b606b5481565b61068a610685366004612e9d565b611e13565b60405161033891906134ae565b61032b6106a53660046134bc565b6001600160a01b03918216600090815260726020908152604080832093909416825291909152205490565b606954610387906001600160a01b031681565b6102f66106f136600461334d565b611ee1565b6103676107043660046134de565b61214a565b6102f661071736600461358b565b6122b2565b6102f661072a366004612f08565b6123e5565b6102f661073d366004612f08565b612478565b806000606c82604051610755919061361f565b9081526020016040518091039020600501549050804210156107925760405162461bcd60e51b815260040161078990613683565b60405180910390fd5b82600061079e82611205565b6001600160a01b038116600090815260746020526040902060010154909150610100900460ff16156107e25760405162461bcd60e51b8152600401610789906136eb565b60006107ed86611205565b6001600160a01b0381166000908152607460209081526040808320607190925282208054939450909261081f90613711565b80601f016020809104026020016040519081016040528092919081815260200182805461084b90613711565b80156108985780601f1061086d57610100808354040283529160200191610898565b820191906000526020600020905b81548152906001019060200180831161087b57829003601f168201915b50506066546040517ff66a1b710000000000000000000000000000000000000000000000000000000081529495506000946001600160a01b03909116935063f66a1b7192506108ec91508590600401613039565b6020604051808303816000875af115801561090b573d6000803e3d6000fd5b505050506040513d601f19601f8201168201806040525081019061092f9190613748565b60018401805461ff001916610100179055808455604051909150600090606c9061095a908c9061361f565b908152604080516020928190038301812060e08201835280546001600160a01b0381168352600160a01b900460ff1615159382019390935260018301549181019190915260028201546060820152600382015460808201819052600483015460a083015260059092015460c0820152915060009083108015906109de575081602001515b90506000826080015184111580156109f857508260200151155b905060008280610a055750815b610a10576000610a13565b60015b60018801805460ff19168215151790556040519091507f4f7bb4bf5b5d9e711ae7506fc1acd843eea9f216861a09c312fefb7e05095a3690610a5a908f9088908590613769565b60405180910390a150505050505050505050505050565b6033546001600160a01b03163314610a9b5760405162461bcd60e51b8152600401610789906137c6565b6001600160a01b0381166000908152606f602052604090819020805460ff19166001179055517f86b377b6d485043d4a8b2b0c26051f82529ea2d7c23b1188598416473c12309390610aee908390613090565b60405180910390a150565b826000606c82604051610b0c919061361f565b908152602001604051809103902060050154905080421015610b405760405162461bcd60e51b815260040161078990613683565b84846000610b4d83611205565b6001600160a01b03818116600090815260706020526040902054919250838116911614610b8c5760405162461bcd60e51b81526004016107899061382e565b6000610b9789611205565b6001600160a01b03811660009081526074602090815260409182902082516080810184528154808252600183015460ff80821615159584019590955261010090049093161515938101939093526002015460608301529192509015801590610c00575080604001515b610c1c5760405162461bcd60e51b815260040161078990613870565b8060200151610c3d5760405162461bcd60e51b8152600401610789906138d8565b6000610c498a8a6124d4565b9050610c5f6001600160a01b038b163383612592565b604051632770a7eb60e21b815283906001600160a01b03821690639dc29fac90610c8f9033908e906004016138e8565b600060405180830381600087803b158015610ca957600080fd5b505af1158015610cbd573d6000803e3d6000fd5b50505050505050505050505050505050565b606e8181548110610cdf57600080fd5b906000526020600020016000915090508054610cfa90613711565b80601f0160208091040260200160405190810160405280929190818152602001828054610d2690613711565b8015610d735780601f10610d4857610100808354040283529160200191610d73565b820191906000526020600020905b815481529060010190602001808311610d5657829003601f168201915b505050505081565b60736020528160005260406000208181548110610d9757600080fd5b6000918252602090912001546001600160a01b03169150829050565b606d6020526000908152604090208054610cfa90613711565b6033546001600160a01b03163314610df65760405162461bcd60e51b8152600401610789906137c6565b6068546040517ff4b601aa15ee1d2340ac8d1e8f1ddf16fe98866801b5c057bec51086aa6d750291610e35916001600160a01b03909116908490613903565b60405180910390a1606880546001600160a01b0319166001600160a01b0392909216919091179055565b826000606c82604051610e72919061361f565b908152602001604051809103902060040154905080421115610ea65760405162461bcd60e51b815260040161078990613976565b84846000610eb383611205565b6001600160a01b03818116600090815260706020526040902054919250838116911614610ef25760405162461bcd60e51b81526004016107899061382e565b60008611610f125760405162461bcd60e51b8152600401610789906139b8565b610f1e88888833612615565b5050505050505050565b606e5460609060008167ffffffffffffffff811115610f4957610f49612da7565b604051908082528060200260200182016040528015610fc557816020015b610fb26040518060e0016040528060006001600160a01b0316815260200160001515815260200160008152602001600081526020016000815260200160008152602001600081525090565b815260200190600190039081610f675790505b50905060005b8281101561109e57606c606e8281548110610fe857610fe86139c8565b90600052602060002001604051610fff9190613a4c565b90815260408051918290036020908101832060e08401835280546001600160a01b038116855260ff600160a01b909104161515918401919091526001810154918301919091526002810154606083015260038101546080830152600481015460a08301526005015460c08201528251839083908110611080576110806139c8565b6020026020010181905250808061109690613a6c565b915050610fcb565b5092915050565b6001600160a01b0381166000908152606d602052604090208054606091906110cc90613711565b80601f01602080910402602001604051908101604052809291908181526020018280546110f890613711565b80156111455780601f1061111a57610100808354040283529160200191611145565b820191906000526020600020905b81548152906001019060200180831161112857829003601f168201915b50505050509050600081511161116d5760405162461bcd60e51b815260040161078990613ab7565b919050565b6033546001600160a01b0316331461119c5760405162461bcd60e51b8152600401610789906137c6565b606a546040517f5a1397fff7d6f4aaebc9effcfc3a2fa8e89631d59ec574c1eaef6d709b5c9ab0916111db916001600160a01b03909116908490613903565b60405180910390a1606a80546001600160a01b0319166001600160a01b0392909216919091179055565b6000606c82604051611217919061361f565b908152604051908190036020019020546001600160a01b031690508061116d5760405162461bcd60e51b815260040161078990613af9565b6033546001600160a01b031633146112795760405162461bcd60e51b8152600401610789906137c6565b6012861115801561128b575060128511155b6112a75760405162461bcd60e51b815260040161078990613b3b565b84886001600160a01b031663313ce5676040518163ffffffff1660e01b8152600401602060405180830381865afa1580156112e6573d6000803e3d6000fd5b505050506040513d601f19601f8201168201806040525081019061130a9190613b5f565b60ff161461132a5760405162461bcd60e51b815260040161078990613bb2565b4282116113495760405162461bcd60e51b815260040161078990613bf4565b818110156113695760405162461bcd60e51b815260040161078990613c36565b60006113788a88878b8861214a565b6065546040517f87f0061a0000000000000000000000000000000000000000000000000000000081529192506000916001600160a01b03909116906387f0061a906113c99085908b90600401613c46565b6020604051808303816000875af11580156113e8573d6000803e3d6000fd5b505050506040513d601f19601f8201168201806040525081019061140c9190613c71565b90506040518060e00160405280826001600160a01b031681526020018a1515815260200189815260200188815260200187815260200185815260200184815250606c8360405161145c919061361f565b9081526040805191829003602090810190922083518154858501511515600160a01b027fffffffffffffffffffffff0000000000000000000000000000000000000000009091166001600160a01b0392831617178255848301516001830155606085015160028301556080850151600383015560a0850151600483015560c090940151600590910155918316600090815260718252919091208c51611503928e0190612d0e565b506001600160a01b0381166000908152606d60209081526040909120835161152d92850190612d0e565b50606e80546001810182556000919091528251611571917f9930d9ff0dee0ef5ca2f7710ea66b8f84dd0f5f5351ecffe72b952cd9db7142a01906020850190612d0e565b507f5c781be7034983eed256e8250b1df5111e452c6dd41a3e415bdeda1cac92348882828987876040516115a9959493929190613c92565b60405180910390a15050505050505050505050565b6033546001600160a01b031633146115e85760405162461bcd60e51b8152600401610789906137c6565b6115f260006127a1565b565b826000606c82604051611607919061361f565b90815260200160405180910390206004015490508042111561163b5760405162461bcd60e51b815260040161078990613976565b8484600061164883611205565b6001600160a01b038181166000908152607060205260409020549192508381169116146116875760405162461bcd60e51b81526004016107899061382e565b600061169289611205565b3360009081526072602090815260408083206001600160a01b03851684529091529020549091508711156116d85760405162461bcd60e51b815260040161078990613d15565b3360009081526072602090815260408083206001600160a01b03851684529091528120805489929061170b908490613d25565b909155506000905061171d89896124d4565b90506117336001600160a01b038a163383612592565b604051632770a7eb60e21b815282906001600160a01b03821690639dc29fac906117639033908d906004016138e8565b600060405180830381600087803b15801561177d57600080fd5b505af1158015611791573d6000803e3d6000fd5b505050507fae452465b27fa0406f99c961c3bbf8215e6dabe24c0da5dd5981206d9038500a338c8c8c6040516115a99493929190613d3c565b6033546001600160a01b031633146117f45760405162461bcd60e51b8152600401610789906137c6565b6069546040517f991cc531d0c7ce0a4a8db8a26f722bbbe727c8f45445520fa447050bb313457f91611833916001600160a01b03909116908490613903565b60405180910390a1606980546001600160a01b0319166001600160a01b0392909216919091179055565b6001600160a01b0383166000908152606f6020526040812054849060ff16151560011461189c5760405162461bcd60e51b815260040161078990613dc3565b8560006001600160a01b0316606c826040516118b8919061361f565b908152604051908190036020019020546001600160a01b0316036118ee5760405162461bcd60e51b815260040161078990613e2b565b6033546001600160a01b03163314806119115750606a546001600160a01b031633145b61192d5760405162461bcd60e51b815260040161078990613e6d565b42851161194c5760405162461bcd60e51b815260040161078990613bf4565b606c8760405161195c919061361f565b908152602001604051809103902060040154851461198c5760405162461bcd60e51b815260040161078990613ed5565b600061199788611205565b905060006119a7828989896127f3565b90507f04c12766244f2559dd215eecd69f70fdfce0e2c2260b5d52cb8b63738622eaa481838a6040516119dc93929190613ee5565b60405180910390a198975050505050505050565b6033546001600160a01b03163314611a1a5760405162461bcd60e51b8152600401610789906137c6565b600a811115611a3b5760405162461bcd60e51b815260040161078990613f3f565b7f5102efe34236afea4a39241911bce7d2001cd809276c20be9dceb33a59c13cc6606b5482604051611a6e929190613f4f565b60405180910390a1606b55565b6067546001600160a01b031615801590611a9f57506068546001600160a01b031615155b611abb5760405162461bcd60e51b815260040161078990613fb5565b6001600160a01b03811660009081526075602090815260408083205460769092529091205481151580611aee5750600081115b611b0a5760405162461bcd60e51b815260040161078990613ff7565b606754611b24906001600160a01b03858116911684612592565b606854611b3e906001600160a01b03858116911683612592565b505050565b600054610100900460ff16611b5e5760005460ff1615611b62565b303b155b611b7e5760405162461bcd60e51b81526004016107899061405f565b600054610100900460ff16158015611ba0576000805461ffff19166101011790555b611ba86128c4565b6001600160a01b038085166000908152606f60205260409020805460ff19166001179055606580548583166001600160a01b03199182161790915560668054928516929091169190911790556002606b558015611c0b576000805461ff00191690555b50505050565b816000606c82604051611c24919061361f565b908152602001604051809103902060050154905080421015611c585760405162461bcd60e51b815260040161078990613683565b83836000611c6583611205565b6001600160a01b03818116600090815260706020526040902054919250838116911614611ca45760405162461bcd60e51b81526004016107899061382e565b6000611caf88611205565b6001600160a01b03811660009081526074602090815260409182902082516080810184528154808252600183015460ff80821615159584019590955261010090049093161515938101939093526002015460608301529192509015801590611d18575080604001515b611d345760405162461bcd60e51b815260040161078990613870565b602081015115611d565760405162461bcd60e51b8152600401610789906140c7565b3360009081526072602090815260408083206001600160a01b038616845290915290205480611d975760405162461bcd60e51b81526004016107899061412f565b6000611da38a836124d4565b9050611db96001600160a01b038b163383612592565b3360008181526072602090815260408083206001600160a01b038916845290915280822091909155517f03562b7020b16271daf63f8af4dfad66194d3a83359909327c31983326b1287f916115a9918e908e908690613d3c565b611e5e6040518060e0016040528060006001600160a01b0316815260200160001515815260200160008152602001600081526020016000815260200160008152602001600081525090565b606c82604051611e6e919061361f565b90815260408051918290036020908101832060e08401835280546001600160a01b038116855260ff600160a01b909104161515918401919091526001810154918301919091526002810154606083015260038101546080830152600481015460a08301526005015460c082015292915050565b6033546001600160a01b03163314611f0b5760405162461bcd60e51b8152600401610789906137c6565b6000611f1685611205565b6001600160a01b03811660009081526074602090815260409182902082516080810184528154808252600183015460ff80821615159584019590955261010090049093161515938101939093526002015460608301529192509015801590611f845750604081015115156001145b611fa05760405162461bcd60e51b815260040161078990613870565b602081015115611fc25760405162461bcd60e51b8152600401610789906140c7565b6001600160a01b0382166000908152607360205260408120546060830151811015611fff5760405162461bcd60e51b815260040161078990614171565b8515801561200b575084155b156120895761201d84886000846128f3565b6120279083614181565b6001600160a01b038516600090815260746020526040808220600201849055519193507fb882f84541d4c34087dd3a3971b96ad170bc52a7907def174bb86f986bce6e2c9161207c918b918b919086906141ae565b60405180910390a1610f1e565b858360600151146120ac5760405162461bcd60e51b815260040161078990614233565b8085106120cb5760405162461bcd60e51b815260040161078990614275565b6120d7848888886128f3565b6120e19083614181565b6001600160a01b03851660009081526074602052604090819020600201879055519092507fb882f84541d4c34087dd3a3971b96ad170bc52a7907def174bb86f986bce6e2c90612138908a908a908a908a90614285565b60405180910390a15050505050505050565b606060008361218e576040518060400160405280600181526020017f4c000000000000000000000000000000000000000000000000000000000000008152506121c5565b6040518060400160405280600181526020017f48000000000000000000000000000000000000000000000000000000000000008152505b905060006121db670de0b6b3a7640000876142c8565b9050600081116121fd5760405162461bcd60e51b81526004016107899061430e565b600061220a886012613d25565b61221590600a61442c565b61222990670de0b6b3a764000089066142c8565b9050600288106122675761223e600189613d25565b61224990600a61442c565b81116122675760405162461bcd60e51b81526004016107899061446d565b600089612273846129ee565b61227c846129ee565b86896040516020016122929594939291906144cf565b60408051601f198184030181529190529450505050505b95945050505050565b836000606c826040516122c5919061361f565b9081526020016040518091039020600401549050804211156122f95760405162461bcd60e51b815260040161078990613976565b8585600061230683611205565b6001600160a01b038181166000908152607060205260409020549192508381169116146123455760405162461bcd60e51b81526004016107899061382e565b6069546001600160a01b0316331461236f5760405162461bcd60e51b81526004016107899061458d565b6000871161238f5760405162461bcd60e51b8152600401610789906139b8565b61239b89898989612615565b7f99f877ebe25ff1544a89db7db58d9d0b180af2288344cf1792272a4a07fd7c9933878b8b8b6040516123d295949392919061459d565b60405180910390a1505050505050505050565b6033546001600160a01b0316331461240f5760405162461bcd60e51b8152600401610789906137c6565b6067546040517f5bbcd5c9a4c18f44ac2b1174e1034735fda1eb2008b8cc091ef347c7f6b9690a9161244e916001600160a01b03909116908490613903565b60405180910390a1606780546001600160a01b0319166001600160a01b0392909216919091179055565b6033546001600160a01b031633146124a25760405162461bcd60e51b8152600401610789906137c6565b6001600160a01b0381166124c85760405162461bcd60e51b815260040161078990614631565b6124d1816127a1565b50565b6000806103e86124e6846103de614641565b6124f091906142c8565b905060006124fe8285613d25565b90506000600a606b54836125129190614641565b61251c91906142c8565b6001600160a01b038716600090815260756020526040812080549293508392909190612549908490614181565b9091555061255990508183613d25565b6001600160a01b03871660009081526076602052604081208054909190612581908490614181565b909155509293505050505b92915050565b611b3e8363a9059cbb60e01b84846040516024016125b19291906138e8565b60408051601f198184030181529190526020810180517bffffffffffffffffffffffffffffffffffffffffffffffffffffffff167fffffffff0000000000000000000000000000000000000000000000000000000090931692909217909152612b23565b600061262085611205565b6001600160a01b0380841660009081526072602090815260408083209385168352929052908120549192500361268f576001600160a01b0381811660009081526073602090815260408220805460018101825590835291200180546001600160a01b0319169184169190911790555b6001600160a01b038083166000908152607260209081526040808320938516835292905290812080548592906126c6908490614181565b909155506126e190506001600160a01b038516833086612bb2565b6040517f40c10f1900000000000000000000000000000000000000000000000000000000815281906001600160a01b038216906340c10f199061272a90869088906004016138e8565b600060405180830381600087803b15801561274457600080fd5b505af1158015612758573d6000803e3d6000fd5b505050507faad69ef0c77f7c04ba3390022ae56a77ba8686b6cd9530eff3a0a8c38d33e5ad838787876040516127919493929190613d3c565b60405180910390a1505050505050565b603380546001600160a01b038381166001600160a01b0319831681179093556040519116919082907f8be0079c531659141344cd1fd0a4f28419497f9722a3daafe3b4186f6b6457e090600090a35050565b6065546040517f3a5f69f800000000000000000000000000000000000000000000000000000000815260009182916001600160a01b0390911690633a5f69f890612847908990899089908990600401614660565b6020604051808303816000875af1158015612866573d6000803e3d6000fd5b505050506040513d601f19601f8201168201806040525081019061288a9190613c71565b6001600160a01b03878116600090815260706020526040902080546001600160a01b0319169188169190911790559150505b949350505050565b600054610100900460ff166128eb5760405162461bcd60e51b8152600401610789906146d3565b6115f2612bd3565b6000825b828110156129e5576001600160a01b0386166000908152607360205260408120805483908110612929576129296139c8565b60009182526020808320909101546001600160a01b03908116808452607283526040808520928c168552919092528220549092509061296888836124d4565b905080156129c7576129846001600160a01b0389168483612592565b6001600160a01b038084166000908152607260209081526040808320938d168352929052908120556129b68183613d25565b6129c09086614181565b94506129cf565b5050506129d3565b5050505b806129dd81613a6c565b9150506128f7565b50949350505050565b606081600003612a3157505060408051808201909152600181527f3000000000000000000000000000000000000000000000000000000000000000602082015290565b8160005b8115612a5b5780612a4581613a6c565b9150612a549050600a836142c8565b9150612a35565b60008167ffffffffffffffff811115612a7657612a76612da7565b6040519080825280601f01601f191660200182016040528015612aa0576020820181803683370190505b5090505b84156128bc57612ab5600183613d25565b9150612ac2600a866146e3565b612acd906030614181565b60f81b818381518110612ae257612ae26139c8565b60200101907effffffffffffffffffffffffffffffffffffffffffffffffffffffffffffff1916908160001a905350612b1c600a866142c8565b9450612aa4565b6000612b78826040518060400160405280602081526020017f5361666545524332303a206c6f772d6c6576656c2063616c6c206661696c6564815250856001600160a01b0316612c039092919063ffffffff16565b805190915015611b3e5780806020019051810190612b969190614702565b611b3e5760405162461bcd60e51b81526004016107899061477b565b611c0b846323b872dd60e01b8585856040516024016125b19392919061478b565b600054610100900460ff16612bfa5760405162461bcd60e51b8152600401610789906146d3565b6115f2336127a1565b6060612c128484600085612c1c565b90505b9392505050565b606082471015612c3e5760405162461bcd60e51b81526004016107899061480b565b843b612c5c5760405162461bcd60e51b81526004016107899061484d565b600080866001600160a01b03168587604051612c78919061361f565b60006040518083038185875af1925050503d8060008114612cb5576040519150601f19603f3d011682016040523d82523d6000602084013e612cba565b606091505b5091509150612cca828286612cd5565b979650505050505050565b60608315612ce4575081612c15565b825115612cf45782518084602001fd5b8160405162461bcd60e51b81526004016107899190613039565b828054612d1a90613711565b90600052602060002090601f016020900481019282612d3c5760008555612d82565b82601f10612d5557805160ff1916838001178555612d82565b82800160010185558215612d82579182015b82811115612d82578251825591602001919060010190612d67565b50612d8e929150612d92565b5090565b5b80821115612d8e5760008155600101612d93565b634e487b7160e01b600052604160045260246000fd5b601f19601f830116810181811067ffffffffffffffff82111715612de357612de3612da7565b6040525050565b6000612df560405190565b905061116d8282612dbd565b600067ffffffffffffffff821115612e1b57612e1b612da7565b601f19601f83011660200192915050565b82818337506000910152565b6000612e4b612e4684612e01565b612dea565b905082815260208101848484011115612e6657612e66600080fd5b612e71848285612e2c565b509392505050565b600082601f830112612e8d57612e8d600080fd5b81356128bc848260208601612e38565b600060208284031215612eb257612eb2600080fd5b813567ffffffffffffffff811115612ecc57612ecc600080fd5b6128bc84828501612e79565b60006001600160a01b03821661258c565b612ef281612ed8565b81146124d157600080fd5b803561258c81612ee9565b600060208284031215612f1d57612f1d600080fd5b60006128bc8484612efd565b805b82525050565b6020810161258c8284612f29565b80612ef2565b803561258c81612f3f565b600080600060608486031215612f6857612f68600080fd5b833567ffffffffffffffff811115612f8257612f82600080fd5b612f8e86828701612e79565b9350506020612f9f86828701612efd565b9250506040612fb086828701612f45565b9150509250925092565b600060208284031215612fcf57612fcf600080fd5b60006128bc8484612f45565b60005b83811015612ff6578181015183820152602001612fde565b83811115611c0b5750506000910152565b6000613011825190565b808452602084019350613028818560208601612fdb565b601f01601f19169290920192915050565b60208082528101612c158184613007565b6000806040838503121561306057613060600080fd5b600061306c8585612efd565b925050602061307d85828601612f45565b9150509250929050565b612f2b81612ed8565b6020810161258c8284613087565b801515612f2b565b608081016130b48287612f29565b6130c1602083018661309e565b6130ce604083018561309e565b6122a96060830184612f29565b80516130e78382613087565b5060208101516130fa602084018261309e565b50604081015161310d6040840182612f29565b5060608101516131206060840182612f29565b5060808101516131336080840182612f29565b5060a081015161314660a0840182612f29565b5060c0810151611b3e60c0840182612f29565b61316382826130db565b5060e00190565b60200190565b600061317a825190565b808452602093840193830160005b828110156131ad57815161319c8782613159565b965050602082019150600101613188565b5093949350505050565b60208082528101612c158184613170565b60e081016131d6828a613087565b6131e3602083018961309e565b6131f06040830188612f29565b6131fd6060830187612f29565b61320a6080830186612f29565b61321760a0830185612f29565b61322460c0830184612f29565b98975050505050505050565b6020810161258c828461309e565b801515612ef2565b803561258c8161323e565b60008060008060008060008060006101208a8c03121561327357613273600080fd5b893567ffffffffffffffff81111561328d5761328d600080fd5b6132998c828d01612e79565b99505060206132aa8c828d01612efd565b98505060406132bb8c828d01613246565b97505060606132cc8c828d01612f45565b96505060806132dd8c828d01612f45565b95505060a06132ee8c828d01612f45565b94505060c08a013567ffffffffffffffff81111561330e5761330e600080fd5b61331a8c828d01612e79565b93505060e061332b8c828d01612f45565b92505061010061333d8c828d01612f45565b9150509295985092959850929598565b6000806000806080858703121561336657613366600080fd5b843567ffffffffffffffff81111561338057613380600080fd5b61338c87828801612e79565b945050602061339d87828801612efd565b93505060406133ae87828801612f45565b92505060606133bf87828801612f45565b91505092959194509250565b6000806000606084860312156133e3576133e3600080fd5b60006133ef8686612efd565b935050602061340086828701612efd565b9250506040612fb086828701612efd565b600061258c6001600160a01b038316613428565b90565b6001600160a01b031690565b600061258c82613411565b600061258c82613434565b612f2b8161343f565b6020810161258c828461344a565b6000806040838503121561347757613477600080fd5b823567ffffffffffffffff81111561349157613491600080fd5b61349d85828601612e79565b925050602061307d85828601612efd565b60e0810161258c82846130db565b600080604083850312156134d2576134d2600080fd5b600061349d8585612efd565b600080600080600060a086880312156134f9576134f9600080fd5b853567ffffffffffffffff81111561351357613513600080fd5b61351f88828901612e79565b955050602061353088828901612f45565b945050604061354188828901612f45565b935050606061355288828901613246565b925050608086013567ffffffffffffffff81111561357257613572600080fd5b61357e88828901612e79565b9150509295509295909350565b600080600080608085870312156135a4576135a4600080fd5b843567ffffffffffffffff8111156135be576135be600080fd5b6135ca87828801612e79565b94505060206135db87828801612efd565b93505060406135ec87828801612f45565b92505060606133bf87828801612efd565b6000613607825190565b613615818560208601612fdb565b9290920192915050565b61258c81836135fd565b60368152602081017f43616e206e6f7420736574746c652f636c61696d2c2068617665206e6f74207281527f65616368656420736574746c6554696d657374616d7000000000000000000000602082015290505b60400190565b6020808252810161258c81613629565b60248152602081017f5468697320706f6c6963792068617320616c7265616479206265656e2073657481527f746c6564000000000000000000000000000000000000000000000000000000006020820152905061367d565b6020808252810161258c81613693565b634e487b7160e01b600052602260045260246000fd5b60028104600182168061372557607f821691505b602082108103613737576137376136fb565b50919050565b805161258c81612f3f565b60006020828403121561375d5761375d600080fd5b60006128bc848461373d565b6060808252810161377a8186613007565b90506137896020830185612f29565b6128bc604083018461309e565b60208082527f4f776e61626c653a2063616c6c6572206973206e6f7420746865206f776e6572910190815261316a565b6020808252810161258c81613796565b60238152602081017f496e76616c696420706f6c696379746f6b656e207769746820737461626c656381527f6f696e00000000000000000000000000000000000000000000000000000000006020820152905061367d565b6020808252810161258c816137d6565b601e8152602081017f48617665206e6f7420676f7420746865206f7261636c6520726573756c7400008152905061316a565b6020808252810161258c8161383e565b602d8152602081017f54686520726573756c7420646f6573206e6f742068617070656e2c20796f752081527f63616e206e6f7420636c61696d000000000000000000000000000000000000006020820152905061367d565b6020808252810161258c81613880565b604081016138f68285613087565b612c156020830184612f29565b604081016139118285613087565b612c156020830184613087565b602f8152602081017f43616e206e6f74206465706f7369742f72656465656d2c20686173207061737381527f65642074686520646561646c696e6500000000000000000000000000000000006020820152905061367d565b6020808252810161258c8161391e565b600b8152602081017f5a65726f20416d6f756e740000000000000000000000000000000000000000008152905061316a565b6020808252810161258c81613986565b634e487b7160e01b600052603260045260246000fd5b600081546139eb81613711565b600182168015613a025760018114613a1357613a43565b60ff19831686528186019350613a43565b60008581526020902060005b83811015613a3b57815488820152600190910190602001613a1f565b505081860193505b50505092915050565b61258c81836139de565b634e487b7160e01b600052601160045260246000fd5b600060018201613a7e57613a7e613a56565b5060010190565b60158152602081017f506f6c696379206e616d65206e6f7420666f756e6400000000000000000000008152905061316a565b6020808252810161258c81613a85565b60168152602081017f506f6c69637920746f6b656e206e6f7420666f756e64000000000000000000008152905061316a565b6020808252810161258c81613ac7565b60118152602081017f546f6f206d616e7920646563696d616c730000000000000000000000000000008152905061316a565b6020808252810161258c81613b09565b60ff8116612ef2565b805161258c81613b4b565b600060208284031215613b7457613b74600080fd5b60006128bc8484613b54565b60138152602081017f446563696d616c73206e6f7420706169726564000000000000000000000000008152905061316a565b6020808252810161258c81613b80565b600e8152602081017f57726f6e6720646561646c696e650000000000000000000000000000000000008152905061316a565b6020808252810161258c81613bc2565b60158152602081017f57726f6e6720736574746c6554696d657374616d7000000000000000000000008152905061316a565b6020808252810161258c81613c04565b60408082528101613c578185613007565b9050612c156020830184612f29565b805161258c81612ee9565b600060208284031215613c8657613c86600080fd5b60006128bc8484613c66565b60a08082528101613ca38188613007565b9050613cb26020830187613087565b613cbf6040830186612f29565b613ccc6060830185612f29565b613cd96080830184612f29565b9695505050505050565b601b8152602081017f5573657227732071756f7461206e6f742073756666696369656e7400000000008152905061316a565b6020808252810161258c81613ce3565b600082821015613d3757613d37613a56565b500390565b60808101613d4a8287613087565b8181036020830152613d5c8186613007565b90506130ce6040830185613087565b60288152602081017f446f206e6f7420737570706f7274207468697320737461626c65636f696e206381527f757272656e746c790000000000000000000000000000000000000000000000006020820152905061367d565b6020808252810161258c81613d6b565b603f8152602081017f5468697320706f6c69637920746f6b656e20686173206e6f74206265656e206481527f65706c6f7965642c20706c65617365206465706c6f79206974206669727374006020820152905061367d565b6020808252810161258c81613dd3565b60118152602081017f4f6e6c79206f776e6572206f7220494c4d0000000000000000000000000000008152905061316a565b6020808252810161258c81613e3b565b602b8152602081017f506f6c69637920746f6b656e20616e6420706f6f6c20646561646c696e65206e81527f6f74207468652073616d650000000000000000000000000000000000000000006020820152905061367d565b6020808252810161258c81613e7d565b60608101613ef38286613087565b613f006020830185613087565b6128bc6040830184613087565b60068152602081017f4d617820313000000000000000000000000000000000000000000000000000008152905061316a565b6020808252810161258c81613f0d565b604081016138f68285612f29565b602e8152602081017f506c656173652073657420746865206c6f7474657279202620696e636f6d655381527f686172696e6720616464726573730000000000000000000000000000000000006020820152905061367d565b6020808252810161258c81613f5d565b60118152602081017f4e6f2070656e64696e6720696e636f6d650000000000000000000000000000008152905061316a565b6020808252810161258c81613fc5565b602e8152602081017f496e697469616c697a61626c653a20636f6e747261637420697320616c72656181527f647920696e697469616c697a65640000000000000000000000000000000000006020820152905061367d565b6020808252810161258c81614007565b60368152602081017f4f6e6c792063616c6c20746869732066756e6374696f6e207768656e2074686581527f206576656e7420646f6573206e6f742068617070656e000000000000000000006020820152905061367d565b6020808252810161258c8161406f565b603b8152602081017f4e6f2071756f74612c20796f7520646964206e6f74206465706f73697420616e81527f64206d696e7420706f6c69637920746f6b656e73206265666f726500000000006020820152905061367d565b6020808252810161258c816140d7565b60148152602081017f4861766520646973747269627574656420616c6c0000000000000000000000008152905061316a565b6020808252810161258c8161413f565b6000821982111561419457614194613a56565b500190565b600061258c6134258381565b612f2b81614199565b608080825281016141bf8187613007565b90506141ce6020830186613087565b6130ce60408301856141a5565b60328152602081017f596f75206e65656420746f2073746172742066726f6d20746865206c6173742081527f646973747269627574696f6e20706f696e7400000000000000000000000000006020820152905061367d565b6020808252810161258c816141db565b60128152602081017f496e76616c69642073746f7020696e64657800000000000000000000000000008152905061316a565b6020808252810161258c81614243565b608080825281016142968187613007565b90506142a56020830186613087565b6130ce6040830185612f29565b634e487b7160e01b600052601260045260246000fd5b6000826142d7576142d76142b2565b500490565b60108152602081017f496e76616c696420696e742070617274000000000000000000000000000000008152905061316a565b6020808252810161258c816142dc565b80825b600185111561435d5780860481111561433c5761433c613a56565b600185161561434a57908102905b80026143568560011c90565b9450614321565b94509492505050565b60008261437557506001612c15565b8161438257506000612c15565b816001811461439857600281146143a2576143cf565b6001915050612c15565b60ff8411156143b3576143b3613a56565b8360020a9150848211156143c9576143c9613a56565b50612c15565b5060208310610133831016604e8410600b8410161715614402575081810a838111156143fd576143fd613a56565b612c15565b61440f848484600161431e565b9250905081840481111561442557614425613a56565b0292915050565b6000612c156000198484614366565b60148152602081017f496e76616c696420646563696d616c20706172740000000000000000000000008152905061316a565b6020808252810161258c8161443b565b7f5f0000000000000000000000000000000000000000000000000000000000000081525b60010190565b7f2e0000000000000000000000000000000000000000000000000000000000000081526144a1565b6144d981876135fd565b90506144e48161447d565b90506144f081866135fd565b90506144fb816144a7565b905061450781856135fd565b90506145128161447d565b905061451e81846135fd565b90506145298161447d565b9050613cd981836135fd565b60258152602081017f4f6e6c792074686520726f7574657220636f6e74726163742063616e2064656c81527f65676174650000000000000000000000000000000000000000000000000000006020820152905061367d565b6020808252810161258c81614535565b60a081016145ab8288613087565b6145b86020830187613087565b81810360408301526145ca8186613007565b9050613ccc6060830185613087565b60268152602081017f4f776e61626c653a206e6577206f776e657220697320746865207a65726f206181527f64647265737300000000000000000000000000000000000000000000000000006020820152905061367d565b6020808252810161258c816145d9565b600081600019048311821515161561465b5761465b613a56565b500290565b6080810161466e8287613087565b6142a56020830186613087565b602b8152602081017f496e697469616c697a61626c653a20636f6e7472616374206973206e6f74206981527f6e697469616c697a696e670000000000000000000000000000000000000000006020820152905061367d565b6020808252810161258c8161467b565b6000826146f2576146f26142b2565b500690565b805161258c8161323e565b60006020828403121561471757614717600080fd5b60006128bc84846146f7565b602a8152602081017f5361666545524332303a204552433230206f7065726174696f6e20646964206e81527f6f742073756363656564000000000000000000000000000000000000000000006020820152905061367d565b6020808252810161258c81614723565b606081016147998286613087565b6147a66020830185613087565b6128bc6040830184612f29565b60268152602081017f416464726573733a20696e73756666696369656e742062616c616e636520666f81527f722063616c6c00000000000000000000000000000000000000000000000000006020820152905061367d565b6020808252810161258c816147b3565b601d8152602081017f416464726573733a2063616c6c20746f206e6f6e2d636f6e74726163740000008152905061316a565b6020808252810161258c8161481b56fea26469706673582212206f4139ddebea88a16140f2341106251f7711983aac191ed40d084ebfc4f0f8e764736f6c634300080d0033",
  "devdoc": {
    "details": "Most of the functions to be called from outside will use the name of policyToken         rather than the address (easy to read).         Other variables or functions still use address to index.         The rule of policyToken naming is:              Original Token Name(with decimals) + Strike Price + Lower or Higher + Date         E.g.  AVAX_30.0_L_2101, BTC_30000.0_L_2102, ETH_8000.0_H_2109         (the original name need to be the same as in the chainlink oracle)         There are three decimals for a policy token:              1. Name decimals: Only for generating the name of policyToken              2. Token decimals: The decimals of the policyToken                 (should be the same as the paired stablecoin)              3. Price decimals: Always 18. The oracle result will be transferred for settlement",
    "kind": "dev",
    "methods": {
      "_generateName(string,uint256,uint256,bool,string)": {
        "params": {
          "_decimals": "Decimals of the name generation (0,1=>1, 2=>2)",
          "_isCall": "The policy's payoff is triggered when higher(true) or lower(false)",
          "_round": "Round of the policy, named by <month><day> (e.g. 0320, 1215)",
          "_strikePrice": "Strike price of the policy (18 decimals)",
          "_tokenName": "Name of the stike token (BTC, ETH, AVAX...)"
        }
      },
      "addStablecoin(address)": {
        "params": {
          "_newStablecoin": "Address of the new stablecoin"
        }
      },
      "claim(string,address,uint256)": {
        "details": "It is done after result settlement and only if the result is true",
        "params": {
          "_amount": "Amount of stablecoin",
          "_policyTokenName": "Name of the policy token",
          "_stablecoin": "Address of the stable coin"
        }
      },
      "collectIncome(address)": {
        "details": "Can be done by anyone, only when there is some income to be distributed",
        "params": {
          "_stablecoin": "Address of stablecoin"
        }
      },
      "delegateDeposit(string,address,uint256,address)": {
        "details": "Only called by the router contract",
        "params": {
          "_amount": "Amount of stablecoin",
          "_policyTokenName": "Name of the policy token",
          "_stablecoin": "Address of the sable coin",
          "_user": "Address to receive the policy tokens"
        }
      },
      "deployPolicyToken(string,address,bool,uint256,uint256,uint256,string,uint256,uint256)": {
        "details": "Only the owner can deploy new policy token      The name form is like \"AVAX_50_L_2203\" and is built inside the contract.",
        "params": {
          "_deadline": "Deadline of this policy token (deposit / redeem / swap)",
          "_isCall": "The policy is for higher or lower than the strike price (call / put)",
          "_nameDecimals": "Decimals of this token's name (0~18)",
          "_round": "Round of the token (e.g. 2203 -> expired at 22 March)",
          "_settleTimestamp": "Can settle after this timestamp (for oracle)",
          "_stablecoin": "Address of the stablecoin (Just for check decimals here)",
          "_strikePrice": "Strike price of the policy (have already been transferred with 1e18)",
          "_tokenDecimals": "Decimals of this token's value (0~18) (same as paired stablecoin)",
          "_tokenName": "Name of the original token (e.g. AVAX, BTC, ETH...)"
        }
      },
      "deployPool(string,address,uint256,uint256)": {
        "params": {
          "_feeRate": "Fee rate given to LP holders",
          "_policyTokenName": "Name of the policy token",
          "_poolDeadline": "Swapping deadline of the pool (normally the same as the token's deadline)",
          "_stablecoin": "Address of the stable coin"
        }
      },
      "deposit(string,address,uint256)": {
        "params": {
          "_amount": "Amount of stablecoin",
          "_policyTokenName": "Name of the policy token",
          "_stablecoin": "Address of the stable coin"
        }
      },
      "findAddressbyName(string)": {
        "params": {
          "_policyTokenName": "Name of the policy token (e.g. \"AVAX_30_L_2103\")"
        },
        "returns": {
          "policyTokenAddress": "Address of the policy token"
        }
      },
      "findNamebyAddress(address)": {
        "params": {
          "_policyTokenAddress": "Address of the policy token"
        },
        "returns": {
          "policyTokenName": "Name of the policy token"
        }
      },
      "getAllTokens()": {
        "details": "Include all active&expired tokens",
        "returns": {
          "_0": "tokensInfo Token information list"
        }
      },
      "getPolicyTokenInfo(string)": {
        "params": {
          "_policyTokenName": "Name of the policy token (e.g. \"AVAX30L202103\")"
        },
        "returns": {
          "_0": "policyTokenInfo PolicyToken detail information"
        }
      },
      "getUserQuota(address,address)": {
        "params": {
          "_policyTokenAddress": "Address of the policy token",
          "_user": "Address of the user to be checked"
        },
        "returns": {
          "_quota": "User's quota result"
        }
      },
      "initialize(address,address,address)": {
        "params": {
          "_factory": "Address of naughty factory",
          "_priceGetter": "Address of the oracle contract",
          "_usdc": "USDC.e is the first stablecoin supported in the pool"
        }
      },
      "owner()": {
        "details": "Returns the address of the current owner."
      },
      "redeem(string,address,uint256)": {
        "details": "Redeem happens before the deadline and is different from claim/settle",
        "params": {
          "_amount": "Amount to redeem",
          "_policyTokenName": "Name of the policy token",
          "_stablecoin": "Address of the stablecoin"
        }
      },
      "redeemAfterSettlement(string,address)": {
        "params": {
          "_policyTokenName": "Name of the policy token",
          "_stablecoin": "Address of the stablecoin"
        }
      },
      "renounceOwnership()": {
        "details": "Leaves the contract without owner. It will not be possible to call `onlyOwner` functions anymore. Can only be called by the current owner. NOTE: Renouncing ownership will leave the contract without an owner, thereby removing any functionality that is only available to the owner."
      },
      "setILMContract(address)": {
        "params": {
          "_ILM": "Address of the new ILM"
        }
      },
      "setIncomeSharing(address)": {
        "params": {
          "_incomeSharing": "Address of the new incomeSharing"
        }
      },
      "setIncomeToLottery(uint256)": {
        "details": "The remaining part will be distributed to incomeSharing",
        "params": {
          "_toLottery": "Proportion to lottery"
        }
      },
      "setLottery(address)": {
        "params": {
          "_lotteryAddress": "Address of the new lottery"
        }
      },
      "setNaughtyRouter(address)": {
        "params": {
          "_router": "Address of the new naughty router"
        }
      },
      "settleAllPolicyTokens(string,address,uint256,uint256)": {
        "details": "Take care of the gas cost and can use the _startIndex and _stopIndex to control the size",
        "params": {
          "_policyTokenName": "Name of policy token",
          "_stablecoin": "Address of stablecoin",
          "_startIndex": "Settlement start index",
          "_stopIndex": "Settlement stop index"
        }
      },
      "settleFinalResult(string)": {
        "params": {
          "_policyTokenName": "Name of the policy token"
        }
      },
      "transferOwnership(address)": {
        "details": "Transfers ownership of the contract to a new account (`newOwner`). Can only be called by the current owner."
      }
    },
    "title": "PolicyCore",
    "version": 1
  },
  "userdoc": {
    "kind": "user",
    "methods": {
      "_generateName(string,uint256,uint256,bool,string)": {
        "notice": "Generate the policy token name"
      },
      "addStablecoin(address)": {
        "notice": "Add a new supported stablecoin"
      },
      "claim(string,address,uint256)": {
        "notice": "Claim a payoff based on policy tokens"
      },
      "collectIncome(address)": {
        "notice": "Collect the income"
      },
      "delegateDeposit(string,address,uint256,address)": {
        "notice": "Delegate deposit (deposit and mint for other addresses)"
      },
      "deployPolicyToken(string,address,bool,uint256,uint256,uint256,string,uint256,uint256)": {
        "notice": "Deploy a new policy token and return the token address"
      },
      "deployPool(string,address,uint256,uint256)": {
        "notice": "Deploy a new pair (pool)"
      },
      "deposit(string,address,uint256)": {
        "notice": "Deposit stablecoins and get policy tokens"
      },
      "findAddressbyName(string)": {
        "notice": "Find the token address by its name"
      },
      "findNamebyAddress(address)": {
        "notice": "Find the token name by its address"
      },
      "getAllTokens()": {
        "notice": "Get the information about all the tokens"
      },
      "getPolicyTokenInfo(string)": {
        "notice": "Find the token information by its name"
      },
      "getUserQuota(address,address)": {
        "notice": "Get a user's quota for a certain policy token"
      },
      "initialize(address,address,address)": {
        "notice": "Constructor, for some addresses"
      },
      "redeem(string,address,uint256)": {
        "notice": "Burn policy tokens and redeem stablecoins"
      },
      "redeemAfterSettlement(string,address)": {
        "notice": "Redeem policy tokens and get stablecoins by the user himeself"
      },
      "setILMContract(address)": {
        "notice": "Change the address of ILM"
      },
      "setIncomeSharing(address)": {
        "notice": "Change the address of emergency pool"
      },
      "setIncomeToLottery(uint256)": {
        "notice": "Change the income part to lottery"
      },
      "setLottery(address)": {
        "notice": "Change the address of lottery"
      },
      "setNaughtyRouter(address)": {
        "notice": "Change the address of naughty router"
      },
      "settleAllPolicyTokens(string,address,uint256,uint256)": {
        "notice": "Settle the policies for the users when insurance events do not happen         Funds are automatically distributed back to the depositors"
      },
      "settleFinalResult(string)": {
        "notice": "Get the final price from the PriceGetter contract"
      }
    },
    "notice": "Core logic of Naughty Price Product         Preset:              (Done in the naughtyFactory contract)              1. Deploy policyToken contract              2. Deploy policyToken-Stablecoin pool contract         User Interaction:              1. Deposit Stablecoin and mint PolicyTokens              2. Redeem their Stablecoin and burn the PolicyTokens (before settlement)              3. Claim for payout with PolicyTokens (after settlement)         PolicyTokens are minted with the ratio 1:1 to Stablecoin         The PolicyTokens are traded in the pool with CFMM (xy=k)         When the event happens, a PolicyToken can be burned for claiming 1 Stablecoin.         When the event does not happen, the PolicyToken depositors can         redeem their 1 deposited Stablecoin",
    "version": 1
  },
  "storageLayout": {
    "storage": [
      {
        "astId": 2523,
        "contract": "contracts/naughty-price/PolicyCore.sol:PolicyCore",
        "label": "_initialized",
        "offset": 0,
        "slot": "0",
        "type": "t_bool"
      },
      {
        "astId": 2526,
        "contract": "contracts/naughty-price/PolicyCore.sol:PolicyCore",
        "label": "_initializing",
        "offset": 1,
        "slot": "0",
        "type": "t_bool"
      },
      {
        "astId": 3044,
        "contract": "contracts/naughty-price/PolicyCore.sol:PolicyCore",
        "label": "__gap",
        "offset": 0,
        "slot": "1",
        "type": "t_array(t_uint256)50_storage"
      },
      {
        "astId": 2403,
        "contract": "contracts/naughty-price/PolicyCore.sol:PolicyCore",
        "label": "_owner",
        "offset": 0,
        "slot": "51",
        "type": "t_address"
      },
      {
        "astId": 2515,
        "contract": "contracts/naughty-price/PolicyCore.sol:PolicyCore",
        "label": "__gap",
        "offset": 0,
        "slot": "52",
        "type": "t_array(t_uint256)49_storage"
      },
      {
        "astId": 30342,
        "contract": "contracts/naughty-price/PolicyCore.sol:PolicyCore",
        "label": "factory",
        "offset": 0,
        "slot": "101",
        "type": "t_contract(INaughtyFactory)32417"
      },
      {
        "astId": 30345,
        "contract": "contracts/naughty-price/PolicyCore.sol:PolicyCore",
        "label": "priceGetter",
        "offset": 0,
        "slot": "102",
        "type": "t_contract(IPriceGetter)32683"
      },
      {
        "astId": 30347,
        "contract": "contracts/naughty-price/PolicyCore.sol:PolicyCore",
        "label": "lottery",
        "offset": 0,
        "slot": "103",
        "type": "t_address"
      },
      {
        "astId": 30349,
        "contract": "contracts/naughty-price/PolicyCore.sol:PolicyCore",
        "label": "incomeSharing",
        "offset": 0,
        "slot": "104",
        "type": "t_address"
      },
      {
        "astId": 30351,
        "contract": "contracts/naughty-price/PolicyCore.sol:PolicyCore",
        "label": "naughtyRouter",
        "offset": 0,
        "slot": "105",
        "type": "t_address"
      },
      {
        "astId": 30353,
        "contract": "contracts/naughty-price/PolicyCore.sol:PolicyCore",
        "label": "ILMContract",
        "offset": 0,
        "slot": "106",
        "type": "t_address"
      },
      {
        "astId": 30355,
        "contract": "contracts/naughty-price/PolicyCore.sol:PolicyCore",
        "label": "toLotteryPart",
        "offset": 0,
        "slot": "107",
        "type": "t_uint256"
      },
      {
        "astId": 30375,
        "contract": "contracts/naughty-price/PolicyCore.sol:PolicyCore",
        "label": "policyTokenInfoMapping",
        "offset": 0,
        "slot": "108",
        "type": "t_mapping(t_string_memory_ptr,t_struct(PolicyTokenInfo)30370_storage)"
      },
      {
        "astId": 30379,
        "contract": "contracts/naughty-price/PolicyCore.sol:PolicyCore",
        "label": "policyTokenAddressToName",
        "offset": 0,
        "slot": "109",
        "type": "t_mapping(t_address,t_string_storage)"
      },
      {
        "astId": 30382,
        "contract": "contracts/naughty-price/PolicyCore.sol:PolicyCore",
        "label": "allPolicyTokens",
        "offset": 0,
        "slot": "110",
        "type": "t_array(t_string_storage)dyn_storage"
      },
      {
        "astId": 30386,
        "contract": "contracts/naughty-price/PolicyCore.sol:PolicyCore",
        "label": "supportedStablecoin",
        "offset": 0,
        "slot": "111",
        "type": "t_mapping(t_address,t_bool)"
      },
      {
        "astId": 30390,
        "contract": "contracts/naughty-price/PolicyCore.sol:PolicyCore",
        "label": "whichStablecoin",
        "offset": 0,
        "slot": "112",
        "type": "t_mapping(t_address,t_address)"
      },
      {
        "astId": 30394,
        "contract": "contracts/naughty-price/PolicyCore.sol:PolicyCore",
        "label": "policyTokenToOriginal",
        "offset": 0,
        "slot": "113",
        "type": "t_mapping(t_address,t_string_storage)"
      },
      {
        "astId": 30400,
        "contract": "contracts/naughty-price/PolicyCore.sol:PolicyCore",
        "label": "userQuota",
        "offset": 0,
        "slot": "114",
        "type": "t_mapping(t_address,t_mapping(t_address,t_uint256))"
      },
      {
        "astId": 30405,
        "contract": "contracts/naughty-price/PolicyCore.sol:PolicyCore",
        "label": "allDepositors",
        "offset": 0,
        "slot": "115",
        "type": "t_mapping(t_address,t_array(t_address)dyn_storage)"
      },
      {
        "astId": 30419,
        "contract": "contracts/naughty-price/PolicyCore.sol:PolicyCore",
        "label": "settleResult",
        "offset": 0,
        "slot": "116",
        "type": "t_mapping(t_address,t_struct(SettlementInfo)30414_storage)"
      },
      {
        "astId": 30423,
        "contract": "contracts/naughty-price/PolicyCore.sol:PolicyCore",
        "label": "pendingIncomeToLottery",
        "offset": 0,
        "slot": "117",
        "type": "t_mapping(t_address,t_uint256)"
      },
      {
        "astId": 30427,
        "contract": "contracts/naughty-price/PolicyCore.sol:PolicyCore",
        "label": "pendingIncomeToSharing",
        "offset": 0,
        "slot": "118",
        "type": "t_mapping(t_address,t_uint256)"
      }
    ],
    "types": {
      "t_address": {
        "encoding": "inplace",
        "label": "address",
        "numberOfBytes": "20"
      },
      "t_array(t_address)dyn_storage": {
        "base": "t_address",
        "encoding": "dynamic_array",
        "label": "address[]",
        "numberOfBytes": "32"
      },
      "t_array(t_string_storage)dyn_storage": {
        "base": "t_string_storage",
        "encoding": "dynamic_array",
        "label": "string[]",
        "numberOfBytes": "32"
      },
      "t_array(t_uint256)49_storage": {
        "base": "t_uint256",
        "encoding": "inplace",
        "label": "uint256[49]",
        "numberOfBytes": "1568"
      },
      "t_array(t_uint256)50_storage": {
        "base": "t_uint256",
        "encoding": "inplace",
        "label": "uint256[50]",
        "numberOfBytes": "1600"
      },
      "t_bool": {
        "encoding": "inplace",
        "label": "bool",
        "numberOfBytes": "1"
      },
      "t_contract(INaughtyFactory)32417": {
        "encoding": "inplace",
        "label": "contract INaughtyFactory",
        "numberOfBytes": "20"
      },
      "t_contract(IPriceGetter)32683": {
        "encoding": "inplace",
        "label": "contract IPriceGetter",
        "numberOfBytes": "20"
      },
      "t_mapping(t_address,t_address)": {
        "encoding": "mapping",
        "key": "t_address",
        "label": "mapping(address => address)",
        "numberOfBytes": "32",
        "value": "t_address"
      },
      "t_mapping(t_address,t_array(t_address)dyn_storage)": {
        "encoding": "mapping",
        "key": "t_address",
        "label": "mapping(address => address[])",
        "numberOfBytes": "32",
        "value": "t_array(t_address)dyn_storage"
      },
      "t_mapping(t_address,t_bool)": {
        "encoding": "mapping",
        "key": "t_address",
        "label": "mapping(address => bool)",
        "numberOfBytes": "32",
        "value": "t_bool"
      },
      "t_mapping(t_address,t_mapping(t_address,t_uint256))": {
        "encoding": "mapping",
        "key": "t_address",
        "label": "mapping(address => mapping(address => uint256))",
        "numberOfBytes": "32",
        "value": "t_mapping(t_address,t_uint256)"
      },
      "t_mapping(t_address,t_string_storage)": {
        "encoding": "mapping",
        "key": "t_address",
        "label": "mapping(address => string)",
        "numberOfBytes": "32",
        "value": "t_string_storage"
      },
      "t_mapping(t_address,t_struct(SettlementInfo)30414_storage)": {
        "encoding": "mapping",
        "key": "t_address",
        "label": "mapping(address => struct PolicyCore.SettlementInfo)",
        "numberOfBytes": "32",
        "value": "t_struct(SettlementInfo)30414_storage"
      },
      "t_mapping(t_address,t_uint256)": {
        "encoding": "mapping",
        "key": "t_address",
        "label": "mapping(address => uint256)",
        "numberOfBytes": "32",
        "value": "t_uint256"
      },
      "t_mapping(t_string_memory_ptr,t_struct(PolicyTokenInfo)30370_storage)": {
        "encoding": "mapping",
        "key": "t_string_memory_ptr",
        "label": "mapping(string => struct PolicyCore.PolicyTokenInfo)",
        "numberOfBytes": "32",
        "value": "t_struct(PolicyTokenInfo)30370_storage"
      },
      "t_string_memory_ptr": {
        "encoding": "bytes",
        "label": "string",
        "numberOfBytes": "32"
      },
      "t_string_storage": {
        "encoding": "bytes",
        "label": "string",
        "numberOfBytes": "32"
      },
      "t_struct(PolicyTokenInfo)30370_storage": {
        "encoding": "inplace",
        "label": "struct PolicyCore.PolicyTokenInfo",
        "members": [
          {
            "astId": 30357,
            "contract": "contracts/naughty-price/PolicyCore.sol:PolicyCore",
            "label": "policyTokenAddress",
            "offset": 0,
            "slot": "0",
            "type": "t_address"
          },
          {
            "astId": 30359,
            "contract": "contracts/naughty-price/PolicyCore.sol:PolicyCore",
            "label": "isCall",
            "offset": 20,
            "slot": "0",
            "type": "t_bool"
          },
          {
            "astId": 30361,
            "contract": "contracts/naughty-price/PolicyCore.sol:PolicyCore",
            "label": "nameDecimals",
            "offset": 0,
            "slot": "1",
            "type": "t_uint256"
          },
          {
            "astId": 30363,
            "contract": "contracts/naughty-price/PolicyCore.sol:PolicyCore",
            "label": "tokenDecimals",
            "offset": 0,
            "slot": "2",
            "type": "t_uint256"
          },
          {
            "astId": 30365,
            "contract": "contracts/naughty-price/PolicyCore.sol:PolicyCore",
            "label": "strikePrice",
            "offset": 0,
            "slot": "3",
            "type": "t_uint256"
          },
          {
            "astId": 30367,
            "contract": "contracts/naughty-price/PolicyCore.sol:PolicyCore",
            "label": "deadline",
            "offset": 0,
            "slot": "4",
            "type": "t_uint256"
          },
          {
            "astId": 30369,
            "contract": "contracts/naughty-price/PolicyCore.sol:PolicyCore",
            "label": "settleTimestamp",
            "offset": 0,
            "slot": "5",
            "type": "t_uint256"
          }
        ],
        "numberOfBytes": "192"
      },
      "t_struct(SettlementInfo)30414_storage": {
        "encoding": "inplace",
        "label": "struct PolicyCore.SettlementInfo",
        "members": [
          {
            "astId": 30407,
            "contract": "contracts/naughty-price/PolicyCore.sol:PolicyCore",
            "label": "price",
            "offset": 0,
            "slot": "0",
            "type": "t_uint256"
          },
          {
            "astId": 30409,
            "contract": "contracts/naughty-price/PolicyCore.sol:PolicyCore",
            "label": "isHappened",
            "offset": 0,
            "slot": "1",
            "type": "t_bool"
          },
          {
            "astId": 30411,
            "contract": "contracts/naughty-price/PolicyCore.sol:PolicyCore",
            "label": "alreadySettled",
            "offset": 1,
            "slot": "1",
            "type": "t_bool"
          },
          {
            "astId": 30413,
            "contract": "contracts/naughty-price/PolicyCore.sol:PolicyCore",
            "label": "currentDistributionIndex",
            "offset": 0,
            "slot": "2",
            "type": "t_uint256"
          }
        ],
        "numberOfBytes": "96"
      },
      "t_uint256": {
        "encoding": "inplace",
        "label": "uint256",
        "numberOfBytes": "32"
      }
    }
  }
}