{
  "address": "0x1316D7934A8702443fA655D3dA326DE76AbD5FFF",
  "abi": [
    {
      "inputs": [
        {
          "internalType": "address",
          "name": "_token",
          "type": "address"
        }
      ],
      "stateMutability": "nonpayable",
      "type": "constructor"
    },
    {
      "anonymous": false,
      "inputs": [
        {
          "indexed": false,
          "internalType": "uint16",
          "name": "_srcChainId",
          "type": "uint16"
        },
        {
          "indexed": false,
          "internalType": "bytes",
          "name": "_srcAddress",
          "type": "bytes"
        },
        {
          "indexed": false,
          "internalType": "uint64",
          "name": "_nonce",
          "type": "uint64"
        },
        {
          "indexed": false,
          "internalType": "bytes",
          "name": "_payload",
          "type": "bytes"
        },
        {
          "indexed": false,
          "internalType": "bytes",
          "name": "_reason",
          "type": "bytes"
        }
      ],
      "name": "MessageFailed",
      "type": "event"
    },
    {
      "anonymous": false,
      "inputs": [
        {
          "indexed": true,
          "internalType": "address",
          "name": "previousOwner",
          "type": "address"
        },
        {
          "indexed": true,
          "internalType": "address",
          "name": "newOwner",
          "type": "address"
        }
      ],
      "name": "OwnershipTransferred",
      "type": "event"
    },
    {
      "anonymous": false,
      "inputs": [
        {
          "indexed": true,
          "internalType": "uint16",
          "name": "_srcChainId",
          "type": "uint16"
        },
        {
          "indexed": true,
          "internalType": "address",
          "name": "_to",
          "type": "address"
        },
        {
          "indexed": false,
          "internalType": "uint256",
          "name": "_amount",
          "type": "uint256"
        }
      ],
      "name": "ReceiveFromChain",
      "type": "event"
    },
    {
      "anonymous": false,
      "inputs": [
        {
          "indexed": false,
          "internalType": "uint16",
          "name": "_srcChainId",
          "type": "uint16"
        },
        {
          "indexed": false,
          "internalType": "bytes",
          "name": "_srcAddress",
          "type": "bytes"
        },
        {
          "indexed": false,
          "internalType": "uint64",
          "name": "_nonce",
          "type": "uint64"
        },
        {
          "indexed": false,
          "internalType": "bytes32",
          "name": "_payloadHash",
          "type": "bytes32"
        }
      ],
      "name": "RetryMessageSuccess",
      "type": "event"
    },
    {
      "anonymous": false,
      "inputs": [
        {
          "indexed": true,
          "internalType": "uint16",
          "name": "_dstChainId",
          "type": "uint16"
        },
        {
          "indexed": true,
          "internalType": "address",
          "name": "_from",
          "type": "address"
        },
        {
          "indexed": false,
          "internalType": "bytes",
          "name": "_toAddress",
          "type": "bytes"
        },
        {
          "indexed": false,
          "internalType": "uint256",
          "name": "_amount",
          "type": "uint256"
        }
      ],
      "name": "SendToChain",
      "type": "event"
    },
    {
      "anonymous": false,
      "inputs": [
        {
          "indexed": false,
          "internalType": "uint16",
          "name": "_dstChainId",
          "type": "uint16"
        },
        {
          "indexed": false,
          "internalType": "uint16",
          "name": "_type",
          "type": "uint16"
        },
        {
          "indexed": false,
          "internalType": "uint256",
          "name": "_minDstGas",
          "type": "uint256"
        }
      ],
      "name": "SetMinDstGas",
      "type": "event"
    },
    {
      "anonymous": false,
      "inputs": [
        {
          "indexed": false,
          "internalType": "address",
          "name": "precrime",
          "type": "address"
        }
      ],
      "name": "SetPrecrime",
      "type": "event"
    },
    {
      "anonymous": false,
      "inputs": [
        {
          "indexed": false,
          "internalType": "uint16",
          "name": "_remoteChainId",
          "type": "uint16"
        },
        {
          "indexed": false,
          "internalType": "bytes",
          "name": "_path",
          "type": "bytes"
        }
      ],
      "name": "SetTrustedRemote",
      "type": "event"
    },
    {
      "anonymous": false,
      "inputs": [
        {
          "indexed": false,
          "internalType": "uint16",
          "name": "_remoteChainId",
          "type": "uint16"
        },
        {
          "indexed": false,
          "internalType": "bytes",
          "name": "_remoteAddress",
          "type": "bytes"
        }
      ],
      "name": "SetTrustedRemoteAddress",
      "type": "event"
    },
    {
      "anonymous": false,
      "inputs": [
        {
          "indexed": false,
          "internalType": "bool",
          "name": "_useCustomAdapterParams",
          "type": "bool"
        }
      ],
      "name": "SetUseCustomAdapterParams",
      "type": "event"
    },
    {
      "inputs": [],
      "name": "DEFAULT_PAYLOAD_SIZE_LIMIT",
      "outputs": [
        {
          "internalType": "uint256",
          "name": "",
          "type": "uint256"
        }
      ],
      "stateMutability": "view",
      "type": "function"
    },
    {
      "inputs": [],
      "name": "LZ_ENDPOINT",
      "outputs": [
        {
          "internalType": "address",
          "name": "",
          "type": "address"
        }
      ],
      "stateMutability": "view",
      "type": "function"
    },
    {
      "inputs": [],
      "name": "NO_EXTRA_GAS",
      "outputs": [
        {
          "internalType": "uint256",
          "name": "",
          "type": "uint256"
        }
      ],
      "stateMutability": "view",
      "type": "function"
    },
    {
      "inputs": [],
      "name": "PT_SEND",
      "outputs": [
        {
          "internalType": "uint16",
          "name": "",
          "type": "uint16"
        }
      ],
      "stateMutability": "view",
      "type": "function"
    },
    {
      "inputs": [],
      "name": "circulatingSupply",
      "outputs": [
        {
          "internalType": "uint256",
          "name": "",
          "type": "uint256"
        }
      ],
      "stateMutability": "view",
      "type": "function"
    },
    {
      "inputs": [
        {
          "internalType": "uint16",
          "name": "_dstChainId",
          "type": "uint16"
        },
        {
          "internalType": "bytes",
          "name": "_toAddress",
          "type": "bytes"
        },
        {
          "internalType": "uint256",
          "name": "_amount",
          "type": "uint256"
        },
        {
          "internalType": "bool",
          "name": "_useZro",
          "type": "bool"
        },
        {
          "internalType": "bytes",
          "name": "_adapterParams",
          "type": "bytes"
        }
      ],
      "name": "estimateSendFee",
      "outputs": [
        {
          "internalType": "uint256",
          "name": "nativeFee",
          "type": "uint256"
        },
        {
          "internalType": "uint256",
          "name": "zroFee",
          "type": "uint256"
        }
      ],
      "stateMutability": "view",
      "type": "function"
    },
    {
      "inputs": [
        {
          "internalType": "uint16",
          "name": "",
          "type": "uint16"
        },
        {
          "internalType": "bytes",
          "name": "",
          "type": "bytes"
        },
        {
          "internalType": "uint64",
          "name": "",
          "type": "uint64"
        }
      ],
      "name": "failedMessages",
      "outputs": [
        {
          "internalType": "bytes32",
          "name": "",
          "type": "bytes32"
        }
      ],
      "stateMutability": "view",
      "type": "function"
    },
    {
      "inputs": [
        {
          "internalType": "uint16",
          "name": "_srcChainId",
          "type": "uint16"
        },
        {
          "internalType": "bytes",
          "name": "_srcAddress",
          "type": "bytes"
        }
      ],
      "name": "forceResumeReceive",
      "outputs": [],
      "stateMutability": "nonpayable",
      "type": "function"
    },
    {
      "inputs": [
        {
          "internalType": "uint16",
          "name": "_version",
          "type": "uint16"
        },
        {
          "internalType": "uint16",
          "name": "_chainId",
          "type": "uint16"
        },
        {
          "internalType": "address",
          "name": "",
          "type": "address"
        },
        {
          "internalType": "uint256",
          "name": "_configType",
          "type": "uint256"
        }
      ],
      "name": "getConfig",
      "outputs": [
        {
          "internalType": "bytes",
          "name": "",
          "type": "bytes"
        }
      ],
      "stateMutability": "view",
      "type": "function"
    },
    {
      "inputs": [
        {
          "internalType": "uint16",
          "name": "_remoteChainId",
          "type": "uint16"
        }
      ],
      "name": "getTrustedRemoteAddress",
      "outputs": [
        {
          "internalType": "bytes",
          "name": "",
          "type": "bytes"
        }
      ],
      "stateMutability": "view",
      "type": "function"
    },
    {
      "inputs": [
        {
          "internalType": "uint16",
          "name": "_srcChainId",
          "type": "uint16"
        },
        {
          "internalType": "bytes",
          "name": "_srcAddress",
          "type": "bytes"
        }
      ],
      "name": "isTrustedRemote",
      "outputs": [
        {
          "internalType": "bool",
          "name": "",
          "type": "bool"
        }
      ],
      "stateMutability": "view",
      "type": "function"
    },
    {
      "inputs": [],
      "name": "lzEndpoint",
      "outputs": [
        {
          "internalType": "contract ILayerZeroEndpoint",
          "name": "",
          "type": "address"
        }
      ],
      "stateMutability": "view",
      "type": "function"
    },
    {
      "inputs": [
        {
          "internalType": "uint16",
          "name": "_srcChainId",
          "type": "uint16"
        },
        {
          "internalType": "bytes",
          "name": "_srcAddress",
          "type": "bytes"
        },
        {
          "internalType": "uint64",
          "name": "_nonce",
          "type": "uint64"
        },
        {
          "internalType": "bytes",
          "name": "_payload",
          "type": "bytes"
        }
      ],
      "name": "lzReceive",
      "outputs": [],
      "stateMutability": "nonpayable",
      "type": "function"
    },
    {
      "inputs": [
        {
          "internalType": "uint16",
          "name": "",
          "type": "uint16"
        },
        {
          "internalType": "uint16",
          "name": "",
          "type": "uint16"
        }
      ],
      "name": "minDstGasLookup",
      "outputs": [
        {
          "internalType": "uint256",
          "name": "",
          "type": "uint256"
        }
      ],
      "stateMutability": "view",
      "type": "function"
    },
    {
      "inputs": [
        {
          "internalType": "uint16",
          "name": "_srcChainId",
          "type": "uint16"
        },
        {
          "internalType": "bytes",
          "name": "_srcAddress",
          "type": "bytes"
        },
        {
          "internalType": "uint64",
          "name": "_nonce",
          "type": "uint64"
        },
        {
          "internalType": "bytes",
          "name": "_payload",
          "type": "bytes"
        }
      ],
      "name": "nonblockingLzReceive",
      "outputs": [],
      "stateMutability": "nonpayable",
      "type": "function"
    },
    {
      "inputs": [],
      "name": "owner",
      "outputs": [
        {
          "internalType": "address",
          "name": "",
          "type": "address"
        }
      ],
      "stateMutability": "view",
      "type": "function"
    },
    {
      "inputs": [
        {
          "internalType": "uint16",
          "name": "",
          "type": "uint16"
        }
      ],
      "name": "payloadSizeLimitLookup",
      "outputs": [
        {
          "internalType": "uint256",
          "name": "",
          "type": "uint256"
        }
      ],
      "stateMutability": "view",
      "type": "function"
    },
    {
      "inputs": [],
      "name": "precrime",
      "outputs": [
        {
          "internalType": "address",
          "name": "",
          "type": "address"
        }
      ],
      "stateMutability": "view",
      "type": "function"
    },
    {
      "inputs": [],
      "name": "renounceOwnership",
      "outputs": [],
      "stateMutability": "nonpayable",
      "type": "function"
    },
    {
      "inputs": [
        {
          "internalType": "uint16",
          "name": "_srcChainId",
          "type": "uint16"
        },
        {
          "internalType": "bytes",
          "name": "_srcAddress",
          "type": "bytes"
        },
        {
          "internalType": "uint64",
          "name": "_nonce",
          "type": "uint64"
        },
        {
          "internalType": "bytes",
          "name": "_payload",
          "type": "bytes"
        }
      ],
      "name": "retryMessage",
      "outputs": [],
      "stateMutability": "payable",
      "type": "function"
    },
    {
      "inputs": [
        {
          "internalType": "address",
          "name": "_from",
          "type": "address"
        },
        {
          "internalType": "uint16",
          "name": "_dstChainId",
          "type": "uint16"
        },
        {
          "internalType": "bytes",
          "name": "_toAddress",
          "type": "bytes"
        },
        {
          "internalType": "uint256",
          "name": "_amount",
          "type": "uint256"
        },
        {
          "internalType": "address payable",
          "name": "_refundAddress",
          "type": "address"
        },
        {
          "internalType": "address",
          "name": "_zroPaymentAddress",
          "type": "address"
        },
        {
          "internalType": "bytes",
          "name": "_adapterParams",
          "type": "bytes"
        }
      ],
      "name": "sendFrom",
      "outputs": [],
      "stateMutability": "payable",
      "type": "function"
    },
    {
      "inputs": [
        {
          "internalType": "uint16",
          "name": "_version",
          "type": "uint16"
        },
        {
          "internalType": "uint16",
          "name": "_chainId",
          "type": "uint16"
        },
        {
          "internalType": "uint256",
          "name": "_configType",
          "type": "uint256"
        },
        {
          "internalType": "bytes",
          "name": "_config",
          "type": "bytes"
        }
      ],
      "name": "setConfig",
      "outputs": [],
      "stateMutability": "nonpayable",
      "type": "function"
    },
    {
      "inputs": [
        {
          "internalType": "uint16",
          "name": "_dstChainId",
          "type": "uint16"
        },
        {
          "internalType": "uint16",
          "name": "_packetType",
          "type": "uint16"
        },
        {
          "internalType": "uint256",
          "name": "_minGas",
          "type": "uint256"
        }
      ],
      "name": "setMinDstGas",
      "outputs": [],
      "stateMutability": "nonpayable",
      "type": "function"
    },
    {
      "inputs": [
        {
          "internalType": "uint16",
          "name": "_dstChainId",
          "type": "uint16"
        },
        {
          "internalType": "uint256",
          "name": "_size",
          "type": "uint256"
        }
      ],
      "name": "setPayloadSizeLimit",
      "outputs": [],
      "stateMutability": "nonpayable",
      "type": "function"
    },
    {
      "inputs": [
        {
          "internalType": "address",
          "name": "_precrime",
          "type": "address"
        }
      ],
      "name": "setPrecrime",
      "outputs": [],
      "stateMutability": "nonpayable",
      "type": "function"
    },
    {
      "inputs": [
        {
          "internalType": "uint16",
          "name": "_version",
          "type": "uint16"
        }
      ],
      "name": "setReceiveVersion",
      "outputs": [],
      "stateMutability": "nonpayable",
      "type": "function"
    },
    {
      "inputs": [
        {
          "internalType": "uint16",
          "name": "_version",
          "type": "uint16"
        }
      ],
      "name": "setSendVersion",
      "outputs": [],
      "stateMutability": "nonpayable",
      "type": "function"
    },
    {
      "inputs": [
        {
          "internalType": "uint16",
          "name": "_srcChainId",
          "type": "uint16"
        },
        {
          "internalType": "bytes",
          "name": "_path",
          "type": "bytes"
        }
      ],
      "name": "setTrustedRemote",
      "outputs": [],
      "stateMutability": "nonpayable",
      "type": "function"
    },
    {
      "inputs": [
        {
          "internalType": "uint16",
          "name": "_remoteChainId",
          "type": "uint16"
        },
        {
          "internalType": "bytes",
          "name": "_remoteAddress",
          "type": "bytes"
        }
      ],
      "name": "setTrustedRemoteAddress",
      "outputs": [],
      "stateMutability": "nonpayable",
      "type": "function"
    },
    {
      "inputs": [
        {
          "internalType": "bool",
          "name": "_useCustomAdapterParams",
          "type": "bool"
        }
      ],
      "name": "setUseCustomAdapterParams",
      "outputs": [],
      "stateMutability": "nonpayable",
      "type": "function"
    },
    {
      "inputs": [
        {
          "internalType": "bytes4",
          "name": "interfaceId",
          "type": "bytes4"
        }
      ],
      "name": "supportsInterface",
      "outputs": [
        {
          "internalType": "bool",
          "name": "",
          "type": "bool"
        }
      ],
      "stateMutability": "view",
      "type": "function"
    },
    {
      "inputs": [],
      "name": "token",
      "outputs": [
        {
          "internalType": "address",
          "name": "",
          "type": "address"
        }
      ],
      "stateMutability": "view",
      "type": "function"
    },
    {
      "inputs": [
        {
          "internalType": "address",
          "name": "newOwner",
          "type": "address"
        }
      ],
      "name": "transferOwnership",
      "outputs": [],
      "stateMutability": "nonpayable",
      "type": "function"
    },
    {
      "inputs": [
        {
          "internalType": "uint16",
          "name": "",
          "type": "uint16"
        }
      ],
      "name": "trustedRemoteLookup",
      "outputs": [
        {
          "internalType": "bytes",
          "name": "",
          "type": "bytes"
        }
      ],
      "stateMutability": "view",
      "type": "function"
    },
    {
      "inputs": [],
      "name": "useCustomAdapterParams",
      "outputs": [
        {
          "internalType": "bool",
          "name": "",
          "type": "bool"
        }
      ],
      "stateMutability": "view",
      "type": "function"
    }
  ],
  "transactionHash": "0xfbe2c21be471b92e97b1b9afd16dfc2b6f79888752792ad3e7673d0a0aa5e5ff",
  "args": [
    "0x9f285507Ea5B4F33822CA7aBb5EC8953ce37A645"
  ],
  "numDeployments": 1,
  "solcInputHash": "90beb6721585f97a3547864af04100d7",
  "bytecode": "0x60c06040523480156200001157600080fd5b5060405162003b9238038062003b928339810160408190526200003491620000fe565b733c2269811836af69497e5f486a85d7316753cf628080620000563362000074565b6001600160a01b039081166080529290921660a052506200012b9050565b600080546001600160a01b038381166001600160a01b0319831681178455604051919092169283917f8be0079c531659141344cd1fd0a4f28419497f9722a3daafe3b4186f6b6457e09190a35050565b60006001600160a01b0382165b92915050565b620000e281620000c4565b8114620000ee57600080fd5b50565b8051620000d181620000d7565b600060208284031215620001155762000115600080fd5b6000620001238484620000f1565b949350505050565b60805160a0516139d1620001c16000396000818161070201528181610f6f01528181610fe701528181611bd301528181611c5801528181611c990152818161209e01528181612138015261217801526000818161057901528181610729015281816109af01528181610ab401528181610b4501528181610cfc015281816112e8015281816117090152611e1d01526139d16000f3fe6080604052600436106102335760003560e01c80638da5cb5b11610138578063cd4d1c64116100b0578063eb8d72b71161007f578063f2fde38b11610064578063f2fde38b146106b3578063f5ecbdbc146106d3578063fc0c546a146106f357600080fd5b8063eb8d72b714610679578063ed629c5c1461069957600080fd5b8063cd4d1c64146105fe578063d1deba1f14610626578063df2a5b3b14610639578063eab45d9c1461065957600080fd5b8063a6c3d16511610107578063baf3292d116100ec578063baf3292d146105a8578063c4461834146105c8578063cbed8b9c146105de57600080fd5b8063a6c3d16514610547578063b353aaa71461056757600080fd5b80638da5cb5b146104cb5780639358928b146104f2578063950c8a74146105075780639f38369a1461052757600080fd5b806342d65a8d116101cb5780635b8c41e61161019a578063715018a61161017f578063715018a6146104515780637533d788146104665780638cfd8f5c1461049357600080fd5b80635b8c41e6146103e257806366ad5c8a1461043157600080fd5b806342d65a8d1461037857806344770515146103985780634c42899a146103ad57806351905636146103cf57600080fd5b806310ddb1371161020757806310ddb137146102d05780632a205e3d146102f05780633d8b38f61461031e5780633f1f4fa41461033e57600080fd5b80621d35671461023857806301ffc9a71461025a57806307e0db17146102905780630df37483146102b0575b600080fd5b34801561024457600080fd5b5061025861025336600461254c565b610726565b005b34801561026657600080fd5b5061027a610275366004612609565b6108ec565b6040516102879190612634565b60405180910390f35b34801561029c57600080fd5b506102586102ab366004612642565b610955565b3480156102bc57600080fd5b506102586102cb366004612674565b610a19565b3480156102dc57600080fd5b506102586102eb366004612642565b610a5a565b3480156102fc57600080fd5b5061031061030b3660046126c4565b610ae9565b604051610287929190612781565b34801561032a57600080fd5b5061027a61033936600461279c565b610bd5565b34801561034a57600080fd5b5061036b610359366004612642565b60036020526000908152604090205481565b60405161028791906127f8565b34801561038457600080fd5b5061025861039336600461279c565b610ca2565b3480156103a457600080fd5b5061036b600081565b3480156103b957600080fd5b506103c2600081565b6040516102879190612810565b6102586103dd366004612843565b610d63565b3480156103ee57600080fd5b5061036b6103fd366004612a1b565b6005602090815260009384526040808520845180860184018051928152908401958401959095209452929052825290205481565b34801561043d57600080fd5b5061025861044c36600461254c565b610de8565b34801561045d57600080fd5b50610258610e85565b34801561047257600080fd5b50610486610481366004612642565b610ebb565b6040516102879190612ae4565b34801561049f57600080fd5b5061036b6104ae366004612af5565b600260209081526000928352604080842090915290825290205481565b3480156104d757600080fd5b506000546001600160a01b03165b6040516102879190612b31565b3480156104fe57600080fd5b5061036b610f55565b34801561051357600080fd5b506004546104e5906001600160a01b031681565b34801561053357600080fd5b50610486610542366004612642565b61106d565b34801561055357600080fd5b5061025861056236600461279c565b61114c565b34801561057357600080fd5b5061059b7f000000000000000000000000000000000000000000000000000000000000000081565b6040516102879190612b5e565b3480156105b457600080fd5b506102586105c3366004612b6c565b611201565b3480156105d457600080fd5b5061036b61271081565b3480156105ea57600080fd5b506102586105f9366004612b8d565b61128e565b34801561060a57600080fd5b506104e5733c2269811836af69497e5f486a85d7316753cf6281565b61025861063436600461254c565b611353565b34801561064557600080fd5b50610258610654366004612c11565b6114f5565b34801561066557600080fd5b50610258610674366004612c57565b611596565b34801561068557600080fd5b5061025861069436600461279c565b6115fe565b3480156106a557600080fd5b5060065461027a9060ff1681565b3480156106bf57600080fd5b506102586106ce366004612b6c565b61167a565b3480156106df57600080fd5b506104866106ee366004612c78565b6116d6565b3480156106ff57600080fd5b507f00000000000000000000000000000000000000000000000000000000000000006104e5565b337f00000000000000000000000000000000000000000000000000000000000000006001600160a01b0316146107775760405162461bcd60e51b815260040161076e90612d10565b60405180910390fd5b61ffff86166000908152600160205260408120805461079590612d36565b80601f01602080910402602001604051908101604052809291908181526020018280546107c190612d36565b801561080e5780601f106107e35761010080835404028352916020019161080e565b820191906000526020600020905b8154815290600101906020018083116107f157829003601f168201915b50505050509050805186869050148015610829575060008151115b80156108515750805160208201206040516108479088908890612d72565b6040518091039020145b61086d5760405162461bcd60e51b815260040161076e90612dd7565b6108e38787878080601f01602080910402602001604051908101604052809392919081815260200183838082843760009201919091525050604080516020601f8a018190048102820181019092528881528a93509150889088908190840183828082843760009201919091525061179492505050565b50505050505050565b60006001600160e01b031982167f14e4ceea00000000000000000000000000000000000000000000000000000000148061094f57507f01ffc9a7000000000000000000000000000000000000000000000000000000006001600160e01b03198316145b92915050565b6000546001600160a01b0316331461097f5760405162461bcd60e51b815260040161076e90612e17565b6040517f07e0db170000000000000000000000000000000000000000000000000000000081526001600160a01b037f000000000000000000000000000000000000000000000000000000000000000016906307e0db17906109e4908490600401612810565b600060405180830381600087803b1580156109fe57600080fd5b505af1158015610a12573d6000803e3d6000fd5b5050505050565b6000546001600160a01b03163314610a435760405162461bcd60e51b815260040161076e90612e17565b61ffff909116600090815260036020526040902055565b6000546001600160a01b03163314610a845760405162461bcd60e51b815260040161076e90612e17565b6040517f10ddb1370000000000000000000000000000000000000000000000000000000081526001600160a01b037f000000000000000000000000000000000000000000000000000000000000000016906310ddb137906109e4908490600401612810565b600080600080898989604051602001610b059493929190612e47565b60408051601f19818403018152908290527f40a7bb1000000000000000000000000000000000000000000000000000000000825291506001600160a01b037f000000000000000000000000000000000000000000000000000000000000000016906340a7bb1090610b84908d90309086908c908c908c90600401612e77565b6040805180830381865afa158015610ba0573d6000803e3d6000fd5b505050506040513d601f19601f82011682018060405250810190610bc49190612edd565b925092505097509795505050505050565b61ffff831660009081526001602052604081208054829190610bf690612d36565b80601f0160208091040260200160405190810160405280929190818152602001828054610c2290612d36565b8015610c6f5780601f10610c4457610100808354040283529160200191610c6f565b820191906000526020600020905b815481529060010190602001808311610c5257829003601f168201915b505050505090508383604051610c86929190612d72565b60405180910390208180519060200120149150505b9392505050565b6000546001600160a01b03163314610ccc5760405162461bcd60e51b815260040161076e90612e17565b6040517f42d65a8d0000000000000000000000000000000000000000000000000000000081526001600160a01b037f000000000000000000000000000000000000000000000000000000000000000016906342d65a8d90610d3590869086908690600401612f10565b600060405180830381600087803b158015610d4f57600080fd5b505af11580156108e3573d6000803e3d6000fd5b610ddd898989898080601f01602080910402602001604051908101604052809392919081815260200183838082843760009201919091525050604080516020601f8a018190048102820181019092528881528c93508b92508a918a908a908190840183828082843760009201919091525061182292505050565b505050505050505050565b333014610e075760405162461bcd60e51b815260040161076e90612f89565b610e7d8686868080601f01602080910402602001604051908101604052809392919081815260200183838082843760009201919091525050604080516020601f8901819004810282018101909252878152899350915087908790819084018382808284376000920191909152506118c992505050565b505050505050565b6000546001600160a01b03163314610eaf5760405162461bcd60e51b815260040161076e90612e17565b610eb96000611900565b565b60016020526000908152604090208054610ed490612d36565b80601f0160208091040260200160405190810160405280929190818152602001828054610f0090612d36565b8015610f4d5780601f10610f2257610100808354040283529160200191610f4d565b820191906000526020600020905b815481529060010190602001808311610f3057829003601f168201915b505050505081565b6040516370a0823160e01b81526000906001600160a01b037f000000000000000000000000000000000000000000000000000000000000000016906370a0823190610fa4903090600401612b31565b602060405180830381865afa158015610fc1573d6000803e3d6000fd5b505050506040513d601f19601f82011682018060405250810190610fe59190612f99565b7f00000000000000000000000000000000000000000000000000000000000000006001600160a01b03166318160ddd6040518163ffffffff1660e01b8152600401602060405180830381865afa158015611043573d6000803e3d6000fd5b505050506040513d601f19601f820116820180604052508101906110679190612f99565b03905090565b61ffff811660009081526001602052604081208054606092919061109090612d36565b80601f01602080910402602001604051908101604052809291908181526020018280546110bc90612d36565b80156111095780601f106110de57610100808354040283529160200191611109565b820191906000526020600020905b8154815290600101906020018083116110ec57829003601f168201915b5050505050905080516000036111315760405162461bcd60e51b815260040161076e90612fec565b610c9b6000601483516111449190613012565b83919061195d565b6000546001600160a01b031633146111765760405162461bcd60e51b815260040161076e90612e17565b81813060405160200161118b93929190613051565b60408051601f1981840301815291815261ffff851660009081526001602090815291902082516111c0939192909101906123b6565b507f8c0400cfe2d1199b1a725c78960bcc2a344d869b80590d0f2bd005db15a572ce8383836040516111f493929190612f10565b60405180910390a1505050565b6000546001600160a01b0316331461122b5760405162461bcd60e51b815260040161076e90612e17565b6004805473ffffffffffffffffffffffffffffffffffffffff19166001600160a01b0383161790556040517f5db758e995a17ec1ad84bdef7e8c3293a0bd6179bcce400dff5d4c3d87db726b90611283908390612b31565b60405180910390a150565b6000546001600160a01b031633146112b85760405162461bcd60e51b815260040161076e90612e17565b6040517fcbed8b9c0000000000000000000000000000000000000000000000000000000081526001600160a01b037f0000000000000000000000000000000000000000000000000000000000000000169063cbed8b9c906113259088908890889088908890600401613072565b600060405180830381600087803b15801561133f57600080fd5b505af1158015610ddd573d6000803e3d6000fd5b61ffff861660009081526005602052604080822090516113769088908890612d72565b908152604080516020928190038301902067ffffffffffffffff8716600090815292529020549050806113bb5760405162461bcd60e51b815260040161076e90613105565b8083836040516113cc929190612d72565b6040518091039020146113f15760405162461bcd60e51b815260040161076e9061316d565b61ffff871660009081526005602052604080822090516114149089908990612d72565b908152604080516020928190038301812067ffffffffffffffff8916600090815290845282902093909355601f880182900482028301820190528682526114ad918991899089908190840183828082843760009201919091525050604080516020601f8a018190048102820181019092528881528a9350915088908890819084018382808284376000920191909152506118c992505050565b7fc264d91f3adc5588250e1551f547752ca0cfa8f6b530d243b9f9f4cab10ea8e587878787856040516114e495949392919061318d565b60405180910390a150505050505050565b6000546001600160a01b0316331461151f5760405162461bcd60e51b815260040161076e90612e17565b6000811161153f5760405162461bcd60e51b815260040161076e906131fc565b61ffff80841660009081526002602090815260408083209386168352929052819020829055517f9d5c7c0b934da8fefa9c7760c98383778a12dfbfc0c3b3106518f43fb9508ac0906111f49085908590859061320c565b6000546001600160a01b031633146115c05760405162461bcd60e51b815260040161076e90612e17565b6006805460ff19168215151790556040517f1584ad594a70cbe1e6515592e1272a987d922b097ead875069cebe8b40c004a490611283908390612634565b6000546001600160a01b031633146116285760405162461bcd60e51b815260040161076e90612e17565b61ffff8316600090815260016020526040902061164690838361243a565b507ffa41487ad5d6728f0b19276fa1eddc16558578f5109fc39d2dc33c3230470dab8383836040516111f493929190612f10565b6000546001600160a01b031633146116a45760405162461bcd60e51b815260040161076e90612e17565b6001600160a01b0381166116ca5760405162461bcd60e51b815260040161076e9061328c565b6116d381611900565b50565b6040517ff5ecbdbc0000000000000000000000000000000000000000000000000000000081526060906001600160a01b037f0000000000000000000000000000000000000000000000000000000000000000169063f5ecbdbc9061174490889088903090889060040161329c565b600060405180830381865afa158015611761573d6000803e3d6000fd5b505050506040513d6000823e601f3d908101601f191682016040526117899190810190613329565b90505b949350505050565b60008061180c5a60966366ad5c8a60e01b898989896040516024016117bc9493929190613364565b60408051601f198184030181529190526020810180517bffffffffffffffffffffffffffffffffffffffffffffffffffffffff166001600160e01b03199093169290921790915230929190611a25565b9150915081610e7d57610e7d8686868685611ab0565b611830866000836000611b4e565b600061183e88888888611b8f565b90506000808783604051602001611857939291906133a5565b6040516020818303038152906040529050611876888287878734611d23565b886001600160a01b03168861ffff167f39a4c66499bcf4b56d79f0dde8ed7a9d4925a0df55825206b2b8531e202be0d089856040516118b69291906133d4565b60405180910390a3505050505050505050565b602081015161ffff81166118e8576118e385858585611e99565b610a12565b60405162461bcd60e51b815260040161076e90613426565b600080546001600160a01b0383811673ffffffffffffffffffffffffffffffffffffffff19831681178455604051919092169283917f8be0079c531659141344cd1fd0a4f28419497f9722a3daafe3b4186f6b6457e09190a35050565b60608161196b81601f613436565b10156119895760405162461bcd60e51b815260040161076e9061347b565b6119938284613436565b845110156119b35760405162461bcd60e51b815260040161076e906134bd565b6060821580156119d25760405191506000825260208201604052611a1c565b6040519150601f8416801560200281840101858101878315602002848b0101015b81831015611a0b5780518352602092830192016119f3565b5050858452601f01601f1916604052505b50949350505050565b6000606060008060008661ffff1667ffffffffffffffff811115611a4b57611a4b612920565b6040519080825280601f01601f191660200182016040528015611a75576020820181803683370190505b50905060008087516020890160008d8df191503d925086831115611a97578692505b828152826000602083013e909890975095505050505050565b8180519060200120600560008761ffff1661ffff16815260200190815260200160002085604051611ae191906134ef565b90815260408051918290036020908101832067ffffffffffffffff88166000908152915220919091557fe183f33de2837795525b4792ca4cd60535bd77c53b7e7030060bfcf5734d6b0c90611b3f90879087908790879087906134f9565b60405180910390a15050505050565b60065460ff1615611b6a57611b6584848484611f21565b611b89565b815115611b895760405162461bcd60e51b815260040161076e906135a6565b50505050565b60006001600160a01b0385163314611bb95760405162461bcd60e51b815260040161076e9061360e565b6040516370a0823160e01b81526000906001600160a01b037f000000000000000000000000000000000000000000000000000000000000000016906370a0823190611c08903090600401612b31565b602060405180830381865afa158015611c25573d6000803e3d6000fd5b505050506040513d601f19601f82011682018060405250810190611c499190612f99565b9050611c806001600160a01b037f000000000000000000000000000000000000000000000000000000000000000016873086611fa0565b6040516370a0823160e01b815281906001600160a01b037f000000000000000000000000000000000000000000000000000000000000000016906370a0823190611cce903090600401612b31565b602060405180830381865afa158015611ceb573d6000803e3d6000fd5b505050506040513d601f19601f82011682018060405250810190611d0f9190612f99565b611d199190613012565b9695505050505050565b61ffff861660009081526001602052604081208054611d4190612d36565b80601f0160208091040260200160405190810160405280929190818152602001828054611d6d90612d36565b8015611dba5780601f10611d8f57610100808354040283529160200191611dba565b820191906000526020600020905b815481529060010190602001808311611d9d57829003601f168201915b505050505090508051600003611de25760405162461bcd60e51b815260040161076e90613676565b611ded87875161200d565b6040517fc58031000000000000000000000000000000000000000000000000000000000081526001600160a01b037f0000000000000000000000000000000000000000000000000000000000000000169063c5803100908490611e5e908b9086908c908c908c908c90600401613686565b6000604051808303818588803b158015611e7757600080fd5b505af1158015611e8b573d6000803e3d6000fd5b505050505050505050505050565b60008082806020019051810190611eb091906136f3565b909350915060009050611ec38382612053565b9050611ed0878284612099565b9150806001600160a01b03168761ffff167fbf551ec93859b170f9b2141bd9298bf3f64322c6f7beb2543a0cb669834118bf84604051611f1091906127f8565b60405180910390a350505050505050565b6000611f2c83612201565b61ffff808716600090815260026020908152604080832093891683529290529081205491925090611f5e908490613436565b905060008111611f805760405162461bcd60e51b815260040161076e90613786565b80821015610e7d5760405162461bcd60e51b815260040161076e906137c8565b611b89846323b872dd60e01b858585604051602401611fc1939291906137d8565b60408051601f198184030181529190526020810180517bffffffffffffffffffffffffffffffffffffffffffffffffffffffff166001600160e01b03199093169290921790915261222d565b61ffff82166000908152600360205260408120549081900361202e57506127105b8082111561204e5760405162461bcd60e51b815260040161076e90613823565b505050565b6000612060826014613436565b835110156120805760405162461bcd60e51b815260040161076e90613865565b5001602001516c01000000000000000000000000900490565b6000807f00000000000000000000000000000000000000000000000000000000000000006001600160a01b03166370a08231856040518263ffffffff1660e01b81526004016120e89190612b31565b602060405180830381865afa158015612105573d6000803e3d6000fd5b505050506040513d601f19601f820116820180604052508101906121299190612f99565b905061215f6001600160a01b037f00000000000000000000000000000000000000000000000000000000000000001685856122bc565b6040516370a0823160e01b815281906001600160a01b037f000000000000000000000000000000000000000000000000000000000000000016906370a08231906121ad908890600401612b31565b602060405180830381865afa1580156121ca573d6000803e3d6000fd5b505050506040513d601f19601f820116820180604052508101906121ee9190612f99565b6121f89190613012565b95945050505050565b60006022825110156122255760405162461bcd60e51b815260040161076e906138a7565b506022015190565b6000612282826040518060400160405280602081526020017f5361666545524332303a206c6f772d6c6576656c2063616c6c206661696c6564815250856001600160a01b03166122db9092919063ffffffff16565b80519091501561204e57808060200190518101906122a091906138c2565b61204e5760405162461bcd60e51b815260040161076e9061393b565b61204e8363a9059cbb60e01b8484604051602401611fc192919061394b565b606061178c848460008585843b6123045760405162461bcd60e51b815260040161076e9061398b565b600080866001600160a01b0316858760405161232091906134ef565b60006040518083038185875af1925050503d806000811461235d576040519150601f19603f3d011682016040523d82523d6000602084013e612362565b606091505b509150915061237282828661237d565b979650505050505050565b6060831561238c575081610c9b565b82511561239c5782518084602001fd5b8160405162461bcd60e51b815260040161076e9190612ae4565b8280546123c290612d36565b90600052602060002090601f0160209004810192826123e4576000855561242a565b82601f106123fd57805160ff191683800117855561242a565b8280016001018555821561242a579182015b8281111561242a57825182559160200191906001019061240f565b506124369291506124ae565b5090565b82805461244690612d36565b90600052602060002090601f016020900481019282612468576000855561242a565b82601f106124815782800160ff1982351617855561242a565b8280016001018555821561242a579182015b8281111561242a578235825591602001919060010190612493565b5b8082111561243657600081556001016124af565b61ffff81165b81146116d357600080fd5b803561094f816124c3565b60008083601f8401126124f4576124f4600080fd5b50813567ffffffffffffffff81111561250f5761250f600080fd5b60208301915083600182028301111561252a5761252a600080fd5b9250929050565b67ffffffffffffffff81166124c9565b803561094f81612531565b6000806000806000806080878903121561256857612568600080fd5b600061257489896124d4565b965050602087013567ffffffffffffffff81111561259457612594600080fd5b6125a089828a016124df565b955095505060406125b389828a01612541565b935050606087013567ffffffffffffffff8111156125d3576125d3600080fd5b6125df89828a016124df565b92509250509295509295509295565b6001600160e01b031981166124c9565b803561094f816125ee565b60006020828403121561261e5761261e600080fd5b600061178c84846125fe565b8015155b82525050565b6020810161094f828461262a565b60006020828403121561265757612657600080fd5b600061178c84846124d4565b806124c9565b803561094f81612663565b6000806040838503121561268a5761268a600080fd5b600061269685856124d4565b92505060206126a785828601612669565b9150509250929050565b8015156124c9565b803561094f816126b1565b600080600080600080600060a0888a0312156126e2576126e2600080fd5b60006126ee8a8a6124d4565b975050602088013567ffffffffffffffff81111561270e5761270e600080fd5b61271a8a828b016124df565b9650965050604061272d8a828b01612669565b945050606061273e8a828b016126b9565b935050608088013567ffffffffffffffff81111561275e5761275e600080fd5b61276a8a828b016124df565b925092505092959891949750929550565b8061262e565b6040810161278f828561277b565b610c9b602083018461277b565b6000806000604084860312156127b4576127b4600080fd5b60006127c086866124d4565b935050602084013567ffffffffffffffff8111156127e0576127e0600080fd5b6127ec868287016124df565b92509250509250925092565b6020810161094f828461277b565b61ffff811661262e565b6020810161094f8284612806565b60006001600160a01b03821661094f565b6124c98161281e565b803561094f8161282f565b600080600080600080600080600060e08a8c03121561286457612864600080fd5b60006128708c8c612838565b99505060206128818c828d016124d4565b98505060408a013567ffffffffffffffff8111156128a1576128a1600080fd5b6128ad8c828d016124df565b975097505060606128c08c828d01612669565b95505060806128d18c828d01612838565b94505060a06128e28c828d01612838565b93505060c08a013567ffffffffffffffff81111561290257612902600080fd5b61290e8c828d016124df565b92509250509295985092959850929598565b634e487b7160e01b600052604160045260246000fd5b601f19601f830116810181811067ffffffffffffffff8211171561295c5761295c612920565b6040525050565b600061296e60405190565b905061297a8282612936565b919050565b600067ffffffffffffffff82111561299957612999612920565b601f19601f83011660200192915050565b82818337506000910152565b60006129c96129c48461297f565b612963565b9050828152602081018484840111156129e4576129e4600080fd5b6129ef8482856129aa565b509392505050565b600082601f830112612a0b57612a0b600080fd5b813561178c8482602086016129b6565b600080600060608486031215612a3357612a33600080fd5b6000612a3f86866124d4565b935050602084013567ffffffffffffffff811115612a5f57612a5f600080fd5b612a6b868287016129f7565b9250506040612a7c86828701612541565b9150509250925092565b60005b83811015612aa1578181015183820152602001612a89565b83811115611b895750506000910152565b6000612abc825190565b808452602084019350612ad3818560208601612a86565b601f01601f19169290920192915050565b60208082528101610c9b8184612ab2565b60008060408385031215612b0b57612b0b600080fd5b6000612b1785856124d4565b92505060206126a7858286016124d4565b61262e8161281e565b6020810161094f8284612b28565b600061094f8261281e565b600061094f82612b3f565b61262e81612b4a565b6020810161094f8284612b55565b600060208284031215612b8157612b81600080fd5b600061178c8484612838565b600080600080600060808688031215612ba857612ba8600080fd5b6000612bb488886124d4565b9550506020612bc5888289016124d4565b9450506040612bd688828901612669565b935050606086013567ffffffffffffffff811115612bf657612bf6600080fd5b612c02888289016124df565b92509250509295509295909350565b600080600060608486031215612c2957612c29600080fd5b6000612c3586866124d4565b9350506020612c46868287016124d4565b9250506040612a7c86828701612669565b600060208284031215612c6c57612c6c600080fd5b600061178c84846126b9565b60008060008060808587031215612c9157612c91600080fd5b6000612c9d87876124d4565b9450506020612cae878288016124d4565b9350506040612cbf87828801612838565b9250506060612cd087828801612669565b91505092959194509250565b601e8152602081017f4c7a4170703a20696e76616c696420656e64706f696e742063616c6c65720000815290505b60200190565b6020808252810161094f81612cdc565b634e487b7160e01b600052602260045260246000fd5b600281046001821680612d4a57607f821691505b602082108103612d5c57612d5c612d20565b50919050565b612d6d8284836129aa565b500190565b610c9b818385612d62565b60268152602081017f4c7a4170703a20696e76616c696420736f757263652073656e64696e6720636f81527f6e74726163740000000000000000000000000000000000000000000000000000602082015290505b60400190565b6020808252810161094f81612d7d565b60208082527f4f776e61626c653a2063616c6c6572206973206e6f7420746865206f776e65729101908152612d0a565b6020808252810161094f81612de7565b818352602083019250612e3b8284836129aa565b50601f01601f19160190565b60608101612e558287612806565b8181036020830152612e68818587612e27565b90506121f8604083018461277b565b60a08101612e858289612806565b612e926020830188612b28565b8181036040830152612ea48187612ab2565b9050612eb3606083018661262a565b8181036080830152612ec6818486612e27565b98975050505050505050565b805161094f81612663565b60008060408385031215612ef357612ef3600080fd5b6000612eff8585612ed2565b92505060206126a785828601612ed2565b60408101612f1e8286612806565b8181036020830152611789818486612e27565b60268152602081017f4e6f6e626c6f636b696e674c7a4170703a2063616c6c6572206d75737420626581527f204c7a417070000000000000000000000000000000000000000000000000000060208201529050612dd1565b6020808252810161094f81612f31565b600060208284031215612fae57612fae600080fd5b600061178c8484612ed2565b601d8152602081017f4c7a4170703a206e6f20747275737465642070617468207265636f726400000081529050612d0a565b6020808252810161094f81612fba565b634e487b7160e01b600052601160045260246000fd5b60008282101561302457613024612ffc565b500390565b600061094f8260601b90565b600061094f82613029565b61262e61304c8261281e565b613035565b61305c818486612d62565b90506130688183613040565b6014019392505050565b608081016130808288612806565b61308d6020830187612806565b61309a604083018661277b565b8181036060830152612372818486612e27565b60238152602081017f4e6f6e626c6f636b696e674c7a4170703a206e6f2073746f726564206d65737381527f616765000000000000000000000000000000000000000000000000000000000060208201529050612dd1565b6020808252810161094f816130ad565b60218152602081017f4e6f6e626c6f636b696e674c7a4170703a20696e76616c6964207061796c6f6181527f640000000000000000000000000000000000000000000000000000000000000060208201529050612dd1565b6020808252810161094f81613115565b67ffffffffffffffff811661262e565b6080810161319b8288612806565b81810360208301526131ae818688612e27565b90506131bd604083018561317d565b611d19606083018461277b565b60158152602081017f4c7a4170703a20696e76616c6964206d696e476173000000000000000000000081529050612d0a565b6020808252810161094f816131ca565b6060810161321a8286612806565b6132276020830185612806565b61178c604083018461277b565b60268152602081017f4f776e61626c653a206e6577206f776e657220697320746865207a65726f206181527f646472657373000000000000000000000000000000000000000000000000000060208201529050612dd1565b6020808252810161094f81613234565b608081016132aa8287612806565b6132b76020830186612806565b6132c46040830185612b28565b6121f8606083018461277b565b60006132df6129c48461297f565b9050828152602081018484840111156132fa576132fa600080fd5b6129ef848285612a86565b600082601f83011261331957613319600080fd5b815161178c8482602086016132d1565b60006020828403121561333e5761333e600080fd5b815167ffffffffffffffff81111561335857613358600080fd5b61178c84828501613305565b608081016133728287612806565b81810360208301526133848186612ab2565b9050613393604083018561317d565b8181036060830152611d198184612ab2565b606081016133b38286612806565b81810360208301526133c58185612ab2565b905061178c604083018461277b565b604080825281016133e58185612ab2565b9050610c9b602083018461277b565b601c8152602081017f4f4654436f72653a20756e6b6e6f776e207061636b657420747970650000000081529050612d0a565b6020808252810161094f816133f4565b60008219821115612d6d57612d6d612ffc565b600e8152602081017f736c6963655f6f766572666c6f7700000000000000000000000000000000000081529050612d0a565b6020808252810161094f81613449565b60118152602081017f736c6963655f6f75744f66426f756e647300000000000000000000000000000081529050612d0a565b6020808252810161094f8161348b565b60006134d7825190565b6134e5818560208601612a86565b9290920192915050565b61094f81836134cd565b60a081016135078288612806565b81810360208301526135198187612ab2565b9050613528604083018661317d565b818103606083015261353a8185612ab2565b905081810360808301526123728184612ab2565b60268152602081017f4f4654436f72653a205f61646170746572506172616d73206d7573742062652081527f656d7074792e000000000000000000000000000000000000000000000000000060208201529050612dd1565b6020808252810161094f8161354e565b60228152602081017f50726f78794f46543a206f776e6572206973206e6f742073656e642063616c6c81527f657200000000000000000000000000000000000000000000000000000000000060208201529050612dd1565b6020808252810161094f816135b6565b60308152602081017f4c7a4170703a2064657374696e6174696f6e20636861696e206973206e6f742081527f61207472757374656420736f757263650000000000000000000000000000000060208201529050612dd1565b6020808252810161094f8161361e565b60c081016136948289612806565b81810360208301526136a68188612ab2565b905081810360408301526136ba8187612ab2565b90506136c96060830186612b28565b6136d66080830185612b28565b81810360a0830152612ec68184612ab2565b805161094f816124c3565b60008060006060848603121561370b5761370b600080fd5b600061371786866136e8565b935050602084015167ffffffffffffffff81111561373757613737600080fd5b61374386828701613305565b9250506040612a7c86828701612ed2565b601a8152602081017f4c7a4170703a206d696e4761734c696d6974206e6f742073657400000000000081529050612d0a565b6020808252810161094f81613754565b601b8152602081017f4c7a4170703a20676173206c696d697420697320746f6f206c6f77000000000081529050612d0a565b6020808252810161094f81613796565b606081016137e68286612b28565b6132276020830185612b28565b60208082527f4c7a4170703a207061796c6f61642073697a6520697320746f6f206c617267659101908152612d0a565b6020808252810161094f816137f3565b60158152602081017f746f416464726573735f6f75744f66426f756e6473000000000000000000000081529050612d0a565b6020808252810161094f81613833565b601c8152602081017f4c7a4170703a20696e76616c69642061646170746572506172616d730000000081529050612d0a565b6020808252810161094f81613875565b805161094f816126b1565b6000602082840312156138d7576138d7600080fd5b600061178c84846138b7565b602a8152602081017f5361666545524332303a204552433230206f7065726174696f6e20646964206e81527f6f7420737563636565640000000000000000000000000000000000000000000060208201529050612dd1565b6020808252810161094f816138e3565b6040810161278f8285612b28565b601d8152602081017f416464726573733a2063616c6c20746f206e6f6e2d636f6e747261637400000081529050612d0a565b6020808252810161094f8161395956fea26469706673582212207e54343a13c747456d82ccf8b7b1743314a5720bf2c2ae917dcfb4166d49974064736f6c634300080d0033",
  "devdoc": {
    "kind": "dev",
    "methods": {
      "circulatingSupply()": {
        "details": "returns the circulating amount of tokens on current chain"
      },
      "estimateSendFee(uint16,bytes,uint256,bool,bytes)": {
        "details": "estimate send token `_tokenId` to (`_dstChainId`, `_toAddress`) _dstChainId - L0 defined chain id to send tokens too _toAddress - dynamic bytes array which contains the address to whom you are sending tokens to on the dstChain _amount - amount of the tokens to transfer _useZro - indicates to use zro to pay L0 fees _adapterParam - flexible bytes array to indicate messaging adapter services in L0"
      },
      "owner()": {
        "details": "Returns the address of the current owner."
      },
      "renounceOwnership()": {
        "details": "Leaves the contract without owner. It will not be possible to call `onlyOwner` functions anymore. Can only be called by the current owner. NOTE: Renouncing ownership will leave the contract without an owner, thereby removing any functionality that is only available to the owner."
      },
      "sendFrom(address,uint16,bytes,uint256,address,address,bytes)": {
        "details": "send `_amount` amount of token to (`_dstChainId`, `_toAddress`) from `_from` `_from` the owner of token `_dstChainId` the destination chain identifier `_toAddress` can be any size depending on the `dstChainId`. `_amount` the quantity of tokens in wei `_refundAddress` the address LayerZero refunds if too much message fee is sent `_zroPaymentAddress` set to address(0x0) if not paying in ZRO (LayerZero Token) `_adapterParams` is a flexible bytes array to indicate messaging adapter services"
      },
      "token()": {
        "details": "returns the address of the ERC20 token"
      },
      "transferOwnership(address)": {
        "details": "Transfers ownership of the contract to a new account (`newOwner`). Can only be called by the current owner."
      }
    },
    "version": 1
  },
  "userdoc": {
    "kind": "user",
    "methods": {},
    "version": 1
  },
  "storageLayout": {
    "storage": [
      {
        "astId": 3062,
        "contract": "contracts/tokens/ProxyOFT.sol:ProxyOFT",
        "label": "_owner",
        "offset": 0,
        "slot": "0",
        "type": "t_address"
      },
      {
        "astId": 408,
        "contract": "contracts/tokens/ProxyOFT.sol:ProxyOFT",
        "label": "trustedRemoteLookup",
        "offset": 0,
        "slot": "1",
        "type": "t_mapping(t_uint16,t_bytes_storage)"
      },
      {
        "astId": 414,
        "contract": "contracts/tokens/ProxyOFT.sol:ProxyOFT",
        "label": "minDstGasLookup",
        "offset": 0,
        "slot": "2",
        "type": "t_mapping(t_uint16,t_mapping(t_uint16,t_uint256))"
      },
      {
        "astId": 418,
        "contract": "contracts/tokens/ProxyOFT.sol:ProxyOFT",
        "label": "payloadSizeLimitLookup",
        "offset": 0,
        "slot": "3",
        "type": "t_mapping(t_uint16,t_uint256)"
      },
      {
        "astId": 420,
        "contract": "contracts/tokens/ProxyOFT.sol:ProxyOFT",
        "label": "precrime",
        "offset": 0,
        "slot": "4",
        "type": "t_address"
      },
      {
        "astId": 957,
        "contract": "contracts/tokens/ProxyOFT.sol:ProxyOFT",
        "label": "failedMessages",
        "offset": 0,
        "slot": "5",
        "type": "t_mapping(t_uint16,t_mapping(t_bytes_memory_ptr,t_mapping(t_uint64,t_bytes32)))"
      },
      {
        "astId": 1273,
        "contract": "contracts/tokens/ProxyOFT.sol:ProxyOFT",
        "label": "useCustomAdapterParams",
        "offset": 0,
        "slot": "6",
        "type": "t_bool"
      }
    ],
    "types": {
      "t_address": {
        "encoding": "inplace",
        "label": "address",
        "numberOfBytes": "20"
      },
      "t_bool": {
        "encoding": "inplace",
        "label": "bool",
        "numberOfBytes": "1"
      },
      "t_bytes32": {
        "encoding": "inplace",
        "label": "bytes32",
        "numberOfBytes": "32"
      },
      "t_bytes_memory_ptr": {
        "encoding": "bytes",
        "label": "bytes",
        "numberOfBytes": "32"
      },
      "t_bytes_storage": {
        "encoding": "bytes",
        "label": "bytes",
        "numberOfBytes": "32"
      },
      "t_mapping(t_bytes_memory_ptr,t_mapping(t_uint64,t_bytes32))": {
        "encoding": "mapping",
        "key": "t_bytes_memory_ptr",
        "label": "mapping(bytes => mapping(uint64 => bytes32))",
        "numberOfBytes": "32",
        "value": "t_mapping(t_uint64,t_bytes32)"
      },
      "t_mapping(t_uint16,t_bytes_storage)": {
        "encoding": "mapping",
        "key": "t_uint16",
        "label": "mapping(uint16 => bytes)",
        "numberOfBytes": "32",
        "value": "t_bytes_storage"
      },
      "t_mapping(t_uint16,t_mapping(t_bytes_memory_ptr,t_mapping(t_uint64,t_bytes32)))": {
        "encoding": "mapping",
        "key": "t_uint16",
        "label": "mapping(uint16 => mapping(bytes => mapping(uint64 => bytes32)))",
        "numberOfBytes": "32",
        "value": "t_mapping(t_bytes_memory_ptr,t_mapping(t_uint64,t_bytes32))"
      },
      "t_mapping(t_uint16,t_mapping(t_uint16,t_uint256))": {
        "encoding": "mapping",
        "key": "t_uint16",
        "label": "mapping(uint16 => mapping(uint16 => uint256))",
        "numberOfBytes": "32",
        "value": "t_mapping(t_uint16,t_uint256)"
      },
      "t_mapping(t_uint16,t_uint256)": {
        "encoding": "mapping",
        "key": "t_uint16",
        "label": "mapping(uint16 => uint256)",
        "numberOfBytes": "32",
        "value": "t_uint256"
      },
      "t_mapping(t_uint64,t_bytes32)": {
        "encoding": "mapping",
        "key": "t_uint64",
        "label": "mapping(uint64 => bytes32)",
        "numberOfBytes": "32",
        "value": "t_bytes32"
      },
      "t_uint16": {
        "encoding": "inplace",
        "label": "uint16",
        "numberOfBytes": "2"
      },
      "t_uint256": {
        "encoding": "inplace",
        "label": "uint256",
        "numberOfBytes": "32"
      },
      "t_uint64": {
        "encoding": "inplace",
        "label": "uint64",
        "numberOfBytes": "8"
      }
    }
  }
}