{
  "address": "0x57770100AdD16202DCba9C4dDaafDD08Ff41afc6",
  "abi": [
    {
      "inputs": [],
      "name": "PIV__AlreadyDistributed",
      "type": "error"
    },
    {
      "inputs": [],
      "name": "PIV__ClaimedAll",
      "type": "error"
    },
    {
      "inputs": [],
      "name": "PIV__NoPendingRound",
      "type": "error"
    },
    {
      "inputs": [],
      "name": "PIV__NotEnoughBuyerTokens",
      "type": "error"
    },
    {
      "inputs": [],
      "name": "PIV__NotPassedInterval",
      "type": "error"
    },
    {
      "inputs": [],
      "name": "PIV__ZeroAmount",
      "type": "error"
    },
    {
      "anonymous": false,
      "inputs": [
        {
          "indexed": false,
          "internalType": "uint256",
          "name": "oldRewardPerRound",
          "type": "uint256"
        },
        {
          "indexed": false,
          "internalType": "uint256",
          "name": "newRewardPerRound",
          "type": "uint256"
        }
      ],
      "name": "DegisRewardChanged",
      "type": "event"
    },
    {
      "anonymous": false,
      "inputs": [
        {
          "indexed": false,
          "internalType": "uint256",
          "name": "oldInterval",
          "type": "uint256"
        },
        {
          "indexed": false,
          "internalType": "uint256",
          "name": "newInterval",
          "type": "uint256"
        }
      ],
      "name": "DistributionIntervalChanged",
      "type": "event"
    },
    {
      "anonymous": false,
      "inputs": [
        {
          "indexed": true,
          "internalType": "address",
          "name": "previousOwner",
          "type": "address"
        },
        {
          "indexed": true,
          "internalType": "address",
          "name": "newOwner",
          "type": "address"
        }
      ],
      "name": "OwnershipTransferred",
      "type": "event"
    },
    {
      "anonymous": false,
      "inputs": [
        {
          "indexed": false,
          "internalType": "address",
          "name": "account",
          "type": "address"
        }
      ],
      "name": "Paused",
      "type": "event"
    },
    {
      "anonymous": false,
      "inputs": [
        {
          "indexed": false,
          "internalType": "address",
          "name": "userAddress",
          "type": "address"
        },
        {
          "indexed": false,
          "internalType": "uint256",
          "name": "currentRound",
          "type": "uint256"
        },
        {
          "indexed": false,
          "internalType": "uint256",
          "name": "amount",
          "type": "uint256"
        }
      ],
      "name": "Redeem",
      "type": "event"
    },
    {
      "anonymous": false,
      "inputs": [
        {
          "indexed": false,
          "internalType": "address",
          "name": "userAddress",
          "type": "address"
        },
        {
          "indexed": false,
          "internalType": "uint256",
          "name": "userReward",
          "type": "uint256"
        }
      ],
      "name": "RewardClaimed",
      "type": "event"
    },
    {
      "anonymous": false,
      "inputs": [
        {
          "indexed": false,
          "internalType": "uint256",
          "name": "currentRound",
          "type": "uint256"
        },
        {
          "indexed": false,
          "internalType": "uint256",
          "name": "blockNumber",
          "type": "uint256"
        }
      ],
      "name": "RoundSettled",
      "type": "event"
    },
    {
      "anonymous": false,
      "inputs": [
        {
          "indexed": false,
          "internalType": "address",
          "name": "userAddress",
          "type": "address"
        },
        {
          "indexed": false,
          "internalType": "uint256",
          "name": "currentRound",
          "type": "uint256"
        },
        {
          "indexed": false,
          "internalType": "uint256",
          "name": "actualAmount",
          "type": "uint256"
        }
      ],
      "name": "Stake",
      "type": "event"
    },
    {
      "anonymous": false,
      "inputs": [
        {
          "indexed": false,
          "internalType": "address",
          "name": "account",
          "type": "address"
        }
      ],
      "name": "Unpaused",
      "type": "event"
    },
    {
      "inputs": [],
      "name": "MAX_ROUND",
      "outputs": [
        {
          "internalType": "uint256",
          "name": "",
          "type": "uint256"
        }
      ],
      "stateMutability": "view",
      "type": "function"
    },
    {
      "inputs": [],
      "name": "SCALE",
      "outputs": [
        {
          "internalType": "uint256",
          "name": "",
          "type": "uint256"
        }
      ],
      "stateMutability": "view",
      "type": "function"
    },
    {
      "inputs": [],
      "name": "claim",
      "outputs": [],
      "stateMutability": "nonpayable",
      "type": "function"
    },
    {
      "inputs": [],
      "name": "currentRound",
      "outputs": [
        {
          "internalType": "uint256",
          "name": "",
          "type": "uint256"
        }
      ],
      "stateMutability": "view",
      "type": "function"
    },
    {
      "inputs": [],
      "name": "degisPerRound",
      "outputs": [
        {
          "internalType": "uint256",
          "name": "",
          "type": "uint256"
        }
      ],
      "stateMutability": "view",
      "type": "function"
    },
    {
      "inputs": [],
      "name": "distributionInterval",
      "outputs": [
        {
          "internalType": "uint256",
          "name": "",
          "type": "uint256"
        }
      ],
      "stateMutability": "view",
      "type": "function"
    },
    {
      "inputs": [],
      "name": "getRewardPerRound",
      "outputs": [
        {
          "internalType": "uint256",
          "name": "rewardPerRound",
          "type": "uint256"
        }
      ],
      "stateMutability": "view",
      "type": "function"
    },
    {
      "inputs": [
        {
          "internalType": "uint256",
          "name": "_round",
          "type": "uint256"
        }
      ],
      "name": "getTotalUsersInRound",
      "outputs": [
        {
          "internalType": "uint256",
          "name": "",
          "type": "uint256"
        }
      ],
      "stateMutability": "view",
      "type": "function"
    },
    {
      "inputs": [
        {
          "internalType": "address",
          "name": "_user",
          "type": "address"
        }
      ],
      "name": "getUserPendingRounds",
      "outputs": [
        {
          "internalType": "uint256[]",
          "name": "",
          "type": "uint256[]"
        }
      ],
      "stateMutability": "view",
      "type": "function"
    },
    {
      "inputs": [
        {
          "internalType": "address",
          "name": "_user",
          "type": "address"
        },
        {
          "internalType": "uint256",
          "name": "_round",
          "type": "uint256"
        }
      ],
      "name": "getUserShares",
      "outputs": [
        {
          "internalType": "uint256",
          "name": "",
          "type": "uint256"
        }
      ],
      "stateMutability": "view",
      "type": "function"
    },
    {
      "inputs": [
        {
          "internalType": "uint256",
          "name": "_round",
          "type": "uint256"
        }
      ],
      "name": "getUsersInRound",
      "outputs": [
        {
          "internalType": "address[]",
          "name": "",
          "type": "address[]"
        }
      ],
      "stateMutability": "view",
      "type": "function"
    },
    {
      "inputs": [
        {
          "internalType": "address",
          "name": "_buyerToken",
          "type": "address"
        },
        {
          "internalType": "address",
          "name": "_degisToken",
          "type": "address"
        }
      ],
      "name": "initialize",
      "outputs": [],
      "stateMutability": "nonpayable",
      "type": "function"
    },
    {
      "inputs": [],
      "name": "lastDistribution",
      "outputs": [
        {
          "internalType": "uint256",
          "name": "",
          "type": "uint256"
        }
      ],
      "stateMutability": "view",
      "type": "function"
    },
    {
      "inputs": [],
      "name": "name",
      "outputs": [
        {
          "internalType": "string",
          "name": "",
          "type": "string"
        }
      ],
      "stateMutability": "view",
      "type": "function"
    },
    {
      "inputs": [],
      "name": "owner",
      "outputs": [
        {
          "internalType": "address",
          "name": "",
          "type": "address"
        }
      ],
      "stateMutability": "view",
      "type": "function"
    },
    {
      "inputs": [],
      "name": "pause",
      "outputs": [],
      "stateMutability": "nonpayable",
      "type": "function"
    },
    {
      "inputs": [],
      "name": "paused",
      "outputs": [
        {
          "internalType": "bool",
          "name": "",
          "type": "bool"
        }
      ],
      "stateMutability": "view",
      "type": "function"
    },
    {
      "inputs": [
        {
          "internalType": "address",
          "name": "_user",
          "type": "address"
        }
      ],
      "name": "pendingReward",
      "outputs": [
        {
          "internalType": "uint256",
          "name": "userPendingReward",
          "type": "uint256"
        }
      ],
      "stateMutability": "view",
      "type": "function"
    },
    {
      "inputs": [
        {
          "internalType": "uint256",
          "name": "_amount",
          "type": "uint256"
        }
      ],
      "name": "redeem",
      "outputs": [],
      "stateMutability": "nonpayable",
      "type": "function"
    },
    {
      "inputs": [],
      "name": "renounceOwnership",
      "outputs": [],
      "stateMutability": "nonpayable",
      "type": "function"
    },
    {
      "inputs": [
        {
          "internalType": "uint256",
          "name": "",
          "type": "uint256"
        }
      ],
      "name": "rounds",
      "outputs": [
        {
          "internalType": "uint256",
          "name": "shares",
          "type": "uint256"
        },
        {
          "internalType": "bool",
          "name": "hasDistributed",
          "type": "bool"
        },
        {
          "internalType": "uint256",
          "name": "degisPerShare",
          "type": "uint256"
        }
      ],
      "stateMutability": "view",
      "type": "function"
    },
    {
      "inputs": [
        {
          "internalType": "uint256",
          "name": "_degisPerRound",
          "type": "uint256"
        }
      ],
      "name": "setDegisPerRound",
      "outputs": [],
      "stateMutability": "nonpayable",
      "type": "function"
    },
    {
      "inputs": [
        {
          "internalType": "uint256",
          "name": "_newInterval",
          "type": "uint256"
        }
      ],
      "name": "setDistributionInterval",
      "outputs": [],
      "stateMutability": "nonpayable",
      "type": "function"
    },
    {
      "inputs": [
        {
          "internalType": "uint256[]",
          "name": "_threshold",
          "type": "uint256[]"
        },
        {
          "internalType": "uint256[]",
          "name": "_reward",
          "type": "uint256[]"
        }
      ],
      "name": "setPiecewise",
      "outputs": [],
      "stateMutability": "nonpayable",
      "type": "function"
    },
    {
      "inputs": [],
      "name": "settleCurrentRound",
      "outputs": [],
      "stateMutability": "nonpayable",
      "type": "function"
    },
    {
      "inputs": [
        {
          "internalType": "uint256",
          "name": "_amount",
          "type": "uint256"
        }
      ],
      "name": "stake",
      "outputs": [],
      "stateMutability": "nonpayable",
      "type": "function"
    },
    {
      "inputs": [
        {
          "internalType": "address",
          "name": "newOwner",
          "type": "address"
        }
      ],
      "name": "transferOwnership",
      "outputs": [],
      "stateMutability": "nonpayable",
      "type": "function"
    },
    {
      "inputs": [],
      "name": "unpause",
      "outputs": [],
      "stateMutability": "nonpayable",
      "type": "function"
    },
    {
      "inputs": [
        {
          "internalType": "address",
          "name": "",
          "type": "address"
        },
        {
          "internalType": "uint256",
          "name": "",
          "type": "uint256"
        }
      ],
      "name": "userSharesInRound",
      "outputs": [
        {
          "internalType": "uint256",
          "name": "",
          "type": "uint256"
        }
      ],
      "stateMutability": "view",
      "type": "function"
    },
    {
      "inputs": [
        {
          "internalType": "address",
          "name": "",
          "type": "address"
        }
      ],
      "name": "users",
      "outputs": [
        {
          "internalType": "uint256",
          "name": "lastRewardRoundIndex",
          "type": "uint256"
        }
      ],
      "stateMutability": "view",
      "type": "function"
    }
  ],
  "transactionHash": "0x89a662c369b2efdf9f54f567c3693f50ca79c9ff4f39bb0941d7b59c602616c7",
  "args": [],
  "numDeployments": 1,
  "solcInputHash": "a73c9f29d1207f8d5ceee9f6e1d5d798",
  "bytecode": "0x608060405234801561001057600080fd5b50612004806100206000396000f3fe608060405234801561001057600080fd5b50600436106101da5760003560e01c8063a694fc3a11610104578063ca1fe809116100a2578063eced552611610071578063eced55261461041c578063ef618eb51461042b578063f2fde38b1461044b578063f40f0f521461045e57600080fd5b8063ca1fe809146103db578063db006a75146103e3578063ddd9d045146103f6578063e6848ead1461040957600080fd5b8063b4ac62c5116100de578063b4ac62c514610397578063c42d5efb1461039f578063c708c5f4146103bf578063c966fbf8146103c857600080fd5b8063a694fc3a1461035b578063a717639c1461036e578063a87430ba1461037757600080fd5b80635c975abb1161017c5780638456cb591161014b5780638456cb59146102f05780638a19c8bc146102f85780638c65c81f146103015780638da5cb5b1461034257600080fd5b80635c975abb146102b957806371201a0e146102cc578063715018a6146102d55780637a16a49e146102dd57600080fd5b80633f4ba83a116101b85780633f4ba83a1461028c578063482d1adb14610296578063485cc9551461029e5780634e71d92d146102b157600080fd5b806306fdde03146101df5780631aeee41d146102315780632f01790114610261575b600080fd5b61021b6040518060400160405280601e81526020017f446567697320507572636861736520496e63656e74697665205661756c74000081525081565b60405161022891906117ed565b60405180910390f35b61025461023f366004611816565b600090815260cf602052604090206001015490565b604051610228919061183f565b61025461026f366004611872565b60d160209081526000928352604080842090915290825290205481565b610294610471565b005b6102546104ae565b6102946102ac3660046118af565b61058c565b610294610659565b60655460ff1660405161022891906118ea565b61025460cd5481565b610294610962565b6102946102eb366004611816565b610996565b610294610a00565b61025460cb5481565b61033361030f366004611816565b60cf60205260009081526040902080546002820154600390920154909160ff169083565b604051610228939291906118f8565b6033546001600160a01b03166040516102289190611929565b610294610369366004611816565b610a32565b61025460ce5481565b610254610385366004611937565b60d06020526000908152604090205481565b610254603281565b6103b26103ad366004611937565b610c1e565b60405161022891906119b6565b61025460cc5481565b6102946103d6366004611a19565b610c8d565b610294610cd7565b6102946103f1366004611816565b610e3c565b610254610404366004611872565b611006565b610294610417366004611816565b611031565b610254670de0b6b3a764000081565b61043e610439366004611816565b61109b565b6040516102289190611ad9565b610294610459366004611937565b611109565b61025461046c366004611937565b611165565b6033546001600160a01b031633146104a45760405162461bcd60e51b815260040161049b90611b1a565b60405180910390fd5b6104ac6112ae565b565b60cb54600090815260cf602090815260408083205460d2805483518186028101860190945280845291938593929083018282801561050b57602002820191906000526020600020905b8154815260200190600101908083116104f7575b5050505050905080516000036105255760cc549250505090565b6000600182516105359190611b40565b90505b81818151811061054a5761054a611b57565b6020026020010151831061057d5760d3818154811061056b5761056b611b57565b90600052602060002001549350610586565b60001901610538565b50505090565b600054610100900460ff166105a75760005460ff16156105ab565b303b155b6105c75760405162461bcd60e51b815260040161049b90611bc7565b600054610100900460ff161580156105e9576000805461ffff19166101011790555b6105f1611314565b6105f9611343565b610601611372565b60c980546001600160a01b0380861673ffffffffffffffffffffffffffffffffffffffff199283161790925560ca8054928516929091169190911790554260ce558015610654576000805461ff00191690555b505050565b60026097540361067b5760405162461bcd60e51b815260040161049b90611c09565b600260975560655460ff16156106a35760405162461bcd60e51b815260040161049b90611c4b565b33600090815260d0602090815260408083208151808301835281548152600182018054845181870281018701909552808552919492938584019390929083018282801561070f57602002820191906000526020600020905b8154815260200190600101908083116106fb575b5050505050815250509050806020015151600003610759576040517f72f62ba900000000000000000000000000000000000000000000000000000000815260040160405180910390fd5b805160208201515160009161076d91611b40565b9050806000036107a9576040517fd4b9bf3a00000000000000000000000000000000000000000000000000000000815260040160405180910390fd5b60cb54602083015180516107bf90600190611b40565b815181106107cf576107cf611b57565b6020026020010151036107ea576107e7600182611b40565b90505b815160328211156108235733600090815260d060205260408120805460329450849290610818908490611c5b565b909155506108489050565b33600090815260d0602052604081208054849290610842908490611c5b565b90915550505b6000815b6108568484611c5b565b8110156108d95760008560200151828151811061087557610875611b57565b60209081029190910181015133600090815260d18352604080822083835284528082205460cf909452902060030154909250670de0b6b3a7640000916108ba91611c73565b6108c49190611ca8565b6108ce9084611c5b565b92505060010161084c565b5060ca546040517fb47673980000000000000000000000000000000000000000000000000000000081526001600160a01b039091169063b4767398906109259033908590600401611cbc565b600060405180830381600087803b15801561093f57600080fd5b505af1158015610953573d6000803e3d6000fd5b50506001609755505050505050565b6033546001600160a01b0316331461098c5760405162461bcd60e51b815260040161049b90611b1a565b6104ac60006113a1565b6033546001600160a01b031633146109c05760405162461bcd60e51b815260040161049b90611b1a565b7f0bcbec4c9da357687b1300891e9be5627182572bb49e955ea7d37afcd927598460cd54826040516109f3929190611cd7565b60405180910390a160cd55565b6033546001600160a01b03163314610a2a5760405162461bcd60e51b815260040161049b90611b1a565b6104ac611400565b600260975403610a545760405162461bcd60e51b815260040161049b90611c09565b600260975560655460ff1615610a7c5760405162461bcd60e51b815260040161049b90611c4b565b80600003610a9d57604051631a4a5ecf60e01b815260040160405180910390fd5b60cb5433600090815260d06020908152604080832060d18352818420858552909252822054909103610b0857600082815260cf6020908152604082206001908101805491820181558352912001805473ffffffffffffffffffffffffffffffffffffffff1916331790555b33600090815260d16020908152604080832085845290915281208054859290610b32908490611c5b565b90915550506001810154801580610b7e57508015801590610b7e57508282600101600183610b609190611b40565b81548110610b7057610b70611b57565b906000526020600020015414155b15610b9d57600180830180549182018155600090815260209020018390555b600083815260cf602052604081208054869290610bbb908490611c5b565b909155505060c954610bd8906001600160a01b0316333087611458565b7f5af417134f72a9d41143ace85b0a26dce6f550f894f2cbc1eeee8810603d91b6338486604051610c0b93929190611ce5565b60405180910390a1505060016097555050565b6001600160a01b038116600090815260d06020908152604091829020600101805483518184028101840190945280845260609392830182828015610c8157602002820191906000526020600020905b815481526020019060010190808311610c6d575b50505050509050919050565b6033546001600160a01b03163314610cb75760405162461bcd60e51b815260040161049b90611b1a565b610cc360d2858561172f565b50610cd060d3838361172f565b5050505050565b60cd5460ce54610ce79042611b40565b11610d1e576040517f15d7f40300000000000000000000000000000000000000000000000000000000815260040160405180910390fd5b60655460ff1615610d415760405162461bcd60e51b815260040161049b90611c4b565b60cb54600090815260cf60205260409020600281015460ff1615610d91576040517fadf8d84100000000000000000000000000000000000000000000000000000000815260040160405180910390fd5b80546000610d9d6104ae565b905081600003610db35760006003840155610dd6565b81610dc6670de0b6b3a764000083611c73565b610dd09190611ca8565b60038401555b60028301805460ff1916600117905560cb546040517f84ea2725ed7015ebac8f69258b09c394b1f22b1031d4393a1580b3935058d7dc91610e18914290611cd7565b60405180910390a160cb60008154610e2f90611d00565b90915550504260ce555050565b600260975403610e5e5760405162461bcd60e51b815260040161049b90611c09565b600260975560655460ff1615610e865760405162461bcd60e51b815260040161049b90611c4b565b80600003610ea757604051631a4a5ecf60e01b815260040160405180910390fd5b60cb5433600090815260d16020908152604080832084845290915290205482811015610eff576040517f57464c4300000000000000000000000000000000000000000000000000000000815260040160405180910390fd5b33600090815260d16020908152604080832085845290915281208054859290610f29908490611b40565b909155505033600090815260d1602090815260408083208584529091528120549003610f875733600090815260d060205260409020600101805480610f7057610f70611d19565b600190038181906000526020600020016000905590555b600082815260cf602052604081208054859290610fa5908490611b40565b909155505060c954610fc1906001600160a01b031633856114e3565b7fe5b754fb1abb7f01b499791d0b820ae3b6af3424ac1c59768edb53f4ec31a929338385604051610ff493929190611ce5565b60405180910390a15050600160975550565b6001600160a01b038216600090815260d1602090815260408083208484529091529020545b92915050565b6033546001600160a01b0316331461105b5760405162461bcd60e51b815260040161049b90611b1a565b7f08c48647d7747ed2d79428c4b86c76dfe48af099e796d87b7b311925e76d2c4060cc548260405161108e929190611cd7565b60405180910390a160cc55565b600081815260cf6020908152604091829020600101805483518184028101840190945280845260609392830182828015610c8157602002820191906000526020600020905b81546001600160a01b031681526001909101906020018083116110e05750505050509050919050565b6033546001600160a01b031633146111335760405162461bcd60e51b815260040161049b90611b1a565b6001600160a01b0381166111595760405162461bcd60e51b815260040161049b90611d87565b611162816113a1565b50565b6001600160a01b038116600090815260d06020908152604080832081518083018352815481526001820180548451818702810187019095528085528695929485840193909291908301828280156111db57602002820191906000526020600020905b8154815260200190600101908083116111c7575b5050505050815250509050600081600001518260200151516111fd9190611b40565b8251909150805b61120e8383611c5b565b8110156112a55760008460200151828151811061122d5761122d611b57565b6020908102919091018101516001600160a01b038916600090815260d18352604080822083835284528082205460cf909452902060030154909250670de0b6b3a76400009161127b91611c73565b6112859190611ca8565b61128f9087611c5b565b955050808061129d90611d00565b915050611204565b50505050919050565b60655460ff166112d05760405162461bcd60e51b815260040161049b90611dc9565b6065805460ff191690557f5db9ee0a495bf2e6ff9c91a7834c1ba4fdd244a5e8aa4e537bd38aeae4b073aa335b60405161130a9190611929565b60405180910390a1565b600054610100900460ff1661133b5760405162461bcd60e51b815260040161049b90611e31565b6104ac611502565b600054610100900460ff1661136a5760405162461bcd60e51b815260040161049b90611e31565b6104ac611532565b600054610100900460ff166113995760405162461bcd60e51b815260040161049b90611e31565b6104ac611565565b603380546001600160a01b0383811673ffffffffffffffffffffffffffffffffffffffff19831681179093556040519116919082907f8be0079c531659141344cd1fd0a4f28419497f9722a3daafe3b4186f6b6457e090600090a35050565b60655460ff16156114235760405162461bcd60e51b815260040161049b90611c4b565b6065805460ff191660011790557f62e78cea01bee320cd4e420270b5ea74000d11b0c9f74754ebdbfc544b05a2586112fd3390565b6114dd846323b872dd60e01b85858560405160240161147993929190611e41565b60408051601f198184030181529190526020810180517bffffffffffffffffffffffffffffffffffffffffffffffffffffffff167fffffffff0000000000000000000000000000000000000000000000000000000090931692909217909152611593565b50505050565b6106548363a9059cbb60e01b8484604051602401611479929190611cbc565b600054610100900460ff166115295760405162461bcd60e51b815260040161049b90611e31565b6104ac336113a1565b600054610100900460ff166115595760405162461bcd60e51b815260040161049b90611e31565b6065805460ff19169055565b600054610100900460ff1661158c5760405162461bcd60e51b815260040161049b90611e31565b6001609755565b60006115e8826040518060400160405280602081526020017f5361666545524332303a206c6f772d6c6576656c2063616c6c206661696c6564815250856001600160a01b03166116229092919063ffffffff16565b80519091501561065457808060200190518101906116069190611e6f565b6106545760405162461bcd60e51b815260040161049b90611ee8565b6060611631848460008561163b565b90505b9392505050565b60608247101561165d5760405162461bcd60e51b815260040161049b90611f50565b843b61167b5760405162461bcd60e51b815260040161049b90611f92565b600080866001600160a01b031685876040516116979190611fc4565b60006040518083038185875af1925050503d80600081146116d4576040519150601f19603f3d011682016040523d82523d6000602084013e6116d9565b606091505b50915091506116e98282866116f6565b925050505b949350505050565b60608315611705575081611634565b8251156117155782518084602001fd5b8160405162461bcd60e51b815260040161049b91906117ed565b82805482825590600052602060002090810192821561176a579160200282015b8281111561176a57823582559160200191906001019061174f565b5061177692915061177a565b5090565b5b80821115611776576000815560010161177b565b60005b838110156117aa578181015183820152602001611792565b838111156114dd5750506000910152565b60006117c5825190565b8084526020840193506117dc81856020860161178f565b601f01601f19169290920192915050565b6020808252810161163481846117bb565b805b811461116257600080fd5b803561102b816117fe565b60006020828403121561182b5761182b600080fd5b60006116ee848461180b565b805b82525050565b6020810161102b8284611837565b60006001600160a01b03821661102b565b6118008161184d565b803561102b8161185e565b6000806040838503121561188857611888600080fd5b60006118948585611867565b92505060206118a58582860161180b565b9150509250929050565b600080604083850312156118c5576118c5600080fd5b60006118d18585611867565b92505060206118a585828601611867565b801515611839565b6020810161102b82846118e2565b606081016119068286611837565b61191360208301856118e2565b6116ee6040830184611837565b6118398161184d565b6020810161102b8284611920565b60006020828403121561194c5761194c600080fd5b60006116ee8484611867565b6119628282611837565b5060200190565b60200190565b6000611979825190565b808452602093840193830160005b828110156119ac57815161199b8782611958565b965050602082019150600101611987565b5093949350505050565b60208082528101611634818461196f565b60008083601f8401126119dc576119dc600080fd5b50813567ffffffffffffffff8111156119f7576119f7600080fd5b602083019150836020820283011115611a1257611a12600080fd5b9250929050565b60008060008060408587031215611a3257611a32600080fd5b843567ffffffffffffffff811115611a4c57611a4c600080fd5b611a58878288016119c7565b9450945050602085013567ffffffffffffffff811115611a7a57611a7a600080fd5b611a86878288016119c7565b95989497509550505050565b6119628282611920565b6000611aa6825190565b808452602093840193830160005b828110156119ac578151611ac88782611a92565b965050602082019150600101611ab4565b602080825281016116348184611a9c565b60208082527f4f776e61626c653a2063616c6c6572206973206e6f7420746865206f776e65729101908152611969565b6020808252810161102b81611aea565b634e487b7160e01b600052601160045260246000fd5b600082821015611b5257611b52611b2a565b500390565b634e487b7160e01b600052603260045260246000fd5b602e8152602081017f496e697469616c697a61626c653a20636f6e747261637420697320616c72656181527f647920696e697469616c697a6564000000000000000000000000000000000000602082015290505b60400190565b6020808252810161102b81611b6d565b601f8152602081017f5265656e7472616e637947756172643a207265656e7472616e742063616c6c0081529050611969565b6020808252810161102b81611bd7565b60108152602081017f5061757361626c653a207061757365640000000000000000000000000000000081529050611969565b6020808252810161102b81611c19565b60008219821115611c6e57611c6e611b2a565b500190565b6000816000190483118215151615611c8d57611c8d611b2a565b500290565b634e487b7160e01b600052601260045260246000fd5b600082611cb757611cb7611c92565b500490565b60408101611cca8285611920565b6116346020830184611837565b60408101611cca8285611837565b60608101611cf38286611920565b6119136020830185611837565b600060018201611d1257611d12611b2a565b5060010190565b634e487b7160e01b600052603160045260246000fd5b60268152602081017f4f776e61626c653a206e6577206f776e657220697320746865207a65726f206181527f646472657373000000000000000000000000000000000000000000000000000060208201529050611bc1565b6020808252810161102b81611d2f565b60148152602081017f5061757361626c653a206e6f742070617573656400000000000000000000000081529050611969565b6020808252810161102b81611d97565b602b8152602081017f496e697469616c697a61626c653a20636f6e7472616374206973206e6f74206981527f6e697469616c697a696e6700000000000000000000000000000000000000000060208201529050611bc1565b6020808252810161102b81611dd9565b60608101611e4f8286611920565b6119136020830185611920565b801515611800565b805161102b81611e5c565b600060208284031215611e8457611e84600080fd5b60006116ee8484611e64565b602a8152602081017f5361666545524332303a204552433230206f7065726174696f6e20646964206e81527f6f7420737563636565640000000000000000000000000000000000000000000060208201529050611bc1565b6020808252810161102b81611e90565b60268152602081017f416464726573733a20696e73756666696369656e742062616c616e636520666f81527f722063616c6c000000000000000000000000000000000000000000000000000060208201529050611bc1565b6020808252810161102b81611ef8565b601d8152602081017f416464726573733a2063616c6c20746f206e6f6e2d636f6e747261637400000081529050611969565b6020808252810161102b81611f60565b6000611fac825190565b611fba81856020860161178f565b9290920192915050565b61102b8183611fa256fea26469706673582212208a5e847e86cc56d6933768f99304bd206b53d61c39f0c17094eefb0617ba97ac64736f6c634300080d0033",
  "devdoc": {
    "kind": "dev",
    "methods": {
      "getRewardPerRound()": {
        "details": "Depends on the total shares in this round",
        "returns": {
          "rewardPerRound": "Degis reward per round"
        }
      },
      "getTotalUsersInRound(uint256)": {
        "params": {
          "_round": "Round number to check"
        },
        "returns": {
          "_0": "totalUsers Total amount of users in _round"
        }
      },
      "getUserPendingRounds(address)": {
        "params": {
          "_user": "User address to check"
        },
        "returns": {
          "_0": "pendingRounds User's pending rounds"
        }
      },
      "getUserShares(address,uint256)": {
        "params": {
          "_round": "Round number",
          "_user": "Address of the user"
        },
        "returns": {
          "_0": "userShares User's shares in the current round"
        }
      },
      "getUsersInRound(uint256)": {
        "params": {
          "_round": "Round number to check"
        },
        "returns": {
          "_0": "users All user addresses in this round"
        }
      },
      "owner()": {
        "details": "Returns the address of the current owner."
      },
      "paused()": {
        "details": "Returns true if the contract is paused, and false otherwise."
      },
      "pendingReward(address)": {
        "params": {
          "_user": "User address"
        },
        "returns": {
          "userPendingReward": "User's pending reward"
        }
      },
      "redeem(uint256)": {
        "params": {
          "_amount": "Amount to redeem"
        }
      },
      "renounceOwnership()": {
        "details": "Leaves the contract without owner. It will not be possible to call `onlyOwner` functions anymore. Can only be called by the current owner. NOTE: Renouncing ownership will leave the contract without an owner, thereby removing any functionality that is only available to the owner."
      },
      "setDegisPerRound(uint256)": {
        "params": {
          "_degisPerRound": "Degis distribution per round"
        }
      },
      "setDistributionInterval(uint256)": {
        "params": {
          "_newInterval": "The new interval"
        }
      },
      "setPiecewise(uint256[],uint256[])": {
        "params": {
          "_reward": "The piecewise reward",
          "_threshold": "The threshold"
        }
      },
      "settleCurrentRound()": {
        "details": "Callable by any address, must pass the distribution interval"
      },
      "stake(uint256)": {
        "params": {
          "_amount": "Amount of buyer tokens to stake"
        }
      },
      "transferOwnership(address)": {
        "details": "Transfers ownership of the contract to a new account (`newOwner`). Can only be called by the current owner."
      }
    },
    "title": "Purchase Incentive Vault",
    "version": 1
  },
  "userdoc": {
    "kind": "user",
    "methods": {
      "claim()": {
        "notice": "User can claim his own reward"
      },
      "getRewardPerRound()": {
        "notice": "Get degis reward per round"
      },
      "getTotalUsersInRound(uint256)": {
        "notice": "Get the amount of users in _round, used for distribution"
      },
      "getUserPendingRounds(address)": {
        "notice": "Get user's pending rounds"
      },
      "getUserShares(address,uint256)": {
        "notice": "Get your shares in the current round"
      },
      "getUsersInRound(uint256)": {
        "notice": "Get the user addresses in _round"
      },
      "pendingReward(address)": {
        "notice": "Get a user's pending reward"
      },
      "redeem(uint256)": {
        "notice": "Redeem buyer token from the vault"
      },
      "setDegisPerRound(uint256)": {
        "notice": "Set degis distribution per round"
      },
      "setDistributionInterval(uint256)": {
        "notice": "Set a new distribution interval"
      },
      "setPiecewise(uint256[],uint256[])": {
        "notice": "Set the threshold and piecewise reward"
      },
      "settleCurrentRound()": {
        "notice": "Setttle the current round"
      },
      "stake(uint256)": {
        "notice": "Stake buyer tokens into this contract"
      }
    },
    "notice": "This is the purchase incentive vault for staking buyer tokens         Users first stake their buyer tokens and wait for distribution         About every 24 hours, the reward will be calculated to users' account         After disrtribution, reward will be updated              but it still need to be manually claimed.         Buyer tokens can only be used once         You can withdraw your buyer token within the same round (current round)         They can not be withdrawed if the round was settled",
    "version": 1
  },
  "storageLayout": {
    "storage": [
      {
        "astId": 2523,
        "contract": "contracts/farming/PurchaseIncentiveVault.sol:PurchaseIncentiveVault",
        "label": "_initialized",
        "offset": 0,
        "slot": "0",
        "type": "t_bool"
      },
      {
        "astId": 2526,
        "contract": "contracts/farming/PurchaseIncentiveVault.sol:PurchaseIncentiveVault",
        "label": "_initializing",
        "offset": 1,
        "slot": "0",
        "type": "t_bool"
      },
      {
        "astId": 3044,
        "contract": "contracts/farming/PurchaseIncentiveVault.sol:PurchaseIncentiveVault",
        "label": "__gap",
        "offset": 0,
        "slot": "1",
        "type": "t_array(t_uint256)50_storage"
      },
      {
        "astId": 2403,
        "contract": "contracts/farming/PurchaseIncentiveVault.sol:PurchaseIncentiveVault",
        "label": "_owner",
        "offset": 0,
        "slot": "51",
        "type": "t_address"
      },
      {
        "astId": 2515,
        "contract": "contracts/farming/PurchaseIncentiveVault.sol:PurchaseIncentiveVault",
        "label": "__gap",
        "offset": 0,
        "slot": "52",
        "type": "t_array(t_uint256)49_storage"
      },
      {
        "astId": 2611,
        "contract": "contracts/farming/PurchaseIncentiveVault.sol:PurchaseIncentiveVault",
        "label": "_paused",
        "offset": 0,
        "slot": "101",
        "type": "t_bool"
      },
      {
        "astId": 2700,
        "contract": "contracts/farming/PurchaseIncentiveVault.sol:PurchaseIncentiveVault",
        "label": "__gap",
        "offset": 0,
        "slot": "102",
        "type": "t_array(t_uint256)49_storage"
      },
      {
        "astId": 2715,
        "contract": "contracts/farming/PurchaseIncentiveVault.sol:PurchaseIncentiveVault",
        "label": "_status",
        "offset": 0,
        "slot": "151",
        "type": "t_uint256"
      },
      {
        "astId": 2759,
        "contract": "contracts/farming/PurchaseIncentiveVault.sol:PurchaseIncentiveVault",
        "label": "__gap",
        "offset": 0,
        "slot": "152",
        "type": "t_array(t_uint256)49_storage"
      },
      {
        "astId": 13255,
        "contract": "contracts/farming/PurchaseIncentiveVault.sol:PurchaseIncentiveVault",
        "label": "buyerToken",
        "offset": 0,
        "slot": "201",
        "type": "t_contract(IERC20)4752"
      },
      {
        "astId": 13258,
        "contract": "contracts/farming/PurchaseIncentiveVault.sol:PurchaseIncentiveVault",
        "label": "degis",
        "offset": 0,
        "slot": "202",
        "type": "t_contract(IDegisToken)34786"
      },
      {
        "astId": 13260,
        "contract": "contracts/farming/PurchaseIncentiveVault.sol:PurchaseIncentiveVault",
        "label": "currentRound",
        "offset": 0,
        "slot": "203",
        "type": "t_uint256"
      },
      {
        "astId": 13262,
        "contract": "contracts/farming/PurchaseIncentiveVault.sol:PurchaseIncentiveVault",
        "label": "degisPerRound",
        "offset": 0,
        "slot": "204",
        "type": "t_uint256"
      },
      {
        "astId": 13264,
        "contract": "contracts/farming/PurchaseIncentiveVault.sol:PurchaseIncentiveVault",
        "label": "distributionInterval",
        "offset": 0,
        "slot": "205",
        "type": "t_uint256"
      },
      {
        "astId": 13266,
        "contract": "contracts/farming/PurchaseIncentiveVault.sol:PurchaseIncentiveVault",
        "label": "lastDistribution",
        "offset": 0,
        "slot": "206",
        "type": "t_uint256"
      },
      {
        "astId": 13284,
        "contract": "contracts/farming/PurchaseIncentiveVault.sol:PurchaseIncentiveVault",
        "label": "rounds",
        "offset": 0,
        "slot": "207",
        "type": "t_mapping(t_uint256,t_struct(RoundInfo)13279_storage)"
      },
      {
        "astId": 13295,
        "contract": "contracts/farming/PurchaseIncentiveVault.sol:PurchaseIncentiveVault",
        "label": "users",
        "offset": 0,
        "slot": "208",
        "type": "t_mapping(t_address,t_struct(UserInfo)13290_storage)"
      },
      {
        "astId": 13301,
        "contract": "contracts/farming/PurchaseIncentiveVault.sol:PurchaseIncentiveVault",
        "label": "userSharesInRound",
        "offset": 0,
        "slot": "209",
        "type": "t_mapping(t_address,t_mapping(t_uint256,t_uint256))"
      },
      {
        "astId": 13304,
        "contract": "contracts/farming/PurchaseIncentiveVault.sol:PurchaseIncentiveVault",
        "label": "threshold",
        "offset": 0,
        "slot": "210",
        "type": "t_array(t_uint256)dyn_storage"
      },
      {
        "astId": 13307,
        "contract": "contracts/farming/PurchaseIncentiveVault.sol:PurchaseIncentiveVault",
        "label": "piecewise",
        "offset": 0,
        "slot": "211",
        "type": "t_array(t_uint256)dyn_storage"
      }
    ],
    "types": {
      "t_address": {
        "encoding": "inplace",
        "label": "address",
        "numberOfBytes": "20"
      },
      "t_array(t_address)dyn_storage": {
        "base": "t_address",
        "encoding": "dynamic_array",
        "label": "address[]",
        "numberOfBytes": "32"
      },
      "t_array(t_uint256)49_storage": {
        "base": "t_uint256",
        "encoding": "inplace",
        "label": "uint256[49]",
        "numberOfBytes": "1568"
      },
      "t_array(t_uint256)50_storage": {
        "base": "t_uint256",
        "encoding": "inplace",
        "label": "uint256[50]",
        "numberOfBytes": "1600"
      },
      "t_array(t_uint256)dyn_storage": {
        "base": "t_uint256",
        "encoding": "dynamic_array",
        "label": "uint256[]",
        "numberOfBytes": "32"
      },
      "t_bool": {
        "encoding": "inplace",
        "label": "bool",
        "numberOfBytes": "1"
      },
      "t_contract(IDegisToken)34786": {
        "encoding": "inplace",
        "label": "contract IDegisToken",
        "numberOfBytes": "20"
      },
      "t_contract(IERC20)4752": {
        "encoding": "inplace",
        "label": "contract IERC20",
        "numberOfBytes": "20"
      },
      "t_mapping(t_address,t_mapping(t_uint256,t_uint256))": {
        "encoding": "mapping",
        "key": "t_address",
        "label": "mapping(address => mapping(uint256 => uint256))",
        "numberOfBytes": "32",
        "value": "t_mapping(t_uint256,t_uint256)"
      },
      "t_mapping(t_address,t_struct(UserInfo)13290_storage)": {
        "encoding": "mapping",
        "key": "t_address",
        "label": "mapping(address => struct PurchaseIncentiveVault.UserInfo)",
        "numberOfBytes": "32",
        "value": "t_struct(UserInfo)13290_storage"
      },
      "t_mapping(t_uint256,t_struct(RoundInfo)13279_storage)": {
        "encoding": "mapping",
        "key": "t_uint256",
        "label": "mapping(uint256 => struct PurchaseIncentiveVault.RoundInfo)",
        "numberOfBytes": "32",
        "value": "t_struct(RoundInfo)13279_storage"
      },
      "t_mapping(t_uint256,t_uint256)": {
        "encoding": "mapping",
        "key": "t_uint256",
        "label": "mapping(uint256 => uint256)",
        "numberOfBytes": "32",
        "value": "t_uint256"
      },
      "t_struct(RoundInfo)13279_storage": {
        "encoding": "inplace",
        "label": "struct PurchaseIncentiveVault.RoundInfo",
        "members": [
          {
            "astId": 13271,
            "contract": "contracts/farming/PurchaseIncentiveVault.sol:PurchaseIncentiveVault",
            "label": "shares",
            "offset": 0,
            "slot": "0",
            "type": "t_uint256"
          },
          {
            "astId": 13274,
            "contract": "contracts/farming/PurchaseIncentiveVault.sol:PurchaseIncentiveVault",
            "label": "users",
            "offset": 0,
            "slot": "1",
            "type": "t_array(t_address)dyn_storage"
          },
          {
            "astId": 13276,
            "contract": "contracts/farming/PurchaseIncentiveVault.sol:PurchaseIncentiveVault",
            "label": "hasDistributed",
            "offset": 0,
            "slot": "2",
            "type": "t_bool"
          },
          {
            "astId": 13278,
            "contract": "contracts/farming/PurchaseIncentiveVault.sol:PurchaseIncentiveVault",
            "label": "degisPerShare",
            "offset": 0,
            "slot": "3",
            "type": "t_uint256"
          }
        ],
        "numberOfBytes": "128"
      },
      "t_struct(UserInfo)13290_storage": {
        "encoding": "inplace",
        "label": "struct PurchaseIncentiveVault.UserInfo",
        "members": [
          {
            "astId": 13286,
            "contract": "contracts/farming/PurchaseIncentiveVault.sol:PurchaseIncentiveVault",
            "label": "lastRewardRoundIndex",
            "offset": 0,
            "slot": "0",
            "type": "t_uint256"
          },
          {
            "astId": 13289,
            "contract": "contracts/farming/PurchaseIncentiveVault.sol:PurchaseIncentiveVault",
            "label": "pendingRounds",
            "offset": 0,
            "slot": "1",
            "type": "t_array(t_uint256)dyn_storage"
          }
        ],
        "numberOfBytes": "64"
      },
      "t_uint256": {
        "encoding": "inplace",
        "label": "uint256",
        "numberOfBytes": "32"
      }
    }
  }
}