{
  "address": "0x11cB000d047b7b215c5F04460aC1819Ea67C535A",
  "abi": [
    {
      "inputs": [
        {
          "internalType": "address",
          "name": "_vrfCoordinator",
          "type": "address"
        },
        {
          "internalType": "bytes32",
          "name": "_keyHash",
          "type": "bytes32"
        },
        {
          "internalType": "uint64",
          "name": "_subscriptionId",
          "type": "uint64"
        }
      ],
      "stateMutability": "nonpayable",
      "type": "constructor"
    },
    {
      "inputs": [
        {
          "internalType": "address",
          "name": "have",
          "type": "address"
        },
        {
          "internalType": "address",
          "name": "want",
          "type": "address"
        }
      ],
      "name": "OnlyCoordinatorCanFulfill",
      "type": "error"
    },
    {
      "anonymous": false,
      "inputs": [
        {
          "indexed": false,
          "internalType": "uint256",
          "name": "requestId",
          "type": "uint256"
        }
      ],
      "name": "RequestRandomWords",
      "type": "event"
    },
    {
      "inputs": [],
      "name": "callbackGasLimit",
      "outputs": [
        {
          "internalType": "uint32",
          "name": "",
          "type": "uint32"
        }
      ],
      "stateMutability": "view",
      "type": "function"
    },
    {
      "inputs": [],
      "name": "coordinator",
      "outputs": [
        {
          "internalType": "contract VRFCoordinatorV2Interface",
          "name": "",
          "type": "address"
        }
      ],
      "stateMutability": "view",
      "type": "function"
    },
    {
      "inputs": [],
      "name": "degisLottery",
      "outputs": [
        {
          "internalType": "address",
          "name": "",
          "type": "address"
        }
      ],
      "stateMutability": "view",
      "type": "function"
    },
    {
      "inputs": [],
      "name": "keyHash",
      "outputs": [
        {
          "internalType": "bytes32",
          "name": "",
          "type": "bytes32"
        }
      ],
      "stateMutability": "view",
      "type": "function"
    },
    {
      "inputs": [],
      "name": "latestLotteryId",
      "outputs": [
        {
          "internalType": "uint256",
          "name": "",
          "type": "uint256"
        }
      ],
      "stateMutability": "view",
      "type": "function"
    },
    {
      "inputs": [],
      "name": "owner",
      "outputs": [
        {
          "internalType": "address",
          "name": "",
          "type": "address"
        }
      ],
      "stateMutability": "view",
      "type": "function"
    },
    {
      "inputs": [],
      "name": "randomResult",
      "outputs": [
        {
          "internalType": "uint256",
          "name": "",
          "type": "uint256"
        }
      ],
      "stateMutability": "view",
      "type": "function"
    },
    {
      "inputs": [
        {
          "internalType": "uint256",
          "name": "requestId",
          "type": "uint256"
        },
        {
          "internalType": "uint256[]",
          "name": "randomWords",
          "type": "uint256[]"
        }
      ],
      "name": "rawFulfillRandomWords",
      "outputs": [],
      "stateMutability": "nonpayable",
      "type": "function"
    },
    {
      "inputs": [],
      "name": "requestConfirmations",
      "outputs": [
        {
          "internalType": "uint16",
          "name": "",
          "type": "uint16"
        }
      ],
      "stateMutability": "view",
      "type": "function"
    },
    {
      "inputs": [],
      "name": "requestRandomWords",
      "outputs": [],
      "stateMutability": "nonpayable",
      "type": "function"
    },
    {
      "inputs": [],
      "name": "s_requestId",
      "outputs": [
        {
          "internalType": "uint256",
          "name": "",
          "type": "uint256"
        }
      ],
      "stateMutability": "view",
      "type": "function"
    },
    {
      "inputs": [
        {
          "internalType": "address",
          "name": "_coordinator",
          "type": "address"
        }
      ],
      "name": "setCoordinator",
      "outputs": [],
      "stateMutability": "nonpayable",
      "type": "function"
    },
    {
      "inputs": [
        {
          "internalType": "address",
          "name": "_lottery",
          "type": "address"
        }
      ],
      "name": "setDegisLottery",
      "outputs": [],
      "stateMutability": "nonpayable",
      "type": "function"
    },
    {
      "inputs": [
        {
          "internalType": "bytes32",
          "name": "_keyHash",
          "type": "bytes32"
        }
      ],
      "name": "setKeyHash",
      "outputs": [],
      "stateMutability": "nonpayable",
      "type": "function"
    },
    {
      "inputs": [
        {
          "internalType": "uint16",
          "name": "_requestConfirmations",
          "type": "uint16"
        }
      ],
      "name": "setRequestConfirmations",
      "outputs": [],
      "stateMutability": "nonpayable",
      "type": "function"
    },
    {
      "inputs": [
        {
          "internalType": "uint64",
          "name": "_subscriptionId",
          "type": "uint64"
        }
      ],
      "name": "setSubscriptionId",
      "outputs": [],
      "stateMutability": "nonpayable",
      "type": "function"
    },
    {
      "inputs": [
        {
          "internalType": "uint32",
          "name": "_wordsPerTime",
          "type": "uint32"
        }
      ],
      "name": "setWordsPerTime",
      "outputs": [],
      "stateMutability": "nonpayable",
      "type": "function"
    },
    {
      "inputs": [],
      "name": "subscriptionId",
      "outputs": [
        {
          "internalType": "uint64",
          "name": "",
          "type": "uint64"
        }
      ],
      "stateMutability": "view",
      "type": "function"
    },
    {
      "inputs": [],
      "name": "wordsPerTime",
      "outputs": [
        {
          "internalType": "uint32",
          "name": "",
          "type": "uint32"
        }
      ],
      "stateMutability": "view",
      "type": "function"
    }
  ],
  "transactionHash": "0xd692838046da6ee4966bd51f4d56c60813d03b8377cca2139a02a732d97ce1e2",
  "args": [
    "0xd5D517aBE5cF79B7e95eC98dB0f0277788aFF634",
    "0x89630569c9567e43c4fe7b1633258df9f2531b62f2352fa721cf3162ee4ecb46",
    30
  ],
  "numDeployments": 1,
  "solcInputHash": "a9d0a8dbbc90ef056e46c7cb80c61b46",
  "bytecode": "0x60a0604052600280546001600160501b03191666010003000186a01790553480156200002a57600080fd5b5060405162000e4838038062000e488339810160408190526200004d916200010b565b6001600160a01b039092166080819052600080546001939093556001600160401b03909316600160a01b026001600160e01b031990921617179055600580546001600160a01b0319163317905562000163565b60006001600160a01b0382165b92915050565b620000be81620000a0565b8114620000ca57600080fd5b50565b8051620000ad81620000b3565b80620000be565b8051620000ad81620000da565b6001600160401b038116620000be565b8051620000ad81620000ee565b600080600060608486031215620001255762000125600080fd5b6000620001338686620000cd565b93505060206200014686828701620000e1565b92505060406200015986828701620000fe565b9150509250925092565b608051610cc262000186600039600081816102ff01526103270152610cc26000f3fe608060405234801561001057600080fd5b50600436106101515760003560e01c80638ea98117116100cd578063e0c8628911610081578063ea7b4f7711610066578063ea7b4f77146102c5578063eed8e1ee146102d8578063ef7525b5146102e157600080fd5b8063e0c86289146102b4578063e89e106a146102bc57600080fd5b8063a2596a6a116100b2578063a2596a6a14610264578063b0fb162f1461027e578063bff9e65f146102a157600080fd5b80638ea981171461023e578063985447101461025157600080fd5b8063265f01731161012457806361728f391161010957806361728f39146102025780638824f5a71461020b5780638da5cb5b1461021e57600080fd5b8063265f0173146101d957806342619f66146101ec57600080fd5b806309c1ba2e146101565780630a009097146101875780631fe543e3146101a757806324f74697146101bc575b600080fd5b60005461017190600160a01b900467ffffffffffffffff1681565b60405161017e919061081a565b60405180910390f35b60005461019a906001600160a01b031681565b60405161017e919061085e565b6101ba6101b5366004610994565b6102f4565b005b6002546101cc9063ffffffff1681565b60405161017e91906109f8565b6101ba6101e7366004610a1a565b610391565b6101f560035481565b60405161017e9190610a41565b6101f560015481565b6101ba610219366004610a64565b6103ff565b600554610231906001600160a01b031681565b60405161017e9190610a8e565b6101ba61024c366004610a1a565b610462565b6101ba61025f366004610a9c565b6104d0565b6002546101cc906601000000000000900463ffffffff1681565b60025461029490640100000000900461ffff1681565b60405161017e9190610ac7565b600754610231906001600160a01b031681565b6101ba610514565b6101f560045481565b6101ba6102d3366004610af0565b610657565b6101f560065481565b6101ba6102ef366004610b28565b6106d8565b336001600160a01b037f0000000000000000000000000000000000000000000000000000000000000000161461038357337f00000000000000000000000000000000000000000000000000000000000000006040517f1cf993f400000000000000000000000000000000000000000000000000000000815260040161037a929190610b49565b60405180910390fd5b61038d8282610743565b5050565b6005546001600160a01b03163314806103b457506007546001600160a01b031633145b6103d05760405162461bcd60e51b815260040161037a90610b6b565b6007805473ffffffffffffffffffffffffffffffffffffffff19166001600160a01b0392909216919091179055565b6005546001600160a01b031633148061042257506007546001600160a01b031633145b61043e5760405162461bcd60e51b815260040161037a90610b6b565b6002805461ffff9092166401000000000265ffff0000000019909216919091179055565b6005546001600160a01b031633148061048557506007546001600160a01b031633145b6104a15760405162461bcd60e51b815260040161037a90610b6b565b6000805473ffffffffffffffffffffffffffffffffffffffff19166001600160a01b0392909216919091179055565b6005546001600160a01b03163314806104f357506007546001600160a01b031633145b61050f5760405162461bcd60e51b815260040161037a90610b6b565b600155565b6005546001600160a01b031633148061053757506007546001600160a01b031633145b6105535760405162461bcd60e51b815260040161037a90610b6b565b6000546001546002546040517f5d3b1d300000000000000000000000000000000000000000000000000000000081526001600160a01b03841693635d3b1d30936105d7939092600160a01b90920467ffffffffffffffff1691640100000000820461ffff169163ffffffff8082169266010000000000009092041690600401610ba6565b6020604051808303816000875af11580156105f6573d6000803e3d6000fd5b505050506040513d601f19601f8201168201806040525081019061061a9190610bfd565b60048190556040517f266c84dd4be4409a1875fe8504433bb6b885408c1f5b34e8ecae604804927ba49161064d91610a41565b60405180910390a1565b6005546001600160a01b031633148061067a57506007546001600160a01b031633145b6106965760405162461bcd60e51b815260040161037a90610b6b565b6000805467ffffffffffffffff909216600160a01b027fffffffff0000000000000000ffffffffffffffffffffffffffffffffffffffff909216919091179055565b6005546001600160a01b03163314806106fb57506007546001600160a01b031633145b6107175760405162461bcd60e51b815260040161037a90610b6b565b6002805463ffffffff90921666010000000000000269ffffffff00000000000019909216919091179055565b6127108160008151811061075957610759610c1e565b602002602001015161076b9190610c4a565b61077790612710610c74565b600355600754604080517f6be4097c00000000000000000000000000000000000000000000000000000000815290516001600160a01b0390921691636be4097c916004808201926020929091908290030181865afa1580156107dd573d6000803e3d6000fd5b505050506040513d601f19601f820116820180604052508101906108019190610bfd565b6006555050565b67ffffffffffffffff81165b82525050565b602081016108288284610808565b92915050565b60006001600160a01b038216610828565b60006108288261082e565b60006108288261083f565b6108148161084a565b602081016108288284610855565b805b811461087957600080fd5b50565b80356108288161086c565b634e487b7160e01b600052604160045260246000fd5b601f19601f830116810181811067ffffffffffffffff821117156108c3576108c3610887565b6040525050565b60006108d560405190565b90506108e1828261089d565b919050565b600067ffffffffffffffff82111561090057610900610887565b5060209081020190565b600061091d610918846108e6565b6108ca565b8381529050602080820190840283018581111561093c5761093c600080fd5b835b8181101561095e57610950878261087c565b83526020928301920161093e565b5050509392505050565b600082601f83011261097c5761097c600080fd5b813561098c84826020860161090a565b949350505050565b600080604083850312156109aa576109aa600080fd5b60006109b6858561087c565b925050602083013567ffffffffffffffff8111156109d6576109d6600080fd5b6109e285828601610968565b9150509250929050565b63ffffffff8116610814565b6020810161082882846109ec565b61086e8161082e565b803561082881610a06565b600060208284031215610a2f57610a2f600080fd5b600061098c8484610a0f565b80610814565b602081016108288284610a3b565b61ffff811661086e565b803561082881610a4f565b600060208284031215610a7957610a79600080fd5b600061098c8484610a59565b6108148161082e565b602081016108288284610a85565b600060208284031215610ab157610ab1600080fd5b600061098c848461087c565b61ffff8116610814565b602081016108288284610abd565b67ffffffffffffffff811661086e565b803561082881610ad5565b600060208284031215610b0557610b05600080fd5b600061098c8484610ae5565b63ffffffff811661086e565b803561082881610b11565b600060208284031215610b3d57610b3d600080fd5b600061098c8484610b1d565b60408101610b578285610a85565b610b646020830184610a85565b9392505050565b6020808252810161082881601581527f4f6e6c79206f776e6572206f72206c6f74746572790000000000000000000000602082015260400190565b60a08101610bb48288610a3b565b610bc16020830187610808565b610bce6040830186610abd565b610bdb60608301856109ec565b610be860808301846109ec565b9695505050505050565b80516108288161086c565b600060208284031215610c1257610c12600080fd5b600061098c8484610bf2565b634e487b7160e01b600052603260045260246000fd5b634e487b7160e01b600052601260045260246000fd5b600082610c5957610c59610c34565b500690565b634e487b7160e01b600052601160045260246000fd5b60008219821115610c8757610c87610c5e565b50019056fea2646970667358221220ce374707c4304d60f8582106fa77f057921bd5ad0ef6a4d88f5c95aaa0c439bd64736f6c634300080d0033",
  "devdoc": {
    "kind": "dev",
    "methods": {},
    "version": 1
  },
  "userdoc": {
    "kind": "user",
    "methods": {},
    "version": 1
  },
  "storageLayout": {
    "storage": [
      {
        "astId": 26514,
        "contract": "contracts/lucky-box/RandomNumberGeneratorV2.sol:RandomNumberGeneratorV2",
        "label": "coordinator",
        "offset": 0,
        "slot": "0",
        "type": "t_contract(VRFCoordinatorV2Interface)1560"
      },
      {
        "astId": 26516,
        "contract": "contracts/lucky-box/RandomNumberGeneratorV2.sol:RandomNumberGeneratorV2",
        "label": "subscriptionId",
        "offset": 20,
        "slot": "0",
        "type": "t_uint64"
      },
      {
        "astId": 26518,
        "contract": "contracts/lucky-box/RandomNumberGeneratorV2.sol:RandomNumberGeneratorV2",
        "label": "keyHash",
        "offset": 0,
        "slot": "1",
        "type": "t_bytes32"
      },
      {
        "astId": 26521,
        "contract": "contracts/lucky-box/RandomNumberGeneratorV2.sol:RandomNumberGeneratorV2",
        "label": "callbackGasLimit",
        "offset": 0,
        "slot": "2",
        "type": "t_uint32"
      },
      {
        "astId": 26524,
        "contract": "contracts/lucky-box/RandomNumberGeneratorV2.sol:RandomNumberGeneratorV2",
        "label": "requestConfirmations",
        "offset": 4,
        "slot": "2",
        "type": "t_uint16"
      },
      {
        "astId": 26527,
        "contract": "contracts/lucky-box/RandomNumberGeneratorV2.sol:RandomNumberGeneratorV2",
        "label": "wordsPerTime",
        "offset": 6,
        "slot": "2",
        "type": "t_uint32"
      },
      {
        "astId": 26529,
        "contract": "contracts/lucky-box/RandomNumberGeneratorV2.sol:RandomNumberGeneratorV2",
        "label": "randomResult",
        "offset": 0,
        "slot": "3",
        "type": "t_uint256"
      },
      {
        "astId": 26531,
        "contract": "contracts/lucky-box/RandomNumberGeneratorV2.sol:RandomNumberGeneratorV2",
        "label": "s_requestId",
        "offset": 0,
        "slot": "4",
        "type": "t_uint256"
      },
      {
        "astId": 26533,
        "contract": "contracts/lucky-box/RandomNumberGeneratorV2.sol:RandomNumberGeneratorV2",
        "label": "owner",
        "offset": 0,
        "slot": "5",
        "type": "t_address"
      },
      {
        "astId": 26535,
        "contract": "contracts/lucky-box/RandomNumberGeneratorV2.sol:RandomNumberGeneratorV2",
        "label": "latestLotteryId",
        "offset": 0,
        "slot": "6",
        "type": "t_uint256"
      },
      {
        "astId": 26537,
        "contract": "contracts/lucky-box/RandomNumberGeneratorV2.sol:RandomNumberGeneratorV2",
        "label": "degisLottery",
        "offset": 0,
        "slot": "7",
        "type": "t_address"
      }
    ],
    "types": {
      "t_address": {
        "encoding": "inplace",
        "label": "address",
        "numberOfBytes": "20"
      },
      "t_bytes32": {
        "encoding": "inplace",
        "label": "bytes32",
        "numberOfBytes": "32"
      },
      "t_contract(VRFCoordinatorV2Interface)1560": {
        "encoding": "inplace",
        "label": "contract VRFCoordinatorV2Interface",
        "numberOfBytes": "20"
      },
      "t_uint16": {
        "encoding": "inplace",
        "label": "uint16",
        "numberOfBytes": "2"
      },
      "t_uint256": {
        "encoding": "inplace",
        "label": "uint256",
        "numberOfBytes": "32"
      },
      "t_uint32": {
        "encoding": "inplace",
        "label": "uint32",
        "numberOfBytes": "4"
      },
      "t_uint64": {
        "encoding": "inplace",
        "label": "uint64",
        "numberOfBytes": "8"
      }
    }
  }
}