{
  "address": "0x955Eaeb3F882153802518F7241d27FC0451bb0d9",
  "abi": [
    {
      "anonymous": false,
      "inputs": [
        {
          "indexed": false,
          "internalType": "address",
          "name": "stablecoin",
          "type": "address"
        }
      ],
      "name": "AddStablecoin",
      "type": "event"
    },
    {
      "anonymous": false,
      "inputs": [
        {
          "indexed": true,
          "internalType": "address",
          "name": "owner",
          "type": "address"
        },
        {
          "indexed": true,
          "internalType": "address",
          "name": "spender",
          "type": "address"
        },
        {
          "indexed": false,
          "internalType": "uint256",
          "name": "value",
          "type": "uint256"
        }
      ],
      "name": "Approval",
      "type": "event"
    },
    {
      "anonymous": false,
      "inputs": [
        {
          "indexed": true,
          "internalType": "address",
          "name": "user",
          "type": "address"
        },
        {
          "indexed": true,
          "internalType": "address",
          "name": "stablecoin",
          "type": "address"
        },
        {
          "indexed": false,
          "internalType": "uint256",
          "name": "inAmount",
          "type": "uint256"
        },
        {
          "indexed": false,
          "internalType": "uint256",
          "name": "outAmount",
          "type": "uint256"
        }
      ],
      "name": "Deposit",
      "type": "event"
    },
    {
      "anonymous": false,
      "inputs": [
        {
          "indexed": true,
          "internalType": "address",
          "name": "previousOwner",
          "type": "address"
        },
        {
          "indexed": true,
          "internalType": "address",
          "name": "newOwner",
          "type": "address"
        }
      ],
      "name": "OwnershipTransferred",
      "type": "event"
    },
    {
      "anonymous": false,
      "inputs": [
        {
          "indexed": true,
          "internalType": "address",
          "name": "from",
          "type": "address"
        },
        {
          "indexed": true,
          "internalType": "address",
          "name": "to",
          "type": "address"
        },
        {
          "indexed": false,
          "internalType": "uint256",
          "name": "value",
          "type": "uint256"
        }
      ],
      "name": "Transfer",
      "type": "event"
    },
    {
      "anonymous": false,
      "inputs": [
        {
          "indexed": true,
          "internalType": "address",
          "name": "user",
          "type": "address"
        },
        {
          "indexed": false,
          "internalType": "uint256",
          "name": "amount",
          "type": "uint256"
        }
      ],
      "name": "Withdraw",
      "type": "event"
    },
    {
      "inputs": [],
      "name": "CURVE_SWAP",
      "outputs": [
        {
          "internalType": "uint256",
          "name": "",
          "type": "uint256"
        }
      ],
      "stateMutability": "view",
      "type": "function"
    },
    {
      "inputs": [],
      "name": "CURVE_YUSD",
      "outputs": [
        {
          "internalType": "address",
          "name": "",
          "type": "address"
        }
      ],
      "stateMutability": "view",
      "type": "function"
    },
    {
      "inputs": [],
      "name": "DAIe",
      "outputs": [
        {
          "internalType": "address",
          "name": "",
          "type": "address"
        }
      ],
      "stateMutability": "view",
      "type": "function"
    },
    {
      "inputs": [],
      "name": "PLATYPUS_SWAP",
      "outputs": [
        {
          "internalType": "uint256",
          "name": "",
          "type": "uint256"
        }
      ],
      "stateMutability": "view",
      "type": "function"
    },
    {
      "inputs": [],
      "name": "PTP_MAIN",
      "outputs": [
        {
          "internalType": "address",
          "name": "",
          "type": "address"
        }
      ],
      "stateMutability": "view",
      "type": "function"
    },
    {
      "inputs": [],
      "name": "USDC",
      "outputs": [
        {
          "internalType": "address",
          "name": "",
          "type": "address"
        }
      ],
      "stateMutability": "view",
      "type": "function"
    },
    {
      "inputs": [],
      "name": "USDCe",
      "outputs": [
        {
          "internalType": "address",
          "name": "",
          "type": "address"
        }
      ],
      "stateMutability": "view",
      "type": "function"
    },
    {
      "inputs": [],
      "name": "USDT",
      "outputs": [
        {
          "internalType": "address",
          "name": "",
          "type": "address"
        }
      ],
      "stateMutability": "view",
      "type": "function"
    },
    {
      "inputs": [],
      "name": "USDTe",
      "outputs": [
        {
          "internalType": "address",
          "name": "",
          "type": "address"
        }
      ],
      "stateMutability": "view",
      "type": "function"
    },
    {
      "inputs": [],
      "name": "YUSD",
      "outputs": [
        {
          "internalType": "address",
          "name": "",
          "type": "address"
        }
      ],
      "stateMutability": "view",
      "type": "function"
    },
    {
      "inputs": [
        {
          "internalType": "address",
          "name": "_pool",
          "type": "address"
        },
        {
          "internalType": "address[]",
          "name": "_tokens",
          "type": "address[]"
        }
      ],
      "name": "addCurvePool",
      "outputs": [],
      "stateMutability": "nonpayable",
      "type": "function"
    },
    {
      "inputs": [
        {
          "internalType": "address",
          "name": "_stablecoin",
          "type": "address"
        }
      ],
      "name": "addSupportedStablecoin",
      "outputs": [],
      "stateMutability": "nonpayable",
      "type": "function"
    },
    {
      "inputs": [
        {
          "internalType": "address",
          "name": "owner",
          "type": "address"
        },
        {
          "internalType": "address",
          "name": "spender",
          "type": "address"
        }
      ],
      "name": "allowance",
      "outputs": [
        {
          "internalType": "uint256",
          "name": "",
          "type": "uint256"
        }
      ],
      "stateMutability": "view",
      "type": "function"
    },
    {
      "inputs": [
        {
          "internalType": "address",
          "name": "spender",
          "type": "address"
        },
        {
          "internalType": "uint256",
          "name": "amount",
          "type": "uint256"
        }
      ],
      "name": "approve",
      "outputs": [
        {
          "internalType": "bool",
          "name": "",
          "type": "bool"
        }
      ],
      "stateMutability": "nonpayable",
      "type": "function"
    },
    {
      "inputs": [
        {
          "internalType": "address",
          "name": "_token",
          "type": "address"
        },
        {
          "internalType": "address",
          "name": "_contract",
          "type": "address"
        }
      ],
      "name": "approveStablecoin",
      "outputs": [],
      "stateMutability": "nonpayable",
      "type": "function"
    },
    {
      "inputs": [
        {
          "internalType": "address",
          "name": "account",
          "type": "address"
        }
      ],
      "name": "balanceOf",
      "outputs": [
        {
          "internalType": "uint256",
          "name": "",
          "type": "uint256"
        }
      ],
      "stateMutability": "view",
      "type": "function"
    },
    {
      "inputs": [
        {
          "internalType": "address",
          "name": "",
          "type": "address"
        },
        {
          "internalType": "address",
          "name": "",
          "type": "address"
        }
      ],
      "name": "curvePoolTokenIndex",
      "outputs": [
        {
          "internalType": "int128",
          "name": "",
          "type": "int128"
        }
      ],
      "stateMutability": "view",
      "type": "function"
    },
    {
      "inputs": [],
      "name": "decimals",
      "outputs": [
        {
          "internalType": "uint8",
          "name": "",
          "type": "uint8"
        }
      ],
      "stateMutability": "pure",
      "type": "function"
    },
    {
      "inputs": [
        {
          "internalType": "address",
          "name": "spender",
          "type": "address"
        },
        {
          "internalType": "uint256",
          "name": "subtractedValue",
          "type": "uint256"
        }
      ],
      "name": "decreaseAllowance",
      "outputs": [
        {
          "internalType": "bool",
          "name": "",
          "type": "bool"
        }
      ],
      "stateMutability": "nonpayable",
      "type": "function"
    },
    {
      "inputs": [
        {
          "internalType": "uint256",
          "name": "_type",
          "type": "uint256"
        },
        {
          "internalType": "address",
          "name": "_stablecoin",
          "type": "address"
        },
        {
          "internalType": "uint256",
          "name": "_amount",
          "type": "uint256"
        },
        {
          "internalType": "uint256",
          "name": "_minAmount",
          "type": "uint256"
        }
      ],
      "name": "deposit",
      "outputs": [],
      "stateMutability": "nonpayable",
      "type": "function"
    },
    {
      "inputs": [
        {
          "internalType": "address",
          "name": "spender",
          "type": "address"
        },
        {
          "internalType": "uint256",
          "name": "addedValue",
          "type": "uint256"
        }
      ],
      "name": "increaseAllowance",
      "outputs": [
        {
          "internalType": "bool",
          "name": "",
          "type": "bool"
        }
      ],
      "stateMutability": "nonpayable",
      "type": "function"
    },
    {
      "inputs": [],
      "name": "initialize",
      "outputs": [],
      "stateMutability": "nonpayable",
      "type": "function"
    },
    {
      "inputs": [],
      "name": "name",
      "outputs": [
        {
          "internalType": "string",
          "name": "",
          "type": "string"
        }
      ],
      "stateMutability": "view",
      "type": "function"
    },
    {
      "inputs": [],
      "name": "owner",
      "outputs": [
        {
          "internalType": "address",
          "name": "",
          "type": "address"
        }
      ],
      "stateMutability": "view",
      "type": "function"
    },
    {
      "inputs": [
        {
          "internalType": "string",
          "name": "",
          "type": "string"
        }
      ],
      "name": "pools",
      "outputs": [
        {
          "internalType": "address",
          "name": "",
          "type": "address"
        }
      ],
      "stateMutability": "view",
      "type": "function"
    },
    {
      "inputs": [],
      "name": "renounceOwnership",
      "outputs": [],
      "stateMutability": "nonpayable",
      "type": "function"
    },
    {
      "inputs": [
        {
          "internalType": "bool",
          "name": "_isDeposit",
          "type": "bool"
        },
        {
          "internalType": "address",
          "name": "_token",
          "type": "address"
        },
        {
          "internalType": "address",
          "name": "_pool",
          "type": "address"
        }
      ],
      "name": "setTokenToPool",
      "outputs": [],
      "stateMutability": "nonpayable",
      "type": "function"
    },
    {
      "inputs": [
        {
          "internalType": "address",
          "name": "",
          "type": "address"
        }
      ],
      "name": "supportedStablecoin",
      "outputs": [
        {
          "internalType": "bool",
          "name": "",
          "type": "bool"
        }
      ],
      "stateMutability": "view",
      "type": "function"
    },
    {
      "inputs": [],
      "name": "symbol",
      "outputs": [
        {
          "internalType": "string",
          "name": "",
          "type": "string"
        }
      ],
      "stateMutability": "view",
      "type": "function"
    },
    {
      "inputs": [
        {
          "internalType": "address",
          "name": "",
          "type": "address"
        }
      ],
      "name": "tokenToPoolForDeposit",
      "outputs": [
        {
          "internalType": "address",
          "name": "",
          "type": "address"
        }
      ],
      "stateMutability": "view",
      "type": "function"
    },
    {
      "inputs": [
        {
          "internalType": "address",
          "name": "",
          "type": "address"
        }
      ],
      "name": "tokenToPoolForWithdraw",
      "outputs": [
        {
          "internalType": "address",
          "name": "",
          "type": "address"
        }
      ],
      "stateMutability": "view",
      "type": "function"
    },
    {
      "inputs": [],
      "name": "totalSupply",
      "outputs": [
        {
          "internalType": "uint256",
          "name": "",
          "type": "uint256"
        }
      ],
      "stateMutability": "view",
      "type": "function"
    },
    {
      "inputs": [
        {
          "internalType": "address",
          "name": "to",
          "type": "address"
        },
        {
          "internalType": "uint256",
          "name": "amount",
          "type": "uint256"
        }
      ],
      "name": "transfer",
      "outputs": [
        {
          "internalType": "bool",
          "name": "",
          "type": "bool"
        }
      ],
      "stateMutability": "nonpayable",
      "type": "function"
    },
    {
      "inputs": [
        {
          "internalType": "address",
          "name": "from",
          "type": "address"
        },
        {
          "internalType": "address",
          "name": "to",
          "type": "address"
        },
        {
          "internalType": "uint256",
          "name": "amount",
          "type": "uint256"
        }
      ],
      "name": "transferFrom",
      "outputs": [
        {
          "internalType": "bool",
          "name": "",
          "type": "bool"
        }
      ],
      "stateMutability": "nonpayable",
      "type": "function"
    },
    {
      "inputs": [
        {
          "internalType": "address",
          "name": "newOwner",
          "type": "address"
        }
      ],
      "name": "transferOwnership",
      "outputs": [],
      "stateMutability": "nonpayable",
      "type": "function"
    },
    {
      "inputs": [
        {
          "internalType": "address",
          "name": "_token",
          "type": "address"
        },
        {
          "internalType": "address",
          "name": "_contract",
          "type": "address"
        }
      ],
      "name": "unapprove",
      "outputs": [],
      "stateMutability": "nonpayable",
      "type": "function"
    },
    {
      "inputs": [
        {
          "internalType": "uint256",
          "name": "_type",
          "type": "uint256"
        },
        {
          "internalType": "address",
          "name": "_stablecoin",
          "type": "address"
        },
        {
          "internalType": "uint256",
          "name": "_amount",
          "type": "uint256"
        },
        {
          "internalType": "uint256",
          "name": "_minAmount",
          "type": "uint256"
        }
      ],
      "name": "withdraw",
      "outputs": [],
      "stateMutability": "nonpayable",
      "type": "function"
    },
    {
      "inputs": [],
      "name": "withdrawAll",
      "outputs": [],
      "stateMutability": "nonpayable",
      "type": "function"
    }
  ],
  "transactionHash": "0x59e04765fc5af383e7752bc0df64d3b95c9cf9b6db6a5dd875ec0d052b2ce507",
  "args": [],
  "numDeployments": 2,
  "solcInputHash": "73b483907c3783065d2730b6f153cf20",
  "bytecode": "0x608060405234801561001057600080fd5b50612ef7806100206000396000f3fe608060405234801561001057600080fd5b50600436106102925760003560e01c806389a3027111610160578063a4366be2116100d8578063c54e44eb1161008c578063dd62ed3e11610071578063dd62ed3e146105e8578063e2aa855914610621578063f2fde38b1461063457600080fd5b8063c54e44eb146105a4578063d754bfd5146105bf57600080fd5b8063a9059cbb116100bd578063a9059cbb14610563578063b5add05a14610576578063b70b23a31461058957600080fd5b8063a4366be21461053d578063a457c2d71461055057600080fd5b80638ffbfd9a1161012f578063962889911161011457806396288991146104db5780639d6f17a8146104ee5780639df3fe241461052257600080fd5b80638ffbfd9a146104b857806395d89b41146104d357600080fd5b806389a302711461045657806389ae8120146104715780638a4d786b1461048c5780638da5cb5b146104a757600080fd5b8063561414bb1161020e57806370a08231116101c25780638129fc1c116101a75780638129fc1c14610433578063853828b61461043b578063890f43741461044357600080fd5b806370a0823114610402578063715018a61461042b57600080fd5b80635cb3b14f116101f35780635cb3b14f146103b15780636190cefb146103d45780636f0372af146103ef57600080fd5b8063561414bb1461036e578063584400271461037657600080fd5b806323b872dd11610265578063313ce5671161024a578063313ce5671461034457806339509351146103535780633e7c0e8b1461036657600080fd5b806323b872dd1461031c578063245328671461032f57600080fd5b806306fdde0314610297578063095ea7b3146102b55780631727e642146102d557806318160ddd1461030b575b600080fd5b61029f610647565b6040516102ac9190612140565b60405180910390f35b6102c86102c3366004612192565b6106d9565b6040516102ac91906121d9565b6102fe6102e33660046121e7565b6099602052600090815260409020546001600160a01b031681565b6040516102ac9190612211565b6035545b6040516102ac9190612225565b6102c861032a366004612233565b6106f3565b61034261033d3660046121e7565b610719565b005b60066040516102ac919061228c565b6102c8610361366004612192565b6107aa565b61030f600181565b61030f600281565b6103a461038436600461229a565b609b602090815260009283526040808420909152908252902054600f0b81565b6040516102ac91906122d7565b6102c86103bf3660046121e7565b60976020526000908152604090205460ff1681565b6102fe73111111111111ed1d73f860f57b2798b683f2d32581565b6103426103fd3660046122e5565b6107e9565b61030f6104103660046121e7565b6001600160a01b031660009081526033602052604090205490565b610342610965565b61034261099b565b610342611238565b61034261045136600461235c565b611267565b6102fe73b97ef9ef8734c71904d8002f8b6bc66dd9c48a6e81565b6102fe731da20ac34187b2d9c74f729b85acb225d3341b2581565b6102fe73a7d7079b0fead91f3e65f86e8915cb59c1a4c66481565b6065546001600160a01b03166102fe565b6102fe7366357dcace80431aee0a7507e2e361b7e240237081565b61029f611314565b6103426104e936600461229a565b611323565b6102fe6104fc36600461249d565b80516020818301810180516098825292820191909301209152546001600160a01b031681565b6102fe73d586e7f844cea2f87f50152665bcbc2c279d8d7081565b61034261054b36600461252a565b6113bf565b6102c861055e366004612192565b61148e565b6102c8610571366004612192565b6114ed565b61034261058436600461229a565b6114fb565b6102fe73c7198437980c041c805a1edcba50c1ce5db9511881565b6102fe739702230a8ea53601f5cd2dc00fdbc13d4df4a8c781565b6102fe6105cd3660046121e7565b609a602052600090815260409020546001600160a01b031681565b61030f6105f636600461229a565b6001600160a01b03918216600090815260346020908152604080832093909416825291909152205490565b61034261062f3660046122e5565b611555565b6103426106423660046121e7565b61166d565b6060603680546106569061259c565b80601f01602080910402602001604051908101604052809291908181526020018280546106829061259c565b80156106cf5780601f106106a4576101008083540402835291602001916106cf565b820191906000526020600020905b8154815290600101906020018083116106b257829003601f168201915b5050505050905090565b6000336106e78185856116c6565b60019150505b92915050565b60003361070185828561177a565b61070c8585856117dc565b60019150505b9392505050565b6065546001600160a01b0316331461074c5760405162461bcd60e51b8152600401610743906125fa565b60405180910390fd5b6001600160a01b03811660009081526097602052604090819020805460ff19166001179055517f05df81582f58ed21700c8e232f443af6b7255b04e4a2f3aa130391b926f656e49061079f908390612211565b60405180910390a150565b3360008181526034602090815260408083206001600160a01b03871684529091528120549091906106e790829086906107e4908790612620565b6116c6565b6001600160a01b03831660009081526097602052604090205460ff166108215760405162461bcd60e51b81526004016107439061266a565b6108366001600160a01b0384163330856118ef565b60006001600160a01b03841673b97ef9ef8734c71904d8002f8b6bc66dd9c48a6e1461090457600185036108a8576001600160a01b038085166000908152609960205260409020546108a191168573b97ef9ef8734c71904d8002f8b6bc66dd9c48a6e868630611974565b9050610907565b600285036108ec576001600160a01b038085166000908152609960205260409020546108a191168573b97ef9ef8734c71904d8002f8b6bc66dd9c48a6e8686611a04565b60405162461bcd60e51b8152600401610743906126ac565b50815b6109113382611acf565b836001600160a01b0316336001600160a01b03167fdcbc1c05240f31ff3ad067ef1ee35ce4997762752e3a095284754544f4c709d785846040516109569291906126bc565b60405180910390a35050505050565b6065546001600160a01b0316331461098f5760405162461bcd60e51b8152600401610743906125fa565b6109996000611b84565b565b600054610100900460ff166109b65760005460ff16156109ba565b303b155b6109d65760405162461bcd60e51b815260040161074390612731565b600054610100900460ff161580156109f8576000805461ffff19166101011790555b610a6c6040518060400160405280600c81526020017f536869656c6420546f6b656e00000000000000000000000000000000000000008152506040518060400160405280600381526020017f5348440000000000000000000000000000000000000000000000000000000000815250611be3565b610a74611c14565b60976020527f7548b632efee72df22594bfd49708315d9850b8d32c2b2dc843b2c21368cfccc8054600160ff1991821681179092557f69e43f24f536fd3d84c8bd37ce68b71464fab1c98015d9bdf125ad046cb14da780548216831790557f91d25400d13b5f4a102fdf4d72274fe271a68710a12419af39642877ebd3de8480548216831790557fb744f339a70c7ed26a36bf7be73dfbd530f22e2cd092833028db0829e2399d6180548216831790557fbf5e33d1e23d27b431f50a41a2b3c6addcaa9043fb2180af99dc5897e84eeb3a805482168317905573111111111111ed1d73f860f57b2798b683f2d3256000527f3382a9b3c632d4939bce307c08e7910babe4d0c8a4cd7d593e480cd04f5e27208054909116909117905560405163095ea7b360e01b815273b97ef9ef8734c71904d8002f8b6bc66dd9c48a6e9063095ea7b390610bdf907366357dcace80431aee0a7507e2e361b7e24023709060001990600401612741565b6020604051808303816000875af1158015610bfe573d6000803e3d6000fd5b505050506040513d601f19601f82011682018060405250810190610c22919061275a565b5060405163095ea7b360e01b8152739702230a8ea53601f5cd2dc00fdbc13d4df4a8c79063095ea7b390610c72907366357dcace80431aee0a7507e2e361b7e24023709060001990600401612741565b6020604051808303816000875af1158015610c91573d6000803e3d6000fd5b505050506040513d601f19601f82011682018060405250810190610cb5919061275a565b5060405163095ea7b360e01b815273c7198437980c041c805a1edcba50c1ce5db951189063095ea7b390610d05907366357dcace80431aee0a7507e2e361b7e24023709060001990600401612741565b6020604051808303816000875af1158015610d24573d6000803e3d6000fd5b505050506040513d601f19601f82011682018060405250810190610d48919061275a565b5060405163095ea7b360e01b815273a7d7079b0fead91f3e65f86e8915cb59c1a4c6649063095ea7b390610d98907366357dcace80431aee0a7507e2e361b7e24023709060001990600401612741565b6020604051808303816000875af1158015610db7573d6000803e3d6000fd5b505050506040513d601f19601f82011682018060405250810190610ddb919061275a565b5060405163095ea7b360e01b815273d586e7f844cea2f87f50152665bcbc2c279d8d709063095ea7b390610e2b907366357dcace80431aee0a7507e2e361b7e24023709060001990600401612741565b6020604051808303816000875af1158015610e4a573d6000803e3d6000fd5b505050506040513d601f19601f82011682018060405250810190610e6e919061275a565b5060405163095ea7b360e01b815273111111111111ed1d73f860f57b2798b683f2d3259063095ea7b390610ebe90731da20ac34187b2d9c74f729b85acb225d3341b259060001990600401612741565b6020604051808303816000875af1158015610edd573d6000803e3d6000fd5b505050506040513d601f19601f82011682018060405250810190610f01919061275a565b5060405163095ea7b360e01b815273b97ef9ef8734c71904d8002f8b6bc66dd9c48a6e9063095ea7b390610f5190731da20ac34187b2d9c74f729b85acb225d3341b259060001990600401612741565b6020604051808303816000875af1158015610f70573d6000803e3d6000fd5b505050506040513d601f19601f82011682018060405250810190610f94919061275a565b507f3cafb062781f96e7a09ff169398f8d6e0f8136019401e75bbe6583c7a2c0df4280546fffffffffffffffffffffffffffffffff199081169091557fee7a42d7374c0cca07ab7253a23b874b29c33b4ca77bb516e4fa7c7ac9b91ec28054821660011790557f90fadaade27211c3b60d59105fc105ab0a8588d5820eec1fd3e867bbd81d2389805490911660021790557ff9b3e54774d0641eb3e2e7278fc2a81eab7d478fa26cd7f3e580a344c94ac4a2805473ffffffffffffffffffffffffffffffffffffffff19908116731da20ac34187b2d9c74f729b85acb225d3341b259081179092557faf6f47f207b81b1c9ff286d1ec2df0d48e30169885791772048c7bb19a616e9b805482169092179091557f0a8aec788de3d32dd8c961cc08e137a5d0f0bdca9a20d28138b42e480025f0e6805482167366357dcace80431aee0a7507e2e361b7e24023709081179091557f34581a2a0d1f4afc7bedf346da9d0252d6bd3318265137e794dab7cac558313b80548316821790557fa2c186a3bc309cecfe8492e086be4d948a1819e1207d31aeecb29dd99129697780548316821790557f391265a8976e0e46e3a04a21395ddc41f5ae28fedef5461bb7a48d398c392d0880548316821790557f8a3f03a5a9aaf1ce44e5469b665d81fd96086d086a9154f10aa3510599fe10e780548316821790557fe78e98982f85277723d21ef70bdf667c3885220521cbf091656d5b0f48f649cf805483168217905573d586e7f844cea2f87f50152665bcbc2c279d8d706000527f340b5defae2788ee2c92ad33faae45fc7f77772ac31857c95806ca33f7f01c548054831682179055609a6020527f2feb349778d25e6c2d4f8973bf457403c9edf3d0ea3bc58461c487d781cefe9780549092161790558015611235576000805461ff00191690555b50565b3360009081526033602052604090205461123573b97ef9ef8734c71904d8002f8b6bc66dd9c48a6e8280611c43565b6065546001600160a01b031633146112915760405162461bcd60e51b8152600401610743906125fa565b82156112d3576001600160a01b039182166000908152609960205260409020805473ffffffffffffffffffffffffffffffffffffffff19169190921617905550565b6001600160a01b038281166000908152609a60205260409020805473ffffffffffffffffffffffffffffffffffffffff19169183169190911790555b505050565b6060603780546106569061259c565b6065546001600160a01b0316331461134d5760405162461bcd60e51b8152600401610743906125fa565b60405163095ea7b360e01b81526001600160a01b0383169063095ea7b39061137c908490600090600401612793565b6020604051808303816000875af115801561139b573d6000803e3d6000fd5b505050506040513d601f19601f8201168201806040525081019061130f919061275a565b6065546001600160a01b031633146113e95760405162461bcd60e51b8152600401610743906125fa565b8060005b81811015611487576001600160a01b0385166000908152609b602052604081208291868684818110611421576114216127ae565b905060200201602081019061143691906121e7565b6001600160a01b03168152602081019190915260400160002080546fffffffffffffffffffffffffffffffff19166fffffffffffffffffffffffffffffffff929092169190911790556001016113ed565b5050505050565b3360008181526034602090815260408083206001600160a01b0387168452909152812054909190838110156114d55760405162461bcd60e51b81526004016107439061281c565b6114e282868684036116c6565b506001949350505050565b6000336106e78185856117dc565b6065546001600160a01b031633146115255760405162461bcd60e51b8152600401610743906125fa565b60405163095ea7b360e01b81526001600160a01b0383169063095ea7b39061137c90849060001990600401612741565b6001600160a01b03831660009081526097602052604090205460ff1661158d5760405162461bcd60e51b81526004016107439061266a565b60007fffffffffffffffffffffffff4681061078cb38e6fb27ffd074943992263b75926001600160a01b038516016115cf576115ca848485611c43565b611487565b6001850361161b576001600160a01b038085166000908152609a6020526040902054611614911673b97ef9ef8734c71904d8002f8b6bc66dd9c48a6e86868630611974565b9050611662565b60028503611662576001600160a01b038085166000908152609a602052604090205461165f911673b97ef9ef8734c71904d8002f8b6bc66dd9c48a6e868686611a04565b90505b611487848285611c43565b6065546001600160a01b031633146116975760405162461bcd60e51b8152600401610743906125fa565b6001600160a01b0381166116bd5760405162461bcd60e51b815260040161074390612884565b61123581611b84565b6001600160a01b0383166116ec5760405162461bcd60e51b8152600401610743906128ec565b6001600160a01b0382166117125760405162461bcd60e51b815260040161074390612954565b6001600160a01b0380841660008181526034602090815260408083209487168084529490915290819020849055517f8c5be1e5ebec7d5bd14f71427d1e84f3dd0314c0f7b2291e5b200ac8c7c3b9259061176d908590612225565b60405180910390a3505050565b6001600160a01b0383811660009081526034602090815260408083209386168352929052205460001981146117d657818110156117c95760405162461bcd60e51b815260040161074390612996565b6117d684848484036116c6565b50505050565b6001600160a01b0383166118025760405162461bcd60e51b8152600401610743906129fe565b6001600160a01b0382166118285760405162461bcd60e51b815260040161074390612a66565b6001600160a01b038316600090815260336020526040902054818110156118615760405162461bcd60e51b815260040161074390612ace565b6001600160a01b03808516600090815260336020526040808220858503905591851681529081208054849290611898908490612620565b92505081905550826001600160a01b0316846001600160a01b03167fddf252ad1be2c89b69c2b068fc378daa952ba7f163c4a11628f55a4df523b3ef846040516118e29190612225565b60405180910390a36117d6565b6117d6846323b872dd60e01b85858560405160240161191093929190612ade565b60408051601f198184030181529190526020810180517bffffffffffffffffffffffffffffffffffffffffffffffffffffffff167fffffffff0000000000000000000000000000000000000000000000000000000090931692909217909152611ca2565b60006001600160a01b038716639908fc8b878787878761199542600a612620565b6040518763ffffffff1660e01b81526004016119b696959493929190612b06565b60408051808303816000875af11580156119d4573d6000803e3d6000fd5b505050506040513d601f19601f820116820180604052508101906119f89190612b60565b50979650505050505050565b6001600160a01b038581166000818152609b6020908152604080832089861684529091528082205493871682528082205490517f3df021240000000000000000000000000000000000000000000000000000000081529193600f90810b9391900b91633df0212490611a8090859085908a908a90600401612b93565b6020604051808303816000875af1158015611a9f573d6000803e3d6000fd5b505050506040513d601f19601f82011682018060405250810190611ac39190612bd1565b98975050505050505050565b6001600160a01b038216611af55760405162461bcd60e51b815260040161074390612c24565b8060356000828254611b079190612620565b90915550506001600160a01b03821660009081526033602052604081208054839290611b34908490612620565b90915550506040516001600160a01b038316906000907fddf252ad1be2c89b69c2b068fc378daa952ba7f163c4a11628f55a4df523b3ef90611b77908590612225565b60405180910390a35b5050565b606580546001600160a01b0383811673ffffffffffffffffffffffffffffffffffffffff19831681179093556040519116919082907f8be0079c531659141344cd1fd0a4f28419497f9722a3daafe3b4186f6b6457e090600090a35050565b600054610100900460ff16611c0a5760405162461bcd60e51b815260040161074390612c8c565b611b808282611d31565b600054610100900460ff16611c3b5760405162461bcd60e51b815260040161074390612c8c565b610999611d7f565b6000611c4f8484611daf565b9050611c5b3383611e50565b336001600160a01b03167f884edad9ce6fa2440d8a54cc123490eb96d2768479d49ff9c7366125a942436482604051611c949190612225565b60405180910390a250505050565b6000611cf7826040518060400160405280602081526020017f5361666545524332303a206c6f772d6c6576656c2063616c6c206661696c6564815250856001600160a01b0316611f219092919063ffffffff16565b80519091501561130f5780806020019051810190611d15919061275a565b61130f5760405162461bcd60e51b815260040161074390612cf4565b600054610100900460ff16611d585760405162461bcd60e51b815260040161074390612c8c565b8151611d6b906036906020850190612049565b50805161130f906037906020840190612049565b600054610100900460ff16611da65760405162461bcd60e51b815260040161074390612c8c565b61099933611b84565b600080836001600160a01b03166370a08231306040518263ffffffff1660e01b8152600401611dde9190612211565b602060405180830381865afa158015611dfb573d6000803e3d6000fd5b505050506040513d601f19601f82011682018060405250810190611e1f9190612bd1565b905082811115611e3157829150611e35565b8091505b611e496001600160a01b0385163384611f38565b5092915050565b6001600160a01b038216611e765760405162461bcd60e51b815260040161074390612d5c565b6001600160a01b03821660009081526033602052604090205481811015611eaf5760405162461bcd60e51b815260040161074390612dc4565b6001600160a01b0383166000908152603360205260408120838303905560358054849290611ede908490612dd4565b90915550506040516000906001600160a01b038516907fddf252ad1be2c89b69c2b068fc378daa952ba7f163c4a11628f55a4df523b3ef9061176d908690612225565b6060611f308484600085611f57565b949350505050565b61130f8363a9059cbb60e01b8484604051602401611910929190612741565b606082471015611f795760405162461bcd60e51b815260040161074390612e43565b843b611f975760405162461bcd60e51b815260040161074390612e85565b600080866001600160a01b03168587604051611fb39190612eb7565b60006040518083038185875af1925050503d8060008114611ff0576040519150601f19603f3d011682016040523d82523d6000602084013e611ff5565b606091505b5091509150612005828286612010565b979650505050505050565b6060831561201f575081610712565b82511561202f5782518084602001fd5b8160405162461bcd60e51b81526004016107439190612140565b8280546120559061259c565b90600052602060002090601f01602090048101928261207757600085556120bd565b82601f1061209057805160ff19168380011785556120bd565b828001600101855582156120bd579182015b828111156120bd5782518255916020019190600101906120a2565b506120c99291506120cd565b5090565b5b808211156120c957600081556001016120ce565b60005b838110156120fd5781810151838201526020016120e5565b838111156117d65750506000910152565b6000612118825190565b80845260208401935061212f8185602086016120e2565b601f01601f19169290920192915050565b60208082528101610712818461210e565b60006001600160a01b0382166106ed565b61216b81612151565b811461123557600080fd5b80356106ed81612162565b8061216b565b80356106ed81612181565b600080604083850312156121a8576121a8600080fd5b60006121b48585612176565b92505060206121c585828601612187565b9150509250929050565b8015155b82525050565b602081016106ed82846121cf565b6000602082840312156121fc576121fc600080fd5b6000611f308484612176565b6121d381612151565b602081016106ed8284612208565b806121d3565b602081016106ed828461221f565b60008060006060848603121561224b5761224b600080fd5b60006122578686612176565b935050602061226886828701612176565b925050604061227986828701612187565b9150509250925092565b60ff81166121d3565b602081016106ed8284612283565b600080604083850312156122b0576122b0600080fd5b60006122bc8585612176565b92505060206121c585828601612176565b6121d381600f0b90565b602081016106ed82846122cd565b600080600080608085870312156122fe576122fe600080fd5b600061230a8787612187565b945050602061231b87828801612176565b935050604061232c87828801612187565b925050606061233d87828801612187565b91505092959194509250565b80151561216b565b80356106ed81612349565b60008060006060848603121561237457612374600080fd5b60006123808686612351565b935050602061239186828701612176565b925050604061227986828701612176565b634e487b7160e01b600052604160045260246000fd5b601f19601f830116810181811067ffffffffffffffff821117156123de576123de6123a2565b6040525050565b60006123f060405190565b90506123fc82826123b8565b919050565b600067ffffffffffffffff82111561241b5761241b6123a2565b601f19601f83011660200192915050565b82818337506000910152565b600061244b61244684612401565b6123e5565b90508281526020810184848401111561246657612466600080fd5b61247184828561242c565b509392505050565b600082601f83011261248d5761248d600080fd5b8135611f30848260208601612438565b6000602082840312156124b2576124b2600080fd5b813567ffffffffffffffff8111156124cc576124cc600080fd5b611f3084828501612479565b60008083601f8401126124ed576124ed600080fd5b50813567ffffffffffffffff81111561250857612508600080fd5b60208301915083602082028301111561252357612523600080fd5b9250929050565b60008060006040848603121561254257612542600080fd5b600061254e8686612176565b935050602084013567ffffffffffffffff81111561256e5761256e600080fd5b61257a868287016124d8565b92509250509250925092565b634e487b7160e01b600052602260045260246000fd5b6002810460018216806125b057607f821691505b6020821081036125c2576125c2612586565b50919050565b60208082527f4f776e61626c653a2063616c6c6572206973206e6f7420746865206f776e657291019081525b60200190565b602080825281016106ed816125c8565b634e487b7160e01b600052601160045260246000fd5b600082198211156126335761263361260a565b500190565b60188152602081017f537461626c65636f696e206e6f7420737570706f727465640000000000000000815290506125f4565b602080825281016106ed81612638565b600c8152602081017f4e6f207377617020706169720000000000000000000000000000000000000000815290506125f4565b602080825281016106ed8161267a565b604081016126ca828561221f565b610712602083018461221f565b602e8152602081017f496e697469616c697a61626c653a20636f6e747261637420697320616c72656181527f647920696e697469616c697a6564000000000000000000000000000000000000602082015290505b60400190565b602080825281016106ed816126d7565b604081016126ca8285612208565b80516106ed81612349565b60006020828403121561276f5761276f600080fd5b6000611f30848461274f565b60006106ed6127878381565b90565b6121d38161277b565b604081016127a18285612208565b610712602083018461278a565b634e487b7160e01b600052603260045260246000fd5b60258152602081017f45524332303a2064656372656173656420616c6c6f77616e63652062656c6f7781527f207a65726f0000000000000000000000000000000000000000000000000000006020820152905061272b565b602080825281016106ed816127c4565b60268152602081017f4f776e61626c653a206e6577206f776e657220697320746865207a65726f206181527f64647265737300000000000000000000000000000000000000000000000000006020820152905061272b565b602080825281016106ed8161282c565b60248152602081017f45524332303a20617070726f76652066726f6d20746865207a65726f2061646481527f72657373000000000000000000000000000000000000000000000000000000006020820152905061272b565b602080825281016106ed81612894565b60228152602081017f45524332303a20617070726f766520746f20746865207a65726f20616464726581527f73730000000000000000000000000000000000000000000000000000000000006020820152905061272b565b602080825281016106ed816128fc565b601d8152602081017f45524332303a20696e73756666696369656e7420616c6c6f77616e6365000000815290506125f4565b602080825281016106ed81612964565b60258152602081017f45524332303a207472616e736665722066726f6d20746865207a65726f20616481527f64726573730000000000000000000000000000000000000000000000000000006020820152905061272b565b602080825281016106ed816129a6565b60238152602081017f45524332303a207472616e7366657220746f20746865207a65726f206164647281527f65737300000000000000000000000000000000000000000000000000000000006020820152905061272b565b602080825281016106ed81612a0e565b60268152602081017f45524332303a207472616e7366657220616d6f756e742065786365656473206281527f616c616e636500000000000000000000000000000000000000000000000000006020820152905061272b565b602080825281016106ed81612a76565b60608101612aec8286612208565b612af96020830185612208565b611f30604083018461221f565b60c08101612b148289612208565b612b216020830188612208565b612b2e604083018761221f565b612b3b606083018661221f565b612b486080830185612208565b61200560a083018461221f565b80516106ed81612181565b60008060408385031215612b7657612b76600080fd5b6000612b828585612b55565b92505060206121c585828601612b55565b60808101612ba182876122cd565b612bae60208301866122cd565b612bbb604083018561221f565b612bc8606083018461221f565b95945050505050565b600060208284031215612be657612be6600080fd5b6000611f308484612b55565b601f8152602081017f45524332303a206d696e7420746f20746865207a65726f206164647265737300815290506125f4565b602080825281016106ed81612bf2565b602b8152602081017f496e697469616c697a61626c653a20636f6e7472616374206973206e6f74206981527f6e697469616c697a696e670000000000000000000000000000000000000000006020820152905061272b565b602080825281016106ed81612c34565b602a8152602081017f5361666545524332303a204552433230206f7065726174696f6e20646964206e81527f6f742073756363656564000000000000000000000000000000000000000000006020820152905061272b565b602080825281016106ed81612c9c565b60218152602081017f45524332303a206275726e2066726f6d20746865207a65726f2061646472657381527f73000000000000000000000000000000000000000000000000000000000000006020820152905061272b565b602080825281016106ed81612d04565b60228152602081017f45524332303a206275726e20616d6f756e7420657863656564732062616c616e81527f63650000000000000000000000000000000000000000000000000000000000006020820152905061272b565b602080825281016106ed81612d6c565b600082821015612de657612de661260a565b500390565b60268152602081017f416464726573733a20696e73756666696369656e742062616c616e636520666f81527f722063616c6c00000000000000000000000000000000000000000000000000006020820152905061272b565b602080825281016106ed81612deb565b601d8152602081017f416464726573733a2063616c6c20746f206e6f6e2d636f6e7472616374000000815290506125f4565b602080825281016106ed81612e53565b6000612e9f825190565b612ead8185602086016120e2565b9290920192915050565b6106ed8183612e9556fea2646970667358221220402614cc58ac1cea637eddbb1d6f047880cf1e9a6238537fdc168eb05a70298e64736f6c634300080d0033",
  "devdoc": {
    "author": "Eric Lee (ylikp.ust@gmail.com)",
    "details": "Users can swap other stablecoins to Shield (actually backed by USDC only)         Shield can be used in NaughtyPrice and future products         When users want to withdraw, their shield tokens will be burned         and USDC will be sent back to them (if no sepecific choice)             other stablecoins will be sent back to them (if have sepecific choice)         Currently, the swap is done inside Platypus & Curve         The stablecoin and its swapping pool should be supported         When deposit, the toToken is USDC, which pool to use depends on tokenToPoolForDeposit(token)         When withdraw, the fromToken is USDC, which pool to use depends on tokenToPoolForWithdraw(token)",
    "kind": "dev",
    "methods": {
      "addCurvePool(address,address[])": {
        "params": {
          "_pool": "Curve pool address",
          "_tokens": "Tokens inside this pool"
        }
      },
      "addSupportedStablecoin(address)": {
        "details": "Set a new supported token address      Only callable by the owner",
        "params": {
          "_stablecoin": "Stablecoin address"
        }
      },
      "allowance(address,address)": {
        "details": "See {IERC20-allowance}."
      },
      "approve(address,uint256)": {
        "details": "See {IERC20-approve}. NOTE: If `amount` is the maximum `uint256`, the allowance is not updated on `transferFrom`. This is semantically equivalent to an infinite approval. Requirements: - `spender` cannot be the zero address."
      },
      "approveStablecoin(address,address)": {
        "params": {
          "_contract": "Contract address to give allowance",
          "_token": "Stablecoin address"
        }
      },
      "balanceOf(address)": {
        "details": "See {IERC20-balanceOf}."
      },
      "decreaseAllowance(address,uint256)": {
        "details": "Atomically decreases the allowance granted to `spender` by the caller. This is an alternative to {approve} that can be used as a mitigation for problems described in {IERC20-approve}. Emits an {Approval} event indicating the updated allowance. Requirements: - `spender` cannot be the zero address. - `spender` must have allowance for the caller of at least `subtractedValue`."
      },
      "deposit(uint256,address,uint256,uint256)": {
        "params": {
          "_amount": "Input stablecoin amount",
          "_minAmount": "Minimum amount output (if need swap)",
          "_stablecoin": "Stablecoin address",
          "_type": "Swap type (1 for PTP, 2 for Curve)"
        }
      },
      "increaseAllowance(address,uint256)": {
        "details": "Atomically increases the allowance granted to `spender` by the caller. This is an alternative to {approve} that can be used as a mitigation for problems described in {IERC20-approve}. Emits an {Approval} event indicating the updated allowance. Requirements: - `spender` cannot be the zero address."
      },
      "name()": {
        "details": "Returns the name of the token."
      },
      "owner()": {
        "details": "Returns the address of the current owner."
      },
      "renounceOwnership()": {
        "details": "Leaves the contract without owner. It will not be possible to call `onlyOwner` functions anymore. Can only be called by the current owner. NOTE: Renouncing ownership will leave the contract without an owner, thereby removing any functionality that is only available to the owner."
      },
      "symbol()": {
        "details": "Returns the symbol of the token, usually a shorter version of the name."
      },
      "totalSupply()": {
        "details": "See {IERC20-totalSupply}."
      },
      "transfer(address,uint256)": {
        "details": "See {IERC20-transfer}. Requirements: - `to` cannot be the zero address. - the caller must have a balance of at least `amount`."
      },
      "transferFrom(address,address,uint256)": {
        "details": "See {IERC20-transferFrom}. Emits an {Approval} event indicating the updated allowance. This is not required by the EIP. See the note at the beginning of {ERC20}. NOTE: Does not update the allowance if the current allowance is the maximum `uint256`. Requirements: - `from` and `to` cannot be the zero address. - `from` must have a balance of at least `amount`. - the caller must have allowance for ``from``'s tokens of at least `amount`."
      },
      "transferOwnership(address)": {
        "details": "Transfers ownership of the contract to a new account (`newOwner`). Can only be called by the current owner."
      },
      "withdraw(uint256,address,uint256,uint256)": {
        "params": {
          "_amount": "Amount of shield to burn",
          "_minAmount": "Minimum amount of stablecoin to withdraw (if need swap)",
          "_stablecoin": "Stablecoin address",
          "_type": "Swap type (use PTP/Curve, which pool)"
        }
      }
    },
    "title": "Shield Token (Derived Stablecoin on Degis)",
    "version": 1
  },
  "userdoc": {
    "kind": "user",
    "methods": {
      "addCurvePool(address,address[])": {
        "notice": "Add new curve pool"
      },
      "addSupportedStablecoin(address)": {
        "notice": "Add new supported stablecoin"
      },
      "approveStablecoin(address,address)": {
        "notice": "Approve a stablecoin for swapping         Call once for each stablecoin"
      },
      "decimals()": {
        "notice": "Shield has 6 decimals"
      },
      "deposit(uint256,address,uint256,uint256)": {
        "notice": "Deposit tokens and mint Shield         If the input is USDC, no swap needed, otherwise, swap to USDC"
      },
      "withdraw(uint256,address,uint256,uint256)": {
        "notice": "Withdraw stablecoins and burn shield"
      },
      "withdrawAll()": {
        "notice": "Withdraw all of a user's balance         This function only returns USDC back         If you want other tokens back, use withdraw()"
      }
    },
    "version": 1
  },
  "storageLayout": {
    "storage": [
      {
        "astId": 2670,
        "contract": "contracts/tokens/Shield.sol:Shield",
        "label": "_initialized",
        "offset": 0,
        "slot": "0",
        "type": "t_bool"
      },
      {
        "astId": 2673,
        "contract": "contracts/tokens/Shield.sol:Shield",
        "label": "_initializing",
        "offset": 1,
        "slot": "0",
        "type": "t_bool"
      },
      {
        "astId": 3907,
        "contract": "contracts/tokens/Shield.sol:Shield",
        "label": "__gap",
        "offset": 0,
        "slot": "1",
        "type": "t_array(t_uint256)50_storage"
      },
      {
        "astId": 2926,
        "contract": "contracts/tokens/Shield.sol:Shield",
        "label": "_balances",
        "offset": 0,
        "slot": "51",
        "type": "t_mapping(t_address,t_uint256)"
      },
      {
        "astId": 2932,
        "contract": "contracts/tokens/Shield.sol:Shield",
        "label": "_allowances",
        "offset": 0,
        "slot": "52",
        "type": "t_mapping(t_address,t_mapping(t_address,t_uint256))"
      },
      {
        "astId": 2934,
        "contract": "contracts/tokens/Shield.sol:Shield",
        "label": "_totalSupply",
        "offset": 0,
        "slot": "53",
        "type": "t_uint256"
      },
      {
        "astId": 2936,
        "contract": "contracts/tokens/Shield.sol:Shield",
        "label": "_name",
        "offset": 0,
        "slot": "54",
        "type": "t_string_storage"
      },
      {
        "astId": 2938,
        "contract": "contracts/tokens/Shield.sol:Shield",
        "label": "_symbol",
        "offset": 0,
        "slot": "55",
        "type": "t_string_storage"
      },
      {
        "astId": 3519,
        "contract": "contracts/tokens/Shield.sol:Shield",
        "label": "__gap",
        "offset": 0,
        "slot": "56",
        "type": "t_array(t_uint256)45_storage"
      },
      {
        "astId": 2550,
        "contract": "contracts/tokens/Shield.sol:Shield",
        "label": "_owner",
        "offset": 0,
        "slot": "101",
        "type": "t_address"
      },
      {
        "astId": 2662,
        "contract": "contracts/tokens/Shield.sol:Shield",
        "label": "__gap",
        "offset": 0,
        "slot": "102",
        "type": "t_array(t_uint256)49_storage"
      },
      {
        "astId": 39531,
        "contract": "contracts/tokens/Shield.sol:Shield",
        "label": "supportedStablecoin",
        "offset": 0,
        "slot": "151",
        "type": "t_mapping(t_address,t_bool)"
      },
      {
        "astId": 39535,
        "contract": "contracts/tokens/Shield.sol:Shield",
        "label": "pools",
        "offset": 0,
        "slot": "152",
        "type": "t_mapping(t_string_memory_ptr,t_address)"
      },
      {
        "astId": 39539,
        "contract": "contracts/tokens/Shield.sol:Shield",
        "label": "tokenToPoolForDeposit",
        "offset": 0,
        "slot": "153",
        "type": "t_mapping(t_address,t_address)"
      },
      {
        "astId": 39543,
        "contract": "contracts/tokens/Shield.sol:Shield",
        "label": "tokenToPoolForWithdraw",
        "offset": 0,
        "slot": "154",
        "type": "t_mapping(t_address,t_address)"
      },
      {
        "astId": 39549,
        "contract": "contracts/tokens/Shield.sol:Shield",
        "label": "curvePoolTokenIndex",
        "offset": 0,
        "slot": "155",
        "type": "t_mapping(t_address,t_mapping(t_address,t_int128))"
      }
    ],
    "types": {
      "t_address": {
        "encoding": "inplace",
        "label": "address",
        "numberOfBytes": "20"
      },
      "t_array(t_uint256)45_storage": {
        "base": "t_uint256",
        "encoding": "inplace",
        "label": "uint256[45]",
        "numberOfBytes": "1440"
      },
      "t_array(t_uint256)49_storage": {
        "base": "t_uint256",
        "encoding": "inplace",
        "label": "uint256[49]",
        "numberOfBytes": "1568"
      },
      "t_array(t_uint256)50_storage": {
        "base": "t_uint256",
        "encoding": "inplace",
        "label": "uint256[50]",
        "numberOfBytes": "1600"
      },
      "t_bool": {
        "encoding": "inplace",
        "label": "bool",
        "numberOfBytes": "1"
      },
      "t_int128": {
        "encoding": "inplace",
        "label": "int128",
        "numberOfBytes": "16"
      },
      "t_mapping(t_address,t_address)": {
        "encoding": "mapping",
        "key": "t_address",
        "label": "mapping(address => address)",
        "numberOfBytes": "32",
        "value": "t_address"
      },
      "t_mapping(t_address,t_bool)": {
        "encoding": "mapping",
        "key": "t_address",
        "label": "mapping(address => bool)",
        "numberOfBytes": "32",
        "value": "t_bool"
      },
      "t_mapping(t_address,t_int128)": {
        "encoding": "mapping",
        "key": "t_address",
        "label": "mapping(address => int128)",
        "numberOfBytes": "32",
        "value": "t_int128"
      },
      "t_mapping(t_address,t_mapping(t_address,t_int128))": {
        "encoding": "mapping",
        "key": "t_address",
        "label": "mapping(address => mapping(address => int128))",
        "numberOfBytes": "32",
        "value": "t_mapping(t_address,t_int128)"
      },
      "t_mapping(t_address,t_mapping(t_address,t_uint256))": {
        "encoding": "mapping",
        "key": "t_address",
        "label": "mapping(address => mapping(address => uint256))",
        "numberOfBytes": "32",
        "value": "t_mapping(t_address,t_uint256)"
      },
      "t_mapping(t_address,t_uint256)": {
        "encoding": "mapping",
        "key": "t_address",
        "label": "mapping(address => uint256)",
        "numberOfBytes": "32",
        "value": "t_uint256"
      },
      "t_mapping(t_string_memory_ptr,t_address)": {
        "encoding": "mapping",
        "key": "t_string_memory_ptr",
        "label": "mapping(string => address)",
        "numberOfBytes": "32",
        "value": "t_address"
      },
      "t_string_memory_ptr": {
        "encoding": "bytes",
        "label": "string",
        "numberOfBytes": "32"
      },
      "t_string_storage": {
        "encoding": "bytes",
        "label": "string",
        "numberOfBytes": "32"
      },
      "t_uint256": {
        "encoding": "inplace",
        "label": "uint256",
        "numberOfBytes": "32"
      }
    }
  }
}