{
  "address": "0xAd19e8BdbfA05c309E6BAAc83f35000D1b854ed1",
  "abi": [
    {
      "anonymous": false,
      "inputs": [
        {
          "indexed": false,
          "internalType": "address",
          "name": "stablecoin",
          "type": "address"
        }
      ],
      "name": "AddStablecoin",
      "type": "event"
    },
    {
      "anonymous": false,
      "inputs": [
        {
          "indexed": true,
          "internalType": "address",
          "name": "owner",
          "type": "address"
        },
        {
          "indexed": true,
          "internalType": "address",
          "name": "spender",
          "type": "address"
        },
        {
          "indexed": false,
          "internalType": "uint256",
          "name": "value",
          "type": "uint256"
        }
      ],
      "name": "Approval",
      "type": "event"
    },
    {
      "anonymous": false,
      "inputs": [
        {
          "indexed": true,
          "internalType": "address",
          "name": "user",
          "type": "address"
        },
        {
          "indexed": true,
          "internalType": "address",
          "name": "stablecoin",
          "type": "address"
        },
        {
          "indexed": false,
          "internalType": "uint256",
          "name": "inAmount",
          "type": "uint256"
        },
        {
          "indexed": false,
          "internalType": "uint256",
          "name": "outAmount",
          "type": "uint256"
        }
      ],
      "name": "Deposit",
      "type": "event"
    },
    {
      "anonymous": false,
      "inputs": [
        {
          "indexed": true,
          "internalType": "address",
          "name": "previousOwner",
          "type": "address"
        },
        {
          "indexed": true,
          "internalType": "address",
          "name": "newOwner",
          "type": "address"
        }
      ],
      "name": "OwnershipTransferred",
      "type": "event"
    },
    {
      "anonymous": false,
      "inputs": [
        {
          "indexed": true,
          "internalType": "address",
          "name": "from",
          "type": "address"
        },
        {
          "indexed": true,
          "internalType": "address",
          "name": "to",
          "type": "address"
        },
        {
          "indexed": false,
          "internalType": "uint256",
          "name": "value",
          "type": "uint256"
        }
      ],
      "name": "Transfer",
      "type": "event"
    },
    {
      "anonymous": false,
      "inputs": [
        {
          "indexed": true,
          "internalType": "address",
          "name": "user",
          "type": "address"
        },
        {
          "indexed": false,
          "internalType": "uint256",
          "name": "amount",
          "type": "uint256"
        }
      ],
      "name": "Withdraw",
      "type": "event"
    },
    {
      "inputs": [],
      "name": "CURVE_SWAP",
      "outputs": [
        {
          "internalType": "uint256",
          "name": "",
          "type": "uint256"
        }
      ],
      "stateMutability": "view",
      "type": "function"
    },
    {
      "inputs": [],
      "name": "CURVE_YUSD",
      "outputs": [
        {
          "internalType": "address",
          "name": "",
          "type": "address"
        }
      ],
      "stateMutability": "view",
      "type": "function"
    },
    {
      "inputs": [],
      "name": "DAIe",
      "outputs": [
        {
          "internalType": "address",
          "name": "",
          "type": "address"
        }
      ],
      "stateMutability": "view",
      "type": "function"
    },
    {
      "inputs": [],
      "name": "PLATYPUS_SWAP",
      "outputs": [
        {
          "internalType": "uint256",
          "name": "",
          "type": "uint256"
        }
      ],
      "stateMutability": "view",
      "type": "function"
    },
    {
      "inputs": [],
      "name": "PTP_MAIN",
      "outputs": [
        {
          "internalType": "address",
          "name": "",
          "type": "address"
        }
      ],
      "stateMutability": "view",
      "type": "function"
    },
    {
      "inputs": [],
      "name": "USDC",
      "outputs": [
        {
          "internalType": "address",
          "name": "",
          "type": "address"
        }
      ],
      "stateMutability": "view",
      "type": "function"
    },
    {
      "inputs": [],
      "name": "USDCe",
      "outputs": [
        {
          "internalType": "address",
          "name": "",
          "type": "address"
        }
      ],
      "stateMutability": "view",
      "type": "function"
    },
    {
      "inputs": [],
      "name": "USDT",
      "outputs": [
        {
          "internalType": "address",
          "name": "",
          "type": "address"
        }
      ],
      "stateMutability": "view",
      "type": "function"
    },
    {
      "inputs": [],
      "name": "USDTe",
      "outputs": [
        {
          "internalType": "address",
          "name": "",
          "type": "address"
        }
      ],
      "stateMutability": "view",
      "type": "function"
    },
    {
      "inputs": [],
      "name": "YUSD",
      "outputs": [
        {
          "internalType": "address",
          "name": "",
          "type": "address"
        }
      ],
      "stateMutability": "view",
      "type": "function"
    },
    {
      "inputs": [
        {
          "internalType": "address",
          "name": "_pool",
          "type": "address"
        },
        {
          "internalType": "address[]",
          "name": "_tokens",
          "type": "address[]"
        }
      ],
      "name": "addCurvePool",
      "outputs": [],
      "stateMutability": "nonpayable",
      "type": "function"
    },
    {
      "inputs": [
        {
          "internalType": "address",
          "name": "_stablecoin",
          "type": "address"
        }
      ],
      "name": "addSupportedStablecoin",
      "outputs": [],
      "stateMutability": "nonpayable",
      "type": "function"
    },
    {
      "inputs": [
        {
          "internalType": "address",
          "name": "owner",
          "type": "address"
        },
        {
          "internalType": "address",
          "name": "spender",
          "type": "address"
        }
      ],
      "name": "allowance",
      "outputs": [
        {
          "internalType": "uint256",
          "name": "",
          "type": "uint256"
        }
      ],
      "stateMutability": "view",
      "type": "function"
    },
    {
      "inputs": [
        {
          "internalType": "address",
          "name": "spender",
          "type": "address"
        },
        {
          "internalType": "uint256",
          "name": "amount",
          "type": "uint256"
        }
      ],
      "name": "approve",
      "outputs": [
        {
          "internalType": "bool",
          "name": "",
          "type": "bool"
        }
      ],
      "stateMutability": "nonpayable",
      "type": "function"
    },
    {
      "inputs": [
        {
          "internalType": "address",
          "name": "_token",
          "type": "address"
        },
        {
          "internalType": "address",
          "name": "_contract",
          "type": "address"
        }
      ],
      "name": "approveStablecoin",
      "outputs": [],
      "stateMutability": "nonpayable",
      "type": "function"
    },
    {
      "inputs": [
        {
          "internalType": "address",
          "name": "account",
          "type": "address"
        }
      ],
      "name": "balanceOf",
      "outputs": [
        {
          "internalType": "uint256",
          "name": "",
          "type": "uint256"
        }
      ],
      "stateMutability": "view",
      "type": "function"
    },
    {
      "inputs": [
        {
          "internalType": "address",
          "name": "",
          "type": "address"
        },
        {
          "internalType": "address",
          "name": "",
          "type": "address"
        }
      ],
      "name": "curvePoolTokenIndex",
      "outputs": [
        {
          "internalType": "int128",
          "name": "",
          "type": "int128"
        }
      ],
      "stateMutability": "view",
      "type": "function"
    },
    {
      "inputs": [],
      "name": "decimals",
      "outputs": [
        {
          "internalType": "uint8",
          "name": "",
          "type": "uint8"
        }
      ],
      "stateMutability": "pure",
      "type": "function"
    },
    {
      "inputs": [
        {
          "internalType": "address",
          "name": "spender",
          "type": "address"
        },
        {
          "internalType": "uint256",
          "name": "subtractedValue",
          "type": "uint256"
        }
      ],
      "name": "decreaseAllowance",
      "outputs": [
        {
          "internalType": "bool",
          "name": "",
          "type": "bool"
        }
      ],
      "stateMutability": "nonpayable",
      "type": "function"
    },
    {
      "inputs": [
        {
          "internalType": "uint256",
          "name": "_type",
          "type": "uint256"
        },
        {
          "internalType": "address",
          "name": "_stablecoin",
          "type": "address"
        },
        {
          "internalType": "uint256",
          "name": "_amount",
          "type": "uint256"
        },
        {
          "internalType": "uint256",
          "name": "_minAmount",
          "type": "uint256"
        }
      ],
      "name": "deposit",
      "outputs": [],
      "stateMutability": "nonpayable",
      "type": "function"
    },
    {
      "inputs": [
        {
          "internalType": "address",
          "name": "spender",
          "type": "address"
        },
        {
          "internalType": "uint256",
          "name": "addedValue",
          "type": "uint256"
        }
      ],
      "name": "increaseAllowance",
      "outputs": [
        {
          "internalType": "bool",
          "name": "",
          "type": "bool"
        }
      ],
      "stateMutability": "nonpayable",
      "type": "function"
    },
    {
      "inputs": [],
      "name": "initialize",
      "outputs": [],
      "stateMutability": "nonpayable",
      "type": "function"
    },
    {
      "inputs": [],
      "name": "name",
      "outputs": [
        {
          "internalType": "string",
          "name": "",
          "type": "string"
        }
      ],
      "stateMutability": "view",
      "type": "function"
    },
    {
      "inputs": [],
      "name": "owner",
      "outputs": [
        {
          "internalType": "address",
          "name": "",
          "type": "address"
        }
      ],
      "stateMutability": "view",
      "type": "function"
    },
    {
      "inputs": [
        {
          "internalType": "string",
          "name": "",
          "type": "string"
        }
      ],
      "name": "pools",
      "outputs": [
        {
          "internalType": "address",
          "name": "",
          "type": "address"
        }
      ],
      "stateMutability": "view",
      "type": "function"
    },
    {
      "inputs": [],
      "name": "renounceOwnership",
      "outputs": [],
      "stateMutability": "nonpayable",
      "type": "function"
    },
    {
      "inputs": [
        {
          "internalType": "bool",
          "name": "_isDeposit",
          "type": "bool"
        },
        {
          "internalType": "address",
          "name": "_token",
          "type": "address"
        },
        {
          "internalType": "address",
          "name": "_pool",
          "type": "address"
        }
      ],
      "name": "setTokenToPool",
      "outputs": [],
      "stateMutability": "nonpayable",
      "type": "function"
    },
    {
      "inputs": [
        {
          "internalType": "address",
          "name": "",
          "type": "address"
        }
      ],
      "name": "supportedStablecoin",
      "outputs": [
        {
          "internalType": "bool",
          "name": "",
          "type": "bool"
        }
      ],
      "stateMutability": "view",
      "type": "function"
    },
    {
      "inputs": [],
      "name": "symbol",
      "outputs": [
        {
          "internalType": "string",
          "name": "",
          "type": "string"
        }
      ],
      "stateMutability": "view",
      "type": "function"
    },
    {
      "inputs": [
        {
          "internalType": "address",
          "name": "",
          "type": "address"
        }
      ],
      "name": "tokenToPoolForDeposit",
      "outputs": [
        {
          "internalType": "address",
          "name": "",
          "type": "address"
        }
      ],
      "stateMutability": "view",
      "type": "function"
    },
    {
      "inputs": [
        {
          "internalType": "address",
          "name": "",
          "type": "address"
        }
      ],
      "name": "tokenToPoolForWithdraw",
      "outputs": [
        {
          "internalType": "address",
          "name": "",
          "type": "address"
        }
      ],
      "stateMutability": "view",
      "type": "function"
    },
    {
      "inputs": [],
      "name": "totalSupply",
      "outputs": [
        {
          "internalType": "uint256",
          "name": "",
          "type": "uint256"
        }
      ],
      "stateMutability": "view",
      "type": "function"
    },
    {
      "inputs": [
        {
          "internalType": "address",
          "name": "to",
          "type": "address"
        },
        {
          "internalType": "uint256",
          "name": "amount",
          "type": "uint256"
        }
      ],
      "name": "transfer",
      "outputs": [
        {
          "internalType": "bool",
          "name": "",
          "type": "bool"
        }
      ],
      "stateMutability": "nonpayable",
      "type": "function"
    },
    {
      "inputs": [
        {
          "internalType": "address",
          "name": "from",
          "type": "address"
        },
        {
          "internalType": "address",
          "name": "to",
          "type": "address"
        },
        {
          "internalType": "uint256",
          "name": "amount",
          "type": "uint256"
        }
      ],
      "name": "transferFrom",
      "outputs": [
        {
          "internalType": "bool",
          "name": "",
          "type": "bool"
        }
      ],
      "stateMutability": "nonpayable",
      "type": "function"
    },
    {
      "inputs": [
        {
          "internalType": "address",
          "name": "newOwner",
          "type": "address"
        }
      ],
      "name": "transferOwnership",
      "outputs": [],
      "stateMutability": "nonpayable",
      "type": "function"
    },
    {
      "inputs": [
        {
          "internalType": "uint256",
          "name": "_type",
          "type": "uint256"
        },
        {
          "internalType": "address",
          "name": "_stablecoin",
          "type": "address"
        },
        {
          "internalType": "uint256",
          "name": "_amount",
          "type": "uint256"
        },
        {
          "internalType": "uint256",
          "name": "_minAmount",
          "type": "uint256"
        }
      ],
      "name": "withdraw",
      "outputs": [],
      "stateMutability": "nonpayable",
      "type": "function"
    },
    {
      "inputs": [],
      "name": "withdrawAll",
      "outputs": [],
      "stateMutability": "nonpayable",
      "type": "function"
    }
  ],
  "transactionHash": "0x5e40de36a9b43153f55ad4791f427eefdc08edd48277b66b3f11c7a0ec9604e3",
  "args": [],
  "numDeployments": 1,
  "solcInputHash": "cdf824f0ef0e0e4f5aee81b4b7ce487b",
  "bytecode": "0x608060405234801561001057600080fd5b50612e13806100206000396000f3fe608060405234801561001057600080fd5b50600436106102775760003560e01c8063890f437411610160578063a4366be2116100d8578063c54e44eb1161008c578063dd62ed3e11610071578063dd62ed3e146105ba578063e2aa8559146105f3578063f2fde38b1461060657600080fd5b8063c54e44eb14610576578063d754bfd51461059157600080fd5b8063a9059cbb116100bd578063a9059cbb14610535578063b5add05a14610548578063b70b23a31461055b57600080fd5b8063a4366be21461050f578063a457c2d71461052257600080fd5b80638da5cb5b1161012f57806395d89b411161011457806395d89b41146104b85780639d6f17a8146104c05780639df3fe24146104f457600080fd5b80638da5cb5b1461048c5780638ffbfd9a1461049d57600080fd5b8063890f43741461042857806389a302711461043b57806389ae8120146104565780638a4d786b1461047157600080fd5b8063561414bb116101f35780636f0372af116101c2578063715018a6116101a7578063715018a6146104105780638129fc1c14610418578063853828b61461042057600080fd5b80636f0372af146103d457806370a08231146103e757600080fd5b8063561414bb14610353578063584400271461035b5780635cb3b14f146103965780636190cefb146103b957600080fd5b806323b872dd1161024a578063313ce5671161022f578063313ce5671461032957806339509351146103385780633e7c0e8b1461034b57600080fd5b806323b872dd14610301578063245328671461031457600080fd5b806306fdde031461027c578063095ea7b31461029a5780631727e642146102ba57806318160ddd146102f0575b600080fd5b610284610619565b604051610291919061208f565b60405180910390f35b6102ad6102a83660046120e1565b6106ab565b6040516102919190612128565b6102e36102c8366004612136565b6099602052600090815260409020546001600160a01b031681565b6040516102919190612160565b6035545b6040516102919190612174565b6102ad61030f366004612182565b6106c5565b610327610322366004612136565b6106eb565b005b600660405161029191906121db565b6102ad6103463660046120e1565b61077c565b6102f4600181565b6102f4600281565b6103896103693660046121e9565b609b602090815260009283526040808420909152908252902054600f0b81565b6040516102919190612226565b6102ad6103a4366004612136565b60976020526000908152604090205460ff1681565b6102e373111111111111ed1d73f860f57b2798b683f2d32581565b6103276103e2366004612234565b6107bb565b6102f46103f5366004612136565b6001600160a01b031660009081526033602052604090205490565b610327610937565b61032761096d565b61032761120a565b6103276104363660046122ab565b611239565b6102e373b97ef9ef8734c71904d8002f8b6bc66dd9c48a6e81565b6102e3731da20ac34187b2d9c74f729b85acb225d3341b2581565b6102e373a7d7079b0fead91f3e65f86e8915cb59c1a4c66481565b6065546001600160a01b03166102e3565b6102e37366357dcace80431aee0a7507e2e361b7e240237081565b6102846112e6565b6102e36104ce3660046123ec565b80516020818301810180516098825292820191909301209152546001600160a01b031681565b6102e373d586e7f844cea2f87f50152665bcbc2c279d8d7081565b61032761051d366004612479565b6112f5565b6102ad6105303660046120e1565b6113c4565b6102ad6105433660046120e1565b611423565b6103276105563660046121e9565b611431565b6102e373c7198437980c041c805a1edcba50c1ce5db9511881565b6102e3739702230a8ea53601f5cd2dc00fdbc13d4df4a8c781565b6102e361059f366004612136565b609a602052600090815260409020546001600160a01b031681565b6102f46105c83660046121e9565b6001600160a01b03918216600090815260346020908152604080832093909416825291909152205490565b610327610601366004612234565b6114a4565b610327610614366004612136565b6115bc565b606060368054610628906124eb565b80601f0160208091040260200160405190810160405280929190818152602001828054610654906124eb565b80156106a15780601f10610676576101008083540402835291602001916106a1565b820191906000526020600020905b81548152906001019060200180831161068457829003601f168201915b5050505050905090565b6000336106b9818585611615565b60019150505b92915050565b6000336106d38582856116c9565b6106de85858561172b565b60019150505b9392505050565b6065546001600160a01b0316331461071e5760405162461bcd60e51b815260040161071590612549565b60405180910390fd5b6001600160a01b03811660009081526097602052604090819020805460ff19166001179055517f05df81582f58ed21700c8e232f443af6b7255b04e4a2f3aa130391b926f656e490610771908390612160565b60405180910390a150565b3360008181526034602090815260408083206001600160a01b03871684529091528120549091906106b990829086906107b690879061256f565b611615565b6001600160a01b03831660009081526097602052604090205460ff166107f35760405162461bcd60e51b8152600401610715906125b9565b6108086001600160a01b03841633308561183e565b60006001600160a01b03841673b97ef9ef8734c71904d8002f8b6bc66dd9c48a6e146108d6576001850361087a576001600160a01b0380851660009081526099602052604090205461087391168573b97ef9ef8734c71904d8002f8b6bc66dd9c48a6e8686306118c3565b90506108d9565b600285036108be576001600160a01b0380851660009081526099602052604090205461087391168573b97ef9ef8734c71904d8002f8b6bc66dd9c48a6e8686611953565b60405162461bcd60e51b8152600401610715906125fb565b50815b6108e33382611a1e565b836001600160a01b0316336001600160a01b03167fdcbc1c05240f31ff3ad067ef1ee35ce4997762752e3a095284754544f4c709d7858460405161092892919061260b565b60405180910390a35050505050565b6065546001600160a01b031633146109615760405162461bcd60e51b815260040161071590612549565b61096b6000611ad3565b565b600054610100900460ff166109885760005460ff161561098c565b303b155b6109a85760405162461bcd60e51b815260040161071590612680565b600054610100900460ff161580156109ca576000805461ffff19166101011790555b610a3e6040518060400160405280600c81526020017f536869656c6420546f6b656e00000000000000000000000000000000000000008152506040518060400160405280600381526020017f5348440000000000000000000000000000000000000000000000000000000000815250611b32565b610a46611b63565b60976020527f7548b632efee72df22594bfd49708315d9850b8d32c2b2dc843b2c21368cfccc8054600160ff1991821681179092557f69e43f24f536fd3d84c8bd37ce68b71464fab1c98015d9bdf125ad046cb14da780548216831790557f91d25400d13b5f4a102fdf4d72274fe271a68710a12419af39642877ebd3de8480548216831790557fb744f339a70c7ed26a36bf7be73dfbd530f22e2cd092833028db0829e2399d6180548216831790557fbf5e33d1e23d27b431f50a41a2b3c6addcaa9043fb2180af99dc5897e84eeb3a805482168317905573111111111111ed1d73f860f57b2798b683f2d3256000527f3382a9b3c632d4939bce307c08e7910babe4d0c8a4cd7d593e480cd04f5e27208054909116909117905560405163095ea7b360e01b815273b97ef9ef8734c71904d8002f8b6bc66dd9c48a6e9063095ea7b390610bb1907366357dcace80431aee0a7507e2e361b7e24023709060001990600401612690565b6020604051808303816000875af1158015610bd0573d6000803e3d6000fd5b505050506040513d601f19601f82011682018060405250810190610bf491906126a9565b5060405163095ea7b360e01b8152739702230a8ea53601f5cd2dc00fdbc13d4df4a8c79063095ea7b390610c44907366357dcace80431aee0a7507e2e361b7e24023709060001990600401612690565b6020604051808303816000875af1158015610c63573d6000803e3d6000fd5b505050506040513d601f19601f82011682018060405250810190610c8791906126a9565b5060405163095ea7b360e01b815273c7198437980c041c805a1edcba50c1ce5db951189063095ea7b390610cd7907366357dcace80431aee0a7507e2e361b7e24023709060001990600401612690565b6020604051808303816000875af1158015610cf6573d6000803e3d6000fd5b505050506040513d601f19601f82011682018060405250810190610d1a91906126a9565b5060405163095ea7b360e01b815273a7d7079b0fead91f3e65f86e8915cb59c1a4c6649063095ea7b390610d6a907366357dcace80431aee0a7507e2e361b7e24023709060001990600401612690565b6020604051808303816000875af1158015610d89573d6000803e3d6000fd5b505050506040513d601f19601f82011682018060405250810190610dad91906126a9565b5060405163095ea7b360e01b815273d586e7f844cea2f87f50152665bcbc2c279d8d709063095ea7b390610dfd907366357dcace80431aee0a7507e2e361b7e24023709060001990600401612690565b6020604051808303816000875af1158015610e1c573d6000803e3d6000fd5b505050506040513d601f19601f82011682018060405250810190610e4091906126a9565b5060405163095ea7b360e01b815273111111111111ed1d73f860f57b2798b683f2d3259063095ea7b390610e9090731da20ac34187b2d9c74f729b85acb225d3341b259060001990600401612690565b6020604051808303816000875af1158015610eaf573d6000803e3d6000fd5b505050506040513d601f19601f82011682018060405250810190610ed391906126a9565b5060405163095ea7b360e01b815273b97ef9ef8734c71904d8002f8b6bc66dd9c48a6e9063095ea7b390610f2390731da20ac34187b2d9c74f729b85acb225d3341b259060001990600401612690565b6020604051808303816000875af1158015610f42573d6000803e3d6000fd5b505050506040513d601f19601f82011682018060405250810190610f6691906126a9565b507f3cafb062781f96e7a09ff169398f8d6e0f8136019401e75bbe6583c7a2c0df4280546fffffffffffffffffffffffffffffffff199081169091557fee7a42d7374c0cca07ab7253a23b874b29c33b4ca77bb516e4fa7c7ac9b91ec28054821660011790557f90fadaade27211c3b60d59105fc105ab0a8588d5820eec1fd3e867bbd81d2389805490911660021790557ff9b3e54774d0641eb3e2e7278fc2a81eab7d478fa26cd7f3e580a344c94ac4a2805473ffffffffffffffffffffffffffffffffffffffff19908116731da20ac34187b2d9c74f729b85acb225d3341b259081179092557faf6f47f207b81b1c9ff286d1ec2df0d48e30169885791772048c7bb19a616e9b805482169092179091557f0a8aec788de3d32dd8c961cc08e137a5d0f0bdca9a20d28138b42e480025f0e6805482167366357dcace80431aee0a7507e2e361b7e24023709081179091557f34581a2a0d1f4afc7bedf346da9d0252d6bd3318265137e794dab7cac558313b80548316821790557fa2c186a3bc309cecfe8492e086be4d948a1819e1207d31aeecb29dd99129697780548316821790557f391265a8976e0e46e3a04a21395ddc41f5ae28fedef5461bb7a48d398c392d0880548316821790557f8a3f03a5a9aaf1ce44e5469b665d81fd96086d086a9154f10aa3510599fe10e780548316821790557fe78e98982f85277723d21ef70bdf667c3885220521cbf091656d5b0f48f649cf805483168217905573d586e7f844cea2f87f50152665bcbc2c279d8d706000527f340b5defae2788ee2c92ad33faae45fc7f77772ac31857c95806ca33f7f01c548054831682179055609a6020527f2feb349778d25e6c2d4f8973bf457403c9edf3d0ea3bc58461c487d781cefe9780549092161790558015611207576000805461ff00191690555b50565b3360009081526033602052604090205461120773b97ef9ef8734c71904d8002f8b6bc66dd9c48a6e8280611b92565b6065546001600160a01b031633146112635760405162461bcd60e51b815260040161071590612549565b82156112a5576001600160a01b039182166000908152609960205260409020805473ffffffffffffffffffffffffffffffffffffffff19169190921617905550565b6001600160a01b038281166000908152609a60205260409020805473ffffffffffffffffffffffffffffffffffffffff19169183169190911790555b505050565b606060378054610628906124eb565b6065546001600160a01b0316331461131f5760405162461bcd60e51b815260040161071590612549565b8060005b818110156113bd576001600160a01b0385166000908152609b602052604081208291868684818110611357576113576126ca565b905060200201602081019061136c9190612136565b6001600160a01b03168152602081019190915260400160002080546fffffffffffffffffffffffffffffffff19166fffffffffffffffffffffffffffffffff92909216919091179055600101611323565b5050505050565b3360008181526034602090815260408083206001600160a01b03871684529091528120549091908381101561140b5760405162461bcd60e51b815260040161071590612738565b6114188286868403611615565b506001949350505050565b6000336106b981858561172b565b60405163095ea7b360e01b81526001600160a01b0383169063095ea7b39061146190849060001990600401612690565b6020604051808303816000875af1158015611480573d6000803e3d6000fd5b505050506040513d601f19601f820116820180604052508101906112e191906126a9565b6001600160a01b03831660009081526097602052604090205460ff166114dc5760405162461bcd60e51b8152600401610715906125b9565b60007fffffffffffffffffffffffff4681061078cb38e6fb27ffd074943992263b75926001600160a01b0385160161151e57611519848485611b92565b6113bd565b6001850361156a576001600160a01b038085166000908152609a6020526040902054611563911673b97ef9ef8734c71904d8002f8b6bc66dd9c48a6e868686306118c3565b90506115b1565b600285036115b1576001600160a01b038085166000908152609a60205260409020546115ae911673b97ef9ef8734c71904d8002f8b6bc66dd9c48a6e868686611953565b90505b6113bd848285611b92565b6065546001600160a01b031633146115e65760405162461bcd60e51b815260040161071590612549565b6001600160a01b03811661160c5760405162461bcd60e51b8152600401610715906127a0565b61120781611ad3565b6001600160a01b03831661163b5760405162461bcd60e51b815260040161071590612808565b6001600160a01b0382166116615760405162461bcd60e51b815260040161071590612870565b6001600160a01b0380841660008181526034602090815260408083209487168084529490915290819020849055517f8c5be1e5ebec7d5bd14f71427d1e84f3dd0314c0f7b2291e5b200ac8c7c3b925906116bc908590612174565b60405180910390a3505050565b6001600160a01b03838116600090815260346020908152604080832093861683529290522054600019811461172557818110156117185760405162461bcd60e51b8152600401610715906128b2565b6117258484848403611615565b50505050565b6001600160a01b0383166117515760405162461bcd60e51b81526004016107159061291a565b6001600160a01b0382166117775760405162461bcd60e51b815260040161071590612982565b6001600160a01b038316600090815260336020526040902054818110156117b05760405162461bcd60e51b8152600401610715906129ea565b6001600160a01b038085166000908152603360205260408082208585039055918516815290812080548492906117e790849061256f565b92505081905550826001600160a01b0316846001600160a01b03167fddf252ad1be2c89b69c2b068fc378daa952ba7f163c4a11628f55a4df523b3ef846040516118319190612174565b60405180910390a3611725565b611725846323b872dd60e01b85858560405160240161185f939291906129fa565b60408051601f198184030181529190526020810180517bffffffffffffffffffffffffffffffffffffffffffffffffffffffff167fffffffff0000000000000000000000000000000000000000000000000000000090931692909217909152611bf1565b60006001600160a01b038716639908fc8b87878787876118e442600a61256f565b6040518763ffffffff1660e01b815260040161190596959493929190612a22565b60408051808303816000875af1158015611923573d6000803e3d6000fd5b505050506040513d601f19601f820116820180604052508101906119479190612a7c565b50979650505050505050565b6001600160a01b038581166000818152609b6020908152604080832089861684529091528082205493871682528082205490517f3df021240000000000000000000000000000000000000000000000000000000081529193600f90810b9391900b91633df02124906119cf90859085908a908a90600401612aaf565b6020604051808303816000875af11580156119ee573d6000803e3d6000fd5b505050506040513d601f19601f82011682018060405250810190611a129190612aed565b98975050505050505050565b6001600160a01b038216611a445760405162461bcd60e51b815260040161071590612b40565b8060356000828254611a56919061256f565b90915550506001600160a01b03821660009081526033602052604081208054839290611a8390849061256f565b90915550506040516001600160a01b038316906000907fddf252ad1be2c89b69c2b068fc378daa952ba7f163c4a11628f55a4df523b3ef90611ac6908590612174565b60405180910390a35b5050565b606580546001600160a01b0383811673ffffffffffffffffffffffffffffffffffffffff19831681179093556040519116919082907f8be0079c531659141344cd1fd0a4f28419497f9722a3daafe3b4186f6b6457e090600090a35050565b600054610100900460ff16611b595760405162461bcd60e51b815260040161071590612ba8565b611acf8282611c80565b600054610100900460ff16611b8a5760405162461bcd60e51b815260040161071590612ba8565b61096b611cce565b6000611b9e8484611cfe565b9050611baa3383611d9f565b336001600160a01b03167f884edad9ce6fa2440d8a54cc123490eb96d2768479d49ff9c7366125a942436482604051611be39190612174565b60405180910390a250505050565b6000611c46826040518060400160405280602081526020017f5361666545524332303a206c6f772d6c6576656c2063616c6c206661696c6564815250856001600160a01b0316611e709092919063ffffffff16565b8051909150156112e15780806020019051810190611c6491906126a9565b6112e15760405162461bcd60e51b815260040161071590612c10565b600054610100900460ff16611ca75760405162461bcd60e51b815260040161071590612ba8565b8151611cba906036906020850190611f98565b5080516112e1906037906020840190611f98565b600054610100900460ff16611cf55760405162461bcd60e51b815260040161071590612ba8565b61096b33611ad3565b600080836001600160a01b03166370a08231306040518263ffffffff1660e01b8152600401611d2d9190612160565b602060405180830381865afa158015611d4a573d6000803e3d6000fd5b505050506040513d601f19601f82011682018060405250810190611d6e9190612aed565b905082811115611d8057829150611d84565b8091505b611d986001600160a01b0385163384611e87565b5092915050565b6001600160a01b038216611dc55760405162461bcd60e51b815260040161071590612c78565b6001600160a01b03821660009081526033602052604090205481811015611dfe5760405162461bcd60e51b815260040161071590612ce0565b6001600160a01b0383166000908152603360205260408120838303905560358054849290611e2d908490612cf0565b90915550506040516000906001600160a01b038516907fddf252ad1be2c89b69c2b068fc378daa952ba7f163c4a11628f55a4df523b3ef906116bc908690612174565b6060611e7f8484600085611ea6565b949350505050565b6112e18363a9059cbb60e01b848460405160240161185f929190612690565b606082471015611ec85760405162461bcd60e51b815260040161071590612d5f565b843b611ee65760405162461bcd60e51b815260040161071590612da1565b600080866001600160a01b03168587604051611f029190612dd3565b60006040518083038185875af1925050503d8060008114611f3f576040519150601f19603f3d011682016040523d82523d6000602084013e611f44565b606091505b5091509150611f54828286611f5f565b979650505050505050565b60608315611f6e5750816106e4565b825115611f7e5782518084602001fd5b8160405162461bcd60e51b8152600401610715919061208f565b828054611fa4906124eb565b90600052602060002090601f016020900481019282611fc6576000855561200c565b82601f10611fdf57805160ff191683800117855561200c565b8280016001018555821561200c579182015b8281111561200c578251825591602001919060010190611ff1565b5061201892915061201c565b5090565b5b80821115612018576000815560010161201d565b60005b8381101561204c578181015183820152602001612034565b838111156117255750506000910152565b6000612067825190565b80845260208401935061207e818560208601612031565b601f01601f19169290920192915050565b602080825281016106e4818461205d565b60006001600160a01b0382166106bf565b6120ba816120a0565b811461120757600080fd5b80356106bf816120b1565b806120ba565b80356106bf816120d0565b600080604083850312156120f7576120f7600080fd5b600061210385856120c5565b9250506020612114858286016120d6565b9150509250929050565b8015155b82525050565b602081016106bf828461211e565b60006020828403121561214b5761214b600080fd5b6000611e7f84846120c5565b612122816120a0565b602081016106bf8284612157565b80612122565b602081016106bf828461216e565b60008060006060848603121561219a5761219a600080fd5b60006121a686866120c5565b93505060206121b7868287016120c5565b92505060406121c8868287016120d6565b9150509250925092565b60ff8116612122565b602081016106bf82846121d2565b600080604083850312156121ff576121ff600080fd5b600061220b85856120c5565b9250506020612114858286016120c5565b61212281600f0b90565b602081016106bf828461221c565b6000806000806080858703121561224d5761224d600080fd5b600061225987876120d6565b945050602061226a878288016120c5565b935050604061227b878288016120d6565b925050606061228c878288016120d6565b91505092959194509250565b8015156120ba565b80356106bf81612298565b6000806000606084860312156122c3576122c3600080fd5b60006122cf86866122a0565b93505060206122e0868287016120c5565b92505060406121c8868287016120c5565b634e487b7160e01b600052604160045260246000fd5b601f19601f830116810181811067ffffffffffffffff8211171561232d5761232d6122f1565b6040525050565b600061233f60405190565b905061234b8282612307565b919050565b600067ffffffffffffffff82111561236a5761236a6122f1565b601f19601f83011660200192915050565b82818337506000910152565b600061239a61239584612350565b612334565b9050828152602081018484840111156123b5576123b5600080fd5b6123c084828561237b565b509392505050565b600082601f8301126123dc576123dc600080fd5b8135611e7f848260208601612387565b60006020828403121561240157612401600080fd5b813567ffffffffffffffff81111561241b5761241b600080fd5b611e7f848285016123c8565b60008083601f84011261243c5761243c600080fd5b50813567ffffffffffffffff81111561245757612457600080fd5b60208301915083602082028301111561247257612472600080fd5b9250929050565b60008060006040848603121561249157612491600080fd5b600061249d86866120c5565b935050602084013567ffffffffffffffff8111156124bd576124bd600080fd5b6124c986828701612427565b92509250509250925092565b634e487b7160e01b600052602260045260246000fd5b6002810460018216806124ff57607f821691505b602082108103612511576125116124d5565b50919050565b60208082527f4f776e61626c653a2063616c6c6572206973206e6f7420746865206f776e657291019081525b60200190565b602080825281016106bf81612517565b634e487b7160e01b600052601160045260246000fd5b6000821982111561258257612582612559565b500190565b60188152602081017f537461626c65636f696e206e6f7420737570706f72746564000000000000000081529050612543565b602080825281016106bf81612587565b600c8152602081017f4e6f20737761702070616972000000000000000000000000000000000000000081529050612543565b602080825281016106bf816125c9565b60408101612619828561216e565b6106e4602083018461216e565b602e8152602081017f496e697469616c697a61626c653a20636f6e747261637420697320616c72656181527f647920696e697469616c697a6564000000000000000000000000000000000000602082015290505b60400190565b602080825281016106bf81612626565b604081016126198285612157565b80516106bf81612298565b6000602082840312156126be576126be600080fd5b6000611e7f848461269e565b634e487b7160e01b600052603260045260246000fd5b60258152602081017f45524332303a2064656372656173656420616c6c6f77616e63652062656c6f7781527f207a65726f0000000000000000000000000000000000000000000000000000006020820152905061267a565b602080825281016106bf816126e0565b60268152602081017f4f776e61626c653a206e6577206f776e657220697320746865207a65726f206181527f64647265737300000000000000000000000000000000000000000000000000006020820152905061267a565b602080825281016106bf81612748565b60248152602081017f45524332303a20617070726f76652066726f6d20746865207a65726f2061646481527f72657373000000000000000000000000000000000000000000000000000000006020820152905061267a565b602080825281016106bf816127b0565b60228152602081017f45524332303a20617070726f766520746f20746865207a65726f20616464726581527f73730000000000000000000000000000000000000000000000000000000000006020820152905061267a565b602080825281016106bf81612818565b601d8152602081017f45524332303a20696e73756666696369656e7420616c6c6f77616e636500000081529050612543565b602080825281016106bf81612880565b60258152602081017f45524332303a207472616e736665722066726f6d20746865207a65726f20616481527f64726573730000000000000000000000000000000000000000000000000000006020820152905061267a565b602080825281016106bf816128c2565b60238152602081017f45524332303a207472616e7366657220746f20746865207a65726f206164647281527f65737300000000000000000000000000000000000000000000000000000000006020820152905061267a565b602080825281016106bf8161292a565b60268152602081017f45524332303a207472616e7366657220616d6f756e742065786365656473206281527f616c616e636500000000000000000000000000000000000000000000000000006020820152905061267a565b602080825281016106bf81612992565b60608101612a088286612157565b612a156020830185612157565b611e7f604083018461216e565b60c08101612a308289612157565b612a3d6020830188612157565b612a4a604083018761216e565b612a57606083018661216e565b612a646080830185612157565b611f5460a083018461216e565b80516106bf816120d0565b60008060408385031215612a9257612a92600080fd5b6000612a9e8585612a71565b925050602061211485828601612a71565b60808101612abd828761221c565b612aca602083018661221c565b612ad7604083018561216e565b612ae4606083018461216e565b95945050505050565b600060208284031215612b0257612b02600080fd5b6000611e7f8484612a71565b601f8152602081017f45524332303a206d696e7420746f20746865207a65726f20616464726573730081529050612543565b602080825281016106bf81612b0e565b602b8152602081017f496e697469616c697a61626c653a20636f6e7472616374206973206e6f74206981527f6e697469616c697a696e670000000000000000000000000000000000000000006020820152905061267a565b602080825281016106bf81612b50565b602a8152602081017f5361666545524332303a204552433230206f7065726174696f6e20646964206e81527f6f742073756363656564000000000000000000000000000000000000000000006020820152905061267a565b602080825281016106bf81612bb8565b60218152602081017f45524332303a206275726e2066726f6d20746865207a65726f2061646472657381527f73000000000000000000000000000000000000000000000000000000000000006020820152905061267a565b602080825281016106bf81612c20565b60228152602081017f45524332303a206275726e20616d6f756e7420657863656564732062616c616e81527f63650000000000000000000000000000000000000000000000000000000000006020820152905061267a565b602080825281016106bf81612c88565b600082821015612d0257612d02612559565b500390565b60268152602081017f416464726573733a20696e73756666696369656e742062616c616e636520666f81527f722063616c6c00000000000000000000000000000000000000000000000000006020820152905061267a565b602080825281016106bf81612d07565b601d8152602081017f416464726573733a2063616c6c20746f206e6f6e2d636f6e747261637400000081529050612543565b602080825281016106bf81612d6f565b6000612dbb825190565b612dc9818560208601612031565b9290920192915050565b6106bf8183612db156fea26469706673582212200b4eaadd43271ab4915bc0d2b89fcade570bc4b942a6c9cec03c4f7bbd2a14ca64736f6c634300080d0033",
  "devdoc": {
    "author": "Eric Lee (ylikp.ust@gmail.com)",
    "details": "Users can swap other stablecoins to Shield (actually backed by USDC only)         Shield can be used in NaughtyPrice and future products         When users want to withdraw, their shield tokens will be burned         and USDC will be sent back to them (if no sepecific choice)             other stablecoins will be sent back to them (if have sepecific choice)         Currently, the swap is done inside Platypus & Curve         The stablecoin and its swapping pool should be supported         When deposit, the toToken is USDC, which pool to use depends on tokenToPoolForDeposit(token)         When withdraw, the fromToken is USDC, which pool to use depends on tokenToPoolForWithdraw(token)",
    "kind": "dev",
    "methods": {
      "addCurvePool(address,address[])": {
        "params": {
          "_pool": "Curve pool address",
          "_tokens": "Tokens inside this pool"
        }
      },
      "addSupportedStablecoin(address)": {
        "details": "Set a new supported token address      Only callable by the owner",
        "params": {
          "_stablecoin": "Stablecoin address"
        }
      },
      "allowance(address,address)": {
        "details": "See {IERC20-allowance}."
      },
      "approve(address,uint256)": {
        "details": "See {IERC20-approve}. NOTE: If `amount` is the maximum `uint256`, the allowance is not updated on `transferFrom`. This is semantically equivalent to an infinite approval. Requirements: - `spender` cannot be the zero address."
      },
      "approveStablecoin(address,address)": {
        "params": {
          "_contract": "Contract address to give allowance",
          "_token": "Stablecoin address"
        }
      },
      "balanceOf(address)": {
        "details": "See {IERC20-balanceOf}."
      },
      "decreaseAllowance(address,uint256)": {
        "details": "Atomically decreases the allowance granted to `spender` by the caller. This is an alternative to {approve} that can be used as a mitigation for problems described in {IERC20-approve}. Emits an {Approval} event indicating the updated allowance. Requirements: - `spender` cannot be the zero address. - `spender` must have allowance for the caller of at least `subtractedValue`."
      },
      "deposit(uint256,address,uint256,uint256)": {
        "params": {
          "_amount": "Input stablecoin amount",
          "_minAmount": "Minimum amount output (if need swap)",
          "_stablecoin": "Stablecoin address",
          "_type": "Swap type (1 for PTP, 2 for Curve)"
        }
      },
      "increaseAllowance(address,uint256)": {
        "details": "Atomically increases the allowance granted to `spender` by the caller. This is an alternative to {approve} that can be used as a mitigation for problems described in {IERC20-approve}. Emits an {Approval} event indicating the updated allowance. Requirements: - `spender` cannot be the zero address."
      },
      "name()": {
        "details": "Returns the name of the token."
      },
      "owner()": {
        "details": "Returns the address of the current owner."
      },
      "renounceOwnership()": {
        "details": "Leaves the contract without owner. It will not be possible to call `onlyOwner` functions anymore. Can only be called by the current owner. NOTE: Renouncing ownership will leave the contract without an owner, thereby removing any functionality that is only available to the owner."
      },
      "symbol()": {
        "details": "Returns the symbol of the token, usually a shorter version of the name."
      },
      "totalSupply()": {
        "details": "See {IERC20-totalSupply}."
      },
      "transfer(address,uint256)": {
        "details": "See {IERC20-transfer}. Requirements: - `to` cannot be the zero address. - the caller must have a balance of at least `amount`."
      },
      "transferFrom(address,address,uint256)": {
        "details": "See {IERC20-transferFrom}. Emits an {Approval} event indicating the updated allowance. This is not required by the EIP. See the note at the beginning of {ERC20}. NOTE: Does not update the allowance if the current allowance is the maximum `uint256`. Requirements: - `from` and `to` cannot be the zero address. - `from` must have a balance of at least `amount`. - the caller must have allowance for ``from``'s tokens of at least `amount`."
      },
      "transferOwnership(address)": {
        "details": "Transfers ownership of the contract to a new account (`newOwner`). Can only be called by the current owner."
      },
      "withdraw(uint256,address,uint256,uint256)": {
        "params": {
          "_amount": "Amount of shield to burn",
          "_minAmount": "Minimum amount of stablecoin to withdraw (if need swap)",
          "_stablecoin": "Stablecoin address",
          "_type": "Swap type (use PTP/Curve, which pool)"
        }
      }
    },
    "title": "Shield Token (Derived Stablecoin on Degis)",
    "version": 1
  },
  "userdoc": {
    "kind": "user",
    "methods": {
      "addCurvePool(address,address[])": {
        "notice": "Add new curve pool"
      },
      "addSupportedStablecoin(address)": {
        "notice": "Add new supported stablecoin"
      },
      "approveStablecoin(address,address)": {
        "notice": "Approve a stablecoin for swapping         Call once for each stablecoin"
      },
      "decimals()": {
        "notice": "Shield has 6 decimals"
      },
      "deposit(uint256,address,uint256,uint256)": {
        "notice": "Deposit tokens and mint Shield         If the input is USDC, no swap needed, otherwise, swap to USDC"
      },
      "withdraw(uint256,address,uint256,uint256)": {
        "notice": "Withdraw stablecoins and burn shield"
      },
      "withdrawAll()": {
        "notice": "Withdraw all of a user's balance         This function only returns USDC back         If you want other tokens back, use withdraw()"
      }
    },
    "version": 1
  },
  "storageLayout": {
    "storage": [
      {
        "astId": 2670,
        "contract": "contracts/tokens/Shield.sol:Shield",
        "label": "_initialized",
        "offset": 0,
        "slot": "0",
        "type": "t_bool"
      },
      {
        "astId": 2673,
        "contract": "contracts/tokens/Shield.sol:Shield",
        "label": "_initializing",
        "offset": 1,
        "slot": "0",
        "type": "t_bool"
      },
      {
        "astId": 3907,
        "contract": "contracts/tokens/Shield.sol:Shield",
        "label": "__gap",
        "offset": 0,
        "slot": "1",
        "type": "t_array(t_uint256)50_storage"
      },
      {
        "astId": 2926,
        "contract": "contracts/tokens/Shield.sol:Shield",
        "label": "_balances",
        "offset": 0,
        "slot": "51",
        "type": "t_mapping(t_address,t_uint256)"
      },
      {
        "astId": 2932,
        "contract": "contracts/tokens/Shield.sol:Shield",
        "label": "_allowances",
        "offset": 0,
        "slot": "52",
        "type": "t_mapping(t_address,t_mapping(t_address,t_uint256))"
      },
      {
        "astId": 2934,
        "contract": "contracts/tokens/Shield.sol:Shield",
        "label": "_totalSupply",
        "offset": 0,
        "slot": "53",
        "type": "t_uint256"
      },
      {
        "astId": 2936,
        "contract": "contracts/tokens/Shield.sol:Shield",
        "label": "_name",
        "offset": 0,
        "slot": "54",
        "type": "t_string_storage"
      },
      {
        "astId": 2938,
        "contract": "contracts/tokens/Shield.sol:Shield",
        "label": "_symbol",
        "offset": 0,
        "slot": "55",
        "type": "t_string_storage"
      },
      {
        "astId": 3519,
        "contract": "contracts/tokens/Shield.sol:Shield",
        "label": "__gap",
        "offset": 0,
        "slot": "56",
        "type": "t_array(t_uint256)45_storage"
      },
      {
        "astId": 2550,
        "contract": "contracts/tokens/Shield.sol:Shield",
        "label": "_owner",
        "offset": 0,
        "slot": "101",
        "type": "t_address"
      },
      {
        "astId": 2662,
        "contract": "contracts/tokens/Shield.sol:Shield",
        "label": "__gap",
        "offset": 0,
        "slot": "102",
        "type": "t_array(t_uint256)49_storage"
      },
      {
        "astId": 39086,
        "contract": "contracts/tokens/Shield.sol:Shield",
        "label": "supportedStablecoin",
        "offset": 0,
        "slot": "151",
        "type": "t_mapping(t_address,t_bool)"
      },
      {
        "astId": 39090,
        "contract": "contracts/tokens/Shield.sol:Shield",
        "label": "pools",
        "offset": 0,
        "slot": "152",
        "type": "t_mapping(t_string_memory_ptr,t_address)"
      },
      {
        "astId": 39094,
        "contract": "contracts/tokens/Shield.sol:Shield",
        "label": "tokenToPoolForDeposit",
        "offset": 0,
        "slot": "153",
        "type": "t_mapping(t_address,t_address)"
      },
      {
        "astId": 39098,
        "contract": "contracts/tokens/Shield.sol:Shield",
        "label": "tokenToPoolForWithdraw",
        "offset": 0,
        "slot": "154",
        "type": "t_mapping(t_address,t_address)"
      },
      {
        "astId": 39104,
        "contract": "contracts/tokens/Shield.sol:Shield",
        "label": "curvePoolTokenIndex",
        "offset": 0,
        "slot": "155",
        "type": "t_mapping(t_address,t_mapping(t_address,t_int128))"
      }
    ],
    "types": {
      "t_address": {
        "encoding": "inplace",
        "label": "address",
        "numberOfBytes": "20"
      },
      "t_array(t_uint256)45_storage": {
        "base": "t_uint256",
        "encoding": "inplace",
        "label": "uint256[45]",
        "numberOfBytes": "1440"
      },
      "t_array(t_uint256)49_storage": {
        "base": "t_uint256",
        "encoding": "inplace",
        "label": "uint256[49]",
        "numberOfBytes": "1568"
      },
      "t_array(t_uint256)50_storage": {
        "base": "t_uint256",
        "encoding": "inplace",
        "label": "uint256[50]",
        "numberOfBytes": "1600"
      },
      "t_bool": {
        "encoding": "inplace",
        "label": "bool",
        "numberOfBytes": "1"
      },
      "t_int128": {
        "encoding": "inplace",
        "label": "int128",
        "numberOfBytes": "16"
      },
      "t_mapping(t_address,t_address)": {
        "encoding": "mapping",
        "key": "t_address",
        "label": "mapping(address => address)",
        "numberOfBytes": "32",
        "value": "t_address"
      },
      "t_mapping(t_address,t_bool)": {
        "encoding": "mapping",
        "key": "t_address",
        "label": "mapping(address => bool)",
        "numberOfBytes": "32",
        "value": "t_bool"
      },
      "t_mapping(t_address,t_int128)": {
        "encoding": "mapping",
        "key": "t_address",
        "label": "mapping(address => int128)",
        "numberOfBytes": "32",
        "value": "t_int128"
      },
      "t_mapping(t_address,t_mapping(t_address,t_int128))": {
        "encoding": "mapping",
        "key": "t_address",
        "label": "mapping(address => mapping(address => int128))",
        "numberOfBytes": "32",
        "value": "t_mapping(t_address,t_int128)"
      },
      "t_mapping(t_address,t_mapping(t_address,t_uint256))": {
        "encoding": "mapping",
        "key": "t_address",
        "label": "mapping(address => mapping(address => uint256))",
        "numberOfBytes": "32",
        "value": "t_mapping(t_address,t_uint256)"
      },
      "t_mapping(t_address,t_uint256)": {
        "encoding": "mapping",
        "key": "t_address",
        "label": "mapping(address => uint256)",
        "numberOfBytes": "32",
        "value": "t_uint256"
      },
      "t_mapping(t_string_memory_ptr,t_address)": {
        "encoding": "mapping",
        "key": "t_string_memory_ptr",
        "label": "mapping(string => address)",
        "numberOfBytes": "32",
        "value": "t_address"
      },
      "t_string_memory_ptr": {
        "encoding": "bytes",
        "label": "string",
        "numberOfBytes": "32"
      },
      "t_string_storage": {
        "encoding": "bytes",
        "label": "string",
        "numberOfBytes": "32"
      },
      "t_uint256": {
        "encoding": "inplace",
        "label": "uint256",
        "numberOfBytes": "32"
      }
    }
  }
}