{
  "address": "0xFC294DbD5C4494Dabae4330ac46Be5A8Ad87F077",
  "abi": [
    {
      "inputs": [
        {
          "internalType": "address",
          "name": "_degisToken",
          "type": "address"
        }
      ],
      "stateMutability": "nonpayable",
      "type": "constructor"
    },
    {
      "anonymous": false,
      "inputs": [
        {
          "indexed": false,
          "internalType": "address",
          "name": "pool",
          "type": "address"
        },
        {
          "indexed": false,
          "internalType": "uint256",
          "name": "degisPerSecond",
          "type": "uint256"
        }
      ],
      "name": "DegisPerSecondChanged",
      "type": "event"
    },
    {
      "anonymous": false,
      "inputs": [
        {
          "indexed": true,
          "internalType": "address",
          "name": "previousOwner",
          "type": "address"
        },
        {
          "indexed": true,
          "internalType": "address",
          "name": "newOwner",
          "type": "address"
        }
      ],
      "name": "OwnershipTransferred",
      "type": "event"
    },
    {
      "anonymous": false,
      "inputs": [
        {
          "indexed": true,
          "internalType": "address",
          "name": "by",
          "type": "address"
        },
        {
          "indexed": true,
          "internalType": "address",
          "name": "poolToken",
          "type": "address"
        },
        {
          "indexed": true,
          "internalType": "address",
          "name": "poolAddress",
          "type": "address"
        },
        {
          "indexed": false,
          "internalType": "uint256",
          "name": "degisPerSecond",
          "type": "uint256"
        }
      ],
      "name": "PoolRegistered",
      "type": "event"
    },
    {
      "inputs": [
        {
          "internalType": "address",
          "name": "_poolToken",
          "type": "address"
        },
        {
          "internalType": "uint256",
          "name": "_startTimestamp",
          "type": "uint256"
        },
        {
          "internalType": "uint256",
          "name": "_degisPerSecond",
          "type": "uint256"
        }
      ],
      "name": "createPool",
      "outputs": [],
      "stateMutability": "nonpayable",
      "type": "function"
    },
    {
      "inputs": [],
      "name": "degisToken",
      "outputs": [
        {
          "internalType": "address",
          "name": "",
          "type": "address"
        }
      ],
      "stateMutability": "view",
      "type": "function"
    },
    {
      "inputs": [
        {
          "internalType": "address",
          "name": "_poolToken",
          "type": "address"
        }
      ],
      "name": "getPoolAddress",
      "outputs": [
        {
          "internalType": "address",
          "name": "",
          "type": "address"
        }
      ],
      "stateMutability": "view",
      "type": "function"
    },
    {
      "inputs": [
        {
          "internalType": "address",
          "name": "_poolToken",
          "type": "address"
        }
      ],
      "name": "getPoolData",
      "outputs": [
        {
          "components": [
            {
              "internalType": "address",
              "name": "poolToken",
              "type": "address"
            },
            {
              "internalType": "address",
              "name": "poolAddress",
              "type": "address"
            },
            {
              "internalType": "uint256",
              "name": "startTimestamp",
              "type": "uint256"
            },
            {
              "internalType": "uint256",
              "name": "degisPerSecond",
              "type": "uint256"
            }
          ],
          "internalType": "struct StakingPoolFactory.PoolData",
          "name": "",
          "type": "tuple"
        }
      ],
      "stateMutability": "view",
      "type": "function"
    },
    {
      "inputs": [
        {
          "internalType": "address",
          "name": "_to",
          "type": "address"
        },
        {
          "internalType": "uint256",
          "name": "_amount",
          "type": "uint256"
        }
      ],
      "name": "mintReward",
      "outputs": [],
      "stateMutability": "nonpayable",
      "type": "function"
    },
    {
      "inputs": [],
      "name": "owner",
      "outputs": [
        {
          "internalType": "address",
          "name": "",
          "type": "address"
        }
      ],
      "stateMutability": "view",
      "type": "function"
    },
    {
      "inputs": [
        {
          "internalType": "address",
          "name": "",
          "type": "address"
        }
      ],
      "name": "poolExists",
      "outputs": [
        {
          "internalType": "bool",
          "name": "",
          "type": "bool"
        }
      ],
      "stateMutability": "view",
      "type": "function"
    },
    {
      "inputs": [
        {
          "internalType": "address",
          "name": "",
          "type": "address"
        }
      ],
      "name": "pools",
      "outputs": [
        {
          "internalType": "address",
          "name": "",
          "type": "address"
        }
      ],
      "stateMutability": "view",
      "type": "function"
    },
    {
      "inputs": [],
      "name": "renounceOwnership",
      "outputs": [],
      "stateMutability": "nonpayable",
      "type": "function"
    },
    {
      "inputs": [
        {
          "internalType": "address",
          "name": "_pool",
          "type": "address"
        },
        {
          "internalType": "uint256",
          "name": "_degisPerSecond",
          "type": "uint256"
        }
      ],
      "name": "setDegisPerSecond",
      "outputs": [],
      "stateMutability": "nonpayable",
      "type": "function"
    },
    {
      "inputs": [
        {
          "internalType": "address",
          "name": "newOwner",
          "type": "address"
        }
      ],
      "name": "transferOwnership",
      "outputs": [],
      "stateMutability": "nonpayable",
      "type": "function"
    }
  ],
  "transactionHash": "0x3c8b188913083b6dff37cb2adc2d04a93448278bb699c9e5e73ec6faa0edbc1e",
  "args": [
    "0x9f285507Ea5B4F33822CA7aBb5EC8953ce37A645"
  ],
  "numDeployments": 1,
  "solcInputHash": "d14f9f921847ffd085da1bc3feafda7c",
  "bytecode": "0x608060405234801561001057600080fd5b50604051612c1c380380612c1c83398101604081905261002f916100e4565b336100398161005f565b50600180546001600160a01b0319166001600160a01b039290921691909117905561010d565b600080546001600160a01b038381166001600160a01b0319831681178455604051919092169283917f8be0079c531659141344cd1fd0a4f28419497f9722a3daafe3b4186f6b6457e09190a35050565b60006001600160a01b0382165b92915050565b6100cb816100af565b81146100d657600080fd5b50565b80516100bc816100c2565b6000602082840312156100f9576100f9600080fd5b600061010584846100d9565b949350505050565b612b008061011c6000396000f3fe60806040523480156200001157600080fd5b5060043610620000d95760003560e01c8063715018a6116200008b578063a4063dbc1162000062578063a4063dbc14620001e0578063b039ddf6146200020c578063f2fde38b146200022357600080fd5b8063715018a614620001ad5780638da5cb5b14620001b75780639a49090e14620001c957600080fd5b80631e1c6a0711620000c05780631e1c6a07146200014b5780634ec5a65c14620001805780635a1c7e79146200019957600080fd5b80631228cbee14620000de57806313d21cdf1462000125575b600080fd5b6200010d620000ef36600462000962565b6001600160a01b039081166000908152600260205260409020541690565b6040516200011c9190620009a0565b60405180910390f35b6200013c6200013636600462000962565b6200023a565b6040516200011c919062000a09565b620001716200015c36600462000962565b60036020526000908152604090205460ff1681565b6040516200011c919062000a22565b620001976200019136600462000a46565b6200040e565b005b6001546200010d906001600160a01b031681565b6200019762000505565b6000546001600160a01b03166200010d565b62000197620001da36600462000a46565b62000550565b6200010d620001f136600462000962565b6002602052600090815260409020546001600160a01b031681565b620001976200021d36600462000a89565b62000607565b620001976200023436600462000962565b620006ab565b6040805160808101825260008082526020820181905291810182905260608101919091526001600160a01b038083166000908152600260205260409020541680620002a25760405162461bcd60e51b8152600401620002999062000b15565b60405180910390fd5b6000816001600160a01b031663cbdf382c6040518163ffffffff1660e01b8152600401602060405180830381865afa158015620002e3573d6000803e3d6000fd5b505050506040513d601f19601f8201168201806040525081019062000309919062000b34565b90506000826001600160a01b031663e6fd48bc6040518163ffffffff1660e01b8152600401602060405180830381865afa1580156200034c573d6000803e3d6000fd5b505050506040513d601f19601f8201168201806040525081019062000372919062000b66565b90506000836001600160a01b0316637e4d9f546040518163ffffffff1660e01b8152600401602060405180830381865afa158015620003b5573d6000803e3d6000fd5b505050506040513d601f19601f82011682018060405250810190620003db919062000b66565b604080516080810182526001600160a01b0395861681529590941660208601529284019190915250606082015292915050565b33620004226000546001600160a01b031690565b6001600160a01b0316146200044b5760405162461bcd60e51b8152600401620002999062000bbc565b6040517fb7ea2cf40000000000000000000000000000000000000000000000000000000081526001600160a01b0383169063b7ea2cf4906200049290849060040162000bce565b600060405180830381600087803b158015620004ad57600080fd5b505af1158015620004c2573d6000803e3d6000fd5b505050507f1c81daae1e3d76078763307fe3d7098b949bfc1ded1764f75980dfcb825856638282604051620004f992919062000bde565b60405180910390a15050565b33620005196000546001600160a01b031690565b6001600160a01b031614620005425760405162461bcd60e51b8152600401620002999062000bbc565b6200054e60006200071f565b565b3360009081526003602052604090205460ff16620005825760405162461bcd60e51b8152600401620002999062000c37565b6001546040517fb47673980000000000000000000000000000000000000000000000000000000081526001600160a01b039091169063b476739890620005cf908590859060040162000bde565b600060405180830381600087803b158015620005ea57600080fd5b505af1158015620005ff573d6000803e3d6000fd5b505050505050565b336200061b6000546001600160a01b031690565b6001600160a01b031614620006445760405162461bcd60e51b8152600401620002999062000bbc565b6001546040516000916001600160a01b03169085903090869086906200066a906200091d565b6200067a95949392919062000c49565b604051809103906000f08015801562000697573d6000803e3d6000fd5b509050620006a5816200077c565b50505050565b33620006bf6000546001600160a01b031690565b6001600160a01b031614620006e85760405162461bcd60e51b8152600401620002999062000bbc565b6001600160a01b038116620007115760405162461bcd60e51b8152600401620002999062000c9f565b6200071c816200071f565b50565b600080546001600160a01b0383811673ffffffffffffffffffffffffffffffffffffffff19831681178455604051919092169283917f8be0079c531659141344cd1fd0a4f28419497f9722a3daafe3b4186f6b6457e09190a35050565b6000816001600160a01b031663cbdf382c6040518163ffffffff1660e01b8152600401602060405180830381865afa158015620007bd573d6000803e3d6000fd5b505050506040513d601f19601f82011682018060405250810190620007e3919062000b34565b90506000826001600160a01b0316637e4d9f546040518163ffffffff1660e01b8152600401602060405180830381865afa15801562000826573d6000803e3d6000fd5b505050506040513d601f19601f820116820180604052508101906200084c919062000b66565b6001600160a01b0383811660009081526002602052604090205491925016156200088a5760405162461bcd60e51b8152600401620002999062000d34565b6001600160a01b038281166000818152600260209081526040808320805473ffffffffffffffffffffffffffffffffffffffff19169589169586179055848352600390915290819020805460ff191660011790555133907fdf17567f8d46a5b1eceefa38cd3b367da19add72f89e637b0dcf753235d42be1906200091090869062000bce565b60405180910390a4505050565b611d848062000d4783390190565b60006001600160a01b0382165b92915050565b62000949816200092b565b81146200071c57600080fd5b803562000938816200093e565b600060208284031215620009795762000979600080fd5b600062000987848462000955565b949350505050565b6200099a816200092b565b82525050565b602081016200093882846200098f565b806200099a565b8051620009c583826200098f565b506020810151620009da60208401826200098f565b506040810151620009ef6040840182620009b0565b50606081015162000a046060840182620009b0565b505050565b60808101620009388284620009b7565b8015156200099a565b6020810162000938828462000a19565b8062000949565b8035620009388162000a32565b6000806040838503121562000a5e5762000a5e600080fd5b600062000a6c858562000955565b925050602062000a7f8582860162000a39565b9150509250929050565b60008060006060848603121562000aa35762000aa3600080fd5b600062000ab1868662000955565b935050602062000ac48682870162000a39565b925050604062000ad78682870162000a39565b9150509250925092565b600e8152602081017f706f6f6c206e6f7420666f756e64000000000000000000000000000000000000815290505b60200190565b60208082528101620009388162000ae1565b805162000938816200093e565b60006020828403121562000b4b5762000b4b600080fd5b600062000987848462000b27565b8051620009388162000a32565b60006020828403121562000b7d5762000b7d600080fd5b600062000987848462000b59565b60208082527f4f776e61626c653a2063616c6c6572206973206e6f7420746865206f776e6572910190815262000b0f565b60208082528101620009388162000b8b565b60208101620009388284620009b0565b6040810162000bee82856200098f565b62000bfd6020830184620009b0565b9392505050565b60158152602081017f4f6e6c792063616c6c65642066726f6d20706f6f6c00000000000000000000008152905062000b0f565b60208082528101620009388162000c04565b60a0810162000c5982886200098f565b62000c6860208301876200098f565b62000c7760408301866200098f565b62000c866060830185620009b0565b62000c956080830184620009b0565b9695505050505050565b602080825281016200093881602681527f4f776e61626c653a206e6577206f776e657220697320746865207a65726f206160208201527f6464726573730000000000000000000000000000000000000000000000000000604082015260600190565b601f8152602081017f5468697320706f6f6c20697320616c72656164792072656769737465726564008152905062000b0f565b60208082528101620009388162000d0156fe60806040523480156200001157600080fd5b5060405162001d8438038062001d84833981016040819052620000349162000154565b8484848484336200004581620000b6565b5060018055600480546001600160a01b038088166001600160a01b03199283161790925560038054878416908316179055600a80549286169290911691909117905560068190556005829055428210620000a05781620000a2565b425b60075550620001d898505050505050505050565b600080546001600160a01b038381166001600160a01b0319831681178455604051919092169283917f8be0079c531659141344cd1fd0a4f28419497f9722a3daafe3b4186f6b6457e09190a35050565b60006001600160a01b0382165b92915050565b620001248162000106565b81146200013057600080fd5b50565b8051620001138162000119565b8062000124565b8051620001138162000140565b600080600080600060a08688031215620001715762000171600080fd5b60006200017f888862000133565b9550506020620001928882890162000133565b9450506040620001a58882890162000133565b9350506060620001b88882890162000147565b9250506080620001cb8882890162000147565b9150509295509295909350565b611b9c80620001e86000396000f3fe608060405234801561001057600080fd5b506004361061018d5760003560e01c8063a156dc28116100e3578063e3161ddd1161008c578063f2fde38b11610066578063f2fde38b14610314578063f40f0f5214610327578063f8077fae1461033a57600080fd5b8063e3161ddd146102fa578063e6fd48bc14610302578063eb42aa401461030b57600080fd5b8063c45a0155116100bd578063c45a0155146102cc578063cbdf382c146102df578063ddca3f43146102f257600080fd5b8063a156dc2814610269578063a87430ba1461027c578063b7ea2cf4146102b957600080fd5b80637e4d9f5411610145578063906ce8a91161011f578063906ce8a91461023a57806396c82e571461024d5780639e2c8a5b1461025657600080fd5b80637e4d9f54146102005780638da5cb5b146102165780638e169d471461022757600080fd5b80635a1c7e79116101765780635a1c7e79146101c5578063715018a6146101e55780637b0472f0146101ed57600080fd5b80632a5bf6d2146101925780634641257d146101bb575b600080fd5b6101a56101a0366004611408565b610343565b6040516101b291906114d4565b60405180910390f35b6101c36103e3565b005b6004546101d8906001600160a01b031681565b6040516101b291906114ee565b6101c361046c565b6101c36101fb36600461150d565b6104ba565b61020960065481565b6040516101b2919061154a565b6000546001600160a01b03166101d8565b61020961023536600461150d565b6104c9565b610209610248366004611558565b6104ee565b61020960095481565b6101c361026436600461150d565b610517565b61020961027736600461150d565b610522565b6102aa61028a366004611408565b600260208190526000918252604090912080546001820154919092015483565b6040516101b293929190611579565b6101c36102c7366004611558565b610534565b600a546101d8906001600160a01b031681565b6003546101d8906001600160a01b031681565b610209600281565b6101c3610563565b61020960055481565b61020960085481565b6101c3610322366004611408565b61056d565b610209610335366004611408565b6105d8565b61020960075481565b6001600160a01b0381166000908152600260209081526040808320600301805482518185028101850190935280835260609492939192909184015b828210156103d857838290600052602060002090600402016040518060800160405290816000820154815260200160018201548152602001600282015481526020016003820154815250508152602001906001019061037e565b505050509050919050565b6103eb610563565b3360008181526002602052604081209161040490610730565b90508061040f575050565b610419338261081a565b61042982600101546008546104c9565b60028301556040517fc9695243a805adb74c91f28311176c65b417e842d5699893cef56d18bfa48cba9061046090339084906115a1565b60405180910390a15050565b3361047f6000546001600160a01b031690565b6001600160a01b0316146104ae5760405162461bcd60e51b81526004016104a5906115ec565b60405180910390fd5b6104b860006108ca565b565b6104c5338383610932565b5050565b600064e8d4a510006104db8385611612565b6104e59190611647565b90505b92915050565b6000620f42406301e133806105038285611612565b61050d9190611647565b6104e8919061165b565b6104c533838361093d565b6000816104db64e8d4a5100085611612565b600a546001600160a01b0316331461055e5760405162461bcd60e51b81526004016104a5906116a5565b600655565b6104b860006109ed565b336105806000546001600160a01b031690565b6001600160a01b0316146105a65760405162461bcd60e51b81526004016104a5906115ec565b6001600160a01b0381166105cc5760405162461bcd60e51b81526004016104a59061170f565b6105d5816108ca565b50565b60006007544210806105eb575060055442105b806105f65750600954155b1561060357506000919050565b600060075442610613919061171f565b90506000600654826106259190611612565b9050600060085461063883600954610522565b610642919061165b565b6001600160a01b038616600090815260026020818152604080842081516080810183528154815260018201548185015293810154848301526003810180548351818602810186019094528084529697509495939490936060860193879084015b828210156106fc5783829060005260206000209060040201604051806080016040529081600082015481526020016001820154815260200160028201548152602001600382015481525050815260200190600101906106a2565b505050508152505090506000816040015161071b8360200151856104c9565b610725919061171f565b979650505050505050565b6001600160a01b038116600090815260026020818152604080842081516080810183528154815260018201548185015293810154848301526003810180548351818602810186019094528084528695949293606086019390929190879084015b828210156107ea578382906000526020600020906004020160405180608001604052908160008201548152602001600182015481526020016002820154815260200160038201548152505081526020019060010190610790565b50505050815250509050806040015161080982602001516008546104c9565b610813919061171f565b9392505050565b600480546040516370a0823160e01b81526000926001600160a01b03909216916370a082319161084c913091016114ee565b602060405180830381865afa158015610869573d6000803e3d6000fd5b505050506040513d601f19601f8201168201806040525081019061088d9190611741565b9050808211156108b3576004546108ae906001600160a01b03168483610b51565b505050565b6004546108ae906001600160a01b03168484610b51565b600080546001600160a01b038381167fffffffffffffffffffffffff0000000000000000000000000000000000000000831681178455604051919092169283917f8be0079c531659141344cd1fd0a4f28419497f9722a3daafe3b4186f6b6457e09190a35050565b6108ae838383610bd4565b3360009081526002602052604081206003810180549192918590811061096557610965611762565b906000526020600020906004020160405180608001604052908160008201548152602001600182015481526020016002820154815260200160038201548152505090508060400151600014806109bf575080606001514210155b6109db5760405162461bcd60e51b81526004016104a5906117aa565b6109e6858585610fb7565b5050505050565b60075442116109f95750565b6003546040516370a0823160e01b81526000916001600160a01b0316906370a0823190610a2a9030906004016114ee565b602060405180830381865afa158015610a47573d6000803e3d6000fd5b505050506040513d601f19601f82011682018060405250810190610a6b9190611741565b905080610a7a57505042600755565b600060075442610a8a919061171f565b905060008360065483610a9d9190611612565b610aa7919061165b565b600a546040517f9a49090e0000000000000000000000000000000000000000000000000000000081529192506001600160a01b031690639a49090e90610af390309085906004016115a1565b600060405180830381600087803b158015610b0d57600080fd5b505af1158015610b21573d6000803e3d6000fd5b50505050610b3181600954610522565b60086000828254610b42919061165b565b90915550504260075550505050565b6108ae8363a9059cbb60e01b8484604051602401610b709291906115a1565b60408051601f198184030181529190526020810180517bffffffffffffffffffffffffffffffffffffffffffffffffffffffff167fffffffff00000000000000000000000000000000000000000000000000000000909316929092179091526111da565b60026001541415610bf75760405162461bcd60e51b81526004016104a5906117ec565b60026001556005544211610c1d5760405162461bcd60e51b81526004016104a59061182e565b60008211610c3d5760405162461bcd60e51b81526004016104a590611870565b801580610c4957504281115b610c655760405162461bcd60e51b81526004016104a5906118b2565b610c73426301e1338061165b565b8110610c8a57610c87426301e1338061165b565b90505b6003546040516370a0823160e01b815260009182916001600160a01b03909116906370a0823190610cbf9030906004016114ee565b602060405180830381865afa158015610cdc573d6000803e3d6000fd5b505050506040513d601f19601f82011682018060405250810190610d009190611741565b1115610d2d576064610d13600285611612565b610d1d9190611647565b9050610d28816109ed565b610d35565b610d35610563565b6001600160a01b0384166000908152600260205260409020805415610d5d57610d5d85611269565b6003546040516370a0823160e01b81526000916001600160a01b0316906370a0823190610d8e9030906004016114ee565b602060405180830381865afa158015610dab573d6000803e3d6000fd5b505050506040513d601f19601f82011682018060405250810190610dcf9190611741565b9050610ddc333087611289565b6003546040516370a0823160e01b81526000916001600160a01b0316906370a0823190610e0d9030906004016114ee565b602060405180830381865afa158015610e2a573d6000803e3d6000fd5b505050506040513d601f19601f82011682018060405250810190610e4e9190611741565b9050600084610e5d848461171f565b610e67919061171f565b90506000808711610e79576000610e7b565b425b905086600083610e8e610248858561171f565b610e989190611612565b905060008111610eaa57610eaa6118c2565b604080516080810182528581526020808201848152928201868152606083018681526003808d018054600181810183556000928352958220875160049092020190815596519487019490945591516002860155519301929092558854909186918a9190610f1890849061165b565b9250508190555081886001016000828254610f33919061165b565b92505081905550610f4a88600101546008546104c9565b88600201819055508160096000828254610f64919061165b565b90915550506040517f5af417134f72a9d41143ace85b0a26dce6f550f894f2cbc1eeee8810603d91b690610f9d9033908e908e906118d8565b60405180910390a150506001805550505050505050505050565b60026001541415610fda5760405162461bcd60e51b81526004016104a5906117ec565b600260015580610ffc5760405162461bcd60e51b81526004016104a590611918565b6001600160a01b03831660009081526002602052604081206003810180549192918590811061102d5761102d611762565b9060005260206000209060040201905082816000015410156110615760405162461bcd60e51b81526004016104a59061195a565b611069610563565b61107285611269565b6001810154815460009061108790869061171f565b61109e84600201548560030154610248919061171f565b6110a89190611612565b83549091506110b890869061171f565b6110fa578360030186815481106110d1576110d1611762565b60009182526020822060049091020181815560018101829055600281018290556003015561111b565b8483600001600082825461110e919061171f565b9091555050600183018190555b8484600001600082825461112f919061171f565b90915550506001840154819061114690849061171f565b611150919061165b565b6001850181905560085461116491906104c9565b6002850155611173818361171f565b60096000828254611184919061171f565b90915550611194905033866112a1565b7f85082129d87b2fe11527cb1b3b7a520aeb5aa6913f88a3d8757fe40d1db02fdd33866040516111c59291906115a1565b60405180910390a15050600180555050505050565b600061122f826040518060400160405280602081526020017f5361666545524332303a206c6f772d6c6576656c2063616c6c206661696c6564815250856001600160a01b03166112b89092919063ffffffff16565b8051909150156108ae578080602001905181019061124d919061197d565b6108ae5760405162461bcd60e51b81526004016104a5906119f6565b600061127482610730565b90508061127f575050565b6104c5828261081a565b6003546108ae906001600160a01b03168484846112cf565b6003546104c5906001600160a01b03168383610b51565b60606112c784846000856112f6565b949350505050565b6112f0846323b872dd60e01b858585604051602401610b7093929190611a06565b50505050565b6060824710156113185760405162461bcd60e51b81526004016104a590611a79565b843b6113365760405162461bcd60e51b81526004016104a590611abb565b600080866001600160a01b031685876040516113529190611b19565b60006040518083038185875af1925050503d806000811461138f576040519150601f19603f3d011682016040523d82523d6000602084013e611394565b606091505b5091509150610725828286606083156113ae575081610813565b8251156113be5782518084602001fd5b8160405162461bcd60e51b81526004016104a59190611b55565b60006001600160a01b0382166104e8565b6113f2816113d8565b81146105d557600080fd5b80356104e8816113e9565b60006020828403121561141d5761141d600080fd5b60006112c784846113fd565b805b82525050565b805161143d8382611429565b5060208101516114506020840182611429565b5060408101516114636040840182611429565b5060608101516108ae6060840182611429565b6114808282611431565b5060800190565b60200190565b6000611497825190565b808452602093840193830160005b828110156114ca5781516114b98782611476565b9650506020820191506001016114a5565b5093949350505050565b602080825281016104e5818461148d565b61142b816113d8565b602081016104e882846114e5565b806113f2565b80356104e8816114fc565b6000806040838503121561152357611523600080fd5b600061152f8585611502565b925050602061154085828601611502565b9150509250929050565b602081016104e88284611429565b60006020828403121561156d5761156d600080fd5b60006112c78484611502565b606081016115878286611429565b6115946020830185611429565b6112c76040830184611429565b604081016115af82856114e5565b6108136020830184611429565b60208082527f4f776e61626c653a2063616c6c6572206973206e6f7420746865206f776e65729101908152611487565b602080825281016104e8816115bc565b634e487b7160e01b600052601160045260246000fd5b600081600019048311821515161561162c5761162c6115fc565b500290565b634e487b7160e01b600052601260045260246000fd5b60008261165657611656611631565b500490565b6000821982111561166e5761166e6115fc565b500190565b600c8152602081017f4f6e6c7920666163746f7279000000000000000000000000000000000000000081529050611487565b602080825281016104e881611673565b60268152602081017f4f776e61626c653a206e6577206f776e657220697320746865207a65726f206181527f6464726573730000000000000000000000000000000000000000000000000000602082015290505b60400190565b602080825281016104e8816116b5565b600082821015611731576117316115fc565b500390565b80516104e8816114fc565b60006020828403121561175657611756600080fd5b60006112c78484611736565b634e487b7160e01b600052603260045260246000fd5b60188152602081017f4465706f736974206e6f742079657420756e6c6f636b6564000000000000000081529050611487565b602080825281016104e881611778565b601f8152602081017f5265656e7472616e637947756172643a207265656e7472616e742063616c6c0081529050611487565b602080825281016104e8816117ba565b60148152602081017f506f6f6c206e6f7420737461727465642079657400000000000000000000000081529050611487565b602080825281016104e8816117fc565b600b8152602081017f5a65726f20616d6f756e7400000000000000000000000000000000000000000081529050611487565b602080825281016104e88161183e565b60158152602081017f496e76616c6964206c6f636b20696e74657276616c000000000000000000000081529050611487565b602080825281016104e881611880565b634e487b7160e01b600052600160045260246000fd5b6060810161158782866114e5565b600b8152602081017f7a65726f20616d6f756e7400000000000000000000000000000000000000000081529050611487565b602080825281016104e8816118e6565b60148152602081017f616d6f756e742065786365656473207374616b6500000000000000000000000081529050611487565b602080825281016104e881611928565b8015156113f2565b80516104e88161196a565b60006020828403121561199257611992600080fd5b60006112c78484611972565b602a8152602081017f5361666545524332303a204552433230206f7065726174696f6e20646964206e81527f6f7420737563636565640000000000000000000000000000000000000000000060208201529050611709565b602080825281016104e88161199e565b60608101611a1482866114e5565b61159460208301856114e5565b60268152602081017f416464726573733a20696e73756666696369656e742062616c616e636520666f81527f722063616c6c000000000000000000000000000000000000000000000000000060208201529050611709565b602080825281016104e881611a21565b601d8152602081017f416464726573733a2063616c6c20746f206e6f6e2d636f6e747261637400000081529050611487565b602080825281016104e881611a89565b60005b83811015611ae6578181015183820152602001611ace565b838111156112f05750506000910152565b6000611b01825190565b611b0f818560208601611acb565b9290920192915050565b6104e88183611af7565b6000611b2d825190565b808452602084019350611b44818560208601611acb565b601f01601f19169290920192915050565b602080825281016104e58184611b2356fea26469706673582212203a90ad12a25be70f7165627660e02a84d4eca144c6f2baca66e506bc6baf230964736f6c634300080a0033a26469706673582212208d5bcc5b5c0059fd793b7fd6485ab2ad5d841ad02995f10c086ed687e54346e764736f6c634300080a0033",
  "devdoc": {
    "kind": "dev",
    "methods": {
      "createPool(address,uint256,uint256)": {
        "details": "Only called by the owner",
        "params": {
          "_degisPerSecond": "Reward speed",
          "_poolToken": "Pool token address",
          "_startTimestamp": "Start timestamp for reward"
        }
      },
      "getPoolAddress(address)": {
        "params": {
          "_poolToken": "Pool token address"
        }
      },
      "getPoolData(address)": {
        "params": {
          "_poolToken": "Pool token address"
        },
        "returns": {
          "_0": "poolData Pool data struct"
        }
      },
      "mintReward(address,uint256)": {
        "details": "With this function, we only need to add factory contract into minterList",
        "params": {
          "_amount": "Amount of degis tokens to mint",
          "_to": "The address to mint tokens to"
        }
      },
      "renounceOwnership()": {
        "details": "Renouncing ownership will leave the contract without an owner,         thereby removing any functionality that is only available to the owner."
      },
      "setDegisPerSecond(address,uint256)": {
        "params": {
          "_degisPerSecond": "Degis reward per second",
          "_pool": "Address of the staking pool"
        }
      },
      "transferOwnership(address)": {
        "details": "Can only be called by the current owner.",
        "params": {
          "newOwner": "Address of the new owner"
        }
      }
    },
    "version": 1
  },
  "userdoc": {
    "kind": "user",
    "methods": {
      "createPool(address,uint256,uint256)": {
        "notice": "Creates a staking pool and registers it within the factory"
      },
      "getPoolAddress(address)": {
        "notice": "Get the pool address from pool token address"
      },
      "getPoolData(address)": {
        "notice": "Get pool data from pool token address"
      },
      "mintReward(address,uint256)": {
        "notice": "Mint degis tokens as reward"
      },
      "owner()": {
        "notice": "Returns the address of the current owner."
      },
      "renounceOwnership()": {
        "notice": "Leaves the contract without owner. It will not be possible to call         `onlyOwner` functions anymore. Can only be called by the current owner."
      },
      "setDegisPerSecond(address,uint256)": {
        "notice": "Set degis per second for a pool"
      },
      "transferOwnership(address)": {
        "notice": "Transfers ownership of the contract to a new account (`newOwner`)."
      }
    },
    "version": 1
  },
  "storageLayout": {
    "storage": [
      {
        "astId": 30422,
        "contract": "contracts/staking/StakingPoolFactory.sol:StakingPoolFactory",
        "label": "_owner",
        "offset": 0,
        "slot": "0",
        "type": "t_address"
      },
      {
        "astId": 28679,
        "contract": "contracts/staking/StakingPoolFactory.sol:StakingPoolFactory",
        "label": "degisToken",
        "offset": 0,
        "slot": "1",
        "type": "t_address"
      },
      {
        "astId": 28683,
        "contract": "contracts/staking/StakingPoolFactory.sol:StakingPoolFactory",
        "label": "pools",
        "offset": 0,
        "slot": "2",
        "type": "t_mapping(t_address,t_address)"
      },
      {
        "astId": 28687,
        "contract": "contracts/staking/StakingPoolFactory.sol:StakingPoolFactory",
        "label": "poolExists",
        "offset": 0,
        "slot": "3",
        "type": "t_mapping(t_address,t_bool)"
      }
    ],
    "types": {
      "t_address": {
        "encoding": "inplace",
        "label": "address",
        "numberOfBytes": "20"
      },
      "t_bool": {
        "encoding": "inplace",
        "label": "bool",
        "numberOfBytes": "1"
      },
      "t_mapping(t_address,t_address)": {
        "encoding": "mapping",
        "key": "t_address",
        "label": "mapping(address => address)",
        "numberOfBytes": "32",
        "value": "t_address"
      },
      "t_mapping(t_address,t_bool)": {
        "encoding": "mapping",
        "key": "t_address",
        "label": "mapping(address => bool)",
        "numberOfBytes": "32",
        "value": "t_bool"
      }
    }
  }
}