{
  "address": "0x991D202501b6a7b1EA2d19e81E31d43c7B7Cdf3e",
  "abi": [
    {
      "anonymous": false,
      "inputs": [
        {
          "indexed": true,
          "internalType": "address",
          "name": "account",
          "type": "address"
        },
        {
          "indexed": false,
          "internalType": "uint256",
          "name": "value",
          "type": "uint256"
        }
      ],
      "name": "Burn",
      "type": "event"
    },
    {
      "anonymous": false,
      "inputs": [
        {
          "indexed": true,
          "internalType": "address",
          "name": "caller",
          "type": "address"
        },
        {
          "indexed": true,
          "internalType": "address",
          "name": "user",
          "type": "address"
        },
        {
          "indexed": false,
          "internalType": "uint256",
          "name": "amount",
          "type": "uint256"
        }
      ],
      "name": "BurnVeDEG",
      "type": "event"
    },
    {
      "anonymous": false,
      "inputs": [
        {
          "indexed": true,
          "internalType": "address",
          "name": "user",
          "type": "address"
        },
        {
          "indexed": false,
          "internalType": "uint256",
          "name": "amount",
          "type": "uint256"
        }
      ],
      "name": "Claimed",
      "type": "event"
    },
    {
      "anonymous": false,
      "inputs": [
        {
          "indexed": true,
          "internalType": "address",
          "name": "user",
          "type": "address"
        },
        {
          "indexed": false,
          "internalType": "uint256",
          "name": "amount",
          "type": "uint256"
        }
      ],
      "name": "Deposit",
      "type": "event"
    },
    {
      "anonymous": false,
      "inputs": [
        {
          "indexed": true,
          "internalType": "address",
          "name": "user",
          "type": "address"
        },
        {
          "indexed": false,
          "internalType": "uint256",
          "name": "amount",
          "type": "uint256"
        },
        {
          "indexed": false,
          "internalType": "uint256",
          "name": "lockUntil",
          "type": "uint256"
        }
      ],
      "name": "DepositMaxTime",
      "type": "event"
    },
    {
      "anonymous": false,
      "inputs": [
        {
          "indexed": false,
          "internalType": "uint256",
          "name": "oldRate",
          "type": "uint256"
        },
        {
          "indexed": false,
          "internalType": "uint256",
          "name": "newRate",
          "type": "uint256"
        }
      ],
      "name": "GenerationRateChanged",
      "type": "event"
    },
    {
      "anonymous": false,
      "inputs": [
        {
          "indexed": true,
          "internalType": "address",
          "name": "caller",
          "type": "address"
        },
        {
          "indexed": true,
          "internalType": "address",
          "name": "user",
          "type": "address"
        },
        {
          "indexed": false,
          "internalType": "uint256",
          "name": "amount",
          "type": "uint256"
        }
      ],
      "name": "LockVeDEG",
      "type": "event"
    },
    {
      "anonymous": false,
      "inputs": [
        {
          "indexed": false,
          "internalType": "uint256",
          "name": "oldMaxCapRatio",
          "type": "uint256"
        },
        {
          "indexed": false,
          "internalType": "uint256",
          "name": "newMaxCapRatio",
          "type": "uint256"
        }
      ],
      "name": "MaxCapRatioChanged",
      "type": "event"
    },
    {
      "anonymous": false,
      "inputs": [
        {
          "indexed": true,
          "internalType": "address",
          "name": "beneficiary",
          "type": "address"
        },
        {
          "indexed": false,
          "internalType": "uint256",
          "name": "value",
          "type": "uint256"
        }
      ],
      "name": "Mint",
      "type": "event"
    },
    {
      "anonymous": false,
      "inputs": [
        {
          "indexed": true,
          "internalType": "address",
          "name": "previousOwner",
          "type": "address"
        },
        {
          "indexed": true,
          "internalType": "address",
          "name": "newOwner",
          "type": "address"
        }
      ],
      "name": "OwnershipTransferred",
      "type": "event"
    },
    {
      "anonymous": false,
      "inputs": [
        {
          "indexed": false,
          "internalType": "address",
          "name": "account",
          "type": "address"
        }
      ],
      "name": "Paused",
      "type": "event"
    },
    {
      "anonymous": false,
      "inputs": [
        {
          "indexed": true,
          "internalType": "address",
          "name": "caller",
          "type": "address"
        },
        {
          "indexed": true,
          "internalType": "address",
          "name": "user",
          "type": "address"
        },
        {
          "indexed": false,
          "internalType": "uint256",
          "name": "amount",
          "type": "uint256"
        }
      ],
      "name": "UnlockVeDEG",
      "type": "event"
    },
    {
      "anonymous": false,
      "inputs": [
        {
          "indexed": false,
          "internalType": "address",
          "name": "account",
          "type": "address"
        }
      ],
      "name": "Unpaused",
      "type": "event"
    },
    {
      "anonymous": false,
      "inputs": [
        {
          "indexed": false,
          "internalType": "address",
          "name": "newWhiteList",
          "type": "address"
        }
      ],
      "name": "WhiteListAdded",
      "type": "event"
    },
    {
      "anonymous": false,
      "inputs": [
        {
          "indexed": false,
          "internalType": "address",
          "name": "oldWhiteList",
          "type": "address"
        }
      ],
      "name": "WhiteListRemoved",
      "type": "event"
    },
    {
      "anonymous": false,
      "inputs": [
        {
          "indexed": true,
          "internalType": "address",
          "name": "user",
          "type": "address"
        },
        {
          "indexed": false,
          "internalType": "uint256",
          "name": "amount",
          "type": "uint256"
        }
      ],
      "name": "Withdraw",
      "type": "event"
    },
    {
      "inputs": [],
      "name": "SCALE",
      "outputs": [
        {
          "internalType": "uint256",
          "name": "",
          "type": "uint256"
        }
      ],
      "stateMutability": "view",
      "type": "function"
    },
    {
      "inputs": [
        {
          "internalType": "address",
          "name": "_account",
          "type": "address"
        }
      ],
      "name": "addWhitelist",
      "outputs": [],
      "stateMutability": "nonpayable",
      "type": "function"
    },
    {
      "inputs": [
        {
          "internalType": "address",
          "name": "account",
          "type": "address"
        }
      ],
      "name": "balanceOf",
      "outputs": [
        {
          "internalType": "uint256",
          "name": "",
          "type": "uint256"
        }
      ],
      "stateMutability": "view",
      "type": "function"
    },
    {
      "inputs": [
        {
          "internalType": "address",
          "name": "_to",
          "type": "address"
        },
        {
          "internalType": "uint256",
          "name": "_amount",
          "type": "uint256"
        }
      ],
      "name": "burnVeDEG",
      "outputs": [],
      "stateMutability": "nonpayable",
      "type": "function"
    },
    {
      "inputs": [],
      "name": "claim",
      "outputs": [],
      "stateMutability": "nonpayable",
      "type": "function"
    },
    {
      "inputs": [
        {
          "internalType": "address",
          "name": "_user",
          "type": "address"
        }
      ],
      "name": "claimable",
      "outputs": [
        {
          "internalType": "uint256",
          "name": "",
          "type": "uint256"
        }
      ],
      "stateMutability": "view",
      "type": "function"
    },
    {
      "inputs": [],
      "name": "decimals",
      "outputs": [
        {
          "internalType": "uint8",
          "name": "",
          "type": "uint8"
        }
      ],
      "stateMutability": "view",
      "type": "function"
    },
    {
      "inputs": [],
      "name": "degis",
      "outputs": [
        {
          "internalType": "contract IERC20",
          "name": "",
          "type": "address"
        }
      ],
      "stateMutability": "view",
      "type": "function"
    },
    {
      "inputs": [
        {
          "internalType": "uint256",
          "name": "_amount",
          "type": "uint256"
        }
      ],
      "name": "deposit",
      "outputs": [],
      "stateMutability": "nonpayable",
      "type": "function"
    },
    {
      "inputs": [
        {
          "internalType": "uint256",
          "name": "_amount",
          "type": "uint256"
        }
      ],
      "name": "depositMaxTime",
      "outputs": [],
      "stateMutability": "nonpayable",
      "type": "function"
    },
    {
      "inputs": [],
      "name": "farmingPool",
      "outputs": [
        {
          "internalType": "contract IFarmingPool",
          "name": "",
          "type": "address"
        }
      ],
      "stateMutability": "view",
      "type": "function"
    },
    {
      "inputs": [],
      "name": "generationRate",
      "outputs": [
        {
          "internalType": "uint256",
          "name": "",
          "type": "uint256"
        }
      ],
      "stateMutability": "view",
      "type": "function"
    },
    {
      "inputs": [
        {
          "internalType": "address",
          "name": "_degis",
          "type": "address"
        },
        {
          "internalType": "address",
          "name": "_farmingPool",
          "type": "address"
        }
      ],
      "name": "initialize",
      "outputs": [],
      "stateMutability": "nonpayable",
      "type": "function"
    },
    {
      "inputs": [
        {
          "internalType": "address",
          "name": "_to",
          "type": "address"
        },
        {
          "internalType": "uint256",
          "name": "_amount",
          "type": "uint256"
        }
      ],
      "name": "lockVeDEG",
      "outputs": [],
      "stateMutability": "nonpayable",
      "type": "function"
    },
    {
      "inputs": [
        {
          "internalType": "address",
          "name": "",
          "type": "address"
        }
      ],
      "name": "locked",
      "outputs": [
        {
          "internalType": "uint256",
          "name": "",
          "type": "uint256"
        }
      ],
      "stateMutability": "view",
      "type": "function"
    },
    {
      "inputs": [],
      "name": "maxCapRatio",
      "outputs": [
        {
          "internalType": "uint256",
          "name": "",
          "type": "uint256"
        }
      ],
      "stateMutability": "view",
      "type": "function"
    },
    {
      "inputs": [],
      "name": "name",
      "outputs": [
        {
          "internalType": "string",
          "name": "",
          "type": "string"
        }
      ],
      "stateMutability": "view",
      "type": "function"
    },
    {
      "inputs": [],
      "name": "owner",
      "outputs": [
        {
          "internalType": "address",
          "name": "",
          "type": "address"
        }
      ],
      "stateMutability": "view",
      "type": "function"
    },
    {
      "inputs": [],
      "name": "pause",
      "outputs": [],
      "stateMutability": "nonpayable",
      "type": "function"
    },
    {
      "inputs": [],
      "name": "paused",
      "outputs": [
        {
          "internalType": "bool",
          "name": "",
          "type": "bool"
        }
      ],
      "stateMutability": "view",
      "type": "function"
    },
    {
      "inputs": [
        {
          "internalType": "address",
          "name": "_account",
          "type": "address"
        }
      ],
      "name": "removeWhitelist",
      "outputs": [],
      "stateMutability": "nonpayable",
      "type": "function"
    },
    {
      "inputs": [],
      "name": "renounceOwnership",
      "outputs": [],
      "stateMutability": "nonpayable",
      "type": "function"
    },
    {
      "inputs": [
        {
          "internalType": "uint256",
          "name": "_generationRate",
          "type": "uint256"
        }
      ],
      "name": "setGenerationRate",
      "outputs": [],
      "stateMutability": "nonpayable",
      "type": "function"
    },
    {
      "inputs": [
        {
          "internalType": "uint256",
          "name": "_maxCapRatio",
          "type": "uint256"
        }
      ],
      "name": "setMaxCapRatio",
      "outputs": [],
      "stateMutability": "nonpayable",
      "type": "function"
    },
    {
      "inputs": [],
      "name": "symbol",
      "outputs": [
        {
          "internalType": "string",
          "name": "",
          "type": "string"
        }
      ],
      "stateMutability": "view",
      "type": "function"
    },
    {
      "inputs": [],
      "name": "totalSupply",
      "outputs": [
        {
          "internalType": "uint256",
          "name": "",
          "type": "uint256"
        }
      ],
      "stateMutability": "view",
      "type": "function"
    },
    {
      "inputs": [
        {
          "internalType": "address",
          "name": "newOwner",
          "type": "address"
        }
      ],
      "name": "transferOwnership",
      "outputs": [],
      "stateMutability": "nonpayable",
      "type": "function"
    },
    {
      "inputs": [
        {
          "internalType": "address",
          "name": "_to",
          "type": "address"
        },
        {
          "internalType": "uint256",
          "name": "_amount",
          "type": "uint256"
        }
      ],
      "name": "unlockVeDEG",
      "outputs": [],
      "stateMutability": "nonpayable",
      "type": "function"
    },
    {
      "inputs": [],
      "name": "unpause",
      "outputs": [],
      "stateMutability": "nonpayable",
      "type": "function"
    },
    {
      "inputs": [
        {
          "internalType": "address",
          "name": "",
          "type": "address"
        }
      ],
      "name": "users",
      "outputs": [
        {
          "internalType": "uint256",
          "name": "amount",
          "type": "uint256"
        },
        {
          "internalType": "uint256",
          "name": "lastRelease",
          "type": "uint256"
        },
        {
          "internalType": "uint256",
          "name": "amountLocked",
          "type": "uint256"
        },
        {
          "internalType": "uint256",
          "name": "lockUntil",
          "type": "uint256"
        }
      ],
      "stateMutability": "view",
      "type": "function"
    },
    {
      "inputs": [
        {
          "internalType": "uint256",
          "name": "_amount",
          "type": "uint256"
        }
      ],
      "name": "withdraw",
      "outputs": [],
      "stateMutability": "nonpayable",
      "type": "function"
    },
    {
      "inputs": [],
      "name": "withdrawLocked",
      "outputs": [],
      "stateMutability": "nonpayable",
      "type": "function"
    }
  ],
  "transactionHash": "0xc877e22f7182c828c6b570136f9937fe15ce041686969aec346bfe886ec5437d",
  "args": [],
  "numDeployments": 1,
  "solcInputHash": "d14f9f921847ffd085da1bc3feafda7c",
  "bytecode": "0x608060405234801561001057600080fd5b50612611806100206000396000f3fe608060405234801561001057600080fd5b50600436106101f05760003560e01c80637b196fbc1161010f578063b6b55f25116100a2578063d75aca1911610071578063d75aca1914610423578063eced552614610436578063f2fde38b14610445578063f80f5dd51461045857600080fd5b8063b6b55f25146103d4578063b93dd6ad146103e7578063cbf9fe5f146103fa578063d135cc4b1461041b57600080fd5b806395d89b41116100de57806395d89b411461036157806397b85b6a14610369578063a87430ba1461037c578063ae4210b0146103c157600080fd5b80637b196fbc146103245780637b1ba250146103375780638456cb59146103405780638da5cb5b1461034857600080fd5b8063485cc95511610187578063715018a611610156578063715018a6146102ed57806374819f4a146102f557806378ad54c2146102fe57806378c8cda71461031157600080fd5b8063485cc955146102965780634e71d92d146102a95780635c975abb146102b157806370a08231146102c457600080fd5b80632e1a7d4d116101c35780632e1a7d4d14610259578063313ce5671461026c5780633f4ba83a1461027b578063402914f51461028357600080fd5b806306fdde03146101f557806318160ddd14610213578063282a11291461022457806329fd200714610239575b600080fd5b6101fd61046b565b60405161020a9190611b28565b60405180910390f35b60cb545b60405161020a9190611b41565b610237610232366004611b67565b6104fd565b005b60fc5461024c906001600160a01b031681565b60405161020a9190611bb8565b610237610267366004611b67565b610590565b601260405161020a9190611bcf565b6102376106fc565b610217610291366004611bf1565b610730565b6102376102a4366004611c12565b610861565b6102376109d5565b60975460ff1660405161020a9190611c57565b6102176102d2366004611bf1565b6001600160a01b0316600090815260c9602052604090205490565b610237610a5c565b61021760fe5481565b61023761030c366004611c65565b610a90565b61023761031f366004611bf1565b610b19565b610237610332366004611b67565b610b9f565b61021760ff5481565b610237610d07565b6033546001600160a01b031660405161020a9190611ca1565b6101fd610d39565b610237610377366004611c65565b610d48565b6103b161038a366004611bf1565b60fb6020526000908152604090208054600182015460028301546003909301549192909184565b60405161020a9493929190611caf565b6102376103cf366004611c65565b610dc5565b6102376103e2366004611b67565b610e42565b6102376103f5366004611b67565b610fa0565b610217610408366004611bf1565b6101016020526000908152604090205481565b61023761102a565b60fd5461024c906001600160a01b031681565b610217670de0b6b3a764000081565b610237610453366004611bf1565b611151565b610237610466366004611bf1565b6111ad565b606060cc805461047a90611d03565b80601f01602080910402602001604051908101604052809291908181526020018280546104a690611d03565b80156104f35780601f106104c8576101008083540402835291602001916104f3565b820191906000526020600020905b8154815290600101906020018083116104d657829003601f168201915b5050505050905090565b6033546001600160a01b031633146105305760405162461bcd60e51b815260040161052790611d62565b60405180910390fd5b600081116105505760405162461bcd60e51b815260040161052790611dcc565b7fe5f68083dea62da883cd798293e1c21d050b1fb0d77ef46e71ac77e5bab3533460ff5482604051610583929190611ddc565b60405180910390a160ff55565b600260655414156105b35760405162461bcd60e51b815260040161052790611e29565b600260655560975460ff16156105db5760405162461bcd60e51b815260040161052790611e6b565b600081116105fb5760405162461bcd60e51b815260040161052790611ed3565b33600090815260fb602052604090205481111561062a5760405162461bcd60e51b815260040161052790611f15565b33600090815260fb60205260408120426001820155805483929061064f908490611f3b565b909155505060fe5433600090815260fb6020526040812060020154909161067591611f52565b33600090815260c9602052604090205461068f9190611f3b565b905061069b338261122b565b60fc546106b2906001600160a01b03163384611325565b336001600160a01b03167f884edad9ce6fa2440d8a54cc123490eb96d2768479d49ff9c7366125a9424364836040516106eb9190611b41565b60405180910390a250506001606555565b6033546001600160a01b031633146107265760405162461bcd60e51b815260040161052790611d62565b61072e6113a8565b565b60006001600160a01b0382166107585760405162461bcd60e51b815260040161052790611fa3565b6001600160a01b038216600090815260fb60209081526040808320815160808101835281548152600182015493810184905260028201549281019290925260030154606082015291906107ab9042611f3b565b905060006107ca836000015160ff54846107c59190611f52565b61140e565b9050600060fe5484604001516107e09190611f52565b6001600160a01b038716600090815260c960205260409020546108039190611f3b565b9050600060fe5485600001516108199190611f52565b905080821015610854578061082e8484611fb3565b11156108495761083e8282611f3b565b979650505050505050565b509095945050505050565b5060009695505050505050565b600054610100900460ff1661087c5760005460ff1615610880565b303b155b61089c5760405162461bcd60e51b815260040161052790612023565b600054610100900460ff161580156108be576000805461ffff19166101011790555b6001600160a01b0383166108e45760405162461bcd60e51b815260040161052790611fa3565b6109586040518060400160405280601381526020017f566f746520457363726f776564204465676973000000000000000000000000008152506040518060400160405280600581526020017f766544454700000000000000000000000000000000000000000000000000000081525061144b565b610960611488565b6109686114b7565b6109706114de565b670de0b6b3a764000060ff55606460fe5560fc80546001600160a01b0380861673ffffffffffffffffffffffffffffffffffffffff199283161790925560fd80549285169290911691909117905580156109d0576000805461ff00191690555b505050565b600260655414156109f85760405162461bcd60e51b815260040161052790611e29565b600260655560975460ff1615610a205760405162461bcd60e51b815260040161052790611e6b565b33600090815260fb6020526040902054610a4c5760405162461bcd60e51b815260040161052790612065565b610a5533611511565b6001606555565b6033546001600160a01b03163314610a865760405162461bcd60e51b815260040161052790611d62565b61072e600061158e565b336000908152610100602052604090205460ff16610ac05760405162461bcd60e51b8152600401610527906120a7565b610aca82826115ed565b816001600160a01b0316336001600160a01b03167f93a795780f13556c14c8b9c16ccadbc51b7c478437678803f77560f8917aa63683604051610b0d9190611b41565b60405180910390a35050565b6033546001600160a01b03163314610b435760405162461bcd60e51b815260040161052790611d62565b6001600160a01b0381166000908152610100602052604090819020805460ff19169055517fdb0d54f6e7ff4a52bdc49b4c8d9ff245f409fee25c2c0a0a72ece14e2ddf4cfc90610b94908390611ca1565b60405180910390a150565b60026065541415610bc25760405162461bcd60e51b815260040161052790611e29565b600260655560975460ff1615610bea5760405162461bcd60e51b815260040161052790611e6b565b60008111610c0a5760405162461bcd60e51b8152600401610527906120e9565b600060ff54670de0b6b3a764000060fe54610c259190611f52565b610c2f919061210f565b90506000610c3e826002611f52565b610c489042611fb3565b33600090815260fb6020526040812060020180549293508592909190610c6f908490611fb3565b909155505033600081815260fb6020526040902060030182905560fc54610ca3916001600160a01b0390911690308661161f565b610cba338460fe54610cb59190611f52565b611646565b336001600160a01b03167f04f776f8541a42e1afd64d9da6f0d06963de15f3239e9fefc564deb64627b2888483604051610cf5929190611ddc565b60405180910390a25050600160655550565b6033546001600160a01b03163314610d315760405162461bcd60e51b815260040161052790611d62565b61072e611717565b606060cd805461047a90611d03565b336000908152610100602052604090205460ff16610d785760405162461bcd60e51b8152600401610527906120a7565b610d8282826115ed565b816001600160a01b0316336001600160a01b03167fcbc7e17e101b714ec71d03c4097cc449cb6bce4570ba056c8ac33df6a114ba7483604051610b0d9190611b41565b336000908152610100602052604090205460ff16610df55760405162461bcd60e51b8152600401610527906120a7565b610dff828261122b565b816001600160a01b0316336001600160a01b03167f84c383384f51b3d0e13f44451483837016049c1ee070bdaabf204c9fe1b74b1383604051610b0d9190611b41565b60026065541415610e655760405162461bcd60e51b815260040161052790611e29565b600260655560975460ff1615610e8d5760405162461bcd60e51b815260040161052790611e6b565b33328114610ece576001600160a01b0381166000908152610100602052604090205460ff16610ece5760405162461bcd60e51b8152600401610527906120a7565b60008211610eee5760405162461bcd60e51b8152600401610527906120e9565b33600090815260fb602052604090205415610f3657610f0c33611511565b33600090815260fb602052604081208054849290610f2b908490611fb3565b90915550610f4f9050565b33600090815260fb602052604090204260018201558290555b60fc54610f67906001600160a01b031633308561161f565b336001600160a01b03167fe1fffcc4923d04b559f4d29a8bfc6cda04eb5b0d3c460751c2402c5c5cc9109c836040516106eb9190611b41565b6033546001600160a01b03163314610fca5760405162461bcd60e51b815260040161052790611d62565b60008111610fea5760405162461bcd60e51b81526004016105279061217b565b7f62dddf41445412836e2d6efb42e6554a3ae782ae5d6400cc73dc641198da053a60fe548260405161101d929190611ddc565b60405180910390a160fe55565b6002606554141561104d5760405162461bcd60e51b815260040161052790611e29565b600260655560975460ff16156110755760405162461bcd60e51b815260040161052790611e6b565b33600090815260fb60209081526040918290208251608081018452815481526001820154928101929092526002810154928201839052600301546060820152906110d15760405162461bcd60e51b8152600401610527906121bd565b80606001514210156110f55760405162461bcd60e51b8152600401610527906121ff565b6111103360fe54836040015161110b9190611f52565b61122b565b33600081815260fb6020526040808220600281018390556003019190915582015160fc54611149926001600160a01b0390911691611325565b506001606555565b6033546001600160a01b0316331461117b5760405162461bcd60e51b815260040161052790611d62565b6001600160a01b0381166111a15760405162461bcd60e51b815260040161052790612267565b6111aa8161158e565b50565b6033546001600160a01b031633146111d75760405162461bcd60e51b815260040161052790611d62565b6001600160a01b0381166000908152610100602052604090819020805460ff19166001179055517fbf309892cce19064e6d63ba3339f893b199c8cb5041fc6731702cb18e805d29190610b94908390611ca1565b6001600160a01b0382166112515760405162461bcd60e51b8152600401610527906122cf565b6001600160a01b038216600090815260c960205260409020548181101561128a5760405162461bcd60e51b815260040161052790612337565b6001600160a01b038316600090815260c960205260408120838303905560cb80548492906112b9908490611f3b565b92505081905550826001600160a01b03167fcc16f5dbb4873280815c1ee09dbd06736cffcc184412cf7a71a0fdb75d397ca5836040516112f99190611b41565b60405180910390a26001600160a01b038316600090815260c960205260409020546109d090849061176f565b6109d08363a9059cbb60e01b8484604051602401611344929190612347565b60408051601f198184030181529190526020810180517bffffffffffffffffffffffffffffffffffffffffffffffffffffffff167fffffffff00000000000000000000000000000000000000000000000000000000909316929092179091526117f0565b60975460ff166113ca5760405162461bcd60e51b815260040161052790612387565b6097805460ff191690557f5db9ee0a495bf2e6ff9c91a7834c1ba4fdd244a5e8aa4e537bd38aeae4b073aa335b6040516114049190611ca1565b60405180910390a1565b6000670de0b6b3a764000061142460028261210f565b61142e8486611f52565b6114389190611fb3565b611442919061210f565b90505b92915050565b600054610100900460ff166114725760405162461bcd60e51b8152600401610527906123ef565b61147a61187f565b61148482826118a6565b5050565b600054610100900460ff166114af5760405162461bcd60e51b8152600401610527906123ef565b61072e6118f4565b600054610100900460ff16610a555760405162461bcd60e51b8152600401610527906123ef565b600054610100900460ff166115055760405162461bcd60e51b8152600401610527906123ef565b6097805460ff19169055565b600061151c82610730565b6001600160a01b038316600090815260fb60205260409020426001909101559050801561148457816001600160a01b03167fd8138f8a3f377c5259ca548e70e4c2de94f129f5a11036a15b69513cba2b426a8260405161157c9190611b41565b60405180910390a26114848282611646565b603380546001600160a01b0383811673ffffffffffffffffffffffffffffffffffffffff19831681179093556040519116919082907f8be0079c531659141344cd1fd0a4f28419497f9722a3daafe3b4186f6b6457e090600090a35050565b6001600160a01b0382166000908152610101602052604081208054839290611616908490611fb3565b90915550505050565b611640846323b872dd60e01b858585604051602401611344939291906123ff565b50505050565b6001600160a01b03821661166c5760405162461bcd60e51b815260040161052790612459565b8060cb600082825461167e9190611fb3565b90915550506001600160a01b038216600090815260c96020526040812080548392906116ab908490611fb3565b92505081905550816001600160a01b03167f0f6798a560793a54c3bcfe86a93cde1e73087d944c0ea20544137d4121396885826040516116eb9190611b41565b60405180910390a26001600160a01b038216600090815260c9602052604090205461148490839061176f565b60975460ff161561173a5760405162461bcd60e51b815260040161052790611e6b565b6097805460ff191660011790557f62e78cea01bee320cd4e420270b5ea74000d11b0c9f74754ebdbfc544b05a2586113f73390565b60fd546040517fd54465180000000000000000000000000000000000000000000000000000000081526001600160a01b039091169063d5446518906117ba9085908590600401612347565b600060405180830381600087803b1580156117d457600080fd5b505af11580156117e8573d6000803e3d6000fd5b505050505050565b6000611845826040518060400160405280602081526020017f5361666545524332303a206c6f772d6c6576656c2063616c6c206661696c6564815250856001600160a01b03166119249092919063ffffffff16565b8051909150156109d05780806020019051810190611863919061247c565b6109d05760405162461bcd60e51b8152600401610527906124f5565b600054610100900460ff1661072e5760405162461bcd60e51b8152600401610527906123ef565b600054610100900460ff166118cd5760405162461bcd60e51b8152600401610527906123ef565b81516118e09060cc906020850190611a31565b5080516109d09060cd906020840190611a31565b600054610100900460ff1661191b5760405162461bcd60e51b8152600401610527906123ef565b61072e3361158e565b6060611933848460008561193d565b90505b9392505050565b60608247101561195f5760405162461bcd60e51b81526004016105279061255d565b843b61197d5760405162461bcd60e51b81526004016105279061259f565b600080866001600160a01b0316858760405161199991906125d1565b60006040518083038185875af1925050503d80600081146119d6576040519150601f19603f3d011682016040523d82523d6000602084013e6119db565b606091505b50915091506119eb8282866119f8565b925050505b949350505050565b60608315611a07575081611936565b825115611a175782518084602001fd5b8160405162461bcd60e51b81526004016105279190611b28565b828054611a3d90611d03565b90600052602060002090601f016020900481019282611a5f5760008555611aa5565b82601f10611a7857805160ff1916838001178555611aa5565b82800160010185558215611aa5579182015b82811115611aa5578251825591602001919060010190611a8a565b50611ab1929150611ab5565b5090565b5b80821115611ab15760008155600101611ab6565b60005b83811015611ae5578181015183820152602001611acd565b838111156116405750506000910152565b6000611b00825190565b808452602084019350611b17818560208601611aca565b601f01601f19169290920192915050565b602080825281016114428184611af6565b805b82525050565b602081016114458284611b39565b805b81146111aa57600080fd5b803561144581611b4f565b600060208284031215611b7c57611b7c600080fd5b60006119f08484611b5c565b60006001600160a01b038216611445565b600061144582611b88565b600061144582611b99565b611b3b81611ba4565b602081016114458284611baf565b60ff8116611b3b565b602081016114458284611bc6565b611b5181611b88565b803561144581611bdd565b600060208284031215611c0657611c06600080fd5b60006119f08484611be6565b60008060408385031215611c2857611c28600080fd5b6000611c348585611be6565b9250506020611c4585828601611be6565b9150509250929050565b801515611b3b565b602081016114458284611c4f565b60008060408385031215611c7b57611c7b600080fd5b6000611c878585611be6565b9250506020611c4585828601611b5c565b611b3b81611b88565b602081016114458284611c98565b60808101611cbd8287611b39565b611cca6020830186611b39565b611cd76040830185611b39565b611ce46060830184611b39565b95945050505050565b634e487b7160e01b600052602260045260246000fd5b600281046001821680611d1757607f821691505b60208210811415611d2a57611d2a611ced565b50919050565b60208082527f4f776e61626c653a2063616c6c6572206973206e6f7420746865206f776e657291019081525b60200190565b6020808252810161144581611d30565b60288152602081017f47656e65726174696f6e20726174652073686f756c642062652067726561746581527f72207468616e2030000000000000000000000000000000000000000000000000602082015290505b60400190565b6020808252810161144581611d72565b60408101611dea8285611b39565b6119366020830184611b39565b601f8152602081017f5265656e7472616e637947756172643a207265656e7472616e742063616c6c0081529050611d5c565b6020808252810161144581611df7565b60108152602081017f5061757361626c653a207061757365640000000000000000000000000000000081529050611d5c565b6020808252810161144581611e39565b60228152602081017f416d6f756e742073686f756c642062652067726561746572207468616e207a6581527f726f00000000000000000000000000000000000000000000000000000000000060208201529050611dc6565b6020808252810161144581611e7b565b60128152602081017f4e6f7420656e6f7567682062616c616e6365000000000000000000000000000081529050611d5c565b6020808252810161144581611ee3565b634e487b7160e01b600052601160045260246000fd5b600082821015611f4d57611f4d611f25565b500390565b6000816000190483118215151615611f6c57611f6c611f25565b500290565b600c8152602081017f7a65726f2061646472657373000000000000000000000000000000000000000081529050611d5c565b6020808252810161144581611f71565b60008219821115611fc657611fc6611f25565b500190565b602e8152602081017f496e697469616c697a61626c653a20636f6e747261637420697320616c72656181527f647920696e697469616c697a656400000000000000000000000000000000000060208201529050611dc6565b6020808252810161144581611fcb565b60118152602081017f7573657220686173206e6f207374616b6500000000000000000000000000000081529050611d5c565b6020808252810161144581612033565b600f8152602081017f4e6f742077686974656c6973746564000000000000000000000000000000000081529050611d5c565b6020808252810161144581612075565b600b8152602081017f5a65726f20616d6f756e7400000000000000000000000000000000000000000081529050611d5c565b60208082528101611445816120b7565b634e487b7160e01b600052601260045260246000fd5b60008261211e5761211e6120f9565b500490565b60298152602081017f4d61782063617020726174696f2073686f756c6420626520677265617465722081527f7468616e207a65726f000000000000000000000000000000000000000000000060208201529050611dc6565b6020808252810161144581612123565b60168152602081017f7573657220686173206e6f206c6f636b6564204445470000000000000000000081529050611d5c565b602080825281016114458161218b565b601a8152602081017f6c6f636b65642074696d6520686173206e6f742070617373656400000000000081529050611d5c565b60208082528101611445816121cd565b60268152602081017f4f776e61626c653a206e6577206f776e657220697320746865207a65726f206181527f646472657373000000000000000000000000000000000000000000000000000060208201529050611dc6565b602080825281016114458161220f565b60218152602081017f45524332303a206275726e2066726f6d20746865207a65726f2061646472657381527f730000000000000000000000000000000000000000000000000000000000000060208201529050611dc6565b6020808252810161144581612277565b60228152602081017f45524332303a206275726e20616d6f756e7420657863656564732062616c616e81527f636500000000000000000000000000000000000000000000000000000000000060208201529050611dc6565b60208082528101611445816122df565b60408101611dea8285611c98565b60148152602081017f5061757361626c653a206e6f742070617573656400000000000000000000000081529050611d5c565b6020808252810161144581612355565b602b8152602081017f496e697469616c697a61626c653a20636f6e7472616374206973206e6f74206981527f6e697469616c697a696e6700000000000000000000000000000000000000000060208201529050611dc6565b6020808252810161144581612397565b6060810161240d8286611c98565b61241a6020830185611c98565b6119f06040830184611b39565b601f8152602081017f45524332303a206d696e7420746f20746865207a65726f20616464726573730081529050611d5c565b6020808252810161144581612427565b801515611b51565b805161144581612469565b60006020828403121561249157612491600080fd5b60006119f08484612471565b602a8152602081017f5361666545524332303a204552433230206f7065726174696f6e20646964206e81527f6f7420737563636565640000000000000000000000000000000000000000000060208201529050611dc6565b602080825281016114458161249d565b60268152602081017f416464726573733a20696e73756666696369656e742062616c616e636520666f81527f722063616c6c000000000000000000000000000000000000000000000000000060208201529050611dc6565b6020808252810161144581612505565b601d8152602081017f416464726573733a2063616c6c20746f206e6f6e2d636f6e747261637400000081529050611d5c565b602080825281016114458161256d565b60006125b9825190565b6125c7818560208601611aca565b9290920192915050565b61144581836125af56fea2646970667358221220b27c18f73856520aa876219beb417188345ce37199c6a2af13a36ea84eefa1f064736f6c634300080a0033",
  "devdoc": {
    "kind": "dev",
    "methods": {
      "addWhitelist(address)": {
        "params": {
          "_account": "Address to add"
        }
      },
      "balanceOf(address)": {
        "details": "See {IERC20-balanceOf}."
      },
      "burnVeDEG(address,uint256)": {
        "details": "Only whitelisted contract      For future use, some contracts may need veDEG for entrance",
        "params": {
          "_amount": "Amount to burn",
          "_to": "Address to burn"
        }
      },
      "claimable(address)": {
        "params": {
          "_user": "User address"
        }
      },
      "decimals()": {
        "details": "Returns the number of decimals used to get its user representation. For example, if `decimals` equals `2`, a balance of `505` tokens should be displayed to a user as `5.05` (`505 / 10 ** 2`). Tokens usually opt for a value of 18, imitating the relationship between Ether and Wei. This is the value {ERC20} uses, unless this function is overridden; NOTE: This information is only used for _display_ purposes: it in no way affects any of the arithmetic of the contract, including {IERC20-balanceOf} and {IERC20-transfer}."
      },
      "deposit(uint256)": {
        "details": "Only EOA or whitelisted contract address",
        "params": {
          "_amount": "Amount to deposit"
        }
      },
      "depositMaxTime(uint256)": {
        "details": "Release the max amount one time"
      },
      "name()": {
        "details": "Returns the name of the token."
      },
      "owner()": {
        "details": "Returns the address of the current owner."
      },
      "paused()": {
        "details": "Returns true if the contract is paused, and false otherwise."
      },
      "removeWhitelist(address)": {
        "params": {
          "_account": "Address to remove"
        }
      },
      "renounceOwnership()": {
        "details": "Leaves the contract without owner. It will not be possible to call `onlyOwner` functions anymore. Can only be called by the current owner. NOTE: Renouncing ownership will leave the contract without an owner, thereby removing any functionality that is only available to the owner."
      },
      "setGenerationRate(uint256)": {
        "params": {
          "_generationRate": "New generation rate"
        }
      },
      "setMaxCapRatio(uint256)": {
        "params": {
          "_maxCapRatio": "the new max ratio"
        }
      },
      "symbol()": {
        "details": "Returns the symbol of the token, usually a shorter version of the name."
      },
      "totalSupply()": {
        "details": "See {IERC20-totalSupply}."
      },
      "transferOwnership(address)": {
        "details": "Transfers ownership of the contract to a new account (`newOwner`). Can only be called by the current owner."
      },
      "withdraw(uint256)": {
        "details": "User will lose all veDEG once he withdrawed",
        "params": {
          "_amount": "Amount to withdraw"
        }
      }
    },
    "title": "Vote Escrowed Degis",
    "version": 1
  },
  "userdoc": {
    "kind": "user",
    "methods": {
      "addWhitelist(address)": {
        "notice": "Add a new whitelist address"
      },
      "burnVeDEG(address,uint256)": {
        "notice": "Burn veDEG"
      },
      "claim()": {
        "notice": "Claims accumulated veDEG for flex deposit"
      },
      "claimable(address)": {
        "notice": "Calculate the amount of veDEG that can be claimed by user"
      },
      "deposit(uint256)": {
        "notice": "Depisit degis for veDEG"
      },
      "depositMaxTime(uint256)": {
        "notice": "Deposit for the max time"
      },
      "removeWhitelist(address)": {
        "notice": "Remove a new whitelist address"
      },
      "setGenerationRate(uint256)": {
        "notice": "Set generationRate"
      },
      "setMaxCapRatio(uint256)": {
        "notice": "Set maxCap ratio"
      },
      "withdraw(uint256)": {
        "notice": "Withdraw degis token"
      },
      "withdrawLocked()": {
        "notice": "Withdraw all the locked veDEG"
      }
    },
    "notice": "The staking contract for DEG -> veDEG         veDEG:            - Boosting the farming reward            - Governance            - Participate in Initial Liquidity Matching (naughty price)            - etc.         If you stake degis, you generate veDEG at the current `generationRate` until you reach `maxCap`         If you unstake any amount of degis, you will lose all of your veDEG tokens         There is also an option that you lock your DEG for the max time         and get the maximum veDEG balance immediately.         !! Attention !!         If you stake DEG for the max time for more than once, the lockUntil timestamp will         be updated to the latest one.",
    "version": 1
  },
  "storageLayout": {
    "storage": [
      {
        "astId": 2523,
        "contract": "contracts/governance/VoteEscrowedDegis.sol:VoteEscrowedDegis",
        "label": "_initialized",
        "offset": 0,
        "slot": "0",
        "type": "t_bool"
      },
      {
        "astId": 2526,
        "contract": "contracts/governance/VoteEscrowedDegis.sol:VoteEscrowedDegis",
        "label": "_initializing",
        "offset": 1,
        "slot": "0",
        "type": "t_bool"
      },
      {
        "astId": 3044,
        "contract": "contracts/governance/VoteEscrowedDegis.sol:VoteEscrowedDegis",
        "label": "__gap",
        "offset": 0,
        "slot": "1",
        "type": "t_array(t_uint256)50_storage"
      },
      {
        "astId": 2403,
        "contract": "contracts/governance/VoteEscrowedDegis.sol:VoteEscrowedDegis",
        "label": "_owner",
        "offset": 0,
        "slot": "51",
        "type": "t_address"
      },
      {
        "astId": 2515,
        "contract": "contracts/governance/VoteEscrowedDegis.sol:VoteEscrowedDegis",
        "label": "__gap",
        "offset": 0,
        "slot": "52",
        "type": "t_array(t_uint256)49_storage"
      },
      {
        "astId": 2715,
        "contract": "contracts/governance/VoteEscrowedDegis.sol:VoteEscrowedDegis",
        "label": "_status",
        "offset": 0,
        "slot": "101",
        "type": "t_uint256"
      },
      {
        "astId": 2759,
        "contract": "contracts/governance/VoteEscrowedDegis.sol:VoteEscrowedDegis",
        "label": "__gap",
        "offset": 0,
        "slot": "102",
        "type": "t_array(t_uint256)49_storage"
      },
      {
        "astId": 2611,
        "contract": "contracts/governance/VoteEscrowedDegis.sol:VoteEscrowedDegis",
        "label": "_paused",
        "offset": 0,
        "slot": "151",
        "type": "t_bool"
      },
      {
        "astId": 2700,
        "contract": "contracts/governance/VoteEscrowedDegis.sol:VoteEscrowedDegis",
        "label": "__gap",
        "offset": 0,
        "slot": "152",
        "type": "t_array(t_uint256)49_storage"
      },
      {
        "astId": 14679,
        "contract": "contracts/governance/VoteEscrowedDegis.sol:VoteEscrowedDegis",
        "label": "_balances",
        "offset": 0,
        "slot": "201",
        "type": "t_mapping(t_address,t_uint256)"
      },
      {
        "astId": 14685,
        "contract": "contracts/governance/VoteEscrowedDegis.sol:VoteEscrowedDegis",
        "label": "_allowances",
        "offset": 0,
        "slot": "202",
        "type": "t_mapping(t_address,t_mapping(t_address,t_uint256))"
      },
      {
        "astId": 14687,
        "contract": "contracts/governance/VoteEscrowedDegis.sol:VoteEscrowedDegis",
        "label": "_totalSupply",
        "offset": 0,
        "slot": "203",
        "type": "t_uint256"
      },
      {
        "astId": 14689,
        "contract": "contracts/governance/VoteEscrowedDegis.sol:VoteEscrowedDegis",
        "label": "_name",
        "offset": 0,
        "slot": "204",
        "type": "t_string_storage"
      },
      {
        "astId": 14691,
        "contract": "contracts/governance/VoteEscrowedDegis.sol:VoteEscrowedDegis",
        "label": "_symbol",
        "offset": 0,
        "slot": "205",
        "type": "t_string_storage"
      },
      {
        "astId": 14930,
        "contract": "contracts/governance/VoteEscrowedDegis.sol:VoteEscrowedDegis",
        "label": "__gap",
        "offset": 0,
        "slot": "206",
        "type": "t_array(t_uint256)45_storage"
      },
      {
        "astId": 14977,
        "contract": "contracts/governance/VoteEscrowedDegis.sol:VoteEscrowedDegis",
        "label": "users",
        "offset": 0,
        "slot": "251",
        "type": "t_mapping(t_address,t_struct(UserInfo)14972_storage)"
      },
      {
        "astId": 14980,
        "contract": "contracts/governance/VoteEscrowedDegis.sol:VoteEscrowedDegis",
        "label": "degis",
        "offset": 0,
        "slot": "252",
        "type": "t_contract(IERC20)4647"
      },
      {
        "astId": 14983,
        "contract": "contracts/governance/VoteEscrowedDegis.sol:VoteEscrowedDegis",
        "label": "farmingPool",
        "offset": 0,
        "slot": "253",
        "type": "t_contract(IFarmingPool)13884"
      },
      {
        "astId": 14985,
        "contract": "contracts/governance/VoteEscrowedDegis.sol:VoteEscrowedDegis",
        "label": "maxCapRatio",
        "offset": 0,
        "slot": "254",
        "type": "t_uint256"
      },
      {
        "astId": 14987,
        "contract": "contracts/governance/VoteEscrowedDegis.sol:VoteEscrowedDegis",
        "label": "generationRate",
        "offset": 0,
        "slot": "255",
        "type": "t_uint256"
      },
      {
        "astId": 14994,
        "contract": "contracts/governance/VoteEscrowedDegis.sol:VoteEscrowedDegis",
        "label": "whitelist",
        "offset": 0,
        "slot": "256",
        "type": "t_mapping(t_address,t_bool)"
      },
      {
        "astId": 14998,
        "contract": "contracts/governance/VoteEscrowedDegis.sol:VoteEscrowedDegis",
        "label": "locked",
        "offset": 0,
        "slot": "257",
        "type": "t_mapping(t_address,t_uint256)"
      }
    ],
    "types": {
      "t_address": {
        "encoding": "inplace",
        "label": "address",
        "numberOfBytes": "20"
      },
      "t_array(t_uint256)45_storage": {
        "base": "t_uint256",
        "encoding": "inplace",
        "label": "uint256[45]",
        "numberOfBytes": "1440"
      },
      "t_array(t_uint256)49_storage": {
        "base": "t_uint256",
        "encoding": "inplace",
        "label": "uint256[49]",
        "numberOfBytes": "1568"
      },
      "t_array(t_uint256)50_storage": {
        "base": "t_uint256",
        "encoding": "inplace",
        "label": "uint256[50]",
        "numberOfBytes": "1600"
      },
      "t_bool": {
        "encoding": "inplace",
        "label": "bool",
        "numberOfBytes": "1"
      },
      "t_contract(IERC20)4647": {
        "encoding": "inplace",
        "label": "contract IERC20",
        "numberOfBytes": "20"
      },
      "t_contract(IFarmingPool)13884": {
        "encoding": "inplace",
        "label": "contract IFarmingPool",
        "numberOfBytes": "20"
      },
      "t_mapping(t_address,t_bool)": {
        "encoding": "mapping",
        "key": "t_address",
        "label": "mapping(address => bool)",
        "numberOfBytes": "32",
        "value": "t_bool"
      },
      "t_mapping(t_address,t_mapping(t_address,t_uint256))": {
        "encoding": "mapping",
        "key": "t_address",
        "label": "mapping(address => mapping(address => uint256))",
        "numberOfBytes": "32",
        "value": "t_mapping(t_address,t_uint256)"
      },
      "t_mapping(t_address,t_struct(UserInfo)14972_storage)": {
        "encoding": "mapping",
        "key": "t_address",
        "label": "mapping(address => struct VoteEscrowedDegis.UserInfo)",
        "numberOfBytes": "32",
        "value": "t_struct(UserInfo)14972_storage"
      },
      "t_mapping(t_address,t_uint256)": {
        "encoding": "mapping",
        "key": "t_address",
        "label": "mapping(address => uint256)",
        "numberOfBytes": "32",
        "value": "t_uint256"
      },
      "t_string_storage": {
        "encoding": "bytes",
        "label": "string",
        "numberOfBytes": "32"
      },
      "t_struct(UserInfo)14972_storage": {
        "encoding": "inplace",
        "label": "struct VoteEscrowedDegis.UserInfo",
        "members": [
          {
            "astId": 14965,
            "contract": "contracts/governance/VoteEscrowedDegis.sol:VoteEscrowedDegis",
            "label": "amount",
            "offset": 0,
            "slot": "0",
            "type": "t_uint256"
          },
          {
            "astId": 14967,
            "contract": "contracts/governance/VoteEscrowedDegis.sol:VoteEscrowedDegis",
            "label": "lastRelease",
            "offset": 0,
            "slot": "1",
            "type": "t_uint256"
          },
          {
            "astId": 14969,
            "contract": "contracts/governance/VoteEscrowedDegis.sol:VoteEscrowedDegis",
            "label": "amountLocked",
            "offset": 0,
            "slot": "2",
            "type": "t_uint256"
          },
          {
            "astId": 14971,
            "contract": "contracts/governance/VoteEscrowedDegis.sol:VoteEscrowedDegis",
            "label": "lockUntil",
            "offset": 0,
            "slot": "3",
            "type": "t_uint256"
          }
        ],
        "numberOfBytes": "128"
      },
      "t_uint256": {
        "encoding": "inplace",
        "label": "uint256",
        "numberOfBytes": "32"
      }
    }
  }
}