{
  "address": "0x2Ec6482e6D08EcBf48Cab3673b7D54c5a18c25ED",
  "abi": [
    {
      "anonymous": false,
      "inputs": [
        {
          "indexed": false,
          "internalType": "address",
          "name": "token",
          "type": "address"
        },
        {
          "indexed": false,
          "internalType": "uint256",
          "name": "amount",
          "type": "uint256"
        }
      ],
      "name": "AdminTokenRecovery",
      "type": "event"
    },
    {
      "anonymous": false,
      "inputs": [
        {
          "indexed": true,
          "internalType": "uint256",
          "name": "lotteryId",
          "type": "uint256"
        }
      ],
      "name": "LotteryClose",
      "type": "event"
    },
    {
      "anonymous": false,
      "inputs": [
        {
          "indexed": true,
          "internalType": "uint256",
          "name": "lotteryId",
          "type": "uint256"
        },
        {
          "indexed": false,
          "internalType": "uint256",
          "name": "injectedAmount",
          "type": "uint256"
        }
      ],
      "name": "LotteryInjection",
      "type": "event"
    },
    {
      "anonymous": false,
      "inputs": [
        {
          "indexed": true,
          "internalType": "uint256",
          "name": "lotteryId",
          "type": "uint256"
        },
        {
          "indexed": false,
          "internalType": "uint256",
          "name": "finalNumber",
          "type": "uint256"
        },
        {
          "indexed": false,
          "internalType": "uint256",
          "name": "countWinningTickets",
          "type": "uint256"
        }
      ],
      "name": "LotteryNumberDrawn",
      "type": "event"
    },
    {
      "anonymous": false,
      "inputs": [
        {
          "indexed": true,
          "internalType": "uint256",
          "name": "lotteryId",
          "type": "uint256"
        },
        {
          "indexed": false,
          "internalType": "uint256",
          "name": "startTime",
          "type": "uint256"
        },
        {
          "indexed": false,
          "internalType": "uint256",
          "name": "endTime",
          "type": "uint256"
        },
        {
          "indexed": false,
          "internalType": "uint256",
          "name": "priceTicketInDegis",
          "type": "uint256"
        },
        {
          "indexed": false,
          "internalType": "uint256[4]",
          "name": "rewardsBreakdown",
          "type": "uint256[4]"
        },
        {
          "indexed": false,
          "internalType": "uint256",
          "name": "injectedAmount",
          "type": "uint256"
        }
      ],
      "name": "LotteryOpen",
      "type": "event"
    },
    {
      "anonymous": false,
      "inputs": [
        {
          "indexed": false,
          "internalType": "uint256",
          "name": "oldMaxNumber",
          "type": "uint256"
        },
        {
          "indexed": false,
          "internalType": "uint256",
          "name": "newMaxNumber",
          "type": "uint256"
        }
      ],
      "name": "MaxNumberTicketsEachTimeChanged",
      "type": "event"
    },
    {
      "anonymous": false,
      "inputs": [
        {
          "indexed": true,
          "internalType": "address",
          "name": "randomGenerator",
          "type": "address"
        }
      ],
      "name": "NewRandomGenerator",
      "type": "event"
    },
    {
      "anonymous": false,
      "inputs": [
        {
          "indexed": true,
          "internalType": "address",
          "name": "previousOwner",
          "type": "address"
        },
        {
          "indexed": true,
          "internalType": "address",
          "name": "newOwner",
          "type": "address"
        }
      ],
      "name": "OwnershipTransferred",
      "type": "event"
    },
    {
      "anonymous": false,
      "inputs": [
        {
          "indexed": true,
          "internalType": "address",
          "name": "claimer",
          "type": "address"
        },
        {
          "indexed": false,
          "internalType": "uint256",
          "name": "amount",
          "type": "uint256"
        },
        {
          "indexed": true,
          "internalType": "uint256",
          "name": "lotteryId",
          "type": "uint256"
        }
      ],
      "name": "TicketsClaim",
      "type": "event"
    },
    {
      "anonymous": false,
      "inputs": [
        {
          "indexed": true,
          "internalType": "address",
          "name": "buyer",
          "type": "address"
        },
        {
          "indexed": true,
          "internalType": "uint256",
          "name": "lotteryId",
          "type": "uint256"
        },
        {
          "indexed": false,
          "internalType": "uint256",
          "name": "number",
          "type": "uint256"
        },
        {
          "indexed": false,
          "internalType": "uint256",
          "name": "totalPrice",
          "type": "uint256"
        }
      ],
      "name": "TicketsPurchased",
      "type": "event"
    },
    {
      "inputs": [],
      "name": "DEFAULT_PRICE",
      "outputs": [
        {
          "internalType": "uint256",
          "name": "",
          "type": "uint256"
        }
      ],
      "stateMutability": "view",
      "type": "function"
    },
    {
      "inputs": [],
      "name": "DISCOUNT_DIVISOR",
      "outputs": [
        {
          "internalType": "uint256",
          "name": "",
          "type": "uint256"
        }
      ],
      "stateMutability": "view",
      "type": "function"
    },
    {
      "inputs": [],
      "name": "DegisToken",
      "outputs": [
        {
          "internalType": "contract IERC20",
          "name": "",
          "type": "address"
        }
      ],
      "stateMutability": "view",
      "type": "function"
    },
    {
      "inputs": [],
      "name": "MAX_TICKET_NUMBER",
      "outputs": [
        {
          "internalType": "uint32",
          "name": "",
          "type": "uint32"
        }
      ],
      "stateMutability": "view",
      "type": "function"
    },
    {
      "inputs": [],
      "name": "MAX_TREASURY_FEE",
      "outputs": [
        {
          "internalType": "uint256",
          "name": "",
          "type": "uint256"
        }
      ],
      "stateMutability": "view",
      "type": "function"
    },
    {
      "inputs": [],
      "name": "MIN_TICKET_NUMBER",
      "outputs": [
        {
          "internalType": "uint32",
          "name": "",
          "type": "uint32"
        }
      ],
      "stateMutability": "view",
      "type": "function"
    },
    {
      "inputs": [
        {
          "internalType": "uint32",
          "name": "",
          "type": "uint32"
        }
      ],
      "name": "_bracketCalculator",
      "outputs": [
        {
          "internalType": "uint32",
          "name": "",
          "type": "uint32"
        }
      ],
      "stateMutability": "view",
      "type": "function"
    },
    {
      "inputs": [
        {
          "internalType": "uint256",
          "name": "",
          "type": "uint256"
        },
        {
          "internalType": "uint32",
          "name": "",
          "type": "uint32"
        }
      ],
      "name": "_numberTicketsPerLotteryId",
      "outputs": [
        {
          "internalType": "uint256",
          "name": "",
          "type": "uint256"
        }
      ],
      "stateMutability": "view",
      "type": "function"
    },
    {
      "inputs": [
        {
          "internalType": "uint256",
          "name": "_number",
          "type": "uint256"
        }
      ],
      "name": "_reverseTicketNumber",
      "outputs": [
        {
          "internalType": "uint32",
          "name": "",
          "type": "uint32"
        }
      ],
      "stateMutability": "pure",
      "type": "function"
    },
    {
      "inputs": [
        {
          "internalType": "address",
          "name": "",
          "type": "address"
        },
        {
          "internalType": "uint256",
          "name": "",
          "type": "uint256"
        },
        {
          "internalType": "uint256",
          "name": "",
          "type": "uint256"
        }
      ],
      "name": "_userTicketIds",
      "outputs": [
        {
          "internalType": "uint256",
          "name": "",
          "type": "uint256"
        }
      ],
      "stateMutability": "view",
      "type": "function"
    },
    {
      "inputs": [
        {
          "internalType": "uint32[]",
          "name": "_ticketNumbers",
          "type": "uint32[]"
        }
      ],
      "name": "buyTickets",
      "outputs": [],
      "stateMutability": "nonpayable",
      "type": "function"
    },
    {
      "inputs": [
        {
          "internalType": "address",
          "name": "_randomGeneratorAddress",
          "type": "address"
        }
      ],
      "name": "changeRandomGenerator",
      "outputs": [],
      "stateMutability": "nonpayable",
      "type": "function"
    },
    {
      "inputs": [
        {
          "internalType": "uint256",
          "name": "_lotteryId",
          "type": "uint256"
        }
      ],
      "name": "claimAllTickets",
      "outputs": [],
      "stateMutability": "nonpayable",
      "type": "function"
    },
    {
      "inputs": [
        {
          "internalType": "uint256",
          "name": "_lotteryId",
          "type": "uint256"
        },
        {
          "internalType": "uint256[]",
          "name": "_ticketIds",
          "type": "uint256[]"
        },
        {
          "internalType": "uint32[]",
          "name": "_brackets",
          "type": "uint32[]"
        }
      ],
      "name": "claimTickets",
      "outputs": [],
      "stateMutability": "nonpayable",
      "type": "function"
    },
    {
      "inputs": [
        {
          "internalType": "uint256",
          "name": "_lotteryId",
          "type": "uint256"
        }
      ],
      "name": "closeLottery",
      "outputs": [],
      "stateMutability": "nonpayable",
      "type": "function"
    },
    {
      "inputs": [],
      "name": "currentLotteryId",
      "outputs": [
        {
          "internalType": "uint256",
          "name": "",
          "type": "uint256"
        }
      ],
      "stateMutability": "view",
      "type": "function"
    },
    {
      "inputs": [],
      "name": "currentTicketId",
      "outputs": [
        {
          "internalType": "uint256",
          "name": "",
          "type": "uint256"
        }
      ],
      "stateMutability": "view",
      "type": "function"
    },
    {
      "inputs": [
        {
          "internalType": "uint256",
          "name": "_lotteryId",
          "type": "uint256"
        },
        {
          "internalType": "bool",
          "name": "_autoInjection",
          "type": "bool"
        }
      ],
      "name": "drawFinalNumberAndMakeLotteryClaimable",
      "outputs": [],
      "stateMutability": "nonpayable",
      "type": "function"
    },
    {
      "inputs": [
        {
          "internalType": "address",
          "name": "_degis",
          "type": "address"
        },
        {
          "internalType": "address",
          "name": "_randomGenerator",
          "type": "address"
        }
      ],
      "name": "initialize",
      "outputs": [],
      "stateMutability": "nonpayable",
      "type": "function"
    },
    {
      "inputs": [
        {
          "internalType": "uint256",
          "name": "_amount",
          "type": "uint256"
        }
      ],
      "name": "injectFunds",
      "outputs": [],
      "stateMutability": "nonpayable",
      "type": "function"
    },
    {
      "inputs": [
        {
          "internalType": "uint256",
          "name": "",
          "type": "uint256"
        }
      ],
      "name": "lotteries",
      "outputs": [
        {
          "internalType": "enum DegisLotteryV2.Status",
          "name": "status",
          "type": "uint8"
        },
        {
          "internalType": "uint8",
          "name": "treasuryFee",
          "type": "uint8"
        },
        {
          "internalType": "uint32",
          "name": "startTime",
          "type": "uint32"
        },
        {
          "internalType": "uint32",
          "name": "endTime",
          "type": "uint32"
        },
        {
          "internalType": "uint32",
          "name": "finalNumber",
          "type": "uint32"
        },
        {
          "internalType": "uint256",
          "name": "ticketPrice",
          "type": "uint256"
        },
        {
          "internalType": "uint256",
          "name": "firstTicketId",
          "type": "uint256"
        },
        {
          "internalType": "uint256",
          "name": "firstTicketIdNextRound",
          "type": "uint256"
        },
        {
          "internalType": "uint256",
          "name": "amountCollected",
          "type": "uint256"
        },
        {
          "internalType": "uint256",
          "name": "pendingRewards",
          "type": "uint256"
        }
      ],
      "stateMutability": "view",
      "type": "function"
    },
    {
      "inputs": [],
      "name": "maxNumberTicketsEachTime",
      "outputs": [
        {
          "internalType": "uint256",
          "name": "",
          "type": "uint256"
        }
      ],
      "stateMutability": "view",
      "type": "function"
    },
    {
      "inputs": [],
      "name": "owner",
      "outputs": [
        {
          "internalType": "address",
          "name": "",
          "type": "address"
        }
      ],
      "stateMutability": "view",
      "type": "function"
    },
    {
      "inputs": [],
      "name": "pendingInjectionNextLottery",
      "outputs": [
        {
          "internalType": "uint256",
          "name": "",
          "type": "uint256"
        }
      ],
      "stateMutability": "view",
      "type": "function"
    },
    {
      "inputs": [],
      "name": "randomGenerator",
      "outputs": [
        {
          "internalType": "contract IRandomNumberGenerator",
          "name": "",
          "type": "address"
        }
      ],
      "stateMutability": "view",
      "type": "function"
    },
    {
      "inputs": [
        {
          "internalType": "address",
          "name": "_tokenAddress",
          "type": "address"
        },
        {
          "internalType": "uint256",
          "name": "_tokenAmount",
          "type": "uint256"
        }
      ],
      "name": "recoverWrongTokens",
      "outputs": [],
      "stateMutability": "nonpayable",
      "type": "function"
    },
    {
      "inputs": [],
      "name": "renounceOwnership",
      "outputs": [],
      "stateMutability": "nonpayable",
      "type": "function"
    },
    {
      "inputs": [
        {
          "internalType": "uint256",
          "name": "_maxNumber",
          "type": "uint256"
        }
      ],
      "name": "setMaxNumberTicketsEachTime",
      "outputs": [],
      "stateMutability": "nonpayable",
      "type": "function"
    },
    {
      "inputs": [
        {
          "internalType": "address",
          "name": "_treasury",
          "type": "address"
        }
      ],
      "name": "setTreasury",
      "outputs": [],
      "stateMutability": "nonpayable",
      "type": "function"
    },
    {
      "inputs": [
        {
          "internalType": "uint256",
          "name": "_endTime",
          "type": "uint256"
        },
        {
          "internalType": "uint256",
          "name": "_ticketPrice",
          "type": "uint256"
        },
        {
          "internalType": "uint256[4]",
          "name": "_rewardsBreakdown",
          "type": "uint256[4]"
        },
        {
          "internalType": "uint256",
          "name": "_fee",
          "type": "uint256"
        }
      ],
      "name": "startLottery",
      "outputs": [],
      "stateMutability": "nonpayable",
      "type": "function"
    },
    {
      "inputs": [
        {
          "internalType": "uint256",
          "name": "",
          "type": "uint256"
        }
      ],
      "name": "tickets",
      "outputs": [
        {
          "internalType": "uint32",
          "name": "number",
          "type": "uint32"
        },
        {
          "internalType": "address",
          "name": "owner",
          "type": "address"
        }
      ],
      "stateMutability": "view",
      "type": "function"
    },
    {
      "inputs": [
        {
          "internalType": "address",
          "name": "newOwner",
          "type": "address"
        }
      ],
      "name": "transferOwnership",
      "outputs": [],
      "stateMutability": "nonpayable",
      "type": "function"
    },
    {
      "inputs": [],
      "name": "treasury",
      "outputs": [
        {
          "internalType": "address",
          "name": "",
          "type": "address"
        }
      ],
      "stateMutability": "view",
      "type": "function"
    },
    {
      "inputs": [
        {
          "internalType": "uint256",
          "name": "_startId",
          "type": "uint256"
        },
        {
          "internalType": "uint256",
          "name": "_endId",
          "type": "uint256"
        }
      ],
      "name": "viewAllLottery",
      "outputs": [
        {
          "components": [
            {
              "internalType": "enum DegisLotteryV2.Status",
              "name": "status",
              "type": "uint8"
            },
            {
              "internalType": "uint8",
              "name": "treasuryFee",
              "type": "uint8"
            },
            {
              "internalType": "uint32",
              "name": "startTime",
              "type": "uint32"
            },
            {
              "internalType": "uint32",
              "name": "endTime",
              "type": "uint32"
            },
            {
              "internalType": "uint32",
              "name": "finalNumber",
              "type": "uint32"
            },
            {
              "internalType": "uint256",
              "name": "ticketPrice",
              "type": "uint256"
            },
            {
              "internalType": "uint256[4]",
              "name": "rewardsBreakdown",
              "type": "uint256[4]"
            },
            {
              "internalType": "uint256[4]",
              "name": "rewardPerTicketInBracket",
              "type": "uint256[4]"
            },
            {
              "internalType": "uint256[4]",
              "name": "countWinnersPerBracket",
              "type": "uint256[4]"
            },
            {
              "internalType": "uint256",
              "name": "firstTicketId",
              "type": "uint256"
            },
            {
              "internalType": "uint256",
              "name": "firstTicketIdNextRound",
              "type": "uint256"
            },
            {
              "internalType": "uint256",
              "name": "amountCollected",
              "type": "uint256"
            },
            {
              "internalType": "uint256",
              "name": "pendingRewards",
              "type": "uint256"
            }
          ],
          "internalType": "struct DegisLotteryV2.Lottery[]",
          "name": "",
          "type": "tuple[]"
        }
      ],
      "stateMutability": "view",
      "type": "function"
    },
    {
      "inputs": [
        {
          "internalType": "uint256[]",
          "name": "_ticketIds",
          "type": "uint256[]"
        }
      ],
      "name": "viewNumbersPerTicketId",
      "outputs": [
        {
          "internalType": "uint32[]",
          "name": "",
          "type": "uint32[]"
        }
      ],
      "stateMutability": "view",
      "type": "function"
    },
    {
      "inputs": [
        {
          "internalType": "uint256",
          "name": "_lotteryId",
          "type": "uint256"
        }
      ],
      "name": "viewRewardPerTicketInBracket",
      "outputs": [
        {
          "internalType": "uint256[4]",
          "name": "",
          "type": "uint256[4]"
        }
      ],
      "stateMutability": "view",
      "type": "function"
    },
    {
      "inputs": [
        {
          "internalType": "uint256",
          "name": "_lotteryId",
          "type": "uint256"
        }
      ],
      "name": "viewRewardsBreakdown",
      "outputs": [
        {
          "internalType": "uint256[4]",
          "name": "",
          "type": "uint256[4]"
        }
      ],
      "stateMutability": "view",
      "type": "function"
    },
    {
      "inputs": [
        {
          "internalType": "uint256",
          "name": "_lotteryId",
          "type": "uint256"
        },
        {
          "internalType": "uint256",
          "name": "_ticketId",
          "type": "uint256"
        }
      ],
      "name": "viewRewardsForTicketId",
      "outputs": [
        {
          "internalType": "uint256",
          "name": "",
          "type": "uint256"
        }
      ],
      "stateMutability": "view",
      "type": "function"
    },
    {
      "inputs": [
        {
          "internalType": "address",
          "name": "_user",
          "type": "address"
        },
        {
          "internalType": "uint256",
          "name": "_startRound",
          "type": "uint256"
        },
        {
          "internalType": "uint256",
          "name": "_endRound",
          "type": "uint256"
        }
      ],
      "name": "viewUserRewards",
      "outputs": [
        {
          "internalType": "uint256[]",
          "name": "userRewards",
          "type": "uint256[]"
        }
      ],
      "stateMutability": "view",
      "type": "function"
    },
    {
      "inputs": [
        {
          "internalType": "address",
          "name": "_wallet",
          "type": "address"
        },
        {
          "internalType": "uint256",
          "name": "_lotteryId",
          "type": "uint256"
        }
      ],
      "name": "viewWalletTicketIds",
      "outputs": [
        {
          "internalType": "uint256[]",
          "name": "",
          "type": "uint256[]"
        }
      ],
      "stateMutability": "view",
      "type": "function"
    },
    {
      "inputs": [
        {
          "internalType": "uint256",
          "name": "_lotteryId",
          "type": "uint256"
        }
      ],
      "name": "viewWinnerAmount",
      "outputs": [
        {
          "internalType": "uint256[4]",
          "name": "",
          "type": "uint256[4]"
        }
      ],
      "stateMutability": "view",
      "type": "function"
    }
  ],
  "transactionHash": "0xa9d93c448d50393a793c1e1991fabe2fecbde09e427a332298e195003a2939c8",
  "args": [],
  "numDeployments": 7,
  "solcInputHash": "3bba8f7f01bfbb798d9f23a5b817050d",
  "bytecode": "0x608060405234801561001057600080fd5b50614246806100206000396000f3fe608060405234801561001057600080fd5b50600436106102d35760003560e01c80636be4097c11610186578063b46e130e116100e3578063dcbad90d11610097578063f0f4426011610071578063f0f442601461069e578063f2b3c809146106b1578063f2fde38b146106ba57600080fd5b8063dcbad90d14610665578063e1059fe514610678578063e359ebec1461068b57600080fd5b8063c38de539116100c8578063c38de5391461062c578063c6e761a91461063f578063c914914f1461065257600080fd5b8063b46e130e146105e6578063b5877b221461060c57600080fd5b80638da5cb5b1161013a57806398359fa11161011f57806398359fa1146105ad5780639d8ca531146105c0578063b3e3649b146105d357600080fd5b80638da5cb5b1461057c578063972fe6831461058d57600080fd5b8063715018a61161016b578063715018a6146105405780637250e45d146105485780637741879b1461055157600080fd5b80636be4097c146105245780636fa053eb1461052d57600080fd5b806344848a991161023457806361d027b3116101e857806365dc59d6116101cd57806365dc59d6146104e8578063686465b8146105085780636bcac0ff1461051157600080fd5b806361d027b3146104c0578063656f8a25146104e057600080fd5b806350b447121161021957806350b44712146104465780635745464b1461048d5780635b0d64c2146104a057600080fd5b806344848a9914610420578063485cc9551461043357600080fd5b80631e6425fd1161028b57806326df6c271161027057806326df6c27146103da5780633732b4ee146103ed5780633f138d4b1461040d57600080fd5b80631e6425fd146103b25780632149485d146103c757600080fd5b80631398e076116102bc5780631398e0761461030057806314a0792f1461038d5780631b6c743b146103a357600080fd5b80630ab2b086146102d857806312a9769d146102f7575b600080fd5b6102e1609c5481565b6040516102ee9190612cce565b60405180910390f35b6102e1609d5481565b61037761030e366004612cf4565b609e60205260009081526040902080546001820154600e830154600f840154601085015460119095015460ff8086169661010087049091169563ffffffff62010000820481169666010000000000008304821696600160501b909304909116949093919290918a565b6040516102ee9a99989796959493929190612d73565b61039661271081565b6040516102ee9190612e08565b6102e1678ac7230489e8000081565b6103c56103c0366004612cf4565b6106cd565b005b6102e16103d5366004612e16565b610740565b6102e16103e8366004612e78565b6107d3565b6104006103fb366004612cf4565b610811565b6040516102ee9190612f11565b6103c561041b366004612f1f565b610860565b6103c561042e366004612cf4565b61096a565b6103c5610441366004612f41565b610bf7565b61047f610454366004612cf4565b609f6020526000908152604090205463ffffffff81169064010000000090046001600160a01b031682565b6040516102ee929190612f7d565b61039661049b366004612cf4565b610d7e565b6104b36104ae366004612fea565b610dee565b6040516102ee9190613083565b6099546104d3906001600160a01b031681565b6040516102ee9190613094565b6102e1606281565b6097546104fb906001600160a01b031681565b6040516102ee91906130e4565b6102e1609b5481565b61040061051f366004612cf4565b610ec4565b6102e1609a5481565b61040061053b366004612cf4565b610f12565b6103c5610f60565b610396614e1f81565b6102e161055f366004613109565b60a060209081526000928352604080842090915290825290205481565b6065546001600160a01b03166104d3565b6105a061059b366004612e16565b610f96565b6040516102ee91906132b1565b6103c56105bb3660046132c2565b6111b7565b6103c56105ce366004612cf4565b611333565b6103c56105e13660046132f7565b611476565b6103966105f436600461335b565b60a26020526000908152604090205463ffffffff1681565b61061f61061a366004612e78565b611672565b6040516102ee91906133b9565b6103c561063a3660046133dd565b6118a7565b61061f61064d366004612f1f565b611e0c565b6103c5610660366004613410565b611e81565b6098546104fb906001600160a01b031681565b6103c5610686366004612fea565b61226c565b6103c5610699366004612cf4565b61269d565b6103c56106ac3660046132c2565b6127bc565b6102e1610bb881565b6103c56106c83660046132c2565b612815565b6065546001600160a01b031633146107005760405162461bcd60e51b81526004016106f7906134d0565b60405180910390fd5b7f67d06ff5b9d79811174a2f0df6d9be98aa3b3f9ae311716140cb1b0668c11843609c54826040516107339291906134e0565b60405180910390a1609c55565b600060036000848152609e602052604090205460ff16600381111561076757610767612d15565b14610774575060006107cd565b6000838152609e60205260409020600f01548211806107a357506000838152609e60205260409020600e015482105b156107b0575060006107cd565b60006107bc8484612871565b90506107c984848361291f565b9150505b92915050565b60a160205282600052604060002060205281600052604060002081815481106107fb57600080fd5b9060005260206000200160009250925050505481565b610819612bda565b6000828152609e60205260409081902081516080810190925260020160048282826020028201915b8154815260200190600101908083116108415750505050509050919050565b6065546001600160a01b0316331461088a5760405162461bcd60e51b81526004016106f7906134d0565b6097546001600160a01b03908116908316036108b85760405162461bcd60e51b81526004016106f79061352d565b60405163a9059cbb60e01b81526001600160a01b0383169063a9059cbb906108e6903390859060040161353d565b6020604051808303816000875af1158015610905573d6000803e3d6000fd5b505050506040513d601f19601f820116820180604052508101906109299190613556565b5060007f74545154aac348a3eac92596bd1971957ca94795f4e954ec5f613b55fab78129838360405161095d92919061353d565b60405180910390a1505050565b333b156109895760405162461bcd60e51b81526004016106f7906135a9565b3332146109a85760405162461bcd60e51b81526004016106f7906135eb565b6002600154036109ca5760405162461bcd60e51b81526004016106f79061362d565b600260015560036000828152609e602052604090205460ff1660038111156109f4576109f4612d15565b14610a115760405162461bcd60e51b81526004016106f790613697565b6000805b33600090815260a160209081526040808320868452909152902054811015610b105733600090815260a1602090815260408083208684529091528120805483908110610a6357610a636136a7565b6000918252602080832090910154808352609f825260409283902083518085019094525463ffffffff811684526001600160a01b036401000000009091041691830182905292503314610ac85760405162461bcd60e51b81526004016106f7906136ef565b6000610ad48684612871565b905060048163ffffffff161015610b02576000610af287858461291f565b9050610afe8187613715565b9550505b836001019350505050610a15565b506000828152609e602052604081206011018054839290610b3290849061372d565b909155505060975460405163a9059cbb60e01b81526001600160a01b039091169063a9059cbb90610b69903390859060040161353d565b6020604051808303816000875af1158015610b88573d6000803e3d6000fd5b505050506040513d601f19601f82011682018060405250810190610bac9190613556565b5081336001600160a01b03167f0fdeb33b5931b477077383757e0ba077bd3d8eddfa2cc711c54ad2d3a0cfac6583604051610be79190612cce565b60405180910390a3505060018055565b600054610100900460ff16610c125760005460ff1615610c16565b303b155b610c325760405162461bcd60e51b81526004016106f7906137a0565b600054610100900460ff16158015610c54576000805461ffff19166101011790555b610c5c612a21565b610c64612a50565b609780546001600160a01b0380861673ffffffffffffffffffffffffffffffffffffffff19928316179092556098805492851692909116919091179055600a609c5560a26020527f8fa6f0ecb9543d3381552e96aa43533c7f086066e38816919ea0cfae371b342a805463ffffffff1990811660019081179092557f87286cc7b9cf8a377e677776b2644ce858185998d33108f493bdc3c2f07b983680548216600b1790557f984fb507cc15174c9c2666d8998832bf192b808658c1b8547c17c86e40ea581480548216606f17905560036000527f4ed878d3ddcb61d84861a74cb3bb4189ee298a8a85e8f1b99bcffb157f7e18848054909116610457179055609b558015610d79576000805461ff00191690555b505050565b600080610d8d6127108461372d565b905060008060005b6004811015610dd857610da9600a856137c6565b925082610db783600a6137de565b610dc19190613715565b9150610dce600a856137fd565b9350600101610d95565b50610de581612710613715565b95945050505050565b60608160008167ffffffffffffffff811115610e0c57610e0c613811565b604051908082528060200260200182016040528015610e35578160200160208202803683370190505b50905060005b82811015610ebb57609f6000878784818110610e5957610e596136a7565b90506020020135815260200190815260200160002060000160009054906101000a900463ffffffff16828281518110610e9457610e946136a7565b63ffffffff9092166020928302919091019091015280610eb381613827565b915050610e3b565b50949350505050565b610ecc612bda565b6000828152609e60205260409081902081516080810190925260060160048282826020028201918154815260200190600101908083116108415750505050509050919050565b610f1a612bda565b6000828152609e602052604090819020815160808101909252600a0160048282826020028201918154815260200190600101908083116108415750505050509050919050565b6065546001600160a01b03163314610f8a5760405162461bcd60e51b81526004016106f7906134d0565b610f946000612a7d565b565b60606000610fa4848461372d565b610faf906001613715565b67ffffffffffffffff811115610fc757610fc7613811565b60405190808252806020026020018201604052801561100057816020015b610fed612bf8565b815260200190600190039081610fe55790505b509050835b8381116111af576000818152609e60205260409081902081516101a081019092528054829060ff16600381111561103e5761103e612d15565b600381111561104f5761104f612d15565b8152815460ff610100820416602083015263ffffffff62010000820481166040808501919091526601000000000000830482166060850152600160501b90920416608080840191909152600184015460a084015281519081019182905260c09092019190600284019060049082845b8154815260200190600101908083116110be57505050918352505060408051608081019182905260209092019190600684019060049082845b8154815260200190600101908083116110f757505050918352505060408051608081019182905260209092019190600a84019060049082845b815481526020019060010190808311611130575050509183525050600e8201546020820152600f8201546040820152601082015460608201526011909101546080909101528261118160018461372d565b81518110611191576111916136a7565b602002602001018190525080806111a790613827565b915050611005565b509392505050565b6065546001600160a01b031633146111e15760405162461bcd60e51b81526004016106f7906134d0565b6003609a546000908152609e602052604090205460ff16600381111561120957611209612d15565b146112265760405162461bcd60e51b81526004016106f790613870565b806001600160a01b031663dbdff2c16040518163ffffffff1660e01b8152600401600060405180830381600087803b15801561126157600080fd5b505af1158015611275573d6000803e3d6000fd5b50505050806001600160a01b03166342619f666040518163ffffffff1660e01b8152600401602060405180830381865afa1580156112b7573d6000803e3d6000fd5b505050506040513d601f19601f820116820180604052508101906112db919061388b565b506098805473ffffffffffffffffffffffffffffffffffffffff19166001600160a01b0383169081179091556040517f383f8cb39dfa7c3fb901a460dd449ea924868f0a92ff03da64740fffa5f1de6290600090a250565b6065546001600160a01b0316331461135d5760405162461bcd60e51b81526004016106f7906134d0565b60026001540361137f5760405162461bcd60e51b81526004016106f79061362d565b600260019081556000828152609e602052604090205460ff1660038111156113a9576113a9612d15565b146113c65760405162461bcd60e51b81526004016106f790613904565b609860009054906101000a90046001600160a01b03166001600160a01b031663dbdff2c16040518163ffffffff1660e01b8152600401600060405180830381600087803b15801561141657600080fd5b505af115801561142a573d6000803e3d6000fd5b5050506000828152609e6020526040808220805460ff19166002179055518392507f8bc84e5d97533c428862626ac41fe7bc09b1ea2ed5e9e330d84092db8df153669190a25060018055565b6065546001600160a01b031633146114a05760405162461bcd60e51b81526004016106f7906134d0565b609a5415806114d457506003609a546000908152609e602052604090205460ff1660038111156114d2576114d2612d15565b145b6114f05760405162461bcd60e51b81526004016106f790613946565b610bb88111156115125760405162461bcd60e51b81526004016106f790613988565b6127106060830135604084013561152e60208601358635613715565b6115389190613715565b6115429190613715565b11156115605760405162461bcd60e51b81526004016106f7906139ca565b600080841161157757678ac7230489e80000611579565b835b90506000609a6000815461158c90613827565b91829055506000818152609e60205260409020805469ffffffffffffffff00ff1916620100004263ffffffff9081169190910269ffffffff0000000000001916919091176601000000000000918a1691909102176001908117825581018490559091506115fe60028201866004612c73565b50805461ff00191661010060ff861602178155609d80546010830155609b54600e8301555460405183917f5e7c17be0c6c11472c23d5df180e5136efb90395ccff56f1fcfb8db6b5a0a2359161165c9142918c9189918c91906139f2565b60405180910390a250506000609d555050505050565b606061167e838361372d565b611689906001613715565b67ffffffffffffffff8111156116a1576116a1613811565b6040519080825280602002602001820160405280156116ca578160200160208202803683370190505b509050825b8281116111af576001600160a01b038516600090815260a160209081526040808320848452825291829020548251808401909352600f83527f7469636b657420616d6f756e743a200000000000000000000000000000000000918301919091529061173a9082612adc565b6117796040518060400160405280600a81526020017f67617320757365643a20000000000000000000000000000000000000000000008152505a612adc565b801561189e576001600160a01b038616600090815260a1602090815260408083208584528252808320805482518185028101850190935280835291929091908301828280156117e757602002820191906000526020600020905b8154815260200190600101908083116117d3575b5050505050905060005b8281101561189b57600061181e85848481518110611811576118116136a7565b6020026020010151610740565b9050808661182d60018861372d565b8151811061183d5761183d6136a7565b602002602001018181516118519190613715565b90525060408051808201909152600781527f7265776172643a0000000000000000000000000000000000000000000000000060208201526118929082612adc565b506001016117f1565b50505b506001016116cf565b6065546001600160a01b031633146118d15760405162461bcd60e51b81526004016106f7906134d0565b6002600154036118f35760405162461bcd60e51b81526004016106f79061362d565b600260018190556000838152609e602052604090205460ff16600381111561191d5761191d612d15565b1461193a5760405162461bcd60e51b81526004016106f790613a71565b609860009054906101000a90046001600160a01b03166001600160a01b031663eed8e1ee6040518163ffffffff1660e01b8152600401602060405180830381865afa15801561198d573d6000803e3d6000fd5b505050506040513d601f19601f820116820180604052508101906119b19190613a8c565b82146119cf5760405162461bcd60e51b81526004016106f790613adf565b6099546001600160a01b03166119f75760405162461bcd60e51b81526004016106f790613b21565b609854604080517f42619f6600000000000000000000000000000000000000000000000000000000815290516000926001600160a01b0316916342619f669160048083019260209291908290030181865afa158015611a5a573d6000803e3d6000fd5b505050506040513d601f19601f82011682018060405250810190611a7e919061388b565b6000848152609e6020526040812060108101549293509190612710611aa583611f406137de565b611aaf91906137fd565b835490915060009061271090611acf90610100900460ff166107d0613b31565b611add9061ffff16856137de565b611ae791906137fd565b9050600081611af6848661372d565b611b00919061372d565b90506000805b60048163ffffffff161015611d01576000611b22826003613b3f565b90506000611b31826001613b4f565b611b3c90600a613c87565b611b46908b613caa565b63ffffffff808416600090815260a26020526040902054611b68929116613b4f565b60008d815260a06020908152604080832063ffffffff85168452909152902054909150611b95858261372d565b8a600a018463ffffffff1660048110611bb057611bb06136a7565b0155808514611c9457896002018363ffffffff1660048110611bd457611bd46136a7565b015415611c8f57612710611be8868361372d565b898c6002018663ffffffff1660048110611c0457611c046136a7565b0154611c1091906137de565b611c1a91906137fd565b611c2491906137fd565b8a6006018463ffffffff1660048110611c3f57611c3f6136a7565b01556127108860028c0163ffffffff861660048110611c6057611c606136a7565b0154611c6c91906137de565b611c7691906137fd565b8a6011016000828254611c899190613715565b90915550505b611cf5565b60008a6006018463ffffffff1660048110611cb157611cb16136a7565b01556127108860028c0163ffffffff861660048110611cd257611cd26136a7565b0154611cde91906137de565b611ce891906137fd565b611cf29087613715565b95505b93505050600101611b06565b5085546dffffffff000000000000000000ff191660ff19600160501b63ffffffff8a160216176003178655609b54600f8701558715611d4057609d8390555b8115611dc15760975460995460405163a9059cbb60e01b81526001600160a01b039283169263a9059cbb92611d7c92911690869060040161353d565b6020604051808303816000875af1158015611d9b573d6000803e3d6000fd5b505050506040513d601f19601f82011682018060405250810190611dbf9190613556565b505b609a547f98e31a6607b8b15b4d5b91de54f4c09ffe4c4cf162aa532c70b5213754e2e7038883604051611df5929190613cd5565b60405180910390a250506001805550505050505050565b6001600160a01b038216600090815260a1602090815260408083208484528252808320805482518185028101850190935280835260609493830182828015611e7357602002820191906000526020600020905b815481526020019060010190808311611e5f575b509398975050505050505050565b333b15611ea05760405162461bcd60e51b81526004016106f7906135a9565b333214611ebf5760405162461bcd60e51b81526004016106f7906135eb565b600260015403611ee15760405162461bcd60e51b81526004016106f79061362d565b600260015560036000868152609e602052604090205460ff166003811115611f0b57611f0b612d15565b14611f285760405162461bcd60e51b81526004016106f790613d15565b82818114611f485760405162461bcd60e51b81526004016106f790613d57565b60008111611f685760405162461bcd60e51b81526004016106f790613d99565b609c54811115611f8a5760405162461bcd60e51b81526004016106f790613ddb565b6000805b82811015612180576000878783818110611faa57611faa6136a7565b905060200201359050609e60008a8152602001908152602001600020600e0154811015611fe95760405162461bcd60e51b81526004016106f790613e1d565b6000898152609e60205260409020600f015481106120195760405162461bcd60e51b81526004016106f790613e5f565b6000818152609f602052604090205464010000000090046001600160a01b031633146120575760405162461bcd60e51b81526004016106f790613ec7565b6000818152609f6020526040812080547fffffffffffffffff0000000000000000000000000000000000000000ffffffff1690556120bc8a838989878181106120a2576120a26136a7565b90506020020160208101906120b7919061335b565b61291f565b9050600081116120de5760405162461bcd60e51b81526004016106f790613f09565b60038787858181106120f2576120f26136a7565b9050602002016020810190612107919061335b565b63ffffffff1610156121675761214a8a8389898781811061212a5761212a6136a7565b905060200201602081019061213f919061335b565b6120b7906001613b4f565b156121675760405162461bcd60e51b81526004016106f790613f4b565b6121718185613715565b93508260010192505050611f8e565b506000878152609e6020526040812060110180548392906121a290849061372d565b909155505060975460405163a9059cbb60e01b81526001600160a01b039091169063a9059cbb906121d9903390859060040161353d565b6020604051808303816000875af11580156121f8573d6000803e3d6000fd5b505050506040513d601f19601f8201168201806040525081019061221c9190613556565b5086336001600160a01b03167f0fdeb33b5931b477077383757e0ba077bd3d8eddfa2cc711c54ad2d3a0cfac65836040516122579190612cce565b60405180910390a35050600180555050505050565b333b1561228b5760405162461bcd60e51b81526004016106f7906135a9565b3332146122aa5760405162461bcd60e51b81526004016106f7906135eb565b6002600154036122cc5760405162461bcd60e51b81526004016106f79061362d565b600260015580806122ef5760405162461bcd60e51b81526004016106f790613f8d565b609c548111156123115760405162461bcd60e51b81526004016106f790613fcf565b609a5460016000828152609e602052604090205460ff16600381111561233957612339612d15565b146123565760405162461bcd60e51b81526004016106f790614011565b6000818152609e60205260408120600101546123729084612b53565b6097546040516323b872dd60e01b81529192506001600160a01b0316906323b872dd906123a790339030908690600401614021565b6020604051808303816000875af11580156123c6573d6000803e3d6000fd5b505050506040513d601f19601f820116820180604052508101906123ea9190613556565b506000828152609e60205260408120601001805483929061240c908490613715565b90915550600090505b8381101561264d576000868683818110612431576124316136a7565b9050602002016020810190612446919061335b565b905061271063ffffffff8216108015906124685750614e1f63ffffffff821611155b6124845760405162461bcd60e51b81526004016106f790614083565b600084815260a0602052604081209061249e600a84613caa565b6124a9906001613b4f565b63ffffffff1663ffffffff168152602001908152602001600020600081546124d090613827565b90915550600084815260a060205260408120906124ee606484613caa565b6124f990600b613b4f565b63ffffffff1663ffffffff1681526020019081526020016000206000815461252090613827565b90915550600084815260a0602052604081209061253f6103e884613caa565b61254a90606f613b4f565b63ffffffff1663ffffffff1681526020019081526020016000206000815461257190613827565b90915550600084815260a0602052604081209061259061271084613caa565b61259c90610457613b4f565b63ffffffff1663ffffffff168152602001908152602001600020600081546125c390613827565b90915550609b805433600081815260a1602090815260408083208a8452825280832080546001818101835591855283852001869055948352609f909152902080546401000000009092027fffffffffffffffff00000000000000000000000000000000000000000000000090921663ffffffff909516949094171790925580548201905501612415565b5081336001600160a01b03167fc7c1448de202b1838ad1d7fae75dbd69dc79f98d656f7b30f08dc451c9ab7ff8858460405161268a9291906134e0565b60405180910390a3505060018055505050565b609a5460016000828152609e602052604090205460ff1660038111156126c5576126c5612d15565b146126e25760405162461bcd60e51b81526004016106f790614011565b6000818152609e602052604081206010018054849290612703908490613715565b90915550506097546040516323b872dd60e01b81526001600160a01b03909116906323b872dd9061273c90339030908790600401614021565b6020604051808303816000875af115801561275b573d6000803e3d6000fd5b505050506040513d601f19601f8201168201806040525081019061277f9190613556565b50807f1bbd659dd628a25f7ff2eabb69c74a56939c539728282275c1c9c1a2d3e34049836040516127b09190612cce565b60405180910390a25050565b6065546001600160a01b031633146127e65760405162461bcd60e51b81526004016106f7906134d0565b6099805473ffffffffffffffffffffffffffffffffffffffff19166001600160a01b0392909216919091179055565b6065546001600160a01b0316331461283f5760405162461bcd60e51b81526004016106f7906134d0565b6001600160a01b0381166128655760405162461bcd60e51b81526004016106f7906140eb565b61286e81612a7d565b50565b6000818152609f6020908152604080832054858452609e9092529091205460049163ffffffff90811691600160501b90041660015b60048163ffffffff1611612916576128bf81600a613c87565b6128c99084613caa565b63ffffffff166128da82600a613c87565b6128e49084613caa565b63ffffffff1603612901576128fa600182613b3f565b9350612906565b612916565b61290f816140fb565b90506128a6565b50505092915050565b6000828152609f6020908152604080832054868452609e90925282205463ffffffff91821691600160501b909104168261295a856001613b4f565b61296590600a613c87565b905060006129738284613caa565b63ffffffff808816600090815260a26020526040902054612995929116613b4f565b905060006129a38386613caa565b63ffffffff808916600090815260a260205260409020546129c5929116613b4f565b90508063ffffffff168263ffffffff1603612a10576000898152609e6020526040902060060163ffffffff881660048110612a0257612a026136a7565b015495505050505050612a1a565b6000955050505050505b9392505050565b600054610100900460ff16612a485760405162461bcd60e51b81526004016106f79061416f565b610f94612b89565b600054610100900460ff16612a775760405162461bcd60e51b81526004016106f79061416f565b60018055565b606580546001600160a01b0383811673ffffffffffffffffffffffffffffffffffffffff19831681179093556040519116919082907f8be0079c531659141344cd1fd0a4f28419497f9722a3daafe3b4186f6b6457e090600090a35050565b612b4f8282604051602401612af29291906141e1565b60408051601f198184030181529190526020810180517bffffffffffffffffffffffffffffffffffffffffffffffffffffffff167f9710a9d000000000000000000000000000000000000000000000000000000000179052612bb9565b5050565b6000612b60826064614201565b612b6b836062614201565b612b7584866137de565b612b7f91906137de565b612a1a91906137fd565b600054610100900460ff16612bb05760405162461bcd60e51b81526004016106f79061416f565b610f9433612a7d565b80516a636f6e736f6c652e6c6f67602083016000808483855afa5050505050565b60405180608001604052806004906020820280368337509192915050565b604080516101a08101909152806000815260006020820181905260408201819052606082018190526080820181905260a082015260c001612c37612bda565b8152602001612c44612bda565b8152602001612c51612bda565b8152602001600081526020016000815260200160008152602001600081525090565b8260048101928215612ca1579160200282015b82811115612ca1578235825591602001919060010190612c86565b50612cad929150612cb1565b5090565b5b80821115612cad5760008155600101612cb2565b805b82525050565b602081016107cd8284612cc6565b805b811461286e57600080fd5b80356107cd81612cdc565b600060208284031215612d0957612d09600080fd5b60006107c98484612ce9565b634e487b7160e01b600052602160045260246000fd5b6004811061286e5761286e612d15565b80612d4581612d2b565b919050565b60006107cd82612d3b565b612cc881612d4a565b60ff8116612cc8565b63ffffffff8116612cc8565b6101408101612d82828d612d55565b612d8f602083018c612d5e565b612d9c604083018b612d67565b612da9606083018a612d67565b612db66080830189612d67565b612dc360a0830188612cc6565b612dd060c0830187612cc6565b612ddd60e0830186612cc6565b612deb610100830185612cc6565b612df9610120830184612cc6565b9b9a5050505050505050505050565b602081016107cd8284612d67565b60008060408385031215612e2c57612e2c600080fd5b6000612e388585612ce9565b9250506020612e4985828601612ce9565b9150509250929050565b60006001600160a01b0382166107cd565b612cde81612e53565b80356107cd81612e64565b600080600060608486031215612e9057612e90600080fd5b6000612e9c8686612e6d565b9350506020612ead86828701612ce9565b9250506040612ebe86828701612ce9565b9150509250925092565b612ed28282612cc6565b5060200190565b60200190565b60048160005b82811015612f0a578151612ef98682612ec8565b955050602082019150600101612ee5565b5050505050565b608081016107cd8284612edf565b60008060408385031215612f3557612f35600080fd5b6000612e388585612e6d565b60008060408385031215612f5757612f57600080fd5b6000612f638585612e6d565b9250506020612e4985828601612e6d565b612cc881612e53565b60408101612f8b8285612d67565b612a1a6020830184612f74565b60008083601f840112612fad57612fad600080fd5b50813567ffffffffffffffff811115612fc857612fc8600080fd5b602083019150836020820283011115612fe357612fe3600080fd5b9250929050565b6000806020838503121561300057613000600080fd5b823567ffffffffffffffff81111561301a5761301a600080fd5b61302685828601612f98565b92509250509250929050565b612ed28282612d67565b6000613046825190565b808452602093840193830160005b828110156130795781516130688782613032565b965050602082019150600101613054565b5093949350505050565b60208082528101612a1a818461303c565b602081016107cd8284612f74565b60006107cd6001600160a01b0383166130b9565b90565b6001600160a01b031690565b60006107cd826130a2565b60006107cd826130c5565b612cc8816130d0565b602081016107cd82846130db565b63ffffffff8116612cde565b80356107cd816130f2565b6000806040838503121561311f5761311f600080fd5b600061312b8585612ce9565b9250506020612e49858286016130fe565b60048160005b82811015612f0a5781516131568682612ec8565b955050602082019150600101613142565b80516131738382612d55565b5060208101516131866020840182612d5e565b5060408101516131996040840182612d67565b5060608101516131ac6060840182612d67565b5060808101516131bf6080840182612d67565b5060a08101516131d260a0840182612cc6565b5060c08101516131e560c084018261313c565b5060e08101516131f961014084018261313c565b5061010081015161320e6101c084018261313c565b50610120810151613223610240840182612cc6565b50610140810151613238610260840182612cc6565b5061016081015161324d610280840182612cc6565b50610180810151610d796102a0840182612cc6565b61326c8282613167565b506102c00190565b600061327e825190565b808452602093840193830160005b828110156130795781516132a08782613262565b96505060208201915060010161328c565b60208082528101612a1a8184613274565b6000602082840312156132d7576132d7600080fd5b60006107c98484612e6d565b80608081018310156107cd576107cd600080fd5b60008060008060e0858703121561331057613310600080fd5b600061331c8787612ce9565b945050602061332d87828801612ce9565b935050604061333e878288016132e3565b92505060c061334f87828801612ce9565b91505092959194509250565b60006020828403121561337057613370600080fd5b60006107c984846130fe565b6000613386825190565b808452602093840193830160005b828110156130795781516133a88782612ec8565b965050602082019150600101613394565b60208082528101612a1a818461337c565b801515612cde565b80356107cd816133ca565b600080604083850312156133f3576133f3600080fd5b60006133ff8585612ce9565b9250506020612e49858286016133d2565b60008060008060006060868803121561342b5761342b600080fd5b60006134378888612ce9565b955050602086013567ffffffffffffffff81111561345757613457600080fd5b61346388828901612f98565b9450945050604086013567ffffffffffffffff81111561348557613485600080fd5b61349188828901612f98565b92509250509295509295909350565b60208082527f4f776e61626c653a2063616c6c6572206973206e6f7420746865206f776e65729101908152612ed9565b602080825281016107cd816134a0565b604081016134ee8285612cc6565b612a1a6020830184612cc6565b60158152602081017f43616e6e6f7420626520444547495320746f6b656e000000000000000000000081529050612ed9565b602080825281016107cd816134fb565b604081016134ee8285612f74565b80516107cd816133ca565b60006020828403121561356b5761356b600080fd5b60006107c9848461354b565b60148152602081017f436f6e7472616374206e6f7420616c6c6f77656400000000000000000000000081529050612ed9565b602080825281016107cd81613577565b601a8152602081017f50726f787920636f6e7472616374206e6f7420616c6c6f77656400000000000081529050612ed9565b602080825281016107cd816135b9565b601f8152602081017f5265656e7472616e637947756172643a207265656e7472616e742063616c6c0081529050612ed9565b602080825281016107cd816135fb565b60308152602081017f7468697320726f756e64206f66206c6f747465727920617265206e6f7420726581527f61647920666f7220636c61696d696e6700000000000000000000000000000000602082015290505b60400190565b602080825281016107cd8161363d565b634e487b7160e01b600052603260045260246000fd5b60148152602081017f4e6f7420746865207469636b6574206f776e657200000000000000000000000081529050612ed9565b602080825281016107cd816136bd565b634e487b7160e01b600052601160045260246000fd5b60008219821115613728576137286136ff565b500190565b815b9150600082821015613743576137436136ff565b500390565b602e8152602081017f496e697469616c697a61626c653a20636f6e747261637420697320616c72656181527f647920696e697469616c697a656400000000000000000000000000000000000060208201529050613691565b602080825281016107cd81613748565b634e487b7160e01b600052601260045260246000fd5b815b91506000826137d9576137d96137b0565b500690565b60008160001904831182151516156137f8576137f86136ff565b500290565b60008261380c5761380c6137b0565b500490565b634e487b7160e01b600052604160045260246000fd5b600060018201613839576138396136ff565b5060010190565b60208082527f63757272656e74206c6f7474657279206973206e6f7420636c61696d61626c659101908152612ed9565b602080825281016107cd81613840565b80516107cd816130f2565b6000602082840312156138a0576138a0600080fd5b60006107c98484613880565b60228152602081017f74686973206c6f7474657279206973206e6f74206f70656e2063757272656e7481527f6c7900000000000000000000000000000000000000000000000000000000000060208201529050613691565b602080825281016107cd816138ac565b600c8152602081017f57726f6e6720737461747573000000000000000000000000000000000000000081529050612ed9565b602080825281016107cd81613914565b60158152602081017f54726561737572792066656520746f6f2068696768000000000000000000000081529050612ed9565b602080825281016107cd81613956565b601a8152602081017f5265776172647320627265616b646f776e20746f6f206869676800000000000081529050612ed9565b602080825281016107cd81613998565b82818337506000910152565b612b4f608083836139da565b6101008101613a018288612cc6565b613a0e6020830187612cc6565b613a1b6040830186612cc6565b613a2860608301856139e6565b613a3560e0830184612cc6565b9695505050505050565b60128152602081017f4c6f7474657279206e6f7420636c6f736564000000000000000000000000000081529050612ed9565b602080825281016107cd81613a3f565b80516107cd81612cdc565b600060208284031215613aa157613aa1600080fd5b60006107c98484613a81565b60168152602081017f46696e616c206e756d626572206e6f7420647261776e0000000000000000000081529050612ed9565b602080825281016107cd81613aad565b60138152602081017f5472656173757279206973206e6f74207365740000000000000000000000000081529050612ed9565b602080825281016107cd81613aef565b61ffff90811690821661372f565b63ffffffff90811690821661372f565b63ffffffff8116905063ffffffff8216915060008263ffffffff03821115613728576137286136ff565b80825b6001851115613bb857808604811115613b9757613b976136ff565b6001851615613ba557908102905b8002613bb18560011c90565b9450613b7c565b94509492505050565b600082613bd057506001612a1a565b81613bdd57506000612a1a565b8160018114613bf35760028114613bfd57613c2a565b6001915050612a1a565b60ff841115613c0e57613c0e6136ff565b8360020a915084821115613c2457613c246136ff565b50612a1a565b5060208310610133831016604e8410600b8410161715613c5d575081810a83811115613c5857613c586136ff565b612a1a565b613c6a8484846001613b79565b92509050818404811115613c8057613c806136ff565b0292915050565b63ffffffff8116905063ffffffff821691506000612a1a63ffffffff8484613bc1565b63ffffffff9081169082166137c8565b60006107cd6130b663ffffffff841681565b612cc881613cba565b604081016134ee8285613ccc565b600d8152602081017f4e6f7420636c61696d61626c650000000000000000000000000000000000000081529050612ed9565b602080825281016107cd81613ce3565b600f8152602081017f4e6f742073616d65206c656e677468000000000000000000000000000000000081529050612ed9565b602080825281016107cd81613d25565b600a8152602081017f4e6f207469636b6574730000000000000000000000000000000000000000000081529050612ed9565b602080825281016107cd81613d67565b60198152602081017f546f6f206d616e79207469636b65747320746f20636c61696d0000000000000081529050612ed9565b602080825281016107cd81613da9565b60138152602081017f5469636b657420696420746f6f20736d616c6c0000000000000000000000000081529050612ed9565b602080825281016107cd81613deb565b60138152602081017f5469636b657420696420746f6f206c617267650000000000000000000000000081529050612ed9565b602080825281016107cd81613e2d565b60278152602081017f4e6f7420746865207469636b6574206f776e6572206f7220616c72656164792081527f636c61696d65640000000000000000000000000000000000000000000000000060208201529050613691565b602080825281016107cd81613e6f565b60088152602081017f4e6f207072697a6500000000000000000000000000000000000000000000000081529050612ed9565b602080825281016107cd81613ed7565b60128152602081017f4f6e6c792068696768657374207072697a65000000000000000000000000000081529050612ed9565b602080825281016107cd81613f19565b601b8152602081017f4e6f207469636b65747320617265206265696e6720626f75676874000000000081529050612ed9565b602080825281016107cd81613f5b565b60108152602081017f546f6f206d616e79207469636b6574730000000000000000000000000000000081529050612ed9565b602080825281016107cd81613f9d565b600e8152602081017f526f756e64206e6f74206f70656e00000000000000000000000000000000000081529050612ed9565b602080825281016107cd81613fdf565b6060810161402f8286612f74565b61403c6020830185612f74565b6140496040830184612cc6565b949350505050565b601e8152602081017f5469636b6574206e756d626572206973206f7574736964652072616e6765000081529050612ed9565b602080825281016107cd81614051565b60268152602081017f4f776e61626c653a206e6577206f776e657220697320746865207a65726f206181527f646472657373000000000000000000000000000000000000000000000000000060208201529050613691565b602080825281016107cd81614093565b63ffffffff16600063fffffffe198201613839576138396136ff565b602b8152602081017f496e697469616c697a61626c653a20636f6e7472616374206973206e6f74206981527f6e697469616c697a696e6700000000000000000000000000000000000000000060208201529050613691565b602080825281016107cd81614117565b60005b8381101561419a578181015183820152602001614182565b838111156141a9576000848401525b50505050565b60006141b9825190565b8084526020840193506141d081856020860161417f565b601f01601f19169290920192915050565b604080825281016141f281856141af565b9050612a1a6020830184612cc6565b6000612a1a6000198484613bc156fea2646970667358221220048ee664ca4630630680dcb83ff40f8e946613db3cd9303359c6cb5952e19d0864736f6c634300080d0033",
  "devdoc": {
    "kind": "dev",
    "methods": {
      "_reverseTicketNumber(uint256)": {
        "params": {
          "_number": "Input ticket number"
        },
        "returns": {
          "_0": "reversedNumber Reversed number + 10000"
        }
      },
      "buyTickets(uint32[])": {
        "details": "Need to transfer the 4-digit number to a 5-digit number to be used here (+10000)      Can not be called by a smart contract      Can only purchase in the current round",
        "params": {
          "_ticketNumbers": "Array of ticket numbers between 10,000 and 19,999"
        }
      },
      "changeRandomGenerator(address)": {
        "details": "The calls to functions are used to verify the new generator implements them properly. It is necessary to wait for the VRF response before starting a round. Callable only by the contract owner",
        "params": {
          "_randomGeneratorAddress": "address of the random generator"
        }
      },
      "claimAllTickets(uint256)": {
        "details": "Callable by users only, not contract      Gas cost may be oversized, recommended to get brackets offchain first",
        "params": {
          "_lotteryId": "Lottery id"
        }
      },
      "claimTickets(uint256,uint256[],uint32[])": {
        "details": "Callable by users only, not contract",
        "params": {
          "_brackets": "Bracket / prize level of each ticket",
          "_lotteryId": "Lottery id",
          "_ticketIds": "Array of ticket ids"
        }
      },
      "closeLottery(uint256)": {
        "details": "Callable only by the owner",
        "params": {
          "_lotteryId": "lottery round"
        }
      },
      "drawFinalNumberAndMakeLotteryClaimable(uint256,bool)": {
        "params": {
          "_autoInjection": "Auto inject funds into next lottery",
          "_lotteryId": "Lottery round"
        }
      },
      "initialize(address,address)": {
        "details": "RandomNumberGenerator must be deployed prior to this contract",
        "params": {
          "_degis": "Address of DEG",
          "_randomGenerator": "Address of the RandomGenerator contract used to work with ChainLink VRF"
        }
      },
      "injectFunds(uint256)": {
        "params": {
          "_amount": "Amount to inject"
        }
      },
      "owner()": {
        "details": "Returns the address of the current owner."
      },
      "recoverWrongTokens(address,uint256)": {
        "params": {
          "_tokenAddress": "the address of the token to withdraw",
          "_tokenAmount": "token amount to withdraw"
        }
      },
      "renounceOwnership()": {
        "details": "Leaves the contract without owner. It will not be possible to call `onlyOwner` functions anymore. Can only be called by the current owner. NOTE: Renouncing ownership will leave the contract without an owner, thereby removing any functionality that is only available to the owner."
      },
      "setMaxNumberTicketsEachTime(uint256)": {
        "params": {
          "_maxNumber": "Max number each time"
        }
      },
      "setTreasury(address)": {
        "params": {
          "_treasury": "wallet address"
        }
      },
      "startLottery(uint256,uint256,uint256[4],uint256)": {
        "params": {
          "_endTime": "EndTime of the lottery",
          "_fee": "Treasury fee (10,000 = 100%, 100 = 1%) (set as 0)",
          "_rewardsBreakdown": "Breakdown of rewards per bracket (must sum to 10,000)(100 <=> 1)",
          "_ticketPrice": "Price of each ticket without discount"
        }
      },
      "transferOwnership(address)": {
        "details": "Transfers ownership of the contract to a new account (`newOwner`). Can only be called by the current owner."
      },
      "viewAllLottery(uint256,uint256)": {
        "params": {
          "_endId": "End lottery id",
          "_startId": "Start lottery id"
        },
        "returns": {
          "_0": "Array of lottery information"
        }
      },
      "viewNumbersPerTicketId(uint256[])": {
        "params": {
          "_ticketIds": ": array of _ticketId"
        }
      },
      "viewRewardsForTicketId(uint256,uint256)": {
        "details": "This function will help to find the highest prize bracket      But this computation is encouraged to be done off-chain      Better to get bracket first and then call \"_calculateRewardsForTicketId()\"",
        "params": {
          "_lotteryId": "Lottery round",
          "_ticketId": "Ticket id"
        },
        "returns": {
          "_0": "reward Ticket reward"
        }
      },
      "viewWalletTicketIds(address,uint256)": {
        "params": {
          "_wallet": "address to check owned tickets"
        },
        "returns": {
          "_0": "_lotteryId lottery id to verify ownership"
        }
      }
    },
    "title": "DegisLotteryV2",
    "version": 1
  },
  "userdoc": {
    "kind": "user",
    "methods": {
      "_reverseTicketNumber(uint256)": {
        "notice": "Reverse the ticket number         E.g. User want to buy \"1234\"              The input number will be 11234              The reversed output will be 14321"
      },
      "buyTickets(uint32[])": {
        "notice": "Buy tickets for the current lottery round"
      },
      "changeRandomGenerator(address)": {
        "notice": "Change the random generator contract address"
      },
      "claimAllTickets(uint256)": {
        "notice": "Claim all winning tickets for a lottery round"
      },
      "claimTickets(uint256,uint256[],uint32[])": {
        "notice": "Claim winning tickets"
      },
      "closeLottery(uint256)": {
        "notice": "Close a lottery"
      },
      "drawFinalNumberAndMakeLotteryClaimable(uint256,bool)": {
        "notice": "Draw the final number, calculate reward in Degis for each group, and make this lottery claimable (need to wait for the random generator)"
      },
      "initialize(address,address)": {
        "notice": "Initialize function"
      },
      "injectFunds(uint256)": {
        "notice": "Inject funds"
      },
      "recoverWrongTokens(address,uint256)": {
        "notice": "Recover wrong tokens sent to the contract, only by the owner All tokens except Degis and USDC are wrong tokens"
      },
      "setMaxNumberTicketsEachTime(uint256)": {
        "notice": "Set max number can buy/claim/redeem each time"
      },
      "setTreasury(address)": {
        "notice": "Set treasury wallet address"
      },
      "startLottery(uint256,uint256,uint256[4],uint256)": {
        "notice": "Start the lottery"
      },
      "viewAllLottery(uint256,uint256)": {
        "notice": "View lottery information"
      },
      "viewNumbersPerTicketId(uint256[])": {
        "notice": "View ticker statuses and numbers for an array of ticket ids"
      },
      "viewRewardsForTicketId(uint256,uint256)": {
        "notice": "View rewards for a given ticket in a given lottery round"
      },
      "viewWalletTicketIds(address,uint256)": {
        "notice": "Get the reward per ticket in 4 brackets"
      }
    },
    "version": 1
  },
  "storageLayout": {
    "storage": [
      {
        "astId": 2523,
        "contract": "contracts/lucky-box/DegisLotteryV2.sol:DegisLotteryV2",
        "label": "_initialized",
        "offset": 0,
        "slot": "0",
        "type": "t_bool"
      },
      {
        "astId": 2526,
        "contract": "contracts/lucky-box/DegisLotteryV2.sol:DegisLotteryV2",
        "label": "_initializing",
        "offset": 1,
        "slot": "0",
        "type": "t_bool"
      },
      {
        "astId": 2715,
        "contract": "contracts/lucky-box/DegisLotteryV2.sol:DegisLotteryV2",
        "label": "_status",
        "offset": 0,
        "slot": "1",
        "type": "t_uint256"
      },
      {
        "astId": 2759,
        "contract": "contracts/lucky-box/DegisLotteryV2.sol:DegisLotteryV2",
        "label": "__gap",
        "offset": 0,
        "slot": "2",
        "type": "t_array(t_uint256)49_storage"
      },
      {
        "astId": 3760,
        "contract": "contracts/lucky-box/DegisLotteryV2.sol:DegisLotteryV2",
        "label": "__gap",
        "offset": 0,
        "slot": "51",
        "type": "t_array(t_uint256)50_storage"
      },
      {
        "astId": 2403,
        "contract": "contracts/lucky-box/DegisLotteryV2.sol:DegisLotteryV2",
        "label": "_owner",
        "offset": 0,
        "slot": "101",
        "type": "t_address"
      },
      {
        "astId": 2515,
        "contract": "contracts/lucky-box/DegisLotteryV2.sol:DegisLotteryV2",
        "label": "__gap",
        "offset": 0,
        "slot": "102",
        "type": "t_array(t_uint256)49_storage"
      },
      {
        "astId": 22139,
        "contract": "contracts/lucky-box/DegisLotteryV2.sol:DegisLotteryV2",
        "label": "DegisToken",
        "offset": 0,
        "slot": "151",
        "type": "t_contract(IERC20)5363"
      },
      {
        "astId": 22142,
        "contract": "contracts/lucky-box/DegisLotteryV2.sol:DegisLotteryV2",
        "label": "randomGenerator",
        "offset": 0,
        "slot": "152",
        "type": "t_contract(IRandomNumberGenerator)24679"
      },
      {
        "astId": 22144,
        "contract": "contracts/lucky-box/DegisLotteryV2.sol:DegisLotteryV2",
        "label": "treasury",
        "offset": 0,
        "slot": "153",
        "type": "t_address"
      },
      {
        "astId": 22146,
        "contract": "contracts/lucky-box/DegisLotteryV2.sol:DegisLotteryV2",
        "label": "currentLotteryId",
        "offset": 0,
        "slot": "154",
        "type": "t_uint256"
      },
      {
        "astId": 22148,
        "contract": "contracts/lucky-box/DegisLotteryV2.sol:DegisLotteryV2",
        "label": "currentTicketId",
        "offset": 0,
        "slot": "155",
        "type": "t_uint256"
      },
      {
        "astId": 22150,
        "contract": "contracts/lucky-box/DegisLotteryV2.sol:DegisLotteryV2",
        "label": "maxNumberTicketsEachTime",
        "offset": 0,
        "slot": "156",
        "type": "t_uint256"
      },
      {
        "astId": 22152,
        "contract": "contracts/lucky-box/DegisLotteryV2.sol:DegisLotteryV2",
        "label": "pendingInjectionNextLottery",
        "offset": 0,
        "slot": "157",
        "type": "t_uint256"
      },
      {
        "astId": 22196,
        "contract": "contracts/lucky-box/DegisLotteryV2.sol:DegisLotteryV2",
        "label": "lotteries",
        "offset": 0,
        "slot": "158",
        "type": "t_mapping(t_uint256,t_struct(Lottery)22191_storage)"
      },
      {
        "astId": 22206,
        "contract": "contracts/lucky-box/DegisLotteryV2.sol:DegisLotteryV2",
        "label": "tickets",
        "offset": 0,
        "slot": "159",
        "type": "t_mapping(t_uint256,t_struct(Ticket)22201_storage)"
      },
      {
        "astId": 22212,
        "contract": "contracts/lucky-box/DegisLotteryV2.sol:DegisLotteryV2",
        "label": "_numberTicketsPerLotteryId",
        "offset": 0,
        "slot": "160",
        "type": "t_mapping(t_uint256,t_mapping(t_uint32,t_uint256))"
      },
      {
        "astId": 22219,
        "contract": "contracts/lucky-box/DegisLotteryV2.sol:DegisLotteryV2",
        "label": "_userTicketIds",
        "offset": 0,
        "slot": "161",
        "type": "t_mapping(t_address,t_mapping(t_uint256,t_array(t_uint256)dyn_storage))"
      },
      {
        "astId": 22223,
        "contract": "contracts/lucky-box/DegisLotteryV2.sol:DegisLotteryV2",
        "label": "_bracketCalculator",
        "offset": 0,
        "slot": "162",
        "type": "t_mapping(t_uint32,t_uint32)"
      }
    ],
    "types": {
      "t_address": {
        "encoding": "inplace",
        "label": "address",
        "numberOfBytes": "20"
      },
      "t_array(t_uint256)49_storage": {
        "base": "t_uint256",
        "encoding": "inplace",
        "label": "uint256[49]",
        "numberOfBytes": "1568"
      },
      "t_array(t_uint256)4_storage": {
        "base": "t_uint256",
        "encoding": "inplace",
        "label": "uint256[4]",
        "numberOfBytes": "128"
      },
      "t_array(t_uint256)50_storage": {
        "base": "t_uint256",
        "encoding": "inplace",
        "label": "uint256[50]",
        "numberOfBytes": "1600"
      },
      "t_array(t_uint256)dyn_storage": {
        "base": "t_uint256",
        "encoding": "dynamic_array",
        "label": "uint256[]",
        "numberOfBytes": "32"
      },
      "t_bool": {
        "encoding": "inplace",
        "label": "bool",
        "numberOfBytes": "1"
      },
      "t_contract(IERC20)5363": {
        "encoding": "inplace",
        "label": "contract IERC20",
        "numberOfBytes": "20"
      },
      "t_contract(IRandomNumberGenerator)24679": {
        "encoding": "inplace",
        "label": "contract IRandomNumberGenerator",
        "numberOfBytes": "20"
      },
      "t_enum(Status)22157": {
        "encoding": "inplace",
        "label": "enum DegisLotteryV2.Status",
        "numberOfBytes": "1"
      },
      "t_mapping(t_address,t_mapping(t_uint256,t_array(t_uint256)dyn_storage))": {
        "encoding": "mapping",
        "key": "t_address",
        "label": "mapping(address => mapping(uint256 => uint256[]))",
        "numberOfBytes": "32",
        "value": "t_mapping(t_uint256,t_array(t_uint256)dyn_storage)"
      },
      "t_mapping(t_uint256,t_array(t_uint256)dyn_storage)": {
        "encoding": "mapping",
        "key": "t_uint256",
        "label": "mapping(uint256 => uint256[])",
        "numberOfBytes": "32",
        "value": "t_array(t_uint256)dyn_storage"
      },
      "t_mapping(t_uint256,t_mapping(t_uint32,t_uint256))": {
        "encoding": "mapping",
        "key": "t_uint256",
        "label": "mapping(uint256 => mapping(uint32 => uint256))",
        "numberOfBytes": "32",
        "value": "t_mapping(t_uint32,t_uint256)"
      },
      "t_mapping(t_uint256,t_struct(Lottery)22191_storage)": {
        "encoding": "mapping",
        "key": "t_uint256",
        "label": "mapping(uint256 => struct DegisLotteryV2.Lottery)",
        "numberOfBytes": "32",
        "value": "t_struct(Lottery)22191_storage"
      },
      "t_mapping(t_uint256,t_struct(Ticket)22201_storage)": {
        "encoding": "mapping",
        "key": "t_uint256",
        "label": "mapping(uint256 => struct DegisLotteryV2.Ticket)",
        "numberOfBytes": "32",
        "value": "t_struct(Ticket)22201_storage"
      },
      "t_mapping(t_uint32,t_uint256)": {
        "encoding": "mapping",
        "key": "t_uint32",
        "label": "mapping(uint32 => uint256)",
        "numberOfBytes": "32",
        "value": "t_uint256"
      },
      "t_mapping(t_uint32,t_uint32)": {
        "encoding": "mapping",
        "key": "t_uint32",
        "label": "mapping(uint32 => uint32)",
        "numberOfBytes": "32",
        "value": "t_uint32"
      },
      "t_struct(Lottery)22191_storage": {
        "encoding": "inplace",
        "label": "struct DegisLotteryV2.Lottery",
        "members": [
          {
            "astId": 22160,
            "contract": "contracts/lucky-box/DegisLotteryV2.sol:DegisLotteryV2",
            "label": "status",
            "offset": 0,
            "slot": "0",
            "type": "t_enum(Status)22157"
          },
          {
            "astId": 22162,
            "contract": "contracts/lucky-box/DegisLotteryV2.sol:DegisLotteryV2",
            "label": "treasuryFee",
            "offset": 1,
            "slot": "0",
            "type": "t_uint8"
          },
          {
            "astId": 22164,
            "contract": "contracts/lucky-box/DegisLotteryV2.sol:DegisLotteryV2",
            "label": "startTime",
            "offset": 2,
            "slot": "0",
            "type": "t_uint32"
          },
          {
            "astId": 22166,
            "contract": "contracts/lucky-box/DegisLotteryV2.sol:DegisLotteryV2",
            "label": "endTime",
            "offset": 6,
            "slot": "0",
            "type": "t_uint32"
          },
          {
            "astId": 22168,
            "contract": "contracts/lucky-box/DegisLotteryV2.sol:DegisLotteryV2",
            "label": "finalNumber",
            "offset": 10,
            "slot": "0",
            "type": "t_uint32"
          },
          {
            "astId": 22170,
            "contract": "contracts/lucky-box/DegisLotteryV2.sol:DegisLotteryV2",
            "label": "ticketPrice",
            "offset": 0,
            "slot": "1",
            "type": "t_uint256"
          },
          {
            "astId": 22174,
            "contract": "contracts/lucky-box/DegisLotteryV2.sol:DegisLotteryV2",
            "label": "rewardsBreakdown",
            "offset": 0,
            "slot": "2",
            "type": "t_array(t_uint256)4_storage"
          },
          {
            "astId": 22178,
            "contract": "contracts/lucky-box/DegisLotteryV2.sol:DegisLotteryV2",
            "label": "rewardPerTicketInBracket",
            "offset": 0,
            "slot": "6",
            "type": "t_array(t_uint256)4_storage"
          },
          {
            "astId": 22182,
            "contract": "contracts/lucky-box/DegisLotteryV2.sol:DegisLotteryV2",
            "label": "countWinnersPerBracket",
            "offset": 0,
            "slot": "10",
            "type": "t_array(t_uint256)4_storage"
          },
          {
            "astId": 22184,
            "contract": "contracts/lucky-box/DegisLotteryV2.sol:DegisLotteryV2",
            "label": "firstTicketId",
            "offset": 0,
            "slot": "14",
            "type": "t_uint256"
          },
          {
            "astId": 22186,
            "contract": "contracts/lucky-box/DegisLotteryV2.sol:DegisLotteryV2",
            "label": "firstTicketIdNextRound",
            "offset": 0,
            "slot": "15",
            "type": "t_uint256"
          },
          {
            "astId": 22188,
            "contract": "contracts/lucky-box/DegisLotteryV2.sol:DegisLotteryV2",
            "label": "amountCollected",
            "offset": 0,
            "slot": "16",
            "type": "t_uint256"
          },
          {
            "astId": 22190,
            "contract": "contracts/lucky-box/DegisLotteryV2.sol:DegisLotteryV2",
            "label": "pendingRewards",
            "offset": 0,
            "slot": "17",
            "type": "t_uint256"
          }
        ],
        "numberOfBytes": "576"
      },
      "t_struct(Ticket)22201_storage": {
        "encoding": "inplace",
        "label": "struct DegisLotteryV2.Ticket",
        "members": [
          {
            "astId": 22198,
            "contract": "contracts/lucky-box/DegisLotteryV2.sol:DegisLotteryV2",
            "label": "number",
            "offset": 0,
            "slot": "0",
            "type": "t_uint32"
          },
          {
            "astId": 22200,
            "contract": "contracts/lucky-box/DegisLotteryV2.sol:DegisLotteryV2",
            "label": "owner",
            "offset": 4,
            "slot": "0",
            "type": "t_address"
          }
        ],
        "numberOfBytes": "32"
      },
      "t_uint256": {
        "encoding": "inplace",
        "label": "uint256",
        "numberOfBytes": "32"
      },
      "t_uint32": {
        "encoding": "inplace",
        "label": "uint32",
        "numberOfBytes": "4"
      },
      "t_uint8": {
        "encoding": "inplace",
        "label": "uint8",
        "numberOfBytes": "1"
      }
    }
  }
}