{
  "address": "0xb8328207C6F022D09f4a4dB6C5E697F33c967BF1",
  "abi": [
    {
      "anonymous": false,
      "inputs": [
        {
          "indexed": false,
          "internalType": "address",
          "name": "token",
          "type": "address"
        },
        {
          "indexed": false,
          "internalType": "uint256",
          "name": "amount",
          "type": "uint256"
        }
      ],
      "name": "AdminTokenRecovery",
      "type": "event"
    },
    {
      "anonymous": false,
      "inputs": [
        {
          "indexed": true,
          "internalType": "uint256",
          "name": "lotteryId",
          "type": "uint256"
        }
      ],
      "name": "LotteryClose",
      "type": "event"
    },
    {
      "anonymous": false,
      "inputs": [
        {
          "indexed": true,
          "internalType": "uint256",
          "name": "lotteryId",
          "type": "uint256"
        },
        {
          "indexed": false,
          "internalType": "uint256",
          "name": "injectedAmount",
          "type": "uint256"
        }
      ],
      "name": "LotteryInjection",
      "type": "event"
    },
    {
      "anonymous": false,
      "inputs": [
        {
          "indexed": true,
          "internalType": "uint256",
          "name": "lotteryId",
          "type": "uint256"
        },
        {
          "indexed": false,
          "internalType": "uint256",
          "name": "finalNumber",
          "type": "uint256"
        },
        {
          "indexed": false,
          "internalType": "uint256",
          "name": "countWinningTickets",
          "type": "uint256"
        }
      ],
      "name": "LotteryNumberDrawn",
      "type": "event"
    },
    {
      "anonymous": false,
      "inputs": [
        {
          "indexed": true,
          "internalType": "uint256",
          "name": "lotteryId",
          "type": "uint256"
        },
        {
          "indexed": false,
          "internalType": "uint256",
          "name": "startTime",
          "type": "uint256"
        },
        {
          "indexed": false,
          "internalType": "uint256",
          "name": "endTime",
          "type": "uint256"
        },
        {
          "indexed": false,
          "internalType": "uint256",
          "name": "priceTicketInDegis",
          "type": "uint256"
        },
        {
          "indexed": false,
          "internalType": "uint256[4]",
          "name": "rewardsBreakdown",
          "type": "uint256[4]"
        },
        {
          "indexed": false,
          "internalType": "uint256",
          "name": "injectedAmount",
          "type": "uint256"
        }
      ],
      "name": "LotteryOpen",
      "type": "event"
    },
    {
      "anonymous": false,
      "inputs": [
        {
          "indexed": false,
          "internalType": "uint256",
          "name": "oldMaxNumber",
          "type": "uint256"
        },
        {
          "indexed": false,
          "internalType": "uint256",
          "name": "newMaxNumber",
          "type": "uint256"
        }
      ],
      "name": "MaxNumberTicketsEachTimeChanged",
      "type": "event"
    },
    {
      "anonymous": false,
      "inputs": [
        {
          "indexed": true,
          "internalType": "address",
          "name": "randomGenerator",
          "type": "address"
        }
      ],
      "name": "NewRandomGenerator",
      "type": "event"
    },
    {
      "anonymous": false,
      "inputs": [
        {
          "indexed": true,
          "internalType": "address",
          "name": "previousOwner",
          "type": "address"
        },
        {
          "indexed": true,
          "internalType": "address",
          "name": "newOwner",
          "type": "address"
        }
      ],
      "name": "OwnershipTransferred",
      "type": "event"
    },
    {
      "anonymous": false,
      "inputs": [
        {
          "indexed": true,
          "internalType": "address",
          "name": "claimer",
          "type": "address"
        },
        {
          "indexed": false,
          "internalType": "uint256",
          "name": "amount",
          "type": "uint256"
        },
        {
          "indexed": true,
          "internalType": "uint256",
          "name": "lotteryId",
          "type": "uint256"
        }
      ],
      "name": "TicketsClaim",
      "type": "event"
    },
    {
      "anonymous": false,
      "inputs": [
        {
          "indexed": true,
          "internalType": "address",
          "name": "buyer",
          "type": "address"
        },
        {
          "indexed": true,
          "internalType": "uint256",
          "name": "lotteryId",
          "type": "uint256"
        },
        {
          "indexed": false,
          "internalType": "uint256",
          "name": "number",
          "type": "uint256"
        },
        {
          "indexed": false,
          "internalType": "uint256",
          "name": "totalPrice",
          "type": "uint256"
        }
      ],
      "name": "TicketsPurchased",
      "type": "event"
    },
    {
      "anonymous": false,
      "inputs": [
        {
          "indexed": false,
          "internalType": "address",
          "name": "oldTreasury",
          "type": "address"
        },
        {
          "indexed": false,
          "internalType": "address",
          "name": "newTreasury",
          "type": "address"
        }
      ],
      "name": "TreasuryChanged",
      "type": "event"
    },
    {
      "inputs": [],
      "name": "DEFAULT_PRICE",
      "outputs": [
        {
          "internalType": "uint256",
          "name": "",
          "type": "uint256"
        }
      ],
      "stateMutability": "view",
      "type": "function"
    },
    {
      "inputs": [],
      "name": "DISCOUNT_DIVISOR",
      "outputs": [
        {
          "internalType": "uint256",
          "name": "",
          "type": "uint256"
        }
      ],
      "stateMutability": "view",
      "type": "function"
    },
    {
      "inputs": [],
      "name": "DegisToken",
      "outputs": [
        {
          "internalType": "contract IERC20",
          "name": "",
          "type": "address"
        }
      ],
      "stateMutability": "view",
      "type": "function"
    },
    {
      "inputs": [],
      "name": "MAX_TICKET_NUMBER",
      "outputs": [
        {
          "internalType": "uint32",
          "name": "",
          "type": "uint32"
        }
      ],
      "stateMutability": "view",
      "type": "function"
    },
    {
      "inputs": [],
      "name": "MAX_TREASURY_FEE",
      "outputs": [
        {
          "internalType": "uint256",
          "name": "",
          "type": "uint256"
        }
      ],
      "stateMutability": "view",
      "type": "function"
    },
    {
      "inputs": [],
      "name": "MIN_TICKET_NUMBER",
      "outputs": [
        {
          "internalType": "uint32",
          "name": "",
          "type": "uint32"
        }
      ],
      "stateMutability": "view",
      "type": "function"
    },
    {
      "inputs": [
        {
          "internalType": "uint32",
          "name": "",
          "type": "uint32"
        }
      ],
      "name": "_bracketCalculator",
      "outputs": [
        {
          "internalType": "uint32",
          "name": "",
          "type": "uint32"
        }
      ],
      "stateMutability": "view",
      "type": "function"
    },
    {
      "inputs": [
        {
          "internalType": "uint256",
          "name": "",
          "type": "uint256"
        },
        {
          "internalType": "uint32",
          "name": "",
          "type": "uint32"
        }
      ],
      "name": "_numberTicketsPerLotteryId",
      "outputs": [
        {
          "internalType": "uint256",
          "name": "",
          "type": "uint256"
        }
      ],
      "stateMutability": "view",
      "type": "function"
    },
    {
      "inputs": [
        {
          "internalType": "uint256",
          "name": "_number",
          "type": "uint256"
        }
      ],
      "name": "_reverseTicketNumber",
      "outputs": [
        {
          "internalType": "uint32",
          "name": "",
          "type": "uint32"
        }
      ],
      "stateMutability": "pure",
      "type": "function"
    },
    {
      "inputs": [
        {
          "internalType": "address",
          "name": "",
          "type": "address"
        },
        {
          "internalType": "uint256",
          "name": "",
          "type": "uint256"
        },
        {
          "internalType": "uint256",
          "name": "",
          "type": "uint256"
        }
      ],
      "name": "_userTicketIds",
      "outputs": [
        {
          "internalType": "uint256",
          "name": "",
          "type": "uint256"
        }
      ],
      "stateMutability": "view",
      "type": "function"
    },
    {
      "inputs": [
        {
          "internalType": "uint32[]",
          "name": "_ticketNumbers",
          "type": "uint32[]"
        }
      ],
      "name": "buyTickets",
      "outputs": [],
      "stateMutability": "nonpayable",
      "type": "function"
    },
    {
      "inputs": [
        {
          "internalType": "address",
          "name": "_randomGeneratorAddress",
          "type": "address"
        }
      ],
      "name": "changeRandomGenerator",
      "outputs": [],
      "stateMutability": "nonpayable",
      "type": "function"
    },
    {
      "inputs": [
        {
          "internalType": "uint256",
          "name": "_lotteryId",
          "type": "uint256"
        }
      ],
      "name": "claimAllTickets",
      "outputs": [],
      "stateMutability": "nonpayable",
      "type": "function"
    },
    {
      "inputs": [
        {
          "internalType": "uint256",
          "name": "_lotteryId",
          "type": "uint256"
        },
        {
          "internalType": "uint256[]",
          "name": "_ticketIds",
          "type": "uint256[]"
        },
        {
          "internalType": "uint32[]",
          "name": "_brackets",
          "type": "uint32[]"
        }
      ],
      "name": "claimTickets",
      "outputs": [],
      "stateMutability": "nonpayable",
      "type": "function"
    },
    {
      "inputs": [
        {
          "internalType": "uint256",
          "name": "_lotteryId",
          "type": "uint256"
        }
      ],
      "name": "closeLottery",
      "outputs": [],
      "stateMutability": "nonpayable",
      "type": "function"
    },
    {
      "inputs": [],
      "name": "currentLotteryId",
      "outputs": [
        {
          "internalType": "uint256",
          "name": "",
          "type": "uint256"
        }
      ],
      "stateMutability": "view",
      "type": "function"
    },
    {
      "inputs": [],
      "name": "currentTicketId",
      "outputs": [
        {
          "internalType": "uint256",
          "name": "",
          "type": "uint256"
        }
      ],
      "stateMutability": "view",
      "type": "function"
    },
    {
      "inputs": [
        {
          "internalType": "uint256",
          "name": "_lotteryId",
          "type": "uint256"
        },
        {
          "internalType": "bool",
          "name": "_autoInjection",
          "type": "bool"
        }
      ],
      "name": "drawFinalNumberAndMakeLotteryClaimable",
      "outputs": [],
      "stateMutability": "nonpayable",
      "type": "function"
    },
    {
      "inputs": [
        {
          "internalType": "address",
          "name": "_degis",
          "type": "address"
        },
        {
          "internalType": "address",
          "name": "_randomGenerator",
          "type": "address"
        }
      ],
      "name": "initialize",
      "outputs": [],
      "stateMutability": "nonpayable",
      "type": "function"
    },
    {
      "inputs": [
        {
          "internalType": "uint256",
          "name": "_amount",
          "type": "uint256"
        }
      ],
      "name": "injectFunds",
      "outputs": [],
      "stateMutability": "nonpayable",
      "type": "function"
    },
    {
      "inputs": [
        {
          "internalType": "uint256",
          "name": "",
          "type": "uint256"
        }
      ],
      "name": "lotteries",
      "outputs": [
        {
          "internalType": "enum DegisLotteryV2.Status",
          "name": "status",
          "type": "uint8"
        },
        {
          "internalType": "uint8",
          "name": "treasuryFee",
          "type": "uint8"
        },
        {
          "internalType": "uint32",
          "name": "startTime",
          "type": "uint32"
        },
        {
          "internalType": "uint32",
          "name": "endTime",
          "type": "uint32"
        },
        {
          "internalType": "uint32",
          "name": "finalNumber",
          "type": "uint32"
        },
        {
          "internalType": "uint256",
          "name": "ticketPrice",
          "type": "uint256"
        },
        {
          "internalType": "uint256",
          "name": "firstTicketId",
          "type": "uint256"
        },
        {
          "internalType": "uint256",
          "name": "firstTicketIdNextRound",
          "type": "uint256"
        },
        {
          "internalType": "uint256",
          "name": "amountCollected",
          "type": "uint256"
        },
        {
          "internalType": "uint256",
          "name": "pendingRewards",
          "type": "uint256"
        }
      ],
      "stateMutability": "view",
      "type": "function"
    },
    {
      "inputs": [],
      "name": "maxNumberTicketsEachTime",
      "outputs": [
        {
          "internalType": "uint256",
          "name": "",
          "type": "uint256"
        }
      ],
      "stateMutability": "view",
      "type": "function"
    },
    {
      "inputs": [],
      "name": "owner",
      "outputs": [
        {
          "internalType": "address",
          "name": "",
          "type": "address"
        }
      ],
      "stateMutability": "view",
      "type": "function"
    },
    {
      "inputs": [],
      "name": "pendingInjectionNextLottery",
      "outputs": [
        {
          "internalType": "uint256",
          "name": "",
          "type": "uint256"
        }
      ],
      "stateMutability": "view",
      "type": "function"
    },
    {
      "inputs": [],
      "name": "randomGenerator",
      "outputs": [
        {
          "internalType": "contract IRandomNumberGenerator",
          "name": "",
          "type": "address"
        }
      ],
      "stateMutability": "view",
      "type": "function"
    },
    {
      "inputs": [
        {
          "internalType": "address",
          "name": "_tokenAddress",
          "type": "address"
        },
        {
          "internalType": "uint256",
          "name": "_tokenAmount",
          "type": "uint256"
        }
      ],
      "name": "recoverWrongTokens",
      "outputs": [],
      "stateMutability": "nonpayable",
      "type": "function"
    },
    {
      "inputs": [],
      "name": "renounceOwnership",
      "outputs": [],
      "stateMutability": "nonpayable",
      "type": "function"
    },
    {
      "inputs": [
        {
          "internalType": "uint256",
          "name": "_maxNumber",
          "type": "uint256"
        }
      ],
      "name": "setMaxNumberTicketsEachTime",
      "outputs": [],
      "stateMutability": "nonpayable",
      "type": "function"
    },
    {
      "inputs": [
        {
          "internalType": "address",
          "name": "_treasury",
          "type": "address"
        }
      ],
      "name": "setTreasury",
      "outputs": [],
      "stateMutability": "nonpayable",
      "type": "function"
    },
    {
      "inputs": [
        {
          "internalType": "uint256",
          "name": "_endTime",
          "type": "uint256"
        },
        {
          "internalType": "uint256",
          "name": "_ticketPrice",
          "type": "uint256"
        },
        {
          "internalType": "uint256[4]",
          "name": "_rewardsBreakdown",
          "type": "uint256[4]"
        },
        {
          "internalType": "uint256",
          "name": "_fee",
          "type": "uint256"
        }
      ],
      "name": "startLottery",
      "outputs": [],
      "stateMutability": "nonpayable",
      "type": "function"
    },
    {
      "inputs": [
        {
          "internalType": "uint256",
          "name": "",
          "type": "uint256"
        }
      ],
      "name": "tickets",
      "outputs": [
        {
          "internalType": "uint32",
          "name": "number",
          "type": "uint32"
        },
        {
          "internalType": "address",
          "name": "owner",
          "type": "address"
        }
      ],
      "stateMutability": "view",
      "type": "function"
    },
    {
      "inputs": [
        {
          "internalType": "address",
          "name": "newOwner",
          "type": "address"
        }
      ],
      "name": "transferOwnership",
      "outputs": [],
      "stateMutability": "nonpayable",
      "type": "function"
    },
    {
      "inputs": [],
      "name": "treasury",
      "outputs": [
        {
          "internalType": "address",
          "name": "",
          "type": "address"
        }
      ],
      "stateMutability": "view",
      "type": "function"
    },
    {
      "inputs": [
        {
          "internalType": "address",
          "name": "",
          "type": "address"
        },
        {
          "internalType": "uint256",
          "name": "",
          "type": "uint256"
        }
      ],
      "name": "userClaimed",
      "outputs": [
        {
          "internalType": "uint256",
          "name": "",
          "type": "uint256"
        }
      ],
      "stateMutability": "view",
      "type": "function"
    },
    {
      "inputs": [
        {
          "internalType": "uint256",
          "name": "_startId",
          "type": "uint256"
        },
        {
          "internalType": "uint256",
          "name": "_endId",
          "type": "uint256"
        }
      ],
      "name": "viewAllLottery",
      "outputs": [
        {
          "components": [
            {
              "internalType": "enum DegisLotteryV2.Status",
              "name": "status",
              "type": "uint8"
            },
            {
              "internalType": "uint8",
              "name": "treasuryFee",
              "type": "uint8"
            },
            {
              "internalType": "uint32",
              "name": "startTime",
              "type": "uint32"
            },
            {
              "internalType": "uint32",
              "name": "endTime",
              "type": "uint32"
            },
            {
              "internalType": "uint32",
              "name": "finalNumber",
              "type": "uint32"
            },
            {
              "internalType": "uint256",
              "name": "ticketPrice",
              "type": "uint256"
            },
            {
              "internalType": "uint256[4]",
              "name": "rewardsBreakdown",
              "type": "uint256[4]"
            },
            {
              "internalType": "uint256[4]",
              "name": "rewardPerTicketInBracket",
              "type": "uint256[4]"
            },
            {
              "internalType": "uint256[4]",
              "name": "countWinnersPerBracket",
              "type": "uint256[4]"
            },
            {
              "internalType": "uint256",
              "name": "firstTicketId",
              "type": "uint256"
            },
            {
              "internalType": "uint256",
              "name": "firstTicketIdNextRound",
              "type": "uint256"
            },
            {
              "internalType": "uint256",
              "name": "amountCollected",
              "type": "uint256"
            },
            {
              "internalType": "uint256",
              "name": "pendingRewards",
              "type": "uint256"
            }
          ],
          "internalType": "struct DegisLotteryV2.Lottery[]",
          "name": "",
          "type": "tuple[]"
        }
      ],
      "stateMutability": "view",
      "type": "function"
    },
    {
      "inputs": [
        {
          "internalType": "uint256[]",
          "name": "_ticketIds",
          "type": "uint256[]"
        }
      ],
      "name": "viewNumbersPerTicketId",
      "outputs": [
        {
          "internalType": "uint32[]",
          "name": "",
          "type": "uint32[]"
        }
      ],
      "stateMutability": "view",
      "type": "function"
    },
    {
      "inputs": [
        {
          "internalType": "uint256",
          "name": "_lotteryId",
          "type": "uint256"
        }
      ],
      "name": "viewRewardPerTicketInBracket",
      "outputs": [
        {
          "internalType": "uint256[4]",
          "name": "",
          "type": "uint256[4]"
        }
      ],
      "stateMutability": "view",
      "type": "function"
    },
    {
      "inputs": [
        {
          "internalType": "uint256",
          "name": "_lotteryId",
          "type": "uint256"
        }
      ],
      "name": "viewRewardsBreakdown",
      "outputs": [
        {
          "internalType": "uint256[4]",
          "name": "",
          "type": "uint256[4]"
        }
      ],
      "stateMutability": "view",
      "type": "function"
    },
    {
      "inputs": [
        {
          "internalType": "uint256",
          "name": "_lotteryId",
          "type": "uint256"
        },
        {
          "internalType": "uint256",
          "name": "_ticketId",
          "type": "uint256"
        }
      ],
      "name": "viewRewardsForTicketId",
      "outputs": [
        {
          "internalType": "uint256",
          "name": "",
          "type": "uint256"
        }
      ],
      "stateMutability": "view",
      "type": "function"
    },
    {
      "inputs": [
        {
          "internalType": "address",
          "name": "_user",
          "type": "address"
        },
        {
          "internalType": "uint256",
          "name": "_startRound",
          "type": "uint256"
        },
        {
          "internalType": "uint256",
          "name": "_endRound",
          "type": "uint256"
        }
      ],
      "name": "viewUserRewards",
      "outputs": [
        {
          "internalType": "uint256[]",
          "name": "userRewards",
          "type": "uint256[]"
        }
      ],
      "stateMutability": "view",
      "type": "function"
    },
    {
      "inputs": [
        {
          "internalType": "address",
          "name": "_wallet",
          "type": "address"
        },
        {
          "internalType": "uint256",
          "name": "_lotteryId",
          "type": "uint256"
        }
      ],
      "name": "viewWalletTicketIds",
      "outputs": [
        {
          "internalType": "uint256[]",
          "name": "",
          "type": "uint256[]"
        }
      ],
      "stateMutability": "view",
      "type": "function"
    },
    {
      "inputs": [
        {
          "internalType": "uint256",
          "name": "_lotteryId",
          "type": "uint256"
        }
      ],
      "name": "viewWinnerAmount",
      "outputs": [
        {
          "internalType": "uint256[4]",
          "name": "",
          "type": "uint256[4]"
        }
      ],
      "stateMutability": "view",
      "type": "function"
    }
  ],
  "transactionHash": "0xc4cd5dec881f32b8d50a7799b94bbca2e1311b08ce02886e6c0e91880761f4c8",
  "args": [],
  "numDeployments": 14,
  "solcInputHash": "4e93a0fa9708f1fd33e598cd41522cd6",
  "bytecode": "0x608060405234801561001057600080fd5b50614246806100206000396000f3fe608060405234801561001057600080fd5b50600436106102de5760003560e01c80636fa053eb11610186578063b5877b22116100e3578063e1059fe511610097578063f2b3c80911610071578063f2b3c809146106bc578063f2fde38b146106c5578063fcbf8b24146106d857600080fd5b8063e1059fe514610683578063e359ebec14610696578063f0f44260146106a957600080fd5b8063c6e761a9116100c8578063c6e761a91461064a578063c914914f1461065d578063dcbad90d1461067057600080fd5b8063b5877b2214610617578063c38de5391461063757600080fd5b8063972fe6831161013a5780639d8ca5311161011f5780639d8ca531146105cb578063b3e3649b146105de578063b46e130e146105f157600080fd5b8063972fe6831461059857806398359fa1146105b857600080fd5b80637250e45d1161016b5780637250e45d146105535780637741879b1461055c5780638da5cb5b1461058757600080fd5b80636fa053eb14610538578063715018a61461054b57600080fd5b806344848a991161023f57806361d027b3116101f3578063686465b8116101cd578063686465b8146105135780636bcac0ff1461051c5780636be4097c1461052f57600080fd5b806361d027b3146104cb578063656f8a25146104eb57806365dc59d6146104f357600080fd5b806350b447121161022457806350b44712146104515780635745464b146104985780635b0d64c2146104ab57600080fd5b806344848a991461042b578063485cc9551461043e57600080fd5b80631e6425fd1161029657806326df6c271161027b57806326df6c27146103e55780633732b4ee146103f85780633f138d4b1461041857600080fd5b80631e6425fd146103bd5780632149485d146103d257600080fd5b80631398e076116102c75780631398e0761461030b57806314a0792f146103985780631b6c743b146103ae57600080fd5b80630ab2b086146102e357806312a9769d14610302575b600080fd5b6102ec609c5481565b6040516102f99190612d94565b60405180910390f35b6102ec609d5481565b610382610319366004612dba565b609e60205260009081526040902080546001820154600e830154600f840154601085015460119095015460ff8086169661010087049091169563ffffffff62010000820481169666010000000000008304821696600160501b909304909116949093919290918a565b6040516102f99a99989796959493929190612e39565b6103a161271081565b6040516102f99190612ece565b6102ec678ac7230489e8000081565b6103d06103cb366004612dba565b610703565b005b6102ec6103e0366004612edc565b610776565b6102ec6103f3366004612f3e565b610809565b61040b610406366004612dba565b610847565b6040516102f99190612fd7565b6103d0610426366004612fe5565b610896565b6103d0610439366004612dba565b61099d565b6103d061044c366004613007565b610c58565b61048a61045f366004612dba565b609f6020526000908152604090205463ffffffff81169064010000000090046001600160a01b031682565b6040516102f9929190613043565b6103a16104a6366004612dba565b610ddf565b6104be6104b93660046130b0565b610e4e565b6040516102f99190613149565b6099546104de906001600160a01b031681565b6040516102f9919061315a565b6102ec606281565b609754610506906001600160a01b031681565b6040516102f991906131aa565b6102ec609b5481565b61040b61052a366004612dba565b610f24565b6102ec609a5481565b61040b610546366004612dba565b610f72565b6103d0610fc0565b6103a1614e1f81565b6102ec61056a3660046131cf565b60a060209081526000928352604080842090915290825290205481565b6065546001600160a01b03166104de565b6105ab6105a6366004612edc565b610ff6565b6040516102f99190613377565b6103d06105c6366004613388565b611217565b6103d06105d9366004612dba565b611393565b6103d06105ec3660046133bd565b6114d6565b6103a16105ff366004613421565b60a26020526000908152604090205463ffffffff1681565b61062a610625366004612f3e565b6116d2565b6040516102f9919061347f565b6103d06106453660046134a3565b611907565b61062a610658366004612fe5565b611e77565b6103d061066b3660046134d6565b611eec565b609854610506906001600160a01b031681565b6103d06106913660046130b0565b6122f4565b6103d06106a4366004612dba565b61271c565b6103d06106b7366004613388565b61283b565b6102ec610bb881565b6103d06106d3366004613388565b6128db565b6102ec6106e6366004612fe5565b60a360209081526000928352604080842090915290825290205481565b6065546001600160a01b031633146107365760405162461bcd60e51b815260040161072d90613596565b60405180910390fd5b7f67d06ff5b9d79811174a2f0df6d9be98aa3b3f9ae311716140cb1b0668c11843609c54826040516107699291906135a6565b60405180910390a1609c55565b600060036000848152609e602052604090205460ff16600381111561079d5761079d612ddb565b146107aa57506000610803565b6000838152609e60205260409020600f01548211806107d957506000838152609e60205260409020600e015482105b156107e657506000610803565b60006107f28484612937565b90506107ff8484836129e5565b9150505b92915050565b60a1602052826000526040600020602052816000526040600020818154811061083157600080fd5b9060005260206000200160009250925050505481565b61084f612ca0565b6000828152609e60205260409081902081516080810190925260020160048282826020028201915b8154815260200190600101908083116108775750505050509050919050565b6065546001600160a01b031633146108c05760405162461bcd60e51b815260040161072d90613596565b6097546001600160a01b03908116908316036108ee5760405162461bcd60e51b815260040161072d906135f3565b60405163a9059cbb60e01b81526001600160a01b0383169063a9059cbb9061091c9033908590600401613603565b6020604051808303816000875af115801561093b573d6000803e3d6000fd5b505050506040513d601f19601f8201168201806040525081019061095f919061361c565b507f74545154aac348a3eac92596bd1971957ca94795f4e954ec5f613b55fab781298282604051610991929190613603565b60405180910390a15050565b333b156109bc5760405162461bcd60e51b815260040161072d9061366f565b3332146109db5760405162461bcd60e51b815260040161072d906136b1565b6002600154036109fd5760405162461bcd60e51b815260040161072d906136f3565b600260015560036000828152609e602052604090205460ff166003811115610a2757610a27612ddb565b14610a445760405162461bcd60e51b815260040161072d90613735565b33600090815260a160209081526040808320848452909152812054815b81811015610b5a5733600090815260a1602090815260408083208784529091528120805483908110610a9557610a95613745565b600091825260208083209190910154808352609f90915260409091205490915064010000000090046001600160a01b03163314610ae45760405162461bcd60e51b815260040161072d9061378d565b6000818152609f6020526040812080547fffffffffffffffff0000000000000000000000000000000000000000ffffffff169055610b228683612937565b905060048163ffffffff161015610b50576000610b408784846129e5565b9050610b4c81876137b3565b9550505b5050600101610a61565b5060975460405163a9059cbb60e01b81526001600160a01b039091169063a9059cbb90610b8d9033908690600401613603565b6020604051808303816000875af1158015610bac573d6000803e3d6000fd5b505050506040513d601f19601f82011682018060405250810190610bd0919061361c565b506000838152609e602052604081206011018054849290610bf29084906137cb565b909155505033600081815260a36020908152604080832087845290915290819020839055518491907f0fdeb33b5931b477077383757e0ba077bd3d8eddfa2cc711c54ad2d3a0cfac6590610c47908690612d94565b60405180910390a350506001805550565b600054610100900460ff16610c735760005460ff1615610c77565b303b155b610c935760405162461bcd60e51b815260040161072d90613840565b600054610100900460ff16158015610cb5576000805461ffff19166101011790555b610cbd612ae7565b610cc5612b16565b609780546001600160a01b0380861673ffffffffffffffffffffffffffffffffffffffff19928316179092556098805492851692909116919091179055600a609c5560a26020527f8fa6f0ecb9543d3381552e96aa43533c7f086066e38816919ea0cfae371b342a805463ffffffff1990811660019081179092557f87286cc7b9cf8a377e677776b2644ce858185998d33108f493bdc3c2f07b983680548216600b1790557f984fb507cc15174c9c2666d8998832bf192b808658c1b8547c17c86e40ea581480548216606f17905560036000527f4ed878d3ddcb61d84861a74cb3bb4189ee298a8a85e8f1b99bcffb157f7e18848054909116610457179055609b558015610dda576000805461ff00191690555b505050565b600080610dee612710846137cb565b9050600080805b6004811015610e3857610e09600a85613866565b925082610e1783600a61387e565b610e2191906137b3565b9150610e2e600a8561389d565b9350600101610df5565b50610e45816127106137b3565b95945050505050565b60608160008167ffffffffffffffff811115610e6c57610e6c6138b1565b604051908082528060200260200182016040528015610e95578160200160208202803683370190505b50905060005b82811015610f1b57609f6000878784818110610eb957610eb9613745565b90506020020135815260200190815260200160002060000160009054906101000a900463ffffffff16828281518110610ef457610ef4613745565b63ffffffff9092166020928302919091019091015280610f13816138c7565b915050610e9b565b50949350505050565b610f2c612ca0565b6000828152609e60205260409081902081516080810190925260060160048282826020028201918154815260200190600101908083116108775750505050509050919050565b610f7a612ca0565b6000828152609e602052604090819020815160808101909252600a0160048282826020028201918154815260200190600101908083116108775750505050509050919050565b6065546001600160a01b03163314610fea5760405162461bcd60e51b815260040161072d90613596565b610ff46000612b43565b565b6060600061100484846137cb565b61100f9060016137b3565b67ffffffffffffffff811115611027576110276138b1565b60405190808252806020026020018201604052801561106057816020015b61104d612cbe565b8152602001906001900390816110455790505b509050835b83811161120f576000818152609e60205260409081902081516101a081019092528054829060ff16600381111561109e5761109e612ddb565b60038111156110af576110af612ddb565b8152815460ff610100820416602083015263ffffffff62010000820481166040808501919091526601000000000000830482166060850152600160501b90920416608080840191909152600184015460a084015281519081019182905260c09092019190600284019060049082845b81548152602001906001019080831161111e57505050918352505060408051608081019182905260209092019190600684019060049082845b81548152602001906001019080831161115757505050918352505060408051608081019182905260209092019190600a84019060049082845b815481526020019060010190808311611190575050509183525050600e8201546020820152600f820154604082015260108201546060820152601190910154608090910152826111e16001846137cb565b815181106111f1576111f1613745565b60200260200101819052508080611207906138c7565b915050611065565b509392505050565b6065546001600160a01b031633146112415760405162461bcd60e51b815260040161072d90613596565b6003609a546000908152609e602052604090205460ff16600381111561126957611269612ddb565b146112865760405162461bcd60e51b815260040161072d90613735565b806001600160a01b031663e0c862896040518163ffffffff1660e01b8152600401600060405180830381600087803b1580156112c157600080fd5b505af11580156112d5573d6000803e3d6000fd5b50505050806001600160a01b03166342619f666040518163ffffffff1660e01b8152600401602060405180830381865afa158015611317573d6000803e3d6000fd5b505050506040513d601f19601f8201168201806040525081019061133b91906138eb565b506098805473ffffffffffffffffffffffffffffffffffffffff19166001600160a01b0383169081179091556040517f383f8cb39dfa7c3fb901a460dd449ea924868f0a92ff03da64740fffa5f1de6290600090a250565b6065546001600160a01b031633146113bd5760405162461bcd60e51b815260040161072d90613596565b6002600154036113df5760405162461bcd60e51b815260040161072d906136f3565b600260019081556000828152609e602052604090205460ff16600381111561140957611409612ddb565b146114265760405162461bcd60e51b815260040161072d90613964565b609860009054906101000a90046001600160a01b03166001600160a01b031663e0c862896040518163ffffffff1660e01b8152600401600060405180830381600087803b15801561147657600080fd5b505af115801561148a573d6000803e3d6000fd5b5050506000828152609e6020526040808220805460ff19166002179055518392507f8bc84e5d97533c428862626ac41fe7bc09b1ea2ed5e9e330d84092db8df153669190a25060018055565b6065546001600160a01b031633146115005760405162461bcd60e51b815260040161072d90613596565b609a54158061153457506003609a546000908152609e602052604090205460ff16600381111561153257611532612ddb565b145b6115505760405162461bcd60e51b815260040161072d906139a6565b610bb88111156115725760405162461bcd60e51b815260040161072d906139e8565b6127106060830135604084013561158e602086013586356137b3565b61159891906137b3565b6115a291906137b3565b11156115c05760405162461bcd60e51b815260040161072d90613a2a565b60008084116115d757678ac7230489e800006115d9565b835b90506000609a600081546115ec906138c7565b91829055506000818152609e60205260409020805469ffffffffffffffff00ff1916620100004263ffffffff9081169190910269ffffffff0000000000001916919091176601000000000000918a16919091021760019081178255810184905590915061165e60028201866004612d39565b50805461ff00191661010060ff861602178155609d80546010830155609b54600e8301555460405183917f5e7c17be0c6c11472c23d5df180e5136efb90395ccff56f1fcfb8db6b5a0a235916116bc9142918c9189918c9190613a52565b60405180910390a250506000609d555050505050565b60606116de83836137cb565b6116e99060016137b3565b67ffffffffffffffff811115611701576117016138b1565b60405190808252806020026020018201604052801561172a578160200160208202803683370190505b509050825b82811161120f576001600160a01b038516600090815260a160209081526040808320848452825291829020548251808401909352600f83527f7469636b657420616d6f756e743a200000000000000000000000000000000000918301919091529061179a9082612ba2565b6117d96040518060400160405280600a81526020017f67617320757365643a20000000000000000000000000000000000000000000008152505a612ba2565b80156118fe576001600160a01b038616600090815260a16020908152604080832085845282528083208054825181850281018501909352808352919290919083018282801561184757602002820191906000526020600020905b815481526020019060010190808311611833575b5050505050905060005b828110156118fb57600061187e8584848151811061187157611871613745565b6020026020010151610776565b9050808661188d6001886137cb565b8151811061189d5761189d613745565b602002602001018181516118b191906137b3565b90525060408051808201909152600781527f7265776172643a0000000000000000000000000000000000000000000000000060208201526118f29082612ba2565b50600101611851565b50505b5060010161172f565b6065546001600160a01b031633146119315760405162461bcd60e51b815260040161072d90613596565b6002600154036119535760405162461bcd60e51b815260040161072d906136f3565b600260018190556000838152609e602052604090205460ff16600381111561197d5761197d612ddb565b1461199a5760405162461bcd60e51b815260040161072d90613ad1565b609860009054906101000a90046001600160a01b03166001600160a01b031663eed8e1ee6040518163ffffffff1660e01b8152600401602060405180830381865afa1580156119ed573d6000803e3d6000fd5b505050506040513d601f19601f82011682018060405250810190611a1191906138eb565b8214611a2f5760405162461bcd60e51b815260040161072d90613b13565b6099546001600160a01b0316611a575760405162461bcd60e51b815260040161072d90613b55565b6000612710609860009054906101000a90046001600160a01b03166001600160a01b03166342619f666040518163ffffffff1660e01b8152600401602060405180830381865afa158015611aaf573d6000803e3d6000fd5b505050506040513d601f19601f82011682018060405250810190611ad391906138eb565b611add9190613866565b611ae9906127106137b3565b6000848152609e6020526040812060108101549293509190612710611b1083611f4061387e565b611b1a919061389d565b835490915060009061271090611b3a90610100900460ff166107d0613b65565b611b489061ffff168561387e565b611b52919061389d565b9050600081611b6184866137cb565b611b6b91906137cb565b90506000805b60048163ffffffff161015611d6c576000611b8d826003613b73565b90506000611b9c826001613b83565b611ba790600a613cbb565b611bb1908b613cde565b63ffffffff808416600090815260a26020526040902054611bd3929116613b83565b60008d815260a06020908152604080832063ffffffff85168452909152902054909150611c0085826137cb565b8a600a018463ffffffff1660048110611c1b57611c1b613745565b0155808514611cff57896002018363ffffffff1660048110611c3f57611c3f613745565b015415611cfa57612710611c5386836137cb565b898c6002018663ffffffff1660048110611c6f57611c6f613745565b0154611c7b919061387e565b611c85919061389d565b611c8f919061389d565b8a6006018463ffffffff1660048110611caa57611caa613745565b01556127108860028c0163ffffffff861660048110611ccb57611ccb613745565b0154611cd7919061387e565b611ce1919061389d565b8a6011016000828254611cf491906137b3565b90915550505b611d60565b60008a6006018463ffffffff1660048110611d1c57611d1c613745565b01556127108860028c0163ffffffff861660048110611d3d57611d3d613745565b0154611d49919061387e565b611d53919061389d565b611d5d90876137b3565b95505b93505050600101611b71565b5085546dffffffff000000000000000000ff191660ff19600160501b63ffffffff8a160216176003178655609b54600f8701558715611dab57609d8390555b8115611e2c5760975460995460405163a9059cbb60e01b81526001600160a01b039283169263a9059cbb92611de7929116908690600401613603565b6020604051808303816000875af1158015611e06573d6000803e3d6000fd5b505050506040513d601f19601f82011682018060405250810190611e2a919061361c565b505b609a547f98e31a6607b8b15b4d5b91de54f4c09ffe4c4cf162aa532c70b5213754e2e7038883604051611e60929190613d09565b60405180910390a250506001805550505050505050565b6001600160a01b038216600090815260a1602090815260408083208484528252808320805482518185028101850190935280835260609493830182828015611ede57602002820191906000526020600020905b815481526020019060010190808311611eca575b509398975050505050505050565b333b15611f0b5760405162461bcd60e51b815260040161072d9061366f565b333214611f2a5760405162461bcd60e51b815260040161072d906136b1565b600260015403611f4c5760405162461bcd60e51b815260040161072d906136f3565b600260015560036000868152609e602052604090205460ff166003811115611f7657611f76612ddb565b14611f935760405162461bcd60e51b815260040161072d90613735565b82818114611fb35760405162461bcd60e51b815260040161072d90613d49565b60008111611fd35760405162461bcd60e51b815260040161072d90613d8b565b609c54811115611ff55760405162461bcd60e51b815260040161072d90613dcd565b6000868152609e60205260408120815b838110156121d857600088888381811061202157612021613745565b90506020020135905082600e015481101561204e5760405162461bcd60e51b815260040161072d90613e0f565b82600f015481106120715760405162461bcd60e51b815260040161072d90613e51565b6000818152609f602052604090205464010000000090046001600160a01b031633146120af5760405162461bcd60e51b815260040161072d90613eb9565b6000818152609f6020526040812080547fffffffffffffffff0000000000000000000000000000000000000000ffffffff1690556121148b838a8a878181106120fa576120fa613745565b905060200201602081019061210f9190613421565b6129e5565b9050600081116121365760405162461bcd60e51b815260040161072d90613efb565b600388888581811061214a5761214a613745565b905060200201602081019061215f9190613421565b63ffffffff1610156121bf576121a28b838a8a8781811061218257612182613745565b90506020020160208101906121979190613421565b61210f906001613b83565b156121bf5760405162461bcd60e51b815260040161072d90613f3d565b6121c981866137b3565b94508260010192505050612005565b5033600090815260a3602090815260408083208b8452909152812080548592906122039084906137b3565b90915550506000888152609e6020526040812060110180548492906122299084906137cb565b909155505060975460405163a9059cbb60e01b81526001600160a01b039091169063a9059cbb906122609033908690600401613603565b6020604051808303816000875af115801561227f573d6000803e3d6000fd5b505050506040513d601f19601f820116820180604052508101906122a3919061361c565b5087336001600160a01b03167f0fdeb33b5931b477077383757e0ba077bd3d8eddfa2cc711c54ad2d3a0cfac65846040516122de9190612d94565b60405180910390a3505060018055505050505050565b333b156123135760405162461bcd60e51b815260040161072d9061366f565b3332146123325760405162461bcd60e51b815260040161072d906136b1565b6002600154036123545760405162461bcd60e51b815260040161072d906136f3565b600260015580806123775760405162461bcd60e51b815260040161072d90613f7f565b609c548111156123995760405162461bcd60e51b815260040161072d90613fc1565b609a546000818152609e60205260409020906001825460ff1660038111156123c3576123c3612ddb565b146123e05760405162461bcd60e51b815260040161072d90614003565b60006123f0836001015485612c19565b6097546040516323b872dd60e01b81529192506001600160a01b0316906323b872dd9061242590339030908690600401614013565b6020604051808303816000875af1158015612444573d6000803e3d6000fd5b505050506040513d601f19601f82011682018060405250810190612468919061361c565b506000828152609e60205260408120601001805483929061248a9084906137b3565b90915550600090505b848110156126cb5760008787838181106124af576124af613745565b90506020020160208101906124c49190613421565b905061271063ffffffff8216108015906124e65750614e1f63ffffffff821611155b6125025760405162461bcd60e51b815260040161072d90614075565b600084815260a0602052604081209061251c600a84613cde565b612527906001613b83565b63ffffffff1663ffffffff1681526020019081526020016000206000815461254e906138c7565b90915550600084815260a0602052604081209061256c606484613cde565b61257790600b613b83565b63ffffffff1663ffffffff1681526020019081526020016000206000815461259e906138c7565b90915550600084815260a060205260408120906125bd6103e884613cde565b6125c890606f613b83565b63ffffffff1663ffffffff168152602001908152602001600020600081546125ef906138c7565b90915550600084815260a0602052604081209061260e61271084613cde565b61261a90610457613b83565b63ffffffff1663ffffffff16815260200190815260200160002060008154612641906138c7565b90915550609b805433600081815260a1602090815260408083208a8452825280832080546001818101835591855283852001869055948352609f909152902080546401000000009092027fffffffffffffffff00000000000000000000000000000000000000000000000090921663ffffffff909516949094171790925580548201905501612493565b5081336001600160a01b03167fc7c1448de202b1838ad1d7fae75dbd69dc79f98d656f7b30f08dc451c9ab7ff886846040516127089291906135a6565b60405180910390a350506001805550505050565b609a5460016000828152609e602052604090205460ff16600381111561274457612744612ddb565b146127615760405162461bcd60e51b815260040161072d90614003565b6000818152609e6020526040812060100180548492906127829084906137b3565b90915550506097546040516323b872dd60e01b81526001600160a01b03909116906323b872dd906127bb90339030908790600401614013565b6020604051808303816000875af11580156127da573d6000803e3d6000fd5b505050506040513d601f19601f820116820180604052508101906127fe919061361c565b50807f1bbd659dd628a25f7ff2eabb69c74a56939c539728282275c1c9c1a2d3e340498360405161282f9190612d94565b60405180910390a25050565b6065546001600160a01b031633146128655760405162461bcd60e51b815260040161072d90613596565b6099546040517f8c3aa5f43a388513435861bf27dfad7829cd248696fed367c62d441f62954496916128a4916001600160a01b03909116908490614085565b60405180910390a16099805473ffffffffffffffffffffffffffffffffffffffff19166001600160a01b0392909216919091179055565b6065546001600160a01b031633146129055760405162461bcd60e51b815260040161072d90613596565b6001600160a01b03811661292b5760405162461bcd60e51b815260040161072d906140eb565b61293481612b43565b50565b6000818152609f6020908152604080832054858452609e9092529091205460049163ffffffff90811691600160501b90041660015b60048163ffffffff16116129dc5761298581600a613cbb565b61298f9084613cde565b63ffffffff166129a082600a613cbb565b6129aa9084613cde565b63ffffffff16036129c7576129c0600182613b73565b93506129cc565b6129dc565b6129d5816140fb565b905061296c565b50505092915050565b6000828152609f6020908152604080832054868452609e90925282205463ffffffff91821691600160501b9091041682612a20856001613b83565b612a2b90600a613cbb565b90506000612a398284613cde565b63ffffffff808816600090815260a26020526040902054612a5b929116613b83565b90506000612a698386613cde565b63ffffffff808916600090815260a26020526040902054612a8b929116613b83565b90508063ffffffff168263ffffffff1603612ad6576000898152609e6020526040902060060163ffffffff881660048110612ac857612ac8613745565b015495505050505050612ae0565b6000955050505050505b9392505050565b600054610100900460ff16612b0e5760405162461bcd60e51b815260040161072d9061416f565b610ff4612c4f565b600054610100900460ff16612b3d5760405162461bcd60e51b815260040161072d9061416f565b60018055565b606580546001600160a01b0383811673ffffffffffffffffffffffffffffffffffffffff19831681179093556040519116919082907f8be0079c531659141344cd1fd0a4f28419497f9722a3daafe3b4186f6b6457e090600090a35050565b612c158282604051602401612bb89291906141e1565b60408051601f198184030181529190526020810180517bffffffffffffffffffffffffffffffffffffffffffffffffffffffff167f9710a9d000000000000000000000000000000000000000000000000000000000179052612c7f565b5050565b6000612c26826064614201565b612c31836062614201565b612c3b848661387e565b612c45919061387e565b612ae0919061389d565b600054610100900460ff16612c765760405162461bcd60e51b815260040161072d9061416f565b610ff433612b43565b80516a636f6e736f6c652e6c6f67602083016000808483855afa5050505050565b60405180608001604052806004906020820280368337509192915050565b604080516101a08101909152806000815260006020820181905260408201819052606082018190526080820181905260a082015260c001612cfd612ca0565b8152602001612d0a612ca0565b8152602001612d17612ca0565b8152602001600081526020016000815260200160008152602001600081525090565b8260048101928215612d67579160200282015b82811115612d67578235825591602001919060010190612d4c565b50612d73929150612d77565b5090565b5b80821115612d735760008155600101612d78565b805b82525050565b602081016108038284612d8c565b805b811461293457600080fd5b803561080381612da2565b600060208284031215612dcf57612dcf600080fd5b60006107ff8484612daf565b634e487b7160e01b600052602160045260246000fd5b6004811061293457612934612ddb565b80612e0b81612df1565b919050565b600061080382612e01565b612d8e81612e10565b60ff8116612d8e565b63ffffffff8116612d8e565b6101408101612e48828d612e1b565b612e55602083018c612e24565b612e62604083018b612e2d565b612e6f606083018a612e2d565b612e7c6080830189612e2d565b612e8960a0830188612d8c565b612e9660c0830187612d8c565b612ea360e0830186612d8c565b612eb1610100830185612d8c565b612ebf610120830184612d8c565b9b9a5050505050505050505050565b602081016108038284612e2d565b60008060408385031215612ef257612ef2600080fd5b6000612efe8585612daf565b9250506020612f0f85828601612daf565b9150509250929050565b60006001600160a01b038216610803565b612da481612f19565b803561080381612f2a565b600080600060608486031215612f5657612f56600080fd5b6000612f628686612f33565b9350506020612f7386828701612daf565b9250506040612f8486828701612daf565b9150509250925092565b612f988282612d8c565b5060200190565b60200190565b60048160005b82811015612fd0578151612fbf8682612f8e565b955050602082019150600101612fab565b5050505050565b608081016108038284612fa5565b60008060408385031215612ffb57612ffb600080fd5b6000612efe8585612f33565b6000806040838503121561301d5761301d600080fd5b60006130298585612f33565b9250506020612f0f85828601612f33565b612d8e81612f19565b604081016130518285612e2d565b612ae0602083018461303a565b60008083601f84011261307357613073600080fd5b50813567ffffffffffffffff81111561308e5761308e600080fd5b6020830191508360208202830111156130a9576130a9600080fd5b9250929050565b600080602083850312156130c6576130c6600080fd5b823567ffffffffffffffff8111156130e0576130e0600080fd5b6130ec8582860161305e565b92509250509250929050565b612f988282612e2d565b600061310c825190565b808452602093840193830160005b8281101561313f57815161312e87826130f8565b96505060208201915060010161311a565b5093949350505050565b60208082528101612ae08184613102565b60208101610803828461303a565b60006108036001600160a01b03831661317f565b90565b6001600160a01b031690565b600061080382613168565b60006108038261318b565b612d8e81613196565b6020810161080382846131a1565b63ffffffff8116612da4565b8035610803816131b8565b600080604083850312156131e5576131e5600080fd5b60006131f18585612daf565b9250506020612f0f858286016131c4565b60048160005b82811015612fd057815161321c8682612f8e565b955050602082019150600101613208565b80516132398382612e1b565b50602081015161324c6020840182612e24565b50604081015161325f6040840182612e2d565b5060608101516132726060840182612e2d565b5060808101516132856080840182612e2d565b5060a081015161329860a0840182612d8c565b5060c08101516132ab60c0840182613202565b5060e08101516132bf610140840182613202565b506101008101516132d46101c0840182613202565b506101208101516132e9610240840182612d8c565b506101408101516132fe610260840182612d8c565b50610160810151613313610280840182612d8c565b50610180810151610dda6102a0840182612d8c565b613332828261322d565b506102c00190565b6000613344825190565b808452602093840193830160005b8281101561313f5781516133668782613328565b965050602082019150600101613352565b60208082528101612ae0818461333a565b60006020828403121561339d5761339d600080fd5b60006107ff8484612f33565b806080810183101561080357610803600080fd5b60008060008060e085870312156133d6576133d6600080fd5b60006133e28787612daf565b94505060206133f387828801612daf565b9350506040613404878288016133a9565b92505060c061341587828801612daf565b91505092959194509250565b60006020828403121561343657613436600080fd5b60006107ff84846131c4565b600061344c825190565b808452602093840193830160005b8281101561313f57815161346e8782612f8e565b96505060208201915060010161345a565b60208082528101612ae08184613442565b801515612da4565b803561080381613490565b600080604083850312156134b9576134b9600080fd5b60006134c58585612daf565b9250506020612f0f85828601613498565b6000806000806000606086880312156134f1576134f1600080fd5b60006134fd8888612daf565b955050602086013567ffffffffffffffff81111561351d5761351d600080fd5b6135298882890161305e565b9450945050604086013567ffffffffffffffff81111561354b5761354b600080fd5b6135578882890161305e565b92509250509295509295909350565b60208082527f4f776e61626c653a2063616c6c6572206973206e6f7420746865206f776e65729101908152612f9f565b6020808252810161080381613566565b604081016135b48285612d8c565b612ae06020830184612d8c565b60158152602081017f43616e6e6f7420626520444547495320746f6b656e000000000000000000000081529050612f9f565b60208082528101610803816135c1565b604081016135b4828561303a565b805161080381613490565b60006020828403121561363157613631600080fd5b60006107ff8484613611565b60148152602081017f436f6e7472616374206e6f7420616c6c6f77656400000000000000000000000081529050612f9f565b602080825281016108038161363d565b601a8152602081017f50726f787920636f6e7472616374206e6f7420616c6c6f77656400000000000081529050612f9f565b602080825281016108038161367f565b601f8152602081017f5265656e7472616e637947756172643a207265656e7472616e742063616c6c0081529050612f9f565b60208082528101610803816136c1565b60138152602081017f526f756e64206e6f7420636c61696d61626c650000000000000000000000000081529050612f9f565b6020808252810161080381613703565b634e487b7160e01b600052603260045260246000fd5b60148152602081017f4e6f7420746865207469636b6574206f776e657200000000000000000000000081529050612f9f565b602080825281016108038161375b565b634e487b7160e01b600052601160045260246000fd5b600082198211156137c6576137c661379d565b500190565b815b91506000828210156137e1576137e161379d565b500390565b602e8152602081017f496e697469616c697a61626c653a20636f6e747261637420697320616c72656181527f647920696e697469616c697a6564000000000000000000000000000000000000602082015290505b60400190565b60208082528101610803816137e6565b634e487b7160e01b600052601260045260246000fd5b815b915060008261387957613879613850565b500690565b60008160001904831182151516156138985761389861379d565b500290565b6000826138ac576138ac613850565b500490565b634e487b7160e01b600052604160045260246000fd5b6000600182016138d9576138d961379d565b5060010190565b805161080381612da2565b60006020828403121561390057613900600080fd5b60006107ff84846138e0565b60228152602081017f74686973206c6f7474657279206973206e6f74206f70656e2063757272656e7481527f6c790000000000000000000000000000000000000000000000000000000000006020820152905061383a565b602080825281016108038161390c565b600c8152602081017f57726f6e6720737461747573000000000000000000000000000000000000000081529050612f9f565b6020808252810161080381613974565b60158152602081017f54726561737572792066656520746f6f2068696768000000000000000000000081529050612f9f565b60208082528101610803816139b6565b601a8152602081017f5265776172647320627265616b646f776e20746f6f206869676800000000000081529050612f9f565b60208082528101610803816139f8565b82818337506000910152565b612c1560808383613a3a565b6101008101613a618288612d8c565b613a6e6020830187612d8c565b613a7b6040830186612d8c565b613a886060830185613a46565b613a9560e0830184612d8c565b9695505050505050565b60128152602081017f4c6f7474657279206e6f7420636c6f736564000000000000000000000000000081529050612f9f565b6020808252810161080381613a9f565b60168152602081017f46696e616c206e756d626572206e6f7420647261776e0000000000000000000081529050612f9f565b6020808252810161080381613ae1565b60138152602081017f5472656173757279206973206e6f74207365740000000000000000000000000081529050612f9f565b6020808252810161080381613b23565b61ffff9081169082166137cd565b63ffffffff9081169082166137cd565b63ffffffff8116905063ffffffff8216915060008263ffffffff038211156137c6576137c661379d565b80825b6001851115613bec57808604811115613bcb57613bcb61379d565b6001851615613bd957908102905b8002613be58560011c90565b9450613bb0565b94509492505050565b600082613c0457506001612ae0565b81613c1157506000612ae0565b8160018114613c275760028114613c3157613c5e565b6001915050612ae0565b60ff841115613c4257613c4261379d565b8360020a915084821115613c5857613c5861379d565b50612ae0565b5060208310610133831016604e8410600b8410161715613c91575081810a83811115613c8c57613c8c61379d565b612ae0565b613c9e8484846001613bad565b92509050818404811115613cb457613cb461379d565b0292915050565b63ffffffff8116905063ffffffff821691506000612ae063ffffffff8484613bf5565b63ffffffff908116908216613868565b600061080361317c63ffffffff841681565b612d8e81613cee565b604081016135b48285613d00565b600f8152602081017f4e6f742073616d65206c656e677468000000000000000000000000000000000081529050612f9f565b6020808252810161080381613d17565b600a8152602081017f4e6f207469636b6574730000000000000000000000000000000000000000000081529050612f9f565b6020808252810161080381613d59565b60198152602081017f546f6f206d616e79207469636b65747320746f20636c61696d0000000000000081529050612f9f565b6020808252810161080381613d9b565b60138152602081017f5469636b657420696420746f6f20736d616c6c0000000000000000000000000081529050612f9f565b6020808252810161080381613ddd565b60138152602081017f5469636b657420696420746f6f206c617267650000000000000000000000000081529050612f9f565b6020808252810161080381613e1f565b60278152602081017f4e6f7420746865207469636b6574206f776e6572206f7220616c72656164792081527f636c61696d6564000000000000000000000000000000000000000000000000006020820152905061383a565b6020808252810161080381613e61565b60088152602081017f4e6f207072697a6500000000000000000000000000000000000000000000000081529050612f9f565b6020808252810161080381613ec9565b60128152602081017f4f6e6c792068696768657374207072697a65000000000000000000000000000081529050612f9f565b6020808252810161080381613f0b565b601b8152602081017f4e6f207469636b65747320617265206265696e6720626f75676874000000000081529050612f9f565b6020808252810161080381613f4d565b60108152602081017f546f6f206d616e79207469636b6574730000000000000000000000000000000081529050612f9f565b6020808252810161080381613f8f565b600e8152602081017f526f756e64206e6f74206f70656e00000000000000000000000000000000000081529050612f9f565b6020808252810161080381613fd1565b60608101614021828661303a565b61402e602083018561303a565b61403b6040830184612d8c565b949350505050565b601e8152602081017f5469636b6574206e756d626572206973206f7574736964652072616e6765000081529050612f9f565b6020808252810161080381614043565b60408101613051828561303a565b60268152602081017f4f776e61626c653a206e6577206f776e657220697320746865207a65726f206181527f64647265737300000000000000000000000000000000000000000000000000006020820152905061383a565b6020808252810161080381614093565b63ffffffff16600063fffffffe1982016138d9576138d961379d565b602b8152602081017f496e697469616c697a61626c653a20636f6e7472616374206973206e6f74206981527f6e697469616c697a696e670000000000000000000000000000000000000000006020820152905061383a565b6020808252810161080381614117565b60005b8381101561419a578181015183820152602001614182565b838111156141a9576000848401525b50505050565b60006141b9825190565b8084526020840193506141d081856020860161417f565b601f01601f19169290920192915050565b604080825281016141f281856141af565b9050612ae06020830184612d8c565b6000612ae06000198484613bf556fea2646970667358221220bc052dcc9618241cbe6292ee923426082f51127c48e2156ea5ed60597b3fb5f064736f6c634300080d0033",
  "devdoc": {
    "kind": "dev",
    "methods": {
      "_reverseTicketNumber(uint256)": {
        "params": {
          "_number": "Input ticket number"
        },
        "returns": {
          "_0": "reversedNumber Reversed number + 10000"
        }
      },
      "buyTickets(uint32[])": {
        "details": "Need to transfer the 4-digit number to a 5-digit number to be used here (+10000)      Can not be called by a smart contract      Can only purchase in the current round      E.g. You are selecting the number of 1-2-3-4 (lowest to highest)           You will need to pass a number \"14321\"",
        "params": {
          "_ticketNumbers": "Array of ticket numbers between 10,000 and 19,999"
        }
      },
      "changeRandomGenerator(address)": {
        "details": "The calls to functions are used to verify the new generator implements them properly.      It is necessary to wait for the VRF response before starting a round.",
        "params": {
          "_randomGeneratorAddress": "address of the random generator"
        }
      },
      "claimAllTickets(uint256)": {
        "details": "Callable by users only, not contract      Gas cost may be oversized, recommended to get brackets offchain first      Get brackets offchain and call function \"claimTickets\"",
        "params": {
          "_lotteryId": "Lottery id"
        }
      },
      "claimTickets(uint256,uint256[],uint32[])": {
        "details": "Callable by users only, not contract",
        "params": {
          "_brackets": "Bracket / prize level of each ticket",
          "_lotteryId": "Lottery id",
          "_ticketIds": "Array of ticket ids"
        }
      },
      "closeLottery(uint256)": {
        "details": "Callable only by the owner",
        "params": {
          "_lotteryId": "lottery round"
        }
      },
      "drawFinalNumberAndMakeLotteryClaimable(uint256,bool)": {
        "params": {
          "_autoInjection": "Auto inject funds into next lottery",
          "_lotteryId": "Lottery round"
        }
      },
      "initialize(address,address)": {
        "details": "RandomNumberGenerator must be deployed prior to this contract",
        "params": {
          "_degis": "Address of DEG",
          "_randomGenerator": "Address of the RandomGenerator contract used to work with ChainLink VRF"
        }
      },
      "injectFunds(uint256)": {
        "details": "Those DEG transferred to this contract but not by this function      will not be counted for prize pools",
        "params": {
          "_amount": "DEG amount to inject"
        }
      },
      "owner()": {
        "details": "Returns the address of the current owner."
      },
      "recoverWrongTokens(address,uint256)": {
        "params": {
          "_tokenAddress": "Address of the token to withdraw",
          "_tokenAmount": "Token amount to withdraw"
        }
      },
      "renounceOwnership()": {
        "details": "Leaves the contract without owner. It will not be possible to call `onlyOwner` functions anymore. Can only be called by the current owner. NOTE: Renouncing ownership will leave the contract without an owner, thereby removing any functionality that is only available to the owner."
      },
      "setMaxNumberTicketsEachTime(uint256)": {
        "params": {
          "_maxNumber": "Max number each time"
        }
      },
      "setTreasury(address)": {
        "params": {
          "_treasury": "Treasury address"
        }
      },
      "startLottery(uint256,uint256,uint256[4],uint256)": {
        "params": {
          "_endTime": "EndTime of the lottery",
          "_fee": "Treasury fee (10,000 = 100%, 100 = 1%)",
          "_rewardsBreakdown": "Breakdown of rewards per bracket (must sum to 10,000)(100 <=> 1)",
          "_ticketPrice": "Price of each ticket without discount"
        }
      },
      "transferOwnership(address)": {
        "details": "Transfers ownership of the contract to a new account (`newOwner`). Can only be called by the current owner."
      },
      "viewAllLottery(uint256,uint256)": {
        "params": {
          "_endId": "End lottery id",
          "_startId": "Start lottery id"
        },
        "returns": {
          "_0": "Array of lottery information"
        }
      },
      "viewNumbersPerTicketId(uint256[])": {
        "params": {
          "_ticketIds": ": array of _ticketId"
        }
      },
      "viewRewardsForTicketId(uint256,uint256)": {
        "details": "This function will help to find the highest prize bracket      But this computation is encouraged to be done off-chain      Better to get bracket first and then call \"_calculateRewardsForTicketId()\"",
        "params": {
          "_lotteryId": "Lottery round",
          "_ticketId": "Ticket id"
        },
        "returns": {
          "_0": "reward Ticket reward"
        }
      },
      "viewWalletTicketIds(address,uint256)": {
        "params": {
          "_wallet": "address to check owned tickets"
        },
        "returns": {
          "_0": "_lotteryId lottery id to verify ownership"
        }
      }
    },
    "title": "DegisLotteryV2",
    "version": 1
  },
  "userdoc": {
    "kind": "user",
    "methods": {
      "_reverseTicketNumber(uint256)": {
        "notice": "Reverse the ticket number         E.g. User want to buy \"1234\"              The input number will be 11234              The reversed output will be 14321"
      },
      "buyTickets(uint32[])": {
        "notice": "Buy tickets for the current lottery round"
      },
      "changeRandomGenerator(address)": {
        "notice": "Change the random generator contract address"
      },
      "claimAllTickets(uint256)": {
        "notice": "Claim all winning tickets for a lottery round"
      },
      "claimTickets(uint256,uint256[],uint32[])": {
        "notice": "Claim winning tickets"
      },
      "closeLottery(uint256)": {
        "notice": "Close a lottery"
      },
      "drawFinalNumberAndMakeLotteryClaimable(uint256,bool)": {
        "notice": "Draw the final number, calculate reward in Degis for each group, and make this lottery claimable (need to wait for the random generator)"
      },
      "initialize(address,address)": {
        "notice": "Initialize function"
      },
      "injectFunds(uint256)": {
        "notice": "Inject funds"
      },
      "recoverWrongTokens(address,uint256)": {
        "notice": "Recover wrong tokens sent to the contract, only by the owner          All tokens except Degis are wrong tokens"
      },
      "setMaxNumberTicketsEachTime(uint256)": {
        "notice": "Set max number can buy/claim each time"
      },
      "setTreasury(address)": {
        "notice": "Set treasury wallet address"
      },
      "startLottery(uint256,uint256,uint256[4],uint256)": {
        "notice": "Start a new lottery round"
      },
      "viewAllLottery(uint256,uint256)": {
        "notice": "View lottery information"
      },
      "viewNumbersPerTicketId(uint256[])": {
        "notice": "View ticker statuses and numbers for an array of ticket ids"
      },
      "viewRewardsForTicketId(uint256,uint256)": {
        "notice": "View rewards for a given ticket in a given lottery round"
      },
      "viewWalletTicketIds(address,uint256)": {
        "notice": "Get the reward per ticket in 4 brackets"
      }
    },
    "version": 1
  },
  "storageLayout": {
    "storage": [
      {
        "astId": 2670,
        "contract": "contracts/lucky-box/DegisLotteryV2.sol:DegisLotteryV2",
        "label": "_initialized",
        "offset": 0,
        "slot": "0",
        "type": "t_bool"
      },
      {
        "astId": 2673,
        "contract": "contracts/lucky-box/DegisLotteryV2.sol:DegisLotteryV2",
        "label": "_initializing",
        "offset": 1,
        "slot": "0",
        "type": "t_bool"
      },
      {
        "astId": 2862,
        "contract": "contracts/lucky-box/DegisLotteryV2.sol:DegisLotteryV2",
        "label": "_status",
        "offset": 0,
        "slot": "1",
        "type": "t_uint256"
      },
      {
        "astId": 2906,
        "contract": "contracts/lucky-box/DegisLotteryV2.sol:DegisLotteryV2",
        "label": "__gap",
        "offset": 0,
        "slot": "2",
        "type": "t_array(t_uint256)49_storage"
      },
      {
        "astId": 3907,
        "contract": "contracts/lucky-box/DegisLotteryV2.sol:DegisLotteryV2",
        "label": "__gap",
        "offset": 0,
        "slot": "51",
        "type": "t_array(t_uint256)50_storage"
      },
      {
        "astId": 2550,
        "contract": "contracts/lucky-box/DegisLotteryV2.sol:DegisLotteryV2",
        "label": "_owner",
        "offset": 0,
        "slot": "101",
        "type": "t_address"
      },
      {
        "astId": 2662,
        "contract": "contracts/lucky-box/DegisLotteryV2.sol:DegisLotteryV2",
        "label": "__gap",
        "offset": 0,
        "slot": "102",
        "type": "t_array(t_uint256)49_storage"
      },
      {
        "astId": 22286,
        "contract": "contracts/lucky-box/DegisLotteryV2.sol:DegisLotteryV2",
        "label": "DegisToken",
        "offset": 0,
        "slot": "151",
        "type": "t_contract(IERC20)5510"
      },
      {
        "astId": 22289,
        "contract": "contracts/lucky-box/DegisLotteryV2.sol:DegisLotteryV2",
        "label": "randomGenerator",
        "offset": 0,
        "slot": "152",
        "type": "t_contract(IRandomNumberGenerator)25095"
      },
      {
        "astId": 22291,
        "contract": "contracts/lucky-box/DegisLotteryV2.sol:DegisLotteryV2",
        "label": "treasury",
        "offset": 0,
        "slot": "153",
        "type": "t_address"
      },
      {
        "astId": 22293,
        "contract": "contracts/lucky-box/DegisLotteryV2.sol:DegisLotteryV2",
        "label": "currentLotteryId",
        "offset": 0,
        "slot": "154",
        "type": "t_uint256"
      },
      {
        "astId": 22295,
        "contract": "contracts/lucky-box/DegisLotteryV2.sol:DegisLotteryV2",
        "label": "currentTicketId",
        "offset": 0,
        "slot": "155",
        "type": "t_uint256"
      },
      {
        "astId": 22297,
        "contract": "contracts/lucky-box/DegisLotteryV2.sol:DegisLotteryV2",
        "label": "maxNumberTicketsEachTime",
        "offset": 0,
        "slot": "156",
        "type": "t_uint256"
      },
      {
        "astId": 22299,
        "contract": "contracts/lucky-box/DegisLotteryV2.sol:DegisLotteryV2",
        "label": "pendingInjectionNextLottery",
        "offset": 0,
        "slot": "157",
        "type": "t_uint256"
      },
      {
        "astId": 22343,
        "contract": "contracts/lucky-box/DegisLotteryV2.sol:DegisLotteryV2",
        "label": "lotteries",
        "offset": 0,
        "slot": "158",
        "type": "t_mapping(t_uint256,t_struct(Lottery)22338_storage)"
      },
      {
        "astId": 22353,
        "contract": "contracts/lucky-box/DegisLotteryV2.sol:DegisLotteryV2",
        "label": "tickets",
        "offset": 0,
        "slot": "159",
        "type": "t_mapping(t_uint256,t_struct(Ticket)22348_storage)"
      },
      {
        "astId": 22359,
        "contract": "contracts/lucky-box/DegisLotteryV2.sol:DegisLotteryV2",
        "label": "_numberTicketsPerLotteryId",
        "offset": 0,
        "slot": "160",
        "type": "t_mapping(t_uint256,t_mapping(t_uint32,t_uint256))"
      },
      {
        "astId": 22366,
        "contract": "contracts/lucky-box/DegisLotteryV2.sol:DegisLotteryV2",
        "label": "_userTicketIds",
        "offset": 0,
        "slot": "161",
        "type": "t_mapping(t_address,t_mapping(t_uint256,t_array(t_uint256)dyn_storage))"
      },
      {
        "astId": 22370,
        "contract": "contracts/lucky-box/DegisLotteryV2.sol:DegisLotteryV2",
        "label": "_bracketCalculator",
        "offset": 0,
        "slot": "162",
        "type": "t_mapping(t_uint32,t_uint32)"
      },
      {
        "astId": 22376,
        "contract": "contracts/lucky-box/DegisLotteryV2.sol:DegisLotteryV2",
        "label": "userClaimed",
        "offset": 0,
        "slot": "163",
        "type": "t_mapping(t_address,t_mapping(t_uint256,t_uint256))"
      }
    ],
    "types": {
      "t_address": {
        "encoding": "inplace",
        "label": "address",
        "numberOfBytes": "20"
      },
      "t_array(t_uint256)49_storage": {
        "base": "t_uint256",
        "encoding": "inplace",
        "label": "uint256[49]",
        "numberOfBytes": "1568"
      },
      "t_array(t_uint256)4_storage": {
        "base": "t_uint256",
        "encoding": "inplace",
        "label": "uint256[4]",
        "numberOfBytes": "128"
      },
      "t_array(t_uint256)50_storage": {
        "base": "t_uint256",
        "encoding": "inplace",
        "label": "uint256[50]",
        "numberOfBytes": "1600"
      },
      "t_array(t_uint256)dyn_storage": {
        "base": "t_uint256",
        "encoding": "dynamic_array",
        "label": "uint256[]",
        "numberOfBytes": "32"
      },
      "t_bool": {
        "encoding": "inplace",
        "label": "bool",
        "numberOfBytes": "1"
      },
      "t_contract(IERC20)5510": {
        "encoding": "inplace",
        "label": "contract IERC20",
        "numberOfBytes": "20"
      },
      "t_contract(IRandomNumberGenerator)25095": {
        "encoding": "inplace",
        "label": "contract IRandomNumberGenerator",
        "numberOfBytes": "20"
      },
      "t_enum(Status)22304": {
        "encoding": "inplace",
        "label": "enum DegisLotteryV2.Status",
        "numberOfBytes": "1"
      },
      "t_mapping(t_address,t_mapping(t_uint256,t_array(t_uint256)dyn_storage))": {
        "encoding": "mapping",
        "key": "t_address",
        "label": "mapping(address => mapping(uint256 => uint256[]))",
        "numberOfBytes": "32",
        "value": "t_mapping(t_uint256,t_array(t_uint256)dyn_storage)"
      },
      "t_mapping(t_address,t_mapping(t_uint256,t_uint256))": {
        "encoding": "mapping",
        "key": "t_address",
        "label": "mapping(address => mapping(uint256 => uint256))",
        "numberOfBytes": "32",
        "value": "t_mapping(t_uint256,t_uint256)"
      },
      "t_mapping(t_uint256,t_array(t_uint256)dyn_storage)": {
        "encoding": "mapping",
        "key": "t_uint256",
        "label": "mapping(uint256 => uint256[])",
        "numberOfBytes": "32",
        "value": "t_array(t_uint256)dyn_storage"
      },
      "t_mapping(t_uint256,t_mapping(t_uint32,t_uint256))": {
        "encoding": "mapping",
        "key": "t_uint256",
        "label": "mapping(uint256 => mapping(uint32 => uint256))",
        "numberOfBytes": "32",
        "value": "t_mapping(t_uint32,t_uint256)"
      },
      "t_mapping(t_uint256,t_struct(Lottery)22338_storage)": {
        "encoding": "mapping",
        "key": "t_uint256",
        "label": "mapping(uint256 => struct DegisLotteryV2.Lottery)",
        "numberOfBytes": "32",
        "value": "t_struct(Lottery)22338_storage"
      },
      "t_mapping(t_uint256,t_struct(Ticket)22348_storage)": {
        "encoding": "mapping",
        "key": "t_uint256",
        "label": "mapping(uint256 => struct DegisLotteryV2.Ticket)",
        "numberOfBytes": "32",
        "value": "t_struct(Ticket)22348_storage"
      },
      "t_mapping(t_uint256,t_uint256)": {
        "encoding": "mapping",
        "key": "t_uint256",
        "label": "mapping(uint256 => uint256)",
        "numberOfBytes": "32",
        "value": "t_uint256"
      },
      "t_mapping(t_uint32,t_uint256)": {
        "encoding": "mapping",
        "key": "t_uint32",
        "label": "mapping(uint32 => uint256)",
        "numberOfBytes": "32",
        "value": "t_uint256"
      },
      "t_mapping(t_uint32,t_uint32)": {
        "encoding": "mapping",
        "key": "t_uint32",
        "label": "mapping(uint32 => uint32)",
        "numberOfBytes": "32",
        "value": "t_uint32"
      },
      "t_struct(Lottery)22338_storage": {
        "encoding": "inplace",
        "label": "struct DegisLotteryV2.Lottery",
        "members": [
          {
            "astId": 22307,
            "contract": "contracts/lucky-box/DegisLotteryV2.sol:DegisLotteryV2",
            "label": "status",
            "offset": 0,
            "slot": "0",
            "type": "t_enum(Status)22304"
          },
          {
            "astId": 22309,
            "contract": "contracts/lucky-box/DegisLotteryV2.sol:DegisLotteryV2",
            "label": "treasuryFee",
            "offset": 1,
            "slot": "0",
            "type": "t_uint8"
          },
          {
            "astId": 22311,
            "contract": "contracts/lucky-box/DegisLotteryV2.sol:DegisLotteryV2",
            "label": "startTime",
            "offset": 2,
            "slot": "0",
            "type": "t_uint32"
          },
          {
            "astId": 22313,
            "contract": "contracts/lucky-box/DegisLotteryV2.sol:DegisLotteryV2",
            "label": "endTime",
            "offset": 6,
            "slot": "0",
            "type": "t_uint32"
          },
          {
            "astId": 22315,
            "contract": "contracts/lucky-box/DegisLotteryV2.sol:DegisLotteryV2",
            "label": "finalNumber",
            "offset": 10,
            "slot": "0",
            "type": "t_uint32"
          },
          {
            "astId": 22317,
            "contract": "contracts/lucky-box/DegisLotteryV2.sol:DegisLotteryV2",
            "label": "ticketPrice",
            "offset": 0,
            "slot": "1",
            "type": "t_uint256"
          },
          {
            "astId": 22321,
            "contract": "contracts/lucky-box/DegisLotteryV2.sol:DegisLotteryV2",
            "label": "rewardsBreakdown",
            "offset": 0,
            "slot": "2",
            "type": "t_array(t_uint256)4_storage"
          },
          {
            "astId": 22325,
            "contract": "contracts/lucky-box/DegisLotteryV2.sol:DegisLotteryV2",
            "label": "rewardPerTicketInBracket",
            "offset": 0,
            "slot": "6",
            "type": "t_array(t_uint256)4_storage"
          },
          {
            "astId": 22329,
            "contract": "contracts/lucky-box/DegisLotteryV2.sol:DegisLotteryV2",
            "label": "countWinnersPerBracket",
            "offset": 0,
            "slot": "10",
            "type": "t_array(t_uint256)4_storage"
          },
          {
            "astId": 22331,
            "contract": "contracts/lucky-box/DegisLotteryV2.sol:DegisLotteryV2",
            "label": "firstTicketId",
            "offset": 0,
            "slot": "14",
            "type": "t_uint256"
          },
          {
            "astId": 22333,
            "contract": "contracts/lucky-box/DegisLotteryV2.sol:DegisLotteryV2",
            "label": "firstTicketIdNextRound",
            "offset": 0,
            "slot": "15",
            "type": "t_uint256"
          },
          {
            "astId": 22335,
            "contract": "contracts/lucky-box/DegisLotteryV2.sol:DegisLotteryV2",
            "label": "amountCollected",
            "offset": 0,
            "slot": "16",
            "type": "t_uint256"
          },
          {
            "astId": 22337,
            "contract": "contracts/lucky-box/DegisLotteryV2.sol:DegisLotteryV2",
            "label": "pendingRewards",
            "offset": 0,
            "slot": "17",
            "type": "t_uint256"
          }
        ],
        "numberOfBytes": "576"
      },
      "t_struct(Ticket)22348_storage": {
        "encoding": "inplace",
        "label": "struct DegisLotteryV2.Ticket",
        "members": [
          {
            "astId": 22345,
            "contract": "contracts/lucky-box/DegisLotteryV2.sol:DegisLotteryV2",
            "label": "number",
            "offset": 0,
            "slot": "0",
            "type": "t_uint32"
          },
          {
            "astId": 22347,
            "contract": "contracts/lucky-box/DegisLotteryV2.sol:DegisLotteryV2",
            "label": "owner",
            "offset": 4,
            "slot": "0",
            "type": "t_address"
          }
        ],
        "numberOfBytes": "32"
      },
      "t_uint256": {
        "encoding": "inplace",
        "label": "uint256",
        "numberOfBytes": "32"
      },
      "t_uint32": {
        "encoding": "inplace",
        "label": "uint32",
        "numberOfBytes": "4"
      },
      "t_uint8": {
        "encoding": "inplace",
        "label": "uint8",
        "numberOfBytes": "1"
      }
    }
  }
}