{
  "address": "0x3e93155261ce715eCaE50f9B2ce94480FC8D9206",
  "abi": [
    {
      "inputs": [
        {
          "internalType": "address",
          "name": "_DEGTokenAddress",
          "type": "address"
        },
        {
          "internalType": "address",
          "name": "_USDTokenAddress",
          "type": "address"
        },
        {
          "internalType": "address",
          "name": "_randomGeneratorAddress",
          "type": "address"
        }
      ],
      "stateMutability": "nonpayable",
      "type": "constructor"
    },
    {
      "anonymous": false,
      "inputs": [
        {
          "indexed": true,
          "internalType": "address",
          "name": "token",
          "type": "address"
        },
        {
          "indexed": false,
          "internalType": "uint256",
          "name": "amount",
          "type": "uint256"
        }
      ],
      "name": "AdminTokenRecovery",
      "type": "event"
    },
    {
      "anonymous": false,
      "inputs": [
        {
          "indexed": true,
          "internalType": "uint256",
          "name": "lotteryId",
          "type": "uint256"
        }
      ],
      "name": "LotteryClose",
      "type": "event"
    },
    {
      "anonymous": false,
      "inputs": [
        {
          "indexed": true,
          "internalType": "uint256",
          "name": "lotteryId",
          "type": "uint256"
        },
        {
          "indexed": false,
          "internalType": "uint256",
          "name": "injectedAmount",
          "type": "uint256"
        }
      ],
      "name": "LotteryFundInjection",
      "type": "event"
    },
    {
      "anonymous": false,
      "inputs": [
        {
          "indexed": true,
          "internalType": "uint256",
          "name": "lotteryId",
          "type": "uint256"
        },
        {
          "indexed": false,
          "internalType": "uint256",
          "name": "finalNumber",
          "type": "uint256"
        },
        {
          "indexed": false,
          "internalType": "uint256",
          "name": "pendingRewards",
          "type": "uint256"
        }
      ],
      "name": "LotteryNumberDrawn",
      "type": "event"
    },
    {
      "anonymous": false,
      "inputs": [
        {
          "indexed": true,
          "internalType": "uint256",
          "name": "lotteryId",
          "type": "uint256"
        },
        {
          "indexed": false,
          "internalType": "uint256",
          "name": "startTime",
          "type": "uint256"
        },
        {
          "indexed": false,
          "internalType": "uint256",
          "name": "endTime",
          "type": "uint256"
        },
        {
          "indexed": false,
          "internalType": "uint256",
          "name": "totalRewards",
          "type": "uint256"
        }
      ],
      "name": "LotteryOpen",
      "type": "event"
    },
    {
      "anonymous": false,
      "inputs": [
        {
          "indexed": false,
          "internalType": "address",
          "name": "operator",
          "type": "address"
        }
      ],
      "name": "OperatorAddressChanged",
      "type": "event"
    },
    {
      "anonymous": false,
      "inputs": [
        {
          "indexed": true,
          "internalType": "address",
          "name": "previousOwner",
          "type": "address"
        },
        {
          "indexed": true,
          "internalType": "address",
          "name": "newOwner",
          "type": "address"
        }
      ],
      "name": "OwnershipTransferred",
      "type": "event"
    },
    {
      "anonymous": false,
      "inputs": [
        {
          "indexed": false,
          "internalType": "address",
          "name": "randomGenerator",
          "type": "address"
        }
      ],
      "name": "RandomNumberGeneratorChanged",
      "type": "event"
    },
    {
      "anonymous": false,
      "inputs": [
        {
          "indexed": true,
          "internalType": "address",
          "name": "claimer",
          "type": "address"
        },
        {
          "indexed": false,
          "internalType": "uint256",
          "name": "amount",
          "type": "uint256"
        },
        {
          "indexed": true,
          "internalType": "uint256",
          "name": "lotteryId",
          "type": "uint256"
        }
      ],
      "name": "ReceiveRewards",
      "type": "event"
    },
    {
      "anonymous": false,
      "inputs": [
        {
          "indexed": true,
          "internalType": "address",
          "name": "buyer",
          "type": "address"
        },
        {
          "indexed": true,
          "internalType": "uint256",
          "name": "lotteryId",
          "type": "uint256"
        },
        {
          "indexed": false,
          "internalType": "uint256",
          "name": "totalAmount",
          "type": "uint256"
        }
      ],
      "name": "TicketsPurchase",
      "type": "event"
    },
    {
      "anonymous": false,
      "inputs": [
        {
          "indexed": true,
          "internalType": "address",
          "name": "redeemer",
          "type": "address"
        },
        {
          "indexed": true,
          "internalType": "uint256",
          "name": "lotteryId",
          "type": "uint256"
        },
        {
          "indexed": false,
          "internalType": "uint256",
          "name": "totalAmount",
          "type": "uint256"
        }
      ],
      "name": "TicketsRedeem",
      "type": "event"
    },
    {
      "inputs": [],
      "name": "DEGToken",
      "outputs": [
        {
          "internalType": "contract IERC20",
          "name": "",
          "type": "address"
        }
      ],
      "stateMutability": "view",
      "type": "function"
    },
    {
      "inputs": [],
      "name": "RewardsToNextLottery",
      "outputs": [
        {
          "internalType": "uint256",
          "name": "",
          "type": "uint256"
        }
      ],
      "stateMutability": "view",
      "type": "function"
    },
    {
      "inputs": [],
      "name": "TICKET_PRICE",
      "outputs": [
        {
          "internalType": "uint256",
          "name": "",
          "type": "uint256"
        }
      ],
      "stateMutability": "view",
      "type": "function"
    },
    {
      "inputs": [],
      "name": "USDToken",
      "outputs": [
        {
          "internalType": "contract IERC20",
          "name": "",
          "type": "address"
        }
      ],
      "stateMutability": "view",
      "type": "function"
    },
    {
      "inputs": [],
      "name": "allPendingRewards",
      "outputs": [
        {
          "internalType": "uint256",
          "name": "",
          "type": "uint256"
        }
      ],
      "stateMutability": "view",
      "type": "function"
    },
    {
      "inputs": [
        {
          "internalType": "uint256[]",
          "name": "_ticketNumbers",
          "type": "uint256[]"
        },
        {
          "internalType": "uint256[]",
          "name": "_ticketAmounts",
          "type": "uint256[]"
        }
      ],
      "name": "buyTickets",
      "outputs": [],
      "stateMutability": "nonpayable",
      "type": "function"
    },
    {
      "inputs": [],
      "name": "closeLottery",
      "outputs": [],
      "stateMutability": "nonpayable",
      "type": "function"
    },
    {
      "inputs": [],
      "name": "currentLotteryId",
      "outputs": [
        {
          "internalType": "uint256",
          "name": "",
          "type": "uint256"
        }
      ],
      "stateMutability": "view",
      "type": "function"
    },
    {
      "inputs": [],
      "name": "drawLottery",
      "outputs": [],
      "stateMutability": "nonpayable",
      "type": "function"
    },
    {
      "inputs": [],
      "name": "getCurrentRoundWeight",
      "outputs": [
        {
          "internalType": "uint256",
          "name": "",
          "type": "uint256"
        }
      ],
      "stateMutability": "view",
      "type": "function"
    },
    {
      "inputs": [
        {
          "internalType": "uint256",
          "name": "_lotteryId",
          "type": "uint256"
        }
      ],
      "name": "getLotteriesStageInfo",
      "outputs": [
        {
          "internalType": "uint256[]",
          "name": "stageProportion",
          "type": "uint256[]"
        },
        {
          "internalType": "uint256[]",
          "name": "stageReward",
          "type": "uint256[]"
        },
        {
          "internalType": "uint256[]",
          "name": "stageAmount",
          "type": "uint256[]"
        },
        {
          "internalType": "uint256[]",
          "name": "stageWeight",
          "type": "uint256[]"
        }
      ],
      "stateMutability": "view",
      "type": "function"
    },
    {
      "inputs": [
        {
          "internalType": "uint256",
          "name": "_startIndex",
          "type": "uint256"
        },
        {
          "internalType": "uint256",
          "name": "_stopIndex",
          "type": "uint256"
        },
        {
          "internalType": "uint256",
          "name": "_position",
          "type": "uint256"
        }
      ],
      "name": "getPoolTicketsInfo",
      "outputs": [
        {
          "internalType": "uint256[]",
          "name": "",
          "type": "uint256[]"
        },
        {
          "internalType": "uint256[]",
          "name": "",
          "type": "uint256[]"
        },
        {
          "internalType": "uint256[]",
          "name": "",
          "type": "uint256[]"
        }
      ],
      "stateMutability": "view",
      "type": "function"
    },
    {
      "inputs": [
        {
          "internalType": "address",
          "name": "user",
          "type": "address"
        },
        {
          "internalType": "uint256",
          "name": "_startIndex",
          "type": "uint256"
        },
        {
          "internalType": "uint256",
          "name": "_stopIndex",
          "type": "uint256"
        },
        {
          "internalType": "uint256",
          "name": "position",
          "type": "uint256"
        }
      ],
      "name": "getUserTicketsInfo",
      "outputs": [
        {
          "internalType": "uint256[]",
          "name": "",
          "type": "uint256[]"
        },
        {
          "internalType": "uint256[]",
          "name": "",
          "type": "uint256[]"
        },
        {
          "internalType": "uint256[]",
          "name": "",
          "type": "uint256[]"
        }
      ],
      "stateMutability": "view",
      "type": "function"
    },
    {
      "inputs": [
        {
          "internalType": "uint256",
          "name": "_amount",
          "type": "uint256"
        }
      ],
      "name": "injectFunds",
      "outputs": [],
      "stateMutability": "nonpayable",
      "type": "function"
    },
    {
      "inputs": [
        {
          "internalType": "uint256",
          "name": "",
          "type": "uint256"
        }
      ],
      "name": "lotteries",
      "outputs": [
        {
          "internalType": "enum DegisLottery.Status",
          "name": "status",
          "type": "uint8"
        },
        {
          "internalType": "uint256",
          "name": "startTime",
          "type": "uint256"
        },
        {
          "internalType": "uint256",
          "name": "endTime",
          "type": "uint256"
        },
        {
          "internalType": "uint256",
          "name": "totalRewards",
          "type": "uint256"
        },
        {
          "internalType": "uint256",
          "name": "pendingRewards",
          "type": "uint256"
        },
        {
          "internalType": "uint256",
          "name": "finalNumber",
          "type": "uint256"
        }
      ],
      "stateMutability": "view",
      "type": "function"
    },
    {
      "inputs": [],
      "name": "operatorAddress",
      "outputs": [
        {
          "internalType": "address",
          "name": "",
          "type": "address"
        }
      ],
      "stateMutability": "view",
      "type": "function"
    },
    {
      "inputs": [],
      "name": "owner",
      "outputs": [
        {
          "internalType": "address",
          "name": "",
          "type": "address"
        }
      ],
      "stateMutability": "view",
      "type": "function"
    },
    {
      "inputs": [],
      "name": "randomGenerator",
      "outputs": [
        {
          "internalType": "contract IRandomNumberGenerator",
          "name": "",
          "type": "address"
        }
      ],
      "stateMutability": "view",
      "type": "function"
    },
    {
      "inputs": [
        {
          "internalType": "uint256",
          "name": "_lotteryId",
          "type": "uint256"
        }
      ],
      "name": "receiveRewards",
      "outputs": [],
      "stateMutability": "nonpayable",
      "type": "function"
    },
    {
      "inputs": [
        {
          "internalType": "uint256",
          "name": "_lotteryId",
          "type": "uint256"
        },
        {
          "internalType": "address",
          "name": "user",
          "type": "address"
        }
      ],
      "name": "receiveRward",
      "outputs": [
        {
          "internalType": "uint256",
          "name": "",
          "type": "uint256"
        }
      ],
      "stateMutability": "view",
      "type": "function"
    },
    {
      "inputs": [
        {
          "internalType": "address",
          "name": "_tokenAddress",
          "type": "address"
        },
        {
          "internalType": "uint256",
          "name": "_tokenAmount",
          "type": "uint256"
        }
      ],
      "name": "recoverWrongTokens",
      "outputs": [],
      "stateMutability": "nonpayable",
      "type": "function"
    },
    {
      "inputs": [
        {
          "internalType": "uint256[]",
          "name": "_ticketNumbers",
          "type": "uint256[]"
        }
      ],
      "name": "redeemTickets",
      "outputs": [],
      "stateMutability": "nonpayable",
      "type": "function"
    },
    {
      "inputs": [],
      "name": "renounceOwnership",
      "outputs": [],
      "stateMutability": "nonpayable",
      "type": "function"
    },
    {
      "inputs": [
        {
          "internalType": "address",
          "name": "_operatorAddress",
          "type": "address"
        }
      ],
      "name": "setOperatorAddress",
      "outputs": [],
      "stateMutability": "nonpayable",
      "type": "function"
    },
    {
      "inputs": [
        {
          "internalType": "address",
          "name": "_randomNumberGenerator",
          "type": "address"
        }
      ],
      "name": "setRandomNumberGenerator",
      "outputs": [],
      "stateMutability": "nonpayable",
      "type": "function"
    },
    {
      "inputs": [
        {
          "internalType": "uint256",
          "name": "_endTime",
          "type": "uint256"
        },
        {
          "internalType": "uint256[4]",
          "name": "_stageProportion",
          "type": "uint256[4]"
        }
      ],
      "name": "startLottery",
      "outputs": [],
      "stateMutability": "nonpayable",
      "type": "function"
    },
    {
      "inputs": [
        {
          "internalType": "address",
          "name": "newOwner",
          "type": "address"
        }
      ],
      "name": "transferOwnership",
      "outputs": [],
      "stateMutability": "nonpayable",
      "type": "function"
    },
    {
      "inputs": [
        {
          "internalType": "address",
          "name": "",
          "type": "address"
        }
      ],
      "name": "userCheckPoint",
      "outputs": [
        {
          "internalType": "uint256",
          "name": "",
          "type": "uint256"
        }
      ],
      "stateMutability": "view",
      "type": "function"
    },
    {
      "inputs": [
        {
          "internalType": "address",
          "name": "",
          "type": "address"
        },
        {
          "internalType": "uint256",
          "name": "",
          "type": "uint256"
        }
      ],
      "name": "usersRewards",
      "outputs": [
        {
          "internalType": "uint256",
          "name": "",
          "type": "uint256"
        }
      ],
      "stateMutability": "view",
      "type": "function"
    },
    {
      "inputs": [
        {
          "internalType": "address",
          "name": "",
          "type": "address"
        }
      ],
      "name": "usersTotalRewards",
      "outputs": [
        {
          "internalType": "uint256",
          "name": "",
          "type": "uint256"
        }
      ],
      "stateMutability": "view",
      "type": "function"
    },
    {
      "inputs": [
        {
          "internalType": "address",
          "name": "user",
          "type": "address"
        },
        {
          "internalType": "uint256",
          "name": "maxAmount",
          "type": "uint256"
        }
      ],
      "name": "viewUserAllTicketsInfo",
      "outputs": [
        {
          "internalType": "uint256[]",
          "name": "",
          "type": "uint256[]"
        },
        {
          "internalType": "uint256[]",
          "name": "",
          "type": "uint256[]"
        },
        {
          "internalType": "uint256[]",
          "name": "",
          "type": "uint256[]"
        },
        {
          "internalType": "uint256",
          "name": "",
          "type": "uint256"
        }
      ],
      "stateMutability": "view",
      "type": "function"
    },
    {
      "inputs": [
        {
          "internalType": "address",
          "name": "user",
          "type": "address"
        },
        {
          "internalType": "uint256",
          "name": "_startRound",
          "type": "uint256"
        },
        {
          "internalType": "uint256",
          "name": "_endRound",
          "type": "uint256"
        }
      ],
      "name": "viewUserRewardsInfo",
      "outputs": [
        {
          "internalType": "uint256[]",
          "name": "",
          "type": "uint256[]"
        },
        {
          "internalType": "uint256[]",
          "name": "",
          "type": "uint256[]"
        },
        {
          "internalType": "uint256[]",
          "name": "",
          "type": "uint256[]"
        }
      ],
      "stateMutability": "view",
      "type": "function"
    }
  ],
  "transactionHash": "0x72701f8a04d667d9caf7bd15246cfe5a8ef72144117ec30d2d6fa0a19c5a69ca",
  "args": [
    "0xe1E7087d206c31fA490C8936C8a4dc1d1dc63342",
    "0xdC8E687E84dfc03cd7799De4626C6a4f978d96b9",
    "0xB4593aDFd546b6D6C4cD23071250d858620dEA75"
  ],
  "numDeployments": 1,
  "solcInputHash": "6b41690bc48f03e7fcef834013961fdc",
  "bytecode": "0x60806040523480156200001157600080fd5b5060405162003cb038038062003cb0833981016040819052620000349162000113565b6001600055620000443362000087565b600280546001600160a01b039485166001600160a01b0319918216179091556003805493851693821693909317909255600480549190931691161790556200016b565b600180546001600160a01b038381166001600160a01b0319831681179093556040519116919082907f8be0079c531659141344cd1fd0a4f28419497f9722a3daafe3b4186f6b6457e090600090a35050565b60006001600160a01b0382165b92915050565b620000f781620000d9565b81146200010357600080fd5b50565b8051620000e681620000ec565b6000806000606084860312156200012d576200012d600080fd5b60006200013b868662000106565b93505060206200014e8682870162000106565b9250506040620001618682870162000106565b9150509250925092565b613b35806200017b6000396000f3fe608060405234801561001057600080fd5b50600436106101f05760003560e01c80638b06a51f1161010f578063d07f8a43116100a2578063e359ebec11610071578063e359ebec14610492578063e6c10661146104a5578063f2fde38b146104b8578063f43d11af146104cb57600080fd5b8063d07f8a4314610446578063d3c89b6814610459578063d77868da1461046c578063dcbad90d1461047f57600080fd5b8063929a25ba116100de578063929a25ba146103dd578063967159f3146103fd5780639dd693ed14610410578063c05851441461043357600080fd5b80638b06a51f146103775780638da5cb5b146103975780638f966b4f146103a85780638fab78b5146103bb57600080fd5b80633f138d4b116101875780636be4097c116101565780636be4097c1461034b5780636fd0981614610354578063715018a61461035c57806386c594181461036457600080fd5b80633f138d4b146103075780634019c9481461031a578063605f73a81461033a57806369d40f781461034357600080fd5b80631398e076116101c35780631398e076146102825780631a95f15f146102db57806327e605ec146102ea5780632f1d5a60146102f457600080fd5b8063045abca0146101f557806307a2ff64146102145780630db0bf5914610237578063127effb214610262575b600080fd5b6101fe600a5481565b60405161020b9190612af5565b60405180910390f35b610227610222366004612b1b565b6104de565b60405161020b9493929190612b9a565b6101fe610245366004612c16565b600f60209081526000928352604080842090915290825290205481565b600554610275906001600160a01b031681565b60405161020b9190612c5c565b6102c9610290366004612b1b565b60096020526000908152604090208054600182015460028301546013840154601485015460159095015460ff9094169492939192909186565b60405161020b96959493929190612cb3565b6101fe678ac7230489e8000081565b6102f26106a7565b005b6102f2610302366004612d02565b610b48565b6102f2610315366004612c16565b610bfd565b60025461032d906001600160a01b031681565b60405161020b9190612d42565b6101fe600b5481565b6101fe610cbd565b6101fe600c5481565b6102f2610cf8565b6102f2610e6e565b60035461032d906001600160a01b031681565b6101fe610385366004612d02565b600d6020526000908152604090205481565b6001546001600160a01b0316610275565b6101fe6103b6366004612d50565b610eb3565b6103ce6103c9366004612d83565b611000565b60405161020b93929190612dd3565b6101fe6103eb366004612d02565b600e6020526000908152604090205481565b6102f261040b366004612e66565b6111e5565b61042361041e366004612c16565b611464565b60405161020b9493929190612ead565b6102f2610441366004612ef5565b6117b4565b6102f2610454366004612d02565b611a47565b6102f2610467366004612f80565b611af1565b6102f261047a366004612b1b565b611dd4565b60045461032d906001600160a01b031681565b6102f26104a0366004612b1b565b611fd1565b6103ce6104b3366004612fb3565b6121c1565b6102f26104c6366004612d02565b6124a0565b6103ce6104d9366004612fd7565b61250b565b60408051600480825260a082019092526060918291829182919060208201608080368337505060408051600480825260a08201909252929650905060208201608080368337505060408051600480825260a08201909252929550905060208201608080368337505060408051600480825260a0820190925292945090506020820160808036833701905050905060005b600481101561069f576000868152600960205260409020600301816004811061059957610599613051565b01548582815181106105ad576105ad613051565b6020026020010181815250506009600087815260200190815260200160002060070181600481106105e0576105e0613051565b01548482815181106105f4576105f4613051565b60200260200101818152505060096000878152602001908152602001600020600b01816004811061062757610627613051565b015483828151811061063b5761063b613051565b60200260200101818152505060096000878152602001908152602001600020600f01816004811061066e5761066e613051565b015482828151811061068257610682613051565b6020908102919091010152806106978161307d565b91505061056e565b509193509193565b6005546001600160a01b0316336001600160a01b031614806106d357506001546001600160a01b031633145b6106f85760405162461bcd60e51b81526004016106ef906130b9565b60405180910390fd5b6002600054141561071b5760405162461bcd60e51b81526004016106ef906130fb565b60026000818155600c5481526009602052604090205460ff16600381111561074557610745612c6a565b146107625760405162461bcd60e51b81526004016106ef9061315e565b600480546040805163776c70f760e11b815290516001600160a01b039092169263eed8e1ee9282820192602092908290030181865afa1580156107a9573d6000803e3d6000fd5b505050506040513d601f19601f820116820180604052508101906107cd9190613179565b600c54146107ed5760405162461bcd60e51b81526004016106ef906131d8565b6000600460009054906101000a90046001600160a01b03166001600160a01b03166342619f666040518163ffffffff1660e01b8152600401602060405180830381865afa158015610842573d6000803e3d6000fd5b505050506040513d601f19601f8201168201806040525081019061086691906131ff565b600c54600090815260096020526040812063ffffffff92909216925090819081805b60048110156109ed57600061089e826003613220565b905060006108ac88836126f4565b6000818152600760205260409020549091506108c9908890613220565b85600b0183600481106108de576108de613051565b0155600081815260076020908152604080832054600690925290912054909750610909908790613220565b85600f01836004811061091e5761091e613051565b01556000818152600660205260409020549550600b8501826004811061094657610946613051565b015461096a57600085600701836004811061096357610963613051565b01556109b5565b612710856013015486600301846004811061098757610987613051565b01546109939190613237565b61099d919061326c565b8560070183600481106109b2576109b2613051565b01555b8460070182600481106109ca576109ca613051565b01546109d69085613280565b9350505080806109e59061307d565b915050610888565b5080826014016000828254610a029190613280565b909155505060148201546013830154610a1b9190613220565b600a556003546040516370a0823160e01b81526001600160a01b03909116906370a0823190610a4e903090600401612c5c565b602060405180830381865afa158015610a6b573d6000803e3d6000fd5b505050506040513d601f19601f82011682018060405250810190610a8f9190613179565b8260130154600b54610aa19190613280565b1115610abf5760405162461bcd60e51b81526004016106ef906132bd565b60158201859055815460ff191660031782556014820154600b8054600090610ae8908490613280565b9091555050600c54600081815260096020526040908190206014015490517f98e31a6607b8b15b4d5b91de54f4c09ffe4c4cf162aa532c70b5213754e2e70391610b34918991906132cd565b60405180910390a250506001600055505050565b33610b5b6001546001600160a01b031690565b6001600160a01b031614610b815760405162461bcd60e51b81526004016106ef90613318565b6001600160a01b038116610ba75760405162461bcd60e51b81526004016106ef90613353565b600580546001600160a01b0319166001600160a01b0383161790556040517f2cbac2b64384bea29a06e4e8a692a6e5320bfa529be0407a03d41605cb69817390610bf2908390612c5c565b60405180910390a150565b33610c106001546001600160a01b031690565b6001600160a01b031614610c365760405162461bcd60e51b81526004016106ef90613318565b6002546001600160a01b0383811691161415610c645760405162461bcd60e51b81526004016106ef90613395565b610c786001600160a01b0383163383612733565b816001600160a01b03167f74545154aac348a3eac92596bd1971957ca94795f4e954ec5f613b55fab7812982604051610cb19190612af5565b60405180910390a25050565b6000600c54600c610cce9190613280565b600c54610cdc906018613280565b610ce990620f4240613237565b610cf3919061326c565b905090565b6005546001600160a01b0316336001600160a01b03161480610d2457506001546001600160a01b031633145b610d405760405162461bcd60e51b81526004016106ef906130b9565b60026000541415610d635760405162461bcd60e51b81526004016106ef906130fb565b60026000556001600c5460009081526009602052604090205460ff166003811115610d9057610d90612c6a565b14610dad5760405162461bcd60e51b81526004016106ef906133d7565b600c546000908152600960205260408082204260029091015560048054825163dbdff2c160e01b815292516001600160a01b039091169363dbdff2c193808401939192919082900301818387803b158015610e0757600080fd5b505af1158015610e1b573d6000803e3d6000fd5b5050600c8054600090815260096020526040808220805460ff19166002179055915491519193507f8bc84e5d97533c428862626ac41fe7bc09b1ea2ed5e9e330d84092db8df15366925090a26001600055565b33610e816001546001600160a01b031690565b6001600160a01b031614610ea75760405162461bcd60e51b81526004016106ef90613318565b610eb1600061278e565b565b60008281526009602052604081206015015481908190815b6004811015610ff3576000610ee1826003613220565b90506000610eef84836126f4565b6001600160a01b038916600090815260086020908152604080832084845290915281205491925090610f22908790613220565b6001600160a01b038a1660009081526008602090815260408083208684528252808320548e84526009909252909120909750909150600f018360048110610f6b57610f6b613051565b015415610fdd5760008a8152600960205260409020600f018360048110610f9457610f94613051565b015460008b815260096020526040902082906007018560048110610fba57610fba613051565b0154610fc69190613237565b610fd0919061326c565b610fda9088613280565b96505b5050508080610feb9061307d565b915050610ecb565b5091925050505b92915050565b6060808060006110108787613220565b61101b906001613280565b6001600160401b038111156110325761103261303b565b60405190808252806020026020018201604052801561105b578160200160208202803683370190505b509050600061106a8888613220565b611075906001613280565b6001600160401b0381111561108c5761108c61303b565b6040519080825280602002602001820160405280156110b5578160200160208202803683370190505b50905060006110c48989613220565b6110cf906001613280565b6001600160401b038111156110e6576110e661303b565b60405190808252806020026020018201604052801561110f578160200160208202803683370190505b509050885b8881116111d5576000611127828a6126f4565b905081856111358d83613220565b8151811061114557611145613051565b6020908102919091018101919091526000828152600790915260409020548461116e8d85613220565b8151811061117e5761117e613051565b602090810291909101810191909152600082815260069091526040902054836111a78d85613220565b815181106111b7576111b7613051565b602090810291909101015250806111cd8161307d565b915050611114565b5091989097509095509350505050565b6111f0335b3b151590565b1561120d5760405162461bcd60e51b81526004016106ef90613410565b33321461122c5760405162461bcd60e51b81526004016106ef90613452565b6002600054141561124f5760405162461bcd60e51b81526004016106ef906130fb565b6002600055806112715760405162461bcd60e51b81526004016106ef90613494565b6001600c5460009081526009602052604090205460ff16600381111561129957611299612c6a565b146112b65760405162461bcd60e51b81526004016106ef906134e1565b336000908152600d60205260409020546112de57600c54336000908152600d60205260409020555b600c54336000908152600d60205260409020541015611309576113096001600c5461047a9190613220565b6000805b828110156113cf57600061133a85858481811061132c5761132c613051565b9050602002013560036126f4565b3360009081526008602090815260408083208484526001810183528184205492529091205491925090611388600688888781811061137a5761137a613051565b9050602002013584846127e0565b3360009081526008602052604090206113ad9088888781811061137a5761137a613051565b6113b78286613280565b945050505080806113c79061307d565b91505061130d565b50806113ed5760405162461bcd60e51b81526004016106ef90613523565b61141633611403678ac7230489e8000084613237565b6002546001600160a01b03169190612733565b600c54336001600160a01b03167f4351c1b0eab3edfe3ae632c43d3c33b0ce389aa3bebe2586cd5a064b26b666f5836040516114529190612af5565b60405180910390a35050600160005550565b6060806060600080856001600160401b038111156114845761148461303b565b6040519080825280602002602001820160405280156114ad578160200160208202803683370190505b5090506000866001600160401b038111156114ca576114ca61303b565b6040519080825280602002602001820160405280156114f3578160200160208202803683370190505b5090506000876001600160401b038111156115105761151061303b565b604051908082528060200260200182016040528015611539578160200160208202803683370190505b509050600080808080805b600984116117995783945061158a8f61155e8760006126f4565b6001600160a01b0391909116600090815260086020908152604080832093835260019093019052205490565b61159357611787565b600092505b60098311611787576115ab83600a613237565b6115b59085613280565b94506115c68f61155e8760016126f4565b6115cf57611775565b600091505b60098211611775576115e7826064613237565b6115f284600a613237565b6115fc9086613280565b6116069190613280565b94506116178f61155e8760026126f4565b61162057611763565b5060005b6009811161176357611638816103e8613237565b611643836064613237565b61164e85600a613237565b6116589087613280565b6116629190613280565b61166c9190613280565b945061167d8f61155e8760036126f4565b61168657611751565b8489878151811061169957611699613051565b6020026020010181815250506116b48f61155e8760036126f4565b8887815181106116c6576116c6613051565b6020026020010181815250506117098f6116e18760036126f4565b6001600160a01b03919091166000908152600860209081526040808320938352929052205490565b87878151811061171b5761171b613051565b6020908102919091010152856117308161307d565b9650508d86106117515750969a509498509296509094506117ab9350505050565b8061175b8161307d565b915050611624565b8161176d8161307d565b9250506115d4565b8261177f8161307d565b935050611598565b836117918161307d565b945050611544565b50969a50949850929650909450505050505b92959194509250565b6117bd336111ea565b156117da5760405162461bcd60e51b81526004016106ef90613410565b3332146117f95760405162461bcd60e51b81526004016106ef90613452565b6002600054141561181c5760405162461bcd60e51b81526004016106ef906130fb565b60026000558261183e5760405162461bcd60e51b81526004016106ef90613523565b82811461185d5760405162461bcd60e51b81526004016106ef90613559565b6001600c5460009081526009602052604090205460ff16600381111561188557611885612c6a565b146118a25760405162461bcd60e51b81526004016106ef906133d7565b336000908152600d60205260409020546118ca57600c54336000908152600d60205260409020555b600c54336000908152600d602052604090205410156118f5576118f56001600c5461047a9190613220565b60006118ff610cbd565b90506000805b858110156119ca5761196d600688888481811061192457611924613051565b9050602002013587878581811061193d5761193d613051565b9050602002013588888681811061195657611956613051565b90506020020135876119689190613237565b612861565b3360009081526008602052604090206119929088888481811061192457611924613051565b8484828181106119a4576119a4613051565b90506020020135826119b69190613280565b9150806119c28161307d565b915050611905565b506119f633306119e2678ac7230489e8000085613237565b6002546001600160a01b03169291906128db565b600c54336001600160a01b03167fd7d247b583de1023852eef87b48f54354dbec771d01bc2cc49e96094efc322b983604051611a329190612af5565b60405180910390a35050600160005550505050565b33611a5a6001546001600160a01b031690565b6001600160a01b031614611a805760405162461bcd60e51b81526004016106ef90613318565b6001600160a01b038116611aa65760405162461bcd60e51b81526004016106ef9061359b565b600480546001600160a01b0319166001600160a01b0383161790556040517ff9dbce95dc1315f700e67e068c99d0807af333f0b0e29b0e453c733fcfc7e2aa90610bf2908390612c5c565b6005546001600160a01b0316336001600160a01b03161480611b1d57506001546001600160a01b031633145b611b395760405162461bcd60e51b81526004016106ef906130b9565b600c541580611b6d57506003600c5460009081526009602052604090205460ff166003811115611b6b57611b6b612c6a565b145b611b895760405162461bcd60e51b81526004016106ef906135dd565b61271060608201356040830135611ba560208501358535613280565b611baf9190613280565b611bb99190613280565b1115611bd75760405162461bcd60e51b81526004016106ef90613635565b600c8054906000611be78361307d565b90915550506040805161014081019091528060018152602001428152602001838152602001826004806020026040519081016040528092919082600460200280828437600092018290525092845250506040805160808082018352838252602082810185905282840185905260608084018690528187019390935283518083018552858152808201869052808501869052808401869052848701528351808301855285815280820186905280850186905280840186905292860192909252600a549085015260a0840183905260c0909301829052600c54825260099092522081518154829060ff19166001836003811115611ce457611ce4612c6a565b021790555060208201516001820155604082015160028201556060820151611d129060038301906004612a9a565b506080820151611d289060078301906004612a9a565b5060a0820151611d3e90600b8301906004612a9a565b5060c0820151611d5490600f8301906004612a9a565b5060e08201516013808301919091556101008301516014830155610120909201516015909101556000600a819055600c548082526009602052604091829020600181015460028201549190940154925191937f7745060911034707e68f2069481cb119df60e1d0ca97cb79d00dadfd83f7ad1393610cb193919291613645565b611ddd336111ea565b15611dfa5760405162461bcd60e51b81526004016106ef90613410565b333214611e195760405162461bcd60e51b81526004016106ef90613452565b600360008281526009602052604090205460ff166003811115611e3e57611e3e612c6a565b14611e5b5760405162461bcd60e51b81526004016106ef906136b8565b336000908152600d6020526040902054811015611e8a5760405162461bcd60e51b81526004016106ef906136fa565b336000908152600d60205260408120545b828111611f38576000611eae8233610eb3565b9050611eba8184613280565b925080600960008481526020019081526020016000206014016000828254611ee29190613220565b9091555050336000818152600f602090815260408083208684528252808320859055928252600e90529081208054839290611f1e908490613280565b90915550829150611f3090508161307d565b915050611e9b565b50611f44826001613280565b336000908152600d6020526040812091909155600b8054839290611f69908490613220565b90915550508015611f8b57600354611f8b906001600160a01b03163383612733565b81336001600160a01b03167fe75628587fccf98394f5c7b83e27a7f98b529519f8dd4fb7aa8a6093ee91afa483604051611fc59190612af5565b60405180910390a35050565b6005546001600160a01b0316336001600160a01b03161480611ffd57506001546001600160a01b031633145b6120195760405162461bcd60e51b81526004016106ef906130b9565b6002600054141561203c5760405162461bcd60e51b81526004016106ef906130fb565b6002600055612059336003546001600160a01b03169030846128db565b6001600c5460009081526009602052604090205460ff16600381111561208157612081612c6a565b14156120b657600c54600090815260096020526040812060130180548392906120ab908490613280565b909155506120ce9050565b80600a60008282546120c89190613280565b90915550505b6003546040516370a0823160e01b81526001600160a01b03909116906370a08231906120fe903090600401612c5c565b602060405180830381865afa15801561211b573d6000803e3d6000fd5b505050506040513d601f19601f8201168201806040525081019061213f9190613179565b600c54600090815260096020526040902060130154600b546121619190613280565b111561217f5760405162461bcd60e51b81526004016106ef906132bd565b600c547fd313907aae54d62a2116f9b590d5c0c5d89daceaa23cc97230f0162c8bf55c79826040516121b19190612af5565b60405180910390a2506001600055565b6060806060838511156121e65760405162461bcd60e51b81526004016106ef9061374b565b600c548411156122085760405162461bcd60e51b81526004016106ef9061378d565b600360008581526009602052604090205460ff16600381111561222d5761222d612c6a565b1461224a5760405162461bcd60e51b81526004016106ef906136b8565b60006122568686613220565b612261906001613280565b6001600160401b038111156122785761227861303b565b6040519080825280602002602001820160405280156122a1578160200160208202803683370190505b50905060006122b08787613220565b6122bb906001613280565b6001600160401b038111156122d2576122d261303b565b6040519080825280602002602001820160405280156122fb578160200160208202803683370190505b509050600061230a8888613220565b612315906001613280565b6001600160401b0381111561232c5761232c61303b565b604051908082528060200260200182016040528015612355578160200160208202803683370190505b506001600160a01b038a166000908152600d6020526040902054909150885b8881116124905780856123878c83613220565b8151811061239757612397613051565b60200260200101818152505081811015612423576001836123b88c84613220565b815181106123c8576123c8613051565b6020908102919091018101919091526001600160a01b038c166000908152600f825260408082208483529092522054846124028c84613220565b8151811061241257612412613051565b60200260200101818152505061247e565b6000836124308c84613220565b8151811061244057612440613051565b602002602001018181525050612456818c610eb3565b846124618c84613220565b8151811061247157612471613051565b6020026020010181815250505b806124888161307d565b915050612374565b5092999198509650945050505050565b336124b36001546001600160a01b031690565b6001600160a01b0316146124d95760405162461bcd60e51b81526004016106ef90613318565b6001600160a01b0381166124ff5760405162461bcd60e51b81526004016106ef906137de565b6125088161278e565b50565b60608080600061251b8787613220565b612526906001613280565b90506000816001600160401b038111156125425761254261303b565b60405190808252806020026020018201604052801561256b578160200160208202803683370190505b5090506000826001600160401b038111156125885761258861303b565b6040519080825280602002602001820160405280156125b1578160200160208202803683370190505b5090506000836001600160401b038111156125ce576125ce61303b565b6040519080825280602002602001820160405280156125f7578160200160208202803683370190505b509050895b8981116126e257600061260f828b6126f4565b9050818561261d8e83613220565b8151811061262d5761262d613051565b6020908102919091018101919091526001600160a01b038e16600090815260088252604080822084835260010190925220548461266a8e85613220565b8151811061267a5761267a613051565b6020908102919091018101919091526001600160a01b038e1660009081526008825260408082208483529092522054836126b48e85613220565b815181106126c4576126c4613051565b602090810291909101015250806126da8161307d565b9150506125fc565b50919a90995090975095505050505050565b600061270282612710613237565b61270d836001613280565b61271890600a6138fc565b612722908561390b565b61272c9190613280565b9392505050565b6127898363a9059cbb60e01b848460405160240161275292919061391f565b60408051601f198184030181529190526020810180516001600160e01b03166001600160e01b031990931692909217909152612902565b505050565b600180546001600160a01b038381166001600160a01b0319831681179093556040519116919082907f8be0079c531659141344cd1fd0a4f28419497f9722a3daafe3b4186f6b6457e090600090a35050565b60005b600481101561285a5760006127f885836126f4565b60008181526020889052604081208054929350859290919061281b908490613220565b9091555050600081815260018701602052604081208054869290612840908490613220565b9091555082915061285290508161307d565b9150506127e3565b5050505050565b60005b600481101561285a57600061287985836126f4565b60008181526020889052604081208054929350859290919061289c908490613280565b90915550506000818152600187016020526040812080548692906128c1908490613280565b909155508291506128d390508161307d565b915050612864565b6128fc846323b872dd60e01b8585856040516024016127529392919061392d565b50505050565b6000612957826040518060400160405280602081526020017f5361666545524332303a206c6f772d6c6576656c2063616c6c206661696c6564815250856001600160a01b03166129919092919063ffffffff16565b8051909150156127895780806020019051810190612975919061395b565b6127895760405162461bcd60e51b81526004016106ef906139c1565b60606129a084846000856129a8565b949350505050565b6060824710156129ca5760405162461bcd60e51b81526004016106ef90613a12565b843b6129e85760405162461bcd60e51b81526004016106ef90613a54565b600080866001600160a01b03168587604051612a049190613ab2565b60006040518083038185875af1925050503d8060008114612a41576040519150601f19603f3d011682016040523d82523d6000602084013e612a46565b606091505b5091509150612a56828286612a61565b979650505050505050565b60608315612a7057508161272c565b825115612a805782518084602001fd5b8160405162461bcd60e51b81526004016106ef9190613aee565b8260048101928215612ac8579160200282015b82811115612ac8578251825591602001919060010190612aad565b50612ad4929150612ad8565b5090565b5b80821115612ad45760008155600101612ad9565b805b82525050565b60208101610ffa8284612aed565b805b811461250857600080fd5b8035610ffa81612b03565b600060208284031215612b3057612b30600080fd5b60006129a08484612b10565b612b468282612aed565b5060200190565b60200190565b6000612b5d825190565b808452602093840193830160005b82811015612b90578151612b7f8782612b3c565b965050602082019150600101612b6b565b5093949350505050565b60808082528101612bab8187612b53565b90508181036020830152612bbf8186612b53565b90508181036040830152612bd38185612b53565b90508181036060830152612be78184612b53565b9695505050505050565b60006001600160a01b038216610ffa565b612b0581612bf1565b8035610ffa81612c02565b60008060408385031215612c2c57612c2c600080fd5b6000612c388585612c0b565b9250506020612c4985828601612b10565b9150509250929050565b612aef81612bf1565b60208101610ffa8284612c53565b634e487b7160e01b600052602160045260246000fd5b6004811061250857612508612c6a565b80612c9a81612c80565b919050565b6000610ffa82612c90565b612aef81612c9f565b60c08101612cc18289612caa565b612cce6020830188612aed565b612cdb6040830187612aed565b612ce86060830186612aed565b612cf56080830185612aed565b612a5660a0830184612aed565b600060208284031215612d1757612d17600080fd5b60006129a08484612c0b565b6000610ffa82612bf1565b6000610ffa82612d23565b612aef81612d2e565b60208101610ffa8284612d39565b60008060408385031215612d6657612d66600080fd5b6000612d728585612b10565b9250506020612c4985828601612c0b565b600080600060608486031215612d9b57612d9b600080fd5b6000612da78686612b10565b9350506020612db886828701612b10565b9250506040612dc986828701612b10565b9150509250925092565b60608082528101612de48186612b53565b90508181036020830152612df88185612b53565b90508181036040830152612e0c8184612b53565b95945050505050565b60008083601f840112612e2a57612e2a600080fd5b5081356001600160401b03811115612e4457612e44600080fd5b602083019150836020820283011115612e5f57612e5f600080fd5b9250929050565b60008060208385031215612e7c57612e7c600080fd5b82356001600160401b03811115612e9557612e95600080fd5b612ea185828601612e15565b92509250509250929050565b60808082528101612ebe8187612b53565b90508181036020830152612ed28186612b53565b90508181036040830152612ee68185612b53565b9050612e0c6060830184612aed565b60008060008060408587031215612f0e57612f0e600080fd5b84356001600160401b03811115612f2757612f27600080fd5b612f3387828801612e15565b945094505060208501356001600160401b03811115612f5457612f54600080fd5b612f6087828801612e15565b95989497509550505050565b8060808101831015610ffa57610ffa600080fd5b60008060a08385031215612f9657612f96600080fd5b6000612fa28585612b10565b9250506020612c4985828601612f6c565b600080600060608486031215612fcb57612fcb600080fd5b6000612da78686612c0b565b60008060008060808587031215612ff057612ff0600080fd5b6000612ffc8787612c0b565b945050602061300d87828801612b10565b935050604061301e87828801612b10565b925050606061302f87828801612b10565b91505092959194509250565b634e487b7160e01b600052604160045260246000fd5b634e487b7160e01b600052603260045260246000fd5b634e487b7160e01b600052601160045260246000fd5b600060001982141561309157613091613067565b5060010190565b600c8152602081016b2737ba1037b832b930ba37b960a11b81529050612b4d565b60208082528101610ffa81613098565b601f8152602081017f5265656e7472616e637947756172643a207265656e7472616e742063616c6c0081529050612b4d565b60208082528101610ffa816130c9565b60368152602081017f74686973206c6f747465727920686173206e6f7420636c6f7365642c20796f75815275081cda1bdd5b1908199a5c9cdd0818db1bdcd9481a5d60521b602082015290505b60400190565b60208082528101610ffa8161310b565b8051610ffa81612b03565b60006020828403121561318e5761318e600080fd5b60006129a0848461316e565b60238152602081017f7468652066696e616c206e756d62657220686173206e6f74206265656e20647281526230bbb760e91b60208201529050613158565b60208082528101610ffa8161319a565b63ffffffff8116612b05565b8051610ffa816131e8565b60006020828403121561321457613214600080fd5b60006129a084846131f4565b60008282101561323257613232613067565b500390565b600081600019048311821515161561325157613251613067565b500290565b634e487b7160e01b600052601260045260246000fd5b60008261327b5761327b613256565b500490565b6000821982111561329357613293613067565b500190565b60108152602081016f15dc9bdb99c81554d108185b5bdd5b9d60821b81529050612b4d565b60208082528101610ffa81613298565b604081016132db8285612aed565b61272c6020830184612aed565b60208082527f4f776e61626c653a2063616c6c6572206973206e6f7420746865206f776e65729101908152612b4d565b60208082528101610ffa816132e8565b60168152602081017543616e6e6f74206265207a65726f206164647265737360501b81529050612b4d565b60208082528101610ffa81613328565b60188152602081017f43616e6e6f74207265636f7665722044454720746f6b656e000000000000000081529050612b4d565b60208082528101610ffa81613363565b601b8152602081017f43757272656e74206c6f7474657279206973206e6f74206f70656e000000000081529050612b4d565b60208082528101610ffa816133a5565b60148152602081017310dbdb9d1c9858dd081b9bdd08185b1b1bddd95960621b81529050612b4d565b60208082528101610ffa816133e7565b601a8152602081017f50726f787920636f6e7472616374206e6f7420616c6c6f77656400000000000081529050612b4d565b60208082528101610ffa81613420565b601b8152602081017f4e6f207469636b65747320617265206265696e672072656465656d000000000081529050612b4d565b60208082528101610ffa81613462565b60228152602081017f536f7272792c2063757272656e74206c6f7474657279206973206e6f74206f7081526132b760f11b60208201529050613158565b60208082528101610ffa816134a4565b601b8152602081017f4e6f207469636b65747320617265206265696e6720626f75676874000000000081529050612b4d565b60208082528101610ffa816134f1565b601181526020810170446966666572656e74206c656e6774687360781b81529050612b4d565b60208082528101610ffa81613533565b60178152602081017f43616e206e6f74206265207a65726f206164647265737300000000000000000081529050612b4d565b60208082528101610ffa81613569565b60198152602081017f4e6f742074696d6520746f207374617274206c6f74746572790000000000000081529050612b4d565b60208082528101610ffa816135ab565b602d8152602081017f546f74616c2072657761726473206f66206561636820627261636b657420736881526c06f756c64203c3d20313030303609c1b60208201529050613158565b60208082528101610ffa816135ed565b606081016136538286612aed565b6136606020830185612aed565b6129a06040830184612aed565b60308152602081017f7468697320726f756e64206f66206c6f747465727920617265206e6f7420726581526f61647920666f7220636c61696d696e6760801b60208201529050613158565b60208082528101610ffa8161366d565b601d8152602081017f616c6c206177617264732068617665206265656e20726563656976656400000081529050612b4d565b60208082528101610ffa816136c8565b60268152602081017f456e64206c6f747465727920736d616c6c6572207468616e207374617274206c8152656f747465727960d01b60208201529050613158565b60208082528101610ffa8161370a565b601a8152602081017f456e64206c6f747465727920726f756e64206e6f74206f70656e00000000000081529050612b4d565b60208082528101610ffa8161375b565b60268152602081017f4f776e61626c653a206e6577206f776e657220697320746865207a65726f206181526564647265737360d01b60208201529050613158565b60208082528101610ffa8161379d565b80825b600185111561382d5780860481111561380c5761380c613067565b600185161561381a57908102905b80026138268560011c90565b94506137f1565b94509492505050565b6000826138455750600161272c565b816138525750600061272c565b816001811461386857600281146138725761389f565b600191505061272c565b60ff84111561388357613883613067565b8360020a91508482111561389957613899613067565b5061272c565b5060208310610133831016604e8410600b84101617156138d2575081810a838111156138cd576138cd613067565b61272c565b6138df84848460016137ee565b925090508184048111156138f5576138f5613067565b0292915050565b600061272c6000198484613836565b60008261391a5761391a613256565b500690565b604081016132db8285612c53565b6060810161393b8286612c53565b6136606020830185612c53565b801515612b05565b8051610ffa81613948565b60006020828403121561397057613970600080fd5b60006129a08484613950565b602a8152602081017f5361666545524332303a204552433230206f7065726174696f6e20646964206e8152691bdd081cdd58d8d9595960b21b60208201529050613158565b60208082528101610ffa8161397c565b60268152602081017f416464726573733a20696e73756666696369656e742062616c616e636520666f8152651c8818d85b1b60d21b60208201529050613158565b60208082528101610ffa816139d1565b601d8152602081017f416464726573733a2063616c6c20746f206e6f6e2d636f6e747261637400000081529050612b4d565b60208082528101610ffa81613a22565b60005b83811015613a7f578181015183820152602001613a67565b838111156128fc5750506000910152565b6000613a9a825190565b613aa8818560208601613a64565b9290920192915050565b610ffa8183613a90565b6000613ac6825190565b808452602084019350613add818560208601613a64565b601f01601f19169290920192915050565b6020808252810161272c8184613abc56fea2646970667358221220c64e6dba8c25ef222436bc30835f535114bc5ff076da05c7532ab6202110078764736f6c634300080a0033",
  "devdoc": {
    "kind": "dev",
    "methods": {
      "buyTickets(uint256[],uint256[])": {
        "details": "Can not be called by a smart contract",
        "params": {
          "_ticketAmounts": "array of ticket amount",
          "_ticketNumbers": "array of ticket numbers between 0 and 9999"
        }
      },
      "closeLottery()": {
        "details": "Callable only by the operator"
      },
      "constructor": {
        "details": "RandomNumberGenerator must be deployed prior to this contract",
        "params": {
          "_DEGTokenAddress": "Address of the DEG token (for buying tickets)",
          "_USDTokenAddress": "Address of the USD token (for prize distribution)",
          "_randomGeneratorAddress": "Address of the RandomGenerator contract used to work with ChainLink VRF"
        }
      },
      "drawLottery()": {
        "details": "Callable only by the operator"
      },
      "getPoolTicketsInfo(uint256,uint256,uint256)": {
        "details": "May be a huge number, avoid reading this frequently",
        "params": {
          "_position": "Which level to check (0, 1, 2, 3), use 0 to check the 4-digit number",
          "_startIndex": "Start number",
          "_stopIndex": "Stop number"
        }
      },
      "injectFunds(uint256)": {
        "details": "Callable by owner(incentive) or injector address(insurancePool income) First transfer USD and then call this function to record",
        "params": {
          "_amount": "amount to inject "
        }
      },
      "receiveRewards(uint256)": {
        "details": "Callable by users only, not contract!",
        "params": {
          "_lotteryId": "lottery id"
        }
      },
      "receiveRward(uint256,address)": {
        "params": {
          "_lotteryId": "lottery id",
          "user": "user address"
        }
      },
      "recoverWrongTokens(address,uint256)": {
        "params": {
          "_tokenAddress": "the address of the token to withdraw",
          "_tokenAmount": "token amount to withdraw"
        }
      },
      "redeemTickets(uint256[])": {
        "details": "Callable by users",
        "params": {
          "_ticketNumbers": "Array of ticket numbers"
        }
      },
      "renounceOwnership()": {
        "details": "Renouncing ownership will leave the contract without an owner,         thereby removing any functionality that is only available to the owner."
      },
      "setOperatorAddress(address)": {
        "details": "Only callable by the owner",
        "params": {
          "_operatorAddress": "address of the operator"
        }
      },
      "startLottery(uint256,uint256[4])": {
        "details": "Callable only by operator",
        "params": {
          "_endTime": "endTime of the lottery (timestamp in s)",
          "_stageProportion": "breakdown of rewards per bracket (must sum to 10,000)(100 <=> 1)"
        }
      },
      "transferOwnership(address)": {
        "details": "Can only be called by the current owner.",
        "params": {
          "newOwner": "Address of the new owner"
        }
      }
    },
    "version": 1
  },
  "userdoc": {
    "kind": "user",
    "methods": {
      "buyTickets(uint256[],uint256[])": {
        "notice": "Buy tickets for the current lottery round"
      },
      "closeLottery()": {
        "notice": "Close a lottery"
      },
      "constructor": {
        "notice": "Constructor function"
      },
      "drawLottery()": {
        "notice": "Draw the final number, calculate reward in DEG for each group,         and make this lottery claimable (need to wait for the random generator)"
      },
      "getLotteriesStageInfo(uint256)": {
        "notice": "Get lottery stage info"
      },
      "getPoolTicketsInfo(uint256,uint256,uint256)": {
        "notice": "Get pool tickets info"
      },
      "getUserTicketsInfo(address,uint256,uint256,uint256)": {
        "notice": "Get user tickets info"
      },
      "injectFunds(uint256)": {
        "notice": "Inject funds"
      },
      "owner()": {
        "notice": "Returns the address of the current owner."
      },
      "receiveRewards(uint256)": {
        "notice": "Receive all awards from lottery before lottery id"
      },
      "receiveRward(uint256,address)": {
        "notice": "Receive award from a lottery"
      },
      "recoverWrongTokens(address,uint256)": {
        "notice": "Recover wrong tokens sent to the contract, only by the owner All tokens except DEG and USD are wrong tokens"
      },
      "redeemTickets(uint256[])": {
        "notice": "Redeem tickets for all lottery"
      },
      "renounceOwnership()": {
        "notice": "Leaves the contract without owner. It will not be possible to call         `onlyOwner` functions anymore. Can only be called by the current owner."
      },
      "setOperatorAddress(address)": {
        "notice": "Set operator, treasury, and injector addresses"
      },
      "startLottery(uint256,uint256[4])": {
        "notice": "Start the lottery"
      },
      "transferOwnership(address)": {
        "notice": "Transfers ownership of the contract to a new account (`newOwner`)."
      }
    },
    "version": 1
  },
  "storageLayout": {
    "storage": [
      {
        "astId": 2508,
        "contract": "contracts/lucky-box/DegisLottery.sol:DegisLottery",
        "label": "_status",
        "offset": 0,
        "slot": "0",
        "type": "t_uint256"
      },
      {
        "astId": 22670,
        "contract": "contracts/lucky-box/DegisLottery.sol:DegisLottery",
        "label": "_owner",
        "offset": 0,
        "slot": "1",
        "type": "t_address"
      },
      {
        "astId": 9397,
        "contract": "contracts/lucky-box/DegisLottery.sol:DegisLottery",
        "label": "DEGToken",
        "offset": 0,
        "slot": "2",
        "type": "t_contract(IERC20)3161"
      },
      {
        "astId": 9400,
        "contract": "contracts/lucky-box/DegisLottery.sol:DegisLottery",
        "label": "USDToken",
        "offset": 0,
        "slot": "3",
        "type": "t_contract(IERC20)3161"
      },
      {
        "astId": 9403,
        "contract": "contracts/lucky-box/DegisLottery.sol:DegisLottery",
        "label": "randomGenerator",
        "offset": 0,
        "slot": "4",
        "type": "t_contract(IRandomNumberGenerator)11936"
      },
      {
        "astId": 9405,
        "contract": "contracts/lucky-box/DegisLottery.sol:DegisLottery",
        "label": "operatorAddress",
        "offset": 0,
        "slot": "5",
        "type": "t_address"
      },
      {
        "astId": 9420,
        "contract": "contracts/lucky-box/DegisLottery.sol:DegisLottery",
        "label": "poolTickets",
        "offset": 0,
        "slot": "6",
        "type": "t_struct(Tickets)9417_storage"
      },
      {
        "astId": 9425,
        "contract": "contracts/lucky-box/DegisLottery.sol:DegisLottery",
        "label": "usersTickets",
        "offset": 0,
        "slot": "8",
        "type": "t_mapping(t_address,t_struct(Tickets)9417_storage)"
      },
      {
        "astId": 9465,
        "contract": "contracts/lucky-box/DegisLottery.sol:DegisLottery",
        "label": "lotteries",
        "offset": 0,
        "slot": "9",
        "type": "t_mapping(t_uint256,t_struct(LotteryInfo)9460_storage)"
      },
      {
        "astId": 9467,
        "contract": "contracts/lucky-box/DegisLottery.sol:DegisLottery",
        "label": "RewardsToNextLottery",
        "offset": 0,
        "slot": "10",
        "type": "t_uint256"
      },
      {
        "astId": 9469,
        "contract": "contracts/lucky-box/DegisLottery.sol:DegisLottery",
        "label": "allPendingRewards",
        "offset": 0,
        "slot": "11",
        "type": "t_uint256"
      },
      {
        "astId": 9471,
        "contract": "contracts/lucky-box/DegisLottery.sol:DegisLottery",
        "label": "currentLotteryId",
        "offset": 0,
        "slot": "12",
        "type": "t_uint256"
      },
      {
        "astId": 9475,
        "contract": "contracts/lucky-box/DegisLottery.sol:DegisLottery",
        "label": "userCheckPoint",
        "offset": 0,
        "slot": "13",
        "type": "t_mapping(t_address,t_uint256)"
      },
      {
        "astId": 9479,
        "contract": "contracts/lucky-box/DegisLottery.sol:DegisLottery",
        "label": "usersTotalRewards",
        "offset": 0,
        "slot": "14",
        "type": "t_mapping(t_address,t_uint256)"
      },
      {
        "astId": 9485,
        "contract": "contracts/lucky-box/DegisLottery.sol:DegisLottery",
        "label": "usersRewards",
        "offset": 0,
        "slot": "15",
        "type": "t_mapping(t_address,t_mapping(t_uint256,t_uint256))"
      }
    ],
    "types": {
      "t_address": {
        "encoding": "inplace",
        "label": "address",
        "numberOfBytes": "20"
      },
      "t_array(t_uint256)4_storage": {
        "base": "t_uint256",
        "encoding": "inplace",
        "label": "uint256[4]",
        "numberOfBytes": "128"
      },
      "t_contract(IERC20)3161": {
        "encoding": "inplace",
        "label": "contract IERC20",
        "numberOfBytes": "20"
      },
      "t_contract(IRandomNumberGenerator)11936": {
        "encoding": "inplace",
        "label": "contract IRandomNumberGenerator",
        "numberOfBytes": "20"
      },
      "t_enum(Status)9430": {
        "encoding": "inplace",
        "label": "enum DegisLottery.Status",
        "numberOfBytes": "1"
      },
      "t_mapping(t_address,t_mapping(t_uint256,t_uint256))": {
        "encoding": "mapping",
        "key": "t_address",
        "label": "mapping(address => mapping(uint256 => uint256))",
        "numberOfBytes": "32",
        "value": "t_mapping(t_uint256,t_uint256)"
      },
      "t_mapping(t_address,t_struct(Tickets)9417_storage)": {
        "encoding": "mapping",
        "key": "t_address",
        "label": "mapping(address => struct DegisLottery.Tickets)",
        "numberOfBytes": "32",
        "value": "t_struct(Tickets)9417_storage"
      },
      "t_mapping(t_address,t_uint256)": {
        "encoding": "mapping",
        "key": "t_address",
        "label": "mapping(address => uint256)",
        "numberOfBytes": "32",
        "value": "t_uint256"
      },
      "t_mapping(t_uint256,t_struct(LotteryInfo)9460_storage)": {
        "encoding": "mapping",
        "key": "t_uint256",
        "label": "mapping(uint256 => struct DegisLottery.LotteryInfo)",
        "numberOfBytes": "32",
        "value": "t_struct(LotteryInfo)9460_storage"
      },
      "t_mapping(t_uint256,t_uint256)": {
        "encoding": "mapping",
        "key": "t_uint256",
        "label": "mapping(uint256 => uint256)",
        "numberOfBytes": "32",
        "value": "t_uint256"
      },
      "t_struct(LotteryInfo)9460_storage": {
        "encoding": "inplace",
        "label": "struct DegisLottery.LotteryInfo",
        "members": [
          {
            "astId": 9433,
            "contract": "contracts/lucky-box/DegisLottery.sol:DegisLottery",
            "label": "status",
            "offset": 0,
            "slot": "0",
            "type": "t_enum(Status)9430"
          },
          {
            "astId": 9435,
            "contract": "contracts/lucky-box/DegisLottery.sol:DegisLottery",
            "label": "startTime",
            "offset": 0,
            "slot": "1",
            "type": "t_uint256"
          },
          {
            "astId": 9437,
            "contract": "contracts/lucky-box/DegisLottery.sol:DegisLottery",
            "label": "endTime",
            "offset": 0,
            "slot": "2",
            "type": "t_uint256"
          },
          {
            "astId": 9441,
            "contract": "contracts/lucky-box/DegisLottery.sol:DegisLottery",
            "label": "stageProportion",
            "offset": 0,
            "slot": "3",
            "type": "t_array(t_uint256)4_storage"
          },
          {
            "astId": 9445,
            "contract": "contracts/lucky-box/DegisLottery.sol:DegisLottery",
            "label": "stageReward",
            "offset": 0,
            "slot": "7",
            "type": "t_array(t_uint256)4_storage"
          },
          {
            "astId": 9449,
            "contract": "contracts/lucky-box/DegisLottery.sol:DegisLottery",
            "label": "stageAmount",
            "offset": 0,
            "slot": "11",
            "type": "t_array(t_uint256)4_storage"
          },
          {
            "astId": 9453,
            "contract": "contracts/lucky-box/DegisLottery.sol:DegisLottery",
            "label": "stageWeight",
            "offset": 0,
            "slot": "15",
            "type": "t_array(t_uint256)4_storage"
          },
          {
            "astId": 9455,
            "contract": "contracts/lucky-box/DegisLottery.sol:DegisLottery",
            "label": "totalRewards",
            "offset": 0,
            "slot": "19",
            "type": "t_uint256"
          },
          {
            "astId": 9457,
            "contract": "contracts/lucky-box/DegisLottery.sol:DegisLottery",
            "label": "pendingRewards",
            "offset": 0,
            "slot": "20",
            "type": "t_uint256"
          },
          {
            "astId": 9459,
            "contract": "contracts/lucky-box/DegisLottery.sol:DegisLottery",
            "label": "finalNumber",
            "offset": 0,
            "slot": "21",
            "type": "t_uint256"
          }
        ],
        "numberOfBytes": "704"
      },
      "t_struct(Tickets)9417_storage": {
        "encoding": "inplace",
        "label": "struct DegisLottery.Tickets",
        "members": [
          {
            "astId": 9412,
            "contract": "contracts/lucky-box/DegisLottery.sol:DegisLottery",
            "label": "ticketsWeight",
            "offset": 0,
            "slot": "0",
            "type": "t_mapping(t_uint256,t_uint256)"
          },
          {
            "astId": 9416,
            "contract": "contracts/lucky-box/DegisLottery.sol:DegisLottery",
            "label": "ticketsAmount",
            "offset": 0,
            "slot": "1",
            "type": "t_mapping(t_uint256,t_uint256)"
          }
        ],
        "numberOfBytes": "64"
      },
      "t_uint256": {
        "encoding": "inplace",
        "label": "uint256",
        "numberOfBytes": "32"
      }
    }
  }
}