{
  "address": "0xB64E690ed05034fE3188103656a8Ea180c2F2c9C",
  "abi": [
    {
      "anonymous": false,
      "inputs": [
        {
          "indexed": false,
          "internalType": "address",
          "name": "token",
          "type": "address"
        },
        {
          "indexed": false,
          "internalType": "uint256",
          "name": "amount",
          "type": "uint256"
        }
      ],
      "name": "AdminTokenRecovery",
      "type": "event"
    },
    {
      "anonymous": false,
      "inputs": [
        {
          "indexed": true,
          "internalType": "uint256",
          "name": "lotteryId",
          "type": "uint256"
        }
      ],
      "name": "LotteryClose",
      "type": "event"
    },
    {
      "anonymous": false,
      "inputs": [
        {
          "indexed": true,
          "internalType": "uint256",
          "name": "lotteryId",
          "type": "uint256"
        },
        {
          "indexed": false,
          "internalType": "uint256",
          "name": "injectedAmount",
          "type": "uint256"
        }
      ],
      "name": "LotteryInjection",
      "type": "event"
    },
    {
      "anonymous": false,
      "inputs": [
        {
          "indexed": true,
          "internalType": "uint256",
          "name": "lotteryId",
          "type": "uint256"
        },
        {
          "indexed": false,
          "internalType": "uint256",
          "name": "finalNumber",
          "type": "uint256"
        },
        {
          "indexed": false,
          "internalType": "uint256",
          "name": "countWinningTickets",
          "type": "uint256"
        }
      ],
      "name": "LotteryNumberDrawn",
      "type": "event"
    },
    {
      "anonymous": false,
      "inputs": [
        {
          "indexed": true,
          "internalType": "uint256",
          "name": "lotteryId",
          "type": "uint256"
        },
        {
          "indexed": false,
          "internalType": "uint256",
          "name": "startTime",
          "type": "uint256"
        },
        {
          "indexed": false,
          "internalType": "uint256",
          "name": "endTime",
          "type": "uint256"
        },
        {
          "indexed": false,
          "internalType": "uint256",
          "name": "priceTicketInDegis",
          "type": "uint256"
        },
        {
          "indexed": false,
          "internalType": "uint256[4]",
          "name": "rewardsBreakdown",
          "type": "uint256[4]"
        },
        {
          "indexed": false,
          "internalType": "uint256",
          "name": "injectedAmount",
          "type": "uint256"
        }
      ],
      "name": "LotteryOpen",
      "type": "event"
    },
    {
      "anonymous": false,
      "inputs": [
        {
          "indexed": false,
          "internalType": "uint256",
          "name": "oldMaxNumber",
          "type": "uint256"
        },
        {
          "indexed": false,
          "internalType": "uint256",
          "name": "newMaxNumber",
          "type": "uint256"
        }
      ],
      "name": "MaxNumberTicketsEachTimeChanged",
      "type": "event"
    },
    {
      "anonymous": false,
      "inputs": [
        {
          "indexed": true,
          "internalType": "address",
          "name": "randomGenerator",
          "type": "address"
        }
      ],
      "name": "NewRandomGenerator",
      "type": "event"
    },
    {
      "anonymous": false,
      "inputs": [
        {
          "indexed": true,
          "internalType": "address",
          "name": "previousOwner",
          "type": "address"
        },
        {
          "indexed": true,
          "internalType": "address",
          "name": "newOwner",
          "type": "address"
        }
      ],
      "name": "OwnershipTransferred",
      "type": "event"
    },
    {
      "anonymous": false,
      "inputs": [
        {
          "indexed": true,
          "internalType": "address",
          "name": "claimer",
          "type": "address"
        },
        {
          "indexed": false,
          "internalType": "uint256",
          "name": "amount",
          "type": "uint256"
        },
        {
          "indexed": true,
          "internalType": "uint256",
          "name": "lotteryId",
          "type": "uint256"
        }
      ],
      "name": "TicketsClaim",
      "type": "event"
    },
    {
      "anonymous": false,
      "inputs": [
        {
          "indexed": true,
          "internalType": "address",
          "name": "buyer",
          "type": "address"
        },
        {
          "indexed": true,
          "internalType": "uint256",
          "name": "lotteryId",
          "type": "uint256"
        },
        {
          "indexed": false,
          "internalType": "uint256",
          "name": "number",
          "type": "uint256"
        },
        {
          "indexed": false,
          "internalType": "uint256",
          "name": "totalPrice",
          "type": "uint256"
        }
      ],
      "name": "TicketsPurchased",
      "type": "event"
    },
    {
      "anonymous": false,
      "inputs": [
        {
          "indexed": false,
          "internalType": "address",
          "name": "oldTreasury",
          "type": "address"
        },
        {
          "indexed": false,
          "internalType": "address",
          "name": "newTreasury",
          "type": "address"
        }
      ],
      "name": "TreasuryChanged",
      "type": "event"
    },
    {
      "inputs": [],
      "name": "DEFAULT_PRICE",
      "outputs": [
        {
          "internalType": "uint256",
          "name": "",
          "type": "uint256"
        }
      ],
      "stateMutability": "view",
      "type": "function"
    },
    {
      "inputs": [],
      "name": "DISCOUNT_DIVISOR",
      "outputs": [
        {
          "internalType": "uint256",
          "name": "",
          "type": "uint256"
        }
      ],
      "stateMutability": "view",
      "type": "function"
    },
    {
      "inputs": [],
      "name": "DegisToken",
      "outputs": [
        {
          "internalType": "contract IERC20",
          "name": "",
          "type": "address"
        }
      ],
      "stateMutability": "view",
      "type": "function"
    },
    {
      "inputs": [],
      "name": "MAX_TICKET_NUMBER",
      "outputs": [
        {
          "internalType": "uint32",
          "name": "",
          "type": "uint32"
        }
      ],
      "stateMutability": "view",
      "type": "function"
    },
    {
      "inputs": [],
      "name": "MAX_TREASURY_FEE",
      "outputs": [
        {
          "internalType": "uint256",
          "name": "",
          "type": "uint256"
        }
      ],
      "stateMutability": "view",
      "type": "function"
    },
    {
      "inputs": [],
      "name": "MIN_TICKET_NUMBER",
      "outputs": [
        {
          "internalType": "uint32",
          "name": "",
          "type": "uint32"
        }
      ],
      "stateMutability": "view",
      "type": "function"
    },
    {
      "inputs": [
        {
          "internalType": "uint32",
          "name": "",
          "type": "uint32"
        }
      ],
      "name": "_bracketCalculator",
      "outputs": [
        {
          "internalType": "uint32",
          "name": "",
          "type": "uint32"
        }
      ],
      "stateMutability": "view",
      "type": "function"
    },
    {
      "inputs": [
        {
          "internalType": "uint256",
          "name": "",
          "type": "uint256"
        },
        {
          "internalType": "uint32",
          "name": "",
          "type": "uint32"
        }
      ],
      "name": "_numberTicketsPerLotteryId",
      "outputs": [
        {
          "internalType": "uint256",
          "name": "",
          "type": "uint256"
        }
      ],
      "stateMutability": "view",
      "type": "function"
    },
    {
      "inputs": [
        {
          "internalType": "uint256",
          "name": "_number",
          "type": "uint256"
        }
      ],
      "name": "_reverseTicketNumber",
      "outputs": [
        {
          "internalType": "uint32",
          "name": "",
          "type": "uint32"
        }
      ],
      "stateMutability": "pure",
      "type": "function"
    },
    {
      "inputs": [
        {
          "internalType": "address",
          "name": "",
          "type": "address"
        },
        {
          "internalType": "uint256",
          "name": "",
          "type": "uint256"
        },
        {
          "internalType": "uint256",
          "name": "",
          "type": "uint256"
        }
      ],
      "name": "_userTicketIds",
      "outputs": [
        {
          "internalType": "uint256",
          "name": "",
          "type": "uint256"
        }
      ],
      "stateMutability": "view",
      "type": "function"
    },
    {
      "inputs": [
        {
          "internalType": "uint32[]",
          "name": "_ticketNumbers",
          "type": "uint32[]"
        }
      ],
      "name": "buyTickets",
      "outputs": [],
      "stateMutability": "nonpayable",
      "type": "function"
    },
    {
      "inputs": [
        {
          "internalType": "address",
          "name": "_randomGeneratorAddress",
          "type": "address"
        }
      ],
      "name": "changeRandomGenerator",
      "outputs": [],
      "stateMutability": "nonpayable",
      "type": "function"
    },
    {
      "inputs": [
        {
          "internalType": "uint256",
          "name": "_lotteryId",
          "type": "uint256"
        }
      ],
      "name": "claimAllTickets",
      "outputs": [],
      "stateMutability": "nonpayable",
      "type": "function"
    },
    {
      "inputs": [
        {
          "internalType": "uint256",
          "name": "_lotteryId",
          "type": "uint256"
        },
        {
          "internalType": "uint256[]",
          "name": "_ticketIds",
          "type": "uint256[]"
        },
        {
          "internalType": "uint32[]",
          "name": "_brackets",
          "type": "uint32[]"
        }
      ],
      "name": "claimTickets",
      "outputs": [],
      "stateMutability": "nonpayable",
      "type": "function"
    },
    {
      "inputs": [
        {
          "internalType": "uint256",
          "name": "_lotteryId",
          "type": "uint256"
        }
      ],
      "name": "closeLottery",
      "outputs": [],
      "stateMutability": "nonpayable",
      "type": "function"
    },
    {
      "inputs": [],
      "name": "currentLotteryId",
      "outputs": [
        {
          "internalType": "uint256",
          "name": "",
          "type": "uint256"
        }
      ],
      "stateMutability": "view",
      "type": "function"
    },
    {
      "inputs": [],
      "name": "currentTicketId",
      "outputs": [
        {
          "internalType": "uint256",
          "name": "",
          "type": "uint256"
        }
      ],
      "stateMutability": "view",
      "type": "function"
    },
    {
      "inputs": [
        {
          "internalType": "uint256",
          "name": "_lotteryId",
          "type": "uint256"
        },
        {
          "internalType": "bool",
          "name": "_autoInjection",
          "type": "bool"
        }
      ],
      "name": "drawFinalNumberAndMakeLotteryClaimable",
      "outputs": [],
      "stateMutability": "nonpayable",
      "type": "function"
    },
    {
      "inputs": [
        {
          "internalType": "address",
          "name": "_degis",
          "type": "address"
        },
        {
          "internalType": "address",
          "name": "_randomGenerator",
          "type": "address"
        }
      ],
      "name": "initialize",
      "outputs": [],
      "stateMutability": "nonpayable",
      "type": "function"
    },
    {
      "inputs": [
        {
          "internalType": "uint256",
          "name": "_amount",
          "type": "uint256"
        }
      ],
      "name": "injectFunds",
      "outputs": [],
      "stateMutability": "nonpayable",
      "type": "function"
    },
    {
      "inputs": [
        {
          "internalType": "uint256",
          "name": "",
          "type": "uint256"
        }
      ],
      "name": "lotteries",
      "outputs": [
        {
          "internalType": "enum DegisLotteryV2.Status",
          "name": "status",
          "type": "uint8"
        },
        {
          "internalType": "uint8",
          "name": "treasuryFee",
          "type": "uint8"
        },
        {
          "internalType": "uint32",
          "name": "startTime",
          "type": "uint32"
        },
        {
          "internalType": "uint32",
          "name": "endTime",
          "type": "uint32"
        },
        {
          "internalType": "uint32",
          "name": "finalNumber",
          "type": "uint32"
        },
        {
          "internalType": "uint256",
          "name": "ticketPrice",
          "type": "uint256"
        },
        {
          "internalType": "uint256",
          "name": "firstTicketId",
          "type": "uint256"
        },
        {
          "internalType": "uint256",
          "name": "firstTicketIdNextRound",
          "type": "uint256"
        },
        {
          "internalType": "uint256",
          "name": "amountCollected",
          "type": "uint256"
        },
        {
          "internalType": "uint256",
          "name": "pendingRewards",
          "type": "uint256"
        }
      ],
      "stateMutability": "view",
      "type": "function"
    },
    {
      "inputs": [],
      "name": "maxNumberTicketsEachTime",
      "outputs": [
        {
          "internalType": "uint256",
          "name": "",
          "type": "uint256"
        }
      ],
      "stateMutability": "view",
      "type": "function"
    },
    {
      "inputs": [],
      "name": "owner",
      "outputs": [
        {
          "internalType": "address",
          "name": "",
          "type": "address"
        }
      ],
      "stateMutability": "view",
      "type": "function"
    },
    {
      "inputs": [],
      "name": "pendingInjectionNextLottery",
      "outputs": [
        {
          "internalType": "uint256",
          "name": "",
          "type": "uint256"
        }
      ],
      "stateMutability": "view",
      "type": "function"
    },
    {
      "inputs": [],
      "name": "randomGenerator",
      "outputs": [
        {
          "internalType": "contract IRandomNumberGenerator",
          "name": "",
          "type": "address"
        }
      ],
      "stateMutability": "view",
      "type": "function"
    },
    {
      "inputs": [
        {
          "internalType": "address",
          "name": "_tokenAddress",
          "type": "address"
        },
        {
          "internalType": "uint256",
          "name": "_tokenAmount",
          "type": "uint256"
        }
      ],
      "name": "recoverWrongTokens",
      "outputs": [],
      "stateMutability": "nonpayable",
      "type": "function"
    },
    {
      "inputs": [],
      "name": "renounceOwnership",
      "outputs": [],
      "stateMutability": "nonpayable",
      "type": "function"
    },
    {
      "inputs": [
        {
          "internalType": "uint256",
          "name": "_maxNumber",
          "type": "uint256"
        }
      ],
      "name": "setMaxNumberTicketsEachTime",
      "outputs": [],
      "stateMutability": "nonpayable",
      "type": "function"
    },
    {
      "inputs": [
        {
          "internalType": "address",
          "name": "_treasury",
          "type": "address"
        }
      ],
      "name": "setTreasury",
      "outputs": [],
      "stateMutability": "nonpayable",
      "type": "function"
    },
    {
      "inputs": [
        {
          "internalType": "uint256",
          "name": "_endTime",
          "type": "uint256"
        },
        {
          "internalType": "uint256",
          "name": "_ticketPrice",
          "type": "uint256"
        },
        {
          "internalType": "uint256[4]",
          "name": "_rewardsBreakdown",
          "type": "uint256[4]"
        },
        {
          "internalType": "uint256",
          "name": "_fee",
          "type": "uint256"
        }
      ],
      "name": "startLottery",
      "outputs": [],
      "stateMutability": "nonpayable",
      "type": "function"
    },
    {
      "inputs": [
        {
          "internalType": "uint256",
          "name": "",
          "type": "uint256"
        }
      ],
      "name": "tickets",
      "outputs": [
        {
          "internalType": "uint32",
          "name": "number",
          "type": "uint32"
        },
        {
          "internalType": "address",
          "name": "owner",
          "type": "address"
        }
      ],
      "stateMutability": "view",
      "type": "function"
    },
    {
      "inputs": [
        {
          "internalType": "address",
          "name": "newOwner",
          "type": "address"
        }
      ],
      "name": "transferOwnership",
      "outputs": [],
      "stateMutability": "nonpayable",
      "type": "function"
    },
    {
      "inputs": [],
      "name": "treasury",
      "outputs": [
        {
          "internalType": "address",
          "name": "",
          "type": "address"
        }
      ],
      "stateMutability": "view",
      "type": "function"
    },
    {
      "inputs": [
        {
          "internalType": "uint256",
          "name": "_startId",
          "type": "uint256"
        },
        {
          "internalType": "uint256",
          "name": "_endId",
          "type": "uint256"
        }
      ],
      "name": "viewAllLottery",
      "outputs": [
        {
          "components": [
            {
              "internalType": "enum DegisLotteryV2.Status",
              "name": "status",
              "type": "uint8"
            },
            {
              "internalType": "uint8",
              "name": "treasuryFee",
              "type": "uint8"
            },
            {
              "internalType": "uint32",
              "name": "startTime",
              "type": "uint32"
            },
            {
              "internalType": "uint32",
              "name": "endTime",
              "type": "uint32"
            },
            {
              "internalType": "uint32",
              "name": "finalNumber",
              "type": "uint32"
            },
            {
              "internalType": "uint256",
              "name": "ticketPrice",
              "type": "uint256"
            },
            {
              "internalType": "uint256[4]",
              "name": "rewardsBreakdown",
              "type": "uint256[4]"
            },
            {
              "internalType": "uint256[4]",
              "name": "rewardPerTicketInBracket",
              "type": "uint256[4]"
            },
            {
              "internalType": "uint256[4]",
              "name": "countWinnersPerBracket",
              "type": "uint256[4]"
            },
            {
              "internalType": "uint256",
              "name": "firstTicketId",
              "type": "uint256"
            },
            {
              "internalType": "uint256",
              "name": "firstTicketIdNextRound",
              "type": "uint256"
            },
            {
              "internalType": "uint256",
              "name": "amountCollected",
              "type": "uint256"
            },
            {
              "internalType": "uint256",
              "name": "pendingRewards",
              "type": "uint256"
            }
          ],
          "internalType": "struct DegisLotteryV2.Lottery[]",
          "name": "",
          "type": "tuple[]"
        }
      ],
      "stateMutability": "view",
      "type": "function"
    },
    {
      "inputs": [
        {
          "internalType": "uint256[]",
          "name": "_ticketIds",
          "type": "uint256[]"
        }
      ],
      "name": "viewNumbersPerTicketId",
      "outputs": [
        {
          "internalType": "uint32[]",
          "name": "",
          "type": "uint32[]"
        }
      ],
      "stateMutability": "view",
      "type": "function"
    },
    {
      "inputs": [
        {
          "internalType": "uint256",
          "name": "_lotteryId",
          "type": "uint256"
        }
      ],
      "name": "viewRewardPerTicketInBracket",
      "outputs": [
        {
          "internalType": "uint256[4]",
          "name": "",
          "type": "uint256[4]"
        }
      ],
      "stateMutability": "view",
      "type": "function"
    },
    {
      "inputs": [
        {
          "internalType": "uint256",
          "name": "_lotteryId",
          "type": "uint256"
        }
      ],
      "name": "viewRewardsBreakdown",
      "outputs": [
        {
          "internalType": "uint256[4]",
          "name": "",
          "type": "uint256[4]"
        }
      ],
      "stateMutability": "view",
      "type": "function"
    },
    {
      "inputs": [
        {
          "internalType": "uint256",
          "name": "_lotteryId",
          "type": "uint256"
        },
        {
          "internalType": "uint256",
          "name": "_ticketId",
          "type": "uint256"
        }
      ],
      "name": "viewRewardsForTicketId",
      "outputs": [
        {
          "internalType": "uint256",
          "name": "",
          "type": "uint256"
        }
      ],
      "stateMutability": "view",
      "type": "function"
    },
    {
      "inputs": [
        {
          "internalType": "address",
          "name": "_user",
          "type": "address"
        },
        {
          "internalType": "uint256",
          "name": "_startRound",
          "type": "uint256"
        },
        {
          "internalType": "uint256",
          "name": "_endRound",
          "type": "uint256"
        }
      ],
      "name": "viewUserRewards",
      "outputs": [
        {
          "internalType": "uint256[]",
          "name": "userRewards",
          "type": "uint256[]"
        }
      ],
      "stateMutability": "view",
      "type": "function"
    },
    {
      "inputs": [
        {
          "internalType": "address",
          "name": "_wallet",
          "type": "address"
        },
        {
          "internalType": "uint256",
          "name": "_lotteryId",
          "type": "uint256"
        }
      ],
      "name": "viewWalletTicketIds",
      "outputs": [
        {
          "internalType": "uint256[]",
          "name": "",
          "type": "uint256[]"
        }
      ],
      "stateMutability": "view",
      "type": "function"
    },
    {
      "inputs": [
        {
          "internalType": "uint256",
          "name": "_lotteryId",
          "type": "uint256"
        }
      ],
      "name": "viewWinnerAmount",
      "outputs": [
        {
          "internalType": "uint256[4]",
          "name": "",
          "type": "uint256[4]"
        }
      ],
      "stateMutability": "view",
      "type": "function"
    }
  ],
  "transactionHash": "0x831d2dcaada273646b279ae322fbf19507c47ee359ed81bf08440ce83b052a35",
  "args": [],
  "numDeployments": 10,
  "solcInputHash": "f2d9510ad0b7f1a5e0028cec71247632",
  "bytecode": "0x608060405234801561001057600080fd5b506141e6806100206000396000f3fe608060405234801561001057600080fd5b50600436106102d35760003560e01c80636be4097c11610186578063b46e130e116100e3578063dcbad90d11610097578063f0f4426011610071578063f0f442601461069e578063f2b3c809146106b1578063f2fde38b146106ba57600080fd5b8063dcbad90d14610665578063e1059fe514610678578063e359ebec1461068b57600080fd5b8063c38de539116100c8578063c38de5391461062c578063c6e761a91461063f578063c914914f1461065257600080fd5b8063b46e130e146105e6578063b5877b221461060c57600080fd5b80638da5cb5b1161013a57806398359fa11161011f57806398359fa1146105ad5780639d8ca531146105c0578063b3e3649b146105d357600080fd5b80638da5cb5b1461057c578063972fe6831461058d57600080fd5b8063715018a61161016b578063715018a6146105405780637250e45d146105485780637741879b1461055157600080fd5b80636be4097c146105245780636fa053eb1461052d57600080fd5b806344848a991161023457806361d027b3116101e857806365dc59d6116101cd57806365dc59d6146104e8578063686465b8146105085780636bcac0ff1461051157600080fd5b806361d027b3146104c0578063656f8a25146104e057600080fd5b806350b447121161021957806350b44712146104465780635745464b1461048d5780635b0d64c2146104a057600080fd5b806344848a9914610420578063485cc9551461043357600080fd5b80631e6425fd1161028b57806326df6c271161027057806326df6c27146103da5780633732b4ee146103ed5780633f138d4b1461040d57600080fd5b80631e6425fd146103b25780632149485d146103c757600080fd5b80631398e076116102bc5780631398e0761461030057806314a0792f1461038d5780631b6c743b146103a357600080fd5b80630ab2b086146102d857806312a9769d146102f7575b600080fd5b6102e1609c5481565b6040516102ee9190612d08565b60405180910390f35b6102e1609d5481565b61037761030e366004612d2e565b609e60205260009081526040902080546001820154600e830154600f840154601085015460119095015460ff8086169661010087049091169563ffffffff62010000820481169666010000000000008304821696600160501b909304909116949093919290918a565b6040516102ee9a99989796959493929190612dad565b61039661271081565b6040516102ee9190612e42565b6102e1678ac7230489e8000081565b6103c56103c0366004612d2e565b6106cd565b005b6102e16103d5366004612e50565b610740565b6102e16103e8366004612eb2565b6107d3565b6104006103fb366004612d2e565b610811565b6040516102ee9190612f4b565b6103c561041b366004612f59565b610860565b6103c561042e366004612d2e565b610967565b6103c5610441366004612f7b565b610c06565b61047f610454366004612d2e565b609f6020526000908152604090205463ffffffff81169064010000000090046001600160a01b031682565b6040516102ee929190612fb7565b61039661049b366004612d2e565b610d8d565b6104b36104ae366004613024565b610dfc565b6040516102ee91906130bd565b6099546104d3906001600160a01b031681565b6040516102ee91906130ce565b6102e1606281565b6097546104fb906001600160a01b031681565b6040516102ee919061311e565b6102e1609b5481565b61040061051f366004612d2e565b610ed2565b6102e1609a5481565b61040061053b366004612d2e565b610f20565b6103c5610f6e565b610396614e1f81565b6102e161055f366004613143565b60a060209081526000928352604080842090915290825290205481565b6065546001600160a01b03166104d3565b6105a061059b366004612e50565b610fa4565b6040516102ee91906132eb565b6103c56105bb3660046132fc565b6111c5565b6103c56105ce366004612d2e565b611341565b6103c56105e1366004613331565b611484565b6103966105f4366004613395565b60a26020526000908152604090205463ffffffff1681565b61061f61061a366004612eb2565b611680565b6040516102ee91906133f3565b6103c561063a366004613417565b6118b5565b61061f61064d366004612f59565b611e1a565b6103c561066036600461344a565b611e8f565b6098546104fb906001600160a01b031681565b6103c5610686366004613024565b612268565b6103c5610699366004612d2e565b612690565b6103c56106ac3660046132fc565b6127af565b6102e1610bb881565b6103c56106c83660046132fc565b61284f565b6065546001600160a01b031633146107005760405162461bcd60e51b81526004016106f79061350a565b60405180910390fd5b7f67d06ff5b9d79811174a2f0df6d9be98aa3b3f9ae311716140cb1b0668c11843609c548260405161073392919061351a565b60405180910390a1609c55565b600060036000848152609e602052604090205460ff16600381111561076757610767612d4f565b14610774575060006107cd565b6000838152609e60205260409020600f01548211806107a357506000838152609e60205260409020600e015482105b156107b0575060006107cd565b60006107bc84846128ab565b90506107c9848483612959565b9150505b92915050565b60a160205282600052604060002060205281600052604060002081815481106107fb57600080fd5b9060005260206000200160009250925050505481565b610819612c14565b6000828152609e60205260409081902081516080810190925260020160048282826020028201915b8154815260200190600101908083116108415750505050509050919050565b6065546001600160a01b0316331461088a5760405162461bcd60e51b81526004016106f79061350a565b6097546001600160a01b03908116908316036108b85760405162461bcd60e51b81526004016106f790613567565b60405163a9059cbb60e01b81526001600160a01b0383169063a9059cbb906108e69033908590600401613577565b6020604051808303816000875af1158015610905573d6000803e3d6000fd5b505050506040513d601f19601f820116820180604052508101906109299190613590565b507f74545154aac348a3eac92596bd1971957ca94795f4e954ec5f613b55fab78129828260405161095b929190613577565b60405180910390a15050565b333b156109865760405162461bcd60e51b81526004016106f7906135e3565b3332146109a55760405162461bcd60e51b81526004016106f790613625565b6002600154036109c75760405162461bcd60e51b81526004016106f790613667565b600260015560036000828152609e602052604090205460ff1660038111156109f1576109f1612d4f565b14610a0e5760405162461bcd60e51b81526004016106f7906136a9565b33600090815260a160209081526040808320848452909152812054815b81811015610b245733600090815260a1602090815260408083208784529091528120805483908110610a5f57610a5f6136b9565b600091825260208083209190910154808352609f90915260409091205490915064010000000090046001600160a01b03163314610aae5760405162461bcd60e51b81526004016106f790613701565b6000818152609f6020526040812080547fffffffffffffffff0000000000000000000000000000000000000000ffffffff169055610aec86836128ab565b905060048163ffffffff161015610b1a576000610b0a878484612959565b9050610b168187613727565b9550505b5050600101610a2b565b5060975460405163a9059cbb60e01b81526001600160a01b039091169063a9059cbb90610b579033908690600401613577565b6020604051808303816000875af1158015610b76573d6000803e3d6000fd5b505050506040513d601f19601f82011682018060405250810190610b9a9190613590565b506000838152609e602052604081206011018054849290610bbc90849061373f565b9091555050604051839033907f0fdeb33b5931b477077383757e0ba077bd3d8eddfa2cc711c54ad2d3a0cfac6590610bf5908690612d08565b60405180910390a350506001805550565b600054610100900460ff16610c215760005460ff1615610c25565b303b155b610c415760405162461bcd60e51b81526004016106f7906137b4565b600054610100900460ff16158015610c63576000805461ffff19166101011790555b610c6b612a5b565b610c73612a8a565b609780546001600160a01b0380861673ffffffffffffffffffffffffffffffffffffffff19928316179092556098805492851692909116919091179055600a609c5560a26020527f8fa6f0ecb9543d3381552e96aa43533c7f086066e38816919ea0cfae371b342a805463ffffffff1990811660019081179092557f87286cc7b9cf8a377e677776b2644ce858185998d33108f493bdc3c2f07b983680548216600b1790557f984fb507cc15174c9c2666d8998832bf192b808658c1b8547c17c86e40ea581480548216606f17905560036000527f4ed878d3ddcb61d84861a74cb3bb4189ee298a8a85e8f1b99bcffb157f7e18848054909116610457179055609b558015610d88576000805461ff00191690555b505050565b600080610d9c6127108461373f565b9050600080805b6004811015610de657610db7600a856137da565b925082610dc583600a6137f2565b610dcf9190613727565b9150610ddc600a85613811565b9350600101610da3565b50610df381612710613727565b95945050505050565b60608160008167ffffffffffffffff811115610e1a57610e1a613825565b604051908082528060200260200182016040528015610e43578160200160208202803683370190505b50905060005b82811015610ec957609f6000878784818110610e6757610e676136b9565b90506020020135815260200190815260200160002060000160009054906101000a900463ffffffff16828281518110610ea257610ea26136b9565b63ffffffff9092166020928302919091019091015280610ec18161383b565b915050610e49565b50949350505050565b610eda612c14565b6000828152609e60205260409081902081516080810190925260060160048282826020028201918154815260200190600101908083116108415750505050509050919050565b610f28612c14565b6000828152609e602052604090819020815160808101909252600a0160048282826020028201918154815260200190600101908083116108415750505050509050919050565b6065546001600160a01b03163314610f985760405162461bcd60e51b81526004016106f79061350a565b610fa26000612ab7565b565b60606000610fb2848461373f565b610fbd906001613727565b67ffffffffffffffff811115610fd557610fd5613825565b60405190808252806020026020018201604052801561100e57816020015b610ffb612c32565b815260200190600190039081610ff35790505b509050835b8381116111bd576000818152609e60205260409081902081516101a081019092528054829060ff16600381111561104c5761104c612d4f565b600381111561105d5761105d612d4f565b8152815460ff610100820416602083015263ffffffff62010000820481166040808501919091526601000000000000830482166060850152600160501b90920416608080840191909152600184015460a084015281519081019182905260c09092019190600284019060049082845b8154815260200190600101908083116110cc57505050918352505060408051608081019182905260209092019190600684019060049082845b81548152602001906001019080831161110557505050918352505060408051608081019182905260209092019190600a84019060049082845b81548152602001906001019080831161113e575050509183525050600e8201546020820152600f8201546040820152601082015460608201526011909101546080909101528261118f60018461373f565b8151811061119f5761119f6136b9565b602002602001018190525080806111b59061383b565b915050611013565b509392505050565b6065546001600160a01b031633146111ef5760405162461bcd60e51b81526004016106f79061350a565b6003609a546000908152609e602052604090205460ff16600381111561121757611217612d4f565b146112345760405162461bcd60e51b81526004016106f7906136a9565b806001600160a01b031663e0c862896040518163ffffffff1660e01b8152600401600060405180830381600087803b15801561126f57600080fd5b505af1158015611283573d6000803e3d6000fd5b50505050806001600160a01b03166342619f666040518163ffffffff1660e01b8152600401602060405180830381865afa1580156112c5573d6000803e3d6000fd5b505050506040513d601f19601f820116820180604052508101906112e9919061385f565b506098805473ffffffffffffffffffffffffffffffffffffffff19166001600160a01b0383169081179091556040517f383f8cb39dfa7c3fb901a460dd449ea924868f0a92ff03da64740fffa5f1de6290600090a250565b6065546001600160a01b0316331461136b5760405162461bcd60e51b81526004016106f79061350a565b60026001540361138d5760405162461bcd60e51b81526004016106f790613667565b600260019081556000828152609e602052604090205460ff1660038111156113b7576113b7612d4f565b146113d45760405162461bcd60e51b81526004016106f7906138d8565b609860009054906101000a90046001600160a01b03166001600160a01b031663e0c862896040518163ffffffff1660e01b8152600401600060405180830381600087803b15801561142457600080fd5b505af1158015611438573d6000803e3d6000fd5b5050506000828152609e6020526040808220805460ff19166002179055518392507f8bc84e5d97533c428862626ac41fe7bc09b1ea2ed5e9e330d84092db8df153669190a25060018055565b6065546001600160a01b031633146114ae5760405162461bcd60e51b81526004016106f79061350a565b609a5415806114e257506003609a546000908152609e602052604090205460ff1660038111156114e0576114e0612d4f565b145b6114fe5760405162461bcd60e51b81526004016106f79061391a565b610bb88111156115205760405162461bcd60e51b81526004016106f79061395c565b6127106060830135604084013561153c60208601358635613727565b6115469190613727565b6115509190613727565b111561156e5760405162461bcd60e51b81526004016106f79061399e565b600080841161158557678ac7230489e80000611587565b835b90506000609a6000815461159a9061383b565b91829055506000818152609e60205260409020805469ffffffffffffffff00ff1916620100004263ffffffff9081169190910269ffffffff0000000000001916919091176601000000000000918a16919091021760019081178255810184905590915061160c60028201866004612cad565b50805461ff00191661010060ff861602178155609d80546010830155609b54600e8301555460405183917f5e7c17be0c6c11472c23d5df180e5136efb90395ccff56f1fcfb8db6b5a0a2359161166a9142918c9189918c91906139c6565b60405180910390a250506000609d555050505050565b606061168c838361373f565b611697906001613727565b67ffffffffffffffff8111156116af576116af613825565b6040519080825280602002602001820160405280156116d8578160200160208202803683370190505b509050825b8281116111bd576001600160a01b038516600090815260a160209081526040808320848452825291829020548251808401909352600f83527f7469636b657420616d6f756e743a20000000000000000000000000000000000091830191909152906117489082612b16565b6117876040518060400160405280600a81526020017f67617320757365643a20000000000000000000000000000000000000000000008152505a612b16565b80156118ac576001600160a01b038616600090815260a1602090815260408083208584528252808320805482518185028101850190935280835291929091908301828280156117f557602002820191906000526020600020905b8154815260200190600101908083116117e1575b5050505050905060005b828110156118a957600061182c8584848151811061181f5761181f6136b9565b6020026020010151610740565b9050808661183b60018861373f565b8151811061184b5761184b6136b9565b6020026020010181815161185f9190613727565b90525060408051808201909152600781527f7265776172643a0000000000000000000000000000000000000000000000000060208201526118a09082612b16565b506001016117ff565b50505b506001016116dd565b6065546001600160a01b031633146118df5760405162461bcd60e51b81526004016106f79061350a565b6002600154036119015760405162461bcd60e51b81526004016106f790613667565b600260018190556000838152609e602052604090205460ff16600381111561192b5761192b612d4f565b146119485760405162461bcd60e51b81526004016106f790613a45565b609860009054906101000a90046001600160a01b03166001600160a01b031663eed8e1ee6040518163ffffffff1660e01b8152600401602060405180830381865afa15801561199b573d6000803e3d6000fd5b505050506040513d601f19601f820116820180604052508101906119bf9190613a60565b82146119dd5760405162461bcd60e51b81526004016106f790613ab3565b6099546001600160a01b0316611a055760405162461bcd60e51b81526004016106f790613af5565b609854604080517f42619f6600000000000000000000000000000000000000000000000000000000815290516000926001600160a01b0316916342619f669160048083019260209291908290030181865afa158015611a68573d6000803e3d6000fd5b505050506040513d601f19601f82011682018060405250810190611a8c919061385f565b6000848152609e6020526040812060108101549293509190612710611ab383611f406137f2565b611abd9190613811565b835490915060009061271090611add90610100900460ff166107d0613b05565b611aeb9061ffff16856137f2565b611af59190613811565b9050600081611b04848661373f565b611b0e919061373f565b90506000805b60048163ffffffff161015611d0f576000611b30826003613b13565b90506000611b3f826001613b23565b611b4a90600a613c5b565b611b54908b613c7e565b63ffffffff808416600090815260a26020526040902054611b76929116613b23565b60008d815260a06020908152604080832063ffffffff85168452909152902054909150611ba3858261373f565b8a600a018463ffffffff1660048110611bbe57611bbe6136b9565b0155808514611ca257896002018363ffffffff1660048110611be257611be26136b9565b015415611c9d57612710611bf6868361373f565b898c6002018663ffffffff1660048110611c1257611c126136b9565b0154611c1e91906137f2565b611c289190613811565b611c329190613811565b8a6006018463ffffffff1660048110611c4d57611c4d6136b9565b01556127108860028c0163ffffffff861660048110611c6e57611c6e6136b9565b0154611c7a91906137f2565b611c849190613811565b8a6011016000828254611c979190613727565b90915550505b611d03565b60008a6006018463ffffffff1660048110611cbf57611cbf6136b9565b01556127108860028c0163ffffffff861660048110611ce057611ce06136b9565b0154611cec91906137f2565b611cf69190613811565b611d009087613727565b95505b93505050600101611b14565b5085546dffffffff000000000000000000ff191660ff19600160501b63ffffffff8a160216176003178655609b54600f8701558715611d4e57609d8390555b8115611dcf5760975460995460405163a9059cbb60e01b81526001600160a01b039283169263a9059cbb92611d8a929116908690600401613577565b6020604051808303816000875af1158015611da9573d6000803e3d6000fd5b505050506040513d601f19601f82011682018060405250810190611dcd9190613590565b505b609a547f98e31a6607b8b15b4d5b91de54f4c09ffe4c4cf162aa532c70b5213754e2e7038883604051611e03929190613ca9565b60405180910390a250506001805550505050505050565b6001600160a01b038216600090815260a1602090815260408083208484528252808320805482518185028101850190935280835260609493830182828015611e8157602002820191906000526020600020905b815481526020019060010190808311611e6d575b509398975050505050505050565b333b15611eae5760405162461bcd60e51b81526004016106f7906135e3565b333214611ecd5760405162461bcd60e51b81526004016106f790613625565b600260015403611eef5760405162461bcd60e51b81526004016106f790613667565b600260015560036000868152609e602052604090205460ff166003811115611f1957611f19612d4f565b14611f365760405162461bcd60e51b81526004016106f7906136a9565b82818114611f565760405162461bcd60e51b81526004016106f790613ce9565b60008111611f765760405162461bcd60e51b81526004016106f790613d2b565b609c54811115611f985760405162461bcd60e51b81526004016106f790613d6d565b6000868152609e60205260408120815b8381101561217b576000888883818110611fc457611fc46136b9565b90506020020135905082600e0154811015611ff15760405162461bcd60e51b81526004016106f790613daf565b82600f015481106120145760405162461bcd60e51b81526004016106f790613df1565b6000818152609f602052604090205464010000000090046001600160a01b031633146120525760405162461bcd60e51b81526004016106f790613e59565b6000818152609f6020526040812080547fffffffffffffffff0000000000000000000000000000000000000000ffffffff1690556120b78b838a8a8781811061209d5761209d6136b9565b90506020020160208101906120b29190613395565b612959565b9050600081116120d95760405162461bcd60e51b81526004016106f790613e9b565b60038888858181106120ed576120ed6136b9565b90506020020160208101906121029190613395565b63ffffffff161015612162576121458b838a8a87818110612125576121256136b9565b905060200201602081019061213a9190613395565b6120b2906001613b23565b156121625760405162461bcd60e51b81526004016106f790613edd565b61216c8186613727565b94508260010192505050611fa8565b506000888152609e60205260408120601101805484929061219d90849061373f565b909155505060975460405163a9059cbb60e01b81526001600160a01b039091169063a9059cbb906121d49033908690600401613577565b6020604051808303816000875af11580156121f3573d6000803e3d6000fd5b505050506040513d601f19601f820116820180604052508101906122179190613590565b5087336001600160a01b03167f0fdeb33b5931b477077383757e0ba077bd3d8eddfa2cc711c54ad2d3a0cfac65846040516122529190612d08565b60405180910390a3505060018055505050505050565b333b156122875760405162461bcd60e51b81526004016106f7906135e3565b3332146122a65760405162461bcd60e51b81526004016106f790613625565b6002600154036122c85760405162461bcd60e51b81526004016106f790613667565b600260015580806122eb5760405162461bcd60e51b81526004016106f790613f1f565b609c5481111561230d5760405162461bcd60e51b81526004016106f790613f61565b609a546000818152609e60205260409020906001825460ff16600381111561233757612337612d4f565b146123545760405162461bcd60e51b81526004016106f790613fa3565b6000612364836001015485612b8d565b6097546040516323b872dd60e01b81529192506001600160a01b0316906323b872dd9061239990339030908690600401613fb3565b6020604051808303816000875af11580156123b8573d6000803e3d6000fd5b505050506040513d601f19601f820116820180604052508101906123dc9190613590565b506000828152609e6020526040812060100180548392906123fe908490613727565b90915550600090505b8481101561263f576000878783818110612423576124236136b9565b90506020020160208101906124389190613395565b905061271063ffffffff82161080159061245a5750614e1f63ffffffff821611155b6124765760405162461bcd60e51b81526004016106f790614015565b600084815260a06020526040812090612490600a84613c7e565b61249b906001613b23565b63ffffffff1663ffffffff168152602001908152602001600020600081546124c29061383b565b90915550600084815260a060205260408120906124e0606484613c7e565b6124eb90600b613b23565b63ffffffff1663ffffffff168152602001908152602001600020600081546125129061383b565b90915550600084815260a060205260408120906125316103e884613c7e565b61253c90606f613b23565b63ffffffff1663ffffffff168152602001908152602001600020600081546125639061383b565b90915550600084815260a0602052604081209061258261271084613c7e565b61258e90610457613b23565b63ffffffff1663ffffffff168152602001908152602001600020600081546125b59061383b565b90915550609b805433600081815260a1602090815260408083208a8452825280832080546001818101835591855283852001869055948352609f909152902080546401000000009092027fffffffffffffffff00000000000000000000000000000000000000000000000090921663ffffffff909516949094171790925580548201905501612407565b5081336001600160a01b03167fc7c1448de202b1838ad1d7fae75dbd69dc79f98d656f7b30f08dc451c9ab7ff8868460405161267c92919061351a565b60405180910390a350506001805550505050565b609a5460016000828152609e602052604090205460ff1660038111156126b8576126b8612d4f565b146126d55760405162461bcd60e51b81526004016106f790613fa3565b6000818152609e6020526040812060100180548492906126f6908490613727565b90915550506097546040516323b872dd60e01b81526001600160a01b03909116906323b872dd9061272f90339030908790600401613fb3565b6020604051808303816000875af115801561274e573d6000803e3d6000fd5b505050506040513d601f19601f820116820180604052508101906127729190613590565b50807f1bbd659dd628a25f7ff2eabb69c74a56939c539728282275c1c9c1a2d3e34049836040516127a39190612d08565b60405180910390a25050565b6065546001600160a01b031633146127d95760405162461bcd60e51b81526004016106f79061350a565b6099546040517f8c3aa5f43a388513435861bf27dfad7829cd248696fed367c62d441f6295449691612818916001600160a01b03909116908490614025565b60405180910390a16099805473ffffffffffffffffffffffffffffffffffffffff19166001600160a01b0392909216919091179055565b6065546001600160a01b031633146128795760405162461bcd60e51b81526004016106f79061350a565b6001600160a01b03811661289f5760405162461bcd60e51b81526004016106f79061408b565b6128a881612ab7565b50565b6000818152609f6020908152604080832054858452609e9092529091205460049163ffffffff90811691600160501b90041660015b60048163ffffffff1611612950576128f981600a613c5b565b6129039084613c7e565b63ffffffff1661291482600a613c5b565b61291e9084613c7e565b63ffffffff160361293b57612934600182613b13565b9350612940565b612950565b6129498161409b565b90506128e0565b50505092915050565b6000828152609f6020908152604080832054868452609e90925282205463ffffffff91821691600160501b9091041682612994856001613b23565b61299f90600a613c5b565b905060006129ad8284613c7e565b63ffffffff808816600090815260a260205260409020546129cf929116613b23565b905060006129dd8386613c7e565b63ffffffff808916600090815260a260205260409020546129ff929116613b23565b90508063ffffffff168263ffffffff1603612a4a576000898152609e6020526040902060060163ffffffff881660048110612a3c57612a3c6136b9565b015495505050505050612a54565b6000955050505050505b9392505050565b600054610100900460ff16612a825760405162461bcd60e51b81526004016106f79061410f565b610fa2612bc3565b600054610100900460ff16612ab15760405162461bcd60e51b81526004016106f79061410f565b60018055565b606580546001600160a01b0383811673ffffffffffffffffffffffffffffffffffffffff19831681179093556040519116919082907f8be0079c531659141344cd1fd0a4f28419497f9722a3daafe3b4186f6b6457e090600090a35050565b612b898282604051602401612b2c929190614181565b60408051601f198184030181529190526020810180517bffffffffffffffffffffffffffffffffffffffffffffffffffffffff167f9710a9d000000000000000000000000000000000000000000000000000000000179052612bf3565b5050565b6000612b9a8260646141a1565b612ba58360626141a1565b612baf84866137f2565b612bb991906137f2565b612a549190613811565b600054610100900460ff16612bea5760405162461bcd60e51b81526004016106f79061410f565b610fa233612ab7565b80516a636f6e736f6c652e6c6f67602083016000808483855afa5050505050565b60405180608001604052806004906020820280368337509192915050565b604080516101a08101909152806000815260006020820181905260408201819052606082018190526080820181905260a082015260c001612c71612c14565b8152602001612c7e612c14565b8152602001612c8b612c14565b8152602001600081526020016000815260200160008152602001600081525090565b8260048101928215612cdb579160200282015b82811115612cdb578235825591602001919060010190612cc0565b50612ce7929150612ceb565b5090565b5b80821115612ce75760008155600101612cec565b805b82525050565b602081016107cd8284612d00565b805b81146128a857600080fd5b80356107cd81612d16565b600060208284031215612d4357612d43600080fd5b60006107c98484612d23565b634e487b7160e01b600052602160045260246000fd5b600481106128a8576128a8612d4f565b80612d7f81612d65565b919050565b60006107cd82612d75565b612d0281612d84565b60ff8116612d02565b63ffffffff8116612d02565b6101408101612dbc828d612d8f565b612dc9602083018c612d98565b612dd6604083018b612da1565b612de3606083018a612da1565b612df06080830189612da1565b612dfd60a0830188612d00565b612e0a60c0830187612d00565b612e1760e0830186612d00565b612e25610100830185612d00565b612e33610120830184612d00565b9b9a5050505050505050505050565b602081016107cd8284612da1565b60008060408385031215612e6657612e66600080fd5b6000612e728585612d23565b9250506020612e8385828601612d23565b9150509250929050565b60006001600160a01b0382166107cd565b612d1881612e8d565b80356107cd81612e9e565b600080600060608486031215612eca57612eca600080fd5b6000612ed68686612ea7565b9350506020612ee786828701612d23565b9250506040612ef886828701612d23565b9150509250925092565b612f0c8282612d00565b5060200190565b60200190565b60048160005b82811015612f44578151612f338682612f02565b955050602082019150600101612f1f565b5050505050565b608081016107cd8284612f19565b60008060408385031215612f6f57612f6f600080fd5b6000612e728585612ea7565b60008060408385031215612f9157612f91600080fd5b6000612f9d8585612ea7565b9250506020612e8385828601612ea7565b612d0281612e8d565b60408101612fc58285612da1565b612a546020830184612fae565b60008083601f840112612fe757612fe7600080fd5b50813567ffffffffffffffff81111561300257613002600080fd5b60208301915083602082028301111561301d5761301d600080fd5b9250929050565b6000806020838503121561303a5761303a600080fd5b823567ffffffffffffffff81111561305457613054600080fd5b61306085828601612fd2565b92509250509250929050565b612f0c8282612da1565b6000613080825190565b808452602093840193830160005b828110156130b35781516130a2878261306c565b96505060208201915060010161308e565b5093949350505050565b60208082528101612a548184613076565b602081016107cd8284612fae565b60006107cd6001600160a01b0383166130f3565b90565b6001600160a01b031690565b60006107cd826130dc565b60006107cd826130ff565b612d028161310a565b602081016107cd8284613115565b63ffffffff8116612d18565b80356107cd8161312c565b6000806040838503121561315957613159600080fd5b60006131658585612d23565b9250506020612e8385828601613138565b60048160005b82811015612f445781516131908682612f02565b95505060208201915060010161317c565b80516131ad8382612d8f565b5060208101516131c06020840182612d98565b5060408101516131d36040840182612da1565b5060608101516131e66060840182612da1565b5060808101516131f96080840182612da1565b5060a081015161320c60a0840182612d00565b5060c081015161321f60c0840182613176565b5060e0810151613233610140840182613176565b506101008101516132486101c0840182613176565b5061012081015161325d610240840182612d00565b50610140810151613272610260840182612d00565b50610160810151613287610280840182612d00565b50610180810151610d886102a0840182612d00565b6132a682826131a1565b506102c00190565b60006132b8825190565b808452602093840193830160005b828110156130b35781516132da878261329c565b9650506020820191506001016132c6565b60208082528101612a5481846132ae565b60006020828403121561331157613311600080fd5b60006107c98484612ea7565b80608081018310156107cd576107cd600080fd5b60008060008060e0858703121561334a5761334a600080fd5b60006133568787612d23565b945050602061336787828801612d23565b93505060406133788782880161331d565b92505060c061338987828801612d23565b91505092959194509250565b6000602082840312156133aa576133aa600080fd5b60006107c98484613138565b60006133c0825190565b808452602093840193830160005b828110156130b35781516133e28782612f02565b9650506020820191506001016133ce565b60208082528101612a5481846133b6565b801515612d18565b80356107cd81613404565b6000806040838503121561342d5761342d600080fd5b60006134398585612d23565b9250506020612e838582860161340c565b60008060008060006060868803121561346557613465600080fd5b60006134718888612d23565b955050602086013567ffffffffffffffff81111561349157613491600080fd5b61349d88828901612fd2565b9450945050604086013567ffffffffffffffff8111156134bf576134bf600080fd5b6134cb88828901612fd2565b92509250509295509295909350565b60208082527f4f776e61626c653a2063616c6c6572206973206e6f7420746865206f776e65729101908152612f13565b602080825281016107cd816134da565b604081016135288285612d00565b612a546020830184612d00565b60158152602081017f43616e6e6f7420626520444547495320746f6b656e000000000000000000000081529050612f13565b602080825281016107cd81613535565b604081016135288285612fae565b80516107cd81613404565b6000602082840312156135a5576135a5600080fd5b60006107c98484613585565b60148152602081017f436f6e7472616374206e6f7420616c6c6f77656400000000000000000000000081529050612f13565b602080825281016107cd816135b1565b601a8152602081017f50726f787920636f6e7472616374206e6f7420616c6c6f77656400000000000081529050612f13565b602080825281016107cd816135f3565b601f8152602081017f5265656e7472616e637947756172643a207265656e7472616e742063616c6c0081529050612f13565b602080825281016107cd81613635565b60138152602081017f526f756e64206e6f7420636c61696d61626c650000000000000000000000000081529050612f13565b602080825281016107cd81613677565b634e487b7160e01b600052603260045260246000fd5b60148152602081017f4e6f7420746865207469636b6574206f776e657200000000000000000000000081529050612f13565b602080825281016107cd816136cf565b634e487b7160e01b600052601160045260246000fd5b6000821982111561373a5761373a613711565b500190565b815b915060008282101561375557613755613711565b500390565b602e8152602081017f496e697469616c697a61626c653a20636f6e747261637420697320616c72656181527f647920696e697469616c697a6564000000000000000000000000000000000000602082015290505b60400190565b602080825281016107cd8161375a565b634e487b7160e01b600052601260045260246000fd5b815b91506000826137ed576137ed6137c4565b500690565b600081600019048311821515161561380c5761380c613711565b500290565b600082613820576138206137c4565b500490565b634e487b7160e01b600052604160045260246000fd5b60006001820161384d5761384d613711565b5060010190565b80516107cd8161312c565b60006020828403121561387457613874600080fd5b60006107c98484613854565b60228152602081017f74686973206c6f7474657279206973206e6f74206f70656e2063757272656e7481527f6c79000000000000000000000000000000000000000000000000000000000000602082015290506137ae565b602080825281016107cd81613880565b600c8152602081017f57726f6e6720737461747573000000000000000000000000000000000000000081529050612f13565b602080825281016107cd816138e8565b60158152602081017f54726561737572792066656520746f6f2068696768000000000000000000000081529050612f13565b602080825281016107cd8161392a565b601a8152602081017f5265776172647320627265616b646f776e20746f6f206869676800000000000081529050612f13565b602080825281016107cd8161396c565b82818337506000910152565b612b89608083836139ae565b61010081016139d58288612d00565b6139e26020830187612d00565b6139ef6040830186612d00565b6139fc60608301856139ba565b613a0960e0830184612d00565b9695505050505050565b60128152602081017f4c6f7474657279206e6f7420636c6f736564000000000000000000000000000081529050612f13565b602080825281016107cd81613a13565b80516107cd81612d16565b600060208284031215613a7557613a75600080fd5b60006107c98484613a55565b60168152602081017f46696e616c206e756d626572206e6f7420647261776e0000000000000000000081529050612f13565b602080825281016107cd81613a81565b60138152602081017f5472656173757279206973206e6f74207365740000000000000000000000000081529050612f13565b602080825281016107cd81613ac3565b61ffff908116908216613741565b63ffffffff908116908216613741565b63ffffffff8116905063ffffffff8216915060008263ffffffff0382111561373a5761373a613711565b80825b6001851115613b8c57808604811115613b6b57613b6b613711565b6001851615613b7957908102905b8002613b858560011c90565b9450613b50565b94509492505050565b600082613ba457506001612a54565b81613bb157506000612a54565b8160018114613bc75760028114613bd157613bfe565b6001915050612a54565b60ff841115613be257613be2613711565b8360020a915084821115613bf857613bf8613711565b50612a54565b5060208310610133831016604e8410600b8410161715613c31575081810a83811115613c2c57613c2c613711565b612a54565b613c3e8484846001613b4d565b92509050818404811115613c5457613c54613711565b0292915050565b63ffffffff8116905063ffffffff821691506000612a5463ffffffff8484613b95565b63ffffffff9081169082166137dc565b60006107cd6130f063ffffffff841681565b612d0281613c8e565b604081016135288285613ca0565b600f8152602081017f4e6f742073616d65206c656e677468000000000000000000000000000000000081529050612f13565b602080825281016107cd81613cb7565b600a8152602081017f4e6f207469636b6574730000000000000000000000000000000000000000000081529050612f13565b602080825281016107cd81613cf9565b60198152602081017f546f6f206d616e79207469636b65747320746f20636c61696d0000000000000081529050612f13565b602080825281016107cd81613d3b565b60138152602081017f5469636b657420696420746f6f20736d616c6c0000000000000000000000000081529050612f13565b602080825281016107cd81613d7d565b60138152602081017f5469636b657420696420746f6f206c617267650000000000000000000000000081529050612f13565b602080825281016107cd81613dbf565b60278152602081017f4e6f7420746865207469636b6574206f776e6572206f7220616c72656164792081527f636c61696d656400000000000000000000000000000000000000000000000000602082015290506137ae565b602080825281016107cd81613e01565b60088152602081017f4e6f207072697a6500000000000000000000000000000000000000000000000081529050612f13565b602080825281016107cd81613e69565b60128152602081017f4f6e6c792068696768657374207072697a65000000000000000000000000000081529050612f13565b602080825281016107cd81613eab565b601b8152602081017f4e6f207469636b65747320617265206265696e6720626f75676874000000000081529050612f13565b602080825281016107cd81613eed565b60108152602081017f546f6f206d616e79207469636b6574730000000000000000000000000000000081529050612f13565b602080825281016107cd81613f2f565b600e8152602081017f526f756e64206e6f74206f70656e00000000000000000000000000000000000081529050612f13565b602080825281016107cd81613f71565b60608101613fc18286612fae565b613fce6020830185612fae565b613fdb6040830184612d00565b949350505050565b601e8152602081017f5469636b6574206e756d626572206973206f7574736964652072616e6765000081529050612f13565b602080825281016107cd81613fe3565b60408101612fc58285612fae565b60268152602081017f4f776e61626c653a206e6577206f776e657220697320746865207a65726f206181527f6464726573730000000000000000000000000000000000000000000000000000602082015290506137ae565b602080825281016107cd81614033565b63ffffffff16600063fffffffe19820161384d5761384d613711565b602b8152602081017f496e697469616c697a61626c653a20636f6e7472616374206973206e6f74206981527f6e697469616c697a696e67000000000000000000000000000000000000000000602082015290506137ae565b602080825281016107cd816140b7565b60005b8381101561413a578181015183820152602001614122565b83811115614149576000848401525b50505050565b6000614159825190565b80845260208401935061417081856020860161411f565b601f01601f19169290920192915050565b60408082528101614192818561414f565b9050612a546020830184612d00565b6000612a546000198484613b9556fea2646970667358221220d8a534f5f484deb9c563905534b2a0cfc0d50a2ac95c3439d252d9092af6849164736f6c634300080d0033",
  "devdoc": {
    "kind": "dev",
    "methods": {
      "_reverseTicketNumber(uint256)": {
        "params": {
          "_number": "Input ticket number"
        },
        "returns": {
          "_0": "reversedNumber Reversed number + 10000"
        }
      },
      "buyTickets(uint32[])": {
        "details": "Need to transfer the 4-digit number to a 5-digit number to be used here (+10000)      Can not be called by a smart contract      Can only purchase in the current round      E.g. You are selecting the number of 1-2-3-4 (lowest to highest)           You will need to pass a number \"14321\"",
        "params": {
          "_ticketNumbers": "Array of ticket numbers between 10,000 and 19,999"
        }
      },
      "changeRandomGenerator(address)": {
        "details": "The calls to functions are used to verify the new generator implements them properly.      It is necessary to wait for the VRF response before starting a round.",
        "params": {
          "_randomGeneratorAddress": "address of the random generator"
        }
      },
      "claimAllTickets(uint256)": {
        "details": "Callable by users only, not contract      Gas cost may be oversized, recommended to get brackets offchain first      Get brackets offchain and call function \"claimTickets\"",
        "params": {
          "_lotteryId": "Lottery id"
        }
      },
      "claimTickets(uint256,uint256[],uint32[])": {
        "details": "Callable by users only, not contract",
        "params": {
          "_brackets": "Bracket / prize level of each ticket",
          "_lotteryId": "Lottery id",
          "_ticketIds": "Array of ticket ids"
        }
      },
      "closeLottery(uint256)": {
        "details": "Callable only by the owner",
        "params": {
          "_lotteryId": "lottery round"
        }
      },
      "drawFinalNumberAndMakeLotteryClaimable(uint256,bool)": {
        "params": {
          "_autoInjection": "Auto inject funds into next lottery",
          "_lotteryId": "Lottery round"
        }
      },
      "initialize(address,address)": {
        "details": "RandomNumberGenerator must be deployed prior to this contract",
        "params": {
          "_degis": "Address of DEG",
          "_randomGenerator": "Address of the RandomGenerator contract used to work with ChainLink VRF"
        }
      },
      "injectFunds(uint256)": {
        "details": "Those DEG transferred to this contract but not by this function      will not be counted for prize pools",
        "params": {
          "_amount": "DEG amount to inject"
        }
      },
      "owner()": {
        "details": "Returns the address of the current owner."
      },
      "recoverWrongTokens(address,uint256)": {
        "params": {
          "_tokenAddress": "Address of the token to withdraw",
          "_tokenAmount": "Token amount to withdraw"
        }
      },
      "renounceOwnership()": {
        "details": "Leaves the contract without owner. It will not be possible to call `onlyOwner` functions anymore. Can only be called by the current owner. NOTE: Renouncing ownership will leave the contract without an owner, thereby removing any functionality that is only available to the owner."
      },
      "setMaxNumberTicketsEachTime(uint256)": {
        "params": {
          "_maxNumber": "Max number each time"
        }
      },
      "setTreasury(address)": {
        "params": {
          "_treasury": "Treasury address"
        }
      },
      "startLottery(uint256,uint256,uint256[4],uint256)": {
        "params": {
          "_endTime": "EndTime of the lottery",
          "_fee": "Treasury fee (10,000 = 100%, 100 = 1%)",
          "_rewardsBreakdown": "Breakdown of rewards per bracket (must sum to 10,000)(100 <=> 1)",
          "_ticketPrice": "Price of each ticket without discount"
        }
      },
      "transferOwnership(address)": {
        "details": "Transfers ownership of the contract to a new account (`newOwner`). Can only be called by the current owner."
      },
      "viewAllLottery(uint256,uint256)": {
        "params": {
          "_endId": "End lottery id",
          "_startId": "Start lottery id"
        },
        "returns": {
          "_0": "Array of lottery information"
        }
      },
      "viewNumbersPerTicketId(uint256[])": {
        "params": {
          "_ticketIds": ": array of _ticketId"
        }
      },
      "viewRewardsForTicketId(uint256,uint256)": {
        "details": "This function will help to find the highest prize bracket      But this computation is encouraged to be done off-chain      Better to get bracket first and then call \"_calculateRewardsForTicketId()\"",
        "params": {
          "_lotteryId": "Lottery round",
          "_ticketId": "Ticket id"
        },
        "returns": {
          "_0": "reward Ticket reward"
        }
      },
      "viewWalletTicketIds(address,uint256)": {
        "params": {
          "_wallet": "address to check owned tickets"
        },
        "returns": {
          "_0": "_lotteryId lottery id to verify ownership"
        }
      }
    },
    "title": "DegisLotteryV2",
    "version": 1
  },
  "userdoc": {
    "kind": "user",
    "methods": {
      "_reverseTicketNumber(uint256)": {
        "notice": "Reverse the ticket number         E.g. User want to buy \"1234\"              The input number will be 11234              The reversed output will be 14321"
      },
      "buyTickets(uint32[])": {
        "notice": "Buy tickets for the current lottery round"
      },
      "changeRandomGenerator(address)": {
        "notice": "Change the random generator contract address"
      },
      "claimAllTickets(uint256)": {
        "notice": "Claim all winning tickets for a lottery round"
      },
      "claimTickets(uint256,uint256[],uint32[])": {
        "notice": "Claim winning tickets"
      },
      "closeLottery(uint256)": {
        "notice": "Close a lottery"
      },
      "drawFinalNumberAndMakeLotteryClaimable(uint256,bool)": {
        "notice": "Draw the final number, calculate reward in Degis for each group, and make this lottery claimable (need to wait for the random generator)"
      },
      "initialize(address,address)": {
        "notice": "Initialize function"
      },
      "injectFunds(uint256)": {
        "notice": "Inject funds"
      },
      "recoverWrongTokens(address,uint256)": {
        "notice": "Recover wrong tokens sent to the contract, only by the owner          All tokens except Degis are wrong tokens"
      },
      "setMaxNumberTicketsEachTime(uint256)": {
        "notice": "Set max number can buy/claim each time"
      },
      "setTreasury(address)": {
        "notice": "Set treasury wallet address"
      },
      "startLottery(uint256,uint256,uint256[4],uint256)": {
        "notice": "Start a new lottery round"
      },
      "viewAllLottery(uint256,uint256)": {
        "notice": "View lottery information"
      },
      "viewNumbersPerTicketId(uint256[])": {
        "notice": "View ticker statuses and numbers for an array of ticket ids"
      },
      "viewRewardsForTicketId(uint256,uint256)": {
        "notice": "View rewards for a given ticket in a given lottery round"
      },
      "viewWalletTicketIds(address,uint256)": {
        "notice": "Get the reward per ticket in 4 brackets"
      }
    },
    "version": 1
  },
  "storageLayout": {
    "storage": [
      {
        "astId": 2670,
        "contract": "contracts/lucky-box/DegisLotteryV2.sol:DegisLotteryV2",
        "label": "_initialized",
        "offset": 0,
        "slot": "0",
        "type": "t_bool"
      },
      {
        "astId": 2673,
        "contract": "contracts/lucky-box/DegisLotteryV2.sol:DegisLotteryV2",
        "label": "_initializing",
        "offset": 1,
        "slot": "0",
        "type": "t_bool"
      },
      {
        "astId": 2862,
        "contract": "contracts/lucky-box/DegisLotteryV2.sol:DegisLotteryV2",
        "label": "_status",
        "offset": 0,
        "slot": "1",
        "type": "t_uint256"
      },
      {
        "astId": 2906,
        "contract": "contracts/lucky-box/DegisLotteryV2.sol:DegisLotteryV2",
        "label": "__gap",
        "offset": 0,
        "slot": "2",
        "type": "t_array(t_uint256)49_storage"
      },
      {
        "astId": 3907,
        "contract": "contracts/lucky-box/DegisLotteryV2.sol:DegisLotteryV2",
        "label": "__gap",
        "offset": 0,
        "slot": "51",
        "type": "t_array(t_uint256)50_storage"
      },
      {
        "astId": 2550,
        "contract": "contracts/lucky-box/DegisLotteryV2.sol:DegisLotteryV2",
        "label": "_owner",
        "offset": 0,
        "slot": "101",
        "type": "t_address"
      },
      {
        "astId": 2662,
        "contract": "contracts/lucky-box/DegisLotteryV2.sol:DegisLotteryV2",
        "label": "__gap",
        "offset": 0,
        "slot": "102",
        "type": "t_array(t_uint256)49_storage"
      },
      {
        "astId": 22286,
        "contract": "contracts/lucky-box/DegisLotteryV2.sol:DegisLotteryV2",
        "label": "DegisToken",
        "offset": 0,
        "slot": "151",
        "type": "t_contract(IERC20)5510"
      },
      {
        "astId": 22289,
        "contract": "contracts/lucky-box/DegisLotteryV2.sol:DegisLotteryV2",
        "label": "randomGenerator",
        "offset": 0,
        "slot": "152",
        "type": "t_contract(IRandomNumberGenerator)25058"
      },
      {
        "astId": 22291,
        "contract": "contracts/lucky-box/DegisLotteryV2.sol:DegisLotteryV2",
        "label": "treasury",
        "offset": 0,
        "slot": "153",
        "type": "t_address"
      },
      {
        "astId": 22293,
        "contract": "contracts/lucky-box/DegisLotteryV2.sol:DegisLotteryV2",
        "label": "currentLotteryId",
        "offset": 0,
        "slot": "154",
        "type": "t_uint256"
      },
      {
        "astId": 22295,
        "contract": "contracts/lucky-box/DegisLotteryV2.sol:DegisLotteryV2",
        "label": "currentTicketId",
        "offset": 0,
        "slot": "155",
        "type": "t_uint256"
      },
      {
        "astId": 22297,
        "contract": "contracts/lucky-box/DegisLotteryV2.sol:DegisLotteryV2",
        "label": "maxNumberTicketsEachTime",
        "offset": 0,
        "slot": "156",
        "type": "t_uint256"
      },
      {
        "astId": 22299,
        "contract": "contracts/lucky-box/DegisLotteryV2.sol:DegisLotteryV2",
        "label": "pendingInjectionNextLottery",
        "offset": 0,
        "slot": "157",
        "type": "t_uint256"
      },
      {
        "astId": 22343,
        "contract": "contracts/lucky-box/DegisLotteryV2.sol:DegisLotteryV2",
        "label": "lotteries",
        "offset": 0,
        "slot": "158",
        "type": "t_mapping(t_uint256,t_struct(Lottery)22338_storage)"
      },
      {
        "astId": 22353,
        "contract": "contracts/lucky-box/DegisLotteryV2.sol:DegisLotteryV2",
        "label": "tickets",
        "offset": 0,
        "slot": "159",
        "type": "t_mapping(t_uint256,t_struct(Ticket)22348_storage)"
      },
      {
        "astId": 22359,
        "contract": "contracts/lucky-box/DegisLotteryV2.sol:DegisLotteryV2",
        "label": "_numberTicketsPerLotteryId",
        "offset": 0,
        "slot": "160",
        "type": "t_mapping(t_uint256,t_mapping(t_uint32,t_uint256))"
      },
      {
        "astId": 22366,
        "contract": "contracts/lucky-box/DegisLotteryV2.sol:DegisLotteryV2",
        "label": "_userTicketIds",
        "offset": 0,
        "slot": "161",
        "type": "t_mapping(t_address,t_mapping(t_uint256,t_array(t_uint256)dyn_storage))"
      },
      {
        "astId": 22370,
        "contract": "contracts/lucky-box/DegisLotteryV2.sol:DegisLotteryV2",
        "label": "_bracketCalculator",
        "offset": 0,
        "slot": "162",
        "type": "t_mapping(t_uint32,t_uint32)"
      }
    ],
    "types": {
      "t_address": {
        "encoding": "inplace",
        "label": "address",
        "numberOfBytes": "20"
      },
      "t_array(t_uint256)49_storage": {
        "base": "t_uint256",
        "encoding": "inplace",
        "label": "uint256[49]",
        "numberOfBytes": "1568"
      },
      "t_array(t_uint256)4_storage": {
        "base": "t_uint256",
        "encoding": "inplace",
        "label": "uint256[4]",
        "numberOfBytes": "128"
      },
      "t_array(t_uint256)50_storage": {
        "base": "t_uint256",
        "encoding": "inplace",
        "label": "uint256[50]",
        "numberOfBytes": "1600"
      },
      "t_array(t_uint256)dyn_storage": {
        "base": "t_uint256",
        "encoding": "dynamic_array",
        "label": "uint256[]",
        "numberOfBytes": "32"
      },
      "t_bool": {
        "encoding": "inplace",
        "label": "bool",
        "numberOfBytes": "1"
      },
      "t_contract(IERC20)5510": {
        "encoding": "inplace",
        "label": "contract IERC20",
        "numberOfBytes": "20"
      },
      "t_contract(IRandomNumberGenerator)25058": {
        "encoding": "inplace",
        "label": "contract IRandomNumberGenerator",
        "numberOfBytes": "20"
      },
      "t_enum(Status)22304": {
        "encoding": "inplace",
        "label": "enum DegisLotteryV2.Status",
        "numberOfBytes": "1"
      },
      "t_mapping(t_address,t_mapping(t_uint256,t_array(t_uint256)dyn_storage))": {
        "encoding": "mapping",
        "key": "t_address",
        "label": "mapping(address => mapping(uint256 => uint256[]))",
        "numberOfBytes": "32",
        "value": "t_mapping(t_uint256,t_array(t_uint256)dyn_storage)"
      },
      "t_mapping(t_uint256,t_array(t_uint256)dyn_storage)": {
        "encoding": "mapping",
        "key": "t_uint256",
        "label": "mapping(uint256 => uint256[])",
        "numberOfBytes": "32",
        "value": "t_array(t_uint256)dyn_storage"
      },
      "t_mapping(t_uint256,t_mapping(t_uint32,t_uint256))": {
        "encoding": "mapping",
        "key": "t_uint256",
        "label": "mapping(uint256 => mapping(uint32 => uint256))",
        "numberOfBytes": "32",
        "value": "t_mapping(t_uint32,t_uint256)"
      },
      "t_mapping(t_uint256,t_struct(Lottery)22338_storage)": {
        "encoding": "mapping",
        "key": "t_uint256",
        "label": "mapping(uint256 => struct DegisLotteryV2.Lottery)",
        "numberOfBytes": "32",
        "value": "t_struct(Lottery)22338_storage"
      },
      "t_mapping(t_uint256,t_struct(Ticket)22348_storage)": {
        "encoding": "mapping",
        "key": "t_uint256",
        "label": "mapping(uint256 => struct DegisLotteryV2.Ticket)",
        "numberOfBytes": "32",
        "value": "t_struct(Ticket)22348_storage"
      },
      "t_mapping(t_uint32,t_uint256)": {
        "encoding": "mapping",
        "key": "t_uint32",
        "label": "mapping(uint32 => uint256)",
        "numberOfBytes": "32",
        "value": "t_uint256"
      },
      "t_mapping(t_uint32,t_uint32)": {
        "encoding": "mapping",
        "key": "t_uint32",
        "label": "mapping(uint32 => uint32)",
        "numberOfBytes": "32",
        "value": "t_uint32"
      },
      "t_struct(Lottery)22338_storage": {
        "encoding": "inplace",
        "label": "struct DegisLotteryV2.Lottery",
        "members": [
          {
            "astId": 22307,
            "contract": "contracts/lucky-box/DegisLotteryV2.sol:DegisLotteryV2",
            "label": "status",
            "offset": 0,
            "slot": "0",
            "type": "t_enum(Status)22304"
          },
          {
            "astId": 22309,
            "contract": "contracts/lucky-box/DegisLotteryV2.sol:DegisLotteryV2",
            "label": "treasuryFee",
            "offset": 1,
            "slot": "0",
            "type": "t_uint8"
          },
          {
            "astId": 22311,
            "contract": "contracts/lucky-box/DegisLotteryV2.sol:DegisLotteryV2",
            "label": "startTime",
            "offset": 2,
            "slot": "0",
            "type": "t_uint32"
          },
          {
            "astId": 22313,
            "contract": "contracts/lucky-box/DegisLotteryV2.sol:DegisLotteryV2",
            "label": "endTime",
            "offset": 6,
            "slot": "0",
            "type": "t_uint32"
          },
          {
            "astId": 22315,
            "contract": "contracts/lucky-box/DegisLotteryV2.sol:DegisLotteryV2",
            "label": "finalNumber",
            "offset": 10,
            "slot": "0",
            "type": "t_uint32"
          },
          {
            "astId": 22317,
            "contract": "contracts/lucky-box/DegisLotteryV2.sol:DegisLotteryV2",
            "label": "ticketPrice",
            "offset": 0,
            "slot": "1",
            "type": "t_uint256"
          },
          {
            "astId": 22321,
            "contract": "contracts/lucky-box/DegisLotteryV2.sol:DegisLotteryV2",
            "label": "rewardsBreakdown",
            "offset": 0,
            "slot": "2",
            "type": "t_array(t_uint256)4_storage"
          },
          {
            "astId": 22325,
            "contract": "contracts/lucky-box/DegisLotteryV2.sol:DegisLotteryV2",
            "label": "rewardPerTicketInBracket",
            "offset": 0,
            "slot": "6",
            "type": "t_array(t_uint256)4_storage"
          },
          {
            "astId": 22329,
            "contract": "contracts/lucky-box/DegisLotteryV2.sol:DegisLotteryV2",
            "label": "countWinnersPerBracket",
            "offset": 0,
            "slot": "10",
            "type": "t_array(t_uint256)4_storage"
          },
          {
            "astId": 22331,
            "contract": "contracts/lucky-box/DegisLotteryV2.sol:DegisLotteryV2",
            "label": "firstTicketId",
            "offset": 0,
            "slot": "14",
            "type": "t_uint256"
          },
          {
            "astId": 22333,
            "contract": "contracts/lucky-box/DegisLotteryV2.sol:DegisLotteryV2",
            "label": "firstTicketIdNextRound",
            "offset": 0,
            "slot": "15",
            "type": "t_uint256"
          },
          {
            "astId": 22335,
            "contract": "contracts/lucky-box/DegisLotteryV2.sol:DegisLotteryV2",
            "label": "amountCollected",
            "offset": 0,
            "slot": "16",
            "type": "t_uint256"
          },
          {
            "astId": 22337,
            "contract": "contracts/lucky-box/DegisLotteryV2.sol:DegisLotteryV2",
            "label": "pendingRewards",
            "offset": 0,
            "slot": "17",
            "type": "t_uint256"
          }
        ],
        "numberOfBytes": "576"
      },
      "t_struct(Ticket)22348_storage": {
        "encoding": "inplace",
        "label": "struct DegisLotteryV2.Ticket",
        "members": [
          {
            "astId": 22345,
            "contract": "contracts/lucky-box/DegisLotteryV2.sol:DegisLotteryV2",
            "label": "number",
            "offset": 0,
            "slot": "0",
            "type": "t_uint32"
          },
          {
            "astId": 22347,
            "contract": "contracts/lucky-box/DegisLotteryV2.sol:DegisLotteryV2",
            "label": "owner",
            "offset": 4,
            "slot": "0",
            "type": "t_address"
          }
        ],
        "numberOfBytes": "32"
      },
      "t_uint256": {
        "encoding": "inplace",
        "label": "uint256",
        "numberOfBytes": "32"
      },
      "t_uint32": {
        "encoding": "inplace",
        "label": "uint32",
        "numberOfBytes": "4"
      },
      "t_uint8": {
        "encoding": "inplace",
        "label": "uint8",
        "numberOfBytes": "1"
      }
    }
  }
}