{
  "address": "0xE94ae450f3747a9E47a6C17d41cc8EE727B1E3B7",
  "abi": [
    {
      "anonymous": false,
      "inputs": [
        {
          "indexed": false,
          "internalType": "address",
          "name": "token",
          "type": "address"
        },
        {
          "indexed": false,
          "internalType": "uint256",
          "name": "amount",
          "type": "uint256"
        }
      ],
      "name": "AdminTokenRecovery",
      "type": "event"
    },
    {
      "anonymous": false,
      "inputs": [
        {
          "indexed": true,
          "internalType": "uint256",
          "name": "lotteryId",
          "type": "uint256"
        }
      ],
      "name": "LotteryClose",
      "type": "event"
    },
    {
      "anonymous": false,
      "inputs": [
        {
          "indexed": true,
          "internalType": "uint256",
          "name": "lotteryId",
          "type": "uint256"
        },
        {
          "indexed": false,
          "internalType": "uint256",
          "name": "injectedAmount",
          "type": "uint256"
        }
      ],
      "name": "LotteryInjection",
      "type": "event"
    },
    {
      "anonymous": false,
      "inputs": [
        {
          "indexed": true,
          "internalType": "uint256",
          "name": "lotteryId",
          "type": "uint256"
        },
        {
          "indexed": false,
          "internalType": "uint256",
          "name": "finalNumber",
          "type": "uint256"
        },
        {
          "indexed": false,
          "internalType": "uint256",
          "name": "countWinningTickets",
          "type": "uint256"
        }
      ],
      "name": "LotteryNumberDrawn",
      "type": "event"
    },
    {
      "anonymous": false,
      "inputs": [
        {
          "indexed": true,
          "internalType": "uint256",
          "name": "lotteryId",
          "type": "uint256"
        },
        {
          "indexed": false,
          "internalType": "uint256",
          "name": "startTime",
          "type": "uint256"
        },
        {
          "indexed": false,
          "internalType": "uint256",
          "name": "endTime",
          "type": "uint256"
        },
        {
          "indexed": false,
          "internalType": "uint256",
          "name": "priceTicketInDegis",
          "type": "uint256"
        },
        {
          "indexed": false,
          "internalType": "uint256[4]",
          "name": "rewardsBreakdown",
          "type": "uint256[4]"
        },
        {
          "indexed": false,
          "internalType": "uint256",
          "name": "injectedAmount",
          "type": "uint256"
        }
      ],
      "name": "LotteryOpen",
      "type": "event"
    },
    {
      "anonymous": false,
      "inputs": [
        {
          "indexed": false,
          "internalType": "uint256",
          "name": "oldMaxNumber",
          "type": "uint256"
        },
        {
          "indexed": false,
          "internalType": "uint256",
          "name": "newMaxNumber",
          "type": "uint256"
        }
      ],
      "name": "MaxNumberTicketsEachTimeChanged",
      "type": "event"
    },
    {
      "anonymous": false,
      "inputs": [
        {
          "indexed": true,
          "internalType": "address",
          "name": "randomGenerator",
          "type": "address"
        }
      ],
      "name": "NewRandomGenerator",
      "type": "event"
    },
    {
      "anonymous": false,
      "inputs": [
        {
          "indexed": true,
          "internalType": "address",
          "name": "previousOwner",
          "type": "address"
        },
        {
          "indexed": true,
          "internalType": "address",
          "name": "newOwner",
          "type": "address"
        }
      ],
      "name": "OwnershipTransferred",
      "type": "event"
    },
    {
      "anonymous": false,
      "inputs": [
        {
          "indexed": true,
          "internalType": "address",
          "name": "claimer",
          "type": "address"
        },
        {
          "indexed": false,
          "internalType": "uint256",
          "name": "amount",
          "type": "uint256"
        },
        {
          "indexed": true,
          "internalType": "uint256",
          "name": "lotteryId",
          "type": "uint256"
        }
      ],
      "name": "TicketsClaim",
      "type": "event"
    },
    {
      "anonymous": false,
      "inputs": [
        {
          "indexed": true,
          "internalType": "address",
          "name": "buyer",
          "type": "address"
        },
        {
          "indexed": true,
          "internalType": "uint256",
          "name": "lotteryId",
          "type": "uint256"
        },
        {
          "indexed": false,
          "internalType": "uint256",
          "name": "number",
          "type": "uint256"
        },
        {
          "indexed": false,
          "internalType": "uint256",
          "name": "totalPrice",
          "type": "uint256"
        }
      ],
      "name": "TicketsPurchased",
      "type": "event"
    },
    {
      "inputs": [],
      "name": "DEFAULT_PRICE",
      "outputs": [
        {
          "internalType": "uint256",
          "name": "",
          "type": "uint256"
        }
      ],
      "stateMutability": "view",
      "type": "function"
    },
    {
      "inputs": [],
      "name": "DISCOUNT_DIVISOR",
      "outputs": [
        {
          "internalType": "uint256",
          "name": "",
          "type": "uint256"
        }
      ],
      "stateMutability": "view",
      "type": "function"
    },
    {
      "inputs": [],
      "name": "DegisToken",
      "outputs": [
        {
          "internalType": "contract IERC20",
          "name": "",
          "type": "address"
        }
      ],
      "stateMutability": "view",
      "type": "function"
    },
    {
      "inputs": [],
      "name": "MAX_TICKET_NUMBER",
      "outputs": [
        {
          "internalType": "uint32",
          "name": "",
          "type": "uint32"
        }
      ],
      "stateMutability": "view",
      "type": "function"
    },
    {
      "inputs": [],
      "name": "MAX_TREASURY_FEE",
      "outputs": [
        {
          "internalType": "uint256",
          "name": "",
          "type": "uint256"
        }
      ],
      "stateMutability": "view",
      "type": "function"
    },
    {
      "inputs": [],
      "name": "MIN_TICKET_NUMBER",
      "outputs": [
        {
          "internalType": "uint32",
          "name": "",
          "type": "uint32"
        }
      ],
      "stateMutability": "view",
      "type": "function"
    },
    {
      "inputs": [
        {
          "internalType": "uint32",
          "name": "",
          "type": "uint32"
        }
      ],
      "name": "_bracketCalculator",
      "outputs": [
        {
          "internalType": "uint32",
          "name": "",
          "type": "uint32"
        }
      ],
      "stateMutability": "view",
      "type": "function"
    },
    {
      "inputs": [
        {
          "internalType": "uint256",
          "name": "",
          "type": "uint256"
        },
        {
          "internalType": "uint32",
          "name": "",
          "type": "uint32"
        }
      ],
      "name": "_numberTicketsPerLotteryId",
      "outputs": [
        {
          "internalType": "uint256",
          "name": "",
          "type": "uint256"
        }
      ],
      "stateMutability": "view",
      "type": "function"
    },
    {
      "inputs": [
        {
          "internalType": "address",
          "name": "",
          "type": "address"
        },
        {
          "internalType": "uint256",
          "name": "",
          "type": "uint256"
        },
        {
          "internalType": "uint256",
          "name": "",
          "type": "uint256"
        }
      ],
      "name": "_userTicketIds",
      "outputs": [
        {
          "internalType": "uint256",
          "name": "",
          "type": "uint256"
        }
      ],
      "stateMutability": "view",
      "type": "function"
    },
    {
      "inputs": [
        {
          "internalType": "uint32[]",
          "name": "_ticketNumbers",
          "type": "uint32[]"
        }
      ],
      "name": "buyTickets",
      "outputs": [],
      "stateMutability": "nonpayable",
      "type": "function"
    },
    {
      "inputs": [
        {
          "internalType": "address",
          "name": "_randomGeneratorAddress",
          "type": "address"
        }
      ],
      "name": "changeRandomGenerator",
      "outputs": [],
      "stateMutability": "nonpayable",
      "type": "function"
    },
    {
      "inputs": [
        {
          "internalType": "uint256",
          "name": "_lotteryId",
          "type": "uint256"
        }
      ],
      "name": "claimAllTickets",
      "outputs": [],
      "stateMutability": "nonpayable",
      "type": "function"
    },
    {
      "inputs": [
        {
          "internalType": "uint256",
          "name": "_lotteryId",
          "type": "uint256"
        },
        {
          "internalType": "uint256[]",
          "name": "_ticketIds",
          "type": "uint256[]"
        },
        {
          "internalType": "uint32[]",
          "name": "_brackets",
          "type": "uint32[]"
        }
      ],
      "name": "claimTickets",
      "outputs": [],
      "stateMutability": "nonpayable",
      "type": "function"
    },
    {
      "inputs": [
        {
          "internalType": "uint256",
          "name": "_lotteryId",
          "type": "uint256"
        }
      ],
      "name": "closeLottery",
      "outputs": [],
      "stateMutability": "nonpayable",
      "type": "function"
    },
    {
      "inputs": [],
      "name": "currentLotteryId",
      "outputs": [
        {
          "internalType": "uint256",
          "name": "",
          "type": "uint256"
        }
      ],
      "stateMutability": "view",
      "type": "function"
    },
    {
      "inputs": [],
      "name": "currentTicketId",
      "outputs": [
        {
          "internalType": "uint256",
          "name": "",
          "type": "uint256"
        }
      ],
      "stateMutability": "view",
      "type": "function"
    },
    {
      "inputs": [
        {
          "internalType": "uint256",
          "name": "_lotteryId",
          "type": "uint256"
        },
        {
          "internalType": "bool",
          "name": "_autoInjection",
          "type": "bool"
        }
      ],
      "name": "drawFinalNumberAndMakeLotteryClaimable",
      "outputs": [],
      "stateMutability": "nonpayable",
      "type": "function"
    },
    {
      "inputs": [
        {
          "internalType": "address",
          "name": "_degis",
          "type": "address"
        },
        {
          "internalType": "address",
          "name": "_randomGenerator",
          "type": "address"
        }
      ],
      "name": "initialize",
      "outputs": [],
      "stateMutability": "nonpayable",
      "type": "function"
    },
    {
      "inputs": [
        {
          "internalType": "uint256",
          "name": "_amount",
          "type": "uint256"
        }
      ],
      "name": "injectFunds",
      "outputs": [],
      "stateMutability": "nonpayable",
      "type": "function"
    },
    {
      "inputs": [
        {
          "internalType": "uint256",
          "name": "",
          "type": "uint256"
        }
      ],
      "name": "lotteries",
      "outputs": [
        {
          "internalType": "enum DegisLotteryV2.Status",
          "name": "status",
          "type": "uint8"
        },
        {
          "internalType": "uint8",
          "name": "treasuryFee",
          "type": "uint8"
        },
        {
          "internalType": "uint32",
          "name": "startTime",
          "type": "uint32"
        },
        {
          "internalType": "uint32",
          "name": "endTime",
          "type": "uint32"
        },
        {
          "internalType": "uint32",
          "name": "finalNumber",
          "type": "uint32"
        },
        {
          "internalType": "uint256",
          "name": "ticketPrice",
          "type": "uint256"
        },
        {
          "internalType": "uint256",
          "name": "firstTicketId",
          "type": "uint256"
        },
        {
          "internalType": "uint256",
          "name": "firstTicketIdNextRound",
          "type": "uint256"
        },
        {
          "internalType": "uint256",
          "name": "amountCollected",
          "type": "uint256"
        },
        {
          "internalType": "uint256",
          "name": "pendingRewards",
          "type": "uint256"
        }
      ],
      "stateMutability": "view",
      "type": "function"
    },
    {
      "inputs": [],
      "name": "maxNumberTicketsEachTime",
      "outputs": [
        {
          "internalType": "uint256",
          "name": "",
          "type": "uint256"
        }
      ],
      "stateMutability": "view",
      "type": "function"
    },
    {
      "inputs": [],
      "name": "owner",
      "outputs": [
        {
          "internalType": "address",
          "name": "",
          "type": "address"
        }
      ],
      "stateMutability": "view",
      "type": "function"
    },
    {
      "inputs": [],
      "name": "pendingInjectionNextLottery",
      "outputs": [
        {
          "internalType": "uint256",
          "name": "",
          "type": "uint256"
        }
      ],
      "stateMutability": "view",
      "type": "function"
    },
    {
      "inputs": [],
      "name": "randomGenerator",
      "outputs": [
        {
          "internalType": "contract IRandomNumberGenerator",
          "name": "",
          "type": "address"
        }
      ],
      "stateMutability": "view",
      "type": "function"
    },
    {
      "inputs": [
        {
          "internalType": "address",
          "name": "_tokenAddress",
          "type": "address"
        },
        {
          "internalType": "uint256",
          "name": "_tokenAmount",
          "type": "uint256"
        }
      ],
      "name": "recoverWrongTokens",
      "outputs": [],
      "stateMutability": "nonpayable",
      "type": "function"
    },
    {
      "inputs": [],
      "name": "renounceOwnership",
      "outputs": [],
      "stateMutability": "nonpayable",
      "type": "function"
    },
    {
      "inputs": [
        {
          "internalType": "uint256",
          "name": "_maxNumber",
          "type": "uint256"
        }
      ],
      "name": "setMaxNumberTicketsEachTime",
      "outputs": [],
      "stateMutability": "nonpayable",
      "type": "function"
    },
    {
      "inputs": [
        {
          "internalType": "address",
          "name": "_treasury",
          "type": "address"
        }
      ],
      "name": "setTreasury",
      "outputs": [],
      "stateMutability": "nonpayable",
      "type": "function"
    },
    {
      "inputs": [
        {
          "internalType": "uint256",
          "name": "_endTime",
          "type": "uint256"
        },
        {
          "internalType": "uint256",
          "name": "_ticketPrice",
          "type": "uint256"
        },
        {
          "internalType": "uint256[4]",
          "name": "_rewardsBreakdown",
          "type": "uint256[4]"
        },
        {
          "internalType": "uint256",
          "name": "_fee",
          "type": "uint256"
        }
      ],
      "name": "startLottery",
      "outputs": [],
      "stateMutability": "nonpayable",
      "type": "function"
    },
    {
      "inputs": [
        {
          "internalType": "uint256",
          "name": "",
          "type": "uint256"
        }
      ],
      "name": "tickets",
      "outputs": [
        {
          "internalType": "uint32",
          "name": "number",
          "type": "uint32"
        },
        {
          "internalType": "address",
          "name": "owner",
          "type": "address"
        }
      ],
      "stateMutability": "view",
      "type": "function"
    },
    {
      "inputs": [
        {
          "internalType": "address",
          "name": "newOwner",
          "type": "address"
        }
      ],
      "name": "transferOwnership",
      "outputs": [],
      "stateMutability": "nonpayable",
      "type": "function"
    },
    {
      "inputs": [],
      "name": "treasury",
      "outputs": [
        {
          "internalType": "address",
          "name": "",
          "type": "address"
        }
      ],
      "stateMutability": "view",
      "type": "function"
    },
    {
      "inputs": [],
      "name": "viewAllLottery",
      "outputs": [
        {
          "components": [
            {
              "internalType": "enum DegisLotteryV2.Status",
              "name": "status",
              "type": "uint8"
            },
            {
              "internalType": "uint8",
              "name": "treasuryFee",
              "type": "uint8"
            },
            {
              "internalType": "uint32",
              "name": "startTime",
              "type": "uint32"
            },
            {
              "internalType": "uint32",
              "name": "endTime",
              "type": "uint32"
            },
            {
              "internalType": "uint32",
              "name": "finalNumber",
              "type": "uint32"
            },
            {
              "internalType": "uint256",
              "name": "ticketPrice",
              "type": "uint256"
            },
            {
              "internalType": "uint256[4]",
              "name": "rewardsBreakdown",
              "type": "uint256[4]"
            },
            {
              "internalType": "uint256[4]",
              "name": "rewardPerTicketInBracket",
              "type": "uint256[4]"
            },
            {
              "internalType": "uint256[4]",
              "name": "countWinnersPerBracket",
              "type": "uint256[4]"
            },
            {
              "internalType": "uint256",
              "name": "firstTicketId",
              "type": "uint256"
            },
            {
              "internalType": "uint256",
              "name": "firstTicketIdNextRound",
              "type": "uint256"
            },
            {
              "internalType": "uint256",
              "name": "amountCollected",
              "type": "uint256"
            },
            {
              "internalType": "uint256",
              "name": "pendingRewards",
              "type": "uint256"
            }
          ],
          "internalType": "struct DegisLotteryV2.Lottery[]",
          "name": "",
          "type": "tuple[]"
        }
      ],
      "stateMutability": "view",
      "type": "function"
    },
    {
      "inputs": [
        {
          "internalType": "uint256[]",
          "name": "_ticketIds",
          "type": "uint256[]"
        }
      ],
      "name": "viewNumbersPerTicketId",
      "outputs": [
        {
          "internalType": "uint32[]",
          "name": "",
          "type": "uint32[]"
        }
      ],
      "stateMutability": "view",
      "type": "function"
    },
    {
      "inputs": [
        {
          "internalType": "uint256",
          "name": "_lotteryId",
          "type": "uint256"
        },
        {
          "internalType": "uint256",
          "name": "_ticketId",
          "type": "uint256"
        }
      ],
      "name": "viewRewardsForTicketId",
      "outputs": [
        {
          "internalType": "uint256",
          "name": "",
          "type": "uint256"
        }
      ],
      "stateMutability": "view",
      "type": "function"
    },
    {
      "inputs": [
        {
          "internalType": "address",
          "name": "_wallet",
          "type": "address"
        },
        {
          "internalType": "uint256",
          "name": "_lotteryId",
          "type": "uint256"
        }
      ],
      "name": "viewWalletTicketIds",
      "outputs": [
        {
          "internalType": "uint256[]",
          "name": "",
          "type": "uint256[]"
        }
      ],
      "stateMutability": "view",
      "type": "function"
    }
  ],
  "transactionHash": "0x7c377d45cc18d18bb3401e5f88b271895f6cd28bd3fcf29636e7071aee8069a4",
  "args": [],
  "numDeployments": 2,
  "solcInputHash": "afd8db3d508c1ce5ddefd008f4dfad36",
  "bytecode": "0x608060405234801561001057600080fd5b50613e97806100206000396000f3fe608060405234801561001057600080fd5b506004361061025c5760003560e01c8063715018a611610145578063c6e761a9116100bd578063e359ebec1161008c578063f0f4426011610071578063f0f44260146105b0578063f2b3c809146105c3578063f2fde38b146105cc57600080fd5b8063e359ebec14610588578063e8589ac81461059b57600080fd5b8063c6e761a91461052f578063c914914f1461054f578063dcbad90d14610562578063e1059fe51461057557600080fd5b806398359fa111610114578063b3e3649b116100f9578063b3e3649b146104e3578063b46e130e146104f6578063c38de5391461051c57600080fd5b806398359fa1146104bd5780639d8ca531146104d057600080fd5b8063715018a6146104705780637250e45d146104785780637741879b146104815780638da5cb5b146104ac57600080fd5b806344848a99116101d857806361d027b3116101a757806365dc59d61161018c57806365dc59d61461043e578063686465b81461045e5780636be4097c1461046757600080fd5b806361d027b314610416578063656f8a251461043657600080fd5b806344848a9914610389578063485cc9551461039c57806350b44712146103af5780635b0d64c2146103f657600080fd5b80631b6c743b1161022f5780632149485d116102145780632149485d1461035057806326df6c27146103635780633f138d4b1461037657600080fd5b80631b6c743b1461032c5780631e6425fd1461033b57600080fd5b80630ab2b0861461026157806312a9769d146102805780631398e0761461028957806314a0792f14610316575b600080fd5b61026a609c5481565b6040516102779190612962565b60405180910390f35b61026a609d5481565b610300610297366004612988565b609e60205260009081526040902080546001820154600e830154600f840154601085015460119095015460ff8086169661010087049091169563ffffffff62010000820481169666010000000000008304821696600160501b909304909116949093919290918a565b6040516102779a99989796959493929190612a07565b61031f61271081565b6040516102779190612a9c565b61026a678ac7230489e8000081565b61034e610349366004612988565b6105df565b005b61026a61035e366004612aaa565b610652565b61026a610371366004612b0c565b6107d4565b61034e610384366004612b5c565b610812565b61034e610397366004612988565b610919565b61034e6103aa366004612b7e565b610ba6565b6103e86103bd366004612988565b609f6020526000908152604090205463ffffffff81169064010000000090046001600160a01b031682565b604051610277929190612bba565b610409610404366004612c27565b610d2d565b6040516102779190612ccd565b609954610429906001600160a01b031681565b6040516102779190612cde565b61026a606281565b609754610451906001600160a01b031681565b6040516102779190612d2e565b61026a609b5481565b61026a609a5481565b61034e610e03565b61031f614e1f81565b61026a61048f366004612d53565b60a060209081526000928352604080842090915290825290205481565b6065546001600160a01b0316610429565b61034e6104cb366004612d86565b610e39565b61034e6104de366004612988565b610fb5565b61034e6104f1366004612dbb565b6110f8565b61031f610504366004612e1f565b60a26020526000908152604090205463ffffffff1681565b61034e61052a366004612e53565b6112f4565b61054261053d366004612b5c565b611859565b6040516102779190612ecd565b61034e61055d366004612ede565b6118ce565b609854610451906001600160a01b031681565b61034e610583366004612c27565b611cf8565b61034e610596366004612988565b612121565b6105a3612240565b60405161027791906130ea565b61034e6105be366004612d86565b612450565b61026a610bb881565b61034e6105da366004612d86565b6124a9565b6065546001600160a01b031633146106125760405162461bcd60e51b81526004016106099061312b565b60405180910390fd5b7f67d06ff5b9d79811174a2f0df6d9be98aa3b3f9ae311716140cb1b0668c11843609c548260405161064592919061313b565b60405180910390a1609c55565b600060036000848152609e602052604090205460ff166003811115610679576106796129a9565b14610686575060006107ce565b6106db6040518060400160405280600481526020017f6964203100000000000000000000000000000000000000000000000000000000815250609e6000868152602001908152602001600020600f0154612505565b6107306040518060400160405280600481526020017f6964203200000000000000000000000000000000000000000000000000000000815250609e6000868152602001908152602001600020600e0154612505565b6000838152609e60205260409020600f015482118061075f57506000838152609e60205260409020600e015482105b1561076c575060006107ce565b6000610778848461257c565b90506107bf6040518060400160405280601081526020017f68696768657374427261636b65743a20000000000000000000000000000000008152508263ffffffff16612505565b6107ca84848361262a565b9150505b92915050565b60a160205282600052604060002060205281600052604060002081815481106107fc57600080fd5b9060005260206000200160009250925050505481565b6065546001600160a01b0316331461083c5760405162461bcd60e51b81526004016106099061312b565b6097546001600160a01b039081169083160361086a5760405162461bcd60e51b815260040161060990613188565b60405163a9059cbb60e01b81526001600160a01b0383169063a9059cbb906108989033908590600401613198565b6020604051808303816000875af11580156108b7573d6000803e3d6000fd5b505050506040513d601f19601f820116820180604052508101906108db91906131b1565b507f74545154aac348a3eac92596bd1971957ca94795f4e954ec5f613b55fab78129828260405161090d929190613198565b60405180910390a15050565b333b156109385760405162461bcd60e51b815260040161060990613204565b3332146109575760405162461bcd60e51b815260040161060990613246565b6002600154036109795760405162461bcd60e51b815260040161060990613288565b600260015560036000828152609e602052604090205460ff1660038111156109a3576109a36129a9565b146109c05760405162461bcd60e51b8152600401610609906132f2565b6000805b33600090815260a160209081526040808320868452909152902054811015610abf5733600090815260a1602090815260408083208684529091528120805483908110610a1257610a12613302565b6000918252602080832090910154808352609f825260409283902083518085019094525463ffffffff811684526001600160a01b036401000000009091041691830182905292503314610a775760405162461bcd60e51b81526004016106099061334a565b6000610a83868461257c565b905060048163ffffffff161015610ab1576000610aa187858461262a565b9050610aad8187613370565b9550505b8360010193505050506109c4565b506000828152609e602052604081206011018054839290610ae1908490613388565b909155505060975460405163a9059cbb60e01b81526001600160a01b039091169063a9059cbb90610b189033908590600401613198565b6020604051808303816000875af1158015610b37573d6000803e3d6000fd5b505050506040513d601f19601f82011682018060405250810190610b5b91906131b1565b5081336001600160a01b03167f0fdeb33b5931b477077383757e0ba077bd3d8eddfa2cc711c54ad2d3a0cfac6583604051610b969190612962565b60405180910390a3505060018055565b600054610100900460ff16610bc15760005460ff1615610bc5565b303b155b610be15760405162461bcd60e51b8152600401610609906133fb565b600054610100900460ff16158015610c03576000805461ffff19166101011790555b610c0b61272c565b610c1361275b565b609780546001600160a01b0380861673ffffffffffffffffffffffffffffffffffffffff19928316179092556098805492851692909116919091179055600a609c5560a26020527f8fa6f0ecb9543d3381552e96aa43533c7f086066e38816919ea0cfae371b342a805463ffffffff1990811660019081179092557f87286cc7b9cf8a377e677776b2644ce858185998d33108f493bdc3c2f07b983680548216600b1790557f984fb507cc15174c9c2666d8998832bf192b808658c1b8547c17c86e40ea581480548216606f17905560036000527f4ed878d3ddcb61d84861a74cb3bb4189ee298a8a85e8f1b99bcffb157f7e18848054909116610457179055609b558015610d28576000805461ff00191690555b505050565b60608160008167ffffffffffffffff811115610d4b57610d4b61340b565b604051908082528060200260200182016040528015610d74578160200160208202803683370190505b50905060005b82811015610dfa57609f6000878784818110610d9857610d98613302565b90506020020135815260200190815260200160002060000160009054906101000a900463ffffffff16828281518110610dd357610dd3613302565b63ffffffff9092166020928302919091019091015280610df281613421565b915050610d7a565b50949350505050565b6065546001600160a01b03163314610e2d5760405162461bcd60e51b81526004016106099061312b565b610e376000612788565b565b6065546001600160a01b03163314610e635760405162461bcd60e51b81526004016106099061312b565b6003609a546000908152609e602052604090205460ff166003811115610e8b57610e8b6129a9565b14610ea85760405162461bcd60e51b81526004016106099061346a565b806001600160a01b031663dbdff2c16040518163ffffffff1660e01b8152600401600060405180830381600087803b158015610ee357600080fd5b505af1158015610ef7573d6000803e3d6000fd5b50505050806001600160a01b03166342619f666040518163ffffffff1660e01b8152600401602060405180830381865afa158015610f39573d6000803e3d6000fd5b505050506040513d601f19601f82011682018060405250810190610f5d9190613485565b506098805473ffffffffffffffffffffffffffffffffffffffff19166001600160a01b0383169081179091556040517f383f8cb39dfa7c3fb901a460dd449ea924868f0a92ff03da64740fffa5f1de6290600090a250565b6065546001600160a01b03163314610fdf5760405162461bcd60e51b81526004016106099061312b565b6002600154036110015760405162461bcd60e51b815260040161060990613288565b600260019081556000828152609e602052604090205460ff16600381111561102b5761102b6129a9565b146110485760405162461bcd60e51b8152600401610609906134fe565b609860009054906101000a90046001600160a01b03166001600160a01b031663dbdff2c16040518163ffffffff1660e01b8152600401600060405180830381600087803b15801561109857600080fd5b505af11580156110ac573d6000803e3d6000fd5b5050506000828152609e6020526040808220805460ff19166002179055518392507f8bc84e5d97533c428862626ac41fe7bc09b1ea2ed5e9e330d84092db8df153669190a25060018055565b6065546001600160a01b031633146111225760405162461bcd60e51b81526004016106099061312b565b609a54158061115657506003609a546000908152609e602052604090205460ff166003811115611154576111546129a9565b145b6111725760405162461bcd60e51b815260040161060990613540565b610bb88111156111945760405162461bcd60e51b815260040161060990613582565b612710606083013560408401356111b060208601358635613370565b6111ba9190613370565b6111c49190613370565b11156111e25760405162461bcd60e51b8152600401610609906135c4565b60008084116111f957678ac7230489e800006111fb565b835b90506000609a6000815461120e90613421565b91829055506000818152609e60205260409020805469ffffffffffffffff00ff1916620100004263ffffffff9081169190910269ffffffff0000000000001916919091176601000000000000918a1691909102176001908117825581018490559091506112806002820186600461286e565b50805461ff00191661010060ff861602178155609d80546010830155609b54600e8301555460405183917f5e7c17be0c6c11472c23d5df180e5136efb90395ccff56f1fcfb8db6b5a0a235916112de9142918c9189918c91906135ec565b60405180910390a250506000609d555050505050565b6065546001600160a01b0316331461131e5760405162461bcd60e51b81526004016106099061312b565b6002600154036113405760405162461bcd60e51b815260040161060990613288565b600260018190556000838152609e602052604090205460ff16600381111561136a5761136a6129a9565b146113875760405162461bcd60e51b81526004016106099061366b565b609860009054906101000a90046001600160a01b03166001600160a01b031663eed8e1ee6040518163ffffffff1660e01b8152600401602060405180830381865afa1580156113da573d6000803e3d6000fd5b505050506040513d601f19601f820116820180604052508101906113fe9190613686565b821461141c5760405162461bcd60e51b8152600401610609906136d9565b6099546001600160a01b03166114445760405162461bcd60e51b81526004016106099061371b565b609854604080517f42619f6600000000000000000000000000000000000000000000000000000000815290516000926001600160a01b0316916342619f669160048083019260209291908290030181865afa1580156114a7573d6000803e3d6000fd5b505050506040513d601f19601f820116820180604052508101906114cb9190613485565b6000848152609e60205260408120601081015492935091906127106114f283611f4061372b565b6114fc9190613760565b83549091506000906127109061151c90610100900460ff166107d0613774565b61152a9061ffff168561372b565b6115349190613760565b90506000816115438486613388565b61154d9190613388565b90506000805b60048163ffffffff16101561174e57600061156f826003613782565b9050600061157e826001613792565b61158990600a6138ca565b611593908b6138ed565b63ffffffff808416600090815260a260205260409020546115b5929116613792565b60008d815260a06020908152604080832063ffffffff851684529091529020549091506115e28582613388565b8a600a018463ffffffff16600481106115fd576115fd613302565b01558085146116e157896002018363ffffffff166004811061162157611621613302565b0154156116dc576127106116358683613388565b898c6002018663ffffffff166004811061165157611651613302565b015461165d919061372b565b6116679190613760565b6116719190613760565b8a6006018463ffffffff166004811061168c5761168c613302565b01556127108860028c0163ffffffff8616600481106116ad576116ad613302565b01546116b9919061372b565b6116c39190613760565b8a60110160008282546116d69190613370565b90915550505b611742565b60008a6006018463ffffffff16600481106116fe576116fe613302565b01556127108860028c0163ffffffff86166004811061171f5761171f613302565b015461172b919061372b565b6117359190613760565b61173f9087613370565b95505b93505050600101611553565b5085546dffffffff000000000000000000ff191660ff19600160501b63ffffffff8a160216176003178655609b54600f870155871561178d57609d8390555b811561180e5760975460995460405163a9059cbb60e01b81526001600160a01b039283169263a9059cbb926117c9929116908690600401613198565b6020604051808303816000875af11580156117e8573d6000803e3d6000fd5b505050506040513d601f19601f8201168201806040525081019061180c91906131b1565b505b609a547f98e31a6607b8b15b4d5b91de54f4c09ffe4c4cf162aa532c70b5213754e2e7038883604051611842929190613926565b60405180910390a250506001805550505050505050565b6001600160a01b038216600090815260a16020908152604080832084845282528083208054825181850281018501909352808352606094938301828280156118c057602002820191906000526020600020905b8154815260200190600101908083116118ac575b509398975050505050505050565b333b156118ed5760405162461bcd60e51b815260040161060990613204565b33321461190c5760405162461bcd60e51b815260040161060990613246565b60026001540361192e5760405162461bcd60e51b815260040161060990613288565b600260015560036000868152609e602052604090205460ff166003811115611958576119586129a9565b146119755760405162461bcd60e51b815260040161060990613966565b828181146119955760405162461bcd60e51b8152600401610609906139a8565b600081116119b55760405162461bcd60e51b8152600401610609906139ea565b609c548111156119d75760405162461bcd60e51b815260040161060990613a2c565b6000805b82811015611bce5760008787838181106119f7576119f7613302565b905060200201359050609e60008a8152602001908152602001600020600e0154811015611a365760405162461bcd60e51b815260040161060990613a6e565b6000898152609e60205260409020600f0154811115611a675760405162461bcd60e51b815260040161060990613ab0565b6000818152609f602052604090205464010000000090046001600160a01b03163314611aa55760405162461bcd60e51b815260040161060990613b18565b6000818152609f6020526040812080547fffffffffffffffff0000000000000000000000000000000000000000ffffffff169055611b0a8a83898987818110611af057611af0613302565b9050602002016020810190611b059190612e1f565b61262a565b905060008111611b2c5760405162461bcd60e51b815260040161060990613b5a565b6003878785818110611b4057611b40613302565b9050602002016020810190611b559190612e1f565b63ffffffff161015611bb557611b988a83898987818110611b7857611b78613302565b9050602002016020810190611b8d9190612e1f565b611b05906001613792565b15611bb55760405162461bcd60e51b815260040161060990613b9c565b611bbf8185613370565b935082600101925050506119db565b506000878152609e602052604081206011018054839290611bf0908490613388565b909155505060408051808201909152601481527f72657761726420746f207472616e73616665723a0000000000000000000000006020820152611c339082612505565b60975460405163a9059cbb60e01b81526001600160a01b039091169063a9059cbb90611c659033908590600401613198565b6020604051808303816000875af1158015611c84573d6000803e3d6000fd5b505050506040513d601f19601f82011682018060405250810190611ca891906131b1565b5086336001600160a01b03167f0fdeb33b5931b477077383757e0ba077bd3d8eddfa2cc711c54ad2d3a0cfac6583604051611ce39190612962565b60405180910390a35050600180555050505050565b333b15611d175760405162461bcd60e51b815260040161060990613204565b333214611d365760405162461bcd60e51b815260040161060990613246565b600260015403611d585760405162461bcd60e51b815260040161060990613288565b60026001558080611d7b5760405162461bcd60e51b815260040161060990613bde565b609c54811115611d9d5760405162461bcd60e51b815260040161060990613c20565b609a5460016000828152609e602052604090205460ff166003811115611dc557611dc56129a9565b14611de25760405162461bcd60e51b815260040161060990613c62565b6000818152609e6020526040812060010154611dfe90846127e7565b6097546040516323b872dd60e01b81529192506001600160a01b0316906323b872dd90611e3390339030908690600401613c72565b6020604051808303816000875af1158015611e52573d6000803e3d6000fd5b505050506040513d601f19601f82011682018060405250810190611e7691906131b1565b506000828152609e602052604081206010018054839290611e98908490613370565b90915550600090505b838110156120d1576000868683818110611ebd57611ebd613302565b9050602002016020810190611ed29190612e1f565b905061271063ffffffff821610801590611ef45750614e1f63ffffffff821611155b611f105760405162461bcd60e51b815260040161060990613cd4565b600084815260a06020526040812090611f2a600a846138ed565b611f35906001613792565b63ffffffff16815260208101919091526040016000908120805491611f5983613421565b9091555050600084815260a06020526040812090611f786064846138ed565b611f8390600b613792565b63ffffffff16815260208101919091526040016000908120805491611fa783613421565b9091555050600084815260a06020526040812090611fc76103e8846138ed565b611fd290606f613792565b63ffffffff16815260208101919091526040016000908120805491611ff683613421565b9091555050600084815260a06020526040812090612016612710846138ed565b61202290610457613792565b63ffffffff1681526020810191909152604001600090812080549161204683613421565b9091555050609b805433600081815260a1602090815260408083208a8452825280832080546001818101835591855283852001869055948352609f909152902080546401000000009092027fffffffffffffffff00000000000000000000000000000000000000000000000090921663ffffffff909516949094171790925580548201905501611ea1565b5081336001600160a01b03167fc7c1448de202b1838ad1d7fae75dbd69dc79f98d656f7b30f08dc451c9ab7ff8858460405161210e92919061313b565b60405180910390a3505060018055505050565b609a5460016000828152609e602052604090205460ff166003811115612149576121496129a9565b146121665760405162461bcd60e51b815260040161060990613c62565b6000818152609e602052604081206010018054849290612187908490613370565b90915550506097546040516323b872dd60e01b81526001600160a01b03909116906323b872dd906121c090339030908790600401613c72565b6020604051808303816000875af11580156121df573d6000803e3d6000fd5b505050506040513d601f19601f8201168201806040525081019061220391906131b1565b50807f1bbd659dd628a25f7ff2eabb69c74a56939c539728282275c1c9c1a2d3e34049836040516122349190612962565b60405180910390a25050565b60606000609a5467ffffffffffffffff81111561225f5761225f61340b565b60405190808252806020026020018201604052801561229857816020015b6122856128ac565b81526020019060019003908161227d5790505b50905060015b609a54811161244a576000818152609e60205260409081902081516101a081019092528054829060ff1660038111156122d9576122d96129a9565b60038111156122ea576122ea6129a9565b8152815460ff610100820416602083015263ffffffff62010000820481166040808501919091526601000000000000830482166060850152600160501b90920416608080840191909152600184015460a084015281519081019182905260c09092019190600284019060049082845b81548152602001906001019080831161235957505050918352505060408051608081019182905260209092019190600684019060049082845b81548152602001906001019080831161239257505050918352505060408051608081019182905260209092019190600a84019060049082845b8154815260200190600101908083116123cb575050509183525050600e8201546020820152600f8201546040820152601082015460608201526011909101546080909101528261241c600184613388565b8151811061242c5761242c613302565b6020026020010181905250808061244290613421565b91505061229e565b50919050565b6065546001600160a01b0316331461247a5760405162461bcd60e51b81526004016106099061312b565b6099805473ffffffffffffffffffffffffffffffffffffffff19166001600160a01b0392909216919091179055565b6065546001600160a01b031633146124d35760405162461bcd60e51b81526004016106099061312b565b6001600160a01b0381166124f95760405162461bcd60e51b815260040161060990613d3c565b61250281612788565b50565b612578828260405160240161251b929190613dae565b60408051601f198184030181529190526020810180517bffffffffffffffffffffffffffffffffffffffffffffffffffffffff167f9710a9d00000000000000000000000000000000000000000000000000000000017905261281d565b5050565b6000818152609f6020908152604080832054858452609e9092529091205460049163ffffffff90811691600160501b90041660015b60048163ffffffff1611612621576125ca81600a6138ca565b6125d490846138ed565b63ffffffff166125e582600a6138ca565b6125ef90846138ed565b63ffffffff160361260c57612605600182613782565b9350612611565b612621565b61261a81613dce565b90506125b1565b50505092915050565b6000828152609f6020908152604080832054868452609e90925282205463ffffffff91821691600160501b9091041682612665856001613792565b61267090600a6138ca565b9050600061267e82846138ed565b63ffffffff808816600090815260a260205260409020546126a0929116613792565b905060006126ae83866138ed565b63ffffffff808916600090815260a260205260409020546126d0929116613792565b90508063ffffffff168263ffffffff160361271b576000898152609e6020526040902060060163ffffffff88166004811061270d5761270d613302565b015495505050505050612725565b6000955050505050505b9392505050565b600054610100900460ff166127535760405162461bcd60e51b815260040161060990613e42565b610e3761283e565b600054610100900460ff166127825760405162461bcd60e51b815260040161060990613e42565b60018055565b606580546001600160a01b0383811673ffffffffffffffffffffffffffffffffffffffff19831681179093556040519116919082907f8be0079c531659141344cd1fd0a4f28419497f9722a3daafe3b4186f6b6457e090600090a35050565b60006127f4826064613e52565b6127ff836062613e52565b612809848661372b565b612813919061372b565b6127259190613760565b80516a636f6e736f6c652e6c6f67602083016000808483855afa5050505050565b600054610100900460ff166128655760405162461bcd60e51b815260040161060990613e42565b610e3733612788565b826004810192821561289c579160200282015b8281111561289c578235825591602001919060010190612881565b506128a8929150612927565b5090565b604080516101a08101909152806000815260006020820181905260408201819052606082018190526080820181905260a082015260c0016128eb61293c565b81526020016128f861293c565b815260200161290561293c565b8152602001600081526020016000815260200160008152602001600081525090565b5b808211156128a85760008155600101612928565b60405180608001604052806004906020820280368337509192915050565b805b82525050565b602081016107ce828461295a565b805b811461250257600080fd5b80356107ce81612970565b60006020828403121561299d5761299d600080fd5b60006107ca848461297d565b634e487b7160e01b600052602160045260246000fd5b60048110612502576125026129a9565b806129d9816129bf565b919050565b60006107ce826129cf565b61295c816129de565b60ff811661295c565b63ffffffff811661295c565b6101408101612a16828d6129e9565b612a23602083018c6129f2565b612a30604083018b6129fb565b612a3d606083018a6129fb565b612a4a60808301896129fb565b612a5760a083018861295a565b612a6460c083018761295a565b612a7160e083018661295a565b612a7f61010083018561295a565b612a8d61012083018461295a565b9b9a5050505050505050505050565b602081016107ce82846129fb565b60008060408385031215612ac057612ac0600080fd5b6000612acc858561297d565b9250506020612add8582860161297d565b9150509250929050565b60006001600160a01b0382166107ce565b61297281612ae7565b80356107ce81612af8565b600080600060608486031215612b2457612b24600080fd5b6000612b308686612b01565b9350506020612b418682870161297d565b9250506040612b528682870161297d565b9150509250925092565b60008060408385031215612b7257612b72600080fd5b6000612acc8585612b01565b60008060408385031215612b9457612b94600080fd5b6000612ba08585612b01565b9250506020612add85828601612b01565b61295c81612ae7565b60408101612bc882856129fb565b6127256020830184612bb1565b60008083601f840112612bea57612bea600080fd5b50813567ffffffffffffffff811115612c0557612c05600080fd5b602083019150836020820283011115612c2057612c20600080fd5b9250929050565b60008060208385031215612c3d57612c3d600080fd5b823567ffffffffffffffff811115612c5757612c57600080fd5b612c6385828601612bd5565b92509250509250929050565b612c7982826129fb565b5060200190565b60200190565b6000612c90825190565b808452602093840193830160005b82811015612cc3578151612cb28782612c6f565b965050602082019150600101612c9e565b5093949350505050565b602080825281016127258184612c86565b602081016107ce8284612bb1565b60006107ce6001600160a01b038316612d03565b90565b6001600160a01b031690565b60006107ce82612cec565b60006107ce82612d0f565b61295c81612d1a565b602081016107ce8284612d25565b63ffffffff8116612972565b80356107ce81612d3c565b60008060408385031215612d6957612d69600080fd5b6000612d75858561297d565b9250506020612add85828601612d48565b600060208284031215612d9b57612d9b600080fd5b60006107ca8484612b01565b80608081018310156107ce576107ce600080fd5b60008060008060e08587031215612dd457612dd4600080fd5b6000612de0878761297d565b9450506020612df18782880161297d565b9350506040612e0287828801612da7565b92505060c0612e138782880161297d565b91505092959194509250565b600060208284031215612e3457612e34600080fd5b60006107ca8484612d48565b801515612972565b80356107ce81612e40565b60008060408385031215612e6957612e69600080fd5b6000612e75858561297d565b9250506020612add85828601612e48565b612c79828261295a565b6000612e9a825190565b808452602093840193830160005b82811015612cc3578151612ebc8782612e86565b965050602082019150600101612ea8565b602080825281016127258184612e90565b600080600080600060608688031215612ef957612ef9600080fd5b6000612f05888861297d565b955050602086013567ffffffffffffffff811115612f2557612f25600080fd5b612f3188828901612bd5565b9450945050604086013567ffffffffffffffff811115612f5357612f53600080fd5b612f5f88828901612bd5565b92509250509295509295909350565b60048160005b82811015612f99578151612f888682612e86565b955050602082019150600101612f74565b5050505050565b8051612fac83826129e9565b506020810151612fbf60208401826129f2565b506040810151612fd260408401826129fb565b506060810151612fe560608401826129fb565b506080810151612ff860808401826129fb565b5060a081015161300b60a084018261295a565b5060c081015161301e60c0840182612f6e565b5060e0810151613032610140840182612f6e565b506101008101516130476101c0840182612f6e565b5061012081015161305c61024084018261295a565b5061014081015161307161026084018261295a565b5061016081015161308661028084018261295a565b50610180810151610d286102a084018261295a565b6130a58282612fa0565b506102c00190565b60006130b7825190565b808452602093840193830160005b82811015612cc35781516130d9878261309b565b9650506020820191506001016130c5565b6020808252810161272581846130ad565b60208082527f4f776e61626c653a2063616c6c6572206973206e6f7420746865206f776e65729101908152612c80565b602080825281016107ce816130fb565b60408101613149828561295a565b612725602083018461295a565b60158152602081017f43616e6e6f7420626520444547495320746f6b656e000000000000000000000081529050612c80565b602080825281016107ce81613156565b604081016131498285612bb1565b80516107ce81612e40565b6000602082840312156131c6576131c6600080fd5b60006107ca84846131a6565b60148152602081017f436f6e7472616374206e6f7420616c6c6f77656400000000000000000000000081529050612c80565b602080825281016107ce816131d2565b601a8152602081017f50726f787920636f6e7472616374206e6f7420616c6c6f77656400000000000081529050612c80565b602080825281016107ce81613214565b601f8152602081017f5265656e7472616e637947756172643a207265656e7472616e742063616c6c0081529050612c80565b602080825281016107ce81613256565b60308152602081017f7468697320726f756e64206f66206c6f747465727920617265206e6f7420726581527f61647920666f7220636c61696d696e6700000000000000000000000000000000602082015290505b60400190565b602080825281016107ce81613298565b634e487b7160e01b600052603260045260246000fd5b60148152602081017f4e6f7420746865207469636b6574206f776e657200000000000000000000000081529050612c80565b602080825281016107ce81613318565b634e487b7160e01b600052601160045260246000fd5b600082198211156133835761338361335a565b500190565b815b915060008282101561339e5761339e61335a565b500390565b602e8152602081017f496e697469616c697a61626c653a20636f6e747261637420697320616c72656181527f647920696e697469616c697a6564000000000000000000000000000000000000602082015290506132ec565b602080825281016107ce816133a3565b634e487b7160e01b600052604160045260246000fd5b6000600182016134335761343361335a565b5060010190565b60208082527f63757272656e74206c6f7474657279206973206e6f7420636c61696d61626c659101908152612c80565b602080825281016107ce8161343a565b80516107ce81612d3c565b60006020828403121561349a5761349a600080fd5b60006107ca848461347a565b60228152602081017f74686973206c6f7474657279206973206e6f74206f70656e2063757272656e7481527f6c79000000000000000000000000000000000000000000000000000000000000602082015290506132ec565b602080825281016107ce816134a6565b600c8152602081017f57726f6e6720737461747573000000000000000000000000000000000000000081529050612c80565b602080825281016107ce8161350e565b60158152602081017f54726561737572792066656520746f6f2068696768000000000000000000000081529050612c80565b602080825281016107ce81613550565b601a8152602081017f5265776172647320627265616b646f776e20746f6f206869676800000000000081529050612c80565b602080825281016107ce81613592565b82818337506000910152565b612578608083836135d4565b61010081016135fb828861295a565b613608602083018761295a565b613615604083018661295a565b61362260608301856135e0565b61362f60e083018461295a565b9695505050505050565b60128152602081017f4c6f7474657279206e6f7420636c6f736564000000000000000000000000000081529050612c80565b602080825281016107ce81613639565b80516107ce81612970565b60006020828403121561369b5761369b600080fd5b60006107ca848461367b565b60168152602081017f46696e616c206e756d626572206e6f7420647261776e0000000000000000000081529050612c80565b602080825281016107ce816136a7565b60138152602081017f5472656173757279206973206e6f74207365740000000000000000000000000081529050612c80565b602080825281016107ce816136e9565b60008160001904831182151516156137455761374561335a565b500290565b634e487b7160e01b600052601260045260246000fd5b60008261376f5761376f61374a565b500490565b61ffff90811690821661338a565b63ffffffff90811690821661338a565b63ffffffff8116905063ffffffff8216915060008263ffffffff038211156133835761338361335a565b80825b60018511156137fb578086048111156137da576137da61335a565b60018516156137e857908102905b80026137f48560011c90565b94506137bf565b94509492505050565b60008261381357506001612725565b8161382057506000612725565b816001811461383657600281146138405761386d565b6001915050612725565b60ff8411156138515761385161335a565b8360020a9150848211156138675761386761335a565b50612725565b5060208310610133831016604e8410600b84101617156138a0575081810a8381111561389b5761389b61335a565b612725565b6138ad84848460016137bc565b925090508184048111156138c3576138c361335a565b0292915050565b63ffffffff8116905063ffffffff82169150600061272563ffffffff8484613804565b63ffffffff91821691166000826139065761390661374a565b500690565b60006107ce612d0063ffffffff841681565b61295c8161390b565b60408101613149828561391d565b600d8152602081017f4e6f7420636c61696d61626c650000000000000000000000000000000000000081529050612c80565b602080825281016107ce81613934565b600f8152602081017f4e6f742073616d65206c656e677468000000000000000000000000000000000081529050612c80565b602080825281016107ce81613976565b600a8152602081017f4e6f207469636b6574730000000000000000000000000000000000000000000081529050612c80565b602080825281016107ce816139b8565b60198152602081017f546f6f206d616e79207469636b65747320746f20636c61696d0000000000000081529050612c80565b602080825281016107ce816139fa565b60138152602081017f5469636b657420696420746f6f20736d616c6c0000000000000000000000000081529050612c80565b602080825281016107ce81613a3c565b60138152602081017f5469636b657420696420746f6f206c617267650000000000000000000000000081529050612c80565b602080825281016107ce81613a7e565b60278152602081017f4e6f7420746865207469636b6574206f776e6572206f7220616c72656164792081527f636c61696d656400000000000000000000000000000000000000000000000000602082015290506132ec565b602080825281016107ce81613ac0565b60088152602081017f4e6f207072697a6500000000000000000000000000000000000000000000000081529050612c80565b602080825281016107ce81613b28565b60128152602081017f4f6e6c792068696768657374207072697a65000000000000000000000000000081529050612c80565b602080825281016107ce81613b6a565b601b8152602081017f4e6f207469636b65747320617265206265696e6720626f75676874000000000081529050612c80565b602080825281016107ce81613bac565b60108152602081017f546f6f206d616e79207469636b6574730000000000000000000000000000000081529050612c80565b602080825281016107ce81613bee565b600e8152602081017f526f756e64206e6f74206f70656e00000000000000000000000000000000000081529050612c80565b602080825281016107ce81613c30565b60608101613c808286612bb1565b613c8d6020830185612bb1565b613c9a604083018461295a565b949350505050565b601e8152602081017f5469636b6574206e756d626572206973206f7574736964652072616e6765000081529050612c80565b602080825281016107ce81613ca2565b60268152602081017f4f776e61626c653a206e6577206f776e657220697320746865207a65726f206181527f6464726573730000000000000000000000000000000000000000000000000000602082015290506132ec565b602080825281016107ce81613ce4565b60005b83811015613d67578181015183820152602001613d4f565b83811115613d76576000848401525b50505050565b6000613d86825190565b808452602084019350613d9d818560208601613d4c565b601f01601f19169290920192915050565b60408082528101613dbf8185613d7c565b9050612725602083018461295a565b63ffffffff16600063fffffffe1982016134335761343361335a565b602b8152602081017f496e697469616c697a61626c653a20636f6e7472616374206973206e6f74206981527f6e697469616c697a696e67000000000000000000000000000000000000000000602082015290506132ec565b602080825281016107ce81613dea565b6000612725600019848461380456fea2646970667358221220cd0c885b53eeda829288fca9ea40ba67cac66199d1e0bdfa4a5fb24e432a820b64736f6c634300080d0033",
  "devdoc": {
    "kind": "dev",
    "methods": {
      "buyTickets(uint32[])": {
        "details": "Need to transfer the 4-digit number to a 5-digit number to be used here (+10000)      Can not be called by a smart contract      Can only purchase in the current round",
        "params": {
          "_ticketNumbers": "Array of ticket numbers between 10,000 and 19,999"
        }
      },
      "changeRandomGenerator(address)": {
        "details": "The calls to functions are used to verify the new generator implements them properly. It is necessary to wait for the VRF response before starting a round. Callable only by the contract owner",
        "params": {
          "_randomGeneratorAddress": "address of the random generator"
        }
      },
      "claimAllTickets(uint256)": {
        "details": "Callable by users only, not contract      Gas cost may be oversized, recommended to get brackets offchain first",
        "params": {
          "_lotteryId": "Lottery id"
        }
      },
      "claimTickets(uint256,uint256[],uint32[])": {
        "details": "Callable by users only, not contract",
        "params": {
          "_brackets": "Bracket / prize level of each ticket",
          "_lotteryId": "Lottery id",
          "_ticketIds": "Array of ticket ids"
        }
      },
      "closeLottery(uint256)": {
        "details": "Callable only by the owner",
        "params": {
          "_lotteryId": "lottery round"
        }
      },
      "drawFinalNumberAndMakeLotteryClaimable(uint256,bool)": {
        "params": {
          "_autoInjection": "Auto inject funds into next lottery",
          "_lotteryId": "Lottery round"
        }
      },
      "initialize(address,address)": {
        "details": "RandomNumberGenerator must be deployed prior to this contract",
        "params": {
          "_degis": "Address of DEG",
          "_randomGenerator": "Address of the RandomGenerator contract used to work with ChainLink VRF"
        }
      },
      "injectFunds(uint256)": {
        "params": {
          "_amount": "Amount to inject"
        }
      },
      "owner()": {
        "details": "Returns the address of the current owner."
      },
      "recoverWrongTokens(address,uint256)": {
        "params": {
          "_tokenAddress": "the address of the token to withdraw",
          "_tokenAmount": "token amount to withdraw"
        }
      },
      "renounceOwnership()": {
        "details": "Leaves the contract without owner. It will not be possible to call `onlyOwner` functions anymore. Can only be called by the current owner. NOTE: Renouncing ownership will leave the contract without an owner, thereby removing any functionality that is only available to the owner."
      },
      "setMaxNumberTicketsEachTime(uint256)": {
        "params": {
          "_maxNumber": "Max number each time"
        }
      },
      "setTreasury(address)": {
        "params": {
          "_treasury": "wallet address"
        }
      },
      "startLottery(uint256,uint256,uint256[4],uint256)": {
        "params": {
          "_endTime": "EndTime of the lottery",
          "_fee": "Treasury fee (10,000 = 100%, 100 = 1%) (set as 0)",
          "_rewardsBreakdown": "Breakdown of rewards per bracket (must sum to 10,000)(100 <=> 1)",
          "_ticketPrice": "Price of each ticket without discount"
        }
      },
      "transferOwnership(address)": {
        "details": "Transfers ownership of the contract to a new account (`newOwner`). Can only be called by the current owner."
      },
      "viewAllLottery()": {
        "returns": {
          "_0": "Array of all lottery information"
        }
      },
      "viewNumbersPerTicketId(uint256[])": {
        "params": {
          "_ticketIds": ": array of _ticketId"
        }
      },
      "viewRewardsForTicketId(uint256,uint256)": {
        "details": "This function will help to find the highest prize bracket      But this computation is encouraged to be done off-chain      Better to get bracket first and then call \"_calculateRewardsForTicketId()\"",
        "params": {
          "_lotteryId": "Lottery round",
          "_ticketId": "Ticket id"
        },
        "returns": {
          "_0": "reward Ticket reward"
        }
      },
      "viewWalletTicketIds(address,uint256)": {
        "params": {
          "_wallet": "address to check owned tickets"
        },
        "returns": {
          "_0": "_lotteryId lottery id to verify ownership"
        }
      }
    },
    "version": 1
  },
  "userdoc": {
    "kind": "user",
    "methods": {
      "buyTickets(uint32[])": {
        "notice": "Buy tickets for the current lottery round"
      },
      "changeRandomGenerator(address)": {
        "notice": "Change the random generator contract address"
      },
      "claimAllTickets(uint256)": {
        "notice": "Claim all winning tickets for a lottery round"
      },
      "claimTickets(uint256,uint256[],uint32[])": {
        "notice": "Claim winning tickets"
      },
      "closeLottery(uint256)": {
        "notice": "Close a lottery"
      },
      "drawFinalNumberAndMakeLotteryClaimable(uint256,bool)": {
        "notice": "Draw the final number, calculate reward in Degis for each group, and make this lottery claimable (need to wait for the random generator)"
      },
      "initialize(address,address)": {
        "notice": "Initialize function"
      },
      "injectFunds(uint256)": {
        "notice": "Inject funds"
      },
      "recoverWrongTokens(address,uint256)": {
        "notice": "Recover wrong tokens sent to the contract, only by the owner All tokens except Degis and USDC are wrong tokens"
      },
      "setMaxNumberTicketsEachTime(uint256)": {
        "notice": "Set max number can buy/claim/redeem each time"
      },
      "setTreasury(address)": {
        "notice": "Set treasury wallet address"
      },
      "startLottery(uint256,uint256,uint256[4],uint256)": {
        "notice": "Start the lottery"
      },
      "viewAllLottery()": {
        "notice": "View all lottery information"
      },
      "viewNumbersPerTicketId(uint256[])": {
        "notice": "View ticker statuses and numbers for an array of ticket ids"
      },
      "viewRewardsForTicketId(uint256,uint256)": {
        "notice": "View rewards for a given ticket in a given lottery round"
      },
      "viewWalletTicketIds(address,uint256)": {
        "notice": "Get the reward per ticket in 4 brackets"
      }
    },
    "version": 1
  },
  "storageLayout": {
    "storage": [
      {
        "astId": 2523,
        "contract": "contracts/lucky-box/DegisLotteryV2.sol:DegisLotteryV2",
        "label": "_initialized",
        "offset": 0,
        "slot": "0",
        "type": "t_bool"
      },
      {
        "astId": 2526,
        "contract": "contracts/lucky-box/DegisLotteryV2.sol:DegisLotteryV2",
        "label": "_initializing",
        "offset": 1,
        "slot": "0",
        "type": "t_bool"
      },
      {
        "astId": 2715,
        "contract": "contracts/lucky-box/DegisLotteryV2.sol:DegisLotteryV2",
        "label": "_status",
        "offset": 0,
        "slot": "1",
        "type": "t_uint256"
      },
      {
        "astId": 2759,
        "contract": "contracts/lucky-box/DegisLotteryV2.sol:DegisLotteryV2",
        "label": "__gap",
        "offset": 0,
        "slot": "2",
        "type": "t_array(t_uint256)49_storage"
      },
      {
        "astId": 3760,
        "contract": "contracts/lucky-box/DegisLotteryV2.sol:DegisLotteryV2",
        "label": "__gap",
        "offset": 0,
        "slot": "51",
        "type": "t_array(t_uint256)50_storage"
      },
      {
        "astId": 2403,
        "contract": "contracts/lucky-box/DegisLotteryV2.sol:DegisLotteryV2",
        "label": "_owner",
        "offset": 0,
        "slot": "101",
        "type": "t_address"
      },
      {
        "astId": 2515,
        "contract": "contracts/lucky-box/DegisLotteryV2.sol:DegisLotteryV2",
        "label": "__gap",
        "offset": 0,
        "slot": "102",
        "type": "t_array(t_uint256)49_storage"
      },
      {
        "astId": 22138,
        "contract": "contracts/lucky-box/DegisLotteryV2.sol:DegisLotteryV2",
        "label": "DegisToken",
        "offset": 0,
        "slot": "151",
        "type": "t_contract(IERC20)5363"
      },
      {
        "astId": 22141,
        "contract": "contracts/lucky-box/DegisLotteryV2.sol:DegisLotteryV2",
        "label": "randomGenerator",
        "offset": 0,
        "slot": "152",
        "type": "t_contract(IRandomNumberGenerator)24481"
      },
      {
        "astId": 22143,
        "contract": "contracts/lucky-box/DegisLotteryV2.sol:DegisLotteryV2",
        "label": "treasury",
        "offset": 0,
        "slot": "153",
        "type": "t_address"
      },
      {
        "astId": 22145,
        "contract": "contracts/lucky-box/DegisLotteryV2.sol:DegisLotteryV2",
        "label": "currentLotteryId",
        "offset": 0,
        "slot": "154",
        "type": "t_uint256"
      },
      {
        "astId": 22147,
        "contract": "contracts/lucky-box/DegisLotteryV2.sol:DegisLotteryV2",
        "label": "currentTicketId",
        "offset": 0,
        "slot": "155",
        "type": "t_uint256"
      },
      {
        "astId": 22149,
        "contract": "contracts/lucky-box/DegisLotteryV2.sol:DegisLotteryV2",
        "label": "maxNumberTicketsEachTime",
        "offset": 0,
        "slot": "156",
        "type": "t_uint256"
      },
      {
        "astId": 22151,
        "contract": "contracts/lucky-box/DegisLotteryV2.sol:DegisLotteryV2",
        "label": "pendingInjectionNextLottery",
        "offset": 0,
        "slot": "157",
        "type": "t_uint256"
      },
      {
        "astId": 22195,
        "contract": "contracts/lucky-box/DegisLotteryV2.sol:DegisLotteryV2",
        "label": "lotteries",
        "offset": 0,
        "slot": "158",
        "type": "t_mapping(t_uint256,t_struct(Lottery)22190_storage)"
      },
      {
        "astId": 22205,
        "contract": "contracts/lucky-box/DegisLotteryV2.sol:DegisLotteryV2",
        "label": "tickets",
        "offset": 0,
        "slot": "159",
        "type": "t_mapping(t_uint256,t_struct(Ticket)22200_storage)"
      },
      {
        "astId": 22211,
        "contract": "contracts/lucky-box/DegisLotteryV2.sol:DegisLotteryV2",
        "label": "_numberTicketsPerLotteryId",
        "offset": 0,
        "slot": "160",
        "type": "t_mapping(t_uint256,t_mapping(t_uint32,t_uint256))"
      },
      {
        "astId": 22218,
        "contract": "contracts/lucky-box/DegisLotteryV2.sol:DegisLotteryV2",
        "label": "_userTicketIds",
        "offset": 0,
        "slot": "161",
        "type": "t_mapping(t_address,t_mapping(t_uint256,t_array(t_uint256)dyn_storage))"
      },
      {
        "astId": 22222,
        "contract": "contracts/lucky-box/DegisLotteryV2.sol:DegisLotteryV2",
        "label": "_bracketCalculator",
        "offset": 0,
        "slot": "162",
        "type": "t_mapping(t_uint32,t_uint32)"
      }
    ],
    "types": {
      "t_address": {
        "encoding": "inplace",
        "label": "address",
        "numberOfBytes": "20"
      },
      "t_array(t_uint256)49_storage": {
        "base": "t_uint256",
        "encoding": "inplace",
        "label": "uint256[49]",
        "numberOfBytes": "1568"
      },
      "t_array(t_uint256)4_storage": {
        "base": "t_uint256",
        "encoding": "inplace",
        "label": "uint256[4]",
        "numberOfBytes": "128"
      },
      "t_array(t_uint256)50_storage": {
        "base": "t_uint256",
        "encoding": "inplace",
        "label": "uint256[50]",
        "numberOfBytes": "1600"
      },
      "t_array(t_uint256)dyn_storage": {
        "base": "t_uint256",
        "encoding": "dynamic_array",
        "label": "uint256[]",
        "numberOfBytes": "32"
      },
      "t_bool": {
        "encoding": "inplace",
        "label": "bool",
        "numberOfBytes": "1"
      },
      "t_contract(IERC20)5363": {
        "encoding": "inplace",
        "label": "contract IERC20",
        "numberOfBytes": "20"
      },
      "t_contract(IRandomNumberGenerator)24481": {
        "encoding": "inplace",
        "label": "contract IRandomNumberGenerator",
        "numberOfBytes": "20"
      },
      "t_enum(Status)22156": {
        "encoding": "inplace",
        "label": "enum DegisLotteryV2.Status",
        "numberOfBytes": "1"
      },
      "t_mapping(t_address,t_mapping(t_uint256,t_array(t_uint256)dyn_storage))": {
        "encoding": "mapping",
        "key": "t_address",
        "label": "mapping(address => mapping(uint256 => uint256[]))",
        "numberOfBytes": "32",
        "value": "t_mapping(t_uint256,t_array(t_uint256)dyn_storage)"
      },
      "t_mapping(t_uint256,t_array(t_uint256)dyn_storage)": {
        "encoding": "mapping",
        "key": "t_uint256",
        "label": "mapping(uint256 => uint256[])",
        "numberOfBytes": "32",
        "value": "t_array(t_uint256)dyn_storage"
      },
      "t_mapping(t_uint256,t_mapping(t_uint32,t_uint256))": {
        "encoding": "mapping",
        "key": "t_uint256",
        "label": "mapping(uint256 => mapping(uint32 => uint256))",
        "numberOfBytes": "32",
        "value": "t_mapping(t_uint32,t_uint256)"
      },
      "t_mapping(t_uint256,t_struct(Lottery)22190_storage)": {
        "encoding": "mapping",
        "key": "t_uint256",
        "label": "mapping(uint256 => struct DegisLotteryV2.Lottery)",
        "numberOfBytes": "32",
        "value": "t_struct(Lottery)22190_storage"
      },
      "t_mapping(t_uint256,t_struct(Ticket)22200_storage)": {
        "encoding": "mapping",
        "key": "t_uint256",
        "label": "mapping(uint256 => struct DegisLotteryV2.Ticket)",
        "numberOfBytes": "32",
        "value": "t_struct(Ticket)22200_storage"
      },
      "t_mapping(t_uint32,t_uint256)": {
        "encoding": "mapping",
        "key": "t_uint32",
        "label": "mapping(uint32 => uint256)",
        "numberOfBytes": "32",
        "value": "t_uint256"
      },
      "t_mapping(t_uint32,t_uint32)": {
        "encoding": "mapping",
        "key": "t_uint32",
        "label": "mapping(uint32 => uint32)",
        "numberOfBytes": "32",
        "value": "t_uint32"
      },
      "t_struct(Lottery)22190_storage": {
        "encoding": "inplace",
        "label": "struct DegisLotteryV2.Lottery",
        "members": [
          {
            "astId": 22159,
            "contract": "contracts/lucky-box/DegisLotteryV2.sol:DegisLotteryV2",
            "label": "status",
            "offset": 0,
            "slot": "0",
            "type": "t_enum(Status)22156"
          },
          {
            "astId": 22161,
            "contract": "contracts/lucky-box/DegisLotteryV2.sol:DegisLotteryV2",
            "label": "treasuryFee",
            "offset": 1,
            "slot": "0",
            "type": "t_uint8"
          },
          {
            "astId": 22163,
            "contract": "contracts/lucky-box/DegisLotteryV2.sol:DegisLotteryV2",
            "label": "startTime",
            "offset": 2,
            "slot": "0",
            "type": "t_uint32"
          },
          {
            "astId": 22165,
            "contract": "contracts/lucky-box/DegisLotteryV2.sol:DegisLotteryV2",
            "label": "endTime",
            "offset": 6,
            "slot": "0",
            "type": "t_uint32"
          },
          {
            "astId": 22167,
            "contract": "contracts/lucky-box/DegisLotteryV2.sol:DegisLotteryV2",
            "label": "finalNumber",
            "offset": 10,
            "slot": "0",
            "type": "t_uint32"
          },
          {
            "astId": 22169,
            "contract": "contracts/lucky-box/DegisLotteryV2.sol:DegisLotteryV2",
            "label": "ticketPrice",
            "offset": 0,
            "slot": "1",
            "type": "t_uint256"
          },
          {
            "astId": 22173,
            "contract": "contracts/lucky-box/DegisLotteryV2.sol:DegisLotteryV2",
            "label": "rewardsBreakdown",
            "offset": 0,
            "slot": "2",
            "type": "t_array(t_uint256)4_storage"
          },
          {
            "astId": 22177,
            "contract": "contracts/lucky-box/DegisLotteryV2.sol:DegisLotteryV2",
            "label": "rewardPerTicketInBracket",
            "offset": 0,
            "slot": "6",
            "type": "t_array(t_uint256)4_storage"
          },
          {
            "astId": 22181,
            "contract": "contracts/lucky-box/DegisLotteryV2.sol:DegisLotteryV2",
            "label": "countWinnersPerBracket",
            "offset": 0,
            "slot": "10",
            "type": "t_array(t_uint256)4_storage"
          },
          {
            "astId": 22183,
            "contract": "contracts/lucky-box/DegisLotteryV2.sol:DegisLotteryV2",
            "label": "firstTicketId",
            "offset": 0,
            "slot": "14",
            "type": "t_uint256"
          },
          {
            "astId": 22185,
            "contract": "contracts/lucky-box/DegisLotteryV2.sol:DegisLotteryV2",
            "label": "firstTicketIdNextRound",
            "offset": 0,
            "slot": "15",
            "type": "t_uint256"
          },
          {
            "astId": 22187,
            "contract": "contracts/lucky-box/DegisLotteryV2.sol:DegisLotteryV2",
            "label": "amountCollected",
            "offset": 0,
            "slot": "16",
            "type": "t_uint256"
          },
          {
            "astId": 22189,
            "contract": "contracts/lucky-box/DegisLotteryV2.sol:DegisLotteryV2",
            "label": "pendingRewards",
            "offset": 0,
            "slot": "17",
            "type": "t_uint256"
          }
        ],
        "numberOfBytes": "576"
      },
      "t_struct(Ticket)22200_storage": {
        "encoding": "inplace",
        "label": "struct DegisLotteryV2.Ticket",
        "members": [
          {
            "astId": 22197,
            "contract": "contracts/lucky-box/DegisLotteryV2.sol:DegisLotteryV2",
            "label": "number",
            "offset": 0,
            "slot": "0",
            "type": "t_uint32"
          },
          {
            "astId": 22199,
            "contract": "contracts/lucky-box/DegisLotteryV2.sol:DegisLotteryV2",
            "label": "owner",
            "offset": 4,
            "slot": "0",
            "type": "t_address"
          }
        ],
        "numberOfBytes": "32"
      },
      "t_uint256": {
        "encoding": "inplace",
        "label": "uint256",
        "numberOfBytes": "32"
      },
      "t_uint32": {
        "encoding": "inplace",
        "label": "uint32",
        "numberOfBytes": "4"
      },
      "t_uint8": {
        "encoding": "inplace",
        "label": "uint8",
        "numberOfBytes": "1"
      }
    }
  }
}