{
  "address": "0xc3CE56565dd0FC477322a94839801fE605aec8d6",
  "abi": [
    {
      "inputs": [],
      "stateMutability": "nonpayable",
      "type": "constructor"
    },
    {
      "anonymous": false,
      "inputs": [
        {
          "indexed": true,
          "internalType": "address",
          "name": "owner",
          "type": "address"
        },
        {
          "indexed": true,
          "internalType": "address",
          "name": "spender",
          "type": "address"
        },
        {
          "indexed": false,
          "internalType": "uint256",
          "name": "value",
          "type": "uint256"
        }
      ],
      "name": "Approval",
      "type": "event"
    },
    {
      "anonymous": false,
      "inputs": [
        {
          "indexed": true,
          "internalType": "address",
          "name": "account",
          "type": "address"
        },
        {
          "indexed": false,
          "internalType": "uint256",
          "name": "amount",
          "type": "uint256"
        }
      ],
      "name": "Burn",
      "type": "event"
    },
    {
      "anonymous": false,
      "inputs": [
        {
          "indexed": false,
          "internalType": "address",
          "name": "newBurner",
          "type": "address"
        }
      ],
      "name": "BurnerAdded",
      "type": "event"
    },
    {
      "anonymous": false,
      "inputs": [
        {
          "indexed": false,
          "internalType": "address",
          "name": "oldBurner",
          "type": "address"
        }
      ],
      "name": "BurnerRemoved",
      "type": "event"
    },
    {
      "anonymous": false,
      "inputs": [
        {
          "indexed": true,
          "internalType": "address",
          "name": "account",
          "type": "address"
        },
        {
          "indexed": false,
          "internalType": "uint256",
          "name": "amount",
          "type": "uint256"
        }
      ],
      "name": "Mint",
      "type": "event"
    },
    {
      "anonymous": false,
      "inputs": [
        {
          "indexed": false,
          "internalType": "address",
          "name": "newMinter",
          "type": "address"
        }
      ],
      "name": "MinterAdded",
      "type": "event"
    },
    {
      "anonymous": false,
      "inputs": [
        {
          "indexed": false,
          "internalType": "address",
          "name": "oldMinter",
          "type": "address"
        }
      ],
      "name": "MinterRemoved",
      "type": "event"
    },
    {
      "anonymous": false,
      "inputs": [
        {
          "indexed": true,
          "internalType": "address",
          "name": "previousOwner",
          "type": "address"
        },
        {
          "indexed": true,
          "internalType": "address",
          "name": "newOwner",
          "type": "address"
        }
      ],
      "name": "OwnershipTransferred",
      "type": "event"
    },
    {
      "anonymous": false,
      "inputs": [
        {
          "indexed": true,
          "internalType": "address",
          "name": "from",
          "type": "address"
        },
        {
          "indexed": true,
          "internalType": "address",
          "name": "to",
          "type": "address"
        },
        {
          "indexed": false,
          "internalType": "uint256",
          "name": "value",
          "type": "uint256"
        }
      ],
      "name": "Transfer",
      "type": "event"
    },
    {
      "inputs": [],
      "name": "CAP",
      "outputs": [
        {
          "internalType": "uint256",
          "name": "",
          "type": "uint256"
        }
      ],
      "stateMutability": "view",
      "type": "function"
    },
    {
      "inputs": [],
      "name": "DOMAIN_SEPARATOR",
      "outputs": [
        {
          "internalType": "bytes32",
          "name": "",
          "type": "bytes32"
        }
      ],
      "stateMutability": "view",
      "type": "function"
    },
    {
      "inputs": [
        {
          "internalType": "address",
          "name": "_newBurner",
          "type": "address"
        }
      ],
      "name": "addBurner",
      "outputs": [],
      "stateMutability": "nonpayable",
      "type": "function"
    },
    {
      "inputs": [
        {
          "internalType": "address",
          "name": "_newMinter",
          "type": "address"
        }
      ],
      "name": "addMinter",
      "outputs": [],
      "stateMutability": "nonpayable",
      "type": "function"
    },
    {
      "inputs": [
        {
          "internalType": "address",
          "name": "owner",
          "type": "address"
        },
        {
          "internalType": "address",
          "name": "spender",
          "type": "address"
        }
      ],
      "name": "allowance",
      "outputs": [
        {
          "internalType": "uint256",
          "name": "",
          "type": "uint256"
        }
      ],
      "stateMutability": "view",
      "type": "function"
    },
    {
      "inputs": [
        {
          "internalType": "address",
          "name": "spender",
          "type": "address"
        },
        {
          "internalType": "uint256",
          "name": "amount",
          "type": "uint256"
        }
      ],
      "name": "approve",
      "outputs": [
        {
          "internalType": "bool",
          "name": "",
          "type": "bool"
        }
      ],
      "stateMutability": "nonpayable",
      "type": "function"
    },
    {
      "inputs": [
        {
          "internalType": "address",
          "name": "account",
          "type": "address"
        }
      ],
      "name": "balanceOf",
      "outputs": [
        {
          "internalType": "uint256",
          "name": "",
          "type": "uint256"
        }
      ],
      "stateMutability": "view",
      "type": "function"
    },
    {
      "inputs": [
        {
          "internalType": "address",
          "name": "_account",
          "type": "address"
        },
        {
          "internalType": "uint256",
          "name": "_amount",
          "type": "uint256"
        }
      ],
      "name": "burnDegis",
      "outputs": [],
      "stateMutability": "nonpayable",
      "type": "function"
    },
    {
      "inputs": [],
      "name": "decimals",
      "outputs": [
        {
          "internalType": "uint8",
          "name": "",
          "type": "uint8"
        }
      ],
      "stateMutability": "view",
      "type": "function"
    },
    {
      "inputs": [
        {
          "internalType": "address",
          "name": "spender",
          "type": "address"
        },
        {
          "internalType": "uint256",
          "name": "subtractedValue",
          "type": "uint256"
        }
      ],
      "name": "decreaseAllowance",
      "outputs": [
        {
          "internalType": "bool",
          "name": "",
          "type": "bool"
        }
      ],
      "stateMutability": "nonpayable",
      "type": "function"
    },
    {
      "inputs": [
        {
          "internalType": "address",
          "name": "spender",
          "type": "address"
        },
        {
          "internalType": "uint256",
          "name": "addedValue",
          "type": "uint256"
        }
      ],
      "name": "increaseAllowance",
      "outputs": [
        {
          "internalType": "bool",
          "name": "",
          "type": "bool"
        }
      ],
      "stateMutability": "nonpayable",
      "type": "function"
    },
    {
      "inputs": [
        {
          "internalType": "address",
          "name": "",
          "type": "address"
        }
      ],
      "name": "isBurner",
      "outputs": [
        {
          "internalType": "bool",
          "name": "",
          "type": "bool"
        }
      ],
      "stateMutability": "view",
      "type": "function"
    },
    {
      "inputs": [
        {
          "internalType": "address",
          "name": "",
          "type": "address"
        }
      ],
      "name": "isMinter",
      "outputs": [
        {
          "internalType": "bool",
          "name": "",
          "type": "bool"
        }
      ],
      "stateMutability": "view",
      "type": "function"
    },
    {
      "inputs": [
        {
          "internalType": "address",
          "name": "_account",
          "type": "address"
        },
        {
          "internalType": "uint256",
          "name": "_amount",
          "type": "uint256"
        }
      ],
      "name": "mintDegis",
      "outputs": [],
      "stateMutability": "nonpayable",
      "type": "function"
    },
    {
      "inputs": [],
      "name": "name",
      "outputs": [
        {
          "internalType": "string",
          "name": "",
          "type": "string"
        }
      ],
      "stateMutability": "view",
      "type": "function"
    },
    {
      "inputs": [
        {
          "internalType": "address",
          "name": "owner",
          "type": "address"
        }
      ],
      "name": "nonces",
      "outputs": [
        {
          "internalType": "uint256",
          "name": "",
          "type": "uint256"
        }
      ],
      "stateMutability": "view",
      "type": "function"
    },
    {
      "inputs": [],
      "name": "owner",
      "outputs": [
        {
          "internalType": "address",
          "name": "",
          "type": "address"
        }
      ],
      "stateMutability": "view",
      "type": "function"
    },
    {
      "inputs": [
        {
          "internalType": "address",
          "name": "owner",
          "type": "address"
        },
        {
          "internalType": "address",
          "name": "spender",
          "type": "address"
        },
        {
          "internalType": "uint256",
          "name": "value",
          "type": "uint256"
        },
        {
          "internalType": "uint256",
          "name": "deadline",
          "type": "uint256"
        },
        {
          "internalType": "uint8",
          "name": "v",
          "type": "uint8"
        },
        {
          "internalType": "bytes32",
          "name": "r",
          "type": "bytes32"
        },
        {
          "internalType": "bytes32",
          "name": "s",
          "type": "bytes32"
        }
      ],
      "name": "permit",
      "outputs": [],
      "stateMutability": "nonpayable",
      "type": "function"
    },
    {
      "inputs": [
        {
          "internalType": "address",
          "name": "_oldBurner",
          "type": "address"
        }
      ],
      "name": "removeBurner",
      "outputs": [],
      "stateMutability": "nonpayable",
      "type": "function"
    },
    {
      "inputs": [
        {
          "internalType": "address",
          "name": "_oldMinter",
          "type": "address"
        }
      ],
      "name": "removeMinter",
      "outputs": [],
      "stateMutability": "nonpayable",
      "type": "function"
    },
    {
      "inputs": [],
      "name": "renounceOwnership",
      "outputs": [],
      "stateMutability": "nonpayable",
      "type": "function"
    },
    {
      "inputs": [],
      "name": "symbol",
      "outputs": [
        {
          "internalType": "string",
          "name": "",
          "type": "string"
        }
      ],
      "stateMutability": "view",
      "type": "function"
    },
    {
      "inputs": [],
      "name": "totalSupply",
      "outputs": [
        {
          "internalType": "uint256",
          "name": "",
          "type": "uint256"
        }
      ],
      "stateMutability": "view",
      "type": "function"
    },
    {
      "inputs": [
        {
          "internalType": "address",
          "name": "recipient",
          "type": "address"
        },
        {
          "internalType": "uint256",
          "name": "amount",
          "type": "uint256"
        }
      ],
      "name": "transfer",
      "outputs": [
        {
          "internalType": "bool",
          "name": "",
          "type": "bool"
        }
      ],
      "stateMutability": "nonpayable",
      "type": "function"
    },
    {
      "inputs": [
        {
          "internalType": "address",
          "name": "sender",
          "type": "address"
        },
        {
          "internalType": "address",
          "name": "recipient",
          "type": "address"
        },
        {
          "internalType": "uint256",
          "name": "amount",
          "type": "uint256"
        }
      ],
      "name": "transferFrom",
      "outputs": [
        {
          "internalType": "bool",
          "name": "",
          "type": "bool"
        }
      ],
      "stateMutability": "nonpayable",
      "type": "function"
    },
    {
      "inputs": [
        {
          "internalType": "address",
          "name": "newOwner",
          "type": "address"
        }
      ],
      "name": "transferOwnership",
      "outputs": [],
      "stateMutability": "nonpayable",
      "type": "function"
    }
  ],
  "transactionHash": "0xe2df1fe340d1e945c4f07d3df7c6a0f734dfcb6c8c8b04d598b2de1c7754b510",
  "args": [],
  "numDeployments": 1,
  "solcInputHash": "dac4e5fe3f0ddff2793c693a8a6aab18",
  "bytecode": "0x6101606040527f6e71edae12b1b97f4d1f60370fef10105fa2faae0126114a169c64845d6126c9610140523480156200003757600080fd5b506040518060400160405280600a8152602001692232b3b4b9aa37b5b2b760b11b8152506040518060400160405280600381526020016244454760e81b815250338280604051806040016040528060018152602001603160f81b81525085858160039080519060200190620000ae929190620001e9565b508051620000c4906004906020840190620001e9565b5050825160208085019190912083519184019190912060e08290526101008190524660a0529091507f8b73c3c69bb8fe3d512ecc4cf759cc79239f7b179b0ffacaa9a75d522b39400f6200011a8184846200015b565b6080523060c052610120525062000138935084925050620001979050565b5050336000908152600760205260409020805460ff191660011790555062000343565b6000838383463060405160200162000178959493929190620002a7565b6040516020818303038152906040528051906020012090509392505050565b600680546001600160a01b038381166001600160a01b0319831681179093556040519116919082907f8be0079c531659141344cd1fd0a4f28419497f9722a3daafe3b4186f6b6457e090600090a35050565b828054620001f79062000313565b90600052602060002090601f0160209004810192826200021b576000855562000266565b82601f106200023657805160ff191683800117855562000266565b8280016001018555821562000266579182015b828111156200026657825182559160200191906001019062000249565b506200027492915062000278565b5090565b5b8082111562000274576000815560010162000279565b805b82525050565b6001600160a01b03811662000291565b60a08101620002b782886200028f565b620002c660208301876200028f565b620002d560408301866200028f565b620002e460608301856200028f565b620002f3608083018462000297565b9695505050505050565b634e487b7160e01b600052602260045260246000fd5b6002810460018216806200032857607f821691505b6020821081036200033d576200033d620002fd565b50919050565b60805160a05160c05160e051610100516101205161014051611fec6200039e600039600061090701526000610d4601526000610d8801526000610d6701526000610ccb01526000610cf501526000610d1f0152611fec6000f3fe608060405234801561001057600080fd5b50600436106101ae5760003560e01c80637ecebe00116100ee578063aa271e1a11610097578063dd62ed3e11610071578063dd62ed3e14610384578063ec81b483146103bd578063f2fde38b146103cf578063f44637ba146103e257600080fd5b8063aa271e1a1461033b578063b47673981461035e578063d505accf1461037157600080fd5b8063983b2d56116100c8578063983b2d5614610302578063a457c2d714610315578063a9059cbb1461032857600080fd5b80637ecebe00146102ce5780638da5cb5b146102e157806395d89b41146102fa57600080fd5b8063313ce5671161015b5780634334614a116101355780634334614a146102675780636858da9a1461028a57806370a082311461029d578063715018a6146102c657600080fd5b8063313ce5671461023d5780633644e5151461024c578063395093511461025457600080fd5b806318160ddd1161018c57806318160ddd1461020657806323b872dd146102175780633092afd51461022a57600080fd5b806302846858146101b357806306fdde03146101c8578063095ea7b3146101e6575b600080fd5b6101c66101c136600461134c565b6103f5565b005b6101d06104ca565b6040516101dd91906113d3565b60405180910390f35b6101f96101f43660046113fc565b61055c565b6040516101dd9190611443565b6002545b6040516101dd9190611457565b6101f9610225366004611465565b610573565b6101c661023836600461134c565b6105dc565b60126040516101dd91906114be565b61020a61069d565b6101f96102623660046113fc565b6106ac565b6101f961027536600461134c565b60086020526000908152604090205460ff1681565b6101c66102983660046113fc565b6106e8565b61020a6102ab36600461134c565b6001600160a01b031660009081526020819052604090205490565b6101c66106f6565b61020a6102dc36600461134c565b61073b565b6006546001600160a01b03166040516101dd91906114d5565b6101d0610759565b6101c661031036600461134c565b610768565b6101f96103233660046113fc565b61082d565b6101f96103363660046113fc565b610888565b6101f961034936600461134c565b60076020526000908152604090205460ff1681565b6101c661036c3660046113fc565b610895565b6101c661037f3660046114f7565b6108e3565b61020a610392366004611596565b6001600160a01b03918216600090815260016020908152604080832093909416825291909152205490565b61020a6a52b7d2dcc80cd2e400000081565b6101c66103dd36600461134c565b6109c5565b6101c66103f036600461134c565b610a30565b336104086006546001600160a01b031690565b6001600160a01b0316146104375760405162461bcd60e51b815260040161042e906115fb565b60405180910390fd5b6001600160a01b03811660009081526007602052604090205460ff1661046f5760405162461bcd60e51b815260040161042e9061163d565b6001600160a01b03811660009081526008602052604090819020805460ff19169055517f90eabbc0c667db2a5029ed6bc0f5fe9f356d11684a4ca9fcfaec0e53f12b9c8e906104bf9083906114d5565b60405180910390a150565b6060600380546104d990611663565b80601f016020809104026020016040519081016040528092919081815260200182805461050590611663565b80156105525780601f1061052757610100808354040283529160200191610552565b820191906000526020600020905b81548152906001019060200180831161053557829003601f168201915b5050505050905090565b6000610569338484610af5565b5060015b92915050565b6000610580848484610ba9565b6001600160a01b0384166000908152600160209081526040808320338452909152902054828110156105c45760405162461bcd60e51b815260040161042e906116e3565b6105d18533858403610af5565b506001949350505050565b336105ef6006546001600160a01b031690565b6001600160a01b0316146106155760405162461bcd60e51b815260040161042e906115fb565b6001600160a01b03811660009081526007602052604090205460ff1661064d5760405162461bcd60e51b815260040161042e90611725565b6001600160a01b03811660009081526007602052604090819020805460ff19169055517fe94479a9f7e1952cc78f2d6baab678adc1b772d936c6583def489e524cb66692906104bf9083906114d5565b60006106a7610cbe565b905090565b3360008181526001602090815260408083206001600160a01b038716845290915281205490916105699185906106e390869061174b565b610af5565b6106f28282610dac565b5050565b336107096006546001600160a01b031690565b6001600160a01b03161461072f5760405162461bcd60e51b815260040161042e906115fb565b6107396000610e2b565b565b6001600160a01b03811660009081526005602052604081205461056d565b6060600480546104d990611663565b3361077b6006546001600160a01b031690565b6001600160a01b0316146107a15760405162461bcd60e51b815260040161042e906115fb565b6001600160a01b03811660009081526007602052604090205460ff16156107da5760405162461bcd60e51b815260040161042e90611795565b6001600160a01b03811660009081526007602052604090819020805460ff19166001179055517f6ae172837ea30b801fbfcdd4108aa1d5bf8ff775444fd70256b44e6bf3dfc3f6906104bf9083906114d5565b3360009081526001602090815260408083206001600160a01b0386168452909152812054828110156108715760405162461bcd60e51b815260040161042e906117fd565b61087e3385858403610af5565b5060019392505050565b6000610569338484610ba9565b806a52b7d2dcc80cd2e4000000816108ac60025490565b6108b6919061174b565b11156108d45760405162461bcd60e51b815260040161042e90611865565b6108de8383610e95565b505050565b834211156109035760405162461bcd60e51b815260040161042e906118a7565b60007f00000000000000000000000000000000000000000000000000000000000000008888886109328c610f07565b89604051602001610948969594939291906118b7565b604051602081830303815290604052805190602001209050600061096b82610f2f565b9050600061097b82878787610f42565b9050896001600160a01b0316816001600160a01b0316146109ae5760405162461bcd60e51b815260040161042e90611943565b6109b98a8a8a610af5565b50505050505050505050565b336109d86006546001600160a01b031690565b6001600160a01b0316146109fe5760405162461bcd60e51b815260040161042e906115fb565b6001600160a01b038116610a245760405162461bcd60e51b815260040161042e906119ab565b610a2d81610e2b565b50565b33610a436006546001600160a01b031690565b6001600160a01b031614610a695760405162461bcd60e51b815260040161042e906115fb565b6001600160a01b03811660009081526008602052604090205460ff1615610aa25760405162461bcd60e51b815260040161042e906119ed565b6001600160a01b03811660009081526008602052604090819020805460ff19166001179055517f86e57fd2b90329052917118de7c3f521f400d439b9650deaa906a25b08b94560906104bf9083906114d5565b6001600160a01b038316610b1b5760405162461bcd60e51b815260040161042e90611a55565b6001600160a01b038216610b415760405162461bcd60e51b815260040161042e90611abd565b6001600160a01b0380841660008181526001602090815260408083209487168084529490915290819020849055517f8c5be1e5ebec7d5bd14f71427d1e84f3dd0314c0f7b2291e5b200ac8c7c3b92590610b9c908590611457565b60405180910390a3505050565b6001600160a01b038316610bcf5760405162461bcd60e51b815260040161042e90611b25565b6001600160a01b038216610bf55760405162461bcd60e51b815260040161042e90611b8d565b6001600160a01b03831660009081526020819052604090205481811015610c2e5760405162461bcd60e51b815260040161042e90611bf5565b6001600160a01b03808516600090815260208190526040808220858503905591851681529081208054849290610c6590849061174b565b92505081905550826001600160a01b0316846001600160a01b03167fddf252ad1be2c89b69c2b068fc378daa952ba7f163c4a11628f55a4df523b3ef84604051610caf9190611457565b60405180910390a35b50505050565b6000306001600160a01b037f000000000000000000000000000000000000000000000000000000000000000016148015610d1757507f000000000000000000000000000000000000000000000000000000000000000046145b15610d4157507f000000000000000000000000000000000000000000000000000000000000000090565b6106a77f00000000000000000000000000000000000000000000000000000000000000007f00000000000000000000000000000000000000000000000000000000000000007f0000000000000000000000000000000000000000000000000000000000000000610f6a565b3360008181526008602052604090205460ff16610ddb5760405162461bcd60e51b815260040161042e90611c37565b610de58383610fa4565b826001600160a01b03167fcc16f5dbb4873280815c1ee09dbd06736cffcc184412cf7a71a0fdb75d397ca583604051610e1e9190611457565b60405180910390a2505050565b600680546001600160a01b038381167fffffffffffffffffffffffff0000000000000000000000000000000000000000831681179093556040519116919082907f8be0079c531659141344cd1fd0a4f28419497f9722a3daafe3b4186f6b6457e090600090a35050565b3360008181526007602052604090205460ff16610ec45760405162461bcd60e51b815260040161042e90611c79565b610ece8383611075565b826001600160a01b03167f0f6798a560793a54c3bcfe86a93cde1e73087d944c0ea20544137d412139688583604051610e1e9190611457565b6001600160a01b03811660009081526005602052604090208054600181018255905b50919050565b600061056d610f3c610cbe565b83611129565b6000806000610f538787878761115c565b91509150610f608161123c565b5095945050505050565b60008383834630604051602001610f85959493929190611c89565b6040516020818303038152906040528051906020012090509392505050565b6001600160a01b038216610fca5760405162461bcd60e51b815260040161042e90611d2d565b6001600160a01b038216600090815260208190526040902054818110156110035760405162461bcd60e51b815260040161042e90611d95565b6001600160a01b0383166000908152602081905260408120838303905560028054849290611032908490611da5565b90915550506040516000906001600160a01b038516907fddf252ad1be2c89b69c2b068fc378daa952ba7f163c4a11628f55a4df523b3ef90610b9c908690611457565b6001600160a01b03821661109b5760405162461bcd60e51b815260040161042e90611dee565b80600260008282546110ad919061174b565b90915550506001600160a01b038216600090815260208190526040812080548392906110da90849061174b565b90915550506040516001600160a01b038316906000907fddf252ad1be2c89b69c2b068fc378daa952ba7f163c4a11628f55a4df523b3ef9061111d908590611457565b60405180910390a35050565b6000828260405160200161113e929190611dfe565b60405160208183030381529060405280519060200120905092915050565b6000807f7fffffffffffffffffffffffffffffff5d576e7357a4501ddfe92f46681b20a08311156111935750600090506003611233565b8460ff16601b141580156111ab57508460ff16601c14155b156111bc5750600090506004611233565b6000600187878787604051600081526020016040526040516111e19493929190611e44565b6020604051602081039080840390855afa158015611203573d6000803e3d6000fd5b5050604051601f1901519150506001600160a01b03811661122c57600060019250925050611233565b9150600090505b94509492505050565b600081600481111561125057611250611e82565b036112585750565b600181600481111561126c5761126c611e82565b036112895760405162461bcd60e51b815260040161042e90611eca565b600281600481111561129d5761129d611e82565b036112ba5760405162461bcd60e51b815260040161042e90611f0c565b60038160048111156112ce576112ce611e82565b036112eb5760405162461bcd60e51b815260040161042e90611f59565b60048160048111156112ff576112ff611e82565b03610a2d5760405162461bcd60e51b815260040161042e90611fa6565b60006001600160a01b03821661056d565b6113368161131c565b8114610a2d57600080fd5b803561056d8161132d565b60006020828403121561136157611361600080fd5b600061136d8484611341565b949350505050565b60005b83811015611390578181015183820152602001611378565b83811115610cb85750506000910152565b60006113ab825190565b8084526020840193506113c2818560208601611375565b601f01601f19169290920192915050565b602080825281016113e481846113a1565b9392505050565b80611336565b803561056d816113eb565b6000806040838503121561141257611412600080fd5b600061141e8585611341565b925050602061142f858286016113f1565b9150509250929050565b8015155b82525050565b6020810161056d8284611439565b8061143d565b6020810161056d8284611451565b60008060006060848603121561147d5761147d600080fd5b60006114898686611341565b935050602061149a86828701611341565b92505060406114ab868287016113f1565b9150509250925092565b60ff811661143d565b6020810161056d82846114b5565b61143d8161131c565b6020810161056d82846114cc565b60ff8116611336565b803561056d816114e3565b600080600080600080600060e0888a03121561151557611515600080fd5b60006115218a8a611341565b97505060206115328a828b01611341565b96505060406115438a828b016113f1565b95505060606115548a828b016113f1565b94505060806115658a828b016114ec565b93505060a06115768a828b016113f1565b92505060c06115878a828b016113f1565b91505092959891949750929550565b600080604083850312156115ac576115ac600080fd5b60006115b88585611341565b925050602061142f85828601611341565b60208082527f4f776e61626c653a2063616c6c6572206973206e6f7420746865206f776e657291019081525b60200190565b6020808252810161056d816115c9565b600c8152602081017f4e6f742061206275726e65720000000000000000000000000000000000000000815290506115f5565b6020808252810161056d8161160b565b634e487b7160e01b600052602260045260246000fd5b60028104600182168061167757607f821691505b602082108103610f2957610f2961164d565b60288152602081017f45524332303a207472616e7366657220616d6f756e742065786365656473206181527f6c6c6f77616e6365000000000000000000000000000000000000000000000000602082015290505b60400190565b6020808252810161056d81611689565b600c8152602081017f4e6f742061206d696e7465720000000000000000000000000000000000000000815290506115f5565b6020808252810161056d816116f3565b634e487b7160e01b600052601160045260246000fd5b6000821982111561175e5761175e611735565b500190565b60108152602081017f416c72656164792061206d696e74657200000000000000000000000000000000815290506115f5565b6020808252810161056d81611763565b60258152602081017f45524332303a2064656372656173656420616c6c6f77616e63652062656c6f7781527f207a65726f000000000000000000000000000000000000000000000000000000602082015290506116dd565b6020808252810161056d816117a5565b60218152602081017f457863656564732074686520444547206361702028313030206d696c6c696f6e81527f2900000000000000000000000000000000000000000000000000000000000000602082015290506116dd565b6020808252810161056d8161180d565b601d8152602081017f45524332305065726d69743a206578706972656420646561646c696e65000000815290506115f5565b6020808252810161056d81611875565b60c081016118c58289611451565b6118d260208301886114cc565b6118df60408301876114cc565b6118ec6060830186611451565b6118f96080830185611451565b61190660a0830184611451565b979650505050505050565b601e8152602081017f45524332305065726d69743a20696e76616c6964207369676e61747572650000815290506115f5565b6020808252810161056d81611911565b60268152602081017f4f776e61626c653a206e6577206f776e657220697320746865207a65726f206181527f6464726573730000000000000000000000000000000000000000000000000000602082015290506116dd565b6020808252810161056d81611953565b60108152602081017f416c72656164792061206275726e657200000000000000000000000000000000815290506115f5565b6020808252810161056d816119bb565b60248152602081017f45524332303a20617070726f76652066726f6d20746865207a65726f2061646481527f7265737300000000000000000000000000000000000000000000000000000000602082015290506116dd565b6020808252810161056d816119fd565b60228152602081017f45524332303a20617070726f766520746f20746865207a65726f20616464726581527f7373000000000000000000000000000000000000000000000000000000000000602082015290506116dd565b6020808252810161056d81611a65565b60258152602081017f45524332303a207472616e736665722066726f6d20746865207a65726f20616481527f6472657373000000000000000000000000000000000000000000000000000000602082015290506116dd565b6020808252810161056d81611acd565b60238152602081017f45524332303a207472616e7366657220746f20746865207a65726f206164647281527f6573730000000000000000000000000000000000000000000000000000000000602082015290506116dd565b6020808252810161056d81611b35565b60268152602081017f45524332303a207472616e7366657220616d6f756e742065786365656473206281527f616c616e63650000000000000000000000000000000000000000000000000000602082015290506116dd565b6020808252810161056d81611b9d565b600e8152602081017f496e76616c6964206275726e6572000000000000000000000000000000000000815290506115f5565b6020808252810161056d81611c05565b600e8152602081017f496e76616c6964206d696e746572000000000000000000000000000000000000815290506115f5565b6020808252810161056d81611c47565b60a08101611c978288611451565b611ca46020830187611451565b611cb16040830186611451565b611cbe6060830185611451565b611ccb60808301846114cc565b9695505050505050565b60218152602081017f45524332303a206275726e2066726f6d20746865207a65726f2061646472657381527f7300000000000000000000000000000000000000000000000000000000000000602082015290506116dd565b6020808252810161056d81611cd5565b60228152602081017f45524332303a206275726e20616d6f756e7420657863656564732062616c616e81527f6365000000000000000000000000000000000000000000000000000000000000602082015290506116dd565b6020808252810161056d81611d3d565b600082821015611db757611db7611735565b500390565b601f8152602081017f45524332303a206d696e7420746f20746865207a65726f206164647265737300815290506115f5565b6020808252810161056d81611dbc565b7f19010000000000000000000000000000000000000000000000000000000000008152600201611e2e8184611451565b602001611e3b8183611451565b60200192915050565b60808101611e528287611451565b611e5f60208301866114b5565b611e6c6040830185611451565b611e796060830184611451565b95945050505050565b634e487b7160e01b600052602160045260246000fd5b60188152602081017f45434453413a20696e76616c6964207369676e61747572650000000000000000815290506115f5565b6020808252810161056d81611e98565b601f8152602081017f45434453413a20696e76616c6964207369676e6174757265206c656e67746800815290506115f5565b6020808252810161056d81611eda565b60228152602081017f45434453413a20696e76616c6964207369676e6174757265202773272076616c815261756560f01b602082015290506116dd565b6020808252810161056d81611f1c565b60228152602081017f45434453413a20696e76616c6964207369676e6174757265202776272076616c815261756560f01b602082015290506116dd565b6020808252810161056d81611f6956fea26469706673582212209f2c7f74cabb12d99a342bbbe613e123f0dfc8e3e236dde551571c56238e1a8964736f6c634300080d0033",
  "devdoc": {
    "kind": "dev",
    "methods": {
      "DOMAIN_SEPARATOR()": {
        "details": "See {IERC20Permit-DOMAIN_SEPARATOR}."
      },
      "addBurner(address)": {
        "params": {
          "_newBurner": "Address of the new burner"
        }
      },
      "addMinter(address)": {
        "params": {
          "_newMinter": "Address of the new minter"
        }
      },
      "allowance(address,address)": {
        "details": "See {IERC20-allowance}."
      },
      "approve(address,uint256)": {
        "details": "See {IERC20-approve}. Requirements: - `spender` cannot be the zero address."
      },
      "balanceOf(address)": {
        "details": "See {IERC20-balanceOf}."
      },
      "burnDegis(address,uint256)": {
        "params": {
          "_account": "Receiver's address",
          "_amount": "Amount to be burned"
        }
      },
      "decimals()": {
        "details": "Returns the number of decimals used to get its user representation. For example, if `decimals` equals `2`, a balance of `505` tokens should be displayed to a user as `5.05` (`505 / 10 ** 2`). Tokens usually opt for a value of 18, imitating the relationship between Ether and Wei. This is the value {ERC20} uses, unless this function is overridden; NOTE: This information is only used for _display_ purposes: it in no way affects any of the arithmetic of the contract, including {IERC20-balanceOf} and {IERC20-transfer}."
      },
      "decreaseAllowance(address,uint256)": {
        "details": "Atomically decreases the allowance granted to `spender` by the caller. This is an alternative to {approve} that can be used as a mitigation for problems described in {IERC20-approve}. Emits an {Approval} event indicating the updated allowance. Requirements: - `spender` cannot be the zero address. - `spender` must have allowance for the caller of at least `subtractedValue`."
      },
      "increaseAllowance(address,uint256)": {
        "details": "Atomically increases the allowance granted to `spender` by the caller. This is an alternative to {approve} that can be used as a mitigation for problems described in {IERC20-approve}. Emits an {Approval} event indicating the updated allowance. Requirements: - `spender` cannot be the zero address."
      },
      "mintDegis(address,uint256)": {
        "params": {
          "_account": "Receiver's address",
          "_amount": "Amount to be minted"
        }
      },
      "name()": {
        "details": "Returns the name of the token."
      },
      "nonces(address)": {
        "details": "See {IERC20Permit-nonces}."
      },
      "permit(address,address,uint256,uint256,uint8,bytes32,bytes32)": {
        "details": "See {IERC20Permit-permit}."
      },
      "removeBurner(address)": {
        "params": {
          "_oldBurner": "Address of the minter to be removed"
        }
      },
      "removeMinter(address)": {
        "params": {
          "_oldMinter": "Address of the minter to be removed"
        }
      },
      "renounceOwnership()": {
        "details": "Renouncing ownership will leave the contract without an owner,         thereby removing any functionality that is only available to the owner."
      },
      "symbol()": {
        "details": "Returns the symbol of the token, usually a shorter version of the name."
      },
      "totalSupply()": {
        "details": "See {IERC20-totalSupply}."
      },
      "transfer(address,uint256)": {
        "details": "See {IERC20-transfer}. Requirements: - `recipient` cannot be the zero address. - the caller must have a balance of at least `amount`."
      },
      "transferFrom(address,address,uint256)": {
        "details": "See {IERC20-transferFrom}. Emits an {Approval} event indicating the updated allowance. This is not required by the EIP. See the note at the beginning of {ERC20}. Requirements: - `sender` and `recipient` cannot be the zero address. - `sender` must have a balance of at least `amount`. - the caller must have allowance for ``sender``'s tokens of at least `amount`."
      },
      "transferOwnership(address)": {
        "details": "Can only be called by the current owner.",
        "params": {
          "newOwner": "Address of the new owner"
        }
      }
    },
    "title": "Degis Token",
    "version": 1
  },
  "userdoc": {
    "kind": "user",
    "methods": {
      "addBurner(address)": {
        "notice": "Add a new burner into the burnerList"
      },
      "addMinter(address)": {
        "notice": "Add a new minter into the minterList"
      },
      "burnDegis(address,uint256)": {
        "notice": "Burn degis tokens"
      },
      "mintDegis(address,uint256)": {
        "notice": "Mint degis tokens"
      },
      "owner()": {
        "notice": "Returns the address of the current owner."
      },
      "removeBurner(address)": {
        "notice": "Remove a minter from the minterList"
      },
      "removeMinter(address)": {
        "notice": "Remove a minter from the minterList"
      },
      "renounceOwnership()": {
        "notice": "Leaves the contract without owner. It will not be possible to call         `onlyOwner` functions anymore. Can only be called by the current owner."
      },
      "transferOwnership(address)": {
        "notice": "Transfers ownership of the contract to a new account (`newOwner`)."
      }
    },
    "notice": "DegisToken inherits from ERC20 Permit which contains the basic ERC20 implementation.         DegisToken can use the permit function rather than approve + transferFrom.         DegisToken has an owner, a minterList and a burnerList.         When lauched on mainnet, the owner may be removed or tranferred to a multisig.         By default, the owner & the first minter will be the one that deploys the contract.         The minterList should contain FarmingPool and PurchaseIncentiveVault.         The burnerList should contain EmergencyPool.",
    "version": 1
  },
  "storageLayout": {
    "storage": [
      {
        "astId": 4860,
        "contract": "contracts/tokens/DegisToken.sol:DegisToken",
        "label": "_balances",
        "offset": 0,
        "slot": "0",
        "type": "t_mapping(t_address,t_uint256)"
      },
      {
        "astId": 4866,
        "contract": "contracts/tokens/DegisToken.sol:DegisToken",
        "label": "_allowances",
        "offset": 0,
        "slot": "1",
        "type": "t_mapping(t_address,t_mapping(t_address,t_uint256))"
      },
      {
        "astId": 4868,
        "contract": "contracts/tokens/DegisToken.sol:DegisToken",
        "label": "_totalSupply",
        "offset": 0,
        "slot": "2",
        "type": "t_uint256"
      },
      {
        "astId": 4870,
        "contract": "contracts/tokens/DegisToken.sol:DegisToken",
        "label": "_name",
        "offset": 0,
        "slot": "3",
        "type": "t_string_storage"
      },
      {
        "astId": 4872,
        "contract": "contracts/tokens/DegisToken.sol:DegisToken",
        "label": "_symbol",
        "offset": 0,
        "slot": "4",
        "type": "t_string_storage"
      },
      {
        "astId": 5516,
        "contract": "contracts/tokens/DegisToken.sol:DegisToken",
        "label": "_nonces",
        "offset": 0,
        "slot": "5",
        "type": "t_mapping(t_address,t_struct(Counter)7608_storage)"
      },
      {
        "astId": 36028,
        "contract": "contracts/tokens/DegisToken.sol:DegisToken",
        "label": "_owner",
        "offset": 0,
        "slot": "6",
        "type": "t_address"
      },
      {
        "astId": 35678,
        "contract": "contracts/tokens/DegisToken.sol:DegisToken",
        "label": "isMinter",
        "offset": 0,
        "slot": "7",
        "type": "t_mapping(t_address,t_bool)"
      },
      {
        "astId": 35682,
        "contract": "contracts/tokens/DegisToken.sol:DegisToken",
        "label": "isBurner",
        "offset": 0,
        "slot": "8",
        "type": "t_mapping(t_address,t_bool)"
      }
    ],
    "types": {
      "t_address": {
        "encoding": "inplace",
        "label": "address",
        "numberOfBytes": "20"
      },
      "t_bool": {
        "encoding": "inplace",
        "label": "bool",
        "numberOfBytes": "1"
      },
      "t_mapping(t_address,t_bool)": {
        "encoding": "mapping",
        "key": "t_address",
        "label": "mapping(address => bool)",
        "numberOfBytes": "32",
        "value": "t_bool"
      },
      "t_mapping(t_address,t_mapping(t_address,t_uint256))": {
        "encoding": "mapping",
        "key": "t_address",
        "label": "mapping(address => mapping(address => uint256))",
        "numberOfBytes": "32",
        "value": "t_mapping(t_address,t_uint256)"
      },
      "t_mapping(t_address,t_struct(Counter)7608_storage)": {
        "encoding": "mapping",
        "key": "t_address",
        "label": "mapping(address => struct Counters.Counter)",
        "numberOfBytes": "32",
        "value": "t_struct(Counter)7608_storage"
      },
      "t_mapping(t_address,t_uint256)": {
        "encoding": "mapping",
        "key": "t_address",
        "label": "mapping(address => uint256)",
        "numberOfBytes": "32",
        "value": "t_uint256"
      },
      "t_string_storage": {
        "encoding": "bytes",
        "label": "string",
        "numberOfBytes": "32"
      },
      "t_struct(Counter)7608_storage": {
        "encoding": "inplace",
        "label": "struct Counters.Counter",
        "members": [
          {
            "astId": 7607,
            "contract": "contracts/tokens/DegisToken.sol:DegisToken",
            "label": "_value",
            "offset": 0,
            "slot": "0",
            "type": "t_uint256"
          }
        ],
        "numberOfBytes": "32"
      },
      "t_uint256": {
        "encoding": "inplace",
        "label": "uint256",
        "numberOfBytes": "32"
      }
    }
  }
}