{
  "address": "0x7014094Ed44E3C13bBe781c7456EdF7bC91F0eD2",
  "abi": [
    {
      "anonymous": false,
      "inputs": [
        {
          "indexed": false,
          "internalType": "uint256",
          "name": "poolId",
          "type": "uint256"
        },
        {
          "indexed": false,
          "internalType": "uint256",
          "name": "basicDegisPerSecond",
          "type": "uint256"
        },
        {
          "indexed": false,
          "internalType": "uint256",
          "name": "bonusDegisPerSecond",
          "type": "uint256"
        }
      ],
      "name": "DegisRewardChanged",
      "type": "event"
    },
    {
      "anonymous": false,
      "inputs": [
        {
          "indexed": false,
          "internalType": "uint256",
          "name": "poolId",
          "type": "uint256"
        },
        {
          "indexed": false,
          "internalType": "uint256",
          "name": "timestamp",
          "type": "uint256"
        }
      ],
      "name": "FarmingPoolStarted",
      "type": "event"
    },
    {
      "anonymous": false,
      "inputs": [
        {
          "indexed": false,
          "internalType": "uint256",
          "name": "poolId",
          "type": "uint256"
        },
        {
          "indexed": false,
          "internalType": "uint256",
          "name": "timestamp",
          "type": "uint256"
        }
      ],
      "name": "FarmingPoolStopped",
      "type": "event"
    },
    {
      "anonymous": false,
      "inputs": [
        {
          "indexed": false,
          "internalType": "address",
          "name": "staker",
          "type": "address"
        },
        {
          "indexed": false,
          "internalType": "address",
          "name": "rewardReceiver",
          "type": "address"
        },
        {
          "indexed": false,
          "internalType": "uint256",
          "name": "poolId",
          "type": "uint256"
        },
        {
          "indexed": false,
          "internalType": "uint256",
          "name": "pendingReward",
          "type": "uint256"
        }
      ],
      "name": "Harvest",
      "type": "event"
    },
    {
      "anonymous": false,
      "inputs": [
        {
          "indexed": false,
          "internalType": "address",
          "name": "lpToken",
          "type": "address"
        },
        {
          "indexed": false,
          "internalType": "uint256",
          "name": "basicDegisPerSecond",
          "type": "uint256"
        },
        {
          "indexed": false,
          "internalType": "uint256",
          "name": "bonusDegisPerSecond",
          "type": "uint256"
        }
      ],
      "name": "NewPoolAdded",
      "type": "event"
    },
    {
      "anonymous": false,
      "inputs": [
        {
          "indexed": true,
          "internalType": "address",
          "name": "previousOwner",
          "type": "address"
        },
        {
          "indexed": true,
          "internalType": "address",
          "name": "newOwner",
          "type": "address"
        }
      ],
      "name": "OwnershipTransferred",
      "type": "event"
    },
    {
      "anonymous": false,
      "inputs": [
        {
          "indexed": false,
          "internalType": "address",
          "name": "account",
          "type": "address"
        }
      ],
      "name": "Paused",
      "type": "event"
    },
    {
      "anonymous": false,
      "inputs": [
        {
          "indexed": false,
          "internalType": "uint256",
          "name": "poolId",
          "type": "uint256"
        },
        {
          "indexed": false,
          "internalType": "uint256",
          "name": "accDegisPerShare",
          "type": "uint256"
        },
        {
          "indexed": false,
          "internalType": "uint256",
          "name": "accDegisPerBonusShare",
          "type": "uint256"
        }
      ],
      "name": "PoolUpdated",
      "type": "event"
    },
    {
      "anonymous": false,
      "inputs": [
        {
          "indexed": false,
          "internalType": "address",
          "name": "staker",
          "type": "address"
        },
        {
          "indexed": false,
          "internalType": "uint256",
          "name": "poolId",
          "type": "uint256"
        },
        {
          "indexed": false,
          "internalType": "uint256",
          "name": "amount",
          "type": "uint256"
        }
      ],
      "name": "Stake",
      "type": "event"
    },
    {
      "anonymous": false,
      "inputs": [
        {
          "indexed": false,
          "internalType": "uint256",
          "name": "startTimestamp",
          "type": "uint256"
        }
      ],
      "name": "StartTimestampChanged",
      "type": "event"
    },
    {
      "anonymous": false,
      "inputs": [
        {
          "indexed": false,
          "internalType": "address",
          "name": "account",
          "type": "address"
        }
      ],
      "name": "Unpaused",
      "type": "event"
    },
    {
      "anonymous": false,
      "inputs": [
        {
          "indexed": false,
          "internalType": "address",
          "name": "staker",
          "type": "address"
        },
        {
          "indexed": false,
          "internalType": "uint256",
          "name": "poolId",
          "type": "uint256"
        },
        {
          "indexed": false,
          "internalType": "uint256",
          "name": "amount",
          "type": "uint256"
        }
      ],
      "name": "Withdraw",
      "type": "event"
    },
    {
      "inputs": [],
      "name": "SCALE",
      "outputs": [
        {
          "internalType": "uint256",
          "name": "",
          "type": "uint256"
        }
      ],
      "stateMutability": "view",
      "type": "function"
    },
    {
      "inputs": [],
      "name": "_nextPoolId",
      "outputs": [
        {
          "internalType": "uint256",
          "name": "",
          "type": "uint256"
        }
      ],
      "stateMutability": "view",
      "type": "function"
    },
    {
      "inputs": [
        {
          "internalType": "address",
          "name": "_lpToken",
          "type": "address"
        },
        {
          "internalType": "uint256",
          "name": "_basicDegisPerSecond",
          "type": "uint256"
        },
        {
          "internalType": "uint256",
          "name": "_bonusDegisPerSecond",
          "type": "uint256"
        },
        {
          "internalType": "bool",
          "name": "_withUpdate",
          "type": "bool"
        }
      ],
      "name": "add",
      "outputs": [],
      "stateMutability": "nonpayable",
      "type": "function"
    },
    {
      "inputs": [],
      "name": "degis",
      "outputs": [
        {
          "internalType": "contract IDegisToken",
          "name": "",
          "type": "address"
        }
      ],
      "stateMutability": "view",
      "type": "function"
    },
    {
      "inputs": [],
      "name": "getPoolList",
      "outputs": [
        {
          "components": [
            {
              "internalType": "address",
              "name": "lpToken",
              "type": "address"
            },
            {
              "internalType": "uint256",
              "name": "basicDegisPerSecond",
              "type": "uint256"
            },
            {
              "internalType": "uint256",
              "name": "bonusDegisPerSecond",
              "type": "uint256"
            },
            {
              "internalType": "uint256",
              "name": "lastRewardTimestamp",
              "type": "uint256"
            },
            {
              "internalType": "uint256",
              "name": "accDegisPerShare",
              "type": "uint256"
            },
            {
              "internalType": "uint256",
              "name": "accDegisPerBonusShare",
              "type": "uint256"
            },
            {
              "internalType": "uint256",
              "name": "totalBonus",
              "type": "uint256"
            }
          ],
          "internalType": "struct FarmingPoolUpgradeable.PoolInfo[]",
          "name": "",
          "type": "tuple[]"
        }
      ],
      "stateMutability": "view",
      "type": "function"
    },
    {
      "inputs": [
        {
          "internalType": "uint256",
          "name": "_poolId",
          "type": "uint256"
        },
        {
          "internalType": "address",
          "name": "_user",
          "type": "address"
        }
      ],
      "name": "getUserBalance",
      "outputs": [
        {
          "internalType": "uint256",
          "name": "",
          "type": "uint256"
        }
      ],
      "stateMutability": "view",
      "type": "function"
    },
    {
      "inputs": [
        {
          "internalType": "uint256",
          "name": "_poolId",
          "type": "uint256"
        },
        {
          "internalType": "address",
          "name": "_to",
          "type": "address"
        }
      ],
      "name": "harvest",
      "outputs": [],
      "stateMutability": "nonpayable",
      "type": "function"
    },
    {
      "inputs": [
        {
          "internalType": "address",
          "name": "_degis",
          "type": "address"
        }
      ],
      "name": "initialize",
      "outputs": [],
      "stateMutability": "nonpayable",
      "type": "function"
    },
    {
      "inputs": [
        {
          "internalType": "uint256",
          "name": "",
          "type": "uint256"
        }
      ],
      "name": "isFarming",
      "outputs": [
        {
          "internalType": "bool",
          "name": "",
          "type": "bool"
        }
      ],
      "stateMutability": "view",
      "type": "function"
    },
    {
      "inputs": [],
      "name": "massUpdatePools",
      "outputs": [],
      "stateMutability": "nonpayable",
      "type": "function"
    },
    {
      "inputs": [],
      "name": "name",
      "outputs": [
        {
          "internalType": "string",
          "name": "",
          "type": "string"
        }
      ],
      "stateMutability": "view",
      "type": "function"
    },
    {
      "inputs": [],
      "name": "owner",
      "outputs": [
        {
          "internalType": "address",
          "name": "",
          "type": "address"
        }
      ],
      "stateMutability": "view",
      "type": "function"
    },
    {
      "inputs": [],
      "name": "pause",
      "outputs": [],
      "stateMutability": "nonpayable",
      "type": "function"
    },
    {
      "inputs": [],
      "name": "paused",
      "outputs": [
        {
          "internalType": "bool",
          "name": "",
          "type": "bool"
        }
      ],
      "stateMutability": "view",
      "type": "function"
    },
    {
      "inputs": [
        {
          "internalType": "uint256",
          "name": "_poolId",
          "type": "uint256"
        },
        {
          "internalType": "address",
          "name": "_user",
          "type": "address"
        }
      ],
      "name": "pendingDegis",
      "outputs": [
        {
          "internalType": "uint256",
          "name": "",
          "type": "uint256"
        }
      ],
      "stateMutability": "view",
      "type": "function"
    },
    {
      "inputs": [
        {
          "internalType": "uint256",
          "name": "",
          "type": "uint256"
        }
      ],
      "name": "poolList",
      "outputs": [
        {
          "internalType": "address",
          "name": "lpToken",
          "type": "address"
        },
        {
          "internalType": "uint256",
          "name": "basicDegisPerSecond",
          "type": "uint256"
        },
        {
          "internalType": "uint256",
          "name": "bonusDegisPerSecond",
          "type": "uint256"
        },
        {
          "internalType": "uint256",
          "name": "lastRewardTimestamp",
          "type": "uint256"
        },
        {
          "internalType": "uint256",
          "name": "accDegisPerShare",
          "type": "uint256"
        },
        {
          "internalType": "uint256",
          "name": "accDegisPerBonusShare",
          "type": "uint256"
        },
        {
          "internalType": "uint256",
          "name": "totalBonus",
          "type": "uint256"
        }
      ],
      "stateMutability": "view",
      "type": "function"
    },
    {
      "inputs": [
        {
          "internalType": "address",
          "name": "",
          "type": "address"
        }
      ],
      "name": "poolMapping",
      "outputs": [
        {
          "internalType": "uint256",
          "name": "",
          "type": "uint256"
        }
      ],
      "stateMutability": "view",
      "type": "function"
    },
    {
      "inputs": [],
      "name": "renounceOwnership",
      "outputs": [],
      "stateMutability": "nonpayable",
      "type": "function"
    },
    {
      "inputs": [
        {
          "internalType": "uint256",
          "name": "_poolId",
          "type": "uint256"
        },
        {
          "internalType": "uint256",
          "name": "_basicDegisPerSecond",
          "type": "uint256"
        },
        {
          "internalType": "uint256",
          "name": "_bonusDegisPerSecond",
          "type": "uint256"
        },
        {
          "internalType": "bool",
          "name": "_withUpdate",
          "type": "bool"
        }
      ],
      "name": "setDegisReward",
      "outputs": [],
      "stateMutability": "nonpayable",
      "type": "function"
    },
    {
      "inputs": [
        {
          "internalType": "uint256",
          "name": "_startTimestamp",
          "type": "uint256"
        }
      ],
      "name": "setStartTimestamp",
      "outputs": [],
      "stateMutability": "nonpayable",
      "type": "function"
    },
    {
      "inputs": [
        {
          "internalType": "address",
          "name": "_veDEG",
          "type": "address"
        }
      ],
      "name": "setVeDEG",
      "outputs": [],
      "stateMutability": "nonpayable",
      "type": "function"
    },
    {
      "inputs": [
        {
          "internalType": "uint256",
          "name": "_poolId",
          "type": "uint256"
        },
        {
          "internalType": "uint256",
          "name": "_amount",
          "type": "uint256"
        }
      ],
      "name": "stake",
      "outputs": [],
      "stateMutability": "nonpayable",
      "type": "function"
    },
    {
      "inputs": [],
      "name": "startTimestamp",
      "outputs": [
        {
          "internalType": "uint256",
          "name": "",
          "type": "uint256"
        }
      ],
      "stateMutability": "view",
      "type": "function"
    },
    {
      "inputs": [
        {
          "internalType": "address",
          "name": "newOwner",
          "type": "address"
        }
      ],
      "name": "transferOwnership",
      "outputs": [],
      "stateMutability": "nonpayable",
      "type": "function"
    },
    {
      "inputs": [],
      "name": "unpause",
      "outputs": [],
      "stateMutability": "nonpayable",
      "type": "function"
    },
    {
      "inputs": [
        {
          "internalType": "address",
          "name": "_user",
          "type": "address"
        },
        {
          "internalType": "uint256",
          "name": "_newVeDEGBalance",
          "type": "uint256"
        }
      ],
      "name": "updateBonus",
      "outputs": [],
      "stateMutability": "nonpayable",
      "type": "function"
    },
    {
      "inputs": [
        {
          "internalType": "uint256",
          "name": "_poolId",
          "type": "uint256"
        }
      ],
      "name": "updatePool",
      "outputs": [],
      "stateMutability": "nonpayable",
      "type": "function"
    },
    {
      "inputs": [
        {
          "internalType": "uint256",
          "name": "",
          "type": "uint256"
        },
        {
          "internalType": "address",
          "name": "",
          "type": "address"
        }
      ],
      "name": "userInfo",
      "outputs": [
        {
          "internalType": "uint256",
          "name": "rewardDebt",
          "type": "uint256"
        },
        {
          "internalType": "uint256",
          "name": "stakingBalance",
          "type": "uint256"
        },
        {
          "internalType": "uint256",
          "name": "bonus",
          "type": "uint256"
        }
      ],
      "stateMutability": "view",
      "type": "function"
    },
    {
      "inputs": [],
      "name": "veDEG",
      "outputs": [
        {
          "internalType": "contract IVeDEG",
          "name": "",
          "type": "address"
        }
      ],
      "stateMutability": "view",
      "type": "function"
    },
    {
      "inputs": [
        {
          "internalType": "uint256",
          "name": "_poolId",
          "type": "uint256"
        },
        {
          "internalType": "uint256",
          "name": "_amount",
          "type": "uint256"
        }
      ],
      "name": "withdraw",
      "outputs": [],
      "stateMutability": "nonpayable",
      "type": "function"
    }
  ],
  "transactionHash": "0x580977e39a33d3370851ce9bfc03a61601e376f6248f8d732ac2807d19c7df77",
  "args": [],
  "numDeployments": 3,
  "solcInputHash": "5de9233e16ab22c45f416dc6dd2ac4bb",
  "bytecode": "0x608060405234801561001057600080fd5b5061307f806100206000396000f3fe608060405234801561001057600080fd5b50600436106101da5760003560e01c80638456cb5911610104578063cdfb6cf3116100a2578063e4a7631511610071578063e4a7631514610461578063e6fd48bc14610474578063eced55261461047d578063f2fde38b1461048957600080fd5b8063cdfb6cf314610413578063d13f67bc14610426578063d41dcbea14610439578063d54465181461044e57600080fd5b8063a06ddcb3116100de578063a06ddcb3146103b7578063c44bef75146103da578063c4d66de8146103ed578063cdcd29071461040057600080fd5b80638456cb591461034d5780638da5cb5b1461035557806393f1a40b1461036e57600080fd5b80633f4ba83a1161017c5780635c975abb1161014b5780635c975abb14610316578063630b5ba11461032a578063715018a6146103325780637b0472f01461033a57600080fd5b80633f4ba83a146102d5578063441a3e70146102dd5780634f3e7ba6146102f057806351eb05a61461030357600080fd5b806318fccc76116101b857806318fccc761461025c57806329fd20071461026f5780632a48235b1461028f5780632c678a3e146102b557600080fd5b806306fdde03146101df57806307a96cbf1461023157806317fb77de14610246575b600080fd5b61021b6040518060400160405280601581526020017f4465676973204c50204661726d696e6720506f6f6c000000000000000000000081525081565b604051610228919061249f565b60405180910390f35b61024461023f3660046124e0565b61049c565b005b61024f60cb5481565b6040516102289190612509565b61024461026a366004612528565b6104fe565b60c954610282906001600160a01b031681565b6040516102289190612584565b6102a261029d366004612592565b610708565b60405161022897969594939291906125bc565b61024f6102c33660046124e0565b60ce6020526000908152604090205481565b610244610761565b6102446102eb366004612624565b610795565b60ca54610282906001600160a01b031681565b610244610311366004612592565b610aab565b60975460ff165b604051610228919061265f565b610244610cd7565b610244610d1f565b610244610348366004612624565b610d53565b61024461104f565b6033546001600160a01b0316604051610228919061266d565b6103a861037c366004612528565b60d060209081526000928352604080842090915290825290208054600182015460029092015490919083565b6040516102289392919061267b565b61031d6103c5366004612592565b60cf6020526000908152604090205460ff1681565b6102446103e8366004612592565b611081565b6102446103fb3660046124e0565b611130565b61024461040e3660046126b6565b611377565b61024f610421366004612528565b6115b1565b61024f610434366004612528565b6115de565b610441611865565b60405161022891906127f6565b61024461045c366004612807565b61190d565b61024461046f366004612829565b611a5d565b61024f60cc5481565b61024f64e8d4a5100081565b6102446104973660046124e0565b611d45565b6033546001600160a01b031633146104cf5760405162461bcd60e51b81526004016104c69061287e565b60405180910390fd5b60ca805473ffffffffffffffffffffffffffffffffffffffff19166001600160a01b0392909216919091179055565b600260655414156105215760405162461bcd60e51b81526004016104c6906128c0565b600260655560975460ff16156105495760405162461bcd60e51b81526004016104c690612902565b600082815260cf602052604090205460ff16156105695761056982610aab565b600060cd838154811061057e5761057e612912565b600091825260208083206040805160e081018252600790940290910180546001600160a01b03168452600181015484840152600280820154858401526003820154606086015260048201546080860152600582015460a0860190815260069092015460c086015288865260d0845282862033875290935290842080549151928101549395509392909164e8d4a5100091610618919061293e565b8560800151856001015461062c919061293e565b610636919061295d565b610640919061298b565b61064a919061299f565b90506000811161066c5760405162461bcd60e51b81526004016104c6906129e8565b64e8d4a510008360a001518360020154610686919061293e565b8460800151846001015461069a919061293e565b6106a4919061295d565b6106ae919061298b565b825560006106bc8583611da1565b90507fdec9257d126f56798a34ce7ca0ffedeaa9a024543946f79c3b5038035ba32a1e338688846040516106f394939291906129f8565b60405180910390a15050600160655550505050565b60cd818154811061071857600080fd5b600091825260209091206007909102018054600182015460028301546003840154600485015460058601546006909601546001600160a01b039095169650929491939092919087565b6033546001600160a01b0316331461078b5760405162461bcd60e51b81526004016104c69061287e565b610793611e7f565b565b600260655414156107b85760405162461bcd60e51b81526004016104c6906128c0565b600260655560975460ff16156107e05760405162461bcd60e51b81526004016104c690612902565b600081116108005760405162461bcd60e51b81526004016104c690612a68565b600060cd838154811061081557610815612912565b6000918252602080832086845260d08252604080852033865290925292206001810154600790920290920192508311156108615760405162461bcd60e51b81526004016104c690612aaa565b600084815260cf602052604090205460ff16156108815761088184610aab565b6000816000015464e8d4a51000846005015484600201546108a2919061293e565b856004015485600101546108b6919061293e565b6108c0919061295d565b6108ca919061298b565b6108d4919061299f565b905060006108e23383611da1565b90507fdec9257d126f56798a34ce7ca0ffedeaa9a024543946f79c3b5038035ba32a1e3333888460405161091994939291906129f8565b60405180910390a1835460009061093d906001906001600160a01b03163389611ee5565b905080846001016000828254610953919061299f565b909155505060ca546001600160a01b031615610a1d57600284015460ca546040516370a0823160e01b81526109f5916001600160a01b0316906370a08231906109a090339060040161266d565b602060405180830381865afa1580156109bd573d6000803e3d6000fd5b505050506040513d601f19601f820116820180604052508101906109e19190612ac5565b86600101546109f0919061293e565b612028565b6002860181905560068701548291610a0c9161295d565b610a16919061299f565b6006870155505b64e8d4a5100085600501548560020154610a37919061293e565b86600401548660010154610a4b919061293e565b610a55919061295d565b610a5f919061298b565b84556040517ff279e6a1f5e320cca91135676d9cb6e44ca8a08c0b88342bcdb1144f6511b56890610a959033908a908590612ae6565b60405180910390a1505060016065555050505050565b600060cd8281548110610ac057610ac0612912565b9060005260206000209060070201905080600301544211610adf575050565b80546040516370a0823160e01b81526000916001600160a01b0316906370a0823190610b0f90309060040161266d565b602060405180830381865afa158015610b2c573d6000803e3d6000fd5b505050506040513d601f19601f82011682018060405250810190610b509190612ac5565b905080610b6257504260039091015550565b6000826003015442610b74919061299f565b90506000836001015482610b88919061293e565b90506000846002015483610b9c919061293e565b905083610bae64e8d4a510008461293e565b610bb8919061298b565b856004016000828254610bcb919061295d565b90915550506006850154610be55760006005860155610c1c565b6006850154610bf964e8d4a510008361293e565b610c03919061298b565b856005016000828254610c16919061295d565b90915550505b60c9546001600160a01b031663b476739830610c38848661295d565b6040518363ffffffff1660e01b8152600401610c55929190612af4565b600060405180830381600087803b158015610c6f57600080fd5b505af1158015610c83573d6000803e3d6000fd5b50504260038801555050600485015460058601546040517f17b8644f386d1c7c7138ef98b3c8035622bbe94d7be9b26f71d2654a547c294392610cc7928a9261267b565b60405180910390a1505050505050565b60cd5460005b81811015610d1b57600081815260cf602052604090205460ff16610d0057610d09565b610d0981610aab565b80610d1381612b0f565b915050610cdd565b5050565b6033546001600160a01b03163314610d495760405162461bcd60e51b81526004016104c69061287e565b6107936000612098565b60026065541415610d765760405162461bcd60e51b81526004016104c6906128c0565b600260655560975460ff1615610d9e5760405162461bcd60e51b81526004016104c690612902565b600082815260cf6020526040902054829060ff16610dce5760405162461bcd60e51b81526004016104c690612b5c565b60008211610dee5760405162461bcd60e51b81526004016104c690612b9e565b600060cd8481548110610e0357610e03612912565b6000918252602080832087845260d082526040808520338652909252922060079091029091019150610e3485610aab565b600181015415610ee1576000816000015464e8d4a5100084600501548460020154610e5f919061293e565b85600401548560010154610e73919061293e565b610e7d919061295d565b610e87919061298b565b610e91919061299f565b90506000610e9f3383611da1565b90507fdec9257d126f56798a34ce7ca0ffedeaa9a024543946f79c3b5038035ba32a1e33338984604051610ed694939291906129f8565b60405180910390a150505b8154600090610efc9082906001600160a01b03163388611ee5565b905080826001016000828254610f12919061295d565b909155505060ca546001600160a01b031615610fd757600282015460ca546040516370a0823160e01b8152610faf916001600160a01b0316906370a0823190610f5f90339060040161266d565b602060405180830381865afa158015610f7c573d6000803e3d6000fd5b505050506040513d601f19601f82011682018060405250810190610fa09190612ac5565b84600101546109f0919061293e565b6002840181905560068501548291610fc69161295d565b610fd0919061299f565b6006850155505b64e8d4a5100083600501548360020154610ff1919061293e565b84600401548460010154611005919061293e565b61100f919061295d565b611019919061298b565b82556040517f5af417134f72a9d41143ace85b0a26dce6f550f894f2cbc1eeee8810603d91b6906106f390339089908590612ae6565b6033546001600160a01b031633146110795760405162461bcd60e51b81526004016104c69061287e565b6107936120f7565b6033546001600160a01b031633146110ab5760405162461bcd60e51b81526004016104c69061287e565b60975460ff16156110ce5760405162461bcd60e51b81526004016104c690612902565b60cb546001146110f05760405162461bcd60e51b81526004016104c690612c08565b60cc8190556040517faf8fc8a4c9a55a9a29c3e99cd1797d43062c696f192896c79cbebd7da3286d8290611125908390612509565b60405180910390a150565b600054610100900460ff1661114b5760005460ff161561114f565b303b155b61116b5760405162461bcd60e51b81526004016104c690612c70565b600054610100900460ff1615801561118d576000805461ffff19166101011790555b6001600160a01b0382166111b35760405162461bcd60e51b81526004016104c690612cb2565b6111bb61214f565b6111c361217e565b6111cb6121ac565b60c980546001600160a01b0380851673ffffffffffffffffffffffffffffffffffffffff1992831617909255600160cb8190556040805160e081018252600080825260208201818152928201818152606083018281526080840183815260a0850184815260c0860185815260cd8054998a018155909552945160079097027f83978b4c69c48dd978ab43fe30f077615294f938fb7f936d9eb340e51ea7db2e8101805498909a16979098169690961790975592517f83978b4c69c48dd978ab43fe30f077615294f938fb7f936d9eb340e51ea7db2f86015591517f83978b4c69c48dd978ab43fe30f077615294f938fb7f936d9eb340e51ea7db3085015593517f83978b4c69c48dd978ab43fe30f077615294f938fb7f936d9eb340e51ea7db3184015590517f83978b4c69c48dd978ab43fe30f077615294f938fb7f936d9eb340e51ea7db3283015591517f83978b4c69c48dd978ab43fe30f077615294f938fb7f936d9eb340e51ea7db3382015590517f83978b4c69c48dd978ab43fe30f077615294f938fb7f936d9eb340e51ea7db34909101558015610d1b576000805461ff00191690555050565b6033546001600160a01b031633146113a15760405162461bcd60e51b81526004016104c69061287e565b60975460ff16156113c45760405162461bcd60e51b81526004016104c690612902565b60cd84815481106113d7576113d7612912565b906000526020600020906007020160030154600014156114095760405162461bcd60e51b81526004016104c690612cf4565b811561142f576000831161142f5760405162461bcd60e51b81526004016104c690612d36565b80156114425761143d610cd7565b61144b565b61144b84610aab565b600084815260cf602052604090205460ff1615801561146a5750600083115b156114c357600084815260cf602052604090819020805460ff19166001179055517f6140f1d5adcbca6c6b24c3b5e695335cd1a2071c7e03881172dc9eb0e488225c906114ba9086904290612d46565b60405180910390a15b8261151d57600084815260cf602052604090819020805460ff19169055517f4654f9b7bb3ba4d66e3a4e972e39db189ac7b4fdf5f2a95d57a4eb4d91a16d45906115109086904290612d46565b60405180910390a16115ab565b8260cd858154811061153157611531612912565b9060005260206000209060070201600101819055508160cd858154811061155a5761155a612912565b9060005260206000209060070201600201819055507f12558fa101886c4fd9ad5e0b9932a6ffd3653b63380b1da3f024ddaf506c22eb8484846040516115a29392919061267b565b60405180910390a15b50505050565b600082815260d0602090815260408083206001600160a01b03851684529091529020600101545b92915050565b60008060cd84815481106115f4576115f4612912565b60009182526020918290206040805160e081018252600790930290910180546001600160a01b0316835260018101549383019390935260028301549082015260038201546060820181905260048301546080830152600583015460a083015260069092015460c08201529150158061166f5750806060015142105b8061167b575060cc5442105b1561168a5760009150506115d8565b600084815260d0602090815260408083206001600160a01b0380881685529083528184208251606081018452815481526001820154948101949094526002015483830152845191516370a0823160e01b81529293929116906370a08231906116f690309060040161266d565b602060405180830381865afa158015611713573d6000803e3d6000fd5b505050506040513d601f19601f820116820180604052508101906117379190612ac5565b608084015160a08501519192509082611758576000955050505050506115d8565b600088815260cf602052604090205460ff161561180c576000856060015142611781919061299f565b90506000818760200151611795919061293e565b9050846117a764e8d4a510008361293e565b6117b1919061298b565b6117bb908561295d565b60c0880151909450156118095760008288604001516117da919061293e565b60c08901519091506117f164e8d4a510008361293e565b6117fb919061298b565b611805908561295d565b9350505b50505b6000846000015164e8d4a51000838760400151611829919061293e565b858860200151611839919061293e565b611843919061295d565b61184d919061298b565b611857919061299f565b96506115d895505050505050565b606060cd805480602002602001604051908101604052809291908181526020016000905b828210156119045760008481526020908190206040805160e0810182526007860290920180546001600160a01b03168352600180820154848601526002820154928401929092526003810154606084015260048101546080840152600581015460a08401526006015460c08301529083529092019101611889565b50505050905090565b60ca546001600160a01b031633146119375760405162461bcd60e51b81526004016104c690612d86565b60cd5460005b818110156115ab57600081815260cf602052604090205460ff1661196057611a4d565b600081815260d0602090815260408083206001600160a01b0388168452909152902060018101546119915750611a4d565b600060cd83815481106119a6576119a6612912565b906000526020600020906007020190506119bf83610aab565b600282015460018301546000906119da906109f0908961293e565b60028501819055600584015490915064e8d4a51000906119fa908361293e565b84600401548660010154611a0e919061293e565b611a18919061295d565b611a22919061298b565b845560068301548290611a3690839061295d565b611a40919061299f565b8360060181905550505050505b611a5681612b0f565b905061193d565b836001600160a01b038116611a845760405162461bcd60e51b81526004016104c690612cb2565b6033546001600160a01b03163314611aae5760405162461bcd60e51b81526004016104c69061287e565b60975460ff1615611ad15760405162461bcd60e51b81526004016104c690612902565b611ada856121df565b15611af75760405162461bcd60e51b81526004016104c690612dc8565b8215611b1d5760008411611b1d5760405162461bcd60e51b81526004016104c690612d36565b8115611b2b57611b2b610cd7565b600060cc544211611b3e5760cc54611b40565b425b6040805160e0810182526001600160a01b038981168252602082018981529282018881526060830185815260006080850181815260a0860182815260c0870183815260cd8054600181018255945296517f83978b4c69c48dd978ab43fe30f077615294f938fb7f936d9eb340e51ea7db2e6007909402938401805473ffffffffffffffffffffffffffffffffffffffff1916919097161790955595517f83978b4c69c48dd978ab43fe30f077615294f938fb7f936d9eb340e51ea7db2f82015591517f83978b4c69c48dd978ab43fe30f077615294f938fb7f936d9eb340e51ea7db30830155517f83978b4c69c48dd978ab43fe30f077615294f938fb7f936d9eb340e51ea7db3182015592517f83978b4c69c48dd978ab43fe30f077615294f938fb7f936d9eb340e51ea7db32840155517f83978b4c69c48dd978ab43fe30f077615294f938fb7f936d9eb340e51ea7db33830155517f83978b4c69c48dd978ab43fe30f077615294f938fb7f936d9eb340e51ea7db349091015590508415611ce15760cb54600090815260cf60205260409020805460ff191660011790555b60cb8054906000611cf183612b0f565b909155506001600160a01b038716600090815260ce60205260409081902091909155517f5f9d2cd19aa3f32e9e8cc45267a493f9956c1b955a220136161ff8ad595bc78290610cc790889088908890612ae6565b6033546001600160a01b03163314611d6f5760405162461bcd60e51b81526004016104c69061287e565b6001600160a01b038116611d955760405162461bcd60e51b81526004016104c690612e30565b611d9e81612098565b50565b60c9546040516370a0823160e01b815260009182916001600160a01b03909116906370a0823190611dd690309060040161266d565b602060405180830381865afa158015611df3573d6000803e3d6000fd5b505050506040513d601f19601f82011682018060405250810190611e179190612ac5565b905060008111611e395760405162461bcd60e51b81526004016104c690612e72565b80831115611e5f5760c954611e58906001600160a01b0316858361220e565b90506115d8565b60c954611e76906001600160a01b0316858561220e565b829150506115d8565b60975460ff16611ea15760405162461bcd60e51b81526004016104c690612eb4565b6097805460ff191690557f5db9ee0a495bf2e6ff9c91a7834c1ba4fdd244a5e8aa4e537bd38aeae4b073aa335b604051611edb919061266d565b60405180910390a1565b600080846001600160a01b03166370a08231306040518263ffffffff1660e01b8152600401611f14919061266d565b602060405180830381865afa158015611f31573d6000803e3d6000fd5b505050506040513d601f19601f82011682018060405250810190611f559190612ac5565b90508515611f7657611f716001600160a01b038616858561220e565b611f8b565b611f8b6001600160a01b038616853086612296565b6040516370a0823160e01b81526000906001600160a01b038716906370a0823190611fba90309060040161266d565b602060405180830381865afa158015611fd7573d6000803e3d6000fd5b505050506040513d601f19601f82011682018060405250810190611ffb9190612ac5565b9050866120115761200c828261299f565b61201b565b61201b818361299f565b925050505b949350505050565b60006003821115612089575080600061204260028361298b565b61204d90600161295d565b90505b8181101561208357905080600281612068818661298b565b612072919061295d565b61207c919061298b565b9050612050565b50919050565b8115612093575060015b919050565b603380546001600160a01b0383811673ffffffffffffffffffffffffffffffffffffffff19831681179093556040519116919082907f8be0079c531659141344cd1fd0a4f28419497f9722a3daafe3b4186f6b6457e090600090a35050565b60975460ff161561211a5760405162461bcd60e51b81526004016104c690612902565b6097805460ff191660011790557f62e78cea01bee320cd4e420270b5ea74000d11b0c9f74754ebdbfc544b05a258611ece3390565b600054610100900460ff166121765760405162461bcd60e51b81526004016104c690612f1c565b6107936122b7565b600054610100900460ff166121a55760405162461bcd60e51b81526004016104c690612f1c565b6001606555565b600054610100900460ff166121d35760405162461bcd60e51b81526004016104c690612f1c565b6097805460ff19169055565b6001600160a01b038116600090815260ce602052604081205480612204576000612207565b60015b9392505050565b6122918363a9059cbb60e01b848460405160240161222d929190612af4565b60408051601f198184030181529190526020810180517bffffffffffffffffffffffffffffffffffffffffffffffffffffffff167fffffffff00000000000000000000000000000000000000000000000000000000909316929092179091526122e7565b505050565b6115ab846323b872dd60e01b85858560405160240161222d93929190612f2c565b600054610100900460ff166122de5760405162461bcd60e51b81526004016104c690612f1c565b61079333612098565b600061233c826040518060400160405280602081526020017f5361666545524332303a206c6f772d6c6576656c2063616c6c206661696c6564815250856001600160a01b03166123769092919063ffffffff16565b805190915015612291578080602001905181019061235a9190612f52565b6122915760405162461bcd60e51b81526004016104c690612fcb565b6060612020848460008585843b61239f5760405162461bcd60e51b81526004016104c69061300d565b600080866001600160a01b031685876040516123bb919061303f565b60006040518083038185875af1925050503d80600081146123f8576040519150601f19603f3d011682016040523d82523d6000602084013e6123fd565b606091505b509150915061201b82828660608315612417575081612207565b8251156124275782518084602001fd5b8160405162461bcd60e51b81526004016104c6919061249f565b60005b8381101561245c578181015183820152602001612444565b838111156115ab5750506000910152565b6000612477825190565b80845260208401935061248e818560208601612441565b601f01601f19169290920192915050565b60208082528101612207818461246d565b60006001600160a01b0382166115d8565b6124ca816124b0565b8114611d9e57600080fd5b80356115d8816124c1565b6000602082840312156124f5576124f5600080fd5b600061202084846124d5565b805b82525050565b602081016115d88284612501565b806124ca565b80356115d881612517565b6000806040838503121561253e5761253e600080fd5b600061254a858561251d565b925050602061255b858286016124d5565b9150509250929050565b60006115d8826124b0565b60006115d882612565565b61250381612570565b602081016115d8828461257b565b6000602082840312156125a7576125a7600080fd5b6000612020848461251d565b612503816124b0565b60e081016125ca828a6125b3565b6125d76020830189612501565b6125e46040830188612501565b6125f16060830187612501565b6125fe6080830186612501565b61260b60a0830185612501565b61261860c0830184612501565b98975050505050505050565b6000806040838503121561263a5761263a600080fd5b6000612646858561251d565b925050602061255b8582860161251d565b801515612503565b602081016115d88284612657565b602081016115d882846125b3565b606081016126898286612501565b6126966020830185612501565b6120206040830184612501565b8015156124ca565b80356115d8816126a3565b600080600080608085870312156126cf576126cf600080fd5b60006126db878761251d565b94505060206126ec8782880161251d565b93505060406126fd8782880161251d565b925050606061270e878288016126ab565b91505092959194509250565b805161272683826125b3565b5060208101516127396020840182612501565b50604081015161274c6040840182612501565b50606081015161275f6060840182612501565b5060808101516127726080840182612501565b5060a081015161278560a0840182612501565b5060c081015161229160c0840182612501565b6127a2828261271a565b5060e00190565b60200190565b60006127b9825190565b808452602093840193830160005b828110156127ec5781516127db8782612798565b9650506020820191506001016127c7565b5093949350505050565b6020808252810161220781846127af565b6000806040838503121561281d5761281d600080fd5b600061264685856124d5565b6000806000806080858703121561284257612842600080fd5b60006126db87876124d5565b60208082527f4f776e61626c653a2063616c6c6572206973206e6f7420746865206f776e657291019081526127a9565b602080825281016115d88161284e565b601f8152602081017f5265656e7472616e637947756172643a207265656e7472616e742063616c6c00815290506127a9565b602080825281016115d88161288e565b60108152602081017f5061757361626c653a2070617573656400000000000000000000000000000000815290506127a9565b602080825281016115d8816128d0565b634e487b7160e01b600052603260045260246000fd5b634e487b7160e01b600052601160045260246000fd5b600081600019048311821515161561295857612958612928565b500290565b6000821982111561297057612970612928565b500190565b634e487b7160e01b600052601260045260246000fd5b60008261299a5761299a612975565b500490565b6000828210156129b1576129b1612928565b500390565b60118152602081017f4e6f2070656e64696e6720726577617264000000000000000000000000000000815290506127a9565b602080825281016115d8816129b6565b60808101612a0682876125b3565b612a1360208301866125b3565b612a206040830185612501565b612a2d6060830184612501565b95945050505050565b600b8152602081017f5a65726f20616d6f756e74000000000000000000000000000000000000000000815290506127a9565b602080825281016115d881612a36565b60198152602081017f4e6f7420656e6f756768207374616b696e6742616c616e636500000000000000815290506127a9565b602080825281016115d881612a78565b80516115d881612517565b600060208284031215612ada57612ada600080fd5b60006120208484612aba565b6060810161268982866125b3565b60408101612b0282856125b3565b6122076020830184612501565b6000600019821415612b2357612b23612928565b5060010190565b60138152602081017f506f6f6c206973206e6f74206661726d696e6700000000000000000000000000815290506127a9565b602080825281016115d881612b2a565b60128152602081017f43616e206e6f74207374616b65207a65726f0000000000000000000000000000815290506127a9565b602080825281016115d881612b6c565b602f8152602081017f43616e206e6f74207365742073746172742074696d657374616d70206166746581527f7220616464696e67206120706f6f6c0000000000000000000000000000000000602082015290505b60400190565b602080825281016115d881612bae565b602e8152602081017f496e697469616c697a61626c653a20636f6e747261637420697320616c72656181527f647920696e697469616c697a656400000000000000000000000000000000000060208201529050612c02565b602080825281016115d881612c18565b600c8152602081017f5a65726f20616464726573730000000000000000000000000000000000000000815290506127a9565b602080825281016115d881612c80565b600f8152602081017f506f6f6c206e6f74206578697374730000000000000000000000000000000000815290506127a9565b602080825281016115d881612cc2565b600a8152602081017f4f6e6c7920626f6e757300000000000000000000000000000000000000000000815290506127a9565b602080825281016115d881612d04565b60408101612b028285612501565b60138152602081017f4f6e6c7920766544454720636f6e747261637400000000000000000000000000815290506127a9565b602080825281016115d881612d54565b60138152602081017f416c726561647920696e2074686520706f6f6c00000000000000000000000000815290506127a9565b602080825281016115d881612d96565b60268152602081017f4f776e61626c653a206e6577206f776e657220697320746865207a65726f206181527f646472657373000000000000000000000000000000000000000000000000000060208201529050612c02565b602080825281016115d881612dd8565b601a8152602081017f4e6f20446567697320746f6b656e20696e2074686520706f6f6c000000000000815290506127a9565b602080825281016115d881612e40565b60148152602081017f5061757361626c653a206e6f7420706175736564000000000000000000000000815290506127a9565b602080825281016115d881612e82565b602b8152602081017f496e697469616c697a61626c653a20636f6e7472616374206973206e6f74206981527f6e697469616c697a696e6700000000000000000000000000000000000000000060208201529050612c02565b602080825281016115d881612ec4565b60608101612f3a82866125b3565b61269660208301856125b3565b80516115d8816126a3565b600060208284031215612f6757612f67600080fd5b60006120208484612f47565b602a8152602081017f5361666545524332303a204552433230206f7065726174696f6e20646964206e81527f6f7420737563636565640000000000000000000000000000000000000000000060208201529050612c02565b602080825281016115d881612f73565b601d8152602081017f416464726573733a2063616c6c20746f206e6f6e2d636f6e7472616374000000815290506127a9565b602080825281016115d881612fdb565b6000613027825190565b613035818560208601612441565b9290920192915050565b6115d8818361301d56fea264697066735822122093456cdf6f6ade2c424dcb5d0922b35d7ffe8f325988053e54b43d48a0e8b72e64736f6c634300080a0033",
  "devdoc": {
    "details": "The pool id starts from 1 rather than 0         The degis reward is calculated by timestamp rather than block number         VeDEG will boost the farming speed by having a extra reward type         The extra reward is shared by those staking lptokens with veDEG balances         Every time the veDEG balance change, the reward will be updated",
    "kind": "dev",
    "methods": {
      "add(address,uint256,uint256,bool)": {
        "details": "Can only be called by the owner      The reward speed can be 0 and set later by setDegisReward function",
        "params": {
          "_basicDegisPerSecond": "Basic reward speed(per second) for this new pool",
          "_bonusDegisPerSecond": "Bonus reward speed(per second) for this new pool",
          "_lpToken": "LP token address",
          "_withUpdate": "Whether update all pools' status"
        }
      },
      "getPoolList()": {
        "returns": {
          "_0": "pooList Total pool list"
        }
      },
      "getUserBalance(uint256,address)": {
        "params": {
          "_poolId": "Id of the pool",
          "_user": "User address"
        },
        "returns": {
          "_0": "balance User's balance (lpToken)"
        }
      },
      "harvest(uint256,address)": {
        "params": {
          "_poolId": "Id of the farming pool",
          "_to": "Receiver of degis rewards"
        }
      },
      "massUpdatePools()": {
        "details": "Can be called by anyone      Only update those active pools"
      },
      "owner()": {
        "details": "Returns the address of the current owner."
      },
      "paused()": {
        "details": "Returns true if the contract is paused, and false otherwise."
      },
      "pendingDegis(uint256,address)": {
        "params": {
          "_poolId": "PoolId of this farming pool",
          "_user": "User address"
        },
        "returns": {
          "_0": "pendingDegisAmount Amount of pending degis"
        }
      },
      "renounceOwnership()": {
        "details": "Leaves the contract without owner. It will not be possible to call `onlyOwner` functions anymore. Can only be called by the current owner. NOTE: Renouncing ownership will leave the contract without an owner, thereby removing any functionality that is only available to the owner."
      },
      "setDegisReward(uint256,uint256,uint256,bool)": {
        "params": {
          "_basicDegisPerSecond": "New basic reward amount per second",
          "_bonusDegisPerSecond": "New bonus reward amount per second",
          "_poolId": "Id of the farming pool",
          "_withUpdate": "Whether update all pools"
        }
      },
      "setStartTimestamp(uint256)": {
        "params": {
          "_startTimestamp": "New start block timestamp"
        }
      },
      "stake(uint256,uint256)": {
        "details": "Can only stake to the pools that are still farming",
        "params": {
          "_amount": "Staking amount",
          "_poolId": "Id of the farming pool"
        }
      },
      "transferOwnership(address)": {
        "details": "Transfers ownership of the contract to a new account (`newOwner`). Can only be called by the current owner."
      },
      "updateBonus(address,uint256)": {
        "details": "When veDEG has balance change      Only called by veDEG contract",
        "params": {
          "_newVeDEGBalance": "New veDEG balance",
          "_user": "User address"
        }
      },
      "updatePool(uint256)": {
        "params": {
          "_poolId": "Id of the farming pool"
        }
      },
      "withdraw(uint256,uint256)": {
        "params": {
          "_amount": "Amount of lp tokens to withdraw",
          "_poolId": "Id of the farming pool"
        }
      }
    },
    "title": "Farming Pool",
    "version": 1
  },
  "userdoc": {
    "kind": "user",
    "methods": {
      "add(address,uint256,uint256,bool)": {
        "notice": "Add a new lp into the pool"
      },
      "getPoolList()": {
        "notice": "Get the total pool list"
      },
      "getUserBalance(uint256,address)": {
        "notice": "Get a user's balance"
      },
      "harvest(uint256,address)": {
        "notice": "Harvest the degis reward and can be sent to another address"
      },
      "massUpdatePools()": {
        "notice": "Update all farming pools (except for those stopped ones)"
      },
      "pendingDegis(uint256,address)": {
        "notice": "Check the amount of pending degis reward"
      },
      "setDegisReward(uint256,uint256,uint256,bool)": {
        "notice": "Update the degisPerSecond for a specific pool (set to 0 to stop farming)"
      },
      "setStartTimestamp(uint256)": {
        "notice": "Set the start block timestamp"
      },
      "stake(uint256,uint256)": {
        "notice": "Stake LP token into the farming pool"
      },
      "updateBonus(address,uint256)": {
        "notice": "Update a user's bonus"
      },
      "updatePool(uint256)": {
        "notice": "Update the pool's reward status"
      },
      "withdraw(uint256,uint256)": {
        "notice": "Withdraw lptoken from the pool"
      }
    },
    "notice": "This contract is for LPToken mining on Degis",
    "version": 1
  },
  "storageLayout": {
    "storage": [
      {
        "astId": 2523,
        "contract": "contracts/farming/FarmingPoolUpgradeable.sol:FarmingPoolUpgradeable",
        "label": "_initialized",
        "offset": 0,
        "slot": "0",
        "type": "t_bool"
      },
      {
        "astId": 2526,
        "contract": "contracts/farming/FarmingPoolUpgradeable.sol:FarmingPoolUpgradeable",
        "label": "_initializing",
        "offset": 1,
        "slot": "0",
        "type": "t_bool"
      },
      {
        "astId": 3044,
        "contract": "contracts/farming/FarmingPoolUpgradeable.sol:FarmingPoolUpgradeable",
        "label": "__gap",
        "offset": 0,
        "slot": "1",
        "type": "t_array(t_uint256)50_storage"
      },
      {
        "astId": 2403,
        "contract": "contracts/farming/FarmingPoolUpgradeable.sol:FarmingPoolUpgradeable",
        "label": "_owner",
        "offset": 0,
        "slot": "51",
        "type": "t_address"
      },
      {
        "astId": 2515,
        "contract": "contracts/farming/FarmingPoolUpgradeable.sol:FarmingPoolUpgradeable",
        "label": "__gap",
        "offset": 0,
        "slot": "52",
        "type": "t_array(t_uint256)49_storage"
      },
      {
        "astId": 2715,
        "contract": "contracts/farming/FarmingPoolUpgradeable.sol:FarmingPoolUpgradeable",
        "label": "_status",
        "offset": 0,
        "slot": "101",
        "type": "t_uint256"
      },
      {
        "astId": 2759,
        "contract": "contracts/farming/FarmingPoolUpgradeable.sol:FarmingPoolUpgradeable",
        "label": "__gap",
        "offset": 0,
        "slot": "102",
        "type": "t_array(t_uint256)49_storage"
      },
      {
        "astId": 2611,
        "contract": "contracts/farming/FarmingPoolUpgradeable.sol:FarmingPoolUpgradeable",
        "label": "_paused",
        "offset": 0,
        "slot": "151",
        "type": "t_bool"
      },
      {
        "astId": 2700,
        "contract": "contracts/farming/FarmingPoolUpgradeable.sol:FarmingPoolUpgradeable",
        "label": "__gap",
        "offset": 0,
        "slot": "152",
        "type": "t_array(t_uint256)49_storage"
      },
      {
        "astId": 10685,
        "contract": "contracts/farming/FarmingPoolUpgradeable.sol:FarmingPoolUpgradeable",
        "label": "degis",
        "offset": 0,
        "slot": "201",
        "type": "t_contract(IDegisToken)29119"
      },
      {
        "astId": 10688,
        "contract": "contracts/farming/FarmingPoolUpgradeable.sol:FarmingPoolUpgradeable",
        "label": "veDEG",
        "offset": 0,
        "slot": "202",
        "type": "t_contract(IVeDEG)14928"
      },
      {
        "astId": 10693,
        "contract": "contracts/farming/FarmingPoolUpgradeable.sol:FarmingPoolUpgradeable",
        "label": "_nextPoolId",
        "offset": 0,
        "slot": "203",
        "type": "t_uint256"
      },
      {
        "astId": 10695,
        "contract": "contracts/farming/FarmingPoolUpgradeable.sol:FarmingPoolUpgradeable",
        "label": "startTimestamp",
        "offset": 0,
        "slot": "204",
        "type": "t_uint256"
      },
      {
        "astId": 10714,
        "contract": "contracts/farming/FarmingPoolUpgradeable.sol:FarmingPoolUpgradeable",
        "label": "poolList",
        "offset": 0,
        "slot": "205",
        "type": "t_array(t_struct(PoolInfo)10710_storage)dyn_storage"
      },
      {
        "astId": 10718,
        "contract": "contracts/farming/FarmingPoolUpgradeable.sol:FarmingPoolUpgradeable",
        "label": "poolMapping",
        "offset": 0,
        "slot": "206",
        "type": "t_mapping(t_address,t_uint256)"
      },
      {
        "astId": 10722,
        "contract": "contracts/farming/FarmingPoolUpgradeable.sol:FarmingPoolUpgradeable",
        "label": "isFarming",
        "offset": 0,
        "slot": "207",
        "type": "t_mapping(t_uint256,t_bool)"
      },
      {
        "astId": 10736,
        "contract": "contracts/farming/FarmingPoolUpgradeable.sol:FarmingPoolUpgradeable",
        "label": "userInfo",
        "offset": 0,
        "slot": "208",
        "type": "t_mapping(t_uint256,t_mapping(t_address,t_struct(UserInfo)10729_storage))"
      }
    ],
    "types": {
      "t_address": {
        "encoding": "inplace",
        "label": "address",
        "numberOfBytes": "20"
      },
      "t_array(t_struct(PoolInfo)10710_storage)dyn_storage": {
        "base": "t_struct(PoolInfo)10710_storage",
        "encoding": "dynamic_array",
        "label": "struct FarmingPoolUpgradeable.PoolInfo[]",
        "numberOfBytes": "32"
      },
      "t_array(t_uint256)49_storage": {
        "base": "t_uint256",
        "encoding": "inplace",
        "label": "uint256[49]",
        "numberOfBytes": "1568"
      },
      "t_array(t_uint256)50_storage": {
        "base": "t_uint256",
        "encoding": "inplace",
        "label": "uint256[50]",
        "numberOfBytes": "1600"
      },
      "t_bool": {
        "encoding": "inplace",
        "label": "bool",
        "numberOfBytes": "1"
      },
      "t_contract(IDegisToken)29119": {
        "encoding": "inplace",
        "label": "contract IDegisToken",
        "numberOfBytes": "20"
      },
      "t_contract(IVeDEG)14928": {
        "encoding": "inplace",
        "label": "contract IVeDEG",
        "numberOfBytes": "20"
      },
      "t_mapping(t_address,t_struct(UserInfo)10729_storage)": {
        "encoding": "mapping",
        "key": "t_address",
        "label": "mapping(address => struct FarmingPoolUpgradeable.UserInfo)",
        "numberOfBytes": "32",
        "value": "t_struct(UserInfo)10729_storage"
      },
      "t_mapping(t_address,t_uint256)": {
        "encoding": "mapping",
        "key": "t_address",
        "label": "mapping(address => uint256)",
        "numberOfBytes": "32",
        "value": "t_uint256"
      },
      "t_mapping(t_uint256,t_bool)": {
        "encoding": "mapping",
        "key": "t_uint256",
        "label": "mapping(uint256 => bool)",
        "numberOfBytes": "32",
        "value": "t_bool"
      },
      "t_mapping(t_uint256,t_mapping(t_address,t_struct(UserInfo)10729_storage))": {
        "encoding": "mapping",
        "key": "t_uint256",
        "label": "mapping(uint256 => mapping(address => struct FarmingPoolUpgradeable.UserInfo))",
        "numberOfBytes": "32",
        "value": "t_mapping(t_address,t_struct(UserInfo)10729_storage)"
      },
      "t_struct(PoolInfo)10710_storage": {
        "encoding": "inplace",
        "label": "struct FarmingPoolUpgradeable.PoolInfo",
        "members": [
          {
            "astId": 10697,
            "contract": "contracts/farming/FarmingPoolUpgradeable.sol:FarmingPoolUpgradeable",
            "label": "lpToken",
            "offset": 0,
            "slot": "0",
            "type": "t_address"
          },
          {
            "astId": 10699,
            "contract": "contracts/farming/FarmingPoolUpgradeable.sol:FarmingPoolUpgradeable",
            "label": "basicDegisPerSecond",
            "offset": 0,
            "slot": "1",
            "type": "t_uint256"
          },
          {
            "astId": 10701,
            "contract": "contracts/farming/FarmingPoolUpgradeable.sol:FarmingPoolUpgradeable",
            "label": "bonusDegisPerSecond",
            "offset": 0,
            "slot": "2",
            "type": "t_uint256"
          },
          {
            "astId": 10703,
            "contract": "contracts/farming/FarmingPoolUpgradeable.sol:FarmingPoolUpgradeable",
            "label": "lastRewardTimestamp",
            "offset": 0,
            "slot": "3",
            "type": "t_uint256"
          },
          {
            "astId": 10705,
            "contract": "contracts/farming/FarmingPoolUpgradeable.sol:FarmingPoolUpgradeable",
            "label": "accDegisPerShare",
            "offset": 0,
            "slot": "4",
            "type": "t_uint256"
          },
          {
            "astId": 10707,
            "contract": "contracts/farming/FarmingPoolUpgradeable.sol:FarmingPoolUpgradeable",
            "label": "accDegisPerBonusShare",
            "offset": 0,
            "slot": "5",
            "type": "t_uint256"
          },
          {
            "astId": 10709,
            "contract": "contracts/farming/FarmingPoolUpgradeable.sol:FarmingPoolUpgradeable",
            "label": "totalBonus",
            "offset": 0,
            "slot": "6",
            "type": "t_uint256"
          }
        ],
        "numberOfBytes": "224"
      },
      "t_struct(UserInfo)10729_storage": {
        "encoding": "inplace",
        "label": "struct FarmingPoolUpgradeable.UserInfo",
        "members": [
          {
            "astId": 10724,
            "contract": "contracts/farming/FarmingPoolUpgradeable.sol:FarmingPoolUpgradeable",
            "label": "rewardDebt",
            "offset": 0,
            "slot": "0",
            "type": "t_uint256"
          },
          {
            "astId": 10726,
            "contract": "contracts/farming/FarmingPoolUpgradeable.sol:FarmingPoolUpgradeable",
            "label": "stakingBalance",
            "offset": 0,
            "slot": "1",
            "type": "t_uint256"
          },
          {
            "astId": 10728,
            "contract": "contracts/farming/FarmingPoolUpgradeable.sol:FarmingPoolUpgradeable",
            "label": "bonus",
            "offset": 0,
            "slot": "2",
            "type": "t_uint256"
          }
        ],
        "numberOfBytes": "96"
      },
      "t_uint256": {
        "encoding": "inplace",
        "label": "uint256",
        "numberOfBytes": "32"
      }
    }
  }
}