{
  "address": "0xB3B5882Ef86AfA314FaC3D4F6CE8704f94952976",
  "abi": [
    {
      "inputs": [
        {
          "internalType": "address",
          "name": "_degis",
          "type": "address"
        }
      ],
      "stateMutability": "nonpayable",
      "type": "constructor"
    },
    {
      "inputs": [
        {
          "internalType": "uint256",
          "name": "prod1",
          "type": "uint256"
        }
      ],
      "name": "PRBMath__MulDivFixedPointOverflow",
      "type": "error"
    },
    {
      "inputs": [
        {
          "internalType": "uint256",
          "name": "prod1",
          "type": "uint256"
        },
        {
          "internalType": "uint256",
          "name": "denominator",
          "type": "uint256"
        }
      ],
      "name": "PRBMath__MulDivOverflow",
      "type": "error"
    },
    {
      "anonymous": false,
      "inputs": [
        {
          "indexed": false,
          "internalType": "uint256",
          "name": "poolId",
          "type": "uint256"
        },
        {
          "indexed": false,
          "internalType": "uint256",
          "name": "blockNumber",
          "type": "uint256"
        }
      ],
      "name": "FarmingPoolStopped",
      "type": "event"
    },
    {
      "anonymous": false,
      "inputs": [
        {
          "indexed": false,
          "internalType": "address",
          "name": "staker",
          "type": "address"
        },
        {
          "indexed": false,
          "internalType": "address",
          "name": "rewardReceiver",
          "type": "address"
        },
        {
          "indexed": false,
          "internalType": "uint256",
          "name": "poolId",
          "type": "uint256"
        },
        {
          "indexed": false,
          "internalType": "uint256",
          "name": "pendingReward",
          "type": "uint256"
        }
      ],
      "name": "Harvest",
      "type": "event"
    },
    {
      "anonymous": false,
      "inputs": [
        {
          "indexed": false,
          "internalType": "address",
          "name": "staker",
          "type": "address"
        },
        {
          "indexed": false,
          "internalType": "uint256",
          "name": "poolId",
          "type": "uint256"
        },
        {
          "indexed": false,
          "internalType": "uint256",
          "name": "pendingReward",
          "type": "uint256"
        }
      ],
      "name": "HarvestAndCompound",
      "type": "event"
    },
    {
      "anonymous": false,
      "inputs": [
        {
          "indexed": false,
          "internalType": "address",
          "name": "lpToken",
          "type": "address"
        },
        {
          "indexed": false,
          "internalType": "uint256",
          "name": "degisPerBlock",
          "type": "uint256"
        }
      ],
      "name": "NewPoolAdded",
      "type": "event"
    },
    {
      "anonymous": false,
      "inputs": [
        {
          "indexed": true,
          "internalType": "address",
          "name": "previousOwner",
          "type": "address"
        },
        {
          "indexed": true,
          "internalType": "address",
          "name": "newOwner",
          "type": "address"
        }
      ],
      "name": "OwnershipTransferred",
      "type": "event"
    },
    {
      "anonymous": false,
      "inputs": [
        {
          "indexed": false,
          "internalType": "uint256",
          "name": "poolId",
          "type": "uint256"
        }
      ],
      "name": "PoolUpdated",
      "type": "event"
    },
    {
      "anonymous": false,
      "inputs": [
        {
          "indexed": false,
          "internalType": "uint256",
          "name": "poolId",
          "type": "uint256"
        },
        {
          "indexed": false,
          "internalType": "uint256",
          "name": "blockNumber",
          "type": "uint256"
        }
      ],
      "name": "RestartFarmingPool",
      "type": "event"
    },
    {
      "anonymous": false,
      "inputs": [
        {
          "indexed": false,
          "internalType": "address",
          "name": "staker",
          "type": "address"
        },
        {
          "indexed": false,
          "internalType": "uint256",
          "name": "poolId",
          "type": "uint256"
        },
        {
          "indexed": false,
          "internalType": "uint256",
          "name": "amount",
          "type": "uint256"
        }
      ],
      "name": "Stake",
      "type": "event"
    },
    {
      "anonymous": false,
      "inputs": [
        {
          "indexed": false,
          "internalType": "uint256",
          "name": "startBlock",
          "type": "uint256"
        }
      ],
      "name": "StartBlockChanged",
      "type": "event"
    },
    {
      "anonymous": false,
      "inputs": [
        {
          "indexed": false,
          "internalType": "address",
          "name": "staker",
          "type": "address"
        },
        {
          "indexed": false,
          "internalType": "uint256",
          "name": "poolId",
          "type": "uint256"
        },
        {
          "indexed": false,
          "internalType": "uint256",
          "name": "amount",
          "type": "uint256"
        }
      ],
      "name": "Withdraw",
      "type": "event"
    },
    {
      "inputs": [],
      "name": "_nextPoolId",
      "outputs": [
        {
          "internalType": "uint256",
          "name": "",
          "type": "uint256"
        }
      ],
      "stateMutability": "view",
      "type": "function"
    },
    {
      "inputs": [
        {
          "internalType": "address",
          "name": "_lpToken",
          "type": "address"
        },
        {
          "internalType": "uint256",
          "name": "_degisPerBlock",
          "type": "uint256"
        },
        {
          "internalType": "bool",
          "name": "_withUpdate",
          "type": "bool"
        }
      ],
      "name": "add",
      "outputs": [],
      "stateMutability": "nonpayable",
      "type": "function"
    },
    {
      "inputs": [],
      "name": "degis",
      "outputs": [
        {
          "internalType": "contract IDegisToken",
          "name": "",
          "type": "address"
        }
      ],
      "stateMutability": "view",
      "type": "function"
    },
    {
      "inputs": [],
      "name": "getPoolList",
      "outputs": [
        {
          "components": [
            {
              "internalType": "address",
              "name": "lpToken",
              "type": "address"
            },
            {
              "internalType": "uint256",
              "name": "degisPerBlock",
              "type": "uint256"
            },
            {
              "internalType": "uint256",
              "name": "lastRewardBlock",
              "type": "uint256"
            },
            {
              "internalType": "uint256",
              "name": "accDegisPerShare",
              "type": "uint256"
            }
          ],
          "internalType": "struct FarmingPool.PoolInfo[]",
          "name": "",
          "type": "tuple[]"
        }
      ],
      "stateMutability": "view",
      "type": "function"
    },
    {
      "inputs": [
        {
          "internalType": "uint256",
          "name": "_poolId",
          "type": "uint256"
        },
        {
          "internalType": "address",
          "name": "_user",
          "type": "address"
        }
      ],
      "name": "getUserBalance",
      "outputs": [
        {
          "internalType": "uint256",
          "name": "_balance",
          "type": "uint256"
        }
      ],
      "stateMutability": "view",
      "type": "function"
    },
    {
      "inputs": [
        {
          "internalType": "uint256",
          "name": "_poolId",
          "type": "uint256"
        },
        {
          "internalType": "address",
          "name": "_to",
          "type": "address"
        }
      ],
      "name": "harvest",
      "outputs": [],
      "stateMutability": "nonpayable",
      "type": "function"
    },
    {
      "inputs": [
        {
          "internalType": "uint256",
          "name": "",
          "type": "uint256"
        }
      ],
      "name": "isFarming",
      "outputs": [
        {
          "internalType": "bool",
          "name": "",
          "type": "bool"
        }
      ],
      "stateMutability": "view",
      "type": "function"
    },
    {
      "inputs": [],
      "name": "massUpdatePools",
      "outputs": [],
      "stateMutability": "nonpayable",
      "type": "function"
    },
    {
      "inputs": [],
      "name": "owner",
      "outputs": [
        {
          "internalType": "address",
          "name": "",
          "type": "address"
        }
      ],
      "stateMutability": "view",
      "type": "function"
    },
    {
      "inputs": [
        {
          "internalType": "uint256",
          "name": "_poolId",
          "type": "uint256"
        },
        {
          "internalType": "address",
          "name": "_user",
          "type": "address"
        }
      ],
      "name": "pendingDegis",
      "outputs": [
        {
          "internalType": "uint256",
          "name": "",
          "type": "uint256"
        }
      ],
      "stateMutability": "view",
      "type": "function"
    },
    {
      "inputs": [
        {
          "internalType": "uint256",
          "name": "",
          "type": "uint256"
        }
      ],
      "name": "poolList",
      "outputs": [
        {
          "internalType": "address",
          "name": "lpToken",
          "type": "address"
        },
        {
          "internalType": "uint256",
          "name": "degisPerBlock",
          "type": "uint256"
        },
        {
          "internalType": "uint256",
          "name": "lastRewardBlock",
          "type": "uint256"
        },
        {
          "internalType": "uint256",
          "name": "accDegisPerShare",
          "type": "uint256"
        }
      ],
      "stateMutability": "view",
      "type": "function"
    },
    {
      "inputs": [
        {
          "internalType": "address",
          "name": "",
          "type": "address"
        }
      ],
      "name": "poolMapping",
      "outputs": [
        {
          "internalType": "uint256",
          "name": "",
          "type": "uint256"
        }
      ],
      "stateMutability": "view",
      "type": "function"
    },
    {
      "inputs": [],
      "name": "renounceOwnership",
      "outputs": [],
      "stateMutability": "nonpayable",
      "type": "function"
    },
    {
      "inputs": [
        {
          "internalType": "uint256",
          "name": "_poolId",
          "type": "uint256"
        },
        {
          "internalType": "uint256",
          "name": "_degisPerBlock",
          "type": "uint256"
        },
        {
          "internalType": "bool",
          "name": "_withUpdate",
          "type": "bool"
        }
      ],
      "name": "setDegisReward",
      "outputs": [],
      "stateMutability": "nonpayable",
      "type": "function"
    },
    {
      "inputs": [
        {
          "internalType": "uint256",
          "name": "_startBlock",
          "type": "uint256"
        }
      ],
      "name": "setStartBlock",
      "outputs": [],
      "stateMutability": "nonpayable",
      "type": "function"
    },
    {
      "inputs": [
        {
          "internalType": "uint256",
          "name": "_poolId",
          "type": "uint256"
        },
        {
          "internalType": "uint256",
          "name": "_amount",
          "type": "uint256"
        }
      ],
      "name": "stake",
      "outputs": [],
      "stateMutability": "nonpayable",
      "type": "function"
    },
    {
      "inputs": [],
      "name": "startBlock",
      "outputs": [
        {
          "internalType": "uint256",
          "name": "",
          "type": "uint256"
        }
      ],
      "stateMutability": "view",
      "type": "function"
    },
    {
      "inputs": [
        {
          "internalType": "address",
          "name": "newOwner",
          "type": "address"
        }
      ],
      "name": "transferOwnership",
      "outputs": [],
      "stateMutability": "nonpayable",
      "type": "function"
    },
    {
      "inputs": [
        {
          "internalType": "uint256",
          "name": "_poolId",
          "type": "uint256"
        }
      ],
      "name": "updatePool",
      "outputs": [],
      "stateMutability": "nonpayable",
      "type": "function"
    },
    {
      "inputs": [
        {
          "internalType": "uint256",
          "name": "",
          "type": "uint256"
        },
        {
          "internalType": "address",
          "name": "",
          "type": "address"
        }
      ],
      "name": "userInfo",
      "outputs": [
        {
          "internalType": "uint256",
          "name": "rewardDebt",
          "type": "uint256"
        },
        {
          "internalType": "uint256",
          "name": "stakingBalance",
          "type": "uint256"
        }
      ],
      "stateMutability": "view",
      "type": "function"
    },
    {
      "inputs": [
        {
          "internalType": "uint256",
          "name": "_poolId",
          "type": "uint256"
        },
        {
          "internalType": "uint256",
          "name": "_amount",
          "type": "uint256"
        }
      ],
      "name": "withdraw",
      "outputs": [],
      "stateMutability": "nonpayable",
      "type": "function"
    }
  ],
  "transactionHash": "0x0a3f8c05293248efaa7a8bfbb2fe5f2cc71648d8ad9d59005f73a5b432f6d3f7",
  "args": [
    "0x03Caaf72E46498420E071292ad5dA2DA921B604C"
  ],
  "numDeployments": 1,
  "solcInputHash": "c93208af0650ec7944554f5ed4da2f2f",
  "bytecode": "0x60806040523480156200001157600080fd5b5060405162002210380380620022108339810160408190526200003491620001d1565b6200003f3362000147565b6001808055600780546001600160a01b03199081166001600160a01b03948516179091556002829055604080516080810182526000808252602082018181529282018181526060830182815260038054978801815590925291517fc2575a0e9e593c00f959f8c92f12db2869c3395a3b0502d05e2516446f71f85b60049096029586018054909516961695909517909255517fc2575a0e9e593c00f959f8c92f12db2869c3395a3b0502d05e2516446f71f85c830155517fc2575a0e9e593c00f959f8c92f12db2869c3395a3b0502d05e2516446f71f85d82015590517fc2575a0e9e593c00f959f8c92f12db2869c3395a3b0502d05e2516446f71f85e90910155620001fe565b600080546001600160a01b038381166001600160a01b0319831681178455604051919092169283917f8be0079c531659141344cd1fd0a4f28419497f9722a3daafe3b4186f6b6457e09190a35050565b60006001600160a01b0382165b92915050565b620001b58162000197565b8114620001c157600080fd5b50565b8051620001a481620001aa565b600060208284031215620001e857620001e8600080fd5b6000620001f68484620001c4565b949350505050565b612002806200020e6000396000f3fe608060405234801561001057600080fd5b50600436106101375760003560e01c8063715018a6116100b8578063cdfb6cf31161007c578063cdfb6cf3146102c1578063d13f67bc146102d4578063d41dcbea146102e7578063f2fde38b146102fc578063f35e4a6e1461030f578063f3c30c0a1461032257600080fd5b8063715018a61461021d5780637b0472f0146102255780638da5cb5b1461023857806393f1a40b14610251578063a06ddcb31461029157600080fd5b80632c678a3e116100ff5780632c678a3e146101c6578063441a3e70146101e657806348cd4cb1146101f957806351eb05a614610202578063630b5ba11461021557600080fd5b80630dec23121461013c57806317fb77de1461015157806318fccc761461017057806329fd2007146101835780632a48235b146101a3575b600080fd5b61014f61014a36600461175f565b610335565b005b61015a60025481565b60405161016791906117b7565b60405180910390f35b61014f61017e3660046117c5565b61055b565b600754610196906001600160a01b031681565b6040516101679190611821565b6101b66101b136600461182f565b6106e3565b6040516101679493929190611859565b61015a6101d4366004611897565b60046020526000908152604090205481565b61014f6101f43660046118b8565b610727565b61015a60085481565b61014f61021036600461182f565b6108b6565b61014f610a59565b61014f610aa1565b61014f6102333660046118b8565b610ae6565b6000546001600160a01b031660405161016791906118eb565b61028361025f3660046117c5565b60066020908152600092835260408084209091529082529020805460019091015482565b6040516101679291906118f9565b6102b461029f36600461182f565b60056020526000908152604090205460ff1681565b604051610167919061191c565b61015a6102cf3660046117c5565b610c6b565b61015a6102e23660046117c5565b610c98565b6102ef610e80565b60405161016791906119cd565b61014f61030a366004611897565b610f0a565b61014f61031d36600461182f565b610f75565b61014f6103303660046119de565b611010565b826001600160a01b0381166103655760405162461bcd60e51b815260040161035c90611a34565b60405180910390fd5b336103786000546001600160a01b031690565b6001600160a01b03161461039e5760405162461bcd60e51b815260040161035c90611a74565b6103a7846111ab565b156103c45760405162461bcd60e51b815260040161035c90611acc565b81156103d2576103d2610a59565b600060085443116103e5576008546103e7565b435b604080516080810182526001600160a01b0388811680835260208084018a8152848601878152600060608701818152600380546001808201835591845298517fc2575a0e9e593c00f959f8c92f12db2869c3395a3b0502d05e2516446f71f85b60049a8b0290810180546001600160a01b03191692909a169190911790985593517fc2575a0e9e593c00f959f8c92f12db2869c3395a3b0502d05e2516446f71f85c88015591517fc2575a0e9e593c00f959f8c92f12db2869c3395a3b0502d05e2516446f71f85d87015590517fc2575a0e9e593c00f959f8c92f12db2869c3395a3b0502d05e2516446f71f85e909501949094556002805493855294825285842083905591835260059052928120805460ff19168417905581549394509192909190610515908490611af2565b90915550506040517f38bff197ec9fef6e32271789b78dca0f10af5b2b546ce690a67899f608ba4f4c9061054c9087908790611b0a565b60405180910390a15050505050565b6002600154141561057e5760405162461bcd60e51b815260040161035c90611b4a565b600260015560008281526005602052604090205460ff16156105a3576105a3826108b6565b6000600383815481106105b8576105b8611b5a565b6000918252602080832060408051608081018252600490940290910180546001600160a01b0316845260018101548484015260028101548483015260030154606084015286845260069091528220909250816106113390565b6001600160a01b03166001600160a01b03168152602001908152602001600020905060008160000154610655846060015184600101546111da90919063ffffffff16565b61065f9190611b70565b905061067c836060015183600101546111da90919063ffffffff16565b8255801561069b5760075461069b906001600160a01b031685836111e6565b7fdec9257d126f56798a34ce7ca0ffedeaa9a024543946f79c3b5038035ba32a1e338587846040516106d09493929190611b87565b60405180910390a1505060018055505050565b600381815481106106f357600080fd5b600091825260209091206004909102018054600182015460028301546003909301546001600160a01b039092169350919084565b6002600154141561074a5760405162461bcd60e51b815260040161035c90611b4a565b60026001558061076c5760405162461bcd60e51b815260040161035c90611bc2565b60006003838154811061078157610781611b5a565b600091825260208083208684526006909152604083206004909202019250816107a73390565b6001600160a01b03166001600160a01b03168152602001908152602001600020905082816001015410156107ed5760405162461bcd60e51b815260040161035c90611c04565b60008481526005602052604090205460ff161561080d5761080d846108b6565b8054600383015460018301546000929161082791906111da565b6108319190611b70565b905061083e335b8261123c565b838260010160008282546108529190611b70565b90915550506003830154600183015461086a916111da565b82556108823384546001600160a01b031690866111e6565b7ff279e6a1f5e320cca91135676d9cb6e44ca8a08c0b88342bcdb1144f6511b568335b86866040516106d093929190611c14565b6000600382815481106108cb576108cb611b5a565b90600052602060002090600402019050806002015443116108ea575050565b80546040516370a0823160e01b81526000916001600160a01b0316906370a082319061091a9030906004016118eb565b602060405180830381865afa158015610937573d6000803e3d6000fd5b505050506040513d601f19601f8201168201806040525081019061095b9190611c47565b90508061096d57504360029091015550565b600082600201544361097f9190611b70565b905060008360010154826109939190611c68565b60075460405163168ece7360e31b81529192506001600160a01b03169063b4767398906109c69030908590600401611b0a565b600060405180830381600087803b1580156109e057600080fd5b505af11580156109f4573d6000803e3d6000fd5b50505050610a0b838261136590919063ffffffff16565b846003016000828254610a1e9190611af2565b90915550504360028501556040517f141d729c29cc848b27c53f7dbe9f9542cedc4ed2efa7bd2aeb2a4bdce06a407f9061054c9087906117b7565b60035460005b81811015610a9d5760008181526005602052604090205460ff16610a8257610a8b565b610a8b816108b6565b80610a9581611c87565b915050610a5f565b5050565b33610ab46000546001600160a01b031690565b6001600160a01b031614610ada5760405162461bcd60e51b815260040161035c90611a74565b610ae4600061137a565b565b60026001541415610b095760405162461bcd60e51b815260040161035c90611b4a565b6002600155600082815260056020526040902054829060ff16610b3e5760405162461bcd60e51b815260040161035c90611cca565b60008211610b5e5760405162461bcd60e51b815260040161035c90611d01565b600060038481548110610b7357610b73611b5a565b60009182526020808320878452600690915260408320600490920201925081610b993390565b6001600160a01b03166001600160a01b031681526020019081526020016000209050610bc4856108b6565b600181015415610bff5780546003830154600183015460009291610be891906111da565b610bf29190611b70565b9050610bfd33610838565b505b610c163383546001600160a01b03169030876113ca565b83816001016000828254610c2a9190611af2565b909155505060038201546001820154610c42916111da565b81557f5af417134f72a9d41143ace85b0a26dce6f550f894f2cbc1eeee8810603d91b6336108a5565b60008281526006602090815260408083206001600160a01b03851684529091529020600101545b92915050565b6000816001600160a01b038116610cc15760405162461bcd60e51b815260040161035c90611a34565b600060038581548110610cd657610cd6611b5a565b600091825260209182902060408051608081018252600490930290910180546001600160a01b031683526001810154938301939093526002830154908201819052600390920154606082015291501580610d335750806040015143105b80610d3f575060085443105b15610d4e576000925050610e79565b60008581526006602090815260408083206001600160a01b038089168552908352818420825180840184528154815260019091015493810193909352845191516370a0823160e01b81529293929116906370a0823190610db29030906004016118eb565b602060405180830381865afa158015610dcf573d6000803e3d6000fd5b505050506040513d601f19601f82011682018060405250810190610df39190611c47565b606084015190915081610e0d576000955050505050610e79565b6000846040015143610e1f9190611b70565b90506000818660200151610e339190611c68565b9050610e3f8185611365565b610e499084611af2565b85516020870151919450600091610e6090866111da565b610e6a9190611b70565b9850610e799650505050505050565b5092915050565b60606003805480602002602001604051908101604052809291908181526020016000905b82821015610f01576000848152602090819020604080516080810182526004860290920180546001600160a01b03168352600180820154848601526002820154928401929092526003015460608301529083529092019101610ea4565b50505050905090565b33610f1d6000546001600160a01b031690565b6001600160a01b031614610f435760405162461bcd60e51b815260040161035c90611a74565b6001600160a01b038116610f695760405162461bcd60e51b815260040161035c90611d52565b610f728161137a565b50565b33610f886000546001600160a01b031690565b6001600160a01b031614610fae5760405162461bcd60e51b815260040161035c90611a74565b600254600114610fd05760405162461bcd60e51b815260040161035c90611da8565b60088190556040517f2ff5a4bd003b5c8c334ec018975259184173d0eabd4384b3ddbf74f447dd5a74906110059083906117b7565b60405180910390a150565b336110236000546001600160a01b031690565b6001600160a01b0316146110495760405162461bcd60e51b815260040161035c90611a74565b6003838154811061105c5761105c611b5a565b9060005260206000209060040201600201546000141561108e5760405162461bcd60e51b815260040161035c90611ddc565b80156110a15761109c610a59565b6110aa565b6110aa836108b6565b60008381526005602052604090205460ff161580156110c95750600082115b156111225760008381526005602052604090819020805460ff19166001179055517ff8e91eae4b15c98725305987a69db94bae83b5d11ced334a69fc66ffe30811a29061111990859043906118f9565b60405180910390a15b8161117c5760008381526005602052604090819020805460ff19169055517f4654f9b7bb3ba4d66e3a4e972e39db189ac7b4fdf5f2a95d57a4eb4d91a16d459061116f90859043906118f9565b60405180910390a1505050565b816003848154811061119057611190611b5a565b9060005260206000209060040201600101819055505b505050565b6001600160a01b038116600090815260046020526040812054806111d05760006111d3565b60015b9392505050565b60006111d383836113eb565b6111a68363a9059cbb60e01b8484604051602401611205929190611b0a565b60408051601f198184030181529190526020810180516001600160e01b03166001600160e01b0319909316929092179091526114ac565b6007546040516370a0823160e01b81526000916001600160a01b0316906370a082319061126d9030906004016118eb565b602060405180830381865afa15801561128a573d6000803e3d6000fd5b505050506040513d601f19601f820116820180604052508101906112ae9190611c47565b9050808211156113335760075460405163a9059cbb60e01b81526001600160a01b039091169063a9059cbb906112ea9086908590600401611b0a565b6020604051808303816000875af1158015611309573d6000803e3d6000fd5b505050506040513d601f19601f8201168201806040525081019061132d9190611df7565b50505050565b60075460405163a9059cbb60e01b81526001600160a01b039091169063a9059cbb906112ea9086908690600401611b0a565b60006111d383670de0b6b3a76400008461153b565b600080546001600160a01b038381166001600160a01b0319831681178455604051919092169283917f8be0079c531659141344cd1fd0a4f28419497f9722a3daafe3b4186f6b6457e09190a35050565b61132d846323b872dd60e01b85858560405160240161120593929190611e18565b60008080600019848609848602925082811083820303915050670de0b6b3a7640000811061142e578060405163698d9a0160e11b815260040161035c91906117b7565b600080670de0b6b3a76400008688099150506706f05b59d3b1ffff8111826114685780670de0b6b3a7640000850401945050505050610c92565b620400008285030493909111909103600160ee1b02919091177faccb18165bd6fe31ae1cf318dc5b51eee0e1ba569b88cd74c1773b91fac106690201905092915050565b6000611501826040518060400160405280602081526020017f5361666545524332303a206c6f772d6c6576656c2063616c6c206661696c6564815250856001600160a01b03166116029092919063ffffffff16565b8051909150156111a6578080602001905181019061151f9190611df7565b6111a65760405162461bcd60e51b815260040161035c90611e8e565b6000808060001985870985870292508281108382030391505080600014156115765783828161156c5761156c611e33565b04925050506111d3565b83811061159a578084604051631dcf306360e21b815260040161035c9291906118f9565b600084868809600260036001881981018916988990049182028318808302840302808302840302808302840302808302840302808302840302918202909203026000889003889004909101858311909403939093029303949094049190911702949350505050565b60606116118484600085611619565b949350505050565b60608247101561163b5760405162461bcd60e51b815260040161035c90611edf565b843b6116595760405162461bcd60e51b815260040161035c90611f21565b600080866001600160a01b031685876040516116759190611f7f565b60006040518083038185875af1925050503d80600081146116b2576040519150601f19603f3d011682016040523d82523d6000602084013e6116b7565b606091505b50915091506116c78282866116d2565b979650505050505050565b606083156116e15750816111d3565b8251156116f15782518084602001fd5b8160405162461bcd60e51b815260040161035c9190611fbb565b60006001600160a01b038216610c92565b6117258161170b565b8114610f7257600080fd5b8035610c928161171c565b80611725565b8035610c928161173b565b801515611725565b8035610c928161174c565b60008060006060848603121561177757611777600080fd5b60006117838686611730565b935050602061179486828701611741565b92505060406117a586828701611754565b9150509250925092565b805b82525050565b60208101610c9282846117af565b600080604083850312156117db576117db600080fd5b60006117e78585611741565b92505060206117f885828601611730565b9150509250929050565b6000610c928261170b565b6000610c9282611802565b6117b18161180d565b60208101610c928284611818565b60006020828403121561184457611844600080fd5b60006116118484611741565b6117b18161170b565b608081016118678287611850565b61187460208301866117af565b61188160408301856117af565b61188e60608301846117af565b95945050505050565b6000602082840312156118ac576118ac600080fd5b60006116118484611730565b600080604083850312156118ce576118ce600080fd5b60006118da8585611741565b92505060206117f885828601611741565b60208101610c928284611850565b6040810161190782856117af565b6111d360208301846117af565b8015156117b1565b60208101610c928284611914565b80516119368382611850565b50602081015161194960208401826117af565b50604081015161195c60408401826117af565b5060608101516111a660608401826117af565b611979828261192a565b5060800190565b60200190565b6000611990825190565b808452602093840193830160005b828110156119c35781516119b2878261196f565b96505060208201915060010161199e565b5093949350505050565b602080825281016111d38184611986565b6000806000606084860312156119f6576119f6600080fd5b60006117838686611741565b60178152602081017f43616e206e6f74206265207a65726f206164647265737300000000000000000081529050611980565b60208082528101610c9281611a02565b60208082527f4f776e61626c653a2063616c6c6572206973206e6f7420746865206f776e65729101908152611980565b60208082528101610c9281611a44565b602b8152602081017f54686973206c70746f6b656e20697320616c726561647920696e20746865206681526a185c9b5a5b99c81c1bdbdb60aa1b602082015290505b60400190565b60208082528101610c9281611a84565b634e487b7160e01b600052601160045260246000fd5b60008219821115611b0557611b05611adc565b500190565b604081016119078285611850565b601f8152602081017f5265656e7472616e637947756172643a207265656e7472616e742063616c6c0081529050611980565b60208082528101610c9281611b18565b634e487b7160e01b600052603260045260246000fd5b600082821015611b8257611b82611adc565b500390565b60808101611b958287611850565b6118746020830186611850565b600b8152602081016a16995c9bc8185b5bdd5b9d60aa1b81529050611980565b60208082528101610c9281611ba2565b60198152602081017f4e6f7420656e6f756768207374616b696e6742616c616e63650000000000000081529050611980565b60208082528101610c9281611bd2565b60608101611c228286611850565b611c2f60208301856117af565b61161160408301846117af565b8051610c928161173b565b600060208284031215611c5c57611c5c600080fd5b60006116118484611c3c565b6000816000190483118215151615611c8257611c82611adc565b500290565b6000600019821415611c9b57611c9b611adc565b5060010190565b601381526020810172506f6f6c206973206e6f74206661726d696e6760681b81529050611980565b60208082528101610c9281611ca2565b60128152602081017143616e206e6f74207374616b65207a65726f60701b81529050611980565b60208082528101610c9281611cda565b60268152602081017f4f776e61626c653a206e6577206f776e657220697320746865207a65726f206181526564647265737360d01b60208201529050611ac6565b60208082528101610c9281611d11565b602b8152602081017f43616e206e6f742073657420737461727420626c6f636b20616674657220616481526a191a5b99c818481c1bdbdb60aa1b60208201529050611ac6565b60208082528101610c9281611d62565b600f8152602081016e506f6f6c206e6f742065786973747360881b81529050611980565b60208082528101610c9281611db8565b8051610c928161174c565b600060208284031215611e0c57611e0c600080fd5b60006116118484611dec565b60608101611e268286611850565b611c2f6020830185611850565b634e487b7160e01b600052601260045260246000fd5b602a8152602081017f5361666545524332303a204552433230206f7065726174696f6e20646964206e8152691bdd081cdd58d8d9595960b21b60208201529050611ac6565b60208082528101610c9281611e49565b60268152602081017f416464726573733a20696e73756666696369656e742062616c616e636520666f8152651c8818d85b1b60d21b60208201529050611ac6565b60208082528101610c9281611e9e565b601d8152602081017f416464726573733a2063616c6c20746f206e6f6e2d636f6e747261637400000081529050611980565b60208082528101610c9281611eef565b60005b83811015611f4c578181015183820152602001611f34565b8381111561132d5750506000910152565b6000611f67825190565b611f75818560208601611f31565b9290920192915050565b610c928183611f5d565b6000611f93825190565b808452602084019350611faa818560208601611f31565b601f01601f19169290920192915050565b602080825281016111d38184611f8956fea2646970667358221220fa13b89bb0345a1a6eab50c425b62df9622b53de8515f52da6dce53f3a6d814d64736f6c634300080a0033",
  "devdoc": {
    "details": "The pool id starts from 1 not 0",
    "kind": "dev",
    "methods": {
      "add(address,uint256,bool)": {
        "params": {
          "_degisPerBlock": "Reward distribution per block for this new pool",
          "_lpToken": "LP token address",
          "_withUpdate": "Whether update all pools' status"
        }
      },
      "getUserBalance(uint256,address)": {
        "params": {
          "_poolId": "Id of the pool",
          "_user": "Address of the user"
        },
        "returns": {
          "_balance": "User's balance (lpToken)"
        }
      },
      "harvest(uint256,address)": {
        "params": {
          "_poolId": ": Id of the farming pool",
          "_to": "Receiver of degis rewards."
        }
      },
      "pendingDegis(uint256,address)": {
        "params": {
          "_poolId": "PoolId of this farming pool",
          "_user": "User address"
        },
        "returns": {
          "_0": "pendingDegisAmount Amount of pending degis"
        }
      },
      "renounceOwnership()": {
        "details": "Renouncing ownership will leave the contract without an owner,         thereby removing any functionality that is only available to the owner."
      },
      "setDegisReward(uint256,uint256,bool)": {
        "params": {
          "_degisPerBlock": "New reward amount per block",
          "_poolId": "Id of the farming pool",
          "_withUpdate": "Whether update all the pool"
        }
      },
      "setStartBlock(uint256)": {
        "params": {
          "_startBlock": "New start block number"
        }
      },
      "stake(uint256,uint256)": {
        "params": {
          "_amount": "Staking amount",
          "_poolId": "Id of the farming pool"
        }
      },
      "transferOwnership(address)": {
        "details": "Can only be called by the current owner.",
        "params": {
          "newOwner": "Address of the new owner"
        }
      },
      "updatePool(uint256)": {
        "params": {
          "_poolId": "Id of the farming pool"
        }
      },
      "withdraw(uint256,uint256)": {
        "params": {
          "_amount": "Amount of lp tokens to withdraw",
          "_poolId": "Id of the farming pool"
        }
      }
    },
    "title": "Farming Pool",
    "version": 1
  },
  "userdoc": {
    "errors": {
      "PRBMath__MulDivFixedPointOverflow(uint256)": [
        {
          "notice": "Emitted when the result overflows uint256."
        }
      ],
      "PRBMath__MulDivOverflow(uint256,uint256)": [
        {
          "notice": "Emitted when the result overflows uint256."
        }
      ]
    },
    "kind": "user",
    "methods": {
      "add(address,uint256,bool)": {
        "notice": "Add a new lp to the pool. Can only be called by the owner."
      },
      "getPoolList()": {
        "notice": "Get the total pool list"
      },
      "getUserBalance(uint256,address)": {
        "notice": "Get user balance"
      },
      "harvest(uint256,address)": {
        "notice": "Harvest the degis reward and can be sent to another address"
      },
      "massUpdatePools()": {
        "notice": "Update all farming pools (except for those stopped ones)"
      },
      "owner()": {
        "notice": "Returns the address of the current owner."
      },
      "pendingDegis(uint256,address)": {
        "notice": "Check the amount of pending degis reward"
      },
      "renounceOwnership()": {
        "notice": "Leaves the contract without owner. It will not be possible to call         `onlyOwner` functions anymore. Can only be called by the current owner."
      },
      "setDegisReward(uint256,uint256,bool)": {
        "notice": "Update the degisPerBlock for a specific pool (set to 0 to stop farming)"
      },
      "setStartBlock(uint256)": {
        "notice": "Set the start block number"
      },
      "stake(uint256,uint256)": {
        "notice": "Stake LP token into the farming pool"
      },
      "transferOwnership(address)": {
        "notice": "Transfers ownership of the contract to a new account (`newOwner`)."
      },
      "updatePool(uint256)": {
        "notice": "Update the pool's reward status"
      },
      "withdraw(uint256,uint256)": {
        "notice": "Withdraw lptoken from the pool"
      }
    },
    "notice": "This contract is for LPToken mining on Degis",
    "version": 1
  },
  "storageLayout": {
    "storage": [
      {
        "astId": 22750,
        "contract": "contracts/farming/FarmingPool.sol:FarmingPool",
        "label": "_owner",
        "offset": 0,
        "slot": "0",
        "type": "t_address"
      },
      {
        "astId": 2508,
        "contract": "contracts/farming/FarmingPool.sol:FarmingPool",
        "label": "_status",
        "offset": 0,
        "slot": "1",
        "type": "t_uint256"
      },
      {
        "astId": 6611,
        "contract": "contracts/farming/FarmingPool.sol:FarmingPool",
        "label": "_nextPoolId",
        "offset": 0,
        "slot": "2",
        "type": "t_uint256"
      },
      {
        "astId": 6624,
        "contract": "contracts/farming/FarmingPool.sol:FarmingPool",
        "label": "poolList",
        "offset": 0,
        "slot": "3",
        "type": "t_array(t_struct(PoolInfo)6620_storage)dyn_storage"
      },
      {
        "astId": 6628,
        "contract": "contracts/farming/FarmingPool.sol:FarmingPool",
        "label": "poolMapping",
        "offset": 0,
        "slot": "4",
        "type": "t_mapping(t_address,t_uint256)"
      },
      {
        "astId": 6632,
        "contract": "contracts/farming/FarmingPool.sol:FarmingPool",
        "label": "isFarming",
        "offset": 0,
        "slot": "5",
        "type": "t_mapping(t_uint256,t_bool)"
      },
      {
        "astId": 6644,
        "contract": "contracts/farming/FarmingPool.sol:FarmingPool",
        "label": "userInfo",
        "offset": 0,
        "slot": "6",
        "type": "t_mapping(t_uint256,t_mapping(t_address,t_struct(UserInfo)6637_storage))"
      },
      {
        "astId": 6647,
        "contract": "contracts/farming/FarmingPool.sol:FarmingPool",
        "label": "degis",
        "offset": 0,
        "slot": "7",
        "type": "t_contract(IDegisToken)21460"
      },
      {
        "astId": 6649,
        "contract": "contracts/farming/FarmingPool.sol:FarmingPool",
        "label": "startBlock",
        "offset": 0,
        "slot": "8",
        "type": "t_uint256"
      }
    ],
    "types": {
      "t_address": {
        "encoding": "inplace",
        "label": "address",
        "numberOfBytes": "20"
      },
      "t_array(t_struct(PoolInfo)6620_storage)dyn_storage": {
        "base": "t_struct(PoolInfo)6620_storage",
        "encoding": "dynamic_array",
        "label": "struct FarmingPool.PoolInfo[]",
        "numberOfBytes": "32"
      },
      "t_bool": {
        "encoding": "inplace",
        "label": "bool",
        "numberOfBytes": "1"
      },
      "t_contract(IDegisToken)21460": {
        "encoding": "inplace",
        "label": "contract IDegisToken",
        "numberOfBytes": "20"
      },
      "t_mapping(t_address,t_struct(UserInfo)6637_storage)": {
        "encoding": "mapping",
        "key": "t_address",
        "label": "mapping(address => struct FarmingPool.UserInfo)",
        "numberOfBytes": "32",
        "value": "t_struct(UserInfo)6637_storage"
      },
      "t_mapping(t_address,t_uint256)": {
        "encoding": "mapping",
        "key": "t_address",
        "label": "mapping(address => uint256)",
        "numberOfBytes": "32",
        "value": "t_uint256"
      },
      "t_mapping(t_uint256,t_bool)": {
        "encoding": "mapping",
        "key": "t_uint256",
        "label": "mapping(uint256 => bool)",
        "numberOfBytes": "32",
        "value": "t_bool"
      },
      "t_mapping(t_uint256,t_mapping(t_address,t_struct(UserInfo)6637_storage))": {
        "encoding": "mapping",
        "key": "t_uint256",
        "label": "mapping(uint256 => mapping(address => struct FarmingPool.UserInfo))",
        "numberOfBytes": "32",
        "value": "t_mapping(t_address,t_struct(UserInfo)6637_storage)"
      },
      "t_struct(PoolInfo)6620_storage": {
        "encoding": "inplace",
        "label": "struct FarmingPool.PoolInfo",
        "members": [
          {
            "astId": 6613,
            "contract": "contracts/farming/FarmingPool.sol:FarmingPool",
            "label": "lpToken",
            "offset": 0,
            "slot": "0",
            "type": "t_address"
          },
          {
            "astId": 6615,
            "contract": "contracts/farming/FarmingPool.sol:FarmingPool",
            "label": "degisPerBlock",
            "offset": 0,
            "slot": "1",
            "type": "t_uint256"
          },
          {
            "astId": 6617,
            "contract": "contracts/farming/FarmingPool.sol:FarmingPool",
            "label": "lastRewardBlock",
            "offset": 0,
            "slot": "2",
            "type": "t_uint256"
          },
          {
            "astId": 6619,
            "contract": "contracts/farming/FarmingPool.sol:FarmingPool",
            "label": "accDegisPerShare",
            "offset": 0,
            "slot": "3",
            "type": "t_uint256"
          }
        ],
        "numberOfBytes": "128"
      },
      "t_struct(UserInfo)6637_storage": {
        "encoding": "inplace",
        "label": "struct FarmingPool.UserInfo",
        "members": [
          {
            "astId": 6634,
            "contract": "contracts/farming/FarmingPool.sol:FarmingPool",
            "label": "rewardDebt",
            "offset": 0,
            "slot": "0",
            "type": "t_uint256"
          },
          {
            "astId": 6636,
            "contract": "contracts/farming/FarmingPool.sol:FarmingPool",
            "label": "stakingBalance",
            "offset": 0,
            "slot": "1",
            "type": "t_uint256"
          }
        ],
        "numberOfBytes": "64"
      },
      "t_uint256": {
        "encoding": "inplace",
        "label": "uint256",
        "numberOfBytes": "32"
      }
    }
  }
}