{
  "address": "0xdb38045a737230Ed32f0b5aC631891a79907f174",
  "abi": [
    {
      "anonymous": false,
      "inputs": [
        {
          "indexed": false,
          "internalType": "uint256",
          "name": "poolId",
          "type": "uint256"
        },
        {
          "indexed": false,
          "internalType": "uint256",
          "name": "basicDegisPerSecond",
          "type": "uint256"
        },
        {
          "indexed": false,
          "internalType": "uint256",
          "name": "bonusDegisPerSecond",
          "type": "uint256"
        }
      ],
      "name": "DegisRewardChanged",
      "type": "event"
    },
    {
      "anonymous": false,
      "inputs": [
        {
          "indexed": false,
          "internalType": "uint256",
          "name": "poolId",
          "type": "uint256"
        },
        {
          "indexed": false,
          "internalType": "uint256",
          "name": "timestamp",
          "type": "uint256"
        }
      ],
      "name": "FarmingPoolStarted",
      "type": "event"
    },
    {
      "anonymous": false,
      "inputs": [
        {
          "indexed": false,
          "internalType": "uint256",
          "name": "poolId",
          "type": "uint256"
        },
        {
          "indexed": false,
          "internalType": "uint256",
          "name": "timestamp",
          "type": "uint256"
        }
      ],
      "name": "FarmingPoolStopped",
      "type": "event"
    },
    {
      "anonymous": false,
      "inputs": [
        {
          "indexed": false,
          "internalType": "address",
          "name": "staker",
          "type": "address"
        },
        {
          "indexed": false,
          "internalType": "address",
          "name": "rewardReceiver",
          "type": "address"
        },
        {
          "indexed": false,
          "internalType": "uint256",
          "name": "poolId",
          "type": "uint256"
        },
        {
          "indexed": false,
          "internalType": "uint256",
          "name": "pendingReward",
          "type": "uint256"
        }
      ],
      "name": "Harvest",
      "type": "event"
    },
    {
      "anonymous": false,
      "inputs": [
        {
          "indexed": false,
          "internalType": "address",
          "name": "lpToken",
          "type": "address"
        },
        {
          "indexed": false,
          "internalType": "uint256",
          "name": "basicDegisPerSecond",
          "type": "uint256"
        },
        {
          "indexed": false,
          "internalType": "uint256",
          "name": "bonusDegisPerSecond",
          "type": "uint256"
        }
      ],
      "name": "NewPoolAdded",
      "type": "event"
    },
    {
      "anonymous": false,
      "inputs": [
        {
          "indexed": true,
          "internalType": "address",
          "name": "previousOwner",
          "type": "address"
        },
        {
          "indexed": true,
          "internalType": "address",
          "name": "newOwner",
          "type": "address"
        }
      ],
      "name": "OwnershipTransferred",
      "type": "event"
    },
    {
      "anonymous": false,
      "inputs": [
        {
          "indexed": false,
          "internalType": "address",
          "name": "account",
          "type": "address"
        }
      ],
      "name": "Paused",
      "type": "event"
    },
    {
      "anonymous": false,
      "inputs": [
        {
          "indexed": false,
          "internalType": "uint256",
          "name": "poolId",
          "type": "uint256"
        },
        {
          "indexed": false,
          "internalType": "uint256",
          "name": "accDegisPerShare",
          "type": "uint256"
        },
        {
          "indexed": false,
          "internalType": "uint256",
          "name": "accDegisPerBonusShare",
          "type": "uint256"
        }
      ],
      "name": "PoolUpdated",
      "type": "event"
    },
    {
      "anonymous": false,
      "inputs": [
        {
          "indexed": false,
          "internalType": "address",
          "name": "staker",
          "type": "address"
        },
        {
          "indexed": false,
          "internalType": "uint256",
          "name": "poolId",
          "type": "uint256"
        },
        {
          "indexed": false,
          "internalType": "uint256",
          "name": "amount",
          "type": "uint256"
        }
      ],
      "name": "Stake",
      "type": "event"
    },
    {
      "anonymous": false,
      "inputs": [
        {
          "indexed": false,
          "internalType": "uint256",
          "name": "startTimestamp",
          "type": "uint256"
        }
      ],
      "name": "StartTimestampChanged",
      "type": "event"
    },
    {
      "anonymous": false,
      "inputs": [
        {
          "indexed": false,
          "internalType": "address",
          "name": "account",
          "type": "address"
        }
      ],
      "name": "Unpaused",
      "type": "event"
    },
    {
      "anonymous": false,
      "inputs": [
        {
          "indexed": false,
          "internalType": "address",
          "name": "staker",
          "type": "address"
        },
        {
          "indexed": false,
          "internalType": "uint256",
          "name": "poolId",
          "type": "uint256"
        },
        {
          "indexed": false,
          "internalType": "uint256",
          "name": "amount",
          "type": "uint256"
        }
      ],
      "name": "Withdraw",
      "type": "event"
    },
    {
      "inputs": [],
      "name": "SCALE",
      "outputs": [
        {
          "internalType": "uint256",
          "name": "",
          "type": "uint256"
        }
      ],
      "stateMutability": "view",
      "type": "function"
    },
    {
      "inputs": [],
      "name": "_nextPoolId",
      "outputs": [
        {
          "internalType": "uint256",
          "name": "",
          "type": "uint256"
        }
      ],
      "stateMutability": "view",
      "type": "function"
    },
    {
      "inputs": [
        {
          "internalType": "address",
          "name": "_lpToken",
          "type": "address"
        },
        {
          "internalType": "uint256",
          "name": "_basicDegisPerSecond",
          "type": "uint256"
        },
        {
          "internalType": "uint256",
          "name": "_bonusDegisPerSecond",
          "type": "uint256"
        },
        {
          "internalType": "bool",
          "name": "_withUpdate",
          "type": "bool"
        }
      ],
      "name": "add",
      "outputs": [],
      "stateMutability": "nonpayable",
      "type": "function"
    },
    {
      "inputs": [],
      "name": "currentRewardLevel",
      "outputs": [
        {
          "internalType": "uint256",
          "name": "",
          "type": "uint256"
        }
      ],
      "stateMutability": "view",
      "type": "function"
    },
    {
      "inputs": [],
      "name": "degis",
      "outputs": [
        {
          "internalType": "contract IDegisToken",
          "name": "",
          "type": "address"
        }
      ],
      "stateMutability": "view",
      "type": "function"
    },
    {
      "inputs": [
        {
          "internalType": "uint256",
          "name": "",
          "type": "uint256"
        },
        {
          "internalType": "address",
          "name": "",
          "type": "address"
        }
      ],
      "name": "extraClaimable",
      "outputs": [
        {
          "internalType": "uint256",
          "name": "",
          "type": "uint256"
        }
      ],
      "stateMutability": "view",
      "type": "function"
    },
    {
      "inputs": [],
      "name": "getPoolList",
      "outputs": [
        {
          "components": [
            {
              "internalType": "address",
              "name": "lpToken",
              "type": "address"
            },
            {
              "internalType": "uint256",
              "name": "basicDegisPerSecond",
              "type": "uint256"
            },
            {
              "internalType": "uint256",
              "name": "bonusDegisPerSecond",
              "type": "uint256"
            },
            {
              "internalType": "uint256",
              "name": "lastRewardTimestamp",
              "type": "uint256"
            },
            {
              "internalType": "uint256",
              "name": "accDegisPerShare",
              "type": "uint256"
            },
            {
              "internalType": "uint256",
              "name": "accDegisPerBonusShare",
              "type": "uint256"
            },
            {
              "internalType": "uint256",
              "name": "totalBonus",
              "type": "uint256"
            }
          ],
          "internalType": "struct FarmingPoolUpgradeable.PoolInfo[]",
          "name": "",
          "type": "tuple[]"
        }
      ],
      "stateMutability": "view",
      "type": "function"
    },
    {
      "inputs": [
        {
          "internalType": "uint256",
          "name": "_poolId",
          "type": "uint256"
        },
        {
          "internalType": "address",
          "name": "_user",
          "type": "address"
        }
      ],
      "name": "getUserBalance",
      "outputs": [
        {
          "internalType": "uint256",
          "name": "",
          "type": "uint256"
        }
      ],
      "stateMutability": "view",
      "type": "function"
    },
    {
      "inputs": [
        {
          "internalType": "uint256",
          "name": "_poolId",
          "type": "uint256"
        },
        {
          "internalType": "address",
          "name": "_to",
          "type": "address"
        }
      ],
      "name": "harvest",
      "outputs": [],
      "stateMutability": "nonpayable",
      "type": "function"
    },
    {
      "inputs": [
        {
          "internalType": "address",
          "name": "_degis",
          "type": "address"
        }
      ],
      "name": "initialize",
      "outputs": [],
      "stateMutability": "nonpayable",
      "type": "function"
    },
    {
      "inputs": [
        {
          "internalType": "uint256",
          "name": "",
          "type": "uint256"
        }
      ],
      "name": "isFarming",
      "outputs": [
        {
          "internalType": "bool",
          "name": "",
          "type": "bool"
        }
      ],
      "stateMutability": "view",
      "type": "function"
    },
    {
      "inputs": [],
      "name": "massUpdatePools",
      "outputs": [],
      "stateMutability": "nonpayable",
      "type": "function"
    },
    {
      "inputs": [],
      "name": "name",
      "outputs": [
        {
          "internalType": "string",
          "name": "",
          "type": "string"
        }
      ],
      "stateMutability": "view",
      "type": "function"
    },
    {
      "inputs": [],
      "name": "owner",
      "outputs": [
        {
          "internalType": "address",
          "name": "",
          "type": "address"
        }
      ],
      "stateMutability": "view",
      "type": "function"
    },
    {
      "inputs": [],
      "name": "pause",
      "outputs": [],
      "stateMutability": "nonpayable",
      "type": "function"
    },
    {
      "inputs": [],
      "name": "paused",
      "outputs": [
        {
          "internalType": "bool",
          "name": "",
          "type": "bool"
        }
      ],
      "stateMutability": "view",
      "type": "function"
    },
    {
      "inputs": [
        {
          "internalType": "uint256",
          "name": "_poolId",
          "type": "uint256"
        },
        {
          "internalType": "address",
          "name": "_user",
          "type": "address"
        }
      ],
      "name": "pendingDegis",
      "outputs": [
        {
          "internalType": "uint256",
          "name": "",
          "type": "uint256"
        }
      ],
      "stateMutability": "view",
      "type": "function"
    },
    {
      "inputs": [
        {
          "internalType": "uint256",
          "name": "",
          "type": "uint256"
        },
        {
          "internalType": "uint256",
          "name": "",
          "type": "uint256"
        }
      ],
      "name": "piecewiseBasic",
      "outputs": [
        {
          "internalType": "uint256",
          "name": "",
          "type": "uint256"
        }
      ],
      "stateMutability": "view",
      "type": "function"
    },
    {
      "inputs": [
        {
          "internalType": "uint256",
          "name": "",
          "type": "uint256"
        }
      ],
      "name": "poolList",
      "outputs": [
        {
          "internalType": "address",
          "name": "lpToken",
          "type": "address"
        },
        {
          "internalType": "uint256",
          "name": "basicDegisPerSecond",
          "type": "uint256"
        },
        {
          "internalType": "uint256",
          "name": "bonusDegisPerSecond",
          "type": "uint256"
        },
        {
          "internalType": "uint256",
          "name": "lastRewardTimestamp",
          "type": "uint256"
        },
        {
          "internalType": "uint256",
          "name": "accDegisPerShare",
          "type": "uint256"
        },
        {
          "internalType": "uint256",
          "name": "accDegisPerBonusShare",
          "type": "uint256"
        },
        {
          "internalType": "uint256",
          "name": "totalBonus",
          "type": "uint256"
        }
      ],
      "stateMutability": "view",
      "type": "function"
    },
    {
      "inputs": [
        {
          "internalType": "address",
          "name": "",
          "type": "address"
        }
      ],
      "name": "poolMapping",
      "outputs": [
        {
          "internalType": "uint256",
          "name": "",
          "type": "uint256"
        }
      ],
      "stateMutability": "view",
      "type": "function"
    },
    {
      "inputs": [],
      "name": "renounceOwnership",
      "outputs": [],
      "stateMutability": "nonpayable",
      "type": "function"
    },
    {
      "inputs": [
        {
          "internalType": "uint256",
          "name": "_poolId",
          "type": "uint256"
        },
        {
          "internalType": "uint256",
          "name": "_basicDegisPerSecond",
          "type": "uint256"
        },
        {
          "internalType": "uint256",
          "name": "_bonusDegisPerSecond",
          "type": "uint256"
        },
        {
          "internalType": "bool",
          "name": "_withUpdate",
          "type": "bool"
        }
      ],
      "name": "setDegisReward",
      "outputs": [],
      "stateMutability": "nonpayable",
      "type": "function"
    },
    {
      "inputs": [
        {
          "internalType": "uint256",
          "name": "_poolId",
          "type": "uint256"
        },
        {
          "internalType": "uint256[]",
          "name": "_threshold",
          "type": "uint256[]"
        },
        {
          "internalType": "uint256[]",
          "name": "_reward",
          "type": "uint256[]"
        }
      ],
      "name": "setPiecewise",
      "outputs": [],
      "stateMutability": "nonpayable",
      "type": "function"
    },
    {
      "inputs": [
        {
          "internalType": "uint256",
          "name": "_startTimestamp",
          "type": "uint256"
        }
      ],
      "name": "setStartTimestamp",
      "outputs": [],
      "stateMutability": "nonpayable",
      "type": "function"
    },
    {
      "inputs": [
        {
          "internalType": "address",
          "name": "_veDEG",
          "type": "address"
        }
      ],
      "name": "setVeDEG",
      "outputs": [],
      "stateMutability": "nonpayable",
      "type": "function"
    },
    {
      "inputs": [
        {
          "internalType": "uint256",
          "name": "_poolId",
          "type": "uint256"
        },
        {
          "internalType": "uint256",
          "name": "_amount",
          "type": "uint256"
        }
      ],
      "name": "stake",
      "outputs": [],
      "stateMutability": "nonpayable",
      "type": "function"
    },
    {
      "inputs": [],
      "name": "startTimestamp",
      "outputs": [
        {
          "internalType": "uint256",
          "name": "",
          "type": "uint256"
        }
      ],
      "stateMutability": "view",
      "type": "function"
    },
    {
      "inputs": [
        {
          "internalType": "uint256",
          "name": "",
          "type": "uint256"
        },
        {
          "internalType": "uint256",
          "name": "",
          "type": "uint256"
        }
      ],
      "name": "thresholdBasic",
      "outputs": [
        {
          "internalType": "uint256",
          "name": "",
          "type": "uint256"
        }
      ],
      "stateMutability": "view",
      "type": "function"
    },
    {
      "inputs": [
        {
          "internalType": "address",
          "name": "newOwner",
          "type": "address"
        }
      ],
      "name": "transferOwnership",
      "outputs": [],
      "stateMutability": "nonpayable",
      "type": "function"
    },
    {
      "inputs": [],
      "name": "unpause",
      "outputs": [],
      "stateMutability": "nonpayable",
      "type": "function"
    },
    {
      "inputs": [
        {
          "internalType": "address",
          "name": "_user",
          "type": "address"
        },
        {
          "internalType": "uint256",
          "name": "_newVeDEGBalance",
          "type": "uint256"
        }
      ],
      "name": "updateBonus",
      "outputs": [],
      "stateMutability": "nonpayable",
      "type": "function"
    },
    {
      "inputs": [
        {
          "internalType": "uint256",
          "name": "_poolId",
          "type": "uint256"
        }
      ],
      "name": "updatePool",
      "outputs": [],
      "stateMutability": "nonpayable",
      "type": "function"
    },
    {
      "inputs": [
        {
          "internalType": "uint256",
          "name": "",
          "type": "uint256"
        },
        {
          "internalType": "address",
          "name": "",
          "type": "address"
        }
      ],
      "name": "userInfo",
      "outputs": [
        {
          "internalType": "uint256",
          "name": "rewardDebt",
          "type": "uint256"
        },
        {
          "internalType": "uint256",
          "name": "stakingBalance",
          "type": "uint256"
        },
        {
          "internalType": "uint256",
          "name": "bonus",
          "type": "uint256"
        }
      ],
      "stateMutability": "view",
      "type": "function"
    },
    {
      "inputs": [],
      "name": "veDEG",
      "outputs": [
        {
          "internalType": "contract IVeDEG",
          "name": "",
          "type": "address"
        }
      ],
      "stateMutability": "view",
      "type": "function"
    },
    {
      "inputs": [
        {
          "internalType": "uint256",
          "name": "_poolId",
          "type": "uint256"
        },
        {
          "internalType": "uint256",
          "name": "_amount",
          "type": "uint256"
        }
      ],
      "name": "withdraw",
      "outputs": [],
      "stateMutability": "nonpayable",
      "type": "function"
    }
  ],
  "transactionHash": "0x6dc6a2cff08534b3fb4097db53ceb92e8163ed60f5f2d145ddef1f7d2c2cab1b",
  "args": [],
  "numDeployments": 1,
  "solcInputHash": "dac4e5fe3f0ddff2793c693a8a6aab18",
  "bytecode": "0x608060405234801561001057600080fd5b506137c1806100206000396000f3fe608060405234801561001057600080fd5b50600436106102415760003560e01c8063715018a611610145578063cdcd2907116100bd578063d54465181161008c578063e6fd48bc11610071578063e6fd48bc14610548578063eced552614610551578063f2fde38b1461055d57600080fd5b8063d544651814610522578063e4a763151461053557600080fd5b8063cdcd2907146104d4578063cdfb6cf3146104e7578063d13f67bc146104fa578063d41dcbea1461050d57600080fd5b806393f1a40b11610114578063c44bef75116100f9578063c44bef7514610483578063c4d66de814610496578063c73d2bae146104a957600080fd5b806393f1a40b14610417578063a06ddcb31461046057600080fd5b8063715018a6146103db5780637b0472f0146103e35780638456cb59146103f65780638da5cb5b146103fe57600080fd5b80633f4ba83a116101d857806351eb05a6116101a75780635c975abb1161018c5780635c975abb146103ac5780635e4651f9146103c0578063630b5ba1146103d357600080fd5b806351eb05a6146103865780635bf560681461039957600080fd5b80633f4ba83a14610345578063441a3e701461034d5780634b34b687146103605780634f3e7ba61461037357600080fd5b806329baefff1161021457806329baefff146102d657806329fd2007146102df5780632a48235b146102ff5780632c678a3e1461032557600080fd5b806306fdde031461024657806307a96cbf1461029857806317fb77de146102ad57806318fccc76146102c3575b600080fd5b6102826040518060400160405280601581526020017f4465676973204c50204661726d696e6720506f6f6c000000000000000000000081525081565b60405161028f9190612aea565b60405180910390f35b6102ab6102a6366004612b2b565b610570565b005b6102b660cb5481565b60405161028f9190612b54565b6102ab6102d1366004612b73565b6105d2565b6102b660d45481565b60c9546102f2906001600160a01b031681565b60405161028f9190612bcf565b61031261030d366004612bdd565b610843565b60405161028f9796959493929190612c07565b6102b6610333366004612b2b565b60ce6020526000908152604090205481565b6102ab61089c565b6102ab61035b366004612c6f565b6108d0565b6102ab61036e366004612cf4565b610c2f565b60ca546102f2906001600160a01b031681565b6102ab610394366004612bdd565b610ceb565b6102b66103a7366004612c6f565b610fe9565b60975460ff165b60405161028f9190612d8c565b6102b66103ce366004612c6f565b61101a565b6102ab611036565b6102ab6110a9565b6102ab6103f1366004612c6f565b6110dd565b6102ab611416565b6033546001600160a01b031660405161028f9190612d9a565b610451610425366004612b73565b60d060209081526000928352604080842090915290825290208054600182015460029092015490919083565b60405161028f93929190612da8565b6103b361046e366004612bdd565b60cf6020526000908152604090205460ff1681565b6102ab610491366004612bdd565b611448565b6102ab6104a4366004612b2b565b6114f7565b6102b66104b7366004612b73565b60d160209081526000928352604080842090915290825290205481565b6102ab6104e2366004612de3565b61173e565b6102b66104f5366004612b73565b61197a565b6102b6610508366004612b73565b6119a7565b610515611c5e565b60405161028f9190612f23565b6102ab610530366004612f34565b611d06565b6102ab610543366004612f56565b611ee5565b6102b660cc5481565b6102b664e8d4a5100081565b6102ab61056b366004612b2b565b6121cd565b6033546001600160a01b031633146105a35760405162461bcd60e51b815260040161059a90612fab565b60405180910390fd5b60ca805473ffffffffffffffffffffffffffffffffffffffff19166001600160a01b0392909216919091179055565b6002606554036105f45760405162461bcd60e51b815260040161059a90612fed565b600260655560975460ff161561061c5760405162461bcd60e51b815260040161059a9061302f565b600082815260cf602052604090205460ff16156106415761063c82610ceb565b61066b565b4260cd83815481106106555761065561303f565b9060005260206000209060070201600301819055505b600060cd83815481106106805761068061303f565b600091825260208083206040805160e081018252600790940290910180546001600160a01b03168452600181015484840152600280820154858401526003820154606086015260048201546080860152600582015460a0860190815260069092015460c086015288865260d084528286203380885290855283872080548b895260d1875285892092895291909552928620549151908401549496509294939192909164e8d4a51000916107329161306b565b86608001518660010154610746919061306b565b610750919061308a565b61075a91906130b8565b610764919061308a565b61076e91906130cc565b600086815260d1602090815260408083203384529091528120559050806107a75760405162461bcd60e51b815260040161059a90613115565b64e8d4a510008360a0015183600201546107c1919061306b565b846080015184600101546107d5919061306b565b6107df919061308a565b6107e991906130b8565b825560006107f78583612229565b90507fdec9257d126f56798a34ce7ca0ffedeaa9a024543946f79c3b5038035ba32a1e3386888460405161082e9493929190613125565b60405180910390a15050600160655550505050565b60cd818154811061085357600080fd5b600091825260209091206007909102018054600182015460028301546003840154600485015460058601546006909601546001600160a01b039095169650929491939092919087565b6033546001600160a01b031633146108c65760405162461bcd60e51b815260040161059a90612fab565b6108ce612307565b565b6002606554036108f25760405162461bcd60e51b815260040161059a90612fed565b600260655560975460ff161561091a5760405162461bcd60e51b815260040161059a9061302f565b6000811161093a5760405162461bcd60e51b815260040161059a90613195565b600060cd838154811061094f5761094f61303f565b6000918252602080832086845260d082526040808520338652909252922060018101546007909202909201925083111561099b5760405162461bcd60e51b815260040161059a906131d7565b600084815260cf602052604090205460ff16156109c0576109bb84610ceb565b6109c7565b4260038301555b8054600085815260d1602090815260408083203384529091528120546005850154600285015492939264e8d4a5100091610a009161306b565b86600401548660010154610a14919061306b565b610a1e919061308a565b610a2891906130b8565b610a32919061308a565b610a3c91906130cc565b600086815260d160209081526040808320338085529252822082905591925090610a669083612229565b90507fdec9257d126f56798a34ce7ca0ffedeaa9a024543946f79c3b5038035ba32a1e33338884604051610a9d9493929190613125565b60405180910390a18354600090610ac1906001906001600160a01b0316338961236d565b905080846001016000828254610ad791906130cc565b909155505060ca546001600160a01b031615610ba157600284015460ca546040516370a0823160e01b8152610b79916001600160a01b0316906370a0823190610b24903390600401612d9a565b602060405180830381865afa158015610b41573d6000803e3d6000fd5b505050506040513d601f19601f82011682018060405250810190610b6591906131f2565b8660010154610b74919061306b565b6124b0565b6002860181905560068701548291610b909161308a565b610b9a91906130cc565b6006870155505b64e8d4a5100085600501548560020154610bbb919061306b565b86600401548660010154610bcf919061306b565b610bd9919061308a565b610be391906130b8565b84556040517ff279e6a1f5e320cca91135676d9cb6e44ca8a08c0b88342bcdb1144f6511b56890610c199033908a908590613213565b60405180910390a1505060016065555050505050565b6033546001600160a01b03163314610c595760405162461bcd60e51b815260040161059a90612fab565b600085815260d260205260409020610c72908585612a2c565b50600085815260d360205260409020610c8c908383612a2c565b50600082826000818110610ca257610ca261303f565b905060200201351115610ccd57600085815260cf60205260409020805460ff19166001179055610ce4565b600085815260cf60205260409020805460ff191690555b5050505050565b600060cd8281548110610d0057610d0061303f565b9060005260206000209060070201905080600301544211610d1f575050565b80546040516370a0823160e01b81526000916001600160a01b0316906370a0823190610d4f903090600401612d9a565b602060405180830381865afa158015610d6c573d6000803e3d6000fd5b505050506040513d601f19601f82011682018060405250810190610d9091906131f2565b905080600003610da557504260039091015550565b6000826003015442610db791906130cc565b90506000836001015482610dcb919061306b565b90506000846002015483610ddf919061306b565b905083610df164e8d4a510008461306b565b610dfb91906130b8565b856004016000828254610e0e919061308a565b90915550506006850154600003610e2b5760006005860155610e62565b6006850154610e3f64e8d4a510008361306b565b610e4991906130b8565b856005016000828254610e5c919061308a565b90915550505b60c9546001600160a01b031663b476739830610e7e848661308a565b6040518363ffffffff1660e01b8152600401610e9b929190613221565b600060405180830381600087803b158015610eb557600080fd5b505af1158015610ec9573d6000803e3d6000fd5b50504260038801555050600086815260d2602052604090205415610f9f57600086815260d26020526040812060d45481548110610f0857610f0861303f565b600091825260208083209091015489835260d2909152604090912054909150610f33906001906130cc565b60d454108015610f795750600087815260d26020526040902060d454610f5a90600161308a565b81548110610f6a57610f6a61303f565b90600052602060002001548510155b15610f8c57610f8787612520565b610f9d565b80851015610f9d57610f9d87612520565b505b600485015460058601546040517f17b8644f386d1c7c7138ef98b3c8035622bbe94d7be9b26f71d2654a547c294392610fd9928a92612da8565b60405180910390a1505050505050565b60d3602052816000526040600020818154811061100557600080fd5b90600052602060002001600091509150505481565b60d2602052816000526040600020818154811061100557600080fd5b60cd5460015b818110156110a557600081815260cf602052604081205460ff161515900361108c574260cd82815481106110725761107261303f565b906000526020600020906007020160030181905550611095565b61109581610ceb565b61109e8161323c565b905061103c565b5050565b6033546001600160a01b031633146110d35760405162461bcd60e51b815260040161059a90612fab565b6108ce6000612681565b6002606554036110ff5760405162461bcd60e51b815260040161059a90612fed565b600260655560975460ff16156111275760405162461bcd60e51b815260040161059a9061302f565b600082815260cf6020526040902054829060ff166111575760405162461bcd60e51b815260040161059a90613287565b600082116111775760405162461bcd60e51b815260040161059a906132c9565b600060cd848154811061118c5761118c61303f565b6000918252602080832087845260d0825260408085203386529092529220600790910290910191506111bd85610ceb565b6001810154156112a8578054600086815260d1602090815260408083203384529091528120546005850154600285015492939264e8d4a51000916112009161306b565b86600401548660010154611214919061306b565b61121e919061308a565b61122891906130b8565b611232919061308a565b61123c91906130cc565b600087815260d1602090815260408083203380855292528220829055919250906112669083612229565b90507fdec9257d126f56798a34ce7ca0ffedeaa9a024543946f79c3b5038035ba32a1e3333898460405161129d9493929190613125565b60405180910390a150505b81546000906112c39082906001600160a01b0316338861236d565b9050808260010160008282546112d9919061308a565b909155505060ca546001600160a01b03161561139e57600282015460ca546040516370a0823160e01b8152611376916001600160a01b0316906370a0823190611326903390600401612d9a565b602060405180830381865afa158015611343573d6000803e3d6000fd5b505050506040513d601f19601f8201168201806040525081019061136791906131f2565b8460010154610b74919061306b565b600284018190556006850154829161138d9161308a565b61139791906130cc565b6006850155505b64e8d4a51000836005015483600201546113b8919061306b565b846004015484600101546113cc919061306b565b6113d6919061308a565b6113e091906130b8565b82556040517f5af417134f72a9d41143ace85b0a26dce6f550f894f2cbc1eeee8810603d91b69061082e90339089908590613213565b6033546001600160a01b031633146114405760405162461bcd60e51b815260040161059a90612fab565b6108ce6126e0565b6033546001600160a01b031633146114725760405162461bcd60e51b815260040161059a90612fab565b60975460ff16156114955760405162461bcd60e51b815260040161059a9061302f565b60cb546001146114b75760405162461bcd60e51b815260040161059a90613333565b60cc8190556040517faf8fc8a4c9a55a9a29c3e99cd1797d43062c696f192896c79cbebd7da3286d82906114ec908390612b54565b60405180910390a150565b600054610100900460ff166115125760005460ff1615611516565b303b155b6115325760405162461bcd60e51b815260040161059a9061339b565b600054610100900460ff16158015611554576000805461ffff19166101011790555b6001600160a01b03821661157a5760405162461bcd60e51b815260040161059a906133dd565b611582612738565b61158a612767565b611592612795565b60c980546001600160a01b0380851673ffffffffffffffffffffffffffffffffffffffff1992831617909255600160cb8190556040805160e081018252600080825260208201818152928201818152606083018281526080840183815260a0850184815260c0860185815260cd8054998a018155909552945160079097027f83978b4c69c48dd978ab43fe30f077615294f938fb7f936d9eb340e51ea7db2e8101805498909a16979098169690961790975592517f83978b4c69c48dd978ab43fe30f077615294f938fb7f936d9eb340e51ea7db2f86015591517f83978b4c69c48dd978ab43fe30f077615294f938fb7f936d9eb340e51ea7db3085015593517f83978b4c69c48dd978ab43fe30f077615294f938fb7f936d9eb340e51ea7db3184015590517f83978b4c69c48dd978ab43fe30f077615294f938fb7f936d9eb340e51ea7db3283015591517f83978b4c69c48dd978ab43fe30f077615294f938fb7f936d9eb340e51ea7db3382015590517f83978b4c69c48dd978ab43fe30f077615294f938fb7f936d9eb340e51ea7db349091015580156110a5576000805461ff00191690555050565b6033546001600160a01b031633146117685760405162461bcd60e51b815260040161059a90612fab565b60975460ff161561178b5760405162461bcd60e51b815260040161059a9061302f565b60cd848154811061179e5761179e61303f565b9060005260206000209060070201600301546000036117cf5760405162461bcd60e51b815260040161059a9061341f565b81156117f557600083116117f55760405162461bcd60e51b815260040161059a90613461565b801561180857611803611036565b611811565b61181184610ceb565b600084815260cf602052604090205460ff161580156118305750600083115b1561188957600084815260cf602052604090819020805460ff19166001179055517f6140f1d5adcbca6c6b24c3b5e695335cd1a2071c7e03881172dc9eb0e488225c906118809086904290613471565b60405180910390a15b826000036118e657600084815260cf602052604090819020805460ff19169055517f4654f9b7bb3ba4d66e3a4e972e39db189ac7b4fdf5f2a95d57a4eb4d91a16d45906118d99086904290613471565b60405180910390a1611974565b8260cd85815481106118fa576118fa61303f565b9060005260206000209060070201600101819055508160cd85815481106119235761192361303f565b9060005260206000209060070201600201819055507f12558fa101886c4fd9ad5e0b9932a6ffd3653b63380b1da3f024ddaf506c22eb84848460405161196b93929190612da8565b60405180910390a15b50505050565b600082815260d0602090815260408083206001600160a01b03851684529091529020600101545b92915050565b60008060cd84815481106119bd576119bd61303f565b60009182526020918290206040805160e081018252600790930290910180546001600160a01b0316835260018101549383019390935260028301549082015260038201546060820181905260048301546080830152600583015460a083015260069092015460c082015291501580611a385750806060015142105b80611a44575060cc5442105b15611a535760009150506119a1565b600084815260d0602090815260408083206001600160a01b0380881685529083528184208251606081018452815481526001820154948101949094526002015483830152845191516370a0823160e01b81529293929116906370a0823190611abf903090600401612d9a565b602060405180830381865afa158015611adc573d6000803e3d6000fd5b505050506040513d601f19601f82011682018060405250810190611b0091906131f2565b608084015160a0850151919250906000839003611b25576000955050505050506119a1565b600088815260cf602052604090205460ff1615611bd9576000856060015142611b4e91906130cc565b90506000818760200151611b62919061306b565b905084611b7464e8d4a510008361306b565b611b7e91906130b8565b611b88908561308a565b60c088015190945015611bd6576000828860400151611ba7919061306b565b60c0890151909150611bbe64e8d4a510008361306b565b611bc891906130b8565b611bd2908561308a565b9350505b50505b8351600089815260d1602090815260408083206001600160a01b038c168452909152808220549087015191929164e8d4a5100090611c1890869061306b565b868960200151611c28919061306b565b611c32919061308a565b611c3c91906130b8565b611c46919061308a565b611c5091906130cc565b96506119a195505050505050565b606060cd805480602002602001604051908101604052809291908181526020016000905b82821015611cfd5760008481526020908190206040805160e0810182526007860290920180546001600160a01b03168352600180820154848601526002820154928401929092526003810154606084015260048101546080840152600581015460a08401526006015460c08301529083529092019101611c82565b50505050905090565b60ca546001600160a01b03163314611d305760405162461bcd60e51b815260040161059a906134b1565b60cd5460005b8181101561197457600081815260cf602052604090205460ff1615611ed557600081815260d0602090815260408083206001600160a01b038816845290915281206001810154909103611d895750611ed5565b600060cd8381548110611d9e57611d9e61303f565b90600052602060002090600702019050611db783610ceb565b6000826000015464e8d4a5100083600501548560020154611dd8919061306b565b84600401548660010154611dec919061306b565b611df6919061308a565b611e0091906130b8565b611e0a91906130cc565b600085815260d1602090815260408083206001600160a01b038c168452909152812080549293508392909190611e4190849061308a565b909155505060028301546001840154600090611e6190610b74908a61306b565b60028601819055600585015490915064e8d4a5100090611e81908361306b565b85600401548760010154611e95919061306b565b611e9f919061308a565b611ea991906130b8565b855560068401548290611ebd90839061308a565b611ec791906130cc565b846006018190555050505050505b611ede8161323c565b9050611d36565b836001600160a01b038116611f0c5760405162461bcd60e51b815260040161059a906133dd565b6033546001600160a01b03163314611f365760405162461bcd60e51b815260040161059a90612fab565b60975460ff1615611f595760405162461bcd60e51b815260040161059a9061302f565b611f62856127c8565b15611f7f5760405162461bcd60e51b815260040161059a906134f3565b8215611fa55760008411611fa55760405162461bcd60e51b815260040161059a90613461565b8115611fb357611fb3611036565b600060cc544211611fc65760cc54611fc8565b425b6040805160e0810182526001600160a01b038981168252602082018981529282018881526060830185815260006080850181815260a0860182815260c0870183815260cd8054600181018255945296517f83978b4c69c48dd978ab43fe30f077615294f938fb7f936d9eb340e51ea7db2e6007909402938401805473ffffffffffffffffffffffffffffffffffffffff1916919097161790955595517f83978b4c69c48dd978ab43fe30f077615294f938fb7f936d9eb340e51ea7db2f82015591517f83978b4c69c48dd978ab43fe30f077615294f938fb7f936d9eb340e51ea7db30830155517f83978b4c69c48dd978ab43fe30f077615294f938fb7f936d9eb340e51ea7db3182015592517f83978b4c69c48dd978ab43fe30f077615294f938fb7f936d9eb340e51ea7db32840155517f83978b4c69c48dd978ab43fe30f077615294f938fb7f936d9eb340e51ea7db33830155517f83978b4c69c48dd978ab43fe30f077615294f938fb7f936d9eb340e51ea7db3490910155905084156121695760cb54600090815260cf60205260409020805460ff191660011790555b60cb80549060006121798361323c565b909155506001600160a01b038716600090815260ce60205260409081902091909155517f5f9d2cd19aa3f32e9e8cc45267a493f9956c1b955a220136161ff8ad595bc78290610fd990889088908890613213565b6033546001600160a01b031633146121f75760405162461bcd60e51b815260040161059a90612fab565b6001600160a01b03811661221d5760405162461bcd60e51b815260040161059a9061355b565b61222681612681565b50565b60c9546040516370a0823160e01b815260009182916001600160a01b03909116906370a082319061225e903090600401612d9a565b602060405180830381865afa15801561227b573d6000803e3d6000fd5b505050506040513d601f19601f8201168201806040525081019061229f91906131f2565b9050600081116122c15760405162461bcd60e51b815260040161059a9061359d565b808311156122e75760c9546122e0906001600160a01b031685836127f9565b90506119a1565b60c9546122fe906001600160a01b031685856127f9565b829150506119a1565b60975460ff166123295760405162461bcd60e51b815260040161059a906135df565b6097805460ff191690557f5db9ee0a495bf2e6ff9c91a7834c1ba4fdd244a5e8aa4e537bd38aeae4b073aa335b6040516123639190612d9a565b60405180910390a1565b600080846001600160a01b03166370a08231306040518263ffffffff1660e01b815260040161239c9190612d9a565b602060405180830381865afa1580156123b9573d6000803e3d6000fd5b505050506040513d601f19601f820116820180604052508101906123dd91906131f2565b905085156123fe576123f96001600160a01b03861685856127f9565b612413565b6124136001600160a01b038616853086612881565b6040516370a0823160e01b81526000906001600160a01b038716906370a0823190612442903090600401612d9a565b602060405180830381865afa15801561245f573d6000803e3d6000fd5b505050506040513d601f19601f8201168201806040525081019061248391906131f2565b9050866124995761249482826130cc565b6124a3565b6124a381836130cc565b925050505b949350505050565b6000600382111561251157508060006124ca6002836130b8565b6124d590600161308a565b90505b8181101561250b579050806002816124f081866130b8565b6124fa919061308a565b61250491906130b8565b90506124d8565b50919050565b811561251b575060015b919050565b600060cd82815481106125355761253561303f565b60009182526020909120600790910201546040516370a0823160e01b81526001600160a01b03909116906370a0823190612573903090600401612d9a565b602060405180830381865afa158015612590573d6000803e3d6000fd5b505050506040513d601f19601f820116820180604052508101906125b491906131f2565b600083815260d260205260408120549192509081906125d5906001906130cc565b90505b600084815260d2602052604090208054829081106125f8576125f861303f565b9060005260206000200154831061264257600084815260d3602052604090208054829081106126295761262961303f565b906000526020600020015491508060d481905550612652565b61264b816135ef565b90506125d8565b508060cd84815481106126675761266761303f565b906000526020600020906007020160010181905550505050565b603380546001600160a01b0383811673ffffffffffffffffffffffffffffffffffffffff19831681179093556040519116919082907f8be0079c531659141344cd1fd0a4f28419497f9722a3daafe3b4186f6b6457e090600090a35050565b60975460ff16156127035760405162461bcd60e51b815260040161059a9061302f565b6097805460ff191660011790557f62e78cea01bee320cd4e420270b5ea74000d11b0c9f74754ebdbfc544b05a2586123563390565b600054610100900460ff1661275f5760405162461bcd60e51b815260040161059a9061365e565b6108ce6128a2565b600054610100900460ff1661278e5760405162461bcd60e51b815260040161059a9061365e565b6001606555565b600054610100900460ff166127bc5760405162461bcd60e51b815260040161059a9061365e565b6097805460ff19169055565b6001600160a01b038116600090815260ce60205260408120548082036127ef5760006127f2565b60015b9392505050565b61287c8363a9059cbb60e01b8484604051602401612818929190613221565b60408051601f198184030181529190526020810180517bffffffffffffffffffffffffffffffffffffffffffffffffffffffff167fffffffff00000000000000000000000000000000000000000000000000000000909316929092179091526128d2565b505050565b611974846323b872dd60e01b8585856040516024016128189392919061366e565b600054610100900460ff166128c95760405162461bcd60e51b815260040161059a9061365e565b6108ce33612681565b6000612927826040518060400160405280602081526020017f5361666545524332303a206c6f772d6c6576656c2063616c6c206661696c6564815250856001600160a01b03166129619092919063ffffffff16565b80519091501561287c57808060200190518101906129459190613694565b61287c5760405162461bcd60e51b815260040161059a9061370d565b60606124a8848460008585843b61298a5760405162461bcd60e51b815260040161059a9061374f565b600080866001600160a01b031685876040516129a69190613781565b60006040518083038185875af1925050503d80600081146129e3576040519150601f19603f3d011682016040523d82523d6000602084013e6129e8565b606091505b50915091506124a382828660608315612a025750816127f2565b825115612a125782518084602001fd5b8160405162461bcd60e51b815260040161059a9190612aea565b828054828255906000526020600020908101928215612a67579160200282015b82811115612a67578235825591602001919060010190612a4c565b50612a73929150612a77565b5090565b5b80821115612a735760008155600101612a78565b60005b83811015612aa7578181015183820152602001612a8f565b838111156119745750506000910152565b6000612ac2825190565b808452602084019350612ad9818560208601612a8c565b601f01601f19169290920192915050565b602080825281016127f28184612ab8565b60006001600160a01b0382166119a1565b612b1581612afb565b811461222657600080fd5b80356119a181612b0c565b600060208284031215612b4057612b40600080fd5b60006124a88484612b20565b805b82525050565b602081016119a18284612b4c565b80612b15565b80356119a181612b62565b60008060408385031215612b8957612b89600080fd5b6000612b958585612b68565b9250506020612ba685828601612b20565b9150509250929050565b60006119a182612afb565b60006119a182612bb0565b612b4e81612bbb565b602081016119a18284612bc6565b600060208284031215612bf257612bf2600080fd5b60006124a88484612b68565b612b4e81612afb565b60e08101612c15828a612bfe565b612c226020830189612b4c565b612c2f6040830188612b4c565b612c3c6060830187612b4c565b612c496080830186612b4c565b612c5660a0830185612b4c565b612c6360c0830184612b4c565b98975050505050505050565b60008060408385031215612c8557612c85600080fd5b6000612c918585612b68565b9250506020612ba685828601612b68565b60008083601f840112612cb757612cb7600080fd5b50813567ffffffffffffffff811115612cd257612cd2600080fd5b602083019150836020820283011115612ced57612ced600080fd5b9250929050565b600080600080600060608688031215612d0f57612d0f600080fd5b6000612d1b8888612b68565b955050602086013567ffffffffffffffff811115612d3b57612d3b600080fd5b612d4788828901612ca2565b9450945050604086013567ffffffffffffffff811115612d6957612d69600080fd5b612d7588828901612ca2565b92509250509295509295909350565b801515612b4e565b602081016119a18284612d84565b602081016119a18284612bfe565b60608101612db68286612b4c565b612dc36020830185612b4c565b6124a86040830184612b4c565b801515612b15565b80356119a181612dd0565b60008060008060808587031215612dfc57612dfc600080fd5b6000612e088787612b68565b9450506020612e1987828801612b68565b9350506040612e2a87828801612b68565b9250506060612e3b87828801612dd8565b91505092959194509250565b8051612e538382612bfe565b506020810151612e666020840182612b4c565b506040810151612e796040840182612b4c565b506060810151612e8c6060840182612b4c565b506080810151612e9f6080840182612b4c565b5060a0810151612eb260a0840182612b4c565b5060c081015161287c60c0840182612b4c565b612ecf8282612e47565b5060e00190565b60200190565b6000612ee6825190565b808452602093840193830160005b82811015612f19578151612f088782612ec5565b965050602082019150600101612ef4565b5093949350505050565b602080825281016127f28184612edc565b60008060408385031215612f4a57612f4a600080fd5b6000612c918585612b20565b60008060008060808587031215612f6f57612f6f600080fd5b6000612e088787612b20565b60208082527f4f776e61626c653a2063616c6c6572206973206e6f7420746865206f776e65729101908152612ed6565b602080825281016119a181612f7b565b601f8152602081017f5265656e7472616e637947756172643a207265656e7472616e742063616c6c0081529050612ed6565b602080825281016119a181612fbb565b60108152602081017f5061757361626c653a207061757365640000000000000000000000000000000081529050612ed6565b602080825281016119a181612ffd565b634e487b7160e01b600052603260045260246000fd5b634e487b7160e01b600052601160045260246000fd5b600081600019048311821515161561308557613085613055565b500290565b6000821982111561309d5761309d613055565b500190565b634e487b7160e01b600052601260045260246000fd5b6000826130c7576130c76130a2565b500490565b6000828210156130de576130de613055565b500390565b60118152602081017f4e6f2070656e64696e672072657761726400000000000000000000000000000081529050612ed6565b602080825281016119a1816130e3565b608081016131338287612bfe565b6131406020830186612bfe565b61314d6040830185612b4c565b61315a6060830184612b4c565b95945050505050565b600b8152602081017f5a65726f20616d6f756e7400000000000000000000000000000000000000000081529050612ed6565b602080825281016119a181613163565b60198152602081017f4e6f7420656e6f756768207374616b696e6742616c616e63650000000000000081529050612ed6565b602080825281016119a1816131a5565b80516119a181612b62565b60006020828403121561320757613207600080fd5b60006124a884846131e7565b60608101612db68286612bfe565b6040810161322f8285612bfe565b6127f26020830184612b4c565b60006001820161324e5761324e613055565b5060010190565b60138152602081017f506f6f6c206973206e6f74206661726d696e670000000000000000000000000081529050612ed6565b602080825281016119a181613255565b60128152602081017f43616e206e6f74207374616b65207a65726f000000000000000000000000000081529050612ed6565b602080825281016119a181613297565b602f8152602081017f43616e206e6f74207365742073746172742074696d657374616d70206166746581527f7220616464696e67206120706f6f6c0000000000000000000000000000000000602082015290505b60400190565b602080825281016119a1816132d9565b602e8152602081017f496e697469616c697a61626c653a20636f6e747261637420697320616c72656181527f647920696e697469616c697a65640000000000000000000000000000000000006020820152905061332d565b602080825281016119a181613343565b600c8152602081017f5a65726f2061646472657373000000000000000000000000000000000000000081529050612ed6565b602080825281016119a1816133ab565b600f8152602081017f506f6f6c206e6f7420657869737473000000000000000000000000000000000081529050612ed6565b602080825281016119a1816133ed565b600a8152602081017f4f6e6c7920626f6e75730000000000000000000000000000000000000000000081529050612ed6565b602080825281016119a18161342f565b6040810161322f8285612b4c565b60138152602081017f4f6e6c7920766544454720636f6e74726163740000000000000000000000000081529050612ed6565b602080825281016119a18161347f565b60138152602081017f416c726561647920696e2074686520706f6f6c0000000000000000000000000081529050612ed6565b602080825281016119a1816134c1565b60268152602081017f4f776e61626c653a206e6577206f776e657220697320746865207a65726f206181527f64647265737300000000000000000000000000000000000000000000000000006020820152905061332d565b602080825281016119a181613503565b601a8152602081017f4e6f20446567697320746f6b656e20696e2074686520706f6f6c00000000000081529050612ed6565b602080825281016119a18161356b565b60148152602081017f5061757361626c653a206e6f742070617573656400000000000000000000000081529050612ed6565b602080825281016119a1816135ad565b6000816135fe576135fe613055565b506000190190565b602b8152602081017f496e697469616c697a61626c653a20636f6e7472616374206973206e6f74206981527f6e697469616c697a696e670000000000000000000000000000000000000000006020820152905061332d565b602080825281016119a181613606565b6060810161367c8286612bfe565b612dc36020830185612bfe565b80516119a181612dd0565b6000602082840312156136a9576136a9600080fd5b60006124a88484613689565b602a8152602081017f5361666545524332303a204552433230206f7065726174696f6e20646964206e81527f6f742073756363656564000000000000000000000000000000000000000000006020820152905061332d565b602080825281016119a1816136b5565b601d8152602081017f416464726573733a2063616c6c20746f206e6f6e2d636f6e747261637400000081529050612ed6565b602080825281016119a18161371d565b6000613769825190565b613777818560208601612a8c565b9290920192915050565b6119a1818361375f56fea2646970667358221220e03d511fb36a103a3c9c2db0a5533409dfa1a8943900aeeff10d56c98aef363a64736f6c634300080d0033",
  "devdoc": {
    "details": "The pool id starts from 1 rather than 0         The degis reward is calculated by timestamp rather than block number         VeDEG will boost the farming speed by having a extra reward type         The extra reward is shared by those staking lptokens with veDEG balances         Every time the veDEG balance change, the reward will be updated         The basic reward depends on the liquidity inside the pool         Update with a piecewise function         liquidity amount:   |---------------|------------------|----------------                             0           threshold 1        threshold 2          reward speed:            speed1          speed2             speed3         The speed update will be updated one tx after the last tx that triggers the threshold         The reward update will be another one tx later",
    "kind": "dev",
    "methods": {
      "add(address,uint256,uint256,bool)": {
        "details": "Can only be called by the owner      The reward speed can be 0 and set later by setDegisReward function",
        "params": {
          "_basicDegisPerSecond": "Basic reward speed(per second) for this new pool",
          "_bonusDegisPerSecond": "Bonus reward speed(per second) for this new pool",
          "_lpToken": "LP token address",
          "_withUpdate": "Whether update all pools' status"
        }
      },
      "getPoolList()": {
        "returns": {
          "_0": "pooList Total pool list"
        }
      },
      "getUserBalance(uint256,address)": {
        "params": {
          "_poolId": "Id of the pool",
          "_user": "User address"
        },
        "returns": {
          "_0": "balance User's balance (lpToken)"
        }
      },
      "harvest(uint256,address)": {
        "params": {
          "_poolId": "Id of the farming pool",
          "_to": "Receiver of degis rewards"
        }
      },
      "massUpdatePools()": {
        "details": "Can be called by anyone      Only update those active pools"
      },
      "owner()": {
        "details": "Returns the address of the current owner."
      },
      "paused()": {
        "details": "Returns true if the contract is paused, and false otherwise."
      },
      "pendingDegis(uint256,address)": {
        "params": {
          "_poolId": "PoolId of this farming pool",
          "_user": "User address"
        },
        "returns": {
          "_0": "pendingDegisAmount Amount of pending degis"
        }
      },
      "renounceOwnership()": {
        "details": "Leaves the contract without owner. It will not be possible to call `onlyOwner` functions anymore. Can only be called by the current owner. NOTE: Renouncing ownership will leave the contract without an owner, thereby removing any functionality that is only available to the owner."
      },
      "setDegisReward(uint256,uint256,uint256,bool)": {
        "params": {
          "_basicDegisPerSecond": "New basic reward amount per second",
          "_bonusDegisPerSecond": "New bonus reward amount per second",
          "_poolId": "Id of the farming pool",
          "_withUpdate": "Whether update all pools"
        }
      },
      "setPiecewise(uint256,uint256[],uint256[])": {
        "params": {
          "_poolId": "Id of the pool",
          "_reward": "Piecewise reward",
          "_threshold": "Piecewise threshold"
        }
      },
      "setStartTimestamp(uint256)": {
        "params": {
          "_startTimestamp": "New start block timestamp"
        }
      },
      "stake(uint256,uint256)": {
        "details": "Can only stake to the pools that are still farming",
        "params": {
          "_amount": "Staking amount",
          "_poolId": "Id of the farming pool"
        }
      },
      "transferOwnership(address)": {
        "details": "Transfers ownership of the contract to a new account (`newOwner`). Can only be called by the current owner."
      },
      "updateBonus(address,uint256)": {
        "details": "When veDEG has balance change      Only called by veDEG contract",
        "params": {
          "_newVeDEGBalance": "New veDEG balance",
          "_user": "User address"
        }
      },
      "updatePool(uint256)": {
        "params": {
          "_poolId": "Id of the farming pool"
        }
      },
      "withdraw(uint256,uint256)": {
        "params": {
          "_amount": "Amount of lp tokens to withdraw",
          "_poolId": "Id of the farming pool"
        }
      }
    },
    "title": "Farming Pool",
    "version": 1
  },
  "userdoc": {
    "kind": "user",
    "methods": {
      "add(address,uint256,uint256,bool)": {
        "notice": "Add a new lp into the pool"
      },
      "getPoolList()": {
        "notice": "Get the total pool list"
      },
      "getUserBalance(uint256,address)": {
        "notice": "Get a user's balance"
      },
      "harvest(uint256,address)": {
        "notice": "Harvest the degis reward and can be sent to another address"
      },
      "massUpdatePools()": {
        "notice": "Update all farming pools (except for those stopped ones)"
      },
      "pendingDegis(uint256,address)": {
        "notice": "Check the amount of pending degis reward"
      },
      "setDegisReward(uint256,uint256,uint256,bool)": {
        "notice": "Update the degisPerSecond for a specific pool (set to 0 to stop farming)"
      },
      "setPiecewise(uint256,uint256[],uint256[])": {
        "notice": "Set piecewise reward and threshold"
      },
      "setStartTimestamp(uint256)": {
        "notice": "Set the start block timestamp"
      },
      "stake(uint256,uint256)": {
        "notice": "Stake LP token into the farming pool"
      },
      "updateBonus(address,uint256)": {
        "notice": "Update a user's bonus"
      },
      "updatePool(uint256)": {
        "notice": "Update the pool's reward status"
      },
      "withdraw(uint256,uint256)": {
        "notice": "Withdraw lptoken from the pool"
      }
    },
    "notice": "This contract is for LPToken mining on Degis",
    "version": 1
  },
  "storageLayout": {
    "storage": [
      {
        "astId": 2523,
        "contract": "contracts/farming/FarmingPoolUpgradeable.sol:FarmingPoolUpgradeable",
        "label": "_initialized",
        "offset": 0,
        "slot": "0",
        "type": "t_bool"
      },
      {
        "astId": 2526,
        "contract": "contracts/farming/FarmingPoolUpgradeable.sol:FarmingPoolUpgradeable",
        "label": "_initializing",
        "offset": 1,
        "slot": "0",
        "type": "t_bool"
      },
      {
        "astId": 3760,
        "contract": "contracts/farming/FarmingPoolUpgradeable.sol:FarmingPoolUpgradeable",
        "label": "__gap",
        "offset": 0,
        "slot": "1",
        "type": "t_array(t_uint256)50_storage"
      },
      {
        "astId": 2403,
        "contract": "contracts/farming/FarmingPoolUpgradeable.sol:FarmingPoolUpgradeable",
        "label": "_owner",
        "offset": 0,
        "slot": "51",
        "type": "t_address"
      },
      {
        "astId": 2515,
        "contract": "contracts/farming/FarmingPoolUpgradeable.sol:FarmingPoolUpgradeable",
        "label": "__gap",
        "offset": 0,
        "slot": "52",
        "type": "t_array(t_uint256)49_storage"
      },
      {
        "astId": 2715,
        "contract": "contracts/farming/FarmingPoolUpgradeable.sol:FarmingPoolUpgradeable",
        "label": "_status",
        "offset": 0,
        "slot": "101",
        "type": "t_uint256"
      },
      {
        "astId": 2759,
        "contract": "contracts/farming/FarmingPoolUpgradeable.sol:FarmingPoolUpgradeable",
        "label": "__gap",
        "offset": 0,
        "slot": "102",
        "type": "t_array(t_uint256)49_storage"
      },
      {
        "astId": 2611,
        "contract": "contracts/farming/FarmingPoolUpgradeable.sol:FarmingPoolUpgradeable",
        "label": "_paused",
        "offset": 0,
        "slot": "151",
        "type": "t_bool"
      },
      {
        "astId": 2700,
        "contract": "contracts/farming/FarmingPoolUpgradeable.sol:FarmingPoolUpgradeable",
        "label": "__gap",
        "offset": 0,
        "slot": "152",
        "type": "t_array(t_uint256)49_storage"
      },
      {
        "astId": 12130,
        "contract": "contracts/farming/FarmingPoolUpgradeable.sol:FarmingPoolUpgradeable",
        "label": "degis",
        "offset": 0,
        "slot": "201",
        "type": "t_contract(IDegisToken)35643"
      },
      {
        "astId": 12133,
        "contract": "contracts/farming/FarmingPoolUpgradeable.sol:FarmingPoolUpgradeable",
        "label": "veDEG",
        "offset": 0,
        "slot": "202",
        "type": "t_contract(IVeDEG)16975"
      },
      {
        "astId": 12138,
        "contract": "contracts/farming/FarmingPoolUpgradeable.sol:FarmingPoolUpgradeable",
        "label": "_nextPoolId",
        "offset": 0,
        "slot": "203",
        "type": "t_uint256"
      },
      {
        "astId": 12140,
        "contract": "contracts/farming/FarmingPoolUpgradeable.sol:FarmingPoolUpgradeable",
        "label": "startTimestamp",
        "offset": 0,
        "slot": "204",
        "type": "t_uint256"
      },
      {
        "astId": 12159,
        "contract": "contracts/farming/FarmingPoolUpgradeable.sol:FarmingPoolUpgradeable",
        "label": "poolList",
        "offset": 0,
        "slot": "205",
        "type": "t_array(t_struct(PoolInfo)12155_storage)dyn_storage"
      },
      {
        "astId": 12163,
        "contract": "contracts/farming/FarmingPoolUpgradeable.sol:FarmingPoolUpgradeable",
        "label": "poolMapping",
        "offset": 0,
        "slot": "206",
        "type": "t_mapping(t_address,t_uint256)"
      },
      {
        "astId": 12167,
        "contract": "contracts/farming/FarmingPoolUpgradeable.sol:FarmingPoolUpgradeable",
        "label": "isFarming",
        "offset": 0,
        "slot": "207",
        "type": "t_mapping(t_uint256,t_bool)"
      },
      {
        "astId": 12181,
        "contract": "contracts/farming/FarmingPoolUpgradeable.sol:FarmingPoolUpgradeable",
        "label": "userInfo",
        "offset": 0,
        "slot": "208",
        "type": "t_mapping(t_uint256,t_mapping(t_address,t_struct(UserInfo)12174_storage))"
      },
      {
        "astId": 12187,
        "contract": "contracts/farming/FarmingPoolUpgradeable.sol:FarmingPoolUpgradeable",
        "label": "extraClaimable",
        "offset": 0,
        "slot": "209",
        "type": "t_mapping(t_uint256,t_mapping(t_address,t_uint256))"
      },
      {
        "astId": 12192,
        "contract": "contracts/farming/FarmingPoolUpgradeable.sol:FarmingPoolUpgradeable",
        "label": "thresholdBasic",
        "offset": 0,
        "slot": "210",
        "type": "t_mapping(t_uint256,t_array(t_uint256)dyn_storage)"
      },
      {
        "astId": 12197,
        "contract": "contracts/farming/FarmingPoolUpgradeable.sol:FarmingPoolUpgradeable",
        "label": "piecewiseBasic",
        "offset": 0,
        "slot": "211",
        "type": "t_mapping(t_uint256,t_array(t_uint256)dyn_storage)"
      },
      {
        "astId": 12199,
        "contract": "contracts/farming/FarmingPoolUpgradeable.sol:FarmingPoolUpgradeable",
        "label": "currentRewardLevel",
        "offset": 0,
        "slot": "212",
        "type": "t_uint256"
      }
    ],
    "types": {
      "t_address": {
        "encoding": "inplace",
        "label": "address",
        "numberOfBytes": "20"
      },
      "t_array(t_struct(PoolInfo)12155_storage)dyn_storage": {
        "base": "t_struct(PoolInfo)12155_storage",
        "encoding": "dynamic_array",
        "label": "struct FarmingPoolUpgradeable.PoolInfo[]",
        "numberOfBytes": "32"
      },
      "t_array(t_uint256)49_storage": {
        "base": "t_uint256",
        "encoding": "inplace",
        "label": "uint256[49]",
        "numberOfBytes": "1568"
      },
      "t_array(t_uint256)50_storage": {
        "base": "t_uint256",
        "encoding": "inplace",
        "label": "uint256[50]",
        "numberOfBytes": "1600"
      },
      "t_array(t_uint256)dyn_storage": {
        "base": "t_uint256",
        "encoding": "dynamic_array",
        "label": "uint256[]",
        "numberOfBytes": "32"
      },
      "t_bool": {
        "encoding": "inplace",
        "label": "bool",
        "numberOfBytes": "1"
      },
      "t_contract(IDegisToken)35643": {
        "encoding": "inplace",
        "label": "contract IDegisToken",
        "numberOfBytes": "20"
      },
      "t_contract(IVeDEG)16975": {
        "encoding": "inplace",
        "label": "contract IVeDEG",
        "numberOfBytes": "20"
      },
      "t_mapping(t_address,t_struct(UserInfo)12174_storage)": {
        "encoding": "mapping",
        "key": "t_address",
        "label": "mapping(address => struct FarmingPoolUpgradeable.UserInfo)",
        "numberOfBytes": "32",
        "value": "t_struct(UserInfo)12174_storage"
      },
      "t_mapping(t_address,t_uint256)": {
        "encoding": "mapping",
        "key": "t_address",
        "label": "mapping(address => uint256)",
        "numberOfBytes": "32",
        "value": "t_uint256"
      },
      "t_mapping(t_uint256,t_array(t_uint256)dyn_storage)": {
        "encoding": "mapping",
        "key": "t_uint256",
        "label": "mapping(uint256 => uint256[])",
        "numberOfBytes": "32",
        "value": "t_array(t_uint256)dyn_storage"
      },
      "t_mapping(t_uint256,t_bool)": {
        "encoding": "mapping",
        "key": "t_uint256",
        "label": "mapping(uint256 => bool)",
        "numberOfBytes": "32",
        "value": "t_bool"
      },
      "t_mapping(t_uint256,t_mapping(t_address,t_struct(UserInfo)12174_storage))": {
        "encoding": "mapping",
        "key": "t_uint256",
        "label": "mapping(uint256 => mapping(address => struct FarmingPoolUpgradeable.UserInfo))",
        "numberOfBytes": "32",
        "value": "t_mapping(t_address,t_struct(UserInfo)12174_storage)"
      },
      "t_mapping(t_uint256,t_mapping(t_address,t_uint256))": {
        "encoding": "mapping",
        "key": "t_uint256",
        "label": "mapping(uint256 => mapping(address => uint256))",
        "numberOfBytes": "32",
        "value": "t_mapping(t_address,t_uint256)"
      },
      "t_struct(PoolInfo)12155_storage": {
        "encoding": "inplace",
        "label": "struct FarmingPoolUpgradeable.PoolInfo",
        "members": [
          {
            "astId": 12142,
            "contract": "contracts/farming/FarmingPoolUpgradeable.sol:FarmingPoolUpgradeable",
            "label": "lpToken",
            "offset": 0,
            "slot": "0",
            "type": "t_address"
          },
          {
            "astId": 12144,
            "contract": "contracts/farming/FarmingPoolUpgradeable.sol:FarmingPoolUpgradeable",
            "label": "basicDegisPerSecond",
            "offset": 0,
            "slot": "1",
            "type": "t_uint256"
          },
          {
            "astId": 12146,
            "contract": "contracts/farming/FarmingPoolUpgradeable.sol:FarmingPoolUpgradeable",
            "label": "bonusDegisPerSecond",
            "offset": 0,
            "slot": "2",
            "type": "t_uint256"
          },
          {
            "astId": 12148,
            "contract": "contracts/farming/FarmingPoolUpgradeable.sol:FarmingPoolUpgradeable",
            "label": "lastRewardTimestamp",
            "offset": 0,
            "slot": "3",
            "type": "t_uint256"
          },
          {
            "astId": 12150,
            "contract": "contracts/farming/FarmingPoolUpgradeable.sol:FarmingPoolUpgradeable",
            "label": "accDegisPerShare",
            "offset": 0,
            "slot": "4",
            "type": "t_uint256"
          },
          {
            "astId": 12152,
            "contract": "contracts/farming/FarmingPoolUpgradeable.sol:FarmingPoolUpgradeable",
            "label": "accDegisPerBonusShare",
            "offset": 0,
            "slot": "5",
            "type": "t_uint256"
          },
          {
            "astId": 12154,
            "contract": "contracts/farming/FarmingPoolUpgradeable.sol:FarmingPoolUpgradeable",
            "label": "totalBonus",
            "offset": 0,
            "slot": "6",
            "type": "t_uint256"
          }
        ],
        "numberOfBytes": "224"
      },
      "t_struct(UserInfo)12174_storage": {
        "encoding": "inplace",
        "label": "struct FarmingPoolUpgradeable.UserInfo",
        "members": [
          {
            "astId": 12169,
            "contract": "contracts/farming/FarmingPoolUpgradeable.sol:FarmingPoolUpgradeable",
            "label": "rewardDebt",
            "offset": 0,
            "slot": "0",
            "type": "t_uint256"
          },
          {
            "astId": 12171,
            "contract": "contracts/farming/FarmingPoolUpgradeable.sol:FarmingPoolUpgradeable",
            "label": "stakingBalance",
            "offset": 0,
            "slot": "1",
            "type": "t_uint256"
          },
          {
            "astId": 12173,
            "contract": "contracts/farming/FarmingPoolUpgradeable.sol:FarmingPoolUpgradeable",
            "label": "bonus",
            "offset": 0,
            "slot": "2",
            "type": "t_uint256"
          }
        ],
        "numberOfBytes": "96"
      },
      "t_uint256": {
        "encoding": "inplace",
        "label": "uint256",
        "numberOfBytes": "32"
      }
    }
  }
}