{
  "address": "0x472e3155dCd756477Bbf3Da5cdaB266E2e0291Ea",
  "abi": [
    {
      "inputs": [
        {
          "internalType": "address",
          "name": "_policyFlow",
          "type": "address"
        },
        {
          "internalType": "address",
          "name": "_link",
          "type": "address"
        }
      ],
      "stateMutability": "nonpayable",
      "type": "constructor"
    },
    {
      "anonymous": false,
      "inputs": [
        {
          "indexed": true,
          "internalType": "bytes32",
          "name": "id",
          "type": "bytes32"
        }
      ],
      "name": "ChainlinkCancelled",
      "type": "event"
    },
    {
      "anonymous": false,
      "inputs": [
        {
          "indexed": true,
          "internalType": "bytes32",
          "name": "id",
          "type": "bytes32"
        }
      ],
      "name": "ChainlinkFulfilled",
      "type": "event"
    },
    {
      "anonymous": false,
      "inputs": [
        {
          "indexed": true,
          "internalType": "bytes32",
          "name": "id",
          "type": "bytes32"
        }
      ],
      "name": "ChainlinkRequested",
      "type": "event"
    },
    {
      "anonymous": false,
      "inputs": [
        {
          "indexed": false,
          "internalType": "bytes32",
          "name": "newJobId",
          "type": "bytes32"
        }
      ],
      "name": "JobIdChanged",
      "type": "event"
    },
    {
      "anonymous": false,
      "inputs": [
        {
          "indexed": false,
          "internalType": "address",
          "name": "newOracle",
          "type": "address"
        }
      ],
      "name": "OracleAddressChanged",
      "type": "event"
    },
    {
      "anonymous": false,
      "inputs": [
        {
          "indexed": true,
          "internalType": "address",
          "name": "previousOwner",
          "type": "address"
        },
        {
          "indexed": true,
          "internalType": "address",
          "name": "newOwner",
          "type": "address"
        }
      ],
      "name": "OwnershipTransferred",
      "type": "event"
    },
    {
      "anonymous": false,
      "inputs": [
        {
          "indexed": false,
          "internalType": "address",
          "name": "newPolicyFlow",
          "type": "address"
        }
      ],
      "name": "PolicyFlowChanged",
      "type": "event"
    },
    {
      "inputs": [
        {
          "internalType": "bytes32",
          "name": "_requestId",
          "type": "bytes32"
        },
        {
          "internalType": "uint256",
          "name": "_data",
          "type": "uint256"
        }
      ],
      "name": "fulfill",
      "outputs": [],
      "stateMutability": "nonpayable",
      "type": "function"
    },
    {
      "inputs": [],
      "name": "getChainlinkTokenAddress",
      "outputs": [
        {
          "internalType": "address",
          "name": "",
          "type": "address"
        }
      ],
      "stateMutability": "view",
      "type": "function"
    },
    {
      "inputs": [],
      "name": "jobId",
      "outputs": [
        {
          "internalType": "bytes32",
          "name": "",
          "type": "bytes32"
        }
      ],
      "stateMutability": "view",
      "type": "function"
    },
    {
      "inputs": [
        {
          "internalType": "uint256",
          "name": "_payment",
          "type": "uint256"
        },
        {
          "internalType": "string",
          "name": "_url",
          "type": "string"
        },
        {
          "internalType": "string",
          "name": "_path",
          "type": "string"
        },
        {
          "internalType": "int256",
          "name": "_times",
          "type": "int256"
        }
      ],
      "name": "newOracleRequest",
      "outputs": [
        {
          "internalType": "bytes32",
          "name": "",
          "type": "bytes32"
        }
      ],
      "stateMutability": "nonpayable",
      "type": "function"
    },
    {
      "inputs": [],
      "name": "oracleAddress",
      "outputs": [
        {
          "internalType": "address",
          "name": "",
          "type": "address"
        }
      ],
      "stateMutability": "view",
      "type": "function"
    },
    {
      "inputs": [],
      "name": "owner",
      "outputs": [
        {
          "internalType": "address",
          "name": "",
          "type": "address"
        }
      ],
      "stateMutability": "view",
      "type": "function"
    },
    {
      "inputs": [],
      "name": "policyFlow",
      "outputs": [
        {
          "internalType": "contract IPolicyFlow",
          "name": "",
          "type": "address"
        }
      ],
      "stateMutability": "view",
      "type": "function"
    },
    {
      "inputs": [],
      "name": "renounceOwnership",
      "outputs": [],
      "stateMutability": "nonpayable",
      "type": "function"
    },
    {
      "inputs": [
        {
          "internalType": "bytes32",
          "name": "_newJobId",
          "type": "bytes32"
        }
      ],
      "name": "setJobId",
      "outputs": [],
      "stateMutability": "nonpayable",
      "type": "function"
    },
    {
      "inputs": [
        {
          "internalType": "address",
          "name": "_newOracle",
          "type": "address"
        }
      ],
      "name": "setOracleAddress",
      "outputs": [],
      "stateMutability": "nonpayable",
      "type": "function"
    },
    {
      "inputs": [
        {
          "internalType": "address",
          "name": "_policyFlow",
          "type": "address"
        }
      ],
      "name": "setPolicyFlow",
      "outputs": [],
      "stateMutability": "nonpayable",
      "type": "function"
    },
    {
      "inputs": [
        {
          "internalType": "address",
          "name": "newOwner",
          "type": "address"
        }
      ],
      "name": "transferOwnership",
      "outputs": [],
      "stateMutability": "nonpayable",
      "type": "function"
    }
  ],
  "transactionHash": "0x4909331b55c8dfc274f0797b7a40816c45c38d95de6cab3f799ea796548493fe",
  "args": [
    "0xAFB5b1191243fC9B2880485F7FdAaD51183DF47C",
    "0x0b9d5D9136855f6FEc3c0993feE6E9CE8a297846"
  ],
  "numDeployments": 1,
  "solcInputHash": "8dd2e6135d939db293bda9b7f143597f",
  "bytecode": "0x608060405260016004553480156200001657600080fd5b506040516200174d3803806200174d83398101604081905262000039916200011a565b62000044336200008e565b600780546001600160a01b0319166001600160a01b0384161790556200008681600280546001600160a01b0319166001600160a01b0392909216919091179055565b50506200015d565b600680546001600160a01b038381166001600160a01b0319831681179093556040519116919082907f8be0079c531659141344cd1fd0a4f28419497f9722a3daafe3b4186f6b6457e090600090a35050565b60006001600160a01b0382165b92915050565b620000fe81620000e0565b81146200010a57600080fd5b50565b8051620000ed81620000f3565b60008060408385031215620001325762000132600080fd5b60006200014085856200010d565b925050602062000153858286016200010d565b9150509250929050565b6115e0806200016d6000396000f3fe608060405234801561001057600080fd5b50600436106100b45760003560e01c80638da5cb5b116100715780638da5cb5b146101385780639a66455f14610152578063a89ae4ba14610172578063c2939d9714610185578063f2fde38b1461018e578063f42f6283146101a157600080fd5b80634357855e146100b957806343d387f8146100ce5780634c69c00f146100f7578063508954f81461010a5780635c326caf1461011d578063715018a614610130575b600080fd5b6100cc6100c7366004610da8565b6101a9565b005b6007546100e1906001600160a01b031681565b6040516100ee9190610e1b565b60405180910390f35b6100cc610105366004610e3d565b610296565b6100cc610118366004610e5e565b610325565b6100cc61012b366004610e3d565b610393565b6100cc610417565b6006546001600160a01b03165b6040516100ee9190610e88565b610165610160366004610f90565b61045c565b6040516100ee919061102e565b600854610145906001600160a01b031681565b61016560095481565b6100cc61019c366004610e3d565b610571565b6101456105dc565b60008281526005602052604090205482906001600160a01b031633146101ea5760405162461bcd60e51b81526004016101e190611081565b60405180910390fd5b60008181526005602052604080822080546001600160a01b03191690555182917f7cc135e0cebb02c3480ae5d74d377283180a2601f8f644edf7987b009316c63a91a2600754604051631a397db960e01b81526001600160a01b0390911690631a397db99061025f9086908690600401611091565b600060405180830381600087803b15801561027957600080fd5b505af115801561028d573d6000803e3d6000fd5b50505050505050565b336102a96006546001600160a01b031690565b6001600160a01b0316146102cf5760405162461bcd60e51b81526004016101e1906110ac565b600880546001600160a01b0319166001600160a01b0383161790556040517fe420b96152542f57ce3d2d26d939a3c2860a82361801ad0a970a3badc32d538e9061031a908390610e88565b60405180910390a150565b336103386006546001600160a01b031690565b6001600160a01b03161461035e5760405162461bcd60e51b81526004016101e1906110ac565b60098190556040517f4dc4dbbae4d8f049d23aba312d2228dde16dd56f1d37f309f14fa9599ff5d9b09061031a90839061102e565b336103a66006546001600160a01b031690565b6001600160a01b0316146103cc5760405162461bcd60e51b81526004016101e1906110ac565b600780546001600160a01b0319166001600160a01b0383161790556040517f5555268576901f37625e3ab2764fd0bbb1f18eea39aa25cccf978984252021069061031a908390610e88565b3361042a6006546001600160a01b031690565b6001600160a01b0316146104505760405162461bcd60e51b81526004016101e1906110ac565b61045a60006105f5565b565b6007546000906001600160a01b031633146104895760405162461bcd60e51b81526004016101e19061112b565b6008546001600160a01b0316158015906104a4575060095415155b6104c05760405162461bcd60e51b81526004016101e190611181565b60006104d660095430634357855e60e01b610647565b6040805180820190915260038152621d5c9b60ea1b60208201529091506104ff9082908761066e565b6040805180820190915260048152630e0c2e8d60e31b60208201526105269082908661066e565b60408051808201909152600581526474696d657360d81b602082015261054e90829085610691565b600854610565906001600160a01b031682886106af565b9150505b949350505050565b336105846006546001600160a01b031690565b6001600160a01b0316146105aa5760405162461bcd60e51b81526004016101e1906110ac565b6001600160a01b0381166105d05760405162461bcd60e51b81526004016101e1906111d2565b6105d9816105f5565b50565b60006105f06002546001600160a01b031690565b905090565b600680546001600160a01b038381166001600160a01b0319831681179093556040519116919082907f8be0079c531659141344cd1fd0a4f28419497f9722a3daafe3b4186f6b6457e090600090a35050565b61064f610d55565b610657610d55565b61066381868686610742565b9150505b9392505050565b608083015161067d908361077f565b608083015161068c908261077f565b505050565b60808301516106a0908361077f565b608083015161068c9082610796565b6004546000906106c08160016111f8565b600455835160408086015160808701515191516000936320214ca360e11b936106f89386938493923092918a9160019160240161127e565b60408051601f198184030181529190526020810180516001600160e01b03166001600160e01b0319909316929092179091529050610738868386846107f9565b9695505050505050565b61074a610d55565b61075a8560800151610100610908565b50509183526001600160a01b031660208301526001600160e01b031916604082015290565b61078c8260038351610973565b61068c8282610a80565b67ffffffffffffffff198112156107b5576107b18282610aa7565b5050565b6001600160401b038113156107ce576107b18282610ae7565b600081126107e2576107b182600083610973565b6107b18260016107f4846000196112fb565b610973565b6000308460405160200161080e929190611363565b60408051808303601f1901815282825280516020918201206000818152600590925291812080546001600160a01b0319166001600160a01b038a1617905590925082917fb5e6e01e79f91267dc17b4e6314d5d4d03593d2ceee0fbb452b750bd70ea5af99190a2600254604051630200057560e51b81526001600160a01b0390911690634000aea0906108a99088908790879060040161137a565b6020604051808303816000875af11580156108c8573d6000803e3d6000fd5b505050506040513d601f19601f820116820180604052508101906108ec91906113c3565b6105695760405162461bcd60e51b81526004016101e190611422565b604080518082019091526060815260006020820152610928602083611448565b1561095057610938602083611448565b61094390602061145c565b61094d90836111f8565b91505b506020808301829052604080518085526000815283019091019052815b92915050565b6017816001600160401b03161161099d576109978360e0600585901b168317610b08565b50505050565b60ff816001600160401b0316116109d9576109c3836018611fe0600586901b1617610b08565b50610997836001600160401b0383166001610b2d565b61ffff816001600160401b031611610a1657610a00836019611fe0600586901b1617610b08565b50610997836001600160401b0383166002610b2d565b63ffffffff816001600160401b031611610a5557610a3f83601a611fe0600586901b1617610b08565b50610997836001600160401b0383166004610b2d565b610a6a83601b611fe0600586901b1617610b08565b50610997836001600160401b0383166008610b2d565b60408051808201909152606081526000602082015261066783846000015151848551610b53565b610ab28260c3610b08565b506107b182610ac3836000196112fb565b604051602001610ad3919061102e565b604051602081830303815290604052610c3d565b610af28260c2610b08565b506107b18282604051602001610ad3919061102e565b6040805180820190915260608152600060208201526106678384600001515184610c4a565b604080518082019091526060815260006020820152610569848560000151518585610ca6565b6040805180820190915260608152600060208201528251821115610b7657600080fd5b6020850151610b8583866111f8565b1115610bb857610bb885610ba887602001518786610ba391906111f8565b610d27565b610bb390600261146e565b610d3e565b600080865180518760208301019350808887011115610bd75787860182525b505050602084015b60208410610c175780518252610bf66020836111f8565b9150610c036020826111f8565b9050610c1060208561145c565b9350610bdf565b51815160001960208690036101000a019081169019919091161790525083949350505050565b61078c8260028351610973565b60408051808201909152606081526000602082015283602001518310610c7f57610c7f8485602001516002610bb3919061146e565b835180516020858301018481535080851415610c9c576001810182525b5093949350505050565b6040805180820190915260608152600060208201526020850151610cca85846111f8565b1115610cde57610cde85610ba886856111f8565b60006001610cee8461010061159b565b610cf8919061145c565b9050855183868201018583198251161781525080518487011115610d1c5783860181525b509495945050505050565b600081831115610d3857508161096d565b50919050565b8151610d4a8383610908565b506109978382610a80565b6040805160a0810182526000808252602080830182905282840182905260608084018390528451808601909552845283015290608082015290565b805b81146105d957600080fd5b803561096d81610d90565b60008060408385031215610dbe57610dbe600080fd5b6000610dca8585610d9d565b9250506020610ddb85828601610d9d565b9150509250929050565b60006001600160a01b03821661096d565b600061096d82610de5565b600061096d82610df6565b610e1581610e01565b82525050565b6020810161096d8284610e0c565b610d9281610de5565b803561096d81610e29565b600060208284031215610e5257610e52600080fd5b60006105698484610e32565b600060208284031215610e7357610e73600080fd5b60006105698484610d9d565b610e1581610de5565b6020810161096d8284610e7f565b634e487b7160e01b600052604160045260246000fd5b601f19601f83011681018181106001600160401b0382111715610ed157610ed1610e96565b6040525050565b6000610ee360405190565b9050610eef8282610eac565b919050565b60006001600160401b03821115610f0d57610f0d610e96565b601f19601f8301165b60200192915050565b82818337506000910152565b6000610f3e610f3984610ef4565b610ed8565b905082815260208101848484011115610f5957610f59600080fd5b610f64848285610f1f565b509392505050565b600082601f830112610f8057610f80600080fd5b8135610569848260208601610f2b565b60008060008060808587031215610fa957610fa9600080fd5b6000610fb58787610d9d565b94505060208501356001600160401b03811115610fd457610fd4600080fd5b610fe087828801610f6c565b93505060408501356001600160401b03811115610fff57610fff600080fd5b61100b87828801610f6c565b925050606061101c87828801610d9d565b91505092959194509250565b80610e15565b6020810161096d8284611028565b60288152602081017f536f75726365206d75737420626520746865206f7261636c65206f6620746865815267081c995c5d595cdd60c21b602082015290505b60400190565b6020808252810161096d8161103c565b6040810161109f8285611028565b6106676020830184611028565b60208082528181019081527f4f776e61626c653a2063616c6c6572206973206e6f7420746865206f776e657260408301526060820161096d565b602a8152602081017f4f6e6c792074686520706f6c696379666c6f772063616e2063616c6c207468698152693990333ab731ba34b7b760b11b6020820152905061107b565b6020808252810161096d816110e6565b602b8152602081017f506c656173652066697273742073657420746865206f7261636c65206164647281526a195cdcc809881a9bd8925960aa1b6020820152905061107b565b6020808252810161096d8161113b565b60268152602081017f4f776e61626c653a206e6577206f776e657220697320746865207a65726f206181526564647265737360d01b6020820152905061107b565b6020808252810161096d81611191565b634e487b7160e01b600052601160045260246000fd5b6000821982111561120b5761120b6111e2565b500190565b6001600160e01b03198116610e15565b60005b8381101561123b578181015183820152602001611223565b838111156109975750506000910152565b6000611256825190565b80845260208401935061126d818560208601611220565b601f01601f19169290920192915050565b610100810161128d828b610e7f565b61129a602083018a611028565b6112a76040830189611028565b6112b46060830188610e7f565b6112c16080830187611210565b6112ce60a0830186611028565b6112db60c0830185611028565b81810360e08301526112ed818461124c565b9a9950505050505050505050565b600080831215600160ff1b840183121615611318576113186111e2565b600083126001600160ff1b03840183131615611336576113366111e2565b500390565b600061096d8260601b90565b600061096d8261133b565b610e1561135e82610e01565b611347565b61136d8184611352565b601401610f168183611028565b606081016113888286610e7f565b6113956020830185611028565b81810360408301526113a7818461124c565b95945050505050565b801515610d92565b805161096d816113b0565b6000602082840312156113d8576113d8600080fd5b600061056984846113b8565b60238152602081017f756e61626c6520746f207472616e73666572416e6443616c6c20746f206f7261815262636c6560e81b6020820152905061107b565b6020808252810161096d816113e4565b634e487b7160e01b600052601260045260246000fd5b60008261145757611457611432565b500690565b600082821015611336576113366111e2565b6000816000190483118215151615611488576114886111e2565b500290565b80825b60018511156114cc578086048111156114ab576114ab6111e2565b60018516156114b957908102905b80026114c58560011c90565b9450611490565b94509492505050565b6000826114e457506001610667565b816114f157506000610667565b816001811461150757600281146115115761153e565b6001915050610667565b60ff841115611522576115226111e2565b8360020a915084821115611538576115386111e2565b50610667565b5060208310610133831016604e8410600b8410161715611571575081810a8381111561156c5761156c6111e2565b610667565b61157e848484600161148d565b92509050818404811115611594576115946111e2565b0292915050565b600061066760001984846114d556fea2646970667358221220f79df3982409d9cd0d8927fc90dd9047a7710446986bb57a7910166c03a89b1664736f6c634300080a0033",
  "devdoc": {
    "details": "Remember to set the url, oracleAddress and jobId         If there are multiple oracle providers in the future, this contract may need to be updated.",
    "kind": "dev",
    "methods": {
      "fulfill(bytes32,uint256)": {
        "details": "The recordChainlinkFulfillment protects this function from being called      by anyone other than the oracle address that the request was sent to",
        "params": {
          "_data": "The answer provided by the oracle",
          "_requestId": "The ID that was generated for the request"
        }
      },
      "getChainlinkTokenAddress()": {
        "details": "This is the public implementation for chainlinkTokenAddress, which is      an internal method of the ChainlinkClient contract"
      },
      "newOracleRequest(uint256,string,string,int256)": {
        "details": "This function ignores the stored Oracle contract address and      will instead send the request to the address specified",
        "params": {
          "_path": "The dot-delimited path to parse of the response",
          "_payment": "Payment to the oracle",
          "_times": "The number to multiply the result by",
          "_url": "The URL to fetch data from"
        }
      },
      "renounceOwnership()": {
        "details": "Renouncing ownership will leave the contract without an owner,         thereby removing any functionality that is only available to the owner."
      },
      "transferOwnership(address)": {
        "details": "Can only be called by the current owner.",
        "params": {
          "newOwner": "Address of the new owner"
        }
      }
    },
    "title": "Flight Oracle",
    "version": 1
  },
  "userdoc": {
    "kind": "user",
    "methods": {
      "constructor": {
        "notice": "Need the address of LINK token on specific network"
      },
      "fulfill(bytes32,uint256)": {
        "notice": "The fulfill method from requests created by this contract"
      },
      "getChainlinkTokenAddress()": {
        "notice": "Returns the address of the LINK token"
      },
      "newOracleRequest(uint256,string,string,int256)": {
        "notice": "Creates a request to the specified Oracle contract address"
      },
      "owner()": {
        "notice": "Returns the address of the current owner."
      },
      "renounceOwnership()": {
        "notice": "Leaves the contract without owner. It will not be possible to call         `onlyOwner` functions anymore. Can only be called by the current owner."
      },
      "setJobId(bytes32)": {
        "notice": "Set a new job id"
      },
      "setOracleAddress(address)": {
        "notice": "Set the oracle address"
      },
      "setPolicyFlow(address)": {
        "notice": "Change the policy flow contract address"
      },
      "transferOwnership(address)": {
        "notice": "Transfers ownership of the contract to a new account (`newOwner`)."
      }
    },
    "notice": "This is the flight oracle contract.         Called by policyFlow contract and send the request to chainlink node.         After receiving the result, call the policyFlow contract to do the settlement.",
    "version": 1
  },
  "storageLayout": {
    "storage": [
      {
        "astId": 319,
        "contract": "contracts/miserable-flight/FlightOracle.sol:FlightOracle",
        "label": "s_ens",
        "offset": 0,
        "slot": "0",
        "type": "t_contract(ENSInterface)1191"
      },
      {
        "astId": 321,
        "contract": "contracts/miserable-flight/FlightOracle.sol:FlightOracle",
        "label": "s_ensNode",
        "offset": 0,
        "slot": "1",
        "type": "t_bytes32"
      },
      {
        "astId": 324,
        "contract": "contracts/miserable-flight/FlightOracle.sol:FlightOracle",
        "label": "s_link",
        "offset": 0,
        "slot": "2",
        "type": "t_contract(LinkTokenInterface)1286"
      },
      {
        "astId": 327,
        "contract": "contracts/miserable-flight/FlightOracle.sol:FlightOracle",
        "label": "s_oracle",
        "offset": 0,
        "slot": "3",
        "type": "t_contract(OperatorInterface)1366"
      },
      {
        "astId": 330,
        "contract": "contracts/miserable-flight/FlightOracle.sol:FlightOracle",
        "label": "s_requestCount",
        "offset": 0,
        "slot": "4",
        "type": "t_uint256"
      },
      {
        "astId": 334,
        "contract": "contracts/miserable-flight/FlightOracle.sol:FlightOracle",
        "label": "s_pendingRequests",
        "offset": 0,
        "slot": "5",
        "type": "t_mapping(t_bytes32,t_address)"
      },
      {
        "astId": 21715,
        "contract": "contracts/miserable-flight/FlightOracle.sol:FlightOracle",
        "label": "_owner",
        "offset": 0,
        "slot": "6",
        "type": "t_address"
      },
      {
        "astId": 12214,
        "contract": "contracts/miserable-flight/FlightOracle.sol:FlightOracle",
        "label": "policyFlow",
        "offset": 0,
        "slot": "7",
        "type": "t_contract(IPolicyFlow)15304"
      },
      {
        "astId": 12216,
        "contract": "contracts/miserable-flight/FlightOracle.sol:FlightOracle",
        "label": "oracleAddress",
        "offset": 0,
        "slot": "8",
        "type": "t_address"
      },
      {
        "astId": 12218,
        "contract": "contracts/miserable-flight/FlightOracle.sol:FlightOracle",
        "label": "jobId",
        "offset": 0,
        "slot": "9",
        "type": "t_bytes32"
      }
    ],
    "types": {
      "t_address": {
        "encoding": "inplace",
        "label": "address",
        "numberOfBytes": "20"
      },
      "t_bytes32": {
        "encoding": "inplace",
        "label": "bytes32",
        "numberOfBytes": "32"
      },
      "t_contract(ENSInterface)1191": {
        "encoding": "inplace",
        "label": "contract ENSInterface",
        "numberOfBytes": "20"
      },
      "t_contract(IPolicyFlow)15304": {
        "encoding": "inplace",
        "label": "contract IPolicyFlow",
        "numberOfBytes": "20"
      },
      "t_contract(LinkTokenInterface)1286": {
        "encoding": "inplace",
        "label": "contract LinkTokenInterface",
        "numberOfBytes": "20"
      },
      "t_contract(OperatorInterface)1366": {
        "encoding": "inplace",
        "label": "contract OperatorInterface",
        "numberOfBytes": "20"
      },
      "t_mapping(t_bytes32,t_address)": {
        "encoding": "mapping",
        "key": "t_bytes32",
        "label": "mapping(bytes32 => address)",
        "numberOfBytes": "32",
        "value": "t_address"
      },
      "t_uint256": {
        "encoding": "inplace",
        "label": "uint256",
        "numberOfBytes": "32"
      }
    }
  }
}