{
  "address": "0x2baF1460991F3f2f9b97bfce66670788dDB5c0d8",
  "abi": [
    {
      "anonymous": false,
      "inputs": [
        {
          "indexed": false,
          "internalType": "string",
          "name": "policyToken",
          "type": "string"
        },
        {
          "indexed": false,
          "internalType": "address",
          "name": "pair",
          "type": "address"
        },
        {
          "indexed": false,
          "internalType": "uint256",
          "name": "decimals",
          "type": "uint256"
        },
        {
          "indexed": false,
          "internalType": "uint256",
          "name": "sampleInterval",
          "type": "uint256"
        },
        {
          "indexed": false,
          "internalType": "uint256",
          "name": "isToken0",
          "type": "uint256"
        }
      ],
      "name": "NewIDOPair",
      "type": "event"
    },
    {
      "anonymous": false,
      "inputs": [
        {
          "indexed": true,
          "internalType": "address",
          "name": "previousOwner",
          "type": "address"
        },
        {
          "indexed": true,
          "internalType": "address",
          "name": "newOwner",
          "type": "address"
        }
      ],
      "name": "OwnershipTransferred",
      "type": "event"
    },
    {
      "anonymous": false,
      "inputs": [
        {
          "indexed": false,
          "internalType": "string",
          "name": "policyToken",
          "type": "string"
        },
        {
          "indexed": false,
          "internalType": "uint256",
          "name": "priceAverage",
          "type": "uint256"
        },
        {
          "indexed": false,
          "internalType": "uint256",
          "name": "timestamp",
          "type": "uint256"
        }
      ],
      "name": "SamplePrice",
      "type": "event"
    },
    {
      "inputs": [],
      "name": "PERIOD",
      "outputs": [
        {
          "internalType": "uint256",
          "name": "",
          "type": "uint256"
        }
      ],
      "stateMutability": "view",
      "type": "function"
    },
    {
      "inputs": [],
      "name": "WAVAX",
      "outputs": [
        {
          "internalType": "address",
          "name": "",
          "type": "address"
        }
      ],
      "stateMutability": "view",
      "type": "function"
    },
    {
      "inputs": [
        {
          "internalType": "string",
          "name": "_policyToken",
          "type": "string"
        },
        {
          "internalType": "address",
          "name": "_pair",
          "type": "address"
        },
        {
          "internalType": "uint256",
          "name": "_decimals",
          "type": "uint256"
        },
        {
          "internalType": "uint256",
          "name": "_interval",
          "type": "uint256"
        },
        {
          "internalType": "uint256",
          "name": "_startTime",
          "type": "uint256"
        }
      ],
      "name": "addIDOPair",
      "outputs": [],
      "stateMutability": "nonpayable",
      "type": "function"
    },
    {
      "inputs": [],
      "name": "basePriceGetter",
      "outputs": [
        {
          "internalType": "contract IPriceGetter",
          "name": "",
          "type": "address"
        }
      ],
      "stateMutability": "view",
      "type": "function"
    },
    {
      "inputs": [
        {
          "internalType": "string",
          "name": "_policyToken",
          "type": "string"
        }
      ],
      "name": "getLatestPrice",
      "outputs": [
        {
          "internalType": "uint256",
          "name": "price",
          "type": "uint256"
        }
      ],
      "stateMutability": "nonpayable",
      "type": "function"
    },
    {
      "inputs": [
        {
          "internalType": "address",
          "name": "_priceGetter",
          "type": "address"
        },
        {
          "internalType": "address",
          "name": "_policyCore",
          "type": "address"
        }
      ],
      "name": "initialize",
      "outputs": [],
      "stateMutability": "nonpayable",
      "type": "function"
    },
    {
      "inputs": [],
      "name": "owner",
      "outputs": [
        {
          "internalType": "address",
          "name": "",
          "type": "address"
        }
      ],
      "stateMutability": "view",
      "type": "function"
    },
    {
      "inputs": [],
      "name": "policyCore",
      "outputs": [
        {
          "internalType": "contract IPolicyCore",
          "name": "",
          "type": "address"
        }
      ],
      "stateMutability": "view",
      "type": "function"
    },
    {
      "inputs": [
        {
          "internalType": "string",
          "name": "",
          "type": "string"
        }
      ],
      "name": "priceFeeds",
      "outputs": [
        {
          "internalType": "address",
          "name": "pair",
          "type": "address"
        },
        {
          "internalType": "uint256",
          "name": "decimals",
          "type": "uint256"
        },
        {
          "internalType": "uint256",
          "name": "sampleInterval",
          "type": "uint256"
        },
        {
          "internalType": "uint256",
          "name": "isToken0",
          "type": "uint256"
        },
        {
          "internalType": "uint256",
          "name": "priceAverage",
          "type": "uint256"
        },
        {
          "internalType": "uint256",
          "name": "priceCumulativeLast",
          "type": "uint256"
        },
        {
          "internalType": "uint256",
          "name": "lastTimestamp",
          "type": "uint256"
        },
        {
          "internalType": "uint256",
          "name": "startTime",
          "type": "uint256"
        },
        {
          "internalType": "uint256",
          "name": "endTime",
          "type": "uint256"
        }
      ],
      "stateMutability": "view",
      "type": "function"
    },
    {
      "inputs": [],
      "name": "renounceOwnership",
      "outputs": [],
      "stateMutability": "nonpayable",
      "type": "function"
    },
    {
      "inputs": [
        {
          "internalType": "string",
          "name": "_policyToken",
          "type": "string"
        }
      ],
      "name": "samplePrice",
      "outputs": [],
      "stateMutability": "nonpayable",
      "type": "function"
    },
    {
      "inputs": [
        {
          "internalType": "address",
          "name": "newOwner",
          "type": "address"
        }
      ],
      "name": "transferOwnership",
      "outputs": [],
      "stateMutability": "nonpayable",
      "type": "function"
    }
  ],
  "transactionHash": "0x7d10f9f27333c978df785b303f1dfeb59fee50731cf7026e2b68d7c4d07e5d1a",
  "args": [],
  "numDeployments": 4,
  "solcInputHash": "289bc591e2fcd5d0e6a1df27576df20f",
  "bytecode": "0x608060405234801561001057600080fd5b50611964806100206000396000f3fe608060405234801561001057600080fd5b50600436106100d45760003560e01c8063cb8ae86c11610081578063e30145e01161005b578063e30145e014610218578063f2fde38b1461022b578063f66a1b711461023e57600080fd5b8063cb8ae86c1461016f578063d2d1072d146101f2578063e23927181461020557600080fd5b806373b295c2116100b257806373b295c21461011f5780638da5cb5b14610147578063b4d1d7951461015857600080fd5b8063485cc955146100d95780636bf8910a146100ee578063715018a614610117575b600080fd5b6100ec6100e7366004610d75565b610251565b005b606554610101906001600160a01b031681565b60405161010e9190610dfa565b60405180910390f35b6100ec610313565b61013a73d00ae08403b9bbb9124bb305c09058e32c39a48c81565b60405161010e9190610e11565b6033546001600160a01b031661013a565b6101626202a30081565b60405161010e9190610e25565b6101dd61017d366004610f36565b80516020818301810180516067825292820191909301209152805460018201546002830154600384015460048501546005860154600687015460078801546008909801546001600160a01b03909716979596949593949293919290919089565b60405161010e99989796959493929190610f71565b6100ec61020036600461105a565b610349565b6100ec6102133660046110ef565b6106e7565b606654610101906001600160a01b031681565b6100ec610239366004611137565b6108ab565b61016261024c3660046110ef565b610907565b600054610100900460ff1661026c5760005460ff1615610270565b303b155b6102955760405162461bcd60e51b815260040161028c906111b2565b60405180910390fd5b600054610100900460ff161580156102b7576000805461ffff19166101011790555b6102bf610a03565b606580546001600160a01b0380861673ffffffffffffffffffffffffffffffffffffffff19928316179092556066805492851692909116919091179055801561030e576000805461ff00191690555b505050565b6033546001600160a01b0316331461033d5760405162461bcd60e51b815260040161028c906111f4565b6103476000610a32565b565b6033546001600160a01b031633146103735760405162461bcd60e51b815260040161028c906111f4565b60006001600160a01b0316846001600160a01b0316630dfe16816040518163ffffffff1660e01b8152600401602060405180830381865afa1580156103bc573d6000803e3d6000fd5b505050506040513d601f19601f820116820180604052508101906103e0919061120f565b6001600160a01b0316036104065760405162461bcd60e51b815260040161028c90611262565b60006001600160a01b031660678787604051610423929190611282565b908152604051908190036020019020546001600160a01b0316146104595760405162461bcd60e51b815260040161028c906112c6565b60006067878760405161046d929190611282565b9081526040805160209281900383018120805473ffffffffffffffffffffffffffffffffffffffff19166001600160a01b038a16908117825560018201899055600282018890557f0dfe1681000000000000000000000000000000000000000000000000000000008352925190945073d00ae08403b9bbb9124bb305c09058e32c39a48c93630dfe168192600480820193918290030181865afa158015610518573d6000803e3d6000fd5b505050506040513d601f19601f8201168201806040525081019061053c919061120f565b6001600160a01b031614610551576001610554565b60005b60ff168160030181905550846001600160a01b0316630902f1ac6040518163ffffffff1660e01b8152600401606060405180830381865afa15801561059d573d6000803e3d6000fd5b505050506040513d601f19601f820116820180604052508101906105c1919061130e565b63ffffffff16600684015550506066546040517fd9e85c840000000000000000000000000000000000000000000000000000000081526000916001600160a01b03169063d9e85c849061061a908b908b9060040161137e565b60e060405180830381865afa158015610637573d6000803e3d6000fd5b505050506040513d601f19601f8201168201806040525081019061065b9190611451565b60c001519050808310801561067c5750806106796202a30085611488565b10155b6106985760405162461bcd60e51b815260040161028c906114cd565b7f212544a34bde618b1304355fe54ed52a00db3723be0aae4d1f842043a23579af888888888887600301546040516106d5969594939291906114dd565b60405180910390a15050505050505050565b6000606783836040516106fb929190611282565b908152604051908190036020019020805490915060009081908190610728906001600160a01b0316610a91565b92509250925060008460060154826107409190611530565b600186015460028701549192509063ffffffff8316116107725760405162461bcd60e51b815260040161028c90611587565b600386015460009015610804576107e660405180602001604052808563ffffffff1685600a6107a191906116a5565b60058c01546107b0908c6116b4565b6107ba91906116ba565b6107c491906116ef565b6001600160e01b031690525160701c6dffffffffffffffffffffffffffff1690565b600588018790556dffffffffffffffffffffffffffff16905061084f565b61083560405180602001604052808563ffffffff1685600a61082691906116a5565b60058c01546107b0908b6116b4565b600588018690556dffffffffffffffffffffffffffff1690505b6004870181905563ffffffff841660068801556040517f9b4359a4024cf42372af876d367b36bafd6cb68f8b58b78b1611b664ea994a2990610898908b908b9085908990611722565b60405180910390a1505050505050505050565b6033546001600160a01b031633146108d55760405162461bcd60e51b815260040161028c906111f4565b6001600160a01b0381166108fb5760405162461bcd60e51b815260040161028c906117a8565b61090481610a32565b50565b6000806067848460405161091c929190611282565b9081526020016040518091039020600401549050600081116109505760405162461bcd60e51b815260040161028c906117ea565b6065546040517ff66a1b710000000000000000000000000000000000000000000000000000000081526000916001600160a01b03169063f66a1b71906109989060040161182c565b6020604051808303816000875af11580156109b7573d6000803e3d6000fd5b505050506040513d601f19601f820116820180604052508101906109db919061183c565b9050670de0b6b3a76400006109f083836116ba565b6109fa91906116ef565b95945050505050565b600054610100900460ff16610a2a5760405162461bcd60e51b815260040161028c906118b5565b610347610c64565b603380546001600160a01b0383811673ffffffffffffffffffffffffffffffffffffffff19831681179093556040519116919082907f8be0079c531659141344cd1fd0a4f28419497f9722a3daafe3b4186f6b6457e090600090a35050565b6000806000610a9e610c94565b9050836001600160a01b0316635909c0d56040518163ffffffff1660e01b8152600401602060405180830381865afa158015610ade573d6000803e3d6000fd5b505050506040513d601f19601f82011682018060405250810190610b02919061183c565b9250836001600160a01b0316635a3d54936040518163ffffffff1660e01b8152600401602060405180830381865afa158015610b42573d6000803e3d6000fd5b505050506040513d601f19601f82011682018060405250810190610b66919061183c565b91506000806000866001600160a01b0316630902f1ac6040518163ffffffff1660e01b8152600401606060405180830381865afa158015610bab573d6000803e3d6000fd5b505050506040513d601f19601f82011682018060405250810190610bcf919061130e565b9250925092508363ffffffff168163ffffffff1614610c5a576000610bf48286611530565b90508063ffffffff16610c078486610caa565b51610c1b91906001600160e01b03166116ba565b610c259088611488565b96508063ffffffff16610c388585610caa565b51610c4c91906001600160e01b03166116ba565b610c569087611488565b9550505b5050509193909250565b600054610100900460ff16610c8b5760405162461bcd60e51b815260040161028c906118b5565b61034733610a32565b6000610ca5640100000000426118c5565b905090565b6040805160208101909152600081526000826dffffffffffffffffffffffffffff1611610ce95760405162461bcd60e51b815260040161028c9061190b565b604080516020810190915280610d316dffffffffffffffffffffffffffff85167bffffffffffffffffffffffffffff0000000000000000000000000000607088901b1661191b565b6001600160e01b0316905290505b92915050565b60006001600160a01b038216610d3f565b610d5f81610d45565b811461090457600080fd5b8035610d3f81610d56565b60008060408385031215610d8b57610d8b600080fd5b6000610d978585610d6a565b9250506020610da885828601610d6a565b9150509250929050565b6000610d3f6001600160a01b038316610dc9565b90565b6001600160a01b031690565b6000610d3f82610db2565b6000610d3f82610dd5565b610df481610de0565b82525050565b60208101610d3f8284610deb565b610df481610d45565b60208101610d3f8284610e08565b80610df4565b60208101610d3f8284610e1f565b634e487b7160e01b600052604160045260246000fd5b601f19601f830116810181811067ffffffffffffffff82111715610e6f57610e6f610e33565b6040525050565b6000610e8160405190565b9050610e8d8282610e49565b919050565b600067ffffffffffffffff821115610eac57610eac610e33565b601f19601f83011660200192915050565b82818337506000910152565b6000610edc610ed784610e92565b610e76565b905082815260208101848484011115610ef757610ef7600080fd5b610f02848285610ebd565b509392505050565b600082601f830112610f1e57610f1e600080fd5b8135610f2e848260208601610ec9565b949350505050565b600060208284031215610f4b57610f4b600080fd5b813567ffffffffffffffff811115610f6557610f65600080fd5b610f2e84828501610f0a565b6101208101610f80828c610e08565b610f8d602083018b610e1f565b610f9a604083018a610e1f565b610fa76060830189610e1f565b610fb46080830188610e1f565b610fc160a0830187610e1f565b610fce60c0830186610e1f565b610fdb60e0830185610e1f565b610fe9610100830184610e1f565b9a9950505050505050505050565b60008083601f84011261100c5761100c600080fd5b50813567ffffffffffffffff81111561102757611027600080fd5b60208301915083600182028301111561104257611042600080fd5b9250929050565b80610d5f565b8035610d3f81611049565b60008060008060008060a0878903121561107657611076600080fd5b863567ffffffffffffffff81111561109057611090600080fd5b61109c89828a01610ff7565b965096505060206110af89828a01610d6a565b94505060406110c089828a0161104f565b93505060606110d189828a0161104f565b92505060806110e289828a0161104f565b9150509295509295509295565b6000806020838503121561110557611105600080fd5b823567ffffffffffffffff81111561111f5761111f600080fd5b61112b85828601610ff7565b92509250509250929050565b60006020828403121561114c5761114c600080fd5b6000610f2e8484610d6a565b602e8152602081017f496e697469616c697a61626c653a20636f6e747261637420697320616c72656181527f647920696e697469616c697a6564000000000000000000000000000000000000602082015290505b60400190565b60208082528101610d3f81611158565b60208082527f4f776e61626c653a2063616c6c6572206973206e6f7420746865206f776e657291019081525b60200190565b60208082528101610d3f816111c2565b8051610d3f81610d56565b60006020828403121561122457611224600080fd5b6000610f2e8484611204565b600e8152602081017f4e6f6e2065786973742070616972000000000000000000000000000000000000815290506111ee565b60208082528101610d3f81611230565b61127d828483610ebd565b500190565b61128d818385611272565b9392505050565b60138152602081017f5061697220616c72656164792065786973747300000000000000000000000000815290506111ee565b60208082528101610d3f81611294565b6dffffffffffffffffffffffffffff8116610d5f565b8051610d3f816112d6565b63ffffffff8116610d5f565b8051610d3f816112f7565b60008060006060848603121561132657611326600080fd5b600061133286866112ec565b9350506020611343868287016112ec565b925050604061135486828701611303565b9150509250925092565b818352602083019250611372828483610ebd565b50601f01601f19160190565b60208082528101610f2e81848661135e565b801515610d5f565b8051610d3f81611390565b8051610d3f81611049565b600060e082840312156113c3576113c3600080fd5b6113cd60e0610e76565b905060006113db8484611204565b9082015260206113ed84848301611398565b9082015260406113ff848483016113a3565b908201526060611411848483016113a3565b908201526080611423848483016113a3565b9082015260a0611435848483016113a3565b9082015260c0611447848483016113a3565b9082015292915050565b600060e0828403121561146657611466600080fd5b6000610f2e84846113ae565b634e487b7160e01b600052601160045260246000fd5b6000821982111561127d5761127d611472565b60108152602081017f57726f6e672073746172742074696d6500000000000000000000000000000000815290506111ee565b60208082528101610d3f8161149b565b60a080825281016114ef81888a61135e565b90506114fe6020830187610e08565b61150b6040830186610e1f565b6115186060830185610e1f565b6115256080830184610e1f565b979650505050505050565b63ffffffff9081169082165b915060008282101561155057611550611472565b500390565b60178152602081017f4d696e696d756d2073616d706c6520696e74657276616c000000000000000000815290506111ee565b60208082528101610d3f81611555565b80825b60018511156115d6578086048111156115b5576115b5611472565b60018516156115c357908102905b80026115cf8560011c90565b945061159a565b94509492505050565b6000826115ee5750600161128d565b816115fb5750600061128d565b8160018114611611576002811461161b57611648565b600191505061128d565b60ff84111561162c5761162c611472565b8360020a91508482111561164257611642611472565b5061128d565b5060208310610133831016604e8410600b841016171561167b575081810a8381111561167657611676611472565b61128d565b6116888484846001611597565b9250905081840481111561169e5761169e611472565b0292915050565b600061128d60001984846115df565b8161153c565b60008160001904831182151516156116d4576116d4611472565b500290565b634e487b7160e01b600052601260045260246000fd5b815b9150600082611702576117026116d9565b500490565b6000610d3f610dc663ffffffff841681565b610df481611707565b6060808252810161173481868861135e565b90506117436020830185610e1f565b6109fa6040830184611719565b60268152602081017f4f776e61626c653a206e6577206f776e657220697320746865207a65726f206181527f6464726573730000000000000000000000000000000000000000000000000000602082015290506111ac565b60208082528101610d3f81611750565b600a8152602081017f5a65726f20507269636500000000000000000000000000000000000000000000815290506111ee565b60208082528101610d3f816117b8565b60048152602081017f4156415800000000000000000000000000000000000000000000000000000000815290506111ee565b60208082528101610d3f816117fa565b60006020828403121561185157611851600080fd5b6000610f2e84846113a3565b602b8152602081017f496e697469616c697a61626c653a20636f6e7472616374206973206e6f74206981527f6e697469616c697a696e67000000000000000000000000000000000000000000602082015290506111ac565b60208082528101610d3f8161185d565b6000826118d4576118d46116d9565b500690565b60178152602081017f4669786564506f696e743a204449565f42595f5a45524f000000000000000000815290506111ee565b60208082528101610d3f816118d9565b6001600160e01b039081169082166116f156fea2646970667358221220c6b615db033675713a15e77e6399ffb6f0facac2c0a7778918a7439c2cd7b63c64736f6c634300080d0033",
  "devdoc": {
    "kind": "dev",
    "methods": {
      "getLatestPrice(string)": {
        "params": {
          "_policyToken": "Policy token name"
        },
        "returns": {
          "price": "USD price of the base token"
        }
      },
      "owner()": {
        "details": "Returns the address of the current owner."
      },
      "renounceOwnership()": {
        "details": "Leaves the contract without owner. It will not be possible to call `onlyOwner` functions anymore. Can only be called by the current owner. NOTE: Renouncing ownership will leave the contract without an owner, thereby removing any functionality that is only available to the owner."
      },
      "transferOwnership(address)": {
        "details": "Transfers ownership of the contract to a new account (`newOwner`). Can only be called by the current owner."
      }
    },
    "title": "Price Getter for IDO Protection",
    "version": 1
  },
  "userdoc": {
    "kind": "user",
    "methods": {
      "getLatestPrice(string)": {
        "notice": "Get latest price"
      }
    },
    "notice": "This is the contract for getting price feed from DEX         IDO projects does not have Chainlink feeds so we use DEX TWAP price as oracle         Workflow:         1. Deploy naughty token for the IDO project and set its type as \"IDO\"         2. Add ido price feed info by calling \"addIDOPair\" function         3. Set auto tasks start within PERIOD to endTime to sample prices from DEX         4. Call \"settleFinalResult\" function in core to settle the final price",
    "version": 1
  },
  "storageLayout": {
    "storage": [
      {
        "astId": 2523,
        "contract": "contracts/naughty-price/IDOPriceGetter.sol:IDOPriceGetter",
        "label": "_initialized",
        "offset": 0,
        "slot": "0",
        "type": "t_bool"
      },
      {
        "astId": 2526,
        "contract": "contracts/naughty-price/IDOPriceGetter.sol:IDOPriceGetter",
        "label": "_initializing",
        "offset": 1,
        "slot": "0",
        "type": "t_bool"
      },
      {
        "astId": 3760,
        "contract": "contracts/naughty-price/IDOPriceGetter.sol:IDOPriceGetter",
        "label": "__gap",
        "offset": 0,
        "slot": "1",
        "type": "t_array(t_uint256)50_storage"
      },
      {
        "astId": 2403,
        "contract": "contracts/naughty-price/IDOPriceGetter.sol:IDOPriceGetter",
        "label": "_owner",
        "offset": 0,
        "slot": "51",
        "type": "t_address"
      },
      {
        "astId": 2515,
        "contract": "contracts/naughty-price/IDOPriceGetter.sol:IDOPriceGetter",
        "label": "__gap",
        "offset": 0,
        "slot": "52",
        "type": "t_array(t_uint256)49_storage"
      },
      {
        "astId": 28902,
        "contract": "contracts/naughty-price/IDOPriceGetter.sol:IDOPriceGetter",
        "label": "basePriceGetter",
        "offset": 0,
        "slot": "101",
        "type": "t_contract(IPriceGetter)34192"
      },
      {
        "astId": 28905,
        "contract": "contracts/naughty-price/IDOPriceGetter.sol:IDOPriceGetter",
        "label": "policyCore",
        "offset": 0,
        "slot": "102",
        "type": "t_contract(IPolicyCore)34168"
      },
      {
        "astId": 28929,
        "contract": "contracts/naughty-price/IDOPriceGetter.sol:IDOPriceGetter",
        "label": "priceFeeds",
        "offset": 0,
        "slot": "103",
        "type": "t_mapping(t_string_memory_ptr,t_struct(IDOPriceInfo)28924_storage)"
      }
    ],
    "types": {
      "t_address": {
        "encoding": "inplace",
        "label": "address",
        "numberOfBytes": "20"
      },
      "t_array(t_uint256)49_storage": {
        "base": "t_uint256",
        "encoding": "inplace",
        "label": "uint256[49]",
        "numberOfBytes": "1568"
      },
      "t_array(t_uint256)50_storage": {
        "base": "t_uint256",
        "encoding": "inplace",
        "label": "uint256[50]",
        "numberOfBytes": "1600"
      },
      "t_bool": {
        "encoding": "inplace",
        "label": "bool",
        "numberOfBytes": "1"
      },
      "t_contract(IPolicyCore)34168": {
        "encoding": "inplace",
        "label": "contract IPolicyCore",
        "numberOfBytes": "20"
      },
      "t_contract(IPriceGetter)34192": {
        "encoding": "inplace",
        "label": "contract IPriceGetter",
        "numberOfBytes": "20"
      },
      "t_mapping(t_string_memory_ptr,t_struct(IDOPriceInfo)28924_storage)": {
        "encoding": "mapping",
        "key": "t_string_memory_ptr",
        "label": "mapping(string => struct IDOPriceGetter.IDOPriceInfo)",
        "numberOfBytes": "32",
        "value": "t_struct(IDOPriceInfo)28924_storage"
      },
      "t_string_memory_ptr": {
        "encoding": "bytes",
        "label": "string",
        "numberOfBytes": "32"
      },
      "t_struct(IDOPriceInfo)28924_storage": {
        "encoding": "inplace",
        "label": "struct IDOPriceGetter.IDOPriceInfo",
        "members": [
          {
            "astId": 28907,
            "contract": "contracts/naughty-price/IDOPriceGetter.sol:IDOPriceGetter",
            "label": "pair",
            "offset": 0,
            "slot": "0",
            "type": "t_address"
          },
          {
            "astId": 28909,
            "contract": "contracts/naughty-price/IDOPriceGetter.sol:IDOPriceGetter",
            "label": "decimals",
            "offset": 0,
            "slot": "1",
            "type": "t_uint256"
          },
          {
            "astId": 28911,
            "contract": "contracts/naughty-price/IDOPriceGetter.sol:IDOPriceGetter",
            "label": "sampleInterval",
            "offset": 0,
            "slot": "2",
            "type": "t_uint256"
          },
          {
            "astId": 28913,
            "contract": "contracts/naughty-price/IDOPriceGetter.sol:IDOPriceGetter",
            "label": "isToken0",
            "offset": 0,
            "slot": "3",
            "type": "t_uint256"
          },
          {
            "astId": 28915,
            "contract": "contracts/naughty-price/IDOPriceGetter.sol:IDOPriceGetter",
            "label": "priceAverage",
            "offset": 0,
            "slot": "4",
            "type": "t_uint256"
          },
          {
            "astId": 28917,
            "contract": "contracts/naughty-price/IDOPriceGetter.sol:IDOPriceGetter",
            "label": "priceCumulativeLast",
            "offset": 0,
            "slot": "5",
            "type": "t_uint256"
          },
          {
            "astId": 28919,
            "contract": "contracts/naughty-price/IDOPriceGetter.sol:IDOPriceGetter",
            "label": "lastTimestamp",
            "offset": 0,
            "slot": "6",
            "type": "t_uint256"
          },
          {
            "astId": 28921,
            "contract": "contracts/naughty-price/IDOPriceGetter.sol:IDOPriceGetter",
            "label": "startTime",
            "offset": 0,
            "slot": "7",
            "type": "t_uint256"
          },
          {
            "astId": 28923,
            "contract": "contracts/naughty-price/IDOPriceGetter.sol:IDOPriceGetter",
            "label": "endTime",
            "offset": 0,
            "slot": "8",
            "type": "t_uint256"
          }
        ],
        "numberOfBytes": "288"
      },
      "t_uint256": {
        "encoding": "inplace",
        "label": "uint256",
        "numberOfBytes": "32"
      }
    }
  }
}