{
  "address": "0x68d8F4fEF5fC1Fac609E40E9Fc998e60db62C810",
  "abi": [
    {
      "inputs": [],
      "name": "ILM__NoDeposit",
      "type": "error"
    },
    {
      "inputs": [],
      "name": "ILM__NotActiveILM",
      "type": "error"
    },
    {
      "inputs": [],
      "name": "ILM__NotEnoughDeposit",
      "type": "error"
    },
    {
      "inputs": [],
      "name": "ILM__PairNotActive",
      "type": "error"
    },
    {
      "inputs": [],
      "name": "ILM__RoundNotOver",
      "type": "error"
    },
    {
      "inputs": [],
      "name": "ILM__RoundOver",
      "type": "error"
    },
    {
      "inputs": [],
      "name": "ILM__StablecoinNotPaired",
      "type": "error"
    },
    {
      "inputs": [],
      "name": "ILM__StablecoinNotSupport",
      "type": "error"
    },
    {
      "inputs": [],
      "name": "ILM__WrongILMDeadline",
      "type": "error"
    },
    {
      "inputs": [],
      "name": "ILM__ZeroAddress",
      "type": "error"
    },
    {
      "inputs": [],
      "name": "ILM__ZeroAmount",
      "type": "error"
    },
    {
      "anonymous": false,
      "inputs": [
        {
          "indexed": false,
          "internalType": "address",
          "name": "user",
          "type": "address"
        },
        {
          "indexed": false,
          "internalType": "uint256",
          "name": "amountA",
          "type": "uint256"
        },
        {
          "indexed": false,
          "internalType": "uint256",
          "name": "amountB",
          "type": "uint256"
        }
      ],
      "name": "Claim",
      "type": "event"
    },
    {
      "anonymous": false,
      "inputs": [
        {
          "indexed": true,
          "internalType": "address",
          "name": "policyToken",
          "type": "address"
        },
        {
          "indexed": true,
          "internalType": "address",
          "name": "stablecoin",
          "type": "address"
        },
        {
          "indexed": false,
          "internalType": "uint256",
          "name": "amountA",
          "type": "uint256"
        },
        {
          "indexed": false,
          "internalType": "uint256",
          "name": "amountB",
          "type": "uint256"
        }
      ],
      "name": "Deposit",
      "type": "event"
    },
    {
      "anonymous": false,
      "inputs": [
        {
          "indexed": false,
          "internalType": "address",
          "name": "owner",
          "type": "address"
        },
        {
          "indexed": false,
          "internalType": "uint256",
          "name": "amount",
          "type": "uint256"
        }
      ],
      "name": "EmergencyWithdraw",
      "type": "event"
    },
    {
      "anonymous": false,
      "inputs": [
        {
          "indexed": false,
          "internalType": "address",
          "name": "user",
          "type": "address"
        },
        {
          "indexed": false,
          "internalType": "uint256",
          "name": "reward",
          "type": "uint256"
        }
      ],
      "name": "Harvest",
      "type": "event"
    },
    {
      "anonymous": false,
      "inputs": [
        {
          "indexed": false,
          "internalType": "address",
          "name": "policyToken",
          "type": "address"
        },
        {
          "indexed": false,
          "internalType": "address",
          "name": "stablecoin",
          "type": "address"
        },
        {
          "indexed": false,
          "internalType": "address",
          "name": "poolAddress",
          "type": "address"
        },
        {
          "indexed": false,
          "internalType": "uint256",
          "name": "amountA",
          "type": "uint256"
        },
        {
          "indexed": false,
          "internalType": "uint256",
          "name": "amountB",
          "type": "uint256"
        }
      ],
      "name": "ILMFinish",
      "type": "event"
    },
    {
      "anonymous": false,
      "inputs": [
        {
          "indexed": false,
          "internalType": "address",
          "name": "policyToken",
          "type": "address"
        },
        {
          "indexed": false,
          "internalType": "address",
          "name": "stablecoin",
          "type": "address"
        },
        {
          "indexed": false,
          "internalType": "uint256",
          "name": "deadline",
          "type": "uint256"
        },
        {
          "indexed": false,
          "internalType": "address",
          "name": "lptokenAddress",
          "type": "address"
        }
      ],
      "name": "ILMStart",
      "type": "event"
    },
    {
      "anonymous": false,
      "inputs": [
        {
          "indexed": true,
          "internalType": "address",
          "name": "previousOwner",
          "type": "address"
        },
        {
          "indexed": true,
          "internalType": "address",
          "name": "newOwner",
          "type": "address"
        }
      ],
      "name": "OwnershipTransferred",
      "type": "event"
    },
    {
      "anonymous": false,
      "inputs": [
        {
          "indexed": true,
          "internalType": "address",
          "name": "policyToken",
          "type": "address"
        },
        {
          "indexed": true,
          "internalType": "address",
          "name": "stablecoin",
          "type": "address"
        },
        {
          "indexed": true,
          "internalType": "address",
          "name": "user",
          "type": "address"
        },
        {
          "indexed": false,
          "internalType": "uint256",
          "name": "amountA",
          "type": "uint256"
        },
        {
          "indexed": false,
          "internalType": "uint256",
          "name": "amountB",
          "type": "uint256"
        }
      ],
      "name": "Withdraw",
      "type": "event"
    },
    {
      "inputs": [],
      "name": "FEE_DENOMINATOR",
      "outputs": [
        {
          "internalType": "uint256",
          "name": "",
          "type": "uint256"
        }
      ],
      "stateMutability": "view",
      "type": "function"
    },
    {
      "inputs": [],
      "name": "MAX_UINT256",
      "outputs": [
        {
          "internalType": "uint256",
          "name": "",
          "type": "uint256"
        }
      ],
      "stateMutability": "view",
      "type": "function"
    },
    {
      "inputs": [],
      "name": "MINIMUM_AMOUNT",
      "outputs": [
        {
          "internalType": "uint256",
          "name": "",
          "type": "uint256"
        }
      ],
      "stateMutability": "view",
      "type": "function"
    },
    {
      "inputs": [],
      "name": "SCALE",
      "outputs": [
        {
          "internalType": "uint256",
          "name": "",
          "type": "uint256"
        }
      ],
      "stateMutability": "view",
      "type": "function"
    },
    {
      "inputs": [
        {
          "internalType": "address",
          "name": "_stablecoin",
          "type": "address"
        }
      ],
      "name": "approveStablecoin",
      "outputs": [],
      "stateMutability": "nonpayable",
      "type": "function"
    },
    {
      "inputs": [
        {
          "internalType": "address",
          "name": "_policyToken",
          "type": "address"
        },
        {
          "internalType": "address",
          "name": "_stablecoin",
          "type": "address"
        },
        {
          "internalType": "uint256",
          "name": "_amountAMin",
          "type": "uint256"
        },
        {
          "internalType": "uint256",
          "name": "_amountBMin",
          "type": "uint256"
        }
      ],
      "name": "claim",
      "outputs": [],
      "stateMutability": "nonpayable",
      "type": "function"
    },
    {
      "inputs": [],
      "name": "degis",
      "outputs": [
        {
          "internalType": "address",
          "name": "",
          "type": "address"
        }
      ],
      "stateMutability": "view",
      "type": "function"
    },
    {
      "inputs": [
        {
          "internalType": "address",
          "name": "_policyToken",
          "type": "address"
        },
        {
          "internalType": "address",
          "name": "_stablecoin",
          "type": "address"
        },
        {
          "internalType": "uint256",
          "name": "_amountA",
          "type": "uint256"
        },
        {
          "internalType": "uint256",
          "name": "_amountB",
          "type": "uint256"
        }
      ],
      "name": "deposit",
      "outputs": [],
      "stateMutability": "nonpayable",
      "type": "function"
    },
    {
      "inputs": [],
      "name": "emergencyPool",
      "outputs": [
        {
          "internalType": "address",
          "name": "",
          "type": "address"
        }
      ],
      "stateMutability": "view",
      "type": "function"
    },
    {
      "inputs": [
        {
          "internalType": "address",
          "name": "_policyToken",
          "type": "address"
        }
      ],
      "name": "emergencyRestart",
      "outputs": [],
      "stateMutability": "nonpayable",
      "type": "function"
    },
    {
      "inputs": [
        {
          "internalType": "address",
          "name": "_policyToken",
          "type": "address"
        }
      ],
      "name": "emergencyStop",
      "outputs": [],
      "stateMutability": "nonpayable",
      "type": "function"
    },
    {
      "inputs": [
        {
          "internalType": "address",
          "name": "_token",
          "type": "address"
        },
        {
          "internalType": "uint256",
          "name": "_amount",
          "type": "uint256"
        }
      ],
      "name": "emergencyWithdraw",
      "outputs": [],
      "stateMutability": "nonpayable",
      "type": "function"
    },
    {
      "inputs": [
        {
          "internalType": "address",
          "name": "_policyToken",
          "type": "address"
        },
        {
          "internalType": "uint256",
          "name": "_deadlineForSwap",
          "type": "uint256"
        },
        {
          "internalType": "uint256",
          "name": "_feeRate",
          "type": "uint256"
        }
      ],
      "name": "finishILM",
      "outputs": [],
      "stateMutability": "nonpayable",
      "type": "function"
    },
    {
      "inputs": [
        {
          "internalType": "address",
          "name": "_policyToken",
          "type": "address"
        }
      ],
      "name": "getPairTotalAmount",
      "outputs": [
        {
          "internalType": "uint256",
          "name": "totalAmount",
          "type": "uint256"
        }
      ],
      "stateMutability": "view",
      "type": "function"
    },
    {
      "inputs": [
        {
          "internalType": "address",
          "name": "_policyToken",
          "type": "address"
        }
      ],
      "name": "getPrice",
      "outputs": [
        {
          "internalType": "uint256",
          "name": "",
          "type": "uint256"
        }
      ],
      "stateMutability": "view",
      "type": "function"
    },
    {
      "inputs": [
        {
          "internalType": "address",
          "name": "_user",
          "type": "address"
        },
        {
          "internalType": "address",
          "name": "_policyToken",
          "type": "address"
        }
      ],
      "name": "getUserDeposit",
      "outputs": [
        {
          "internalType": "uint256",
          "name": "amountA",
          "type": "uint256"
        },
        {
          "internalType": "uint256",
          "name": "amountB",
          "type": "uint256"
        }
      ],
      "stateMutability": "view",
      "type": "function"
    },
    {
      "inputs": [
        {
          "internalType": "address",
          "name": "_degis",
          "type": "address"
        },
        {
          "internalType": "address",
          "name": "_policyCore",
          "type": "address"
        },
        {
          "internalType": "address",
          "name": "_router",
          "type": "address"
        },
        {
          "internalType": "address",
          "name": "_emergencyPool",
          "type": "address"
        }
      ],
      "name": "initialize",
      "outputs": [],
      "stateMutability": "nonpayable",
      "type": "function"
    },
    {
      "inputs": [],
      "name": "owner",
      "outputs": [
        {
          "internalType": "address",
          "name": "",
          "type": "address"
        }
      ],
      "stateMutability": "view",
      "type": "function"
    },
    {
      "inputs": [
        {
          "internalType": "address",
          "name": "",
          "type": "address"
        }
      ],
      "name": "pairs",
      "outputs": [
        {
          "internalType": "enum NaughtyPriceILM.Status",
          "name": "status",
          "type": "uint8"
        },
        {
          "internalType": "address",
          "name": "lptoken",
          "type": "address"
        },
        {
          "internalType": "uint256",
          "name": "ILMDeadline",
          "type": "uint256"
        },
        {
          "internalType": "address",
          "name": "stablecoin",
          "type": "address"
        },
        {
          "internalType": "uint256",
          "name": "amountA",
          "type": "uint256"
        },
        {
          "internalType": "uint256",
          "name": "amountB",
          "type": "uint256"
        },
        {
          "internalType": "address",
          "name": "naughtyPairAddress",
          "type": "address"
        },
        {
          "internalType": "uint256",
          "name": "degisAmount",
          "type": "uint256"
        },
        {
          "internalType": "uint256",
          "name": "accDegisPerShare",
          "type": "uint256"
        }
      ],
      "stateMutability": "view",
      "type": "function"
    },
    {
      "inputs": [],
      "name": "policyCore",
      "outputs": [
        {
          "internalType": "address",
          "name": "",
          "type": "address"
        }
      ],
      "stateMutability": "view",
      "type": "function"
    },
    {
      "inputs": [],
      "name": "renounceOwnership",
      "outputs": [],
      "stateMutability": "nonpayable",
      "type": "function"
    },
    {
      "inputs": [],
      "name": "router",
      "outputs": [
        {
          "internalType": "address",
          "name": "",
          "type": "address"
        }
      ],
      "stateMutability": "view",
      "type": "function"
    },
    {
      "inputs": [
        {
          "internalType": "address",
          "name": "_policyToken",
          "type": "address"
        },
        {
          "internalType": "address",
          "name": "_stablecoin",
          "type": "address"
        },
        {
          "internalType": "uint256",
          "name": "_ILMDeadline",
          "type": "uint256"
        }
      ],
      "name": "startILM",
      "outputs": [],
      "stateMutability": "nonpayable",
      "type": "function"
    },
    {
      "inputs": [
        {
          "internalType": "address",
          "name": "newOwner",
          "type": "address"
        }
      ],
      "name": "transferOwnership",
      "outputs": [],
      "stateMutability": "nonpayable",
      "type": "function"
    },
    {
      "inputs": [
        {
          "internalType": "address",
          "name": "",
          "type": "address"
        },
        {
          "internalType": "address",
          "name": "",
          "type": "address"
        }
      ],
      "name": "users",
      "outputs": [
        {
          "internalType": "uint256",
          "name": "amountA",
          "type": "uint256"
        },
        {
          "internalType": "uint256",
          "name": "amountB",
          "type": "uint256"
        },
        {
          "internalType": "uint256",
          "name": "degisDebt",
          "type": "uint256"
        }
      ],
      "stateMutability": "view",
      "type": "function"
    },
    {
      "inputs": [
        {
          "internalType": "address",
          "name": "_policyToken",
          "type": "address"
        },
        {
          "internalType": "address",
          "name": "_stablecoin",
          "type": "address"
        },
        {
          "internalType": "uint256",
          "name": "_amountA",
          "type": "uint256"
        },
        {
          "internalType": "uint256",
          "name": "_amountB",
          "type": "uint256"
        }
      ],
      "name": "withdraw",
      "outputs": [],
      "stateMutability": "nonpayable",
      "type": "function"
    },
    {
      "inputs": [
        {
          "internalType": "address",
          "name": "_policyToken",
          "type": "address"
        },
        {
          "internalType": "address",
          "name": "_stablecoin",
          "type": "address"
        }
      ],
      "name": "withdrawAll",
      "outputs": [],
      "stateMutability": "nonpayable",
      "type": "function"
    }
  ],
  "transactionHash": "0xc5e6ba5ea4680e6fe0fbdf251cbeec6d3a326a0bd36ef25300eb652af48f8992",
  "args": [],
  "numDeployments": 1,
  "solcInputHash": "dac4e5fe3f0ddff2793c693a8a6aab18",
  "bytecode": "0x608060405234801561001057600080fd5b50614598806100206000396000f3fe60806040523480156200001157600080fd5b5060043610620001dd5760003560e01c80636632a96d116200010d578063d73792a911620000a3578063f2fde38b116200007a578063f2fde38b1462000444578063f887ea40146200045b578063f8c8765e146200046f578063fe33b302146200048657600080fd5b8063d73792a9146200041a578063e30145e01462000423578063eced5526146200043757600080fd5b80638da5cb5b11620000e45780638da5cb5b14620003c657806395ccea6714620003d8578063a27cd0e814620003ef578063a59b3645146200040657600080fd5b80636632a96d146200038e578063715018a614620003a55780637bfe950c14620003af57600080fd5b806326af4832116200018357806341976e09116200015a57806341976e0914620002fb5780634a72185114620003125780634f54cf8f14620003295780635e80536a146200034057600080fd5b806326af483214620002b757806329fd200714620002ce57806333a581d214620002f157600080fd5b806320e8c56511620001b857806320e8c565146200026f57806323d7bcb31462000286578063257d9bb814620002ac57600080fd5b806309cae2c814620001e2578063148c658c14620001fb57806315dd337d1462000258575b600080fd5b620001f9620001f3366004620024c9565b62000504565b005b6200023f6200020c366004620024c9565b6001600160a01b039182166000908152606960209081526040808320939094168252919091522080546001909101549091565b6040516200024f92919062002514565b60405180910390f35b620001f96200026936600462002547565b62000543565b620001f9620002803660046200259f565b6200091f565b6200029d620002973660046200260d565b62000cb7565b6040516200024f919062002632565b6200029d620f424081565b620001f9620002c83660046200259f565b62000cec565b606554620002e2906001600160a01b031681565b6040516200024f91906200264d565b6200029d60001981565b6200029d6200030c3660046200260d565b62001197565b620001f9620003233660046200260d565b620011e0565b620001f96200033a3660046200265d565b6200123a565b6200037d62000351366004620024c9565b606960209081526000928352604080842090915290825290208054600182015460029092015490919083565b6040516200024f9392919062002698565b620001f96200039f3660046200260d565b620016a3565b620001f9620016fb565b620001f9620003c03660046200259f565b62001736565b6033546001600160a01b0316620002e2565b620001f9620003e9366004620026c6565b62001ad5565b620001f9620004003660046200260d565b62001b4f565b606854620002e2906001600160a01b031681565b6200029d606481565b606654620002e2906001600160a01b031681565b6200029d64e8d4a5100081565b620001f9620004553660046200260d565b62001c50565b606754620002e2906001600160a01b031681565b620001f962000480366004620026ff565b62001cb4565b620004ed620004973660046200260d565b606a602052600090815260409020805460018201546002830154600384015460048501546005860154600687015460079097015460ff8716976101009097046001600160a01b0390811697958116959216919089565b6040516200024f99989796959493929190620027b3565b3360009081526069602090815260408083206001600160a01b0386168452909152902080546001909101546200053d8484848462001736565b50505050565b6033546001600160a01b03163314620005795760405162461bcd60e51b815260040162000570906200287d565b60405180910390fd5b606654604051631c040ef160e11b81526000916001600160a01b0316906338081de290620005ac9087906004016200264d565b600060405180830381865afa158015620005ca573d6000803e3d6000fd5b505050506040513d6000823e601f3d908101601f19168201604052620005f49190810190620029b5565b6066546040517f5cb3b14f0000000000000000000000000000000000000000000000000000000081529192506000916001600160a01b0390911690635cb3b14f90620006459087906004016200264d565b602060405180830381865afa15801562000663573d6000803e3d6000fd5b505050506040513d601f19601f8201168201806040525081019062000689919062002a0c565b905080620006c3576040517fcd3966a800000000000000000000000000000000000000000000000000000000815260040160405180910390fd5b6066546040517fd9e85c840000000000000000000000000000000000000000000000000000000081526000916001600160a01b03169063d9e85c84906200070f90869060040162002a66565b60e060405180830381865afa1580156200072d573d6000803e3d6000fd5b505050506040513d601f19601f8201168201806040525081019062000753919062002b48565b60a00151905080841062000793576040517f7b884d0e00000000000000000000000000000000000000000000000000000000815260040160405180910390fd5b6001600160a01b0386166000908152606a602052604090208054600190829060ff19168280021790555060028101805473ffffffffffffffffffffffffffffffffffffffff19166001600160a01b038816179055600181018590556040516000906200080490869060200162002b92565b60405160208183030381529060405290506000620008228262001de8565b83546001600160a01b03808316610100027fffffffffffffffffffffff0000000000000000000000000000000000000000ff90921691909117855560675460405163095ea7b360e01b81529293508b82169263095ea7b3926200088e9216906000199060040162002bc4565b6020604051808303816000875af1158015620008ae573d6000803e3d6000fd5b505050506040513d601f19601f82011682018060405250810190620008d4919062002a0c565b507f6ea6ad3ca002ab8f03809d36e8eaadb449ac327b72310b4727feaaa2191debd0898989846040516200090c949392919062002bd4565b60405180910390a1505050505050505050565b8360016001600160a01b0382166000908152606a602052604090205460ff16600381111562000952576200095262002761565b146200097157604051631667fd6360e31b815260040160405180910390fd5b620f424062000981838562002c30565b1015620009ba576040517f120ed7c100000000000000000000000000000000000000000000000000000000815260040160405180910390fd5b6001600160a01b038086166000908152606a602052604090206002015485821691161462000a14576040517fe93fc48e00000000000000000000000000000000000000000000000000000000815260040160405180910390fd5b600062000a22838562002c30565b90506000856001600160a01b031663313ce5676040518163ffffffff1660e01b8152600401602060405180830381865afa15801562000a65573d6000803e3d6000fd5b505050506040513d601f19601f8201168201806040525081019062000a8b919062002c62565b62000a9890601262002c87565b60ff1690506000606462000aae83600a62002dda565b62000aba908562002deb565b62000ac6919062002e23565b905062000ad68884838562001e2f565b6001600160a01b0388166000818152606a60209081526040808320338452606983528184209484529390915281206006830180549192859262000b1b90849062002c30565b909155505060655462000b3a906001600160a01b031633308662001ff0565b8782600301600082825462000b50919062002c30565b925050819055508682600401600082825462000b6d919062002c30565b909155505080548890829060009062000b8890849062002c30565b925050819055508681600101600082825462000ba5919062002c30565b9091555062000bc290506001600160a01b038a1633308862001ff0565b6001600160a01b03808b166000908152606a6020526040908190205490517f40c10f190000000000000000000000000000000000000000000000000000000081526101009091049091169081906340c10f199062000c279033908a9060040162002bc4565b600060405180830381600087803b15801562000c4257600080fd5b505af115801562000c57573d6000803e3d6000fd5b50505050896001600160a01b03168b6001600160a01b03167fdcbc1c05240f31ff3ad067ef1ee35ce4997762752e3a095284754544f4c709d78b8b60405162000ca292919062002514565b60405180910390a35050505050505050505050565b6001600160a01b0381166000908152606a60205260408120600481015460039091015462000ce6919062002c30565b92915050565b3360009081526069602090815260408083206001600160a01b03881684528252918290208251606081018452815480825260018301549382018490526002909201549381019390935262000d41919062002c30565b60000362000d62576040516343f6c61d60e01b815260040160405180910390fd5b6001600160a01b038086166000908152606a60205260408082206005810154905491516370a0823160e01b815290841693610100909204909116919083906370a082319062000db69030906004016200264d565b602060405180830381865afa15801562000dd4573d6000803e3d6000fd5b505050506040513d601f19601f8201168201806040525081019062000dfa919062002e3a565b90506000826001600160a01b03166318160ddd6040518163ffffffff1660e01b8152600401602060405180830381865afa15801562000e3d573d6000803e3d6000fd5b505050506040513d601f19601f8201168201806040525081019062000e63919062002e3a565b6040516370a0823160e01b815283906001600160a01b038616906370a082319062000e939033906004016200264d565b602060405180830381865afa15801562000eb1573d6000803e3d6000fd5b505050506040513d601f19601f8201168201806040525081019062000ed7919062002e3a565b62000ee3919062002deb565b62000eef919062002e23565b905062000efc8962002079565b60675460009081906001600160a01b031663baa2abde8c8c868d8d3362000f2542603c62002c30565b6040518863ffffffff1660e01b815260040162000f49979695949392919062002e5f565b60408051808303816000875af115801562000f68573d6000803e3d6000fd5b505050506040513d601f19601f8201168201806040525081019062000f8e919062002ed5565b6066546040517fe01f8e4b0000000000000000000000000000000000000000000000000000000081529294509092506001600160a01b03169063e01f8e4b9062000fe19033908e90879060040162002f0e565b600060405180830381600087803b15801562000ffc57600080fd5b505af115801562001011573d6000803e3d6000fd5b5050505060696000336001600160a01b03166001600160a01b0316815260200190815260200160002060008c6001600160a01b03166001600160a01b03168152602001908152602001600020600080820160009055600182016000905560028201600090555050846001600160a01b0316639dc29fac33876001600160a01b03166370a08231336040518263ffffffff1660e01b8152600401620010b691906200264d565b602060405180830381865afa158015620010d4573d6000803e3d6000fd5b505050506040513d601f19601f82011682018060405250810190620010fa919062002e3a565b6040518363ffffffff1660e01b81526004016200111992919062002bc4565b600060405180830381600087803b1580156200113457600080fd5b505af115801562001149573d6000803e3d6000fd5b505050507f34fcbac0073d7c3d388e51312faf357774904998eeb8fca628b9e6f65ee1cbf7338383604051620011829392919062002f2d565b60405180910390a15050505050505050505050565b6001600160a01b0381166000908152606a60205260408120600381015460049091015480620011cc64e8d4a510008462002deb565b620011d8919062002e23565b949350505050565b6033546001600160a01b031633146200120d5760405162461bcd60e51b815260040162000570906200287d565b6001600160a01b0381166000908152606a6020526040902080546001919060ff191682805b021790555050565b8260016001600160a01b0382166000908152606a602052604090205460ff1660038111156200126d576200126d62002761565b146200128c57604051631667fd6360e31b815260040160405180910390fd5b6001600160a01b0384166000908152606a6020526040808220815161012081019092528054829060ff166003811115620012ca57620012ca62002761565b6003811115620012de57620012de62002761565b815281546001600160a01b036101009182900481166020840152600184015460408085019190915260028501548216606085015260038501546080850152600485015460a0850152600585015490911660c0840152600684015460e0840152600790930154910152810151909150421162001385576040517fe95501d800000000000000000000000000000000000000000000000000000000815260040160405180910390fd5b8060a0015181608001516200139b919062002c30565b600003620013bc576040516309899a2960e01b815260040160405180910390fd5b6001600160a01b038581166000908152606a6020526040808220805460ff191660021790556066549051631c040ef160e11b8152919216906338081de2906200140a9089906004016200264d565b600060405180830381865afa15801562001428573d6000803e3d6000fd5b505050506040513d6000823e601f3d908101601f19168201604052620014529190810190620029b5565b60665460608401516040517fbb9febaf0000000000000000000000000000000000000000000000000000000081529293506000926001600160a01b039092169163bb9febaf91620014ad918691908b908b9060040162002f3d565b6020604051808303816000875af1158015620014cd573d6000803e3d6000fd5b505050506040513d601f19601f82011682018060405250810190620014f3919062002f7f565b6001600160a01b038881166000908152606a602052604090819020600501805473ffffffffffffffffffffffffffffffffffffffff1916848416908117909155606754915163095ea7b360e01b81529394509263095ea7b392620015609216906000199060040162002bc4565b6020604051808303816000875af115801562001580573d6000803e3d6000fd5b505050506040513d601f19601f82011682018060405250810190620015a6919062002a0c565b506067546060840151608085015160a08601516001600160a01b0390931692632d2cac24928b929091818130620015df42603c62002c30565b6040518963ffffffff1660e01b81526004016200160498979695949392919062002fa4565b6060604051808303816000875af115801562001624573d6000803e3d6000fd5b505050506040513d601f19601f820116820180604052508101906200164a91906200302b565b5050507febfc813979aeb299817f3ac454ec6a4b9627229ae579f3203c040f8bc463bdab8784606001518386608001518760a001516040516200169295949392919062003079565b60405180910390a150505050505050565b6033546001600160a01b03163314620016d05760405162461bcd60e51b815260040162000570906200287d565b6001600160a01b0381166000908152606a6020526040902080546003919060ff191660018362001232565b6033546001600160a01b03163314620017285760405162461bcd60e51b815260040162000570906200287d565b62001734600062002155565b565b8360016001600160a01b0382166000908152606a602052604090205460ff16600381111562001769576200176962002761565b146200178857604051631667fd6360e31b815260040160405180910390fd5b3360009081526069602090815260408083206001600160a01b038916845282529182902082516060810184528154808252600183015493820184905260029092015493810193909352620017dd919062002c30565b600003620017fe576040516309899a2960e01b815260040160405180910390fd5b8051841180620018115750806020015183115b1562001830576040516343f6c61d60e01b815260040160405180910390fd5b6001600160a01b0386166000818152606a6020908152604080832033845260698352818420948452938252808320908501519185015185519193929164e8d4a51000916200187e9162002c30565b85600701546200188f919062002deb565b6200189b919062002e23565b620018a79190620030cf565b905080156200191e57606554606854600091620018d2916001600160a01b03918216911684620021b4565b6068546040519192507fc9695243a805adb74c91f28311176c65b417e842d5699893cef56d18bfa48cba9162001914916001600160a01b031690849062002bc4565b60405180910390a1505b86836003016000828254620019349190620030cf565b9250508190555085836004016000828254620019519190620030cf565b90915550508154879083906000906200196c908490620030cf565b9250508190555085826001016000828254620019899190620030cf565b90915550600090506200199d878962002c30565b9050620019ac893383620021b4565b5083546040517f9dc29fac0000000000000000000000000000000000000000000000000000000081526101009091046001600160a01b031690639dc29fac90620019fd903390859060040162002bc4565b600060405180830381600087803b15801562001a1857600080fd5b505af115801562001a2d573d6000803e3d6000fd5b50505060078501546001850154855464e8d4a51000935062001a50919062002c30565b62001a5c919062002deb565b62001a68919062002e23565b8360020181905550336001600160a01b0316896001600160a01b03168b6001600160a01b03167ffbde797d201c681b91056529119e0b02407c7bb96a4a2c75c01fc9667232c8db8b8b60405162001ac192919062002514565b60405180910390a450505050505050505050565b62001afe62001aec6033546001600160a01b031690565b6001600160a01b038416908362002274565b7f5fafa99d0643513820be26656b45130b01e1c03062e1266bf36f88cbd3bd969562001b326033546001600160a01b031690565b8260405162001b4392919062002bc4565b60405180910390a15050565b60675460405163095ea7b360e01b81526001600160a01b038381169263095ea7b39262001b8792909116906000199060040162002bc4565b6020604051808303816000875af115801562001ba7573d6000803e3d6000fd5b505050506040513d601f19601f8201168201806040525081019062001bcd919062002a0c565b5060665460405163095ea7b360e01b81526001600160a01b038381169263095ea7b39262001c0692909116906000199060040162002bc4565b6020604051808303816000875af115801562001c26573d6000803e3d6000fd5b505050506040513d601f19601f8201168201806040525081019062001c4c919062002a0c565b5050565b6033546001600160a01b0316331462001c7d5760405162461bcd60e51b815260040162000570906200287d565b6001600160a01b03811662001ca65760405162461bcd60e51b8152600401620005709062003130565b62001cb18162002155565b50565b600054610100900460ff1662001cd15760005460ff161562001cd5565b303b155b62001cf45760405162461bcd60e51b815260040162000570906200319b565b600054610100900460ff1615801562001d17576000805461ffff19166101011790555b6001600160a01b038416158062001d3557506001600160a01b038316155b1562001d6d576040517fff056daf00000000000000000000000000000000000000000000000000000000815260040160405180910390fd5b62001d776200229b565b606580546001600160a01b0380881673ffffffffffffffffffffffffffffffffffffffff199283161790925560668054878416908316179055606780548684169083161790556068805492851692909116919091179055801562001de1576000805461ff00191690555b5050505050565b60008030838460405162001dfc9062002485565b62001e0a93929190620031ad565b604051809103906000f08015801562001e27573d6000803e3d6000fd5b509392505050565b6001600160a01b0384166000908152606a60205260408120600681015490910362001e8c57606462001e6383600a62002dda565b62001e749064e8d4a5100062002deb565b62001e80919062002e23565b6007909101556200053d565b3360009081526069602090815260408083206001600160a01b038916845290915290206004820154600383015462001ec5919062002c30565b62001ed664e8d4a510008662002deb565b62001ee2919062002e23565b82600701600082825462001ef7919062002c30565b90915550506001810154815460009162001f119162002c30565b9050801562001fb0576000826002015464e8d4a5100085600701548462001f39919062002deb565b62001f45919062002e23565b62001f519190620030cf565b60655490915060009062001f70906001600160a01b03163384620021b4565b90507fc9695243a805adb74c91f28311176c65b417e842d5699893cef56d18bfa48cba338260405162001fa592919062002bc4565b60405180910390a150505b64e8d4a5100062001fc2878362002c30565b846007015462001fd3919062002deb565b62001fdf919062002e23565b826002018190555050505050505050565b6200053d846323b872dd60e01b858585604051602401620020149392919062002f0e565b60408051601f198184030181529190526020810180517bffffffffffffffffffffffffffffffffffffffffffffffffffffffff167fffffffff0000000000000000000000000000000000000000000000000000000090931692909217909152620022cf565b6001600160a01b0381166000818152606a6020908152604080832033845260698352818420948452939091528120600281015460078401546001830154835493949364e8d4a510009291620020ce9162002c30565b620020da919062002deb565b620020e6919062002e23565b620020f29190620030cf565b60655490915060009062002111906001600160a01b03163384620021b4565b90507fc9695243a805adb74c91f28311176c65b417e842d5699893cef56d18bfa48cba33826040516200214692919062002bc4565b60405180910390a15050505050565b603380546001600160a01b0383811673ffffffffffffffffffffffffffffffffffffffff19831681179093556040519116919082907f8be0079c531659141344cd1fd0a4f28419497f9722a3daafe3b4186f6b6457e090600090a35050565b600080846001600160a01b03166370a08231306040518263ffffffff1660e01b8152600401620021e591906200264d565b602060405180830381865afa15801562002203573d6000803e3d6000fd5b505050506040513d601f19601f8201168201806040525081019062002229919062002e3a565b90508083111562002252576200224a6001600160a01b038616858362002274565b90506200226d565b620022686001600160a01b038616858562002274565b829150505b9392505050565b620022968363a9059cbb60e01b84846040516024016200201492919062002bc4565b505050565b600054610100900460ff16620022c55760405162461bcd60e51b8152600401620005709062003240565b6200173462002366565b600062002326826040518060400160405280602081526020017f5361666545524332303a206c6f772d6c6576656c2063616c6c206661696c6564815250856001600160a01b03166200239b9092919063ffffffff16565b80519091501562002296578080602001905181019062002347919062002a0c565b620022965760405162461bcd60e51b81526004016200057090620032ab565b600054610100900460ff16620023905760405162461bcd60e51b8152600401620005709062003240565b620017343362002155565b6060620011d8848460008585843b620023c85760405162461bcd60e51b81526004016200057090620032f0565b600080866001600160a01b03168587604051620023e6919062003302565b60006040518083038185875af1925050503d806000811462002425576040519150601f19603f3d011682016040523d82523d6000602084013e6200242a565b606091505b50915091506200243c82828662002447565b979650505050505050565b60608315620024585750816200226d565b825115620024695782518084602001fd5b8160405162461bcd60e51b815260040162000570919062002a66565b611254806200330f83390190565b60006001600160a01b03821662000ce6565b620024b08162002493565b811462001cb157600080fd5b803562000ce681620024a5565b60008060408385031215620024e157620024e1600080fd5b6000620024ef8585620024bc565b92505060206200250285828601620024bc565b9150509250929050565b805b82525050565b604081016200252482856200250c565b6200226d60208301846200250c565b80620024b0565b803562000ce68162002533565b600080600060608486031215620025615762002561600080fd5b60006200256f8686620024bc565b93505060206200258286828701620024bc565b925050604062002595868287016200253a565b9150509250925092565b60008060008060808587031215620025ba57620025ba600080fd5b6000620025c88787620024bc565b9450506020620025db87828801620024bc565b9350506040620025ee878288016200253a565b925050606062002601878288016200253a565b91505092959194509250565b600060208284031215620026245762002624600080fd5b6000620011d88484620024bc565b6020810162000ce682846200250c565b6200250e8162002493565b6020810162000ce6828462002642565b600080600060608486031215620026775762002677600080fd5b6000620026858686620024bc565b935050602062002582868287016200253a565b60608101620026a882866200250c565b620026b760208301856200250c565b620011d860408301846200250c565b60008060408385031215620026de57620026de600080fd5b6000620026ec8585620024bc565b925050602062002502858286016200253a565b600080600080608085870312156200271a576200271a600080fd5b6000620027288787620024bc565b94505060206200273b87828801620024bc565b93505060406200274e87828801620024bc565b92505060606200260187828801620024bc565b634e487b7160e01b600052602160045260246000fd5b6004811062001cb15762001cb162002761565b80620027968162002777565b919050565b600062000ce6826200278a565b6200250e816200279b565b6101208101620027c4828c620027a8565b620027d3602083018b62002642565b620027e2604083018a6200250c565b620027f1606083018962002642565b6200280060808301886200250c565b6200280f60a08301876200250c565b6200281e60c083018662002642565b6200282d60e08301856200250c565b6200283d6101008301846200250c565b9a9950505050505050505050565b60208082527f4f776e61626c653a2063616c6c6572206973206e6f7420746865206f776e657291019081525b60200190565b6020808252810162000ce6816200284b565b634e487b7160e01b600052604160045260246000fd5b601f19601f830116810181811067ffffffffffffffff82111715620028ce57620028ce6200288f565b6040525050565b6000620028e160405190565b9050620027968282620028a5565b600067ffffffffffffffff8211156200290c576200290c6200288f565b601f19601f83011660200192915050565b60005b838110156200293a57818101518382015260200162002920565b838111156200053d5750506000910152565b6000620029636200295d84620028ef565b620028d5565b905082815260208101848484011115620029805762002980600080fd5b62001e278482856200291d565b600082601f830112620029a357620029a3600080fd5b8151620011d88482602086016200294c565b600060208284031215620029cc57620029cc600080fd5b815167ffffffffffffffff811115620029e857620029e8600080fd5b620011d8848285016200298d565b801515620024b0565b805162000ce681620029f6565b60006020828403121562002a235762002a23600080fd5b6000620011d88484620029ff565b600062002a3c825190565b80845260208401935062002a558185602086016200291d565b601f01601f19169290920192915050565b602080825281016200226d818462002a31565b805162000ce681620024a5565b805162000ce68162002533565b600060e0828403121562002aaa5762002aaa600080fd5b62002ab660e0620028d5565b9050600062002ac6848462002a79565b90820152602062002ada84848301620029ff565b90820152604062002aee8484830162002a86565b90820152606062002b028484830162002a86565b90820152608062002b168484830162002a86565b9082015260a062002b2a8484830162002a86565b9082015260c062002b3e8484830162002a86565b9082015292915050565b600060e0828403121562002b5f5762002b5f600080fd5b6000620011d8848462002a93565b600062002b78825190565b62002b888185602086016200291d565b9290920192915050565b7f494c4d2d00000000000000000000000000000000000000000000000000000000815260040162000ce6818362002b6d565b6040810162002524828562002642565b6080810162002be4828762002642565b62002bf3602083018662002642565b62002c0260408301856200250c565b62002c11606083018462002642565b95945050505050565b634e487b7160e01b600052601160045260246000fd5b6000821982111562002c465762002c4662002c1a565b500190565b60ff8116620024b0565b805162000ce68162002c4b565b60006020828403121562002c795762002c79600080fd5b6000620011d8848462002c55565b60ff9081169082165b915060008282101562002ca75762002ca762002c1a565b500390565b80825b600185111562002cf25780860481111562002cce5762002cce62002c1a565b600185161562002cdd57908102905b800262002cea8560011c90565b945062002caf565b94509492505050565b60008262002d0c575060016200226d565b8162002d1b575060006200226d565b816001811462002d34576002811462002d3f5762002d73565b60019150506200226d565b60ff84111562002d535762002d5362002c1a565b8360020a91508482111562002d6c5762002d6c62002c1a565b506200226d565b5060208310610133831016604e8410600b841016171562002dab575081810a8381111562002da55762002da562002c1a565b6200226d565b62002dba848484600162002cac565b9250905081840481111562002dd35762002dd362002c1a565b0292915050565b60006200226d600019848462002cfb565b600081600019048311821515161562002e085762002e0862002c1a565b500290565b634e487b7160e01b600052601260045260246000fd5b60008262002e355762002e3562002e0d565b500490565b60006020828403121562002e515762002e51600080fd5b6000620011d8848462002a86565b60e0810162002e6f828a62002642565b62002e7e602083018962002642565b62002e8d60408301886200250c565b62002e9c60608301876200250c565b62002eab60808301866200250c565b62002eba60a083018562002642565b62002ec960c08301846200250c565b98975050505050505050565b6000806040838503121562002eed5762002eed600080fd5b600062002efb858562002a86565b9250506020620025028582860162002a86565b6060810162002f1e828662002642565b620026b7602083018562002642565b60608101620026a8828662002642565b6080808252810162002f50818762002a31565b905062002f61602083018662002642565b62002f7060408301856200250c565b62002c1160608301846200250c565b60006020828403121562002f965762002f96600080fd5b6000620011d8848462002a79565b610100810162002fb5828b62002642565b62002fc4602083018a62002642565b62002fd360408301896200250c565b62002fe260608301886200250c565b62002ff160808301876200250c565b6200300060a08301866200250c565b6200300f60c083018562002642565b6200301e60e08301846200250c565b9998505050505050505050565b600080600060608486031215620030455762003045600080fd5b600062003053868662002a86565b9350506020620030668682870162002a86565b9250506040620025958682870162002a86565b60a0810162003089828862002642565b62003098602083018762002642565b620030a7604083018662002642565b620030b660608301856200250c565b620030c560808301846200250c565b9695505050505050565b8162002c90565b60268152602081017f4f776e61626c653a206e6577206f776e657220697320746865207a65726f206181527f6464726573730000000000000000000000000000000000000000000000000000602082015290505b60400190565b6020808252810162000ce681620030d6565b602e8152602081017f496e697469616c697a61626c653a20636f6e747261637420697320616c72656181527f647920696e697469616c697a6564000000000000000000000000000000000000602082015290506200312a565b6020808252810162000ce68162003142565b60608101620031bd828662002642565b8181036020830152620031d1818562002a31565b9050818103604083015262002c11818462002a31565b602b8152602081017f496e697469616c697a61626c653a20636f6e7472616374206973206e6f74206981527f6e697469616c697a696e67000000000000000000000000000000000000000000602082015290506200312a565b6020808252810162000ce681620031e7565b602a8152602081017f5361666545524332303a204552433230206f7065726174696f6e20646964206e81527f6f74207375636365656400000000000000000000000000000000000000000000602082015290506200312a565b6020808252810162000ce68162003252565b601d8152602081017f416464726573733a2063616c6c20746f206e6f6e2d636f6e74726163740000008152905062002877565b6020808252810162000ce681620032bd565b62000ce6818362002b6d56fe60806040523480156200001157600080fd5b5060405162001254380380620012548339810160408190526200003491620002ad565b8151829082906200004d90600390602085019062000090565b5080516200006390600490602084019062000090565b5050600580546001600160a01b0319166001600160a01b0395909516949094179093555062000387915050565b8280546200009e9062000357565b90600052602060002090601f016020900481019282620000c257600085556200010d565b82601f10620000dd57805160ff19168380011785556200010d565b828001600101855582156200010d579182015b828111156200010d578251825591602001919060010190620000f0565b506200011b9291506200011f565b5090565b5b808211156200011b576000815560010162000120565b60006001600160a01b0382165b92915050565b620001548162000136565b81146200016057600080fd5b50565b8051620001438162000149565b634e487b7160e01b600052604160045260246000fd5b601f19601f83011681016001600160401b0381118282101715620001ae57620001ae62000170565b6040525050565b6000620001c160405190565b9050620001cf828262000186565b919050565b60006001600160401b03821115620001f057620001f062000170565b601f19601f83011660200192915050565b60005b838110156200021e57818101518382015260200162000204565b838111156200022e576000848401525b50505050565b60006200024b6200024584620001d4565b620001b5565b905082815260208101848484011115620002685762000268600080fd5b6200027584828562000201565b509392505050565b600082601f830112620002935762000293600080fd5b8151620002a584826020860162000234565b949350505050565b600080600060608486031215620002c757620002c7600080fd5b6000620002d5868662000163565b602086015190945090506001600160401b03811115620002f857620002f8600080fd5b62000306868287016200027d565b604086015190935090506001600160401b03811115620003295762000329600080fd5b62000337868287016200027d565b9150509250925092565b634e487b7160e01b600052602260045260246000fd5b6002810460018216806200036c57607f821691505b60208210810362000381576200038162000341565b50919050565b610ebd80620003976000396000f3fe608060405234801561001057600080fd5b50600436106100ea5760003560e01c80636978531a1161008c5780639dc29fac116100665780639dc29fac146101d9578063a457c2d7146101ec578063a9059cbb146101ff578063dd62ed3e1461021257600080fd5b80636978531a1461018857806370a08231146101a857806395d89b41146101d157600080fd5b806323b872dd116100c857806323b872dd1461013e578063313ce56714610151578063395093511461016057806340c10f191461017357600080fd5b806306fdde03146100ef578063095ea7b31461010d57806318160ddd1461012d575b600080fd5b6100f761024b565b6040516101049190610831565b60405180910390f35b61012061011b36600461088d565b6102dd565b60405161010491906108d4565b6002545b60405161010491906108e8565b61012061014c3660046108f6565b6102f4565b6012604051610104919061094f565b61012061016e36600461088d565b610366565b61018661018136600461088d565b6103a2565b005b60055461019b906001600160a01b031681565b6040516101049190610966565b6101316101b6366004610974565b6001600160a01b031660009081526020819052604090205490565b6100f76103da565b6101866101e736600461088d565b6103e9565b6101206101fa36600461088d565b61041d565b61012061020d36600461088d565b610478565b61013161022036600461099d565b6001600160a01b03918216600090815260016020908152604080832093909416825291909152205490565b60606003805461025a906109e6565b80601f0160208091040260200160405190810160405280929190818152602001828054610286906109e6565b80156102d35780601f106102a8576101008083540402835291602001916102d3565b820191906000526020600020905b8154815290600101906020018083116102b657829003601f168201915b5050505050905090565b60006102ea338484610485565b5060015b92915050565b6000610301848484610539565b6001600160a01b03841660009081526001602090815260408083203384529091529020548281101561034e5760405162461bcd60e51b815260040161034590610a6c565b60405180910390fd5b61035b8533858403610485565b506001949350505050565b3360008181526001602090815260408083206001600160a01b038716845290915281205490916102ea91859061039d908690610a92565b610485565b6005546001600160a01b031633146103cc5760405162461bcd60e51b815260040161034590610ade565b6103d6828261064e565b5050565b60606004805461025a906109e6565b6005546001600160a01b031633146104135760405162461bcd60e51b815260040161034590610ade565b6103d68282610702565b3360009081526001602090815260408083206001600160a01b0386168452909152812054828110156104615760405162461bcd60e51b815260040161034590610b46565b61046e3385858403610485565b5060019392505050565b60006102ea338484610539565b6001600160a01b0383166104ab5760405162461bcd60e51b815260040161034590610bae565b6001600160a01b0382166104d15760405162461bcd60e51b815260040161034590610c16565b6001600160a01b0380841660008181526001602090815260408083209487168084529490915290819020849055517f8c5be1e5ebec7d5bd14f71427d1e84f3dd0314c0f7b2291e5b200ac8c7c3b9259061052c9085906108e8565b60405180910390a3505050565b6001600160a01b03831661055f5760405162461bcd60e51b815260040161034590610c7e565b6001600160a01b0382166105855760405162461bcd60e51b815260040161034590610ce6565b6001600160a01b038316600090815260208190526040902054818110156105be5760405162461bcd60e51b815260040161034590610d4e565b6001600160a01b038085166000908152602081905260408082208585039055918516815290812080548492906105f5908490610a92565b92505081905550826001600160a01b0316846001600160a01b03167fddf252ad1be2c89b69c2b068fc378daa952ba7f163c4a11628f55a4df523b3ef8460405161063f91906108e8565b60405180910390a35b50505050565b6001600160a01b0382166106745760405162461bcd60e51b815260040161034590610d90565b80600260008282546106869190610a92565b90915550506001600160a01b038216600090815260208190526040812080548392906106b3908490610a92565b90915550506040516001600160a01b038316906000907fddf252ad1be2c89b69c2b068fc378daa952ba7f163c4a11628f55a4df523b3ef906106f69085906108e8565b60405180910390a35050565b6001600160a01b0382166107285760405162461bcd60e51b815260040161034590610df8565b6001600160a01b038216600090815260208190526040902054818110156107615760405162461bcd60e51b815260040161034590610e60565b6001600160a01b0383166000908152602081905260408120838303905560028054849290610790908490610e70565b90915550506040516000906001600160a01b038516907fddf252ad1be2c89b69c2b068fc378daa952ba7f163c4a11628f55a4df523b3ef9061052c9086906108e8565b60005b838110156107ee5781810151838201526020016107d6565b838111156106485750506000910152565b6000610809825190565b8084526020840193506108208185602086016107d3565b601f01601f19169290920192915050565b6020808252810161084281846107ff565b9392505050565b60006001600160a01b0382166102ee565b61086381610849565b811461086e57600080fd5b50565b80356102ee8161085a565b80610863565b80356102ee8161087c565b600080604083850312156108a3576108a3600080fd5b60006108af8585610871565b92505060206108c085828601610882565b9150509250929050565b8015155b82525050565b602081016102ee82846108ca565b806108ce565b602081016102ee82846108e2565b60008060006060848603121561090e5761090e600080fd5b600061091a8686610871565b935050602061092b86828701610871565b925050604061093c86828701610882565b9150509250925092565b60ff81166108ce565b602081016102ee8284610946565b6108ce81610849565b602081016102ee828461095d565b60006020828403121561098957610989600080fd5b60006109958484610871565b949350505050565b600080604083850312156109b3576109b3600080fd5b60006109bf8585610871565b92505060206108c085828601610871565b634e487b7160e01b600052602260045260246000fd5b6002810460018216806109fa57607f821691505b602082108103610a0c57610a0c6109d0565b50919050565b60288152602081017f45524332303a207472616e7366657220616d6f756e742065786365656473206181527f6c6c6f77616e6365000000000000000000000000000000000000000000000000602082015290505b60400190565b602080825281016102ee81610a12565b634e487b7160e01b600052601160045260246000fd5b60008219821115610aa557610aa5610a7c565b500190565b60088152602081017f4f6e6c7920494c4d000000000000000000000000000000000000000000000000815290505b60200190565b602080825281016102ee81610aaa565b60258152602081017f45524332303a2064656372656173656420616c6c6f77616e63652062656c6f7781527f207a65726f00000000000000000000000000000000000000000000000000000060208201529050610a66565b602080825281016102ee81610aee565b60248152602081017f45524332303a20617070726f76652066726f6d20746865207a65726f2061646481527f726573730000000000000000000000000000000000000000000000000000000060208201529050610a66565b602080825281016102ee81610b56565b60228152602081017f45524332303a20617070726f766520746f20746865207a65726f20616464726581527f737300000000000000000000000000000000000000000000000000000000000060208201529050610a66565b602080825281016102ee81610bbe565b60258152602081017f45524332303a207472616e736665722066726f6d20746865207a65726f20616481527f647265737300000000000000000000000000000000000000000000000000000060208201529050610a66565b602080825281016102ee81610c26565b60238152602081017f45524332303a207472616e7366657220746f20746865207a65726f206164647281527f657373000000000000000000000000000000000000000000000000000000000060208201529050610a66565b602080825281016102ee81610c8e565b60268152602081017f45524332303a207472616e7366657220616d6f756e742065786365656473206281527f616c616e6365000000000000000000000000000000000000000000000000000060208201529050610a66565b602080825281016102ee81610cf6565b601f8152602081017f45524332303a206d696e7420746f20746865207a65726f20616464726573730081529050610ad8565b602080825281016102ee81610d5e565b60218152602081017f45524332303a206275726e2066726f6d20746865207a65726f2061646472657381527f730000000000000000000000000000000000000000000000000000000000000060208201529050610a66565b602080825281016102ee81610da0565b60228152602081017f45524332303a206275726e20616d6f756e7420657863656564732062616c616e81527f636500000000000000000000000000000000000000000000000000000000000060208201529050610a66565b602080825281016102ee81610e08565b600082821015610e8257610e82610a7c565b50039056fea264697066735822122071f5150dfe13d35997d89d889cff2c20e9a942db70e210c7b374e3dd6493704964736f6c634300080d0033a264697066735822122040d4359b01730b7676191fdd71010996750eaa448223d983b3d7276634748ed064736f6c634300080d0033",
  "devdoc": {
    "kind": "dev",
    "methods": {
      "approveStablecoin(address)": {
        "params": {
          "_stablecoin": "Stablecoin address"
        }
      },
      "claim(address,address,uint256,uint256)": {
        "params": {
          "_amountAMin": "Minimum amount of policy token (slippage)",
          "_amountBMin": "Minimum amount of stablecoin (slippage)",
          "_policyToken": "Policy token address",
          "_stablecoin": "Stablecoin address"
        }
      },
      "deposit(address,address,uint256,uint256)": {
        "details": "Deposit only check the pair status not the deadline      There may be a zero ILM and we still need to deposit some asset to make it start      Anyone wants to enter ILM need to pay some DEG as entrance fee      The ratio is 100:1(usd:deg) and your fee is distributed to the users prior to you",
        "params": {
          "_amountA": "Amount of policy token (virtual)",
          "_amountB": "Amount of stablecoin (virtual)",
          "_policyToken": "Policy token address",
          "_stablecoin": "Stablecoin address"
        }
      },
      "emergencyRestart(address)": {
        "params": {
          "_policyToken": "Policy token address to be restarted"
        }
      },
      "emergencyStop(address)": {
        "params": {
          "_policyToken": "Policy token address to be stopped"
        }
      },
      "emergencyWithdraw(address,uint256)": {
        "params": {
          "_amount": "Token amount",
          "_token": "Token address"
        }
      },
      "finishILM(address,uint256,uint256)": {
        "details": "The swap pool for the protection token will be deployed with inital liquidity\\      The amount of initial liquidity will be the total amount of the pair      Can be called by any address",
        "params": {
          "_deadlineForSwap": "Pool deadline",
          "_feeRate": "Fee rate of the swap pool",
          "_policyToken": "Policy token address"
        }
      },
      "getPairTotalAmount(address)": {
        "params": {
          "_policyToken": "Policy token address"
        },
        "returns": {
          "totalAmount": "Total amount of a pair"
        }
      },
      "getPrice(address)": {
        "details": "Price has a scale of 1e12",
        "params": {
          "_policyToken": "Policy token address"
        },
        "returns": {
          "_0": "price Price of the token pair"
        }
      },
      "getUserDeposit(address,address)": {
        "params": {
          "_policyToken": "Policy token address",
          "_user": "User address"
        }
      },
      "initialize(address,address,address,address)": {
        "details": "Called only when deploying proxy contract",
        "params": {
          "_degis": "Degis token address",
          "_emergencyPool": "EmergencyPool contract address",
          "_policyCore": "PolicyCore contract address",
          "_router": "NaughtyRouter contract address"
        }
      },
      "owner()": {
        "details": "Returns the address of the current owner."
      },
      "renounceOwnership()": {
        "details": "Leaves the contract without owner. It will not be possible to call `onlyOwner` functions anymore. Can only be called by the current owner. NOTE: Renouncing ownership will leave the contract without an owner, thereby removing any functionality that is only available to the owner."
      },
      "startILM(address,address,uint256)": {
        "details": "A new lp token will be deployed when starting a new ILM round      It will have a special farming reward pool",
        "params": {
          "_ILMDeadline": "Deadline of ILM period",
          "_policyToken": "Policy token address",
          "_stablecoin": "Stablecoin address"
        }
      },
      "transferOwnership(address)": {
        "details": "Transfers ownership of the contract to a new account (`newOwner`). Can only be called by the current owner."
      },
      "withdraw(address,address,uint256,uint256)": {
        "details": "Only checks the status not the deadline",
        "params": {
          "_amountA": "Amount of policy token (virtual)",
          "_amountB": "Amount of stablecoin (virtual)",
          "_policyToken": "Policy token address",
          "_stablecoin": "Stablecoin address"
        }
      },
      "withdrawAll(address,address)": {
        "params": {
          "_policyToken": "Policy token address",
          "_stablecoin": "Stablecoin address"
        }
      }
    },
    "title": "Naughty Price Initial Liquidity Matching",
    "version": 1
  },
  "userdoc": {
    "kind": "user",
    "methods": {
      "approveStablecoin(address)": {
        "notice": "Approve stablecoins for naughty price contracts"
      },
      "claim(address,address,uint256,uint256)": {
        "notice": "Claim liquidity back"
      },
      "deposit(address,address,uint256,uint256)": {
        "notice": "Deposit stablecoin and choose the price"
      },
      "emergencyRestart(address)": {
        "notice": "Emergency restart ILM"
      },
      "emergencyStop(address)": {
        "notice": "Emergency stop ILM"
      },
      "emergencyWithdraw(address,uint256)": {
        "notice": "Emergency withdraw a certain token"
      },
      "finishILM(address,uint256,uint256)": {
        "notice": "Finish a round of ILM"
      },
      "getPairTotalAmount(address)": {
        "notice": "Get the total amount of a pair"
      },
      "getPrice(address)": {
        "notice": "Get the current price"
      },
      "getUserDeposit(address,address)": {
        "notice": "Get the amount of user's deposit"
      },
      "initialize(address,address,address,address)": {
        "notice": "Initialze function for proxy"
      },
      "startILM(address,address,uint256)": {
        "notice": "Start a new ILM round"
      },
      "withdraw(address,address,uint256,uint256)": {
        "notice": "Withdraw stablecoins"
      },
      "withdrawAll(address,address)": {
        "notice": "Withdraw all stablecoins of a certain policy token"
      }
    },
    "notice": "Naughty Price timeline: 1 -- 14 -- 5         The first day of each round would be the time for liquidity matching         User           - Select the naughty token           - Provide stablecoins into this contract & Select your price choice           - Change the amountA and amountB of this pair         When reach deadline           - Final price of ILM = Initial price of naughty price pair = amountA/amountB",
    "version": 1
  },
  "storageLayout": {
    "storage": [
      {
        "astId": 2523,
        "contract": "contracts/ILM/NaughtyPriceILM.sol:NaughtyPriceILM",
        "label": "_initialized",
        "offset": 0,
        "slot": "0",
        "type": "t_bool"
      },
      {
        "astId": 2526,
        "contract": "contracts/ILM/NaughtyPriceILM.sol:NaughtyPriceILM",
        "label": "_initializing",
        "offset": 1,
        "slot": "0",
        "type": "t_bool"
      },
      {
        "astId": 3760,
        "contract": "contracts/ILM/NaughtyPriceILM.sol:NaughtyPriceILM",
        "label": "__gap",
        "offset": 0,
        "slot": "1",
        "type": "t_array(t_uint256)50_storage"
      },
      {
        "astId": 2403,
        "contract": "contracts/ILM/NaughtyPriceILM.sol:NaughtyPriceILM",
        "label": "_owner",
        "offset": 0,
        "slot": "51",
        "type": "t_address"
      },
      {
        "astId": 2515,
        "contract": "contracts/ILM/NaughtyPriceILM.sol:NaughtyPriceILM",
        "label": "__gap",
        "offset": 0,
        "slot": "52",
        "type": "t_array(t_uint256)49_storage"
      },
      {
        "astId": 8806,
        "contract": "contracts/ILM/NaughtyPriceILM.sol:NaughtyPriceILM",
        "label": "degis",
        "offset": 0,
        "slot": "101",
        "type": "t_address"
      },
      {
        "astId": 8808,
        "contract": "contracts/ILM/NaughtyPriceILM.sol:NaughtyPriceILM",
        "label": "policyCore",
        "offset": 0,
        "slot": "102",
        "type": "t_address"
      },
      {
        "astId": 8810,
        "contract": "contracts/ILM/NaughtyPriceILM.sol:NaughtyPriceILM",
        "label": "router",
        "offset": 0,
        "slot": "103",
        "type": "t_address"
      },
      {
        "astId": 8812,
        "contract": "contracts/ILM/NaughtyPriceILM.sol:NaughtyPriceILM",
        "label": "emergencyPool",
        "offset": 0,
        "slot": "104",
        "type": "t_address"
      },
      {
        "astId": 8826,
        "contract": "contracts/ILM/NaughtyPriceILM.sol:NaughtyPriceILM",
        "label": "users",
        "offset": 0,
        "slot": "105",
        "type": "t_mapping(t_address,t_mapping(t_address,t_struct(UserInfo)8819_storage))"
      },
      {
        "astId": 8856,
        "contract": "contracts/ILM/NaughtyPriceILM.sol:NaughtyPriceILM",
        "label": "pairs",
        "offset": 0,
        "slot": "106",
        "type": "t_mapping(t_address,t_struct(PairInfo)8851_storage)"
      }
    ],
    "types": {
      "t_address": {
        "encoding": "inplace",
        "label": "address",
        "numberOfBytes": "20"
      },
      "t_array(t_uint256)49_storage": {
        "base": "t_uint256",
        "encoding": "inplace",
        "label": "uint256[49]",
        "numberOfBytes": "1568"
      },
      "t_array(t_uint256)50_storage": {
        "base": "t_uint256",
        "encoding": "inplace",
        "label": "uint256[50]",
        "numberOfBytes": "1600"
      },
      "t_bool": {
        "encoding": "inplace",
        "label": "bool",
        "numberOfBytes": "1"
      },
      "t_enum(Status)8831": {
        "encoding": "inplace",
        "label": "enum NaughtyPriceILM.Status",
        "numberOfBytes": "1"
      },
      "t_mapping(t_address,t_mapping(t_address,t_struct(UserInfo)8819_storage))": {
        "encoding": "mapping",
        "key": "t_address",
        "label": "mapping(address => mapping(address => struct NaughtyPriceILM.UserInfo))",
        "numberOfBytes": "32",
        "value": "t_mapping(t_address,t_struct(UserInfo)8819_storage)"
      },
      "t_mapping(t_address,t_struct(PairInfo)8851_storage)": {
        "encoding": "mapping",
        "key": "t_address",
        "label": "mapping(address => struct NaughtyPriceILM.PairInfo)",
        "numberOfBytes": "32",
        "value": "t_struct(PairInfo)8851_storage"
      },
      "t_mapping(t_address,t_struct(UserInfo)8819_storage)": {
        "encoding": "mapping",
        "key": "t_address",
        "label": "mapping(address => struct NaughtyPriceILM.UserInfo)",
        "numberOfBytes": "32",
        "value": "t_struct(UserInfo)8819_storage"
      },
      "t_struct(PairInfo)8851_storage": {
        "encoding": "inplace",
        "label": "struct NaughtyPriceILM.PairInfo",
        "members": [
          {
            "astId": 8834,
            "contract": "contracts/ILM/NaughtyPriceILM.sol:NaughtyPriceILM",
            "label": "status",
            "offset": 0,
            "slot": "0",
            "type": "t_enum(Status)8831"
          },
          {
            "astId": 8836,
            "contract": "contracts/ILM/NaughtyPriceILM.sol:NaughtyPriceILM",
            "label": "lptoken",
            "offset": 1,
            "slot": "0",
            "type": "t_address"
          },
          {
            "astId": 8838,
            "contract": "contracts/ILM/NaughtyPriceILM.sol:NaughtyPriceILM",
            "label": "ILMDeadline",
            "offset": 0,
            "slot": "1",
            "type": "t_uint256"
          },
          {
            "astId": 8840,
            "contract": "contracts/ILM/NaughtyPriceILM.sol:NaughtyPriceILM",
            "label": "stablecoin",
            "offset": 0,
            "slot": "2",
            "type": "t_address"
          },
          {
            "astId": 8842,
            "contract": "contracts/ILM/NaughtyPriceILM.sol:NaughtyPriceILM",
            "label": "amountA",
            "offset": 0,
            "slot": "3",
            "type": "t_uint256"
          },
          {
            "astId": 8844,
            "contract": "contracts/ILM/NaughtyPriceILM.sol:NaughtyPriceILM",
            "label": "amountB",
            "offset": 0,
            "slot": "4",
            "type": "t_uint256"
          },
          {
            "astId": 8846,
            "contract": "contracts/ILM/NaughtyPriceILM.sol:NaughtyPriceILM",
            "label": "naughtyPairAddress",
            "offset": 0,
            "slot": "5",
            "type": "t_address"
          },
          {
            "astId": 8848,
            "contract": "contracts/ILM/NaughtyPriceILM.sol:NaughtyPriceILM",
            "label": "degisAmount",
            "offset": 0,
            "slot": "6",
            "type": "t_uint256"
          },
          {
            "astId": 8850,
            "contract": "contracts/ILM/NaughtyPriceILM.sol:NaughtyPriceILM",
            "label": "accDegisPerShare",
            "offset": 0,
            "slot": "7",
            "type": "t_uint256"
          }
        ],
        "numberOfBytes": "256"
      },
      "t_struct(UserInfo)8819_storage": {
        "encoding": "inplace",
        "label": "struct NaughtyPriceILM.UserInfo",
        "members": [
          {
            "astId": 8814,
            "contract": "contracts/ILM/NaughtyPriceILM.sol:NaughtyPriceILM",
            "label": "amountA",
            "offset": 0,
            "slot": "0",
            "type": "t_uint256"
          },
          {
            "astId": 8816,
            "contract": "contracts/ILM/NaughtyPriceILM.sol:NaughtyPriceILM",
            "label": "amountB",
            "offset": 0,
            "slot": "1",
            "type": "t_uint256"
          },
          {
            "astId": 8818,
            "contract": "contracts/ILM/NaughtyPriceILM.sol:NaughtyPriceILM",
            "label": "degisDebt",
            "offset": 0,
            "slot": "2",
            "type": "t_uint256"
          }
        ],
        "numberOfBytes": "96"
      },
      "t_uint256": {
        "encoding": "inplace",
        "label": "uint256",
        "numberOfBytes": "32"
      }
    }
  }
}