{
  "address": "0x60a1635dDd9fe0C56B3421E5A9dA1483d0DBaDfd",
  "abi": [
    {
      "inputs": [],
      "name": "DIS__NotEnoughVeDEG",
      "type": "error"
    },
    {
      "inputs": [],
      "name": "DIS__PoolNotAvailable",
      "type": "error"
    },
    {
      "inputs": [],
      "name": "DIS__WrongSpeed",
      "type": "error"
    },
    {
      "inputs": [],
      "name": "DIS__ZeroAmount",
      "type": "error"
    },
    {
      "anonymous": false,
      "inputs": [
        {
          "indexed": false,
          "internalType": "address",
          "name": "user",
          "type": "address"
        },
        {
          "indexed": false,
          "internalType": "uint256",
          "name": "poolId",
          "type": "uint256"
        },
        {
          "indexed": false,
          "internalType": "uint256",
          "name": "amount",
          "type": "uint256"
        }
      ],
      "name": "Deposit",
      "type": "event"
    },
    {
      "anonymous": false,
      "inputs": [
        {
          "indexed": false,
          "internalType": "address",
          "name": "user",
          "type": "address"
        },
        {
          "indexed": false,
          "internalType": "uint256",
          "name": "poolId",
          "type": "uint256"
        },
        {
          "indexed": false,
          "internalType": "uint256",
          "name": "amount",
          "type": "uint256"
        }
      ],
      "name": "Harvest",
      "type": "event"
    },
    {
      "anonymous": false,
      "inputs": [
        {
          "indexed": false,
          "internalType": "uint256",
          "name": "poolId",
          "type": "uint256"
        },
        {
          "indexed": false,
          "internalType": "address",
          "name": "rewardToken",
          "type": "address"
        }
      ],
      "name": "NewRewardPoolStart",
      "type": "event"
    },
    {
      "anonymous": false,
      "inputs": [
        {
          "indexed": true,
          "internalType": "address",
          "name": "previousOwner",
          "type": "address"
        },
        {
          "indexed": true,
          "internalType": "address",
          "name": "newOwner",
          "type": "address"
        }
      ],
      "name": "OwnershipTransferred",
      "type": "event"
    },
    {
      "anonymous": false,
      "inputs": [
        {
          "indexed": false,
          "internalType": "address",
          "name": "account",
          "type": "address"
        }
      ],
      "name": "Paused",
      "type": "event"
    },
    {
      "anonymous": false,
      "inputs": [
        {
          "indexed": false,
          "internalType": "uint256",
          "name": "poolId",
          "type": "uint256"
        },
        {
          "indexed": false,
          "internalType": "uint256",
          "name": "accRewardPerSecond",
          "type": "uint256"
        }
      ],
      "name": "PoolUpdated",
      "type": "event"
    },
    {
      "anonymous": false,
      "inputs": [
        {
          "indexed": false,
          "internalType": "uint256",
          "name": "poolId",
          "type": "uint256"
        },
        {
          "indexed": false,
          "internalType": "uint256",
          "name": "rewardPerSecond",
          "type": "uint256"
        }
      ],
      "name": "RewardSpeedSet",
      "type": "event"
    },
    {
      "anonymous": false,
      "inputs": [
        {
          "indexed": false,
          "internalType": "uint256",
          "name": "oldRoundTime",
          "type": "uint256"
        },
        {
          "indexed": false,
          "internalType": "uint256",
          "name": "newRoundTime",
          "type": "uint256"
        }
      ],
      "name": "RoundTimeChanged",
      "type": "event"
    },
    {
      "anonymous": false,
      "inputs": [
        {
          "indexed": false,
          "internalType": "address",
          "name": "account",
          "type": "address"
        }
      ],
      "name": "Unpaused",
      "type": "event"
    },
    {
      "anonymous": false,
      "inputs": [
        {
          "indexed": false,
          "internalType": "address",
          "name": "user",
          "type": "address"
        },
        {
          "indexed": false,
          "internalType": "uint256",
          "name": "poolId",
          "type": "uint256"
        },
        {
          "indexed": false,
          "internalType": "uint256",
          "name": "amount",
          "type": "uint256"
        }
      ],
      "name": "Withdraw",
      "type": "event"
    },
    {
      "inputs": [],
      "name": "SCALE",
      "outputs": [
        {
          "internalType": "uint256",
          "name": "",
          "type": "uint256"
        }
      ],
      "stateMutability": "view",
      "type": "function"
    },
    {
      "inputs": [
        {
          "internalType": "uint256",
          "name": "_poolId",
          "type": "uint256"
        },
        {
          "internalType": "uint256",
          "name": "_amount",
          "type": "uint256"
        }
      ],
      "name": "deposit",
      "outputs": [],
      "stateMutability": "nonpayable",
      "type": "function"
    },
    {
      "inputs": [
        {
          "internalType": "uint256",
          "name": "_poolId",
          "type": "uint256"
        },
        {
          "internalType": "address",
          "name": "_to",
          "type": "address"
        }
      ],
      "name": "harvest",
      "outputs": [],
      "stateMutability": "nonpayable",
      "type": "function"
    },
    {
      "inputs": [
        {
          "internalType": "address",
          "name": "_veDEG",
          "type": "address"
        }
      ],
      "name": "initialize",
      "outputs": [],
      "stateMutability": "nonpayable",
      "type": "function"
    },
    {
      "inputs": [],
      "name": "nextPool",
      "outputs": [
        {
          "internalType": "uint256",
          "name": "",
          "type": "uint256"
        }
      ],
      "stateMutability": "view",
      "type": "function"
    },
    {
      "inputs": [],
      "name": "owner",
      "outputs": [
        {
          "internalType": "address",
          "name": "",
          "type": "address"
        }
      ],
      "stateMutability": "view",
      "type": "function"
    },
    {
      "inputs": [],
      "name": "paused",
      "outputs": [
        {
          "internalType": "bool",
          "name": "",
          "type": "bool"
        }
      ],
      "stateMutability": "view",
      "type": "function"
    },
    {
      "inputs": [
        {
          "internalType": "uint256",
          "name": "_poolId",
          "type": "uint256"
        },
        {
          "internalType": "address",
          "name": "_user",
          "type": "address"
        }
      ],
      "name": "pendingReward",
      "outputs": [
        {
          "internalType": "uint256",
          "name": "",
          "type": "uint256"
        }
      ],
      "stateMutability": "view",
      "type": "function"
    },
    {
      "inputs": [
        {
          "internalType": "uint256",
          "name": "",
          "type": "uint256"
        }
      ],
      "name": "pools",
      "outputs": [
        {
          "internalType": "bool",
          "name": "available",
          "type": "bool"
        },
        {
          "internalType": "address",
          "name": "rewardToken",
          "type": "address"
        },
        {
          "internalType": "uint256",
          "name": "totalAmount",
          "type": "uint256"
        },
        {
          "internalType": "uint256",
          "name": "rewardPerSecond",
          "type": "uint256"
        },
        {
          "internalType": "uint256",
          "name": "accRewardPerShare",
          "type": "uint256"
        },
        {
          "internalType": "uint256",
          "name": "lastRewardTimestamp",
          "type": "uint256"
        }
      ],
      "stateMutability": "view",
      "type": "function"
    },
    {
      "inputs": [],
      "name": "renounceOwnership",
      "outputs": [],
      "stateMutability": "nonpayable",
      "type": "function"
    },
    {
      "inputs": [],
      "name": "roundTime",
      "outputs": [
        {
          "internalType": "uint256",
          "name": "",
          "type": "uint256"
        }
      ],
      "stateMutability": "view",
      "type": "function"
    },
    {
      "inputs": [
        {
          "internalType": "uint256",
          "name": "_poolId",
          "type": "uint256"
        },
        {
          "internalType": "uint256",
          "name": "_rewardPerSecond",
          "type": "uint256"
        }
      ],
      "name": "setRewardSpeed",
      "outputs": [],
      "stateMutability": "nonpayable",
      "type": "function"
    },
    {
      "inputs": [
        {
          "internalType": "uint256",
          "name": "_roundTime",
          "type": "uint256"
        }
      ],
      "name": "setRoundTime",
      "outputs": [],
      "stateMutability": "nonpayable",
      "type": "function"
    },
    {
      "inputs": [
        {
          "internalType": "address",
          "name": "_rewardToken",
          "type": "address"
        }
      ],
      "name": "startPool",
      "outputs": [],
      "stateMutability": "nonpayable",
      "type": "function"
    },
    {
      "inputs": [
        {
          "internalType": "address",
          "name": "newOwner",
          "type": "address"
        }
      ],
      "name": "transferOwnership",
      "outputs": [],
      "stateMutability": "nonpayable",
      "type": "function"
    },
    {
      "inputs": [
        {
          "internalType": "uint256",
          "name": "_poolId",
          "type": "uint256"
        }
      ],
      "name": "updatePool",
      "outputs": [],
      "stateMutability": "nonpayable",
      "type": "function"
    },
    {
      "inputs": [
        {
          "internalType": "uint256",
          "name": "",
          "type": "uint256"
        },
        {
          "internalType": "address",
          "name": "",
          "type": "address"
        }
      ],
      "name": "users",
      "outputs": [
        {
          "internalType": "uint256",
          "name": "totalAmount",
          "type": "uint256"
        },
        {
          "internalType": "uint256",
          "name": "rewardDebt",
          "type": "uint256"
        }
      ],
      "stateMutability": "view",
      "type": "function"
    },
    {
      "inputs": [],
      "name": "veDEG",
      "outputs": [
        {
          "internalType": "contract IVeDEG",
          "name": "",
          "type": "address"
        }
      ],
      "stateMutability": "view",
      "type": "function"
    },
    {
      "inputs": [
        {
          "internalType": "uint256",
          "name": "_poolId",
          "type": "uint256"
        },
        {
          "internalType": "uint256",
          "name": "_amount",
          "type": "uint256"
        }
      ],
      "name": "withdraw",
      "outputs": [],
      "stateMutability": "nonpayable",
      "type": "function"
    },
    {
      "inputs": [
        {
          "internalType": "uint256",
          "name": "_poolId",
          "type": "uint256"
        }
      ],
      "name": "withdrawAll",
      "outputs": [],
      "stateMutability": "nonpayable",
      "type": "function"
    }
  ],
  "transactionHash": "0xfd6218fb2d8a2acca22658456290ea4cdaa4c54dace57645fcfe8bd501fe6838",
  "args": [],
  "numDeployments": 1,
  "solcInputHash": "dac4e5fe3f0ddff2793c693a8a6aab18",
  "bytecode": "0x608060405234801561001057600080fd5b50611e83806100206000396000f3fe608060405234801561001057600080fd5b506004361061016c5760003560e01c806398969e82116100cd578063e2bbb15811610081578063ee5f8c8f11610066578063ee5f8c8f14610343578063f2fde38b1461034c578063fa65cb041461035f57600080fd5b8063e2bbb1581461031c578063eced55261461032f57600080fd5b8063b9d02df4116100b2578063b9d02df4146102b6578063c4d66de8146102f6578063d03a7d251461030957600080fd5b806398969e8214610245578063ac4afa381461025857600080fd5b80635c975abb11610124578063715018a611610109578063715018a6146102115780638da5cb5b14610219578063958e2d311461023257600080fd5b80635c975abb146101eb5780635e3df141146101fe57600080fd5b8063441a3e7011610155578063441a3e70146101a55780634f3e7ba6146101b857806351eb05a6146101d857600080fd5b806318fccc7614610171578063243d658514610186575b600080fd5b61018461017f366004611798565b610372565b005b61018f60cd5481565b60405161019c91906117dd565b60405180910390f35b6101846101b33660046117eb565b610508565b60ca546101cb906001600160a01b031681565b60405161019c919061183d565b6101846101e636600461184b565b610748565b60655460ff1660405161019c9190611874565b61018461020c366004611882565b6108c2565b61018461099e565b6033546001600160a01b031660405161019c91906118ac565b61018461024036600461184b565b6109d4565b61018f610253366004611798565b6109fc565b6102a461026636600461184b565b60cb602052600090815260409020805460018201546002830154600384015460049094015460ff8416946101009094046001600160a01b0316939086565b60405161019c969594939291906118ba565b6102e86102c4366004611798565b60cc6020908152600092835260408084209091529082529020805460019091015482565b60405161019c929190611909565b610184610304366004611882565b610c83565b6101846103173660046117eb565b610d3b565b61018461032a3660046117eb565b610e9c565b61018f6c0c9f2c9cd04674edea4000000081565b61018f60c95481565b61018461035a366004611882565b6111b2565b61018461036d36600461184b565b61120b565b60026097540361039d5760405162461bcd60e51b815260040161039490611958565b60405180910390fd5b600260975560655460ff16156103c55760405162461bcd60e51b81526004016103949061199a565b6103ce82610748565b600082815260cb60209081526040808320815160c081018352815460ff81161515825261010090046001600160a01b031681850152600180830154828501526002830154606083015260038301546080830190815260049093015460a083015287865260cc855283862033875290945291842092830154905183549294926c0c9f2c9cd04674edea4000000091610464916119c0565b61046e91906119f5565b6104789190611a09565b90506c0c9f2c9cd04674edea400000008360800151836000015461049c91906119c0565b6104a691906119f5565b600183015560208301516000906104be908684611275565b90507f71bab65ced2e5750775a0613be067df48ef06cf92a496ebf7663ae06609249543387836040516104f393929190611a20565b60405180910390a15050600160975550505050565b60026097540361052a5760405162461bcd60e51b815260040161039490611958565b6002609755600081900361055157604051631ec840e160e01b815260040160405180910390fd5b600082815260cb6020908152604080832060cc835281842033855290925290912080548311156105945760405163445d638d60e01b815260040160405180910390fd5b61059d84610748565b600081600101546c0c9f2c9cd04674edea40000000836000015485600301546105c691906119c0565b6105d091906119f5565b6105da9190611a09565b83549091506000906105fb9061010090046001600160a01b03163384611275565b90507f71bab65ced2e5750775a0613be067df48ef06cf92a496ebf7663ae066092495433878360405161063093929190611a20565b60405180910390a18484600101600082825461064c9190611a09565b9091555050825485908490600090610665908490611a09565b9091555050600384015483546c0c9f2c9cd04674edea4000000091610689916119c0565b61069391906119f5565b600184015560ca546040517f97b85b6a0000000000000000000000000000000000000000000000000000000081526001600160a01b03909116906397b85b6a906106e39033908990600401611a48565b600060405180830381600087803b1580156106fd57600080fd5b505af1158015610711573d6000803e3d6000fd5b505050507ff279e6a1f5e320cca91135676d9cb6e44ca8a08c0b88342bcdb1144f6511b5683387876040516104f393929190611a20565b600081815260cb6020526040902060048101544211610765575050565b6001810154600282015481158061077a575080155b1561078b5750504260049091015550565b600083600401544261079d9190611a09565b905060006107ab83836119c0565b85546040516370a0823160e01b81529192506000916101009091046001600160a01b0316906370a08231906107e49030906004016118ac565b602060405180830381865afa158015610801573d6000803e3d6000fd5b505050506040513d601f19601f820116820180604052508101906108259190611a61565b905060008183116108365782610838565b815b9050856108526c0c9f2c9cd04674edea40000000836119c0565b61085c91906119f5565b87600301600082825461086f9190611a82565b909155505042600488015560038701546040517f7fa9647ec1cc14e3822b46d05a2b9d4e019bde8875c0088c46b6503d71bf1722916108b0918b9190611909565b60405180910390a15050505050505050565b6033546001600160a01b031633146108ec5760405162461bcd60e51b815260040161039490611aca565b60cd805460009160cb9183918261090283611ada565b9091555081526020810191909152604001600020805460017fffffffffffffffffffffff0000000000000000000000000000000000000000009091166101006001600160a01b03861602178117825560cd549192507fc152e0e959f429700442d55214616143637a2b01940082fcaaba253ab85c17b9916109839190611a09565b83604051610992929190611af3565b60405180910390a15050565b6033546001600160a01b031633146109c85760405162461bcd60e51b815260040161039490611aca565b6109d2600061132a565b565b600081815260cc602090815260408083203384529091529020546109f9908290610508565b50565b600082815260cb60209081526040808320815160c081018352815460ff81161515825261010090046001600160a01b03169381019390935260018101549183019190915260028101546060830152600381015460808301526004015460a082018190521580610a6e57508060a0015142105b15610a7d576000915050610c7d565b60808101516040820151600003610a9957600092505050610c7d565b600085815260cc602090815260408083206001600160a01b03881684528252808320815180830190925280548252600101549181019190915260a0840151909190610ae49042611a09565b90506000846060015182610af891906119c0565b9050610b396040518060400160405280600681526020017f726577617264000000000000000000000000000000000000000000000000000081525082611389565b60208501516040516370a0823160e01b81526000916001600160a01b0316906370a0823190610b6c9030906004016118ac565b602060405180830381865afa158015610b89573d6000803e3d6000fd5b505050506040513d601f19601f82011682018060405250810190610bad9190611a61565b9050610bee6040518060400160405280601081526020017f72656d61696e696e67207265776172640000000000000000000000000000000081525082611389565b6000818311610bfd5782610bff565b815b6040880151909150610c1e6c0c9f2c9cd04674edea40000000836119c0565b610c2891906119f5565b610c329087611a82565b9550600085602001516c0c9f2c9cd04674edea40000000888860000151610c5991906119c0565b610c6391906119f5565b610c6d9190611a09565b9850610c7d975050505050505050565b92915050565b600054610100900460ff16610c9e5760005460ff1615610ca2565b303b155b610cbe5760405162461bcd60e51b815260040161039490611b68565b600054610100900460ff16158015610ce0576000805461ffff19166101011790555b610ce86113fc565b610cf061142b565b610cf861145a565b60ca805473ffffffffffffffffffffffffffffffffffffffff19166001600160a01b038416179055600160cd558015610d37576000805461ff00191690555b5050565b610d4482610748565b600082815260cb6020908152604091829020825160c081018452815460ff81161515825261010090046001600160a01b0316928101839052600182015481850152600282015460608201526003820154608082015260049182015460a082015292516370a0823160e01b81526370a0823191610dc2913091016118ac565b602060405180830381865afa158015610ddf573d6000803e3d6000fd5b505050506040513d601f19601f82011682018060405250810190610e039190611a61565b8260c954610e1191906119c0565b1115610e49576040517f58a110e800000000000000000000000000000000000000000000000000000000815260040160405180910390fd5b600083815260cb602052604090819020600201839055517f01daaf9017881672e5509b604c12ed0f4eab658d04c732febc698b8ed42397e390610e8f9085908590611909565b60405180910390a1505050565b600260975403610ebe5760405162461bcd60e51b815260040161039490611958565b6002609755600082815260cb602052604090205460ff16610f0b576040517f4aa48a8100000000000000000000000000000000000000000000000000000000815260040160405180910390fd5b80600003610f2c57604051631ec840e160e01b815260040160405180910390fd5b60ca546040516370a0823160e01b815282916001600160a01b0316906370a0823190610f5c9033906004016118ac565b602060405180830381865afa158015610f79573d6000803e3d6000fd5b505050506040513d601f19601f82011682018060405250810190610f9d9190611a61565b1015610fbc5760405163445d638d60e01b815260040160405180910390fd5b610fc582610748565b60ca546040517f78ad54c20000000000000000000000000000000000000000000000000000000081526001600160a01b03909116906378ad54c2906110109033908590600401611a48565b600060405180830381600087803b15801561102a57600080fd5b505af115801561103e573d6000803e3d6000fd5b505050600083815260cb6020908152604080832060cc83528184203385529092529091208054919250901561110b57600081600101546c0c9f2c9cd04674edea400000008360000154856003015461109691906119c0565b6110a091906119f5565b6110aa9190611a09565b83549091506000906110cb9061010090046001600160a01b03163384611275565b90507f71bab65ced2e5750775a0613be067df48ef06cf92a496ebf7663ae066092495433878360405161110093929190611a20565b60405180910390a150505b8282600101600082825461111f9190611a82565b9091555050805483908290600090611138908490611a82565b9091555050805460038301546c0c9f2c9cd04674edea400000009161115c916119c0565b61116691906119f5565b60018201556040517f90890809c654f11d6e72a28fa60149770a0d11ec6c92319d6ceb2bb0a4ea1a159061119f90339087908790611a20565b60405180910390a1505060016097555050565b6033546001600160a01b031633146111dc5760405162461bcd60e51b815260040161039490611aca565b6001600160a01b0381166112025760405162461bcd60e51b815260040161039490611bd0565b6109f98161132a565b6033546001600160a01b031633146112355760405162461bcd60e51b815260040161039490611aca565b7f0591d85ff40c6aa3ea8d23e0b0e8224ffef96db2722859b2752cfed2e8ae004d60c95482604051611268929190611909565b60405180910390a160c955565b600080846001600160a01b03166370a08231306040518263ffffffff1660e01b81526004016112a491906118ac565b602060405180830381865afa1580156112c1573d6000803e3d6000fd5b505050506040513d601f19601f820116820180604052508101906112e59190611a61565b90508083111561130a576113036001600160a01b0386168583611489565b9050611323565b61131e6001600160a01b0386168585611489565b829150505b9392505050565b603380546001600160a01b0383811673ffffffffffffffffffffffffffffffffffffffff19831681179093556040519116919082907f8be0079c531659141344cd1fd0a4f28419497f9722a3daafe3b4186f6b6457e090600090a35050565b610d37828260405160240161139f929190611c42565b60408051601f198184030181529190526020810180517bffffffffffffffffffffffffffffffffffffffffffffffffffffffff167f9710a9d000000000000000000000000000000000000000000000000000000000179052611511565b600054610100900460ff166114235760405162461bcd60e51b815260040161039490611cba565b6109d2611532565b600054610100900460ff166114525760405162461bcd60e51b815260040161039490611cba565b6109d2611562565b600054610100900460ff166114815760405162461bcd60e51b815260040161039490611cba565b6109d2611595565b61150c8363a9059cbb60e01b84846040516024016114a8929190611a48565b60408051601f198184030181529190526020810180517bffffffffffffffffffffffffffffffffffffffffffffffffffffffff167fffffffff00000000000000000000000000000000000000000000000000000000909316929092179091526115c3565b505050565b80516a636f6e736f6c652e6c6f67602083016000808483855afa5050505050565b600054610100900460ff166115595760405162461bcd60e51b815260040161039490611cba565b6109d23361132a565b600054610100900460ff166115895760405162461bcd60e51b815260040161039490611cba565b6065805460ff19169055565b600054610100900460ff166115bc5760405162461bcd60e51b815260040161039490611cba565b6001609755565b6000611618826040518060400160405280602081526020017f5361666545524332303a206c6f772d6c6576656c2063616c6c206661696c6564815250856001600160a01b03166116529092919063ffffffff16565b80519091501561150c57808060200190518101906116369190611cdd565b61150c5760405162461bcd60e51b815260040161039490611d56565b60606116618484600085611669565b949350505050565b60608247101561168b5760405162461bcd60e51b815260040161039490611dbe565b843b6116a95760405162461bcd60e51b815260040161039490611e00565b600080866001600160a01b031685876040516116c59190611e32565b60006040518083038185875af1925050503d8060008114611702576040519150601f19603f3d011682016040523d82523d6000602084013e611707565b606091505b5091509150611717828286611722565b979650505050505050565b60608315611731575081611323565b8251156117415782518084602001fd5b8160405162461bcd60e51b81526004016103949190611e3c565b805b81146109f957600080fd5b8035610c7d8161175b565b60006001600160a01b038216610c7d565b61175d81611773565b8035610c7d81611784565b600080604083850312156117ae576117ae600080fd5b60006117ba8585611768565b92505060206117cb8582860161178d565b9150509250929050565b805b82525050565b60208101610c7d82846117d5565b6000806040838503121561180157611801600080fd5b600061180d8585611768565b92505060206117cb85828601611768565b6000610c7d82611773565b6000610c7d8261181e565b6117d781611829565b60208101610c7d8284611834565b60006020828403121561186057611860600080fd5b60006116618484611768565b8015156117d7565b60208101610c7d828461186c565b60006020828403121561189757611897600080fd5b6000611661848461178d565b6117d781611773565b60208101610c7d82846118a3565b60c081016118c8828961186c565b6118d560208301886118a3565b6118e260408301876117d5565b6118ef60608301866117d5565b6118fc60808301856117d5565b61171760a08301846117d5565b6040810161191782856117d5565b61132360208301846117d5565b601f8152602081017f5265656e7472616e637947756172643a207265656e7472616e742063616c6c00815290505b60200190565b60208082528101610c7d81611924565b60108152602081017f5061757361626c653a207061757365640000000000000000000000000000000081529050611952565b60208082528101610c7d81611968565b634e487b7160e01b600052601160045260246000fd5b60008160001904831182151516156119da576119da6119aa565b500290565b634e487b7160e01b600052601260045260246000fd5b600082611a0457611a046119df565b500490565b600082821015611a1b57611a1b6119aa565b500390565b60608101611a2e82866118a3565b611a3b60208301856117d5565b61166160408301846117d5565b6040810161191782856118a3565b8051610c7d8161175b565b600060208284031215611a7657611a76600080fd5b60006116618484611a56565b60008219821115611a9557611a956119aa565b500190565b60208082527f4f776e61626c653a2063616c6c6572206973206e6f7420746865206f776e65729101908152611952565b60208082528101610c7d81611a9a565b600060018201611aec57611aec6119aa565b5060010190565b60408101611b0182856117d5565b61132360208301846118a3565b602e8152602081017f496e697469616c697a61626c653a20636f6e747261637420697320616c72656181527f647920696e697469616c697a6564000000000000000000000000000000000000602082015290505b60400190565b60208082528101610c7d81611b0e565b60268152602081017f4f776e61626c653a206e6577206f776e657220697320746865207a65726f206181527f646472657373000000000000000000000000000000000000000000000000000060208201529050611b62565b60208082528101610c7d81611b78565b60005b83811015611bfb578181015183820152602001611be3565b83811115611c0a576000848401525b50505050565b6000611c1a825190565b808452602084019350611c31818560208601611be0565b601f01601f19169290920192915050565b60408082528101611c538185611c10565b905061132360208301846117d5565b602b8152602081017f496e697469616c697a61626c653a20636f6e7472616374206973206e6f74206981527f6e697469616c697a696e6700000000000000000000000000000000000000000060208201529050611b62565b60208082528101610c7d81611c62565b80151561175d565b8051610c7d81611cca565b600060208284031215611cf257611cf2600080fd5b60006116618484611cd2565b602a8152602081017f5361666545524332303a204552433230206f7065726174696f6e20646964206e81527f6f7420737563636565640000000000000000000000000000000000000000000060208201529050611b62565b60208082528101610c7d81611cfe565b60268152602081017f416464726573733a20696e73756666696369656e742062616c616e636520666f81527f722063616c6c000000000000000000000000000000000000000000000000000060208201529050611b62565b60208082528101610c7d81611d66565b601d8152602081017f416464726573733a2063616c6c20746f206e6f6e2d636f6e747261637400000081529050611952565b60208082528101610c7d81611dce565b6000611e1a825190565b611e28818560208601611be0565b9290920192915050565b610c7d8183611e10565b602080825281016113238184611c1056fea2646970667358221220871cf0c1cf04bf9cda4d3996ee34c957e1556bd43ce3a79b1ad0d10688ffb3dd64736f6c634300080d0033",
  "devdoc": {
    "kind": "dev",
    "methods": {
      "deposit(uint256,uint256)": {
        "params": {
          "_amount": "Amount of tokens to deposit",
          "_poolId": "Pool Id"
        }
      },
      "harvest(uint256,address)": {
        "params": {
          "_poolId": "Pool Id",
          "_to": "Reward receiver address"
        }
      },
      "owner()": {
        "details": "Returns the address of the current owner."
      },
      "paused()": {
        "details": "Returns true if the contract is paused, and false otherwise."
      },
      "pendingReward(uint256,address)": {
        "params": {
          "_poolId": "Pool Id",
          "_user": "User address"
        },
        "returns": {
          "_0": "pendingReward Amount of pending reward"
        }
      },
      "renounceOwnership()": {
        "details": "Leaves the contract without owner. It will not be possible to call `onlyOwner` functions anymore. Can only be called by the current owner. NOTE: Renouncing ownership will leave the contract without an owner, thereby removing any functionality that is only available to the owner."
      },
      "setRewardSpeed(uint256,uint256)": {
        "params": {
          "_poolId": "Pool id",
          "_rewardPerSecond": "Reward speed"
        }
      },
      "setRoundTime(uint256)": {
        "details": "Round time is only used for checking reward speed",
        "params": {
          "_roundTime": "Round time in seconds"
        }
      },
      "startPool(address)": {
        "details": "Normally there will be two pools          - USDC.e as reward (1)          - Shield as reward (2)",
        "params": {
          "_rewardToken": "Reward token address"
        }
      },
      "transferOwnership(address)": {
        "details": "Transfers ownership of the contract to a new account (`newOwner`). Can only be called by the current owner."
      },
      "updatePool(uint256)": {
        "params": {
          "_poolId": "Pool id"
        }
      },
      "withdraw(uint256,uint256)": {
        "params": {
          "_amount": "Amount to withdraw",
          "_poolId": "Pool Id"
        }
      },
      "withdrawAll(uint256)": {
        "params": {
          "_poolId": "Pool Id"
        }
      }
    },
    "title": "Degis Income Sharing Contract",
    "version": 1
  },
  "userdoc": {
    "kind": "user",
    "methods": {
      "deposit(uint256,uint256)": {
        "notice": "Deposit"
      },
      "harvest(uint256,address)": {
        "notice": "Harvest income reward"
      },
      "pendingReward(uint256,address)": {
        "notice": "Pending reward"
      },
      "setRewardSpeed(uint256,uint256)": {
        "notice": "Set reward speed for a pool"
      },
      "setRoundTime(uint256)": {
        "notice": "Set round time"
      },
      "startPool(address)": {
        "notice": "Start a new income sharing pool"
      },
      "updatePool(uint256)": {
        "notice": "Update pool"
      },
      "withdraw(uint256,uint256)": {
        "notice": "Withdraw the reward from the pool"
      },
      "withdrawAll(uint256)": {
        "notice": "Withdraw all veDEG"
      }
    },
    "notice": "This contract will receive part of the income from Degis products         And the income will be shared by DEG holders (in the form of veDEG)         It is designed to be an ever-lasting reward         At first the reward is USDC.e and later may be transferred to Shield         To enter the income sharing vault, you need to lock some veDEG             - When your veDEG is locked, it can not be withdrawed         The reward is distributed per second like a farming pool         The income will come from (to be updated)             - IncomeMaker: Collect swap fee in naughty price pool             - PolicyCore: Collect deposit/redeem fee in policy core",
    "version": 1
  },
  "storageLayout": {
    "storage": [
      {
        "astId": 2523,
        "contract": "contracts/income/IncomeSharingVault.sol:IncomeSharingVault",
        "label": "_initialized",
        "offset": 0,
        "slot": "0",
        "type": "t_bool"
      },
      {
        "astId": 2526,
        "contract": "contracts/income/IncomeSharingVault.sol:IncomeSharingVault",
        "label": "_initializing",
        "offset": 1,
        "slot": "0",
        "type": "t_bool"
      },
      {
        "astId": 3760,
        "contract": "contracts/income/IncomeSharingVault.sol:IncomeSharingVault",
        "label": "__gap",
        "offset": 0,
        "slot": "1",
        "type": "t_array(t_uint256)50_storage"
      },
      {
        "astId": 2403,
        "contract": "contracts/income/IncomeSharingVault.sol:IncomeSharingVault",
        "label": "_owner",
        "offset": 0,
        "slot": "51",
        "type": "t_address"
      },
      {
        "astId": 2515,
        "contract": "contracts/income/IncomeSharingVault.sol:IncomeSharingVault",
        "label": "__gap",
        "offset": 0,
        "slot": "52",
        "type": "t_array(t_uint256)49_storage"
      },
      {
        "astId": 2611,
        "contract": "contracts/income/IncomeSharingVault.sol:IncomeSharingVault",
        "label": "_paused",
        "offset": 0,
        "slot": "101",
        "type": "t_bool"
      },
      {
        "astId": 2700,
        "contract": "contracts/income/IncomeSharingVault.sol:IncomeSharingVault",
        "label": "__gap",
        "offset": 0,
        "slot": "102",
        "type": "t_array(t_uint256)49_storage"
      },
      {
        "astId": 2715,
        "contract": "contracts/income/IncomeSharingVault.sol:IncomeSharingVault",
        "label": "_status",
        "offset": 0,
        "slot": "151",
        "type": "t_uint256"
      },
      {
        "astId": 2759,
        "contract": "contracts/income/IncomeSharingVault.sol:IncomeSharingVault",
        "label": "__gap",
        "offset": 0,
        "slot": "152",
        "type": "t_array(t_uint256)49_storage"
      },
      {
        "astId": 17338,
        "contract": "contracts/income/IncomeSharingVault.sol:IncomeSharingVault",
        "label": "roundTime",
        "offset": 0,
        "slot": "201",
        "type": "t_uint256"
      },
      {
        "astId": 17341,
        "contract": "contracts/income/IncomeSharingVault.sol:IncomeSharingVault",
        "label": "veDEG",
        "offset": 0,
        "slot": "202",
        "type": "t_contract(IVeDEG)16975"
      },
      {
        "astId": 17359,
        "contract": "contracts/income/IncomeSharingVault.sol:IncomeSharingVault",
        "label": "pools",
        "offset": 0,
        "slot": "203",
        "type": "t_mapping(t_uint256,t_struct(PoolInfo)17354_storage)"
      },
      {
        "astId": 17371,
        "contract": "contracts/income/IncomeSharingVault.sol:IncomeSharingVault",
        "label": "users",
        "offset": 0,
        "slot": "204",
        "type": "t_mapping(t_uint256,t_mapping(t_address,t_struct(UserInfo)17364_storage))"
      },
      {
        "astId": 17373,
        "contract": "contracts/income/IncomeSharingVault.sol:IncomeSharingVault",
        "label": "nextPool",
        "offset": 0,
        "slot": "205",
        "type": "t_uint256"
      }
    ],
    "types": {
      "t_address": {
        "encoding": "inplace",
        "label": "address",
        "numberOfBytes": "20"
      },
      "t_array(t_uint256)49_storage": {
        "base": "t_uint256",
        "encoding": "inplace",
        "label": "uint256[49]",
        "numberOfBytes": "1568"
      },
      "t_array(t_uint256)50_storage": {
        "base": "t_uint256",
        "encoding": "inplace",
        "label": "uint256[50]",
        "numberOfBytes": "1600"
      },
      "t_bool": {
        "encoding": "inplace",
        "label": "bool",
        "numberOfBytes": "1"
      },
      "t_contract(IVeDEG)16975": {
        "encoding": "inplace",
        "label": "contract IVeDEG",
        "numberOfBytes": "20"
      },
      "t_mapping(t_address,t_struct(UserInfo)17364_storage)": {
        "encoding": "mapping",
        "key": "t_address",
        "label": "mapping(address => struct IncomeSharingVault.UserInfo)",
        "numberOfBytes": "32",
        "value": "t_struct(UserInfo)17364_storage"
      },
      "t_mapping(t_uint256,t_mapping(t_address,t_struct(UserInfo)17364_storage))": {
        "encoding": "mapping",
        "key": "t_uint256",
        "label": "mapping(uint256 => mapping(address => struct IncomeSharingVault.UserInfo))",
        "numberOfBytes": "32",
        "value": "t_mapping(t_address,t_struct(UserInfo)17364_storage)"
      },
      "t_mapping(t_uint256,t_struct(PoolInfo)17354_storage)": {
        "encoding": "mapping",
        "key": "t_uint256",
        "label": "mapping(uint256 => struct IncomeSharingVault.PoolInfo)",
        "numberOfBytes": "32",
        "value": "t_struct(PoolInfo)17354_storage"
      },
      "t_struct(PoolInfo)17354_storage": {
        "encoding": "inplace",
        "label": "struct IncomeSharingVault.PoolInfo",
        "members": [
          {
            "astId": 17343,
            "contract": "contracts/income/IncomeSharingVault.sol:IncomeSharingVault",
            "label": "available",
            "offset": 0,
            "slot": "0",
            "type": "t_bool"
          },
          {
            "astId": 17345,
            "contract": "contracts/income/IncomeSharingVault.sol:IncomeSharingVault",
            "label": "rewardToken",
            "offset": 1,
            "slot": "0",
            "type": "t_address"
          },
          {
            "astId": 17347,
            "contract": "contracts/income/IncomeSharingVault.sol:IncomeSharingVault",
            "label": "totalAmount",
            "offset": 0,
            "slot": "1",
            "type": "t_uint256"
          },
          {
            "astId": 17349,
            "contract": "contracts/income/IncomeSharingVault.sol:IncomeSharingVault",
            "label": "rewardPerSecond",
            "offset": 0,
            "slot": "2",
            "type": "t_uint256"
          },
          {
            "astId": 17351,
            "contract": "contracts/income/IncomeSharingVault.sol:IncomeSharingVault",
            "label": "accRewardPerShare",
            "offset": 0,
            "slot": "3",
            "type": "t_uint256"
          },
          {
            "astId": 17353,
            "contract": "contracts/income/IncomeSharingVault.sol:IncomeSharingVault",
            "label": "lastRewardTimestamp",
            "offset": 0,
            "slot": "4",
            "type": "t_uint256"
          }
        ],
        "numberOfBytes": "160"
      },
      "t_struct(UserInfo)17364_storage": {
        "encoding": "inplace",
        "label": "struct IncomeSharingVault.UserInfo",
        "members": [
          {
            "astId": 17361,
            "contract": "contracts/income/IncomeSharingVault.sol:IncomeSharingVault",
            "label": "totalAmount",
            "offset": 0,
            "slot": "0",
            "type": "t_uint256"
          },
          {
            "astId": 17363,
            "contract": "contracts/income/IncomeSharingVault.sol:IncomeSharingVault",
            "label": "rewardDebt",
            "offset": 0,
            "slot": "1",
            "type": "t_uint256"
          }
        ],
        "numberOfBytes": "64"
      },
      "t_uint256": {
        "encoding": "inplace",
        "label": "uint256",
        "numberOfBytes": "32"
      }
    }
  }
}