{
  "address": "0x19346F622D9D0d2eBa6907b5Dbf2cd23C6A85334",
  "abi": [
    {
      "anonymous": false,
      "inputs": [
        {
          "indexed": false,
          "internalType": "address",
          "name": "caller",
          "type": "address"
        },
        {
          "indexed": false,
          "internalType": "address",
          "name": "policyTokenAddress",
          "type": "address"
        },
        {
          "indexed": false,
          "internalType": "address",
          "name": "stablecoin",
          "type": "address"
        },
        {
          "indexed": false,
          "internalType": "uint256",
          "name": "policyTokenAmount",
          "type": "uint256"
        },
        {
          "indexed": false,
          "internalType": "uint256",
          "name": "stablecoinAmount",
          "type": "uint256"
        },
        {
          "indexed": false,
          "internalType": "uint256",
          "name": "stablecoinBackAmount",
          "type": "uint256"
        }
      ],
      "name": "ConvertIncome",
      "type": "event"
    },
    {
      "anonymous": false,
      "inputs": [
        {
          "indexed": false,
          "internalType": "address",
          "name": "policyTokenAddress",
          "type": "address"
        },
        {
          "indexed": false,
          "internalType": "address",
          "name": "stablecoin",
          "type": "address"
        },
        {
          "indexed": false,
          "internalType": "uint256",
          "name": "amountOut",
          "type": "uint256"
        }
      ],
      "name": "IncomeToUSD",
      "type": "event"
    },
    {
      "anonymous": false,
      "inputs": [
        {
          "indexed": true,
          "internalType": "address",
          "name": "previousOwner",
          "type": "address"
        },
        {
          "indexed": true,
          "internalType": "address",
          "name": "newOwner",
          "type": "address"
        }
      ],
      "name": "OwnershipTransferred",
      "type": "event"
    },
    {
      "inputs": [],
      "name": "PRICE_SCALE",
      "outputs": [
        {
          "internalType": "uint256",
          "name": "",
          "type": "uint256"
        }
      ],
      "stateMutability": "view",
      "type": "function"
    },
    {
      "inputs": [],
      "name": "UINT256_MAX",
      "outputs": [
        {
          "internalType": "uint256",
          "name": "",
          "type": "uint256"
        }
      ],
      "stateMutability": "view",
      "type": "function"
    },
    {
      "inputs": [
        {
          "internalType": "address",
          "name": "_policyToken",
          "type": "address"
        },
        {
          "internalType": "address",
          "name": "_stablecoin",
          "type": "address"
        }
      ],
      "name": "convertIncome",
      "outputs": [],
      "stateMutability": "nonpayable",
      "type": "function"
    },
    {
      "inputs": [],
      "name": "distribtue",
      "outputs": [],
      "stateMutability": "nonpayable",
      "type": "function"
    },
    {
      "inputs": [
        {
          "internalType": "address",
          "name": "_token",
          "type": "address"
        },
        {
          "internalType": "uint256",
          "name": "_amount",
          "type": "uint256"
        }
      ],
      "name": "emergencyWithdraw",
      "outputs": [],
      "stateMutability": "nonpayable",
      "type": "function"
    },
    {
      "inputs": [],
      "name": "factory",
      "outputs": [
        {
          "internalType": "contract INaughtyFactory",
          "name": "",
          "type": "address"
        }
      ],
      "stateMutability": "view",
      "type": "function"
    },
    {
      "inputs": [],
      "name": "incomeSharingVault",
      "outputs": [
        {
          "internalType": "address",
          "name": "",
          "type": "address"
        }
      ],
      "stateMutability": "view",
      "type": "function"
    },
    {
      "inputs": [
        {
          "internalType": "address",
          "name": "_router",
          "type": "address"
        },
        {
          "internalType": "address",
          "name": "_factory",
          "type": "address"
        },
        {
          "internalType": "address",
          "name": "_vault",
          "type": "address"
        }
      ],
      "name": "initialize",
      "outputs": [],
      "stateMutability": "nonpayable",
      "type": "function"
    },
    {
      "inputs": [],
      "name": "owner",
      "outputs": [
        {
          "internalType": "address",
          "name": "",
          "type": "address"
        }
      ],
      "stateMutability": "view",
      "type": "function"
    },
    {
      "inputs": [],
      "name": "renounceOwnership",
      "outputs": [],
      "stateMutability": "nonpayable",
      "type": "function"
    },
    {
      "inputs": [],
      "name": "router",
      "outputs": [
        {
          "internalType": "contract INaughtyRouter",
          "name": "",
          "type": "address"
        }
      ],
      "stateMutability": "view",
      "type": "function"
    },
    {
      "inputs": [
        {
          "internalType": "address",
          "name": "newOwner",
          "type": "address"
        }
      ],
      "name": "transferOwnership",
      "outputs": [],
      "stateMutability": "nonpayable",
      "type": "function"
    }
  ],
  "transactionHash": "0x984ca5aec08df2c015712e924ed29298140002a3786a1d1c65249e2f2f99dfc7",
  "args": [],
  "numDeployments": 1,
  "solcInputHash": "30acab01710ff2e31c19d5b31cfdd2e3",
  "bytecode": "0x6080604052620f424060685534801561001757600080fd5b506115a2806100276000396000f3fe608060405234801561001057600080fd5b50600436106100d45760003560e01c8063c0c53b8b11610081578063d0949f991161005b578063d0949f991461018c578063f2fde38b14610195578063f887ea40146101a857600080fd5b8063c0c53b8b14610143578063c33f59d314610156578063c45a01551461016c57600080fd5b8063715018a6116100b2578063715018a6146101175780638da5cb5b1461011f57806395ccea671461013057600080fd5b80633037b57f146100d95780633667c8c7146100ec57806344224a84146100ee575b600080fd5b6100ec6100e7366004610e00565b6101bb565b005b606754610101906001600160a01b031681565b60405161010e9190610e4c565b60405180910390f35b6100ec610512565b6033546001600160a01b0316610101565b6100ec61013e366004610e6b565b610546565b6100ec610151366004610e9e565b610588565b61015f60685481565b60405161010e9190610ef4565b60665461017f906001600160a01b031681565b60405161010e9190610f44565b61015f60001981565b6100ec6101a3366004610f52565b61064f565b60655461017f906001600160a01b031681565b60665460405163b4f69a2f60e01b81526000916001600160a01b03169063b4f69a2f906101ee9086908690600401610f73565b602060405180830381865afa15801561020b573d6000803e3d6000fd5b505050506040513d601f19601f8201168201806040525081019061022f9190610f99565b90506001600160a01b0381166102605760405162461bcd60e51b815260040161025790610fee565b60405180910390fd5b6102e281826001600160a01b03166370a08231306040518263ffffffff1660e01b81526004016102909190610e4c565b602060405180830381865afa1580156102ad573d6000803e3d6000fd5b505050506040513d601f19601f820116820180604052508101906102d19190611009565b6001600160a01b03841691906106ab565b600080826001600160a01b03166389afcb44306040518263ffffffff1660e01b81526004016103119190610e4c565b60408051808303816000875af115801561032f573d6000803e3d6000fd5b505050506040513d601f19601f82011682018060405250810190610353919061102a565b915091506103966040518060400160405280601381526020017f706f6c69637920746f6b656e20616d6f756e740000000000000000000000000081525083610733565b6103d56040518060400160405280600a81526020017f75736420616d6f756e740000000000000000000000000000000000000000000081525082610733565b60006103e3868685306107a6565b90506104246040518060400160405280600f81526020017f73776170206f757420616d6f756e74000000000000000000000000000000000081525082610733565b6067546040517f70a082310000000000000000000000000000000000000000000000000000000081526104c7916001600160a01b0390811691908816906370a0823190610475903090600401610e4c565b602060405180830381865afa158015610492573d6000803e3d6000fd5b505050506040513d601f19601f820116820180604052508101906104b69190611009565b6001600160a01b03881691906106ab565b7f164bcdcd46149eafbf59dd32071ba9e0571d25241bfa1f49e12a2ead6afb283a3387878686866040516105009695949392919061105d565b60405180910390a1505050505050565b565b6033546001600160a01b0316331461053c5760405162461bcd60e51b8152600401610257906110e7565b6105106000610b53565b6033546001600160a01b031633146105705760405162461bcd60e51b8152600401610257906110e7565b6105846001600160a01b03831633836106ab565b5050565b600054610100900460ff166105a35760005460ff16156105a7565b303b155b6105c35760405162461bcd60e51b815260040161025790611151565b600054610100900460ff161580156105e5576000805461ffff19166101011790555b6105ed610bb2565b606580546001600160a01b0380871673ffffffffffffffffffffffffffffffffffffffff19928316179092556066805486841690831617905560678054928516929091169190911790558015610649576000805461ff00191690555b50505050565b6033546001600160a01b031633146106795760405162461bcd60e51b8152600401610257906110e7565b6001600160a01b03811661069f5760405162461bcd60e51b8152600401610257906111b9565b6106a881610b53565b50565b61072e8363a9059cbb60e01b84846040516024016106ca9291906111c9565b60408051601f198184030181529190526020810180517bffffffffffffffffffffffffffffffffffffffffffffffffffffffff167fffffffff0000000000000000000000000000000000000000000000000000000090931692909217909152610be1565b505050565b6105848282604051602401610749929190611242565b60408051601f198184030181529190526020810180517bffffffffffffffffffffffffffffffffffffffffffffffffffffffff167f9710a9d000000000000000000000000000000000000000000000000000000000179052610c70565b60665460405163b4f69a2f60e01b815260009182916001600160a01b039091169063b4f69a2f906107dd9089908990600401610f73565b602060405180830381865afa1580156107fa573d6000803e3d6000fd5b505050506040513d601f19601f8201168201806040525081019061081e9190610f99565b90506001600160a01b0381166108465760405162461bcd60e51b815260040161025790610fee565b600080826001600160a01b0316630902f1ac6040518163ffffffff1660e01b81526004016040805180830381865afa158015610886573d6000803e3d6000fd5b505050506040513d601f19601f820116820180604052508101906108aa9190611283565b6dffffffffffffffffffffffffffff1691506dffffffffffffffffffffffffffff16915061090d6040518060400160405280600881526020017f726573657276653000000000000000000000000000000000000000000000000081525083610733565b61094c6040518060400160405280600881526020017f726573657276653100000000000000000000000000000000000000000000000081525082610733565b6000836001600160a01b031663978bbdb96040518163ffffffff1660e01b8152600401602060405180830381865afa15801561098c573d6000803e3d6000fd5b505050506040513d601f19601f820116820180604052508101906109b09190611009565b90506109f16040518060400160405280600881526020017f666565207261746500000000000000000000000000000000000000000000000081525082610733565b60006109ff826103e86112cc565b610a0990896112e3565b9050610a4a6040518060400160405280600f81526020017f616d6f756e74496e57697468466565000000000000000000000000000000000081525082610733565b80610a57856103e86112e3565b610a619190611302565b610a6b84836112e3565b610a759190611330565b9550610ab66040518060400160405280600981526020017f616d6f756e744f7574000000000000000000000000000000000000000000000081525087610733565b610aca6001600160a01b038b16868a6106ab565b6040517f6d9a640a0000000000000000000000000000000000000000000000000000000081526001600160a01b03861690636d9a640a90610b14906000908a908c90600401611359565b600060405180830381600087803b158015610b2e57600080fd5b505af1158015610b42573d6000803e3d6000fd5b505050505050505050949350505050565b603380546001600160a01b0383811673ffffffffffffffffffffffffffffffffffffffff19831681179093556040519116919082907f8be0079c531659141344cd1fd0a4f28419497f9722a3daafe3b4186f6b6457e090600090a35050565b600054610100900460ff16610bd95760405162461bcd60e51b8152600401610257906113d9565b610510610c91565b6000610c36826040518060400160405280602081526020017f5361666545524332303a206c6f772d6c6576656c2063616c6c206661696c6564815250856001600160a01b0316610cc19092919063ffffffff16565b80519091501561072e5780806020019051810190610c5491906113fc565b61072e5760405162461bcd60e51b815260040161025790611475565b80516a636f6e736f6c652e6c6f67602083016000808483855afa5050505050565b600054610100900460ff16610cb85760405162461bcd60e51b8152600401610257906113d9565b61051033610b53565b6060610cd08484600085610cda565b90505b9392505050565b606082471015610cfc5760405162461bcd60e51b8152600401610257906114dd565b843b610d1a5760405162461bcd60e51b81526004016102579061151f565b600080866001600160a01b03168587604051610d369190611551565b60006040518083038185875af1925050503d8060008114610d73576040519150601f19603f3d011682016040523d82523d6000602084013e610d78565b606091505b5091509150610d88828286610d95565b925050505b949350505050565b60608315610da4575081610cd3565b825115610db45782518084602001fd5b8160405162461bcd60e51b8152600401610257919061155b565b60006001600160a01b0382165b92915050565b610dea81610dce565b81146106a857600080fd5b8035610ddb81610de1565b60008060408385031215610e1657610e16600080fd5b6000610e228585610df5565b9250506020610e3385828601610df5565b9150509250929050565b610e4681610dce565b82525050565b60208101610ddb8284610e3d565b80610dea565b8035610ddb81610e5a565b60008060408385031215610e8157610e81600080fd5b6000610e8d8585610df5565b9250506020610e3385828601610e60565b600080600060608486031215610eb657610eb6600080fd5b6000610ec28686610df5565b9350506020610ed386828701610df5565b9250506040610ee486828701610df5565b9150509250925092565b80610e46565b60208101610ddb8284610eee565b6000610ddb6001600160a01b038316610f19565b90565b6001600160a01b031690565b6000610ddb82610f02565b6000610ddb82610f25565b610e4681610f30565b60208101610ddb8284610f3b565b600060208284031215610f6757610f67600080fd5b6000610d8d8484610df5565b60408101610f818285610e3d565b610cd36020830184610e3d565b8051610ddb81610de1565b600060208284031215610fae57610fae600080fd5b6000610d8d8484610f8e565b600e8152602081017f50616972206e6f74206578697374000000000000000000000000000000000000815290505b60200190565b60208082528101610ddb81610fba565b8051610ddb81610e5a565b60006020828403121561101e5761101e600080fd5b6000610d8d8484610ffe565b6000806040838503121561104057611040600080fd5b600061104c8585610ffe565b9250506020610e3385828601610ffe565b60c0810161106b8289610e3d565b6110786020830188610e3d565b6110856040830187610e3d565b6110926060830186610eee565b61109f6080830185610eee565b6110ac60a0830184610eee565b979650505050505050565b60208082527f4f776e61626c653a2063616c6c6572206973206e6f7420746865206f776e65729101908152610fe8565b60208082528101610ddb816110b7565b602e8152602081017f496e697469616c697a61626c653a20636f6e747261637420697320616c72656181527f647920696e697469616c697a6564000000000000000000000000000000000000602082015290505b60400190565b60208082528101610ddb816110f7565b60268152602081017f4f776e61626c653a206e6577206f776e657220697320746865207a65726f206181527f64647265737300000000000000000000000000000000000000000000000000006020820152905061114b565b60208082528101610ddb81611161565b604081016111d78285610e3d565b610cd36020830184610eee565b60005b838110156111ff5781810151838201526020016111e7565b838111156106495750506000910152565b600061121a825190565b8084526020840193506112318185602086016111e4565b601f01601f19169290920192915050565b604080825281016112538185611210565b9050610cd36020830184610eee565b6dffffffffffffffffffffffffffff8116610dea565b8051610ddb81611262565b6000806040838503121561129957611299600080fd5b60006112a58585611278565b9250506020610e3385828601611278565b634e487b7160e01b600052601160045260246000fd5b6000828210156112de576112de6112b6565b500390565b60008160001904831182151516156112fd576112fd6112b6565b500290565b60008219821115611315576113156112b6565b500190565b634e487b7160e01b600052601260045260246000fd5b60008261133f5761133f61131a565b500490565b6000610ddb610f168381565b610e4681611344565b606081016113678286611350565b6113746020830185610eee565b610d8d6040830184610e3d565b602b8152602081017f496e697469616c697a61626c653a20636f6e7472616374206973206e6f74206981527f6e697469616c697a696e670000000000000000000000000000000000000000006020820152905061114b565b60208082528101610ddb81611381565b801515610dea565b8051610ddb816113e9565b60006020828403121561141157611411600080fd5b6000610d8d84846113f1565b602a8152602081017f5361666545524332303a204552433230206f7065726174696f6e20646964206e81527f6f742073756363656564000000000000000000000000000000000000000000006020820152905061114b565b60208082528101610ddb8161141d565b60268152602081017f416464726573733a20696e73756666696369656e742062616c616e636520666f81527f722063616c6c00000000000000000000000000000000000000000000000000006020820152905061114b565b60208082528101610ddb81611485565b601d8152602081017f416464726573733a2063616c6c20746f206e6f6e2d636f6e747261637400000081529050610fe8565b60208082528101610ddb816114ed565b6000611539825190565b6115478185602086016111e4565b9290920192915050565b610ddb818361152f565b60208082528101610cd3818461121056fea26469706673582212206245f963b850404da22f07e39b532a0896677ad6a3e9e88038f621677c9098e864736f6c634300080a0033",
  "devdoc": {
    "details": "This contract will receive the transaction fee from swap pool      Then it will transfer",
    "kind": "dev",
    "methods": {
      "owner()": {
        "details": "Returns the address of the current owner."
      },
      "renounceOwnership()": {
        "details": "Leaves the contract without owner. It will not be possible to call `onlyOwner` functions anymore. Can only be called by the current owner. NOTE: Renouncing ownership will leave the contract without an owner, thereby removing any functionality that is only available to the owner."
      },
      "transferOwnership(address)": {
        "details": "Transfers ownership of the contract to a new account (`newOwner`). Can only be called by the current owner."
      }
    },
    "title": "Degis Maker Contract",
    "version": 1
  },
  "userdoc": {
    "kind": "user",
    "methods": {},
    "version": 1
  },
  "storageLayout": {
    "storage": [
      {
        "astId": 2523,
        "contract": "contracts/income/IncomeMaker.sol:IncomeMaker",
        "label": "_initialized",
        "offset": 0,
        "slot": "0",
        "type": "t_bool"
      },
      {
        "astId": 2526,
        "contract": "contracts/income/IncomeMaker.sol:IncomeMaker",
        "label": "_initializing",
        "offset": 1,
        "slot": "0",
        "type": "t_bool"
      },
      {
        "astId": 3044,
        "contract": "contracts/income/IncomeMaker.sol:IncomeMaker",
        "label": "__gap",
        "offset": 0,
        "slot": "1",
        "type": "t_array(t_uint256)50_storage"
      },
      {
        "astId": 2403,
        "contract": "contracts/income/IncomeMaker.sol:IncomeMaker",
        "label": "_owner",
        "offset": 0,
        "slot": "51",
        "type": "t_address"
      },
      {
        "astId": 2515,
        "contract": "contracts/income/IncomeMaker.sol:IncomeMaker",
        "label": "__gap",
        "offset": 0,
        "slot": "52",
        "type": "t_array(t_uint256)49_storage"
      },
      {
        "astId": 16193,
        "contract": "contracts/income/IncomeMaker.sol:IncomeMaker",
        "label": "router",
        "offset": 0,
        "slot": "101",
        "type": "t_contract(INaughtyRouter)29466"
      },
      {
        "astId": 16196,
        "contract": "contracts/income/IncomeMaker.sol:IncomeMaker",
        "label": "factory",
        "offset": 0,
        "slot": "102",
        "type": "t_contract(INaughtyFactory)29298"
      },
      {
        "astId": 16198,
        "contract": "contracts/income/IncomeMaker.sol:IncomeMaker",
        "label": "incomeSharingVault",
        "offset": 0,
        "slot": "103",
        "type": "t_address"
      },
      {
        "astId": 16201,
        "contract": "contracts/income/IncomeMaker.sol:IncomeMaker",
        "label": "PRICE_SCALE",
        "offset": 0,
        "slot": "104",
        "type": "t_uint256"
      }
    ],
    "types": {
      "t_address": {
        "encoding": "inplace",
        "label": "address",
        "numberOfBytes": "20"
      },
      "t_array(t_uint256)49_storage": {
        "base": "t_uint256",
        "encoding": "inplace",
        "label": "uint256[49]",
        "numberOfBytes": "1568"
      },
      "t_array(t_uint256)50_storage": {
        "base": "t_uint256",
        "encoding": "inplace",
        "label": "uint256[50]",
        "numberOfBytes": "1600"
      },
      "t_bool": {
        "encoding": "inplace",
        "label": "bool",
        "numberOfBytes": "1"
      },
      "t_contract(INaughtyFactory)29298": {
        "encoding": "inplace",
        "label": "contract INaughtyFactory",
        "numberOfBytes": "20"
      },
      "t_contract(INaughtyRouter)29466": {
        "encoding": "inplace",
        "label": "contract INaughtyRouter",
        "numberOfBytes": "20"
      },
      "t_uint256": {
        "encoding": "inplace",
        "label": "uint256",
        "numberOfBytes": "32"
      }
    }
  }
}