{
  "address": "0x19BB2eAc11d52C1b881e9a85D190CcBe6A0EAfCA",
  "abi": [
    {
      "inputs": [],
      "name": "DIS__NotEnoughVeDEG",
      "type": "error"
    },
    {
      "inputs": [],
      "name": "DIS__PoolNotAvailable",
      "type": "error"
    },
    {
      "inputs": [],
      "name": "DIS__WrongSpeed",
      "type": "error"
    },
    {
      "inputs": [],
      "name": "DIS__ZeroAmount",
      "type": "error"
    },
    {
      "anonymous": false,
      "inputs": [
        {
          "indexed": false,
          "internalType": "address",
          "name": "user",
          "type": "address"
        },
        {
          "indexed": false,
          "internalType": "uint256",
          "name": "poolId",
          "type": "uint256"
        },
        {
          "indexed": false,
          "internalType": "uint256",
          "name": "amount",
          "type": "uint256"
        }
      ],
      "name": "Deposit",
      "type": "event"
    },
    {
      "anonymous": false,
      "inputs": [
        {
          "indexed": false,
          "internalType": "address",
          "name": "user",
          "type": "address"
        },
        {
          "indexed": false,
          "internalType": "uint256",
          "name": "poolId",
          "type": "uint256"
        },
        {
          "indexed": false,
          "internalType": "uint256",
          "name": "amount",
          "type": "uint256"
        }
      ],
      "name": "Harvest",
      "type": "event"
    },
    {
      "anonymous": false,
      "inputs": [
        {
          "indexed": false,
          "internalType": "uint256",
          "name": "poolId",
          "type": "uint256"
        },
        {
          "indexed": false,
          "internalType": "address",
          "name": "rewardToken",
          "type": "address"
        }
      ],
      "name": "NewRewardPoolStart",
      "type": "event"
    },
    {
      "anonymous": false,
      "inputs": [
        {
          "indexed": true,
          "internalType": "address",
          "name": "previousOwner",
          "type": "address"
        },
        {
          "indexed": true,
          "internalType": "address",
          "name": "newOwner",
          "type": "address"
        }
      ],
      "name": "OwnershipTransferred",
      "type": "event"
    },
    {
      "anonymous": false,
      "inputs": [
        {
          "indexed": false,
          "internalType": "address",
          "name": "account",
          "type": "address"
        }
      ],
      "name": "Paused",
      "type": "event"
    },
    {
      "anonymous": false,
      "inputs": [
        {
          "indexed": false,
          "internalType": "uint256",
          "name": "poolId",
          "type": "uint256"
        },
        {
          "indexed": false,
          "internalType": "uint256",
          "name": "accRewardPerSecond",
          "type": "uint256"
        }
      ],
      "name": "PoolUpdated",
      "type": "event"
    },
    {
      "anonymous": false,
      "inputs": [
        {
          "indexed": false,
          "internalType": "uint256",
          "name": "poolId",
          "type": "uint256"
        },
        {
          "indexed": false,
          "internalType": "uint256",
          "name": "rewardPerSecond",
          "type": "uint256"
        }
      ],
      "name": "RewardSpeedSet",
      "type": "event"
    },
    {
      "anonymous": false,
      "inputs": [
        {
          "indexed": false,
          "internalType": "uint256",
          "name": "oldRoundTime",
          "type": "uint256"
        },
        {
          "indexed": false,
          "internalType": "uint256",
          "name": "newRoundTime",
          "type": "uint256"
        }
      ],
      "name": "RoundTimeChanged",
      "type": "event"
    },
    {
      "anonymous": false,
      "inputs": [
        {
          "indexed": false,
          "internalType": "address",
          "name": "account",
          "type": "address"
        }
      ],
      "name": "Unpaused",
      "type": "event"
    },
    {
      "anonymous": false,
      "inputs": [
        {
          "indexed": false,
          "internalType": "address",
          "name": "user",
          "type": "address"
        },
        {
          "indexed": false,
          "internalType": "uint256",
          "name": "poolId",
          "type": "uint256"
        },
        {
          "indexed": false,
          "internalType": "uint256",
          "name": "amount",
          "type": "uint256"
        }
      ],
      "name": "Withdraw",
      "type": "event"
    },
    {
      "inputs": [],
      "name": "SCALE",
      "outputs": [
        {
          "internalType": "uint256",
          "name": "",
          "type": "uint256"
        }
      ],
      "stateMutability": "view",
      "type": "function"
    },
    {
      "inputs": [
        {
          "internalType": "uint256",
          "name": "_poolId",
          "type": "uint256"
        },
        {
          "internalType": "uint256",
          "name": "_amount",
          "type": "uint256"
        }
      ],
      "name": "deposit",
      "outputs": [],
      "stateMutability": "nonpayable",
      "type": "function"
    },
    {
      "inputs": [
        {
          "internalType": "uint256",
          "name": "_poolId",
          "type": "uint256"
        },
        {
          "internalType": "address",
          "name": "_to",
          "type": "address"
        }
      ],
      "name": "harvest",
      "outputs": [],
      "stateMutability": "nonpayable",
      "type": "function"
    },
    {
      "inputs": [
        {
          "internalType": "address",
          "name": "_veDEG",
          "type": "address"
        }
      ],
      "name": "initialize",
      "outputs": [],
      "stateMutability": "nonpayable",
      "type": "function"
    },
    {
      "inputs": [
        {
          "internalType": "uint256",
          "name": "",
          "type": "uint256"
        }
      ],
      "name": "lastRewardBalance",
      "outputs": [
        {
          "internalType": "uint256",
          "name": "",
          "type": "uint256"
        }
      ],
      "stateMutability": "view",
      "type": "function"
    },
    {
      "inputs": [],
      "name": "nextPool",
      "outputs": [
        {
          "internalType": "uint256",
          "name": "",
          "type": "uint256"
        }
      ],
      "stateMutability": "view",
      "type": "function"
    },
    {
      "inputs": [],
      "name": "owner",
      "outputs": [
        {
          "internalType": "address",
          "name": "",
          "type": "address"
        }
      ],
      "stateMutability": "view",
      "type": "function"
    },
    {
      "inputs": [],
      "name": "paused",
      "outputs": [
        {
          "internalType": "bool",
          "name": "",
          "type": "bool"
        }
      ],
      "stateMutability": "view",
      "type": "function"
    },
    {
      "inputs": [
        {
          "internalType": "uint256",
          "name": "_poolId",
          "type": "uint256"
        },
        {
          "internalType": "address",
          "name": "_user",
          "type": "address"
        }
      ],
      "name": "pendingReward",
      "outputs": [
        {
          "internalType": "uint256",
          "name": "",
          "type": "uint256"
        }
      ],
      "stateMutability": "view",
      "type": "function"
    },
    {
      "inputs": [
        {
          "internalType": "uint256",
          "name": "",
          "type": "uint256"
        }
      ],
      "name": "pools",
      "outputs": [
        {
          "internalType": "bool",
          "name": "available",
          "type": "bool"
        },
        {
          "internalType": "address",
          "name": "rewardToken",
          "type": "address"
        },
        {
          "internalType": "uint256",
          "name": "totalAmount",
          "type": "uint256"
        },
        {
          "internalType": "uint256",
          "name": "rewardPerSecond",
          "type": "uint256"
        },
        {
          "internalType": "uint256",
          "name": "accRewardPerShare",
          "type": "uint256"
        },
        {
          "internalType": "uint256",
          "name": "lastRewardTimestamp",
          "type": "uint256"
        }
      ],
      "stateMutability": "view",
      "type": "function"
    },
    {
      "inputs": [],
      "name": "renounceOwnership",
      "outputs": [],
      "stateMutability": "nonpayable",
      "type": "function"
    },
    {
      "inputs": [],
      "name": "roundTime",
      "outputs": [
        {
          "internalType": "uint256",
          "name": "",
          "type": "uint256"
        }
      ],
      "stateMutability": "view",
      "type": "function"
    },
    {
      "inputs": [
        {
          "internalType": "uint256",
          "name": "_poolId",
          "type": "uint256"
        },
        {
          "internalType": "uint256",
          "name": "_rewardPerSecond",
          "type": "uint256"
        }
      ],
      "name": "setRewardSpeed",
      "outputs": [],
      "stateMutability": "nonpayable",
      "type": "function"
    },
    {
      "inputs": [
        {
          "internalType": "uint256",
          "name": "_roundTime",
          "type": "uint256"
        }
      ],
      "name": "setRoundTime",
      "outputs": [],
      "stateMutability": "nonpayable",
      "type": "function"
    },
    {
      "inputs": [
        {
          "internalType": "address",
          "name": "_rewardToken",
          "type": "address"
        }
      ],
      "name": "startPool",
      "outputs": [],
      "stateMutability": "nonpayable",
      "type": "function"
    },
    {
      "inputs": [
        {
          "internalType": "address",
          "name": "newOwner",
          "type": "address"
        }
      ],
      "name": "transferOwnership",
      "outputs": [],
      "stateMutability": "nonpayable",
      "type": "function"
    },
    {
      "inputs": [
        {
          "internalType": "uint256",
          "name": "_poolId",
          "type": "uint256"
        }
      ],
      "name": "updatePool",
      "outputs": [],
      "stateMutability": "nonpayable",
      "type": "function"
    },
    {
      "inputs": [
        {
          "internalType": "uint256",
          "name": "",
          "type": "uint256"
        },
        {
          "internalType": "address",
          "name": "",
          "type": "address"
        }
      ],
      "name": "users",
      "outputs": [
        {
          "internalType": "uint256",
          "name": "totalAmount",
          "type": "uint256"
        },
        {
          "internalType": "uint256",
          "name": "rewardDebt",
          "type": "uint256"
        }
      ],
      "stateMutability": "view",
      "type": "function"
    },
    {
      "inputs": [],
      "name": "veDEG",
      "outputs": [
        {
          "internalType": "contract IVeDEG",
          "name": "",
          "type": "address"
        }
      ],
      "stateMutability": "view",
      "type": "function"
    },
    {
      "inputs": [
        {
          "internalType": "uint256",
          "name": "_poolId",
          "type": "uint256"
        },
        {
          "internalType": "uint256",
          "name": "_amount",
          "type": "uint256"
        }
      ],
      "name": "withdraw",
      "outputs": [],
      "stateMutability": "nonpayable",
      "type": "function"
    },
    {
      "inputs": [
        {
          "internalType": "uint256",
          "name": "_poolId",
          "type": "uint256"
        }
      ],
      "name": "withdrawAll",
      "outputs": [],
      "stateMutability": "nonpayable",
      "type": "function"
    }
  ],
  "transactionHash": "0x2a2590a80569e15c9df9b45958176118fdc2c5314d2b6c06115ae388463aa59e",
  "args": [],
  "numDeployments": 2,
  "solcInputHash": "d30eae2253c8c3c956932b9da24467c4",
  "bytecode": "0x608060405234801561001057600080fd5b50611dc5806100206000396000f3fe608060405234801561001057600080fd5b50600436106101775760003560e01c8063958e2d31116100d8578063d03a7d251161008c578063ee5f8c8f11610066578063ee5f8c8f1461036e578063f2fde38b14610377578063fa65cb041461038a57600080fd5b8063d03a7d2514610334578063e2bbb15814610347578063eced55261461035a57600080fd5b8063ac4afa38116100bd578063ac4afa3814610283578063b9d02df4146102e1578063c4d66de81461032157600080fd5b8063958e2d311461025d57806398969e821461027057600080fd5b806351eb05a61161012f5780635e3df141116101145780635e3df14114610229578063715018a61461023c5780638da5cb5b1461024457600080fd5b806351eb05a6146102035780635c975abb1461021657600080fd5b8063394701471161016057806339470147146101b0578063441a3e70146101d05780634f3e7ba6146101e357600080fd5b806318fccc761461017c578063243d658514610191575b600080fd5b61018f61018a3660046116fa565b61039d565b005b61019a60cd5481565b6040516101a7919061173f565b60405180910390f35b61019a6101be36600461174d565b60ce6020526000908152604090205481565b61018f6101de36600461176e565b610533565b60ca546101f6906001600160a01b031681565b6040516101a791906117c0565b61018f61021136600461174d565b61079c565b60655460ff166040516101a791906117d6565b61018f6102373660046117e4565b610915565b61018f6109f1565b6033546001600160a01b03166040516101a7919061180e565b61018f61026b36600461174d565b610a27565b61019a61027e3660046116fa565b610a4f565b6102cf61029136600461174d565b60cb602052600090815260409020805460018201546002830154600384015460049094015460ff8416946101009094046001600160a01b0316939086565b6040516101a79695949392919061181c565b6103136102ef3660046116fa565b60cc6020908152600092835260408084209091529082529020805460019091015482565b6040516101a792919061186b565b61018f61032f3660046117e4565b610c50565b61018f61034236600461176e565b610d08565b61018f61035536600461176e565b610e69565b61019a6c0c9f2c9cd04674edea4000000081565b61019a60c95481565b61018f6103853660046117e4565b6111a8565b61018f61039836600461174d565b611201565b6002609754036103c85760405162461bcd60e51b81526004016103bf906118ba565b60405180910390fd5b600260975560655460ff16156103f05760405162461bcd60e51b81526004016103bf906118fc565b6103f98261079c565b600082815260cb60209081526040808320815160c081018352815460ff81161515825261010090046001600160a01b031681850152600180830154828501526002830154606083015260038301546080830190815260049093015460a083015287865260cc855283862033875290945291842092830154905183549294926c0c9f2c9cd04674edea400000009161048f91611922565b6104999190611957565b6104a3919061196b565b90506c0c9f2c9cd04674edea40000000836080015183600001546104c79190611922565b6104d19190611957565b600183015560208301516000906104e990868461126b565b90507f71bab65ced2e5750775a0613be067df48ef06cf92a496ebf7663ae066092495433878360405161051e93929190611982565b60405180910390a15050600160975550505050565b6002609754036105555760405162461bcd60e51b81526004016103bf906118ba565b6002609755600081900361057c57604051631ec840e160e01b815260040160405180910390fd5b600082815260cb6020908152604080832060cc835281842033855290925290912080548311156105bf5760405163445d638d60e01b815260040160405180910390fd5b6105c88461079c565b600081600101546c0c9f2c9cd04674edea40000000836000015485600301546105f19190611922565b6105fb9190611957565b610605919061196b565b83549091506000906106269061010090046001600160a01b0316338461126b565b90508060ce6000888152602001908152602001600020600082825461064b919061196b565b90915550506040517f71bab65ced2e5750775a0613be067df48ef06cf92a496ebf7663ae06609249549061068490339089908590611982565b60405180910390a1848460010160008282546106a0919061196b565b90915550508254859084906000906106b990849061196b565b9091555050600384015483546c0c9f2c9cd04674edea40000000916106dd91611922565b6106e79190611957565b600184015560ca546040517f97b85b6a0000000000000000000000000000000000000000000000000000000081526001600160a01b03909116906397b85b6a9061073790339089906004016119aa565b600060405180830381600087803b15801561075157600080fd5b505af1158015610765573d6000803e3d6000fd5b505050507ff279e6a1f5e320cca91135676d9cb6e44ca8a08c0b88342bcdb1144f6511b56833878760405161051e93929190611982565b600081815260cb60205260409020600481015442116107b9575050565b600181015481546040516370a0823160e01b815260009161010090046001600160a01b0316906370a08231906107f390309060040161180e565b602060405180830381865afa158015610810573d6000803e3d6000fd5b505050506040513d601f19601f8201168201806040525081019061083491906119c3565b600085815260ce602052604090205490915081111580610852575081155b156108635750504260049091015550565b600084815260ce602052604081205461087c908361196b565b9050826108966c0c9f2c9cd04674edea4000000083611922565b6108a09190611957565b8460030160008282546108b391906119e4565b9091555050426004850155600085815260ce602052604090819020839055600385015490517f7fa9647ec1cc14e3822b46d05a2b9d4e019bde8875c0088c46b6503d71bf1722916109069188919061186b565b60405180910390a15050505050565b6033546001600160a01b0316331461093f5760405162461bcd60e51b81526004016103bf90611a2c565b60cd805460009160cb9183918261095583611a3c565b9091555081526020810191909152604001600020805460017fffffffffffffffffffffff0000000000000000000000000000000000000000009091166101006001600160a01b03861602178117825560cd549192507fc152e0e959f429700442d55214616143637a2b01940082fcaaba253ab85c17b9916109d6919061196b565b836040516109e5929190611a55565b60405180910390a15050565b6033546001600160a01b03163314610a1b5760405162461bcd60e51b81526004016103bf90611a2c565b610a256000611320565b565b600081815260cc60209081526040808320338452909152902054610a4c908290610533565b50565b600082815260cb60209081526040808320815160c081018352815460ff81161515825261010090046001600160a01b03169381019390935260018101549183019190915260028101546060830152600381015460808301526004015460a082018190521580610ac157508060a0015142105b15610ad0576000915050610c4a565b60808101516040820151600003610aec57600092505050610c4a565b600085815260cc602090815260408083206001600160a01b0380891685529083528184208251808401845281548152600190910154818501529286015191516370a0823160e01b81529293929116906370a0823190610b4f90309060040161180e565b602060405180830381865afa158015610b6c573d6000803e3d6000fd5b505050506040513d601f19601f82011682018060405250810190610b9091906119c3565b600088815260ce60205260409020549091508103610bb5576000945050505050610c4a565b600087815260ce6020526040812054610bce908361196b565b6040860151909150610bed6c0c9f2c9cd04674edea4000000083611922565b610bf79190611957565b610c0190856119e4565b9350600083602001516c0c9f2c9cd04674edea40000000868660000151610c289190611922565b610c329190611957565b610c3c919061196b565b9650610c4a95505050505050565b92915050565b600054610100900460ff16610c6b5760005460ff1615610c6f565b303b155b610c8b5760405162461bcd60e51b81526004016103bf90611aca565b600054610100900460ff16158015610cad576000805461ffff19166101011790555b610cb561137f565b610cbd6113ae565b610cc56113dd565b60ca805473ffffffffffffffffffffffffffffffffffffffff19166001600160a01b038416179055600160cd558015610d04576000805461ff00191690555b5050565b610d118261079c565b600082815260cb6020908152604091829020825160c081018452815460ff81161515825261010090046001600160a01b0316928101839052600182015481850152600282015460608201526003820154608082015260049182015460a082015292516370a0823160e01b81526370a0823191610d8f9130910161180e565b602060405180830381865afa158015610dac573d6000803e3d6000fd5b505050506040513d601f19601f82011682018060405250810190610dd091906119c3565b8260c954610dde9190611922565b1115610e16576040517f58a110e800000000000000000000000000000000000000000000000000000000815260040160405180910390fd5b600083815260cb602052604090819020600201839055517f01daaf9017881672e5509b604c12ed0f4eab658d04c732febc698b8ed42397e390610e5c908590859061186b565b60405180910390a1505050565b600260975403610e8b5760405162461bcd60e51b81526004016103bf906118ba565b6002609755600082815260cb602052604090205460ff16610ed8576040517f4aa48a8100000000000000000000000000000000000000000000000000000000815260040160405180910390fd5b80600003610ef957604051631ec840e160e01b815260040160405180910390fd5b60ca546040516370a0823160e01b815282916001600160a01b0316906370a0823190610f2990339060040161180e565b602060405180830381865afa158015610f46573d6000803e3d6000fd5b505050506040513d601f19601f82011682018060405250810190610f6a91906119c3565b1015610f895760405163445d638d60e01b815260040160405180910390fd5b610f928261079c565b60ca546040517f78ad54c20000000000000000000000000000000000000000000000000000000081526001600160a01b03909116906378ad54c290610fdd90339085906004016119aa565b600060405180830381600087803b158015610ff757600080fd5b505af115801561100b573d6000803e3d6000fd5b505050600083815260cb6020908152604080832060cc83528184203385529092529091208054919250901561110157600081600101546c0c9f2c9cd04674edea40000000836000015485600301546110639190611922565b61106d9190611957565b611077919061196b565b83549091506000906110989061010090046001600160a01b0316338461126b565b90508060ce600088815260200190815260200160002060008282546110bd919061196b565b90915550506040517f71bab65ced2e5750775a0613be067df48ef06cf92a496ebf7663ae0660924954906110f690339089908590611982565b60405180910390a150505b8282600101600082825461111591906119e4565b909155505080548390829060009061112e9084906119e4565b9091555050805460038301546c0c9f2c9cd04674edea400000009161115291611922565b61115c9190611957565b60018201556040517f90890809c654f11d6e72a28fa60149770a0d11ec6c92319d6ceb2bb0a4ea1a159061119590339087908790611982565b60405180910390a1505060016097555050565b6033546001600160a01b031633146111d25760405162461bcd60e51b81526004016103bf90611a2c565b6001600160a01b0381166111f85760405162461bcd60e51b81526004016103bf90611b32565b610a4c81611320565b6033546001600160a01b0316331461122b5760405162461bcd60e51b81526004016103bf90611a2c565b7f0591d85ff40c6aa3ea8d23e0b0e8224ffef96db2722859b2752cfed2e8ae004d60c9548260405161125e92919061186b565b60405180910390a160c955565b600080846001600160a01b03166370a08231306040518263ffffffff1660e01b815260040161129a919061180e565b602060405180830381865afa1580156112b7573d6000803e3d6000fd5b505050506040513d601f19601f820116820180604052508101906112db91906119c3565b905080831115611300576112f96001600160a01b038616858361140c565b9050611319565b6113146001600160a01b038616858561140c565b829150505b9392505050565b603380546001600160a01b0383811673ffffffffffffffffffffffffffffffffffffffff19831681179093556040519116919082907f8be0079c531659141344cd1fd0a4f28419497f9722a3daafe3b4186f6b6457e090600090a35050565b600054610100900460ff166113a65760405162461bcd60e51b81526004016103bf90611b9a565b610a25611494565b600054610100900460ff166113d55760405162461bcd60e51b81526004016103bf90611b9a565b610a256114c4565b600054610100900460ff166114045760405162461bcd60e51b81526004016103bf90611b9a565b610a256114f7565b61148f8363a9059cbb60e01b848460405160240161142b9291906119aa565b60408051601f198184030181529190526020810180517bffffffffffffffffffffffffffffffffffffffffffffffffffffffff167fffffffff0000000000000000000000000000000000000000000000000000000090931692909217909152611525565b505050565b600054610100900460ff166114bb5760405162461bcd60e51b81526004016103bf90611b9a565b610a2533611320565b600054610100900460ff166114eb5760405162461bcd60e51b81526004016103bf90611b9a565b6065805460ff19169055565b600054610100900460ff1661151e5760405162461bcd60e51b81526004016103bf90611b9a565b6001609755565b600061157a826040518060400160405280602081526020017f5361666545524332303a206c6f772d6c6576656c2063616c6c206661696c6564815250856001600160a01b03166115b49092919063ffffffff16565b80519091501561148f57808060200190518101906115989190611bbd565b61148f5760405162461bcd60e51b81526004016103bf90611c36565b60606115c384846000856115cb565b949350505050565b6060824710156115ed5760405162461bcd60e51b81526004016103bf90611c9e565b843b61160b5760405162461bcd60e51b81526004016103bf90611ce0565b600080866001600160a01b031685876040516116279190611d42565b60006040518083038185875af1925050503d8060008114611664576040519150601f19603f3d011682016040523d82523d6000602084013e611669565b606091505b5091509150611679828286611684565b979650505050505050565b60608315611693575081611319565b8251156116a35782518084602001fd5b8160405162461bcd60e51b81526004016103bf9190611d7e565b805b8114610a4c57600080fd5b8035610c4a816116bd565b60006001600160a01b038216610c4a565b6116bf816116d5565b8035610c4a816116e6565b6000806040838503121561171057611710600080fd5b600061171c85856116ca565b925050602061172d858286016116ef565b9150509250929050565b805b82525050565b60208101610c4a8284611737565b60006020828403121561176257611762600080fd5b60006115c384846116ca565b6000806040838503121561178457611784600080fd5b600061179085856116ca565b925050602061172d858286016116ca565b6000610c4a826116d5565b6000610c4a826117a1565b611739816117ac565b60208101610c4a82846117b7565b801515611739565b60208101610c4a82846117ce565b6000602082840312156117f9576117f9600080fd5b60006115c384846116ef565b611739816116d5565b60208101610c4a8284611805565b60c0810161182a82896117ce565b6118376020830188611805565b6118446040830187611737565b6118516060830186611737565b61185e6080830185611737565b61167960a0830184611737565b604081016118798285611737565b6113196020830184611737565b601f8152602081017f5265656e7472616e637947756172643a207265656e7472616e742063616c6c00815290505b60200190565b60208082528101610c4a81611886565b60108152602081017f5061757361626c653a2070617573656400000000000000000000000000000000815290506118b4565b60208082528101610c4a816118ca565b634e487b7160e01b600052601160045260246000fd5b600081600019048311821515161561193c5761193c61190c565b500290565b634e487b7160e01b600052601260045260246000fd5b60008261196657611966611941565b500490565b60008282101561197d5761197d61190c565b500390565b606081016119908286611805565b61199d6020830185611737565b6115c36040830184611737565b604081016118798285611805565b8051610c4a816116bd565b6000602082840312156119d8576119d8600080fd5b60006115c384846119b8565b600082198211156119f7576119f761190c565b500190565b60208082527f4f776e61626c653a2063616c6c6572206973206e6f7420746865206f776e657291019081526118b4565b60208082528101610c4a816119fc565b600060018201611a4e57611a4e61190c565b5060010190565b60408101611a638285611737565b6113196020830184611805565b602e8152602081017f496e697469616c697a61626c653a20636f6e747261637420697320616c72656181527f647920696e697469616c697a6564000000000000000000000000000000000000602082015290505b60400190565b60208082528101610c4a81611a70565b60268152602081017f4f776e61626c653a206e6577206f776e657220697320746865207a65726f206181527f646472657373000000000000000000000000000000000000000000000000000060208201529050611ac4565b60208082528101610c4a81611ada565b602b8152602081017f496e697469616c697a61626c653a20636f6e7472616374206973206e6f74206981527f6e697469616c697a696e6700000000000000000000000000000000000000000060208201529050611ac4565b60208082528101610c4a81611b42565b8015156116bf565b8051610c4a81611baa565b600060208284031215611bd257611bd2600080fd5b60006115c38484611bb2565b602a8152602081017f5361666545524332303a204552433230206f7065726174696f6e20646964206e81527f6f7420737563636565640000000000000000000000000000000000000000000060208201529050611ac4565b60208082528101610c4a81611bde565b60268152602081017f416464726573733a20696e73756666696369656e742062616c616e636520666f81527f722063616c6c000000000000000000000000000000000000000000000000000060208201529050611ac4565b60208082528101610c4a81611c46565b601d8152602081017f416464726573733a2063616c6c20746f206e6f6e2d636f6e7472616374000000815290506118b4565b60208082528101610c4a81611cae565b60005b83811015611d0b578181015183820152602001611cf3565b83811115611d1a576000848401525b50505050565b6000611d2a825190565b611d38818560208601611cf0565b9290920192915050565b610c4a8183611d20565b6000611d56825190565b808452602084019350611d6d818560208601611cf0565b601f01601f19169290920192915050565b602080825281016113198184611d4c56fea2646970667358221220b1adf21ad3975789ac0d70e6f74a19124b28d4b7c7fdd972339c37bf9188202964736f6c634300080d0033",
  "devdoc": {
    "kind": "dev",
    "methods": {
      "deposit(uint256,uint256)": {
        "params": {
          "_amount": "Amount of tokens to deposit",
          "_poolId": "Pool Id"
        }
      },
      "harvest(uint256,address)": {
        "params": {
          "_poolId": "Pool Id",
          "_to": "Reward receiver address"
        }
      },
      "owner()": {
        "details": "Returns the address of the current owner."
      },
      "paused()": {
        "details": "Returns true if the contract is paused, and false otherwise."
      },
      "pendingReward(uint256,address)": {
        "params": {
          "_poolId": "Pool Id",
          "_user": "User address"
        },
        "returns": {
          "_0": "pendingReward Amount of pending reward"
        }
      },
      "renounceOwnership()": {
        "details": "Leaves the contract without owner. It will not be possible to call `onlyOwner` functions anymore. Can only be called by the current owner. NOTE: Renouncing ownership will leave the contract without an owner, thereby removing any functionality that is only available to the owner."
      },
      "setRewardSpeed(uint256,uint256)": {
        "params": {
          "_poolId": "Pool id",
          "_rewardPerSecond": "Reward speed"
        }
      },
      "setRoundTime(uint256)": {
        "details": "Round time is only used for checking reward speed",
        "params": {
          "_roundTime": "Round time in seconds"
        }
      },
      "startPool(address)": {
        "details": "Normally there will be two pools          - USDC.e as reward (1)          - Shield as reward (2)",
        "params": {
          "_rewardToken": "Reward token address"
        }
      },
      "transferOwnership(address)": {
        "details": "Transfers ownership of the contract to a new account (`newOwner`). Can only be called by the current owner."
      },
      "updatePool(uint256)": {
        "params": {
          "_poolId": "Pool id"
        }
      },
      "withdraw(uint256,uint256)": {
        "params": {
          "_amount": "Amount to withdraw",
          "_poolId": "Pool Id"
        }
      },
      "withdrawAll(uint256)": {
        "params": {
          "_poolId": "Pool Id"
        }
      }
    },
    "title": "Degis Income Sharing Contract",
    "version": 1
  },
  "userdoc": {
    "kind": "user",
    "methods": {
      "deposit(uint256,uint256)": {
        "notice": "Deposit"
      },
      "harvest(uint256,address)": {
        "notice": "Harvest income reward"
      },
      "pendingReward(uint256,address)": {
        "notice": "Pending reward"
      },
      "setRewardSpeed(uint256,uint256)": {
        "notice": "Set reward speed for a pool"
      },
      "setRoundTime(uint256)": {
        "notice": "Set round time"
      },
      "startPool(address)": {
        "notice": "Start a new income sharing pool"
      },
      "updatePool(uint256)": {
        "notice": "Update pool"
      },
      "withdraw(uint256,uint256)": {
        "notice": "Withdraw the reward from the pool"
      },
      "withdrawAll(uint256)": {
        "notice": "Withdraw all veDEG"
      }
    },
    "notice": "This contract will receive part of the income from Degis products         And the income will be shared by DEG holders (in the form of veDEG)         It is designed to be an ever-lasting reward         At first the reward is USDC.e and later may be transferred to Shield         To enter the income sharing vault, you need to lock some veDEG             - When your veDEG is locked, it can not be withdrawed         The reward is distributed per second like a farming pool         The income will come from (to be updated)             - IncomeMaker: Collect swap fee in naughty price pool             - PolicyCore: Collect deposit/redeem fee in policy core",
    "version": 1
  },
  "storageLayout": {
    "storage": [
      {
        "astId": 2670,
        "contract": "contracts/income/IncomeSharingVaultV2.sol:IncomeSharingVaultV2",
        "label": "_initialized",
        "offset": 0,
        "slot": "0",
        "type": "t_bool"
      },
      {
        "astId": 2673,
        "contract": "contracts/income/IncomeSharingVaultV2.sol:IncomeSharingVaultV2",
        "label": "_initializing",
        "offset": 1,
        "slot": "0",
        "type": "t_bool"
      },
      {
        "astId": 3907,
        "contract": "contracts/income/IncomeSharingVaultV2.sol:IncomeSharingVaultV2",
        "label": "__gap",
        "offset": 0,
        "slot": "1",
        "type": "t_array(t_uint256)50_storage"
      },
      {
        "astId": 2550,
        "contract": "contracts/income/IncomeSharingVaultV2.sol:IncomeSharingVaultV2",
        "label": "_owner",
        "offset": 0,
        "slot": "51",
        "type": "t_address"
      },
      {
        "astId": 2662,
        "contract": "contracts/income/IncomeSharingVaultV2.sol:IncomeSharingVaultV2",
        "label": "__gap",
        "offset": 0,
        "slot": "52",
        "type": "t_array(t_uint256)49_storage"
      },
      {
        "astId": 2758,
        "contract": "contracts/income/IncomeSharingVaultV2.sol:IncomeSharingVaultV2",
        "label": "_paused",
        "offset": 0,
        "slot": "101",
        "type": "t_bool"
      },
      {
        "astId": 2847,
        "contract": "contracts/income/IncomeSharingVaultV2.sol:IncomeSharingVaultV2",
        "label": "__gap",
        "offset": 0,
        "slot": "102",
        "type": "t_array(t_uint256)49_storage"
      },
      {
        "astId": 2862,
        "contract": "contracts/income/IncomeSharingVaultV2.sol:IncomeSharingVaultV2",
        "label": "_status",
        "offset": 0,
        "slot": "151",
        "type": "t_uint256"
      },
      {
        "astId": 2906,
        "contract": "contracts/income/IncomeSharingVaultV2.sol:IncomeSharingVaultV2",
        "label": "__gap",
        "offset": 0,
        "slot": "152",
        "type": "t_array(t_uint256)49_storage"
      },
      {
        "astId": 19510,
        "contract": "contracts/income/IncomeSharingVaultV2.sol:IncomeSharingVaultV2",
        "label": "roundTime",
        "offset": 0,
        "slot": "201",
        "type": "t_uint256"
      },
      {
        "astId": 19513,
        "contract": "contracts/income/IncomeSharingVaultV2.sol:IncomeSharingVaultV2",
        "label": "veDEG",
        "offset": 0,
        "slot": "202",
        "type": "t_contract(IVeDEG)18270"
      },
      {
        "astId": 19531,
        "contract": "contracts/income/IncomeSharingVaultV2.sol:IncomeSharingVaultV2",
        "label": "pools",
        "offset": 0,
        "slot": "203",
        "type": "t_mapping(t_uint256,t_struct(PoolInfo)19526_storage)"
      },
      {
        "astId": 19543,
        "contract": "contracts/income/IncomeSharingVaultV2.sol:IncomeSharingVaultV2",
        "label": "users",
        "offset": 0,
        "slot": "204",
        "type": "t_mapping(t_uint256,t_mapping(t_address,t_struct(UserInfo)19536_storage))"
      },
      {
        "astId": 19545,
        "contract": "contracts/income/IncomeSharingVaultV2.sol:IncomeSharingVaultV2",
        "label": "nextPool",
        "offset": 0,
        "slot": "205",
        "type": "t_uint256"
      },
      {
        "astId": 19549,
        "contract": "contracts/income/IncomeSharingVaultV2.sol:IncomeSharingVaultV2",
        "label": "lastRewardBalance",
        "offset": 0,
        "slot": "206",
        "type": "t_mapping(t_uint256,t_uint256)"
      }
    ],
    "types": {
      "t_address": {
        "encoding": "inplace",
        "label": "address",
        "numberOfBytes": "20"
      },
      "t_array(t_uint256)49_storage": {
        "base": "t_uint256",
        "encoding": "inplace",
        "label": "uint256[49]",
        "numberOfBytes": "1568"
      },
      "t_array(t_uint256)50_storage": {
        "base": "t_uint256",
        "encoding": "inplace",
        "label": "uint256[50]",
        "numberOfBytes": "1600"
      },
      "t_bool": {
        "encoding": "inplace",
        "label": "bool",
        "numberOfBytes": "1"
      },
      "t_contract(IVeDEG)18270": {
        "encoding": "inplace",
        "label": "contract IVeDEG",
        "numberOfBytes": "20"
      },
      "t_mapping(t_address,t_struct(UserInfo)19536_storage)": {
        "encoding": "mapping",
        "key": "t_address",
        "label": "mapping(address => struct IncomeSharingVaultV2.UserInfo)",
        "numberOfBytes": "32",
        "value": "t_struct(UserInfo)19536_storage"
      },
      "t_mapping(t_uint256,t_mapping(t_address,t_struct(UserInfo)19536_storage))": {
        "encoding": "mapping",
        "key": "t_uint256",
        "label": "mapping(uint256 => mapping(address => struct IncomeSharingVaultV2.UserInfo))",
        "numberOfBytes": "32",
        "value": "t_mapping(t_address,t_struct(UserInfo)19536_storage)"
      },
      "t_mapping(t_uint256,t_struct(PoolInfo)19526_storage)": {
        "encoding": "mapping",
        "key": "t_uint256",
        "label": "mapping(uint256 => struct IncomeSharingVaultV2.PoolInfo)",
        "numberOfBytes": "32",
        "value": "t_struct(PoolInfo)19526_storage"
      },
      "t_mapping(t_uint256,t_uint256)": {
        "encoding": "mapping",
        "key": "t_uint256",
        "label": "mapping(uint256 => uint256)",
        "numberOfBytes": "32",
        "value": "t_uint256"
      },
      "t_struct(PoolInfo)19526_storage": {
        "encoding": "inplace",
        "label": "struct IncomeSharingVaultV2.PoolInfo",
        "members": [
          {
            "astId": 19515,
            "contract": "contracts/income/IncomeSharingVaultV2.sol:IncomeSharingVaultV2",
            "label": "available",
            "offset": 0,
            "slot": "0",
            "type": "t_bool"
          },
          {
            "astId": 19517,
            "contract": "contracts/income/IncomeSharingVaultV2.sol:IncomeSharingVaultV2",
            "label": "rewardToken",
            "offset": 1,
            "slot": "0",
            "type": "t_address"
          },
          {
            "astId": 19519,
            "contract": "contracts/income/IncomeSharingVaultV2.sol:IncomeSharingVaultV2",
            "label": "totalAmount",
            "offset": 0,
            "slot": "1",
            "type": "t_uint256"
          },
          {
            "astId": 19521,
            "contract": "contracts/income/IncomeSharingVaultV2.sol:IncomeSharingVaultV2",
            "label": "rewardPerSecond",
            "offset": 0,
            "slot": "2",
            "type": "t_uint256"
          },
          {
            "astId": 19523,
            "contract": "contracts/income/IncomeSharingVaultV2.sol:IncomeSharingVaultV2",
            "label": "accRewardPerShare",
            "offset": 0,
            "slot": "3",
            "type": "t_uint256"
          },
          {
            "astId": 19525,
            "contract": "contracts/income/IncomeSharingVaultV2.sol:IncomeSharingVaultV2",
            "label": "lastRewardTimestamp",
            "offset": 0,
            "slot": "4",
            "type": "t_uint256"
          }
        ],
        "numberOfBytes": "160"
      },
      "t_struct(UserInfo)19536_storage": {
        "encoding": "inplace",
        "label": "struct IncomeSharingVaultV2.UserInfo",
        "members": [
          {
            "astId": 19533,
            "contract": "contracts/income/IncomeSharingVaultV2.sol:IncomeSharingVaultV2",
            "label": "totalAmount",
            "offset": 0,
            "slot": "0",
            "type": "t_uint256"
          },
          {
            "astId": 19535,
            "contract": "contracts/income/IncomeSharingVaultV2.sol:IncomeSharingVaultV2",
            "label": "rewardDebt",
            "offset": 0,
            "slot": "1",
            "type": "t_uint256"
          }
        ],
        "numberOfBytes": "64"
      },
      "t_uint256": {
        "encoding": "inplace",
        "label": "uint256",
        "numberOfBytes": "32"
      }
    }
  }
}