{
  "address": "0xdC8E687E84dfc03cd7799De4626C6a4f978d96b9",
  "abi": [
    {
      "inputs": [],
      "stateMutability": "nonpayable",
      "type": "constructor"
    },
    {
      "anonymous": false,
      "inputs": [
        {
          "indexed": true,
          "internalType": "address",
          "name": "owner",
          "type": "address"
        },
        {
          "indexed": true,
          "internalType": "address",
          "name": "spender",
          "type": "address"
        },
        {
          "indexed": false,
          "internalType": "uint256",
          "name": "value",
          "type": "uint256"
        }
      ],
      "name": "Approval",
      "type": "event"
    },
    {
      "anonymous": false,
      "inputs": [
        {
          "indexed": true,
          "internalType": "address",
          "name": "previousOwner",
          "type": "address"
        },
        {
          "indexed": true,
          "internalType": "address",
          "name": "newOwner",
          "type": "address"
        }
      ],
      "name": "OwnershipTransferred",
      "type": "event"
    },
    {
      "anonymous": false,
      "inputs": [
        {
          "indexed": true,
          "internalType": "address",
          "name": "from",
          "type": "address"
        },
        {
          "indexed": true,
          "internalType": "address",
          "name": "to",
          "type": "address"
        },
        {
          "indexed": false,
          "internalType": "uint256",
          "name": "value",
          "type": "uint256"
        }
      ],
      "name": "Transfer",
      "type": "event"
    },
    {
      "inputs": [],
      "name": "INITIAL_SUPPLY",
      "outputs": [
        {
          "internalType": "uint256",
          "name": "",
          "type": "uint256"
        }
      ],
      "stateMutability": "view",
      "type": "function"
    },
    {
      "inputs": [],
      "name": "USER_CAP",
      "outputs": [
        {
          "internalType": "uint256",
          "name": "",
          "type": "uint256"
        }
      ],
      "stateMutability": "view",
      "type": "function"
    },
    {
      "inputs": [
        {
          "internalType": "address",
          "name": "_owner",
          "type": "address"
        },
        {
          "internalType": "address",
          "name": "spender",
          "type": "address"
        }
      ],
      "name": "allowance",
      "outputs": [
        {
          "internalType": "uint256",
          "name": "",
          "type": "uint256"
        }
      ],
      "stateMutability": "view",
      "type": "function"
    },
    {
      "inputs": [
        {
          "internalType": "address",
          "name": "spender",
          "type": "address"
        },
        {
          "internalType": "uint256",
          "name": "amount",
          "type": "uint256"
        }
      ],
      "name": "approve",
      "outputs": [
        {
          "internalType": "bool",
          "name": "",
          "type": "bool"
        }
      ],
      "stateMutability": "nonpayable",
      "type": "function"
    },
    {
      "inputs": [
        {
          "internalType": "address",
          "name": "account",
          "type": "address"
        }
      ],
      "name": "balanceOf",
      "outputs": [
        {
          "internalType": "uint256",
          "name": "",
          "type": "uint256"
        }
      ],
      "stateMutability": "view",
      "type": "function"
    },
    {
      "inputs": [],
      "name": "decimals",
      "outputs": [
        {
          "internalType": "uint8",
          "name": "",
          "type": "uint8"
        }
      ],
      "stateMutability": "view",
      "type": "function"
    },
    {
      "inputs": [
        {
          "internalType": "address",
          "name": "spender",
          "type": "address"
        },
        {
          "internalType": "uint256",
          "name": "subtractedValue",
          "type": "uint256"
        }
      ],
      "name": "decreaseAllowance",
      "outputs": [
        {
          "internalType": "bool",
          "name": "",
          "type": "bool"
        }
      ],
      "stateMutability": "nonpayable",
      "type": "function"
    },
    {
      "inputs": [],
      "name": "getAllUsers",
      "outputs": [
        {
          "internalType": "address[]",
          "name": "",
          "type": "address[]"
        }
      ],
      "stateMutability": "view",
      "type": "function"
    },
    {
      "inputs": [
        {
          "internalType": "address",
          "name": "spender",
          "type": "address"
        },
        {
          "internalType": "uint256",
          "name": "addedValue",
          "type": "uint256"
        }
      ],
      "name": "increaseAllowance",
      "outputs": [
        {
          "internalType": "bool",
          "name": "",
          "type": "bool"
        }
      ],
      "stateMutability": "nonpayable",
      "type": "function"
    },
    {
      "inputs": [
        {
          "internalType": "address",
          "name": "_account",
          "type": "address"
        },
        {
          "internalType": "uint256",
          "name": "_amount",
          "type": "uint256"
        }
      ],
      "name": "mint",
      "outputs": [],
      "stateMutability": "nonpayable",
      "type": "function"
    },
    {
      "inputs": [],
      "name": "name",
      "outputs": [
        {
          "internalType": "string",
          "name": "",
          "type": "string"
        }
      ],
      "stateMutability": "view",
      "type": "function"
    },
    {
      "inputs": [],
      "name": "owner",
      "outputs": [
        {
          "internalType": "address",
          "name": "",
          "type": "address"
        }
      ],
      "stateMutability": "view",
      "type": "function"
    },
    {
      "inputs": [],
      "name": "renounceOwnership",
      "outputs": [],
      "stateMutability": "nonpayable",
      "type": "function"
    },
    {
      "inputs": [
        {
          "internalType": "address[]",
          "name": "_contracts",
          "type": "address[]"
        }
      ],
      "name": "setAllowedRecipients",
      "outputs": [],
      "stateMutability": "nonpayable",
      "type": "function"
    },
    {
      "inputs": [
        {
          "internalType": "address[]",
          "name": "_contracts",
          "type": "address[]"
        }
      ],
      "name": "setAllowedSenders",
      "outputs": [],
      "stateMutability": "nonpayable",
      "type": "function"
    },
    {
      "inputs": [],
      "name": "symbol",
      "outputs": [
        {
          "internalType": "string",
          "name": "",
          "type": "string"
        }
      ],
      "stateMutability": "view",
      "type": "function"
    },
    {
      "inputs": [],
      "name": "totalSupply",
      "outputs": [
        {
          "internalType": "uint256",
          "name": "",
          "type": "uint256"
        }
      ],
      "stateMutability": "view",
      "type": "function"
    },
    {
      "inputs": [
        {
          "internalType": "address",
          "name": "recipient",
          "type": "address"
        },
        {
          "internalType": "uint256",
          "name": "amount",
          "type": "uint256"
        }
      ],
      "name": "transfer",
      "outputs": [
        {
          "internalType": "bool",
          "name": "",
          "type": "bool"
        }
      ],
      "stateMutability": "nonpayable",
      "type": "function"
    },
    {
      "inputs": [
        {
          "internalType": "address",
          "name": "sender",
          "type": "address"
        },
        {
          "internalType": "address",
          "name": "recipient",
          "type": "address"
        },
        {
          "internalType": "uint256",
          "name": "amount",
          "type": "uint256"
        }
      ],
      "name": "transferFrom",
      "outputs": [
        {
          "internalType": "bool",
          "name": "",
          "type": "bool"
        }
      ],
      "stateMutability": "nonpayable",
      "type": "function"
    },
    {
      "inputs": [
        {
          "internalType": "address",
          "name": "newOwner",
          "type": "address"
        }
      ],
      "name": "transferOwnership",
      "outputs": [],
      "stateMutability": "nonpayable",
      "type": "function"
    }
  ],
  "transactionHash": "0xc5a2835a4b44a91cbee81bd01cf6acfa83916ad50cc0e0bbab87360f28725fc9",
  "args": [],
  "numDeployments": 1,
  "solcInputHash": "6b41690bc48f03e7fcef834013961fdc",
  "bytecode": "0x608060405269021e19e0c9bab24000006008553480156200001f57600080fd5b50604051806040016040528060078152602001661353d0d2d554d160ca1b815250604051806040016040528060048152602001635553444360e01b8152506200007762000071620000c760201b60201c565b620000cb565b81516200008c906006906020850190620001e1565b508051620000a2906007906020840190620001e1565b505050620000c1336969e10de76676d08000006200011b60201b60201c565b6200034e565b3390565b600080546001600160a01b038381166001600160a01b0319831681178455604051919092169283917f8be0079c531659141344cd1fd0a4f28419497f9722a3daafe3b4186f6b6457e09190a35050565b6001600160a01b0382166200014d5760405162461bcd60e51b8152600401620001449062000287565b60405180910390fd5b8060056000828254620001619190620002df565b90915550506001600160a01b0382166000908152600360205260408120805483929062000190908490620002df565b90915550506040516001600160a01b038316906000907fddf252ad1be2c89b69c2b068fc378daa952ba7f163c4a11628f55a4df523b3ef90620001d5908590620002fa565b60405180910390a35050565b828054620001ef906200031d565b90600052602060002090601f0160209004810192826200021357600085556200025e565b82601f106200022e57805160ff19168380011785556200025e565b828001600101855582156200025e579182015b828111156200025e57825182559160200191906001019062000241565b506200026c92915062000270565b5090565b5b808211156200026c576000815560010162000271565b60208082528101620002c381601f81527f45524332303a206d696e7420746f20746865207a65726f206164647265737300602082015260400190565b92915050565b634e487b7160e01b600052601160045260246000fd5b60008219821115620002f557620002f5620002c9565b500190565b81815260208101620002c3565b634e487b7160e01b600052602260045260246000fd5b6002810460018216806200033257607f821691505b6020821081141562000348576200034862000307565b50919050565b61140a806200035e6000396000f3fe608060405234801561001057600080fd5b506004361061012c5760003560e01c806370a08231116100ad578063a457c2d711610071578063a457c2d71461025c578063a9059cbb1461026f578063dd62ed3e14610282578063e2842d79146102bb578063f2fde38b146102d057600080fd5b806370a0823114610201578063715018a61461022a5780637a4f1d35146102325780638da5cb5b1461023b57806395d89b411461025457600080fd5b80632ff2e9dc116100f45780632ff2e9dc146101a8578063313ce567146101b957806339509351146101c857806340c10f19146101db578063497a8167146101ee57600080fd5b806306fdde0314610131578063095ea7b31461014f5780630dcce3d71461016f57806318160ddd1461018457806323b872dd14610195575b600080fd5b6101396102e3565b6040516101469190610bbe565b60405180910390f35b61016261015d366004610c17565b610375565b6040516101469190610c5e565b61018261017d366004610d79565b61038c565b005b6005545b6040516101469190610dba565b6101626101a3366004610dc8565b610436565b6101886969e10de76676d080000081565b60126040516101469190610e21565b6101626101d6366004610c17565b6104ef565b6101826101e9366004610c17565b61052b565b6101826101fc366004610d79565b61063e565b61018861020f366004610e2f565b6001600160a01b031660009081526003602052604090205490565b6101826106d9565b61018860085481565b6000546001600160a01b03166040516101469190610e59565b61013961070f565b61016261026a366004610c17565b61071e565b61016261027d366004610c17565b610779565b610188610290366004610e67565b6001600160a01b03918216600090815260046020908152604080832093909416825291909152205490565b6102c36107d6565b6040516101469190610ef8565b6101826102de366004610e2f565b610837565b6060600680546102f290610f1f565b80601f016020809104026020016040519081016040528092919081815260200182805461031e90610f1f565b801561036b5780601f106103405761010080835404028352916020019161036b565b820191906000526020600020905b81548152906001019060200180831161034e57829003601f168201915b5050505050905090565b6000610382338484610893565b5060015b92915050565b33731be1a151ba3d24f594ee971dc9b843f23b5ba80e146103c85760405162461bcd60e51b81526004016103bf90610f63565b60405180910390fd5b805160005b81811015610431576001600260008584815181106103ed576103ed610f73565b6020908102919091018101516001600160a01b03168252810191909152604001600020805460ff19169115159190911790558061042981610f9f565b9150506103cd565b505050565b3360009081526002602052604081205460ff168061046c57506001600160a01b03831660009081526001602052604090205460ff165b6104885760405162461bcd60e51b81526004016103bf90611007565b610493848484610947565b6001600160a01b0384166000908152600460209081526040808320338452909152902054828110156104d75760405162461bcd60e51b81526004016103bf9061105a565b6104e48533858403610893565b506001949350505050565b3360008181526004602090815260408083206001600160a01b0387168452909152812054909161038291859061052690869061106a565b610893565b69021e19e0c9bab24000008111156105555760405162461bcd60e51b81526004016103bf906110c1565b6008546001600160a01b03831660009081526009602052604090205461057c90839061106a565b111561059a5760405162461bcd60e51b81526004016103bf90611116565b6001600160a01b03821660009081526009602052604090205461060357600a80546001810182556000919091527fc65a7bb8d6351c1cf70c95a316cc6a92839c986682d98bc35f958f4883f9d2a80180546001600160a01b0319166001600160a01b0384161790555b61060d8282610a5c565b6001600160a01b0382166000908152600960205260408120805483929061063590849061106a565b90915550505050565b33731be1a151ba3d24f594ee971dc9b843f23b5ba80e146106715760405162461bcd60e51b81526004016103bf90610f63565b805160005b8181101561043157600180600085848151811061069557610695610f73565b6020908102919091018101516001600160a01b03168252810191909152604001600020805460ff1916911515919091179055806106d181610f9f565b915050610676565b6000546001600160a01b031633146107035760405162461bcd60e51b81526004016103bf90611156565b61070d6000610b10565b565b6060600780546102f290610f1f565b3360009081526004602090815260408083206001600160a01b0386168452909152812054828110156107625760405162461bcd60e51b81526004016103bf906111a6565b61076f3385858403610893565b5060019392505050565b3360009081526002602052604081205460ff16806107af57506001600160a01b03831660009081526001602052604090205460ff165b6107cb5760405162461bcd60e51b81526004016103bf90611007565b610382338484610947565b6060600a80548060200260200160405190810160405280929190818152602001828054801561036b57602002820191906000526020600020905b81546001600160a01b03168152600190910190602001808311610810575050505050905090565b6000546001600160a01b031633146108615760405162461bcd60e51b81526004016103bf90611156565b6001600160a01b0381166108875760405162461bcd60e51b81526004016103bf906111f7565b61089081610b10565b50565b6001600160a01b0383166108b95760405162461bcd60e51b81526004016103bf90611246565b6001600160a01b0382166108df5760405162461bcd60e51b81526004016103bf90611293565b6001600160a01b0380841660008181526004602090815260408083209487168084529490915290819020849055517f8c5be1e5ebec7d5bd14f71427d1e84f3dd0314c0f7b2291e5b200ac8c7c3b9259061093a908590610dba565b60405180910390a3505050565b6001600160a01b03831661096d5760405162461bcd60e51b81526004016103bf906112e3565b6001600160a01b0382166109935760405162461bcd60e51b81526004016103bf90611331565b6001600160a01b038316600090815260036020526040902054818110156109cc5760405162461bcd60e51b81526004016103bf90611382565b6001600160a01b03808516600090815260036020526040808220858503905591851681529081208054849290610a0390849061106a565b92505081905550826001600160a01b0316846001600160a01b03167fddf252ad1be2c89b69c2b068fc378daa952ba7f163c4a11628f55a4df523b3ef84604051610a4d9190610dba565b60405180910390a35b50505050565b6001600160a01b038216610a825760405162461bcd60e51b81526004016103bf906113c4565b8060056000828254610a94919061106a565b90915550506001600160a01b03821660009081526003602052604081208054839290610ac190849061106a565b90915550506040516001600160a01b038316906000907fddf252ad1be2c89b69c2b068fc378daa952ba7f163c4a11628f55a4df523b3ef90610b04908590610dba565b60405180910390a35050565b600080546001600160a01b038381166001600160a01b0319831681178455604051919092169283917f8be0079c531659141344cd1fd0a4f28419497f9722a3daafe3b4186f6b6457e09190a35050565b60005b83811015610b7b578181015183820152602001610b63565b83811115610a565750506000910152565b6000610b96825190565b808452602084019350610bad818560208601610b60565b601f01601f19169290920192915050565b60208082528101610bcf8184610b8c565b9392505050565b60006001600160a01b038216610386565b610bf081610bd6565b811461089057600080fd5b803561038681610be7565b80610bf0565b803561038681610c06565b60008060408385031215610c2d57610c2d600080fd5b6000610c398585610bfb565b9250506020610c4a85828601610c0c565b9150509250929050565b8015155b82525050565b602081016103868284610c54565b634e487b7160e01b600052604160045260246000fd5b601f19601f830116810181811067ffffffffffffffff82111715610ca857610ca8610c6c565b6040525050565b6000610cba60405190565b9050610cc68282610c82565b919050565b600067ffffffffffffffff821115610ce557610ce5610c6c565b5060209081020190565b6000610d02610cfd84610ccb565b610caf565b83815290506020808201908402830185811115610d2157610d21600080fd5b835b81811015610d4357610d358782610bfb565b835260209283019201610d23565b5050509392505050565b600082601f830112610d6157610d61600080fd5b8135610d71848260208601610cef565b949350505050565b600060208284031215610d8e57610d8e600080fd5b813567ffffffffffffffff811115610da857610da8600080fd5b610d7184828501610d4d565b80610c58565b602081016103868284610db4565b600080600060608486031215610de057610de0600080fd5b6000610dec8686610bfb565b9350506020610dfd86828701610bfb565b9250506040610e0e86828701610c0c565b9150509250925092565b60ff8116610c58565b602081016103868284610e18565b600060208284031215610e4457610e44600080fd5b6000610d718484610bfb565b610c5881610bd6565b602081016103868284610e50565b60008060408385031215610e7d57610e7d600080fd5b6000610e898585610bfb565b9250506020610c4a85828601610bfb565b610ea48282610e50565b5060200190565b60200190565b6000610ebb825190565b808452602093840193830160005b82811015610eee578151610edd8782610e9a565b965050602082019150600101610ec9565b5093949350505050565b60208082528101610bcf8184610eb1565b634e487b7160e01b600052602260045260246000fd5b600281046001821680610f3357607f821691505b60208210811415610f4657610f46610f09565b50919050565b6002815260208101610f0f60f31b81529050610eab565b6020808252810161038681610f4c565b634e487b7160e01b600052603260045260246000fd5b634e487b7160e01b600052601160045260246000fd5b6000600019821415610fb357610fb3610f89565b5060010190565b60308152602081017f596f7520617265206e6f7420616c6c6f77656420746f207472616e736665722081526f1d1bc81d1a1a5cc818dbdb9d1c9858dd60821b602082015290505b60400190565b6020808252810161038681610fba565b60288152602081017f45524332303a207472616e7366657220616d6f756e74206578636565647320618152676c6c6f77616e636560c01b60208201529050611001565b6020808252810161038681611017565b6000821982111561107d5761107d610f89565b500190565b60248152602081017f506c65617365206d696e74206c657373207468616e2031306b2065766572792081526374696d6560e01b60208201529050611001565b6020808252810161038681611082565b602a8152602081017f596f752068617665206d696e74656420746f6f206d616e792075736420286d6181526978696d756d2031306b2960b01b60208201529050611001565b60208082528101610386816110d1565b60208082527f4f776e61626c653a2063616c6c6572206973206e6f7420746865206f776e65729101908152610eab565b6020808252810161038681611126565b60258152602081017f45524332303a2064656372656173656420616c6c6f77616e63652062656c6f77815264207a65726f60d81b60208201529050611001565b6020808252810161038681611166565b60268152602081017f4f776e61626c653a206e6577206f776e657220697320746865207a65726f206181526564647265737360d01b60208201529050611001565b60208082528101610386816111b6565b60248152602081017f45524332303a20617070726f76652066726f6d20746865207a65726f206164648152637265737360e01b60208201529050611001565b6020808252810161038681611207565b60228152602081017f45524332303a20617070726f766520746f20746865207a65726f206164647265815261737360f01b60208201529050611001565b6020808252810161038681611256565b60258152602081017f45524332303a207472616e736665722066726f6d20746865207a65726f206164815264647265737360d81b60208201529050611001565b60208082528101610386816112a3565b60238152602081017f45524332303a207472616e7366657220746f20746865207a65726f206164647281526265737360e81b60208201529050611001565b60208082528101610386816112f3565b60268152602081017f45524332303a207472616e7366657220616d6f756e7420657863656564732062815265616c616e636560d01b60208201529050611001565b6020808252810161038681611341565b601f8152602081017f45524332303a206d696e7420746f20746865207a65726f20616464726573730081529050610eab565b602080825281016103868161139256fea26469706673582212200dfeb4d9d77bbceb12a186d95edbb8a2304ffe773c77832f4188f4cf9e22cf3064736f6c634300080a0033",
  "devdoc": {
    "kind": "dev",
    "methods": {
      "allowance(address,address)": {
        "details": "See {IERC20-allowance}."
      },
      "approve(address,uint256)": {
        "details": "See {IERC20-approve}. Requirements: - `spender` cannot be the zero address."
      },
      "balanceOf(address)": {
        "details": "See {IERC20-balanceOf}."
      },
      "decimals()": {
        "details": "Returns the number of decimals used to get its user representation. For example, if `decimals` equals `2`, a balance of `505` tokens should be displayed to a user as `5.05` (`505 / 10 ** 2`). Tokens usually opt for a value of 18, imitating the relationship between Ether and Wei. This is the value {ERC20} uses, unless this function is overridden; NOTE: This information is only used for _display_ purposes: it in no way affects any of the arithmetic of the contract, including {IERC20-balanceOf} and {IERC20-transfer}."
      },
      "decreaseAllowance(address,uint256)": {
        "details": "Atomically decreases the allowance granted to `spender` by the caller. This is an alternative to {approve} that can be used as a mitigation for problems described in {IERC20-approve}. Emits an {Approval} event indicating the updated allowance. Requirements: - `spender` cannot be the zero address. - `spender` must have allowance for the caller of at least `subtractedValue`."
      },
      "increaseAllowance(address,uint256)": {
        "details": "Atomically increases the allowance granted to `spender` by the caller. This is an alternative to {approve} that can be used as a mitigation for problems described in {IERC20-approve}. Emits an {Approval} event indicating the updated allowance. Requirements: - `spender` cannot be the zero address."
      },
      "name()": {
        "details": "Returns the name of the token."
      },
      "owner()": {
        "details": "Returns the address of the current owner."
      },
      "renounceOwnership()": {
        "details": "Leaves the contract without owner. It will not be possible to call `onlyOwner` functions anymore. Can only be called by the current owner. NOTE: Renouncing ownership will leave the contract without an owner, thereby removing any functionality that is only available to the owner."
      },
      "symbol()": {
        "details": "Returns the symbol of the token, usually a shorter version of the name."
      },
      "totalSupply()": {
        "details": "See {IERC20-totalSupply}."
      },
      "transfer(address,uint256)": {
        "details": "See {IERC20-transfer}. Requirements: - `recipient` cannot be the zero address. - the caller must have a balance of at least `amount`."
      },
      "transferFrom(address,address,uint256)": {
        "details": "See {IERC20-transferFrom}. Emits an {Approval} event indicating the updated allowance. This is not required by the EIP. See the note at the beginning of {ERC20}. Requirements: - `sender` and `recipient` cannot be the zero address. - `sender` must have a balance of at least `amount`. - the caller must have allowance for ``sender``'s tokens of at least `amount`."
      },
      "transferOwnership(address)": {
        "details": "Transfers ownership of the contract to a new account (`newOwner`). Can only be called by the current owner."
      }
    },
    "version": 1
  },
  "userdoc": {
    "kind": "user",
    "methods": {},
    "notice": "This is the MockUSD used in testnet         Maximum mint amount is 500k for each user.         Maximum mint amount for every single tx is 100k.",
    "version": 1
  },
  "storageLayout": {
    "storage": [
      {
        "astId": 2400,
        "contract": "contracts/mocks/MockUSD.sol:MockUSD",
        "label": "_owner",
        "offset": 0,
        "slot": "0",
        "type": "t_address"
      },
      {
        "astId": 21418,
        "contract": "contracts/mocks/MockUSD.sol:MockUSD",
        "label": "allowedRecipients",
        "offset": 0,
        "slot": "1",
        "type": "t_mapping(t_address,t_bool)"
      },
      {
        "astId": 21422,
        "contract": "contracts/mocks/MockUSD.sol:MockUSD",
        "label": "allowedSenders",
        "offset": 0,
        "slot": "2",
        "type": "t_mapping(t_address,t_bool)"
      },
      {
        "astId": 21426,
        "contract": "contracts/mocks/MockUSD.sol:MockUSD",
        "label": "_balances",
        "offset": 0,
        "slot": "3",
        "type": "t_mapping(t_address,t_uint256)"
      },
      {
        "astId": 21432,
        "contract": "contracts/mocks/MockUSD.sol:MockUSD",
        "label": "_allowances",
        "offset": 0,
        "slot": "4",
        "type": "t_mapping(t_address,t_mapping(t_address,t_uint256))"
      },
      {
        "astId": 21434,
        "contract": "contracts/mocks/MockUSD.sol:MockUSD",
        "label": "_totalSupply",
        "offset": 0,
        "slot": "5",
        "type": "t_uint256"
      },
      {
        "astId": 21436,
        "contract": "contracts/mocks/MockUSD.sol:MockUSD",
        "label": "_name",
        "offset": 0,
        "slot": "6",
        "type": "t_string_storage"
      },
      {
        "astId": 21438,
        "contract": "contracts/mocks/MockUSD.sol:MockUSD",
        "label": "_symbol",
        "offset": 0,
        "slot": "7",
        "type": "t_string_storage"
      },
      {
        "astId": 15514,
        "contract": "contracts/mocks/MockUSD.sol:MockUSD",
        "label": "USER_CAP",
        "offset": 0,
        "slot": "8",
        "type": "t_uint256"
      },
      {
        "astId": 15518,
        "contract": "contracts/mocks/MockUSD.sol:MockUSD",
        "label": "userHaveMinted",
        "offset": 0,
        "slot": "9",
        "type": "t_mapping(t_address,t_uint256)"
      },
      {
        "astId": 15521,
        "contract": "contracts/mocks/MockUSD.sol:MockUSD",
        "label": "allUsers",
        "offset": 0,
        "slot": "10",
        "type": "t_array(t_address)dyn_storage"
      }
    ],
    "types": {
      "t_address": {
        "encoding": "inplace",
        "label": "address",
        "numberOfBytes": "20"
      },
      "t_array(t_address)dyn_storage": {
        "base": "t_address",
        "encoding": "dynamic_array",
        "label": "address[]",
        "numberOfBytes": "32"
      },
      "t_bool": {
        "encoding": "inplace",
        "label": "bool",
        "numberOfBytes": "1"
      },
      "t_mapping(t_address,t_bool)": {
        "encoding": "mapping",
        "key": "t_address",
        "label": "mapping(address => bool)",
        "numberOfBytes": "32",
        "value": "t_bool"
      },
      "t_mapping(t_address,t_mapping(t_address,t_uint256))": {
        "encoding": "mapping",
        "key": "t_address",
        "label": "mapping(address => mapping(address => uint256))",
        "numberOfBytes": "32",
        "value": "t_mapping(t_address,t_uint256)"
      },
      "t_mapping(t_address,t_uint256)": {
        "encoding": "mapping",
        "key": "t_address",
        "label": "mapping(address => uint256)",
        "numberOfBytes": "32",
        "value": "t_uint256"
      },
      "t_string_storage": {
        "encoding": "bytes",
        "label": "string",
        "numberOfBytes": "32"
      },
      "t_uint256": {
        "encoding": "inplace",
        "label": "uint256",
        "numberOfBytes": "32"
      }
    }
  }
}