{
  "address": "0x666aD8AB2402369a73759eB1d1C037670F02f81e",
  "abi": [
    {
      "inputs": [],
      "stateMutability": "nonpayable",
      "type": "constructor"
    },
    {
      "anonymous": false,
      "inputs": [
        {
          "indexed": true,
          "internalType": "address",
          "name": "owner",
          "type": "address"
        },
        {
          "indexed": true,
          "internalType": "address",
          "name": "spender",
          "type": "address"
        },
        {
          "indexed": false,
          "internalType": "uint256",
          "name": "value",
          "type": "uint256"
        }
      ],
      "name": "Approval",
      "type": "event"
    },
    {
      "anonymous": false,
      "inputs": [
        {
          "indexed": true,
          "internalType": "address",
          "name": "from",
          "type": "address"
        },
        {
          "indexed": true,
          "internalType": "address",
          "name": "to",
          "type": "address"
        },
        {
          "indexed": false,
          "internalType": "uint256",
          "name": "value",
          "type": "uint256"
        }
      ],
      "name": "Transfer",
      "type": "event"
    },
    {
      "inputs": [],
      "name": "INITIAL_SUPPLY",
      "outputs": [
        {
          "internalType": "uint256",
          "name": "",
          "type": "uint256"
        }
      ],
      "stateMutability": "view",
      "type": "function"
    },
    {
      "inputs": [
        {
          "internalType": "address",
          "name": "owner",
          "type": "address"
        },
        {
          "internalType": "address",
          "name": "spender",
          "type": "address"
        }
      ],
      "name": "allowance",
      "outputs": [
        {
          "internalType": "uint256",
          "name": "",
          "type": "uint256"
        }
      ],
      "stateMutability": "view",
      "type": "function"
    },
    {
      "inputs": [
        {
          "internalType": "address",
          "name": "spender",
          "type": "address"
        },
        {
          "internalType": "uint256",
          "name": "amount",
          "type": "uint256"
        }
      ],
      "name": "approve",
      "outputs": [
        {
          "internalType": "bool",
          "name": "",
          "type": "bool"
        }
      ],
      "stateMutability": "nonpayable",
      "type": "function"
    },
    {
      "inputs": [
        {
          "internalType": "address",
          "name": "account",
          "type": "address"
        }
      ],
      "name": "balanceOf",
      "outputs": [
        {
          "internalType": "uint256",
          "name": "",
          "type": "uint256"
        }
      ],
      "stateMutability": "view",
      "type": "function"
    },
    {
      "inputs": [],
      "name": "decimals",
      "outputs": [
        {
          "internalType": "uint8",
          "name": "",
          "type": "uint8"
        }
      ],
      "stateMutability": "pure",
      "type": "function"
    },
    {
      "inputs": [
        {
          "internalType": "address",
          "name": "spender",
          "type": "address"
        },
        {
          "internalType": "uint256",
          "name": "subtractedValue",
          "type": "uint256"
        }
      ],
      "name": "decreaseAllowance",
      "outputs": [
        {
          "internalType": "bool",
          "name": "",
          "type": "bool"
        }
      ],
      "stateMutability": "nonpayable",
      "type": "function"
    },
    {
      "inputs": [
        {
          "internalType": "address",
          "name": "spender",
          "type": "address"
        },
        {
          "internalType": "uint256",
          "name": "addedValue",
          "type": "uint256"
        }
      ],
      "name": "increaseAllowance",
      "outputs": [
        {
          "internalType": "bool",
          "name": "",
          "type": "bool"
        }
      ],
      "stateMutability": "nonpayable",
      "type": "function"
    },
    {
      "inputs": [
        {
          "internalType": "address",
          "name": "_account",
          "type": "address"
        },
        {
          "internalType": "uint256",
          "name": "_amount",
          "type": "uint256"
        }
      ],
      "name": "mint",
      "outputs": [],
      "stateMutability": "nonpayable",
      "type": "function"
    },
    {
      "inputs": [],
      "name": "name",
      "outputs": [
        {
          "internalType": "string",
          "name": "",
          "type": "string"
        }
      ],
      "stateMutability": "view",
      "type": "function"
    },
    {
      "inputs": [],
      "name": "symbol",
      "outputs": [
        {
          "internalType": "string",
          "name": "",
          "type": "string"
        }
      ],
      "stateMutability": "view",
      "type": "function"
    },
    {
      "inputs": [],
      "name": "totalSupply",
      "outputs": [
        {
          "internalType": "uint256",
          "name": "",
          "type": "uint256"
        }
      ],
      "stateMutability": "view",
      "type": "function"
    },
    {
      "inputs": [
        {
          "internalType": "address",
          "name": "recipient",
          "type": "address"
        },
        {
          "internalType": "uint256",
          "name": "amount",
          "type": "uint256"
        }
      ],
      "name": "transfer",
      "outputs": [
        {
          "internalType": "bool",
          "name": "",
          "type": "bool"
        }
      ],
      "stateMutability": "nonpayable",
      "type": "function"
    },
    {
      "inputs": [
        {
          "internalType": "address",
          "name": "sender",
          "type": "address"
        },
        {
          "internalType": "address",
          "name": "recipient",
          "type": "address"
        },
        {
          "internalType": "uint256",
          "name": "amount",
          "type": "uint256"
        }
      ],
      "name": "transferFrom",
      "outputs": [
        {
          "internalType": "bool",
          "name": "",
          "type": "bool"
        }
      ],
      "stateMutability": "nonpayable",
      "type": "function"
    }
  ],
  "transactionHash": "0x59bd74b2af1c71e0b41793682667d1b108295d235ec8ff8bcdef903ff3b5e98a",
  "args": [],
  "numDeployments": 1,
  "solcInputHash": "dac4e5fe3f0ddff2793c693a8a6aab18",
  "bytecode": "0x60806040523480156200001157600080fd5b5060408051808201825260078152661353d0d2d554d160ca1b6020808301918252835180850190945260048452635553444360e01b9084015281519192916200005d9160039162000159565b5080516200007390600490602084019062000159565b5050506200008d3364174876e8006200009360201b60201c565b620002c5565b6001600160a01b038216620000c55760405162461bcd60e51b8152600401620000bc90620001ff565b60405180910390fd5b8060026000828254620000d9919062000257565b90915550506001600160a01b038216600090815260208190526040812080548392906200010890849062000257565b90915550506040516001600160a01b038316906000907fddf252ad1be2c89b69c2b068fc378daa952ba7f163c4a11628f55a4df523b3ef906200014d90859062000272565b60405180910390a35050565b828054620001679062000295565b90600052602060002090601f0160209004810192826200018b5760008555620001d6565b82601f10620001a657805160ff1916838001178555620001d6565b82800160010185558215620001d6579182015b82811115620001d6578251825591602001919060010190620001b9565b50620001e4929150620001e8565b5090565b5b80821115620001e45760008155600101620001e9565b602080825281016200023b81601f81527f45524332303a206d696e7420746f20746865207a65726f206164647265737300602082015260400190565b92915050565b634e487b7160e01b600052601160045260246000fd5b600082198211156200026d576200026d62000241565b500190565b818152602081016200023b565b634e487b7160e01b600052602260045260246000fd5b600281046001821680620002aa57607f821691505b602082108103620002bf57620002bf6200027f565b50919050565b610c1380620002d56000396000f3fe608060405234801561001057600080fd5b50600436106100df5760003560e01c8063395093511161008c57806395d89b411161006657806395d89b41146101b2578063a457c2d7146101ba578063a9059cbb146101cd578063dd62ed3e146101e057600080fd5b8063395093511461016157806340c10f191461017457806370a082311461018957600080fd5b806323b872dd116100bd57806323b872dd146101335780632ff2e9dc14610146578063313ce5671461015257600080fd5b806306fdde03146100e4578063095ea7b31461010257806318160ddd14610122575b600080fd5b6100ec610219565b6040516100f991906106d0565b60405180910390f35b61011561011036600461072c565b6102ab565b6040516100f99190610773565b6002545b6040516100f99190610787565b610115610141366004610795565b6102c2565b61012664174876e80081565b60066040516100f991906107ee565b61011561016f36600461072c565b610334565b61018761018236600461072c565b610370565b005b6101266101973660046107fc565b6001600160a01b031660009081526020819052604090205490565b6100ec61037e565b6101156101c836600461072c565b61038d565b6101156101db36600461072c565b6103e8565b6101266101ee366004610825565b6001600160a01b03918216600090815260016020908152604080832093909416825291909152205490565b6060600380546102289061086e565b80601f01602080910402602001604051908101604052809291908181526020018280546102549061086e565b80156102a15780601f10610276576101008083540402835291602001916102a1565b820191906000526020600020905b81548152906001019060200180831161028457829003601f168201915b5050505050905090565b60006102b83384846103f5565b5060015b92915050565b60006102cf8484846104a9565b6001600160a01b03841660009081526001602090815260408083203384529091529020548281101561031c5760405162461bcd60e51b8152600401610313906108f4565b60405180910390fd5b61032985338584036103f5565b506001949350505050565b3360008181526001602090815260408083206001600160a01b038716845290915281205490916102b891859061036b90869061091a565b6103f5565b61037a82826105be565b5050565b6060600480546102289061086e565b3360009081526001602090815260408083206001600160a01b0386168452909152812054828110156103d15760405162461bcd60e51b81526004016103139061098a565b6103de33858584036103f5565b5060019392505050565b60006102b83384846104a9565b6001600160a01b03831661041b5760405162461bcd60e51b8152600401610313906109f2565b6001600160a01b0382166104415760405162461bcd60e51b815260040161031390610a5a565b6001600160a01b0380841660008181526001602090815260408083209487168084529490915290819020849055517f8c5be1e5ebec7d5bd14f71427d1e84f3dd0314c0f7b2291e5b200ac8c7c3b9259061049c908590610787565b60405180910390a3505050565b6001600160a01b0383166104cf5760405162461bcd60e51b815260040161031390610ac2565b6001600160a01b0382166104f55760405162461bcd60e51b815260040161031390610b2a565b6001600160a01b0383166000908152602081905260409020548181101561052e5760405162461bcd60e51b815260040161031390610b92565b6001600160a01b0380851660009081526020819052604080822085850390559185168152908120805484929061056590849061091a565b92505081905550826001600160a01b0316846001600160a01b03167fddf252ad1be2c89b69c2b068fc378daa952ba7f163c4a11628f55a4df523b3ef846040516105af9190610787565b60405180910390a35b50505050565b6001600160a01b0382166105e45760405162461bcd60e51b815260040161031390610ba2565b80600260008282546105f6919061091a565b90915550506001600160a01b0382166000908152602081905260408120805483929061062390849061091a565b90915550506040516001600160a01b038316906000907fddf252ad1be2c89b69c2b068fc378daa952ba7f163c4a11628f55a4df523b3ef90610666908590610787565b60405180910390a35050565b60005b8381101561068d578181015183820152602001610675565b838111156105b85750506000910152565b60006106a8825190565b8084526020840193506106bf818560208601610672565b601f01601f19169290920192915050565b602080825281016106e1818461069e565b9392505050565b60006001600160a01b0382166102bc565b610702816106e8565b811461070d57600080fd5b50565b80356102bc816106f9565b80610702565b80356102bc8161071b565b6000806040838503121561074257610742600080fd5b600061074e8585610710565b925050602061075f85828601610721565b9150509250929050565b8015155b82525050565b602081016102bc8284610769565b8061076d565b602081016102bc8284610781565b6000806000606084860312156107ad576107ad600080fd5b60006107b98686610710565b93505060206107ca86828701610710565b92505060406107db86828701610721565b9150509250925092565b60ff811661076d565b602081016102bc82846107e5565b60006020828403121561081157610811600080fd5b600061081d8484610710565b949350505050565b6000806040838503121561083b5761083b600080fd5b60006108478585610710565b925050602061075f85828601610710565b634e487b7160e01b600052602260045260246000fd5b60028104600182168061088257607f821691505b60208210810361089457610894610858565b50919050565b60288152602081017f45524332303a207472616e7366657220616d6f756e742065786365656473206181527f6c6c6f77616e6365000000000000000000000000000000000000000000000000602082015290505b60400190565b602080825281016102bc8161089a565b634e487b7160e01b600052601160045260246000fd5b6000821982111561092d5761092d610904565b500190565b60258152602081017f45524332303a2064656372656173656420616c6c6f77616e63652062656c6f7781527f207a65726f000000000000000000000000000000000000000000000000000000602082015290506108ee565b602080825281016102bc81610932565b60248152602081017f45524332303a20617070726f76652066726f6d20746865207a65726f2061646481527f7265737300000000000000000000000000000000000000000000000000000000602082015290506108ee565b602080825281016102bc8161099a565b60228152602081017f45524332303a20617070726f766520746f20746865207a65726f20616464726581527f7373000000000000000000000000000000000000000000000000000000000000602082015290506108ee565b602080825281016102bc81610a02565b60258152602081017f45524332303a207472616e736665722066726f6d20746865207a65726f20616481527f6472657373000000000000000000000000000000000000000000000000000000602082015290506108ee565b602080825281016102bc81610a6a565b60238152602081017f45524332303a207472616e7366657220746f20746865207a65726f206164647281527f6573730000000000000000000000000000000000000000000000000000000000602082015290506108ee565b602080825281016102bc81610ad2565b60268152602081017f45524332303a207472616e7366657220616d6f756e742065786365656473206281527f616c616e63650000000000000000000000000000000000000000000000000000602082015290506108ee565b602080825281016102bc81610b3a565b602080825281016102bc81601f81527f45524332303a206d696e7420746f20746865207a65726f20616464726573730060208201526040019056fea264697066735822122011b05602e8194a3149d36002e7d97abc1f095318747a95f201069c3163a8c4bb64736f6c634300080d0033",
  "devdoc": {
    "kind": "dev",
    "methods": {
      "allowance(address,address)": {
        "details": "See {IERC20-allowance}."
      },
      "approve(address,uint256)": {
        "details": "See {IERC20-approve}. Requirements: - `spender` cannot be the zero address."
      },
      "balanceOf(address)": {
        "details": "See {IERC20-balanceOf}."
      },
      "decimals()": {
        "details": "Returns the number of decimals used to get its user representation. For example, if `decimals` equals `2`, a balance of `505` tokens should be displayed to a user as `5.05` (`505 / 10 ** 2`). Tokens usually opt for a value of 18, imitating the relationship between Ether and Wei. This is the value {ERC20} uses, unless this function is overridden; NOTE: This information is only used for _display_ purposes: it in no way affects any of the arithmetic of the contract, including {IERC20-balanceOf} and {IERC20-transfer}."
      },
      "decreaseAllowance(address,uint256)": {
        "details": "Atomically decreases the allowance granted to `spender` by the caller. This is an alternative to {approve} that can be used as a mitigation for problems described in {IERC20-approve}. Emits an {Approval} event indicating the updated allowance. Requirements: - `spender` cannot be the zero address. - `spender` must have allowance for the caller of at least `subtractedValue`."
      },
      "increaseAllowance(address,uint256)": {
        "details": "Atomically increases the allowance granted to `spender` by the caller. This is an alternative to {approve} that can be used as a mitigation for problems described in {IERC20-approve}. Emits an {Approval} event indicating the updated allowance. Requirements: - `spender` cannot be the zero address."
      },
      "name()": {
        "details": "Returns the name of the token."
      },
      "symbol()": {
        "details": "Returns the symbol of the token, usually a shorter version of the name."
      },
      "totalSupply()": {
        "details": "See {IERC20-totalSupply}."
      },
      "transfer(address,uint256)": {
        "details": "See {IERC20-transfer}. Requirements: - `recipient` cannot be the zero address. - the caller must have a balance of at least `amount`."
      },
      "transferFrom(address,address,uint256)": {
        "details": "See {IERC20-transferFrom}. Emits an {Approval} event indicating the updated allowance. This is not required by the EIP. See the note at the beginning of {ERC20}. Requirements: - `sender` and `recipient` cannot be the zero address. - `sender` must have a balance of at least `amount`. - the caller must have allowance for ``sender``'s tokens of at least `amount`."
      }
    },
    "version": 1
  },
  "userdoc": {
    "kind": "user",
    "methods": {},
    "notice": "This is the MockUSD used in testnet         Maximum mint amount is 500k for each user.         Maximum mint amount for every single tx is 100k.",
    "version": 1
  },
  "storageLayout": {
    "storage": [
      {
        "astId": 4860,
        "contract": "contracts/mocks/MockUSD.sol:MockUSD",
        "label": "_balances",
        "offset": 0,
        "slot": "0",
        "type": "t_mapping(t_address,t_uint256)"
      },
      {
        "astId": 4866,
        "contract": "contracts/mocks/MockUSD.sol:MockUSD",
        "label": "_allowances",
        "offset": 0,
        "slot": "1",
        "type": "t_mapping(t_address,t_mapping(t_address,t_uint256))"
      },
      {
        "astId": 4868,
        "contract": "contracts/mocks/MockUSD.sol:MockUSD",
        "label": "_totalSupply",
        "offset": 0,
        "slot": "2",
        "type": "t_uint256"
      },
      {
        "astId": 4870,
        "contract": "contracts/mocks/MockUSD.sol:MockUSD",
        "label": "_name",
        "offset": 0,
        "slot": "3",
        "type": "t_string_storage"
      },
      {
        "astId": 4872,
        "contract": "contracts/mocks/MockUSD.sol:MockUSD",
        "label": "_symbol",
        "offset": 0,
        "slot": "4",
        "type": "t_string_storage"
      }
    ],
    "types": {
      "t_address": {
        "encoding": "inplace",
        "label": "address",
        "numberOfBytes": "20"
      },
      "t_mapping(t_address,t_mapping(t_address,t_uint256))": {
        "encoding": "mapping",
        "key": "t_address",
        "label": "mapping(address => mapping(address => uint256))",
        "numberOfBytes": "32",
        "value": "t_mapping(t_address,t_uint256)"
      },
      "t_mapping(t_address,t_uint256)": {
        "encoding": "mapping",
        "key": "t_address",
        "label": "mapping(address => uint256)",
        "numberOfBytes": "32",
        "value": "t_uint256"
      },
      "t_string_storage": {
        "encoding": "bytes",
        "label": "string",
        "numberOfBytes": "32"
      },
      "t_uint256": {
        "encoding": "inplace",
        "label": "uint256",
        "numberOfBytes": "32"
      }
    }
  }
}