{
  "address": "0x6D765318b8740856f3027712086e91429fADDBA6",
  "abi": [
    {
      "inputs": [
        {
          "internalType": "address",
          "name": "_degis",
          "type": "address"
        }
      ],
      "stateMutability": "nonpayable",
      "type": "constructor"
    },
    {
      "anonymous": false,
      "inputs": [
        {
          "indexed": true,
          "internalType": "address",
          "name": "owner",
          "type": "address"
        },
        {
          "indexed": true,
          "internalType": "address",
          "name": "spender",
          "type": "address"
        },
        {
          "indexed": false,
          "internalType": "uint256",
          "name": "value",
          "type": "uint256"
        }
      ],
      "name": "Approval",
      "type": "event"
    },
    {
      "anonymous": false,
      "inputs": [
        {
          "indexed": true,
          "internalType": "address",
          "name": "from",
          "type": "address"
        },
        {
          "indexed": true,
          "internalType": "address",
          "name": "to",
          "type": "address"
        },
        {
          "indexed": false,
          "internalType": "uint256",
          "name": "value",
          "type": "uint256"
        }
      ],
      "name": "Transfer",
      "type": "event"
    },
    {
      "inputs": [],
      "name": "INITIAL_SUPPLY",
      "outputs": [
        {
          "internalType": "uint256",
          "name": "",
          "type": "uint256"
        }
      ],
      "stateMutability": "view",
      "type": "function"
    },
    {
      "inputs": [],
      "name": "TEST_AMOUNT",
      "outputs": [
        {
          "internalType": "uint256",
          "name": "",
          "type": "uint256"
        }
      ],
      "stateMutability": "view",
      "type": "function"
    },
    {
      "inputs": [
        {
          "internalType": "address",
          "name": "owner",
          "type": "address"
        },
        {
          "internalType": "address",
          "name": "spender",
          "type": "address"
        }
      ],
      "name": "allowance",
      "outputs": [
        {
          "internalType": "uint256",
          "name": "",
          "type": "uint256"
        }
      ],
      "stateMutability": "view",
      "type": "function"
    },
    {
      "inputs": [
        {
          "internalType": "address",
          "name": "spender",
          "type": "address"
        },
        {
          "internalType": "uint256",
          "name": "amount",
          "type": "uint256"
        }
      ],
      "name": "approve",
      "outputs": [
        {
          "internalType": "bool",
          "name": "",
          "type": "bool"
        }
      ],
      "stateMutability": "nonpayable",
      "type": "function"
    },
    {
      "inputs": [
        {
          "internalType": "address",
          "name": "account",
          "type": "address"
        }
      ],
      "name": "balanceOf",
      "outputs": [
        {
          "internalType": "uint256",
          "name": "",
          "type": "uint256"
        }
      ],
      "stateMutability": "view",
      "type": "function"
    },
    {
      "inputs": [],
      "name": "decimals",
      "outputs": [
        {
          "internalType": "uint8",
          "name": "",
          "type": "uint8"
        }
      ],
      "stateMutability": "pure",
      "type": "function"
    },
    {
      "inputs": [
        {
          "internalType": "address",
          "name": "spender",
          "type": "address"
        },
        {
          "internalType": "uint256",
          "name": "subtractedValue",
          "type": "uint256"
        }
      ],
      "name": "decreaseAllowance",
      "outputs": [
        {
          "internalType": "bool",
          "name": "",
          "type": "bool"
        }
      ],
      "stateMutability": "nonpayable",
      "type": "function"
    },
    {
      "inputs": [],
      "name": "degis",
      "outputs": [
        {
          "internalType": "address",
          "name": "",
          "type": "address"
        }
      ],
      "stateMutability": "view",
      "type": "function"
    },
    {
      "inputs": [
        {
          "internalType": "address",
          "name": "spender",
          "type": "address"
        },
        {
          "internalType": "uint256",
          "name": "addedValue",
          "type": "uint256"
        }
      ],
      "name": "increaseAllowance",
      "outputs": [
        {
          "internalType": "bool",
          "name": "",
          "type": "bool"
        }
      ],
      "stateMutability": "nonpayable",
      "type": "function"
    },
    {
      "inputs": [
        {
          "internalType": "address",
          "name": "_account",
          "type": "address"
        }
      ],
      "name": "mint",
      "outputs": [],
      "stateMutability": "nonpayable",
      "type": "function"
    },
    {
      "inputs": [
        {
          "internalType": "address",
          "name": "",
          "type": "address"
        }
      ],
      "name": "minted",
      "outputs": [
        {
          "internalType": "bool",
          "name": "",
          "type": "bool"
        }
      ],
      "stateMutability": "view",
      "type": "function"
    },
    {
      "inputs": [],
      "name": "name",
      "outputs": [
        {
          "internalType": "string",
          "name": "",
          "type": "string"
        }
      ],
      "stateMutability": "view",
      "type": "function"
    },
    {
      "inputs": [],
      "name": "owner",
      "outputs": [
        {
          "internalType": "address",
          "name": "",
          "type": "address"
        }
      ],
      "stateMutability": "view",
      "type": "function"
    },
    {
      "inputs": [],
      "name": "symbol",
      "outputs": [
        {
          "internalType": "string",
          "name": "",
          "type": "string"
        }
      ],
      "stateMutability": "view",
      "type": "function"
    },
    {
      "inputs": [],
      "name": "totalSupply",
      "outputs": [
        {
          "internalType": "uint256",
          "name": "",
          "type": "uint256"
        }
      ],
      "stateMutability": "view",
      "type": "function"
    },
    {
      "inputs": [
        {
          "internalType": "address",
          "name": "recipient",
          "type": "address"
        },
        {
          "internalType": "uint256",
          "name": "amount",
          "type": "uint256"
        }
      ],
      "name": "transfer",
      "outputs": [
        {
          "internalType": "bool",
          "name": "",
          "type": "bool"
        }
      ],
      "stateMutability": "nonpayable",
      "type": "function"
    },
    {
      "inputs": [
        {
          "internalType": "address",
          "name": "sender",
          "type": "address"
        },
        {
          "internalType": "address",
          "name": "recipient",
          "type": "address"
        },
        {
          "internalType": "uint256",
          "name": "amount",
          "type": "uint256"
        }
      ],
      "name": "transferFrom",
      "outputs": [
        {
          "internalType": "bool",
          "name": "",
          "type": "bool"
        }
      ],
      "stateMutability": "nonpayable",
      "type": "function"
    }
  ],
  "transactionHash": "0x7ef5c63ddb038f13f26a53437ea3985619cd90622538c94e8c9f36e0a3262b12",
  "args": [
    "0x063729Efb831B8fE06dD4e46b4c11cC3e7be6DB9"
  ],
  "numDeployments": 1,
  "solcInputHash": "bc7bbdd8bc13167a4e8c856309d03847",
  "bytecode": "0x60806040523480156200001157600080fd5b50604051620012063803806200120683398101604081905262000034916200028a565b60408051808201825260078152661353d0d2d554d160ca1b6020808301918252835180850190945260048452635553444360e01b9084015281519192916200007f91600391620001aa565b50805162000095906004906020840190620001aa565b505050620000b0336509184e72a000620000e460201b60201c565b60068054336001600160a01b031991821617909155600780549091166001600160a01b039290921691909117905562000377565b6001600160a01b038216620001165760405162461bcd60e51b81526004016200010d90620002b7565b60405180910390fd5b80600260008282546200012a919062000309565b90915550506001600160a01b038216600090815260208190526040812080548392906200015990849062000309565b90915550506040516001600160a01b038316906000907fddf252ad1be2c89b69c2b068fc378daa952ba7f163c4a11628f55a4df523b3ef906200019e90859062000324565b60405180910390a35050565b828054620001b89062000347565b90600052602060002090601f016020900481019282620001dc576000855562000227565b82601f10620001f757805160ff191683800117855562000227565b8280016001018555821562000227579182015b82811115620002275782518255916020019190600101906200020a565b506200023592915062000239565b5090565b5b808211156200023557600081556001016200023a565b60006001600160a01b0382165b92915050565b6200026e8162000250565b81146200027a57600080fd5b50565b80516200025d8162000263565b600060208284031215620002a157620002a1600080fd5b6000620002af84846200027d565b949350505050565b602080825281016200025d81601f81527f45524332303a206d696e7420746f20746865207a65726f206164647265737300602082015260400190565b634e487b7160e01b600052601160045260246000fd5b600082198211156200031f576200031f620002f3565b500190565b818152602081016200025d565b634e487b7160e01b600052602260045260246000fd5b6002810460018216806200035c57607f821691505b60208210810362000371576200037162000331565b50919050565b610e7f80620003876000396000f3fe608060405234801561001057600080fd5b506004361061011b5760003560e01c806339509351116100b257806392263a7911610081578063a457c2d711610066578063a457c2d714610259578063a9059cbb1461026c578063dd62ed3e1461027f57600080fd5b806392263a791461024557806395d89b411461025157600080fd5b806339509351146101e15780636a627842146101f457806370a08231146102095780638da5cb5b1461023257600080fd5b806323b872dd116100ee57806323b872dd1461019257806329fd2007146101a55780632ff2e9dc146101c5578063313ce567146101d257600080fd5b806306fdde0314610120578063095ea7b31461013e57806318160ddd1461015e5780631e7269c51461016f575b600080fd5b6101286102b8565b604051610135919061085f565b60405180910390f35b61015161014c3660046108bb565b61034a565b6040516101359190610902565b6002545b6040516101359190610916565b61015161017d366004610924565b60056020526000908152604090205460ff1681565b6101516101a036600461094d565b610361565b6007546101b8906001600160a01b031681565b60405161013591906109a6565b6101626509184e72a00081565b600660405161013591906109bd565b6101516101ef3660046108bb565b6103d3565b610207610202366004610924565b61040f565b005b610162610217366004610924565b6001600160a01b031660009081526020819052604090205490565b6006546101b8906001600160a01b031681565b61016264174876e80081565b61012861050d565b6101516102673660046108bb565b61051c565b61015161027a3660046108bb565b610577565b61016261028d3660046109cb565b6001600160a01b03918216600090815260016020908152604080832093909416825291909152205490565b6060600380546102c790610a14565b80601f01602080910402602001604051908101604052809291908181526020018280546102f390610a14565b80156103405780601f1061031557610100808354040283529160200191610340565b820191906000526020600020905b81548152906001019060200180831161032357829003601f168201915b5050505050905090565b6000610357338484610584565b5060015b92915050565b600061036e848484610638565b6001600160a01b0384166000908152600160209081526040808320338452909152902054828110156103bb5760405162461bcd60e51b81526004016103b290610a9a565b60405180910390fd5b6103c88533858403610584565b506001949350505050565b3360008181526001602090815260408083206001600160a01b0387168452909152812054909161035791859061040a908690610ac0565b610584565b6001600160a01b03811660009081526005602052604090205460ff16156104485760405162461bcd60e51b81526004016103b290610b0c565b6001600160a01b0381166000908152600560205260409020805460ff1916600117905561047a8164174876e80061074d565b6007546006546001600160a01b03918216916323b872dd9116836104a864174876e8006402540be400610b1c565b6040518463ffffffff1660e01b81526004016104c693929190610b3b565b6020604051808303816000875af11580156104e5573d6000803e3d6000fd5b505050506040513d601f19601f820116820180604052508101906105099190610b76565b5050565b6060600480546102c790610a14565b3360009081526001602090815260408083206001600160a01b0386168452909152812054828110156105605760405162461bcd60e51b81526004016103b290610bef565b61056d3385858403610584565b5060019392505050565b6000610357338484610638565b6001600160a01b0383166105aa5760405162461bcd60e51b81526004016103b290610c57565b6001600160a01b0382166105d05760405162461bcd60e51b81526004016103b290610cbf565b6001600160a01b0380841660008181526001602090815260408083209487168084529490915290819020849055517f8c5be1e5ebec7d5bd14f71427d1e84f3dd0314c0f7b2291e5b200ac8c7c3b9259061062b908590610916565b60405180910390a3505050565b6001600160a01b03831661065e5760405162461bcd60e51b81526004016103b290610d27565b6001600160a01b0382166106845760405162461bcd60e51b81526004016103b290610d8f565b6001600160a01b038316600090815260208190526040902054818110156106bd5760405162461bcd60e51b81526004016103b290610df7565b6001600160a01b038085166000908152602081905260408082208585039055918516815290812080548492906106f4908490610ac0565b92505081905550826001600160a01b0316846001600160a01b03167fddf252ad1be2c89b69c2b068fc378daa952ba7f163c4a11628f55a4df523b3ef8460405161073e9190610916565b60405180910390a35b50505050565b6001600160a01b0382166107735760405162461bcd60e51b81526004016103b290610e39565b80600260008282546107859190610ac0565b90915550506001600160a01b038216600090815260208190526040812080548392906107b2908490610ac0565b90915550506040516001600160a01b038316906000907fddf252ad1be2c89b69c2b068fc378daa952ba7f163c4a11628f55a4df523b3ef906107f5908590610916565b60405180910390a35050565b60005b8381101561081c578181015183820152602001610804565b838111156107475750506000910152565b6000610837825190565b80845260208401935061084e818560208601610801565b601f01601f19169290920192915050565b60208082528101610870818461082d565b9392505050565b60006001600160a01b03821661035b565b61089181610877565b811461089c57600080fd5b50565b803561035b81610888565b80610891565b803561035b816108aa565b600080604083850312156108d1576108d1600080fd5b60006108dd858561089f565b92505060206108ee858286016108b0565b9150509250929050565b8015155b82525050565b6020810161035b82846108f8565b806108fc565b6020810161035b8284610910565b60006020828403121561093957610939600080fd5b6000610945848461089f565b949350505050565b60008060006060848603121561096557610965600080fd5b6000610971868661089f565b93505060206109828682870161089f565b9250506040610993868287016108b0565b9150509250925092565b6108fc81610877565b6020810161035b828461099d565b60ff81166108fc565b6020810161035b82846109b4565b600080604083850312156109e1576109e1600080fd5b60006109ed858561089f565b92505060206108ee8582860161089f565b634e487b7160e01b600052602260045260246000fd5b600281046001821680610a2857607f821691505b602082108103610a3a57610a3a6109fe565b50919050565b60288152602081017f45524332303a207472616e7366657220616d6f756e742065786365656473206181527f6c6c6f77616e6365000000000000000000000000000000000000000000000000602082015290505b60400190565b6020808252810161035b81610a40565b634e487b7160e01b600052601160045260246000fd5b60008219821115610ad357610ad3610aaa565b500190565b600e8152602081017f416c7265616479206d696e746564000000000000000000000000000000000000815290505b60200190565b6020808252810161035b81610ad8565b6000816000190483118215151615610b3657610b36610aaa565b500290565b60608101610b49828661099d565b610b56602083018561099d565b6109456040830184610910565b801515610891565b805161035b81610b63565b600060208284031215610b8b57610b8b600080fd5b60006109458484610b6b565b60258152602081017f45524332303a2064656372656173656420616c6c6f77616e63652062656c6f7781527f207a65726f00000000000000000000000000000000000000000000000000000060208201529050610a94565b6020808252810161035b81610b97565b60248152602081017f45524332303a20617070726f76652066726f6d20746865207a65726f2061646481527f726573730000000000000000000000000000000000000000000000000000000060208201529050610a94565b6020808252810161035b81610bff565b60228152602081017f45524332303a20617070726f766520746f20746865207a65726f20616464726581527f737300000000000000000000000000000000000000000000000000000000000060208201529050610a94565b6020808252810161035b81610c67565b60258152602081017f45524332303a207472616e736665722066726f6d20746865207a65726f20616481527f647265737300000000000000000000000000000000000000000000000000000060208201529050610a94565b6020808252810161035b81610ccf565b60238152602081017f45524332303a207472616e7366657220746f20746865207a65726f206164647281527f657373000000000000000000000000000000000000000000000000000000000060208201529050610a94565b6020808252810161035b81610d37565b60268152602081017f45524332303a207472616e7366657220616d6f756e742065786365656473206281527f616c616e6365000000000000000000000000000000000000000000000000000060208201529050610a94565b6020808252810161035b81610d9f565b601f8152602081017f45524332303a206d696e7420746f20746865207a65726f20616464726573730081529050610b06565b6020808252810161035b81610e0756fea2646970667358221220cdc34d0ec9b64616ca31b1fe02f019c18d765f302038b04e8bc3037b344615dd64736f6c634300080d0033",
  "devdoc": {
    "kind": "dev",
    "methods": {
      "allowance(address,address)": {
        "details": "See {IERC20-allowance}."
      },
      "approve(address,uint256)": {
        "details": "See {IERC20-approve}. Requirements: - `spender` cannot be the zero address."
      },
      "balanceOf(address)": {
        "details": "See {IERC20-balanceOf}."
      },
      "decimals()": {
        "details": "Returns the number of decimals used to get its user representation. For example, if `decimals` equals `2`, a balance of `505` tokens should be displayed to a user as `5.05` (`505 / 10 ** 2`). Tokens usually opt for a value of 18, imitating the relationship between Ether and Wei. This is the value {ERC20} uses, unless this function is overridden; NOTE: This information is only used for _display_ purposes: it in no way affects any of the arithmetic of the contract, including {IERC20-balanceOf} and {IERC20-transfer}."
      },
      "decreaseAllowance(address,uint256)": {
        "details": "Atomically decreases the allowance granted to `spender` by the caller. This is an alternative to {approve} that can be used as a mitigation for problems described in {IERC20-approve}. Emits an {Approval} event indicating the updated allowance. Requirements: - `spender` cannot be the zero address. - `spender` must have allowance for the caller of at least `subtractedValue`."
      },
      "increaseAllowance(address,uint256)": {
        "details": "Atomically increases the allowance granted to `spender` by the caller. This is an alternative to {approve} that can be used as a mitigation for problems described in {IERC20-approve}. Emits an {Approval} event indicating the updated allowance. Requirements: - `spender` cannot be the zero address."
      },
      "name()": {
        "details": "Returns the name of the token."
      },
      "symbol()": {
        "details": "Returns the symbol of the token, usually a shorter version of the name."
      },
      "totalSupply()": {
        "details": "See {IERC20-totalSupply}."
      },
      "transfer(address,uint256)": {
        "details": "See {IERC20-transfer}. Requirements: - `recipient` cannot be the zero address. - the caller must have a balance of at least `amount`."
      },
      "transferFrom(address,address,uint256)": {
        "details": "See {IERC20-transferFrom}. Emits an {Approval} event indicating the updated allowance. This is not required by the EIP. See the note at the beginning of {ERC20}. Requirements: - `sender` and `recipient` cannot be the zero address. - `sender` must have a balance of at least `amount`. - the caller must have allowance for ``sender``'s tokens of at least `amount`."
      }
    },
    "version": 1
  },
  "userdoc": {
    "kind": "user",
    "methods": {},
    "notice": "This is the MockUSD used in testnet         Maximum mint amount is 500k for each user.         Maximum mint amount for every single tx is 100k.",
    "version": 1
  },
  "storageLayout": {
    "storage": [
      {
        "astId": 4755,
        "contract": "contracts/mocks/MockUSD.sol:MockUSD",
        "label": "_balances",
        "offset": 0,
        "slot": "0",
        "type": "t_mapping(t_address,t_uint256)"
      },
      {
        "astId": 4761,
        "contract": "contracts/mocks/MockUSD.sol:MockUSD",
        "label": "_allowances",
        "offset": 0,
        "slot": "1",
        "type": "t_mapping(t_address,t_mapping(t_address,t_uint256))"
      },
      {
        "astId": 4763,
        "contract": "contracts/mocks/MockUSD.sol:MockUSD",
        "label": "_totalSupply",
        "offset": 0,
        "slot": "2",
        "type": "t_uint256"
      },
      {
        "astId": 4765,
        "contract": "contracts/mocks/MockUSD.sol:MockUSD",
        "label": "_name",
        "offset": 0,
        "slot": "3",
        "type": "t_string_storage"
      },
      {
        "astId": 4767,
        "contract": "contracts/mocks/MockUSD.sol:MockUSD",
        "label": "_symbol",
        "offset": 0,
        "slot": "4",
        "type": "t_string_storage"
      },
      {
        "astId": 25280,
        "contract": "contracts/mocks/MockUSD.sol:MockUSD",
        "label": "minted",
        "offset": 0,
        "slot": "5",
        "type": "t_mapping(t_address,t_bool)"
      },
      {
        "astId": 25282,
        "contract": "contracts/mocks/MockUSD.sol:MockUSD",
        "label": "owner",
        "offset": 0,
        "slot": "6",
        "type": "t_address"
      },
      {
        "astId": 25284,
        "contract": "contracts/mocks/MockUSD.sol:MockUSD",
        "label": "degis",
        "offset": 0,
        "slot": "7",
        "type": "t_address"
      }
    ],
    "types": {
      "t_address": {
        "encoding": "inplace",
        "label": "address",
        "numberOfBytes": "20"
      },
      "t_bool": {
        "encoding": "inplace",
        "label": "bool",
        "numberOfBytes": "1"
      },
      "t_mapping(t_address,t_bool)": {
        "encoding": "mapping",
        "key": "t_address",
        "label": "mapping(address => bool)",
        "numberOfBytes": "32",
        "value": "t_bool"
      },
      "t_mapping(t_address,t_mapping(t_address,t_uint256))": {
        "encoding": "mapping",
        "key": "t_address",
        "label": "mapping(address => mapping(address => uint256))",
        "numberOfBytes": "32",
        "value": "t_mapping(t_address,t_uint256)"
      },
      "t_mapping(t_address,t_uint256)": {
        "encoding": "mapping",
        "key": "t_address",
        "label": "mapping(address => uint256)",
        "numberOfBytes": "32",
        "value": "t_uint256"
      },
      "t_string_storage": {
        "encoding": "bytes",
        "label": "string",
        "numberOfBytes": "32"
      },
      "t_uint256": {
        "encoding": "inplace",
        "label": "uint256",
        "numberOfBytes": "32"
      }
    }
  }
}