{
  "address": "0x047501B01905773e2A8366D069B2274C351c981B",
  "abi": [
    {
      "inputs": [],
      "stateMutability": "nonpayable",
      "type": "constructor"
    },
    {
      "anonymous": false,
      "inputs": [
        {
          "indexed": true,
          "internalType": "address",
          "name": "owner",
          "type": "address"
        },
        {
          "indexed": true,
          "internalType": "address",
          "name": "spender",
          "type": "address"
        },
        {
          "indexed": false,
          "internalType": "uint256",
          "name": "value",
          "type": "uint256"
        }
      ],
      "name": "Approval",
      "type": "event"
    },
    {
      "anonymous": false,
      "inputs": [
        {
          "indexed": true,
          "internalType": "address",
          "name": "from",
          "type": "address"
        },
        {
          "indexed": true,
          "internalType": "address",
          "name": "to",
          "type": "address"
        },
        {
          "indexed": false,
          "internalType": "uint256",
          "name": "value",
          "type": "uint256"
        }
      ],
      "name": "Transfer",
      "type": "event"
    },
    {
      "inputs": [],
      "name": "INITIAL_SUPPLY",
      "outputs": [
        {
          "internalType": "uint256",
          "name": "",
          "type": "uint256"
        }
      ],
      "stateMutability": "view",
      "type": "function"
    },
    {
      "inputs": [],
      "name": "USER_CAP",
      "outputs": [
        {
          "internalType": "uint256",
          "name": "",
          "type": "uint256"
        }
      ],
      "stateMutability": "view",
      "type": "function"
    },
    {
      "inputs": [
        {
          "internalType": "address",
          "name": "owner",
          "type": "address"
        },
        {
          "internalType": "address",
          "name": "spender",
          "type": "address"
        }
      ],
      "name": "allowance",
      "outputs": [
        {
          "internalType": "uint256",
          "name": "",
          "type": "uint256"
        }
      ],
      "stateMutability": "view",
      "type": "function"
    },
    {
      "inputs": [
        {
          "internalType": "address",
          "name": "spender",
          "type": "address"
        },
        {
          "internalType": "uint256",
          "name": "amount",
          "type": "uint256"
        }
      ],
      "name": "approve",
      "outputs": [
        {
          "internalType": "bool",
          "name": "",
          "type": "bool"
        }
      ],
      "stateMutability": "nonpayable",
      "type": "function"
    },
    {
      "inputs": [
        {
          "internalType": "address",
          "name": "account",
          "type": "address"
        }
      ],
      "name": "balanceOf",
      "outputs": [
        {
          "internalType": "uint256",
          "name": "",
          "type": "uint256"
        }
      ],
      "stateMutability": "view",
      "type": "function"
    },
    {
      "inputs": [],
      "name": "decimals",
      "outputs": [
        {
          "internalType": "uint8",
          "name": "",
          "type": "uint8"
        }
      ],
      "stateMutability": "view",
      "type": "function"
    },
    {
      "inputs": [
        {
          "internalType": "address",
          "name": "spender",
          "type": "address"
        },
        {
          "internalType": "uint256",
          "name": "subtractedValue",
          "type": "uint256"
        }
      ],
      "name": "decreaseAllowance",
      "outputs": [
        {
          "internalType": "bool",
          "name": "",
          "type": "bool"
        }
      ],
      "stateMutability": "nonpayable",
      "type": "function"
    },
    {
      "inputs": [],
      "name": "getAllUsers",
      "outputs": [
        {
          "internalType": "address[]",
          "name": "",
          "type": "address[]"
        }
      ],
      "stateMutability": "view",
      "type": "function"
    },
    {
      "inputs": [
        {
          "internalType": "address",
          "name": "spender",
          "type": "address"
        },
        {
          "internalType": "uint256",
          "name": "addedValue",
          "type": "uint256"
        }
      ],
      "name": "increaseAllowance",
      "outputs": [
        {
          "internalType": "bool",
          "name": "",
          "type": "bool"
        }
      ],
      "stateMutability": "nonpayable",
      "type": "function"
    },
    {
      "inputs": [
        {
          "internalType": "address",
          "name": "_account",
          "type": "address"
        },
        {
          "internalType": "uint256",
          "name": "_amount",
          "type": "uint256"
        }
      ],
      "name": "mint",
      "outputs": [],
      "stateMutability": "nonpayable",
      "type": "function"
    },
    {
      "inputs": [],
      "name": "name",
      "outputs": [
        {
          "internalType": "string",
          "name": "",
          "type": "string"
        }
      ],
      "stateMutability": "view",
      "type": "function"
    },
    {
      "inputs": [],
      "name": "symbol",
      "outputs": [
        {
          "internalType": "string",
          "name": "",
          "type": "string"
        }
      ],
      "stateMutability": "view",
      "type": "function"
    },
    {
      "inputs": [],
      "name": "totalSupply",
      "outputs": [
        {
          "internalType": "uint256",
          "name": "",
          "type": "uint256"
        }
      ],
      "stateMutability": "view",
      "type": "function"
    },
    {
      "inputs": [
        {
          "internalType": "address",
          "name": "recipient",
          "type": "address"
        },
        {
          "internalType": "uint256",
          "name": "amount",
          "type": "uint256"
        }
      ],
      "name": "transfer",
      "outputs": [
        {
          "internalType": "bool",
          "name": "",
          "type": "bool"
        }
      ],
      "stateMutability": "nonpayable",
      "type": "function"
    },
    {
      "inputs": [
        {
          "internalType": "address",
          "name": "sender",
          "type": "address"
        },
        {
          "internalType": "address",
          "name": "recipient",
          "type": "address"
        },
        {
          "internalType": "uint256",
          "name": "amount",
          "type": "uint256"
        }
      ],
      "name": "transferFrom",
      "outputs": [
        {
          "internalType": "bool",
          "name": "",
          "type": "bool"
        }
      ],
      "stateMutability": "nonpayable",
      "type": "function"
    }
  ],
  "transactionHash": "0xef59067f2a54f29aa72da98ef1b661a9a98aa0455fc5bec688b132f5fd98257b",
  "args": [],
  "numDeployments": 1,
  "solcInputHash": "891f6e83b97076056766f10193ee5514",
  "bytecode": "0x60806040526969e10de76676d08000006005553480156200001f57600080fd5b5060408051808201825260078152661353d0d2d554d160ca1b6020808301918252835180850190945260048452635553444360e01b9084015281519192916200006b916003916200016c565b508051620000819060049060208401906200016c565b505050620000a03369152d02c7e14af6800000620000a660201b60201c565b620002d9565b6001600160a01b038216620000d85760405162461bcd60e51b8152600401620000cf9062000212565b60405180910390fd5b8060026000828254620000ec91906200026a565b90915550506001600160a01b038216600090815260208190526040812080548392906200011b9084906200026a565b90915550506040516001600160a01b038316906000907fddf252ad1be2c89b69c2b068fc378daa952ba7f163c4a11628f55a4df523b3ef906200016090859062000285565b60405180910390a35050565b8280546200017a90620002a8565b90600052602060002090601f0160209004810192826200019e5760008555620001e9565b82601f10620001b957805160ff1916838001178555620001e9565b82800160010185558215620001e9579182015b82811115620001e9578251825591602001919060010190620001cc565b50620001f7929150620001fb565b5090565b5b80821115620001f75760008155600101620001fc565b602080825281016200024e81601f81527f45524332303a206d696e7420746f20746865207a65726f206164647265737300602082015260400190565b92915050565b634e487b7160e01b600052601160045260246000fd5b6000821982111562000280576200028062000254565b500190565b818152602081016200024e565b634e487b7160e01b600052602260045260246000fd5b600281046001821680620002bd57607f821691505b60208210811415620002d357620002d362000292565b50919050565b610e2e80620002e96000396000f3fe608060405234801561001057600080fd5b50600436106100f55760003560e01c806340c10f1911610097578063a457c2d711610066578063a457c2d7146101de578063a9059cbb146101f1578063dd62ed3e14610204578063e2842d791461023d57600080fd5b806340c10f191461018f57806370a08231146101a45780637a4f1d35146101cd57806395d89b41146101d657600080fd5b806323b872dd116100d357806323b872dd146101495780632ff2e9dc1461015c578063313ce5671461016d578063395093511461017c57600080fd5b806306fdde03146100fa578063095ea7b31461011857806318160ddd14610138575b600080fd5b610102610252565b60405161010f919061086f565b60405180910390f35b61012b6101263660046108cb565b6102e4565b60405161010f9190610912565b6002545b60405161010f9190610926565b61012b610157366004610934565b6102fb565b61013c69152d02c7e14af680000081565b601260405161010f919061098d565b61012b61018a3660046108cb565b61036d565b6101a261019d3660046108cb565b6103a9565b005b61013c6101b236600461099b565b6001600160a01b031660009081526020819052604090205490565b61013c60055481565b6101026104bc565b61012b6101ec3660046108cb565b6104cb565b61012b6101ff3660046108cb565b610526565b61013c6102123660046109c4565b6001600160a01b03918216600090815260016020908152604080832093909416825291909152205490565b610245610533565b60405161010f9190610a5e565b60606003805461026190610a85565b80601f016020809104026020016040519081016040528092919081815260200182805461028d90610a85565b80156102da5780601f106102af576101008083540402835291602001916102da565b820191906000526020600020905b8154815290600101906020018083116102bd57829003601f168201915b5050505050905090565b60006102f1338484610594565b5060015b92915050565b6000610308848484610648565b6001600160a01b0384166000908152600160209081526040808320338452909152902054828110156103555760405162461bcd60e51b815260040161034c90610af7565b60405180910390fd5b6103628533858403610594565b506001949350505050565b3360008181526001602090815260408083206001600160a01b038716845290915281205490916102f19185906103a4908690610b1d565b610594565b69152d02c7e14af68000008111156103d35760405162461bcd60e51b815260040161034c90610b75565b6005546001600160a01b0383166000908152600660205260409020546103fa908390610b1d565b11156104185760405162461bcd60e51b815260040161034c90610bcb565b6001600160a01b03821660009081526006602052604090205461048157600780546001810182556000919091527fa66cc928b5edb82af9bd49922954155ab7b0942694bea4ce44661d9a8736c6880180546001600160a01b0319166001600160a01b0384161790555b61048b828261075d565b6001600160a01b038216600090815260066020526040812080548392906104b3908490610b1d565b90915550505050565b60606004805461026190610a85565b3360009081526001602090815260408083206001600160a01b03861684529091528120548281101561050f5760405162461bcd60e51b815260040161034c90610c1b565b61051c3385858403610594565b5060019392505050565b60006102f1338484610648565b606060078054806020026020016040519081016040528092919081815260200182805480156102da57602002820191906000526020600020905b81546001600160a01b0316815260019091019060200180831161056d575050505050905090565b6001600160a01b0383166105ba5760405162461bcd60e51b815260040161034c90610c6a565b6001600160a01b0382166105e05760405162461bcd60e51b815260040161034c90610cb7565b6001600160a01b0380841660008181526001602090815260408083209487168084529490915290819020849055517f8c5be1e5ebec7d5bd14f71427d1e84f3dd0314c0f7b2291e5b200ac8c7c3b9259061063b908590610926565b60405180910390a3505050565b6001600160a01b03831661066e5760405162461bcd60e51b815260040161034c90610d07565b6001600160a01b0382166106945760405162461bcd60e51b815260040161034c90610d55565b6001600160a01b038316600090815260208190526040902054818110156106cd5760405162461bcd60e51b815260040161034c90610da6565b6001600160a01b03808516600090815260208190526040808220858503905591851681529081208054849290610704908490610b1d565b92505081905550826001600160a01b0316846001600160a01b03167fddf252ad1be2c89b69c2b068fc378daa952ba7f163c4a11628f55a4df523b3ef8460405161074e9190610926565b60405180910390a35b50505050565b6001600160a01b0382166107835760405162461bcd60e51b815260040161034c90610de8565b80600260008282546107959190610b1d565b90915550506001600160a01b038216600090815260208190526040812080548392906107c2908490610b1d565b90915550506040516001600160a01b038316906000907fddf252ad1be2c89b69c2b068fc378daa952ba7f163c4a11628f55a4df523b3ef90610805908590610926565b60405180910390a35050565b60005b8381101561082c578181015183820152602001610814565b838111156107575750506000910152565b6000610847825190565b80845260208401935061085e818560208601610811565b601f01601f19169290920192915050565b60208082528101610880818461083d565b9392505050565b60006001600160a01b0382166102f5565b6108a181610887565b81146108ac57600080fd5b50565b80356102f581610898565b806108a1565b80356102f5816108ba565b600080604083850312156108e1576108e1600080fd5b60006108ed85856108af565b92505060206108fe858286016108c0565b9150509250929050565b8015155b82525050565b602081016102f58284610908565b8061090c565b602081016102f58284610920565b60008060006060848603121561094c5761094c600080fd5b600061095886866108af565b9350506020610969868287016108af565b925050604061097a868287016108c0565b9150509250925092565b60ff811661090c565b602081016102f58284610984565b6000602082840312156109b0576109b0600080fd5b60006109bc84846108af565b949350505050565b600080604083850312156109da576109da600080fd5b60006109e685856108af565b92505060206108fe858286016108af565b61090c81610887565b610a0a82826109f7565b5060200190565b60200190565b6000610a21825190565b808452602093840193830160005b82811015610a54578151610a438782610a00565b965050602082019150600101610a2f565b5093949350505050565b602080825281016108808184610a17565b634e487b7160e01b600052602260045260246000fd5b600281046001821680610a9957607f821691505b60208210811415610aac57610aac610a6f565b50919050565b60288152602081017f45524332303a207472616e7366657220616d6f756e74206578636565647320618152676c6c6f77616e636560c01b602082015290505b60400190565b602080825281016102f581610ab2565b634e487b7160e01b600052601160045260246000fd5b60008219821115610b3057610b30610b07565b500190565b60258152602081017f506c65617365206d696e74206c657373207468616e203130306b2065766572798152642074696d6560d81b60208201529050610af1565b602080825281016102f581610b35565b602b8152602081017f596f752068617665206d696e74656420746f6f206d616e792075736420286d6181526a78696d756d203530306b2960a81b60208201529050610af1565b602080825281016102f581610b85565b60258152602081017f45524332303a2064656372656173656420616c6c6f77616e63652062656c6f77815264207a65726f60d81b60208201529050610af1565b602080825281016102f581610bdb565b60248152602081017f45524332303a20617070726f76652066726f6d20746865207a65726f206164648152637265737360e01b60208201529050610af1565b602080825281016102f581610c2b565b60228152602081017f45524332303a20617070726f766520746f20746865207a65726f206164647265815261737360f01b60208201529050610af1565b602080825281016102f581610c7a565b60258152602081017f45524332303a207472616e736665722066726f6d20746865207a65726f206164815264647265737360d81b60208201529050610af1565b602080825281016102f581610cc7565b60238152602081017f45524332303a207472616e7366657220746f20746865207a65726f206164647281526265737360e81b60208201529050610af1565b602080825281016102f581610d17565b60268152602081017f45524332303a207472616e7366657220616d6f756e7420657863656564732062815265616c616e636560d01b60208201529050610af1565b602080825281016102f581610d65565b601f8152602081017f45524332303a206d696e7420746f20746865207a65726f20616464726573730081529050610a11565b602080825281016102f581610db656fea2646970667358221220b066ffac3f7be9e80e40754b5a8a26a9bbed28472efe4f56de7e357b4cc636f764736f6c634300080a0033",
  "devdoc": {
    "kind": "dev",
    "methods": {
      "allowance(address,address)": {
        "details": "See {IERC20-allowance}."
      },
      "approve(address,uint256)": {
        "details": "See {IERC20-approve}. Requirements: - `spender` cannot be the zero address."
      },
      "balanceOf(address)": {
        "details": "See {IERC20-balanceOf}."
      },
      "decimals()": {
        "details": "Returns the number of decimals used to get its user representation. For example, if `decimals` equals `2`, a balance of `505` tokens should be displayed to a user as `5.05` (`505 / 10 ** 2`). Tokens usually opt for a value of 18, imitating the relationship between Ether and Wei. This is the value {ERC20} uses, unless this function is overridden; NOTE: This information is only used for _display_ purposes: it in no way affects any of the arithmetic of the contract, including {IERC20-balanceOf} and {IERC20-transfer}."
      },
      "decreaseAllowance(address,uint256)": {
        "details": "Atomically decreases the allowance granted to `spender` by the caller. This is an alternative to {approve} that can be used as a mitigation for problems described in {IERC20-approve}. Emits an {Approval} event indicating the updated allowance. Requirements: - `spender` cannot be the zero address. - `spender` must have allowance for the caller of at least `subtractedValue`."
      },
      "increaseAllowance(address,uint256)": {
        "details": "Atomically increases the allowance granted to `spender` by the caller. This is an alternative to {approve} that can be used as a mitigation for problems described in {IERC20-approve}. Emits an {Approval} event indicating the updated allowance. Requirements: - `spender` cannot be the zero address."
      },
      "name()": {
        "details": "Returns the name of the token."
      },
      "symbol()": {
        "details": "Returns the symbol of the token, usually a shorter version of the name."
      },
      "totalSupply()": {
        "details": "See {IERC20-totalSupply}."
      },
      "transfer(address,uint256)": {
        "details": "See {IERC20-transfer}. Requirements: - `recipient` cannot be the zero address. - the caller must have a balance of at least `amount`."
      },
      "transferFrom(address,address,uint256)": {
        "details": "See {IERC20-transferFrom}. Emits an {Approval} event indicating the updated allowance. This is not required by the EIP. See the note at the beginning of {ERC20}. Requirements: - `sender` and `recipient` cannot be the zero address. - `sender` must have a balance of at least `amount`. - the caller must have allowance for ``sender``'s tokens of at least `amount`."
      }
    },
    "version": 1
  },
  "userdoc": {
    "kind": "user",
    "methods": {},
    "notice": "This is the MockUSD used in testnet         Maximum mint amount is 500k for each user.         Maximum mint amount for every single tx is 100k.",
    "version": 1
  },
  "storageLayout": {
    "storage": [
      {
        "astId": 2448,
        "contract": "contracts/mocks/MockUSD.sol:MockUSD",
        "label": "_balances",
        "offset": 0,
        "slot": "0",
        "type": "t_mapping(t_address,t_uint256)"
      },
      {
        "astId": 2454,
        "contract": "contracts/mocks/MockUSD.sol:MockUSD",
        "label": "_allowances",
        "offset": 0,
        "slot": "1",
        "type": "t_mapping(t_address,t_mapping(t_address,t_uint256))"
      },
      {
        "astId": 2456,
        "contract": "contracts/mocks/MockUSD.sol:MockUSD",
        "label": "_totalSupply",
        "offset": 0,
        "slot": "2",
        "type": "t_uint256"
      },
      {
        "astId": 2458,
        "contract": "contracts/mocks/MockUSD.sol:MockUSD",
        "label": "_name",
        "offset": 0,
        "slot": "3",
        "type": "t_string_storage"
      },
      {
        "astId": 2460,
        "contract": "contracts/mocks/MockUSD.sol:MockUSD",
        "label": "_symbol",
        "offset": 0,
        "slot": "4",
        "type": "t_string_storage"
      },
      {
        "astId": 15391,
        "contract": "contracts/mocks/MockUSD.sol:MockUSD",
        "label": "USER_CAP",
        "offset": 0,
        "slot": "5",
        "type": "t_uint256"
      },
      {
        "astId": 15395,
        "contract": "contracts/mocks/MockUSD.sol:MockUSD",
        "label": "userHaveMinted",
        "offset": 0,
        "slot": "6",
        "type": "t_mapping(t_address,t_uint256)"
      },
      {
        "astId": 15398,
        "contract": "contracts/mocks/MockUSD.sol:MockUSD",
        "label": "allUsers",
        "offset": 0,
        "slot": "7",
        "type": "t_array(t_address)dyn_storage"
      }
    ],
    "types": {
      "t_address": {
        "encoding": "inplace",
        "label": "address",
        "numberOfBytes": "20"
      },
      "t_array(t_address)dyn_storage": {
        "base": "t_address",
        "encoding": "dynamic_array",
        "label": "address[]",
        "numberOfBytes": "32"
      },
      "t_mapping(t_address,t_mapping(t_address,t_uint256))": {
        "encoding": "mapping",
        "key": "t_address",
        "label": "mapping(address => mapping(address => uint256))",
        "numberOfBytes": "32",
        "value": "t_mapping(t_address,t_uint256)"
      },
      "t_mapping(t_address,t_uint256)": {
        "encoding": "mapping",
        "key": "t_address",
        "label": "mapping(address => uint256)",
        "numberOfBytes": "32",
        "value": "t_uint256"
      },
      "t_string_storage": {
        "encoding": "bytes",
        "label": "string",
        "numberOfBytes": "32"
      },
      "t_uint256": {
        "encoding": "inplace",
        "label": "uint256",
        "numberOfBytes": "32"
      }
    }
  }
}