{
  "address": "0x7C429cA9561d1Fd065575aA836CcdB888421dfD6",
  "abi": [
    {
      "inputs": [
        {
          "internalType": "address",
          "name": "_factory",
          "type": "address"
        },
        {
          "internalType": "address",
          "name": "_buyerToken",
          "type": "address"
        }
      ],
      "stateMutability": "nonpayable",
      "type": "constructor"
    },
    {
      "inputs": [
        {
          "internalType": "uint256",
          "name": "prod1",
          "type": "uint256"
        }
      ],
      "name": "PRBMath__MulDivFixedPointOverflow",
      "type": "error"
    },
    {
      "inputs": [
        {
          "internalType": "uint256",
          "name": "prod1",
          "type": "uint256"
        },
        {
          "internalType": "uint256",
          "name": "denominator",
          "type": "uint256"
        }
      ],
      "name": "PRBMath__MulDivOverflow",
      "type": "error"
    },
    {
      "anonymous": false,
      "inputs": [
        {
          "indexed": true,
          "internalType": "address",
          "name": "pairAddress",
          "type": "address"
        },
        {
          "indexed": false,
          "internalType": "uint256",
          "name": "amountA",
          "type": "uint256"
        },
        {
          "indexed": false,
          "internalType": "uint256",
          "name": "amountB",
          "type": "uint256"
        },
        {
          "indexed": false,
          "internalType": "uint256",
          "name": "liquidity",
          "type": "uint256"
        }
      ],
      "name": "LiquidityAdded",
      "type": "event"
    },
    {
      "anonymous": false,
      "inputs": [
        {
          "indexed": true,
          "internalType": "address",
          "name": "pairAddress",
          "type": "address"
        },
        {
          "indexed": false,
          "internalType": "uint256",
          "name": "amountA",
          "type": "uint256"
        },
        {
          "indexed": false,
          "internalType": "uint256",
          "name": "amountB",
          "type": "uint256"
        },
        {
          "indexed": false,
          "internalType": "uint256",
          "name": "liquidity",
          "type": "uint256"
        }
      ],
      "name": "LiquidityRemoved",
      "type": "event"
    },
    {
      "anonymous": false,
      "inputs": [
        {
          "indexed": true,
          "internalType": "address",
          "name": "previousOwner",
          "type": "address"
        },
        {
          "indexed": true,
          "internalType": "address",
          "name": "newOwner",
          "type": "address"
        }
      ],
      "name": "OwnershipTransferred",
      "type": "event"
    },
    {
      "inputs": [
        {
          "internalType": "address",
          "name": "_tokenA",
          "type": "address"
        },
        {
          "internalType": "address",
          "name": "_tokenB",
          "type": "address"
        },
        {
          "internalType": "uint256",
          "name": "_amountADesired",
          "type": "uint256"
        },
        {
          "internalType": "uint256",
          "name": "_amountBDesired",
          "type": "uint256"
        },
        {
          "internalType": "uint256",
          "name": "_amountAMin",
          "type": "uint256"
        },
        {
          "internalType": "uint256",
          "name": "_amountBMin",
          "type": "uint256"
        },
        {
          "internalType": "address",
          "name": "_to",
          "type": "address"
        },
        {
          "internalType": "uint256",
          "name": "_deadline",
          "type": "uint256"
        }
      ],
      "name": "addLiquidity",
      "outputs": [
        {
          "internalType": "uint256",
          "name": "amountA",
          "type": "uint256"
        },
        {
          "internalType": "uint256",
          "name": "amountB",
          "type": "uint256"
        },
        {
          "internalType": "uint256",
          "name": "liquidity",
          "type": "uint256"
        }
      ],
      "stateMutability": "nonpayable",
      "type": "function"
    },
    {
      "inputs": [
        {
          "internalType": "address",
          "name": "_tokenA",
          "type": "address"
        },
        {
          "internalType": "address",
          "name": "_tokenB",
          "type": "address"
        },
        {
          "internalType": "uint256",
          "name": "_amountUSD",
          "type": "uint256"
        },
        {
          "internalType": "address",
          "name": "_to",
          "type": "address"
        },
        {
          "internalType": "uint256",
          "name": "_minRatio",
          "type": "uint256"
        },
        {
          "internalType": "uint256",
          "name": "_deadline",
          "type": "uint256"
        }
      ],
      "name": "addLiquidityWithUSD",
      "outputs": [],
      "stateMutability": "nonpayable",
      "type": "function"
    },
    {
      "inputs": [],
      "name": "buyerToken",
      "outputs": [
        {
          "internalType": "address",
          "name": "",
          "type": "address"
        }
      ],
      "stateMutability": "view",
      "type": "function"
    },
    {
      "inputs": [],
      "name": "factory",
      "outputs": [
        {
          "internalType": "address",
          "name": "",
          "type": "address"
        }
      ],
      "stateMutability": "view",
      "type": "function"
    },
    {
      "inputs": [],
      "name": "owner",
      "outputs": [
        {
          "internalType": "address",
          "name": "",
          "type": "address"
        }
      ],
      "stateMutability": "view",
      "type": "function"
    },
    {
      "inputs": [],
      "name": "policyCore",
      "outputs": [
        {
          "internalType": "address",
          "name": "",
          "type": "address"
        }
      ],
      "stateMutability": "view",
      "type": "function"
    },
    {
      "inputs": [
        {
          "internalType": "address",
          "name": "_tokenA",
          "type": "address"
        },
        {
          "internalType": "address",
          "name": "_tokenB",
          "type": "address"
        },
        {
          "internalType": "uint256",
          "name": "_liquidity",
          "type": "uint256"
        },
        {
          "internalType": "uint256",
          "name": "_amountAMin",
          "type": "uint256"
        },
        {
          "internalType": "uint256",
          "name": "_amountBMin",
          "type": "uint256"
        },
        {
          "internalType": "address",
          "name": "_to",
          "type": "address"
        },
        {
          "internalType": "uint256",
          "name": "_deadline",
          "type": "uint256"
        }
      ],
      "name": "removeLiquidity",
      "outputs": [
        {
          "internalType": "uint256",
          "name": "amountA",
          "type": "uint256"
        },
        {
          "internalType": "uint256",
          "name": "amountB",
          "type": "uint256"
        }
      ],
      "stateMutability": "nonpayable",
      "type": "function"
    },
    {
      "inputs": [],
      "name": "renounceOwnership",
      "outputs": [],
      "stateMutability": "nonpayable",
      "type": "function"
    },
    {
      "inputs": [
        {
          "internalType": "address",
          "name": "_buyerToken",
          "type": "address"
        }
      ],
      "name": "setBuyerToken",
      "outputs": [],
      "stateMutability": "nonpayable",
      "type": "function"
    },
    {
      "inputs": [
        {
          "internalType": "address",
          "name": "_coreAddress",
          "type": "address"
        }
      ],
      "name": "setPolicyCore",
      "outputs": [],
      "stateMutability": "nonpayable",
      "type": "function"
    },
    {
      "inputs": [
        {
          "internalType": "uint256",
          "name": "_amountIn",
          "type": "uint256"
        },
        {
          "internalType": "uint256",
          "name": "_amountOutMin",
          "type": "uint256"
        },
        {
          "internalType": "address",
          "name": "_tokenIn",
          "type": "address"
        },
        {
          "internalType": "address",
          "name": "_tokenOut",
          "type": "address"
        },
        {
          "internalType": "address",
          "name": "_to",
          "type": "address"
        },
        {
          "internalType": "uint256",
          "name": "_deadline",
          "type": "uint256"
        }
      ],
      "name": "swapExactTokensforTokens",
      "outputs": [
        {
          "internalType": "uint256",
          "name": "amountOut",
          "type": "uint256"
        }
      ],
      "stateMutability": "nonpayable",
      "type": "function"
    },
    {
      "inputs": [
        {
          "internalType": "uint256",
          "name": "_amountInMax",
          "type": "uint256"
        },
        {
          "internalType": "uint256",
          "name": "_amountOut",
          "type": "uint256"
        },
        {
          "internalType": "address",
          "name": "_tokenIn",
          "type": "address"
        },
        {
          "internalType": "address",
          "name": "_tokenOut",
          "type": "address"
        },
        {
          "internalType": "address",
          "name": "_to",
          "type": "address"
        },
        {
          "internalType": "uint256",
          "name": "_deadline",
          "type": "uint256"
        }
      ],
      "name": "swapTokensforExactTokens",
      "outputs": [
        {
          "internalType": "uint256",
          "name": "amountIn",
          "type": "uint256"
        }
      ],
      "stateMutability": "nonpayable",
      "type": "function"
    },
    {
      "inputs": [
        {
          "internalType": "address",
          "name": "newOwner",
          "type": "address"
        }
      ],
      "name": "transferOwnership",
      "outputs": [],
      "stateMutability": "nonpayable",
      "type": "function"
    }
  ],
  "transactionHash": "0xb3ee2b9098b7007bfdb17558bc0671517abbc71eb6f4fd145474f1e534467395",
  "args": [
    "0xa1204164Fe4742f8cB09435360E200E05f2E9D33",
    "0x55CCfA6fE70b0e5faD62525b4764572812F2F463"
  ],
  "numDeployments": 1,
  "solcInputHash": "c93208af0650ec7944554f5ed4da2f2f",
  "bytecode": "0x60806040523480156200001157600080fd5b5060405162002291380380620022918339810160408190526200003491620000fb565b6200003f3362000071565b600180546001600160a01b039384166001600160a01b031991821617909155600380549290931691161790556200013e565b600080546001600160a01b038381166001600160a01b0319831681178455604051919092169283917f8be0079c531659141344cd1fd0a4f28419497f9722a3daafe3b4186f6b6457e09190a35050565b60006001600160a01b0382165b92915050565b620000df81620000c1565b8114620000eb57600080fd5b50565b8051620000ce81620000d4565b60008060408385031215620001135762000113600080fd5b6000620001218585620000ee565b92505060206200013485828601620000ee565b9150509250929050565b612143806200014e6000396000f3fe608060405234801561001057600080fd5b50600436106100cf5760003560e01c8063a5d2a7151161008c578063c45a015511610066578063c45a0155146101a1578063e30145e0146101b4578063e8e33700146101c7578063f2fde38b146101e957600080fd5b8063a5d2a7151461015a578063b8b6022e1461016d578063baa2abde1461018057600080fd5b80630a7af5c6146100d45780631a771f0a146100fd5780633786499914610110578063715018a6146101255780638da5cb5b1461012d57806393822b2114610147575b600080fd5b6100e76100e236600461151c565b6101fc565b6040516100f491906115ae565b60405180910390f35b6100e761010b36600461151c565b61037f565b61012361011e3660046115bc565b6104eb565b005b610123610546565b6000546001600160a01b03165b6040516100f491906115e6565b6101236101553660046115bc565b61058b565b60035461013a906001600160a01b031681565b61012361017b3660046115f4565b6105e6565b61019361018e366004611660565b610728565b6040516100f49291906116ff565b60015461013a906001600160a01b031681565b60025461013a906001600160a01b031681565b6101da6101d536600461171a565b610874565b6040516100f4939291906117cd565b6101236101f73660046115bc565b610998565b6000818042106102275760405162461bcd60e51b815260040161021e9061181f565b60405180910390fd5b60006102338787610a03565b9050806001600160a01b03166329dcb0cf6040518163ffffffff1660e01b8152600401602060405180830381865afa158015610273573d6000803e3d6000fd5b505050506040513d601f19601f82011682018060405250810190610297919061183a565b4211156102b65760405162461bcd60e51b815260040161021e9061189e565b60006102c188610a85565b90506000826001600160a01b031663978bbdb96040518163ffffffff1660e01b8152600401602060405180830381865afa158015610303573d6000803e3d6000fd5b505050506040513d601f19601f82011682018060405250810190610327919061183a565b9050610336828c8b8b85610af7565b9450898510156103585760405162461bcd60e51b815260040161021e906118e0565b6103648933858e610bdc565b610371838c87858b610bf7565b505050509695505050505050565b6000818042106103a15760405162461bcd60e51b815260040161021e9061181f565b60006103ad8787610a03565b9050806001600160a01b03166329dcb0cf6040518163ffffffff1660e01b8152600401602060405180830381865afa1580156103ed573d6000803e3d6000fd5b505050506040513d601f19601f82011682018060405250810190610411919061183a565b4211156104305760405162461bcd60e51b815260040161021e9061189e565b600061043b88610a85565b90506000826001600160a01b031663978bbdb96040518163ffffffff1660e01b8152600401602060405180830381865afa15801561047d573d6000803e3d6000fd5b505050506040513d601f19601f820116820180604052508101906104a1919061183a565b90506104b0828b8b8b85610cf0565b94508a8511156104d25760405162461bcd60e51b815260040161021e9061191b565b6104de89338588610bdc565b61037183868c858b610bf7565b336104fe6000546001600160a01b031690565b6001600160a01b0316146105245760405162461bcd60e51b815260040161021e9061195b565b600280546001600160a01b0319166001600160a01b0392909216919091179055565b336105596000546001600160a01b031690565b6001600160a01b03161461057f5760405162461bcd60e51b815260040161021e9061195b565b6105896000610dda565b565b3361059e6000546001600160a01b031690565b6001600160a01b0316146105c45760405162461bcd60e51b815260040161021e9061195b565b600380546001600160a01b0319166001600160a01b0392909216919091179055565b808042106106065760405162461bcd60e51b815260040161021e9061181f565b60648311156106275760405162461bcd60e51b815260040161021e9061199b565b61063086610a85565b61064c5760405162461bcd60e51b815260040161021e906119dd565b6000806106598989610e2a565b6001600160701b031691506001600160701b0316915060008211801561067f5750600081115b61069b5760405162461bcd60e51b815260040161021e90611a17565b60006106ba6106aa8385611a3d565b6106b48a86610f11565b90610f24565b905060006106d56106cb8486611a3d565b6106b48b86610f11565b90506106e38b8b8433610f39565b6107188b8b84846106f960646106b4848f610f11565b61071160646106b48f8a610f1190919063ffffffff16565b8e8d610874565b5050505050505050505050505050565b6000808280421061074b5760405162461bcd60e51b815260040161021e9061181f565b60006107578b8b610a03565b905061076e6001600160a01b03821633838c61101f565b60405163226bf2d160e21b81526001600160a01b038216906389afcb449061079a9089906004016115e6565b60408051808303816000875af11580156107b8573d6000803e3d6000fd5b505050506040513d601f19601f820116820180604052508101906107dc9190611a55565b9094509250878410156108015760405162461bcd60e51b815260040161021e90611ad0565b868310156108215760405162461bcd60e51b815260040161021e90611b12565b806001600160a01b03167f1dc8bb69df2b8e91fbdcbfcf93d951b3f0000f085a95fe3f7946d6161439245d85858c60405161085e939291906117cd565b60405180910390a2505097509795505050505050565b6000806000838042106108995760405162461bcd60e51b815260040161021e9061181f565b6108a78c8c8c8c8c8c611077565b909450925060006108b88d8d610a03565b90506108c68d338388610bdc565b6108d28c338387610bdc565b6040516335313c2160e11b81526001600160a01b03821690636a627842906108fe908a906004016115e6565b6020604051808303816000875af115801561091d573d6000803e3d6000fd5b505050506040513d601f19601f82011682018060405250810190610941919061183a565b9250806001600160a01b03167f64b83944e79c3ce8d4c297411de637c3e102d064677aac0c163976ebdcd6f50e868686604051610980939291906117cd565b60405180910390a25050985098509895505050505050565b336109ab6000546001600160a01b031690565b6001600160a01b0316146109d15760405162461bcd60e51b815260040161021e9061195b565b6001600160a01b0381166109f75760405162461bcd60e51b815260040161021e90611b63565b610a0081610dda565b50565b60015460405163b4f69a2f60e01b815260009182916001600160a01b039091169063b4f69a2f90610a3a9087908790600401611b73565b602060405180830381865afa158015610a57573d6000803e3d6000fd5b505050506040513d601f19601f82011682018060405250810190610a7b9190611b99565b9150505b92915050565b600254604051635cb3b14f60e01b81526000916001600160a01b031690635cb3b14f90610ab69085906004016115e6565b602060405180830381865afa158015610ad3573d6000803e3d6000fd5b505050506040513d601f19601f82011682018060405250810190610a7f9190611bcd565b6000806000610b068686610e2a565b6001600160701b031691506001600160701b0316915060008089610b2b578383610b2e565b82845b9150915060008911610b525760405162461bcd60e51b815260040161021e90611c20565b600082118015610b625750600081115b610b7e5760405162461bcd60e51b815260040161021e90611c5b565b6000610b8c876103e8611c6b565b610b96908b611c82565b90506000610ba48284610f11565b9050600082610bb5866103e8611c82565b610bbf9190611a3d565b9050610bcb8282610f24565b9d9c50505050505050505050505050565b610bf16001600160a01b03851684848461101f565b50505050565b8115610c60576003546001600160a01b0316632290e10633866040518363ffffffff1660e01b8152600401610c2d929190611ca1565b600060405180830381600087803b158015610c4757600080fd5b505af1158015610c5b573d6000803e3d6000fd5b505050505b600082610c6e576000610c70565b835b9050600083610c7f5784610c82565b60005b6040516336cd320560e11b81529091506001600160a01b03881690636d9a640a90610cb590859085908890600401611caf565b600060405180830381600087803b158015610ccf57600080fd5b505af1158015610ce3573d6000803e3d6000fd5b5050505050505050505050565b6000806000610cff8686610e2a565b6001600160701b031691506001600160701b0316915060008089610d24578383610d27565b82845b9150915060008911610d4b5760405162461bcd60e51b815260040161021e90611d09565b600082118015610d5b5750600081115b610d775760405162461bcd60e51b815260040161021e90611c5b565b6000610d83838b610f11565b610d8f906103e8611c82565b90506000610d9f886103e8611c6b565b610da98c85611c6b565b610db39190611c82565b9050610dbf8282610f24565b610dca906001611a3d565b9c9b505050505050505050505050565b600080546001600160a01b038381166001600160a01b0319831681178455604051919092169283917f8be0079c531659141344cd1fd0a4f28419497f9722a3daafe3b4186f6b6457e09190a35050565b60015460405163b4f69a2f60e01b8152600091829182916001600160a01b03169063b4f69a2f90610e619088908890600401611b73565b602060405180830381865afa158015610e7e573d6000803e3d6000fd5b505050506040513d601f19601f82011682018060405250810190610ea29190611b99565b9050806001600160a01b0316630902f1ac6040518163ffffffff1660e01b81526004016040805180830381865afa158015610ee1573d6000803e3d6000fd5b505050506040513d601f19601f82011682018060405250810190610f059190611d33565b90969095509350505050565b6000610f1d8383611185565b9392505050565b6000610f1d83670de0b6b3a764000084611246565b600254604051631c040ef160e11b81526000916001600160a01b0316906338081de290610f6a9088906004016115e6565b600060405180830381865afa158015610f87573d6000803e3d6000fd5b505050506040513d6000823e601f3d908101601f19168201604052610faf9190810190611e81565b600254604051633c572b0d60e21b81529192506001600160a01b03169063f15cac3490610fe6908490889088908890600401611eee565b600060405180830381600087803b15801561100057600080fd5b505af1158015611014573d6000803e3d6000fd5b505050505050505050565b610bf1846323b872dd60e01b85858560405160240161104093929190611f31565b60408051601f198184030181529190526020810180516001600160e01b03166001600160e01b03199093169290921790915261130d565b60008061108387610a85565b61109f5760405162461bcd60e51b815260040161021e906119dd565b6000806110ac8a8a610e2a565b6001600160701b031691506001600160701b031691508160001480156110d0575080155b156110e057879350869250611178565b60006110ed8984846113a1565b905087811161112157858110156111165760405162461bcd60e51b815260040161021e90611f76565b889450925082611176565b600061112e8984866113a1565b9050898111156111505760405162461bcd60e51b815260040161021e90611fa1565b878110156111705760405162461bcd60e51b815260040161021e90611fdb565b94508793505b505b5050965096945050505050565b60008080600019848609848602925082811083820303915050670de0b6b3a764000081106111c8578060405163698d9a0160e11b815260040161021e91906115ae565b600080670de0b6b3a76400008688099150506706f05b59d3b1ffff8111826112025780670de0b6b3a7640000850401945050505050610a7f565b620400008285030493909111909103600160ee1b02919091177faccb18165bd6fe31ae1cf318dc5b51eee0e1ba569b88cd74c1773b91fac106690201905092915050565b6000808060001985870985870292508281108382030391505080600014156112815783828161127757611277611feb565b0492505050610f1d565b8381106112a5578084604051631dcf306360e21b815260040161021e9291906116ff565b600084868809600260036001881981018916988990049182028318808302840302808302840302808302840302808302840302808302840302918202909203026000889003889004909101858311909403939093029303949094049190911702949350505050565b6000611362826040518060400160405280602081526020017f5361666545524332303a206c6f772d6c6576656c2063616c6c206661696c6564815250856001600160a01b03166114049092919063ffffffff16565b80519091501561139c57808060200190518101906113809190611bcd565b61139c5760405162461bcd60e51b815260040161021e90612046565b505050565b60008084116113c25760405162461bcd60e51b815260040161021e9061207e565b6000831180156113d25750600082115b6113ee5760405162461bcd60e51b815260040161021e90611c5b565b6113fc836106b48685610f11565b949350505050565b60606113fc848460008585843b61142d5760405162461bcd60e51b815260040161021e906120c0565b600080866001600160a01b0316858760405161144991906120f2565b60006040518083038185875af1925050503d8060008114611486576040519150601f19603f3d011682016040523d82523d6000602084013e61148b565b606091505b509150915061149b8282866114a6565b979650505050505050565b606083156114b5575081610f1d565b8251156114c55782518084602001fd5b8160405162461bcd60e51b815260040161021e91906120fc565b805b8114610a0057600080fd5b8035610a7f816114df565b60006001600160a01b038216610a7f565b6114e1816114f7565b8035610a7f81611508565b60008060008060008060c0878903121561153857611538600080fd5b600061154489896114ec565b965050602061155589828a016114ec565b955050604061156689828a01611511565b945050606061157789828a01611511565b935050608061158889828a01611511565b92505060a061159989828a016114ec565b9150509295509295509295565b805b82525050565b60208101610a7f82846115a6565b6000602082840312156115d1576115d1600080fd5b60006113fc8484611511565b6115a8816114f7565b60208101610a7f82846115dd565b60008060008060008060c0878903121561161057611610600080fd5b600061161c8989611511565b965050602061162d89828a01611511565b955050604061163e89828a016114ec565b945050606061164f89828a01611511565b935050608061158889828a016114ec565b600080600080600080600060e0888a03121561167e5761167e600080fd5b600061168a8a8a611511565b975050602061169b8a828b01611511565b96505060406116ac8a828b016114ec565b95505060606116bd8a828b016114ec565b94505060806116ce8a828b016114ec565b93505060a06116df8a828b01611511565b92505060c06116f08a828b016114ec565b91505092959891949750929550565b6040810161170d82856115a6565b610f1d60208301846115a6565b600080600080600080600080610100898b03121561173a5761173a600080fd5b60006117468b8b611511565b98505060206117578b828c01611511565b97505060406117688b828c016114ec565b96505060606117798b828c016114ec565b955050608061178a8b828c016114ec565b94505060a061179b8b828c016114ec565b93505060c06117ac8b828c01611511565b92505060e06117bd8b828c016114ec565b9150509295985092959890939650565b606081016117db82866115a6565b6117e860208301856115a6565b6113fc60408301846115a6565b60138152602081017232bc3834b932b2103a3930b739b0b1ba34b7b760691b815290505b60200190565b60208082528101610a7f816117f5565b8051610a7f816114df565b60006020828403121561184f5761184f600080fd5b60006113fc848461182f565b60268152602081017f5468697320706f6f6c20686173206265656e2066726f7a656e20666f72207377815265617070696e6760d01b602082015290505b60400190565b60208082528101610a7f8161185b565b60178152602081017f657863657373697665206f757470757420616d6f756e7400000000000000000081529050611819565b60208082528101610a7f816118ae565b601681526020810175195e18d95cdcda5d99481a5b9c1d5d08185b5bdd5b9d60521b81529050611819565b60208082528101610a7f816118f0565b60208082527f4f776e61626c653a2063616c6c6572206973206e6f7420746865206f776e65729101908152611819565b60208082528101610a7f8161192b565b60208082527f4d696e696d756d20726174696f2063616e206e6f7420657863656564203130309101908152611819565b60208082528101610a7f8161196b565b601f8152602081017f506c656173652070757420737461626c65636f696e20617320746f6b656e420081529050611819565b60208082528101610a7f816119ab565b601581526020810174139bc81d1bdad95b9cc81a5b881d1a19481c1bdbdb605a1b81529050611819565b60208082528101610a7f816119ed565b634e487b7160e01b600052601160045260246000fd5b60008219821115611a5057611a50611a27565b500190565b60008060408385031215611a6b57611a6b600080fd5b6000611a77858561182f565b9250506020611a888582860161182f565b9150509250929050565b60238152602081017f496e73756666696369656e7420696e737572616e636520746f6b656e20616d6f8152621d5b9d60ea1b60208201529050611898565b60208082528101610a7f81611a92565b60178152602081017f496e73756666696369656e74205553445420746f6b656e00000000000000000081529050611819565b60208082528101610a7f81611ae0565b60268152602081017f4f776e61626c653a206e6577206f776e657220697320746865207a65726f206181526564647265737360d01b60208201529050611898565b60208082528101610a7f81611b22565b60408101611b8182856115dd565b610f1d60208301846115dd565b8051610a7f81611508565b600060208284031215611bae57611bae600080fd5b60006113fc8484611b8e565b8015156114e1565b8051610a7f81611bba565b600060208284031215611be257611be2600080fd5b60006113fc8484611bc2565b60198152602081017f696e73756666696369656e7420696e70757420616d6f756e740000000000000081529050611819565b60208082528101610a7f81611bee565b601681526020810175696e73756666696369656e74206c697175696469747960501b81529050611819565b60208082528101610a7f81611c30565b600082821015611c7d57611c7d611a27565b500390565b6000816000190483118215151615611c9c57611c9c611a27565b500290565b6040810161170d82856115dd565b60608101611cbd82866115a6565b611cca60208301856115a6565b6113fc60408301846115dd565b601a8152602081017f696e73756666696369656e74206f757470757420616d6f756e7400000000000081529050611819565b60208082528101610a7f81611cd7565b6001600160701b0381166114e1565b8051610a7f81611d19565b60008060408385031215611d4957611d49600080fd5b6000611d558585611d28565b9250506020611a8885828601611d28565b634e487b7160e01b600052604160045260246000fd5b601f19601f830116810181811067ffffffffffffffff82111715611da257611da2611d66565b6040525050565b6000611db460405190565b9050611dc08282611d7c565b919050565b600067ffffffffffffffff821115611ddf57611ddf611d66565b601f19601f83011660200192915050565b60005b83811015611e0b578181015183820152602001611df3565b83811115610bf15750506000910152565b6000611e2f611e2a84611dc5565b611da9565b905082815260208101848484011115611e4a57611e4a600080fd5b611e55848285611df0565b509392505050565b600082601f830112611e7157611e71600080fd5b81516113fc848260208601611e1c565b600060208284031215611e9657611e96600080fd5b815167ffffffffffffffff811115611eb057611eb0600080fd5b6113fc84828501611e5d565b6000611ec6825190565b808452602084019350611edd818560208601611df0565b601f01601f19169290920192915050565b60808082528101611eff8187611ebc565b9050611f0e60208301866115dd565b611f1b60408301856115a6565b611f2860608301846115dd565b95945050505050565b60608101611f3f82866115dd565b6117e860208301856115dd565b601581526020810174125394d551919250d251539517d097d05353d55395605a1b81529050611819565b60208082528101610a7f81611f4c565b6006815260208101656e6f6e6f6e6f60d01b81529050611819565b60208082528101610a7f81611f86565b601581526020810174125394d551919250d251539517d057d05353d55395605a1b81529050611819565b60208082528101610a7f81611fb1565b634e487b7160e01b600052601260045260246000fd5b602a8152602081017f5361666545524332303a204552433230206f7065726174696f6e20646964206e8152691bdd081cdd58d8d9595960b21b60208201529050611898565b60208082528101610a7f81612001565b6013815260208101721a5b9cdd59999a58da595b9d08185b5bdd5b9d606a1b81529050611819565b60208082528101610a7f81612056565b601d8152602081017f416464726573733a2063616c6c20746f206e6f6e2d636f6e747261637400000081529050611819565b60208082528101610a7f8161208e565b60006120da825190565b6120e8818560208601611df0565b9290920192915050565b610a7f81836120d0565b60208082528101610f1d8184611ebc56fea264697066735822122028c1097f2f68a5310cc1e19508b0224dead08758ecc6930787a8c72d8bfc217464736f6c634300080a0033",
  "devdoc": {
    "kind": "dev",
    "methods": {
      "addLiquidity(address,address,uint256,uint256,uint256,uint256,address,uint256)": {
        "params": {
          "_amountADesired": "Amount of policyToken desired",
          "_amountAMin": "Minimum amoutn of policy token",
          "_amountBDesired": "Amount of stablecoin desired",
          "_amountBMin": "Minimum amount of stablecoin",
          "_deadline": "Transaction will revert after this deadline",
          "_to": "Address that receive the lp token, normally the user himself",
          "_tokenA": "Address of policyToken",
          "_tokenB": "Address of stablecoin"
        },
        "returns": {
          "amountA": "Amount of tokenA to be input",
          "amountB": "Amount of tokenB to be input",
          "liquidity": "LP token to be mint"
        }
      },
      "addLiquidityWithUSD(address,address,uint256,address,uint256,uint256)": {
        "params": {
          "_amountUSD": "Amount of stablecoins provided",
          "_deadline": "Transaction will revert after this deadline",
          "_minRatio": "Minimum ratio (divided by 100)(amountMin / amountDesired)",
          "_to": "Address that receive the lp token, normally the user himself",
          "_tokenA": "Address of policyToken",
          "_tokenB": "Address of stablecoin"
        }
      },
      "removeLiquidity(address,address,uint256,uint256,uint256,address,uint256)": {
        "params": {
          "_amountAMin": "Minimum amount of tokenA given out",
          "_amountBMin": "Minimum amount of tokenB given out",
          "_deadline": "Deadline of this transaction",
          "_liquidity": "The lptoken amount to be removed",
          "_to": "User address",
          "_tokenA": "Address of policy token",
          "_tokenB": "Address of stablecoin"
        },
        "returns": {
          "amountA": "Amount of token0 given out",
          "amountB": "Amount of token1 given out"
        }
      },
      "renounceOwnership()": {
        "details": "Renouncing ownership will leave the contract without an owner,         thereby removing any functionality that is only available to the owner."
      },
      "setBuyerToken(address)": {
        "params": {
          "_buyerToken": "Address of new buyer token"
        }
      },
      "setPolicyCore(address)": {
        "params": {
          "_coreAddress": "Address of new policyCore"
        }
      },
      "swapExactTokensforTokens(uint256,uint256,address,address,address,uint256)": {
        "params": {
          "_amountIn": "Fixed token input",
          "_amountOutMin": "Minimum token output",
          "_deadline": "Deadline for this specific swap",
          "_to": "User address",
          "_tokenIn": "Address of input token",
          "_tokenOut": "Address of output token"
        },
        "returns": {
          "amountOut": "Amounts to be really given out"
        }
      },
      "swapTokensforExactTokens(uint256,uint256,address,address,address,uint256)": {
        "params": {
          "_amountInMax": "Maximum token input",
          "_amountOut": "Fixed token output",
          "_deadline": "Deadline for this specific swap",
          "_to": "User address",
          "_tokenIn": "Address of input token",
          "_tokenOut": "Address of output token"
        },
        "returns": {
          "amountIn": "Amounts to be really put in"
        }
      },
      "transferOwnership(address)": {
        "details": "Can only be called by the current owner.",
        "params": {
          "newOwner": "Address of the new owner"
        }
      }
    },
    "title": "NaughtyRouter",
    "version": 1
  },
  "userdoc": {
    "errors": {
      "PRBMath__MulDivFixedPointOverflow(uint256)": [
        {
          "notice": "Emitted when the result overflows uint256."
        }
      ],
      "PRBMath__MulDivOverflow(uint256,uint256)": [
        {
          "notice": "Emitted when the result overflows uint256."
        }
      ]
    },
    "kind": "user",
    "methods": {
      "addLiquidity(address,address,uint256,uint256,uint256,uint256,address,uint256)": {
        "notice": "Add liquidity function"
      },
      "addLiquidityWithUSD(address,address,uint256,address,uint256,uint256)": {
        "notice": "Add liquidity but only provide stablecoins"
      },
      "owner()": {
        "notice": "Returns the address of the current owner."
      },
      "removeLiquidity(address,address,uint256,uint256,uint256,address,uint256)": {
        "notice": "Remove liquidity from the pool"
      },
      "renounceOwnership()": {
        "notice": "Leaves the contract without owner. It will not be possible to call         `onlyOwner` functions anymore. Can only be called by the current owner."
      },
      "setBuyerToken(address)": {
        "notice": "Set the address of buyer token"
      },
      "setPolicyCore(address)": {
        "notice": "Set the address of policyCore"
      },
      "swapExactTokensforTokens(uint256,uint256,address,address,address,uint256)": {
        "notice": "Amount in is fixed"
      },
      "swapTokensforExactTokens(uint256,uint256,address,address,address,uint256)": {
        "notice": "Amount out is fixed"
      },
      "transferOwnership(address)": {
        "notice": "Transfers ownership of the contract to a new account (`newOwner`)."
      }
    },
    "notice": "Router for the pool, you can add/remove liquidity or swap A for B.         Swapping fee rate is 2% and all of them are given to LP.         Very similar logic with Uniswap V2.",
    "version": 1
  },
  "storageLayout": {
    "storage": [
      {
        "astId": 22750,
        "contract": "contracts/naughty-price/NaughtyRouter.sol:NaughtyRouter",
        "label": "_owner",
        "offset": 0,
        "slot": "0",
        "type": "t_address"
      },
      {
        "astId": 16843,
        "contract": "contracts/naughty-price/NaughtyRouter.sol:NaughtyRouter",
        "label": "factory",
        "offset": 0,
        "slot": "1",
        "type": "t_address"
      },
      {
        "astId": 16845,
        "contract": "contracts/naughty-price/NaughtyRouter.sol:NaughtyRouter",
        "label": "policyCore",
        "offset": 0,
        "slot": "2",
        "type": "t_address"
      },
      {
        "astId": 16847,
        "contract": "contracts/naughty-price/NaughtyRouter.sol:NaughtyRouter",
        "label": "buyerToken",
        "offset": 0,
        "slot": "3",
        "type": "t_address"
      }
    ],
    "types": {
      "t_address": {
        "encoding": "inplace",
        "label": "address",
        "numberOfBytes": "20"
      }
    }
  }
}