{"address":"0xa1204164Fe4742f8cB09435360E200E05f2E9D33","abi":[{"inputs":[],"name":"PAIR_INIT_CODE_HASH","outputs":[{"internalType":"bytes32","name":"","type":"bytes32"}],"stateMutability":"view","type":"function"},{"inputs":[],"name":"_nextId","outputs":[{"internalType":"uint256","name":"","type":"uint256"}],"stateMutability":"view","type":"function"},{"inputs":[{"internalType":"uint256","name":"","type":"uint256"}],"name":"allPairs","outputs":[{"internalType":"address","name":"","type":"address"}],"stateMutability":"view","type":"function"},{"inputs":[{"internalType":"uint256","name":"","type":"uint256"}],"name":"allTokens","outputs":[{"internalType":"address","name":"","type":"address"}],"stateMutability":"view","type":"function"},{"inputs":[{"internalType":"string","name":"_policyTokenName","type":"string"}],"name":"deployPolicyToken","outputs":[{"internalType":"address","name":"","type":"address"}],"stateMutability":"nonpayable","type":"function"},{"inputs":[{"internalType":"address","name":"_policyTokenAddress","type":"address"},{"internalType":"address","name":"_stablecoin","type":"address"},{"internalType":"uint256","name":"_deadline","type":"uint256"},{"internalType":"uint256","name":"_feeRate","type":"uint256"}],"name":"deployPool","outputs":[{"internalType":"address","name":"","type":"address"}],"stateMutability":"nonpayable","type":"function"},{"inputs":[{"internalType":"string","name":"_policyTokenName","type":"string"}],"name":"getInitCodeHashForPolicyToken","outputs":[{"internalType":"bytes32","name":"","type":"bytes32"}],"stateMutability":"view","type":"function"},{"inputs":[],"name":"getLatestTokenAddress","outputs":[{"internalType":"address","name":"","type":"address"}],"stateMutability":"view","type":"function"},{"inputs":[{"internalType":"address","name":"_tokenAddress1","type":"address"},{"internalType":"address","name":"_tokenAddress2","type":"address"}],"name":"getPairAddress","outputs":[{"internalType":"address","name":"","type":"address"}],"stateMutability":"view","type":"function"},{"inputs":[{"internalType":"string","name":"_tokenName","type":"string"}],"name":"getPolicyTokenBytecode","outputs":[{"internalType":"bytes","name":"","type":"bytes"}],"stateMutability":"view","type":"function"},{"inputs":[],"name":"policyCore","outputs":[{"internalType":"address","name":"","type":"address"}],"stateMutability":"view","type":"function"},{"inputs":[{"internalType":"address","name":"_policyCore","type":"address"}],"name":"setPolicyCoreAddress","outputs":[],"stateMutability":"nonpayable","type":"function"}],"transactionHash":"0xadc97e21fd1b7aa80cb2873675088155811eccca0853420af9e4c2ae80a3e031","args":[],"numDeployments":1,"solcInputHash":"c93208af0650ec7944554f5ed4da2f2f","bytecode":"0x608060405234801561001057600080fd5b506154bb806100206000396000f3fe60806040523480156200001157600080fd5b5060043610620000c35760003560e01c80639fd2650e116200007a5780639fd2650e1462000199578063b4f69a2f14620001a3578063d8adc09314620001ba578063e30145e014620001d1578063f03c613214620001e5578063f2f2fff514620001fc57600080fd5b80630bd5f6e214620000c85780631e3dd18b14620000f75780633a5f69f8146200011d57806357b84f8c146200013457806361c8f99d146200014d578063634282af1462000182575b600080fd5b620000df620000d936600462000a7f565b62000206565b604051620000ee919062000b28565b60405180910390f35b6200010e6200010836600462000b59565b6200028e565b604051620000ee919062000ba1565b6200010e6200012e36600462000bc9565b620002b9565b6200013e62000492565b604051620000ee919062000c3e565b620001806200015e36600462000c4e565b600480546001600160a01b0319166001600160a01b0392909216919091179055565b005b6200010e6200019336600462000b59565b620004e0565b6200010e620004f1565b6200010e620001b436600462000c73565b62000538565b6200013e620001cb36600462000a7f565b620005f4565b6004546200010e906001600160a01b031681565b6200010e620001f636600462000a7f565b62000682565b6200013e60035481565b60606000604051806020016200021c9062000958565b601f1982820381018352601f90910116604081905260045491925082916200025791869182916001600160a01b039091169060200162000cb6565b60408051601f198184030181529082905262000277929160200162000d15565b604051602081830303815290604052915050919050565b600181815481106200029f57600080fd5b6000918252602090912001546001600160a01b0316905081565b6004546000906001600160a01b0316620002f05760405162461bcd60e51b8152600401620002e79062000d6d565b60405180910390fd5b6004546001600160a01b031633146200031d5760405162461bcd60e51b8152600401620002e79062000dbd565b600060405180602001620003319062000966565b601f1982820381018352601f90910116604052905060006200035c6001600160a01b03881662000794565b62000370876001600160a01b031662000794565b6040516020016200038392919062000d15565b6040516020818303038152906040528051906020012090506000620003a98383620007ac565b60405163eb990c5960e01b81529091506001600160a01b0382169063eb990c5990620003e0908b908b908b908b9060040162000dcf565b600060405180830381600087803b158015620003fb57600080fd5b505af115801562000410573d6000803e3d6000fd5b5050506001600160a01b03808a166000908152602081815260408083208c85168452909152812080549285166001600160a01b0319938416811790915560018054808201825592527fb10e2d527612073b26eecdfd717e6a320cf44b4afac2b0732d9fcbe2b7fa0cf6909101805490921617905550925050505b949350505050565b604051620004a36020820162000966565b601f1982820381018352601f909101166040819052620004c7919060200162000e15565b6040516020818303038152906040528051906020012081565b600281815481106200029f57600080fd5b600080600160035462000505919062000e37565b9050600281815481106200051d576200051d62000e51565b6000918252602090912001546001600160a01b031692915050565b60048054604051635cb3b14f60e01b8152600092839283926001600160a01b0390911691635cb3b14f91620005709188910162000ba1565b602060405180830381865afa1580156200058e573d6000803e3d6000fd5b505050506040513d601f19601f82011682018060405250810190620005b4919062000e7d565b620005c1578385620005c4565b84845b6001600160a01b039182166000908152602081815260408083209385168352929052205416925050505b92915050565b60008060405180602001620006099062000958565b601f1982820381018352601f90910116604081905260045491925082916200064491869182916001600160a01b039091169060200162000cb6565b60408051601f198184030181529082905262000664929160200162000d15565b60405160208183030381529060405280519060200120915050919050565b6004546000906001600160a01b0316620006b05760405162461bcd60e51b8152600401620002e79062000d6d565b6004546001600160a01b03163314620006dd5760405162461bcd60e51b8152600401620002e79062000dbd565b600082604051602001620006f2919062000e15565b6040516020818303038152906040528051906020012090506000620007178462000206565b90506000620007278284620007ac565b6002805460018101825560009182527f405787fa12a823e0f2b7631cc41b3ba8828b3321ca811111fa75cd3aa3bb5ace0180546001600160a01b0319166001600160a01b0384161790556003805492935090620007848362000ea2565b909155509093505050505b919050565b6060620005ee826001600160a01b03166014620007c6565b6000818351602085016000f59050803b620005ee57600080fd5b60606000620007d783600262000ec0565b620007e490600262000ee2565b67ffffffffffffffff811115620007ff57620007ff62000974565b6040519080825280601f01601f1916602001820160405280156200082a576020820181803683370190505b509050600360fc1b8160008151811062000848576200084862000e51565b60200101906001600160f81b031916908160001a905350600f60fb1b816001815181106200087a576200087a62000e51565b60200101906001600160f81b031916908160001a9053506000620008a084600262000ec0565b620008ad90600162000ee2565b90505b60018111156200092f576f181899199a1a9b1b9c1cb0b131b232b360811b85600f1660108110620008e557620008e562000e51565b1a60f81b828281518110620008fe57620008fe62000e51565b60200101906001600160f81b031916908160001a90535060049490941c93620009278162000efd565b9050620008b0565b508315620009515760405162461bcd60e51b8152600401620002e79062000f17565b9392505050565b6118228062000f5383390190565b612d11806200277583390190565b634e487b7160e01b600052604160045260246000fd5b601f19601f830116810181811067ffffffffffffffff82111715620009b357620009b362000974565b6040525050565b6000620009c660405190565b90506200078f82826200098a565b600067ffffffffffffffff821115620009f157620009f162000974565b601f19601f83011660200192915050565b82818337506000910152565b600062000a2562000a1f84620009d4565b620009ba565b90508281526020810184848401111562000a425762000a42600080fd5b62000a4f84828562000a02565b509392505050565b600082601f83011262000a6d5762000a6d600080fd5b81356200048a84826020860162000a0e565b60006020828403121562000a965762000a96600080fd5b813567ffffffffffffffff81111562000ab25762000ab2600080fd5b6200048a8482850162000a57565b60005b8381101562000add57818101518382015260200162000ac3565b8381111562000aed576000848401525b50505050565b600062000afe825190565b80845260208401935062000b1781856020860162000ac0565b601f01601f19169290920192915050565b6020808252810162000951818462000af3565b805b811462000b4957600080fd5b50565b8035620005ee8162000b3b565b60006020828403121562000b705762000b70600080fd5b60006200048a848462000b4c565b60006001600160a01b038216620005ee565b62000b9b8162000b7e565b82525050565b60208101620005ee828462000b90565b62000b3d8162000b7e565b8035620005ee8162000bb1565b6000806000806080858703121562000be45762000be4600080fd5b600062000bf2878762000bbc565b945050602062000c058782880162000bbc565b935050604062000c188782880162000b4c565b925050606062000c2b8782880162000b4c565b91505092959194509250565b8062000b9b565b60208101620005ee828462000c37565b60006020828403121562000c655762000c65600080fd5b60006200048a848462000bbc565b6000806040838503121562000c8b5762000c8b600080fd5b600062000c99858562000bbc565b925050602062000cac8582860162000bbc565b9150509250929050565b6060808252810162000cc9818662000af3565b9050818103602083015262000cdf818562000af3565b90506200048a604083018462000b90565b600062000cfb825190565b62000d0b81856020860162000ac0565b9290920192915050565b62000d21818462000cf0565b905062000951818362000cf0565b60218152602081017f506c65617365207365742074686520706f6c696379436f7265206164647265738152607360f81b602082015290505b60400190565b60208082528101620005ee8162000d2f565b60228152602081017f4f6e6c792063616c6c656420627920706f6c696379436f726520636f6e74726181526118dd60f21b6020820152905062000d67565b60208082528101620005ee8162000d7f565b6080810162000ddf828762000b90565b62000dee602083018662000b90565b62000dfd604083018562000c37565b62000e0c606083018462000c37565b95945050505050565b620005ee818362000cf0565b634e487b7160e01b600052601160045260246000fd5b60008282101562000e4c5762000e4c62000e21565b500390565b634e487b7160e01b600052603260045260246000fd5b80151562000b3d565b8051620005ee8162000e67565b60006020828403121562000e945762000e94600080fd5b60006200048a848462000e70565b600060001982141562000eb95762000eb962000e21565b5060010190565b600081600019048311821515161562000edd5762000edd62000e21565b500290565b6000821982111562000ef85762000ef862000e21565b500190565b60008162000f0f5762000f0f62000e21565b506000190190565b60208082528181019081527f537472696e67733a20686578206c656e67746820696e73756666696369656e74604083015260608201620005ee56fe60806040523480156200001157600080fd5b506040516200182238038062001822833981016040819052620000349162000306565b8282620000413362000099565b815162000056906006906020850190620000e9565b5080516200006c906007906020840190620000e9565b5050600880546001600160a01b0319166001600160a01b03939093169290921790915550620003de915050565b600080546001600160a01b038381166001600160a01b0319831681178455604051919092169283917f8be0079c531659141344cd1fd0a4f28419497f9722a3daafe3b4186f6b6457e09190a35050565b828054620000f790620003ad565b90600052602060002090601f0160209004810192826200011b576000855562000166565b82601f106200013657805160ff191683800117855562000166565b8280016001018555821562000166579182015b828111156200016657825182559160200191906001019062000149565b506200017492915062000178565b5090565b5b8082111562000174576000815560010162000179565b634e487b7160e01b600052604160045260246000fd5b601f19601f83011681016001600160401b0381118282101715620001cd57620001cd6200018f565b6040525050565b6000620001e060405190565b9050620001ee8282620001a5565b919050565b60006001600160401b038211156200020f576200020f6200018f565b601f19601f83011660200192915050565b60005b838110156200023d57818101518382015260200162000223565b838111156200024d576000848401525b50505050565b60006200026a6200026484620001f3565b620001d4565b905082815260208101848484011115620002875762000287600080fd5b6200029484828562000220565b509392505050565b600082601f830112620002b257620002b2600080fd5b8151620002c484826020860162000253565b949350505050565b60006001600160a01b0382165b92915050565b620002ea81620002cc565b8114620002f657600080fd5b50565b8051620002d981620002df565b600080600060608486031215620003205762000320600080fd5b83516001600160401b038111156200033b576200033b600080fd5b62000349868287016200029c565b602086015190945090506001600160401b038111156200036c576200036c600080fd5b6200037a868287016200029c565b92505060406200038d86828701620002f9565b9150509250925092565b634e487b7160e01b600052602260045260246000fd5b600281046001821680620003c257607f821691505b60208210811415620003d857620003d862000397565b50919050565b61143480620003ee6000396000f3fe608060405234801561001057600080fd5b50600436106101215760003560e01c8063497a8167116100ad5780639dc29fac116100715780639dc29fac1461024f578063a457c2d714610262578063a9059cbb14610275578063dd62ed3e14610288578063f2fde38b146102c157600080fd5b8063497a8167146101f257806370a0823114610205578063715018a61461022e5780638da5cb5b1461023657806395d89b411461024757600080fd5b806318160ddd116100f457806318160ddd1461019957806323b872dd146101aa578063313ce567146101bd57806339509351146101cc57806340c10f19146101df57600080fd5b806306fdde03146101265780630754617214610144578063095ea7b3146101645780630dcce3d714610184575b600080fd5b61012e6102d4565b60405161013b9190610be4565b60405180910390f35b600854610157906001600160a01b031681565b60405161013b9190610c15565b610177610172366004610c53565b610366565b60405161013b9190610c98565b610197610192366004610db3565b61037d565b005b6005545b60405161013b9190610df4565b6101776101b8366004610e02565b610427565b601260405161013b9190610e5b565b6101776101da366004610c53565b6104e2565b6101976101ed366004610c53565b61051e565b610197610200366004610db3565b61058f565b61019d610213366004610e69565b6001600160a01b031660009081526003602052604090205490565b61019761062a565b6000546001600160a01b0316610157565b61012e610660565b61019761025d366004610c53565b61066f565b610177610270366004610c53565b6106d4565b610177610283366004610c53565b61072f565b61019d610296366004610e8a565b6001600160a01b03918216600090815260046020908152604080832093909416825291909152205490565b6101976102cf366004610e69565b61078c565b6060600680546102e390610ed3565b80601f016020809104026020016040519081016040528092919081815260200182805461030f90610ed3565b801561035c5780601f106103315761010080835404028352916020019161035c565b820191906000526020600020905b81548152906001019060200180831161033f57829003601f168201915b5050505050905090565b60006103733384846107e8565b5060015b92915050565b33731be1a151ba3d24f594ee971dc9b843f23b5ba80e146103b95760405162461bcd60e51b81526004016103b090610f19565b60405180910390fd5b805160005b81811015610422576001600260008584815181106103de576103de610f29565b6020908102919091018101516001600160a01b03168252810191909152604001600020805460ff19169115159190911790558061041a81610f55565b9150506103be565b505050565b3360009081526002602052604081205460ff168061045d57506001600160a01b03831660009081526001602052604090205460ff165b6104795760405162461bcd60e51b81526004016103b090610fbd565b61048484848461089c565b6001600160a01b0384166000908152600460209081526040808320338452909152902054828110156104c85760405162461bcd60e51b81526004016103b090611010565b6104d585338584036107e8565b60019150505b9392505050565b3360008181526004602090815260408083206001600160a01b03871684529091528120549091610373918590610519908690611020565b6107e8565b6008546001600160a01b031633146105485760405162461bcd60e51b81526004016103b090611075565b61055282826109b1565b7f0f6798a560793a54c3bcfe86a93cde1e73087d944c0ea20544137d41213968858282604051610583929190611085565b60405180910390a15050565b33731be1a151ba3d24f594ee971dc9b843f23b5ba80e146105c25760405162461bcd60e51b81526004016103b090610f19565b805160005b818110156104225760018060008584815181106105e6576105e6610f29565b6020908102919091018101516001600160a01b03168252810191909152604001600020805460ff19169115159190911790558061062281610f55565b9150506105c7565b6000546001600160a01b031633146106545760405162461bcd60e51b81526004016103b0906110d0565b61065e6000610a65565b565b6060600780546102e390610ed3565b6008546001600160a01b031633146106995760405162461bcd60e51b81526004016103b090611075565b6106a38282610ab5565b7fcc16f5dbb4873280815c1ee09dbd06736cffcc184412cf7a71a0fdb75d397ca58282604051610583929190611085565b3360009081526004602090815260408083206001600160a01b0386168452909152812054828110156107185760405162461bcd60e51b81526004016103b090611120565b61072533858584036107e8565b5060019392505050565b3360009081526002602052604081205460ff168061076557506001600160a01b03831660009081526001602052604090205460ff165b6107815760405162461bcd60e51b81526004016103b090610fbd565b61037333848461089c565b6000546001600160a01b031633146107b65760405162461bcd60e51b81526004016103b0906110d0565b6001600160a01b0381166107dc5760405162461bcd60e51b81526004016103b090611171565b6107e581610a65565b50565b6001600160a01b03831661080e5760405162461bcd60e51b81526004016103b0906111c0565b6001600160a01b0382166108345760405162461bcd60e51b81526004016103b09061120d565b6001600160a01b0380841660008181526004602090815260408083209487168084529490915290819020849055517f8c5be1e5ebec7d5bd14f71427d1e84f3dd0314c0f7b2291e5b200ac8c7c3b9259061088f908590610df4565b60405180910390a3505050565b6001600160a01b0383166108c25760405162461bcd60e51b81526004016103b09061125d565b6001600160a01b0382166108e85760405162461bcd60e51b81526004016103b0906112ab565b6001600160a01b038316600090815260036020526040902054818110156109215760405162461bcd60e51b81526004016103b0906112fc565b6001600160a01b03808516600090815260036020526040808220858503905591851681529081208054849290610958908490611020565b92505081905550826001600160a01b0316846001600160a01b03167fddf252ad1be2c89b69c2b068fc378daa952ba7f163c4a11628f55a4df523b3ef846040516109a29190610df4565b60405180910390a35b50505050565b6001600160a01b0382166109d75760405162461bcd60e51b81526004016103b09061133e565b80600560008282546109e99190611020565b90915550506001600160a01b03821660009081526003602052604081208054839290610a16908490611020565b90915550506040516001600160a01b038316906000907fddf252ad1be2c89b69c2b068fc378daa952ba7f163c4a11628f55a4df523b3ef90610a59908590610df4565b60405180910390a35050565b600080546001600160a01b038381166001600160a01b0319831681178455604051919092169283917f8be0079c531659141344cd1fd0a4f28419497f9722a3daafe3b4186f6b6457e09190a35050565b6001600160a01b038216610adb5760405162461bcd60e51b81526004016103b09061138a565b6001600160a01b03821660009081526003602052604090205481811015610b145760405162461bcd60e51b81526004016103b0906113d7565b6001600160a01b0383166000908152600360205260408120838303905560058054849290610b439084906113e7565b90915550506040516000906001600160a01b038516907fddf252ad1be2c89b69c2b068fc378daa952ba7f163c4a11628f55a4df523b3ef9061088f908690610df4565b60005b83811015610ba1578181015183820152602001610b89565b838111156109ab5750506000910152565b6000610bbc825190565b808452602084019350610bd3818560208601610b86565b601f01601f19169290920192915050565b602080825281016104db8184610bb2565b60006001600160a01b038216610377565b610c0f81610bf5565b82525050565b602081016103778284610c06565b610c2c81610bf5565b81146107e557600080fd5b803561037781610c23565b80610c2c565b803561037781610c42565b60008060408385031215610c6957610c69600080fd5b6000610c758585610c37565b9250506020610c8685828601610c48565b9150509250929050565b801515610c0f565b602081016103778284610c90565b634e487b7160e01b600052604160045260246000fd5b601f19601f830116810181811067ffffffffffffffff82111715610ce257610ce2610ca6565b6040525050565b6000610cf460405190565b9050610d008282610cbc565b919050565b600067ffffffffffffffff821115610d1f57610d1f610ca6565b5060209081020190565b6000610d3c610d3784610d05565b610ce9565b83815290506020808201908402830185811115610d5b57610d5b600080fd5b835b81811015610d7d57610d6f8782610c37565b835260209283019201610d5d565b5050509392505050565b600082601f830112610d9b57610d9b600080fd5b8135610dab848260208601610d29565b949350505050565b600060208284031215610dc857610dc8600080fd5b813567ffffffffffffffff811115610de257610de2600080fd5b610dab84828501610d87565b80610c0f565b602081016103778284610dee565b600080600060608486031215610e1a57610e1a600080fd5b6000610e268686610c37565b9350506020610e3786828701610c37565b9250506040610e4886828701610c48565b9150509250925092565b60ff8116610c0f565b602081016103778284610e52565b600060208284031215610e7e57610e7e600080fd5b6000610dab8484610c37565b60008060408385031215610ea057610ea0600080fd5b6000610eac8585610c37565b9250506020610c8685828601610c37565b634e487b7160e01b600052602260045260246000fd5b600281046001821680610ee757607f821691505b60208210811415610efa57610efa610ebd565b50919050565b6002815260208101610f0f60f31b815290505b60200190565b6020808252810161037781610f00565b634e487b7160e01b600052603260045260246000fd5b634e487b7160e01b600052601160045260246000fd5b6000600019821415610f6957610f69610f3f565b5060010190565b60308152602081017f596f7520617265206e6f7420616c6c6f77656420746f207472616e736665722081526f1d1bc81d1a1a5cc818dbdb9d1c9858dd60821b602082015290505b60400190565b6020808252810161037781610f70565b60288152602081017f45524332303a207472616e7366657220616d6f756e74206578636565647320618152676c6c6f77616e636560c01b60208201529050610fb7565b6020808252810161037781610fcd565b6000821982111561103357611033610f3f565b500190565b60228152602081017f6f6e6c79206d696e7465722063616e2063616c6c20746869732066756e63746981526137b760f11b60208201529050610fb7565b6020808252810161037781611038565b604081016110938285610c06565b6104db6020830184610dee565b60208082527f4f776e61626c653a2063616c6c6572206973206e6f7420746865206f776e65729101908152610f13565b60208082528101610377816110a0565b60258152602081017f45524332303a2064656372656173656420616c6c6f77616e63652062656c6f77815264207a65726f60d81b60208201529050610fb7565b60208082528101610377816110e0565b60268152602081017f4f776e61626c653a206e6577206f776e657220697320746865207a65726f206181526564647265737360d01b60208201529050610fb7565b6020808252810161037781611130565b60248152602081017f45524332303a20617070726f76652066726f6d20746865207a65726f206164648152637265737360e01b60208201529050610fb7565b6020808252810161037781611181565b60228152602081017f45524332303a20617070726f766520746f20746865207a65726f206164647265815261737360f01b60208201529050610fb7565b60208082528101610377816111d0565b60258152602081017f45524332303a207472616e736665722066726f6d20746865207a65726f206164815264647265737360d81b60208201529050610fb7565b602080825281016103778161121d565b60238152602081017f45524332303a207472616e7366657220746f20746865207a65726f206164647281526265737360e81b60208201529050610fb7565b602080825281016103778161126d565b60268152602081017f45524332303a207472616e7366657220616d6f756e7420657863656564732062815265616c616e636560d01b60208201529050610fb7565b60208082528101610377816112bb565b601f8152602081017f45524332303a206d696e7420746f20746865207a65726f20616464726573730081529050610f13565b602080825281016103778161130c565b60218152602081017f45524332303a206275726e2066726f6d20746865207a65726f206164647265738152607360f81b60208201529050610fb7565b602080825281016103778161134e565b60228152602081017f45524332303a206275726e20616d6f756e7420657863656564732062616c616e815261636560f01b60208201529050610fb7565b602080825281016103778161139a565b6000828210156113f9576113f9610f3f565b50039056fea264697066735822122082fd743aeff34c30c96c27d3e011645783b173afb6f6eb52a35f1e60d6a6df4b64736f6c634300080a00336080604052600c805460ff60e01b1916600160e01b1790553480156200002457600080fd5b506040518060400160405280600f81526020016e04e61756768747920506f6f6c204c5608c1b8152506040518060400160405280600381526020016204e4c560ec1b815250620000836200007d620000ce60201b60201c565b620000d2565b81516200009890600690602085019062000122565b508051620000ae90600790602084019062000122565b5050600160085550600980546001600160a01b031916331790556200020f565b3390565b600080546001600160a01b038381166001600160a01b0319831681178455604051919092169283917f8be0079c531659141344cd1fd0a4f28419497f9722a3daafe3b4186f6b6457e09190a35050565b8280546200013090620001de565b90600052602060002090601f0160209004810192826200015457600085556200019f565b82601f106200016f57805160ff19168380011785556200019f565b828001600101855582156200019f579182015b828111156200019f57825182559160200191906001019062000182565b50620001ad929150620001b1565b5090565b5b80821115620001ad5760008155600101620001b2565b634e487b7160e01b600052602260045260246000fd5b600281046001821680620001f357607f821691505b60208210811415620002095762000209620001c8565b50919050565b612af2806200021f6000396000f3fe608060405234801561001057600080fd5b50600436106101cf5760003560e01c806370a0823111610104578063a9059cbb116100a2578063dd62ed3e11610071578063dd62ed3e146103d1578063eb990c591461040a578063f2fde38b1461041d578063fff6cae91461043057600080fd5b8063a9059cbb1461038f578063ba9a7a56146103a2578063c45a0155146103ab578063d21220a7146103be57600080fd5b80638da5cb5b116100de5780638da5cb5b1461035a57806395d89b411461036b578063978bbdb914610373578063a457c2d71461037c57600080fd5b806370a0823114610308578063715018a61461033157806389afcb441461033957600080fd5b806329dcb0cf11610171578063497a81671161014b578063497a8167146102bb5780636a5e2650146102ce5780636a627842146102e25780636d9a640a146102f557600080fd5b806329dcb0cf14610290578063313ce5671461029957806339509351146102a857600080fd5b80630dcce3d7116101ad5780630dcce3d7146102375780630dfe16811461024c57806318160ddd1461026c57806323b872dd1461027d57600080fd5b806306fdde03146101d45780630902f1ac146101f2578063095ea7b314610217575b600080fd5b6101dc610438565b6040516101e99190611d4f565b60405180910390f35b600c546001600160701b0380821691600160701b9004166040516101e9929190611d71565b61022a610225366004611dcd565b6104ca565b6040516101e99190611e12565b61024a610245366004611f25565b6104e1565b005b600a5461025f906001600160a01b031681565b6040516101e99190611f69565b6005545b6040516101e99190611f7d565b61022a61028b366004611f8b565b61058b565b610270600d5481565b60126040516101e99190611fe4565b61022a6102b6366004611dcd565b610646565b61024a6102c9366004611f25565b610682565b600c5461022a90600160e01b900460ff1681565b6102706102f0366004611ff2565b61071d565b61024a610303366004612013565b61098d565b610270610316366004611ff2565b6001600160a01b031660009081526003602052604090205490565b61024a610d51565b61034c610347366004611ff2565b610d87565b6040516101e9929190612059565b6000546001600160a01b031661025f565b6101dc61109c565b610270600e5481565b61022a61038a366004611dcd565b6110ab565b61022a61039d366004611dcd565b611106565b6102706103e881565b60095461025f906001600160a01b031681565b600b5461025f906001600160a01b031681565b6102706103df366004612074565b6001600160a01b03918216600090815260046020908152604080832093909416825291909152205490565b61024a6104183660046120a7565b611163565b61024a61042b366004611ff2565b6111ea565b61024a611246565b60606006805461044790612121565b80601f016020809104026020016040519081016040528092919081815260200182805461047390612121565b80156104c05780601f10610495576101008083540402835291602001916104c0565b820191906000526020600020905b8154815290600101906020018083116104a357829003601f168201915b5050505050905090565b60006104d733848461135e565b5060015b92915050565b33731be1a151ba3d24f594ee971dc9b843f23b5ba80e1461051d5760405162461bcd60e51b815260040161051490612167565b60405180910390fd5b805160005b818110156105865760016002600085848151811061054257610542612177565b6020908102919091018101516001600160a01b03168252810191909152604001600020805460ff19169115159190911790558061057e816121a3565b915050610522565b505050565b3360009081526002602052604081205460ff16806105c157506001600160a01b03831660009081526001602052604090205460ff165b6105dd5760405162461bcd60e51b81526004016105149061220b565b6105e8848484611412565b6001600160a01b03841660009081526004602090815260408083203384529091529020548281101561062c5760405162461bcd60e51b81526004016105149061225e565b610639853385840361135e565b60019150505b9392505050565b3360008181526004602090815260408083206001600160a01b038716845290915281205490916104d791859061067d90869061226e565b61135e565b33731be1a151ba3d24f594ee971dc9b843f23b5ba80e146106b55760405162461bcd60e51b815260040161051490612167565b805160005b818110156105865760018060008584815181106106d9576106d9612177565b6020908102919091018101516001600160a01b03168252810191909152604001600020805460ff191691151591909117905580610715816121a3565b9150506106ba565b6000600260085414156107425760405162461bcd60e51b8152600401610514906122b8565b6002600855600080610768600c546001600160701b0380821692600160701b9092041690565b600a546040516370a0823160e01b81529294509092506000916001600160a01b03909116906370a08231906107a1903090600401611f69565b602060405180830381865afa1580156107be573d6000803e3d6000fd5b505050506040513d601f19601f820116820180604052508101906107e291906122d3565b600b546040516370a0823160e01b81529192506000916001600160a01b03909116906370a0823190610818903090600401611f69565b602060405180830381865afa158015610835573d6000803e3d6000fd5b505050506040513d601f19601f8201168201806040525081019061085991906122d3565b905060006108706001600160701b038616846122f4565b905060006108876001600160701b038616846122f4565b9050600061089460055490565b9050806108c5576103e86108a88484611527565b6108b291906122f4565b97506108c0306103e861157c565b610904565b6109016108e56001600160701b0389166108df8685611630565b9061163c565b6108fc6001600160701b0389166108df8686611630565b611651565b97505b600088116109245760405162461bcd60e51b81526004016105149061233d565b61092e898961157c565b6109388585611667565b336001600160a01b03167f4c209b5fc8ad50758f13e2e1088ba56a560dff690a1c6fef26394f4c03821c4f8484604051610973929190612059565b60405180910390a250506001600855509395945050505050565b600d544211156109af5760405162461bcd60e51b81526004016105149061237f565b600260085414156109d25760405162461bcd60e51b8152600401610514906122b8565b6002600855821515806109e55750600082115b610a015760405162461bcd60e51b8152600401610514906123c1565b600080610a22600c546001600160701b0380821692600160701b9092041690565b6001600160701b031691506001600160701b031691508185108015610a4657508084105b610a625760405162461bcd60e51b8152600401610514906123fa565b600a54600b5460009182916001600160a01b03918216919081169087168214801590610aa05750806001600160a01b0316876001600160a01b031614155b610abc5760405162461bcd60e51b815260040161051490612429565b8815610ad657610ad66001600160a01b038316888b611716565b8715610af057610af06001600160a01b038216888a611716565b6040516370a0823160e01b81526001600160a01b038316906370a0823190610b1c903090600401611f69565b602060405180830381865afa158015610b39573d6000803e3d6000fd5b505050506040513d601f19601f82011682018060405250810190610b5d91906122d3565b6040516370a0823160e01b81529094506001600160a01b038216906370a0823190610b8c903090600401611f69565b602060405180830381865afa158015610ba9573d6000803e3d6000fd5b505050506040513d601f19601f82011682018060405250810190610bcd91906122d3565b9250505060008785610bdf91906122f4565b8311610bec576000610c00565b610bf688866122f4565b610c0090846122f4565b90506000610c0e88866122f4565b8311610c1b576000610c2f565b610c2588866122f4565b610c2f90846122f4565b90506000821180610c405750600081115b610c5c5760405162461bcd60e51b81526004016105149061246b565b6000610c6983601461247b565b610c75866103e861247b565b610c7f91906122f4565b90506000610c8e83601461247b565b610c9a866103e861247b565b610ca491906122f4565b9050610cb0878961247b565b610cbc9061271061247b565b610cc6828461247b565b1015610ce45760405162461bcd60e51b8152600401610514906124ca565b5050610cf08484611667565b866001600160a01b0316336001600160a01b03167fd78ad95fa46c994b6551d0da85fc275fe613ce37657fb8d5e3d130840159d82284848d8d604051610d3994939291906124da565b60405180910390a35050600160085550505050505050565b6000546001600160a01b03163314610d7b5760405162461bcd60e51b815260040161051490612548565b610d85600061176c565b565b60008060026008541415610dad5760405162461bcd60e51b8152600401610514906122b8565b6002600855600a546040516370a0823160e01b81526000916001600160a01b0316906370a0823190610de3903090600401611f69565b602060405180830381865afa158015610e00573d6000803e3d6000fd5b505050506040513d601f19601f82011682018060405250810190610e2491906122d3565b600b546040516370a0823160e01b81529192506000916001600160a01b03909116906370a0823190610e5a903090600401611f69565b602060405180830381865afa158015610e77573d6000803e3d6000fd5b505050506040513d601f19601f82011682018060405250810190610e9b91906122d3565b3060009081526003602052604081205491925090610ebc906103e8906122f4565b90506000610ec960055490565b9050610ed9816108df8487611630565b9550610ee9816108df8486611630565b9450600086118015610efb5750600085115b610f175760405162461bcd60e51b81526004016105149061258a565b610f2130836117bc565b600a54610f38906001600160a01b03168888611716565b600b54610f4f906001600160a01b03168887611716565b600a546040516370a0823160e01b81526001600160a01b03909116906370a0823190610f7f903090600401611f69565b602060405180830381865afa158015610f9c573d6000803e3d6000fd5b505050506040513d601f19601f82011682018060405250810190610fc091906122d3565b600b546040516370a0823160e01b81529195506001600160a01b0316906370a0823190610ff1903090600401611f69565b602060405180830381865afa15801561100e573d6000803e3d6000fd5b505050506040513d601f19601f8201168201806040525081019061103291906122d3565b925061103e8484611667565b866001600160a01b0316336001600160a01b03167fdccd412f0b1252819cb1fd330b93224ca42612892bb3f4f789976e6d819364968888604051611083929190612059565b60405180910390a3505050506001600881905550915091565b60606007805461044790612121565b3360009081526004602090815260408083206001600160a01b0386168452909152812054828110156110ef5760405162461bcd60e51b8152600401610514906125da565b6110fc338585840361135e565b5060019392505050565b3360009081526002602052604081205460ff168061113c57506001600160a01b03831660009081526001602052604090205460ff165b6111585760405162461bcd60e51b81526004016105149061220b565b6104d7338484611412565b6009546001600160a01b0316331461118d5760405162461bcd60e51b815260040161051490612634565b6103e88111156111af5760405162461bcd60e51b815260040161051490612669565b600a80546001600160a01b039586166001600160a01b031991821617909155600b805494909516931692909217909255600d91909155600e55565b6000546001600160a01b031633146112145760405162461bcd60e51b815260040161051490612548565b6001600160a01b03811661123a5760405162461bcd60e51b8152600401610514906126ba565b6112438161176c565b50565b600260085414156112695760405162461bcd60e51b8152600401610514906122b8565b6002600855600a546040516370a0823160e01b8152611357916001600160a01b0316906370a08231906112a0903090600401611f69565b602060405180830381865afa1580156112bd573d6000803e3d6000fd5b505050506040513d601f19601f820116820180604052508101906112e191906122d3565b600b546040516370a0823160e01b81526001600160a01b03909116906370a0823190611311903090600401611f69565b602060405180830381865afa15801561132e573d6000803e3d6000fd5b505050506040513d601f19601f8201168201806040525081019061135291906122d3565b611667565b6001600855565b6001600160a01b0383166113845760405162461bcd60e51b815260040161051490612709565b6001600160a01b0382166113aa5760405162461bcd60e51b815260040161051490612756565b6001600160a01b0380841660008181526004602090815260408083209487168084529490915290819020849055517f8c5be1e5ebec7d5bd14f71427d1e84f3dd0314c0f7b2291e5b200ac8c7c3b92590611405908590611f7d565b60405180910390a3505050565b6001600160a01b0383166114385760405162461bcd60e51b8152600401610514906127a6565b6001600160a01b03821661145e5760405162461bcd60e51b8152600401610514906127f4565b6001600160a01b038316600090815260036020526040902054818110156114975760405162461bcd60e51b815260040161051490612845565b6001600160a01b038085166000908152600360205260408082208585039055918516815290812080548492906114ce90849061226e565b92505081905550826001600160a01b0316846001600160a01b03167fddf252ad1be2c89b69c2b068fc378daa952ba7f163c4a11628f55a4df523b3ef846040516115189190611f7d565b60405180910390a35b50505050565b600082611536575060006104db565b8282028284828161154957611549612855565b041461156b57838360405162c3efdf60e01b8152600401610514929190612059565b6115748161188d565b949350505050565b6001600160a01b0382166115a25760405162461bcd60e51b81526004016105149061289d565b80600560008282546115b4919061226e565b90915550506001600160a01b038216600090815260036020526040812080548392906115e190849061226e565b90915550506040516001600160a01b038316906000907fddf252ad1be2c89b69c2b068fc378daa952ba7f163c4a11628f55a4df523b3ef90611624908590611f7d565b60405180910390a35050565b600061063f83836119fe565b600061063f83670de0b6b3a764000084611abf565b6000818310611660578161063f565b5090919050565b6001600160701b038083118015906116885750806001600160701b03168211155b6116a45760405162461bcd60e51b8152600401610514906128d2565b600c80546001600160701b03848116600160701b9081026001600160e01b03199093168288161792909217928390556040517f32dc813d3f262a05478ad1165d5701040e411d9a6e1684c8c2da1c8e6f3b802293611709938184169391041690612903565b60405180910390a1505050565b6105868363a9059cbb60e01b848460405160240161173592919061291e565b60408051601f198184030181529190526020810180516001600160e01b03166001600160e01b031990931692909217909152611b87565b600080546001600160a01b038381166001600160a01b0319831681178455604051919092169283917f8be0079c531659141344cd1fd0a4f28419497f9722a3daafe3b4186f6b6457e09190a35050565b6001600160a01b0382166117e25760405162461bcd60e51b815260040161051490612968565b6001600160a01b0382166000908152600360205260409020548181101561181b5760405162461bcd60e51b8152600401610514906129b5565b6001600160a01b038316600090815260036020526040812083830390556005805484929061184a9084906122f4565b90915550506040516000906001600160a01b038516907fddf252ad1be2c89b69c2b068fc378daa952ba7f163c4a11628f55a4df523b3ef90611405908690611f7d565b60008161189c57506000919050565b50600181600160801b81106118b65760409190911b9060801c5b6801000000000000000081106118d15760209190911b9060401c5b64010000000081106118e85760109190911b9060201c5b6201000081106118fd5760089190911b9060101c5b61010081106119115760049190911b9060081c5b601081106119245760029190911b9060041c5b6008811061193457600182901b91505b600182848161194557611945612855565b048301901c9150600182848161195d5761195d612855565b048301901c9150600182848161197557611975612855565b048301901c9150600182848161198d5761198d612855565b048301901c915060018284816119a5576119a5612855565b048301901c915060018284816119bd576119bd612855565b048301901c915060018284816119d5576119d5612855565b048301901c915060008284816119ed576119ed612855565b0490508083101561063f5782611574565b60008080600019848609848602925082811083820303915050670de0b6b3a76400008110611a41578060405163698d9a0160e11b81526004016105149190611f7d565b600080670de0b6b3a76400008688099150506706f05b59d3b1ffff811182611a7b5780670de0b6b3a76400008504019450505050506104db565b620400008285030493909111909103600160ee1b02919091177faccb18165bd6fe31ae1cf318dc5b51eee0e1ba569b88cd74c1773b91fac106690201905092915050565b600080806000198587098587029250828110838203039150508060001415611afa57838281611af057611af0612855565b049250505061063f565b838110611b1e578084604051631dcf306360e21b8152600401610514929190612059565b60008486880960026001871981018816978890046003810283188082028403028082028403028082028403028082028403028082028403029081029092039091026000889003889004909101858311909403939093029303949094049190911702949350505050565b6000611bdc826040518060400160405280602081526020017f5361666545524332303a206c6f772d6c6576656c2063616c6c206661696c6564815250856001600160a01b0316611c169092919063ffffffff16565b8051909150156105865780806020019051810190611bfa91906129d8565b6105865760405162461bcd60e51b815260040161051490612a3e565b6060611574848460008585843b611c3f5760405162461bcd60e51b815260040161051490612a80565b600080866001600160a01b03168587604051611c5b9190612ab2565b60006040518083038185875af1925050503d8060008114611c98576040519150601f19603f3d011682016040523d82523d6000602084013e611c9d565b606091505b5091509150611cad828286611cb8565b979650505050505050565b60608315611cc757508161063f565b825115611cd75782518084602001fd5b8160405162461bcd60e51b81526004016105149190611d4f565b60005b83811015611d0c578181015183820152602001611cf4565b838111156115215750506000910152565b6000611d27825190565b808452602084019350611d3e818560208601611cf1565b601f01601f19169290920192915050565b6020808252810161063f8184611d1d565b6001600160701b0381165b82525050565b60408101611d7f8285611d60565b61063f6020830184611d60565b60006001600160a01b0382166104db565b611da681611d8c565b811461124357600080fd5b80356104db81611d9d565b80611da6565b80356104db81611dbc565b60008060408385031215611de357611de3600080fd5b6000611def8585611db1565b9250506020611e0085828601611dc2565b9150509250929050565b801515611d6b565b602081016104db8284611e0a565b634e487b7160e01b600052604160045260246000fd5b601f19601f830116810181811067ffffffffffffffff82111715611e5c57611e5c611e20565b6040525050565b6000611e6e60405190565b9050611e7a8282611e36565b919050565b600067ffffffffffffffff821115611e9957611e99611e20565b5060209081020190565b6000611eb6611eb184611e7f565b611e63565b83815290506020808201908402830185811115611ed557611ed5600080fd5b835b81811015611ef757611ee98782611db1565b835260209283019201611ed7565b5050509392505050565b600082601f830112611f1557611f15600080fd5b8135611574848260208601611ea3565b600060208284031215611f3a57611f3a600080fd5b813567ffffffffffffffff811115611f5457611f54600080fd5b61157484828501611f01565b611d6b81611d8c565b602081016104db8284611f60565b80611d6b565b602081016104db8284611f77565b600080600060608486031215611fa357611fa3600080fd5b6000611faf8686611db1565b9350506020611fc086828701611db1565b9250506040611fd186828701611dc2565b9150509250925092565b60ff8116611d6b565b602081016104db8284611fdb565b60006020828403121561200757612007600080fd5b60006115748484611db1565b60008060006060848603121561202b5761202b600080fd5b60006120378686611dc2565b935050602061204886828701611dc2565b9250506040611fd186828701611db1565b604081016120678285611f77565b61063f6020830184611f77565b6000806040838503121561208a5761208a600080fd5b60006120968585611db1565b9250506020611e0085828601611db1565b600080600080608085870312156120c0576120c0600080fd5b60006120cc8787611db1565b94505060206120dd87828801611db1565b93505060406120ee87828801611dc2565b92505060606120ff87828801611dc2565b91505092959194509250565b634e487b7160e01b600052602260045260246000fd5b60028104600182168061213557607f821691505b602082108114156121485761214861210b565b50919050565b6002815260208101610f0f60f31b815290505b60200190565b602080825281016104db8161214e565b634e487b7160e01b600052603260045260246000fd5b634e487b7160e01b600052601160045260246000fd5b60006000198214156121b7576121b761218d565b5060010190565b60308152602081017f596f7520617265206e6f7420616c6c6f77656420746f207472616e736665722081526f1d1bc81d1a1a5cc818dbdb9d1c9858dd60821b602082015290505b60400190565b602080825281016104db816121be565b60288152602081017f45524332303a207472616e7366657220616d6f756e74206578636565647320618152676c6c6f77616e636560c01b60208201529050612205565b602080825281016104db8161221b565b600082198211156122815761228161218d565b500190565b601f8152602081017f5265656e7472616e637947756172643a207265656e7472616e742063616c6c0081529050612161565b602080825281016104db81612286565b80516104db81611dbc565b6000602082840312156122e8576122e8600080fd5b600061157484846122c8565b6000828210156123065761230661218d565b500390565b601d8152602081017f696e73756666696369656e74206c6971756964697479206d696e74656400000081529050612161565b602080825281016104db8161230b565b601b8152602081017f43616e206e6f74207377617020616674657220646561646c696e65000000000081529050612161565b602080825281016104db8161234d565b601b8152602081017f4f757470757420616d6f756e74206e65656420746f206265203e30000000000081529050612161565b602080825281016104db8161238f565b6014815260208101734e6f7420656e6f756768206c697175696469747960601b81529050612161565b602080825281016104db816123d1565b600a81526020810169494e56414c49445f544f60b01b81529050612161565b602080825281016104db8161240a565b60198152602081017f494e53554646494349454e545f494e5055545f414d4f554e540000000000000081529050612161565b602080825281016104db81612439565b60008160001904831182151516156124955761249561218d565b500290565b60208082527f5468652072656d61696e696e6720782a79206973206c657373207468616e204b9101908152612161565b602080825281016104db8161249a565b608081016124e88287611f77565b6124f56020830186611f77565b6125026040830185611f77565b61250f6060830184611f77565b95945050505050565b60208082527f4f776e61626c653a2063616c6c6572206973206e6f7420746865206f776e65729101908152612161565b602080825281016104db81612518565b601d8152602081017f496e73756666696369656e74206c6971756964697479206275726e656400000081529050612161565b602080825281016104db81612558565b60258152602081017f45524332303a2064656372656173656420616c6c6f77616e63652062656c6f77815264207a65726f60d81b60208201529050612205565b602080825281016104db8161259a565b602f8152602081017f63616e206f6e6c7920626520696e697469616c697a656420627920746865206681526e1858dd1bdc9e4818dbdb9d1c9858dd608a1b60208201529050612205565b602080825281016104db816125ea565b60108152602081016f066656552617465206f76657220312e360841b81529050612161565b602080825281016104db81612644565b60268152602081017f4f776e61626c653a206e6577206f776e657220697320746865207a65726f206181526564647265737360d01b60208201529050612205565b602080825281016104db81612679565b60248152602081017f45524332303a20617070726f76652066726f6d20746865207a65726f206164648152637265737360e01b60208201529050612205565b602080825281016104db816126ca565b60228152602081017f45524332303a20617070726f766520746f20746865207a65726f206164647265815261737360f01b60208201529050612205565b602080825281016104db81612719565b60258152602081017f45524332303a207472616e736665722066726f6d20746865207a65726f206164815264647265737360d81b60208201529050612205565b602080825281016104db81612766565b60238152602081017f45524332303a207472616e7366657220746f20746865207a65726f206164647281526265737360e81b60208201529050612205565b602080825281016104db816127b6565b60268152602081017f45524332303a207472616e7366657220616d6f756e7420657863656564732062815265616c616e636560d01b60208201529050612205565b602080825281016104db81612804565b634e487b7160e01b600052601260045260246000fd5b601f8152602081017f45524332303a206d696e7420746f20746865207a65726f20616464726573730081529050612161565b602080825281016104db8161286b565b60108152602081016f55696e74313132204f564552464c4f5760801b81529050612161565b602080825281016104db816128ad565b60006104db6128f76001600160701b03841681565b90565b611d6b816128e2565b6040810161291182856128fa565b61063f60208301846128fa565b604081016120678285611f60565b60218152602081017f45524332303a206275726e2066726f6d20746865207a65726f206164647265738152607360f81b60208201529050612205565b602080825281016104db8161292c565b60228152602081017f45524332303a206275726e20616d6f756e7420657863656564732062616c616e815261636560f01b60208201529050612205565b602080825281016104db81612978565b801515611da6565b80516104db816129c5565b6000602082840312156129ed576129ed600080fd5b600061157484846129cd565b602a8152602081017f5361666545524332303a204552433230206f7065726174696f6e20646964206e8152691bdd081cdd58d8d9595960b21b60208201529050612205565b602080825281016104db816129f9565b601d8152602081017f416464726573733a2063616c6c20746f206e6f6e2d636f6e747261637400000081529050612161565b602080825281016104db81612a4e565b6000612a9a825190565b612aa8818560208601611cf1565b9290920192915050565b6104db8183612a9056fea264697066735822122053e3670fc512a5b7c8de6152a9fc93479004eebf259437d6bf72178779162a9364736f6c634300080a0033a2646970667358221220698adb36294d5f3a8a25182f88c8a47766597fea89e02d41d9e2f22b965463df64736f6c634300080a0033","devdoc":{"details":"Factory contract to deploy new pools periodically      Each pool(product) will have a unique naughtyId      Each pool will have its pool token      PolicyToken - Stablecoin      Token 0 may change but Token 1 is always stablecoin.","kind":"dev","methods":{"deployPolicyToken(string)":{"params":{"_policyTokenName":"Name of the policyToken"},"returns":{"_0":"PolicyToken address"}},"deployPool(address,address,uint256,uint256)":{"params":{"_deadline":"Deadline of the pool","_feeRate":"Fee rate given to LP holders","_policyTokenAddress":"Address of policy token","_stablecoin":"Address of the stable coin"},"returns":{"_0":"Address of the pool"}},"getInitCodeHashForPolicyToken(string)":{"params":{"_policyTokenName":"Name of the policy token to be deployed"}},"getLatestTokenAddress()":{"returns":{"_0":"Latest token address"}},"getPairAddress(address,address)":{"params":{"_tokenAddress1":"Address of token1","_tokenAddress2":"Address of toekn2"},"returns":{"_0":"Pool address of the two tokens"}},"getPolicyTokenBytecode(string)":{"details":"It is public for test convinience","params":{"_tokenName":"Name of policyToken"}},"setPolicyCoreAddress(address)":{"params":{"_policyCore":": Address of policyCore contract"}}},"title":"Naughty Factory","version":1},"userdoc":{"kind":"user","methods":{"deployPolicyToken(string)":{"notice":"For each round we need to first create the policytoken(ERC20)"},"deployPool(address,address,uint256,uint256)":{"notice":"After deploy the policytoken and get the address,         we deploy the policyToken - stablecoin pool contract"},"getInitCodeHashForPolicyToken(string)":{"notice":"Get the INIT_CODE_HASH for policy tokens with parameters"},"getLatestTokenAddress()":{"notice":"Next token to be deployed"},"getPairAddress(address,address)":{"notice":"Get the pair address deployed by the factory         PolicyToken address first, and then stablecoin address         The order of the tokens will be sorted inside the function"},"getPolicyTokenBytecode(string)":{"notice":"Get the policyToken bytecode (with parameters)"},"setPolicyCoreAddress(address)":{"notice":"Remember to call this function to set the policyCore address         < PolicyCore should be the owner of policyToken >"}},"version":1},"storageLayout":{"storage":[{"astId":15767,"contract":"contracts/naughty-price/NaughtyFactory.sol:NaughtyFactory","label":"getPair","offset":0,"slot":"0","type":"t_mapping(t_address,t_mapping(t_address,t_address))"},{"astId":15770,"contract":"contracts/naughty-price/NaughtyFactory.sol:NaughtyFactory","label":"allPairs","offset":0,"slot":"1","type":"t_array(t_address)dyn_storage"},{"astId":15773,"contract":"contracts/naughty-price/NaughtyFactory.sol:NaughtyFactory","label":"allTokens","offset":0,"slot":"2","type":"t_array(t_address)dyn_storage"},{"astId":15775,"contract":"contracts/naughty-price/NaughtyFactory.sol:NaughtyFactory","label":"_nextId","offset":0,"slot":"3","type":"t_uint256"},{"astId":15777,"contract":"contracts/naughty-price/NaughtyFactory.sol:NaughtyFactory","label":"policyCore","offset":0,"slot":"4","type":"t_address"}],"types":{"t_address":{"encoding":"inplace","label":"address","numberOfBytes":"20"},"t_array(t_address)dyn_storage":{"base":"t_address","encoding":"dynamic_array","label":"address[]","numberOfBytes":"32"},"t_mapping(t_address,t_address)":{"encoding":"mapping","key":"t_address","label":"mapping(address => address)","numberOfBytes":"32","value":"t_address"},"t_mapping(t_address,t_mapping(t_address,t_address))":{"encoding":"mapping","key":"t_address","label":"mapping(address => mapping(address => address))","numberOfBytes":"32","value":"t_mapping(t_address,t_address)"},"t_uint256":{"encoding":"inplace","label":"uint256","numberOfBytes":"32"}}}}