{
  "address": "0x34d95079064A1EF8313b0e71FBE8f6cA1E0CCEa0",
  "abi": [
    {
      "inputs": [],
      "stateMutability": "nonpayable",
      "type": "constructor"
    },
    {
      "anonymous": false,
      "inputs": [
        {
          "indexed": false,
          "internalType": "address",
          "name": "oldIncomeMaker",
          "type": "address"
        },
        {
          "indexed": false,
          "internalType": "address",
          "name": "newIncomeMaker",
          "type": "address"
        }
      ],
      "name": "IncomeMakerAddressChanged",
      "type": "event"
    },
    {
      "anonymous": false,
      "inputs": [
        {
          "indexed": false,
          "internalType": "uint256",
          "name": "oldProportion",
          "type": "uint256"
        },
        {
          "indexed": false,
          "internalType": "uint256",
          "name": "newProportion",
          "type": "uint256"
        }
      ],
      "name": "IncomeMakerProportionChanged",
      "type": "event"
    },
    {
      "anonymous": false,
      "inputs": [
        {
          "indexed": true,
          "internalType": "address",
          "name": "previousOwner",
          "type": "address"
        },
        {
          "indexed": true,
          "internalType": "address",
          "name": "newOwner",
          "type": "address"
        }
      ],
      "name": "OwnershipTransferred",
      "type": "event"
    },
    {
      "anonymous": false,
      "inputs": [
        {
          "indexed": false,
          "internalType": "address",
          "name": "oldPolicyCore",
          "type": "address"
        },
        {
          "indexed": false,
          "internalType": "address",
          "name": "newPolicyCore",
          "type": "address"
        }
      ],
      "name": "PolicyCoreAddressChanged",
      "type": "event"
    },
    {
      "inputs": [],
      "name": "PAIR_INIT_CODE_HASH",
      "outputs": [
        {
          "internalType": "bytes32",
          "name": "",
          "type": "bytes32"
        }
      ],
      "stateMutability": "view",
      "type": "function"
    },
    {
      "inputs": [],
      "name": "_nextId",
      "outputs": [
        {
          "internalType": "uint256",
          "name": "",
          "type": "uint256"
        }
      ],
      "stateMutability": "view",
      "type": "function"
    },
    {
      "inputs": [
        {
          "internalType": "uint256",
          "name": "",
          "type": "uint256"
        }
      ],
      "name": "allPairs",
      "outputs": [
        {
          "internalType": "address",
          "name": "",
          "type": "address"
        }
      ],
      "stateMutability": "view",
      "type": "function"
    },
    {
      "inputs": [
        {
          "internalType": "uint256",
          "name": "",
          "type": "uint256"
        }
      ],
      "name": "allTokens",
      "outputs": [
        {
          "internalType": "address",
          "name": "",
          "type": "address"
        }
      ],
      "stateMutability": "view",
      "type": "function"
    },
    {
      "inputs": [
        {
          "internalType": "string",
          "name": "_policyTokenName",
          "type": "string"
        },
        {
          "internalType": "uint256",
          "name": "_decimals",
          "type": "uint256"
        }
      ],
      "name": "deployPolicyToken",
      "outputs": [
        {
          "internalType": "address",
          "name": "",
          "type": "address"
        }
      ],
      "stateMutability": "nonpayable",
      "type": "function"
    },
    {
      "inputs": [
        {
          "internalType": "address",
          "name": "_policyTokenAddress",
          "type": "address"
        },
        {
          "internalType": "address",
          "name": "_stablecoin",
          "type": "address"
        },
        {
          "internalType": "uint256",
          "name": "_deadline",
          "type": "uint256"
        },
        {
          "internalType": "uint256",
          "name": "_feeRate",
          "type": "uint256"
        }
      ],
      "name": "deployPool",
      "outputs": [
        {
          "internalType": "address",
          "name": "",
          "type": "address"
        }
      ],
      "stateMutability": "nonpayable",
      "type": "function"
    },
    {
      "inputs": [
        {
          "internalType": "string",
          "name": "_tokenName",
          "type": "string"
        },
        {
          "internalType": "uint256",
          "name": "_decimals",
          "type": "uint256"
        }
      ],
      "name": "getInitCodeHashForPolicyToken",
      "outputs": [
        {
          "internalType": "bytes32",
          "name": "",
          "type": "bytes32"
        }
      ],
      "stateMutability": "view",
      "type": "function"
    },
    {
      "inputs": [],
      "name": "getLatestTokenAddress",
      "outputs": [
        {
          "internalType": "address",
          "name": "",
          "type": "address"
        }
      ],
      "stateMutability": "view",
      "type": "function"
    },
    {
      "inputs": [
        {
          "internalType": "address",
          "name": "_tokenAddress1",
          "type": "address"
        },
        {
          "internalType": "address",
          "name": "_tokenAddress2",
          "type": "address"
        }
      ],
      "name": "getPairAddress",
      "outputs": [
        {
          "internalType": "address",
          "name": "",
          "type": "address"
        }
      ],
      "stateMutability": "view",
      "type": "function"
    },
    {
      "inputs": [],
      "name": "incomeMaker",
      "outputs": [
        {
          "internalType": "address",
          "name": "",
          "type": "address"
        }
      ],
      "stateMutability": "view",
      "type": "function"
    },
    {
      "inputs": [],
      "name": "incomeMakerProportion",
      "outputs": [
        {
          "internalType": "uint256",
          "name": "",
          "type": "uint256"
        }
      ],
      "stateMutability": "view",
      "type": "function"
    },
    {
      "inputs": [],
      "name": "owner",
      "outputs": [
        {
          "internalType": "address",
          "name": "",
          "type": "address"
        }
      ],
      "stateMutability": "view",
      "type": "function"
    },
    {
      "inputs": [],
      "name": "policyCore",
      "outputs": [
        {
          "internalType": "address",
          "name": "",
          "type": "address"
        }
      ],
      "stateMutability": "view",
      "type": "function"
    },
    {
      "inputs": [],
      "name": "renounceOwnership",
      "outputs": [],
      "stateMutability": "nonpayable",
      "type": "function"
    },
    {
      "inputs": [
        {
          "internalType": "address",
          "name": "_incomeMaker",
          "type": "address"
        }
      ],
      "name": "setIncomeMakerAddress",
      "outputs": [],
      "stateMutability": "nonpayable",
      "type": "function"
    },
    {
      "inputs": [
        {
          "internalType": "uint256",
          "name": "_proportion",
          "type": "uint256"
        }
      ],
      "name": "setIncomeMakerProportion",
      "outputs": [],
      "stateMutability": "nonpayable",
      "type": "function"
    },
    {
      "inputs": [
        {
          "internalType": "address",
          "name": "_policyCore",
          "type": "address"
        }
      ],
      "name": "setPolicyCoreAddress",
      "outputs": [],
      "stateMutability": "nonpayable",
      "type": "function"
    },
    {
      "inputs": [
        {
          "internalType": "address",
          "name": "newOwner",
          "type": "address"
        }
      ],
      "name": "transferOwnership",
      "outputs": [],
      "stateMutability": "nonpayable",
      "type": "function"
    }
  ],
  "transactionHash": "0x439d9b755512d6062be2dc32e115dee98148c6e1db489da884505b338adba6fc",
  "args": [],
  "numDeployments": 1,
  "solcInputHash": "30acab01710ff2e31c19d5b31cfdd2e3",
  "bytecode": "0x608060405234801561001057600080fd5b503361001b81610026565b506028600755610076565b600080546001600160a01b038381166001600160a01b0319831681178455604051919092169283917f8be0079c531659141344cd1fd0a4f28419497f9722a3daafe3b4186f6b6457e09190a35050565b615016806100856000396000f3fe60806040523480156200001157600080fd5b50600436106200014f5760003560e01c80638da5cb5b11620000c0578063be1bd331116200008b578063e30145e0116200006e578063e30145e0146200029a578063f2f2fff514620002ae578063f2fde38b14620002b857600080fd5b8063be1bd331146200026f578063c79c4c62146200028357600080fd5b80638da5cb5b14620002255780639fd2650e1462000237578063b30ebecd1462000241578063b4f69a2f146200025857600080fd5b806361c8f99d116200011e578063715018a61162000101578063715018a614620001fa578063786df8ec146200020457806387f0061a146200020e57600080fd5b806361c8f99d14620001ca578063634282af14620001e357600080fd5b80631e3dd18b14620001545780633a5f69f81462000183578063490d7350146200019a57806357b84f8c14620001c0575b600080fd5b6200016b6200016536600462000b06565b620002cf565b6040516200017a919062000b56565b60405180910390f35b6200016b6200019436600462000b7e565b620002fa565b620001b1620001ab36600462000cfc565b620004b3565b6040516200017a919062000d62565b620001b1620004d4565b620001e1620001db36600462000d72565b62000522565b005b6200016b620001f436600462000b06565b620005ca565b620001e1620005db565b620001b160075481565b6200016b6200021f36600462000cfc565b62000626565b6000546001600160a01b03166200016b565b6200016b62000724565b620001e16200025236600462000d72565b6200076b565b6200016b6200026936600462000d97565b62000813565b6006546200016b906001600160a01b031681565b620001e16200029436600462000b06565b620008e7565b6005546200016b906001600160a01b031681565b620001b160045481565b620001e1620002c936600462000d72565b62000966565b60028181548110620002e057600080fd5b6000918252602090912001546001600160a01b0316905081565b6005546000906001600160a01b0316158015906200032257506005546001600160a01b031633145b6200034a5760405162461bcd60e51b8152600401620003419062000e2a565b60405180910390fd5b6000604051806020016200035e9062000acf565b6020820181038252601f19601f820116604052509050600086866040516020016200038b92919062000e6b565b6040516020818303038152906040528051906020012090506000620003b18383620009da565b6040517feb990c590000000000000000000000000000000000000000000000000000000081529091506001600160a01b0382169063eb990c599062000401908b908b908b908b9060040162000e8f565b600060405180830381600087803b1580156200041c57600080fd5b505af115801562000431573d6000803e3d6000fd5b5050506001600160a01b03808a1660009081526001602081815260408084208d86168552909152822080549386166001600160a01b031994851681179091556002805492830181559092527f405787fa12a823e0f2b7631cc41b3ba8828b3321ca811111fa75cd3aa3bb5ace0180549092161790555092505050949350505050565b600080620004c28484620009f4565b80516020909101209150505b92915050565b604051620004e56020820162000acf565b601f1982820381018352601f90910116604081905262000509919060200162000f2d565b6040516020818303038152906040528051906020012081565b33620005366000546001600160a01b031690565b6001600160a01b0316146200055f5760405162461bcd60e51b8152600401620003419062000f39565b6005546040517f3589df28c7a4e563855a6dad51377b5e4a78c2c46954792d4ebcc2b6f477af2d91620005a0916001600160a01b0390911690849062000f74565b60405180910390a1600580546001600160a01b0319166001600160a01b0392909216919091179055565b60038181548110620002e057600080fd5b33620005ef6000546001600160a01b031690565b6001600160a01b031614620006185760405162461bcd60e51b8152600401620003419062000f39565b62000624600062000a7f565b565b6005546000906001600160a01b0316158015906200064e57506005546001600160a01b031633145b6200066d5760405162461bcd60e51b8152600401620003419062000e2a565b60008360405160200162000682919062000f2d565b6040516020818303038152906040528051906020012090506000620006a88585620009f4565b90506000620006b88284620009da565b6003805460018101825560009182527fc2575a0e9e593c00f959f8c92f12db2869c3395a3b0502d05e2516446f71f85b0180546001600160a01b0319166001600160a01b0384161790556004805492935090620007158362000fb0565b90915550909695505050505050565b600080600160045462000738919062000fce565b90506003818154811062000750576200075062000fe8565b6000918252602090912001546001600160a01b031692915050565b336200077f6000546001600160a01b031690565b6001600160a01b031614620007a85760405162461bcd60e51b8152600401620003419062000f39565b6006546040517fbfabdf035dcaa5c8487ab344ae430927cd8bacc1ec3d6d600fb599344a276c0791620007e9916001600160a01b0390911690849062000f74565b60405180910390a1600680546001600160a01b0319166001600160a01b0392909216919091179055565b6005546040517f5cb3b14f000000000000000000000000000000000000000000000000000000008152600091829182916001600160a01b031690635cb3b14f906200086390879060040162000b56565b602060405180830381865afa15801562000881573d6000803e3d6000fd5b505050506040513d601f19601f82011682018060405250810190620008a7919062001014565b620008b4578385620008b7565b84845b6001600160a01b039182166000908152600160209081526040808320938516835292905220541695945050505050565b33620008fb6000546001600160a01b031690565b6001600160a01b031614620009245760405162461bcd60e51b8152600401620003419062000f39565b7f9bc521ec6408e4c9862a903b71cc867ff65b137b9ddec02734bd4a840817848f600754826040516200095992919062001039565b60405180910390a1600755565b336200097a6000546001600160a01b031690565b6001600160a01b031614620009a35760405162461bcd60e51b8152600401620003419062000f39565b6001600160a01b038116620009cc5760405162461bcd60e51b81526004016200034190620010b1565b620009d78162000a7f565b50565b6000818351602085016000f59050803b620004ce57600080fd5b606060006040518060200162000a0a9062000add565b601f1982820381018352601f909101166040819052600554919250829162000a4791879182916001600160a01b03909116908890602001620010f8565b60408051601f198184030181529082905262000a67929160200162001132565b60405160208183030381529060405291505092915050565b600080546001600160a01b038381166001600160a01b0319831681178455604051919092169283917f8be0079c531659141344cd1fd0a4f28419497f9722a3daafe3b4186f6b6457e09190a35050565b612b72806200114d83390190565b6113228062003cbf83390190565b805b8114620009d757600080fd5b8035620004ce8162000aeb565b60006020828403121562000b1d5762000b1d600080fd5b600062000b2b848462000af9565b949350505050565b60006001600160a01b038216620004ce565b62000b508162000b33565b82525050565b60208101620004ce828462000b45565b62000aed8162000b33565b8035620004ce8162000b66565b6000806000806080858703121562000b995762000b99600080fd5b600062000ba7878762000b71565b945050602062000bba8782880162000b71565b935050604062000bcd8782880162000af9565b925050606062000be08782880162000af9565b91505092959194509250565b634e487b7160e01b600052604160045260246000fd5b601f19601f830116810181811067ffffffffffffffff8211171562000c2b5762000c2b62000bec565b6040525050565b600062000c3e60405190565b905062000c4c828262000c02565b919050565b600067ffffffffffffffff82111562000c6e5762000c6e62000bec565b601f19601f83011660200192915050565b82818337506000910152565b600062000ca262000c9c8462000c51565b62000c32565b90508281526020810184848401111562000cbf5762000cbf600080fd5b62000ccc84828562000c7f565b509392505050565b600082601f83011262000cea5762000cea600080fd5b813562000b2b84826020860162000c8b565b6000806040838503121562000d145762000d14600080fd5b823567ffffffffffffffff81111562000d305762000d30600080fd5b62000d3e8582860162000cd4565b925050602062000d518582860162000af9565b9150509250929050565b8062000b50565b60208101620004ce828462000d5b565b60006020828403121562000d895762000d89600080fd5b600062000b2b848462000b71565b6000806040838503121562000daf5762000daf600080fd5b600062000dbd858562000b71565b925050602062000d518582860162000b71565b60228152602081017f4f6e6c792063616c6c656420627920706f6c696379436f726520636f6e74726181527f6374000000000000000000000000000000000000000000000000000000000000602082015290505b60400190565b60208082528101620004ce8162000dd0565b6000620004ce8260601b90565b6000620004ce8262000e3c565b62000b5062000e658262000b33565b62000e49565b62000e77818462000e56565b60140162000e86818362000e56565b60140192915050565b6080810162000e9f828762000b45565b62000eae602083018662000b45565b62000ebd604083018562000d5b565b62000ecc606083018462000d5b565b95945050505050565b60005b8381101562000ef257818101518382015260200162000ed8565b8381111562000f02576000848401525b50505050565b600062000f13825190565b62000f2381856020860162000ed5565b9290920192915050565b620004ce818362000f08565b60208082528181019081527f4f776e61626c653a2063616c6c6572206973206e6f7420746865206f776e6572604083015260608201620004ce565b6040810162000f84828562000b45565b62000f93602083018462000b45565b9392505050565b634e487b7160e01b600052601160045260246000fd5b600060001982141562000fc75762000fc762000f9a565b5060010190565b60008282101562000fe35762000fe362000f9a565b500390565b634e487b7160e01b600052603260045260246000fd5b80151562000aed565b8051620004ce8162000ffe565b6000602082840312156200102b576200102b600080fd5b600062000b2b848462001007565b6040810162001049828562000d5b565b62000f93602083018462000d5b565b60268152602081017f4f776e61626c653a206e6577206f776e657220697320746865207a65726f206181527f64647265737300000000000000000000000000000000000000000000000000006020820152905062000e24565b60208082528101620004ce8162001058565b6000620010ce825190565b808452602084019350620010e781856020860162000ed5565b601f01601f19169290920192915050565b608080825281016200110b8187620010c3565b90508181036020830152620011218186620010c3565b905062000ebd604083018562000b45565b6200113e818462000f08565b905062000f93818362000f0856fe60806040526009805460ff60e01b1916600160e01b1790553480156200002457600080fd5b506040518060400160405280600f81526020016e04e61756768747920506f6f6c204c5608c1b8152506040518060400160405280600381526020016204e4c560ec1b815250816003908051906020019062000081929190620000b7565b50805162000097906004906020840190620000b7565b5050600160055550600680546001600160a01b03191633179055620001a4565b828054620000c59062000173565b90600052602060002090601f016020900481019282620000e9576000855562000134565b82601f106200010457805160ff191683800117855562000134565b8280016001018555821562000134579182015b828111156200013457825182559160200191906001019062000117565b506200014292915062000146565b5090565b5b8082111562000142576000815560010162000147565b634e487b7160e01b600052602260045260246000fd5b6002810460018216806200018857607f821691505b602082108114156200019e576200019e6200015d565b50919050565b6129be80620001b46000396000f3fe608060405234801561001057600080fd5b50600436106101a35760003560e01c806370a08231116100ee578063a9059cbb11610097578063d21220a711610071578063d21220a714610375578063dd62ed3e14610388578063eb990c59146103c1578063fff6cae9146103d457600080fd5b8063a9059cbb14610346578063ba9a7a5614610359578063c45a01551461036257600080fd5b806395d89b41116100c857806395d89b4114610322578063978bbdb91461032a578063a457c2d71461033357600080fd5b806370a08231146102cf5780637464fc3d146102f857806389afcb441461030157600080fd5b806329dcb0cf116101505780636a5e26501161012a5780636a5e26501461027a5780636a627842146102a75780636d9a640a146102ba57600080fd5b806329dcb0cf1461024f578063313ce56714610258578063395093511461026757600080fd5b80630dfe1681116101815780630dfe16811461020b57806318160ddd1461022b57806323b872dd1461023c57600080fd5b806306fdde03146101a85780630902f1ac146101c6578063095ea7b3146101eb575b600080fd5b6101b06103dc565b6040516101bd9190611c6b565b60405180910390f35b6009546001600160701b0380821691600160701b9004166040516101bd929190611c8d565b6101fe6101f9366004611cec565b61046e565b6040516101bd9190611d31565b60075461021e906001600160a01b031681565b6040516101bd9190611d48565b6002545b6040516101bd9190611d5c565b6101fe61024a366004611d6a565b610485565b61022f600a5481565b60126040516101bd9190611dc3565b6101fe610275366004611cec565b6104f9565b6009546101fe907c0100000000000000000000000000000000000000000000000000000000900460ff1681565b61022f6102b5366004611dd1565b610535565b6102cd6102c8366004611df2565b610803565b005b61022f6102dd366004611dd1565b6001600160a01b031660009081526020819052604090205490565b61022f600c5481565b61031461030f366004611dd1565b610c8a565b6040516101bd929190611e38565b6101b0610fff565b61022f600b5481565b6101fe610341366004611cec565b61100e565b6101fe610354366004611cec565b611069565b61022f6103e881565b60065461021e906001600160a01b031681565b60085461021e906001600160a01b031681565b61022f610396366004611e53565b6001600160a01b03918216600090815260016020908152604080832093909416825291909152205490565b6102cd6103cf366004611e86565b611076565b6102cd611115565b6060600380546103eb90611f00565b80601f016020809104026020016040519081016040528092919081815260200182805461041790611f00565b80156104645780601f1061043957610100808354040283529160200191610464565b820191906000526020600020905b81548152906001019060200180831161044757829003601f168201915b5050505050905090565b600061047b33848461122d565b5060015b92915050565b60006104928484846112e1565b6001600160a01b0384166000908152600160209081526040808320338452909152902054828110156104df5760405162461bcd60e51b81526004016104d690611f81565b60405180910390fd5b6104ec853385840361122d565b60019150505b9392505050565b3360008181526001602090815260408083206001600160a01b0387168452909152812054909161047b918590610530908690611fa7565b61122d565b60006002600554141561055a5760405162461bcd60e51b81526004016104d690611ff3565b60026005556000806105806009546001600160701b0380821692600160701b9092041690565b6007546040516370a0823160e01b81529294509092506000916001600160a01b03909116906370a08231906105b9903090600401611d48565b602060405180830381865afa1580156105d6573d6000803e3d6000fd5b505050506040513d601f19601f820116820180604052508101906105fa919061200e565b6008546040516370a0823160e01b81529192506000916001600160a01b03909116906370a0823190610630903090600401611d48565b602060405180830381865afa15801561064d573d6000803e3d6000fd5b505050506040513d601f19601f82011682018060405250810190610671919061200e565b905060006106886001600160701b0386168461202f565b9050600061069f6001600160701b0386168461202f565b905060006106ad87876113f6565b905060006106ba60025490565b905080610700576103e86106d66106d18587612046565b611686565b6106e0919061202f565b6006549099506106fb906001600160a01b03166103e86116f6565b610747565b6107446001600160701b0389166107178387612046565b610721919061207b565b6001600160701b0389166107358487612046565b61073f919061207b565b6117ab565b98505b600089116107675760405162461bcd60e51b81526004016104d6906120c1565b6107718a8a6116f6565b61077b86866117c1565b81156107ad576009546107a0906001600160701b03600160701b8204811691166120d1565b6001600160701b0316600c555b336001600160a01b03167f4c209b5fc8ad50758f13e2e1088ba56a560dff690a1c6fef26394f4c03821c4f85856040516107e8929190611e38565b60405180910390a25050600160055550949695505050505050565b600660009054906101000a90046001600160a01b03166001600160a01b031663be1bd3316040518163ffffffff1660e01b8152600401602060405180830381865afa158015610856573d6000803e3d6000fd5b505050506040513d601f19601f8201168201806040525081019061087a9190612113565b6001600160a01b0316336001600160a01b0316146108b457600a544211156108b45760405162461bcd60e51b81526004016104d690612166565b600260055414156108d75760405162461bcd60e51b81526004016104d690611ff3565b6002600555821515806108ea5750600082115b6109065760405162461bcd60e51b81526004016104d6906121a8565b6000806109276009546001600160701b0380821692600160701b9092041690565b91509150816001600160701b03168510801561094b5750806001600160701b031684105b6109675760405162461bcd60e51b81526004016104d6906121ea565b60075460085460009182916001600160a01b039182169190811690871682148015906109a55750806001600160a01b0316876001600160a01b031614155b6109c15760405162461bcd60e51b81526004016104d69061222c565b88156109db576109db6001600160a01b038316888b611888565b87156109f5576109f56001600160a01b038216888a611888565b6040516370a0823160e01b81526001600160a01b038316906370a0823190610a21903090600401611d48565b602060405180830381865afa158015610a3e573d6000803e3d6000fd5b505050506040513d601f19601f82011682018060405250810190610a62919061200e565b6040516370a0823160e01b81529094506001600160a01b038216906370a0823190610a91903090600401611d48565b602060405180830381865afa158015610aae573d6000803e3d6000fd5b505050506040513d601f19601f82011682018060405250810190610ad2919061200e565b92505050600087856001600160701b0316610aed919061202f565b8311610afa576000610b17565b610b0d886001600160701b03871661202f565b610b17908461202f565b90506000610b2e886001600160701b03871661202f565b8311610b3b576000610b58565b610b4e886001600160701b03871661202f565b610b58908461202f565b90506000821180610b695750600081115b610b855760405162461bcd60e51b81526004016104d69061226e565b6000600b5483610b959190612046565b610ba1866103e8612046565b610bab919061202f565b90506000600b5483610bbd9190612046565b610bc9866103e8612046565b610bd3919061202f565b9050610bdf87896120d1565b610bec90620f42406120d1565b6001600160701b0316610bff8284612046565b1015610c1d5760405162461bcd60e51b81526004016104d6906122ae565b5050610c2984846117c1565b866001600160a01b0316336001600160a01b03167fd78ad95fa46c994b6551d0da85fc275fe613ce37657fb8d5e3d130840159d82284848d8d604051610c7294939291906122be565b60405180910390a35050600160055550505050505050565b60008060026005541415610cb05760405162461bcd60e51b81526004016104d690611ff3565b6002600555600080610cd66009546001600160701b0380821692600160701b9092041690565b6007546008546040516370a0823160e01b81529395509193506001600160a01b039081169291169060009083906370a0823190610d17903090600401611d48565b602060405180830381865afa158015610d34573d6000803e3d6000fd5b505050506040513d601f19601f82011682018060405250810190610d58919061200e565b90506000826001600160a01b03166370a08231306040518263ffffffff1660e01b8152600401610d889190611d48565b602060405180830381865afa158015610da5573d6000803e3d6000fd5b505050506040513d601f19601f82011682018060405250810190610dc9919061200e565b30600090815260208190526040812054919250610de688886113f6565b90506000610df360025490565b905080610e008685612046565b610e0a919061207b565b9a5080610e178585612046565b610e21919061207b565b995060008b118015610e33575060008a115b610e4f5760405162461bcd60e51b81526004016104d69061232e565b610e593084611910565b610e6d6001600160a01b0388168d8d611888565b610e816001600160a01b0387168d8c611888565b6040516370a0823160e01b81526001600160a01b038816906370a0823190610ead903090600401611d48565b602060405180830381865afa158015610eca573d6000803e3d6000fd5b505050506040513d601f19601f82011682018060405250810190610eee919061200e565b6040516370a0823160e01b81529095506001600160a01b038716906370a0823190610f1d903090600401611d48565b602060405180830381865afa158015610f3a573d6000803e3d6000fd5b505050506040513d601f19601f82011682018060405250810190610f5e919061200e565b9350610f6a85856117c1565b8115610f9c57600954610f8f906001600160701b03600160701b8204811691166120d1565b6001600160701b0316600c555b8b6001600160a01b0316336001600160a01b03167fdccd412f0b1252819cb1fd330b93224ca42612892bb3f4f789976e6d819364968d8d604051610fe1929190611e38565b60405180910390a35050505050505050506001600581905550915091565b6060600480546103eb90611f00565b3360009081526001602090815260408083206001600160a01b0386168452909152812054828110156110525760405162461bcd60e51b81526004016104d690612396565b61105f338585840361122d565b5060019392505050565b600061047b3384846112e1565b6006546001600160a01b031633146110a05760405162461bcd60e51b81526004016104d6906123fe565b6103e88111156110c25760405162461bcd60e51b81526004016104d690612440565b600780546001600160a01b039586167fffffffffffffffffffffffff0000000000000000000000000000000000000000918216179091556008805494909516931692909217909255600a91909155600b55565b600260055414156111385760405162461bcd60e51b81526004016104d690611ff3565b60026005556007546040516370a0823160e01b8152611226916001600160a01b0316906370a082319061116f903090600401611d48565b602060405180830381865afa15801561118c573d6000803e3d6000fd5b505050506040513d601f19601f820116820180604052508101906111b0919061200e565b6008546040516370a0823160e01b81526001600160a01b03909116906370a08231906111e0903090600401611d48565b602060405180830381865afa1580156111fd573d6000803e3d6000fd5b505050506040513d601f19601f82011682018060405250810190611221919061200e565b6117c1565b6001600555565b6001600160a01b0383166112535760405162461bcd60e51b81526004016104d6906124a8565b6001600160a01b0382166112795760405162461bcd60e51b81526004016104d690612510565b6001600160a01b0380841660008181526001602090815260408083209487168084529490915290819020849055517f8c5be1e5ebec7d5bd14f71427d1e84f3dd0314c0f7b2291e5b200ac8c7c3b925906112d4908590611d5c565b60405180910390a3505050565b6001600160a01b0383166113075760405162461bcd60e51b81526004016104d690612578565b6001600160a01b03821661132d5760405162461bcd60e51b81526004016104d6906125e0565b6001600160a01b038316600090815260208190526040902054818110156113665760405162461bcd60e51b81526004016104d690612648565b6001600160a01b0380851660009081526020819052604080822085850390559185168152908120805484929061139d908490611fa7565b92505081905550826001600160a01b0316846001600160a01b03167fddf252ad1be2c89b69c2b068fc378daa952ba7f163c4a11628f55a4df523b3ef846040516113e79190611d5c565b60405180910390a35b50505050565b600080600660009054906101000a90046001600160a01b03166001600160a01b031663be1bd3316040518163ffffffff1660e01b8152600401602060405180830381865afa15801561144c573d6000803e3d6000fd5b505050506040513d601f19601f820116820180604052508101906114709190612113565b600c546001600160a01b03821615801594509192509061167257801561166d5760006114ad61149f86886120d1565b6001600160701b0316611686565b905060006114ba83611686565b90506114fb6040518060400160405280600581526020017f726f6f744b000000000000000000000000000000000000000000000000000000815250836119e1565b61153a6040518060400160405280600981526020017f726f6f744b4c6173740000000000000000000000000000000000000000000000815250826119e1565b8082111561166a57600061154e828461202f565b60025461155b9190612046565b90506000600660009054906101000a90046001600160a01b03166001600160a01b031663786df8ec6040518163ffffffff1660e01b8152600401602060405180830381865afa1580156115b2573d6000803e3d6000fd5b505050506040513d601f19601f820116820180604052508101906115d6919061200e565b905060008360016115e884606461207b565b6115f2919061202f565b6115fc9087612046565b6116069190611fa7565b90506116476040518060400160405280601881526020017f696e636f6d65206d616b65722070726f706f7274696f6e3a0000000000000000815250836119e1565b6000611653828561207b565b905080156116655761166588826116f6565b505050505b50505b61167e565b801561167e576000600c555b505092915050565b600060038211156116e757508060006116a060028361207b565b6116ab906001611fa7565b90505b818110156116e1579050806002816116c6818661207b565b6116d09190611fa7565b6116da919061207b565b90506116ae565b50919050565b81156116f1575060015b919050565b6001600160a01b03821661171c5760405162461bcd60e51b81526004016104d69061268a565b806002600082825461172e9190611fa7565b90915550506001600160a01b0382166000908152602081905260408120805483929061175b908490611fa7565b90915550506040516001600160a01b038316906000907fddf252ad1be2c89b69c2b068fc378daa952ba7f163c4a11628f55a4df523b3ef9061179e908590611d5c565b60405180910390a35b5050565b60008183106117ba57816104f2565b5090919050565b6001600160701b038083118015906117e25750806001600160701b03168211155b6117fe5760405162461bcd60e51b81526004016104d6906126cc565b600980546001600160701b03848116600160701b9081027fffffffff000000000000000000000000000000000000000000000000000000009093168288161792909217928390556040517f32dc813d3f262a05478ad1165d5701040e411d9a6e1684c8c2da1c8e6f3b80229361187b9381841693910416906126fd565b60405180910390a1505050565b61190b8363a9059cbb60e01b84846040516024016118a7929190612718565b60408051601f198184030181529190526020810180517bffffffffffffffffffffffffffffffffffffffffffffffffffffffff167fffffffff0000000000000000000000000000000000000000000000000000000090931692909217909152611a54565b505050565b6001600160a01b0382166119365760405162461bcd60e51b81526004016104d69061277e565b6001600160a01b0382166000908152602081905260409020548181101561196f5760405162461bcd60e51b81526004016104d6906127e6565b6001600160a01b038316600090815260208190526040812083830390556002805484929061199e90849061202f565b90915550506040516000906001600160a01b038516907fddf252ad1be2c89b69c2b068fc378daa952ba7f163c4a11628f55a4df523b3ef906112d4908690611d5c565b6117a782826040516024016119f79291906127f6565b60408051601f198184030181529190526020810180517bffffffffffffffffffffffffffffffffffffffffffffffffffffffff167f9710a9d000000000000000000000000000000000000000000000000000000000179052611ae3565b6000611aa9826040518060400160405280602081526020017f5361666545524332303a206c6f772d6c6576656c2063616c6c206661696c6564815250856001600160a01b0316611b049092919063ffffffff16565b80519091501561190b5780806020019051810190611ac79190612829565b61190b5760405162461bcd60e51b81526004016104d6906128a2565b80516a636f6e736f6c652e6c6f67602083016000808483855afa5050505050565b6060611b138484600085611b1b565b949350505050565b606082471015611b3d5760405162461bcd60e51b81526004016104d69061290a565b843b611b5b5760405162461bcd60e51b81526004016104d69061294c565b600080866001600160a01b03168587604051611b77919061297e565b60006040518083038185875af1925050503d8060008114611bb4576040519150601f19603f3d011682016040523d82523d6000602084013e611bb9565b606091505b5091509150611bc9828286611bd4565b979650505050505050565b60608315611be35750816104f2565b825115611bf35782518084602001fd5b8160405162461bcd60e51b81526004016104d69190611c6b565b60005b83811015611c28578181015183820152602001611c10565b838111156113f05750506000910152565b6000611c43825190565b808452602084019350611c5a818560208601611c0d565b601f01601f19169290920192915050565b602080825281016104f28184611c39565b6001600160701b0381165b82525050565b60408101611c9b8285611c7c565b6104f26020830184611c7c565b60006001600160a01b03821661047f565b611cc281611ca8565b8114611ccd57600080fd5b50565b803561047f81611cb9565b80611cc2565b803561047f81611cdb565b60008060408385031215611d0257611d02600080fd5b6000611d0e8585611cd0565b9250506020611d1f85828601611ce1565b9150509250929050565b801515611c87565b6020810161047f8284611d29565b611c8781611ca8565b6020810161047f8284611d3f565b80611c87565b6020810161047f8284611d56565b600080600060608486031215611d8257611d82600080fd5b6000611d8e8686611cd0565b9350506020611d9f86828701611cd0565b9250506040611db086828701611ce1565b9150509250925092565b60ff8116611c87565b6020810161047f8284611dba565b600060208284031215611de657611de6600080fd5b6000611b138484611cd0565b600080600060608486031215611e0a57611e0a600080fd5b6000611e168686611ce1565b9350506020611e2786828701611ce1565b9250506040611db086828701611cd0565b60408101611e468285611d56565b6104f26020830184611d56565b60008060408385031215611e6957611e69600080fd5b6000611e758585611cd0565b9250506020611d1f85828601611cd0565b60008060008060808587031215611e9f57611e9f600080fd5b6000611eab8787611cd0565b9450506020611ebc87828801611cd0565b9350506040611ecd87828801611ce1565b9250506060611ede87828801611ce1565b91505092959194509250565b634e487b7160e01b600052602260045260246000fd5b600281046001821680611f1457607f821691505b602082108114156116e1576116e1611eea565b60288152602081017f45524332303a207472616e7366657220616d6f756e742065786365656473206181527f6c6c6f77616e6365000000000000000000000000000000000000000000000000602082015290505b60400190565b6020808252810161047f81611f27565b634e487b7160e01b600052601160045260246000fd5b60008219821115611fba57611fba611f91565b500190565b601f8152602081017f5265656e7472616e637947756172643a207265656e7472616e742063616c6c00815290505b60200190565b6020808252810161047f81611fbf565b805161047f81611cdb565b60006020828403121561202357612023600080fd5b6000611b138484612003565b60008282101561204157612041611f91565b500390565b600081600019048311821515161561206057612060611f91565b500290565b634e487b7160e01b600052601260045260246000fd5b60008261208a5761208a612065565b500490565b601d8152602081017f696e73756666696369656e74206c6971756964697479206d696e74656400000081529050611fed565b6020808252810161047f8161208f565b6001600160701b03811690506001600160701b03821691506000816001600160701b03048311821515161561206057612060611f91565b805161047f81611cb9565b60006020828403121561212857612128600080fd5b6000611b138484612108565b601b8152602081017f43616e206e6f74207377617020616674657220646561646c696e65000000000081529050611fed565b6020808252810161047f81612134565b601c8152602081017f4f757470757420616d6f756e74206e65656420746f206265203e20300000000081529050611fed565b6020808252810161047f81612176565b60148152602081017f4e6f7420656e6f756768206c697175696469747900000000000000000000000081529050611fed565b6020808252810161047f816121b8565b600a8152602081017f494e56414c49445f544f0000000000000000000000000000000000000000000081529050611fed565b6020808252810161047f816121fa565b60198152602081017f494e53554646494349454e545f494e5055545f414d4f554e540000000000000081529050611fed565b6020808252810161047f8161223c565b60208082527f5468652072656d61696e696e6720782a79206973206c657373207468616e204b9101908152611fed565b6020808252810161047f8161227e565b608081016122cc8287611d56565b6122d96020830186611d56565b6122e66040830185611d56565b6122f36060830184611d56565b95945050505050565b601d8152602081017f496e73756666696369656e74206c6971756964697479206275726e656400000081529050611fed565b6020808252810161047f816122fc565b60258152602081017f45524332303a2064656372656173656420616c6c6f77616e63652062656c6f7781527f207a65726f00000000000000000000000000000000000000000000000000000060208201529050611f7b565b6020808252810161047f8161233e565b602f8152602081017f63616e206f6e6c7920626520696e697469616c697a656420627920746865206681527f6163746f727920636f6e7472616374000000000000000000000000000000000060208201529050611f7b565b6020808252810161047f816123a6565b60108152602081017f66656552617465206f76657220312e300000000000000000000000000000000081529050611fed565b6020808252810161047f8161240e565b60248152602081017f45524332303a20617070726f76652066726f6d20746865207a65726f2061646481527f726573730000000000000000000000000000000000000000000000000000000060208201529050611f7b565b6020808252810161047f81612450565b60228152602081017f45524332303a20617070726f766520746f20746865207a65726f20616464726581527f737300000000000000000000000000000000000000000000000000000000000060208201529050611f7b565b6020808252810161047f816124b8565b60258152602081017f45524332303a207472616e736665722066726f6d20746865207a65726f20616481527f647265737300000000000000000000000000000000000000000000000000000060208201529050611f7b565b6020808252810161047f81612520565b60238152602081017f45524332303a207472616e7366657220746f20746865207a65726f206164647281527f657373000000000000000000000000000000000000000000000000000000000060208201529050611f7b565b6020808252810161047f81612588565b60268152602081017f45524332303a207472616e7366657220616d6f756e742065786365656473206281527f616c616e6365000000000000000000000000000000000000000000000000000060208201529050611f7b565b6020808252810161047f816125f0565b601f8152602081017f45524332303a206d696e7420746f20746865207a65726f20616464726573730081529050611fed565b6020808252810161047f81612658565b60108152602081017f55696e74313132204f564552464c4f570000000000000000000000000000000081529050611fed565b6020808252810161047f8161269a565b600061047f6126f16001600160701b03841681565b90565b611c87816126dc565b6040810161270b82856126f4565b6104f260208301846126f4565b60408101611e468285611d3f565b60218152602081017f45524332303a206275726e2066726f6d20746865207a65726f2061646472657381527f730000000000000000000000000000000000000000000000000000000000000060208201529050611f7b565b6020808252810161047f81612726565b60228152602081017f45524332303a206275726e20616d6f756e7420657863656564732062616c616e81527f636500000000000000000000000000000000000000000000000000000000000060208201529050611f7b565b6020808252810161047f8161278e565b604080825281016128078185611c39565b90506104f26020830184611d56565b801515611cc2565b805161047f81612816565b60006020828403121561283e5761283e600080fd5b6000611b13848461281e565b602a8152602081017f5361666545524332303a204552433230206f7065726174696f6e20646964206e81527f6f7420737563636565640000000000000000000000000000000000000000000060208201529050611f7b565b6020808252810161047f8161284a565b60268152602081017f416464726573733a20696e73756666696369656e742062616c616e636520666f81527f722063616c6c000000000000000000000000000000000000000000000000000060208201529050611f7b565b6020808252810161047f816128b2565b601d8152602081017f416464726573733a2063616c6c20746f206e6f6e2d636f6e747261637400000081529050611fed565b6020808252810161047f8161291a565b6000612966825190565b612974818560208601611c0d565b9290920192915050565b61047f818361295c56fea264697066735822122040b44a7ab66704c33f9ff472122846a7ac9a86b30d85596570e6b7bdacc6aab464736f6c634300080a003360806040523480156200001157600080fd5b5060405162001322380380620013228339810160408190526200003491620002c4565b8351849084906200004d90600390602085019062000093565b5080516200006390600490602084019062000093565b5050600580546001600160a01b0319166001600160a01b03949094169390931790925560065550620003b2915050565b828054620000a19062000381565b90600052602060002090601f016020900481019282620000c5576000855562000110565b82601f10620000e057805160ff191683800117855562000110565b8280016001018555821562000110579182015b8281111562000110578251825591602001919060010190620000f3565b506200011e92915062000122565b5090565b5b808211156200011e576000815560010162000123565b634e487b7160e01b600052604160045260246000fd5b601f19601f83011681016001600160401b038111828210171562000177576200017762000139565b6040525050565b60006200018a60405190565b90506200019882826200014f565b919050565b60006001600160401b03821115620001b957620001b962000139565b601f19601f83011660200192915050565b60005b83811015620001e7578181015183820152602001620001cd565b83811115620001f7576000848401525b50505050565b6000620002146200020e846200019d565b6200017e565b905082815260208101848484011115620002315762000231600080fd5b6200023e848285620001ca565b509392505050565b600082601f8301126200025c576200025c600080fd5b81516200026e848260208601620001fd565b949350505050565b60006001600160a01b0382165b92915050565b620002948162000276565b8114620002a057600080fd5b50565b8051620002838162000289565b8062000294565b80516200028381620002b0565b60008060008060808587031215620002df57620002df600080fd5b84516001600160401b03811115620002fa57620002fa600080fd5b620003088782880162000246565b602087015190955090506001600160401b038111156200032b576200032b600080fd5b620003398782880162000246565b93505060406200034c87828801620002a3565b92505060606200035f87828801620002b7565b91505092959194509250565b634e487b7160e01b600052602260045260246000fd5b6002810460018216806200039657607f821691505b60208210811415620003ac57620003ac6200036b565b50919050565b610f6080620003c26000396000f3fe608060405234801561001057600080fd5b50600436106100ea5760003560e01c806340c10f191161008c5780639dc29fac116100665780639dc29fac146101da578063a457c2d7146101ed578063a9059cbb14610200578063dd62ed3e1461021357600080fd5b806340c10f191461019457806370a08231146101a957806395d89b41146101d257600080fd5b806318160ddd116100c857806318160ddd1461014d57806323b872dd1461015e578063313ce56714610171578063395093511461018157600080fd5b806306fdde03146100ef578063075461721461010d578063095ea7b31461012d575b600080fd5b6100f761024c565b604051610104919061089e565b60405180910390f35b600554610120906001600160a01b031681565b60405161010491906108cf565b61014061013b366004610910565b6102de565b6040516101049190610955565b6002545b6040516101049190610969565b61014061016c366004610977565b6102f5565b60065460405161010491906109d0565b61014061018f366004610910565b610369565b6101a76101a2366004610910565b6103a5565b005b6101516101b73660046109de565b6001600160a01b031660009081526020819052604090205490565b6100f7610416565b6101a76101e8366004610910565b610425565b6101406101fb366004610910565b61048a565b61014061020e366004610910565b6104e5565b610151610221366004610a07565b6001600160a01b03918216600090815260016020908152604080832093909416825291909152205490565b60606003805461025b90610a50565b80601f016020809104026020016040519081016040528092919081815260200182805461028790610a50565b80156102d45780601f106102a9576101008083540402835291602001916102d4565b820191906000526020600020905b8154815290600101906020018083116102b757829003601f168201915b5050505050905090565b60006102eb3384846104f2565b5060015b92915050565b60006103028484846105a6565b6001600160a01b03841660009081526001602090815260408083203384529091529020548281101561034f5760405162461bcd60e51b815260040161034690610ad7565b60405180910390fd5b61035c85338584036104f2565b60019150505b9392505050565b3360008181526001602090815260408083206001600160a01b038716845290915281205490916102eb9185906103a0908690610afd565b6104f2565b6005546001600160a01b031633146103cf5760405162461bcd60e51b815260040161034690610b6d565b6103d982826106bb565b7f0f6798a560793a54c3bcfe86a93cde1e73087d944c0ea20544137d4121396885828260405161040a929190610b7d565b60405180910390a15050565b60606004805461025b90610a50565b6005546001600160a01b0316331461044f5760405162461bcd60e51b815260040161034690610b6d565b610459828261076f565b7fcc16f5dbb4873280815c1ee09dbd06736cffcc184412cf7a71a0fdb75d397ca5828260405161040a929190610b7d565b3360009081526001602090815260408083206001600160a01b0386168452909152812054828110156104ce5760405162461bcd60e51b815260040161034690610bf0565b6104db33858584036104f2565b5060019392505050565b60006102eb3384846105a6565b6001600160a01b0383166105185760405162461bcd60e51b815260040161034690610c58565b6001600160a01b03821661053e5760405162461bcd60e51b815260040161034690610cc0565b6001600160a01b0380841660008181526001602090815260408083209487168084529490915290819020849055517f8c5be1e5ebec7d5bd14f71427d1e84f3dd0314c0f7b2291e5b200ac8c7c3b92590610599908590610969565b60405180910390a3505050565b6001600160a01b0383166105cc5760405162461bcd60e51b815260040161034690610d28565b6001600160a01b0382166105f25760405162461bcd60e51b815260040161034690610d90565b6001600160a01b0383166000908152602081905260409020548181101561062b5760405162461bcd60e51b815260040161034690610df8565b6001600160a01b03808516600090815260208190526040808220858503905591851681529081208054849290610662908490610afd565b92505081905550826001600160a01b0316846001600160a01b03167fddf252ad1be2c89b69c2b068fc378daa952ba7f163c4a11628f55a4df523b3ef846040516106ac9190610969565b60405180910390a35b50505050565b6001600160a01b0382166106e15760405162461bcd60e51b815260040161034690610e08565b80600260008282546106f39190610afd565b90915550506001600160a01b03821660009081526020819052604081208054839290610720908490610afd565b90915550506040516001600160a01b038316906000907fddf252ad1be2c89b69c2b068fc378daa952ba7f163c4a11628f55a4df523b3ef90610763908590610969565b60405180910390a35050565b6001600160a01b0382166107955760405162461bcd60e51b815260040161034690610e9b565b6001600160a01b038216600090815260208190526040902054818110156107ce5760405162461bcd60e51b815260040161034690610f03565b6001600160a01b03831660009081526020819052604081208383039055600280548492906107fd908490610f13565b90915550506040516000906001600160a01b038516907fddf252ad1be2c89b69c2b068fc378daa952ba7f163c4a11628f55a4df523b3ef90610599908690610969565b60005b8381101561085b578181015183820152602001610843565b838111156106b55750506000910152565b6000610876825190565b80845260208401935061088d818560208601610840565b601f01601f19169290920192915050565b60208082528101610362818461086c565b60006001600160a01b0382166102ef565b6108c9816108af565b82525050565b602081016102ef82846108c0565b6108e6816108af565b81146108f157600080fd5b50565b80356102ef816108dd565b806108e6565b80356102ef816108ff565b6000806040838503121561092657610926600080fd5b600061093285856108f4565b925050602061094385828601610905565b9150509250929050565b8015156108c9565b602081016102ef828461094d565b806108c9565b602081016102ef8284610963565b60008060006060848603121561098f5761098f600080fd5b600061099b86866108f4565b93505060206109ac868287016108f4565b92505060406109bd86828701610905565b9150509250925092565b60ff81166108c9565b602081016102ef82846109c7565b6000602082840312156109f3576109f3600080fd5b60006109ff84846108f4565b949350505050565b60008060408385031215610a1d57610a1d600080fd5b6000610a2985856108f4565b9250506020610943858286016108f4565b634e487b7160e01b600052602260045260246000fd5b600281046001821680610a6457607f821691505b60208210811415610a7757610a77610a3a565b50919050565b60288152602081017f45524332303a207472616e7366657220616d6f756e742065786365656473206181527f6c6c6f77616e6365000000000000000000000000000000000000000000000000602082015290505b60400190565b602080825281016102ef81610a7d565b634e487b7160e01b600052601160045260246000fd5b60008219821115610b1057610b10610ae7565b500190565b60228152602081017f6f6e6c79206d696e7465722063616e2063616c6c20746869732066756e63746981527f6f6e00000000000000000000000000000000000000000000000000000000000060208201529050610ad1565b602080825281016102ef81610b15565b60408101610b8b82856108c0565b6103626020830184610963565b60258152602081017f45524332303a2064656372656173656420616c6c6f77616e63652062656c6f7781527f207a65726f00000000000000000000000000000000000000000000000000000060208201529050610ad1565b602080825281016102ef81610b98565b60248152602081017f45524332303a20617070726f76652066726f6d20746865207a65726f2061646481527f726573730000000000000000000000000000000000000000000000000000000060208201529050610ad1565b602080825281016102ef81610c00565b60228152602081017f45524332303a20617070726f766520746f20746865207a65726f20616464726581527f737300000000000000000000000000000000000000000000000000000000000060208201529050610ad1565b602080825281016102ef81610c68565b60258152602081017f45524332303a207472616e736665722066726f6d20746865207a65726f20616481527f647265737300000000000000000000000000000000000000000000000000000060208201529050610ad1565b602080825281016102ef81610cd0565b60238152602081017f45524332303a207472616e7366657220746f20746865207a65726f206164647281527f657373000000000000000000000000000000000000000000000000000000000060208201529050610ad1565b602080825281016102ef81610d38565b60268152602081017f45524332303a207472616e7366657220616d6f756e742065786365656473206281527f616c616e6365000000000000000000000000000000000000000000000000000060208201529050610ad1565b602080825281016102ef81610da0565b602080825281016102ef81601f81527f45524332303a206d696e7420746f20746865207a65726f206164647265737300602082015260400190565b60218152602081017f45524332303a206275726e2066726f6d20746865207a65726f2061646472657381527f730000000000000000000000000000000000000000000000000000000000000060208201529050610ad1565b602080825281016102ef81610e43565b60228152602081017f45524332303a206275726e20616d6f756e7420657863656564732062616c616e81527f636500000000000000000000000000000000000000000000000000000000000060208201529050610ad1565b602080825281016102ef81610eab565b600082821015610f2557610f25610ae7565b50039056fea264697066735822122030dbcddff7c5adae0cb6a0a93ff26020b7b95458a89e3f448fc29b21014a567664736f6c634300080a0033a2646970667358221220c79e161bddd20041b1c2cc6f613d3724869feecd3eac9cc32ab2f57c50ce0cad64736f6c634300080a0033",
  "devdoc": {
    "details": "Factory contract to deploy new pools periodically      Each pool(product) will have a unique naughtyId      Each pool will have its pool token      PolicyToken - Stablecoin      Token 0 may change but Token 1 is always stablecoin.",
    "kind": "dev",
    "methods": {
      "deployPolicyToken(string,uint256)": {
        "params": {
          "_decimals": "Decimals of the policyToken",
          "_policyTokenName": "Name of the policyToken"
        },
        "returns": {
          "_0": "tokenAddress PolicyToken address"
        }
      },
      "deployPool(address,address,uint256,uint256)": {
        "params": {
          "_deadline": "Deadline of the pool",
          "_feeRate": "Fee rate given to LP holders",
          "_policyTokenAddress": "Address of policy token",
          "_stablecoin": "Address of the stable coin"
        },
        "returns": {
          "_0": "poolAddress Address of the pool"
        }
      },
      "getInitCodeHashForPolicyToken(string,uint256)": {
        "details": "For test/task convinience, pre-compute the address      Ethers.js:      Address = ethers.utils.getCreate2Address(factory address, salt, INIT_CODE_HASH)",
        "params": {
          "_decimals": "Token decimals of this policy token",
          "_tokenName": "Name of the policy token to be deployed"
        }
      },
      "getLatestTokenAddress()": {
        "returns": {
          "_0": "tokenAddress Latest token address"
        }
      },
      "getPairAddress(address,address)": {
        "params": {
          "_tokenAddress1": "Address of token1",
          "_tokenAddress2": "Address of toekn2"
        },
        "returns": {
          "_0": "Pool address of the two tokens"
        }
      },
      "renounceOwnership()": {
        "details": "Renouncing ownership will leave the contract without an owner,         thereby removing any functionality that is only available to the owner."
      },
      "setIncomeMakerAddress(address)": {
        "details": "Only callable by the owner",
        "params": {
          "_incomeMaker": "New income maker address"
        }
      },
      "setIncomeMakerProportion(uint256)": {
        "details": "Only callable by the owner",
        "params": {
          "_proportion": "New proportion to income maker contract"
        }
      },
      "setPolicyCoreAddress(address)": {
        "details": "Only callable by the owner         < PolicyCore should be the minter of policyToken >         < This process is done inside constructor >",
        "params": {
          "_policyCore": "Address of policyCore contract"
        }
      },
      "transferOwnership(address)": {
        "details": "Can only be called by the current owner.",
        "params": {
          "newOwner": "Address of the new owner"
        }
      }
    },
    "title": "Naughty Factory",
    "version": 1
  },
  "userdoc": {
    "kind": "user",
    "methods": {
      "deployPolicyToken(string,uint256)": {
        "notice": "For each round we need to first create the policytoken(ERC20)"
      },
      "deployPool(address,address,uint256,uint256)": {
        "notice": "After deploy the policytoken and get the address,         we deploy the policyToken - stablecoin pool contract"
      },
      "getInitCodeHashForPolicyToken(string,uint256)": {
        "notice": "Get the INIT_CODE_HASH for policy tokens with parameters"
      },
      "getLatestTokenAddress()": {
        "notice": "Get the latest token address just deployed"
      },
      "getPairAddress(address,address)": {
        "notice": "Get the pair address deployed by the factory         PolicyToken address first, and then stablecoin address         The order of the tokens will be sorted inside the function"
      },
      "owner()": {
        "notice": "Returns the address of the current owner."
      },
      "renounceOwnership()": {
        "notice": "Leaves the contract without owner. It will not be possible to call         `onlyOwner` functions anymore. Can only be called by the current owner."
      },
      "setIncomeMakerAddress(address)": {
        "notice": "Set income maker address"
      },
      "setIncomeMakerProportion(uint256)": {
        "notice": "Set income maker proportion"
      },
      "setPolicyCoreAddress(address)": {
        "notice": "Remember to call this function to set the policyCore address"
      },
      "transferOwnership(address)": {
        "notice": "Transfers ownership of the contract to a new account (`newOwner`)."
      }
    },
    "version": 1
  },
  "storageLayout": {
    "storage": [
      {
        "astId": 32052,
        "contract": "contracts/naughty-price/NaughtyFactory.sol:NaughtyFactory",
        "label": "_owner",
        "offset": 0,
        "slot": "0",
        "type": "t_address"
      },
      {
        "astId": 24778,
        "contract": "contracts/naughty-price/NaughtyFactory.sol:NaughtyFactory",
        "label": "getPair",
        "offset": 0,
        "slot": "1",
        "type": "t_mapping(t_address,t_mapping(t_address,t_address))"
      },
      {
        "astId": 24781,
        "contract": "contracts/naughty-price/NaughtyFactory.sol:NaughtyFactory",
        "label": "allPairs",
        "offset": 0,
        "slot": "2",
        "type": "t_array(t_address)dyn_storage"
      },
      {
        "astId": 24784,
        "contract": "contracts/naughty-price/NaughtyFactory.sol:NaughtyFactory",
        "label": "allTokens",
        "offset": 0,
        "slot": "3",
        "type": "t_array(t_address)dyn_storage"
      },
      {
        "astId": 24786,
        "contract": "contracts/naughty-price/NaughtyFactory.sol:NaughtyFactory",
        "label": "_nextId",
        "offset": 0,
        "slot": "4",
        "type": "t_uint256"
      },
      {
        "astId": 24788,
        "contract": "contracts/naughty-price/NaughtyFactory.sol:NaughtyFactory",
        "label": "policyCore",
        "offset": 0,
        "slot": "5",
        "type": "t_address"
      },
      {
        "astId": 24790,
        "contract": "contracts/naughty-price/NaughtyFactory.sol:NaughtyFactory",
        "label": "incomeMaker",
        "offset": 0,
        "slot": "6",
        "type": "t_address"
      },
      {
        "astId": 24792,
        "contract": "contracts/naughty-price/NaughtyFactory.sol:NaughtyFactory",
        "label": "incomeMakerProportion",
        "offset": 0,
        "slot": "7",
        "type": "t_uint256"
      }
    ],
    "types": {
      "t_address": {
        "encoding": "inplace",
        "label": "address",
        "numberOfBytes": "20"
      },
      "t_array(t_address)dyn_storage": {
        "base": "t_address",
        "encoding": "dynamic_array",
        "label": "address[]",
        "numberOfBytes": "32"
      },
      "t_mapping(t_address,t_address)": {
        "encoding": "mapping",
        "key": "t_address",
        "label": "mapping(address => address)",
        "numberOfBytes": "32",
        "value": "t_address"
      },
      "t_mapping(t_address,t_mapping(t_address,t_address))": {
        "encoding": "mapping",
        "key": "t_address",
        "label": "mapping(address => mapping(address => address))",
        "numberOfBytes": "32",
        "value": "t_mapping(t_address,t_address)"
      },
      "t_uint256": {
        "encoding": "inplace",
        "label": "uint256",
        "numberOfBytes": "32"
      }
    }
  }
}