{
  "address": "0x2907A75f3F04b434f72A8178EEa4ACae6050aDCD",
  "abi": [
    {
      "inputs": [],
      "name": "PAIR_INIT_CODE_HASH",
      "outputs": [
        {
          "internalType": "bytes32",
          "name": "",
          "type": "bytes32"
        }
      ],
      "stateMutability": "view",
      "type": "function"
    },
    {
      "inputs": [],
      "name": "_nextId",
      "outputs": [
        {
          "internalType": "uint256",
          "name": "",
          "type": "uint256"
        }
      ],
      "stateMutability": "view",
      "type": "function"
    },
    {
      "inputs": [
        {
          "internalType": "uint256",
          "name": "",
          "type": "uint256"
        }
      ],
      "name": "allPairs",
      "outputs": [
        {
          "internalType": "address",
          "name": "",
          "type": "address"
        }
      ],
      "stateMutability": "view",
      "type": "function"
    },
    {
      "inputs": [
        {
          "internalType": "uint256",
          "name": "",
          "type": "uint256"
        }
      ],
      "name": "allTokens",
      "outputs": [
        {
          "internalType": "address",
          "name": "",
          "type": "address"
        }
      ],
      "stateMutability": "view",
      "type": "function"
    },
    {
      "inputs": [
        {
          "internalType": "string",
          "name": "_policyTokenName",
          "type": "string"
        }
      ],
      "name": "deployPolicyToken",
      "outputs": [
        {
          "internalType": "address",
          "name": "",
          "type": "address"
        }
      ],
      "stateMutability": "nonpayable",
      "type": "function"
    },
    {
      "inputs": [
        {
          "internalType": "address",
          "name": "_policyTokenAddress",
          "type": "address"
        },
        {
          "internalType": "address",
          "name": "_stablecoin",
          "type": "address"
        },
        {
          "internalType": "uint256",
          "name": "_deadline",
          "type": "uint256"
        },
        {
          "internalType": "uint256",
          "name": "_feeRate",
          "type": "uint256"
        }
      ],
      "name": "deployPool",
      "outputs": [
        {
          "internalType": "address",
          "name": "",
          "type": "address"
        }
      ],
      "stateMutability": "nonpayable",
      "type": "function"
    },
    {
      "inputs": [
        {
          "internalType": "string",
          "name": "_policyTokenName",
          "type": "string"
        }
      ],
      "name": "getInitCodeHashForPolicyToken",
      "outputs": [
        {
          "internalType": "bytes32",
          "name": "",
          "type": "bytes32"
        }
      ],
      "stateMutability": "view",
      "type": "function"
    },
    {
      "inputs": [],
      "name": "getLatestTokenAddress",
      "outputs": [
        {
          "internalType": "address",
          "name": "",
          "type": "address"
        }
      ],
      "stateMutability": "view",
      "type": "function"
    },
    {
      "inputs": [
        {
          "internalType": "address",
          "name": "_tokenAddress1",
          "type": "address"
        },
        {
          "internalType": "address",
          "name": "_tokenAddress2",
          "type": "address"
        }
      ],
      "name": "getPairAddress",
      "outputs": [
        {
          "internalType": "address",
          "name": "",
          "type": "address"
        }
      ],
      "stateMutability": "view",
      "type": "function"
    },
    {
      "inputs": [
        {
          "internalType": "string",
          "name": "_tokenName",
          "type": "string"
        }
      ],
      "name": "getPolicyTokenBytecode",
      "outputs": [
        {
          "internalType": "bytes",
          "name": "",
          "type": "bytes"
        }
      ],
      "stateMutability": "view",
      "type": "function"
    },
    {
      "inputs": [],
      "name": "policyCore",
      "outputs": [
        {
          "internalType": "address",
          "name": "",
          "type": "address"
        }
      ],
      "stateMutability": "view",
      "type": "function"
    },
    {
      "inputs": [
        {
          "internalType": "address",
          "name": "_policyCore",
          "type": "address"
        }
      ],
      "name": "setPolicyCoreAddress",
      "outputs": [],
      "stateMutability": "nonpayable",
      "type": "function"
    }
  ],
  "transactionHash": "0xd418a138a32563fd9af64c1cc251f99e356b6ccd870e65a13b5b68226ad437f6",
  "args": [],
  "numDeployments": 1,
  "solcInputHash": "891f6e83b97076056766f10193ee5514",
  "bytecode": "0x608060405234801561001057600080fd5b506146d2806100206000396000f3fe60806040523480156200001157600080fd5b5060043610620000c35760003560e01c80639fd2650e116200007a5780639fd2650e1462000199578063b4f69a2f14620001a3578063d8adc09314620001ba578063e30145e014620001d1578063f03c613214620001e5578063f2f2fff514620001fc57600080fd5b80630bd5f6e214620000c85780631e3dd18b14620000f75780633a5f69f8146200011d57806357b84f8c146200013457806361c8f99d146200014d578063634282af1462000182575b600080fd5b620000df620000d9366004620009ce565b62000206565b604051620000ee919062000a77565b60405180910390f35b6200010e6200010836600462000aa8565b6200028e565b604051620000ee919062000af0565b6200010e6200012e36600462000b18565b620002b9565b6200013e6200042f565b604051620000ee919062000b8d565b620001806200015e36600462000b9d565b600480546001600160a01b0319166001600160a01b0392909216919091179055565b005b6200010e6200019336600462000aa8565b6200047d565b6200010e6200048e565b6200010e620001b436600462000bc2565b620004d5565b6200013e620001cb366004620009ce565b62000591565b6004546200010e906001600160a01b031681565b6200010e620001f6366004620009ce565b6200061f565b6200013e60035481565b60606000604051806020016200021c90620008a2565b601f1982820381018352601f90910116604081905260045491925082916200025791869182916001600160a01b039091169060200162000c05565b60408051601f198184030181529082905262000277929160200162000c64565b604051602081830303815290604052915050919050565b600181815481106200029f57600080fd5b6000918252602090912001546001600160a01b0316905081565b60008060405180602001620002ce90620008b0565b601f1982820381018352601f9091011660405290506000620002f96001600160a01b038816620006d5565b6200030d876001600160a01b0316620006d5565b6040516020016200032092919062000c64565b6040516020818303038152906040528051906020012090506000620003468383620006ed565b60405163eb990c5960e01b81529091506001600160a01b0382169063eb990c59906200037d908b908b908b908b9060040162000c7e565b600060405180830381600087803b1580156200039857600080fd5b505af1158015620003ad573d6000803e3d6000fd5b5050506001600160a01b03808a166000908152602081815260408083208c85168452909152812080549285166001600160a01b0319938416811790915560018054808201825592527fb10e2d527612073b26eecdfd717e6a320cf44b4afac2b0732d9fcbe2b7fa0cf6909101805490921617905550925050505b949350505050565b6040516200044060208201620008b0565b601f1982820381018352601f90910116604081905262000464919060200162000cc4565b6040516020818303038152906040528051906020012081565b600281815481106200029f57600080fd5b6000806001600354620004a2919062000ce6565b905060028181548110620004ba57620004ba62000d00565b6000918252602090912001546001600160a01b031692915050565b60048054604051635cb3b14f60e01b8152600092839283926001600160a01b0390911691635cb3b14f916200050d9188910162000af0565b602060405180830381865afa1580156200052b573d6000803e3d6000fd5b505050506040513d601f19601f8201168201806040525081019062000551919062000d2c565b6200055e57838562000561565b84845b6001600160a01b039182166000908152602081815260408083209385168352929052205416925050505b92915050565b60008060405180602001620005a690620008a2565b601f1982820381018352601f9091011660408190526004549192508291620005e191869182916001600160a01b039091169060200162000c05565b60408051601f198184030181529082905262000601929160200162000c64565b60405160208183030381529060405280519060200120915050919050565b6000808260405160200162000635919062000cc4565b60405160208183030381529060405280519060200120905060006200065a8462000206565b905060006200066a8284620006ed565b6002805460018101825560009182527f405787fa12a823e0f2b7631cc41b3ba8828b3321ca811111fa75cd3aa3bb5ace0180546001600160a01b0319166001600160a01b0384161790556003805492935090620006c78362000d51565b909155509095945050505050565b60606200058b826001600160a01b0316601462000707565b6000818351602085016000f59050803b6200058b57600080fd5b606060006200071883600262000d6f565b6200072590600262000d91565b67ffffffffffffffff811115620007405762000740620008be565b6040519080825280601f01601f1916602001820160405280156200076b576020820181803683370190505b509050600360fc1b8160008151811062000789576200078962000d00565b60200101906001600160f81b031916908160001a905350600f60fb1b81600181518110620007bb57620007bb62000d00565b60200101906001600160f81b031916908160001a9053506000620007e184600262000d6f565b620007ee90600162000d91565b90505b600181111562000870576f181899199a1a9b1b9c1cb0b131b232b360811b85600f166010811062000826576200082662000d00565b1a60f81b8282815181106200083f576200083f62000d00565b60200101906001600160f81b031916908160001a90535060049490941c93620008688162000dac565b9050620007f1565b5083156200089b5760405162461bcd60e51b8152600401620008929062000dc6565b60405180910390fd5b9392505050565b6111f88062000e0283390190565b6126a38062001ffa83390190565b634e487b7160e01b600052604160045260246000fd5b601f19601f830116810181811067ffffffffffffffff82111715620008fd57620008fd620008be565b6040525050565b60006200091060405190565b90506200091e8282620008d4565b919050565b600067ffffffffffffffff821115620009405762000940620008be565b601f19601f83011660200192915050565b82818337506000910152565b6000620009746200096e8462000923565b62000904565b905082815260208101848484011115620009915762000991600080fd5b6200099e84828562000951565b509392505050565b600082601f830112620009bc57620009bc600080fd5b8135620004278482602086016200095d565b600060208284031215620009e557620009e5600080fd5b813567ffffffffffffffff81111562000a015762000a01600080fd5b6200042784828501620009a6565b60005b8381101562000a2c57818101518382015260200162000a12565b8381111562000a3c576000848401525b50505050565b600062000a4d825190565b80845260208401935062000a6681856020860162000a0f565b601f01601f19169290920192915050565b602080825281016200089b818462000a42565b805b811462000a9857600080fd5b50565b80356200058b8162000a8a565b60006020828403121562000abf5762000abf600080fd5b600062000427848462000a9b565b60006001600160a01b0382166200058b565b62000aea8162000acd565b82525050565b602081016200058b828462000adf565b62000a8c8162000acd565b80356200058b8162000b00565b6000806000806080858703121562000b335762000b33600080fd5b600062000b41878762000b0b565b945050602062000b548782880162000b0b565b935050604062000b678782880162000a9b565b925050606062000b7a8782880162000a9b565b91505092959194509250565b8062000aea565b602081016200058b828462000b86565b60006020828403121562000bb45762000bb4600080fd5b600062000427848462000b0b565b6000806040838503121562000bda5762000bda600080fd5b600062000be8858562000b0b565b925050602062000bfb8582860162000b0b565b9150509250929050565b6060808252810162000c18818662000a42565b9050818103602083015262000c2e818562000a42565b905062000427604083018462000adf565b600062000c4a825190565b62000c5a81856020860162000a0f565b9290920192915050565b62000c70818462000c3f565b90506200089b818362000c3f565b6080810162000c8e828762000adf565b62000c9d602083018662000adf565b62000cac604083018562000b86565b62000cbb606083018462000b86565b95945050505050565b6200058b818362000c3f565b634e487b7160e01b600052601160045260246000fd5b60008282101562000cfb5762000cfb62000cd0565b500390565b634e487b7160e01b600052603260045260246000fd5b80151562000a8c565b80516200058b8162000d16565b60006020828403121562000d435762000d43600080fd5b600062000427848462000d1f565b600060001982141562000d685762000d6862000cd0565b5060010190565b600081600019048311821515161562000d8c5762000d8c62000cd0565b500290565b6000821982111562000da75762000da762000cd0565b500190565b60008162000dbe5762000dbe62000cd0565b506000190190565b60208082528181019081527f537472696e67733a20686578206c656e67746820696e73756666696369656e746040830152606082016200058b56fe60806040523480156200001157600080fd5b50604051620011f8380380620011f88339810160408190526200003491620002ad565b8251839083906200004d90600390602085019062000090565b5080516200006390600490602084019062000090565b5050600580546001600160a01b0319166001600160a01b0393909316929092179091555062000385915050565b8280546200009e9062000354565b90600052602060002090601f016020900481019282620000c257600085556200010d565b82601f10620000dd57805160ff19168380011785556200010d565b828001600101855582156200010d579182015b828111156200010d578251825591602001919060010190620000f0565b506200011b9291506200011f565b5090565b5b808211156200011b576000815560010162000120565b634e487b7160e01b600052604160045260246000fd5b601f19601f83011681016001600160401b038111828210171562000174576200017462000136565b6040525050565b60006200018760405190565b90506200019582826200014c565b919050565b60006001600160401b03821115620001b657620001b662000136565b601f19601f83011660200192915050565b60005b83811015620001e4578181015183820152602001620001ca565b83811115620001f4576000848401525b50505050565b6000620002116200020b846200019a565b6200017b565b9050828152602081018484840111156200022e576200022e600080fd5b6200023b848285620001c7565b509392505050565b600082601f830112620002595762000259600080fd5b81516200026b848260208601620001fa565b949350505050565b60006001600160a01b0382165b92915050565b620002918162000273565b81146200029d57600080fd5b50565b8051620002808162000286565b600080600060608486031215620002c757620002c7600080fd5b83516001600160401b03811115620002e257620002e2600080fd5b620002f08682870162000243565b602086015190945090506001600160401b03811115620003135762000313600080fd5b620003218682870162000243565b92505060406200033486828701620002a0565b9150509250925092565b634e487b7160e01b600052602260045260246000fd5b6002810460018216806200036957607f821691505b602082108114156200037f576200037f6200033e565b50919050565b610e6380620003956000396000f3fe608060405234801561001057600080fd5b50600436106100ea5760003560e01c806340c10f191161008c5780639dc29fac116100665780639dc29fac146101d9578063a457c2d7146101ec578063a9059cbb146101ff578063dd62ed3e1461021257600080fd5b806340c10f191461019357806370a08231146101a857806395d89b41146101d157600080fd5b806318160ddd116100c857806318160ddd1461014d57806323b872dd1461015e578063313ce56714610171578063395093511461018057600080fd5b806306fdde03146100ef578063075461721461010d578063095ea7b31461012d575b600080fd5b6100f761024b565b604051610104919061089d565b60405180910390f35b600554610120906001600160a01b031681565b60405161010491906108ce565b61014061013b36600461090f565b6102dd565b6040516101049190610954565b6002545b6040516101049190610968565b61014061016c366004610976565b6102f4565b601260405161010491906109cf565b61014061018e36600461090f565b610368565b6101a66101a136600461090f565b6103a4565b005b6101516101b63660046109dd565b6001600160a01b031660009081526020819052604090205490565b6100f7610415565b6101a66101e736600461090f565b610424565b6101406101fa36600461090f565b610489565b61014061020d36600461090f565b6104e4565b610151610220366004610a06565b6001600160a01b03918216600090815260016020908152604080832093909416825291909152205490565b60606003805461025a90610a4f565b80601f016020809104026020016040519081016040528092919081815260200182805461028690610a4f565b80156102d35780601f106102a8576101008083540402835291602001916102d3565b820191906000526020600020905b8154815290600101906020018083116102b657829003601f168201915b5050505050905090565b60006102ea3384846104f1565b5060015b92915050565b60006103018484846105a5565b6001600160a01b03841660009081526001602090815260408083203384529091529020548281101561034e5760405162461bcd60e51b815260040161034590610ac1565b60405180910390fd5b61035b85338584036104f1565b60019150505b9392505050565b3360008181526001602090815260408083206001600160a01b038716845290915281205490916102ea91859061039f908690610ae7565b6104f1565b6005546001600160a01b031633146103ce5760405162461bcd60e51b815260040161034590610b3c565b6103d882826106ba565b7f0f6798a560793a54c3bcfe86a93cde1e73087d944c0ea20544137d41213968858282604051610409929190610b4c565b60405180910390a15050565b60606004805461025a90610a4f565b6005546001600160a01b0316331461044e5760405162461bcd60e51b815260040161034590610b3c565b610458828261076e565b7fcc16f5dbb4873280815c1ee09dbd06736cffcc184412cf7a71a0fdb75d397ca58282604051610409929190610b4c565b3360009081526001602090815260408083206001600160a01b0386168452909152812054828110156104cd5760405162461bcd60e51b815260040161034590610ba7565b6104da33858584036104f1565b5060019392505050565b60006102ea3384846105a5565b6001600160a01b0383166105175760405162461bcd60e51b815260040161034590610bf6565b6001600160a01b03821661053d5760405162461bcd60e51b815260040161034590610c43565b6001600160a01b0380841660008181526001602090815260408083209487168084529490915290819020849055517f8c5be1e5ebec7d5bd14f71427d1e84f3dd0314c0f7b2291e5b200ac8c7c3b92590610598908590610968565b60405180910390a3505050565b6001600160a01b0383166105cb5760405162461bcd60e51b815260040161034590610c93565b6001600160a01b0382166105f15760405162461bcd60e51b815260040161034590610ce1565b6001600160a01b0383166000908152602081905260409020548181101561062a5760405162461bcd60e51b815260040161034590610d32565b6001600160a01b03808516600090815260208190526040808220858503905591851681529081208054849290610661908490610ae7565b92505081905550826001600160a01b0316846001600160a01b03167fddf252ad1be2c89b69c2b068fc378daa952ba7f163c4a11628f55a4df523b3ef846040516106ab9190610968565b60405180910390a35b50505050565b6001600160a01b0382166106e05760405162461bcd60e51b815260040161034590610d42565b80600260008282546106f29190610ae7565b90915550506001600160a01b0382166000908152602081905260408120805483929061071f908490610ae7565b90915550506040516001600160a01b038316906000907fddf252ad1be2c89b69c2b068fc378daa952ba7f163c4a11628f55a4df523b3ef90610762908590610968565b60405180910390a35050565b6001600160a01b0382166107945760405162461bcd60e51b815260040161034590610db9565b6001600160a01b038216600090815260208190526040902054818110156107cd5760405162461bcd60e51b815260040161034590610e06565b6001600160a01b03831660009081526020819052604081208383039055600280548492906107fc908490610e16565b90915550506040516000906001600160a01b038516907fddf252ad1be2c89b69c2b068fc378daa952ba7f163c4a11628f55a4df523b3ef90610598908690610968565b60005b8381101561085a578181015183820152602001610842565b838111156106b45750506000910152565b6000610875825190565b80845260208401935061088c81856020860161083f565b601f01601f19169290920192915050565b60208082528101610361818461086b565b60006001600160a01b0382166102ee565b6108c8816108ae565b82525050565b602081016102ee82846108bf565b6108e5816108ae565b81146108f057600080fd5b50565b80356102ee816108dc565b806108e5565b80356102ee816108fe565b6000806040838503121561092557610925600080fd5b600061093185856108f3565b925050602061094285828601610904565b9150509250929050565b8015156108c8565b602081016102ee828461094c565b806108c8565b602081016102ee8284610962565b60008060006060848603121561098e5761098e600080fd5b600061099a86866108f3565b93505060206109ab868287016108f3565b92505060406109bc86828701610904565b9150509250925092565b60ff81166108c8565b602081016102ee82846109c6565b6000602082840312156109f2576109f2600080fd5b60006109fe84846108f3565b949350505050565b60008060408385031215610a1c57610a1c600080fd5b6000610a2885856108f3565b9250506020610942858286016108f3565b634e487b7160e01b600052602260045260246000fd5b600281046001821680610a6357607f821691505b60208210811415610a7657610a76610a39565b50919050565b60288152602081017f45524332303a207472616e7366657220616d6f756e74206578636565647320618152676c6c6f77616e636560c01b602082015290505b60400190565b602080825281016102ee81610a7c565b634e487b7160e01b600052601160045260246000fd5b60008219821115610afa57610afa610ad1565b500190565b60228152602081017f6f6e6c79206d696e7465722063616e2063616c6c20746869732066756e63746981526137b760f11b60208201529050610abb565b602080825281016102ee81610aff565b60408101610b5a82856108bf565b6103616020830184610962565b60258152602081017f45524332303a2064656372656173656420616c6c6f77616e63652062656c6f77815264207a65726f60d81b60208201529050610abb565b602080825281016102ee81610b67565b60248152602081017f45524332303a20617070726f76652066726f6d20746865207a65726f206164648152637265737360e01b60208201529050610abb565b602080825281016102ee81610bb7565b60228152602081017f45524332303a20617070726f766520746f20746865207a65726f206164647265815261737360f01b60208201529050610abb565b602080825281016102ee81610c06565b60258152602081017f45524332303a207472616e736665722066726f6d20746865207a65726f206164815264647265737360d81b60208201529050610abb565b602080825281016102ee81610c53565b60238152602081017f45524332303a207472616e7366657220746f20746865207a65726f206164647281526265737360e81b60208201529050610abb565b602080825281016102ee81610ca3565b60268152602081017f45524332303a207472616e7366657220616d6f756e7420657863656564732062815265616c616e636560d01b60208201529050610abb565b602080825281016102ee81610cf1565b602080825281016102ee81601f81527f45524332303a206d696e7420746f20746865207a65726f206164647265737300602082015260400190565b60218152602081017f45524332303a206275726e2066726f6d20746865207a65726f206164647265738152607360f81b60208201529050610abb565b602080825281016102ee81610d7d565b60228152602081017f45524332303a206275726e20616d6f756e7420657863656564732062616c616e815261636560f01b60208201529050610abb565b602080825281016102ee81610dc9565b600082821015610e2857610e28610ad1565b50039056fea2646970667358221220429fea78a734a88ac2d9a159248c3c7e57b1b9b7ce8f9bb26d69eb05601a689f64736f6c634300080a003360806040526009805460ff60e01b1916600160e01b1790553480156200002457600080fd5b506040518060400160405280600f81526020016e04e61756768747920506f6f6c204c5608c1b8152506040518060400160405280600381526020016204e4c560ec1b815250816003908051906020019062000081929190620000b7565b50805162000097906004906020840190620000b7565b5050600160055550600680546001600160a01b03191633179055620001a4565b828054620000c59062000173565b90600052602060002090601f016020900481019282620000e9576000855562000134565b82601f106200010457805160ff191683800117855562000134565b8280016001018555821562000134579182015b828111156200013457825182559160200191906001019062000117565b506200014292915062000146565b5090565b5b8082111562000142576000815560010162000147565b634e487b7160e01b600052602260045260246000fd5b6002810460018216806200018857607f821691505b602082108114156200019e576200019e6200015d565b50919050565b6124ef80620001b46000396000f3fe608060405234801561001057600080fd5b50600436106101585760003560e01c806370a08231116100c3578063ba9a7a561161007c578063ba9a7a56146102ec578063c45a0155146102f5578063d21220a714610308578063dd62ed3e1461031b578063eb990c5914610354578063fff6cae91461036757600080fd5b806370a082311461026b57806389afcb441461029457806395d89b41146102b5578063978bbdb9146102bd578063a457c2d7146102c6578063a9059cbb146102d957600080fd5b806329dcb0cf1161011557806329dcb0cf14610204578063313ce5671461020d578063395093511461021c5780636a5e26501461022f5780636a627842146102435780636d9a640a1461025657600080fd5b806306fdde031461015d5780630902f1ac1461017b578063095ea7b3146101a05780630dfe1681146101c057806318160ddd146101e057806323b872dd146101f1575b600080fd5b61016561036f565b60405161017291906119cd565b60405180910390f35b6009546001600160701b0380821691600160701b9004166040516101729291906119ef565b6101b36101ae366004611a4e565b610401565b6040516101729190611a93565b6007546101d3906001600160a01b031681565b6040516101729190611aaa565b6002545b6040516101729190611abe565b6101b36101ff366004611acc565b610418565b6101e4600a5481565b60126040516101729190611b25565b6101b361022a366004611a4e565b61048c565b6009546101b390600160e01b900460ff1681565b6101e4610251366004611b33565b6104c8565b610269610264366004611b54565b610738565b005b6101e4610279366004611b33565b6001600160a01b031660009081526020819052604090205490565b6102a76102a2366004611b33565b610afc565b604051610172929190611b9a565b610165610e11565b6101e4600b5481565b6101b36102d4366004611a4e565b610e20565b6101b36102e7366004611a4e565b610e7b565b6101e46103e881565b6006546101d3906001600160a01b031681565b6008546101d3906001600160a01b031681565b6101e4610329366004611bb5565b6001600160a01b03918216600090815260016020908152604080832093909416825291909152205490565b610269610362366004611be8565b610e88565b610269610f0f565b60606003805461037e90611c62565b80601f01602080910402602001604051908101604052809291908181526020018280546103aa90611c62565b80156103f75780601f106103cc576101008083540402835291602001916103f7565b820191906000526020600020905b8154815290600101906020018083116103da57829003601f168201915b5050505050905090565b600061040e338484611027565b5060015b92915050565b60006104258484846110db565b6001600160a01b0384166000908152600160209081526040808320338452909152902054828110156104725760405162461bcd60e51b815260040161046990611cd4565b60405180910390fd5b61047f8533858403611027565b60019150505b9392505050565b3360008181526001602090815260408083206001600160a01b0387168452909152812054909161040e9185906104c3908690611cfa565b611027565b6000600260055414156104ed5760405162461bcd60e51b815260040161046990611d46565b60026005556000806105136009546001600160701b0380821692600160701b9092041690565b6007546040516370a0823160e01b81529294509092506000916001600160a01b03909116906370a082319061054c903090600401611aaa565b602060405180830381865afa158015610569573d6000803e3d6000fd5b505050506040513d601f19601f8201168201806040525081019061058d9190611d61565b6008546040516370a0823160e01b81529192506000916001600160a01b03909116906370a08231906105c3903090600401611aaa565b602060405180830381865afa1580156105e0573d6000803e3d6000fd5b505050506040513d601f19601f820116820180604052508101906106049190611d61565b9050600061061b6001600160701b03861684611d82565b905060006106326001600160701b03861684611d82565b9050600061063f60025490565b905080610670576103e861065384846111f0565b61065d9190611d82565b975061066b306103e8611245565b6106af565b6106ac6106906001600160701b03891661068a86856112f9565b90611305565b6106a76001600160701b03891661068a86866112f9565b61131a565b97505b600088116106cf5760405162461bcd60e51b815260040161046990611dcb565b6106d98989611245565b6106e38585611330565b336001600160a01b03167f4c209b5fc8ad50758f13e2e1088ba56a560dff690a1c6fef26394f4c03821c4f848460405161071e929190611b9a565b60405180910390a250506001600555509395945050505050565b600a5442111561075a5760405162461bcd60e51b815260040161046990611e0d565b6002600554141561077d5760405162461bcd60e51b815260040161046990611d46565b6002600555821515806107905750600082115b6107ac5760405162461bcd60e51b815260040161046990611e4f565b6000806107cd6009546001600160701b0380821692600160701b9092041690565b6001600160701b031691506001600160701b0316915081851080156107f157508084105b61080d5760405162461bcd60e51b815260040161046990611e88565b60075460085460009182916001600160a01b0391821691908116908716821480159061084b5750806001600160a01b0316876001600160a01b031614155b6108675760405162461bcd60e51b815260040161046990611eb7565b8815610881576108816001600160a01b038316888b6113df565b871561089b5761089b6001600160a01b038216888a6113df565b6040516370a0823160e01b81526001600160a01b038316906370a08231906108c7903090600401611aaa565b602060405180830381865afa1580156108e4573d6000803e3d6000fd5b505050506040513d601f19601f820116820180604052508101906109089190611d61565b6040516370a0823160e01b81529094506001600160a01b038216906370a0823190610937903090600401611aaa565b602060405180830381865afa158015610954573d6000803e3d6000fd5b505050506040513d601f19601f820116820180604052508101906109789190611d61565b925050506000878561098a9190611d82565b83116109975760006109ab565b6109a18886611d82565b6109ab9084611d82565b905060006109b98886611d82565b83116109c65760006109da565b6109d08886611d82565b6109da9084611d82565b905060008211806109eb5750600081115b610a075760405162461bcd60e51b815260040161046990611ef9565b6000610a14836014611f09565b610a20866103e8611f09565b610a2a9190611d82565b90506000610a39836014611f09565b610a45866103e8611f09565b610a4f9190611d82565b9050610a5b8789611f09565b610a6790612710611f09565b610a718284611f09565b1015610a8f5760405162461bcd60e51b815260040161046990611f58565b5050610a9b8484611330565b866001600160a01b0316336001600160a01b03167fd78ad95fa46c994b6551d0da85fc275fe613ce37657fb8d5e3d130840159d82284848d8d604051610ae49493929190611f68565b60405180910390a35050600160055550505050505050565b60008060026005541415610b225760405162461bcd60e51b815260040161046990611d46565b60026005556007546040516370a0823160e01b81526000916001600160a01b0316906370a0823190610b58903090600401611aaa565b602060405180830381865afa158015610b75573d6000803e3d6000fd5b505050506040513d601f19601f82011682018060405250810190610b999190611d61565b6008546040516370a0823160e01b81529192506000916001600160a01b03909116906370a0823190610bcf903090600401611aaa565b602060405180830381865afa158015610bec573d6000803e3d6000fd5b505050506040513d601f19601f82011682018060405250810190610c109190611d61565b3060009081526020819052604081205491925090610c31906103e890611d82565b90506000610c3e60025490565b9050610c4e8161068a84876112f9565b9550610c5e8161068a84866112f9565b9450600086118015610c705750600085115b610c8c5760405162461bcd60e51b815260040161046990611fd8565b610c96308361143a565b600754610cad906001600160a01b031688886113df565b600854610cc4906001600160a01b031688876113df565b6007546040516370a0823160e01b81526001600160a01b03909116906370a0823190610cf4903090600401611aaa565b602060405180830381865afa158015610d11573d6000803e3d6000fd5b505050506040513d601f19601f82011682018060405250810190610d359190611d61565b6008546040516370a0823160e01b81529195506001600160a01b0316906370a0823190610d66903090600401611aaa565b602060405180830381865afa158015610d83573d6000803e3d6000fd5b505050506040513d601f19601f82011682018060405250810190610da79190611d61565b9250610db38484611330565b866001600160a01b0316336001600160a01b03167fdccd412f0b1252819cb1fd330b93224ca42612892bb3f4f789976e6d819364968888604051610df8929190611b9a565b60405180910390a3505050506001600581905550915091565b60606004805461037e90611c62565b3360009081526001602090815260408083206001600160a01b038616845290915281205482811015610e645760405162461bcd60e51b815260040161046990612028565b610e713385858403611027565b5060019392505050565b600061040e3384846110db565b6006546001600160a01b03163314610eb25760405162461bcd60e51b815260040161046990612082565b6103e8811115610ed45760405162461bcd60e51b8152600401610469906120b7565b600780546001600160a01b039586166001600160a01b0319918216179091556008805494909516931692909217909255600a91909155600b55565b60026005541415610f325760405162461bcd60e51b815260040161046990611d46565b60026005556007546040516370a0823160e01b8152611020916001600160a01b0316906370a0823190610f69903090600401611aaa565b602060405180830381865afa158015610f86573d6000803e3d6000fd5b505050506040513d601f19601f82011682018060405250810190610faa9190611d61565b6008546040516370a0823160e01b81526001600160a01b03909116906370a0823190610fda903090600401611aaa565b602060405180830381865afa158015610ff7573d6000803e3d6000fd5b505050506040513d601f19601f8201168201806040525081019061101b9190611d61565b611330565b6001600555565b6001600160a01b03831661104d5760405162461bcd60e51b815260040161046990612106565b6001600160a01b0382166110735760405162461bcd60e51b815260040161046990612153565b6001600160a01b0380841660008181526001602090815260408083209487168084529490915290819020849055517f8c5be1e5ebec7d5bd14f71427d1e84f3dd0314c0f7b2291e5b200ac8c7c3b925906110ce908590611abe565b60405180910390a3505050565b6001600160a01b0383166111015760405162461bcd60e51b8152600401610469906121a3565b6001600160a01b0382166111275760405162461bcd60e51b8152600401610469906121f1565b6001600160a01b038316600090815260208190526040902054818110156111605760405162461bcd60e51b815260040161046990612242565b6001600160a01b03808516600090815260208190526040808220858503905591851681529081208054849290611197908490611cfa565b92505081905550826001600160a01b0316846001600160a01b03167fddf252ad1be2c89b69c2b068fc378daa952ba7f163c4a11628f55a4df523b3ef846040516111e19190611abe565b60405180910390a35b50505050565b6000826111ff57506000610412565b8282028284828161121257611212612252565b041461123457838360405162c3efdf60e01b8152600401610469929190611b9a565b61123d8161150b565b949350505050565b6001600160a01b03821661126b5760405162461bcd60e51b81526004016104699061229a565b806002600082825461127d9190611cfa565b90915550506001600160a01b038216600090815260208190526040812080548392906112aa908490611cfa565b90915550506040516001600160a01b038316906000907fddf252ad1be2c89b69c2b068fc378daa952ba7f163c4a11628f55a4df523b3ef906112ed908590611abe565b60405180910390a35050565b6000610485838361167c565b600061048583670de0b6b3a76400008461173d565b60008183106113295781610485565b5090919050565b6001600160701b038083118015906113515750806001600160701b03168211155b61136d5760405162461bcd60e51b8152600401610469906122cf565b600980546001600160701b03848116600160701b9081026001600160e01b03199093168288161792909217928390556040517f32dc813d3f262a05478ad1165d5701040e411d9a6e1684c8c2da1c8e6f3b8022936113d2938184169391041690612300565b60405180910390a1505050565b6114358363a9059cbb60e01b84846040516024016113fe92919061231b565b60408051601f198184030181529190526020810180516001600160e01b03166001600160e01b031990931692909217909152611805565b505050565b6001600160a01b0382166114605760405162461bcd60e51b815260040161046990612365565b6001600160a01b038216600090815260208190526040902054818110156114995760405162461bcd60e51b8152600401610469906123b2565b6001600160a01b03831660009081526020819052604081208383039055600280548492906114c8908490611d82565b90915550506040516000906001600160a01b038516907fddf252ad1be2c89b69c2b068fc378daa952ba7f163c4a11628f55a4df523b3ef906110ce908690611abe565b60008161151a57506000919050565b50600181600160801b81106115345760409190911b9060801c5b68010000000000000000811061154f5760209190911b9060401c5b64010000000081106115665760109190911b9060201c5b62010000811061157b5760089190911b9060101c5b610100811061158f5760049190911b9060081c5b601081106115a25760029190911b9060041c5b600881106115b257600182901b91505b60018284816115c3576115c3612252565b048301901c915060018284816115db576115db612252565b048301901c915060018284816115f3576115f3612252565b048301901c9150600182848161160b5761160b612252565b048301901c9150600182848161162357611623612252565b048301901c9150600182848161163b5761163b612252565b048301901c9150600182848161165357611653612252565b048301901c9150600082848161166b5761166b612252565b04905080831015610485578261123d565b60008080600019848609848602925082811083820303915050670de0b6b3a764000081106116bf578060405163698d9a0160e11b81526004016104699190611abe565b600080670de0b6b3a76400008688099150506706f05b59d3b1ffff8111826116f95780670de0b6b3a7640000850401945050505050610412565b620400008285030493909111909103600160ee1b02919091177faccb18165bd6fe31ae1cf318dc5b51eee0e1ba569b88cd74c1773b91fac106690201905092915050565b6000808060001985870985870292508281108382030391505080600014156117785783828161176e5761176e612252565b0492505050610485565b83811061179c578084604051631dcf306360e21b8152600401610469929190611b9a565b60008486880960026001871981018816978890046003810283188082028403028082028403028082028403028082028403028082028403029081029092039091026000889003889004909101858311909403939093029303949094049190911702949350505050565b600061185a826040518060400160405280602081526020017f5361666545524332303a206c6f772d6c6576656c2063616c6c206661696c6564815250856001600160a01b03166118949092919063ffffffff16565b805190915015611435578080602001905181019061187891906123d5565b6114355760405162461bcd60e51b81526004016104699061243b565b606061123d848460008585843b6118bd5760405162461bcd60e51b81526004016104699061247d565b600080866001600160a01b031685876040516118d991906124af565b60006040518083038185875af1925050503d8060008114611916576040519150601f19603f3d011682016040523d82523d6000602084013e61191b565b606091505b509150915061192b828286611936565b979650505050505050565b60608315611945575081610485565b8251156119555782518084602001fd5b8160405162461bcd60e51b815260040161046991906119cd565b60005b8381101561198a578181015183820152602001611972565b838111156111ea5750506000910152565b60006119a5825190565b8084526020840193506119bc81856020860161196f565b601f01601f19169290920192915050565b60208082528101610485818461199b565b6001600160701b0381165b82525050565b604081016119fd82856119de565b61048560208301846119de565b60006001600160a01b038216610412565b611a2481611a0a565b8114611a2f57600080fd5b50565b803561041281611a1b565b80611a24565b803561041281611a3d565b60008060408385031215611a6457611a64600080fd5b6000611a708585611a32565b9250506020611a8185828601611a43565b9150509250929050565b8015156119e9565b602081016104128284611a8b565b6119e981611a0a565b602081016104128284611aa1565b806119e9565b602081016104128284611ab8565b600080600060608486031215611ae457611ae4600080fd5b6000611af08686611a32565b9350506020611b0186828701611a32565b9250506040611b1286828701611a43565b9150509250925092565b60ff81166119e9565b602081016104128284611b1c565b600060208284031215611b4857611b48600080fd5b600061123d8484611a32565b600080600060608486031215611b6c57611b6c600080fd5b6000611b788686611a43565b9350506020611b8986828701611a43565b9250506040611b1286828701611a32565b60408101611ba88285611ab8565b6104856020830184611ab8565b60008060408385031215611bcb57611bcb600080fd5b6000611bd78585611a32565b9250506020611a8185828601611a32565b60008060008060808587031215611c0157611c01600080fd5b6000611c0d8787611a32565b9450506020611c1e87828801611a32565b9350506040611c2f87828801611a43565b9250506060611c4087828801611a43565b91505092959194509250565b634e487b7160e01b600052602260045260246000fd5b600281046001821680611c7657607f821691505b60208210811415611c8957611c89611c4c565b50919050565b60288152602081017f45524332303a207472616e7366657220616d6f756e74206578636565647320618152676c6c6f77616e636560c01b602082015290505b60400190565b6020808252810161041281611c8f565b634e487b7160e01b600052601160045260246000fd5b60008219821115611d0d57611d0d611ce4565b500190565b601f8152602081017f5265656e7472616e637947756172643a207265656e7472616e742063616c6c00815290505b60200190565b6020808252810161041281611d12565b805161041281611a3d565b600060208284031215611d7657611d76600080fd5b600061123d8484611d56565b600082821015611d9457611d94611ce4565b500390565b601d8152602081017f696e73756666696369656e74206c6971756964697479206d696e74656400000081529050611d40565b6020808252810161041281611d99565b601b8152602081017f43616e206e6f74207377617020616674657220646561646c696e65000000000081529050611d40565b6020808252810161041281611ddb565b601b8152602081017f4f757470757420616d6f756e74206e65656420746f206265203e30000000000081529050611d40565b6020808252810161041281611e1d565b6014815260208101734e6f7420656e6f756768206c697175696469747960601b81529050611d40565b6020808252810161041281611e5f565b600a81526020810169494e56414c49445f544f60b01b81529050611d40565b6020808252810161041281611e98565b60198152602081017f494e53554646494349454e545f494e5055545f414d4f554e540000000000000081529050611d40565b6020808252810161041281611ec7565b6000816000190483118215151615611f2357611f23611ce4565b500290565b60208082527f5468652072656d61696e696e6720782a79206973206c657373207468616e204b9101908152611d40565b6020808252810161041281611f28565b60808101611f768287611ab8565b611f836020830186611ab8565b611f906040830185611ab8565b611f9d6060830184611ab8565b95945050505050565b601d8152602081017f496e73756666696369656e74206c6971756964697479206275726e656400000081529050611d40565b6020808252810161041281611fa6565b60258152602081017f45524332303a2064656372656173656420616c6c6f77616e63652062656c6f77815264207a65726f60d81b60208201529050611cce565b6020808252810161041281611fe8565b602f8152602081017f63616e206f6e6c7920626520696e697469616c697a656420627920746865206681526e1858dd1bdc9e4818dbdb9d1c9858dd608a1b60208201529050611cce565b6020808252810161041281612038565b60108152602081016f066656552617465206f76657220312e360841b81529050611d40565b6020808252810161041281612092565b60248152602081017f45524332303a20617070726f76652066726f6d20746865207a65726f206164648152637265737360e01b60208201529050611cce565b60208082528101610412816120c7565b60228152602081017f45524332303a20617070726f766520746f20746865207a65726f206164647265815261737360f01b60208201529050611cce565b6020808252810161041281612116565b60258152602081017f45524332303a207472616e736665722066726f6d20746865207a65726f206164815264647265737360d81b60208201529050611cce565b6020808252810161041281612163565b60238152602081017f45524332303a207472616e7366657220746f20746865207a65726f206164647281526265737360e81b60208201529050611cce565b60208082528101610412816121b3565b60268152602081017f45524332303a207472616e7366657220616d6f756e7420657863656564732062815265616c616e636560d01b60208201529050611cce565b6020808252810161041281612201565b634e487b7160e01b600052601260045260246000fd5b601f8152602081017f45524332303a206d696e7420746f20746865207a65726f20616464726573730081529050611d40565b6020808252810161041281612268565b60108152602081016f55696e74313132204f564552464c4f5760801b81529050611d40565b60208082528101610412816122aa565b60006104126122f46001600160701b03841681565b90565b6119e9816122df565b6040810161230e82856122f7565b61048560208301846122f7565b60408101611ba88285611aa1565b60218152602081017f45524332303a206275726e2066726f6d20746865207a65726f206164647265738152607360f81b60208201529050611cce565b6020808252810161041281612329565b60228152602081017f45524332303a206275726e20616d6f756e7420657863656564732062616c616e815261636560f01b60208201529050611cce565b6020808252810161041281612375565b801515611a24565b8051610412816123c2565b6000602082840312156123ea576123ea600080fd5b600061123d84846123ca565b602a8152602081017f5361666545524332303a204552433230206f7065726174696f6e20646964206e8152691bdd081cdd58d8d9595960b21b60208201529050611cce565b60208082528101610412816123f6565b601d8152602081017f416464726573733a2063616c6c20746f206e6f6e2d636f6e747261637400000081529050611d40565b602080825281016104128161244b565b6000612497825190565b6124a581856020860161196f565b9290920192915050565b610412818361248d56fea2646970667358221220d8c68e129367fa4f8dc004c2ec0577686358e19b6dc4daf576e9161be6c88dfc64736f6c634300080a0033a2646970667358221220752ae5c6834c5ce824c23b3c58df94c969cc029f04d80e8e24e38a72755d251464736f6c634300080a0033",
  "devdoc": {
    "details": "Factory contract to deploy new pools periodically      Each pool(product) will have a unique naughtyId      Each pool will have its pool token      PolicyToken - Stablecoin      Token 0 may change but Token 1 is always stablecoin.",
    "kind": "dev",
    "methods": {
      "deployPolicyToken(string)": {
        "params": {
          "_policyTokenName": "Name of the policyToken"
        },
        "returns": {
          "_0": "PolicyToken address"
        }
      },
      "deployPool(address,address,uint256,uint256)": {
        "params": {
          "_deadline": "Deadline of the pool",
          "_feeRate": "Fee rate given to LP holders",
          "_policyTokenAddress": "Address of policy token",
          "_stablecoin": "Address of the stable coin"
        },
        "returns": {
          "_0": "Address of the pool"
        }
      },
      "getInitCodeHashForPolicyToken(string)": {
        "params": {
          "_policyTokenName": "Name of the policy token to be deployed"
        }
      },
      "getLatestTokenAddress()": {
        "returns": {
          "_0": "Latest token address"
        }
      },
      "getPairAddress(address,address)": {
        "params": {
          "_tokenAddress1": "Address of token1",
          "_tokenAddress2": "Address of toekn2"
        },
        "returns": {
          "_0": "Pool address of the two tokens"
        }
      },
      "getPolicyTokenBytecode(string)": {
        "params": {
          "_tokenName": "Name of policyToken"
        }
      },
      "setPolicyCoreAddress(address)": {
        "params": {
          "_policyCore": ": Address of policyCore contract"
        }
      }
    },
    "title": "Naughty Factory",
    "version": 1
  },
  "userdoc": {
    "kind": "user",
    "methods": {
      "deployPolicyToken(string)": {
        "notice": "For each round we need to first create the policytoken(ERC20)"
      },
      "deployPool(address,address,uint256,uint256)": {
        "notice": "After deploy the policytoken and get the address,         we deploy the policyToken - stablecoin pool contract"
      },
      "getInitCodeHashForPolicyToken(string)": {
        "notice": "Get the INIT_CODE_HASH for policy tokens with parameters"
      },
      "getLatestTokenAddress()": {
        "notice": "Next token to be deployed"
      },
      "getPairAddress(address,address)": {
        "notice": "Get the pair address deployed by the factory         PolicyToken address first, and then stablecoin address         The order of the tokens will be sorted inside the function"
      },
      "getPolicyTokenBytecode(string)": {
        "notice": "Get the policyToken bytecode (with parameters)"
      },
      "setPolicyCoreAddress(address)": {
        "notice": "Remember to call this function to set the policyCore address         < PolicyCore should be the owner of policyToken >"
      }
    },
    "version": 1
  },
  "storageLayout": {
    "storage": [
      {
        "astId": 15584,
        "contract": "contracts/naughty-price/NaughtyFactory.sol:NaughtyFactory",
        "label": "getPair",
        "offset": 0,
        "slot": "0",
        "type": "t_mapping(t_address,t_mapping(t_address,t_address))"
      },
      {
        "astId": 15587,
        "contract": "contracts/naughty-price/NaughtyFactory.sol:NaughtyFactory",
        "label": "allPairs",
        "offset": 0,
        "slot": "1",
        "type": "t_array(t_address)dyn_storage"
      },
      {
        "astId": 15590,
        "contract": "contracts/naughty-price/NaughtyFactory.sol:NaughtyFactory",
        "label": "allTokens",
        "offset": 0,
        "slot": "2",
        "type": "t_array(t_address)dyn_storage"
      },
      {
        "astId": 15592,
        "contract": "contracts/naughty-price/NaughtyFactory.sol:NaughtyFactory",
        "label": "_nextId",
        "offset": 0,
        "slot": "3",
        "type": "t_uint256"
      },
      {
        "astId": 15594,
        "contract": "contracts/naughty-price/NaughtyFactory.sol:NaughtyFactory",
        "label": "policyCore",
        "offset": 0,
        "slot": "4",
        "type": "t_address"
      }
    ],
    "types": {
      "t_address": {
        "encoding": "inplace",
        "label": "address",
        "numberOfBytes": "20"
      },
      "t_array(t_address)dyn_storage": {
        "base": "t_address",
        "encoding": "dynamic_array",
        "label": "address[]",
        "numberOfBytes": "32"
      },
      "t_mapping(t_address,t_address)": {
        "encoding": "mapping",
        "key": "t_address",
        "label": "mapping(address => address)",
        "numberOfBytes": "32",
        "value": "t_address"
      },
      "t_mapping(t_address,t_mapping(t_address,t_address))": {
        "encoding": "mapping",
        "key": "t_address",
        "label": "mapping(address => mapping(address => address))",
        "numberOfBytes": "32",
        "value": "t_mapping(t_address,t_address)"
      },
      "t_uint256": {
        "encoding": "inplace",
        "label": "uint256",
        "numberOfBytes": "32"
      }
    }
  }
}