{
  "address": "0x439760e38dc696A963D06232E14D73bf6336652C",
  "abi": [
    {
      "inputs": [
        {
          "internalType": "address",
          "name": "_insurancePool",
          "type": "address"
        },
        {
          "internalType": "address",
          "name": "_policyToken",
          "type": "address"
        },
        {
          "internalType": "address",
          "name": "_sigManager",
          "type": "address"
        },
        {
          "internalType": "address",
          "name": "_buyerToken",
          "type": "address"
        }
      ],
      "stateMutability": "nonpayable",
      "type": "constructor"
    },
    {
      "anonymous": false,
      "inputs": [
        {
          "indexed": false,
          "internalType": "uint256",
          "name": "thresholdMin",
          "type": "uint256"
        },
        {
          "indexed": false,
          "internalType": "uint256",
          "name": "thresholdMax",
          "type": "uint256"
        }
      ],
      "name": "DelayThresholdChanged",
      "type": "event"
    },
    {
      "anonymous": false,
      "inputs": [
        {
          "indexed": false,
          "internalType": "uint256",
          "name": "newFee",
          "type": "uint256"
        }
      ],
      "name": "FeeChanged",
      "type": "event"
    },
    {
      "anonymous": false,
      "inputs": [
        {
          "indexed": false,
          "internalType": "address",
          "name": "newOracle",
          "type": "address"
        }
      ],
      "name": "FlightOracleChanged",
      "type": "event"
    },
    {
      "anonymous": false,
      "inputs": [
        {
          "indexed": false,
          "internalType": "uint256",
          "name": "policyId",
          "type": "uint256"
        },
        {
          "indexed": false,
          "internalType": "bytes32",
          "name": "requestId",
          "type": "bytes32"
        }
      ],
      "name": "FulfilledOracleRequest",
      "type": "event"
    },
    {
      "anonymous": false,
      "inputs": [
        {
          "indexed": false,
          "internalType": "uint256",
          "name": "newMaxPayoff",
          "type": "uint256"
        }
      ],
      "name": "MaxPayoffChanged",
      "type": "event"
    },
    {
      "anonymous": false,
      "inputs": [
        {
          "indexed": false,
          "internalType": "uint256",
          "name": "newMinTime",
          "type": "uint256"
        }
      ],
      "name": "MinTimeBeforeDepartureChanged",
      "type": "event"
    },
    {
      "anonymous": false,
      "inputs": [
        {
          "indexed": false,
          "internalType": "uint256",
          "name": "_policyID",
          "type": "uint256"
        },
        {
          "indexed": true,
          "internalType": "address",
          "name": "user",
          "type": "address"
        }
      ],
      "name": "NewPolicyApplication",
      "type": "event"
    },
    {
      "anonymous": false,
      "inputs": [
        {
          "indexed": false,
          "internalType": "string",
          "name": "newUrl",
          "type": "string"
        }
      ],
      "name": "OracleUrlChanged",
      "type": "event"
    },
    {
      "anonymous": false,
      "inputs": [
        {
          "indexed": true,
          "internalType": "address",
          "name": "previousOwner",
          "type": "address"
        },
        {
          "indexed": true,
          "internalType": "address",
          "name": "newOwner",
          "type": "address"
        }
      ],
      "name": "OwnershipTransferred",
      "type": "event"
    },
    {
      "anonymous": false,
      "inputs": [
        {
          "indexed": false,
          "internalType": "uint256",
          "name": "policyID",
          "type": "uint256"
        },
        {
          "indexed": true,
          "internalType": "address",
          "name": "user",
          "type": "address"
        }
      ],
      "name": "PolicyClaimed",
      "type": "event"
    },
    {
      "anonymous": false,
      "inputs": [
        {
          "indexed": false,
          "internalType": "uint256",
          "name": "policyID",
          "type": "uint256"
        },
        {
          "indexed": true,
          "internalType": "address",
          "name": "user",
          "type": "address"
        }
      ],
      "name": "PolicyDeclined",
      "type": "event"
    },
    {
      "anonymous": false,
      "inputs": [
        {
          "indexed": false,
          "internalType": "uint256",
          "name": "policyID",
          "type": "uint256"
        },
        {
          "indexed": true,
          "internalType": "address",
          "name": "user",
          "type": "address"
        }
      ],
      "name": "PolicyExpired",
      "type": "event"
    },
    {
      "anonymous": false,
      "inputs": [
        {
          "indexed": true,
          "internalType": "uint256",
          "name": "tokenId",
          "type": "uint256"
        },
        {
          "indexed": false,
          "internalType": "address",
          "name": "newOwner",
          "type": "address"
        }
      ],
      "name": "PolicyOwnerTransfer",
      "type": "event"
    },
    {
      "anonymous": false,
      "inputs": [
        {
          "indexed": false,
          "internalType": "uint256",
          "name": "policyID",
          "type": "uint256"
        },
        {
          "indexed": true,
          "internalType": "address",
          "name": "user",
          "type": "address"
        }
      ],
      "name": "PolicySold",
      "type": "event"
    },
    {
      "inputs": [],
      "name": "DELAY_THRESHOLD_MAX",
      "outputs": [
        {
          "internalType": "uint256",
          "name": "",
          "type": "uint256"
        }
      ],
      "stateMutability": "view",
      "type": "function"
    },
    {
      "inputs": [],
      "name": "DELAY_THRESHOLD_MIN",
      "outputs": [
        {
          "internalType": "uint256",
          "name": "",
          "type": "uint256"
        }
      ],
      "stateMutability": "view",
      "type": "function"
    },
    {
      "inputs": [],
      "name": "FLIGHT_STATUS_URL",
      "outputs": [
        {
          "internalType": "string",
          "name": "",
          "type": "string"
        }
      ],
      "stateMutability": "view",
      "type": "function"
    },
    {
      "inputs": [],
      "name": "MAX_PAYOFF",
      "outputs": [
        {
          "internalType": "uint256",
          "name": "",
          "type": "uint256"
        }
      ],
      "stateMutability": "view",
      "type": "function"
    },
    {
      "inputs": [],
      "name": "MIN_TIME_BEFORE_DEPARTURE",
      "outputs": [
        {
          "internalType": "uint256",
          "name": "",
          "type": "uint256"
        }
      ],
      "stateMutability": "view",
      "type": "function"
    },
    {
      "inputs": [],
      "name": "PRODUCT_ID",
      "outputs": [
        {
          "internalType": "uint256",
          "name": "",
          "type": "uint256"
        }
      ],
      "stateMutability": "view",
      "type": "function"
    },
    {
      "inputs": [],
      "name": "buyerToken",
      "outputs": [
        {
          "internalType": "contract IBuyerToken",
          "name": "",
          "type": "address"
        }
      ],
      "stateMutability": "view",
      "type": "function"
    },
    {
      "inputs": [
        {
          "internalType": "uint256",
          "name": "_fee",
          "type": "uint256"
        }
      ],
      "name": "changeFee",
      "outputs": [],
      "stateMutability": "nonpayable",
      "type": "function"
    },
    {
      "inputs": [
        {
          "internalType": "uint256",
          "name": "_newMaxPayoff",
          "type": "uint256"
        }
      ],
      "name": "changeMaxPayoff",
      "outputs": [],
      "stateMutability": "nonpayable",
      "type": "function"
    },
    {
      "inputs": [
        {
          "internalType": "uint256",
          "name": "_newMinTime",
          "type": "uint256"
        }
      ],
      "name": "changeMinTimeBeforeDeparture",
      "outputs": [],
      "stateMutability": "nonpayable",
      "type": "function"
    },
    {
      "inputs": [],
      "name": "fee",
      "outputs": [
        {
          "internalType": "uint256",
          "name": "",
          "type": "uint256"
        }
      ],
      "stateMutability": "view",
      "type": "function"
    },
    {
      "inputs": [
        {
          "internalType": "bytes32",
          "name": "_requestId",
          "type": "bytes32"
        },
        {
          "internalType": "uint256",
          "name": "_result",
          "type": "uint256"
        }
      ],
      "name": "finalSettlement",
      "outputs": [],
      "stateMutability": "nonpayable",
      "type": "function"
    },
    {
      "inputs": [
        {
          "internalType": "uint256",
          "name": "_policyId",
          "type": "uint256"
        }
      ],
      "name": "findPolicyBuyerById",
      "outputs": [
        {
          "internalType": "address",
          "name": "buyerAddress",
          "type": "address"
        }
      ],
      "stateMutability": "view",
      "type": "function"
    },
    {
      "inputs": [],
      "name": "flightOracle",
      "outputs": [
        {
          "internalType": "contract IFlightOracle",
          "name": "",
          "type": "address"
        }
      ],
      "stateMutability": "view",
      "type": "function"
    },
    {
      "inputs": [
        {
          "internalType": "uint256",
          "name": "_policyId",
          "type": "uint256"
        }
      ],
      "name": "getPolicyInfoById",
      "outputs": [
        {
          "components": [
            {
              "internalType": "uint256",
              "name": "productId",
              "type": "uint256"
            },
            {
              "internalType": "address",
              "name": "buyerAddress",
              "type": "address"
            },
            {
              "internalType": "uint256",
              "name": "policyId",
              "type": "uint256"
            },
            {
              "internalType": "string",
              "name": "flightNumber",
              "type": "string"
            },
            {
              "internalType": "uint256",
              "name": "premium",
              "type": "uint256"
            },
            {
              "internalType": "uint256",
              "name": "payoff",
              "type": "uint256"
            },
            {
              "internalType": "uint256",
              "name": "purchaseTimestamp",
              "type": "uint256"
            },
            {
              "internalType": "uint256",
              "name": "departureTimestamp",
              "type": "uint256"
            },
            {
              "internalType": "uint256",
              "name": "landingTimestamp",
              "type": "uint256"
            },
            {
              "internalType": "enum IPolicyStruct.PolicyStatus",
              "name": "status",
              "type": "uint8"
            },
            {
              "internalType": "bool",
              "name": "alreadySettled",
              "type": "bool"
            },
            {
              "internalType": "uint256",
              "name": "delayResult",
              "type": "uint256"
            }
          ],
          "internalType": "struct IPolicyStruct.PolicyInfo",
          "name": "policy",
          "type": "tuple"
        }
      ],
      "stateMutability": "view",
      "type": "function"
    },
    {
      "inputs": [],
      "name": "insurancePool",
      "outputs": [
        {
          "internalType": "contract IInsurancePool",
          "name": "",
          "type": "address"
        }
      ],
      "stateMutability": "view",
      "type": "function"
    },
    {
      "inputs": [
        {
          "internalType": "uint256",
          "name": "_productId",
          "type": "uint256"
        },
        {
          "internalType": "string",
          "name": "_flightNumber",
          "type": "string"
        },
        {
          "internalType": "uint256",
          "name": "_premium",
          "type": "uint256"
        },
        {
          "internalType": "uint256",
          "name": "_departureTimestamp",
          "type": "uint256"
        },
        {
          "internalType": "uint256",
          "name": "_landingDate",
          "type": "uint256"
        },
        {
          "internalType": "uint256",
          "name": "_deadline",
          "type": "uint256"
        },
        {
          "internalType": "bytes",
          "name": "signature",
          "type": "bytes"
        }
      ],
      "name": "newApplication",
      "outputs": [
        {
          "internalType": "uint256",
          "name": "_policyId",
          "type": "uint256"
        }
      ],
      "stateMutability": "nonpayable",
      "type": "function"
    },
    {
      "inputs": [
        {
          "internalType": "uint256",
          "name": "_policyId",
          "type": "uint256"
        },
        {
          "internalType": "string",
          "name": "_flightNumber",
          "type": "string"
        },
        {
          "internalType": "string",
          "name": "_timestamp",
          "type": "string"
        },
        {
          "internalType": "string",
          "name": "_path",
          "type": "string"
        },
        {
          "internalType": "bool",
          "name": "_forceUpdate",
          "type": "bool"
        }
      ],
      "name": "newClaimRequest",
      "outputs": [],
      "stateMutability": "nonpayable",
      "type": "function"
    },
    {
      "inputs": [],
      "name": "owner",
      "outputs": [
        {
          "internalType": "address",
          "name": "",
          "type": "address"
        }
      ],
      "stateMutability": "view",
      "type": "function"
    },
    {
      "inputs": [
        {
          "internalType": "uint256",
          "name": "",
          "type": "uint256"
        }
      ],
      "name": "policyList",
      "outputs": [
        {
          "internalType": "uint256",
          "name": "productId",
          "type": "uint256"
        },
        {
          "internalType": "address",
          "name": "buyerAddress",
          "type": "address"
        },
        {
          "internalType": "uint256",
          "name": "policyId",
          "type": "uint256"
        },
        {
          "internalType": "string",
          "name": "flightNumber",
          "type": "string"
        },
        {
          "internalType": "uint256",
          "name": "premium",
          "type": "uint256"
        },
        {
          "internalType": "uint256",
          "name": "payoff",
          "type": "uint256"
        },
        {
          "internalType": "uint256",
          "name": "purchaseTimestamp",
          "type": "uint256"
        },
        {
          "internalType": "uint256",
          "name": "departureTimestamp",
          "type": "uint256"
        },
        {
          "internalType": "uint256",
          "name": "landingTimestamp",
          "type": "uint256"
        },
        {
          "internalType": "enum IPolicyStruct.PolicyStatus",
          "name": "status",
          "type": "uint8"
        },
        {
          "internalType": "bool",
          "name": "alreadySettled",
          "type": "bool"
        },
        {
          "internalType": "uint256",
          "name": "delayResult",
          "type": "uint256"
        }
      ],
      "stateMutability": "view",
      "type": "function"
    },
    {
      "inputs": [
        {
          "internalType": "uint256",
          "name": "_tokenId",
          "type": "uint256"
        },
        {
          "internalType": "address",
          "name": "_oldOwner",
          "type": "address"
        },
        {
          "internalType": "address",
          "name": "_newOwner",
          "type": "address"
        }
      ],
      "name": "policyOwnerTransfer",
      "outputs": [],
      "stateMutability": "nonpayable",
      "type": "function"
    },
    {
      "inputs": [],
      "name": "policyToken",
      "outputs": [
        {
          "internalType": "contract IFDPolicyToken",
          "name": "",
          "type": "address"
        }
      ],
      "stateMutability": "view",
      "type": "function"
    },
    {
      "inputs": [],
      "name": "renounceOwnership",
      "outputs": [],
      "stateMutability": "nonpayable",
      "type": "function"
    },
    {
      "inputs": [
        {
          "internalType": "uint256",
          "name": "_thresholdMin",
          "type": "uint256"
        },
        {
          "internalType": "uint256",
          "name": "_thresholdMax",
          "type": "uint256"
        }
      ],
      "name": "setDelayThreshold",
      "outputs": [],
      "stateMutability": "nonpayable",
      "type": "function"
    },
    {
      "inputs": [
        {
          "internalType": "address",
          "name": "_oracleAddress",
          "type": "address"
        }
      ],
      "name": "setFlightOracle",
      "outputs": [],
      "stateMutability": "nonpayable",
      "type": "function"
    },
    {
      "inputs": [
        {
          "internalType": "string",
          "name": "_url",
          "type": "string"
        }
      ],
      "name": "setURL",
      "outputs": [],
      "stateMutability": "nonpayable",
      "type": "function"
    },
    {
      "inputs": [],
      "name": "sigManager",
      "outputs": [
        {
          "internalType": "contract ISigManager",
          "name": "",
          "type": "address"
        }
      ],
      "stateMutability": "view",
      "type": "function"
    },
    {
      "inputs": [],
      "name": "totalPolicies",
      "outputs": [
        {
          "internalType": "uint256",
          "name": "",
          "type": "uint256"
        }
      ],
      "stateMutability": "view",
      "type": "function"
    },
    {
      "inputs": [
        {
          "internalType": "address",
          "name": "newOwner",
          "type": "address"
        }
      ],
      "name": "transferOwnership",
      "outputs": [],
      "stateMutability": "nonpayable",
      "type": "function"
    },
    {
      "inputs": [
        {
          "internalType": "address",
          "name": "_user",
          "type": "address"
        }
      ],
      "name": "viewUserPolicy",
      "outputs": [
        {
          "components": [
            {
              "internalType": "uint256",
              "name": "productId",
              "type": "uint256"
            },
            {
              "internalType": "address",
              "name": "buyerAddress",
              "type": "address"
            },
            {
              "internalType": "uint256",
              "name": "policyId",
              "type": "uint256"
            },
            {
              "internalType": "string",
              "name": "flightNumber",
              "type": "string"
            },
            {
              "internalType": "uint256",
              "name": "premium",
              "type": "uint256"
            },
            {
              "internalType": "uint256",
              "name": "payoff",
              "type": "uint256"
            },
            {
              "internalType": "uint256",
              "name": "purchaseTimestamp",
              "type": "uint256"
            },
            {
              "internalType": "uint256",
              "name": "departureTimestamp",
              "type": "uint256"
            },
            {
              "internalType": "uint256",
              "name": "landingTimestamp",
              "type": "uint256"
            },
            {
              "internalType": "enum IPolicyStruct.PolicyStatus",
              "name": "status",
              "type": "uint8"
            },
            {
              "internalType": "bool",
              "name": "alreadySettled",
              "type": "bool"
            },
            {
              "internalType": "uint256",
              "name": "delayResult",
              "type": "uint256"
            }
          ],
          "internalType": "struct IPolicyStruct.PolicyInfo[]",
          "name": "",
          "type": "tuple[]"
        }
      ],
      "stateMutability": "view",
      "type": "function"
    }
  ],
  "transactionHash": "0x11d0be97a750de1c65dbb2373e14b7816584e49cc712df57b7c663db868a477c",
  "args": [
    "0x894cf1bbEcc29404fd5a9986a01c17EfaD74E5EF",
    "0x28cc95352Bd006947E3Ea5bD310d171AC0081Bb5",
    "0x3E5DD4b0cBB1bCee730444156D77040051aE3682",
    "0x089D9D1C34100f853015233cc72b79cEEb291519"
  ],
  "numDeployments": 1,
  "solcInputHash": "6b41690bc48f03e7fcef834013961fdc",
  "bytecode": "0x6809c2007651b25000006000908155601e60015560f060025560035560e0604052602960808181529062002d2460a03980516200004591600a9160209091019062000133565b503480156200005357600080fd5b5060405162002d4d38038062002d4d833981016040819052620000769162000213565b6200008133620000e1565b600980546001600160a01b039586166001600160a01b031991821617909155600780549486169482169490941790935560068054928516928416929092179091556005805491909316911617905567016345785d8a0000600c55620002c8565b600480546001600160a01b038381166001600160a01b0319831681179093556040519116919082907f8be0079c531659141344cd1fd0a4f28419497f9722a3daafe3b4186f6b6457e090600090a35050565b828054620001419062000297565b90600052602060002090601f016020900481019282620001655760008555620001b0565b82601f106200018057805160ff1916838001178555620001b0565b82800160010185558215620001b0579182015b82811115620001b057825182559160200191906001019062000193565b50620001be929150620001c2565b5090565b5b80821115620001be5760008155600101620001c3565b60006001600160a01b0382165b92915050565b620001f781620001d9565b81146200020357600080fd5b50565b8051620001e681620001ec565b600080600080608085870312156200022e576200022e600080fd5b60006200023c878762000206565b94505060206200024f8782880162000206565b9350506040620002628782880162000206565b9250506060620002758782880162000206565b91505092959194509250565b634e487b7160e01b600052602260045260246000fd5b600281046001821680620002ac57607f821691505b60208210811415620002c257620002c262000281565b50919050565b612a4c80620002d86000396000f3fe608060405234801561001057600080fd5b50600436106101da5760003560e01c80637734340811610104578063b7b357ac116100a2578063e846e79711610071578063e846e79714610402578063f059d78e14610415578063f2fde38b1461041e578063fd1053d91461043157600080fd5b8063b7b357ac146103d5578063c34dc50c146103de578063d865ef94146103e6578063ddca3f43146103f957600080fd5b80639180233f116100de5780639180233f14610393578063a5d2a7151461039c578063a9480a8e146103af578063ab2adc00146103c257600080fd5b8063773434081461035c5780638da5cb5b1461036f5780638e34ce351461038057600080fd5b80634fdc9ea91161017c5780636a1db1bf1161014b5780636a1db1bf146103015780636b0edde9146103145780636ce0403c14610334578063715018a61461035457600080fd5b80634fdc9ea91461028e5780635a9274ad146102b9578063612d7350146102cc5780636307737b146102e157600080fd5b80631a397db9116101b85780631a397db91461022657806321deab0e146102395780632a138f651461024c5780634abe553f1461028557600080fd5b806302d7e85a146101df5780630f42fd0b146101f45780631774ea4514610207575b600080fd5b6101f26101ed3660046119f1565b610444565b005b6101f2610202366004611b3c565b6104ce565b61021060025481565b60405161021d9190611c0d565b60405180910390f35b6101f26102343660046119f1565b6106ae565b610210610247366004611c6d565b6107d9565b61027861025a366004611d46565b6000908152600d60205260409020600101546001600160a01b031690565b60405161021d9190611d81565b61021060015481565b6102a161029c366004611d46565b610ab0565b60405161021d9c9b9a99989796959493929190611e3d565b6101f26102c7366004611d46565b610ba6565b6102d4610c1f565b60405161021d9190611ef7565b6007546102f4906001600160a01b031681565b60405161021d9190611f4a565b6101f261030f366004611d46565b610cad565b610327610322366004611d46565b610d1b565b60405161021d919061204d565b610347610342366004612072565b610e86565b60405161021d9190612109565b6101f26110ee565b6101f261036a36600461211a565b611133565b6004546001600160a01b0316610278565b6101f261038e366004612155565b6111af565b61021060005481565b6005546102f4906001600160a01b031681565b6101f26103bd366004611d46565b61128a565b6009546102f4906001600160a01b031681565b61021060035481565b610210600081565b6006546102f4906001600160a01b031681565b610210600c5481565b6101f2610410366004612072565b6112f8565b610210600b5481565b6101f261042c366004612072565b61137c565b6008546102f4906001600160a01b031681565b336104576004546001600160a01b031690565b6001600160a01b0316146104865760405162461bcd60e51b815260040161047d906121d5565b60405180910390fd5b600182905560028190556040517febbed710a442fb49ec9fc28724db7432557adf346b15e991b1b50100138e40fc906104c290849084906121e5565b60405180910390a15050565b6000858152600d60205260409020600801544210156104ff5760405162461bcd60e51b815260040161047d9061225a565b6000858152600d6020526040902060090154610100900460ff161580610537575080801561053757506004546001600160a01b031633145b6105535760405162461bcd60e51b815260040161047d9061226a565b6000858152600d60209081526040918290209151610575926003019101612393565b604051602081830303815290604052805190602001208460405160200161059c91906123bf565b60405160208183030381529060405280519060200120146105cf5760405162461bcd60e51b815260040161047d906123fb565b6000600a85856040516020016105e79392919061240b565b60408051601f1981840301815290829052600854600c54639a66455f60e01b84529193506000926001600160a01b0390911691639a66455f91610634919086908990600190600401612469565b6020604051808303816000875af1158015610653573d6000803e3d6000fd5b505050506040513d601f19601f8201168201806040525081019061067791906124c0565b6000908152600f602090815260408083208a9055988252600d905296909620600901805461ff001916610100179055505050505050565b6008546001600160a01b031633146106d85760405162461bcd60e51b815260040161047d90612539565b6000828152600f6020908152604080832054808452600d909252909120600a8101839055600481015460018201546002546001600160a01b039091169085111580610724575084610190145b6107405760405162461bcd60e51b815260040161047d906125a1565b84610758576107538260005483876113e7565b610798565b600254851161078057600061076c866114a4565b905061077a83828488611518565b50610798565b84610190141561079857610798826000548387611518565b7f04e392e4100aa2e88345ae13cf73d14c46a6051119773b79fd108c378a4599e384876040516107c99291906121e5565b60405180910390a1505050505050565b600042848111156107fc5760405162461bcd60e51b815260040161047d906125fb565b891561081a5760405162461bcd60e51b815260040161047d90612650565b6003546108279082612676565b8710156108465760405162461bcd60e51b815260040161047d906126e6565b61085484848b338c8a6115d9565b600b546040805161018081019091526000815260208101336001600160a01b031681526020018281526020018b81526020018a81526020016000548152602001838152602001898152602001888152602001600060048111156108b9576108b9611df1565b815260006020808301829052610194604093840152848252600d81529082902083518155838201516001820180546001600160a01b0319166001600160a01b039092169190911790559183015160028301556060830151805161092292600385019201906118bf565b506080820151816004015560a0820151816005015560c0820151816006015560e0820151816007015561010082015181600801556101208201518160090160006101000a81548160ff0219169083600481111561098157610981611df1565b02179055506101408201516009820180549115156101000261ff001990921691909117905561016090910151600a909101556000546109c3908a90338461164b565b600554604051631148708360e11b81526001600160a01b0390911690632290e106906109f59033908d906004016126f6565b600060405180830381600087803b158015610a0f57600080fd5b505af1158015610a23573d6000803e3d6000fd5b5050336000908152600e602090815260408220600b8054825460018181018555938652938520909301929092558154909450909250610a63908490612676565b909155505060405133907f9dc1f9a2820214678b76a35ae1ba7d2fe57a670651cd89c9ba78f4b5c59a2e1a90610a9a908490611c0d565b60405180910390a29a9950505050505050505050565b600d60205260009081526040902080546001820154600283015460038401805493946001600160a01b0390931693919291610aea906122f8565b80601f0160208091040260200160405190810160405280929190818152602001828054610b16906122f8565b8015610b635780601f10610b3857610100808354040283529160200191610b63565b820191906000526020600020905b815481529060010190602001808311610b4657829003601f168201915b50505050600483015460058401546006850154600786015460088701546009880154600a90980154969794969395509193909260ff80831692610100900416908c565b33610bb96004546001600160a01b031690565b6001600160a01b031614610bdf5760405162461bcd60e51b815260040161047d906121d5565b60038190556040517f8c41ba0631fa10e06efe604774b5ef6df52572c640a7d42286c43d3eff0d169590610c14908390611c0d565b60405180910390a150565b600a8054610c2c906122f8565b80601f0160208091040260200160405190810160405280929190818152602001828054610c58906122f8565b8015610ca55780601f10610c7a57610100808354040283529160200191610ca5565b820191906000526020600020905b815481529060010190602001808311610c8857829003601f168201915b505050505081565b33610cc06004546001600160a01b031690565b6001600160a01b031614610ce65760405162461bcd60e51b815260040161047d906121d5565b600c8190556040517f6bbc57480a46553fa4d156ce702beef5f3ad66303b0ed1a5d4cb44966c6584c390610c14908390611c0d565b610d23611943565b6000828152600d60209081526040918290208251610180810184528154815260018201546001600160a01b031692810192909252600281015492820192909252600382018054919291606084019190610d7b906122f8565b80601f0160208091040260200160405190810160405280929190818152602001828054610da7906122f8565b8015610df45780601f10610dc957610100808354040283529160200191610df4565b820191906000526020600020905b815481529060010190602001808311610dd757829003601f168201915b50505091835250506004828101546020830152600583015460408301526006830154606083015260078301546080830152600883015460a0830152600983015460c09092019160ff1690811115610e4d57610e4d611df1565b6004811115610e5e57610e5e611df1565b81526009820154610100900460ff1615156020820152600a9091015460409091015292915050565b6001600160a01b0381166000908152600e602052604090205460609080610ebf5760405162461bcd60e51b815260040161047d90612736565b60008167ffffffffffffffff811115610eda57610eda611a2e565b604051908082528060200260200182016040528015610f1357816020015b610f00611943565b815260200190600190039081610ef85790505b50905060005b828110156110e6576001600160a01b0385166000908152600e60205260408120805483908110610f4b57610f4b612746565b6000918252602080832090910154808352600d82526040928390208351610180810185528154815260018201546001600160a01b0316938101939093526002810154938301939093526003830180549194509192916060840191610fae906122f8565b80601f0160208091040260200160405190810160405280929190818152602001828054610fda906122f8565b80156110275780601f10610ffc57610100808354040283529160200191611027565b820191906000526020600020905b81548152906001019060200180831161100a57829003601f168201915b50505091835250506004828101546020830152600583015460408301526006830154606083015260078301546080830152600883015460a0830152600983015460c09092019160ff169081111561108057611080611df1565b600481111561109157611091611df1565b81526009820154610100900460ff1615156020820152600a9091015460409091015283518490849081106110c7576110c7612746565b60200260200101819052505080806110de9061275c565b915050610f19565b509392505050565b336111016004546001600160a01b031690565b6001600160a01b0316146111275760405162461bcd60e51b815260040161047d906121d5565b611131600061186d565b565b336111466004546001600160a01b031690565b6001600160a01b03161461116c5760405162461bcd60e51b815260040161047d906121d5565b805161117f90600a9060208401906118bf565b507f8dbd4721a3316108f3899cd7093e1c9ca0c4759eaa0b62cff2a63e0622d30e3281604051610c149190611ef7565b6007546001600160a01b0316336001600160a01b0316146111e25760405162461bcd60e51b815260040161047d906127cf565b6000838152600d602052604090206001015483906001600160a01b038481169116146112205760405162461bcd60e51b815260040161047d90612811565b6000818152600d60205260409081902060010180546001600160a01b0319166001600160a01b0385161790555184907f131013c706ffe7a58a15c6576c2affbfee4aa57a8fc2c179fff9da687da631e69061127c908590611d81565b60405180910390a250505050565b3361129d6004546001600160a01b031690565b6001600160a01b0316146112c35760405162461bcd60e51b815260040161047d906121d5565b60008190556040517fdef33f1582315c7c62f4e66de6172585034194d07b9424c91da5d99b2edcdb2990610c14908390611c0d565b3361130b6004546001600160a01b031690565b6001600160a01b0316146113315760405162461bcd60e51b815260040161047d906121d5565b600880546001600160a01b0319166001600160a01b0383161790556040517fdd26a8824232c055ca4288c9d4f23ff4dd4e9db5beb3c405f96f16fc2d40911190610c14908390611d81565b3361138f6004546001600160a01b031690565b6001600160a01b0316146113b55760405162461bcd60e51b815260040161047d906121d5565b6001600160a01b0381166113db5760405162461bcd60e51b815260040161047d90612862565b6113e48161186d565b50565b600954604051639e2e28b560e01b81526001600160a01b0390911690639e2e28b59061141b90879087908790600401612872565b600060405180830381600087803b15801561143557600080fd5b505af1158015611449573d6000803e3d6000fd5b5050506000828152600d602052604090819020600901805460ff19166003179055516001600160a01b03841691507f5e2aa8ed921638d802aff01815dcc364f11bd867646ee35cef988a928aa08aba9061127c908490611c0d565b600154600090819083116114ba575060006114ff565b600154831180156114cd57506002548311155b156114f0576101e06114df848061289a565b6114e991906128cf565b90506114ff565b6002548311156114ff57506000545b61151181670de0b6b3a764000061289a565b9392505050565b60095460005460405163942465ed60e01b81526001600160a01b039092169163942465ed9161155091889190889088906004016128e3565b600060405180830381600087803b15801561156a57600080fd5b505af115801561157e573d6000803e3d6000fd5b5050506000828152600d602052604090819020600901805460ff19166004179055516001600160a01b03841691507fc7ec6d9a759e329b525c568d4a31eadfd4d47a50a11498317356b63536972cff9061127c908490611c0d565b600654604051633dc039c360e01b81526001600160a01b0390911690633dc039c39061161390899089908990899089908990600401612938565b60006040518083038186803b15801561162b57600080fd5b505afa15801561163f573d6000803e3d6000fd5b50505050505050505050565b6009546040516202d7af60e31b81526000916001600160a01b0316906216bd789061167a908790600401611c0d565b602060405180830381865afa158015611697573d6000803e3d6000fd5b505050506040513d601f19601f820116820180604052508101906116bb919061299d565b905080156117ef5760095460405163bf131f4b60e01b81526001600160a01b039091169063bf131f4b906116f790889088908890600401612872565b600060405180830381600087803b15801561171157600080fd5b505af1158015611725573d6000803e3d6000fd5b5050506000838152600d602052604090819020600901805460ff19166001179055516001600160a01b03851691507f18c8463e3f8b620eda107b8496632f42c285e0e2dbe36214aef29a7570c98db790611780908590611c0d565b60405180910390a2600754604051635c8c72f160e11b81526001600160a01b039091169063b918e5e2906117b8908690600401611d81565b600060405180830381600087803b1580156117d257600080fd5b505af11580156117e6573d6000803e3d6000fd5b50505050611866565b6000828152600d602052604090819020600901805460ff19166002179055516001600160a01b038416907f2f0c3a9cdf52dc1569c8661ae34313def97a77776bbc9e85ca130c0bafca4ab490611846908590611c0d565b60405180910390a260405162461bcd60e51b815260040161047d90612a06565b5050505050565b600480546001600160a01b038381166001600160a01b0319831681179093556040519116919082907f8be0079c531659141344cd1fd0a4f28419497f9722a3daafe3b4186f6b6457e090600090a35050565b8280546118cb906122f8565b90600052602060002090601f0160209004810192826118ed5760008555611933565b82601f1061190657805160ff1916838001178555611933565b82800160010185558215611933579182015b82811115611933578251825591602001919060010190611918565b5061193f9291506119be565b5090565b6040518061018001604052806000815260200160006001600160a01b0316815260200160008152602001606081526020016000815260200160008152602001600081526020016000815260200160008152602001600060048111156119aa576119aa611df1565b815260006020820181905260409091015290565b5b8082111561193f57600081556001016119bf565b805b81146113e457600080fd5b80356119eb816119d3565b92915050565b60008060408385031215611a0757611a07600080fd5b6000611a1385856119e0565b9250506020611a24858286016119e0565b9150509250929050565b634e487b7160e01b600052604160045260246000fd5b601f19601f830116810181811067ffffffffffffffff82111715611a6a57611a6a611a2e565b6040525050565b6000611a7c60405190565b9050611a888282611a44565b919050565b600067ffffffffffffffff821115611aa757611aa7611a2e565b601f19601f83011660200192915050565b82818337506000910152565b6000611ad7611ad284611a8d565b611a71565b905082815260208101848484011115611af257611af2600080fd5b6110e6848285611ab8565b600082601f830112611b1157611b11600080fd5b8135611b21848260208601611ac4565b949350505050565b8015156119d5565b80356119eb81611b29565b600080600080600060a08688031215611b5757611b57600080fd5b6000611b6388886119e0565b955050602086013567ffffffffffffffff811115611b8357611b83600080fd5b611b8f88828901611afd565b945050604086013567ffffffffffffffff811115611baf57611baf600080fd5b611bbb88828901611afd565b935050606086013567ffffffffffffffff811115611bdb57611bdb600080fd5b611be788828901611afd565b9250506080611bf888828901611b31565b9150509295509295909350565b805b82525050565b602081016119eb8284611c05565b60008083601f840112611c3057611c30600080fd5b50813567ffffffffffffffff811115611c4b57611c4b600080fd5b602083019150836001820283011115611c6657611c66600080fd5b9250929050565b60008060008060008060008060e0898b031215611c8c57611c8c600080fd5b6000611c988b8b6119e0565b985050602089013567ffffffffffffffff811115611cb857611cb8600080fd5b611cc48b828c01611afd565b9750506040611cd58b828c016119e0565b9650506060611ce68b828c016119e0565b9550506080611cf78b828c016119e0565b94505060a0611d088b828c016119e0565b93505060c089013567ffffffffffffffff811115611d2857611d28600080fd5b611d348b828c01611c1b565b92509250509295985092959890939650565b600060208284031215611d5b57611d5b600080fd5b6000611b2184846119e0565b60006001600160a01b0382166119eb565b611c0781611d67565b602081016119eb8284611d78565b60005b83811015611daa578181015183820152602001611d92565b83811115611db9576000848401525b50505050565b6000611dc9825190565b808452602084019350611de0818560208601611d8f565b601f01601f19169290920192915050565b634e487b7160e01b600052602160045260246000fd5b600581106113e4576113e4611df1565b80611a8881611e07565b60006119eb82611e17565b611c0781611e21565b801515611c07565b6101808101611e4c828f611c05565b611e59602083018e611d78565b611e66604083018d611c05565b8181036060830152611e78818c611dbf565b9050611e87608083018b611c05565b611e9460a083018a611c05565b611ea160c0830189611c05565b611eae60e0830188611c05565b611ebc610100830187611c05565b611eca610120830186611e2c565b611ed8610140830185611e35565b611ee6610160830184611c05565b9d9c50505050505050505050505050565b602080825281016115118184611dbf565b60006119eb6001600160a01b038316611f1f565b90565b6001600160a01b031690565b60006119eb82611f08565b60006119eb82611f2b565b611c0781611f36565b602081016119eb8284611f41565b8051600090610180840190611f6d8582611c05565b506020830151611f806020860182611d78565b506040830151611f936040860182611c05565b5060608301518482036060860152611fab8282611dbf565b9150506080830151611fc06080860182611c05565b5060a0830151611fd360a0860182611c05565b5060c0830151611fe660c0860182611c05565b5060e0830151611ff960e0860182611c05565b5061010083015161200e610100860182611c05565b50610120830151612023610120860182611e2c565b50610140830151612038610140860182611e35565b506101608301516110e6610160860182611c05565b602080825281016115118184611f58565b6119d581611d67565b80356119eb8161205e565b60006020828403121561208757612087600080fd5b6000611b218484612067565b60006115118383611f58565b60200190565b60006120af825190565b808452602084019350836020820285016120c98560200190565b60005b848110156120fd57838303885281516120e58482612093565b935050602082016020989098019791506001016120cc565b50909695505050505050565b6020808252810161151181846120a5565b60006020828403121561212f5761212f600080fd5b813567ffffffffffffffff81111561214957612149600080fd5b611b2184828501611afd565b60008060006060848603121561216d5761216d600080fd5b600061217986866119e0565b935050602061218a86828701612067565b925050604061219b86828701612067565b9150509250925092565b60208082527f4f776e61626c653a2063616c6c6572206973206e6f7420746865206f776e6572910190815261209f565b602080825281016119eb816121a5565b604081016121f38285611c05565b6115116020830184611c05565b603c8152602081017f43616e206f6e6c7920636c61696d206120706f6c69637920616674657220697481527f73206578706563746564206c616e64696e672074696d657374616d7000000000602082015290505b60400190565b602080825281016119eb81612200565b602080825281016119eb81604e81527f54686520706f6c696379207374617475732068617320616c726561647920626560208201527f656e20736574746c65642c206f7220796f75206e65656420746f206d616b652060408201526d6120666f7263652075706461746560901b606082015260800190565b634e487b7160e01b600052602260045260246000fd5b60028104600182168061230c57607f821691505b6020821081141561231f5761231f6122e2565b50919050565b60008154612332816122f8565b600182168015612349576001811461235a5761238a565b60ff1983168652818601935061238a565b60008581526020902060005b8381101561238257815488820152600190910190602001612366565b505081860193505b50505092915050565b6119eb8183612325565b60006123a7825190565b6123b5818560208601611d8f565b9290920192915050565b6119eb818361239d565b601c8152602081017f57726f6e6720666c69676874206e756d6265722070726f7669646564000000008152905061209f565b602080825281016119eb816123c9565b6124158185612325565b69666c696768745f6e6f3d60b01b8152600a019050612434818461239d565b6a2674696d657374616d703d60a81b8152600b019050611b21818361239d565b60006119eb611f1c8381565b611c0781612454565b608081016124778287611c05565b81810360208301526124898186611dbf565b9050818103604083015261249d8185611dbf565b90506124ac6060830184612460565b95945050505050565b80516119eb816119d3565b6000602082840312156124d5576124d5600080fd5b6000611b2184846124b5565b60378152602081017f746869732066756e6374696f6e2073686f756c642062652063616c6c6564206281527f7920466c696768744f7261636c6520636f6e747261637400000000000000000060208201529050612254565b602080825281016119eb816124e1565b60398152602081017f41626e6f726d616c206f7261636c6520726573756c742c20726573756c74207381527f686f756c64206265205b30202d203234305d206f72203430300000000000000060208201529050612254565b602080825281016119eb81612549565b602f8152602081017f4578706972656420646561646c696e652c20706c656173652072657375626d6981526e3a1030903a3930b739b0b1ba34b7b760891b60208201529050612254565b602080825281016119eb816125b1565b602a8152602081017f596f75206172652063616c6c696e67207468652077726f6e672070726f6475638152691d0818dbdb9d1c9858dd60b21b60208201529050612254565b602080825281016119eb8161260b565b634e487b7160e01b600052601160045260246000fd5b6000821982111561268957612689612660565b500190565b60408152602081017f4974277320746f6f20636c6f736520746f20746865206465706172747572652081527f74696d652c20796f752063616e6e6f7420627579207468697320706f6c69637960208201529050612254565b602080825281016119eb8161268e565b604081016121f38285611d78565b60178152602081017f4e6f20706f6c69637920666f72207468697320757365720000000000000000008152905061209f565b602080825281016119eb81612704565b634e487b7160e01b600052603260045260246000fd5b600060001982141561277057612770612660565b5060010190565b60378152602081017f6f6e6c792063616c6c65642066726f6d2074686520666c696768742064656c6181527f7920706f6c69637920746f6b656e20636f6e747261637400000000000000000060208201529050612254565b602080825281016119eb81612777565b601b8152602081017f5468652070726576696f7573206f776e65722069732077726f6e6700000000008152905061209f565b602080825281016119eb816127df565b60268152602081017f4f776e61626c653a206e6577206f776e657220697320746865207a65726f206181526564647265737360d01b60208201529050612254565b602080825281016119eb81612821565b606081016128808286611c05565b61288d6020830185611c05565b611b216040830184611d78565b60008160001904831182151516156128b4576128b4612660565b500290565b634e487b7160e01b600052601260045260246000fd5b6000826128de576128de6128b9565b500490565b608081016128f18287611c05565b6128fe6020830186611c05565b61290b6040830185611c05565b6124ac6060830184611d78565b81835260208301925061292c828483611ab8565b50601f01601f19160190565b60a0808252810161294a81888a612918565b9050818103602083015261295e8187611dbf565b905061296d6040830186611d78565b61297a6060830185611c05565b6129876080830184611c05565b979650505050505050565b80516119eb81611b29565b6000602082840312156129b2576129b2600080fd5b6000611b218484612992565b602d8152602081017f6e6f742073756666696369656e7420636170616369747920696e20746865206981526c1b9cdd5c985b98d9481c1bdbdb609a1b60208201529050612254565b602080825281016119eb816129be56fea264697066735822122034de9d4d876f7c775865e73ff2919d6bb42e127a7b7611bab57fdf7a75865d5264736f6c634300080a003368747470733a2f2f31382e3136332e3235342e35303a333230372f666c696768745f7374617475733f",
  "devdoc": {
    "kind": "dev",
    "methods": {
      "changeFee(uint256)": {
        "params": {
          "_fee": "New oracle fee"
        }
      },
      "changeMaxPayoff(uint256)": {
        "params": {
          "_newMaxPayoff": "New maxpayoff amount"
        }
      },
      "changeMinTimeBeforeDeparture(uint256)": {
        "params": {
          "_newMinTime": "New time set"
        }
      },
      "finalSettlement(bytes32,uint256)": {
        "params": {
          "_requestId": "Chainlink request id",
          "_result": "Delay result (minutes) given by oracle"
        }
      },
      "findPolicyBuyerById(uint256)": {
        "params": {
          "_policyId": "Unique policy Id (uint256)"
        },
        "returns": {
          "buyerAddress": "The buyer of this policy"
        }
      },
      "getPolicyInfoById(uint256)": {
        "params": {
          "_policyId": "Total count/order of the policy = NFT tokenId"
        },
        "returns": {
          "policy": "A struct of information about this policy"
        }
      },
      "newApplication(uint256,string,uint256,uint256,uint256,uint256,bytes)": {
        "details": "The transaction should have the signature from the backend server",
        "params": {
          "_deadline": "Deadline for this purchase request",
          "_departureTimestamp": "Departure date of this flight (unix timestamp in s, not ms!)",
          "_flightNumber": "Flight number in string (e.g. \"AQ1299\")",
          "_landingDate": "Landing date of this flight (uinx timestamp in s, not ms!)",
          "_premium": "Premium of this policy (decimals: 18)",
          "_productId": "ID of the purchased product (0: flightdelay; 1,2,3...: others)",
          "signature": "Use web3.eth.sign(hash(data), account) to generate the signature"
        }
      },
      "newClaimRequest(uint256,string,string,string,bool)": {
        "params": {
          "_flightNumber": "The flight number",
          "_forceUpdate": "Owner can force to update",
          "_path": "Which data in json needs to get",
          "_policyId": "The total order/id of the policy",
          "_timestamp": "The flight departure timestamp"
        }
      },
      "policyOwnerTransfer(uint256,address,address)": {
        "details": "This function is called by the ERC721 contract of PolicyToken",
        "params": {
          "_newOwner": "The new owner",
          "_oldOwner": "The initial owner",
          "_tokenId": "Token Id of the policy token"
        }
      },
      "renounceOwnership()": {
        "details": "Renouncing ownership will leave the contract without an owner,         thereby removing any functionality that is only available to the owner."
      },
      "setDelayThreshold(uint256,uint256)": {
        "params": {
          "_thresholdMax": "New maximum threshold",
          "_thresholdMin": "New minimum threshold"
        }
      },
      "setFlightOracle(address)": {
        "params": {
          "_oracleAddress": "New oracle address"
        }
      },
      "transferOwnership(address)": {
        "details": "Can only be called by the current owner.",
        "params": {
          "newOwner": "Address of the new owner"
        }
      },
      "viewUserPolicy(address)": {
        "params": {
          "_user": "User's address"
        },
        "returns": {
          "_0": "userPolicies User's all policy details"
        }
      }
    },
    "version": 1
  },
  "userdoc": {
    "kind": "user",
    "methods": {
      "changeFee(uint256)": {
        "notice": "Change the oracle fee"
      },
      "changeMaxPayoff(uint256)": {
        "notice": "Change the max payoff"
      },
      "changeMinTimeBeforeDeparture(uint256)": {
        "notice": "How long before departure when users can not buy new policies"
      },
      "finalSettlement(bytes32,uint256)": {
        "notice": "Do the final settlement, called by FlightOracle contract"
      },
      "findPolicyBuyerById(uint256)": {
        "notice": "Get the policy buyer by policyId"
      },
      "getPolicyInfoById(uint256)": {
        "notice": "Get the policyInfo from its count/order"
      },
      "newApplication(uint256,string,uint256,uint256,uint256,uint256,bytes)": {
        "notice": "Buy a new flight delay policy"
      },
      "newClaimRequest(uint256,string,string,string,bool)": {
        "notice": "Make a claim request"
      },
      "owner()": {
        "notice": "Returns the address of the current owner."
      },
      "policyOwnerTransfer(uint256,address,address)": {
        "notice": "Update information when a policy token's ownership has been transferred"
      },
      "renounceOwnership()": {
        "notice": "Leaves the contract without owner. It will not be possible to call         `onlyOwner` functions anymore. Can only be called by the current owner."
      },
      "setDelayThreshold(uint256,uint256)": {
        "notice": "Set the new delay threshold used for calculating payoff"
      },
      "setFlightOracle(address)": {
        "notice": "Change the oracle address"
      },
      "setURL(string)": {
        "notice": "Set a new url"
      },
      "transferOwnership(address)": {
        "notice": "Transfers ownership of the contract to a new account (`newOwner`)."
      },
      "viewUserPolicy(address)": {
        "notice": "Show a user's policies (all)"
      }
    },
    "version": 1
  },
  "storageLayout": {
    "storage": [
      {
        "astId": 15150,
        "contract": "contracts/miserable-flight/PolicyFlow.sol:PolicyFlow",
        "label": "MAX_PAYOFF",
        "offset": 0,
        "slot": "0",
        "type": "t_uint256"
      },
      {
        "astId": 15153,
        "contract": "contracts/miserable-flight/PolicyFlow.sol:PolicyFlow",
        "label": "DELAY_THRESHOLD_MIN",
        "offset": 0,
        "slot": "1",
        "type": "t_uint256"
      },
      {
        "astId": 15156,
        "contract": "contracts/miserable-flight/PolicyFlow.sol:PolicyFlow",
        "label": "DELAY_THRESHOLD_MAX",
        "offset": 0,
        "slot": "2",
        "type": "t_uint256"
      },
      {
        "astId": 15159,
        "contract": "contracts/miserable-flight/PolicyFlow.sol:PolicyFlow",
        "label": "MIN_TIME_BEFORE_DEPARTURE",
        "offset": 0,
        "slot": "3",
        "type": "t_uint256"
      },
      {
        "astId": 22670,
        "contract": "contracts/miserable-flight/PolicyFlow.sol:PolicyFlow",
        "label": "_owner",
        "offset": 0,
        "slot": "4",
        "type": "t_address"
      },
      {
        "astId": 13855,
        "contract": "contracts/miserable-flight/PolicyFlow.sol:PolicyFlow",
        "label": "buyerToken",
        "offset": 0,
        "slot": "5",
        "type": "t_contract(IBuyerToken)21350"
      },
      {
        "astId": 13858,
        "contract": "contracts/miserable-flight/PolicyFlow.sol:PolicyFlow",
        "label": "sigManager",
        "offset": 0,
        "slot": "6",
        "type": "t_contract(ISigManager)15502"
      },
      {
        "astId": 13861,
        "contract": "contracts/miserable-flight/PolicyFlow.sol:PolicyFlow",
        "label": "policyToken",
        "offset": 0,
        "slot": "7",
        "type": "t_contract(IFDPolicyToken)15185"
      },
      {
        "astId": 13864,
        "contract": "contracts/miserable-flight/PolicyFlow.sol:PolicyFlow",
        "label": "flightOracle",
        "offset": 0,
        "slot": "8",
        "type": "t_contract(IFlightOracle)15226"
      },
      {
        "astId": 13867,
        "contract": "contracts/miserable-flight/PolicyFlow.sol:PolicyFlow",
        "label": "insurancePool",
        "offset": 0,
        "slot": "9",
        "type": "t_contract(IInsurancePool)15348"
      },
      {
        "astId": 13870,
        "contract": "contracts/miserable-flight/PolicyFlow.sol:PolicyFlow",
        "label": "FLIGHT_STATUS_URL",
        "offset": 0,
        "slot": "10",
        "type": "t_string_storage"
      },
      {
        "astId": 13872,
        "contract": "contracts/miserable-flight/PolicyFlow.sol:PolicyFlow",
        "label": "totalPolicies",
        "offset": 0,
        "slot": "11",
        "type": "t_uint256"
      },
      {
        "astId": 13874,
        "contract": "contracts/miserable-flight/PolicyFlow.sol:PolicyFlow",
        "label": "fee",
        "offset": 0,
        "slot": "12",
        "type": "t_uint256"
      },
      {
        "astId": 13879,
        "contract": "contracts/miserable-flight/PolicyFlow.sol:PolicyFlow",
        "label": "policyList",
        "offset": 0,
        "slot": "13",
        "type": "t_mapping(t_uint256,t_struct(PolicyInfo)15460_storage)"
      },
      {
        "astId": 13884,
        "contract": "contracts/miserable-flight/PolicyFlow.sol:PolicyFlow",
        "label": "userPolicyList",
        "offset": 0,
        "slot": "14",
        "type": "t_mapping(t_address,t_array(t_uint256)dyn_storage)"
      },
      {
        "astId": 13888,
        "contract": "contracts/miserable-flight/PolicyFlow.sol:PolicyFlow",
        "label": "requestList",
        "offset": 0,
        "slot": "15",
        "type": "t_mapping(t_bytes32,t_uint256)"
      },
      {
        "astId": 13892,
        "contract": "contracts/miserable-flight/PolicyFlow.sol:PolicyFlow",
        "label": "delayResultList",
        "offset": 0,
        "slot": "16",
        "type": "t_mapping(t_uint256,t_uint256)"
      }
    ],
    "types": {
      "t_address": {
        "encoding": "inplace",
        "label": "address",
        "numberOfBytes": "20"
      },
      "t_array(t_uint256)dyn_storage": {
        "base": "t_uint256",
        "encoding": "dynamic_array",
        "label": "uint256[]",
        "numberOfBytes": "32"
      },
      "t_bool": {
        "encoding": "inplace",
        "label": "bool",
        "numberOfBytes": "1"
      },
      "t_bytes32": {
        "encoding": "inplace",
        "label": "bytes32",
        "numberOfBytes": "32"
      },
      "t_contract(IBuyerToken)21350": {
        "encoding": "inplace",
        "label": "contract IBuyerToken",
        "numberOfBytes": "20"
      },
      "t_contract(IFDPolicyToken)15185": {
        "encoding": "inplace",
        "label": "contract IFDPolicyToken",
        "numberOfBytes": "20"
      },
      "t_contract(IFlightOracle)15226": {
        "encoding": "inplace",
        "label": "contract IFlightOracle",
        "numberOfBytes": "20"
      },
      "t_contract(IInsurancePool)15348": {
        "encoding": "inplace",
        "label": "contract IInsurancePool",
        "numberOfBytes": "20"
      },
      "t_contract(ISigManager)15502": {
        "encoding": "inplace",
        "label": "contract ISigManager",
        "numberOfBytes": "20"
      },
      "t_enum(PolicyStatus)15434": {
        "encoding": "inplace",
        "label": "enum IPolicyStruct.PolicyStatus",
        "numberOfBytes": "1"
      },
      "t_mapping(t_address,t_array(t_uint256)dyn_storage)": {
        "encoding": "mapping",
        "key": "t_address",
        "label": "mapping(address => uint256[])",
        "numberOfBytes": "32",
        "value": "t_array(t_uint256)dyn_storage"
      },
      "t_mapping(t_bytes32,t_uint256)": {
        "encoding": "mapping",
        "key": "t_bytes32",
        "label": "mapping(bytes32 => uint256)",
        "numberOfBytes": "32",
        "value": "t_uint256"
      },
      "t_mapping(t_uint256,t_struct(PolicyInfo)15460_storage)": {
        "encoding": "mapping",
        "key": "t_uint256",
        "label": "mapping(uint256 => struct IPolicyStruct.PolicyInfo)",
        "numberOfBytes": "32",
        "value": "t_struct(PolicyInfo)15460_storage"
      },
      "t_mapping(t_uint256,t_uint256)": {
        "encoding": "mapping",
        "key": "t_uint256",
        "label": "mapping(uint256 => uint256)",
        "numberOfBytes": "32",
        "value": "t_uint256"
      },
      "t_string_storage": {
        "encoding": "bytes",
        "label": "string",
        "numberOfBytes": "32"
      },
      "t_struct(PolicyInfo)15460_storage": {
        "encoding": "inplace",
        "label": "struct IPolicyStruct.PolicyInfo",
        "members": [
          {
            "astId": 15436,
            "contract": "contracts/miserable-flight/PolicyFlow.sol:PolicyFlow",
            "label": "productId",
            "offset": 0,
            "slot": "0",
            "type": "t_uint256"
          },
          {
            "astId": 15438,
            "contract": "contracts/miserable-flight/PolicyFlow.sol:PolicyFlow",
            "label": "buyerAddress",
            "offset": 0,
            "slot": "1",
            "type": "t_address"
          },
          {
            "astId": 15440,
            "contract": "contracts/miserable-flight/PolicyFlow.sol:PolicyFlow",
            "label": "policyId",
            "offset": 0,
            "slot": "2",
            "type": "t_uint256"
          },
          {
            "astId": 15442,
            "contract": "contracts/miserable-flight/PolicyFlow.sol:PolicyFlow",
            "label": "flightNumber",
            "offset": 0,
            "slot": "3",
            "type": "t_string_storage"
          },
          {
            "astId": 15444,
            "contract": "contracts/miserable-flight/PolicyFlow.sol:PolicyFlow",
            "label": "premium",
            "offset": 0,
            "slot": "4",
            "type": "t_uint256"
          },
          {
            "astId": 15446,
            "contract": "contracts/miserable-flight/PolicyFlow.sol:PolicyFlow",
            "label": "payoff",
            "offset": 0,
            "slot": "5",
            "type": "t_uint256"
          },
          {
            "astId": 15448,
            "contract": "contracts/miserable-flight/PolicyFlow.sol:PolicyFlow",
            "label": "purchaseTimestamp",
            "offset": 0,
            "slot": "6",
            "type": "t_uint256"
          },
          {
            "astId": 15450,
            "contract": "contracts/miserable-flight/PolicyFlow.sol:PolicyFlow",
            "label": "departureTimestamp",
            "offset": 0,
            "slot": "7",
            "type": "t_uint256"
          },
          {
            "astId": 15452,
            "contract": "contracts/miserable-flight/PolicyFlow.sol:PolicyFlow",
            "label": "landingTimestamp",
            "offset": 0,
            "slot": "8",
            "type": "t_uint256"
          },
          {
            "astId": 15455,
            "contract": "contracts/miserable-flight/PolicyFlow.sol:PolicyFlow",
            "label": "status",
            "offset": 0,
            "slot": "9",
            "type": "t_enum(PolicyStatus)15434"
          },
          {
            "astId": 15457,
            "contract": "contracts/miserable-flight/PolicyFlow.sol:PolicyFlow",
            "label": "alreadySettled",
            "offset": 1,
            "slot": "9",
            "type": "t_bool"
          },
          {
            "astId": 15459,
            "contract": "contracts/miserable-flight/PolicyFlow.sol:PolicyFlow",
            "label": "delayResult",
            "offset": 0,
            "slot": "10",
            "type": "t_uint256"
          }
        ],
        "numberOfBytes": "352"
      },
      "t_uint256": {
        "encoding": "inplace",
        "label": "uint256",
        "numberOfBytes": "32"
      }
    }
  }
}