{
  "address": "0xA7cB7152eB4a207Af3d3b6FD5c4dda45db6b5B06",
  "abi": [
    {
      "anonymous": false,
      "inputs": [
        {
          "indexed": false,
          "internalType": "address",
          "name": "payerAddress",
          "type": "address"
        },
        {
          "indexed": false,
          "internalType": "address",
          "name": "userAddress",
          "type": "address"
        },
        {
          "indexed": false,
          "internalType": "string",
          "name": "policyTokenName",
          "type": "string"
        },
        {
          "indexed": false,
          "internalType": "address",
          "name": "stablecoin",
          "type": "address"
        },
        {
          "indexed": false,
          "internalType": "uint256",
          "name": "amount",
          "type": "uint256"
        }
      ],
      "name": "DelegateDeposit",
      "type": "event"
    },
    {
      "anonymous": false,
      "inputs": [
        {
          "indexed": true,
          "internalType": "address",
          "name": "userAddress",
          "type": "address"
        },
        {
          "indexed": true,
          "internalType": "string",
          "name": "policyTokenName",
          "type": "string"
        },
        {
          "indexed": true,
          "internalType": "address",
          "name": "stablecoin",
          "type": "address"
        },
        {
          "indexed": false,
          "internalType": "uint256",
          "name": "amount",
          "type": "uint256"
        }
      ],
      "name": "Deposit",
      "type": "event"
    },
    {
      "anonymous": false,
      "inputs": [
        {
          "indexed": false,
          "internalType": "string",
          "name": "_policyTokenName",
          "type": "string"
        },
        {
          "indexed": false,
          "internalType": "uint256",
          "name": "price",
          "type": "uint256"
        },
        {
          "indexed": false,
          "internalType": "bool",
          "name": "isHappened",
          "type": "bool"
        }
      ],
      "name": "FinalResultSettled",
      "type": "event"
    },
    {
      "anonymous": false,
      "inputs": [
        {
          "indexed": false,
          "internalType": "address",
          "name": "oldILM",
          "type": "address"
        },
        {
          "indexed": false,
          "internalType": "address",
          "name": "newILM",
          "type": "address"
        }
      ],
      "name": "ILMChanged",
      "type": "event"
    },
    {
      "anonymous": false,
      "inputs": [
        {
          "indexed": false,
          "internalType": "address",
          "name": "oldIncomeSharing",
          "type": "address"
        },
        {
          "indexed": false,
          "internalType": "address",
          "name": "newIncomeSharing",
          "type": "address"
        }
      ],
      "name": "IncomeSharingChanged",
      "type": "event"
    },
    {
      "anonymous": false,
      "inputs": [
        {
          "indexed": false,
          "internalType": "uint256",
          "name": "oldToLottery",
          "type": "uint256"
        },
        {
          "indexed": false,
          "internalType": "uint256",
          "name": "newToLottery",
          "type": "uint256"
        }
      ],
      "name": "IncomeToLotteryChanged",
      "type": "event"
    },
    {
      "anonymous": false,
      "inputs": [
        {
          "indexed": false,
          "internalType": "address",
          "name": "oldLotteryAddress",
          "type": "address"
        },
        {
          "indexed": false,
          "internalType": "address",
          "name": "newLotteryAddress",
          "type": "address"
        }
      ],
      "name": "LotteryChanged",
      "type": "event"
    },
    {
      "anonymous": false,
      "inputs": [
        {
          "indexed": false,
          "internalType": "address",
          "name": "oldRouter",
          "type": "address"
        },
        {
          "indexed": false,
          "internalType": "address",
          "name": "newRouter",
          "type": "address"
        }
      ],
      "name": "NaughtyRouterChanged",
      "type": "event"
    },
    {
      "anonymous": false,
      "inputs": [
        {
          "indexed": false,
          "internalType": "address",
          "name": "_newStablecoin",
          "type": "address"
        }
      ],
      "name": "NewStablecoinAdded",
      "type": "event"
    },
    {
      "anonymous": false,
      "inputs": [
        {
          "indexed": true,
          "internalType": "address",
          "name": "previousOwner",
          "type": "address"
        },
        {
          "indexed": true,
          "internalType": "address",
          "name": "newOwner",
          "type": "address"
        }
      ],
      "name": "OwnershipTransferred",
      "type": "event"
    },
    {
      "anonymous": false,
      "inputs": [
        {
          "indexed": false,
          "internalType": "string",
          "name": "tokenName",
          "type": "string"
        },
        {
          "indexed": false,
          "internalType": "address",
          "name": "tokenAddress",
          "type": "address"
        },
        {
          "indexed": false,
          "internalType": "uint256",
          "name": "tokenDecimals",
          "type": "uint256"
        },
        {
          "indexed": false,
          "internalType": "uint256",
          "name": "deadline",
          "type": "uint256"
        },
        {
          "indexed": false,
          "internalType": "uint256",
          "name": "settleTimestamp",
          "type": "uint256"
        }
      ],
      "name": "PolicyTokenDeployed",
      "type": "event"
    },
    {
      "anonymous": false,
      "inputs": [
        {
          "indexed": false,
          "internalType": "string",
          "name": "policyTokenName",
          "type": "string"
        },
        {
          "indexed": false,
          "internalType": "address",
          "name": "stablecoin",
          "type": "address"
        },
        {
          "indexed": false,
          "internalType": "uint256",
          "name": "startIndex",
          "type": "uint256"
        },
        {
          "indexed": false,
          "internalType": "uint256",
          "name": "stopIndex",
          "type": "uint256"
        }
      ],
      "name": "PolicyTokensSettledForUsers",
      "type": "event"
    },
    {
      "anonymous": false,
      "inputs": [
        {
          "indexed": false,
          "internalType": "address",
          "name": "poolAddress",
          "type": "address"
        },
        {
          "indexed": false,
          "internalType": "address",
          "name": "policyTokenAddress",
          "type": "address"
        },
        {
          "indexed": false,
          "internalType": "address",
          "name": "stablecoin",
          "type": "address"
        }
      ],
      "name": "PoolDeployed",
      "type": "event"
    },
    {
      "anonymous": false,
      "inputs": [
        {
          "indexed": false,
          "internalType": "address",
          "name": "poolAddress",
          "type": "address"
        },
        {
          "indexed": false,
          "internalType": "address",
          "name": "policyTokenAddress",
          "type": "address"
        },
        {
          "indexed": false,
          "internalType": "address",
          "name": "stablecoin",
          "type": "address"
        },
        {
          "indexed": false,
          "internalType": "uint256",
          "name": "initLiquidityA",
          "type": "uint256"
        },
        {
          "indexed": false,
          "internalType": "uint256",
          "name": "initLiquidityB",
          "type": "uint256"
        }
      ],
      "name": "PoolDeployedWithInitialLiquidity",
      "type": "event"
    },
    {
      "anonymous": false,
      "inputs": [
        {
          "indexed": true,
          "internalType": "address",
          "name": "userAddress",
          "type": "address"
        },
        {
          "indexed": true,
          "internalType": "string",
          "name": "policyTokenName",
          "type": "string"
        },
        {
          "indexed": true,
          "internalType": "address",
          "name": "stablecoin",
          "type": "address"
        },
        {
          "indexed": false,
          "internalType": "uint256",
          "name": "amount",
          "type": "uint256"
        }
      ],
      "name": "Redeem",
      "type": "event"
    },
    {
      "anonymous": false,
      "inputs": [
        {
          "indexed": true,
          "internalType": "address",
          "name": "userAddress",
          "type": "address"
        },
        {
          "indexed": true,
          "internalType": "string",
          "name": "policyTokenName",
          "type": "string"
        },
        {
          "indexed": true,
          "internalType": "address",
          "name": "stablecoin",
          "type": "address"
        },
        {
          "indexed": false,
          "internalType": "uint256",
          "name": "amount",
          "type": "uint256"
        }
      ],
      "name": "RedeemAfterSettlement",
      "type": "event"
    },
    {
      "anonymous": false,
      "inputs": [
        {
          "indexed": false,
          "internalType": "address",
          "name": "user",
          "type": "address"
        },
        {
          "indexed": false,
          "internalType": "address",
          "name": "policyTokenAddress",
          "type": "address"
        },
        {
          "indexed": false,
          "internalType": "uint256",
          "name": "amount",
          "type": "uint256"
        }
      ],
      "name": "UpdateUserQuota",
      "type": "event"
    },
    {
      "inputs": [],
      "name": "ILMContract",
      "outputs": [
        {
          "internalType": "address",
          "name": "",
          "type": "address"
        }
      ],
      "stateMutability": "view",
      "type": "function"
    },
    {
      "inputs": [
        {
          "internalType": "string",
          "name": "_tokenName",
          "type": "string"
        },
        {
          "internalType": "uint256",
          "name": "_decimals",
          "type": "uint256"
        },
        {
          "internalType": "uint256",
          "name": "_strikePrice",
          "type": "uint256"
        },
        {
          "internalType": "bool",
          "name": "_isCall",
          "type": "bool"
        },
        {
          "internalType": "string",
          "name": "_round",
          "type": "string"
        }
      ],
      "name": "_generateName",
      "outputs": [
        {
          "internalType": "string",
          "name": "",
          "type": "string"
        }
      ],
      "stateMutability": "pure",
      "type": "function"
    },
    {
      "inputs": [
        {
          "internalType": "address",
          "name": "_newStablecoin",
          "type": "address"
        }
      ],
      "name": "addStablecoin",
      "outputs": [],
      "stateMutability": "nonpayable",
      "type": "function"
    },
    {
      "inputs": [
        {
          "internalType": "address",
          "name": "",
          "type": "address"
        },
        {
          "internalType": "uint256",
          "name": "",
          "type": "uint256"
        }
      ],
      "name": "allDepositors",
      "outputs": [
        {
          "internalType": "address",
          "name": "",
          "type": "address"
        }
      ],
      "stateMutability": "view",
      "type": "function"
    },
    {
      "inputs": [
        {
          "internalType": "uint256",
          "name": "",
          "type": "uint256"
        }
      ],
      "name": "allPolicyTokens",
      "outputs": [
        {
          "internalType": "string",
          "name": "",
          "type": "string"
        }
      ],
      "stateMutability": "view",
      "type": "function"
    },
    {
      "inputs": [
        {
          "internalType": "string",
          "name": "_policyTokenName",
          "type": "string"
        },
        {
          "internalType": "address",
          "name": "_stablecoin",
          "type": "address"
        },
        {
          "internalType": "uint256",
          "name": "_amount",
          "type": "uint256"
        }
      ],
      "name": "claim",
      "outputs": [],
      "stateMutability": "nonpayable",
      "type": "function"
    },
    {
      "inputs": [
        {
          "internalType": "address",
          "name": "_stablecoin",
          "type": "address"
        }
      ],
      "name": "collectIncome",
      "outputs": [],
      "stateMutability": "nonpayable",
      "type": "function"
    },
    {
      "inputs": [
        {
          "internalType": "string",
          "name": "_policyTokenName",
          "type": "string"
        },
        {
          "internalType": "address",
          "name": "_stablecoin",
          "type": "address"
        },
        {
          "internalType": "uint256",
          "name": "_amount",
          "type": "uint256"
        },
        {
          "internalType": "address",
          "name": "_user",
          "type": "address"
        }
      ],
      "name": "delegateDeposit",
      "outputs": [],
      "stateMutability": "nonpayable",
      "type": "function"
    },
    {
      "inputs": [
        {
          "internalType": "string",
          "name": "_tokenName",
          "type": "string"
        },
        {
          "internalType": "address",
          "name": "_stablecoin",
          "type": "address"
        },
        {
          "internalType": "bool",
          "name": "_isCall",
          "type": "bool"
        },
        {
          "internalType": "uint256",
          "name": "_nameDecimals",
          "type": "uint256"
        },
        {
          "internalType": "uint256",
          "name": "_tokenDecimals",
          "type": "uint256"
        },
        {
          "internalType": "uint256",
          "name": "_strikePrice",
          "type": "uint256"
        },
        {
          "internalType": "string",
          "name": "_round",
          "type": "string"
        },
        {
          "internalType": "uint256",
          "name": "_deadline",
          "type": "uint256"
        },
        {
          "internalType": "uint256",
          "name": "_settleTimestamp",
          "type": "uint256"
        }
      ],
      "name": "deployPolicyToken",
      "outputs": [],
      "stateMutability": "nonpayable",
      "type": "function"
    },
    {
      "inputs": [
        {
          "internalType": "string",
          "name": "_policyTokenName",
          "type": "string"
        },
        {
          "internalType": "address",
          "name": "_stablecoin",
          "type": "address"
        },
        {
          "internalType": "uint256",
          "name": "_poolDeadline",
          "type": "uint256"
        },
        {
          "internalType": "uint256",
          "name": "_feeRate",
          "type": "uint256"
        }
      ],
      "name": "deployPool",
      "outputs": [
        {
          "internalType": "address",
          "name": "",
          "type": "address"
        }
      ],
      "stateMutability": "nonpayable",
      "type": "function"
    },
    {
      "inputs": [
        {
          "internalType": "string",
          "name": "_policyTokenName",
          "type": "string"
        },
        {
          "internalType": "address",
          "name": "_stablecoin",
          "type": "address"
        },
        {
          "internalType": "uint256",
          "name": "_amount",
          "type": "uint256"
        }
      ],
      "name": "deposit",
      "outputs": [],
      "stateMutability": "nonpayable",
      "type": "function"
    },
    {
      "inputs": [],
      "name": "factory",
      "outputs": [
        {
          "internalType": "contract INaughtyFactory",
          "name": "",
          "type": "address"
        }
      ],
      "stateMutability": "view",
      "type": "function"
    },
    {
      "inputs": [
        {
          "internalType": "string",
          "name": "_policyTokenName",
          "type": "string"
        }
      ],
      "name": "findAddressbyName",
      "outputs": [
        {
          "internalType": "address",
          "name": "policyTokenAddress",
          "type": "address"
        }
      ],
      "stateMutability": "view",
      "type": "function"
    },
    {
      "inputs": [
        {
          "internalType": "address",
          "name": "_policyTokenAddress",
          "type": "address"
        }
      ],
      "name": "findNamebyAddress",
      "outputs": [
        {
          "internalType": "string",
          "name": "policyTokenName",
          "type": "string"
        }
      ],
      "stateMutability": "view",
      "type": "function"
    },
    {
      "inputs": [],
      "name": "getAllTokens",
      "outputs": [
        {
          "components": [
            {
              "internalType": "address",
              "name": "policyTokenAddress",
              "type": "address"
            },
            {
              "internalType": "bool",
              "name": "isCall",
              "type": "bool"
            },
            {
              "internalType": "uint256",
              "name": "nameDecimals",
              "type": "uint256"
            },
            {
              "internalType": "uint256",
              "name": "tokenDecimals",
              "type": "uint256"
            },
            {
              "internalType": "uint256",
              "name": "strikePrice",
              "type": "uint256"
            },
            {
              "internalType": "uint256",
              "name": "deadline",
              "type": "uint256"
            },
            {
              "internalType": "uint256",
              "name": "settleTimestamp",
              "type": "uint256"
            }
          ],
          "internalType": "struct PolicyCore.PolicyTokenInfo[]",
          "name": "",
          "type": "tuple[]"
        }
      ],
      "stateMutability": "view",
      "type": "function"
    },
    {
      "inputs": [
        {
          "internalType": "string",
          "name": "_policyTokenName",
          "type": "string"
        }
      ],
      "name": "getPolicyTokenInfo",
      "outputs": [
        {
          "components": [
            {
              "internalType": "address",
              "name": "policyTokenAddress",
              "type": "address"
            },
            {
              "internalType": "bool",
              "name": "isCall",
              "type": "bool"
            },
            {
              "internalType": "uint256",
              "name": "nameDecimals",
              "type": "uint256"
            },
            {
              "internalType": "uint256",
              "name": "tokenDecimals",
              "type": "uint256"
            },
            {
              "internalType": "uint256",
              "name": "strikePrice",
              "type": "uint256"
            },
            {
              "internalType": "uint256",
              "name": "deadline",
              "type": "uint256"
            },
            {
              "internalType": "uint256",
              "name": "settleTimestamp",
              "type": "uint256"
            }
          ],
          "internalType": "struct PolicyCore.PolicyTokenInfo",
          "name": "",
          "type": "tuple"
        }
      ],
      "stateMutability": "view",
      "type": "function"
    },
    {
      "inputs": [
        {
          "internalType": "address",
          "name": "_user",
          "type": "address"
        },
        {
          "internalType": "address",
          "name": "_policyTokenAddress",
          "type": "address"
        }
      ],
      "name": "getUserQuota",
      "outputs": [
        {
          "internalType": "uint256",
          "name": "_quota",
          "type": "uint256"
        }
      ],
      "stateMutability": "view",
      "type": "function"
    },
    {
      "inputs": [],
      "name": "incomeSharing",
      "outputs": [
        {
          "internalType": "address",
          "name": "",
          "type": "address"
        }
      ],
      "stateMutability": "view",
      "type": "function"
    },
    {
      "inputs": [
        {
          "internalType": "address",
          "name": "_usdc",
          "type": "address"
        },
        {
          "internalType": "address",
          "name": "_factory",
          "type": "address"
        },
        {
          "internalType": "address",
          "name": "_priceGetter",
          "type": "address"
        }
      ],
      "name": "initialize",
      "outputs": [],
      "stateMutability": "nonpayable",
      "type": "function"
    },
    {
      "inputs": [],
      "name": "lottery",
      "outputs": [
        {
          "internalType": "address",
          "name": "",
          "type": "address"
        }
      ],
      "stateMutability": "view",
      "type": "function"
    },
    {
      "inputs": [],
      "name": "naughtyRouter",
      "outputs": [
        {
          "internalType": "address",
          "name": "",
          "type": "address"
        }
      ],
      "stateMutability": "view",
      "type": "function"
    },
    {
      "inputs": [],
      "name": "owner",
      "outputs": [
        {
          "internalType": "address",
          "name": "",
          "type": "address"
        }
      ],
      "stateMutability": "view",
      "type": "function"
    },
    {
      "inputs": [
        {
          "internalType": "address",
          "name": "",
          "type": "address"
        }
      ],
      "name": "pendingIncomeToLottery",
      "outputs": [
        {
          "internalType": "uint256",
          "name": "",
          "type": "uint256"
        }
      ],
      "stateMutability": "view",
      "type": "function"
    },
    {
      "inputs": [
        {
          "internalType": "address",
          "name": "",
          "type": "address"
        }
      ],
      "name": "pendingIncomeToSharing",
      "outputs": [
        {
          "internalType": "uint256",
          "name": "",
          "type": "uint256"
        }
      ],
      "stateMutability": "view",
      "type": "function"
    },
    {
      "inputs": [
        {
          "internalType": "address",
          "name": "",
          "type": "address"
        }
      ],
      "name": "policyTokenAddressToName",
      "outputs": [
        {
          "internalType": "string",
          "name": "",
          "type": "string"
        }
      ],
      "stateMutability": "view",
      "type": "function"
    },
    {
      "inputs": [
        {
          "internalType": "string",
          "name": "",
          "type": "string"
        }
      ],
      "name": "policyTokenInfoMapping",
      "outputs": [
        {
          "internalType": "address",
          "name": "policyTokenAddress",
          "type": "address"
        },
        {
          "internalType": "bool",
          "name": "isCall",
          "type": "bool"
        },
        {
          "internalType": "uint256",
          "name": "nameDecimals",
          "type": "uint256"
        },
        {
          "internalType": "uint256",
          "name": "tokenDecimals",
          "type": "uint256"
        },
        {
          "internalType": "uint256",
          "name": "strikePrice",
          "type": "uint256"
        },
        {
          "internalType": "uint256",
          "name": "deadline",
          "type": "uint256"
        },
        {
          "internalType": "uint256",
          "name": "settleTimestamp",
          "type": "uint256"
        }
      ],
      "stateMutability": "view",
      "type": "function"
    },
    {
      "inputs": [],
      "name": "priceGetter",
      "outputs": [
        {
          "internalType": "contract IPriceGetter",
          "name": "",
          "type": "address"
        }
      ],
      "stateMutability": "view",
      "type": "function"
    },
    {
      "inputs": [
        {
          "internalType": "string",
          "name": "_policyTokenName",
          "type": "string"
        },
        {
          "internalType": "address",
          "name": "_stablecoin",
          "type": "address"
        },
        {
          "internalType": "uint256",
          "name": "_amount",
          "type": "uint256"
        }
      ],
      "name": "redeem",
      "outputs": [],
      "stateMutability": "nonpayable",
      "type": "function"
    },
    {
      "inputs": [
        {
          "internalType": "string",
          "name": "_policyTokenName",
          "type": "string"
        },
        {
          "internalType": "address",
          "name": "_stablecoin",
          "type": "address"
        }
      ],
      "name": "redeemAfterSettlement",
      "outputs": [],
      "stateMutability": "nonpayable",
      "type": "function"
    },
    {
      "inputs": [],
      "name": "renounceOwnership",
      "outputs": [],
      "stateMutability": "nonpayable",
      "type": "function"
    },
    {
      "inputs": [
        {
          "internalType": "address",
          "name": "_ILM",
          "type": "address"
        }
      ],
      "name": "setILMContract",
      "outputs": [],
      "stateMutability": "nonpayable",
      "type": "function"
    },
    {
      "inputs": [
        {
          "internalType": "address",
          "name": "_incomeSharing",
          "type": "address"
        }
      ],
      "name": "setIncomeSharing",
      "outputs": [],
      "stateMutability": "nonpayable",
      "type": "function"
    },
    {
      "inputs": [
        {
          "internalType": "uint256",
          "name": "_toLottery",
          "type": "uint256"
        }
      ],
      "name": "setIncomeToLottery",
      "outputs": [],
      "stateMutability": "nonpayable",
      "type": "function"
    },
    {
      "inputs": [
        {
          "internalType": "address",
          "name": "_lotteryAddress",
          "type": "address"
        }
      ],
      "name": "setLottery",
      "outputs": [],
      "stateMutability": "nonpayable",
      "type": "function"
    },
    {
      "inputs": [
        {
          "internalType": "address",
          "name": "_router",
          "type": "address"
        }
      ],
      "name": "setNaughtyRouter",
      "outputs": [],
      "stateMutability": "nonpayable",
      "type": "function"
    },
    {
      "inputs": [
        {
          "internalType": "string",
          "name": "_policyTokenName",
          "type": "string"
        },
        {
          "internalType": "address",
          "name": "_stablecoin",
          "type": "address"
        },
        {
          "internalType": "uint256",
          "name": "_startIndex",
          "type": "uint256"
        },
        {
          "internalType": "uint256",
          "name": "_stopIndex",
          "type": "uint256"
        }
      ],
      "name": "settleAllPolicyTokens",
      "outputs": [],
      "stateMutability": "nonpayable",
      "type": "function"
    },
    {
      "inputs": [
        {
          "internalType": "string",
          "name": "_policyTokenName",
          "type": "string"
        }
      ],
      "name": "settleFinalResult",
      "outputs": [],
      "stateMutability": "nonpayable",
      "type": "function"
    },
    {
      "inputs": [
        {
          "internalType": "address",
          "name": "",
          "type": "address"
        }
      ],
      "name": "settleResult",
      "outputs": [
        {
          "internalType": "uint256",
          "name": "price",
          "type": "uint256"
        },
        {
          "internalType": "bool",
          "name": "isHappened",
          "type": "bool"
        },
        {
          "internalType": "bool",
          "name": "alreadySettled",
          "type": "bool"
        },
        {
          "internalType": "uint256",
          "name": "currentDistributionIndex",
          "type": "uint256"
        }
      ],
      "stateMutability": "view",
      "type": "function"
    },
    {
      "inputs": [
        {
          "internalType": "address",
          "name": "",
          "type": "address"
        }
      ],
      "name": "supportedStablecoin",
      "outputs": [
        {
          "internalType": "bool",
          "name": "",
          "type": "bool"
        }
      ],
      "stateMutability": "view",
      "type": "function"
    },
    {
      "inputs": [],
      "name": "toLotteryPart",
      "outputs": [
        {
          "internalType": "uint256",
          "name": "",
          "type": "uint256"
        }
      ],
      "stateMutability": "view",
      "type": "function"
    },
    {
      "inputs": [
        {
          "internalType": "address",
          "name": "newOwner",
          "type": "address"
        }
      ],
      "name": "transferOwnership",
      "outputs": [],
      "stateMutability": "nonpayable",
      "type": "function"
    },
    {
      "inputs": [
        {
          "internalType": "address",
          "name": "_user",
          "type": "address"
        },
        {
          "internalType": "address",
          "name": "_policyToken",
          "type": "address"
        },
        {
          "internalType": "uint256",
          "name": "_amount",
          "type": "uint256"
        }
      ],
      "name": "updateUserQuota",
      "outputs": [],
      "stateMutability": "nonpayable",
      "type": "function"
    },
    {
      "inputs": [
        {
          "internalType": "address",
          "name": "",
          "type": "address"
        }
      ],
      "name": "whichStablecoin",
      "outputs": [
        {
          "internalType": "address",
          "name": "",
          "type": "address"
        }
      ],
      "stateMutability": "view",
      "type": "function"
    }
  ],
  "transactionHash": "0x9fcbcd3f467b3c47746b1d7b4dd143ae413ea60a39beec2b180d08e2b39590e3",
  "args": [],
  "numDeployments": 1,
  "solcInputHash": "dac4e5fe3f0ddff2793c693a8a6aab18",
  "bytecode": "0x608060405234801561001057600080fd5b50614a21806100206000396000f3fe608060405234801561001057600080fd5b50600436106102e95760003560e01c80638da5cb5b11610191578063ceed1b90116100e3578063e625123711610097578063f15cac3411610071578063f15cac3414610727578063f298083b1461073a578063f2fde38b1461074d57600080fd5b8063e6251237146106ee578063eb9132dd14610701578063f10cffbd1461071457600080fd5b8063d9e85c84116100c8578063d9e85c8414610682578063da142807146106a2578063e01f8e4b146106db57600080fd5b8063ceed1b9014610666578063d700e89f1461067957600080fd5b8063bb9febaf11610145578063c0c53b8b1161011f578063c0c53b8b14610620578063c45a015514610633578063c49df4bf1461065357600080fd5b8063bb9febaf146105e7578063bdc2b166146105fa578063be3f34a11461060d57600080fd5b8063a815a22111610176578063a815a221146105a1578063a8e577e3146105b4578063ba13a572146105d457600080fd5b80638da5cb5b1461057d57806394567d4e1461058e57600080fd5b80632a5c792a1161024a5780635cb3b14f116101fe5780636978531a116101d85780636978531a1461054f578063715018a6146105625780637336c38d1461056a57600080fd5b80635cb3b14f146104e35780635e49b5de146105135780635eb1877e1461052657600080fd5b806339f677381161022f57806339f677381461044c5780634c330fbc146104bd5780634e75ce89146104d057600080fd5b80632a5c792a1461042457806338081de21461043957600080fd5b80631306c0a5116102a15780631ee08fa1116102865780631ee08fa1146103b2578063210123e5146103fe5780632a48ac9a1461041157600080fd5b80631306c0a51461037f57806318dd152f1461039f57600080fd5b806307962845116102d2578063079628451461031657806308d89d5f1461034c5780630dc726471461035f57600080fd5b806303844097146102ee5780630418945a14610303575b600080fd5b6103016102fc366004612ff4565b610760565b005b61030161031136600461305f565b610a8f565b61033661032436600461305f565b60756020526000908152604090205481565b6040516103439190613088565b60405180910390f35b61030161035a3660046130a7565b610b17565b61037261036d366004613111565b610ced565b6040516103439190613190565b61039261038d3660046131a1565b610d99565b60405161034391906131e7565b6103726103ad36600461305f565b610dd1565b6103ee6103c036600461305f565b607460205260009081526040902080546001820154600290920154909160ff80821692610100909204169084565b60405161034394939291906131fd565b61030161040c36600461305f565b610dea565b61030161041f3660046130a7565b610e7d565b61042c610f46565b604051610343919061330e565b61037261044736600461305f565b6110c3565b6104aa61045a366004612ff4565b8051602081830181018051606c825292820191909301209152805460018201546002830154600384015460048501546005909501546001600160a01b03851695600160a01b90950460ff16949087565b604051610343979695949392919061331f565b6103016104cb36600461305f565b611190565b6103926104de366004612ff4565b611223565b6105066104f136600461305f565b606f6020526000908152604090205460ff1681565b6040516103439190613387565b6103016105213660046133a8565b61126d565b61039261053436600461305f565b6070602052600090815260409020546001600160a01b031681565b606a54610392906001600160a01b031681565b6103016115dc565b6103016105783660046130a7565b611612565b6033546001600160a01b0316610392565b606854610392906001600160a01b031681565b6103016105af36600461305f565b611821565b6103366105c236600461305f565b60766020526000908152604090205481565b606754610392906001600160a01b031681565b6103926105f53660046134a4565b6118b4565b610301610608366004613111565b611a47565b61030161061b36600461305f565b611ad2565b61030161062e366004613522565b611bbe565b606554610646906001600160a01b031681565b60405161034391906135aa565b6103016106613660046135b8565b611c8c565b606654610646906001600160a01b031681565b610336606b5481565b610695610690366004612ff4565b611eae565b6040516103439190613605565b6103366106b0366004613613565b6001600160a01b03918216600090815260726020908152604080832093909416825291909152205490565b6103016106e9366004613635565b611f7c565b606954610392906001600160a01b031681565b61030161070f3660046134a4565b61200f565b610372610722366004613659565b612278565b610301610735366004613706565b6123e0565b61030161074836600461305f565b612513565b61030161075b36600461305f565b6125a6565b806000606c82604051610773919061379a565b9081526020016040518091039020600501549050804210156107b05760405162461bcd60e51b81526004016107a7906137fe565b60405180910390fd5b8260006107bc82611223565b6001600160a01b038116600090815260746020526040902060010154909150610100900460ff16156108005760405162461bcd60e51b81526004016107a790613866565b600061080b86611223565b6001600160a01b0381166000908152607460209081526040808320607190925282208054939450909261083d9061388c565b80601f01602080910402602001604051908101604052809291908181526020018280546108699061388c565b80156108b65780601f1061088b576101008083540402835291602001916108b6565b820191906000526020600020905b81548152906001019060200180831161089957829003601f168201915b50506066546040517ff66a1b710000000000000000000000000000000000000000000000000000000081529495506000946001600160a01b03909116935063f66a1b71925061090a91508590600401613190565b6020604051808303816000875af1158015610929573d6000803e3d6000fd5b505050506040513d601f19601f8201168201806040525081019061094d91906138c3565b60018401805461ff001916610100179055808455604051909150600090606c90610978908c9061379a565b908152604080516020928190038301812060e08201835280546001600160a01b0381168352600160a01b900460ff1615159382019390935260018301549181019190915260028201546060820152600382015460808201819052600483015460a083015260059092015460c0820152915060009083108015906109fc575081602001515b9050600082608001518411158015610a1657508260200151155b905060008280610a235750815b610a2e576000610a31565b60015b60018801805460ff19168215151790556040519091507f4f7bb4bf5b5d9e711ae7506fc1acd843eea9f216861a09c312fefb7e05095a3690610a78908f90889085906138e4565b60405180910390a150505050505050505050505050565b6033546001600160a01b03163314610ab95760405162461bcd60e51b81526004016107a790613941565b6001600160a01b0381166000908152606f602052604090819020805460ff19166001179055517f86b377b6d485043d4a8b2b0c26051f82529ea2d7c23b1188598416473c12309390610b0c9083906131e7565b60405180910390a150565b826000606c82604051610b2a919061379a565b908152602001604051809103902060050154905080421015610b5e5760405162461bcd60e51b81526004016107a7906137fe565b84846000610b6b83611223565b6001600160a01b03818116600090815260706020526040902054919250838116911614610baa5760405162461bcd60e51b81526004016107a7906139a9565b6000610bb589611223565b6001600160a01b03811660009081526074602090815260409182902082516080810184528154808252600183015460ff80821615159584019590955261010090049093161515938101939093526002015460608301529192509015801590610c1e575080604001515b610c3a5760405162461bcd60e51b81526004016107a7906139eb565b8060200151610c5b5760405162461bcd60e51b81526004016107a790613a53565b6000610c678a8a612602565b9050610c7d6001600160a01b038b1633836126c0565b604051632770a7eb60e21b815283906001600160a01b03821690639dc29fac90610cad9033908e90600401613a63565b600060405180830381600087803b158015610cc757600080fd5b505af1158015610cdb573d6000803e3d6000fd5b50505050505050505050505050505050565b606e8181548110610cfd57600080fd5b906000526020600020016000915090508054610d189061388c565b80601f0160208091040260200160405190810160405280929190818152602001828054610d449061388c565b8015610d915780601f10610d6657610100808354040283529160200191610d91565b820191906000526020600020905b815481529060010190602001808311610d7457829003601f168201915b505050505081565b60736020528160005260406000208181548110610db557600080fd5b6000918252602090912001546001600160a01b03169150829050565b606d6020526000908152604090208054610d189061388c565b6033546001600160a01b03163314610e145760405162461bcd60e51b81526004016107a790613941565b6068546040517ff4b601aa15ee1d2340ac8d1e8f1ddf16fe98866801b5c057bec51086aa6d750291610e53916001600160a01b03909116908490613a7e565b60405180910390a1606880546001600160a01b0319166001600160a01b0392909216919091179055565b826000606c82604051610e90919061379a565b908152602001604051809103902060040154905080421115610ec45760405162461bcd60e51b81526004016107a790613af1565b84846000610ed183611223565b6001600160a01b03818116600090815260706020526040902054919250838116911614610f105760405162461bcd60e51b81526004016107a7906139a9565b60008611610f305760405162461bcd60e51b81526004016107a790613b33565b610f3c88888833612748565b5050505050505050565b606e5460609060008167ffffffffffffffff811115610f6757610f67612efe565b604051908082528060200260200182016040528015610fe357816020015b610fd06040518060e0016040528060006001600160a01b0316815260200160001515815260200160008152602001600081526020016000815260200160008152602001600081525090565b815260200190600190039081610f855790505b50905060005b828110156110bc57606c606e828154811061100657611006613b43565b9060005260206000200160405161101d9190613bc7565b90815260408051918290036020908101832060e08401835280546001600160a01b038116855260ff600160a01b909104161515918401919091526001810154918301919091526002810154606083015260038101546080830152600481015460a08301526005015460c0820152825183908390811061109e5761109e613b43565b602002602001018190525080806110b490613be7565b915050610fe9565b5092915050565b6001600160a01b0381166000908152606d602052604090208054606091906110ea9061388c565b80601f01602080910402602001604051908101604052809291908181526020018280546111169061388c565b80156111635780601f1061113857610100808354040283529160200191611163565b820191906000526020600020905b81548152906001019060200180831161114657829003601f168201915b50505050509050600081511161118b5760405162461bcd60e51b81526004016107a790613c32565b919050565b6033546001600160a01b031633146111ba5760405162461bcd60e51b81526004016107a790613941565b606a546040517f5a1397fff7d6f4aaebc9effcfc3a2fa8e89631d59ec574c1eaef6d709b5c9ab0916111f9916001600160a01b03909116908490613a7e565b60405180910390a1606a80546001600160a01b0319166001600160a01b0392909216919091179055565b6000606c82604051611235919061379a565b908152604051908190036020019020546001600160a01b031690508061118b5760405162461bcd60e51b81526004016107a790613c74565b6033546001600160a01b031633146112975760405162461bcd60e51b81526004016107a790613941565b601286111580156112a9575060128511155b6112c55760405162461bcd60e51b81526004016107a790613cb6565b84886001600160a01b031663313ce5676040518163ffffffff1660e01b8152600401602060405180830381865afa158015611304573d6000803e3d6000fd5b505050506040513d601f19601f820116820180604052508101906113289190613cda565b60ff16146113485760405162461bcd60e51b81526004016107a790613d2d565b4282116113675760405162461bcd60e51b81526004016107a790613d6f565b818110156113875760405162461bcd60e51b81526004016107a790613db1565b60006113968a88878b88612278565b6065546040517f87f0061a0000000000000000000000000000000000000000000000000000000081529192506000916001600160a01b03909116906387f0061a906113e79085908b90600401613dc1565b6020604051808303816000875af1158015611406573d6000803e3d6000fd5b505050506040513d601f19601f8201168201806040525081019061142a9190613dec565b90506040518060e00160405280826001600160a01b031681526020018a1515815260200189815260200188815260200187815260200185815260200184815250606c8360405161147a919061379a565b9081526040805191829003602090810190922083518154858501511515600160a01b027fffffffffffffffffffffff0000000000000000000000000000000000000000009091166001600160a01b0392831617178255848301516001830155606085015160028301556080850151600383015560a0850151600483015560c090940151600590910155918316600090815260718252919091208c51611521928e0190612e65565b506001600160a01b0381166000908152606d60209081526040909120835161154b92850190612e65565b50606e8054600181018255600091909152825161158f917f9930d9ff0dee0ef5ca2f7710ea66b8f84dd0f5f5351ecffe72b952cd9db7142a01906020850190612e65565b507f5c781be7034983eed256e8250b1df5111e452c6dd41a3e415bdeda1cac92348882828987876040516115c7959493929190613e0d565b60405180910390a15050505050505050505050565b6033546001600160a01b031633146116065760405162461bcd60e51b81526004016107a790613941565b61161060006128f8565b565b826000606c82604051611625919061379a565b9081526020016040518091039020600401549050804211156116595760405162461bcd60e51b81526004016107a790613af1565b8484600061166683611223565b6001600160a01b038181166000908152607060205260409020549192508381169116146116a55760405162461bcd60e51b81526004016107a7906139a9565b60006116b089611223565b3360009081526072602090815260408083206001600160a01b03851684529091529020549091508711156116f65760405162461bcd60e51b81526004016107a790613e90565b3360009081526072602090815260408083206001600160a01b038516845290915281208054899290611729908490613ea0565b909155506000905061173b8989612602565b90506117516001600160a01b038a1633836126c0565b604051632770a7eb60e21b815282906001600160a01b03821690639dc29fac906117819033908d90600401613a63565b600060405180830381600087803b15801561179b57600080fd5b505af11580156117af573d6000803e3d6000fd5b50505050896001600160a01b03168b6040516117cb919061379a565b6040518091039020336001600160a01b03167fae452465b27fa0406f99c961c3bbf8215e6dabe24c0da5dd5981206d9038500a8c60405161180c9190613088565b60405180910390a45050505050505050505050565b6033546001600160a01b0316331461184b5760405162461bcd60e51b81526004016107a790613941565b6069546040517f991cc531d0c7ce0a4a8db8a26f722bbbe727c8f45445520fa447050bb313457f9161188a916001600160a01b03909116908490613a7e565b60405180910390a1606980546001600160a01b0319166001600160a01b0392909216919091179055565b6001600160a01b0383166000908152606f6020526040812054849060ff1615156001146118f35760405162461bcd60e51b81526004016107a790613f0f565b8560006001600160a01b0316606c8260405161190f919061379a565b908152604051908190036020019020546001600160a01b0316036119455760405162461bcd60e51b81526004016107a790613f77565b6033546001600160a01b03163314806119685750606a546001600160a01b031633145b6119845760405162461bcd60e51b81526004016107a790613fb9565b4285116119a35760405162461bcd60e51b81526004016107a790613d6f565b606c876040516119b3919061379a565b90815260200160405180910390206004015485146119e35760405162461bcd60e51b81526004016107a790614021565b60006119ee88611223565b905060006119fe8289898961294a565b90507f04c12766244f2559dd215eecd69f70fdfce0e2c2260b5d52cb8b63738622eaa481838a604051611a3393929190614031565b60405180910390a198975050505050505050565b6033546001600160a01b03163314611a715760405162461bcd60e51b81526004016107a790613941565b600a811115611a925760405162461bcd60e51b81526004016107a79061408b565b7f5102efe34236afea4a39241911bce7d2001cd809276c20be9dceb33a59c13cc6606b5482604051611ac592919061409b565b60405180910390a1606b55565b6067546001600160a01b031615801590611af657506068546001600160a01b031615155b611b125760405162461bcd60e51b81526004016107a790614101565b6001600160a01b03811660009081526075602090815260408083205460769092529091205481151580611b455750600081115b611b615760405162461bcd60e51b81526004016107a790614143565b606754611b7b906001600160a01b038581169116846126c0565b606854611b95906001600160a01b038581169116836126c0565b50506001600160a01b031660009081526075602090815260408083208390556076909152812055565b600054610100900460ff16611bd95760005460ff1615611bdd565b303b155b611bf95760405162461bcd60e51b81526004016107a7906141ab565b600054610100900460ff16158015611c1b576000805461ffff19166101011790555b611c23612a1b565b6001600160a01b038085166000908152606f60205260409020805460ff19166001179055606580548583166001600160a01b03199182161790915560668054928516929091169190911790556002606b558015611c86576000805461ff00191690555b50505050565b816000606c82604051611c9f919061379a565b908152602001604051809103902060050154905080421015611cd35760405162461bcd60e51b81526004016107a7906137fe565b83836000611ce083611223565b6001600160a01b03818116600090815260706020526040902054919250838116911614611d1f5760405162461bcd60e51b81526004016107a7906139a9565b6000611d2a88611223565b6001600160a01b03811660009081526074602090815260409182902082516080810184528154808252600183015460ff80821615159584019590955261010090049093161515938101939093526002015460608301529192509015801590611d93575080604001515b611daf5760405162461bcd60e51b81526004016107a7906139eb565b602081015115611dd15760405162461bcd60e51b81526004016107a790614213565b3360009081526072602090815260408083206001600160a01b038616845290915290205480611e125760405162461bcd60e51b81526004016107a79061427b565b6000611e1e8a83612602565b9050611e346001600160a01b038b1633836126c0565b3360009081526072602090815260408083206001600160a01b0388811685529252808320929092559051908b1690611e6d908d9061379a565b6040518091039020336001600160a01b03167f03562b7020b16271daf63f8af4dfad66194d3a83359909327c31983326b1287f8460405161180c9190613088565b611ef96040518060e0016040528060006001600160a01b0316815260200160001515815260200160008152602001600081526020016000815260200160008152602001600081525090565b606c82604051611f09919061379a565b90815260408051918290036020908101832060e08401835280546001600160a01b038116855260ff600160a01b909104161515918401919091526001810154918301919091526002810154606083015260038101546080830152600481015460a08301526005015460c082015292915050565b606a546001600160a01b03163314611fa65760405162461bcd60e51b81526004016107a7906142bd565b6001600160a01b0380841660009081526072602090815260408083209386168352929052819020829055517feebcbef3192071bb2337eab3d89bd9a6b2cfb3218aae8627e9c1eab826b88ace90612002908590859085906142cd565b60405180910390a1505050565b6033546001600160a01b031633146120395760405162461bcd60e51b81526004016107a790613941565b600061204485611223565b6001600160a01b03811660009081526074602090815260409182902082516080810184528154808252600183015460ff808216151595840195909552610100900490931615159381019390935260020154606083015291925090158015906120b25750604081015115156001145b6120ce5760405162461bcd60e51b81526004016107a7906139eb565b6020810151156120f05760405162461bcd60e51b81526004016107a790614213565b6001600160a01b038216600090815260736020526040812054606083015181101561212d5760405162461bcd60e51b81526004016107a790614327565b85158015612139575084155b156121b75761214b8488600084612a4a565b6121559083614337565b6001600160a01b038516600090815260746020526040808220600201849055519193507fb882f84541d4c34087dd3a3971b96ad170bc52a7907def174bb86f986bce6e2c916121aa918b918b91908690614364565b60405180910390a1610f3c565b858360600151146121da5760405162461bcd60e51b81526004016107a7906143e9565b8085106121f95760405162461bcd60e51b81526004016107a79061442b565b61220584888888612a4a565b61220f9083614337565b6001600160a01b03851660009081526074602052604090819020600201879055519092507fb882f84541d4c34087dd3a3971b96ad170bc52a7907def174bb86f986bce6e2c90612266908a908a908a908a9061443b565b60405180910390a15050505050505050565b60606000836122bc576040518060400160405280600181526020017f4c000000000000000000000000000000000000000000000000000000000000008152506122f3565b6040518060400160405280600181526020017f48000000000000000000000000000000000000000000000000000000000000008152505b90506000612309670de0b6b3a76400008761447e565b90506000811161232b5760405162461bcd60e51b81526004016107a7906144c4565b6000612338886012613ea0565b61234390600a6145e2565b61235790670de0b6b3a7640000890661447e565b9050600288106123955761236c600189613ea0565b61237790600a6145e2565b81116123955760405162461bcd60e51b81526004016107a790614623565b6000896123a184612b45565b6123aa84612b45565b86896040516020016123c0959493929190614685565b60408051601f198184030181529190529450505050505b95945050505050565b836000606c826040516123f3919061379a565b9081526020016040518091039020600401549050804211156124275760405162461bcd60e51b81526004016107a790613af1565b8585600061243483611223565b6001600160a01b038181166000908152607060205260409020549192508381169116146124735760405162461bcd60e51b81526004016107a7906139a9565b6069546001600160a01b0316331461249d5760405162461bcd60e51b81526004016107a790614743565b600087116124bd5760405162461bcd60e51b81526004016107a790613b33565b6124c989898989612748565b7f99f877ebe25ff1544a89db7db58d9d0b180af2288344cf1792272a4a07fd7c9933878b8b8b604051612500959493929190614753565b60405180910390a1505050505050505050565b6033546001600160a01b0316331461253d5760405162461bcd60e51b81526004016107a790613941565b6067546040517f5bbcd5c9a4c18f44ac2b1174e1034735fda1eb2008b8cc091ef347c7f6b9690a9161257c916001600160a01b03909116908490613a7e565b60405180910390a1606780546001600160a01b0319166001600160a01b0392909216919091179055565b6033546001600160a01b031633146125d05760405162461bcd60e51b81526004016107a790613941565b6001600160a01b0381166125f65760405162461bcd60e51b81526004016107a7906147e7565b6125ff816128f8565b50565b6000806103e8612614846103de6147f7565b61261e919061447e565b9050600061262c8285613ea0565b90506000600a606b548361264091906147f7565b61264a919061447e565b6001600160a01b038716600090815260756020526040812080549293508392909190612677908490614337565b9091555061268790508183613ea0565b6001600160a01b038716600090815260766020526040812080549091906126af908490614337565b909155509293505050505b92915050565b6127438363a9059cbb60e01b84846040516024016126df929190613a63565b60408051601f198184030181529190526020810180517bffffffffffffffffffffffffffffffffffffffffffffffffffffffff167fffffffff0000000000000000000000000000000000000000000000000000000090931692909217909152612c7a565b505050565b600061275385611223565b6001600160a01b038084166000908152607260209081526040808320938516835292905290812054919250036127c2576001600160a01b0381811660009081526073602090815260408220805460018101825590835291200180546001600160a01b0319169184169190911790555b6001600160a01b038083166000908152607260209081526040808320938516835292905290812080548592906127f9908490614337565b9091555061281490506001600160a01b038516833086612d09565b6040517f40c10f1900000000000000000000000000000000000000000000000000000000815281906001600160a01b038216906340c10f199061285d9086908890600401613a63565b600060405180830381600087803b15801561287757600080fd5b505af115801561288b573d6000803e3d6000fd5b50505050846001600160a01b0316866040516128a7919061379a565b6040518091039020846001600160a01b03167faad69ef0c77f7c04ba3390022ae56a77ba8686b6cd9530eff3a0a8c38d33e5ad876040516128e89190613088565b60405180910390a4505050505050565b603380546001600160a01b038381166001600160a01b0319831681179093556040519116919082907f8be0079c531659141344cd1fd0a4f28419497f9722a3daafe3b4186f6b6457e090600090a35050565b6065546040517f3a5f69f800000000000000000000000000000000000000000000000000000000815260009182916001600160a01b0390911690633a5f69f89061299e908990899089908990600401614816565b6020604051808303816000875af11580156129bd573d6000803e3d6000fd5b505050506040513d601f19601f820116820180604052508101906129e19190613dec565b6001600160a01b03878116600090815260706020526040902080546001600160a01b0319169188169190911790559150505b949350505050565b600054610100900460ff16612a425760405162461bcd60e51b81526004016107a790614889565b611610612d2a565b6000825b82811015612b3c576001600160a01b0386166000908152607360205260408120805483908110612a8057612a80613b43565b60009182526020808320909101546001600160a01b03908116808452607283526040808520928c1685529190925282205490925090612abf8883612602565b90508015612b1e57612adb6001600160a01b03891684836126c0565b6001600160a01b038084166000908152607260209081526040808320938d16835292905290812055612b0d8183613ea0565b612b179086614337565b9450612b26565b505050612b2a565b5050505b80612b3481613be7565b915050612a4e565b50949350505050565b606081600003612b8857505060408051808201909152600181527f3000000000000000000000000000000000000000000000000000000000000000602082015290565b8160005b8115612bb25780612b9c81613be7565b9150612bab9050600a8361447e565b9150612b8c565b60008167ffffffffffffffff811115612bcd57612bcd612efe565b6040519080825280601f01601f191660200182016040528015612bf7576020820181803683370190505b5090505b8415612a1357612c0c600183613ea0565b9150612c19600a86614899565b612c24906030614337565b60f81b818381518110612c3957612c39613b43565b60200101907effffffffffffffffffffffffffffffffffffffffffffffffffffffffffffff1916908160001a905350612c73600a8661447e565b9450612bfb565b6000612ccf826040518060400160405280602081526020017f5361666545524332303a206c6f772d6c6576656c2063616c6c206661696c6564815250856001600160a01b0316612d5a9092919063ffffffff16565b8051909150156127435780806020019051810190612ced91906148b8565b6127435760405162461bcd60e51b81526004016107a790614931565b611c86846323b872dd60e01b8585856040516024016126df939291906142cd565b600054610100900460ff16612d515760405162461bcd60e51b81526004016107a790614889565b611610336128f8565b6060612d698484600085612d73565b90505b9392505050565b606082471015612d955760405162461bcd60e51b81526004016107a790614999565b843b612db35760405162461bcd60e51b81526004016107a7906149db565b600080866001600160a01b03168587604051612dcf919061379a565b60006040518083038185875af1925050503d8060008114612e0c576040519150601f19603f3d011682016040523d82523d6000602084013e612e11565b606091505b5091509150612e21828286612e2c565b979650505050505050565b60608315612e3b575081612d6c565b825115612e4b5782518084602001fd5b8160405162461bcd60e51b81526004016107a79190613190565b828054612e719061388c565b90600052602060002090601f016020900481019282612e935760008555612ed9565b82601f10612eac57805160ff1916838001178555612ed9565b82800160010185558215612ed9579182015b82811115612ed9578251825591602001919060010190612ebe565b50612ee5929150612ee9565b5090565b5b80821115612ee55760008155600101612eea565b634e487b7160e01b600052604160045260246000fd5b601f19601f830116810181811067ffffffffffffffff82111715612f3a57612f3a612efe565b6040525050565b6000612f4c60405190565b905061118b8282612f14565b600067ffffffffffffffff821115612f7257612f72612efe565b601f19601f83011660200192915050565b82818337506000910152565b6000612fa2612f9d84612f58565b612f41565b905082815260208101848484011115612fbd57612fbd600080fd5b612fc8848285612f83565b509392505050565b600082601f830112612fe457612fe4600080fd5b8135612a13848260208601612f8f565b60006020828403121561300957613009600080fd5b813567ffffffffffffffff81111561302357613023600080fd5b612a1384828501612fd0565b60006001600160a01b0382166126ba565b6130498161302f565b81146125ff57600080fd5b80356126ba81613040565b60006020828403121561307457613074600080fd5b6000612a138484613054565b805b82525050565b602081016126ba8284613080565b80613049565b80356126ba81613096565b6000806000606084860312156130bf576130bf600080fd5b833567ffffffffffffffff8111156130d9576130d9600080fd5b6130e586828701612fd0565b93505060206130f686828701613054565b92505060406131078682870161309c565b9150509250925092565b60006020828403121561312657613126600080fd5b6000612a13848461309c565b60005b8381101561314d578181015183820152602001613135565b83811115611c865750506000910152565b6000613168825190565b80845260208401935061317f818560208601613132565b601f01601f19169290920192915050565b60208082528101612d6c818461315e565b600080604083850312156131b7576131b7600080fd5b60006131c38585613054565b92505060206131d48582860161309c565b9150509250929050565b6130828161302f565b602081016126ba82846131de565b801515613082565b6080810161320b8287613080565b61321860208301866131f5565b61322560408301856131f5565b6123d76060830184613080565b805161323e83826131de565b50602081015161325160208401826131f5565b5060408101516132646040840182613080565b5060608101516132776060840182613080565b50608081015161328a6080840182613080565b5060a081015161329d60a0840182613080565b5060c081015161274360c0840182613080565b6132ba8282613232565b5060e00190565b60200190565b60006132d1825190565b808452602093840193830160005b828110156133045781516132f387826132b0565b9650506020820191506001016132df565b5093949350505050565b60208082528101612d6c81846132c7565b60e0810161332d828a6131de565b61333a60208301896131f5565b6133476040830188613080565b6133546060830187613080565b6133616080830186613080565b61336e60a0830185613080565b61337b60c0830184613080565b98975050505050505050565b602081016126ba82846131f5565b801515613049565b80356126ba81613395565b60008060008060008060008060006101208a8c0312156133ca576133ca600080fd5b893567ffffffffffffffff8111156133e4576133e4600080fd5b6133f08c828d01612fd0565b99505060206134018c828d01613054565b98505060406134128c828d0161339d565b97505060606134238c828d0161309c565b96505060806134348c828d0161309c565b95505060a06134458c828d0161309c565b94505060c08a013567ffffffffffffffff81111561346557613465600080fd5b6134718c828d01612fd0565b93505060e06134828c828d0161309c565b9250506101006134948c828d0161309c565b9150509295985092959850929598565b600080600080608085870312156134bd576134bd600080fd5b843567ffffffffffffffff8111156134d7576134d7600080fd5b6134e387828801612fd0565b94505060206134f487828801613054565b93505060406135058782880161309c565b92505060606135168782880161309c565b91505092959194509250565b60008060006060848603121561353a5761353a600080fd5b60006135468686613054565b935050602061355786828701613054565b925050604061310786828701613054565b60006126ba6001600160a01b03831661357f565b90565b6001600160a01b031690565b60006126ba82613568565b60006126ba8261358b565b61308281613596565b602081016126ba82846135a1565b600080604083850312156135ce576135ce600080fd5b823567ffffffffffffffff8111156135e8576135e8600080fd5b6135f485828601612fd0565b92505060206131d485828601613054565b60e081016126ba8284613232565b6000806040838503121561362957613629600080fd5b60006135f48585613054565b60008060006060848603121561364d5761364d600080fd5b60006130e58686613054565b600080600080600060a0868803121561367457613674600080fd5b853567ffffffffffffffff81111561368e5761368e600080fd5b61369a88828901612fd0565b95505060206136ab8882890161309c565b94505060406136bc8882890161309c565b93505060606136cd8882890161339d565b925050608086013567ffffffffffffffff8111156136ed576136ed600080fd5b6136f988828901612fd0565b9150509295509295909350565b6000806000806080858703121561371f5761371f600080fd5b843567ffffffffffffffff81111561373957613739600080fd5b61374587828801612fd0565b945050602061375687828801613054565b93505060406137678782880161309c565b925050606061351687828801613054565b6000613782825190565b613790818560208601613132565b9290920192915050565b6126ba8183613778565b60368152602081017f43616e206e6f7420736574746c652f636c61696d2c2068617665206e6f74207281527f65616368656420736574746c6554696d657374616d7000000000000000000000602082015290505b60400190565b602080825281016126ba816137a4565b60248152602081017f5468697320706f6c6963792068617320616c7265616479206265656e2073657481527f746c656400000000000000000000000000000000000000000000000000000000602082015290506137f8565b602080825281016126ba8161380e565b634e487b7160e01b600052602260045260246000fd5b6002810460018216806138a057607f821691505b6020821081036138b2576138b2613876565b50919050565b80516126ba81613096565b6000602082840312156138d8576138d8600080fd5b6000612a1384846138b8565b606080825281016138f5818661315e565b90506139046020830185613080565b612a1360408301846131f5565b60208082527f4f776e61626c653a2063616c6c6572206973206e6f7420746865206f776e657291019081526132c1565b602080825281016126ba81613911565b60238152602081017f496e76616c696420706f6c696379746f6b656e207769746820737461626c656381527f6f696e0000000000000000000000000000000000000000000000000000000000602082015290506137f8565b602080825281016126ba81613951565b601e8152602081017f48617665206e6f7420676f7420746865206f7261636c6520726573756c740000815290506132c1565b602080825281016126ba816139b9565b602d8152602081017f54686520726573756c7420646f6573206e6f742068617070656e2c20796f752081527f63616e206e6f7420636c61696d00000000000000000000000000000000000000602082015290506137f8565b602080825281016126ba816139fb565b60408101613a7182856131de565b612d6c6020830184613080565b60408101613a8c82856131de565b612d6c60208301846131de565b602f8152602081017f43616e206e6f74206465706f7369742f72656465656d2c20686173207061737381527f65642074686520646561646c696e650000000000000000000000000000000000602082015290506137f8565b602080825281016126ba81613a99565b600b8152602081017f5a65726f20416d6f756e74000000000000000000000000000000000000000000815290506132c1565b602080825281016126ba81613b01565b634e487b7160e01b600052603260045260246000fd5b60008154613b668161388c565b600182168015613b7d5760018114613b8e57613bbe565b60ff19831686528186019350613bbe565b60008581526020902060005b83811015613bb657815488820152600190910190602001613b9a565b505081860193505b50505092915050565b6126ba8183613b59565b634e487b7160e01b600052601160045260246000fd5b600060018201613bf957613bf9613bd1565b5060010190565b60158152602081017f506f6c696379206e616d65206e6f7420666f756e640000000000000000000000815290506132c1565b602080825281016126ba81613c00565b60168152602081017f506f6c69637920746f6b656e206e6f7420666f756e6400000000000000000000815290506132c1565b602080825281016126ba81613c42565b60118152602081017f546f6f206d616e7920646563696d616c73000000000000000000000000000000815290506132c1565b602080825281016126ba81613c84565b60ff8116613049565b80516126ba81613cc6565b600060208284031215613cef57613cef600080fd5b6000612a138484613ccf565b60138152602081017f446563696d616c73206e6f742070616972656400000000000000000000000000815290506132c1565b602080825281016126ba81613cfb565b600e8152602081017f57726f6e6720646561646c696e65000000000000000000000000000000000000815290506132c1565b602080825281016126ba81613d3d565b60158152602081017f57726f6e6720736574746c6554696d657374616d700000000000000000000000815290506132c1565b602080825281016126ba81613d7f565b60408082528101613dd2818561315e565b9050612d6c6020830184613080565b80516126ba81613040565b600060208284031215613e0157613e01600080fd5b6000612a138484613de1565b60a08082528101613e1e818861315e565b9050613e2d60208301876131de565b613e3a6040830186613080565b613e476060830185613080565b613e546080830184613080565b9695505050505050565b601b8152602081017f5573657227732071756f7461206e6f742073756666696369656e740000000000815290506132c1565b602080825281016126ba81613e5e565b600082821015613eb257613eb2613bd1565b500390565b60288152602081017f446f206e6f7420737570706f7274207468697320737461626c65636f696e206381527f757272656e746c79000000000000000000000000000000000000000000000000602082015290506137f8565b602080825281016126ba81613eb7565b603f8152602081017f5468697320706f6c69637920746f6b656e20686173206e6f74206265656e206481527f65706c6f7965642c20706c65617365206465706c6f7920697420666972737400602082015290506137f8565b602080825281016126ba81613f1f565b60118152602081017f4f6e6c79206f776e6572206f7220494c4d000000000000000000000000000000815290506132c1565b602080825281016126ba81613f87565b602b8152602081017f506f6c69637920746f6b656e20616e6420706f6f6c20646561646c696e65206e81527f6f74207468652073616d65000000000000000000000000000000000000000000602082015290506137f8565b602080825281016126ba81613fc9565b6060810161403f82866131de565b61404c60208301856131de565b612a1360408301846131de565b60068152602081017f4d61782031300000000000000000000000000000000000000000000000000000815290506132c1565b602080825281016126ba81614059565b60408101613a718285613080565b602e8152602081017f506c656173652073657420746865206c6f7474657279202620696e636f6d655381527f686172696e672061646472657373000000000000000000000000000000000000602082015290506137f8565b602080825281016126ba816140a9565b60118152602081017f4e6f2070656e64696e6720696e636f6d65000000000000000000000000000000815290506132c1565b602080825281016126ba81614111565b602e8152602081017f496e697469616c697a61626c653a20636f6e747261637420697320616c72656181527f647920696e697469616c697a6564000000000000000000000000000000000000602082015290506137f8565b602080825281016126ba81614153565b60368152602081017f4f6e6c792063616c6c20746869732066756e6374696f6e207768656e2074686581527f206576656e7420646f6573206e6f742068617070656e00000000000000000000602082015290506137f8565b602080825281016126ba816141bb565b603b8152602081017f4e6f2071756f74612c20796f7520646964206e6f74206465706f73697420616e81527f64206d696e7420706f6c69637920746f6b656e73206265666f72650000000000602082015290506137f8565b602080825281016126ba81614223565b60088152602081017f4f6e6c7920494c4d000000000000000000000000000000000000000000000000815290506132c1565b602080825281016126ba8161428b565b606081016142db82866131de565b6142e860208301856131de565b612a136040830184613080565b60148152602081017f4861766520646973747269627574656420616c6c000000000000000000000000815290506132c1565b602080825281016126ba816142f5565b6000821982111561434a5761434a613bd1565b500190565b60006126ba61357c8381565b6130828161434f565b60808082528101614375818761315e565b905061438460208301866131de565b613225604083018561435b565b60328152602081017f596f75206e65656420746f2073746172742066726f6d20746865206c6173742081527f646973747269627574696f6e20706f696e740000000000000000000000000000602082015290506137f8565b602080825281016126ba81614391565b60128152602081017f496e76616c69642073746f7020696e6465780000000000000000000000000000815290506132c1565b602080825281016126ba816143f9565b6080808252810161444c818761315e565b905061445b60208301866131de565b6132256040830185613080565b634e487b7160e01b600052601260045260246000fd5b60008261448d5761448d614468565b500490565b60108152602081017f496e76616c696420696e74207061727400000000000000000000000000000000815290506132c1565b602080825281016126ba81614492565b80825b6001851115614513578086048111156144f2576144f2613bd1565b600185161561450057908102905b800261450c8560011c90565b94506144d7565b94509492505050565b60008261452b57506001612d6c565b8161453857506000612d6c565b816001811461454e576002811461455857614585565b6001915050612d6c565b60ff84111561456957614569613bd1565b8360020a91508482111561457f5761457f613bd1565b50612d6c565b5060208310610133831016604e8410600b84101617156145b8575081810a838111156145b3576145b3613bd1565b612d6c565b6145c584848460016144d4565b925090508184048111156145db576145db613bd1565b0292915050565b6000612d6c600019848461451c565b60148152602081017f496e76616c696420646563696d616c2070617274000000000000000000000000815290506132c1565b602080825281016126ba816145f1565b7f5f0000000000000000000000000000000000000000000000000000000000000081525b60010190565b7f2e000000000000000000000000000000000000000000000000000000000000008152614657565b61468f8187613778565b905061469a81614633565b90506146a68186613778565b90506146b18161465d565b90506146bd8185613778565b90506146c881614633565b90506146d48184613778565b90506146df81614633565b9050613e548183613778565b60258152602081017f4f6e6c792074686520726f7574657220636f6e74726163742063616e2064656c81527f6567617465000000000000000000000000000000000000000000000000000000602082015290506137f8565b602080825281016126ba816146eb565b60a0810161476182886131de565b61476e60208301876131de565b8181036040830152614780818661315e565b9050613e4760608301856131de565b60268152602081017f4f776e61626c653a206e6577206f776e657220697320746865207a65726f206181527f6464726573730000000000000000000000000000000000000000000000000000602082015290506137f8565b602080825281016126ba8161478f565b600081600019048311821515161561481157614811613bd1565b500290565b6080810161482482876131de565b61445b60208301866131de565b602b8152602081017f496e697469616c697a61626c653a20636f6e7472616374206973206e6f74206981527f6e697469616c697a696e67000000000000000000000000000000000000000000602082015290506137f8565b602080825281016126ba81614831565b6000826148a8576148a8614468565b500690565b80516126ba81613395565b6000602082840312156148cd576148cd600080fd5b6000612a1384846148ad565b602a8152602081017f5361666545524332303a204552433230206f7065726174696f6e20646964206e81527f6f74207375636365656400000000000000000000000000000000000000000000602082015290506137f8565b602080825281016126ba816148d9565b60268152602081017f416464726573733a20696e73756666696369656e742062616c616e636520666f81527f722063616c6c0000000000000000000000000000000000000000000000000000602082015290506137f8565b602080825281016126ba81614941565b601d8152602081017f416464726573733a2063616c6c20746f206e6f6e2d636f6e7472616374000000815290506132c1565b602080825281016126ba816149a956fea26469706673582212208259a46610e0ffc65a7966355b0f9f12e07724f15e3ac9088c053f38d978801364736f6c634300080d0033",
  "devdoc": {
    "details": "Most of the functions to be called from outside will use the name of policyToken         rather than the address (easy to read).         Other variables or functions still use address to index.         The rule of policyToken naming is:              Original Token Name(with decimals) + Strike Price + Lower or Higher + Date         E.g.  AVAX_30.0_L_2101, BTC_30000.0_L_2102, ETH_8000.0_H_2109         (the original name need to be the same as in the chainlink oracle)         There are three decimals for a policy token:              1. Name decimals: Only for generating the name of policyToken              2. Token decimals: The decimals of the policyToken                 (should be the same as the paired stablecoin)              3. Price decimals: Always 18. The oracle result will be transferred for settlement",
    "kind": "dev",
    "methods": {
      "_generateName(string,uint256,uint256,bool,string)": {
        "params": {
          "_decimals": "Decimals of the name generation (0,1=>1, 2=>2)",
          "_isCall": "The policy's payoff is triggered when higher(true) or lower(false)",
          "_round": "Round of the policy, named by <month><day> (e.g. 0320, 1215)",
          "_strikePrice": "Strike price of the policy (18 decimals)",
          "_tokenName": "Name of the stike token (BTC, ETH, AVAX...)"
        }
      },
      "addStablecoin(address)": {
        "params": {
          "_newStablecoin": "Address of the new stablecoin"
        }
      },
      "claim(string,address,uint256)": {
        "details": "It is done after result settlement and only if the result is true",
        "params": {
          "_amount": "Amount of stablecoin",
          "_policyTokenName": "Name of the policy token",
          "_stablecoin": "Address of the stable coin"
        }
      },
      "collectIncome(address)": {
        "details": "Can be done by anyone, only when there is some income to be distributed",
        "params": {
          "_stablecoin": "Address of stablecoin"
        }
      },
      "delegateDeposit(string,address,uint256,address)": {
        "details": "Only called by the router contract",
        "params": {
          "_amount": "Amount of stablecoin",
          "_policyTokenName": "Name of the policy token",
          "_stablecoin": "Address of the sable coin",
          "_user": "Address to receive the policy tokens"
        }
      },
      "deployPolicyToken(string,address,bool,uint256,uint256,uint256,string,uint256,uint256)": {
        "details": "Only the owner can deploy new policy token      The name form is like \"AVAX_50_L_2203\" and is built inside the contract.",
        "params": {
          "_deadline": "Deadline of this policy token (deposit / redeem / swap)",
          "_isCall": "The policy is for higher or lower than the strike price (call / put)",
          "_nameDecimals": "Decimals of this token's name (0~18)",
          "_round": "Round of the token (e.g. 2203 -> expired at 22 March)",
          "_settleTimestamp": "Can settle after this timestamp (for oracle)",
          "_stablecoin": "Address of the stablecoin (Just for check decimals here)",
          "_strikePrice": "Strike price of the policy (have already been transferred with 1e18)",
          "_tokenDecimals": "Decimals of this token's value (0~18) (same as paired stablecoin)",
          "_tokenName": "Name of the original token (e.g. AVAX, BTC, ETH...)"
        }
      },
      "deployPool(string,address,uint256,uint256)": {
        "params": {
          "_feeRate": "Fee rate given to LP holders",
          "_policyTokenName": "Name of the policy token",
          "_poolDeadline": "Swapping deadline of the pool (normally the same as the token's deadline)",
          "_stablecoin": "Address of the stable coin"
        }
      },
      "deposit(string,address,uint256)": {
        "params": {
          "_amount": "Amount of stablecoin",
          "_policyTokenName": "Name of the policy token",
          "_stablecoin": "Address of the stable coin"
        }
      },
      "findAddressbyName(string)": {
        "params": {
          "_policyTokenName": "Name of the policy token (e.g. \"AVAX_30_L_2103\")"
        },
        "returns": {
          "policyTokenAddress": "Address of the policy token"
        }
      },
      "findNamebyAddress(address)": {
        "params": {
          "_policyTokenAddress": "Address of the policy token"
        },
        "returns": {
          "policyTokenName": "Name of the policy token"
        }
      },
      "getAllTokens()": {
        "details": "Include all active&expired tokens",
        "returns": {
          "_0": "tokensInfo Token information list"
        }
      },
      "getPolicyTokenInfo(string)": {
        "params": {
          "_policyTokenName": "Name of the policy token (e.g. \"AVAX30L202103\")"
        },
        "returns": {
          "_0": "policyTokenInfo PolicyToken detail information"
        }
      },
      "getUserQuota(address,address)": {
        "params": {
          "_policyTokenAddress": "Address of the policy token",
          "_user": "Address of the user to be checked"
        },
        "returns": {
          "_quota": "User's quota result"
        }
      },
      "initialize(address,address,address)": {
        "params": {
          "_factory": "Address of naughty factory",
          "_priceGetter": "Address of the oracle contract",
          "_usdc": "USDC.e is the first stablecoin supported in the pool"
        }
      },
      "owner()": {
        "details": "Returns the address of the current owner."
      },
      "redeem(string,address,uint256)": {
        "details": "Redeem happens before the deadline and is different from claim/settle",
        "params": {
          "_amount": "Amount to redeem",
          "_policyTokenName": "Name of the policy token",
          "_stablecoin": "Address of the stablecoin"
        }
      },
      "redeemAfterSettlement(string,address)": {
        "params": {
          "_policyTokenName": "Name of the policy token",
          "_stablecoin": "Address of the stablecoin"
        }
      },
      "renounceOwnership()": {
        "details": "Leaves the contract without owner. It will not be possible to call `onlyOwner` functions anymore. Can only be called by the current owner. NOTE: Renouncing ownership will leave the contract without an owner, thereby removing any functionality that is only available to the owner."
      },
      "setILMContract(address)": {
        "params": {
          "_ILM": "Address of the new ILM"
        }
      },
      "setIncomeSharing(address)": {
        "params": {
          "_incomeSharing": "Address of the new incomeSharing"
        }
      },
      "setIncomeToLottery(uint256)": {
        "details": "The remaining part will be distributed to incomeSharing",
        "params": {
          "_toLottery": "Proportion to lottery"
        }
      },
      "setLottery(address)": {
        "params": {
          "_lotteryAddress": "Address of the new lottery"
        }
      },
      "setNaughtyRouter(address)": {
        "params": {
          "_router": "Address of the new naughty router"
        }
      },
      "settleAllPolicyTokens(string,address,uint256,uint256)": {
        "details": "Take care of the gas cost and can use the _startIndex and _stopIndex to control the size",
        "params": {
          "_policyTokenName": "Name of policy token",
          "_stablecoin": "Address of stablecoin",
          "_startIndex": "Settlement start index",
          "_stopIndex": "Settlement stop index"
        }
      },
      "settleFinalResult(string)": {
        "params": {
          "_policyTokenName": "Name of the policy token"
        }
      },
      "transferOwnership(address)": {
        "details": "Transfers ownership of the contract to a new account (`newOwner`). Can only be called by the current owner."
      },
      "updateUserQuota(address,address,uint256)": {
        "details": "When you claim your liquidity from ILM, you will get normal quota as you are using policyCore",
        "params": {
          "_amount": "Quota amount",
          "_policyToken": "PolicyToken address",
          "_user": "User address"
        }
      }
    },
    "title": "PolicyCore",
    "version": 1
  },
  "userdoc": {
    "kind": "user",
    "methods": {
      "_generateName(string,uint256,uint256,bool,string)": {
        "notice": "Generate the policy token name"
      },
      "addStablecoin(address)": {
        "notice": "Add a new supported stablecoin"
      },
      "claim(string,address,uint256)": {
        "notice": "Claim a payoff based on policy tokens"
      },
      "collectIncome(address)": {
        "notice": "Collect the income"
      },
      "delegateDeposit(string,address,uint256,address)": {
        "notice": "Delegate deposit (deposit and mint for other addresses)"
      },
      "deployPolicyToken(string,address,bool,uint256,uint256,uint256,string,uint256,uint256)": {
        "notice": "Deploy a new policy token and return the token address"
      },
      "deployPool(string,address,uint256,uint256)": {
        "notice": "Deploy a new pair (pool)"
      },
      "deposit(string,address,uint256)": {
        "notice": "Deposit stablecoins and get policy tokens"
      },
      "findAddressbyName(string)": {
        "notice": "Find the token address by its name"
      },
      "findNamebyAddress(address)": {
        "notice": "Find the token name by its address"
      },
      "getAllTokens()": {
        "notice": "Get the information about all the tokens"
      },
      "getPolicyTokenInfo(string)": {
        "notice": "Find the token information by its name"
      },
      "getUserQuota(address,address)": {
        "notice": "Get a user's quota for a certain policy token"
      },
      "initialize(address,address,address)": {
        "notice": "Constructor, for some addresses"
      },
      "redeem(string,address,uint256)": {
        "notice": "Burn policy tokens and redeem stablecoins"
      },
      "redeemAfterSettlement(string,address)": {
        "notice": "Redeem policy tokens and get stablecoins by the user himeself"
      },
      "setILMContract(address)": {
        "notice": "Change the address of ILM"
      },
      "setIncomeSharing(address)": {
        "notice": "Change the address of emergency pool"
      },
      "setIncomeToLottery(uint256)": {
        "notice": "Change the income part to lottery"
      },
      "setLottery(address)": {
        "notice": "Change the address of lottery"
      },
      "setNaughtyRouter(address)": {
        "notice": "Change the address of naughty router"
      },
      "settleAllPolicyTokens(string,address,uint256,uint256)": {
        "notice": "Settle the policies for the users when insurance events do not happen         Funds are automatically distributed back to the depositors"
      },
      "settleFinalResult(string)": {
        "notice": "Get the final price from the PriceGetter contract"
      },
      "updateUserQuota(address,address,uint256)": {
        "notice": "Update user quota from ILM when claim"
      }
    },
    "notice": "Core logic of Naughty Price Product         Preset:              (Done in the naughtyFactory contract)              1. Deploy policyToken contract              2. Deploy policyToken-Stablecoin pool contract         User Interaction:              1. Deposit Stablecoin and mint PolicyTokens              2. Redeem their Stablecoin and burn the PolicyTokens (before settlement)              3. Claim for payout with PolicyTokens (after settlement)         PolicyTokens are minted with the ratio 1:1 to Stablecoin         The PolicyTokens are traded in the pool with CFMM (xy=k)         When the event happens, a PolicyToken can be burned for claiming 1 Stablecoin.         When the event does not happen, the PolicyToken depositors can         redeem their 1 deposited Stablecoin",
    "version": 1
  },
  "storageLayout": {
    "storage": [
      {
        "astId": 2523,
        "contract": "contracts/naughty-price/PolicyCore.sol:PolicyCore",
        "label": "_initialized",
        "offset": 0,
        "slot": "0",
        "type": "t_bool"
      },
      {
        "astId": 2526,
        "contract": "contracts/naughty-price/PolicyCore.sol:PolicyCore",
        "label": "_initializing",
        "offset": 1,
        "slot": "0",
        "type": "t_bool"
      },
      {
        "astId": 3760,
        "contract": "contracts/naughty-price/PolicyCore.sol:PolicyCore",
        "label": "__gap",
        "offset": 0,
        "slot": "1",
        "type": "t_array(t_uint256)50_storage"
      },
      {
        "astId": 2403,
        "contract": "contracts/naughty-price/PolicyCore.sol:PolicyCore",
        "label": "_owner",
        "offset": 0,
        "slot": "51",
        "type": "t_address"
      },
      {
        "astId": 2515,
        "contract": "contracts/naughty-price/PolicyCore.sol:PolicyCore",
        "label": "__gap",
        "offset": 0,
        "slot": "52",
        "type": "t_array(t_uint256)49_storage"
      },
      {
        "astId": 31077,
        "contract": "contracts/naughty-price/PolicyCore.sol:PolicyCore",
        "label": "factory",
        "offset": 0,
        "slot": "101",
        "type": "t_contract(INaughtyFactory)33205"
      },
      {
        "astId": 31080,
        "contract": "contracts/naughty-price/PolicyCore.sol:PolicyCore",
        "label": "priceGetter",
        "offset": 0,
        "slot": "102",
        "type": "t_contract(IPriceGetter)33480"
      },
      {
        "astId": 31082,
        "contract": "contracts/naughty-price/PolicyCore.sol:PolicyCore",
        "label": "lottery",
        "offset": 0,
        "slot": "103",
        "type": "t_address"
      },
      {
        "astId": 31084,
        "contract": "contracts/naughty-price/PolicyCore.sol:PolicyCore",
        "label": "incomeSharing",
        "offset": 0,
        "slot": "104",
        "type": "t_address"
      },
      {
        "astId": 31086,
        "contract": "contracts/naughty-price/PolicyCore.sol:PolicyCore",
        "label": "naughtyRouter",
        "offset": 0,
        "slot": "105",
        "type": "t_address"
      },
      {
        "astId": 31088,
        "contract": "contracts/naughty-price/PolicyCore.sol:PolicyCore",
        "label": "ILMContract",
        "offset": 0,
        "slot": "106",
        "type": "t_address"
      },
      {
        "astId": 31090,
        "contract": "contracts/naughty-price/PolicyCore.sol:PolicyCore",
        "label": "toLotteryPart",
        "offset": 0,
        "slot": "107",
        "type": "t_uint256"
      },
      {
        "astId": 31110,
        "contract": "contracts/naughty-price/PolicyCore.sol:PolicyCore",
        "label": "policyTokenInfoMapping",
        "offset": 0,
        "slot": "108",
        "type": "t_mapping(t_string_memory_ptr,t_struct(PolicyTokenInfo)31105_storage)"
      },
      {
        "astId": 31114,
        "contract": "contracts/naughty-price/PolicyCore.sol:PolicyCore",
        "label": "policyTokenAddressToName",
        "offset": 0,
        "slot": "109",
        "type": "t_mapping(t_address,t_string_storage)"
      },
      {
        "astId": 31117,
        "contract": "contracts/naughty-price/PolicyCore.sol:PolicyCore",
        "label": "allPolicyTokens",
        "offset": 0,
        "slot": "110",
        "type": "t_array(t_string_storage)dyn_storage"
      },
      {
        "astId": 31121,
        "contract": "contracts/naughty-price/PolicyCore.sol:PolicyCore",
        "label": "supportedStablecoin",
        "offset": 0,
        "slot": "111",
        "type": "t_mapping(t_address,t_bool)"
      },
      {
        "astId": 31125,
        "contract": "contracts/naughty-price/PolicyCore.sol:PolicyCore",
        "label": "whichStablecoin",
        "offset": 0,
        "slot": "112",
        "type": "t_mapping(t_address,t_address)"
      },
      {
        "astId": 31129,
        "contract": "contracts/naughty-price/PolicyCore.sol:PolicyCore",
        "label": "policyTokenToOriginal",
        "offset": 0,
        "slot": "113",
        "type": "t_mapping(t_address,t_string_storage)"
      },
      {
        "astId": 31135,
        "contract": "contracts/naughty-price/PolicyCore.sol:PolicyCore",
        "label": "userQuota",
        "offset": 0,
        "slot": "114",
        "type": "t_mapping(t_address,t_mapping(t_address,t_uint256))"
      },
      {
        "astId": 31140,
        "contract": "contracts/naughty-price/PolicyCore.sol:PolicyCore",
        "label": "allDepositors",
        "offset": 0,
        "slot": "115",
        "type": "t_mapping(t_address,t_array(t_address)dyn_storage)"
      },
      {
        "astId": 31154,
        "contract": "contracts/naughty-price/PolicyCore.sol:PolicyCore",
        "label": "settleResult",
        "offset": 0,
        "slot": "116",
        "type": "t_mapping(t_address,t_struct(SettlementInfo)31149_storage)"
      },
      {
        "astId": 31158,
        "contract": "contracts/naughty-price/PolicyCore.sol:PolicyCore",
        "label": "pendingIncomeToLottery",
        "offset": 0,
        "slot": "117",
        "type": "t_mapping(t_address,t_uint256)"
      },
      {
        "astId": 31162,
        "contract": "contracts/naughty-price/PolicyCore.sol:PolicyCore",
        "label": "pendingIncomeToSharing",
        "offset": 0,
        "slot": "118",
        "type": "t_mapping(t_address,t_uint256)"
      }
    ],
    "types": {
      "t_address": {
        "encoding": "inplace",
        "label": "address",
        "numberOfBytes": "20"
      },
      "t_array(t_address)dyn_storage": {
        "base": "t_address",
        "encoding": "dynamic_array",
        "label": "address[]",
        "numberOfBytes": "32"
      },
      "t_array(t_string_storage)dyn_storage": {
        "base": "t_string_storage",
        "encoding": "dynamic_array",
        "label": "string[]",
        "numberOfBytes": "32"
      },
      "t_array(t_uint256)49_storage": {
        "base": "t_uint256",
        "encoding": "inplace",
        "label": "uint256[49]",
        "numberOfBytes": "1568"
      },
      "t_array(t_uint256)50_storage": {
        "base": "t_uint256",
        "encoding": "inplace",
        "label": "uint256[50]",
        "numberOfBytes": "1600"
      },
      "t_bool": {
        "encoding": "inplace",
        "label": "bool",
        "numberOfBytes": "1"
      },
      "t_contract(INaughtyFactory)33205": {
        "encoding": "inplace",
        "label": "contract INaughtyFactory",
        "numberOfBytes": "20"
      },
      "t_contract(IPriceGetter)33480": {
        "encoding": "inplace",
        "label": "contract IPriceGetter",
        "numberOfBytes": "20"
      },
      "t_mapping(t_address,t_address)": {
        "encoding": "mapping",
        "key": "t_address",
        "label": "mapping(address => address)",
        "numberOfBytes": "32",
        "value": "t_address"
      },
      "t_mapping(t_address,t_array(t_address)dyn_storage)": {
        "encoding": "mapping",
        "key": "t_address",
        "label": "mapping(address => address[])",
        "numberOfBytes": "32",
        "value": "t_array(t_address)dyn_storage"
      },
      "t_mapping(t_address,t_bool)": {
        "encoding": "mapping",
        "key": "t_address",
        "label": "mapping(address => bool)",
        "numberOfBytes": "32",
        "value": "t_bool"
      },
      "t_mapping(t_address,t_mapping(t_address,t_uint256))": {
        "encoding": "mapping",
        "key": "t_address",
        "label": "mapping(address => mapping(address => uint256))",
        "numberOfBytes": "32",
        "value": "t_mapping(t_address,t_uint256)"
      },
      "t_mapping(t_address,t_string_storage)": {
        "encoding": "mapping",
        "key": "t_address",
        "label": "mapping(address => string)",
        "numberOfBytes": "32",
        "value": "t_string_storage"
      },
      "t_mapping(t_address,t_struct(SettlementInfo)31149_storage)": {
        "encoding": "mapping",
        "key": "t_address",
        "label": "mapping(address => struct PolicyCore.SettlementInfo)",
        "numberOfBytes": "32",
        "value": "t_struct(SettlementInfo)31149_storage"
      },
      "t_mapping(t_address,t_uint256)": {
        "encoding": "mapping",
        "key": "t_address",
        "label": "mapping(address => uint256)",
        "numberOfBytes": "32",
        "value": "t_uint256"
      },
      "t_mapping(t_string_memory_ptr,t_struct(PolicyTokenInfo)31105_storage)": {
        "encoding": "mapping",
        "key": "t_string_memory_ptr",
        "label": "mapping(string => struct PolicyCore.PolicyTokenInfo)",
        "numberOfBytes": "32",
        "value": "t_struct(PolicyTokenInfo)31105_storage"
      },
      "t_string_memory_ptr": {
        "encoding": "bytes",
        "label": "string",
        "numberOfBytes": "32"
      },
      "t_string_storage": {
        "encoding": "bytes",
        "label": "string",
        "numberOfBytes": "32"
      },
      "t_struct(PolicyTokenInfo)31105_storage": {
        "encoding": "inplace",
        "label": "struct PolicyCore.PolicyTokenInfo",
        "members": [
          {
            "astId": 31092,
            "contract": "contracts/naughty-price/PolicyCore.sol:PolicyCore",
            "label": "policyTokenAddress",
            "offset": 0,
            "slot": "0",
            "type": "t_address"
          },
          {
            "astId": 31094,
            "contract": "contracts/naughty-price/PolicyCore.sol:PolicyCore",
            "label": "isCall",
            "offset": 20,
            "slot": "0",
            "type": "t_bool"
          },
          {
            "astId": 31096,
            "contract": "contracts/naughty-price/PolicyCore.sol:PolicyCore",
            "label": "nameDecimals",
            "offset": 0,
            "slot": "1",
            "type": "t_uint256"
          },
          {
            "astId": 31098,
            "contract": "contracts/naughty-price/PolicyCore.sol:PolicyCore",
            "label": "tokenDecimals",
            "offset": 0,
            "slot": "2",
            "type": "t_uint256"
          },
          {
            "astId": 31100,
            "contract": "contracts/naughty-price/PolicyCore.sol:PolicyCore",
            "label": "strikePrice",
            "offset": 0,
            "slot": "3",
            "type": "t_uint256"
          },
          {
            "astId": 31102,
            "contract": "contracts/naughty-price/PolicyCore.sol:PolicyCore",
            "label": "deadline",
            "offset": 0,
            "slot": "4",
            "type": "t_uint256"
          },
          {
            "astId": 31104,
            "contract": "contracts/naughty-price/PolicyCore.sol:PolicyCore",
            "label": "settleTimestamp",
            "offset": 0,
            "slot": "5",
            "type": "t_uint256"
          }
        ],
        "numberOfBytes": "192"
      },
      "t_struct(SettlementInfo)31149_storage": {
        "encoding": "inplace",
        "label": "struct PolicyCore.SettlementInfo",
        "members": [
          {
            "astId": 31142,
            "contract": "contracts/naughty-price/PolicyCore.sol:PolicyCore",
            "label": "price",
            "offset": 0,
            "slot": "0",
            "type": "t_uint256"
          },
          {
            "astId": 31144,
            "contract": "contracts/naughty-price/PolicyCore.sol:PolicyCore",
            "label": "isHappened",
            "offset": 0,
            "slot": "1",
            "type": "t_bool"
          },
          {
            "astId": 31146,
            "contract": "contracts/naughty-price/PolicyCore.sol:PolicyCore",
            "label": "alreadySettled",
            "offset": 1,
            "slot": "1",
            "type": "t_bool"
          },
          {
            "astId": 31148,
            "contract": "contracts/naughty-price/PolicyCore.sol:PolicyCore",
            "label": "currentDistributionIndex",
            "offset": 0,
            "slot": "2",
            "type": "t_uint256"
          }
        ],
        "numberOfBytes": "96"
      },
      "t_uint256": {
        "encoding": "inplace",
        "label": "uint256",
        "numberOfBytes": "32"
      }
    }
  }
}