{
  "address": "0x986E2B792F03B58BAe15D6De13B53A676544Caba",
  "abi": [
    {
      "inputs": [
        {
          "internalType": "address",
          "name": "_usdt",
          "type": "address"
        },
        {
          "internalType": "address",
          "name": "_factory",
          "type": "address"
        },
        {
          "internalType": "address",
          "name": "_priceGetter",
          "type": "address"
        }
      ],
      "stateMutability": "nonpayable",
      "type": "constructor"
    },
    {
      "anonymous": false,
      "inputs": [
        {
          "indexed": false,
          "internalType": "address",
          "name": "payerAddress",
          "type": "address"
        },
        {
          "indexed": false,
          "internalType": "address",
          "name": "userAddress",
          "type": "address"
        },
        {
          "indexed": false,
          "internalType": "string",
          "name": "policyTokenName",
          "type": "string"
        },
        {
          "indexed": false,
          "internalType": "address",
          "name": "stablecoin",
          "type": "address"
        },
        {
          "indexed": false,
          "internalType": "uint256",
          "name": "amount",
          "type": "uint256"
        }
      ],
      "name": "DelegateDeposit",
      "type": "event"
    },
    {
      "anonymous": false,
      "inputs": [
        {
          "indexed": false,
          "internalType": "address",
          "name": "userAddress",
          "type": "address"
        },
        {
          "indexed": false,
          "internalType": "string",
          "name": "policyTokenName",
          "type": "string"
        },
        {
          "indexed": false,
          "internalType": "address",
          "name": "stablecoin",
          "type": "address"
        },
        {
          "indexed": false,
          "internalType": "uint256",
          "name": "amount",
          "type": "uint256"
        }
      ],
      "name": "Deposit",
      "type": "event"
    },
    {
      "anonymous": false,
      "inputs": [
        {
          "indexed": false,
          "internalType": "string",
          "name": "_policyTokenName",
          "type": "string"
        },
        {
          "indexed": false,
          "internalType": "uint256",
          "name": "price",
          "type": "uint256"
        },
        {
          "indexed": false,
          "internalType": "bool",
          "name": "isHappened",
          "type": "bool"
        }
      ],
      "name": "FinalResultSettled",
      "type": "event"
    },
    {
      "anonymous": false,
      "inputs": [
        {
          "indexed": false,
          "internalType": "address",
          "name": "oldILM",
          "type": "address"
        },
        {
          "indexed": false,
          "internalType": "address",
          "name": "newILM",
          "type": "address"
        }
      ],
      "name": "ILMChanged",
      "type": "event"
    },
    {
      "anonymous": false,
      "inputs": [
        {
          "indexed": false,
          "internalType": "address",
          "name": "oldIncomeSharing",
          "type": "address"
        },
        {
          "indexed": false,
          "internalType": "address",
          "name": "newIncomeSharing",
          "type": "address"
        }
      ],
      "name": "IncomeSharingChanged",
      "type": "event"
    },
    {
      "anonymous": false,
      "inputs": [
        {
          "indexed": false,
          "internalType": "uint256",
          "name": "oldToLottery",
          "type": "uint256"
        },
        {
          "indexed": false,
          "internalType": "uint256",
          "name": "newToLottery",
          "type": "uint256"
        }
      ],
      "name": "IncomeToLotteryChanged",
      "type": "event"
    },
    {
      "anonymous": false,
      "inputs": [
        {
          "indexed": false,
          "internalType": "address",
          "name": "oldLotteryAddress",
          "type": "address"
        },
        {
          "indexed": false,
          "internalType": "address",
          "name": "newLotteryAddress",
          "type": "address"
        }
      ],
      "name": "LotteryChanged",
      "type": "event"
    },
    {
      "anonymous": false,
      "inputs": [
        {
          "indexed": false,
          "internalType": "address",
          "name": "oldRouter",
          "type": "address"
        },
        {
          "indexed": false,
          "internalType": "address",
          "name": "newRouter",
          "type": "address"
        }
      ],
      "name": "NaughtyRouterChanged",
      "type": "event"
    },
    {
      "anonymous": false,
      "inputs": [
        {
          "indexed": false,
          "internalType": "address",
          "name": "_newStablecoin",
          "type": "address"
        }
      ],
      "name": "NewStablecoinAdded",
      "type": "event"
    },
    {
      "anonymous": false,
      "inputs": [
        {
          "indexed": true,
          "internalType": "address",
          "name": "previousOwner",
          "type": "address"
        },
        {
          "indexed": true,
          "internalType": "address",
          "name": "newOwner",
          "type": "address"
        }
      ],
      "name": "OwnershipTransferred",
      "type": "event"
    },
    {
      "anonymous": false,
      "inputs": [
        {
          "indexed": false,
          "internalType": "string",
          "name": "tokenName",
          "type": "string"
        },
        {
          "indexed": false,
          "internalType": "address",
          "name": "tokenAddress",
          "type": "address"
        },
        {
          "indexed": false,
          "internalType": "uint256",
          "name": "tokenDecimals",
          "type": "uint256"
        },
        {
          "indexed": false,
          "internalType": "uint256",
          "name": "deadline",
          "type": "uint256"
        },
        {
          "indexed": false,
          "internalType": "uint256",
          "name": "settleTimestamp",
          "type": "uint256"
        }
      ],
      "name": "PolicyTokenDeployed",
      "type": "event"
    },
    {
      "anonymous": false,
      "inputs": [
        {
          "indexed": false,
          "internalType": "string",
          "name": "policyTokenName",
          "type": "string"
        },
        {
          "indexed": false,
          "internalType": "address",
          "name": "stablecoin",
          "type": "address"
        },
        {
          "indexed": false,
          "internalType": "uint256",
          "name": "startIndex",
          "type": "uint256"
        },
        {
          "indexed": false,
          "internalType": "uint256",
          "name": "stopIndex",
          "type": "uint256"
        }
      ],
      "name": "PolicyTokensSettledForUsers",
      "type": "event"
    },
    {
      "anonymous": false,
      "inputs": [
        {
          "indexed": false,
          "internalType": "address",
          "name": "poolAddress",
          "type": "address"
        },
        {
          "indexed": false,
          "internalType": "address",
          "name": "policyTokenAddress",
          "type": "address"
        },
        {
          "indexed": false,
          "internalType": "address",
          "name": "stablecoin",
          "type": "address"
        }
      ],
      "name": "PoolDeployed",
      "type": "event"
    },
    {
      "anonymous": false,
      "inputs": [
        {
          "indexed": false,
          "internalType": "address",
          "name": "poolAddress",
          "type": "address"
        },
        {
          "indexed": false,
          "internalType": "address",
          "name": "policyTokenAddress",
          "type": "address"
        },
        {
          "indexed": false,
          "internalType": "address",
          "name": "stablecoin",
          "type": "address"
        },
        {
          "indexed": false,
          "internalType": "uint256",
          "name": "initLiquidityA",
          "type": "uint256"
        },
        {
          "indexed": false,
          "internalType": "uint256",
          "name": "initLiquidityB",
          "type": "uint256"
        }
      ],
      "name": "PoolDeployedWithInitialLiquidity",
      "type": "event"
    },
    {
      "anonymous": false,
      "inputs": [
        {
          "indexed": false,
          "internalType": "address",
          "name": "userAddress",
          "type": "address"
        },
        {
          "indexed": false,
          "internalType": "string",
          "name": "policyTokenName",
          "type": "string"
        },
        {
          "indexed": false,
          "internalType": "address",
          "name": "stablecoin",
          "type": "address"
        },
        {
          "indexed": false,
          "internalType": "uint256",
          "name": "amount",
          "type": "uint256"
        }
      ],
      "name": "Redeem",
      "type": "event"
    },
    {
      "anonymous": false,
      "inputs": [
        {
          "indexed": false,
          "internalType": "address",
          "name": "userAddress",
          "type": "address"
        },
        {
          "indexed": false,
          "internalType": "string",
          "name": "policyTokenName",
          "type": "string"
        },
        {
          "indexed": false,
          "internalType": "address",
          "name": "stablecoin",
          "type": "address"
        },
        {
          "indexed": false,
          "internalType": "uint256",
          "name": "amount",
          "type": "uint256"
        }
      ],
      "name": "RedeemAfterSettlement",
      "type": "event"
    },
    {
      "inputs": [],
      "name": "ILMContract",
      "outputs": [
        {
          "internalType": "address",
          "name": "",
          "type": "address"
        }
      ],
      "stateMutability": "view",
      "type": "function"
    },
    {
      "inputs": [
        {
          "internalType": "string",
          "name": "_tokenName",
          "type": "string"
        },
        {
          "internalType": "uint256",
          "name": "_decimals",
          "type": "uint256"
        },
        {
          "internalType": "uint256",
          "name": "_strikePrice",
          "type": "uint256"
        },
        {
          "internalType": "bool",
          "name": "_isCall",
          "type": "bool"
        },
        {
          "internalType": "string",
          "name": "_round",
          "type": "string"
        }
      ],
      "name": "_generateName",
      "outputs": [
        {
          "internalType": "string",
          "name": "",
          "type": "string"
        }
      ],
      "stateMutability": "pure",
      "type": "function"
    },
    {
      "inputs": [
        {
          "internalType": "address",
          "name": "_newStablecoin",
          "type": "address"
        }
      ],
      "name": "addStablecoin",
      "outputs": [],
      "stateMutability": "nonpayable",
      "type": "function"
    },
    {
      "inputs": [
        {
          "internalType": "address",
          "name": "",
          "type": "address"
        },
        {
          "internalType": "uint256",
          "name": "",
          "type": "uint256"
        }
      ],
      "name": "allDepositors",
      "outputs": [
        {
          "internalType": "address",
          "name": "",
          "type": "address"
        }
      ],
      "stateMutability": "view",
      "type": "function"
    },
    {
      "inputs": [
        {
          "internalType": "uint256",
          "name": "",
          "type": "uint256"
        }
      ],
      "name": "allPolicyTokens",
      "outputs": [
        {
          "internalType": "string",
          "name": "",
          "type": "string"
        }
      ],
      "stateMutability": "view",
      "type": "function"
    },
    {
      "inputs": [
        {
          "internalType": "string",
          "name": "_policyTokenName",
          "type": "string"
        },
        {
          "internalType": "address",
          "name": "_stablecoin",
          "type": "address"
        },
        {
          "internalType": "uint256",
          "name": "_amount",
          "type": "uint256"
        }
      ],
      "name": "claim",
      "outputs": [],
      "stateMutability": "nonpayable",
      "type": "function"
    },
    {
      "inputs": [
        {
          "internalType": "address",
          "name": "_stablecoin",
          "type": "address"
        }
      ],
      "name": "collectIncome",
      "outputs": [],
      "stateMutability": "nonpayable",
      "type": "function"
    },
    {
      "inputs": [
        {
          "internalType": "string",
          "name": "_policyTokenName",
          "type": "string"
        },
        {
          "internalType": "address",
          "name": "_stablecoin",
          "type": "address"
        },
        {
          "internalType": "uint256",
          "name": "_amount",
          "type": "uint256"
        },
        {
          "internalType": "address",
          "name": "_user",
          "type": "address"
        }
      ],
      "name": "delegateDeposit",
      "outputs": [],
      "stateMutability": "nonpayable",
      "type": "function"
    },
    {
      "inputs": [
        {
          "internalType": "string",
          "name": "_tokenName",
          "type": "string"
        },
        {
          "internalType": "address",
          "name": "_stablecoin",
          "type": "address"
        },
        {
          "internalType": "bool",
          "name": "_isCall",
          "type": "bool"
        },
        {
          "internalType": "uint256",
          "name": "_nameDecimals",
          "type": "uint256"
        },
        {
          "internalType": "uint256",
          "name": "_tokenDecimals",
          "type": "uint256"
        },
        {
          "internalType": "uint256",
          "name": "_strikePrice",
          "type": "uint256"
        },
        {
          "internalType": "string",
          "name": "_round",
          "type": "string"
        },
        {
          "internalType": "uint256",
          "name": "_deadline",
          "type": "uint256"
        },
        {
          "internalType": "uint256",
          "name": "_settleTimestamp",
          "type": "uint256"
        }
      ],
      "name": "deployPolicyToken",
      "outputs": [],
      "stateMutability": "nonpayable",
      "type": "function"
    },
    {
      "inputs": [
        {
          "internalType": "string",
          "name": "_policyTokenName",
          "type": "string"
        },
        {
          "internalType": "address",
          "name": "_stablecoin",
          "type": "address"
        },
        {
          "internalType": "uint256",
          "name": "_poolDeadline",
          "type": "uint256"
        },
        {
          "internalType": "uint256",
          "name": "_feeRate",
          "type": "uint256"
        }
      ],
      "name": "deployPool",
      "outputs": [
        {
          "internalType": "address",
          "name": "",
          "type": "address"
        }
      ],
      "stateMutability": "nonpayable",
      "type": "function"
    },
    {
      "inputs": [
        {
          "internalType": "string",
          "name": "_policyTokenName",
          "type": "string"
        },
        {
          "internalType": "address",
          "name": "_stablecoin",
          "type": "address"
        },
        {
          "internalType": "uint256",
          "name": "_amount",
          "type": "uint256"
        }
      ],
      "name": "deposit",
      "outputs": [],
      "stateMutability": "nonpayable",
      "type": "function"
    },
    {
      "inputs": [],
      "name": "factory",
      "outputs": [
        {
          "internalType": "contract INaughtyFactory",
          "name": "",
          "type": "address"
        }
      ],
      "stateMutability": "view",
      "type": "function"
    },
    {
      "inputs": [
        {
          "internalType": "string",
          "name": "_policyTokenName",
          "type": "string"
        }
      ],
      "name": "findAddressbyName",
      "outputs": [
        {
          "internalType": "address",
          "name": "policyTokenAddress",
          "type": "address"
        }
      ],
      "stateMutability": "view",
      "type": "function"
    },
    {
      "inputs": [
        {
          "internalType": "address",
          "name": "_policyTokenAddress",
          "type": "address"
        }
      ],
      "name": "findNamebyAddress",
      "outputs": [
        {
          "internalType": "string",
          "name": "policyTokenName",
          "type": "string"
        }
      ],
      "stateMutability": "view",
      "type": "function"
    },
    {
      "inputs": [],
      "name": "getAllTokens",
      "outputs": [
        {
          "components": [
            {
              "internalType": "address",
              "name": "policyTokenAddress",
              "type": "address"
            },
            {
              "internalType": "bool",
              "name": "isCall",
              "type": "bool"
            },
            {
              "internalType": "uint256",
              "name": "nameDecimals",
              "type": "uint256"
            },
            {
              "internalType": "uint256",
              "name": "tokenDecimals",
              "type": "uint256"
            },
            {
              "internalType": "uint256",
              "name": "strikePrice",
              "type": "uint256"
            },
            {
              "internalType": "uint256",
              "name": "deadline",
              "type": "uint256"
            },
            {
              "internalType": "uint256",
              "name": "settleTimestamp",
              "type": "uint256"
            }
          ],
          "internalType": "struct PolicyCore.PolicyTokenInfo[]",
          "name": "",
          "type": "tuple[]"
        }
      ],
      "stateMutability": "view",
      "type": "function"
    },
    {
      "inputs": [
        {
          "internalType": "string",
          "name": "_policyTokenName",
          "type": "string"
        }
      ],
      "name": "getPolicyTokenInfo",
      "outputs": [
        {
          "components": [
            {
              "internalType": "address",
              "name": "policyTokenAddress",
              "type": "address"
            },
            {
              "internalType": "bool",
              "name": "isCall",
              "type": "bool"
            },
            {
              "internalType": "uint256",
              "name": "nameDecimals",
              "type": "uint256"
            },
            {
              "internalType": "uint256",
              "name": "tokenDecimals",
              "type": "uint256"
            },
            {
              "internalType": "uint256",
              "name": "strikePrice",
              "type": "uint256"
            },
            {
              "internalType": "uint256",
              "name": "deadline",
              "type": "uint256"
            },
            {
              "internalType": "uint256",
              "name": "settleTimestamp",
              "type": "uint256"
            }
          ],
          "internalType": "struct PolicyCore.PolicyTokenInfo",
          "name": "",
          "type": "tuple"
        }
      ],
      "stateMutability": "view",
      "type": "function"
    },
    {
      "inputs": [
        {
          "internalType": "address",
          "name": "_user",
          "type": "address"
        },
        {
          "internalType": "address",
          "name": "_policyTokenAddress",
          "type": "address"
        }
      ],
      "name": "getUserQuota",
      "outputs": [
        {
          "internalType": "uint256",
          "name": "_quota",
          "type": "uint256"
        }
      ],
      "stateMutability": "view",
      "type": "function"
    },
    {
      "inputs": [],
      "name": "incomeSharing",
      "outputs": [
        {
          "internalType": "address",
          "name": "",
          "type": "address"
        }
      ],
      "stateMutability": "view",
      "type": "function"
    },
    {
      "inputs": [],
      "name": "lottery",
      "outputs": [
        {
          "internalType": "address",
          "name": "",
          "type": "address"
        }
      ],
      "stateMutability": "view",
      "type": "function"
    },
    {
      "inputs": [],
      "name": "naughtyRouter",
      "outputs": [
        {
          "internalType": "address",
          "name": "",
          "type": "address"
        }
      ],
      "stateMutability": "view",
      "type": "function"
    },
    {
      "inputs": [],
      "name": "owner",
      "outputs": [
        {
          "internalType": "address",
          "name": "",
          "type": "address"
        }
      ],
      "stateMutability": "view",
      "type": "function"
    },
    {
      "inputs": [
        {
          "internalType": "address",
          "name": "",
          "type": "address"
        }
      ],
      "name": "pendingIncomeToLottery",
      "outputs": [
        {
          "internalType": "uint256",
          "name": "",
          "type": "uint256"
        }
      ],
      "stateMutability": "view",
      "type": "function"
    },
    {
      "inputs": [
        {
          "internalType": "address",
          "name": "",
          "type": "address"
        }
      ],
      "name": "pendingIncomeToSharing",
      "outputs": [
        {
          "internalType": "uint256",
          "name": "",
          "type": "uint256"
        }
      ],
      "stateMutability": "view",
      "type": "function"
    },
    {
      "inputs": [
        {
          "internalType": "address",
          "name": "",
          "type": "address"
        }
      ],
      "name": "policyTokenAddressToName",
      "outputs": [
        {
          "internalType": "string",
          "name": "",
          "type": "string"
        }
      ],
      "stateMutability": "view",
      "type": "function"
    },
    {
      "inputs": [
        {
          "internalType": "string",
          "name": "",
          "type": "string"
        }
      ],
      "name": "policyTokenInfoMapping",
      "outputs": [
        {
          "internalType": "address",
          "name": "policyTokenAddress",
          "type": "address"
        },
        {
          "internalType": "bool",
          "name": "isCall",
          "type": "bool"
        },
        {
          "internalType": "uint256",
          "name": "nameDecimals",
          "type": "uint256"
        },
        {
          "internalType": "uint256",
          "name": "tokenDecimals",
          "type": "uint256"
        },
        {
          "internalType": "uint256",
          "name": "strikePrice",
          "type": "uint256"
        },
        {
          "internalType": "uint256",
          "name": "deadline",
          "type": "uint256"
        },
        {
          "internalType": "uint256",
          "name": "settleTimestamp",
          "type": "uint256"
        }
      ],
      "stateMutability": "view",
      "type": "function"
    },
    {
      "inputs": [],
      "name": "priceGetter",
      "outputs": [
        {
          "internalType": "contract IPriceGetter",
          "name": "",
          "type": "address"
        }
      ],
      "stateMutability": "view",
      "type": "function"
    },
    {
      "inputs": [
        {
          "internalType": "string",
          "name": "_policyTokenName",
          "type": "string"
        },
        {
          "internalType": "address",
          "name": "_stablecoin",
          "type": "address"
        },
        {
          "internalType": "uint256",
          "name": "_amount",
          "type": "uint256"
        }
      ],
      "name": "redeem",
      "outputs": [],
      "stateMutability": "nonpayable",
      "type": "function"
    },
    {
      "inputs": [
        {
          "internalType": "string",
          "name": "_policyTokenName",
          "type": "string"
        },
        {
          "internalType": "address",
          "name": "_stablecoin",
          "type": "address"
        }
      ],
      "name": "redeemAfterSettlement",
      "outputs": [],
      "stateMutability": "nonpayable",
      "type": "function"
    },
    {
      "inputs": [],
      "name": "renounceOwnership",
      "outputs": [],
      "stateMutability": "nonpayable",
      "type": "function"
    },
    {
      "inputs": [
        {
          "internalType": "address",
          "name": "_ILM",
          "type": "address"
        }
      ],
      "name": "setILMContract",
      "outputs": [],
      "stateMutability": "nonpayable",
      "type": "function"
    },
    {
      "inputs": [
        {
          "internalType": "address",
          "name": "_incomeSharing",
          "type": "address"
        }
      ],
      "name": "setIncomeSharing",
      "outputs": [],
      "stateMutability": "nonpayable",
      "type": "function"
    },
    {
      "inputs": [
        {
          "internalType": "uint256",
          "name": "_toLottery",
          "type": "uint256"
        }
      ],
      "name": "setIncomeToLottery",
      "outputs": [],
      "stateMutability": "nonpayable",
      "type": "function"
    },
    {
      "inputs": [
        {
          "internalType": "address",
          "name": "_lotteryAddress",
          "type": "address"
        }
      ],
      "name": "setLottery",
      "outputs": [],
      "stateMutability": "nonpayable",
      "type": "function"
    },
    {
      "inputs": [
        {
          "internalType": "address",
          "name": "_router",
          "type": "address"
        }
      ],
      "name": "setNaughtyRouter",
      "outputs": [],
      "stateMutability": "nonpayable",
      "type": "function"
    },
    {
      "inputs": [
        {
          "internalType": "string",
          "name": "_policyTokenName",
          "type": "string"
        },
        {
          "internalType": "address",
          "name": "_stablecoin",
          "type": "address"
        },
        {
          "internalType": "uint256",
          "name": "_startIndex",
          "type": "uint256"
        },
        {
          "internalType": "uint256",
          "name": "_stopIndex",
          "type": "uint256"
        }
      ],
      "name": "settleAllPolicyTokens",
      "outputs": [],
      "stateMutability": "nonpayable",
      "type": "function"
    },
    {
      "inputs": [
        {
          "internalType": "string",
          "name": "_policyTokenName",
          "type": "string"
        }
      ],
      "name": "settleFinalResult",
      "outputs": [],
      "stateMutability": "nonpayable",
      "type": "function"
    },
    {
      "inputs": [
        {
          "internalType": "address",
          "name": "",
          "type": "address"
        }
      ],
      "name": "settleResult",
      "outputs": [
        {
          "internalType": "uint256",
          "name": "price",
          "type": "uint256"
        },
        {
          "internalType": "bool",
          "name": "isHappened",
          "type": "bool"
        },
        {
          "internalType": "bool",
          "name": "alreadySettled",
          "type": "bool"
        },
        {
          "internalType": "uint256",
          "name": "currentDistributionIndex",
          "type": "uint256"
        }
      ],
      "stateMutability": "view",
      "type": "function"
    },
    {
      "inputs": [
        {
          "internalType": "address",
          "name": "",
          "type": "address"
        }
      ],
      "name": "supportedStablecoin",
      "outputs": [
        {
          "internalType": "bool",
          "name": "",
          "type": "bool"
        }
      ],
      "stateMutability": "view",
      "type": "function"
    },
    {
      "inputs": [],
      "name": "toLottery",
      "outputs": [
        {
          "internalType": "uint256",
          "name": "",
          "type": "uint256"
        }
      ],
      "stateMutability": "view",
      "type": "function"
    },
    {
      "inputs": [
        {
          "internalType": "address",
          "name": "newOwner",
          "type": "address"
        }
      ],
      "name": "transferOwnership",
      "outputs": [],
      "stateMutability": "nonpayable",
      "type": "function"
    },
    {
      "inputs": [
        {
          "internalType": "address",
          "name": "",
          "type": "address"
        }
      ],
      "name": "whichStablecoin",
      "outputs": [
        {
          "internalType": "address",
          "name": "",
          "type": "address"
        }
      ],
      "stateMutability": "view",
      "type": "function"
    }
  ],
  "transactionHash": "0x943004e81170e03e1907fa6d15378ccdd31731d0dec45fb31b9f76e81451ecd9",
  "args": [
    "0x79Da89DC282F71896264b5B598189956C8b22AcF",
    "0x34d95079064A1EF8313b0e71FBE8f6cA1E0CCEa0",
    "0xa6F6cA49F038Aadc9D2420b1921d4e71E9384556"
  ],
  "numDeployments": 1,
  "solcInputHash": "30acab01710ff2e31c19d5b31cfdd2e3",
  "bytecode": "0x60806040523480156200001157600080fd5b5060405162004a5d38038062004a5d83398101604081905262000034916200011c565b33620000408162000092565b506001600160a01b039283166000908152600b60205260409020805460ff1916600190811790915580549284166001600160a01b03199384161790556002805491909316911617815560075562000174565b600080546001600160a01b038381166001600160a01b0319831681178455604051919092169283917f8be0079c531659141344cd1fd0a4f28419497f9722a3daafe3b4186f6b6457e09190a35050565b60006001600160a01b0382165b92915050565b6200010081620000e2565b81146200010c57600080fd5b50565b8051620000ef81620000f5565b600080600060608486031215620001365762000136600080fd5b60006200014486866200010f565b935050602062000157868287016200010f565b92505060406200016a868287016200010f565b9150509250925092565b6148d980620001846000396000f3fe608060405234801561001057600080fd5b50600436106102d35760003560e01c80637336c38d11610186578063c49df4bf116100e3578063eb9132dd11610097578063f15cac3411610071578063f15cac34146106eb578063f298083b146106fe578063f2fde38b1461071157600080fd5b8063eb9132dd146106bc578063f0cd3c1f146106cf578063f10cffbd146106d857600080fd5b8063d9e85c84116100c8578063d9e85c8414610650578063da14280714610670578063e6251237146106a957600080fd5b8063c49df4bf1461062a578063ceed1b901461063d57600080fd5b8063ba13a5721161013a578063bdc2b1661161011f578063bdc2b166146105e4578063be3f34a1146105f7578063c45a01551461060a57600080fd5b8063ba13a572146105be578063bb9febaf146105d157600080fd5b806394567d4e1161016b57806394567d4e14610578578063a815a2211461058b578063a8e577e31461059e57600080fd5b80637336c38d146105545780638da5cb5b1461056757600080fd5b80632a5c792a116102345780635cb3b14f116101e85780635eb1877e116101cd5780635eb1877e146105105780636978531a14610539578063715018a61461054c57600080fd5b80635cb3b14f146104cd5780635e49b5de146104fd57600080fd5b806339f677381161021957806339f67738146104365780634c330fbc146104a75780634e75ce89146104ba57600080fd5b80632a5c792a1461040e57806338081de21461042357600080fd5b80631306c0a51161028b5780631ee08fa1116102705780631ee08fa11461039c578063210123e5146103e85780632a48ac9a146103fb57600080fd5b80631306c0a51461036957806318dd152f1461038957600080fd5b806307962845116102bc578063079628451461030057806308d89d5f146103365780630dc726471461034957600080fd5b806303844097146102d85780630418945a146102ed575b600080fd5b6102eb6102e6366004612ff4565b610724565b005b6102eb6102fb366004613061565b610a53565b61032061030e366004613061565b60116020526000908152604090205481565b60405161032d919061308a565b60405180910390f35b6102eb6103443660046130a9565b610aea565b61035c610357366004613113565b610d77565b60405161032d9190613192565b61037c6103773660046131a3565b610e23565b60405161032d91906131e9565b61035c610397366004613061565b610e5b565b6103d86103aa366004613061565b601060205260009081526040902080546001820154600290920154909160ff80821692610100909204169084565b60405161032d94939291906131ff565b6102eb6103f6366004613061565b610e74565b6102eb6104093660046130a9565b610f16565b610416610fdf565b60405161032d9190613310565b61035c610431366004613061565b61115c565b610494610444366004612ff4565b80516020818301810180516008825292820191909301209152805460018201546002830154600384015460048501546005909501546001600160a01b03851695600160a01b90950460ff16949087565b60405161032d9796959493929190613321565b6102eb6104b5366004613061565b611229565b61037c6104c8366004612ff4565b6112cb565b6104f06104db366004613061565b600b6020526000908152604090205460ff1681565b60405161032d9190613389565b6102eb61050b3660046133aa565b611315565b61037c61051e366004613061565b600c602052600090815260409020546001600160a01b031681565b60065461037c906001600160a01b031681565b6102eb611693565b6102eb6105623660046130a9565b6116d8565b6000546001600160a01b031661037c565b60045461037c906001600160a01b031681565b6102eb610599366004613061565b6118b4565b6103206105ac366004613061565b60126020526000908152604090205481565b60035461037c906001600160a01b031681565b61037c6105df3660046134a6565b611956565b6102eb6105f2366004613113565b611aea565b6102eb610605366004613061565b611b84565b60015461061d906001600160a01b031681565b60405161032d9190613566565b6102eb610638366004613574565b611c4c565b60025461061d906001600160a01b031681565b61066361065e366004612ff4565b611f1a565b60405161032d91906135c1565b61032061067e3660046135cf565b6001600160a01b039182166000908152600e6020908152604080832093909416825291909152205490565b60055461037c906001600160a01b031681565b6102eb6106ca3660046134a6565b611fe8565b61032060075481565b61035c6106e63660046135f1565b612393565b6102eb6106f936600461369e565b6124fb565b6102eb61070c366004613061565b61262e565b6102eb61071f366004613061565b6126d0565b8060006008826040516107379190613732565b9081526020016040518091039020600501549050804210156107745760405162461bcd60e51b815260040161076b90613796565b60405180910390fd5b826000610780826112cb565b6001600160a01b038116600090815260106020526040902060010154909150610100900460ff16156107c45760405162461bcd60e51b815260040161076b906137fe565b60006107cf866112cb565b6001600160a01b0381166000908152601060209081526040808320600d90925282208054939450909261080190613824565b80601f016020809104026020016040519081016040528092919081815260200182805461082d90613824565b801561087a5780601f1061084f5761010080835404028352916020019161087a565b820191906000526020600020905b81548152906001019060200180831161085d57829003601f168201915b50506002546040517ff66a1b710000000000000000000000000000000000000000000000000000000081529495506000946001600160a01b03909116935063f66a1b7192506108ce91508590600401613192565b6020604051808303816000875af11580156108ed573d6000803e3d6000fd5b505050506040513d601f19601f82011682018060405250810190610911919061385c565b60018401805461ff00191661010017905580845560405190915060009060089061093c908c90613732565b908152604080516020928190038301812060e08201835280546001600160a01b0381168352600160a01b900460ff1615159382019390935260018301549181019190915260028201546060820152600382015460808201819052600483015460a083015260059092015460c0820152915060009083108015906109c0575081602001515b90506000826080015184111580156109da57508260200151155b9050600082806109e75750815b6109f25760006109f5565b60015b60018801805460ff19168215151790556040519091507f4f7bb4bf5b5d9e711ae7506fc1acd843eea9f216861a09c312fefb7e05095a3690610a3c908f908890859061387d565b60405180910390a150505050505050505050505050565b33610a666000546001600160a01b031690565b6001600160a01b031614610a8c5760405162461bcd60e51b815260040161076b906138da565b6001600160a01b0381166000908152600b602052604090819020805460ff19166001179055517f86b377b6d485043d4a8b2b0c26051f82529ea2d7c23b1188598416473c12309390610adf9083906131e9565b60405180910390a150565b826000600882604051610afd9190613732565b908152602001604051809103902060050154905080421015610b315760405162461bcd60e51b815260040161076b90613796565b84846000610b3e836112cb565b6001600160a01b038181166000908152600c6020526040902054919250838116911614610b7d5760405162461bcd60e51b815260040161076b90613942565b6000610b88896112cb565b6001600160a01b03811660009081526010602090815260409182902082516080810184528154808252600183015460ff80821615159584019590955261010090049093161515938101939093526002015460608301529192509015801590610bf1575080604001515b610c0d5760405162461bcd60e51b815260040161076b90613984565b8060200151610c2e5760405162461bcd60e51b815260040161076b906139ec565b60006103e8610c3f8a6103de613a12565b610c499190613a47565b90506000610c57828b613a5b565b9050600a60075482610c699190613a12565b610c739190613a47565b6001600160a01b038c1660009081526011602052604081208054909190610c9b908490613a72565b9091555050600754600a90610cb09083613a12565b610cba9190613a47565b610cc49082613a5b565b6001600160a01b038c1660009081526012602052604081208054909190610cec908490613a72565b90915550610d0690506001600160a01b038c16338461273b565b604051632770a7eb60e21b815284906001600160a01b03821690639dc29fac90610d369033908f90600401613a8a565b600060405180830381600087803b158015610d5057600080fd5b505af1158015610d64573d6000803e3d6000fd5b5050505050505050505050505050505050565b600a8181548110610d8757600080fd5b906000526020600020016000915090508054610da290613824565b80601f0160208091040260200160405190810160405280929190818152602001828054610dce90613824565b8015610e1b5780601f10610df057610100808354040283529160200191610e1b565b820191906000526020600020905b815481529060010190602001808311610dfe57829003601f168201915b505050505081565b600f6020528160005260406000208181548110610e3f57600080fd5b6000918252602090912001546001600160a01b03169150829050565b60096020526000908152604090208054610da290613824565b33610e876000546001600160a01b031690565b6001600160a01b031614610ead5760405162461bcd60e51b815260040161076b906138da565b6004546040517ff4b601aa15ee1d2340ac8d1e8f1ddf16fe98866801b5c057bec51086aa6d750291610eec916001600160a01b03909116908490613aa5565b60405180910390a1600480546001600160a01b0319166001600160a01b0392909216919091179055565b826000600882604051610f299190613732565b908152602001604051809103902060040154905080421115610f5d5760405162461bcd60e51b815260040161076b90613b18565b84846000610f6a836112cb565b6001600160a01b038181166000908152600c6020526040902054919250838116911614610fa95760405162461bcd60e51b815260040161076b90613942565b60008611610fc95760405162461bcd60e51b815260040161076b90613b5a565b610fd5888888336127be565b5050505050505050565b600a5460609060008167ffffffffffffffff81111561100057611000612efe565b60405190808252806020026020018201604052801561107c57816020015b6110696040518060e0016040528060006001600160a01b0316815260200160001515815260200160008152602001600081526020016000815260200160008152602001600081525090565b81526020019060019003908161101e5790505b50905060005b82811015611155576008600a828154811061109f5761109f613b6a565b906000526020600020016040516110b69190613bee565b90815260408051918290036020908101832060e08401835280546001600160a01b038116855260ff600160a01b909104161515918401919091526001810154918301919091526002810154606083015260038101546080830152600481015460a08301526005015460c0820152825183908390811061113757611137613b6a565b6020026020010181905250808061114d90613bf8565b915050611082565b5092915050565b6001600160a01b038116600090815260096020526040902080546060919061118390613824565b80601f01602080910402602001604051908101604052809291908181526020018280546111af90613824565b80156111fc5780601f106111d1576101008083540402835291602001916111fc565b820191906000526020600020905b8154815290600101906020018083116111df57829003601f168201915b5050505050905060008151116112245760405162461bcd60e51b815260040161076b90613c45565b919050565b3361123c6000546001600160a01b031690565b6001600160a01b0316146112625760405162461bcd60e51b815260040161076b906138da565b6006546040517f5a1397fff7d6f4aaebc9effcfc3a2fa8e89631d59ec574c1eaef6d709b5c9ab0916112a1916001600160a01b03909116908490613aa5565b60405180910390a1600680546001600160a01b0319166001600160a01b0392909216919091179055565b60006008826040516112dd9190613732565b908152604051908190036020019020546001600160a01b03169050806112245760405162461bcd60e51b815260040161076b90613c87565b336113286000546001600160a01b031690565b6001600160a01b03161461134e5760405162461bcd60e51b815260040161076b906138da565b60128611158015611360575060128511155b61137c5760405162461bcd60e51b815260040161076b90613cc9565b84886001600160a01b031663313ce5676040518163ffffffff1660e01b8152600401602060405180830381865afa1580156113bb573d6000803e3d6000fd5b505050506040513d601f19601f820116820180604052508101906113df9190613ced565b60ff16146113ff5760405162461bcd60e51b815260040161076b90613d40565b42821161141e5760405162461bcd60e51b815260040161076b90613d82565b8181101561143e5760405162461bcd60e51b815260040161076b90613dc4565b600061144d8a88878b88612393565b6001546040517f87f0061a0000000000000000000000000000000000000000000000000000000081529192506000916001600160a01b03909116906387f0061a9061149e9085908b90600401613dd4565b6020604051808303816000875af11580156114bd573d6000803e3d6000fd5b505050506040513d601f19601f820116820180604052508101906114e19190613dff565b90506040518060e00160405280826001600160a01b031681526020018a15158152602001898152602001888152602001878152602001858152602001848152506008836040516115319190613732565b9081526040805191829003602090810190922083518154858501511515600160a01b027fffffffffffffffffffffff0000000000000000000000000000000000000000009091166001600160a01b0392831617178255848301516001830155606085015160028301556080850151600383015560a0850151600483015560c0909401516005909101559183166000908152600d8252919091208c516115d8928e0190612e65565b506001600160a01b0381166000908152600960209081526040909120835161160292850190612e65565b50600a80546001810182556000919091528251611646917fc65a7bb8d6351c1cf70c95a316cc6a92839c986682d98bc35f958f4883f9d2a801906020850190612e65565b507f5c781be7034983eed256e8250b1df5111e452c6dd41a3e415bdeda1cac923488828289878760405161167e959493929190613e20565b60405180910390a15050505050505050505050565b336116a66000546001600160a01b031690565b6001600160a01b0316146116cc5760405162461bcd60e51b815260040161076b906138da565b6116d66000612947565b565b8260006008826040516116eb9190613732565b90815260200160405180910390206004015490508042111561171f5760405162461bcd60e51b815260040161076b90613b18565b8484600061172c836112cb565b6001600160a01b038181166000908152600c602052604090205491925083811691161461176b5760405162461bcd60e51b815260040161076b90613942565b6000611776896112cb565b336000908152600e602090815260408083206001600160a01b03851684529091529020549091508711156117bc5760405162461bcd60e51b815260040161076b90613ea3565b336000908152600e602090815260408083206001600160a01b0385168452909152812080548992906117ef908490613a5b565b9091555061180990506001600160a01b038916338961273b565b604051632770a7eb60e21b815281906001600160a01b03821690639dc29fac906118399033908c90600401613a8a565b600060405180830381600087803b15801561185357600080fd5b505af1158015611867573d6000803e3d6000fd5b505050507fae452465b27fa0406f99c961c3bbf8215e6dabe24c0da5dd5981206d9038500a338b8b8b6040516118a09493929190613eb3565b60405180910390a150505050505050505050565b336118c76000546001600160a01b031690565b6001600160a01b0316146118ed5760405162461bcd60e51b815260040161076b906138da565b6005546040517f991cc531d0c7ce0a4a8db8a26f722bbbe727c8f45445520fa447050bb313457f9161192c916001600160a01b03909116908490613aa5565b60405180910390a1600580546001600160a01b0319166001600160a01b0392909216919091179055565b6001600160a01b0383166000908152600b6020526040812054849060ff1615156001146119955760405162461bcd60e51b815260040161076b90613f3a565b8560006001600160a01b03166008826040516119b19190613732565b908152604051908190036020019020546001600160a01b031614156119e85760405162461bcd60e51b815260040161076b90613fa2565b6000546001600160a01b0316331480611a0b57506006546001600160a01b031633145b611a275760405162461bcd60e51b815260040161076b90613fe4565b428511611a465760405162461bcd60e51b815260040161076b90613d82565b600887604051611a569190613732565b9081526020016040518091039020600401548514611a865760405162461bcd60e51b815260040161076b9061404c565b6000611a91886112cb565b90506000611aa182898989612997565b90507f04c12766244f2559dd215eecd69f70fdfce0e2c2260b5d52cb8b63738622eaa481838a604051611ad69392919061405c565b60405180910390a198975050505050505050565b33611afd6000546001600160a01b031690565b6001600160a01b031614611b235760405162461bcd60e51b815260040161076b906138da565b600a811115611b445760405162461bcd60e51b815260040161076b906140b6565b7f5102efe34236afea4a39241911bce7d2001cd809276c20be9dceb33a59c13cc660075482604051611b779291906140c6565b60405180910390a1600755565b6003546001600160a01b031615801590611ba857506004546001600160a01b031615155b611bc45760405162461bcd60e51b815260040161076b9061412c565b6001600160a01b03811660009081526011602090815260408083205460129092529091205481151580611bf75750600081115b611c135760405162461bcd60e51b815260040161076b9061416e565b600354611c2d906001600160a01b0385811691168461273b565b600454611c47906001600160a01b0385811691168361273b565b505050565b816000600882604051611c5f9190613732565b908152602001604051809103902060050154905080421015611c935760405162461bcd60e51b815260040161076b90613796565b83836000611ca0836112cb565b6001600160a01b038181166000908152600c6020526040902054919250838116911614611cdf5760405162461bcd60e51b815260040161076b90613942565b6000611cea886112cb565b6001600160a01b03811660009081526010602090815260409182902082516080810184528154808252600183015460ff80821615159584019590955261010090049093161515938101939093526002015460608301529192509015801590611d53575080604001515b611d6f5760405162461bcd60e51b815260040161076b90613984565b602081015115611d915760405162461bcd60e51b815260040161076b906141d6565b336000908152600e602090815260408083206001600160a01b038616845290915290205480611dd25760405162461bcd60e51b815260040161076b9061423e565b60006103e8611de3836103de613a12565b611ded9190613a47565b90506000611dfb8284613a5b565b9050600a60075482611e0d9190613a12565b611e179190613a47565b6001600160a01b038c1660009081526011602052604081208054909190611e3f908490613a72565b9091555050600754600a90611e549083613a12565b611e5e9190613a47565b611e689082613a5b565b6001600160a01b038c1660009081526012602052604081208054909190611e90908490613a72565b90915550611eaa90506001600160a01b038c16338461273b565b336000818152600e602090815260408083206001600160a01b038a16845290915280822091909155517f03562b7020b16271daf63f8af4dfad66194d3a83359909327c31983326b1287f91611f04918f908f908790613eb3565b60405180910390a1505050505050505050505050565b611f656040518060e0016040528060006001600160a01b0316815260200160001515815260200160008152602001600081526020016000815260200160008152602001600081525090565b600882604051611f759190613732565b90815260408051918290036020908101832060e08401835280546001600160a01b038116855260ff600160a01b909104161515918401919091526001810154918301919091526002810154606083015260038101546080830152600481015460a08301526005015460c082015292915050565b33611ffb6000546001600160a01b031690565b6001600160a01b0316146120215760405162461bcd60e51b815260040161076b906138da565b600061202c856112cb565b6001600160a01b03811660009081526010602090815260409182902082516080810184528154808252600183015460ff8082161515958401959095526101009004909316151593810193909352600201546060830152919250901580159061209a5750604081015115156001145b6120b65760405162461bcd60e51b815260040161076b90613984565b6020810151156120d85760405162461bcd60e51b815260040161076b906141d6565b6001600160a01b0382166000908152600f602052604081205460608301518110156121155760405162461bcd60e51b815260040161076b90614280565b85158015612121575084155b1561223a576121338488600084612a68565b61213d9083613a72565b6001600160a01b0385166000908152601060205260409020600201829055600754909250600a9061216e9084613a12565b6121789190613a47565b6001600160a01b038816600090815260116020526040812080549091906121a0908490613a72565b9091555050600754600a906121b59084613a12565b6121bf9190613a47565b6121c99083613a5b565b6001600160a01b038816600090815260126020526040812080549091906121f1908490613a72565b90915550506040517fb882f84541d4c34087dd3a3971b96ad170bc52a7907def174bb86f986bce6e2c9061222d908a908a9060009086906142a5565b60405180910390a1610fd5565b8583606001511461225d5760405162461bcd60e51b815260040161076b9061432a565b80851061227c5760405162461bcd60e51b815260040161076b9061436c565b61228884888888612a68565b6122929083613a72565b6001600160a01b0385166000908152601060205260409020600201869055600754909250600a906122c39084613a12565b6122cd9190613a47565b6001600160a01b038816600090815260116020526040812080549091906122f5908490613a72565b9091555050600754600a9061230a9084613a12565b6123149190613a47565b61231e9083613a5b565b6001600160a01b03881660009081526012602052604081208054909190612346908490613a72565b90915550506040517fb882f84541d4c34087dd3a3971b96ad170bc52a7907def174bb86f986bce6e2c90612381908a908a908a908a9061437c565b60405180910390a15050505050505050565b60606000836123d7576040518060400160405280600181526020017f4c0000000000000000000000000000000000000000000000000000000000000081525061240e565b6040518060400160405280600181526020017f48000000000000000000000000000000000000000000000000000000000000008152505b90506000612424670de0b6b3a764000087613a47565b9050600081116124465760405162461bcd60e51b815260040161076b906143db565b6000612453886012613a5b565b61245e90600a6144f9565b61247290670de0b6b3a76400008906613a47565b9050600288106124b057612487600189613a5b565b61249290600a6144f9565b81116124b05760405162461bcd60e51b815260040161076b9061453a565b6000896124bc84612b72565b6124c584612b72565b86896040516020016124db95949392919061459c565b60408051601f198184030181529190529450505050505b95945050505050565b83600060088260405161250e9190613732565b9081526020016040518091039020600401549050804211156125425760405162461bcd60e51b815260040161076b90613b18565b8585600061254f836112cb565b6001600160a01b038181166000908152600c602052604090205491925083811691161461258e5760405162461bcd60e51b815260040161076b90613942565b6005546001600160a01b031633146125b85760405162461bcd60e51b815260040161076b9061465a565b600087116125d85760405162461bcd60e51b815260040161076b90613b5a565b6125e4898989896127be565b7f99f877ebe25ff1544a89db7db58d9d0b180af2288344cf1792272a4a07fd7c9933878b8b8b60405161261b95949392919061466a565b60405180910390a1505050505050505050565b336126416000546001600160a01b031690565b6001600160a01b0316146126675760405162461bcd60e51b815260040161076b906138da565b6003546040517f5bbcd5c9a4c18f44ac2b1174e1034735fda1eb2008b8cc091ef347c7f6b9690a916126a6916001600160a01b03909116908490613aa5565b60405180910390a1600380546001600160a01b0319166001600160a01b0392909216919091179055565b336126e36000546001600160a01b031690565b6001600160a01b0316146127095760405162461bcd60e51b815260040161076b906138da565b6001600160a01b03811661272f5760405162461bcd60e51b815260040161076b906146fe565b61273881612947565b50565b611c478363a9059cbb60e01b848460405160240161275a929190613a8a565b60408051601f198184030181529190526020810180517bffffffffffffffffffffffffffffffffffffffffffffffffffffffff167fffffffff0000000000000000000000000000000000000000000000000000000090931692909217909152612ca4565b60006127c9856112cb565b6001600160a01b038084166000908152600e6020908152604080832093851683529290522054909150612835576001600160a01b038181166000908152600f602090815260408220805460018101825590835291200180546001600160a01b0319169184169190911790555b6001600160a01b038083166000908152600e602090815260408083209385168352929052908120805485929061286c908490613a72565b9091555061288790506001600160a01b038516833086612d33565b6040517f40c10f1900000000000000000000000000000000000000000000000000000000815281906001600160a01b038216906340c10f19906128d09086908890600401613a8a565b600060405180830381600087803b1580156128ea57600080fd5b505af11580156128fe573d6000803e3d6000fd5b505050507faad69ef0c77f7c04ba3390022ae56a77ba8686b6cd9530eff3a0a8c38d33e5ad838787876040516129379493929190613eb3565b60405180910390a1505050505050565b600080546001600160a01b038381166001600160a01b0319831681178455604051919092169283917f8be0079c531659141344cd1fd0a4f28419497f9722a3daafe3b4186f6b6457e09190a35050565b6001546040517f3a5f69f800000000000000000000000000000000000000000000000000000000815260009182916001600160a01b0390911690633a5f69f8906129eb90899089908990899060040161470e565b6020604051808303816000875af1158015612a0a573d6000803e3d6000fd5b505050506040513d601f19601f82011682018060405250810190612a2e9190613dff565b6001600160a01b038781166000908152600c6020526040902080546001600160a01b0319169188169190911790559150505b949350505050565b6000825b82811015612b69576001600160a01b0386166000908152600f60205260408120805483908110612a9e57612a9e613b6a565b60009182526020808320909101546001600160a01b03908116808452600e83526040808520928c16855291909252822054909250906103e8612ae2836103de613a12565b612aec9190613a47565b90508015612b4b57612b086001600160a01b038916848361273b565b6001600160a01b038084166000908152600e60209081526040808320938d16835292905290812055612b3a8183613a5b565b612b449086613a72565b9450612b53565b505050612b57565b5050505b80612b6181613bf8565b915050612a6c565b50949350505050565b606081612bb257505060408051808201909152600181527f3000000000000000000000000000000000000000000000000000000000000000602082015290565b8160005b8115612bdc5780612bc681613bf8565b9150612bd59050600a83613a47565b9150612bb6565b60008167ffffffffffffffff811115612bf757612bf7612efe565b6040519080825280601f01601f191660200182016040528015612c21576020820181803683370190505b5090505b8415612a6057612c36600183613a5b565b9150612c43600a86614729565b612c4e906030613a72565b60f81b818381518110612c6357612c63613b6a565b60200101907effffffffffffffffffffffffffffffffffffffffffffffffffffffffffffff1916908160001a905350612c9d600a86613a47565b9450612c25565b6000612cf9826040518060400160405280602081526020017f5361666545524332303a206c6f772d6c6576656c2063616c6c206661696c6564815250856001600160a01b0316612d5a9092919063ffffffff16565b805190915015611c475780806020019051810190612d179190614748565b611c475760405162461bcd60e51b815260040161076b906147c1565b612d54846323b872dd60e01b85858560405160240161275a939291906147d1565b50505050565b6060612d698484600085612d73565b90505b9392505050565b606082471015612d955760405162461bcd60e51b815260040161076b90614851565b843b612db35760405162461bcd60e51b815260040161076b90614893565b600080866001600160a01b03168587604051612dcf9190613732565b60006040518083038185875af1925050503d8060008114612e0c576040519150601f19603f3d011682016040523d82523d6000602084013e612e11565b606091505b5091509150612e21828286612e2c565b979650505050505050565b60608315612e3b575081612d6c565b825115612e4b5782518084602001fd5b8160405162461bcd60e51b815260040161076b9190613192565b828054612e7190613824565b90600052602060002090601f016020900481019282612e935760008555612ed9565b82601f10612eac57805160ff1916838001178555612ed9565b82800160010185558215612ed9579182015b82811115612ed9578251825591602001919060010190612ebe565b50612ee5929150612ee9565b5090565b5b80821115612ee55760008155600101612eea565b634e487b7160e01b600052604160045260246000fd5b601f19601f830116810181811067ffffffffffffffff82111715612f3a57612f3a612efe565b6040525050565b6000612f4c60405190565b90506112248282612f14565b600067ffffffffffffffff821115612f7257612f72612efe565b601f19601f83011660200192915050565b82818337506000910152565b6000612fa2612f9d84612f58565b612f41565b905082815260208101848484011115612fbd57612fbd600080fd5b612fc8848285612f83565b509392505050565b600082601f830112612fe457612fe4600080fd5b8135612a60848260208601612f8f565b60006020828403121561300957613009600080fd5b813567ffffffffffffffff81111561302357613023600080fd5b612a6084828501612fd0565b60006001600160a01b0382165b92915050565b61304b8161302f565b811461273857600080fd5b803561303c81613042565b60006020828403121561307657613076600080fd5b6000612a608484613056565b805b82525050565b6020810161303c8284613082565b8061304b565b803561303c81613098565b6000806000606084860312156130c1576130c1600080fd5b833567ffffffffffffffff8111156130db576130db600080fd5b6130e786828701612fd0565b93505060206130f886828701613056565b92505060406131098682870161309e565b9150509250925092565b60006020828403121561312857613128600080fd5b6000612a60848461309e565b60005b8381101561314f578181015183820152602001613137565b83811115612d545750506000910152565b600061316a825190565b808452602084019350613181818560208601613134565b601f01601f19169290920192915050565b60208082528101612d6c8184613160565b600080604083850312156131b9576131b9600080fd5b60006131c58585613056565b92505060206131d68582860161309e565b9150509250929050565b6130848161302f565b6020810161303c82846131e0565b801515613084565b6080810161320d8287613082565b61321a60208301866131f7565b61322760408301856131f7565b6124f26060830184613082565b805161324083826131e0565b50602081015161325360208401826131f7565b5060408101516132666040840182613082565b5060608101516132796060840182613082565b50608081015161328c6080840182613082565b5060a081015161329f60a0840182613082565b5060c0810151611c4760c0840182613082565b6132bc8282613234565b5060e00190565b60200190565b60006132d3825190565b808452602093840193830160005b828110156133065781516132f587826132b2565b9650506020820191506001016132e1565b5093949350505050565b60208082528101612d6c81846132c9565b60e0810161332f828a6131e0565b61333c60208301896131f7565b6133496040830188613082565b6133566060830187613082565b6133636080830186613082565b61337060a0830185613082565b61337d60c0830184613082565b98975050505050505050565b6020810161303c82846131f7565b80151561304b565b803561303c81613397565b60008060008060008060008060006101208a8c0312156133cc576133cc600080fd5b893567ffffffffffffffff8111156133e6576133e6600080fd5b6133f28c828d01612fd0565b99505060206134038c828d01613056565b98505060406134148c828d0161339f565b97505060606134258c828d0161309e565b96505060806134368c828d0161309e565b95505060a06134478c828d0161309e565b94505060c08a013567ffffffffffffffff81111561346757613467600080fd5b6134738c828d01612fd0565b93505060e06134848c828d0161309e565b9250506101006134968c828d0161309e565b9150509295985092959850929598565b600080600080608085870312156134bf576134bf600080fd5b843567ffffffffffffffff8111156134d9576134d9600080fd5b6134e587828801612fd0565b94505060206134f687828801613056565b93505060406135078782880161309e565b92505060606135188782880161309e565b91505092959194509250565b600061303c6001600160a01b03831661353b565b90565b6001600160a01b031690565b600061303c82613524565b600061303c82613547565b61308481613552565b6020810161303c828461355d565b6000806040838503121561358a5761358a600080fd5b823567ffffffffffffffff8111156135a4576135a4600080fd5b6135b085828601612fd0565b92505060206131d685828601613056565b60e0810161303c8284613234565b600080604083850312156135e5576135e5600080fd5b60006135b08585613056565b600080600080600060a0868803121561360c5761360c600080fd5b853567ffffffffffffffff81111561362657613626600080fd5b61363288828901612fd0565b95505060206136438882890161309e565b94505060406136548882890161309e565b93505060606136658882890161339f565b925050608086013567ffffffffffffffff81111561368557613685600080fd5b61369188828901612fd0565b9150509295509295909350565b600080600080608085870312156136b7576136b7600080fd5b843567ffffffffffffffff8111156136d1576136d1600080fd5b6136dd87828801612fd0565b94505060206136ee87828801613056565b93505060406136ff8782880161309e565b925050606061351887828801613056565b600061371a825190565b613728818560208601613134565b9290920192915050565b61303c8183613710565b60368152602081017f43616e206e6f7420736574746c652f636c61696d2c2068617665206e6f74207281527f65616368656420736574746c6554696d657374616d7000000000000000000000602082015290505b60400190565b6020808252810161303c8161373c565b60248152602081017f5468697320706f6c6963792068617320616c7265616479206265656e2073657481527f746c65640000000000000000000000000000000000000000000000000000000060208201529050613790565b6020808252810161303c816137a6565b634e487b7160e01b600052602260045260246000fd5b60028104600182168061383857607f821691505b6020821081141561384b5761384b61380e565b50919050565b805161303c81613098565b60006020828403121561387157613871600080fd5b6000612a608484613851565b6060808252810161388e8186613160565b905061389d6020830185613082565b612a6060408301846131f7565b60208082527f4f776e61626c653a2063616c6c6572206973206e6f7420746865206f776e657291019081526132c3565b6020808252810161303c816138aa565b60238152602081017f496e76616c696420706f6c696379746f6b656e207769746820737461626c656381527f6f696e000000000000000000000000000000000000000000000000000000000060208201529050613790565b6020808252810161303c816138ea565b601e8152602081017f48617665206e6f7420676f7420746865206f7261636c6520726573756c740000815290506132c3565b6020808252810161303c81613952565b602d8152602081017f54686520726573756c7420646f6573206e6f742068617070656e2c20796f752081527f63616e206e6f7420636c61696d0000000000000000000000000000000000000060208201529050613790565b6020808252810161303c81613994565b634e487b7160e01b600052601160045260246000fd5b6000816000190483118215151615613a2c57613a2c6139fc565b500290565b634e487b7160e01b600052601260045260246000fd5b600082613a5657613a56613a31565b500490565b600082821015613a6d57613a6d6139fc565b500390565b60008219821115613a8557613a856139fc565b500190565b60408101613a9882856131e0565b612d6c6020830184613082565b60408101613ab382856131e0565b612d6c60208301846131e0565b602f8152602081017f43616e206e6f74206465706f7369742f72656465656d2c20686173207061737381527f65642074686520646561646c696e65000000000000000000000000000000000060208201529050613790565b6020808252810161303c81613ac0565b600b8152602081017f5a65726f20416d6f756e74000000000000000000000000000000000000000000815290506132c3565b6020808252810161303c81613b28565b634e487b7160e01b600052603260045260246000fd5b60008154613b8d81613824565b600182168015613ba45760018114613bb557613be5565b60ff19831686528186019350613be5565b60008581526020902060005b83811015613bdd57815488820152600190910190602001613bc1565b505081860193505b50505092915050565b61303c8183613b80565b6000600019821415613c0c57613c0c6139fc565b5060010190565b60158152602081017f506f6c696379206e616d65206e6f7420666f756e640000000000000000000000815290506132c3565b6020808252810161303c81613c13565b60168152602081017f506f6c69637920746f6b656e206e6f7420666f756e6400000000000000000000815290506132c3565b6020808252810161303c81613c55565b60118152602081017f546f6f206d616e7920646563696d616c73000000000000000000000000000000815290506132c3565b6020808252810161303c81613c97565b60ff811661304b565b805161303c81613cd9565b600060208284031215613d0257613d02600080fd5b6000612a608484613ce2565b60138152602081017f446563696d616c73206e6f742070616972656400000000000000000000000000815290506132c3565b6020808252810161303c81613d0e565b600e8152602081017f57726f6e6720646561646c696e65000000000000000000000000000000000000815290506132c3565b6020808252810161303c81613d50565b60158152602081017f57726f6e6720736574746c6554696d657374616d700000000000000000000000815290506132c3565b6020808252810161303c81613d92565b60408082528101613de58185613160565b9050612d6c6020830184613082565b805161303c81613042565b600060208284031215613e1457613e14600080fd5b6000612a608484613df4565b60a08082528101613e318188613160565b9050613e4060208301876131e0565b613e4d6040830186613082565b613e5a6060830185613082565b613e676080830184613082565b9695505050505050565b601b8152602081017f5573657227732071756f7461206e6f742073756666696369656e740000000000815290506132c3565b6020808252810161303c81613e71565b60808101613ec182876131e0565b8181036020830152613ed38186613160565b905061322760408301856131e0565b60288152602081017f446f206e6f7420737570706f7274207468697320737461626c65636f696e206381527f757272656e746c7900000000000000000000000000000000000000000000000060208201529050613790565b6020808252810161303c81613ee2565b603f8152602081017f5468697320706f6c69637920746f6b656e20686173206e6f74206265656e206481527f65706c6f7965642c20706c65617365206465706c6f792069742066697273740060208201529050613790565b6020808252810161303c81613f4a565b60118152602081017f4f6e6c79206f776e6572206f7220494c4d000000000000000000000000000000815290506132c3565b6020808252810161303c81613fb2565b602b8152602081017f506f6c69637920746f6b656e20616e6420706f6f6c20646561646c696e65206e81527f6f74207468652073616d6500000000000000000000000000000000000000000060208201529050613790565b6020808252810161303c81613ff4565b6060810161406a82866131e0565b61407760208301856131e0565b612a6060408301846131e0565b60068152602081017f4d61782031300000000000000000000000000000000000000000000000000000815290506132c3565b6020808252810161303c81614084565b60408101613a988285613082565b602e8152602081017f506c656173652073657420746865206c6f7474657279202620696e636f6d655381527f686172696e67206164647265737300000000000000000000000000000000000060208201529050613790565b6020808252810161303c816140d4565b60118152602081017f4e6f2070656e64696e6720696e636f6d65000000000000000000000000000000815290506132c3565b6020808252810161303c8161413c565b60368152602081017f4f6e6c792063616c6c20746869732066756e6374696f6e207768656e2074686581527f206576656e7420646f6573206e6f742068617070656e0000000000000000000060208201529050613790565b6020808252810161303c8161417e565b603b8152602081017f4e6f2071756f74612c20796f7520646964206e6f74206465706f73697420616e81527f64206d696e7420706f6c69637920746f6b656e73206265666f7265000000000060208201529050613790565b6020808252810161303c816141e6565b60148152602081017f4861766520646973747269627574656420616c6c000000000000000000000000815290506132c3565b6020808252810161303c8161424e565b600061303c6135388381565b61308481614290565b608080825281016142b68187613160565b90506142c560208301866131e0565b613227604083018561429c565b60328152602081017f596f75206e65656420746f2073746172742066726f6d20746865206c6173742081527f646973747269627574696f6e20706f696e74000000000000000000000000000060208201529050613790565b6020808252810161303c816142d2565b60128152602081017f496e76616c69642073746f7020696e6465780000000000000000000000000000815290506132c3565b6020808252810161303c8161433a565b6080808252810161438d8187613160565b905061439c60208301866131e0565b6132276040830185613082565b60108152602081017f496e76616c696420696e74207061727400000000000000000000000000000000815290506132c3565b6020808252810161303c816143a9565b80825b600185111561442a57808604811115614409576144096139fc565b600185161561441757908102905b80026144238560011c90565b94506143ee565b94509492505050565b60008261444257506001612d6c565b8161444f57506000612d6c565b8160018114614465576002811461446f5761449c565b6001915050612d6c565b60ff841115614480576144806139fc565b8360020a915084821115614496576144966139fc565b50612d6c565b5060208310610133831016604e8410600b84101617156144cf575081810a838111156144ca576144ca6139fc565b612d6c565b6144dc84848460016143eb565b925090508184048111156144f2576144f26139fc565b0292915050565b6000612d6c6000198484614433565b60148152602081017f496e76616c696420646563696d616c2070617274000000000000000000000000815290506132c3565b6020808252810161303c81614508565b7f5f0000000000000000000000000000000000000000000000000000000000000081525b60010190565b7f2e00000000000000000000000000000000000000000000000000000000000000815261456e565b6145a68187613710565b90506145b18161454a565b90506145bd8186613710565b90506145c881614574565b90506145d48185613710565b90506145df8161454a565b90506145eb8184613710565b90506145f68161454a565b9050613e678183613710565b60258152602081017f4f6e6c792074686520726f7574657220636f6e74726163742063616e2064656c81527f656761746500000000000000000000000000000000000000000000000000000060208201529050613790565b6020808252810161303c81614602565b60a0810161467882886131e0565b61468560208301876131e0565b81810360408301526146978186613160565b9050613e5a60608301856131e0565b60268152602081017f4f776e61626c653a206e6577206f776e657220697320746865207a65726f206181527f646472657373000000000000000000000000000000000000000000000000000060208201529050613790565b6020808252810161303c816146a6565b6080810161471c82876131e0565b61439c60208301866131e0565b60008261473857614738613a31565b500690565b805161303c81613397565b60006020828403121561475d5761475d600080fd5b6000612a60848461473d565b602a8152602081017f5361666545524332303a204552433230206f7065726174696f6e20646964206e81527f6f7420737563636565640000000000000000000000000000000000000000000060208201529050613790565b6020808252810161303c81614769565b606081016147df82866131e0565b6147ec60208301856131e0565b612a606040830184613082565b60268152602081017f416464726573733a20696e73756666696369656e742062616c616e636520666f81527f722063616c6c000000000000000000000000000000000000000000000000000060208201529050613790565b6020808252810161303c816147f9565b601d8152602081017f416464726573733a2063616c6c20746f206e6f6e2d636f6e7472616374000000815290506132c3565b6020808252810161303c8161486156fea2646970667358221220a85885f94a1577a663dfd3027dfc7f44bb63c3729c98a7b450e5d0f917b40ad264736f6c634300080a0033",
  "devdoc": {
    "details": "Most of the functions to be called from outside will use the name of policyToken         rather than the address (easy to read).         Other variables or functions still use address to index.         The rule of policyToken naming is:              Original Token Name(with decimals) + Strike Price + Lower or Higher + Date         E.g.  AVAX_30.0_L_2101, BTC_30000.0_L_2102, ETH_8000.0_H_2109         (the original name need to be the same as in the chainlink oracle)         There are three decimals for a policy token:              1. Name decimals: Only for generating the name of policyToken              2. Token decimals: The decimals of the policyToken                 (should be the same as the paired stablecoin)              3. Price decimals: Always 18. The oracle result will be transferred for settlement",
    "kind": "dev",
    "methods": {
      "_generateName(string,uint256,uint256,bool,string)": {
        "params": {
          "_decimals": "Decimals of the name generation (0,1=>1, 2=>2)",
          "_isCall": "The policy's payoff is triggered when higher(true) or lower(false)",
          "_round": "Round of the policy, named by <month><day> (e.g. 0320, 1215)",
          "_strikePrice": "Strike price of the policy (18 decimals)",
          "_tokenName": "Name of the stike token (BTC, ETH, AVAX...)"
        }
      },
      "addStablecoin(address)": {
        "params": {
          "_newStablecoin": "Address of the new stablecoin"
        }
      },
      "claim(string,address,uint256)": {
        "details": "It is done after result settlement and only if the result is true",
        "params": {
          "_amount": "Amount of stablecoin",
          "_policyTokenName": "Name of the policy token",
          "_stablecoin": "Address of the stable coin"
        }
      },
      "collectIncome(address)": {
        "details": "Can be done by anyone, only when there is some income to be distributed",
        "params": {
          "_stablecoin": "Address of stablecoin"
        }
      },
      "constructor": {
        "params": {
          "_factory": "Address of naughty factory",
          "_priceGetter": "Address of the oracle contract",
          "_usdt": "USDT.e is the first stablecoin supported in the pool"
        }
      },
      "delegateDeposit(string,address,uint256,address)": {
        "details": "Only called by the router contract",
        "params": {
          "_amount": "Amount of stablecoin",
          "_policyTokenName": "Name of the policy token",
          "_stablecoin": "Address of the sable coin",
          "_user": "Address to receive the policy tokens"
        }
      },
      "deployPolicyToken(string,address,bool,uint256,uint256,uint256,string,uint256,uint256)": {
        "details": "Only the owner can deploy new policy token      The name form is like \"AVAX_50_L_2203\" and is built inside the contract.",
        "params": {
          "_deadline": "Deadline of this policy token (deposit / redeem / swap)",
          "_isCall": "The policy is for higher or lower than the strike price (call / put)",
          "_nameDecimals": "Decimals of this token's name (0~18)",
          "_round": "Round of the token (e.g. 2203 -> expired at 22 March)",
          "_settleTimestamp": "Can settle after this timestamp (for oracle)",
          "_stablecoin": "Address of the stablecoin (Just for check decimals here)",
          "_strikePrice": "Strike price of the policy (have already been transferred with 1e18)",
          "_tokenDecimals": "Decimals of this token's value (0~18) (same as paired stablecoin)",
          "_tokenName": "Name of the original token (e.g. AVAX, BTC, ETH...)"
        }
      },
      "deployPool(string,address,uint256,uint256)": {
        "params": {
          "_feeRate": "Fee rate given to LP holders",
          "_policyTokenName": "Name of the policy token",
          "_poolDeadline": "Swapping deadline of the pool (normally the same as the token's deadline)",
          "_stablecoin": "Address of the stable coin"
        }
      },
      "deposit(string,address,uint256)": {
        "params": {
          "_amount": "Amount of stablecoin",
          "_policyTokenName": "Name of the policy token",
          "_stablecoin": "Address of the stable coin"
        }
      },
      "findAddressbyName(string)": {
        "params": {
          "_policyTokenName": "Name of the policy token (e.g. \"AVAX_30_L_2103\")"
        },
        "returns": {
          "policyTokenAddress": "Address of the policy token"
        }
      },
      "findNamebyAddress(address)": {
        "params": {
          "_policyTokenAddress": "Address of the policy token"
        },
        "returns": {
          "policyTokenName": "Name of the policy token"
        }
      },
      "getAllTokens()": {
        "details": "Include all active&expired tokens",
        "returns": {
          "_0": "tokensInfo Token information list"
        }
      },
      "getPolicyTokenInfo(string)": {
        "params": {
          "_policyTokenName": "Name of the policy token (e.g. \"AVAX30L202103\")"
        },
        "returns": {
          "_0": "policyTokenInfo PolicyToken detail information"
        }
      },
      "getUserQuota(address,address)": {
        "params": {
          "_policyTokenAddress": "Address of the policy token",
          "_user": "Address of the user to be checked"
        },
        "returns": {
          "_quota": "User's quota result"
        }
      },
      "redeem(string,address,uint256)": {
        "details": "Redeem happens before the deadline and is different from claim/settle",
        "params": {
          "_amount": "Amount to redeem",
          "_policyTokenName": "Name of the policy token",
          "_stablecoin": "Address of the stablecoin"
        }
      },
      "redeemAfterSettlement(string,address)": {
        "params": {
          "_policyTokenName": "Name of the policy token",
          "_stablecoin": "Address of the stablecoin"
        }
      },
      "renounceOwnership()": {
        "details": "Renouncing ownership will leave the contract without an owner,         thereby removing any functionality that is only available to the owner."
      },
      "setIncomeSharing(address)": {
        "params": {
          "_incomeSharing": "Address of the new incomeSharing"
        }
      },
      "setLottery(address)": {
        "params": {
          "_lotteryAddress": "Address of the new lottery"
        }
      },
      "setNaughtyRouter(address)": {
        "params": {
          "_router": "Address of the new naughty router"
        }
      },
      "settleAllPolicyTokens(string,address,uint256,uint256)": {
        "details": "Take care of the gas cost and can use the _startIndex and _stopIndex to control the size",
        "params": {
          "_policyTokenName": "Name of policy token",
          "_stablecoin": "Address of stablecoin",
          "_startIndex": "Settlement start index",
          "_stopIndex": "Settlement stop index"
        }
      },
      "settleFinalResult(string)": {
        "params": {
          "_policyTokenName": "Name of the policy token"
        }
      },
      "transferOwnership(address)": {
        "details": "Can only be called by the current owner.",
        "params": {
          "newOwner": "Address of the new owner"
        }
      }
    },
    "title": "PolicyCore",
    "version": 1
  },
  "userdoc": {
    "kind": "user",
    "methods": {
      "_generateName(string,uint256,uint256,bool,string)": {
        "notice": "Generate the policy token name"
      },
      "addStablecoin(address)": {
        "notice": "Add a new supported stablecoin"
      },
      "claim(string,address,uint256)": {
        "notice": "Claim a payoff based on policy tokens"
      },
      "collectIncome(address)": {
        "notice": "Collect the income"
      },
      "constructor": {
        "notice": "Constructor, for some addresses"
      },
      "delegateDeposit(string,address,uint256,address)": {
        "notice": "Delegate deposit (deposit and mint for other addresses)"
      },
      "deployPolicyToken(string,address,bool,uint256,uint256,uint256,string,uint256,uint256)": {
        "notice": "Deploy a new policy token and return the token address"
      },
      "deployPool(string,address,uint256,uint256)": {
        "notice": "Deploy a new pair (pool)"
      },
      "deposit(string,address,uint256)": {
        "notice": "Deposit stablecoins and get policy tokens"
      },
      "findAddressbyName(string)": {
        "notice": "Find the token address by its name"
      },
      "findNamebyAddress(address)": {
        "notice": "Find the token name by its address"
      },
      "getAllTokens()": {
        "notice": "Get the information about all the tokens"
      },
      "getPolicyTokenInfo(string)": {
        "notice": "Find the token information by its name"
      },
      "getUserQuota(address,address)": {
        "notice": "Get a user's quota for a certain policy token"
      },
      "owner()": {
        "notice": "Returns the address of the current owner."
      },
      "redeem(string,address,uint256)": {
        "notice": "Burn policy tokens and redeem stablecoins"
      },
      "redeemAfterSettlement(string,address)": {
        "notice": "Redeem policy tokens and get stablecoins by the user himeself"
      },
      "renounceOwnership()": {
        "notice": "Leaves the contract without owner. It will not be possible to call         `onlyOwner` functions anymore. Can only be called by the current owner."
      },
      "setIncomeSharing(address)": {
        "notice": "Change the address of emergency pool"
      },
      "setLottery(address)": {
        "notice": "Change the address of lottery"
      },
      "setNaughtyRouter(address)": {
        "notice": "Change the address of naughty router"
      },
      "settleAllPolicyTokens(string,address,uint256,uint256)": {
        "notice": "Settle the policies for the users when insurance events do not happen         Funds are automatically distributed back to the depositors"
      },
      "settleFinalResult(string)": {
        "notice": "Get the final price from the PriceGetter contract"
      },
      "transferOwnership(address)": {
        "notice": "Transfers ownership of the contract to a new account (`newOwner`)."
      }
    },
    "notice": "Core logic of Naughty Price Product         Preset:              (Done in the naughtyFactory contract)              1. Deploy policyToken contract              2. Deploy policyToken-Stablecoin pool contract         User Interaction:              1. Deposit Stablecoin and mint PolicyTokens              2. Redeem their Stablecoin and burn the PolicyTokens (before settlement)              3. Claim for payout with PolicyTokens (after settlement)         PolicyTokens are minted with the ratio 1:1 to Stablecoin         The PolicyTokens are traded in the pool with CFMM (xy=k)         When the event happens, a PolicyToken can be burned for claiming 1 Stablecoin.         When the event does not happen, the PolicyToken depositors can         redeem their 1 deposited Stablecoin",
    "version": 1
  },
  "storageLayout": {
    "storage": [
      {
        "astId": 31949,
        "contract": "contracts/naughty-price/PolicyCore.sol:PolicyCore",
        "label": "_owner",
        "offset": 0,
        "slot": "0",
        "type": "t_address"
      },
      {
        "astId": 27168,
        "contract": "contracts/naughty-price/PolicyCore.sol:PolicyCore",
        "label": "factory",
        "offset": 0,
        "slot": "1",
        "type": "t_contract(INaughtyFactory)29298"
      },
      {
        "astId": 27171,
        "contract": "contracts/naughty-price/PolicyCore.sol:PolicyCore",
        "label": "priceGetter",
        "offset": 0,
        "slot": "2",
        "type": "t_contract(IPriceGetter)29564"
      },
      {
        "astId": 27173,
        "contract": "contracts/naughty-price/PolicyCore.sol:PolicyCore",
        "label": "lottery",
        "offset": 0,
        "slot": "3",
        "type": "t_address"
      },
      {
        "astId": 27175,
        "contract": "contracts/naughty-price/PolicyCore.sol:PolicyCore",
        "label": "incomeSharing",
        "offset": 0,
        "slot": "4",
        "type": "t_address"
      },
      {
        "astId": 27177,
        "contract": "contracts/naughty-price/PolicyCore.sol:PolicyCore",
        "label": "naughtyRouter",
        "offset": 0,
        "slot": "5",
        "type": "t_address"
      },
      {
        "astId": 27179,
        "contract": "contracts/naughty-price/PolicyCore.sol:PolicyCore",
        "label": "ILMContract",
        "offset": 0,
        "slot": "6",
        "type": "t_address"
      },
      {
        "astId": 27181,
        "contract": "contracts/naughty-price/PolicyCore.sol:PolicyCore",
        "label": "toLottery",
        "offset": 0,
        "slot": "7",
        "type": "t_uint256"
      },
      {
        "astId": 27201,
        "contract": "contracts/naughty-price/PolicyCore.sol:PolicyCore",
        "label": "policyTokenInfoMapping",
        "offset": 0,
        "slot": "8",
        "type": "t_mapping(t_string_memory_ptr,t_struct(PolicyTokenInfo)27196_storage)"
      },
      {
        "astId": 27205,
        "contract": "contracts/naughty-price/PolicyCore.sol:PolicyCore",
        "label": "policyTokenAddressToName",
        "offset": 0,
        "slot": "9",
        "type": "t_mapping(t_address,t_string_storage)"
      },
      {
        "astId": 27208,
        "contract": "contracts/naughty-price/PolicyCore.sol:PolicyCore",
        "label": "allPolicyTokens",
        "offset": 0,
        "slot": "10",
        "type": "t_array(t_string_storage)dyn_storage"
      },
      {
        "astId": 27212,
        "contract": "contracts/naughty-price/PolicyCore.sol:PolicyCore",
        "label": "supportedStablecoin",
        "offset": 0,
        "slot": "11",
        "type": "t_mapping(t_address,t_bool)"
      },
      {
        "astId": 27216,
        "contract": "contracts/naughty-price/PolicyCore.sol:PolicyCore",
        "label": "whichStablecoin",
        "offset": 0,
        "slot": "12",
        "type": "t_mapping(t_address,t_address)"
      },
      {
        "astId": 27220,
        "contract": "contracts/naughty-price/PolicyCore.sol:PolicyCore",
        "label": "policyTokenToOriginal",
        "offset": 0,
        "slot": "13",
        "type": "t_mapping(t_address,t_string_storage)"
      },
      {
        "astId": 27226,
        "contract": "contracts/naughty-price/PolicyCore.sol:PolicyCore",
        "label": "userQuota",
        "offset": 0,
        "slot": "14",
        "type": "t_mapping(t_address,t_mapping(t_address,t_uint256))"
      },
      {
        "astId": 27231,
        "contract": "contracts/naughty-price/PolicyCore.sol:PolicyCore",
        "label": "allDepositors",
        "offset": 0,
        "slot": "15",
        "type": "t_mapping(t_address,t_array(t_address)dyn_storage)"
      },
      {
        "astId": 27245,
        "contract": "contracts/naughty-price/PolicyCore.sol:PolicyCore",
        "label": "settleResult",
        "offset": 0,
        "slot": "16",
        "type": "t_mapping(t_address,t_struct(SettlementInfo)27240_storage)"
      },
      {
        "astId": 27249,
        "contract": "contracts/naughty-price/PolicyCore.sol:PolicyCore",
        "label": "pendingIncomeToLottery",
        "offset": 0,
        "slot": "17",
        "type": "t_mapping(t_address,t_uint256)"
      },
      {
        "astId": 27253,
        "contract": "contracts/naughty-price/PolicyCore.sol:PolicyCore",
        "label": "pendingIncomeToSharing",
        "offset": 0,
        "slot": "18",
        "type": "t_mapping(t_address,t_uint256)"
      }
    ],
    "types": {
      "t_address": {
        "encoding": "inplace",
        "label": "address",
        "numberOfBytes": "20"
      },
      "t_array(t_address)dyn_storage": {
        "base": "t_address",
        "encoding": "dynamic_array",
        "label": "address[]",
        "numberOfBytes": "32"
      },
      "t_array(t_string_storage)dyn_storage": {
        "base": "t_string_storage",
        "encoding": "dynamic_array",
        "label": "string[]",
        "numberOfBytes": "32"
      },
      "t_bool": {
        "encoding": "inplace",
        "label": "bool",
        "numberOfBytes": "1"
      },
      "t_contract(INaughtyFactory)29298": {
        "encoding": "inplace",
        "label": "contract INaughtyFactory",
        "numberOfBytes": "20"
      },
      "t_contract(IPriceGetter)29564": {
        "encoding": "inplace",
        "label": "contract IPriceGetter",
        "numberOfBytes": "20"
      },
      "t_mapping(t_address,t_address)": {
        "encoding": "mapping",
        "key": "t_address",
        "label": "mapping(address => address)",
        "numberOfBytes": "32",
        "value": "t_address"
      },
      "t_mapping(t_address,t_array(t_address)dyn_storage)": {
        "encoding": "mapping",
        "key": "t_address",
        "label": "mapping(address => address[])",
        "numberOfBytes": "32",
        "value": "t_array(t_address)dyn_storage"
      },
      "t_mapping(t_address,t_bool)": {
        "encoding": "mapping",
        "key": "t_address",
        "label": "mapping(address => bool)",
        "numberOfBytes": "32",
        "value": "t_bool"
      },
      "t_mapping(t_address,t_mapping(t_address,t_uint256))": {
        "encoding": "mapping",
        "key": "t_address",
        "label": "mapping(address => mapping(address => uint256))",
        "numberOfBytes": "32",
        "value": "t_mapping(t_address,t_uint256)"
      },
      "t_mapping(t_address,t_string_storage)": {
        "encoding": "mapping",
        "key": "t_address",
        "label": "mapping(address => string)",
        "numberOfBytes": "32",
        "value": "t_string_storage"
      },
      "t_mapping(t_address,t_struct(SettlementInfo)27240_storage)": {
        "encoding": "mapping",
        "key": "t_address",
        "label": "mapping(address => struct PolicyCore.SettlementInfo)",
        "numberOfBytes": "32",
        "value": "t_struct(SettlementInfo)27240_storage"
      },
      "t_mapping(t_address,t_uint256)": {
        "encoding": "mapping",
        "key": "t_address",
        "label": "mapping(address => uint256)",
        "numberOfBytes": "32",
        "value": "t_uint256"
      },
      "t_mapping(t_string_memory_ptr,t_struct(PolicyTokenInfo)27196_storage)": {
        "encoding": "mapping",
        "key": "t_string_memory_ptr",
        "label": "mapping(string => struct PolicyCore.PolicyTokenInfo)",
        "numberOfBytes": "32",
        "value": "t_struct(PolicyTokenInfo)27196_storage"
      },
      "t_string_memory_ptr": {
        "encoding": "bytes",
        "label": "string",
        "numberOfBytes": "32"
      },
      "t_string_storage": {
        "encoding": "bytes",
        "label": "string",
        "numberOfBytes": "32"
      },
      "t_struct(PolicyTokenInfo)27196_storage": {
        "encoding": "inplace",
        "label": "struct PolicyCore.PolicyTokenInfo",
        "members": [
          {
            "astId": 27183,
            "contract": "contracts/naughty-price/PolicyCore.sol:PolicyCore",
            "label": "policyTokenAddress",
            "offset": 0,
            "slot": "0",
            "type": "t_address"
          },
          {
            "astId": 27185,
            "contract": "contracts/naughty-price/PolicyCore.sol:PolicyCore",
            "label": "isCall",
            "offset": 20,
            "slot": "0",
            "type": "t_bool"
          },
          {
            "astId": 27187,
            "contract": "contracts/naughty-price/PolicyCore.sol:PolicyCore",
            "label": "nameDecimals",
            "offset": 0,
            "slot": "1",
            "type": "t_uint256"
          },
          {
            "astId": 27189,
            "contract": "contracts/naughty-price/PolicyCore.sol:PolicyCore",
            "label": "tokenDecimals",
            "offset": 0,
            "slot": "2",
            "type": "t_uint256"
          },
          {
            "astId": 27191,
            "contract": "contracts/naughty-price/PolicyCore.sol:PolicyCore",
            "label": "strikePrice",
            "offset": 0,
            "slot": "3",
            "type": "t_uint256"
          },
          {
            "astId": 27193,
            "contract": "contracts/naughty-price/PolicyCore.sol:PolicyCore",
            "label": "deadline",
            "offset": 0,
            "slot": "4",
            "type": "t_uint256"
          },
          {
            "astId": 27195,
            "contract": "contracts/naughty-price/PolicyCore.sol:PolicyCore",
            "label": "settleTimestamp",
            "offset": 0,
            "slot": "5",
            "type": "t_uint256"
          }
        ],
        "numberOfBytes": "192"
      },
      "t_struct(SettlementInfo)27240_storage": {
        "encoding": "inplace",
        "label": "struct PolicyCore.SettlementInfo",
        "members": [
          {
            "astId": 27233,
            "contract": "contracts/naughty-price/PolicyCore.sol:PolicyCore",
            "label": "price",
            "offset": 0,
            "slot": "0",
            "type": "t_uint256"
          },
          {
            "astId": 27235,
            "contract": "contracts/naughty-price/PolicyCore.sol:PolicyCore",
            "label": "isHappened",
            "offset": 0,
            "slot": "1",
            "type": "t_bool"
          },
          {
            "astId": 27237,
            "contract": "contracts/naughty-price/PolicyCore.sol:PolicyCore",
            "label": "alreadySettled",
            "offset": 1,
            "slot": "1",
            "type": "t_bool"
          },
          {
            "astId": 27239,
            "contract": "contracts/naughty-price/PolicyCore.sol:PolicyCore",
            "label": "currentDistributionIndex",
            "offset": 0,
            "slot": "2",
            "type": "t_uint256"
          }
        ],
        "numberOfBytes": "96"
      },
      "t_uint256": {
        "encoding": "inplace",
        "label": "uint256",
        "numberOfBytes": "32"
      }
    }
  }
}