{
  "address": "0xD67cFeFeF7534715B43E5C6004F9C10aE1e98249",
  "abi": [
    {
      "inputs": [
        {
          "internalType": "address",
          "name": "_usdt",
          "type": "address"
        },
        {
          "internalType": "address",
          "name": "_factory",
          "type": "address"
        },
        {
          "internalType": "address",
          "name": "_priceGetter",
          "type": "address"
        }
      ],
      "stateMutability": "nonpayable",
      "type": "constructor"
    },
    {
      "anonymous": false,
      "inputs": [
        {
          "indexed": false,
          "internalType": "address",
          "name": "payerAddress",
          "type": "address"
        },
        {
          "indexed": false,
          "internalType": "address",
          "name": "userAddress",
          "type": "address"
        },
        {
          "indexed": false,
          "internalType": "string",
          "name": "policyTokenName",
          "type": "string"
        },
        {
          "indexed": false,
          "internalType": "address",
          "name": "stablecoin",
          "type": "address"
        },
        {
          "indexed": false,
          "internalType": "uint256",
          "name": "amount",
          "type": "uint256"
        }
      ],
      "name": "DelegateDeposit",
      "type": "event"
    },
    {
      "anonymous": false,
      "inputs": [
        {
          "indexed": false,
          "internalType": "address",
          "name": "userAddress",
          "type": "address"
        },
        {
          "indexed": false,
          "internalType": "string",
          "name": "policyTokenName",
          "type": "string"
        },
        {
          "indexed": false,
          "internalType": "address",
          "name": "stablecoin",
          "type": "address"
        },
        {
          "indexed": false,
          "internalType": "uint256",
          "name": "amount",
          "type": "uint256"
        }
      ],
      "name": "Deposit",
      "type": "event"
    },
    {
      "anonymous": false,
      "inputs": [
        {
          "indexed": false,
          "internalType": "address",
          "name": "newEmergencyPool",
          "type": "address"
        }
      ],
      "name": "EmergencyPoolChanged",
      "type": "event"
    },
    {
      "anonymous": false,
      "inputs": [
        {
          "indexed": false,
          "internalType": "string",
          "name": "_policyTokenName",
          "type": "string"
        },
        {
          "indexed": false,
          "internalType": "uint256",
          "name": "price",
          "type": "uint256"
        },
        {
          "indexed": false,
          "internalType": "bool",
          "name": "isHappened",
          "type": "bool"
        }
      ],
      "name": "FinalResultSettled",
      "type": "event"
    },
    {
      "anonymous": false,
      "inputs": [
        {
          "indexed": false,
          "internalType": "address",
          "name": "newLotteryAddress",
          "type": "address"
        }
      ],
      "name": "LotteryChanged",
      "type": "event"
    },
    {
      "anonymous": false,
      "inputs": [
        {
          "indexed": false,
          "internalType": "address",
          "name": "newRouter",
          "type": "address"
        }
      ],
      "name": "NaughtyRouterChanged",
      "type": "event"
    },
    {
      "anonymous": false,
      "inputs": [
        {
          "indexed": false,
          "internalType": "address",
          "name": "_newStablecoin",
          "type": "address"
        }
      ],
      "name": "NewStablecoinAdded",
      "type": "event"
    },
    {
      "anonymous": false,
      "inputs": [
        {
          "indexed": true,
          "internalType": "address",
          "name": "previousOwner",
          "type": "address"
        },
        {
          "indexed": true,
          "internalType": "address",
          "name": "newOwner",
          "type": "address"
        }
      ],
      "name": "OwnershipTransferred",
      "type": "event"
    },
    {
      "anonymous": false,
      "inputs": [
        {
          "indexed": false,
          "internalType": "string",
          "name": "tokenName",
          "type": "string"
        },
        {
          "indexed": false,
          "internalType": "address",
          "name": "tokenAddress",
          "type": "address"
        },
        {
          "indexed": false,
          "internalType": "uint256",
          "name": "deadline",
          "type": "uint256"
        },
        {
          "indexed": false,
          "internalType": "uint256",
          "name": "settleTimestamp",
          "type": "uint256"
        }
      ],
      "name": "PolicyTokenDeployed",
      "type": "event"
    },
    {
      "anonymous": false,
      "inputs": [
        {
          "indexed": false,
          "internalType": "address",
          "name": "poolAddress",
          "type": "address"
        },
        {
          "indexed": false,
          "internalType": "address",
          "name": "policyTokenAddress",
          "type": "address"
        },
        {
          "indexed": false,
          "internalType": "address",
          "name": "stablecoin",
          "type": "address"
        }
      ],
      "name": "PoolDeployed",
      "type": "event"
    },
    {
      "inputs": [
        {
          "internalType": "string",
          "name": "_tokenName",
          "type": "string"
        },
        {
          "internalType": "uint256",
          "name": "_decimals",
          "type": "uint256"
        },
        {
          "internalType": "uint256",
          "name": "_strikePrice",
          "type": "uint256"
        },
        {
          "internalType": "bool",
          "name": "_isCall",
          "type": "bool"
        },
        {
          "internalType": "uint256",
          "name": "_round",
          "type": "uint256"
        }
      ],
      "name": "_generateName",
      "outputs": [
        {
          "internalType": "string",
          "name": "",
          "type": "string"
        }
      ],
      "stateMutability": "pure",
      "type": "function"
    },
    {
      "inputs": [
        {
          "internalType": "address",
          "name": "_newStablecoin",
          "type": "address"
        }
      ],
      "name": "addStablecoin",
      "outputs": [],
      "stateMutability": "nonpayable",
      "type": "function"
    },
    {
      "inputs": [
        {
          "internalType": "address",
          "name": "",
          "type": "address"
        },
        {
          "internalType": "uint256",
          "name": "",
          "type": "uint256"
        }
      ],
      "name": "allDepositors",
      "outputs": [
        {
          "internalType": "address",
          "name": "",
          "type": "address"
        }
      ],
      "stateMutability": "view",
      "type": "function"
    },
    {
      "inputs": [
        {
          "internalType": "uint256",
          "name": "",
          "type": "uint256"
        }
      ],
      "name": "allPolicyTokens",
      "outputs": [
        {
          "internalType": "string",
          "name": "",
          "type": "string"
        }
      ],
      "stateMutability": "view",
      "type": "function"
    },
    {
      "inputs": [
        {
          "internalType": "address",
          "name": "_user",
          "type": "address"
        },
        {
          "internalType": "address",
          "name": "_policyTokenAddress",
          "type": "address"
        }
      ],
      "name": "checkUserQuota",
      "outputs": [
        {
          "internalType": "uint256",
          "name": "_quota",
          "type": "uint256"
        }
      ],
      "stateMutability": "view",
      "type": "function"
    },
    {
      "inputs": [
        {
          "internalType": "string",
          "name": "_policyTokenName",
          "type": "string"
        },
        {
          "internalType": "address",
          "name": "_stablecoin",
          "type": "address"
        },
        {
          "internalType": "uint256",
          "name": "_amount",
          "type": "uint256"
        }
      ],
      "name": "claim",
      "outputs": [],
      "stateMutability": "nonpayable",
      "type": "function"
    },
    {
      "inputs": [],
      "name": "currentDistributionIndex",
      "outputs": [
        {
          "internalType": "uint256",
          "name": "",
          "type": "uint256"
        }
      ],
      "stateMutability": "view",
      "type": "function"
    },
    {
      "inputs": [
        {
          "internalType": "string",
          "name": "_policyTokenName",
          "type": "string"
        },
        {
          "internalType": "address",
          "name": "_stablecoin",
          "type": "address"
        },
        {
          "internalType": "uint256",
          "name": "_amount",
          "type": "uint256"
        },
        {
          "internalType": "address",
          "name": "_user",
          "type": "address"
        }
      ],
      "name": "delegateDeposit",
      "outputs": [],
      "stateMutability": "nonpayable",
      "type": "function"
    },
    {
      "inputs": [
        {
          "internalType": "string",
          "name": "_tokenName",
          "type": "string"
        },
        {
          "internalType": "bool",
          "name": "_isCall",
          "type": "bool"
        },
        {
          "internalType": "uint256",
          "name": "_decimals",
          "type": "uint256"
        },
        {
          "internalType": "uint256",
          "name": "_strikePrice",
          "type": "uint256"
        },
        {
          "internalType": "uint256",
          "name": "_round",
          "type": "uint256"
        },
        {
          "internalType": "uint256",
          "name": "_deadline",
          "type": "uint256"
        },
        {
          "internalType": "uint256",
          "name": "_settleTimestamp",
          "type": "uint256"
        }
      ],
      "name": "deployPolicyToken",
      "outputs": [
        {
          "internalType": "address",
          "name": "",
          "type": "address"
        }
      ],
      "stateMutability": "nonpayable",
      "type": "function"
    },
    {
      "inputs": [
        {
          "internalType": "string",
          "name": "_policyTokenName",
          "type": "string"
        },
        {
          "internalType": "address",
          "name": "_stablecoin",
          "type": "address"
        },
        {
          "internalType": "uint256",
          "name": "_poolDeadline",
          "type": "uint256"
        },
        {
          "internalType": "uint256",
          "name": "_feeRate",
          "type": "uint256"
        }
      ],
      "name": "deployPool",
      "outputs": [
        {
          "internalType": "address",
          "name": "",
          "type": "address"
        }
      ],
      "stateMutability": "nonpayable",
      "type": "function"
    },
    {
      "inputs": [
        {
          "internalType": "string",
          "name": "_policyTokenName",
          "type": "string"
        },
        {
          "internalType": "address",
          "name": "_stablecoin",
          "type": "address"
        },
        {
          "internalType": "uint256",
          "name": "_amount",
          "type": "uint256"
        }
      ],
      "name": "deposit",
      "outputs": [],
      "stateMutability": "nonpayable",
      "type": "function"
    },
    {
      "inputs": [],
      "name": "emergencyPool",
      "outputs": [
        {
          "internalType": "address",
          "name": "",
          "type": "address"
        }
      ],
      "stateMutability": "view",
      "type": "function"
    },
    {
      "inputs": [],
      "name": "factory",
      "outputs": [
        {
          "internalType": "contract INaughtyFactory",
          "name": "",
          "type": "address"
        }
      ],
      "stateMutability": "view",
      "type": "function"
    },
    {
      "inputs": [
        {
          "internalType": "string",
          "name": "_policyTokenName",
          "type": "string"
        }
      ],
      "name": "findAddressbyName",
      "outputs": [
        {
          "internalType": "address",
          "name": "",
          "type": "address"
        }
      ],
      "stateMutability": "view",
      "type": "function"
    },
    {
      "inputs": [
        {
          "internalType": "address",
          "name": "_policyTokenAddress",
          "type": "address"
        }
      ],
      "name": "findNamebyAddress",
      "outputs": [
        {
          "internalType": "string",
          "name": "",
          "type": "string"
        }
      ],
      "stateMutability": "view",
      "type": "function"
    },
    {
      "inputs": [],
      "name": "getAllTokens",
      "outputs": [
        {
          "components": [
            {
              "internalType": "address",
              "name": "policyTokenAddress",
              "type": "address"
            },
            {
              "internalType": "bool",
              "name": "isCall",
              "type": "bool"
            },
            {
              "internalType": "uint256",
              "name": "decimals",
              "type": "uint256"
            },
            {
              "internalType": "uint256",
              "name": "strikePrice",
              "type": "uint256"
            },
            {
              "internalType": "uint256",
              "name": "deadline",
              "type": "uint256"
            },
            {
              "internalType": "uint256",
              "name": "settleTimestamp",
              "type": "uint256"
            }
          ],
          "internalType": "struct PolicyCore.PolicyTokenInfo[]",
          "name": "",
          "type": "tuple[]"
        }
      ],
      "stateMutability": "view",
      "type": "function"
    },
    {
      "inputs": [
        {
          "internalType": "string",
          "name": "_policyTokenName",
          "type": "string"
        }
      ],
      "name": "getPolicyTokenInfo",
      "outputs": [
        {
          "components": [
            {
              "internalType": "address",
              "name": "policyTokenAddress",
              "type": "address"
            },
            {
              "internalType": "bool",
              "name": "isCall",
              "type": "bool"
            },
            {
              "internalType": "uint256",
              "name": "decimals",
              "type": "uint256"
            },
            {
              "internalType": "uint256",
              "name": "strikePrice",
              "type": "uint256"
            },
            {
              "internalType": "uint256",
              "name": "deadline",
              "type": "uint256"
            },
            {
              "internalType": "uint256",
              "name": "settleTimestamp",
              "type": "uint256"
            }
          ],
          "internalType": "struct PolicyCore.PolicyTokenInfo",
          "name": "",
          "type": "tuple"
        }
      ],
      "stateMutability": "view",
      "type": "function"
    },
    {
      "inputs": [],
      "name": "lottery",
      "outputs": [
        {
          "internalType": "address",
          "name": "",
          "type": "address"
        }
      ],
      "stateMutability": "view",
      "type": "function"
    },
    {
      "inputs": [],
      "name": "naughtyRouter",
      "outputs": [
        {
          "internalType": "address",
          "name": "",
          "type": "address"
        }
      ],
      "stateMutability": "view",
      "type": "function"
    },
    {
      "inputs": [],
      "name": "owner",
      "outputs": [
        {
          "internalType": "address",
          "name": "",
          "type": "address"
        }
      ],
      "stateMutability": "view",
      "type": "function"
    },
    {
      "inputs": [
        {
          "internalType": "address",
          "name": "",
          "type": "address"
        }
      ],
      "name": "policyTokenAddressToName",
      "outputs": [
        {
          "internalType": "string",
          "name": "",
          "type": "string"
        }
      ],
      "stateMutability": "view",
      "type": "function"
    },
    {
      "inputs": [
        {
          "internalType": "string",
          "name": "",
          "type": "string"
        }
      ],
      "name": "policyTokenInfoMapping",
      "outputs": [
        {
          "internalType": "address",
          "name": "policyTokenAddress",
          "type": "address"
        },
        {
          "internalType": "bool",
          "name": "isCall",
          "type": "bool"
        },
        {
          "internalType": "uint256",
          "name": "decimals",
          "type": "uint256"
        },
        {
          "internalType": "uint256",
          "name": "strikePrice",
          "type": "uint256"
        },
        {
          "internalType": "uint256",
          "name": "deadline",
          "type": "uint256"
        },
        {
          "internalType": "uint256",
          "name": "settleTimestamp",
          "type": "uint256"
        }
      ],
      "stateMutability": "view",
      "type": "function"
    },
    {
      "inputs": [],
      "name": "priceGetter",
      "outputs": [
        {
          "internalType": "contract IPriceGetter",
          "name": "",
          "type": "address"
        }
      ],
      "stateMutability": "view",
      "type": "function"
    },
    {
      "inputs": [
        {
          "internalType": "string",
          "name": "_policyTokenName",
          "type": "string"
        },
        {
          "internalType": "address",
          "name": "_stablecoin",
          "type": "address"
        },
        {
          "internalType": "uint256",
          "name": "_amount",
          "type": "uint256"
        }
      ],
      "name": "redeem",
      "outputs": [],
      "stateMutability": "nonpayable",
      "type": "function"
    },
    {
      "inputs": [
        {
          "internalType": "string",
          "name": "_policyTokenName",
          "type": "string"
        },
        {
          "internalType": "address",
          "name": "_stablecoin",
          "type": "address"
        }
      ],
      "name": "redeemAfterSettlement",
      "outputs": [],
      "stateMutability": "nonpayable",
      "type": "function"
    },
    {
      "inputs": [],
      "name": "renounceOwnership",
      "outputs": [],
      "stateMutability": "nonpayable",
      "type": "function"
    },
    {
      "inputs": [
        {
          "internalType": "address",
          "name": "_emergencyPool",
          "type": "address"
        }
      ],
      "name": "setEmergencyPool",
      "outputs": [],
      "stateMutability": "nonpayable",
      "type": "function"
    },
    {
      "inputs": [
        {
          "internalType": "address",
          "name": "_lotteryAddress",
          "type": "address"
        }
      ],
      "name": "setLottery",
      "outputs": [],
      "stateMutability": "nonpayable",
      "type": "function"
    },
    {
      "inputs": [
        {
          "internalType": "address",
          "name": "_router",
          "type": "address"
        }
      ],
      "name": "setNaughtyRouter",
      "outputs": [],
      "stateMutability": "nonpayable",
      "type": "function"
    },
    {
      "inputs": [
        {
          "internalType": "string",
          "name": "_policyTokenName",
          "type": "string"
        },
        {
          "internalType": "address",
          "name": "_stablecoin",
          "type": "address"
        },
        {
          "internalType": "uint256",
          "name": "_startIndex",
          "type": "uint256"
        },
        {
          "internalType": "uint256",
          "name": "_stopIndex",
          "type": "uint256"
        }
      ],
      "name": "settleAllPolicyTokens",
      "outputs": [],
      "stateMutability": "nonpayable",
      "type": "function"
    },
    {
      "inputs": [
        {
          "internalType": "string",
          "name": "_policyTokenName",
          "type": "string"
        }
      ],
      "name": "settleFinalResult",
      "outputs": [],
      "stateMutability": "nonpayable",
      "type": "function"
    },
    {
      "inputs": [
        {
          "internalType": "address",
          "name": "",
          "type": "address"
        }
      ],
      "name": "settleResult",
      "outputs": [
        {
          "internalType": "uint256",
          "name": "price",
          "type": "uint256"
        },
        {
          "internalType": "bool",
          "name": "isHappened",
          "type": "bool"
        },
        {
          "internalType": "bool",
          "name": "alreadySettled",
          "type": "bool"
        }
      ],
      "stateMutability": "view",
      "type": "function"
    },
    {
      "inputs": [
        {
          "internalType": "address",
          "name": "",
          "type": "address"
        }
      ],
      "name": "supportedStablecoin",
      "outputs": [
        {
          "internalType": "bool",
          "name": "",
          "type": "bool"
        }
      ],
      "stateMutability": "view",
      "type": "function"
    },
    {
      "inputs": [
        {
          "internalType": "address",
          "name": "newOwner",
          "type": "address"
        }
      ],
      "name": "transferOwnership",
      "outputs": [],
      "stateMutability": "nonpayable",
      "type": "function"
    },
    {
      "inputs": [
        {
          "internalType": "address",
          "name": "",
          "type": "address"
        }
      ],
      "name": "whichStablecoin",
      "outputs": [
        {
          "internalType": "address",
          "name": "",
          "type": "address"
        }
      ],
      "stateMutability": "view",
      "type": "function"
    }
  ],
  "transactionHash": "0x3ec226f8a2388e5911a1b9d41513cf4b36ec84f47b6c9a64ebe9bdb77b3a2a91",
  "args": [
    "0x96a9175A1DD8bC37e7dD95Ee417cb92A9F19Ed0d",
    "0x4C37854A2a98fE11deFC98428C53218893159d27",
    "0x1C23af67FC2b9ec11cEfDADD648636e210817659"
  ],
  "numDeployments": 1,
  "solcInputHash": "c93208af0650ec7944554f5ed4da2f2f",
  "bytecode": "0x60806040523480156200001157600080fd5b5060405162003e3738038062003e37833981016040819052620000349162000117565b6200003f336200008d565b6001600160a01b039283166000908152600a60205260409020805460ff1916600190811790915580549284166001600160a01b0319938416179055600280549190931691161790556200016f565b600080546001600160a01b038381166001600160a01b0319831681178455604051919092169283917f8be0079c531659141344cd1fd0a4f28419497f9722a3daafe3b4186f6b6457e09190a35050565b60006001600160a01b0382165b92915050565b620000fb81620000dd565b81146200010757600080fd5b50565b8051620000ea81620000f0565b600080600060608486031215620001315762000131600080fd5b60006200013f86866200010a565b935050602062000152868287016200010a565b925050604062000165868287016200010a565b9150509250925092565b613cb8806200017f6000396000f3fe608060405234801561001057600080fd5b50600436106102115760003560e01c80637336c38d11610125578063ceed1b90116100ad578063e62512371161007c578063e625123714610567578063eb9132dd1461057a578063f15cac341461058d578063f298083b146105a0578063f2fde38b146105b357600080fd5b8063ceed1b901461050e578063d362814514610521578063d4ae823e14610534578063d9e85c841461054757600080fd5b8063ba13a572116100f4578063ba13a5721461047c578063bb9febaf1461048f578063bd75660b146104a2578063c45a0155146104db578063c49df4bf146104fb57600080fd5b80637336c38d146104325780638da5cb5b14610445578063a59b364514610456578063a815a2211461046957600080fd5b80632a48ac9a116101a85780634e75ce89116101775780634e75ce89146103a85780635cb3b14f146103bb5780635eb1877e146103eb5780636ff85ea914610414578063715018a61461042a57600080fd5b80632a48ac9a146103025780632a5c792a1461031557806338081de21461032a57806339f677381461033d57600080fd5b80631306c0a5116101e45780631306c0a51461027a57806318dd152f1461029a5780631d7ad9d8146102ad5780631ee08fa1146102c057600080fd5b806303844097146102165780630418945a1461022b57806308d89d5f1461023e5780630dc7264714610251575b600080fd5b610229610224366004612877565b6105c6565b005b6102296102393660046128e4565b6108fc565b61022961024c366004612916565b610993565b61026461025f366004612980565b610c1e565b60405161027191906129ff565b60405180910390f35b61028d610288366004612a10565b610cca565b6040516102719190612a5c565b6102646102a83660046128e4565b610d02565b6102296102bb3660046128e4565b610d1b565b6102f36102ce3660046128e4565b600f602052600090815260409020805460019091015460ff8082169161010090041683565b60405161027193929190612a78565b610229610310366004612916565b610d9f565b61031d610f22565b6040516102719190612b69565b6102646103383660046128e4565b611052565b61039661034b366004612877565b8051602081830181018051600782529282019190930120915280546001820154600283015460038401546004909401546001600160a01b03841694600160a01b90940460ff16939086565b60405161027196959493929190612b7a565b61028d6103b6366004612877565b6110fe565b6103de6103c93660046128e4565b600a6020526000908152604090205460ff1681565b6040516102719190612bc9565b61028d6103f93660046128e4565b600b602052600090815260409020546001600160a01b031681565b61041d60065481565b6040516102719190612bd7565b61022961112f565b610229610440366004612916565b611174565b6000546001600160a01b031661028d565b60045461028d906001600160a01b031681565b6102296104773660046128e4565b61142e565b60035461028d906001600160a01b031681565b61028d61049d366004612be5565b6114b2565b61041d6104b0366004612c63565b6001600160a01b039182166000908152600d6020908152604080832093909416825291909152205490565b6001546104ee906001600160a01b031681565b6040516102719190612cc6565b610229610509366004612cd4565b6116a2565b6002546104ee906001600160a01b031681565b61026461052f366004612d23565b611848565b61028d610542366004612db5565b611924565b61055a610555366004612877565b611bb1565b6040516102719190612e6e565b60055461028d906001600160a01b031681565b610229610588366004612be5565b611c32565b61022961059b366004612e7c565b611e0d565b6102296105ae3660046128e4565b611fc6565b6102296105c13660046128e4565b61204a565b8060006007826040516105d99190612f10565b9081526020016040518091039020600401549050804210156106165760405162461bcd60e51b815260040161060d90612f6d565b60405180910390fd5b8260006007826040516106299190612f10565b9081526040805160209281900383019020546001600160a01b03166000818152600f909352912060010154909150610100900460ff161561067c5760405162461bcd60e51b815260040161060d90612fbc565b600060078660405161068e9190612f10565b908152604080516020928190038301812060c08201835280546001600160a01b038116808452600160a01b90910460ff16151594830194909452600181015492820192909252600282015460608201526003820154608082015260049091015460a08201529150806107125760405162461bcd60e51b815260040161060d90613024565b6001600160a01b0381166000908152600f60209081526040808320600c909252822080549192916107429061304a565b80601f016020809104026020016040519081016040528092919081815260200182805461076e9061304a565b80156107bb5780601f10610790576101008083540402835291602001916107bb565b820191906000526020600020905b81548152906001019060200180831161079e57829003601f168201915b505060025460405163f66a1b7160e01b81529495506000946001600160a01b03909116935063f66a1b7192506107f6915085906004016129ff565b6020604051808303816000875af1158015610815573d6000803e3d6000fd5b505050506040513d601f19601f820116820180604052508101906108399190613082565b80845560608601519091506000908210801590610857575085602001515b905060008660600151831115801561087157508660200151155b9050818061087c5750805b61088757600061088a565b60015b60018601805461010061ffff1990911692151561ff0019169290921791909117908190556040517f4f7bb4bf5b5d9e711ae7506fc1acd843eea9f216861a09c312fefb7e05095a36916108e6918f91879160ff909116906130a3565b60405180910390a1505050505050505050505050565b3361090f6000546001600160a01b031690565b6001600160a01b0316146109355760405162461bcd60e51b815260040161060d906130f3565b6001600160a01b0381166000908152600a602052604090819020805460ff19166001179055517f86b377b6d485043d4a8b2b0c26051f82529ea2d7c23b1188598416473c12309390610988908390612a5c565b60405180910390a150565b818180826001600160a01b03166370a08231306040518263ffffffff1660e01b81526004016109c29190612a5c565b602060405180830381865afa1580156109df573d6000803e3d6000fd5b505050506040513d601f19601f82011682018060405250810190610a039190613082565b1015610a215760405162461bcd60e51b815260040161060d90613148565b846000600782604051610a349190612f10565b908152602001604051809103902060040154905080421015610a685760405162461bcd60e51b815260040161060d90612f6d565b6000610a73886110fe565b6001600160a01b0381166000908152600f6020526040902060010154909150610100900460ff16610ab65760405162461bcd60e51b815260040161060d9061318a565b6001600160a01b0381166000908152600f602052604090206001015460ff16610af15760405162461bcd60e51b815260040161060d906131e2565b60006103e8610b02886103d4613208565b610b0c919061323d565b6040516370a0823160e01b8152909150829088906001600160a01b038316906370a0823190610b3f903390600401612a5c565b602060405180830381865afa158015610b5c573d6000803e3d6000fd5b505050506040513d601f19601f82011682018060405250810190610b809190613082565b1015610b9e5760405162461bcd60e51b815260040161060d9061329d565b610bb26001600160a01b038a1633846120b5565b604051632770a7eb60e21b81526001600160a01b03821690639dc29fac90610be09033908c906004016132ad565b600060405180830381600087803b158015610bfa57600080fd5b505af1158015610c0e573d6000803e3d6000fd5b5050505050505050505050505050565b60098181548110610c2e57600080fd5b906000526020600020016000915090508054610c499061304a565b80601f0160208091040260200160405190810160405280929190818152602001828054610c759061304a565b8015610cc25780601f10610c9757610100808354040283529160200191610cc2565b820191906000526020600020905b815481529060010190602001808311610ca557829003601f168201915b505050505081565b600e6020528160005260406000208181548110610ce657600080fd5b6000918252602090912001546001600160a01b03169150829050565b60086020526000908152604090208054610c499061304a565b33610d2e6000546001600160a01b031690565b6001600160a01b031614610d545760405162461bcd60e51b815260040161060d906130f3565b600480546001600160a01b0319166001600160a01b0383161790556040517f6fc32d8d0721139a274b6368b7febce03d80adce9dc0fad439ebb101b22a309490610988908390612a5c565b826000600782604051610db29190612f10565b908152602001604051809103902060030154905080421115610de65760405162461bcd60e51b815260040161060d90613312565b6000610df1866110fe565b6001600160a01b038181166000908152600b6020526040902054919250868116911614610e305760405162461bcd60e51b815260040161060d90613363565b6040516370a0823160e01b815284906001600160a01b038716906370a0823190610e5e903390600401612a5c565b602060405180830381865afa158015610e7b573d6000803e3d6000fd5b505050506040513d601f19601f82011682018060405250810190610e9f9190613082565b1015610ebd5760405162461bcd60e51b815260040161060d906133b6565b610ed26001600160a01b038616333087612110565b610edd818533612137565b7faad69ef0c77f7c04ba3390022ae56a77ba8686b6cd9530eff3a0a8c38d33e5ad33878787604051610f1294939291906133c6565b60405180910390a1505050505050565b60095460609060008167ffffffffffffffff811115610f4357610f4361277c565b604051908082528060200260200182016040528015610f7c57816020015b610f696126a2565b815260200190600190039081610f615790505b50905060005b8281101561104b57600760098281548110610f9f57610f9f613402565b90600052602060002001604051610fb69190613486565b90815260408051918290036020908101832060c08401835280546001600160a01b038116855260ff600160a01b9091041615159184019190915260018101549183019190915260028101546060830152600381015460808301526004015460a0820152825183908390811061102d5761102d613402565b6020026020010181905250808061104390613490565b915050610f82565b5092915050565b6001600160a01b03811660009081526008602052604090208054606091906110799061304a565b80601f01602080910402602001604051908101604052809291908181526020018280546110a59061304a565b80156110f25780601f106110c7576101008083540402835291602001916110f2565b820191906000526020600020905b8154815290600101906020018083116110d557829003601f168201915b50505050509050919050565b60006007826040516111109190612f10565b908152604051908190036020019020546001600160a01b031692915050565b336111426000546001600160a01b031690565b6001600160a01b0316146111685760405162461bcd60e51b815260040161060d906130f3565b6111726000612244565b565b818180826001600160a01b03166370a08231306040518263ffffffff1660e01b81526004016111a39190612a5c565b602060405180830381865afa1580156111c0573d6000803e3d6000fd5b505050506040513d601f19601f820116820180604052508101906111e49190613082565b10156112025760405162461bcd60e51b815260040161060d90613148565b8460006007826040516112159190612f10565b9081526020016040518091039020600301549050804211156112495760405162461bcd60e51b815260040161060d90613312565b6000611254886110fe565b336000908152600d602090815260408083206001600160a01b038516845290915290205490915086111561129a5760405162461bcd60e51b815260040161060d906134dd565b6040516370a0823160e01b8152819087906001600160a01b038316906370a08231906112ca903390600401612a5c565b602060405180830381865afa1580156112e7573d6000803e3d6000fd5b505050506040513d601f19601f8201168201806040525081019061130b9190613082565b10156113295760405162461bcd60e51b815260040161060d9061353a565b61133d6001600160a01b03891633896120b5565b604051632770a7eb60e21b81526001600160a01b03821690639dc29fac9061136b9033908b906004016132ad565b600060405180830381600087803b15801561138557600080fd5b505af1158015611399573d6000803e3d6000fd5b5050336000908152600d602090815260408083206001600160a01b0388168452909152812080548b94509092506113d190849061354a565b9091555050336000908152600d602090815260408083206001600160a01b038616845290915290205461142357336000908152600d602090815260408083206001600160a01b03861684529091528120555b505050505050505050565b336114416000546001600160a01b031690565b6001600160a01b0316146114675760405162461bcd60e51b815260040161060d906130f3565b600580546001600160a01b0319166001600160a01b0383161790556040517f82b306b4712e26cb08bc1bd049ca46818dea8d7bacdd8988f7557fd887a49e0f90610988908390612a5c565b6000336114c76000546001600160a01b031690565b6001600160a01b0316146114ed5760405162461bcd60e51b815260040161060d906130f3565b6001600160a01b0384166000908152600a6020526040902054849060ff16151560011461152c5760405162461bcd60e51b815260040161060d906135a4565b8560006001600160a01b03166007826040516115489190612f10565b908152604051908190036020019020546001600160a01b0316141561157f5760405162461bcd60e51b815260040161060d9061360c565b42851161159e5760405162461bcd60e51b815260040161060d9061363f565b60006115a9886110fe565b60015460405163074bed3f60e31b81529192506000916001600160a01b0390911690633a5f69f8906115e59085908c908c908c9060040161364f565b6020604051808303816000875af1158015611604573d6000803e3d6000fd5b505050506040513d601f19601f820116820180604052508101906116289190613682565b6001600160a01b038381166000908152600b60205260409081902080546001600160a01b031916928c1692909217909155519091507f04c12766244f2559dd215eecd69f70fdfce0e2c2260b5d52cb8b63738622eaa49061168e90839085908c906136a3565b60405180910390a198975050505050505050565b60006116ad836110fe565b6001600160a01b0381166000908152600f60209081526040918290208251606081018452815480825260019092015460ff80821615159483019490945261010090049092161515928201929092529192501580159061170d575080604001515b6117295760405162461bcd60e51b815260040161060d9061318a565b60208101511561174b5760405162461bcd60e51b815260040161060d9061371c565b336000908152600d602090815260408083206001600160a01b038616845290915290205461178b5760405162461bcd60e51b815260040161060d90613784565b336000908152600d602090815260408083206001600160a01b0386168452909152812054906103e86117bf836103d4613208565b6117c9919061323d565b905060006117d7828461354a565b9050611802866117e860028461323d565b6117f360028561323d565b6117fd908561354a565b612294565b6118166001600160a01b03871633846120b5565b5050336000908152600d602090815260408083206001600160a01b039690961683529490529283209290925550505050565b606060008361187057604051806040016040528060018152602001601360fa1b81525061188b565b604051806040016040528060018152602001600960fb1b8152505b905060006118a1670de0b6b3a76400008761323d565b905060006118b088601261354a565b6118bb90600a6138a2565b6118cf90670de0b6b3a7640000890661323d565b90506000896118dd84612308565b6118e684612308565b866118f08a612308565b6040516020016119049594939291906138cb565b60408051601f198184030181529190529450505050505b95945050505050565b6000336119396000546001600160a01b031690565b6001600160a01b03161461195f5760405162461bcd60e51b815260040161060d906130f3565b60128611156119805760405162461bcd60e51b815260040161060d90613961565b42831161199f5760405162461bcd60e51b815260040161060d9061363f565b60006119ae8988888b89611848565b60015460405163781e309960e11b81529192506000916001600160a01b039091169063f03c6132906119e49085906004016129ff565b6020604051808303816000875af1158015611a03573d6000803e3d6000fd5b505050506040513d601f19601f82011682018060405250810190611a279190613682565b90506040518060c00160405280826001600160a01b031681526020018a1515815260200189815260200188815260200186815260200185815250600783604051611a719190612f10565b9081526040805191829003602090810190922083518154858501511515600160a01b026001600160a81b03199091166001600160a01b0392831617178255848301516001830155606085015160028301556080850151600383015560a0909401516004909101559183166000908152600c8252919091208b51611af6928d01906126e3565b506001600160a01b03811660009081526008602090815260409091208351611b20928501906126e3565b50600980546001810182556000919091528251611b64917f6e1540171b6c0c960b71a7020d9f60077f6af931a8bbf590da0223dacf75c7af019060208501906126e3565b507f405ecebb090d5b2eb1eff17eae8e649a7c79591418988c347b8e641f46f9b03482828787604051611b9a9493929190613971565b60405180910390a19150505b979650505050505050565b611bb96126a2565b600782604051611bc99190612f10565b90815260408051918290036020908101832060c08401835280546001600160a01b038116855260ff600160a01b9091041615159184019190915260018101549183019190915260028101546060830152600381015460808301526004015460a082015292915050565b33611c456000546001600160a01b031690565b6001600160a01b031614611c6b5760405162461bcd60e51b815260040161060d906130f3565b6000611c76856110fe565b6001600160a01b0381166000908152600f60209081526040918290208251606081018452815480825260019092015460ff808216151594830194909452610100900490921615159282019290925291925015801590611cdb5750604081015115156001145b611cf75760405162461bcd60e51b815260040161060d9061318a565b602081015115611d195760405162461bcd60e51b815260040161060d9061371c565b6001600160a01b0382166000908152600e602052604081205485158015611d3e575084155b15611d6657611d50848860008461240e565b611d5a9083613991565b60068290559150611da5565b8560065414611d875760405162461bcd60e51b815260040161060d906139f6565b611d938488888861240e565b611d9d9083613991565b600686905591505b6001600160a01b0384166000908152600e60205260409020546006541415611e0357611e0387600a611dd8856008613208565b611de2919061323d565b600a611def866008613208565b611df9919061323d565b6117fd908661354a565b5050505050505050565b836000600782604051611e209190612f10565b908152602001604051809103902060030154905080421115611e545760405162461bcd60e51b815260040161060d90613312565b6005546001600160a01b0316336001600160a01b031614611e875760405162461bcd60e51b815260040161060d90613a46565b6000611e92876110fe565b6001600160a01b038181166000908152600b6020526040902054919250878116911614611ed15760405162461bcd60e51b815260040161060d90613363565b6040516370a0823160e01b815285906001600160a01b038816906370a0823190611eff908890600401612a5c565b602060405180830381865afa158015611f1c573d6000803e3d6000fd5b505050506040513d601f19601f82011682018060405250810190611f409190613082565b1015611f5e5760405162461bcd60e51b815260040161060d906133b6565b611f736001600160a01b038716853088612110565b611f7e818686612137565b7f99f877ebe25ff1544a89db7db58d9d0b180af2288344cf1792272a4a07fd7c993385898989604051611fb5959493929190613a56565b60405180910390a150505050505050565b33611fd96000546001600160a01b031690565b6001600160a01b031614611fff5760405162461bcd60e51b815260040161060d906130f3565b600380546001600160a01b0319166001600160a01b0383161790556040517f925ca4fe13c96d03d284548722ea2b894a5c446495703091e537b85dc54a2a0790610988908390612a5c565b3361205d6000546001600160a01b031690565b6001600160a01b0316146120835760405162461bcd60e51b815260040161060d906130f3565b6001600160a01b0381166120a95760405162461bcd60e51b815260040161060d90613ae0565b6120b281612244565b50565b61210b8363a9059cbb60e01b84846040516024016120d49291906132ad565b60408051601f198184030181529190526020810180516001600160e01b03166001600160e01b031990931692909217909152612518565b505050565b612131846323b872dd60e01b8585856040516024016120d493929190613af0565b50505050565b6040516340c10f1960e01b815283906001600160a01b038216906340c10f199061216790859087906004016132ad565b600060405180830381600087803b15801561218157600080fd5b505af1158015612195573d6000803e3d6000fd5b505050506001600160a01b038281166000908152600d6020908152604080832093881683529290522054612202576001600160a01b038481166000908152600e602090815260408220805460018101825590835291200180546001600160a01b0319169184169190911790555b6001600160a01b038083166000908152600d6020908152604080832093881683529290529081208054859290612239908490613991565b909155505050505050565b600080546001600160a01b038381166001600160a01b0319831681178455604051919092169283917f8be0079c531659141344cd1fd0a4f28419497f9722a3daafe3b4186f6b6457e09190a35050565b6003546001600160a01b0316158015906122b857506004546001600160a01b031615155b6122d45760405162461bcd60e51b815260040161060d90613b4a565b6003546122ee906001600160a01b038581169116846120b5565b60045461210b906001600160a01b038581169116836120b5565b60608161232c5750506040805180820190915260018152600360fc1b602082015290565b8160005b8115612356578061234081613490565b915061234f9050600a8361323d565b9150612330565b60008167ffffffffffffffff8111156123715761237161277c565b6040519080825280601f01601f19166020018201604052801561239b576020820181803683370190505b5090505b8415612406576123b060018361354a565b91506123bd600a86613b5a565b6123c8906030613991565b60f81b8183815181106123dd576123dd613402565b60200101906001600160f81b031916908160001a9053506123ff600a8661323d565b945061239f565b949350505050565b6000825b8281101561250f576001600160a01b0386166000908152600e6020526040812080548390811061244457612444613402565b60009182526020808320909101546001600160a01b03908116808452600d83526040808520928c16855291909252822054909250906103e8612488836103d4613208565b612492919061323d565b905080156124f1576124ae6001600160a01b03891684836120b5565b6001600160a01b038084166000908152600d60209081526040808320938d168352929052908120556124e0818361354a565b6124ea9086613991565b94506124f9565b5050506124fd565b5050505b8061250781613490565b915050612412565b50949350505050565b600061256d826040518060400160405280602081526020017f5361666545524332303a206c6f772d6c6576656c2063616c6c206661696c6564815250856001600160a01b03166125a79092919063ffffffff16565b80519091501561210b578080602001905181019061258b9190613b79565b61210b5760405162461bcd60e51b815260040161060d90613bdf565b60606125b684846000856125c0565b90505b9392505050565b6060824710156125e25760405162461bcd60e51b815260040161060d90613c30565b843b6126005760405162461bcd60e51b815260040161060d90613c72565b600080866001600160a01b0316858760405161261c9190612f10565b60006040518083038185875af1925050503d8060008114612659576040519150601f19603f3d011682016040523d82523d6000602084013e61265e565b606091505b5091509150611ba6828286606083156126785750816125b9565b8251156126885782518084602001fd5b8160405162461bcd60e51b815260040161060d91906129ff565b6040518060c0016040528060006001600160a01b03168152602001600015158152602001600081526020016000815260200160008152602001600081525090565b8280546126ef9061304a565b90600052602060002090601f0160209004810192826127115760008555612757565b82601f1061272a57805160ff1916838001178555612757565b82800160010185558215612757579182015b8281111561275757825182559160200191906001019061273c565b50612763929150612767565b5090565b5b808211156127635760008155600101612768565b634e487b7160e01b600052604160045260246000fd5b601f19601f830116810181811067ffffffffffffffff821117156127b8576127b861277c565b6040525050565b60006127ca60405190565b90506127d68282612792565b919050565b600067ffffffffffffffff8211156127f5576127f561277c565b601f19601f83011660200192915050565b82818337506000910152565b6000612825612820846127db565b6127bf565b90508281526020810184848401111561284057612840600080fd5b61284b848285612806565b509392505050565b600082601f83011261286757612867600080fd5b8135612406848260208601612812565b60006020828403121561288c5761288c600080fd5b813567ffffffffffffffff8111156128a6576128a6600080fd5b61240684828501612853565b60006001600160a01b0382165b92915050565b6128ce816128b2565b81146120b257600080fd5b80356128bf816128c5565b6000602082840312156128f9576128f9600080fd5b600061240684846128d9565b806128ce565b80356128bf81612905565b60008060006060848603121561292e5761292e600080fd5b833567ffffffffffffffff81111561294857612948600080fd5b61295486828701612853565b9350506020612965868287016128d9565b92505060406129768682870161290b565b9150509250925092565b60006020828403121561299557612995600080fd5b6000612406848461290b565b60005b838110156129bc5781810151838201526020016129a4565b838111156121315750506000910152565b60006129d7825190565b8084526020840193506129ee8185602086016129a1565b601f01601f19169290920192915050565b602080825281016125b981846129cd565b60008060408385031215612a2657612a26600080fd5b6000612a3285856128d9565b9250506020612a438582860161290b565b9150509250929050565b612a56816128b2565b82525050565b602081016128bf8284612a4d565b80612a56565b801515612a56565b60608101612a868286612a6a565b612a936020830185612a70565b6124066040830184612a70565b8051612aac8382612a4d565b506020810151612abf6020840182612a70565b506040810151612ad26040840182612a6a565b506060810151612ae56060840182612a6a565b506080810151612af86080840182612a6a565b5060a081015161210b60a0840182612a6a565b612b158282612aa0565b5060c00190565b60200190565b6000612b2c825190565b808452602093840193830160005b82811015612b5f578151612b4e8782612b0b565b965050602082019150600101612b3a565b5093949350505050565b602080825281016125b98184612b22565b60c08101612b888289612a4d565b612b956020830188612a70565b612ba26040830187612a6a565b612baf6060830186612a6a565b612bbc6080830185612a6a565b611ba660a0830184612a6a565b602081016128bf8284612a70565b602081016128bf8284612a6a565b60008060008060808587031215612bfe57612bfe600080fd5b843567ffffffffffffffff811115612c1857612c18600080fd5b612c2487828801612853565b9450506020612c35878288016128d9565b9350506040612c468782880161290b565b9250506060612c578782880161290b565b91505092959194509250565b60008060408385031215612c7957612c79600080fd5b6000612c8585856128d9565b9250506020612a43858286016128d9565b60006001600160a01b0382166128bf565b60006128bf82612c96565b60006128bf82612ca7565b612a5681612cb2565b602081016128bf8284612cbd565b60008060408385031215612cea57612cea600080fd5b823567ffffffffffffffff811115612d0457612d04600080fd5b612c8585828601612853565b8015156128ce565b80356128bf81612d10565b600080600080600060a08688031215612d3e57612d3e600080fd5b853567ffffffffffffffff811115612d5857612d58600080fd5b612d6488828901612853565b9550506020612d758882890161290b565b9450506040612d868882890161290b565b9350506060612d9788828901612d18565b9250506080612da88882890161290b565b9150509295509295909350565b600080600080600080600060e0888a031215612dd357612dd3600080fd5b873567ffffffffffffffff811115612ded57612ded600080fd5b612df98a828b01612853565b9750506020612e0a8a828b01612d18565b9650506040612e1b8a828b0161290b565b9550506060612e2c8a828b0161290b565b9450506080612e3d8a828b0161290b565b93505060a0612e4e8a828b0161290b565b92505060c0612e5f8a828b0161290b565b91505092959891949750929550565b60c081016128bf8284612aa0565b60008060008060808587031215612e9557612e95600080fd5b843567ffffffffffffffff811115612eaf57612eaf600080fd5b612ebb87828801612853565b9450506020612ecc878288016128d9565b9350506040612edd8782880161290b565b9250506060612c57878288016128d9565b6000612ef8825190565b612f068185602086016129a1565b9290920192915050565b6128bf8183612eee565b60368152602081017f43616e206e6f7420736574746c652f636c61696d2c2068617665206e6f742072815275065616368656420736574746c6554696d657374616d760541b602082015290505b60400190565b602080825281016128bf81612f1a565b60248152602081017f5468697320706f6c6963792068617320616c7265616479206265656e207365748152631d1b195960e21b60208201529050612f67565b602080825281016128bf81612f7d565b603e8152602081017f5468697320706f6c69637920746f6b656e20646f6573206e6f7420657869737481527f2c206d6179626520796f7520696e70757420612077726f6e67206e616d65000060208201529050612f67565b602080825281016128bf81612fcc565b634e487b7160e01b600052602260045260246000fd5b60028104600182168061305e57607f821691505b6020821081141561307157613071613034565b50919050565b80516128bf81612905565b60006020828403121561309757613097600080fd5b60006124068484613077565b606080825281016130b481866129cd565b9050612a936020830185612a6a565b60208082527f4f776e61626c653a2063616c6c6572206973206e6f7420746865206f776e65729101908152612b1c565b602080825281016128bf816130c3565b602a8152602081017f4e6f742073756666696369656e7420737461626c65636f696e7320696e207468815269194818dbdb9d1c9858dd60b21b60208201529050612f67565b602080825281016128bf81613103565b601e8152602081017f48617665206e6f7420676f7420746865206f7261636c6520726573756c74000081529050612b1c565b602080825281016128bf81613158565b602d8152602081017f54686520726573756c7420646f6573206e6f742068617070656e2c20796f752081526c63616e206e6f7420636c61696d60981b60208201529050612f67565b602080825281016128bf8161319a565b634e487b7160e01b600052601160045260246000fd5b6000816000190483118215151615613222576132226131f2565b500290565b634e487b7160e01b600052601260045260246000fd5b60008261324c5761324c613227565b500490565b60318152602081017f596f7520646f206e6f7420686176652073756666696369656e7420706f6c69638152707920746f6b656e7320746f20636c61696d60781b60208201529050612f67565b602080825281016128bf81613251565b604081016132bb8285612a4d565b6125b96020830184612a6a565b602f8152602081017f43616e206e6f74206465706f7369742f72656465656d2c20686173207061737381526e65642074686520646561646c696e6560881b60208201529050612f67565b602080825281016128bf816132c8565b60268152602081017f506f6c696379546f6b656e20616e6420737461626c65636f696e206e6f74206d815265185d18da195960d21b60208201529050612f67565b602080825281016128bf81613322565b60288152602081017f55736572277320737461626c65636f696e2062616c616e6365206e6f7420737581526719999a58da595b9d60c21b60208201529050612f67565b602080825281016128bf81613373565b608081016133d48287612a4d565b81810360208301526133e681866129cd565b90506133f56040830185612a4d565b61191b6060830184612a6a565b634e487b7160e01b600052603260045260246000fd5b600081546134258161304a565b60018216801561343c576001811461344d5761347d565b60ff1983168652818601935061347d565b60008581526020902060005b8381101561347557815488820152600190910190602001613459565b505081860193505b50505092915050565b6128bf8183613418565b60006000198214156134a4576134a46131f2565b5060010190565b601b8152602081017f5573657227732071756f7461206e6f742073756666696369656e74000000000081529050612b1c565b602080825281016128bf816134ab565b60328152602081017f596f7520646f206e6f7420686176652073756666696369656e7420706f6c69638152717920746f6b656e7320746f2072656465656d60701b60208201529050612f67565b602080825281016128bf816134ed565b60008282101561355c5761355c6131f2565b500390565b60288152602081017f446f206e6f7420737570706f7274207468697320737461626c65636f696e2063815267757272656e746c7960c01b60208201529050612f67565b602080825281016128bf81613561565b603f8152602081017f5468697320706f6c69637920746f6b656e20686173206e6f74206265656e206481527f65706c6f7965642c20706c65617365206465706c6f792069742066697273740060208201529050612f67565b602080825281016128bf816135b4565b600e8152602081016d57726f6e6720646561646c696e6560901b81529050612b1c565b602080825281016128bf8161361c565b6080810161365d8287612a4d565b61366a6020830186612a4d565b6133f56040830185612a6a565b80516128bf816128c5565b60006020828403121561369757613697600080fd5b60006124068484613677565b606081016136b18286612a4d565b6136be6020830185612a4d565b6124066040830184612a4d565b60368152602081017f4f6e6c792063616c6c20746869732066756e6374696f6e207768656e207468658152751032bb32b73a103237b2b9903737ba103430b83832b760511b60208201529050612f67565b602080825281016128bf816136cb565b603b8152602081017f4e6f2071756f74612c20796f7520646964206e6f74206465706f73697420616e81527f64206d696e7420706f6c69637920746f6b656e73206265666f7265000000000060208201529050612f67565b602080825281016128bf8161372c565b80825b60018511156137d3578086048111156137b2576137b26131f2565b60018516156137c057908102905b80026137cc8560011c90565b9450613797565b94509492505050565b6000826137eb575060016125b9565b816137f8575060006125b9565b816001811461380e576002811461381857613845565b60019150506125b9565b60ff841115613829576138296131f2565b8360020a91508482111561383f5761383f6131f2565b506125b9565b5060208310610133831016604e8410600b8410161715613878575081810a83811115613873576138736131f2565b6125b9565b6138858484846001613794565b9250905081840481111561389b5761389b6131f2565b0292915050565b60006125b960001984846137dc565b605f60f81b81525b60010190565b601760f91b81526138b9565b6138d58187612eee565b90506138e0816138b1565b90506138ec8186612eee565b90506138f7816138bf565b90506139038185612eee565b905061390e816138b1565b905061391a8184612eee565b9050613925816138b1565b90506139318183612eee565b9695505050505050565b601181526020810170546f6f206d616e7920646563696d616c7360781b81529050612b1c565b602080825281016128bf8161393b565b6080808252810161398281876129cd565b905061366a6020830186612a4d565b600082198211156139a4576139a46131f2565b500190565b60328152602081017f596f75206e65656420746f2073746172742066726f6d20746865206c61737420815271191a5cdd1c9a589d5d1a5bdb881c1bda5b9d60721b60208201529050612f67565b602080825281016128bf816139a9565b60258152602081017f4f6e6c792074686520726f7574657220636f6e74726163742063616e2064656c815264656761746560d81b60208201529050612f67565b602080825281016128bf81613a06565b60a08101613a648288612a4d565b613a716020830187612a4d565b8181036040830152613a8381866129cd565b9050613a926060830185612a4d565b6139316080830184612a6a565b60268152602081017f4f776e61626c653a206e6577206f776e657220697320746865207a65726f206181526564647265737360d01b60208201529050612f67565b602080825281016128bf81613a9f565b60608101613afe8286612a4d565b613b0b6020830185612a4d565b6124066040830184612a6a565b601e8152602081017f506c656173652073657420746865206c6f74746572792061646472657373000081529050612b1c565b602080825281016128bf81613b18565b600082613b6957613b69613227565b500690565b80516128bf81612d10565b600060208284031215613b8e57613b8e600080fd5b60006124068484613b6e565b602a8152602081017f5361666545524332303a204552433230206f7065726174696f6e20646964206e8152691bdd081cdd58d8d9595960b21b60208201529050612f67565b602080825281016128bf81613b9a565b60268152602081017f416464726573733a20696e73756666696369656e742062616c616e636520666f8152651c8818d85b1b60d21b60208201529050612f67565b602080825281016128bf81613bef565b601d8152602081017f416464726573733a2063616c6c20746f206e6f6e2d636f6e747261637400000081529050612b1c565b602080825281016128bf81613c4056fea264697066735822122024b26aec8790656fb3bd53217e480a21cbd360e986a6b4920a0e3290ccc67e5364736f6c634300080a0033",
  "devdoc": {
    "details": "Most of the functions to be called from outside will use the name of policyToken         rather than the address (easy to read).         Other variables or functions still use address to index.         The rule of policyToken naming is Original Token Name + Strike Price + Lower or Higher + Date         E.g.  AVAX_30_L_2101, BTC_30000_L_2102, ETH_8000_H_2109",
    "kind": "dev",
    "methods": {
      "_generateName(string,uint256,uint256,bool,uint256)": {
        "params": {
          "_decimals": "Decimals of the name generation (0,1=>1)",
          "_isCall": "The policy's payoff is triggered when higher or lower",
          "_round": "Round of the policy (e.g. 2112, 2201)",
          "_strikePrice": "Strike price of the policy",
          "_tokenName": "Name of the token"
        }
      },
      "addStablecoin(address)": {
        "params": {
          "_newStablecoin": "Address of the new stablecoin"
        }
      },
      "checkUserQuota(address,address)": {
        "params": {
          "_policyTokenAddress": "Address of the policy token",
          "_user": "Address of the user to be checked"
        },
        "returns": {
          "_quota": "User's quota result"
        }
      },
      "claim(string,address,uint256)": {
        "details": "It is done after result settlement and only if the result is true",
        "params": {
          "_amount": "Amount of USDT (also the amount of policy tokens)",
          "_policyTokenName": "Name of the policy token",
          "_stablecoin": "Address of the stable coin"
        }
      },
      "constructor": {
        "params": {
          "_factory": "Address of naughty factory",
          "_priceGetter": "Address of the oracle contract",
          "_usdt": "USDT is the first stablecoin supported in the pool"
        }
      },
      "delegateDeposit(string,address,uint256,address)": {
        "details": "Only called by the router contract",
        "params": {
          "_amount": "Amount of stablecoin (also the amount of policy tokens)",
          "_policyTokenName": "Name of the policy token",
          "_stablecoin": "Address of the sable coin",
          "_user": "Address to receive the policy tokens"
        }
      },
      "deployPolicyToken(string,bool,uint256,uint256,uint256,uint256,uint256)": {
        "details": "Only the owner can deploy new policy token      The name form is like \"AVAX_50_L_202101\" and is built inside the contract.",
        "params": {
          "_deadline": "Deadline of this policy token (deposit / redeem / swap)",
          "_decimals": "Decimals of this token's price (0~18)",
          "_isCall": "The policy is for higher or lower than the strike price (call / put)",
          "_settleTimestamp": "Can settle after this timestamp (for oracle)",
          "_strikePrice": "Strike price of the policy (have already been transferred with 1e18)",
          "_tokenName": "Name of the original token (e.g. AVAX, BTC, ETH...)"
        },
        "returns": {
          "_0": "policyTokenAddress The address of the policy token just deployed"
        }
      },
      "deployPool(string,address,uint256,uint256)": {
        "params": {
          "_feeRate": "Fee rate given to LP holders",
          "_policyTokenName": "Name of the policy token",
          "_poolDeadline": "Swapping deadline of the pool (normally the same as the token's deadline)",
          "_stablecoin": "Address of the stable coin"
        },
        "returns": {
          "_0": "poolAddress The address of the pool just deployed"
        }
      },
      "deposit(string,address,uint256)": {
        "params": {
          "_amount": "Amount of stablecoin (also the amount of policy tokens)",
          "_policyTokenName": "Name of the policy token",
          "_stablecoin": "Address of the sable coin"
        }
      },
      "findAddressbyName(string)": {
        "params": {
          "_policyTokenName": "Name of the policy token (e.g. \"AVAX_30_L_2103\")"
        },
        "returns": {
          "_0": "policyTokenAddress Address of the policy token"
        }
      },
      "findNamebyAddress(address)": {
        "params": {
          "_policyTokenAddress": "Address of the policy token"
        },
        "returns": {
          "_0": "policyTokenName Name of the policy token"
        }
      },
      "getAllTokens()": {
        "returns": {
          "_0": "tokensInfo Token information list"
        }
      },
      "getPolicyTokenInfo(string)": {
        "params": {
          "_policyTokenName": "Name of the policy token (e.g. \"AVAX30L202103\")"
        },
        "returns": {
          "_0": "policyTokenInfo PolicyToken detail information"
        }
      },
      "redeem(string,address,uint256)": {
        "details": "Redeem happens before the deadline and is different from claim/settle",
        "params": {
          "_amount": "Amount of USDT (also the amount of policy tokens)",
          "_policyTokenName": "Name of the policy token",
          "_stablecoin": "Address of the stablecoin"
        }
      },
      "redeemAfterSettlement(string,address)": {
        "params": {
          "_policyTokenName": "Name of the policy token",
          "_stablecoin": "Address of the stablecoin"
        }
      },
      "renounceOwnership()": {
        "details": "Renouncing ownership will leave the contract without an owner,         thereby removing any functionality that is only available to the owner."
      },
      "setEmergencyPool(address)": {
        "params": {
          "_emergencyPool": "Address of the new emergencyPool"
        }
      },
      "setLottery(address)": {
        "params": {
          "_lotteryAddress": "Address of the new lottery"
        }
      },
      "setNaughtyRouter(address)": {
        "params": {
          "_router": "Address of the new naughty router"
        }
      },
      "settleAllPolicyTokens(string,address,uint256,uint256)": {
        "details": "Take care of the gas cost and can use the _startIndex and _stopIndex to control the size",
        "params": {
          "_policyTokenName": "Name of policy token",
          "_stablecoin": "Address of stablecoin",
          "_startIndex": "Settlement start index",
          "_stopIndex": "Settlement stop index"
        }
      },
      "settleFinalResult(string)": {
        "params": {
          "_policyTokenName": "Name of the policy token"
        }
      },
      "transferOwnership(address)": {
        "details": "Can only be called by the current owner.",
        "params": {
          "newOwner": "Address of the new owner"
        }
      }
    },
    "title": "PolicyCore",
    "version": 1
  },
  "userdoc": {
    "kind": "user",
    "methods": {
      "_generateName(string,uint256,uint256,bool,uint256)": {
        "notice": "Generate the policy token name"
      },
      "addStablecoin(address)": {
        "notice": "Add a newly supported stablecoin"
      },
      "checkUserQuota(address,address)": {
        "notice": "Check a user's quota for a certain policy token"
      },
      "claim(string,address,uint256)": {
        "notice": "Claim a payoff based on policy tokens"
      },
      "constructor": {
        "notice": "Constructor, for some addresses"
      },
      "delegateDeposit(string,address,uint256,address)": {
        "notice": "Delegate deposit (deposit and mint for other addresses)"
      },
      "deployPolicyToken(string,bool,uint256,uint256,uint256,uint256,uint256)": {
        "notice": "Deploy a new policy token and return the token address"
      },
      "deployPool(string,address,uint256,uint256)": {
        "notice": "Deploy a new pair (pool)"
      },
      "deposit(string,address,uint256)": {
        "notice": "Deposit stablecoins and get policy tokens"
      },
      "findAddressbyName(string)": {
        "notice": "Find the token address by its name"
      },
      "findNamebyAddress(address)": {
        "notice": "Find the token name by its address"
      },
      "getAllTokens()": {
        "notice": "Get the information about all the tokens"
      },
      "getPolicyTokenInfo(string)": {
        "notice": "Find the token information by its name"
      },
      "owner()": {
        "notice": "Returns the address of the current owner."
      },
      "redeem(string,address,uint256)": {
        "notice": "Burn policy tokens and redeem USDT"
      },
      "redeemAfterSettlement(string,address)": {
        "notice": "Redeem policy tokens and get stablecoins by the user himeself"
      },
      "renounceOwnership()": {
        "notice": "Leaves the contract without owner. It will not be possible to call         `onlyOwner` functions anymore. Can only be called by the current owner."
      },
      "setEmergencyPool(address)": {
        "notice": "Change the address of emergency pool"
      },
      "setLottery(address)": {
        "notice": "Change the address of lottery"
      },
      "setNaughtyRouter(address)": {
        "notice": "Change the address of naughty router"
      },
      "settleAllPolicyTokens(string,address,uint256,uint256)": {
        "notice": "Settle the policies when then insurance event do not happen         Funds are automatically distributed back to the depositors"
      },
      "settleFinalResult(string)": {
        "notice": "Get the final price from the PriceGetter contract"
      },
      "transferOwnership(address)": {
        "notice": "Transfers ownership of the contract to a new account (`newOwner`)."
      }
    },
    "notice": "Core logic of Naughty Price Product         Preset:              (Done in the naughtyFactory contract)              1. Deploy policyToken contract              2. Deploy policyToken-Stablecoin pool contract         User Interaction:              1. Deposit Stablecoin and mint PolicyTokens              2. Redeem their Stablecoin and burn the PolicyTokens (before settlement)              3. Claim for payout with PolicyTokens (after settlement)         PolicyTokens are minted with the ratio 1:1 to Stablecoin         The PolicyTokens are traded in the pool with CFMM (xy=k)         When the event happens, a PolicyToken can be burned for claiming 1 Stablecoin.         When the event does not happen, the PolicyToken depositors can         redeem their 1 deposited Stablecoin",
    "version": 1
  },
  "storageLayout": {
    "storage": [
      {
        "astId": 22750,
        "contract": "contracts/naughty-price/PolicyCore.sol:PolicyCore",
        "label": "_owner",
        "offset": 0,
        "slot": "0",
        "type": "t_address"
      },
      {
        "astId": 17900,
        "contract": "contracts/naughty-price/PolicyCore.sol:PolicyCore",
        "label": "factory",
        "offset": 0,
        "slot": "1",
        "type": "t_contract(INaughtyFactory)19690"
      },
      {
        "astId": 17903,
        "contract": "contracts/naughty-price/PolicyCore.sol:PolicyCore",
        "label": "priceGetter",
        "offset": 0,
        "slot": "2",
        "type": "t_contract(IPriceGetter)19946"
      },
      {
        "astId": 17905,
        "contract": "contracts/naughty-price/PolicyCore.sol:PolicyCore",
        "label": "lottery",
        "offset": 0,
        "slot": "3",
        "type": "t_address"
      },
      {
        "astId": 17907,
        "contract": "contracts/naughty-price/PolicyCore.sol:PolicyCore",
        "label": "emergencyPool",
        "offset": 0,
        "slot": "4",
        "type": "t_address"
      },
      {
        "astId": 17909,
        "contract": "contracts/naughty-price/PolicyCore.sol:PolicyCore",
        "label": "naughtyRouter",
        "offset": 0,
        "slot": "5",
        "type": "t_address"
      },
      {
        "astId": 17911,
        "contract": "contracts/naughty-price/PolicyCore.sol:PolicyCore",
        "label": "currentDistributionIndex",
        "offset": 0,
        "slot": "6",
        "type": "t_uint256"
      },
      {
        "astId": 17929,
        "contract": "contracts/naughty-price/PolicyCore.sol:PolicyCore",
        "label": "policyTokenInfoMapping",
        "offset": 0,
        "slot": "7",
        "type": "t_mapping(t_string_memory_ptr,t_struct(PolicyTokenInfo)17924_storage)"
      },
      {
        "astId": 17933,
        "contract": "contracts/naughty-price/PolicyCore.sol:PolicyCore",
        "label": "policyTokenAddressToName",
        "offset": 0,
        "slot": "8",
        "type": "t_mapping(t_address,t_string_storage)"
      },
      {
        "astId": 17936,
        "contract": "contracts/naughty-price/PolicyCore.sol:PolicyCore",
        "label": "allPolicyTokens",
        "offset": 0,
        "slot": "9",
        "type": "t_array(t_string_storage)dyn_storage"
      },
      {
        "astId": 17940,
        "contract": "contracts/naughty-price/PolicyCore.sol:PolicyCore",
        "label": "supportedStablecoin",
        "offset": 0,
        "slot": "10",
        "type": "t_mapping(t_address,t_bool)"
      },
      {
        "astId": 17944,
        "contract": "contracts/naughty-price/PolicyCore.sol:PolicyCore",
        "label": "whichStablecoin",
        "offset": 0,
        "slot": "11",
        "type": "t_mapping(t_address,t_address)"
      },
      {
        "astId": 17948,
        "contract": "contracts/naughty-price/PolicyCore.sol:PolicyCore",
        "label": "policyTokenToOriginal",
        "offset": 0,
        "slot": "12",
        "type": "t_mapping(t_address,t_string_storage)"
      },
      {
        "astId": 17954,
        "contract": "contracts/naughty-price/PolicyCore.sol:PolicyCore",
        "label": "userQuota",
        "offset": 0,
        "slot": "13",
        "type": "t_mapping(t_address,t_mapping(t_address,t_uint256))"
      },
      {
        "astId": 17959,
        "contract": "contracts/naughty-price/PolicyCore.sol:PolicyCore",
        "label": "allDepositors",
        "offset": 0,
        "slot": "14",
        "type": "t_mapping(t_address,t_array(t_address)dyn_storage)"
      },
      {
        "astId": 17971,
        "contract": "contracts/naughty-price/PolicyCore.sol:PolicyCore",
        "label": "settleResult",
        "offset": 0,
        "slot": "15",
        "type": "t_mapping(t_address,t_struct(SettlementInfo)17966_storage)"
      }
    ],
    "types": {
      "t_address": {
        "encoding": "inplace",
        "label": "address",
        "numberOfBytes": "20"
      },
      "t_array(t_address)dyn_storage": {
        "base": "t_address",
        "encoding": "dynamic_array",
        "label": "address[]",
        "numberOfBytes": "32"
      },
      "t_array(t_string_storage)dyn_storage": {
        "base": "t_string_storage",
        "encoding": "dynamic_array",
        "label": "string[]",
        "numberOfBytes": "32"
      },
      "t_bool": {
        "encoding": "inplace",
        "label": "bool",
        "numberOfBytes": "1"
      },
      "t_contract(INaughtyFactory)19690": {
        "encoding": "inplace",
        "label": "contract INaughtyFactory",
        "numberOfBytes": "20"
      },
      "t_contract(IPriceGetter)19946": {
        "encoding": "inplace",
        "label": "contract IPriceGetter",
        "numberOfBytes": "20"
      },
      "t_mapping(t_address,t_address)": {
        "encoding": "mapping",
        "key": "t_address",
        "label": "mapping(address => address)",
        "numberOfBytes": "32",
        "value": "t_address"
      },
      "t_mapping(t_address,t_array(t_address)dyn_storage)": {
        "encoding": "mapping",
        "key": "t_address",
        "label": "mapping(address => address[])",
        "numberOfBytes": "32",
        "value": "t_array(t_address)dyn_storage"
      },
      "t_mapping(t_address,t_bool)": {
        "encoding": "mapping",
        "key": "t_address",
        "label": "mapping(address => bool)",
        "numberOfBytes": "32",
        "value": "t_bool"
      },
      "t_mapping(t_address,t_mapping(t_address,t_uint256))": {
        "encoding": "mapping",
        "key": "t_address",
        "label": "mapping(address => mapping(address => uint256))",
        "numberOfBytes": "32",
        "value": "t_mapping(t_address,t_uint256)"
      },
      "t_mapping(t_address,t_string_storage)": {
        "encoding": "mapping",
        "key": "t_address",
        "label": "mapping(address => string)",
        "numberOfBytes": "32",
        "value": "t_string_storage"
      },
      "t_mapping(t_address,t_struct(SettlementInfo)17966_storage)": {
        "encoding": "mapping",
        "key": "t_address",
        "label": "mapping(address => struct PolicyCore.SettlementInfo)",
        "numberOfBytes": "32",
        "value": "t_struct(SettlementInfo)17966_storage"
      },
      "t_mapping(t_address,t_uint256)": {
        "encoding": "mapping",
        "key": "t_address",
        "label": "mapping(address => uint256)",
        "numberOfBytes": "32",
        "value": "t_uint256"
      },
      "t_mapping(t_string_memory_ptr,t_struct(PolicyTokenInfo)17924_storage)": {
        "encoding": "mapping",
        "key": "t_string_memory_ptr",
        "label": "mapping(string => struct PolicyCore.PolicyTokenInfo)",
        "numberOfBytes": "32",
        "value": "t_struct(PolicyTokenInfo)17924_storage"
      },
      "t_string_memory_ptr": {
        "encoding": "bytes",
        "label": "string",
        "numberOfBytes": "32"
      },
      "t_string_storage": {
        "encoding": "bytes",
        "label": "string",
        "numberOfBytes": "32"
      },
      "t_struct(PolicyTokenInfo)17924_storage": {
        "encoding": "inplace",
        "label": "struct PolicyCore.PolicyTokenInfo",
        "members": [
          {
            "astId": 17913,
            "contract": "contracts/naughty-price/PolicyCore.sol:PolicyCore",
            "label": "policyTokenAddress",
            "offset": 0,
            "slot": "0",
            "type": "t_address"
          },
          {
            "astId": 17915,
            "contract": "contracts/naughty-price/PolicyCore.sol:PolicyCore",
            "label": "isCall",
            "offset": 20,
            "slot": "0",
            "type": "t_bool"
          },
          {
            "astId": 17917,
            "contract": "contracts/naughty-price/PolicyCore.sol:PolicyCore",
            "label": "decimals",
            "offset": 0,
            "slot": "1",
            "type": "t_uint256"
          },
          {
            "astId": 17919,
            "contract": "contracts/naughty-price/PolicyCore.sol:PolicyCore",
            "label": "strikePrice",
            "offset": 0,
            "slot": "2",
            "type": "t_uint256"
          },
          {
            "astId": 17921,
            "contract": "contracts/naughty-price/PolicyCore.sol:PolicyCore",
            "label": "deadline",
            "offset": 0,
            "slot": "3",
            "type": "t_uint256"
          },
          {
            "astId": 17923,
            "contract": "contracts/naughty-price/PolicyCore.sol:PolicyCore",
            "label": "settleTimestamp",
            "offset": 0,
            "slot": "4",
            "type": "t_uint256"
          }
        ],
        "numberOfBytes": "160"
      },
      "t_struct(SettlementInfo)17966_storage": {
        "encoding": "inplace",
        "label": "struct PolicyCore.SettlementInfo",
        "members": [
          {
            "astId": 17961,
            "contract": "contracts/naughty-price/PolicyCore.sol:PolicyCore",
            "label": "price",
            "offset": 0,
            "slot": "0",
            "type": "t_uint256"
          },
          {
            "astId": 17963,
            "contract": "contracts/naughty-price/PolicyCore.sol:PolicyCore",
            "label": "isHappened",
            "offset": 0,
            "slot": "1",
            "type": "t_bool"
          },
          {
            "astId": 17965,
            "contract": "contracts/naughty-price/PolicyCore.sol:PolicyCore",
            "label": "alreadySettled",
            "offset": 1,
            "slot": "1",
            "type": "t_bool"
          }
        ],
        "numberOfBytes": "64"
      },
      "t_uint256": {
        "encoding": "inplace",
        "label": "uint256",
        "numberOfBytes": "32"
      }
    }
  }
}