{
  "address": "0x376Db5708EC9Ae8f324385069E21f07679D54012",
  "abi": [
    {
      "inputs": [],
      "stateMutability": "nonpayable",
      "type": "constructor"
    },
    {
      "anonymous": false,
      "inputs": [
        {
          "indexed": false,
          "internalType": "uint80",
          "name": "roundID",
          "type": "uint80"
        },
        {
          "indexed": false,
          "internalType": "int256",
          "name": "price",
          "type": "int256"
        },
        {
          "indexed": false,
          "internalType": "uint256",
          "name": "startedAt",
          "type": "uint256"
        },
        {
          "indexed": false,
          "internalType": "uint256",
          "name": "timeStamp",
          "type": "uint256"
        },
        {
          "indexed": false,
          "internalType": "uint80",
          "name": "answeredInRound",
          "type": "uint80"
        }
      ],
      "name": "LatestPriceGet",
      "type": "event"
    },
    {
      "anonymous": false,
      "inputs": [
        {
          "indexed": true,
          "internalType": "address",
          "name": "previousOwner",
          "type": "address"
        },
        {
          "indexed": true,
          "internalType": "address",
          "name": "newOwner",
          "type": "address"
        }
      ],
      "name": "OwnershipTransferred",
      "type": "event"
    },
    {
      "anonymous": false,
      "inputs": [
        {
          "indexed": false,
          "internalType": "string",
          "name": "tokenName",
          "type": "string"
        },
        {
          "indexed": false,
          "internalType": "address",
          "name": "feedAddress",
          "type": "address"
        },
        {
          "indexed": false,
          "internalType": "uint256",
          "name": "decimals",
          "type": "uint256"
        }
      ],
      "name": "PriceFeedChanged",
      "type": "event"
    },
    {
      "inputs": [
        {
          "internalType": "string",
          "name": "_tokenName",
          "type": "string"
        }
      ],
      "name": "getLatestPrice",
      "outputs": [
        {
          "internalType": "uint256",
          "name": "",
          "type": "uint256"
        }
      ],
      "stateMutability": "nonpayable",
      "type": "function"
    },
    {
      "inputs": [],
      "name": "owner",
      "outputs": [
        {
          "internalType": "address",
          "name": "",
          "type": "address"
        }
      ],
      "stateMutability": "view",
      "type": "function"
    },
    {
      "inputs": [
        {
          "internalType": "string",
          "name": "",
          "type": "string"
        }
      ],
      "name": "priceFeedInfo",
      "outputs": [
        {
          "internalType": "address",
          "name": "priceFeedAddress",
          "type": "address"
        },
        {
          "internalType": "uint256",
          "name": "decimals",
          "type": "uint256"
        }
      ],
      "stateMutability": "view",
      "type": "function"
    },
    {
      "inputs": [],
      "name": "renounceOwnership",
      "outputs": [],
      "stateMutability": "nonpayable",
      "type": "function"
    },
    {
      "inputs": [
        {
          "internalType": "string",
          "name": "_tokenName",
          "type": "string"
        },
        {
          "internalType": "address",
          "name": "_feedAddress",
          "type": "address"
        },
        {
          "internalType": "uint256",
          "name": "_decimals",
          "type": "uint256"
        }
      ],
      "name": "setPriceFeed",
      "outputs": [],
      "stateMutability": "nonpayable",
      "type": "function"
    },
    {
      "inputs": [
        {
          "internalType": "address",
          "name": "newOwner",
          "type": "address"
        }
      ],
      "name": "transferOwnership",
      "outputs": [],
      "stateMutability": "nonpayable",
      "type": "function"
    }
  ],
  "transactionHash": "0x7f70d87d7085479b0e9f51ba4251b55f81eaaaa47affb359d73af059dd673fe2",
  "args": [],
  "numDeployments": 1,
  "solcInputHash": "6b41690bc48f03e7fcef834013961fdc",
  "bytecode": "0x608060405234801561001057600080fd5b5061001a3361015f565b604080518082018252735498bb86bc934c8d34fda08e81d444153d0d06ad815260086020820152905163082ac82b60e31b8152600190600401908152604080519182900360209081018320845181546001600160a01b039091166001600160a01b03199091161781559381015160019485015582820182527386d67c3d38d2bcee722e601025c25a575021c6ea8352600890830152519091906100bc906101c4565b908152604080519182900360209081018320845181546001600160a01b039091166001600160a01b03199091161781559381015160019485015582820182527331cf013a08c6ac228c94551d535d5bafe19c602a835260089083015251909190610125906101db565b90815260405160209181900382019020825181546001600160a01b0319166001600160a01b039091161781559101516001909101556101e4565b600080546001600160a01b038381166001600160a01b0319831681178455604051919092169283917f8be0079c531659141344cd1fd0a4f28419497f9722a3daafe3b4186f6b6457e09190a35050565b919050565b6208aa8960eb1b81525b60030190565b6101af816101b4565b6242544360e81b81526101be565b6101af816101cd565b610b4e806101f36000396000f3fe608060405234801561001057600080fd5b50600436106100625760003560e01c806316b3de69146100675780635b8c0d6c146100be578063715018a6146100d35780638da5cb5b146100db578063f2fde38b146100f4578063f66a1b7114610107575b600080fd5b6100a7610075366004610596565b80516020818301810180516001808352938301929094019190912092905281549101546001600160a01b039091169082565b6040516100b59291906105f9565b60405180910390f35b6100d16100cc36600461064b565b610127565b005b6100d1610258565b6000546001600160a01b03166040516100b591906106b5565b6100d16101023660046106c3565b61029d565b61011a610115366004610596565b610308565b6040516100b591906106e4565b3361013a6000546001600160a01b031690565b6001600160a01b0316146101695760405162461bcd60e51b815260040161016090610724565b60405180910390fd5b816001600160a01b0381166101905760405162461bcd60e51b815260040161016090610766565b60128211156101b15760405162461bcd60e51b81526004016101609061079c565b6040518060400160405280846001600160a01b03168152602001838152506001856040516101df91906107fe565b90815260405160209181900382018120835181546001600160a01b0319166001600160a01b0390911617815592909101516001909201919091557fe9a586c9ff4ccc70ffb98ab9cc2079d83dd33e0b4caa7f563ae0db088c62312e9061024a9086908690869061083a565b60405180910390a150505050565b3361026b6000546001600160a01b031690565b6001600160a01b0316146102915760405162461bcd60e51b815260040161016090610724565b61029b6000610443565b565b336102b06000546001600160a01b031690565b6001600160a01b0316146102d65760405162461bcd60e51b815260040161016090610724565b6001600160a01b0381166102fc5760405162461bcd60e51b815260040161016090610867565b61030581610443565b50565b60008060018360405161031b91906107fe565b908152604080519182900360209081018320838301835280546001600160a01b0316808552600190910154918401919091528151633fabe5a360e21b81529151929350600092839283928392839263feaf968c9160048083019260a09291908290030181865afa158015610393573d6000803e3d6000fd5b505050506040513d601f19601f820116820180604052508101906103b791906108d9565b9450945094509450945060008412156103cf57600093505b7fc7851f2a8f2b8a66cfb8738f664e014401b6b82af7958036c58001411ed923e48585858585604051610406959493929190610963565b60405180910390a160008660200151601261042191906109c5565b61042c90600a610aea565b6104369086610af9565b9998505050505050505050565b600080546001600160a01b038381166001600160a01b0319831681178455604051919092169283917f8be0079c531659141344cd1fd0a4f28419497f9722a3daafe3b4186f6b6457e09190a35050565b634e487b7160e01b600052604160045260246000fd5b601f19601f830116810181811067ffffffffffffffff821117156104cf576104cf610493565b6040525050565b60006104e160405190565b90506104ed82826104a9565b919050565b600067ffffffffffffffff82111561050c5761050c610493565b601f19601f83011660200192915050565b82818337506000910152565b600061053c610537846104f2565b6104d6565b90508281526020810184848401111561055757610557600080fd5b61056284828561051d565b509392505050565b600082601f83011261057e5761057e600080fd5b813561058e848260208601610529565b949350505050565b6000602082840312156105ab576105ab600080fd5b813567ffffffffffffffff8111156105c5576105c5600080fd5b61058e8482850161056a565b60006001600160a01b0382165b92915050565b6105ed816105d1565b82525050565b806105ed565b6040810161060782856105e4565b61061460208301846105f3565b9392505050565b610624816105d1565b811461030557600080fd5b80356105de8161061b565b80610624565b80356105de8161063a565b60008060006060848603121561066357610663600080fd5b833567ffffffffffffffff81111561067d5761067d600080fd5b6106898682870161056a565b935050602061069a8682870161062f565b92505060406106ab86828701610640565b9150509250925092565b602081016105de82846105e4565b6000602082840312156106d8576106d8600080fd5b600061058e848461062f565b602081016105de82846105f3565b60208082527f4f776e61626c653a2063616c6c6572206973206e6f7420746865206f776e657291019081525b60200190565b602080825281016105de816106f2565b60198152602081017f63616e206e6f742067697665207a65726f2061646472657373000000000000008152905061071e565b602080825281016105de81610734565b601181526020810170546f6f206d616e7920646563696d616c7360781b8152905061071e565b602080825281016105de81610776565b60005b838110156107c75781810151838201526020016107af565b838111156107d6576000848401525b50505050565b60006107e6825190565b6107f48185602086016107ac565b9290920192915050565b6105de81836107dc565b6000610812825190565b8084526020840193506108298185602086016107ac565b601f01601f19169290920192915050565b6060808252810161084b8186610808565b905061085a60208301856105e4565b61058e60408301846105f3565b602080825281016105de81602681527f4f776e61626c653a206e6577206f776e657220697320746865207a65726f206160208201526564647265737360d01b604082015260600190565b69ffffffffffffffffffff8116610624565b80516105de816108b1565b80516105de8161063a565b600080600080600060a086880312156108f4576108f4600080fd5b600061090088886108c3565b9550506020610911888289016108ce565b9450506040610922888289016108ce565b9350506060610933888289016108ce565b9250506080610944888289016108c3565b9150509295509295909350565b69ffffffffffffffffffff81166105ed565b60a081016109718288610951565b61097e60208301876105f3565b61098b60408301866105f3565b61099860608301856105f3565b6109a56080830184610951565b9695505050505050565b634e487b7160e01b600052601160045260246000fd5b6000828210156109d7576109d76109af565b500390565b80825b6001851115610a1b578086048111156109fa576109fa6109af565b6001851615610a0857908102905b8002610a148560011c90565b94506109df565b94509492505050565b600082610a3357506001610614565b81610a4057506000610614565b8160018114610a565760028114610a6057610a8d565b6001915050610614565b60ff841115610a7157610a716109af565b8360020a915084821115610a8757610a876109af565b50610614565b5060208310610133831016604e8410600b8410161715610ac0575081810a83811115610abb57610abb6109af565b610614565b610acd84848460016109dc565b92509050818404811115610ae357610ae36109af565b0292915050565b60006106146000198484610a24565b6000816000190483118215151615610b1357610b136109af565b50029056fea2646970667358221220ea79e5dfa43fe499b2eed0fdd13b306f821fbc6b523fe54f9856b4e160f03b1864736f6c634300080a0033",
  "devdoc": {
    "details": "The price from chainlink priceFeed has different decimals, be careful.",
    "kind": "dev",
    "methods": {
      "getLatestPrice(string)": {
        "params": {
          "_tokenName": "Address of the token"
        },
        "returns": {
          "_0": "price The latest price"
        }
      },
      "renounceOwnership()": {
        "details": "Renouncing ownership will leave the contract without an owner,         thereby removing any functionality that is only available to the owner."
      },
      "setPriceFeed(string,address,uint256)": {
        "params": {
          "_decimals": "Decimals of this price feed service",
          "_feedAddress": "Price feed oracle address",
          "_tokenName": "Address of the token"
        }
      },
      "transferOwnership(address)": {
        "details": "Can only be called by the current owner.",
        "params": {
          "newOwner": "Address of the new owner"
        }
      }
    },
    "title": "Price Getter",
    "version": 1
  },
  "userdoc": {
    "kind": "user",
    "methods": {
      "constructor": {
        "notice": "Constructor function, initialize some price feed"
      },
      "getLatestPrice(string)": {
        "notice": "Get latest price of a token"
      },
      "owner()": {
        "notice": "Returns the address of the current owner."
      },
      "renounceOwnership()": {
        "notice": "Leaves the contract without owner. It will not be possible to call         `onlyOwner` functions anymore. Can only be called by the current owner."
      },
      "setPriceFeed(string,address,uint256)": {
        "notice": "Set a price feed oracle address for a token"
      },
      "transferOwnership(address)": {
        "notice": "Transfers ownership of the contract to a new account (`newOwner`)."
      }
    },
    "notice": "This is the contract for getting price feed from chainlink.         The contract will keep a record from tokenName => priceFeed Address.         Got the sponsorship and collaboration with Chainlink.",
    "version": 1
  },
  "storageLayout": {
    "storage": [
      {
        "astId": 22670,
        "contract": "contracts/naughty-price/PriceGetter.sol:PriceGetter",
        "label": "_owner",
        "offset": 0,
        "slot": "0",
        "type": "t_address"
      },
      {
        "astId": 19383,
        "contract": "contracts/naughty-price/PriceGetter.sol:PriceGetter",
        "label": "priceFeedInfo",
        "offset": 0,
        "slot": "1",
        "type": "t_mapping(t_string_memory_ptr,t_struct(PriceFeedInfo)19378_storage)"
      }
    ],
    "types": {
      "t_address": {
        "encoding": "inplace",
        "label": "address",
        "numberOfBytes": "20"
      },
      "t_mapping(t_string_memory_ptr,t_struct(PriceFeedInfo)19378_storage)": {
        "encoding": "mapping",
        "key": "t_string_memory_ptr",
        "label": "mapping(string => struct PriceGetter.PriceFeedInfo)",
        "numberOfBytes": "32",
        "value": "t_struct(PriceFeedInfo)19378_storage"
      },
      "t_string_memory_ptr": {
        "encoding": "bytes",
        "label": "string",
        "numberOfBytes": "32"
      },
      "t_struct(PriceFeedInfo)19378_storage": {
        "encoding": "inplace",
        "label": "struct PriceGetter.PriceFeedInfo",
        "members": [
          {
            "astId": 19375,
            "contract": "contracts/naughty-price/PriceGetter.sol:PriceGetter",
            "label": "priceFeedAddress",
            "offset": 0,
            "slot": "0",
            "type": "t_address"
          },
          {
            "astId": 19377,
            "contract": "contracts/naughty-price/PriceGetter.sol:PriceGetter",
            "label": "decimals",
            "offset": 0,
            "slot": "1",
            "type": "t_uint256"
          }
        ],
        "numberOfBytes": "64"
      },
      "t_uint256": {
        "encoding": "inplace",
        "label": "uint256",
        "numberOfBytes": "32"
      }
    }
  }
}