{
  "address": "0xc3c7D165d52bd3194DeaC50bFC06D3d49Ef0e690",
  "abi": [
    {
      "inputs": [],
      "name": "PIV__AlreadyDistributed",
      "type": "error"
    },
    {
      "inputs": [],
      "name": "PIV__ClaimedAll",
      "type": "error"
    },
    {
      "inputs": [],
      "name": "PIV__NoPendingRound",
      "type": "error"
    },
    {
      "inputs": [],
      "name": "PIV__NotEnoughBuyerTokens",
      "type": "error"
    },
    {
      "inputs": [],
      "name": "PIV__NotPassedInterval",
      "type": "error"
    },
    {
      "inputs": [],
      "name": "PIV__ZeroAmount",
      "type": "error"
    },
    {
      "anonymous": false,
      "inputs": [
        {
          "indexed": false,
          "internalType": "uint256",
          "name": "oldRewardPerRound",
          "type": "uint256"
        },
        {
          "indexed": false,
          "internalType": "uint256",
          "name": "newRewardPerRound",
          "type": "uint256"
        }
      ],
      "name": "DegisRewardChanged",
      "type": "event"
    },
    {
      "anonymous": false,
      "inputs": [
        {
          "indexed": false,
          "internalType": "uint256",
          "name": "oldInterval",
          "type": "uint256"
        },
        {
          "indexed": false,
          "internalType": "uint256",
          "name": "newInterval",
          "type": "uint256"
        }
      ],
      "name": "DistributionIntervalChanged",
      "type": "event"
    },
    {
      "anonymous": false,
      "inputs": [
        {
          "indexed": true,
          "internalType": "address",
          "name": "previousOwner",
          "type": "address"
        },
        {
          "indexed": true,
          "internalType": "address",
          "name": "newOwner",
          "type": "address"
        }
      ],
      "name": "OwnershipTransferred",
      "type": "event"
    },
    {
      "anonymous": false,
      "inputs": [
        {
          "indexed": false,
          "internalType": "address",
          "name": "account",
          "type": "address"
        }
      ],
      "name": "Paused",
      "type": "event"
    },
    {
      "anonymous": false,
      "inputs": [
        {
          "indexed": false,
          "internalType": "address",
          "name": "userAddress",
          "type": "address"
        },
        {
          "indexed": false,
          "internalType": "uint256",
          "name": "currentRound",
          "type": "uint256"
        },
        {
          "indexed": false,
          "internalType": "uint256",
          "name": "amount",
          "type": "uint256"
        }
      ],
      "name": "Redeem",
      "type": "event"
    },
    {
      "anonymous": false,
      "inputs": [
        {
          "indexed": false,
          "internalType": "address",
          "name": "userAddress",
          "type": "address"
        },
        {
          "indexed": false,
          "internalType": "uint256",
          "name": "userReward",
          "type": "uint256"
        }
      ],
      "name": "RewardClaimed",
      "type": "event"
    },
    {
      "anonymous": false,
      "inputs": [
        {
          "indexed": false,
          "internalType": "uint256",
          "name": "currentRound",
          "type": "uint256"
        },
        {
          "indexed": false,
          "internalType": "uint256",
          "name": "blockNumber",
          "type": "uint256"
        }
      ],
      "name": "RoundSettled",
      "type": "event"
    },
    {
      "anonymous": false,
      "inputs": [
        {
          "indexed": false,
          "internalType": "address",
          "name": "userAddress",
          "type": "address"
        },
        {
          "indexed": false,
          "internalType": "uint256",
          "name": "currentRound",
          "type": "uint256"
        },
        {
          "indexed": false,
          "internalType": "uint256",
          "name": "actualAmount",
          "type": "uint256"
        }
      ],
      "name": "Stake",
      "type": "event"
    },
    {
      "anonymous": false,
      "inputs": [
        {
          "indexed": false,
          "internalType": "address",
          "name": "account",
          "type": "address"
        }
      ],
      "name": "Unpaused",
      "type": "event"
    },
    {
      "inputs": [],
      "name": "MAX_ROUND",
      "outputs": [
        {
          "internalType": "uint256",
          "name": "",
          "type": "uint256"
        }
      ],
      "stateMutability": "view",
      "type": "function"
    },
    {
      "inputs": [],
      "name": "SCALE",
      "outputs": [
        {
          "internalType": "uint256",
          "name": "",
          "type": "uint256"
        }
      ],
      "stateMutability": "view",
      "type": "function"
    },
    {
      "inputs": [],
      "name": "claim",
      "outputs": [],
      "stateMutability": "nonpayable",
      "type": "function"
    },
    {
      "inputs": [],
      "name": "currentRound",
      "outputs": [
        {
          "internalType": "uint256",
          "name": "",
          "type": "uint256"
        }
      ],
      "stateMutability": "view",
      "type": "function"
    },
    {
      "inputs": [],
      "name": "degisPerRound",
      "outputs": [
        {
          "internalType": "uint256",
          "name": "",
          "type": "uint256"
        }
      ],
      "stateMutability": "view",
      "type": "function"
    },
    {
      "inputs": [],
      "name": "distributionInterval",
      "outputs": [
        {
          "internalType": "uint256",
          "name": "",
          "type": "uint256"
        }
      ],
      "stateMutability": "view",
      "type": "function"
    },
    {
      "inputs": [
        {
          "internalType": "uint256",
          "name": "_round",
          "type": "uint256"
        }
      ],
      "name": "getTotalUsersInRound",
      "outputs": [
        {
          "internalType": "uint256",
          "name": "",
          "type": "uint256"
        }
      ],
      "stateMutability": "view",
      "type": "function"
    },
    {
      "inputs": [
        {
          "internalType": "address",
          "name": "_user",
          "type": "address"
        }
      ],
      "name": "getUserPendingRounds",
      "outputs": [
        {
          "internalType": "uint256[]",
          "name": "",
          "type": "uint256[]"
        }
      ],
      "stateMutability": "view",
      "type": "function"
    },
    {
      "inputs": [
        {
          "internalType": "address",
          "name": "_user",
          "type": "address"
        },
        {
          "internalType": "uint256",
          "name": "_round",
          "type": "uint256"
        }
      ],
      "name": "getUserShares",
      "outputs": [
        {
          "internalType": "uint256",
          "name": "",
          "type": "uint256"
        }
      ],
      "stateMutability": "view",
      "type": "function"
    },
    {
      "inputs": [
        {
          "internalType": "uint256",
          "name": "_round",
          "type": "uint256"
        }
      ],
      "name": "getUsersInRound",
      "outputs": [
        {
          "internalType": "address[]",
          "name": "",
          "type": "address[]"
        }
      ],
      "stateMutability": "view",
      "type": "function"
    },
    {
      "inputs": [
        {
          "internalType": "address",
          "name": "_buyerToken",
          "type": "address"
        },
        {
          "internalType": "address",
          "name": "_degisToken",
          "type": "address"
        }
      ],
      "name": "initialize",
      "outputs": [],
      "stateMutability": "nonpayable",
      "type": "function"
    },
    {
      "inputs": [],
      "name": "lastDistribution",
      "outputs": [
        {
          "internalType": "uint256",
          "name": "",
          "type": "uint256"
        }
      ],
      "stateMutability": "view",
      "type": "function"
    },
    {
      "inputs": [],
      "name": "name",
      "outputs": [
        {
          "internalType": "string",
          "name": "",
          "type": "string"
        }
      ],
      "stateMutability": "view",
      "type": "function"
    },
    {
      "inputs": [],
      "name": "owner",
      "outputs": [
        {
          "internalType": "address",
          "name": "",
          "type": "address"
        }
      ],
      "stateMutability": "view",
      "type": "function"
    },
    {
      "inputs": [],
      "name": "pause",
      "outputs": [],
      "stateMutability": "nonpayable",
      "type": "function"
    },
    {
      "inputs": [],
      "name": "paused",
      "outputs": [
        {
          "internalType": "bool",
          "name": "",
          "type": "bool"
        }
      ],
      "stateMutability": "view",
      "type": "function"
    },
    {
      "inputs": [
        {
          "internalType": "address",
          "name": "_user",
          "type": "address"
        }
      ],
      "name": "pendingReward",
      "outputs": [
        {
          "internalType": "uint256",
          "name": "userPendingReward",
          "type": "uint256"
        }
      ],
      "stateMutability": "view",
      "type": "function"
    },
    {
      "inputs": [
        {
          "internalType": "uint256",
          "name": "_amount",
          "type": "uint256"
        }
      ],
      "name": "redeem",
      "outputs": [],
      "stateMutability": "nonpayable",
      "type": "function"
    },
    {
      "inputs": [],
      "name": "renounceOwnership",
      "outputs": [],
      "stateMutability": "nonpayable",
      "type": "function"
    },
    {
      "inputs": [
        {
          "internalType": "uint256",
          "name": "",
          "type": "uint256"
        }
      ],
      "name": "roundInfo",
      "outputs": [
        {
          "internalType": "uint256",
          "name": "shares",
          "type": "uint256"
        },
        {
          "internalType": "bool",
          "name": "hasDistributed",
          "type": "bool"
        },
        {
          "internalType": "uint256",
          "name": "degisPerShare",
          "type": "uint256"
        }
      ],
      "stateMutability": "view",
      "type": "function"
    },
    {
      "inputs": [
        {
          "internalType": "uint256",
          "name": "_degisPerRound",
          "type": "uint256"
        }
      ],
      "name": "setDegisPerRound",
      "outputs": [],
      "stateMutability": "nonpayable",
      "type": "function"
    },
    {
      "inputs": [
        {
          "internalType": "uint256",
          "name": "_newInterval",
          "type": "uint256"
        }
      ],
      "name": "setDistributionInterval",
      "outputs": [],
      "stateMutability": "nonpayable",
      "type": "function"
    },
    {
      "inputs": [],
      "name": "settleCurrentRound",
      "outputs": [],
      "stateMutability": "nonpayable",
      "type": "function"
    },
    {
      "inputs": [
        {
          "internalType": "uint256",
          "name": "_amount",
          "type": "uint256"
        }
      ],
      "name": "stake",
      "outputs": [],
      "stateMutability": "nonpayable",
      "type": "function"
    },
    {
      "inputs": [
        {
          "internalType": "address",
          "name": "newOwner",
          "type": "address"
        }
      ],
      "name": "transferOwnership",
      "outputs": [],
      "stateMutability": "nonpayable",
      "type": "function"
    },
    {
      "inputs": [],
      "name": "unpause",
      "outputs": [],
      "stateMutability": "nonpayable",
      "type": "function"
    },
    {
      "inputs": [
        {
          "internalType": "address",
          "name": "",
          "type": "address"
        },
        {
          "internalType": "uint256",
          "name": "",
          "type": "uint256"
        }
      ],
      "name": "userSharesInRound",
      "outputs": [
        {
          "internalType": "uint256",
          "name": "",
          "type": "uint256"
        }
      ],
      "stateMutability": "view",
      "type": "function"
    },
    {
      "inputs": [
        {
          "internalType": "address",
          "name": "",
          "type": "address"
        }
      ],
      "name": "users",
      "outputs": [
        {
          "internalType": "uint256",
          "name": "lastRewardRoundIndex",
          "type": "uint256"
        }
      ],
      "stateMutability": "view",
      "type": "function"
    }
  ],
  "transactionHash": "0x0e9c0576fa592b25412ec7e22eaef218a4afa899342831958d43dd6dda64eac9",
  "args": [],
  "numDeployments": 1,
  "solcInputHash": "605c731451c6146df12303fe58cee869",
  "bytecode": "0x608060405234801561001057600080fd5b50611d7a806100206000396000f3fe608060405234801561001057600080fd5b50600436106101c45760003560e01c8063a694fc3a116100f9578063db006a7511610097578063eced552611610071578063eced5526146103eb578063ef618eb5146103fa578063f2fde38b1461041a578063f40f0f521461042d57600080fd5b8063db006a75146103b2578063ddd9d045146103c5578063e6848ead146103d857600080fd5b8063b4ac62c5116100d3578063b4ac62c514610379578063c42d5efb14610381578063c708c5f4146103a1578063ca1fe809146103aa57600080fd5b8063a694fc3a1461033d578063a717639c14610350578063a87430ba1461035957600080fd5b80635c975abb116101665780637a16a49e116101405780637a16a49e146103005780638456cb59146103135780638a19c8bc1461031b5780638da5cb5b1461032457600080fd5b80635c975abb146102dc57806371201a0e146102ef578063715018a6146102f857600080fd5b80633f4ba83a116101a25780633f4ba83a14610276578063427f0b0014610280578063485cc955146102c15780634e71d92d146102d457600080fd5b806306fdde03146101c95780631aeee41d1461021b5780632f0179011461024b575b600080fd5b6102056040518060400160405280601e81526020017f446567697320507572636861736520496e63656e74697665205661756c74000081525081565b604051610212919061162c565b60405180910390f35b61023e610229366004611655565b600090815260cf602052604090206001015490565b604051610212919061167e565b61023e6102593660046116b1565b60d160209081526000928352604080842090915290825290205481565b61027e610440565b005b6102b261028e366004611655565b60cf60205260009081526040902080546002820154600390920154909160ff169083565b604051610212939291906116f6565b61027e6102cf36600461171e565b61047d565b61027e61054a565b60655460ff166040516102129190611751565b61023e60cd5481565b61027e61085f565b61027e61030e366004611655565b610893565b61027e6108fd565b61023e60cb5481565b6033546001600160a01b03166040516102129190611768565b61027e61034b366004611655565b61092f565b61023e60ce5481565b61023e610367366004611776565b60d06020526000908152604090205481565b61023e603281565b61039461038f366004611776565b610b17565b60405161021291906117f5565b61023e60cc5481565b61027e610b86565b61027e6103c0366004611655565b610cdf565b61023e6103d33660046116b1565b610ea5565b61027e6103e6366004611655565b610ed0565b61023e670de0b6b3a764000081565b61040d610408366004611655565b610f3a565b604051610212919061184d565b61027e610428366004611776565b610fa8565b61023e61043b366004611776565b611004565b6033546001600160a01b031633146104735760405162461bcd60e51b815260040161046a9061188e565b60405180910390fd5b61047b61114d565b565b600054610100900460ff166104985760005460ff161561049c565b303b155b6104b85760405162461bcd60e51b815260040161046a906118f8565b600054610100900460ff161580156104da576000805461ffff19166101011790555b6104e26111b3565b6104ea6111e2565b6104f2611211565b60c980546001600160a01b0380861673ffffffffffffffffffffffffffffffffffffffff199283161790925560ca8054928516929091169190911790554260ce558015610545576000805461ff00191690555b505050565b6002609754141561056d5760405162461bcd60e51b815260040161046a9061193a565b600260975560655460ff16156105955760405162461bcd60e51b815260040161046a9061197c565b33600090815260d0602090815260408083208151808301835281548152600182018054845181870281018701909552808552919492938584019390929083018282801561060157602002820191906000526020600020905b8154815260200190600101908083116105ed575b50505050508152505090508060200151516000141561064c576040517f72f62ba900000000000000000000000000000000000000000000000000000000815260040160405180910390fd5b8051602082015151600091610660916119a2565b905080610699576040517fd4b9bf3a00000000000000000000000000000000000000000000000000000000815260040160405180910390fd5b60cb54602083015180516106af906001906119a2565b815181106106bf576106bf6119b9565b602002602001015114156106db576106d86001826119a2565b90505b6032811115610712575033600090815260d06020526040812080546032928392916107079084906119cf565b909155506107379050565b33600090815260d06020526040812080548392906107319084906119cf565b90915550505b8151600090805b61074884836119cf565b8110156107d657600085602001518281518110610767576107676119b9565b60209081029190910181015133600090815260d18352604080822083835284528082205460cf909452902060030154909250670de0b6b3a7640000916107ac916119e7565b6107b69190611a1c565b6107c090856119cf565b93505080806107ce90611a30565b91505061073e565b5060ca546040517fb47673980000000000000000000000000000000000000000000000000000000081526001600160a01b039091169063b4767398906108229033908690600401611a4b565b600060405180830381600087803b15801561083c57600080fd5b505af1158015610850573d6000803e3d6000fd5b50506001609755505050505050565b6033546001600160a01b031633146108895760405162461bcd60e51b815260040161046a9061188e565b61047b6000611240565b6033546001600160a01b031633146108bd5760405162461bcd60e51b815260040161046a9061188e565b7f0bcbec4c9da357687b1300891e9be5627182572bb49e955ea7d37afcd927598460cd54826040516108f0929190611a66565b60405180910390a160cd55565b6033546001600160a01b031633146109275760405162461bcd60e51b815260040161046a9061188e565b61047b61129f565b600260975414156109525760405162461bcd60e51b815260040161046a9061193a565b600260975560655460ff161561097a5760405162461bcd60e51b815260040161046a9061197c565b8061099857604051631a4a5ecf60e01b815260040160405180910390fd5b60cb5433600090815260d06020908152604080832060d1835281842085855290925290912054610a0157600082815260cf6020908152604082206001908101805491820181558352912001805473ffffffffffffffffffffffffffffffffffffffff1916331790555b33600090815260d16020908152604080832085845290915281208054859290610a2b9084906119cf565b90915550506001810154801580610a7757508015801590610a7757508282600101600183610a5991906119a2565b81548110610a6957610a696119b9565b906000526020600020015414155b15610a9657600180830180549182018155600090815260209020018390555b600083815260cf602052604081208054869290610ab49084906119cf565b909155505060c954610ad1906001600160a01b03163330876112f7565b7f5af417134f72a9d41143ace85b0a26dce6f550f894f2cbc1eeee8810603d91b6338486604051610b0493929190611a74565b60405180910390a1505060016097555050565b6001600160a01b038116600090815260d06020908152604091829020600101805483518184028101840190945280845260609392830182828015610b7a57602002820191906000526020600020905b815481526020019060010190808311610b66575b50505050509050919050565b60cd5460ce54610b9690426119a2565b11610bcd576040517f15d7f40300000000000000000000000000000000000000000000000000000000815260040160405180910390fd5b60655460ff1615610bf05760405162461bcd60e51b815260040161046a9061197c565b60cb54600090815260cf60205260409020600281015460ff1615610c40576040517fadf8d84100000000000000000000000000000000000000000000000000000000815260040160405180910390fd5b805480610c535760006003830155610c7a565b80670de0b6b3a764000060cc54610c6a91906119e7565b610c749190611a1c565b60038301555b60028201805460ff1916600117905560cb546040517f84ea2725ed7015ebac8f69258b09c394b1f22b1031d4393a1580b3935058d7dc91610cbc914290611a66565b60405180910390a160cb60008154610cd390611a30565b90915550504260ce5550565b60026097541415610d025760405162461bcd60e51b815260040161046a9061193a565b600260975560655460ff1615610d2a5760405162461bcd60e51b815260040161046a9061197c565b80610d4857604051631a4a5ecf60e01b815260040160405180910390fd5b60cb5433600090815260d16020908152604080832084845290915290205482811015610da0576040517f57464c4300000000000000000000000000000000000000000000000000000000815260040160405180910390fd5b33600090815260d16020908152604080832085845290915281208054859290610dca9084906119a2565b909155505033600090815260d160209081526040808320858452909152902054610e265733600090815260d060205260409020600101805480610e0f57610e0f611a8f565b600190038181906000526020600020016000905590555b600082815260cf602052604081208054859290610e449084906119a2565b909155505060c954610e60906001600160a01b03163385611382565b7fe5b754fb1abb7f01b499791d0b820ae3b6af3424ac1c59768edb53f4ec31a929338385604051610e9393929190611a74565b60405180910390a15050600160975550565b6001600160a01b038216600090815260d1602090815260408083208484529091529020545b92915050565b6033546001600160a01b03163314610efa5760405162461bcd60e51b815260040161046a9061188e565b7f08c48647d7747ed2d79428c4b86c76dfe48af099e796d87b7b311925e76d2c4060cc5482604051610f2d929190611a66565b60405180910390a160cc55565b600081815260cf6020908152604091829020600101805483518184028101840190945280845260609392830182828015610b7a57602002820191906000526020600020905b81546001600160a01b03168152600190910190602001808311610f7f5750505050509050919050565b6033546001600160a01b03163314610fd25760405162461bcd60e51b815260040161046a9061188e565b6001600160a01b038116610ff85760405162461bcd60e51b815260040161046a90611afd565b61100181611240565b50565b6001600160a01b038116600090815260d060209081526040808320815180830183528154815260018201805484518187028101870190955280855286959294858401939092919083018282801561107a57602002820191906000526020600020905b815481526020019060010190808311611066575b50505050508152505090506000816000015182602001515161109c91906119a2565b8251909150805b6110ad83836119cf565b811015611144576000846020015182815181106110cc576110cc6119b9565b6020908102919091018101516001600160a01b038916600090815260d18352604080822083835284528082205460cf909452902060030154909250670de0b6b3a76400009161111a916119e7565b6111249190611a1c565b61112e90876119cf565b955050808061113c90611a30565b9150506110a3565b50505050919050565b60655460ff1661116f5760405162461bcd60e51b815260040161046a90611b3f565b6065805460ff191690557f5db9ee0a495bf2e6ff9c91a7834c1ba4fdd244a5e8aa4e537bd38aeae4b073aa335b6040516111a99190611768565b60405180910390a1565b600054610100900460ff166111da5760405162461bcd60e51b815260040161046a90611ba7565b61047b6113a1565b600054610100900460ff166112095760405162461bcd60e51b815260040161046a90611ba7565b61047b6113d1565b600054610100900460ff166112385760405162461bcd60e51b815260040161046a90611ba7565b61047b611404565b603380546001600160a01b0383811673ffffffffffffffffffffffffffffffffffffffff19831681179093556040519116919082907f8be0079c531659141344cd1fd0a4f28419497f9722a3daafe3b4186f6b6457e090600090a35050565b60655460ff16156112c25760405162461bcd60e51b815260040161046a9061197c565b6065805460ff191660011790557f62e78cea01bee320cd4e420270b5ea74000d11b0c9f74754ebdbfc544b05a25861119c3390565b61137c846323b872dd60e01b85858560405160240161131893929190611bb7565b60408051601f198184030181529190526020810180517bffffffffffffffffffffffffffffffffffffffffffffffffffffffff167fffffffff0000000000000000000000000000000000000000000000000000000090931692909217909152611432565b50505050565b6105458363a9059cbb60e01b8484604051602401611318929190611a4b565b600054610100900460ff166113c85760405162461bcd60e51b815260040161046a90611ba7565b61047b33611240565b600054610100900460ff166113f85760405162461bcd60e51b815260040161046a90611ba7565b6065805460ff19169055565b600054610100900460ff1661142b5760405162461bcd60e51b815260040161046a90611ba7565b6001609755565b6000611487826040518060400160405280602081526020017f5361666545524332303a206c6f772d6c6576656c2063616c6c206661696c6564815250856001600160a01b03166114c19092919063ffffffff16565b80519091501561054557808060200190518101906114a59190611be5565b6105455760405162461bcd60e51b815260040161046a90611c5e565b60606114d084846000856114da565b90505b9392505050565b6060824710156114fc5760405162461bcd60e51b815260040161046a90611cc6565b843b61151a5760405162461bcd60e51b815260040161046a90611d08565b600080866001600160a01b031685876040516115369190611d3a565b60006040518083038185875af1925050503d8060008114611573576040519150601f19603f3d011682016040523d82523d6000602084013e611578565b606091505b5091509150611588828286611595565b925050505b949350505050565b606083156115a45750816114d3565b8251156115b45782518084602001fd5b8160405162461bcd60e51b815260040161046a919061162c565b60005b838110156115e95781810151838201526020016115d1565b8381111561137c5750506000910152565b6000611604825190565b80845260208401935061161b8185602086016115ce565b601f01601f19169290920192915050565b602080825281016114d381846115fa565b805b811461100157600080fd5b8035610eca8161163d565b60006020828403121561166a5761166a600080fd5b600061158d848461164a565b805b82525050565b60208101610eca8284611676565b60006001600160a01b038216610eca565b61163f8161168c565b8035610eca8161169d565b600080604083850312156116c7576116c7600080fd5b60006116d385856116a6565b92505060206116e48582860161164a565b9150509250929050565b801515611678565b606081016117048286611676565b61171160208301856116ee565b61158d6040830184611676565b6000806040838503121561173457611734600080fd5b600061174085856116a6565b92505060206116e4858286016116a6565b60208101610eca82846116ee565b6116788161168c565b60208101610eca828461175f565b60006020828403121561178b5761178b600080fd5b600061158d84846116a6565b6117a18282611676565b5060200190565b60200190565b60006117b8825190565b808452602093840193830160005b828110156117eb5781516117da8782611797565b9650506020820191506001016117c6565b5093949350505050565b602080825281016114d381846117ae565b6117a1828261175f565b600061181a825190565b808452602093840193830160005b828110156117eb57815161183c8782611806565b965050602082019150600101611828565b602080825281016114d38184611810565b60208082527f4f776e61626c653a2063616c6c6572206973206e6f7420746865206f776e657291019081526117a8565b60208082528101610eca8161185e565b602e8152602081017f496e697469616c697a61626c653a20636f6e747261637420697320616c72656181527f647920696e697469616c697a6564000000000000000000000000000000000000602082015290505b60400190565b60208082528101610eca8161189e565b601f8152602081017f5265656e7472616e637947756172643a207265656e7472616e742063616c6c00815290506117a8565b60208082528101610eca81611908565b60108152602081017f5061757361626c653a2070617573656400000000000000000000000000000000815290506117a8565b60208082528101610eca8161194a565b634e487b7160e01b600052601160045260246000fd5b6000828210156119b4576119b461198c565b500390565b634e487b7160e01b600052603260045260246000fd5b600082198211156119e2576119e261198c565b500190565b6000816000190483118215151615611a0157611a0161198c565b500290565b634e487b7160e01b600052601260045260246000fd5b600082611a2b57611a2b611a06565b500490565b6000600019821415611a4457611a4461198c565b5060010190565b60408101611a59828561175f565b6114d36020830184611676565b60408101611a598285611676565b60608101611a82828661175f565b6117116020830185611676565b634e487b7160e01b600052603160045260246000fd5b60268152602081017f4f776e61626c653a206e6577206f776e657220697320746865207a65726f206181527f6464726573730000000000000000000000000000000000000000000000000000602082015290506118f2565b60208082528101610eca81611aa5565b60148152602081017f5061757361626c653a206e6f7420706175736564000000000000000000000000815290506117a8565b60208082528101610eca81611b0d565b602b8152602081017f496e697469616c697a61626c653a20636f6e7472616374206973206e6f74206981527f6e697469616c697a696e67000000000000000000000000000000000000000000602082015290506118f2565b60208082528101610eca81611b4f565b60608101611bc5828661175f565b611711602083018561175f565b80151561163f565b8051610eca81611bd2565b600060208284031215611bfa57611bfa600080fd5b600061158d8484611bda565b602a8152602081017f5361666545524332303a204552433230206f7065726174696f6e20646964206e81527f6f74207375636365656400000000000000000000000000000000000000000000602082015290506118f2565b60208082528101610eca81611c06565b60268152602081017f416464726573733a20696e73756666696369656e742062616c616e636520666f81527f722063616c6c0000000000000000000000000000000000000000000000000000602082015290506118f2565b60208082528101610eca81611c6e565b601d8152602081017f416464726573733a2063616c6c20746f206e6f6e2d636f6e7472616374000000815290506117a8565b60208082528101610eca81611cd6565b6000611d22825190565b611d308185602086016115ce565b9290920192915050565b610eca8183611d1856fea2646970667358221220352423060bca728b6af1a2c77ac8ec5c947f53e900a3e6eb82b5b31eae1c284264736f6c634300080a0033",
  "devdoc": {
    "kind": "dev",
    "methods": {
      "getTotalUsersInRound(uint256)": {
        "params": {
          "_round": "Round number to check"
        },
        "returns": {
          "_0": "totalUsers Total amount of users in _round"
        }
      },
      "getUserPendingRounds(address)": {
        "params": {
          "_user": "User address to check"
        },
        "returns": {
          "_0": "pendingRounds User's pending rounds"
        }
      },
      "getUserShares(address,uint256)": {
        "params": {
          "_round": "Round number",
          "_user": "Address of the user"
        },
        "returns": {
          "_0": "userShares User's shares in the current round"
        }
      },
      "getUsersInRound(uint256)": {
        "params": {
          "_round": "Round number to check"
        },
        "returns": {
          "_0": "users All user addresses in this round"
        }
      },
      "owner()": {
        "details": "Returns the address of the current owner."
      },
      "paused()": {
        "details": "Returns true if the contract is paused, and false otherwise."
      },
      "pendingReward(address)": {
        "params": {
          "_user": "User address"
        },
        "returns": {
          "userPendingReward": "User's pending reward"
        }
      },
      "redeem(uint256)": {
        "params": {
          "_amount": "Amount to redeem"
        }
      },
      "renounceOwnership()": {
        "details": "Leaves the contract without owner. It will not be possible to call `onlyOwner` functions anymore. Can only be called by the current owner. NOTE: Renouncing ownership will leave the contract without an owner, thereby removing any functionality that is only available to the owner."
      },
      "setDegisPerRound(uint256)": {
        "params": {
          "_degisPerRound": "Degis distribution per round"
        }
      },
      "setDistributionInterval(uint256)": {
        "params": {
          "_newInterval": "The new interval"
        }
      },
      "settleCurrentRound()": {
        "details": "Callable by any address, must pass the distribution interval"
      },
      "stake(uint256)": {
        "params": {
          "_amount": "Amount of buyer tokens to stake"
        }
      },
      "transferOwnership(address)": {
        "details": "Transfers ownership of the contract to a new account (`newOwner`). Can only be called by the current owner."
      }
    },
    "title": "Purchase Incentive Vault",
    "version": 1
  },
  "userdoc": {
    "kind": "user",
    "methods": {
      "claim()": {
        "notice": "User can claim his own reward"
      },
      "getTotalUsersInRound(uint256)": {
        "notice": "Get the amount of users in _round, used for distribution"
      },
      "getUserPendingRounds(address)": {
        "notice": "Get user's pending rounds"
      },
      "getUserShares(address,uint256)": {
        "notice": "Get your shares in the current round"
      },
      "getUsersInRound(uint256)": {
        "notice": "Get the user addresses in _round"
      },
      "pendingReward(address)": {
        "notice": "Get a user's pending reward"
      },
      "redeem(uint256)": {
        "notice": "Redeem buyer token from the vault"
      },
      "setDegisPerRound(uint256)": {
        "notice": "Set degis distribution per round"
      },
      "setDistributionInterval(uint256)": {
        "notice": "Set a new distribution interval"
      },
      "settleCurrentRound()": {
        "notice": "Setttle the current round"
      },
      "stake(uint256)": {
        "notice": "Stake buyer tokens into this contract"
      }
    },
    "notice": "This is the purchase incentive vault for staking buyer tokens         Users first stake their buyer tokens and wait for distribution         About every 24 hours, the reward will be calculated to users' account         After disrtribution, reward will be updated              but it still need to be manually claimed.         Buyer tokens can only be used once         You can withdraw your buyer token within the same round (current round)         They can not be withdrawed if the round was settled",
    "version": 1
  },
  "storageLayout": {
    "storage": [
      {
        "astId": 2523,
        "contract": "contracts/farming/PurchaseIncentiveVault.sol:PurchaseIncentiveVault",
        "label": "_initialized",
        "offset": 0,
        "slot": "0",
        "type": "t_bool"
      },
      {
        "astId": 2526,
        "contract": "contracts/farming/PurchaseIncentiveVault.sol:PurchaseIncentiveVault",
        "label": "_initializing",
        "offset": 1,
        "slot": "0",
        "type": "t_bool"
      },
      {
        "astId": 3044,
        "contract": "contracts/farming/PurchaseIncentiveVault.sol:PurchaseIncentiveVault",
        "label": "__gap",
        "offset": 0,
        "slot": "1",
        "type": "t_array(t_uint256)50_storage"
      },
      {
        "astId": 2403,
        "contract": "contracts/farming/PurchaseIncentiveVault.sol:PurchaseIncentiveVault",
        "label": "_owner",
        "offset": 0,
        "slot": "51",
        "type": "t_address"
      },
      {
        "astId": 2515,
        "contract": "contracts/farming/PurchaseIncentiveVault.sol:PurchaseIncentiveVault",
        "label": "__gap",
        "offset": 0,
        "slot": "52",
        "type": "t_array(t_uint256)49_storage"
      },
      {
        "astId": 2611,
        "contract": "contracts/farming/PurchaseIncentiveVault.sol:PurchaseIncentiveVault",
        "label": "_paused",
        "offset": 0,
        "slot": "101",
        "type": "t_bool"
      },
      {
        "astId": 2700,
        "contract": "contracts/farming/PurchaseIncentiveVault.sol:PurchaseIncentiveVault",
        "label": "__gap",
        "offset": 0,
        "slot": "102",
        "type": "t_array(t_uint256)49_storage"
      },
      {
        "astId": 2715,
        "contract": "contracts/farming/PurchaseIncentiveVault.sol:PurchaseIncentiveVault",
        "label": "_status",
        "offset": 0,
        "slot": "151",
        "type": "t_uint256"
      },
      {
        "astId": 2759,
        "contract": "contracts/farming/PurchaseIncentiveVault.sol:PurchaseIncentiveVault",
        "label": "__gap",
        "offset": 0,
        "slot": "152",
        "type": "t_array(t_uint256)49_storage"
      },
      {
        "astId": 13066,
        "contract": "contracts/farming/PurchaseIncentiveVault.sol:PurchaseIncentiveVault",
        "label": "buyerToken",
        "offset": 0,
        "slot": "201",
        "type": "t_contract(IERC20)4647"
      },
      {
        "astId": 13069,
        "contract": "contracts/farming/PurchaseIncentiveVault.sol:PurchaseIncentiveVault",
        "label": "degis",
        "offset": 0,
        "slot": "202",
        "type": "t_contract(IDegisToken)30264"
      },
      {
        "astId": 13071,
        "contract": "contracts/farming/PurchaseIncentiveVault.sol:PurchaseIncentiveVault",
        "label": "currentRound",
        "offset": 0,
        "slot": "203",
        "type": "t_uint256"
      },
      {
        "astId": 13073,
        "contract": "contracts/farming/PurchaseIncentiveVault.sol:PurchaseIncentiveVault",
        "label": "degisPerRound",
        "offset": 0,
        "slot": "204",
        "type": "t_uint256"
      },
      {
        "astId": 13075,
        "contract": "contracts/farming/PurchaseIncentiveVault.sol:PurchaseIncentiveVault",
        "label": "distributionInterval",
        "offset": 0,
        "slot": "205",
        "type": "t_uint256"
      },
      {
        "astId": 13077,
        "contract": "contracts/farming/PurchaseIncentiveVault.sol:PurchaseIncentiveVault",
        "label": "lastDistribution",
        "offset": 0,
        "slot": "206",
        "type": "t_uint256"
      },
      {
        "astId": 13095,
        "contract": "contracts/farming/PurchaseIncentiveVault.sol:PurchaseIncentiveVault",
        "label": "roundInfo",
        "offset": 0,
        "slot": "207",
        "type": "t_mapping(t_uint256,t_struct(RoundInfo)13090_storage)"
      },
      {
        "astId": 13106,
        "contract": "contracts/farming/PurchaseIncentiveVault.sol:PurchaseIncentiveVault",
        "label": "users",
        "offset": 0,
        "slot": "208",
        "type": "t_mapping(t_address,t_struct(UserInfo)13101_storage)"
      },
      {
        "astId": 13112,
        "contract": "contracts/farming/PurchaseIncentiveVault.sol:PurchaseIncentiveVault",
        "label": "userSharesInRound",
        "offset": 0,
        "slot": "209",
        "type": "t_mapping(t_address,t_mapping(t_uint256,t_uint256))"
      }
    ],
    "types": {
      "t_address": {
        "encoding": "inplace",
        "label": "address",
        "numberOfBytes": "20"
      },
      "t_array(t_address)dyn_storage": {
        "base": "t_address",
        "encoding": "dynamic_array",
        "label": "address[]",
        "numberOfBytes": "32"
      },
      "t_array(t_uint256)49_storage": {
        "base": "t_uint256",
        "encoding": "inplace",
        "label": "uint256[49]",
        "numberOfBytes": "1568"
      },
      "t_array(t_uint256)50_storage": {
        "base": "t_uint256",
        "encoding": "inplace",
        "label": "uint256[50]",
        "numberOfBytes": "1600"
      },
      "t_array(t_uint256)dyn_storage": {
        "base": "t_uint256",
        "encoding": "dynamic_array",
        "label": "uint256[]",
        "numberOfBytes": "32"
      },
      "t_bool": {
        "encoding": "inplace",
        "label": "bool",
        "numberOfBytes": "1"
      },
      "t_contract(IDegisToken)30264": {
        "encoding": "inplace",
        "label": "contract IDegisToken",
        "numberOfBytes": "20"
      },
      "t_contract(IERC20)4647": {
        "encoding": "inplace",
        "label": "contract IERC20",
        "numberOfBytes": "20"
      },
      "t_mapping(t_address,t_mapping(t_uint256,t_uint256))": {
        "encoding": "mapping",
        "key": "t_address",
        "label": "mapping(address => mapping(uint256 => uint256))",
        "numberOfBytes": "32",
        "value": "t_mapping(t_uint256,t_uint256)"
      },
      "t_mapping(t_address,t_struct(UserInfo)13101_storage)": {
        "encoding": "mapping",
        "key": "t_address",
        "label": "mapping(address => struct PurchaseIncentiveVault.UserInfo)",
        "numberOfBytes": "32",
        "value": "t_struct(UserInfo)13101_storage"
      },
      "t_mapping(t_uint256,t_struct(RoundInfo)13090_storage)": {
        "encoding": "mapping",
        "key": "t_uint256",
        "label": "mapping(uint256 => struct PurchaseIncentiveVault.RoundInfo)",
        "numberOfBytes": "32",
        "value": "t_struct(RoundInfo)13090_storage"
      },
      "t_mapping(t_uint256,t_uint256)": {
        "encoding": "mapping",
        "key": "t_uint256",
        "label": "mapping(uint256 => uint256)",
        "numberOfBytes": "32",
        "value": "t_uint256"
      },
      "t_struct(RoundInfo)13090_storage": {
        "encoding": "inplace",
        "label": "struct PurchaseIncentiveVault.RoundInfo",
        "members": [
          {
            "astId": 13082,
            "contract": "contracts/farming/PurchaseIncentiveVault.sol:PurchaseIncentiveVault",
            "label": "shares",
            "offset": 0,
            "slot": "0",
            "type": "t_uint256"
          },
          {
            "astId": 13085,
            "contract": "contracts/farming/PurchaseIncentiveVault.sol:PurchaseIncentiveVault",
            "label": "users",
            "offset": 0,
            "slot": "1",
            "type": "t_array(t_address)dyn_storage"
          },
          {
            "astId": 13087,
            "contract": "contracts/farming/PurchaseIncentiveVault.sol:PurchaseIncentiveVault",
            "label": "hasDistributed",
            "offset": 0,
            "slot": "2",
            "type": "t_bool"
          },
          {
            "astId": 13089,
            "contract": "contracts/farming/PurchaseIncentiveVault.sol:PurchaseIncentiveVault",
            "label": "degisPerShare",
            "offset": 0,
            "slot": "3",
            "type": "t_uint256"
          }
        ],
        "numberOfBytes": "128"
      },
      "t_struct(UserInfo)13101_storage": {
        "encoding": "inplace",
        "label": "struct PurchaseIncentiveVault.UserInfo",
        "members": [
          {
            "astId": 13097,
            "contract": "contracts/farming/PurchaseIncentiveVault.sol:PurchaseIncentiveVault",
            "label": "lastRewardRoundIndex",
            "offset": 0,
            "slot": "0",
            "type": "t_uint256"
          },
          {
            "astId": 13100,
            "contract": "contracts/farming/PurchaseIncentiveVault.sol:PurchaseIncentiveVault",
            "label": "pendingRounds",
            "offset": 0,
            "slot": "1",
            "type": "t_array(t_uint256)dyn_storage"
          }
        ],
        "numberOfBytes": "64"
      },
      "t_uint256": {
        "encoding": "inplace",
        "label": "uint256",
        "numberOfBytes": "32"
      }
    }
  }
}