{
  "address": "0x334cf56D0660092011C742a3DD0610Bf88A374AD",
  "abi": [
    {
      "inputs": [
        {
          "internalType": "address",
          "name": "_buyerToken",
          "type": "address"
        },
        {
          "internalType": "address",
          "name": "_degisToken",
          "type": "address"
        }
      ],
      "stateMutability": "nonpayable",
      "type": "constructor"
    },
    {
      "inputs": [
        {
          "internalType": "uint256",
          "name": "prod1",
          "type": "uint256"
        }
      ],
      "name": "PRBMath__MulDivFixedPointOverflow",
      "type": "error"
    },
    {
      "inputs": [
        {
          "internalType": "uint256",
          "name": "prod1",
          "type": "uint256"
        },
        {
          "internalType": "uint256",
          "name": "denominator",
          "type": "uint256"
        }
      ],
      "name": "PRBMath__MulDivOverflow",
      "type": "error"
    },
    {
      "anonymous": false,
      "inputs": [
        {
          "indexed": false,
          "internalType": "uint256",
          "name": "oldPerRound",
          "type": "uint256"
        },
        {
          "indexed": false,
          "internalType": "uint256",
          "name": "newPerRound",
          "type": "uint256"
        }
      ],
      "name": "DegisPerRoundChanged",
      "type": "event"
    },
    {
      "anonymous": false,
      "inputs": [
        {
          "indexed": false,
          "internalType": "uint256",
          "name": "oldInterval",
          "type": "uint256"
        },
        {
          "indexed": false,
          "internalType": "uint256",
          "name": "newInterval",
          "type": "uint256"
        }
      ],
      "name": "DistributionIntervalChanged",
      "type": "event"
    },
    {
      "anonymous": false,
      "inputs": [
        {
          "indexed": true,
          "internalType": "address",
          "name": "previousOwner",
          "type": "address"
        },
        {
          "indexed": true,
          "internalType": "address",
          "name": "newOwner",
          "type": "address"
        }
      ],
      "name": "OwnershipTransferred",
      "type": "event"
    },
    {
      "anonymous": false,
      "inputs": [
        {
          "indexed": false,
          "internalType": "address",
          "name": "userAddress",
          "type": "address"
        },
        {
          "indexed": false,
          "internalType": "uint256",
          "name": "currentRound",
          "type": "uint256"
        },
        {
          "indexed": false,
          "internalType": "uint256",
          "name": "amount",
          "type": "uint256"
        }
      ],
      "name": "Redeem",
      "type": "event"
    },
    {
      "anonymous": false,
      "inputs": [
        {
          "indexed": false,
          "internalType": "address",
          "name": "userAddress",
          "type": "address"
        },
        {
          "indexed": false,
          "internalType": "uint256",
          "name": "userReward",
          "type": "uint256"
        }
      ],
      "name": "RewardClaimed",
      "type": "event"
    },
    {
      "anonymous": false,
      "inputs": [
        {
          "indexed": false,
          "internalType": "address",
          "name": "userAddress",
          "type": "address"
        },
        {
          "indexed": false,
          "internalType": "uint256",
          "name": "currentRound",
          "type": "uint256"
        },
        {
          "indexed": false,
          "internalType": "uint256",
          "name": "actualAmount",
          "type": "uint256"
        }
      ],
      "name": "Stake",
      "type": "event"
    },
    {
      "inputs": [],
      "name": "MAX_ROUND",
      "outputs": [
        {
          "internalType": "uint256",
          "name": "",
          "type": "uint256"
        }
      ],
      "stateMutability": "view",
      "type": "function"
    },
    {
      "inputs": [],
      "name": "claimOwnReward",
      "outputs": [],
      "stateMutability": "nonpayable",
      "type": "function"
    },
    {
      "inputs": [],
      "name": "currentRound",
      "outputs": [
        {
          "internalType": "uint256",
          "name": "",
          "type": "uint256"
        }
      ],
      "stateMutability": "view",
      "type": "function"
    },
    {
      "inputs": [],
      "name": "degisPerRound",
      "outputs": [
        {
          "internalType": "uint256",
          "name": "",
          "type": "uint256"
        }
      ],
      "stateMutability": "view",
      "type": "function"
    },
    {
      "inputs": [],
      "name": "distributionInterval",
      "outputs": [
        {
          "internalType": "uint256",
          "name": "",
          "type": "uint256"
        }
      ],
      "stateMutability": "view",
      "type": "function"
    },
    {
      "inputs": [
        {
          "internalType": "uint256",
          "name": "_round",
          "type": "uint256"
        }
      ],
      "name": "getTotalUsersInRound",
      "outputs": [
        {
          "internalType": "uint256",
          "name": "",
          "type": "uint256"
        }
      ],
      "stateMutability": "view",
      "type": "function"
    },
    {
      "inputs": [
        {
          "internalType": "address",
          "name": "_user",
          "type": "address"
        }
      ],
      "name": "getUserShares",
      "outputs": [
        {
          "internalType": "uint256",
          "name": "",
          "type": "uint256"
        }
      ],
      "stateMutability": "view",
      "type": "function"
    },
    {
      "inputs": [],
      "name": "lastDistributionBlock",
      "outputs": [
        {
          "internalType": "uint256",
          "name": "",
          "type": "uint256"
        }
      ],
      "stateMutability": "view",
      "type": "function"
    },
    {
      "inputs": [],
      "name": "owner",
      "outputs": [
        {
          "internalType": "address",
          "name": "",
          "type": "address"
        }
      ],
      "stateMutability": "view",
      "type": "function"
    },
    {
      "inputs": [],
      "name": "pendingReward",
      "outputs": [
        {
          "internalType": "uint256",
          "name": "",
          "type": "uint256"
        }
      ],
      "stateMutability": "view",
      "type": "function"
    },
    {
      "inputs": [
        {
          "internalType": "uint256",
          "name": "_amount",
          "type": "uint256"
        }
      ],
      "name": "redeem",
      "outputs": [],
      "stateMutability": "nonpayable",
      "type": "function"
    },
    {
      "inputs": [],
      "name": "renounceOwnership",
      "outputs": [],
      "stateMutability": "nonpayable",
      "type": "function"
    },
    {
      "inputs": [
        {
          "internalType": "uint256",
          "name": "",
          "type": "uint256"
        }
      ],
      "name": "roundInfo",
      "outputs": [
        {
          "internalType": "uint256",
          "name": "shares",
          "type": "uint256"
        },
        {
          "internalType": "bool",
          "name": "hasDistributed",
          "type": "bool"
        },
        {
          "internalType": "uint256",
          "name": "degisPerShare",
          "type": "uint256"
        }
      ],
      "stateMutability": "view",
      "type": "function"
    },
    {
      "inputs": [
        {
          "internalType": "uint256",
          "name": "_degisPerRound",
          "type": "uint256"
        }
      ],
      "name": "setDegisPerRound",
      "outputs": [],
      "stateMutability": "nonpayable",
      "type": "function"
    },
    {
      "inputs": [
        {
          "internalType": "uint256",
          "name": "_newInterval",
          "type": "uint256"
        }
      ],
      "name": "setDistributionInterval",
      "outputs": [],
      "stateMutability": "nonpayable",
      "type": "function"
    },
    {
      "inputs": [],
      "name": "settleCurrentRound",
      "outputs": [],
      "stateMutability": "nonpayable",
      "type": "function"
    },
    {
      "inputs": [
        {
          "internalType": "uint256",
          "name": "_amount",
          "type": "uint256"
        }
      ],
      "name": "stake",
      "outputs": [],
      "stateMutability": "nonpayable",
      "type": "function"
    },
    {
      "inputs": [
        {
          "internalType": "address",
          "name": "newOwner",
          "type": "address"
        }
      ],
      "name": "transferOwnership",
      "outputs": [],
      "stateMutability": "nonpayable",
      "type": "function"
    },
    {
      "inputs": [
        {
          "internalType": "address",
          "name": "",
          "type": "address"
        }
      ],
      "name": "userInfo",
      "outputs": [
        {
          "internalType": "uint256",
          "name": "lastRewardRoundIndex",
          "type": "uint256"
        }
      ],
      "stateMutability": "view",
      "type": "function"
    },
    {
      "inputs": [
        {
          "internalType": "address",
          "name": "",
          "type": "address"
        }
      ],
      "name": "userLastRewardRound",
      "outputs": [
        {
          "internalType": "uint256",
          "name": "",
          "type": "uint256"
        }
      ],
      "stateMutability": "view",
      "type": "function"
    },
    {
      "inputs": [
        {
          "internalType": "address",
          "name": "",
          "type": "address"
        }
      ],
      "name": "userRewards",
      "outputs": [
        {
          "internalType": "uint256",
          "name": "",
          "type": "uint256"
        }
      ],
      "stateMutability": "view",
      "type": "function"
    },
    {
      "inputs": [
        {
          "internalType": "address",
          "name": "",
          "type": "address"
        },
        {
          "internalType": "uint256",
          "name": "",
          "type": "uint256"
        }
      ],
      "name": "userSharesInRound",
      "outputs": [
        {
          "internalType": "uint256",
          "name": "",
          "type": "uint256"
        }
      ],
      "stateMutability": "view",
      "type": "function"
    }
  ],
  "transactionHash": "0x2aa6a84f9faa8cdfd6bbffdfe7c9f5ad9f3bdbdba6aa59f01af8fa1fbc379f48",
  "args": [
    "0x55CCfA6fE70b0e5faD62525b4764572812F2F463",
    "0x03Caaf72E46498420E071292ad5dA2DA921B604C"
  ],
  "numDeployments": 3,
  "solcInputHash": "e2f68f02bf93dbb1a89623f71edc7697",
  "bytecode": "0x608060405260326007553480156200001657600080fd5b506040516200188338038062001883833981016040819052620000399162000104565b62000044336200007a565b600180546001600160a01b039384166001600160a01b031991821617909155600280549290931691161790554360065562000147565b600080546001600160a01b038381166001600160a01b0319831681178455604051919092169283917f8be0079c531659141344cd1fd0a4f28419497f9722a3daafe3b4186f6b6457e09190a35050565b60006001600160a01b0382165b92915050565b620000e881620000ca565b8114620000f457600080fd5b50565b8051620000d781620000dd565b600080604083850312156200011c576200011c600080fd5b60006200012a8585620000f7565b92505060206200013d85828601620000f7565b9150509250929050565b61172c80620001576000396000f3fe608060405234801561001057600080fd5b50600436106101425760003560e01c80638a19c8bc116100b8578063c708c5f41161007c578063c708c5f4146102f6578063ca1fe809146102ff578063db006a7514610307578063e6848ead1461031a578063f2bc79a31461032d578063f2fde38b1461033657600080fd5b80638a19c8bc146102825780638da5cb5b1461028b578063a694fc3a146102a4578063b4ac62c5146102b7578063ba0cb22b146102c057600080fd5b80632f0179011161010a5780632f017901146101e8578063427f0b0014610213578063582c74601461025457806371201a0e1461025e578063715018a6146102675780637a16a49e1461026f57600080fd5b80630660f1e814610147578063137ee36e1461017d5780631959a002146101855780631aeee41d146101a55780632c7d9f8a146101c8575b600080fd5b61016761015536600461112d565b600b6020526000908152604090205481565b6040516101749190611156565b60405180910390f35b610167610349565b61016761019336600461112d565b60096020526000908152604090205481565b6101676101b3366004611175565b60009081526008602052604090206001015490565b6101676101d636600461112d565b600c6020526000908152604090205481565b6101676101f6366004611196565b600a60209081526000928352604080842090915290825290205481565b610245610221366004611175565b600860205260009081526040902080546002820154600390920154909160ff169083565b604051610174939291906111db565b61025c610482565b005b61016760055481565b61025c61068f565b61025c61027d366004611175565b6106d4565b61016760035481565b6000546001600160a01b0316604051610174919061120c565b61025c6102b2366004611175565b610753565b61016760075481565b6101676102ce36600461112d565b6001600160a01b03166000908152600a60209081526040808320600354845290915290205490565b61016760045481565b61025c6109ff565b61025c610315366004611175565b610ae5565b61025c610328366004611175565b610c04565b61016760065481565b61025c61034436600461112d565b610c77565b33600090815260096020908152604080832081518083018352815481526001820180548451818702810187019095528085528695929485840193909291908301828280156103b657602002820191906000526020600020905b8154815260200190600101908083116103a2575b5050505050815250509050600081600001518260200151516103d89190611230565b82519091506000815b6103eb8484611247565b8110156104795760008560200151828151811061040a5761040a61125f565b60200260200101519050610459600a60006104223390565b6001600160a01b03168152602080820192909252604090810160009081208582528352818120546008909352206003015490610ce2565b6104639084611247565b925050808061047190611275565b9150506103e1565b50949350505050565b336000908152600960209081526040808320815180830183528154815260018201805484518187028101870190955280855291949293858401939092908301828280156104ee57602002820191906000526020600020905b8154815260200190600101908083116104da575b5050505050815250509050806020015151600014156105285760405162461bcd60e51b815260040161051f906112c4565b60405180910390fd5b805160208201515160009161053c91611230565b90506000811161055e5760405162461bcd60e51b815260040161051f906112f9565b815160075482111561059c5760075433600090815260096020526040812080549294508492909190610591908490611247565b909155506105c19050565b33600090815260096020526040812080548492906105bb908490611247565b90915550505b6000815b6105cf8484611247565b811015610626576000856020015182815181106105ee576105ee61125f565b60200260200101519050610606600a60006104223390565b6106109084611247565b925050808061061e90611275565b9150506105c5565b506002546001600160a01b031663b476739833836040518363ffffffff1660e01b8152600401610657929190611309565b600060405180830381600087803b15801561067157600080fd5b505af1158015610685573d6000803e3d6000fd5b5050505050505050565b336106a26000546001600160a01b031690565b6001600160a01b0316146106c85760405162461bcd60e51b815260040161051f90611354565b6106d26000610cf5565b565b336106e76000546001600160a01b031690565b6001600160a01b03161461070d5760405162461bcd60e51b815260040161051f90611354565b60058054908290556040517f0bcbec4c9da357687b1300891e9be5627182572bb49e955ea7d37afcd9275984906107479083908590611364565b60405180910390a15050565b6001546040516370a0823160e01b81526000916001600160a01b0316906370a082319061078490309060040161120c565b602060405180830381865afa1580156107a1573d6000803e3d6000fd5b505050506040513d601f19601f820116820180604052508101906107c5919061137d565b90506107df336001546001600160a01b0316903085610d45565b6001546040516370a0823160e01b81526000916001600160a01b0316906370a082319061081090309060040161120c565b602060405180830381865afa15801561082d573d6000803e3d6000fd5b505050506040513d601f19601f82011682018060405250810190610851919061137d565b9050600061085f8383611230565b336000908152600a6020908152604080832060035484529091529020549091506108b85760035460009081526008602090815260408220600190810180549182018155835291200180546001600160a01b031916331790555b336000908152600a602090815260408083206003548452909152812080548392906108e4908490611247565b9091555050336000908152600960205260409020600101548061091257336000908152600960205260408120555b8015806109645750801580159061096457506003543360009081526009602052604090206001908101906109469084611230565b815481106109565761095661125f565b906000526020600020015414155b15610994573360009081526009602090815260408220600354600191820180549283018155845291909220909101555b600354600090815260086020526040812080548492906109b5908490611247565b909155507f5af417134f72a9d41143ace85b0a26dce6f550f894f2cbc1eeee8810603d91b6905033600354846040516109f09392919061139e565b60405180910390a15050505050565b33610a126000546001600160a01b031690565b6001600160a01b031614610a385760405162461bcd60e51b815260040161051f90611354565b600554600654610a489043611230565b11610a655760405162461bcd60e51b815260040161051f90611401565b6003546000908152600860205260409020600281015460ff1615610a9b5760405162461bcd60e51b815260040161051f90611443565b8054600454610aaa9082610da3565b60038084019190915560028301805460ff191660019081179091558154909190600090610ad8908490611247565b9091555050436006555050565b336000908152600a60209081526040808320600354845290915290205481811015610b225760405162461bcd60e51b815260040161051f90611497565b610b39336001546001600160a01b03169084610db8565b336000908152600a60209081526040808320600354845290915281208054849290610b65908490611230565b9091555050336000908152600960205260409020600101805480610b8b57610b8b6114a7565b60019003818190600052602060002001600090559055816008600060035481526020019081526020016000206000016000828254610bc99190611230565b909155507fe5b754fb1abb7f01b499791d0b820ae3b6af3424ac1c59768edb53f4ec31a929905033600354846040516107479392919061139e565b33610c176000546001600160a01b031690565b6001600160a01b031614610c3d5760405162461bcd60e51b815260040161051f90611354565b60048054908290556040517fa1c3380bad48ec737194c876d07b4d6c49471396974e2bdc613491a82a3c8c86906107479083908590611364565b33610c8a6000546001600160a01b031690565b6001600160a01b031614610cb05760405162461bcd60e51b815260040161051f90611354565b6001600160a01b038116610cd65760405162461bcd60e51b815260040161051f906114fe565b610cdf81610cf5565b50565b6000610cee8383610ddc565b9392505050565b600080546001600160a01b038381166001600160a01b0319831681178455604051919092169283917f8be0079c531659141344cd1fd0a4f28419497f9722a3daafe3b4186f6b6457e09190a35050565b610d9d846323b872dd60e01b858585604051602401610d669392919061150e565b60408051601f198184030181529190526020810180516001600160e01b03166001600160e01b031990931692909217909152610e9e565b50505050565b6000610cee83670de0b6b3a764000084610f2d565b610dd78363a9059cbb60e01b8484604051602401610d66929190611309565b505050565b60008080600019848609848602925082811083820303915050670de0b6b3a76400008110610e1f578060405163698d9a0160e11b815260040161051f9190611156565b600080670de0b6b3a76400008688099150506706f05b59d3b1ffff811182610e595780670de0b6b3a7640000850401945050505050610e98565b620400008285030493909111909103600160ee1b02919091177faccb18165bd6fe31ae1cf318dc5b51eee0e1ba569b88cd74c1773b91fac10669020190505b92915050565b6000610ef3826040518060400160405280602081526020017f5361666545524332303a206c6f772d6c6576656c2063616c6c206661696c6564815250856001600160a01b0316610ff49092919063ffffffff16565b805190915015610dd75780806020019051810190610f119190611552565b610dd75760405162461bcd60e51b815260040161051f906115b8565b600080806000198587098587029250828110838203039150508060001415610f6857838281610f5e57610f5e611529565b0492505050610cee565b838110610f8c578084604051631dcf306360e21b815260040161051f929190611364565b600084868809600260036001881981018916988990049182028318808302840302808302840302808302840302808302840302808302840302918202909203026000889003889004909101858311909403939093029303949094049190911702949350505050565b6060611003848460008561100b565b949350505050565b60608247101561102d5760405162461bcd60e51b815260040161051f90611609565b843b61104b5760405162461bcd60e51b815260040161051f9061164b565b600080866001600160a01b0316858760405161106791906116a9565b60006040518083038185875af1925050503d80600081146110a4576040519150601f19603f3d011682016040523d82523d6000602084013e6110a9565b606091505b50915091506110b98282866110c4565b979650505050505050565b606083156110d3575081610cee565b8251156110e35782518084602001fd5b8160405162461bcd60e51b815260040161051f91906116e5565b60006001600160a01b038216610e98565b611117816110fd565b8114610cdf57600080fd5b8035610e988161110e565b60006020828403121561114257611142600080fd5b60006110038484611122565b805b82525050565b60208101610e98828461114e565b80611117565b8035610e9881611164565b60006020828403121561118a5761118a600080fd5b6000611003848461116a565b600080604083850312156111ac576111ac600080fd5b60006111b88585611122565b92505060206111c98582860161116a565b9150509250929050565b801515611150565b606081016111e9828661114e565b6111f660208301856111d3565b611003604083018461114e565b611150816110fd565b60208101610e988284611203565b634e487b7160e01b600052601160045260246000fd5b6000828210156112425761124261121a565b500390565b6000821982111561125a5761125a61121a565b500190565b634e487b7160e01b600052603260045260246000fd5b60006000198214156112895761128961121a565b5060010190565b60178152602081017f596f752068617665206e6f207368617265732065766572000000000000000000815290505b60200190565b60208082528101610e9881611290565b60108152602081016f12185d994818db185a5b595908185b1b60821b815290506112be565b60208082528101610e98816112d4565b604081016113178285611203565b610cee602083018461114e565b60208082527f4f776e61626c653a2063616c6c6572206973206e6f7420746865206f776e657291019081526112be565b60208082528101610e9881611324565b60408101611317828561114e565b8051610e9881611164565b60006020828403121561139257611392600080fd5b60006110038484611372565b606081016113ac8286611203565b6111f6602083018561114e565b602b8152602081017f54776f20646973747269627574696f6e73206e65656420746f2068617665206181526a0371034b73a32b93b30b6160ad1b602082015290505b60400190565b60208082528101610e98816113b9565b601e8152602081017f416c7265616479206469737472696275746564207468697320726f756e640000815290506112be565b60208082528101610e9881611411565b60298152602081017f4e6f7420656e6f75676820627579657220746f6b656e7320666f7220796f7520815268746f2072656465656d60b81b602082015290506113fb565b60208082528101610e9881611453565b634e487b7160e01b600052603160045260246000fd5b60268152602081017f4f776e61626c653a206e6577206f776e657220697320746865207a65726f206181526564647265737360d01b602082015290506113fb565b60208082528101610e98816114bd565b6060810161151c8286611203565b6111f66020830185611203565b634e487b7160e01b600052601260045260246000fd5b801515611117565b8051610e988161153f565b60006020828403121561156757611567600080fd5b60006110038484611547565b602a8152602081017f5361666545524332303a204552433230206f7065726174696f6e20646964206e8152691bdd081cdd58d8d9595960b21b602082015290506113fb565b60208082528101610e9881611573565b60268152602081017f416464726573733a20696e73756666696369656e742062616c616e636520666f8152651c8818d85b1b60d21b602082015290506113fb565b60208082528101610e98816115c8565b601d8152602081017f416464726573733a2063616c6c20746f206e6f6e2d636f6e7472616374000000815290506112be565b60208082528101610e9881611619565b60005b8381101561167657818101518382015260200161165e565b83811115610d9d5750506000910152565b6000611691825190565b61169f81856020860161165b565b9290920192915050565b610e988183611687565b60006116bd825190565b8084526020840193506116d481856020860161165b565b601f01601f19169290920192915050565b60208082528101610cee81846116b356fea264697066735822122040fe4d437b40093a7bd3233d713d4525f9584c5ae3f13f766241f04b69ac886764736f6c634300080a0033",
  "devdoc": {
    "kind": "dev",
    "methods": {
      "getTotalUsersInRound(uint256)": {
        "params": {
          "_round": "Round number to check"
        },
        "returns": {
          "_0": "totalUsers Total amount of users in _round"
        }
      },
      "getUserShares(address)": {
        "params": {
          "_user": "Address of the user"
        }
      },
      "pendingReward()": {
        "returns": {
          "_0": "userPendingReward User's pending reward"
        }
      },
      "redeem(uint256)": {
        "params": {
          "_amount": "Amount to redeem"
        }
      },
      "renounceOwnership()": {
        "details": "Renouncing ownership will leave the contract without an owner,         thereby removing any functionality that is only available to the owner."
      },
      "setDegisPerRound(uint256)": {
        "params": {
          "_degisPerRound": "Degis distribution per round to be set"
        }
      },
      "setDistributionInterval(uint256)": {
        "params": {
          "_newInterval": "The new interval"
        }
      },
      "stake(uint256)": {
        "params": {
          "_amount": "Amount of buyer tokens to stake"
        }
      },
      "transferOwnership(address)": {
        "details": "Can only be called by the current owner.",
        "params": {
          "newOwner": "Address of the new owner"
        }
      }
    },
    "title": "Purchase Incentive Vault",
    "version": 1
  },
  "userdoc": {
    "errors": {
      "PRBMath__MulDivFixedPointOverflow(uint256)": [
        {
          "notice": "Emitted when the result overflows uint256."
        }
      ],
      "PRBMath__MulDivOverflow(uint256,uint256)": [
        {
          "notice": "Emitted when the result overflows uint256."
        }
      ]
    },
    "kind": "user",
    "methods": {
      "claimOwnReward()": {
        "notice": "User can claim his own reward"
      },
      "getTotalUsersInRound(uint256)": {
        "notice": "Get the amount of users in _round, used for distribution"
      },
      "getUserShares(address)": {
        "notice": "Get your shares in the current round"
      },
      "owner()": {
        "notice": "Returns the address of the current owner."
      },
      "pendingReward()": {
        "notice": "Get a user's pending reward"
      },
      "redeem(uint256)": {
        "notice": "Redeem buyer token from the vault"
      },
      "renounceOwnership()": {
        "notice": "Leaves the contract without owner. It will not be possible to call         `onlyOwner` functions anymore. Can only be called by the current owner."
      },
      "setDegisPerRound(uint256)": {
        "notice": "Set degis distribution per round"
      },
      "setDistributionInterval(uint256)": {
        "notice": "Set a new distribution interval"
      },
      "settleCurrentRound()": {
        "notice": "Setttle the current round"
      },
      "stake(uint256)": {
        "notice": "Stake buyer tokens into this contract"
      },
      "transferOwnership(address)": {
        "notice": "Transfers ownership of the contract to a new account (`newOwner`)."
      }
    },
    "notice": "This is the purchase incentive vault for staking buyer tokens.         Users first stake their buyer tokens and wait for distribution.         About every 24 hours, the reward will be calculated to users' account.         After disrtribution, users' reward balance will update but they still need to manually claim the reward.",
    "version": 1
  },
  "storageLayout": {
    "storage": [
      {
        "astId": 22771,
        "contract": "contracts/farming/PurchaseIncentiveVault.sol:PurchaseIncentiveVault",
        "label": "_owner",
        "offset": 0,
        "slot": "0",
        "type": "t_address"
      },
      {
        "astId": 7581,
        "contract": "contracts/farming/PurchaseIncentiveVault.sol:PurchaseIncentiveVault",
        "label": "buyerToken",
        "offset": 0,
        "slot": "1",
        "type": "t_contract(IBuyerToken)21451"
      },
      {
        "astId": 7584,
        "contract": "contracts/farming/PurchaseIncentiveVault.sol:PurchaseIncentiveVault",
        "label": "degis",
        "offset": 0,
        "slot": "2",
        "type": "t_contract(IDegisToken)21481"
      },
      {
        "astId": 7586,
        "contract": "contracts/farming/PurchaseIncentiveVault.sol:PurchaseIncentiveVault",
        "label": "currentRound",
        "offset": 0,
        "slot": "3",
        "type": "t_uint256"
      },
      {
        "astId": 7588,
        "contract": "contracts/farming/PurchaseIncentiveVault.sol:PurchaseIncentiveVault",
        "label": "degisPerRound",
        "offset": 0,
        "slot": "4",
        "type": "t_uint256"
      },
      {
        "astId": 7590,
        "contract": "contracts/farming/PurchaseIncentiveVault.sol:PurchaseIncentiveVault",
        "label": "distributionInterval",
        "offset": 0,
        "slot": "5",
        "type": "t_uint256"
      },
      {
        "astId": 7592,
        "contract": "contracts/farming/PurchaseIncentiveVault.sol:PurchaseIncentiveVault",
        "label": "lastDistributionBlock",
        "offset": 0,
        "slot": "6",
        "type": "t_uint256"
      },
      {
        "astId": 7595,
        "contract": "contracts/farming/PurchaseIncentiveVault.sol:PurchaseIncentiveVault",
        "label": "MAX_ROUND",
        "offset": 0,
        "slot": "7",
        "type": "t_uint256"
      },
      {
        "astId": 7610,
        "contract": "contracts/farming/PurchaseIncentiveVault.sol:PurchaseIncentiveVault",
        "label": "roundInfo",
        "offset": 0,
        "slot": "8",
        "type": "t_mapping(t_uint256,t_struct(RoundInfo)7605_storage)"
      },
      {
        "astId": 7621,
        "contract": "contracts/farming/PurchaseIncentiveVault.sol:PurchaseIncentiveVault",
        "label": "userInfo",
        "offset": 0,
        "slot": "9",
        "type": "t_mapping(t_address,t_struct(UserInfo)7616_storage)"
      },
      {
        "astId": 7627,
        "contract": "contracts/farming/PurchaseIncentiveVault.sol:PurchaseIncentiveVault",
        "label": "userSharesInRound",
        "offset": 0,
        "slot": "10",
        "type": "t_mapping(t_address,t_mapping(t_uint256,t_uint256))"
      },
      {
        "astId": 7631,
        "contract": "contracts/farming/PurchaseIncentiveVault.sol:PurchaseIncentiveVault",
        "label": "userRewards",
        "offset": 0,
        "slot": "11",
        "type": "t_mapping(t_address,t_uint256)"
      },
      {
        "astId": 7635,
        "contract": "contracts/farming/PurchaseIncentiveVault.sol:PurchaseIncentiveVault",
        "label": "userLastRewardRound",
        "offset": 0,
        "slot": "12",
        "type": "t_mapping(t_address,t_uint256)"
      }
    ],
    "types": {
      "t_address": {
        "encoding": "inplace",
        "label": "address",
        "numberOfBytes": "20"
      },
      "t_array(t_address)dyn_storage": {
        "base": "t_address",
        "encoding": "dynamic_array",
        "label": "address[]",
        "numberOfBytes": "32"
      },
      "t_array(t_uint256)dyn_storage": {
        "base": "t_uint256",
        "encoding": "dynamic_array",
        "label": "uint256[]",
        "numberOfBytes": "32"
      },
      "t_bool": {
        "encoding": "inplace",
        "label": "bool",
        "numberOfBytes": "1"
      },
      "t_contract(IBuyerToken)21451": {
        "encoding": "inplace",
        "label": "contract IBuyerToken",
        "numberOfBytes": "20"
      },
      "t_contract(IDegisToken)21481": {
        "encoding": "inplace",
        "label": "contract IDegisToken",
        "numberOfBytes": "20"
      },
      "t_mapping(t_address,t_mapping(t_uint256,t_uint256))": {
        "encoding": "mapping",
        "key": "t_address",
        "label": "mapping(address => mapping(uint256 => uint256))",
        "numberOfBytes": "32",
        "value": "t_mapping(t_uint256,t_uint256)"
      },
      "t_mapping(t_address,t_struct(UserInfo)7616_storage)": {
        "encoding": "mapping",
        "key": "t_address",
        "label": "mapping(address => struct PurchaseIncentiveVault.UserInfo)",
        "numberOfBytes": "32",
        "value": "t_struct(UserInfo)7616_storage"
      },
      "t_mapping(t_address,t_uint256)": {
        "encoding": "mapping",
        "key": "t_address",
        "label": "mapping(address => uint256)",
        "numberOfBytes": "32",
        "value": "t_uint256"
      },
      "t_mapping(t_uint256,t_struct(RoundInfo)7605_storage)": {
        "encoding": "mapping",
        "key": "t_uint256",
        "label": "mapping(uint256 => struct PurchaseIncentiveVault.RoundInfo)",
        "numberOfBytes": "32",
        "value": "t_struct(RoundInfo)7605_storage"
      },
      "t_mapping(t_uint256,t_uint256)": {
        "encoding": "mapping",
        "key": "t_uint256",
        "label": "mapping(uint256 => uint256)",
        "numberOfBytes": "32",
        "value": "t_uint256"
      },
      "t_struct(RoundInfo)7605_storage": {
        "encoding": "inplace",
        "label": "struct PurchaseIncentiveVault.RoundInfo",
        "members": [
          {
            "astId": 7597,
            "contract": "contracts/farming/PurchaseIncentiveVault.sol:PurchaseIncentiveVault",
            "label": "shares",
            "offset": 0,
            "slot": "0",
            "type": "t_uint256"
          },
          {
            "astId": 7600,
            "contract": "contracts/farming/PurchaseIncentiveVault.sol:PurchaseIncentiveVault",
            "label": "users",
            "offset": 0,
            "slot": "1",
            "type": "t_array(t_address)dyn_storage"
          },
          {
            "astId": 7602,
            "contract": "contracts/farming/PurchaseIncentiveVault.sol:PurchaseIncentiveVault",
            "label": "hasDistributed",
            "offset": 0,
            "slot": "2",
            "type": "t_bool"
          },
          {
            "astId": 7604,
            "contract": "contracts/farming/PurchaseIncentiveVault.sol:PurchaseIncentiveVault",
            "label": "degisPerShare",
            "offset": 0,
            "slot": "3",
            "type": "t_uint256"
          }
        ],
        "numberOfBytes": "128"
      },
      "t_struct(UserInfo)7616_storage": {
        "encoding": "inplace",
        "label": "struct PurchaseIncentiveVault.UserInfo",
        "members": [
          {
            "astId": 7612,
            "contract": "contracts/farming/PurchaseIncentiveVault.sol:PurchaseIncentiveVault",
            "label": "lastRewardRoundIndex",
            "offset": 0,
            "slot": "0",
            "type": "t_uint256"
          },
          {
            "astId": 7615,
            "contract": "contracts/farming/PurchaseIncentiveVault.sol:PurchaseIncentiveVault",
            "label": "pendingRounds",
            "offset": 0,
            "slot": "1",
            "type": "t_array(t_uint256)dyn_storage"
          }
        ],
        "numberOfBytes": "64"
      },
      "t_uint256": {
        "encoding": "inplace",
        "label": "uint256",
        "numberOfBytes": "32"
      }
    }
  }
}