{
  "address": "0x3D791295BDd279e3Ba5e4c4a9d09aa6370B9d173",
  "abi": [
    {
      "inputs": [
        {
          "internalType": "address",
          "name": "_vrfCoordinator",
          "type": "address"
        },
        {
          "internalType": "address",
          "name": "_linkToken",
          "type": "address"
        },
        {
          "internalType": "bytes32",
          "name": "_keyHash",
          "type": "bytes32"
        }
      ],
      "stateMutability": "nonpayable",
      "type": "constructor"
    },
    {
      "anonymous": false,
      "inputs": [
        {
          "indexed": true,
          "internalType": "address",
          "name": "previousOwner",
          "type": "address"
        },
        {
          "indexed": true,
          "internalType": "address",
          "name": "newOwner",
          "type": "address"
        }
      ],
      "name": "OwnershipTransferred",
      "type": "event"
    },
    {
      "inputs": [],
      "name": "DegisLottery",
      "outputs": [
        {
          "internalType": "contract IDegisLottery",
          "name": "",
          "type": "address"
        }
      ],
      "stateMutability": "view",
      "type": "function"
    },
    {
      "inputs": [],
      "name": "fee",
      "outputs": [
        {
          "internalType": "uint256",
          "name": "",
          "type": "uint256"
        }
      ],
      "stateMutability": "view",
      "type": "function"
    },
    {
      "inputs": [],
      "name": "getRandomNumber",
      "outputs": [],
      "stateMutability": "nonpayable",
      "type": "function"
    },
    {
      "inputs": [],
      "name": "keyHash",
      "outputs": [
        {
          "internalType": "bytes32",
          "name": "",
          "type": "bytes32"
        }
      ],
      "stateMutability": "view",
      "type": "function"
    },
    {
      "inputs": [],
      "name": "latestLotteryId",
      "outputs": [
        {
          "internalType": "uint256",
          "name": "",
          "type": "uint256"
        }
      ],
      "stateMutability": "view",
      "type": "function"
    },
    {
      "inputs": [],
      "name": "latestRequestId",
      "outputs": [
        {
          "internalType": "bytes32",
          "name": "",
          "type": "bytes32"
        }
      ],
      "stateMutability": "view",
      "type": "function"
    },
    {
      "inputs": [],
      "name": "owner",
      "outputs": [
        {
          "internalType": "address",
          "name": "",
          "type": "address"
        }
      ],
      "stateMutability": "view",
      "type": "function"
    },
    {
      "inputs": [],
      "name": "randomResult",
      "outputs": [
        {
          "internalType": "uint256",
          "name": "",
          "type": "uint256"
        }
      ],
      "stateMutability": "view",
      "type": "function"
    },
    {
      "inputs": [
        {
          "internalType": "bytes32",
          "name": "requestId",
          "type": "bytes32"
        },
        {
          "internalType": "uint256",
          "name": "randomness",
          "type": "uint256"
        }
      ],
      "name": "rawFulfillRandomness",
      "outputs": [],
      "stateMutability": "nonpayable",
      "type": "function"
    },
    {
      "inputs": [],
      "name": "renounceOwnership",
      "outputs": [],
      "stateMutability": "nonpayable",
      "type": "function"
    },
    {
      "inputs": [
        {
          "internalType": "uint256",
          "name": "_fee",
          "type": "uint256"
        }
      ],
      "name": "setFee",
      "outputs": [],
      "stateMutability": "nonpayable",
      "type": "function"
    },
    {
      "inputs": [
        {
          "internalType": "bytes32",
          "name": "_keyHash",
          "type": "bytes32"
        }
      ],
      "name": "setKeyHash",
      "outputs": [],
      "stateMutability": "nonpayable",
      "type": "function"
    },
    {
      "inputs": [
        {
          "internalType": "address",
          "name": "_degisLottery",
          "type": "address"
        }
      ],
      "name": "setLotteryAddress",
      "outputs": [],
      "stateMutability": "nonpayable",
      "type": "function"
    },
    {
      "inputs": [
        {
          "internalType": "address",
          "name": "newOwner",
          "type": "address"
        }
      ],
      "name": "transferOwnership",
      "outputs": [],
      "stateMutability": "nonpayable",
      "type": "function"
    },
    {
      "inputs": [
        {
          "internalType": "address",
          "name": "_tokenAddress",
          "type": "address"
        },
        {
          "internalType": "uint256",
          "name": "_tokenAmount",
          "type": "uint256"
        }
      ],
      "name": "withdrawTokens",
      "outputs": [],
      "stateMutability": "nonpayable",
      "type": "function"
    }
  ],
  "transactionHash": "0x46ca57e7b86ab67ceee178985bed2d0c8cc9dc2378bc775ca72dd7917218cba6",
  "args": [
    "0x0000000000000000000000000000000000000000",
    "0x0000000000000000000000000000000000000000",
    "0xAA77729D3466CA35AE8D28B3BBAC7CC36A5031EFDC430821C02BC31A238AF445"
  ],
  "numDeployments": 1,
  "solcInputHash": "891f6e83b97076056766f10193ee5514",
  "bytecode": "0x60c06040523480156200001157600080fd5b50604051620010fc380380620010fc833981016040819052620000349162000109565b6001600160a01b0380841660a0528216608052620000523362000069565b6003555050670de0b6b3a764000060065562000161565b600180546001600160a01b038381166001600160a01b0319831681179093556040519116919082907f8be0079c531659141344cd1fd0a4f28419497f9722a3daafe3b4186f6b6457e090600090a35050565b60006001600160a01b0382165b92915050565b620000d981620000bb565b8114620000e557600080fd5b50565b8051620000c881620000ce565b80620000d9565b8051620000c881620000f5565b600080600060608486031215620001235762000123600080fd5b6000620001318686620000e8565b93505060206200014486828701620000e8565b92505060406200015786828701620000fc565b9150509250925092565b60805160a051610f7862000184600039600061033d015260005050610f786000f3fe608060405234801561001057600080fd5b50600436106100f55760003560e01c80638da5cb5b11610097578063dbdff2c111610066578063dbdff2c1146101cd578063ddca3f43146101d5578063eed8e1ee146101de578063f2fde38b146101e757600080fd5b80638da5cb5b1461016e57806394985ddd14610187578063985447101461019a578063d581b5b6146101ad57600080fd5b806342619f66116100d357806342619f661461014157806361728f391461014a57806369fe0e2d14610153578063715018a61461016657600080fd5b806306b091f9146100fa5780631aa46f591461010f5780632a332b2a1461012e575b600080fd5b61010d6101083660046109a0565b6101fa565b005b61011860045481565b60405161012591906109e5565b60405180910390f35b61010d61013c3660046109f3565b610254565b61011860055481565b61011860035481565b61010d610161366004610a14565b6102af565b61010d6102ed565b6001546001600160a01b03166040516101259190610a3e565b61010d610195366004610a4c565b610332565b61010d6101a8366004610a14565b610384565b6002546101c0906001600160a01b031681565b6040516101259190610a9e565b61010d6103c2565b61011860065481565b61011860075481565b61010d6101f53660046109f3565b6104cf565b3361020d6001546001600160a01b031690565b6001600160a01b03161461023c5760405162461bcd60e51b815260040161023390610ade565b60405180910390fd5b6102506001600160a01b038316338361053a565b5050565b336102676001546001600160a01b031690565b6001600160a01b03161461028d5760405162461bcd60e51b815260040161023390610ade565b600280546001600160a01b0319166001600160a01b0392909216919091179055565b336102c26001546001600160a01b031690565b6001600160a01b0316146102e85760405162461bcd60e51b815260040161023390610ade565b600655565b336103006001546001600160a01b031690565b6001600160a01b0316146103265760405162461bcd60e51b815260040161023390610ade565b6103306000610595565b565b336001600160a01b037f0000000000000000000000000000000000000000000000000000000000000000161461037a5760405162461bcd60e51b815260040161023390610b20565b61025082826105e7565b336103976001546001600160a01b031690565b6001600160a01b0316146103bd5760405162461bcd60e51b815260040161023390610ade565b600355565b6002546001600160a01b0316336001600160a01b0316146103f55760405162461bcd60e51b815260040161023390610b56565b6003546104145760405162461bcd60e51b815260040161023390610b98565b600061041f4261068c565b30604051602001610431929190610c22565b604051602081830303815290604052905061271061044e82610792565b6104589190610c57565b60055560025460408051631af9025f60e21b815290516001600160a01b0390921691636be4097c916004808201926020929091908290030181865afa1580156104a5573d6000803e3d6000fd5b505050506040513d601f19601f820116820180604052508101906104c99190610c76565b60075550565b336104e26001546001600160a01b031690565b6001600160a01b0316146105085760405162461bcd60e51b815260040161023390610ade565b6001600160a01b03811661052e5760405162461bcd60e51b815260040161023390610cda565b61053781610595565b50565b6105908363a9059cbb60e01b8484604051602401610559929190610cea565b60408051601f198184030181529190526020810180516001600160e01b03166001600160e01b0319909316929092179091526107c3565b505050565b600180546001600160a01b038381166001600160a01b0319831681179093556040519116919082907f8be0079c531659141344cd1fd0a4f28419497f9722a3daafe3b4186f6b6457e090600090a35050565b81600454146106085760405162461bcd60e51b815260040161023390610d29565b61061461271082610c57565b60055560025460408051631af9025f60e21b815290516001600160a01b0390921691636be4097c916004808201926020929091908290030181865afa158015610661573d6000803e3d6000fd5b505050506040513d601f19601f820116820180604052508101906106859190610c76565b6007555050565b6060816106b05750506040805180820190915260018152600360fc1b602082015290565b8160005b81156106da57806106c481610d4f565b91506106d39050600a83610d6a565b91506106b4565b60008167ffffffffffffffff8111156106f5576106f5610d7e565b6040519080825280601f01601f19166020018201604052801561071f576020820181803683370190505b5090505b841561078a57610734600183610d94565b9150610741600a86610c57565b61074c906030610dab565b60f81b81838151811061076157610761610dc3565b60200101906001600160f81b031916908160001a905350610783600a86610d6a565b9450610723565b949350505050565b6000816040516020016107a59190610dd9565b60408051601f19818403018152919052805160209091012092915050565b6000610818826040518060400160405280602081526020017f5361666545524332303a206c6f772d6c6576656c2063616c6c206661696c6564815250856001600160a01b03166108529092919063ffffffff16565b80519091501561059057808060200190518101906108369190610df6565b6105905760405162461bcd60e51b815260040161023390610e5c565b6060610861848460008561086b565b90505b9392505050565b60608247101561088d5760405162461bcd60e51b815260040161023390610ead565b843b6108ab5760405162461bcd60e51b815260040161023390610eef565b600080866001600160a01b031685876040516108c79190610dd9565b60006040518083038185875af1925050503d8060008114610904576040519150601f19603f3d011682016040523d82523d6000602084013e610909565b606091505b5091509150610919828286610924565b979650505050505050565b60608315610933575081610864565b8251156109435782518084602001fd5b8160405162461bcd60e51b81526004016102339190610f31565b60006001600160a01b0382165b92915050565b6109798161095d565b811461053757600080fd5b803561096a81610970565b80610979565b803561096a8161098f565b600080604083850312156109b6576109b6600080fd5b60006109c28585610984565b92505060206109d385828601610995565b9150509250929050565b805b82525050565b6020810161096a82846109dd565b600060208284031215610a0857610a08600080fd5b600061078a8484610984565b600060208284031215610a2957610a29600080fd5b600061078a8484610995565b6109df8161095d565b6020810161096a8284610a35565b60008060408385031215610a6257610a62600080fd5b60006109c28585610995565b60006001600160a01b03821661096a565b600061096a82610a6e565b600061096a82610a7f565b6109df81610a8a565b6020810161096a8284610a95565b60208082527f4f776e61626c653a2063616c6c6572206973206e6f7420746865206f776e657291019081525b60200190565b6020808252810161096a81610aac565b601f8152602081017f4f6e6c7920565246436f6f7264696e61746f722063616e2066756c66696c6c0081529050610ad8565b6020808252810161096a81610aee565b6011815260208101704f6e6c792044656769734c6f747465727960781b81529050610ad8565b6020808252810161096a81610b30565b60188152602081017f4d75737420686176652076616c6964206b65792068617368000000000000000081529050610ad8565b6020808252810161096a81610b66565b60005b83811015610bc3578181015183820152602001610bab565b83811115610bd2576000848401525b50505050565b6000610be2825190565b610bf0818560208601610ba8565b9290920192915050565b600061096a8260601b90565b600061096a82610bfa565b6109df610c1d8261095d565b610c06565b610c2c8184610bd8565b9050610c388183610c11565b60140192915050565b634e487b7160e01b600052601260045260246000fd5b600082610c6657610c66610c41565b500690565b805161096a8161098f565b600060208284031215610c8b57610c8b600080fd5b600061078a8484610c6b565b60268152602081017f4f776e61626c653a206e6577206f776e657220697320746865207a65726f206181526564647265737360d01b602082015290505b60400190565b6020808252810161096a81610c97565b60408101610cf88285610a35565b61086460208301846109dd565b600f8152602081016e15dc9bdb99c81c995c5d595cdd1259608a1b81529050610ad8565b6020808252810161096a81610d05565b634e487b7160e01b600052601160045260246000fd5b6000600019821415610d6357610d63610d39565b5060010190565b600082610d7957610d79610c41565b500490565b634e487b7160e01b600052604160045260246000fd5b600082821015610da657610da6610d39565b500390565b60008219821115610dbe57610dbe610d39565b500190565b634e487b7160e01b600052603260045260246000fd5b61096a8183610bd8565b801515610979565b805161096a81610de3565b600060208284031215610e0b57610e0b600080fd5b600061078a8484610deb565b602a8152602081017f5361666545524332303a204552433230206f7065726174696f6e20646964206e8152691bdd081cdd58d8d9595960b21b60208201529050610cd4565b6020808252810161096a81610e17565b60268152602081017f416464726573733a20696e73756666696369656e742062616c616e636520666f8152651c8818d85b1b60d21b60208201529050610cd4565b6020808252810161096a81610e6c565b601d8152602081017f416464726573733a2063616c6c20746f206e6f6e2d636f6e747261637400000081529050610ad8565b6020808252810161096a81610ebd565b6000610f09825190565b808452602084019350610f20818560208601610ba8565b601f01601f19169290920192915050565b602080825281016108648184610eff56fea2646970667358221220442963f0d239a0587b4f10b3b1f52848902df56af842f2214cf6250d9394e4bd64736f6c634300080a0033",
  "devdoc": {
    "kind": "dev",
    "methods": {
      "constructor": {
        "details": "RandomNumberGenerator must be deployed before the lottery. Once the lottery contract is deployed, setLotteryAddress must be called. https://docs.chain.link/docs/vrf-contracts/",
        "params": {
          "_linkToken": "address of the LINK token",
          "_vrfCoordinator": "address of the VRF coordinator"
        }
      },
      "renounceOwnership()": {
        "details": "Renouncing ownership will leave the contract without an owner,         thereby removing any functionality that is only available to the owner."
      },
      "setFee(uint256)": {
        "params": {
          "_fee": "new fee (in LINK)"
        }
      },
      "setKeyHash(bytes32)": {
        "params": {
          "_keyHash": "new keyHash"
        }
      },
      "setLotteryAddress(address)": {
        "params": {
          "_degisLottery": "address of the PancakeSwap lottery"
        }
      },
      "transferOwnership(address)": {
        "details": "Can only be called by the current owner.",
        "params": {
          "newOwner": "Address of the new owner"
        }
      },
      "withdrawTokens(address,uint256)": {
        "details": "Only callable by owner.",
        "params": {
          "_tokenAddress": "the address of the token to withdraw",
          "_tokenAmount": "the number of token amount to withdraw"
        }
      }
    },
    "version": 1
  },
  "userdoc": {
    "kind": "user",
    "methods": {
      "constructor": {
        "notice": "Constructor"
      },
      "getRandomNumber()": {
        "notice": "Request randomness from Chainlink VRF"
      },
      "owner()": {
        "notice": "Returns the address of the current owner."
      },
      "renounceOwnership()": {
        "notice": "Leaves the contract without owner. It will not be possible to call         `onlyOwner` functions anymore. Can only be called by the current owner."
      },
      "setFee(uint256)": {
        "notice": "Change the fee"
      },
      "setKeyHash(bytes32)": {
        "notice": "Change the keyHash"
      },
      "setLotteryAddress(address)": {
        "notice": "Set the address for the DegisLottery"
      },
      "transferOwnership(address)": {
        "notice": "Transfers ownership of the contract to a new account (`newOwner`)."
      },
      "withdrawTokens(address,uint256)": {
        "notice": "It allows the admin to withdraw tokens sent to the contract"
      }
    },
    "version": 1
  },
  "storageLayout": {
    "storage": [
      {
        "astId": 941,
        "contract": "contracts/lucky-box/RandomNumberGenerator.sol:RandomNumberGenerator",
        "label": "nonces",
        "offset": 0,
        "slot": "0",
        "type": "t_mapping(t_bytes32,t_uint256)"
      },
      {
        "astId": 21695,
        "contract": "contracts/lucky-box/RandomNumberGenerator.sol:RandomNumberGenerator",
        "label": "_owner",
        "offset": 0,
        "slot": "1",
        "type": "t_address"
      },
      {
        "astId": 11568,
        "contract": "contracts/lucky-box/RandomNumberGenerator.sol:RandomNumberGenerator",
        "label": "DegisLottery",
        "offset": 0,
        "slot": "2",
        "type": "t_contract(IDegisLottery)11789"
      },
      {
        "astId": 11570,
        "contract": "contracts/lucky-box/RandomNumberGenerator.sol:RandomNumberGenerator",
        "label": "keyHash",
        "offset": 0,
        "slot": "3",
        "type": "t_bytes32"
      },
      {
        "astId": 11572,
        "contract": "contracts/lucky-box/RandomNumberGenerator.sol:RandomNumberGenerator",
        "label": "latestRequestId",
        "offset": 0,
        "slot": "4",
        "type": "t_bytes32"
      },
      {
        "astId": 11574,
        "contract": "contracts/lucky-box/RandomNumberGenerator.sol:RandomNumberGenerator",
        "label": "randomResult",
        "offset": 0,
        "slot": "5",
        "type": "t_uint256"
      },
      {
        "astId": 11576,
        "contract": "contracts/lucky-box/RandomNumberGenerator.sol:RandomNumberGenerator",
        "label": "fee",
        "offset": 0,
        "slot": "6",
        "type": "t_uint256"
      },
      {
        "astId": 11578,
        "contract": "contracts/lucky-box/RandomNumberGenerator.sol:RandomNumberGenerator",
        "label": "latestLotteryId",
        "offset": 0,
        "slot": "7",
        "type": "t_uint256"
      }
    ],
    "types": {
      "t_address": {
        "encoding": "inplace",
        "label": "address",
        "numberOfBytes": "20"
      },
      "t_bytes32": {
        "encoding": "inplace",
        "label": "bytes32",
        "numberOfBytes": "32"
      },
      "t_contract(IDegisLottery)11789": {
        "encoding": "inplace",
        "label": "contract IDegisLottery",
        "numberOfBytes": "20"
      },
      "t_mapping(t_bytes32,t_uint256)": {
        "encoding": "mapping",
        "key": "t_bytes32",
        "label": "mapping(bytes32 => uint256)",
        "numberOfBytes": "32",
        "value": "t_uint256"
      },
      "t_uint256": {
        "encoding": "inplace",
        "label": "uint256",
        "numberOfBytes": "32"
      }
    }
  }
}