{
  "address": "0x80a189369E36b79bdae4B0459C012c1e2C271750",
  "abi": [
    {
      "inputs": [
        {
          "internalType": "address",
          "name": "_vrfCoordinator",
          "type": "address"
        },
        {
          "internalType": "bytes32",
          "name": "_keyHash",
          "type": "bytes32"
        },
        {
          "internalType": "uint64",
          "name": "_subscriptionId",
          "type": "uint64"
        }
      ],
      "stateMutability": "nonpayable",
      "type": "constructor"
    },
    {
      "inputs": [
        {
          "internalType": "address",
          "name": "have",
          "type": "address"
        },
        {
          "internalType": "address",
          "name": "want",
          "type": "address"
        }
      ],
      "name": "OnlyCoordinatorCanFulfill",
      "type": "error"
    },
    {
      "anonymous": false,
      "inputs": [
        {
          "indexed": false,
          "internalType": "uint256",
          "name": "requestId",
          "type": "uint256"
        }
      ],
      "name": "RequestRandomWords",
      "type": "event"
    },
    {
      "inputs": [],
      "name": "callbackGasLimit",
      "outputs": [
        {
          "internalType": "uint32",
          "name": "",
          "type": "uint32"
        }
      ],
      "stateMutability": "view",
      "type": "function"
    },
    {
      "inputs": [],
      "name": "coordinator",
      "outputs": [
        {
          "internalType": "contract VRFCoordinatorV2Interface",
          "name": "",
          "type": "address"
        }
      ],
      "stateMutability": "view",
      "type": "function"
    },
    {
      "inputs": [],
      "name": "degisLottery",
      "outputs": [
        {
          "internalType": "address",
          "name": "",
          "type": "address"
        }
      ],
      "stateMutability": "view",
      "type": "function"
    },
    {
      "inputs": [],
      "name": "keyHash",
      "outputs": [
        {
          "internalType": "bytes32",
          "name": "",
          "type": "bytes32"
        }
      ],
      "stateMutability": "view",
      "type": "function"
    },
    {
      "inputs": [],
      "name": "latestLotteryId",
      "outputs": [
        {
          "internalType": "uint256",
          "name": "",
          "type": "uint256"
        }
      ],
      "stateMutability": "view",
      "type": "function"
    },
    {
      "inputs": [],
      "name": "owner",
      "outputs": [
        {
          "internalType": "address",
          "name": "",
          "type": "address"
        }
      ],
      "stateMutability": "view",
      "type": "function"
    },
    {
      "inputs": [],
      "name": "randomResult",
      "outputs": [
        {
          "internalType": "uint256",
          "name": "",
          "type": "uint256"
        }
      ],
      "stateMutability": "view",
      "type": "function"
    },
    {
      "inputs": [
        {
          "internalType": "uint256",
          "name": "requestId",
          "type": "uint256"
        },
        {
          "internalType": "uint256[]",
          "name": "randomWords",
          "type": "uint256[]"
        }
      ],
      "name": "rawFulfillRandomWords",
      "outputs": [],
      "stateMutability": "nonpayable",
      "type": "function"
    },
    {
      "inputs": [],
      "name": "requestConfirmations",
      "outputs": [
        {
          "internalType": "uint16",
          "name": "",
          "type": "uint16"
        }
      ],
      "stateMutability": "view",
      "type": "function"
    },
    {
      "inputs": [],
      "name": "requestRandomWords",
      "outputs": [],
      "stateMutability": "nonpayable",
      "type": "function"
    },
    {
      "inputs": [],
      "name": "s_requestId",
      "outputs": [
        {
          "internalType": "uint256",
          "name": "",
          "type": "uint256"
        }
      ],
      "stateMutability": "view",
      "type": "function"
    },
    {
      "inputs": [
        {
          "internalType": "address",
          "name": "_coordinator",
          "type": "address"
        }
      ],
      "name": "setCoordinator",
      "outputs": [],
      "stateMutability": "nonpayable",
      "type": "function"
    },
    {
      "inputs": [
        {
          "internalType": "address",
          "name": "_lottery",
          "type": "address"
        }
      ],
      "name": "setDegisLottery",
      "outputs": [],
      "stateMutability": "nonpayable",
      "type": "function"
    },
    {
      "inputs": [
        {
          "internalType": "bytes32",
          "name": "_keyHash",
          "type": "bytes32"
        }
      ],
      "name": "setKeyHash",
      "outputs": [],
      "stateMutability": "nonpayable",
      "type": "function"
    },
    {
      "inputs": [
        {
          "internalType": "uint16",
          "name": "_requestConfirmations",
          "type": "uint16"
        }
      ],
      "name": "setRequestConfirmations",
      "outputs": [],
      "stateMutability": "nonpayable",
      "type": "function"
    },
    {
      "inputs": [
        {
          "internalType": "uint64",
          "name": "_subscriptionId",
          "type": "uint64"
        }
      ],
      "name": "setSubscriptionId",
      "outputs": [],
      "stateMutability": "nonpayable",
      "type": "function"
    },
    {
      "inputs": [
        {
          "internalType": "uint32",
          "name": "_wordsPerTime",
          "type": "uint32"
        }
      ],
      "name": "setWordsPerTime",
      "outputs": [],
      "stateMutability": "nonpayable",
      "type": "function"
    },
    {
      "inputs": [],
      "name": "subscriptionId",
      "outputs": [
        {
          "internalType": "uint64",
          "name": "",
          "type": "uint64"
        }
      ],
      "stateMutability": "view",
      "type": "function"
    },
    {
      "inputs": [],
      "name": "wordsPerTime",
      "outputs": [
        {
          "internalType": "uint32",
          "name": "",
          "type": "uint32"
        }
      ],
      "stateMutability": "view",
      "type": "function"
    }
  ],
  "transactionHash": "0xb3741c880a1fe38adc9dfdd7d897d7ccc50c54ed54dd9074f736d7e4867790b2",
  "args": [
    "0x2eD832Ba664535e5886b75D64C46EB9a228C2610",
    "0x354d2f95da55398f44b7cff77da56283d9c6c829a4bdf1bbcaf2ad6a4d081f61",
    130
  ],
  "numDeployments": 3,
  "solcInputHash": "7de695a493300db6629df2747320689d",
  "bytecode": "0x60a0604052600280546001600160501b03191666010003000186a01790553480156200002a57600080fd5b5060405162000dd538038062000dd58339810160408190526200004d916200010b565b6001600160a01b039092166080819052600080546001939093556001600160401b03909316600160a01b026001600160e01b031990921617179055600580546001600160a01b0319163317905562000163565b60006001600160a01b0382165b92915050565b620000be81620000a0565b8114620000ca57600080fd5b50565b8051620000ad81620000b3565b80620000be565b8051620000ad81620000da565b6001600160401b038116620000be565b8051620000ad81620000ee565b600080600060608486031215620001255762000125600080fd5b6000620001338686620000cd565b93505060206200014686828701620000e1565b92505060406200015986828701620000fe565b9150509250925092565b608051610c4f62000186600039600081816102ff01526103270152610c4f6000f3fe608060405234801561001057600080fd5b50600436106101515760003560e01c80638ea98117116100cd578063e0c8628911610081578063ea7b4f7711610066578063ea7b4f77146102c5578063eed8e1ee146102d8578063ef7525b5146102e157600080fd5b8063e0c86289146102b4578063e89e106a146102bc57600080fd5b8063a2596a6a116100b2578063a2596a6a14610264578063b0fb162f1461027e578063bff9e65f146102a157600080fd5b80638ea981171461023e578063985447101461025157600080fd5b8063265f01731161012457806361728f391161010957806361728f39146102025780638824f5a71461020b5780638da5cb5b1461021e57600080fd5b8063265f0173146101d957806342619f66146101ec57600080fd5b806309c1ba2e146101565780630a009097146101875780631fe543e3146101a757806324f74697146101bc575b600080fd5b60005461017190600160a01b900467ffffffffffffffff1681565b60405161017e91906107ff565b60405180910390f35b60005461019a906001600160a01b031681565b60405161017e9190610843565b6101ba6101b5366004610979565b6102f4565b005b6002546101cc9063ffffffff1681565b60405161017e91906109dd565b6101ba6101e73660046109ff565b610391565b6101f560035481565b60405161017e9190610a26565b6101f560015481565b6101ba610219366004610a49565b6103ff565b600554610231906001600160a01b031681565b60405161017e9190610a73565b6101ba61024c3660046109ff565b610462565b6101ba61025f366004610a81565b6104d0565b6002546101cc906601000000000000900463ffffffff1681565b60025461029490640100000000900461ffff1681565b60405161017e9190610aac565b600754610231906001600160a01b031681565b6101ba610514565b6101f560045481565b6101ba6102d3366004610ad5565b610657565b6101f560065481565b6101ba6102ef366004610b0d565b6106d8565b336001600160a01b037f0000000000000000000000000000000000000000000000000000000000000000161461038357337f00000000000000000000000000000000000000000000000000000000000000006040517f1cf993f400000000000000000000000000000000000000000000000000000000815260040161037a929190610b2e565b60405180910390fd5b61038d8282610743565b5050565b6005546001600160a01b03163314806103b457506007546001600160a01b031633145b6103d05760405162461bcd60e51b815260040161037a90610b50565b6007805473ffffffffffffffffffffffffffffffffffffffff19166001600160a01b0392909216919091179055565b6005546001600160a01b031633148061042257506007546001600160a01b031633145b61043e5760405162461bcd60e51b815260040161037a90610b50565b6002805461ffff9092166401000000000265ffff0000000019909216919091179055565b6005546001600160a01b031633148061048557506007546001600160a01b031633145b6104a15760405162461bcd60e51b815260040161037a90610b50565b6000805473ffffffffffffffffffffffffffffffffffffffff19166001600160a01b0392909216919091179055565b6005546001600160a01b03163314806104f357506007546001600160a01b031633145b61050f5760405162461bcd60e51b815260040161037a90610b50565b600155565b6005546001600160a01b031633148061053757506007546001600160a01b031633145b6105535760405162461bcd60e51b815260040161037a90610b50565b6000546001546002546040517f5d3b1d300000000000000000000000000000000000000000000000000000000081526001600160a01b03841693635d3b1d30936105d7939092600160a01b90920467ffffffffffffffff1691640100000000820461ffff169163ffffffff8082169266010000000000009092041690600401610b8b565b6020604051808303816000875af11580156105f6573d6000803e3d6000fd5b505050506040513d601f19601f8201168201806040525081019061061a9190610be2565b60048190556040517f266c84dd4be4409a1875fe8504433bb6b885408c1f5b34e8ecae604804927ba49161064d91610a26565b60405180910390a1565b6005546001600160a01b031633148061067a57506007546001600160a01b031633145b6106965760405162461bcd60e51b815260040161037a90610b50565b6000805467ffffffffffffffff909216600160a01b027fffffffff0000000000000000ffffffffffffffffffffffffffffffffffffffff909216919091179055565b6005546001600160a01b03163314806106fb57506007546001600160a01b031633145b6107175760405162461bcd60e51b815260040161037a90610b50565b6002805463ffffffff90921666010000000000000269ffffffff00000000000019909216919091179055565b8060008151811061075657610756610c03565b602090810291909101810151600355600754604080517f6be4097c00000000000000000000000000000000000000000000000000000000815290516001600160a01b0390921692636be4097c926004808401938290030181865afa1580156107c2573d6000803e3d6000fd5b505050506040513d601f19601f820116820180604052508101906107e69190610be2565b6006555050565b67ffffffffffffffff81165b82525050565b6020810161080d82846107ed565b92915050565b60006001600160a01b03821661080d565b600061080d82610813565b600061080d82610824565b6107f98161082f565b6020810161080d828461083a565b805b811461085e57600080fd5b50565b803561080d81610851565b634e487b7160e01b600052604160045260246000fd5b601f19601f830116810181811067ffffffffffffffff821117156108a8576108a861086c565b6040525050565b60006108ba60405190565b90506108c68282610882565b919050565b600067ffffffffffffffff8211156108e5576108e561086c565b5060209081020190565b60006109026108fd846108cb565b6108af565b8381529050602080820190840283018581111561092157610921600080fd5b835b81811015610943576109358782610861565b835260209283019201610923565b5050509392505050565b600082601f83011261096157610961600080fd5b81356109718482602086016108ef565b949350505050565b6000806040838503121561098f5761098f600080fd5b600061099b8585610861565b925050602083013567ffffffffffffffff8111156109bb576109bb600080fd5b6109c78582860161094d565b9150509250929050565b63ffffffff81166107f9565b6020810161080d82846109d1565b61085381610813565b803561080d816109eb565b600060208284031215610a1457610a14600080fd5b600061097184846109f4565b806107f9565b6020810161080d8284610a20565b61ffff8116610853565b803561080d81610a34565b600060208284031215610a5e57610a5e600080fd5b60006109718484610a3e565b6107f981610813565b6020810161080d8284610a6a565b600060208284031215610a9657610a96600080fd5b60006109718484610861565b61ffff81166107f9565b6020810161080d8284610aa2565b67ffffffffffffffff8116610853565b803561080d81610aba565b600060208284031215610aea57610aea600080fd5b60006109718484610aca565b63ffffffff8116610853565b803561080d81610af6565b600060208284031215610b2257610b22600080fd5b60006109718484610b02565b60408101610b3c8285610a6a565b610b496020830184610a6a565b9392505050565b6020808252810161080d81601581527f4f6e6c79206f776e6572206f72206c6f74746572790000000000000000000000602082015260400190565b60a08101610b998288610a20565b610ba660208301876107ed565b610bb36040830186610aa2565b610bc060608301856109d1565b610bcd60808301846109d1565b9695505050505050565b805161080d81610851565b600060208284031215610bf757610bf7600080fd5b60006109718484610bd7565b634e487b7160e01b600052603260045260246000fdfea2646970667358221220c69beff4cd68821410891fc38be033d02a76df82e793580991e5cfe3bb05864d64736f6c634300080d0033",
  "devdoc": {
    "kind": "dev",
    "methods": {},
    "version": 1
  },
  "userdoc": {
    "kind": "user",
    "methods": {},
    "version": 1
  },
  "storageLayout": {
    "storage": [
      {
        "astId": 24831,
        "contract": "contracts/lucky-box/RandomNumberGeneratorV2.sol:RandomNumberGeneratorV2",
        "label": "coordinator",
        "offset": 0,
        "slot": "0",
        "type": "t_contract(VRFCoordinatorV2Interface)1560"
      },
      {
        "astId": 24833,
        "contract": "contracts/lucky-box/RandomNumberGeneratorV2.sol:RandomNumberGeneratorV2",
        "label": "subscriptionId",
        "offset": 20,
        "slot": "0",
        "type": "t_uint64"
      },
      {
        "astId": 24835,
        "contract": "contracts/lucky-box/RandomNumberGeneratorV2.sol:RandomNumberGeneratorV2",
        "label": "keyHash",
        "offset": 0,
        "slot": "1",
        "type": "t_bytes32"
      },
      {
        "astId": 24838,
        "contract": "contracts/lucky-box/RandomNumberGeneratorV2.sol:RandomNumberGeneratorV2",
        "label": "callbackGasLimit",
        "offset": 0,
        "slot": "2",
        "type": "t_uint32"
      },
      {
        "astId": 24841,
        "contract": "contracts/lucky-box/RandomNumberGeneratorV2.sol:RandomNumberGeneratorV2",
        "label": "requestConfirmations",
        "offset": 4,
        "slot": "2",
        "type": "t_uint16"
      },
      {
        "astId": 24844,
        "contract": "contracts/lucky-box/RandomNumberGeneratorV2.sol:RandomNumberGeneratorV2",
        "label": "wordsPerTime",
        "offset": 6,
        "slot": "2",
        "type": "t_uint32"
      },
      {
        "astId": 24846,
        "contract": "contracts/lucky-box/RandomNumberGeneratorV2.sol:RandomNumberGeneratorV2",
        "label": "randomResult",
        "offset": 0,
        "slot": "3",
        "type": "t_uint256"
      },
      {
        "astId": 24848,
        "contract": "contracts/lucky-box/RandomNumberGeneratorV2.sol:RandomNumberGeneratorV2",
        "label": "s_requestId",
        "offset": 0,
        "slot": "4",
        "type": "t_uint256"
      },
      {
        "astId": 24850,
        "contract": "contracts/lucky-box/RandomNumberGeneratorV2.sol:RandomNumberGeneratorV2",
        "label": "owner",
        "offset": 0,
        "slot": "5",
        "type": "t_address"
      },
      {
        "astId": 24852,
        "contract": "contracts/lucky-box/RandomNumberGeneratorV2.sol:RandomNumberGeneratorV2",
        "label": "latestLotteryId",
        "offset": 0,
        "slot": "6",
        "type": "t_uint256"
      },
      {
        "astId": 24854,
        "contract": "contracts/lucky-box/RandomNumberGeneratorV2.sol:RandomNumberGeneratorV2",
        "label": "degisLottery",
        "offset": 0,
        "slot": "7",
        "type": "t_address"
      }
    ],
    "types": {
      "t_address": {
        "encoding": "inplace",
        "label": "address",
        "numberOfBytes": "20"
      },
      "t_bytes32": {
        "encoding": "inplace",
        "label": "bytes32",
        "numberOfBytes": "32"
      },
      "t_contract(VRFCoordinatorV2Interface)1560": {
        "encoding": "inplace",
        "label": "contract VRFCoordinatorV2Interface",
        "numberOfBytes": "20"
      },
      "t_uint16": {
        "encoding": "inplace",
        "label": "uint16",
        "numberOfBytes": "2"
      },
      "t_uint256": {
        "encoding": "inplace",
        "label": "uint256",
        "numberOfBytes": "32"
      },
      "t_uint32": {
        "encoding": "inplace",
        "label": "uint32",
        "numberOfBytes": "4"
      },
      "t_uint64": {
        "encoding": "inplace",
        "label": "uint64",
        "numberOfBytes": "8"
      }
    }
  }
}