{
  "address": "0xBd08718c2f41a78Aac181617f37B6bcD8905493c",
  "abi": [
    {
      "inputs": [
        {
          "internalType": "address",
          "name": "_degisToken",
          "type": "address"
        }
      ],
      "stateMutability": "nonpayable",
      "type": "constructor"
    },
    {
      "anonymous": false,
      "inputs": [
        {
          "indexed": false,
          "internalType": "address",
          "name": "pool",
          "type": "address"
        },
        {
          "indexed": false,
          "internalType": "uint256",
          "name": "degisPerSecond",
          "type": "uint256"
        }
      ],
      "name": "DegisPerSecondChanged",
      "type": "event"
    },
    {
      "anonymous": false,
      "inputs": [
        {
          "indexed": true,
          "internalType": "address",
          "name": "previousOwner",
          "type": "address"
        },
        {
          "indexed": true,
          "internalType": "address",
          "name": "newOwner",
          "type": "address"
        }
      ],
      "name": "OwnershipTransferred",
      "type": "event"
    },
    {
      "anonymous": false,
      "inputs": [
        {
          "indexed": true,
          "internalType": "address",
          "name": "by",
          "type": "address"
        },
        {
          "indexed": true,
          "internalType": "address",
          "name": "poolToken",
          "type": "address"
        },
        {
          "indexed": true,
          "internalType": "address",
          "name": "poolAddress",
          "type": "address"
        },
        {
          "indexed": false,
          "internalType": "uint256",
          "name": "degisPerSecond",
          "type": "uint256"
        }
      ],
      "name": "PoolRegistered",
      "type": "event"
    },
    {
      "inputs": [
        {
          "internalType": "address",
          "name": "_poolToken",
          "type": "address"
        },
        {
          "internalType": "uint256",
          "name": "_startTimestamp",
          "type": "uint256"
        },
        {
          "internalType": "uint256",
          "name": "_degisPerSecond",
          "type": "uint256"
        }
      ],
      "name": "createPool",
      "outputs": [],
      "stateMutability": "nonpayable",
      "type": "function"
    },
    {
      "inputs": [],
      "name": "degisToken",
      "outputs": [
        {
          "internalType": "address",
          "name": "",
          "type": "address"
        }
      ],
      "stateMutability": "view",
      "type": "function"
    },
    {
      "inputs": [
        {
          "internalType": "address",
          "name": "_poolToken",
          "type": "address"
        }
      ],
      "name": "getPoolAddress",
      "outputs": [
        {
          "internalType": "address",
          "name": "",
          "type": "address"
        }
      ],
      "stateMutability": "view",
      "type": "function"
    },
    {
      "inputs": [
        {
          "internalType": "address",
          "name": "_poolToken",
          "type": "address"
        }
      ],
      "name": "getPoolData",
      "outputs": [
        {
          "components": [
            {
              "internalType": "address",
              "name": "poolToken",
              "type": "address"
            },
            {
              "internalType": "address",
              "name": "poolAddress",
              "type": "address"
            },
            {
              "internalType": "uint256",
              "name": "startTimestamp",
              "type": "uint256"
            },
            {
              "internalType": "uint256",
              "name": "degisPerSecond",
              "type": "uint256"
            }
          ],
          "internalType": "struct StakingPoolFactory.PoolData",
          "name": "",
          "type": "tuple"
        }
      ],
      "stateMutability": "view",
      "type": "function"
    },
    {
      "inputs": [
        {
          "internalType": "address",
          "name": "_to",
          "type": "address"
        },
        {
          "internalType": "uint256",
          "name": "_amount",
          "type": "uint256"
        }
      ],
      "name": "mintReward",
      "outputs": [],
      "stateMutability": "nonpayable",
      "type": "function"
    },
    {
      "inputs": [],
      "name": "owner",
      "outputs": [
        {
          "internalType": "address",
          "name": "",
          "type": "address"
        }
      ],
      "stateMutability": "view",
      "type": "function"
    },
    {
      "inputs": [
        {
          "internalType": "address",
          "name": "",
          "type": "address"
        }
      ],
      "name": "poolExists",
      "outputs": [
        {
          "internalType": "bool",
          "name": "",
          "type": "bool"
        }
      ],
      "stateMutability": "view",
      "type": "function"
    },
    {
      "inputs": [
        {
          "internalType": "address",
          "name": "",
          "type": "address"
        }
      ],
      "name": "pools",
      "outputs": [
        {
          "internalType": "address",
          "name": "",
          "type": "address"
        }
      ],
      "stateMutability": "view",
      "type": "function"
    },
    {
      "inputs": [],
      "name": "renounceOwnership",
      "outputs": [],
      "stateMutability": "nonpayable",
      "type": "function"
    },
    {
      "inputs": [
        {
          "internalType": "address",
          "name": "_pool",
          "type": "address"
        },
        {
          "internalType": "uint256",
          "name": "_degisPerSecond",
          "type": "uint256"
        }
      ],
      "name": "setDegisPerSecond",
      "outputs": [],
      "stateMutability": "nonpayable",
      "type": "function"
    },
    {
      "inputs": [
        {
          "internalType": "address",
          "name": "newOwner",
          "type": "address"
        }
      ],
      "name": "transferOwnership",
      "outputs": [],
      "stateMutability": "nonpayable",
      "type": "function"
    }
  ],
  "transactionHash": "0x0d0f1fd61333acebf40422c2ac338c18e57a2818ccfd3543113561cb733b621e",
  "args": [
    "0xa997712b4bF51773bDEaac4242938Da4E09e5a89"
  ],
  "numDeployments": 1,
  "solcInputHash": "7241f57c8af07b7de93cb03dfb6cdb2c",
  "bytecode": "0x608060405234801561001057600080fd5b5060405162002e3b38038062002e3b833981016040819052610031916100e6565b3361003b81610061565b50600180546001600160a01b0319166001600160a01b039290921691909117905561010f565b600080546001600160a01b038381166001600160a01b0319831681178455604051919092169283917f8be0079c531659141344cd1fd0a4f28419497f9722a3daafe3b4186f6b6457e09190a35050565b60006001600160a01b0382165b92915050565b6100cd816100b1565b81146100d857600080fd5b50565b80516100be816100c4565b6000602082840312156100fb576100fb600080fd5b600061010784846100db565b949350505050565b612d1c806200011f6000396000f3fe60806040523480156200001157600080fd5b5060043610620000d95760003560e01c8063715018a6116200008b578063a4063dbc1162000062578063a4063dbc14620001e0578063b039ddf6146200020c578063f2fde38b146200022357600080fd5b8063715018a614620001ad5780638da5cb5b14620001b75780639a49090e14620001c957600080fd5b80631e1c6a0711620000c05780631e1c6a07146200014b5780634ec5a65c14620001805780635a1c7e79146200019957600080fd5b80631228cbee14620000de57806313d21cdf1462000125575b600080fd5b6200010d620000ef36600462000962565b6001600160a01b039081166000908152600260205260409020541690565b6040516200011c9190620009a0565b60405180910390f35b6200013c6200013636600462000962565b6200023a565b6040516200011c919062000a09565b620001716200015c36600462000962565b60036020526000908152604090205460ff1681565b6040516200011c919062000a22565b620001976200019136600462000a46565b6200040e565b005b6001546200010d906001600160a01b031681565b6200019762000505565b6000546001600160a01b03166200010d565b62000197620001da36600462000a46565b62000550565b6200010d620001f136600462000962565b6002602052600090815260409020546001600160a01b031681565b620001976200021d36600462000a89565b62000607565b620001976200023436600462000962565b620006ab565b6040805160808101825260008082526020820181905291810182905260608101919091526001600160a01b038083166000908152600260205260409020541680620002a25760405162461bcd60e51b8152600401620002999062000b15565b60405180910390fd5b6000816001600160a01b031663cbdf382c6040518163ffffffff1660e01b8152600401602060405180830381865afa158015620002e3573d6000803e3d6000fd5b505050506040513d601f19601f8201168201806040525081019062000309919062000b34565b90506000826001600160a01b031663e6fd48bc6040518163ffffffff1660e01b8152600401602060405180830381865afa1580156200034c573d6000803e3d6000fd5b505050506040513d601f19601f8201168201806040525081019062000372919062000b66565b90506000836001600160a01b0316637e4d9f546040518163ffffffff1660e01b8152600401602060405180830381865afa158015620003b5573d6000803e3d6000fd5b505050506040513d601f19601f82011682018060405250810190620003db919062000b66565b604080516080810182526001600160a01b0395861681529590941660208601529284019190915250606082015292915050565b33620004226000546001600160a01b031690565b6001600160a01b0316146200044b5760405162461bcd60e51b8152600401620002999062000bbc565b6040517fb7ea2cf40000000000000000000000000000000000000000000000000000000081526001600160a01b0383169063b7ea2cf4906200049290849060040162000bce565b600060405180830381600087803b158015620004ad57600080fd5b505af1158015620004c2573d6000803e3d6000fd5b505050507f1c81daae1e3d76078763307fe3d7098b949bfc1ded1764f75980dfcb825856638282604051620004f992919062000bde565b60405180910390a15050565b33620005196000546001600160a01b031690565b6001600160a01b031614620005425760405162461bcd60e51b8152600401620002999062000bbc565b6200054e60006200071f565b565b3360009081526003602052604090205460ff16620005825760405162461bcd60e51b8152600401620002999062000c37565b6001546040517fb47673980000000000000000000000000000000000000000000000000000000081526001600160a01b039091169063b476739890620005cf908590859060040162000bde565b600060405180830381600087803b158015620005ea57600080fd5b505af1158015620005ff573d6000803e3d6000fd5b505050505050565b336200061b6000546001600160a01b031690565b6001600160a01b031614620006445760405162461bcd60e51b8152600401620002999062000bbc565b6001546040516000916001600160a01b03169085903090869086906200066a906200091d565b6200067a95949392919062000c49565b604051809103906000f08015801562000697573d6000803e3d6000fd5b509050620006a5816200077c565b50505050565b33620006bf6000546001600160a01b031690565b6001600160a01b031614620006e85760405162461bcd60e51b8152600401620002999062000bbc565b6001600160a01b038116620007115760405162461bcd60e51b8152600401620002999062000c9f565b6200071c816200071f565b50565b600080546001600160a01b0383811673ffffffffffffffffffffffffffffffffffffffff19831681178455604051919092169283917f8be0079c531659141344cd1fd0a4f28419497f9722a3daafe3b4186f6b6457e09190a35050565b6000816001600160a01b031663cbdf382c6040518163ffffffff1660e01b8152600401602060405180830381865afa158015620007bd573d6000803e3d6000fd5b505050506040513d601f19601f82011682018060405250810190620007e3919062000b34565b90506000826001600160a01b0316637e4d9f546040518163ffffffff1660e01b8152600401602060405180830381865afa15801562000826573d6000803e3d6000fd5b505050506040513d601f19601f820116820180604052508101906200084c919062000b66565b6001600160a01b0383811660009081526002602052604090205491925016156200088a5760405162461bcd60e51b8152600401620002999062000d34565b6001600160a01b038281166000818152600260209081526040808320805473ffffffffffffffffffffffffffffffffffffffff19169589169586179055848352600390915290819020805460ff191660011790555133907fdf17567f8d46a5b1eceefa38cd3b367da19add72f89e637b0dcf753235d42be1906200091090869062000bce565b60405180910390a4505050565b611fa08062000d4783390190565b60006001600160a01b0382165b92915050565b62000949816200092b565b81146200071c57600080fd5b803562000938816200093e565b600060208284031215620009795762000979600080fd5b600062000987848462000955565b949350505050565b6200099a816200092b565b82525050565b602081016200093882846200098f565b806200099a565b8051620009c583826200098f565b506020810151620009da60208401826200098f565b506040810151620009ef6040840182620009b0565b50606081015162000a046060840182620009b0565b505050565b60808101620009388284620009b7565b8015156200099a565b6020810162000938828462000a19565b8062000949565b8035620009388162000a32565b6000806040838503121562000a5e5762000a5e600080fd5b600062000a6c858562000955565b925050602062000a7f8582860162000a39565b9150509250929050565b60008060006060848603121562000aa35762000aa3600080fd5b600062000ab1868662000955565b935050602062000ac48682870162000a39565b925050604062000ad78682870162000a39565b9150509250925092565b600e8152602081017f706f6f6c206e6f7420666f756e64000000000000000000000000000000000000815290505b60200190565b60208082528101620009388162000ae1565b805162000938816200093e565b60006020828403121562000b4b5762000b4b600080fd5b600062000987848462000b27565b8051620009388162000a32565b60006020828403121562000b7d5762000b7d600080fd5b600062000987848462000b59565b60208082527f4f776e61626c653a2063616c6c6572206973206e6f7420746865206f776e6572910190815262000b0f565b60208082528101620009388162000b8b565b60208101620009388284620009b0565b6040810162000bee82856200098f565b62000bfd6020830184620009b0565b9392505050565b60158152602081017f4f6e6c792063616c6c65642066726f6d20706f6f6c00000000000000000000008152905062000b0f565b60208082528101620009388162000c04565b60a0810162000c5982886200098f565b62000c6860208301876200098f565b62000c7760408301866200098f565b62000c866060830185620009b0565b62000c956080830184620009b0565b9695505050505050565b602080825281016200093881602681527f4f776e61626c653a206e6577206f776e657220697320746865207a65726f206160208201527f6464726573730000000000000000000000000000000000000000000000000000604082015260600190565b601f8152602081017f5468697320706f6f6c20697320616c72656164792072656769737465726564008152905062000b0f565b60208082528101620009388162000d0156fe60806040523480156200001157600080fd5b5060405162001fa038038062001fa0833981016040819052620000349162000154565b8484848484336200004581620000b6565b5060018055600480546001600160a01b038088166001600160a01b03199283161790925560038054878416908316179055600a80549286169290911691909117905560068190556005829055428210620000a05781620000a2565b425b60075550620001d898505050505050505050565b600080546001600160a01b038381166001600160a01b0319831681178455604051919092169283917f8be0079c531659141344cd1fd0a4f28419497f9722a3daafe3b4186f6b6457e09190a35050565b60006001600160a01b0382165b92915050565b620001248162000106565b81146200013057600080fd5b50565b8051620001138162000119565b8062000124565b8051620001138162000140565b600080600080600060a08688031215620001715762000171600080fd5b60006200017f888862000133565b9550506020620001928882890162000133565b9450506040620001a58882890162000133565b9350506060620001b88882890162000147565b9250506080620001cb8882890162000147565b9150509295509295909350565b611db880620001e86000396000f3fe608060405234801561001057600080fd5b506004361061018d5760003560e01c8063a156dc28116100e3578063e3161ddd1161008c578063f2fde38b11610066578063f2fde38b14610314578063f40f0f5214610327578063f8077fae1461033a57600080fd5b8063e3161ddd146102fa578063e6fd48bc14610302578063eb42aa401461030b57600080fd5b8063c45a0155116100bd578063c45a0155146102cc578063cbdf382c146102df578063ddca3f43146102f257600080fd5b8063a156dc2814610269578063a87430ba1461027c578063b7ea2cf4146102b957600080fd5b80637e4d9f5411610145578063906ce8a91161011f578063906ce8a91461023a57806396c82e571461024d5780639e2c8a5b1461025657600080fd5b80637e4d9f54146102005780638da5cb5b146102165780638e169d471461022757600080fd5b80635a1c7e79116101765780635a1c7e79146101c5578063715018a6146101e55780637b0472f0146101ed57600080fd5b80632a5bf6d2146101925780634641257d146101bb575b600080fd5b6101a56101a0366004611624565b610343565b6040516101b291906116f0565b60405180910390f35b6101c36103e3565b005b6004546101d8906001600160a01b031681565b6040516101b2919061170a565b6101c36104b3565b6101c36101fb366004611729565b610501565b61020960065481565b6040516101b29190611766565b6000546001600160a01b03166101d8565b610209610235366004611729565b610510565b610209610248366004611774565b610535565b61020960095481565b6101c3610264366004611729565b61055e565b610209610277366004611729565b610569565b6102aa61028a366004611624565b600260208190526000918252604090912080546001820154919092015483565b6040516101b293929190611795565b6101c36102c7366004611774565b61057b565b600a546101d8906001600160a01b031681565b6003546101d8906001600160a01b031681565b610209600281565b6101c36105aa565b61020960055481565b61020960085481565b6101c3610322366004611624565b6105b4565b610209610335366004611624565b61061f565b61020960075481565b6001600160a01b0381166000908152600260209081526040808320600301805482518185028101850190935280835260609492939192909184015b828210156103d857838290600052602060002090600402016040518060800160405290816000820154815260200160018201548152602001600282015481526020016003820154815250508152602001906001019061037e565b505050509050919050565b6103eb6105aa565b336000818152600260205260408120916104049061076c565b90506104446040518060400160405280600781526020017f50656e64696e67000000000000000000000000000000000000000000000000008152506108b9565b61044d81610915565b80610456575050565b6104603382610971565b6104708260010154600854610510565b60028301556040517fc9695243a805adb74c91f28311176c65b417e842d5699893cef56d18bfa48cba906104a790339084906117bd565b60405180910390a15050565b336104c66000546001600160a01b031690565b6001600160a01b0316146104f55760405162461bcd60e51b81526004016104ec90611808565b60405180910390fd5b6104ff6000610a21565b565b61050c338383610a89565b5050565b600064e8d4a51000610522838561182e565b61052c9190611863565b90505b92915050565b6000620f42406301e1338061054a828561182e565b6105549190611863565b61052f9190611877565b61050c338383610a94565b60008161052264e8d4a510008561182e565b600a546001600160a01b031633146105a55760405162461bcd60e51b81526004016104ec906118c1565b600655565b6104ff6000610b44565b336105c76000546001600160a01b031690565b6001600160a01b0316146105ed5760405162461bcd60e51b81526004016104ec90611808565b6001600160a01b0381166106135760405162461bcd60e51b81526004016104ec9061192b565b61061c81610a21565b50565b6000600754421080610632575060055442105b1561063f57506000919050565b60006007544261064f919061193b565b9050600060065482610661919061182e565b9050600060085461067483600954610569565b61067e9190611877565b6001600160a01b038616600090815260026020818152604080842081516080810183528154815260018201548185015293810154848301526003810180548351818602810186019094528084529697509495939490936060860193879084015b828210156107385783829060005260206000209060040201604051806080016040529081600082015481526020016001820154815260200160028201548152602001600382015481525050815260200190600101906106de565b5050505081525050905060008160400151610757836020015185610510565b610761919061193b565b979650505050505050565b6001600160a01b038116600090815260026020818152604080842081516080810183528154815260018201548185015293810154848301526003810180548351818602810186019094528084528695949293606086019390929190879084015b828210156108265783829060005260206000209060040201604051806080016040529081600082015481526020016001820154815260200160028201548152602001600382015481525050815260200190600101906107cc565b5050505081525050905061086e6040518060400160405280600a81526020017f496e2070656e64696e67000000000000000000000000000000000000000000008152506108b9565b61087b8160200151610915565b6108888160400151610915565b610893600854610915565b80604001516108a88260200151600854610510565b6108b2919061193b565b9392505050565b61061c816040516024016108cd91906119b0565b60408051601f198184030181529190526020810180516001600160e01b03167f41304fac00000000000000000000000000000000000000000000000000000000179052610d0d565b61061c816040516024016109299190611766565b60408051601f198184030181529190526020810180516001600160e01b03167ff5b1bba900000000000000000000000000000000000000000000000000000000179052610d0d565b600480546040516370a0823160e01b81526000926001600160a01b03909216916370a08231916109a39130910161170a565b602060405180830381865afa1580156109c0573d6000803e3d6000fd5b505050506040513d601f19601f820116820180604052508101906109e491906119cc565b905080821115610a0a57600454610a05906001600160a01b03168483610d2e565b505050565b600454610a05906001600160a01b03168484610d2e565b600080546001600160a01b038381167fffffffffffffffffffffffff0000000000000000000000000000000000000000831681178455604051919092169283917f8be0079c531659141344cd1fd0a4f28419497f9722a3daafe3b4186f6b6457e09190a35050565b610a05838383610d9c565b33600090815260026020526040812060038101805491929185908110610abc57610abc6119ed565b90600052602060002090600402016040518060800160405290816000820154815260200160018201548152602001600282015481526020016003820154815250509050806040015160001480610b16575080606001514210155b610b325760405162461bcd60e51b81526004016104ec90611a35565b610b3d8585856111d3565b5050505050565b6007544211610b505750565b6003546040516370a0823160e01b81526000916001600160a01b0316906370a0823190610b8190309060040161170a565b602060405180830381865afa158015610b9e573d6000803e3d6000fd5b505050506040513d601f19601f82011682018060405250810190610bc291906119cc565b905080610bd157505042600755565b600060075442610be1919061193b565b905060008360065483610bf4919061182e565b610bfe9190611877565b9050610c3e6040518060400160405280600c81526020017f44656769732052657761726400000000000000000000000000000000000000008152506108b9565b610c4784610915565b610c5042610915565b610c5b600754610915565b610c6481610915565b600a546040517f9a49090e0000000000000000000000000000000000000000000000000000000081526001600160a01b0390911690639a49090e90610caf90309085906004016117bd565b600060405180830381600087803b158015610cc957600080fd5b505af1158015610cdd573d6000803e3d6000fd5b50505050610ced81600954610569565b60086000828254610cfe9190611877565b90915550504260075550505050565b80516a636f6e736f6c652e6c6f67602083016000808483855afa5050505050565b610a058363a9059cbb60e01b8484604051602401610d4d9291906117bd565b60408051601f198184030181529190526020810180516001600160e01b03167fffffffff00000000000000000000000000000000000000000000000000000000909316929092179091526113f6565b60026001541415610dbf5760405162461bcd60e51b81526004016104ec90611a77565b60026001556005544211610de55760405162461bcd60e51b81526004016104ec90611ab9565b60008211610e055760405162461bcd60e51b81526004016104ec90611afb565b801580610e1157504281115b610e2d5760405162461bcd60e51b81526004016104ec90611b3d565b610e3b426301e13380611877565b8110610e5257610e4f426301e13380611877565b90505b6003546040516370a0823160e01b815260009182916001600160a01b03909116906370a0823190610e8790309060040161170a565b602060405180830381865afa158015610ea4573d6000803e3d6000fd5b505050506040513d601f19601f82011682018060405250810190610ec891906119cc565b1115610ef5576064610edb60028561182e565b610ee59190611863565b9050610ef081610b44565b610efd565b610efd6105aa565b6001600160a01b0384166000908152600260205260409020805415610f2557610f2585611485565b6003546040516370a0823160e01b81526000916001600160a01b0316906370a0823190610f5690309060040161170a565b602060405180830381865afa158015610f73573d6000803e3d6000fd5b505050506040513d601f19601f82011682018060405250810190610f9791906119cc565b9050610fa43330876114a5565b6003546040516370a0823160e01b81526000916001600160a01b0316906370a0823190610fd590309060040161170a565b602060405180830381865afa158015610ff2573d6000803e3d6000fd5b505050506040513d601f19601f8201168201806040525081019061101691906119cc565b9050600084611025848461193b565b61102f919061193b565b90506000808711611041576000611043565b425b905060008790506110886040518060400160405280600a81526020017f6c6f636b20756e74696c000000000000000000000000000000000000000000008152506108b9565b61109181610915565b61109a82610915565b6000836110aa610248858561193b565b6110b4919061182e565b9050600081116110c6576110c6611b4d565b604080516080810182528581526020808201848152928201868152606083018681526003808d018054600181810183556000928352958220875160049092020190815596519487019490945591516002860155519301929092558854909186918a9190611134908490611877565b925050819055508188600101600082825461114f9190611877565b925050819055506111668860010154600854610510565b886002018190555081600960008282546111809190611877565b90915550506040517f5af417134f72a9d41143ace85b0a26dce6f550f894f2cbc1eeee8810603d91b6906111b99033908e908e90611b63565b60405180910390a150506001805550505050505050505050565b600260015414156111f65760405162461bcd60e51b81526004016104ec90611a77565b6002600155806112185760405162461bcd60e51b81526004016104ec90611ba3565b6001600160a01b038316600090815260026020526040812060038101805491929185908110611249576112496119ed565b90600052602060002090600402019050828160000154101561127d5760405162461bcd60e51b81526004016104ec90611be5565b6112856105aa565b61128e85611485565b600181015481546000906112a390869061193b565b6112ba84600201548560030154610248919061193b565b6112c4919061182e565b83549091506112d490869061193b565b611316578360030186815481106112ed576112ed6119ed565b600091825260208220600490910201818155600181018290556002810182905560030155611337565b8483600001600082825461132a919061193b565b9091555050600183018190555b8484600001600082825461134b919061193b565b90915550506001840154819061136290849061193b565b61136c9190611877565b600185018190556008546113809190610510565b600285015561138f818361193b565b600960008282546113a0919061193b565b909155506113b0905033866114bd565b7f85082129d87b2fe11527cb1b3b7a520aeb5aa6913f88a3d8757fe40d1db02fdd33866040516113e19291906117bd565b60405180910390a15050600180555050505050565b600061144b826040518060400160405280602081526020017f5361666545524332303a206c6f772d6c6576656c2063616c6c206661696c6564815250856001600160a01b03166114d49092919063ffffffff16565b805190915015610a0557808060200190518101906114699190611c08565b610a055760405162461bcd60e51b81526004016104ec90611c81565b60006114908261076c565b90508061149b575050565b61050c8282610971565b600354610a05906001600160a01b03168484846114eb565b60035461050c906001600160a01b03168383610d2e565b60606114e38484600085611512565b949350505050565b61150c846323b872dd60e01b858585604051602401610d4d93929190611c91565b50505050565b6060824710156115345760405162461bcd60e51b81526004016104ec90611d04565b843b6115525760405162461bcd60e51b81526004016104ec90611d46565b600080866001600160a01b0316858760405161156e9190611d78565b60006040518083038185875af1925050503d80600081146115ab576040519150601f19603f3d011682016040523d82523d6000602084013e6115b0565b606091505b5091509150610761828286606083156115ca5750816108b2565b8251156115da5782518084602001fd5b8160405162461bcd60e51b81526004016104ec91906119b0565b60006001600160a01b03821661052f565b61160e816115f4565b811461061c57600080fd5b803561052f81611605565b60006020828403121561163957611639600080fd5b60006114e38484611619565b805b82525050565b80516116598382611645565b50602081015161166c6020840182611645565b50604081015161167f6040840182611645565b506060810151610a056060840182611645565b61169c828261164d565b5060800190565b60200190565b60006116b3825190565b808452602093840193830160005b828110156116e65781516116d58782611692565b9650506020820191506001016116c1565b5093949350505050565b6020808252810161052c81846116a9565b611647816115f4565b6020810161052f8284611701565b8061160e565b803561052f81611718565b6000806040838503121561173f5761173f600080fd5b600061174b858561171e565b925050602061175c8582860161171e565b9150509250929050565b6020810161052f8284611645565b60006020828403121561178957611789600080fd5b60006114e3848461171e565b606081016117a38286611645565b6117b06020830185611645565b6114e36040830184611645565b604081016117cb8285611701565b6108b26020830184611645565b60208082527f4f776e61626c653a2063616c6c6572206973206e6f7420746865206f776e657291019081526116a3565b6020808252810161052f816117d8565b634e487b7160e01b600052601160045260246000fd5b600081600019048311821515161561184857611848611818565b500290565b634e487b7160e01b600052601260045260246000fd5b6000826118725761187261184d565b500490565b6000821982111561188a5761188a611818565b500190565b600c8152602081017f4f6e6c7920666163746f72790000000000000000000000000000000000000000815290506116a3565b6020808252810161052f8161188f565b60268152602081017f4f776e61626c653a206e6577206f776e657220697320746865207a65726f206181527f6464726573730000000000000000000000000000000000000000000000000000602082015290505b60400190565b6020808252810161052f816118d1565b60008282101561194d5761194d611818565b500390565b60005b8381101561196d578181015183820152602001611955565b8381111561150c5750506000910152565b6000611988825190565b80845260208401935061199f818560208601611952565b601f01601f19169290920192915050565b6020808252810161052c818461197e565b805161052f81611718565b6000602082840312156119e1576119e1600080fd5b60006114e384846119c1565b634e487b7160e01b600052603260045260246000fd5b60188152602081017f4465706f736974206e6f742079657420756e6c6f636b65640000000000000000815290506116a3565b6020808252810161052f81611a03565b601f8152602081017f5265656e7472616e637947756172643a207265656e7472616e742063616c6c00815290506116a3565b6020808252810161052f81611a45565b60148152602081017f506f6f6c206e6f74207374617274656420796574000000000000000000000000815290506116a3565b6020808252810161052f81611a87565b600b8152602081017f5a65726f20616d6f756e74000000000000000000000000000000000000000000815290506116a3565b6020808252810161052f81611ac9565b60158152602081017f496e76616c6964206c6f636b20696e74657276616c0000000000000000000000815290506116a3565b6020808252810161052f81611b0b565b634e487b7160e01b600052600160045260246000fd5b606081016117a38286611701565b600b8152602081017f7a65726f20616d6f756e74000000000000000000000000000000000000000000815290506116a3565b6020808252810161052f81611b71565b60148152602081017f616d6f756e742065786365656473207374616b65000000000000000000000000815290506116a3565b6020808252810161052f81611bb3565b80151561160e565b805161052f81611bf5565b600060208284031215611c1d57611c1d600080fd5b60006114e38484611bfd565b602a8152602081017f5361666545524332303a204552433230206f7065726174696f6e20646964206e81527f6f7420737563636565640000000000000000000000000000000000000000000060208201529050611925565b6020808252810161052f81611c29565b60608101611c9f8286611701565b6117b06020830185611701565b60268152602081017f416464726573733a20696e73756666696369656e742062616c616e636520666f81527f722063616c6c000000000000000000000000000000000000000000000000000060208201529050611925565b6020808252810161052f81611cac565b601d8152602081017f416464726573733a2063616c6c20746f206e6f6e2d636f6e7472616374000000815290506116a3565b6020808252810161052f81611d14565b6000611d60825190565b611d6e818560208601611952565b9290920192915050565b61052f8183611d5656fea264697066735822122040f1bfbfc0978f89253f6bd7f1994a41ec139e38df97830730a22015c87122be64736f6c634300080a0033a2646970667358221220173f67bb0a4eefd952126289e1b7ba446008876c55925d100ef1cbf4bc68456764736f6c634300080a0033",
  "devdoc": {
    "kind": "dev",
    "methods": {
      "createPool(address,uint256,uint256)": {
        "details": "Only called by the owner",
        "params": {
          "_degisPerSecond": "Reward speed",
          "_poolToken": "Pool token address",
          "_startTimestamp": "Start timestamp for reward"
        }
      },
      "getPoolAddress(address)": {
        "params": {
          "_poolToken": "Pool token address"
        }
      },
      "getPoolData(address)": {
        "params": {
          "_poolToken": "Pool token address"
        },
        "returns": {
          "_0": "poolData Pool data struct"
        }
      },
      "mintReward(address,uint256)": {
        "details": "With this function, we only need to add factory contract into minterList",
        "params": {
          "_amount": "Amount of degis tokens to mint",
          "_to": "The address to mint tokens to"
        }
      },
      "renounceOwnership()": {
        "details": "Renouncing ownership will leave the contract without an owner,         thereby removing any functionality that is only available to the owner."
      },
      "setDegisPerSecond(address,uint256)": {
        "params": {
          "_degisPerSecond": "Degis reward per second",
          "_pool": "Address of the staking pool"
        }
      },
      "transferOwnership(address)": {
        "details": "Can only be called by the current owner.",
        "params": {
          "newOwner": "Address of the new owner"
        }
      }
    },
    "version": 1
  },
  "userdoc": {
    "kind": "user",
    "methods": {
      "createPool(address,uint256,uint256)": {
        "notice": "Creates a staking pool and registers it within the factory"
      },
      "getPoolAddress(address)": {
        "notice": "Get the pool address from pool token address"
      },
      "getPoolData(address)": {
        "notice": "Get pool data from pool token address"
      },
      "mintReward(address,uint256)": {
        "notice": "Mint degis tokens as reward"
      },
      "owner()": {
        "notice": "Returns the address of the current owner."
      },
      "renounceOwnership()": {
        "notice": "Leaves the contract without owner. It will not be possible to call         `onlyOwner` functions anymore. Can only be called by the current owner."
      },
      "setDegisPerSecond(address,uint256)": {
        "notice": "Set degis per second for a pool"
      },
      "transferOwnership(address)": {
        "notice": "Transfers ownership of the contract to a new account (`newOwner`)."
      }
    },
    "version": 1
  },
  "storageLayout": {
    "storage": [
      {
        "astId": 29061,
        "contract": "contracts/staking/StakingPoolFactory.sol:StakingPoolFactory",
        "label": "_owner",
        "offset": 0,
        "slot": "0",
        "type": "t_address"
      },
      {
        "astId": 27243,
        "contract": "contracts/staking/StakingPoolFactory.sol:StakingPoolFactory",
        "label": "degisToken",
        "offset": 0,
        "slot": "1",
        "type": "t_address"
      },
      {
        "astId": 27247,
        "contract": "contracts/staking/StakingPoolFactory.sol:StakingPoolFactory",
        "label": "pools",
        "offset": 0,
        "slot": "2",
        "type": "t_mapping(t_address,t_address)"
      },
      {
        "astId": 27251,
        "contract": "contracts/staking/StakingPoolFactory.sol:StakingPoolFactory",
        "label": "poolExists",
        "offset": 0,
        "slot": "3",
        "type": "t_mapping(t_address,t_bool)"
      }
    ],
    "types": {
      "t_address": {
        "encoding": "inplace",
        "label": "address",
        "numberOfBytes": "20"
      },
      "t_bool": {
        "encoding": "inplace",
        "label": "bool",
        "numberOfBytes": "1"
      },
      "t_mapping(t_address,t_address)": {
        "encoding": "mapping",
        "key": "t_address",
        "label": "mapping(address => address)",
        "numberOfBytes": "32",
        "value": "t_address"
      },
      "t_mapping(t_address,t_bool)": {
        "encoding": "mapping",
        "key": "t_address",
        "label": "mapping(address => bool)",
        "numberOfBytes": "32",
        "value": "t_bool"
      }
    }
  }
}