{
  "address": "0x1b7c05ea7c025830c8Ce69DDb19F65b6581a8b5F",
  "abi": [
    {
      "anonymous": false,
      "inputs": [
        {
          "indexed": true,
          "internalType": "address",
          "name": "account",
          "type": "address"
        },
        {
          "indexed": false,
          "internalType": "uint256",
          "name": "value",
          "type": "uint256"
        }
      ],
      "name": "Burn",
      "type": "event"
    },
    {
      "anonymous": false,
      "inputs": [
        {
          "indexed": true,
          "internalType": "address",
          "name": "caller",
          "type": "address"
        },
        {
          "indexed": true,
          "internalType": "address",
          "name": "user",
          "type": "address"
        },
        {
          "indexed": false,
          "internalType": "uint256",
          "name": "amount",
          "type": "uint256"
        }
      ],
      "name": "BurnVeDEG",
      "type": "event"
    },
    {
      "anonymous": false,
      "inputs": [
        {
          "indexed": true,
          "internalType": "address",
          "name": "user",
          "type": "address"
        },
        {
          "indexed": true,
          "internalType": "uint256",
          "name": "amount",
          "type": "uint256"
        }
      ],
      "name": "Claimed",
      "type": "event"
    },
    {
      "anonymous": false,
      "inputs": [
        {
          "indexed": false,
          "internalType": "uint256",
          "name": "oldRate",
          "type": "uint256"
        },
        {
          "indexed": false,
          "internalType": "uint256",
          "name": "newRate",
          "type": "uint256"
        }
      ],
      "name": "GenerationRateChanged",
      "type": "event"
    },
    {
      "anonymous": false,
      "inputs": [
        {
          "indexed": false,
          "internalType": "uint256",
          "name": "oldMaxCapRatio",
          "type": "uint256"
        },
        {
          "indexed": false,
          "internalType": "uint256",
          "name": "newMaxCapRatio",
          "type": "uint256"
        }
      ],
      "name": "MaxCapRatioChanged",
      "type": "event"
    },
    {
      "anonymous": false,
      "inputs": [
        {
          "indexed": true,
          "internalType": "address",
          "name": "beneficiary",
          "type": "address"
        },
        {
          "indexed": false,
          "internalType": "uint256",
          "name": "value",
          "type": "uint256"
        }
      ],
      "name": "Mint",
      "type": "event"
    },
    {
      "anonymous": false,
      "inputs": [
        {
          "indexed": true,
          "internalType": "address",
          "name": "previousOwner",
          "type": "address"
        },
        {
          "indexed": true,
          "internalType": "address",
          "name": "newOwner",
          "type": "address"
        }
      ],
      "name": "OwnershipTransferred",
      "type": "event"
    },
    {
      "anonymous": false,
      "inputs": [
        {
          "indexed": false,
          "internalType": "address",
          "name": "account",
          "type": "address"
        }
      ],
      "name": "Paused",
      "type": "event"
    },
    {
      "anonymous": false,
      "inputs": [
        {
          "indexed": true,
          "internalType": "address",
          "name": "user",
          "type": "address"
        },
        {
          "indexed": true,
          "internalType": "uint256",
          "name": "amount",
          "type": "uint256"
        }
      ],
      "name": "Staked",
      "type": "event"
    },
    {
      "anonymous": false,
      "inputs": [
        {
          "indexed": false,
          "internalType": "address",
          "name": "account",
          "type": "address"
        }
      ],
      "name": "Unpaused",
      "type": "event"
    },
    {
      "anonymous": false,
      "inputs": [
        {
          "indexed": true,
          "internalType": "address",
          "name": "user",
          "type": "address"
        },
        {
          "indexed": true,
          "internalType": "uint256",
          "name": "amount",
          "type": "uint256"
        }
      ],
      "name": "Unstaked",
      "type": "event"
    },
    {
      "anonymous": false,
      "inputs": [
        {
          "indexed": false,
          "internalType": "address",
          "name": "newWhiteList",
          "type": "address"
        }
      ],
      "name": "WhiteListAdded",
      "type": "event"
    },
    {
      "anonymous": false,
      "inputs": [
        {
          "indexed": false,
          "internalType": "address",
          "name": "oldWhiteList",
          "type": "address"
        }
      ],
      "name": "WhiteListRemoved",
      "type": "event"
    },
    {
      "inputs": [],
      "name": "SCALE",
      "outputs": [
        {
          "internalType": "uint256",
          "name": "",
          "type": "uint256"
        }
      ],
      "stateMutability": "view",
      "type": "function"
    },
    {
      "inputs": [
        {
          "internalType": "address",
          "name": "_account",
          "type": "address"
        }
      ],
      "name": "addWhitelist",
      "outputs": [],
      "stateMutability": "nonpayable",
      "type": "function"
    },
    {
      "inputs": [
        {
          "internalType": "address",
          "name": "account",
          "type": "address"
        }
      ],
      "name": "balanceOf",
      "outputs": [
        {
          "internalType": "uint256",
          "name": "",
          "type": "uint256"
        }
      ],
      "stateMutability": "view",
      "type": "function"
    },
    {
      "inputs": [
        {
          "internalType": "address",
          "name": "_to",
          "type": "address"
        },
        {
          "internalType": "uint256",
          "name": "_amount",
          "type": "uint256"
        }
      ],
      "name": "burnVeDEG",
      "outputs": [],
      "stateMutability": "nonpayable",
      "type": "function"
    },
    {
      "inputs": [],
      "name": "claim",
      "outputs": [],
      "stateMutability": "nonpayable",
      "type": "function"
    },
    {
      "inputs": [
        {
          "internalType": "address",
          "name": "_user",
          "type": "address"
        }
      ],
      "name": "claimable",
      "outputs": [
        {
          "internalType": "uint256",
          "name": "",
          "type": "uint256"
        }
      ],
      "stateMutability": "view",
      "type": "function"
    },
    {
      "inputs": [],
      "name": "decimals",
      "outputs": [
        {
          "internalType": "uint8",
          "name": "",
          "type": "uint8"
        }
      ],
      "stateMutability": "view",
      "type": "function"
    },
    {
      "inputs": [],
      "name": "degis",
      "outputs": [
        {
          "internalType": "contract IERC20",
          "name": "",
          "type": "address"
        }
      ],
      "stateMutability": "view",
      "type": "function"
    },
    {
      "inputs": [
        {
          "internalType": "uint256",
          "name": "_amount",
          "type": "uint256"
        }
      ],
      "name": "deposit",
      "outputs": [],
      "stateMutability": "nonpayable",
      "type": "function"
    },
    {
      "inputs": [
        {
          "internalType": "uint256",
          "name": "_amount",
          "type": "uint256"
        }
      ],
      "name": "depositMaxTime",
      "outputs": [],
      "stateMutability": "nonpayable",
      "type": "function"
    },
    {
      "inputs": [],
      "name": "farmingPool",
      "outputs": [
        {
          "internalType": "contract IFarmingPool",
          "name": "",
          "type": "address"
        }
      ],
      "stateMutability": "view",
      "type": "function"
    },
    {
      "inputs": [],
      "name": "generationRate",
      "outputs": [
        {
          "internalType": "uint256",
          "name": "",
          "type": "uint256"
        }
      ],
      "stateMutability": "view",
      "type": "function"
    },
    {
      "inputs": [
        {
          "internalType": "address",
          "name": "_degis",
          "type": "address"
        },
        {
          "internalType": "address",
          "name": "_farmingPool",
          "type": "address"
        }
      ],
      "name": "initialize",
      "outputs": [],
      "stateMutability": "nonpayable",
      "type": "function"
    },
    {
      "inputs": [],
      "name": "maxCapRatio",
      "outputs": [
        {
          "internalType": "uint256",
          "name": "",
          "type": "uint256"
        }
      ],
      "stateMutability": "view",
      "type": "function"
    },
    {
      "inputs": [],
      "name": "name",
      "outputs": [
        {
          "internalType": "string",
          "name": "",
          "type": "string"
        }
      ],
      "stateMutability": "view",
      "type": "function"
    },
    {
      "inputs": [],
      "name": "owner",
      "outputs": [
        {
          "internalType": "address",
          "name": "",
          "type": "address"
        }
      ],
      "stateMutability": "view",
      "type": "function"
    },
    {
      "inputs": [],
      "name": "pause",
      "outputs": [],
      "stateMutability": "nonpayable",
      "type": "function"
    },
    {
      "inputs": [],
      "name": "paused",
      "outputs": [
        {
          "internalType": "bool",
          "name": "",
          "type": "bool"
        }
      ],
      "stateMutability": "view",
      "type": "function"
    },
    {
      "inputs": [
        {
          "internalType": "address",
          "name": "_account",
          "type": "address"
        }
      ],
      "name": "removeWhitelist",
      "outputs": [],
      "stateMutability": "nonpayable",
      "type": "function"
    },
    {
      "inputs": [],
      "name": "renounceOwnership",
      "outputs": [],
      "stateMutability": "nonpayable",
      "type": "function"
    },
    {
      "inputs": [
        {
          "internalType": "uint256",
          "name": "_generationRate",
          "type": "uint256"
        }
      ],
      "name": "setGenerationRate",
      "outputs": [],
      "stateMutability": "nonpayable",
      "type": "function"
    },
    {
      "inputs": [
        {
          "internalType": "uint256",
          "name": "_maxCapRatio",
          "type": "uint256"
        }
      ],
      "name": "setMaxCapRatio",
      "outputs": [],
      "stateMutability": "nonpayable",
      "type": "function"
    },
    {
      "inputs": [],
      "name": "symbol",
      "outputs": [
        {
          "internalType": "string",
          "name": "",
          "type": "string"
        }
      ],
      "stateMutability": "view",
      "type": "function"
    },
    {
      "inputs": [],
      "name": "totalSupply",
      "outputs": [
        {
          "internalType": "uint256",
          "name": "",
          "type": "uint256"
        }
      ],
      "stateMutability": "view",
      "type": "function"
    },
    {
      "inputs": [
        {
          "internalType": "address",
          "name": "newOwner",
          "type": "address"
        }
      ],
      "name": "transferOwnership",
      "outputs": [],
      "stateMutability": "nonpayable",
      "type": "function"
    },
    {
      "inputs": [],
      "name": "unpause",
      "outputs": [],
      "stateMutability": "nonpayable",
      "type": "function"
    },
    {
      "inputs": [
        {
          "internalType": "address",
          "name": "",
          "type": "address"
        }
      ],
      "name": "users",
      "outputs": [
        {
          "internalType": "uint256",
          "name": "amount",
          "type": "uint256"
        },
        {
          "internalType": "uint256",
          "name": "lastRelease",
          "type": "uint256"
        },
        {
          "internalType": "uint256",
          "name": "amountLocked",
          "type": "uint256"
        },
        {
          "internalType": "uint256",
          "name": "lockUntil",
          "type": "uint256"
        }
      ],
      "stateMutability": "view",
      "type": "function"
    },
    {
      "inputs": [
        {
          "internalType": "uint256",
          "name": "_amount",
          "type": "uint256"
        }
      ],
      "name": "withdraw",
      "outputs": [],
      "stateMutability": "nonpayable",
      "type": "function"
    },
    {
      "inputs": [],
      "name": "withdrawLocked",
      "outputs": [],
      "stateMutability": "nonpayable",
      "type": "function"
    }
  ],
  "transactionHash": "0xeff9c292a7bd9857c0bfe1635842386c8bdc0fcc5b4aa0b8d93bf5e382802b81",
  "args": [],
  "numDeployments": 1,
  "solcInputHash": "ab59d223be6f5918d41c0688a3022c33",
  "bytecode": "0x608060405234801561001057600080fd5b50612372806100206000396000f3fe608060405234801561001057600080fd5b50600436106101cf5760003560e01c806378c8cda711610104578063ae4210b0116100a2578063d75aca1911610071578063d75aca19146103bb578063eced5526146103ce578063f2fde38b146103dd578063f80f5dd5146103f057600080fd5b8063ae4210b01461037a578063b6b55f251461038d578063b93dd6ad146103a0578063d135cc4b146103b357600080fd5b80638456cb59116100de5780638456cb591461030c5780638da5cb5b1461031457806395d89b411461032d578063a87430ba1461033557600080fd5b806378c8cda7146102dd5780637b196fbc146102f05780637b1ba2501461030357600080fd5b8063402914f5116101715780635c975abb1161014b5780635c975abb1461029057806370a08231146102a3578063715018a6146102cc57806374819f4a146102d457600080fd5b8063402914f514610262578063485cc955146102755780634e71d92d1461028857600080fd5b806329fd2007116101ad57806329fd2007146102185780632e1a7d4d14610238578063313ce5671461024b5780633f4ba83a1461025a57600080fd5b806306fdde03146101d457806318160ddd146101f2578063282a112914610203575b600080fd5b6101dc610403565b6040516101e99190611889565b60405180910390f35b60cb545b6040516101e991906118a2565b6102166102113660046118c8565b610495565b005b60fc5461022b906001600160a01b031681565b6040516101e99190611919565b6102166102463660046118c8565b610528565b60126040516101e99190611930565b610216610653565b6101f6610270366004611952565b610687565b610216610283366004611973565b6107a2565b610216610916565b60975460ff166040516101e991906119b8565b6101f66102b1366004611952565b6001600160a01b0316600090815260c9602052604090205490565b61021661099d565b6101f660fe5481565b6102166102eb366004611952565b6109d1565b6102166102fe3660046118c8565b610a57565b6101f660ff5481565b610216610b59565b6033546001600160a01b03166040516101e991906119cf565b6101dc610b8b565b61036a610343366004611952565b60fb6020526000908152604090208054600182015460028301546003909301549192909184565b6040516101e994939291906119dd565b610216610388366004611a1b565b610b9a565b61021661039b3660046118c8565b610c23565b6102166103ae3660046118c8565b610d48565b610216610dd2565b60fd5461022b906001600160a01b031681565b6101f6670de0b6b3a764000081565b6102166103eb366004611952565b610eef565b6102166103fe366004611952565b610f4b565b606060cc805461041290611a64565b80601f016020809104026020016040519081016040528092919081815260200182805461043e90611a64565b801561048b5780601f106104605761010080835404028352916020019161048b565b820191906000526020600020905b81548152906001019060200180831161046e57829003601f168201915b5050505050905090565b6033546001600160a01b031633146104c85760405162461bcd60e51b81526004016104bf90611ac3565b60405180910390fd5b600081116104e85760405162461bcd60e51b81526004016104bf90611b2d565b7fe5f68083dea62da883cd798293e1c21d050b1fb0d77ef46e71ac77e5bab3533460ff548260405161051b929190611b3d565b60405180910390a160ff55565b6002606554141561054b5760405162461bcd60e51b81526004016104bf90611b8a565b600260655560975460ff16156105735760405162461bcd60e51b81526004016104bf90611bcc565b600081116105935760405162461bcd60e51b81526004016104bf90611c34565b33600090815260fb60205260409020548111156105c25760405162461bcd60e51b81526004016104bf90611c76565b33600090815260fb6020526040812042600182015580548392906105e7908490611c9c565b909155505060fe5433600090815260fb6020526040812060020154909161060d91611cb3565b33600090815260c960205260409020546106279190611c9c565b90506106333382610fc9565b60fc5461064a906001600160a01b031633846110c3565b50506001606555565b6033546001600160a01b0316331461067d5760405162461bcd60e51b81526004016104bf90611ac3565b610685611146565b565b60006001600160a01b0382166106af5760405162461bcd60e51b81526004016104bf90611d04565b6001600160a01b038216600090815260fb60209081526040808320815160808101835281548152600182015493810184905260028201549281019290925260030154606082015291906107029042611c9c565b90506000610721836000015160ff548461071c9190611cb3565b6111ac565b90506000610744866001600160a01b0316600090815260c9602052604090205490565b9050600060fe54856000015161075a9190611cb3565b905080821015610795578061076f8484611d14565b111561078a5761077f8282611c9c565b979650505050505050565b509095945050505050565b5060009695505050505050565b600054610100900460ff166107bd5760005460ff16156107c1565b303b155b6107dd5760405162461bcd60e51b81526004016104bf90611d84565b600054610100900460ff161580156107ff576000805461ffff19166101011790555b6001600160a01b0383166108255760405162461bcd60e51b81526004016104bf90611d04565b6108996040518060400160405280601381526020017f566f746520457363726f776564204465676973000000000000000000000000008152506040518060400160405280600581526020017f76654445470000000000000000000000000000000000000000000000000000008152506111e9565b6108a1611226565b6108a9611255565b6108b161127c565b670de0b6b3a764000060ff55606460fe5560fc80546001600160a01b0380861673ffffffffffffffffffffffffffffffffffffffff199283161790925560fd8054928516929091169190911790558015610911576000805461ff00191690555b505050565b600260655414156109395760405162461bcd60e51b81526004016104bf90611b8a565b600260655560975460ff16156109615760405162461bcd60e51b81526004016104bf90611bcc565b33600090815260fb602052604090205461098d5760405162461bcd60e51b81526004016104bf90611dc6565b610996336112af565b6001606555565b6033546001600160a01b031633146109c75760405162461bcd60e51b81526004016104bf90611ac3565b6106856000611321565b6033546001600160a01b031633146109fb5760405162461bcd60e51b81526004016104bf90611ac3565b6001600160a01b0381166000908152610100602052604090819020805460ff19169055517fdb0d54f6e7ff4a52bdc49b4c8d9ff245f409fee25c2c0a0a72ece14e2ddf4cfc90610a4c9083906119cf565b60405180910390a150565b60026065541415610a7a5760405162461bcd60e51b81526004016104bf90611b8a565b600260655560975460ff1615610aa25760405162461bcd60e51b81526004016104bf90611bcc565b60008111610ac25760405162461bcd60e51b81526004016104bf90611e08565b600060ff54670de0b6b3a764000060fe54610add9190611cb3565b610ae79190611e2e565b33600090815260fb6020526040812060020180549293508492909190610b0e908490611d14565b90915550610b1f9050816002611cb3565b610b299042611d14565b33600081815260fb602052604090206003019190915560fc5461064a916001600160a01b03909116903085611380565b6033546001600160a01b03163314610b835760405162461bcd60e51b81526004016104bf90611ac3565b6106856113a7565b606060cd805461041290611a64565b336000908152610100602052604090205460ff16610bca5760405162461bcd60e51b81526004016104bf90611e74565b610bd48282610fc9565b816001600160a01b0316336001600160a01b03167f84c383384f51b3d0e13f44451483837016049c1ee070bdaabf204c9fe1b74b1383604051610c1791906118a2565b60405180910390a35050565b60026065541415610c465760405162461bcd60e51b81526004016104bf90611b8a565b600260655560975460ff1615610c6e5760405162461bcd60e51b81526004016104bf90611bcc565b33328114610caf576001600160a01b0381166000908152610100602052604090205460ff16610caf5760405162461bcd60e51b81526004016104bf90611e74565b60008211610ccf5760405162461bcd60e51b81526004016104bf90611e08565b33600090815260fb602052604090205415610d1757610ced336112af565b33600090815260fb602052604081208054849290610d0c908490611d14565b90915550610d309050565b33600090815260fb602052604090204260018201558290555b60fc5461064a906001600160a01b0316333085611380565b6033546001600160a01b03163314610d725760405162461bcd60e51b81526004016104bf90611ac3565b60008111610d925760405162461bcd60e51b81526004016104bf90611edc565b7f62dddf41445412836e2d6efb42e6554a3ae782ae5d6400cc73dc641198da053a60fe5482604051610dc5929190611b3d565b60405180910390a160fe55565b60026065541415610df55760405162461bcd60e51b81526004016104bf90611b8a565b600260655560975460ff1615610e1d5760405162461bcd60e51b81526004016104bf90611bcc565b33600090815260fb6020908152604091829020825160808101845281548152600182015492810192909252600281015492820183905260030154606082015290610e795760405162461bcd60e51b81526004016104bf90611f1e565b8060600151421015610e9d5760405162461bcd60e51b81526004016104bf90611f60565b33600081815260fb60205260408082206002810183905560030191909155820151610ec89190610fc9565b604081015160fc54610ee7916001600160a01b039091169033906110c3565b506001606555565b6033546001600160a01b03163314610f195760405162461bcd60e51b81526004016104bf90611ac3565b6001600160a01b038116610f3f5760405162461bcd60e51b81526004016104bf90611fc8565b610f4881611321565b50565b6033546001600160a01b03163314610f755760405162461bcd60e51b81526004016104bf90611ac3565b6001600160a01b0381166000908152610100602052604090819020805460ff19166001179055517fbf309892cce19064e6d63ba3339f893b199c8cb5041fc6731702cb18e805d29190610a4c9083906119cf565b6001600160a01b038216610fef5760405162461bcd60e51b81526004016104bf90612030565b6001600160a01b038216600090815260c96020526040902054818110156110285760405162461bcd60e51b81526004016104bf90612098565b6001600160a01b038316600090815260c960205260408120838303905560cb8054849290611057908490611c9c565b92505081905550826001600160a01b03167fcc16f5dbb4873280815c1ee09dbd06736cffcc184412cf7a71a0fdb75d397ca58360405161109791906118a2565b60405180910390a26001600160a01b038316600090815260c960205260409020546109119084906113ff565b6109118363a9059cbb60e01b84846040516024016110e29291906120a8565b60408051601f198184030181529190526020810180517bffffffffffffffffffffffffffffffffffffffffffffffffffffffff167fffffffff0000000000000000000000000000000000000000000000000000000090931692909217909152611480565b60975460ff166111685760405162461bcd60e51b81526004016104bf906120e8565b6097805460ff191690557f5db9ee0a495bf2e6ff9c91a7834c1ba4fdd244a5e8aa4e537bd38aeae4b073aa335b6040516111a291906119cf565b60405180910390a1565b6000670de0b6b3a76400006111c2600282611e2e565b6111cc8486611cb3565b6111d69190611d14565b6111e09190611e2e565b90505b92915050565b600054610100900460ff166112105760405162461bcd60e51b81526004016104bf90612150565b61121861150f565b6112228282611536565b5050565b600054610100900460ff1661124d5760405162461bcd60e51b81526004016104bf90612150565b610685611584565b600054610100900460ff166109965760405162461bcd60e51b81526004016104bf90612150565b600054610100900460ff166112a35760405162461bcd60e51b81526004016104bf90612150565b6097805460ff19169055565b60006112ba82610687565b6001600160a01b038316600090815260fb6020526040902042600190910155905080156112225760405181906001600160a01b038416907fd8138f8a3f377c5259ca548e70e4c2de94f129f5a11036a15b69513cba2b426a90600090a361122282826115b4565b603380546001600160a01b0383811673ffffffffffffffffffffffffffffffffffffffff19831681179093556040519116919082907f8be0079c531659141344cd1fd0a4f28419497f9722a3daafe3b4186f6b6457e090600090a35050565b6113a1846323b872dd60e01b8585856040516024016110e293929190612160565b50505050565b60975460ff16156113ca5760405162461bcd60e51b81526004016104bf90611bcc565b6097805460ff191660011790557f62e78cea01bee320cd4e420270b5ea74000d11b0c9f74754ebdbfc544b05a2586111953390565b60fd546040517fd54465180000000000000000000000000000000000000000000000000000000081526001600160a01b039091169063d54465189061144a90859085906004016120a8565b600060405180830381600087803b15801561146457600080fd5b505af1158015611478573d6000803e3d6000fd5b505050505050565b60006114d5826040518060400160405280602081526020017f5361666545524332303a206c6f772d6c6576656c2063616c6c206661696c6564815250856001600160a01b03166116859092919063ffffffff16565b80519091501561091157808060200190518101906114f3919061219b565b6109115760405162461bcd60e51b81526004016104bf90612214565b600054610100900460ff166106855760405162461bcd60e51b81526004016104bf90612150565b600054610100900460ff1661155d5760405162461bcd60e51b81526004016104bf90612150565b81516115709060cc906020850190611792565b5080516109119060cd906020840190611792565b600054610100900460ff166115ab5760405162461bcd60e51b81526004016104bf90612150565b61068533611321565b6001600160a01b0382166115da5760405162461bcd60e51b81526004016104bf90612256565b8060cb60008282546115ec9190611d14565b90915550506001600160a01b038216600090815260c9602052604081208054839290611619908490611d14565b92505081905550816001600160a01b03167f0f6798a560793a54c3bcfe86a93cde1e73087d944c0ea20544137d41213968858260405161165991906118a2565b60405180910390a26001600160a01b038216600090815260c960205260409020546112229083906113ff565b6060611694848460008561169e565b90505b9392505050565b6060824710156116c05760405162461bcd60e51b81526004016104bf906122be565b843b6116de5760405162461bcd60e51b81526004016104bf90612300565b600080866001600160a01b031685876040516116fa9190612332565b60006040518083038185875af1925050503d8060008114611737576040519150601f19603f3d011682016040523d82523d6000602084013e61173c565b606091505b509150915061174c828286611759565b925050505b949350505050565b60608315611768575081611697565b8251156117785782518084602001fd5b8160405162461bcd60e51b81526004016104bf9190611889565b82805461179e90611a64565b90600052602060002090601f0160209004810192826117c05760008555611806565b82601f106117d957805160ff1916838001178555611806565b82800160010185558215611806579182015b828111156118065782518255916020019190600101906117eb565b50611812929150611816565b5090565b5b808211156118125760008155600101611817565b60005b8381101561184657818101518382015260200161182e565b838111156113a15750506000910152565b6000611861825190565b80845260208401935061187881856020860161182b565b601f01601f19169290920192915050565b602080825281016111e08184611857565b805b82525050565b602081016111e3828461189a565b805b8114610f4857600080fd5b80356111e3816118b0565b6000602082840312156118dd576118dd600080fd5b600061175184846118bd565b60006001600160a01b0382166111e3565b60006111e3826118e9565b60006111e3826118fa565b61189c81611905565b602081016111e38284611910565b60ff811661189c565b602081016111e38284611927565b6118b2816118e9565b80356111e38161193e565b60006020828403121561196757611967600080fd5b60006117518484611947565b6000806040838503121561198957611989600080fd5b60006119958585611947565b92505060206119a685828601611947565b9150509250929050565b80151561189c565b602081016111e382846119b0565b61189c816118e9565b602081016111e382846119c6565b608081016119eb828761189a565b6119f8602083018661189a565b611a05604083018561189a565b611a12606083018461189a565b95945050505050565b60008060408385031215611a3157611a31600080fd5b6000611a3d8585611947565b92505060206119a6858286016118bd565b634e487b7160e01b600052602260045260246000fd5b600281046001821680611a7857607f821691505b60208210811415611a8b57611a8b611a4e565b50919050565b60208082527f4f776e61626c653a2063616c6c6572206973206e6f7420746865206f776e657291019081525b60200190565b602080825281016111e381611a91565b60288152602081017f47656e65726174696f6e20726174652073686f756c642062652067726561746581527f72207468616e2030000000000000000000000000000000000000000000000000602082015290505b60400190565b602080825281016111e381611ad3565b60408101611b4b828561189a565b611697602083018461189a565b601f8152602081017f5265656e7472616e637947756172643a207265656e7472616e742063616c6c0081529050611abd565b602080825281016111e381611b58565b60108152602081017f5061757361626c653a207061757365640000000000000000000000000000000081529050611abd565b602080825281016111e381611b9a565b60228152602081017f416d6f756e742073686f756c642062652067726561746572207468616e207a6581527f726f00000000000000000000000000000000000000000000000000000000000060208201529050611b27565b602080825281016111e381611bdc565b60128152602081017f4e6f7420656e6f7567682062616c616e6365000000000000000000000000000081529050611abd565b602080825281016111e381611c44565b634e487b7160e01b600052601160045260246000fd5b600082821015611cae57611cae611c86565b500390565b6000816000190483118215151615611ccd57611ccd611c86565b500290565b600c8152602081017f7a65726f2061646472657373000000000000000000000000000000000000000081529050611abd565b602080825281016111e381611cd2565b60008219821115611d2757611d27611c86565b500190565b602e8152602081017f496e697469616c697a61626c653a20636f6e747261637420697320616c72656181527f647920696e697469616c697a656400000000000000000000000000000000000060208201529050611b27565b602080825281016111e381611d2c565b60118152602081017f7573657220686173206e6f207374616b6500000000000000000000000000000081529050611abd565b602080825281016111e381611d94565b600b8152602081017f5a65726f20616d6f756e7400000000000000000000000000000000000000000081529050611abd565b602080825281016111e381611dd6565b634e487b7160e01b600052601260045260246000fd5b600082611e3d57611e3d611e18565b500490565b600f8152602081017f4e6f742077686974656c6973746564000000000000000000000000000000000081529050611abd565b602080825281016111e381611e42565b60298152602081017f4d61782063617020726174696f2073686f756c6420626520677265617465722081527f7468616e207a65726f000000000000000000000000000000000000000000000060208201529050611b27565b602080825281016111e381611e84565b60168152602081017f7573657220686173206e6f206c6f636b6564204445470000000000000000000081529050611abd565b602080825281016111e381611eec565b601a8152602081017f6c6f636b65642074696d6520686173206e6f742070617373656400000000000081529050611abd565b602080825281016111e381611f2e565b60268152602081017f4f776e61626c653a206e6577206f776e657220697320746865207a65726f206181527f646472657373000000000000000000000000000000000000000000000000000060208201529050611b27565b602080825281016111e381611f70565b60218152602081017f45524332303a206275726e2066726f6d20746865207a65726f2061646472657381527f730000000000000000000000000000000000000000000000000000000000000060208201529050611b27565b602080825281016111e381611fd8565b60228152602081017f45524332303a206275726e20616d6f756e7420657863656564732062616c616e81527f636500000000000000000000000000000000000000000000000000000000000060208201529050611b27565b602080825281016111e381612040565b60408101611b4b82856119c6565b60148152602081017f5061757361626c653a206e6f742070617573656400000000000000000000000081529050611abd565b602080825281016111e3816120b6565b602b8152602081017f496e697469616c697a61626c653a20636f6e7472616374206973206e6f74206981527f6e697469616c697a696e6700000000000000000000000000000000000000000060208201529050611b27565b602080825281016111e3816120f8565b6060810161216e82866119c6565b61217b60208301856119c6565b611751604083018461189a565b8015156118b2565b80516111e381612188565b6000602082840312156121b0576121b0600080fd5b60006117518484612190565b602a8152602081017f5361666545524332303a204552433230206f7065726174696f6e20646964206e81527f6f7420737563636565640000000000000000000000000000000000000000000060208201529050611b27565b602080825281016111e3816121bc565b601f8152602081017f45524332303a206d696e7420746f20746865207a65726f20616464726573730081529050611abd565b602080825281016111e381612224565b60268152602081017f416464726573733a20696e73756666696369656e742062616c616e636520666f81527f722063616c6c000000000000000000000000000000000000000000000000000060208201529050611b27565b602080825281016111e381612266565b601d8152602081017f416464726573733a2063616c6c20746f206e6f6e2d636f6e747261637400000081529050611abd565b602080825281016111e3816122ce565b600061231a825190565b61232881856020860161182b565b9290920192915050565b6111e3818361231056fea2646970667358221220ec67837fd8e28c804804f223dd1bb827f1901913c5a4e9aab00e90df5229495c64736f6c634300080a0033",
  "devdoc": {
    "kind": "dev",
    "methods": {
      "balanceOf(address)": {
        "details": "See {IERC20-balanceOf}."
      },
      "claimable(address)": {
        "params": {
          "_user": "User address"
        }
      },
      "decimals()": {
        "details": "Returns the number of decimals used to get its user representation. For example, if `decimals` equals `2`, a balance of `505` tokens should be displayed to a user as `5.05` (`505 / 10 ** 2`). Tokens usually opt for a value of 18, imitating the relationship between Ether and Wei. This is the value {ERC20} uses, unless this function is overridden; NOTE: This information is only used for _display_ purposes: it in no way affects any of the arithmetic of the contract, including {IERC20-balanceOf} and {IERC20-transfer}."
      },
      "deposit(uint256)": {
        "params": {
          "_amount": "Amount to deposit"
        }
      },
      "name()": {
        "details": "Returns the name of the token."
      },
      "owner()": {
        "details": "Returns the address of the current owner."
      },
      "paused()": {
        "details": "Returns true if the contract is paused, and false otherwise."
      },
      "renounceOwnership()": {
        "details": "Leaves the contract without owner. It will not be possible to call `onlyOwner` functions anymore. Can only be called by the current owner. NOTE: Renouncing ownership will leave the contract without an owner, thereby removing any functionality that is only available to the owner."
      },
      "setGenerationRate(uint256)": {
        "params": {
          "_generationRate": "the new generation rate"
        }
      },
      "setMaxCapRatio(uint256)": {
        "params": {
          "_maxCapRatio": "the new max ratio"
        }
      },
      "symbol()": {
        "details": "Returns the symbol of the token, usually a shorter version of the name."
      },
      "totalSupply()": {
        "details": "See {IERC20-totalSupply}."
      },
      "transferOwnership(address)": {
        "details": "Transfers ownership of the contract to a new account (`newOwner`). Can only be called by the current owner."
      },
      "withdraw(uint256)": {
        "details": "User will lose all veDEG once he withdrawed",
        "params": {
          "_amount": "Amount to withdraw"
        }
      }
    },
    "title": "Vote Escrowed Degis",
    "version": 1
  },
  "userdoc": {
    "kind": "user",
    "methods": {
      "addWhitelist(address)": {
        "notice": "Add a new whitelist address"
      },
      "claim()": {
        "notice": "claims accumulated veDEG"
      },
      "claimable(address)": {
        "notice": "Calculate the amount of veDEG that can be claimed by user"
      },
      "deposit(uint256)": {
        "notice": "Depisit degis for veDEG"
      },
      "removeWhitelist(address)": {
        "notice": "Remove a new whitelist address"
      },
      "setGenerationRate(uint256)": {
        "notice": "Set generationRate"
      },
      "setMaxCapRatio(uint256)": {
        "notice": "Set maxCap ratio"
      },
      "withdraw(uint256)": {
        "notice": "Withdraw degis token"
      }
    },
    "notice": "The staking contract for DEG -> veDEG         veDEG:            - Boosting the farming reward            - Governance            - Participate in Initial Liquidity Matching (naughty price)            - etc.         If you stake degis, you generate veDEG at the current `generationRate` until you reach `maxCap`         If you unstake any amount of degis, you will lose all of your veDEG tokens         There is also an option that you lock your DEG for the max time         and get the maximum veDEG balance immediately.         !! Attention !!         If you stake DEG for the max time for more than once, the lockUntil timestamp will         be updated to the latest one.",
    "version": 1
  },
  "storageLayout": {
    "storage": [
      {
        "astId": 2523,
        "contract": "contracts/governance/VoteEscrowedDegis.sol:VoteEscrowedDegis",
        "label": "_initialized",
        "offset": 0,
        "slot": "0",
        "type": "t_bool"
      },
      {
        "astId": 2526,
        "contract": "contracts/governance/VoteEscrowedDegis.sol:VoteEscrowedDegis",
        "label": "_initializing",
        "offset": 1,
        "slot": "0",
        "type": "t_bool"
      },
      {
        "astId": 3044,
        "contract": "contracts/governance/VoteEscrowedDegis.sol:VoteEscrowedDegis",
        "label": "__gap",
        "offset": 0,
        "slot": "1",
        "type": "t_array(t_uint256)50_storage"
      },
      {
        "astId": 2403,
        "contract": "contracts/governance/VoteEscrowedDegis.sol:VoteEscrowedDegis",
        "label": "_owner",
        "offset": 0,
        "slot": "51",
        "type": "t_address"
      },
      {
        "astId": 2515,
        "contract": "contracts/governance/VoteEscrowedDegis.sol:VoteEscrowedDegis",
        "label": "__gap",
        "offset": 0,
        "slot": "52",
        "type": "t_array(t_uint256)49_storage"
      },
      {
        "astId": 2715,
        "contract": "contracts/governance/VoteEscrowedDegis.sol:VoteEscrowedDegis",
        "label": "_status",
        "offset": 0,
        "slot": "101",
        "type": "t_uint256"
      },
      {
        "astId": 2759,
        "contract": "contracts/governance/VoteEscrowedDegis.sol:VoteEscrowedDegis",
        "label": "__gap",
        "offset": 0,
        "slot": "102",
        "type": "t_array(t_uint256)49_storage"
      },
      {
        "astId": 2611,
        "contract": "contracts/governance/VoteEscrowedDegis.sol:VoteEscrowedDegis",
        "label": "_paused",
        "offset": 0,
        "slot": "151",
        "type": "t_bool"
      },
      {
        "astId": 2700,
        "contract": "contracts/governance/VoteEscrowedDegis.sol:VoteEscrowedDegis",
        "label": "__gap",
        "offset": 0,
        "slot": "152",
        "type": "t_array(t_uint256)49_storage"
      },
      {
        "astId": 13779,
        "contract": "contracts/governance/VoteEscrowedDegis.sol:VoteEscrowedDegis",
        "label": "_balances",
        "offset": 0,
        "slot": "201",
        "type": "t_mapping(t_address,t_uint256)"
      },
      {
        "astId": 13785,
        "contract": "contracts/governance/VoteEscrowedDegis.sol:VoteEscrowedDegis",
        "label": "_allowances",
        "offset": 0,
        "slot": "202",
        "type": "t_mapping(t_address,t_mapping(t_address,t_uint256))"
      },
      {
        "astId": 13787,
        "contract": "contracts/governance/VoteEscrowedDegis.sol:VoteEscrowedDegis",
        "label": "_totalSupply",
        "offset": 0,
        "slot": "203",
        "type": "t_uint256"
      },
      {
        "astId": 13789,
        "contract": "contracts/governance/VoteEscrowedDegis.sol:VoteEscrowedDegis",
        "label": "_name",
        "offset": 0,
        "slot": "204",
        "type": "t_string_storage"
      },
      {
        "astId": 13791,
        "contract": "contracts/governance/VoteEscrowedDegis.sol:VoteEscrowedDegis",
        "label": "_symbol",
        "offset": 0,
        "slot": "205",
        "type": "t_string_storage"
      },
      {
        "astId": 14030,
        "contract": "contracts/governance/VoteEscrowedDegis.sol:VoteEscrowedDegis",
        "label": "__gap",
        "offset": 0,
        "slot": "206",
        "type": "t_array(t_uint256)45_storage"
      },
      {
        "astId": 14076,
        "contract": "contracts/governance/VoteEscrowedDegis.sol:VoteEscrowedDegis",
        "label": "users",
        "offset": 0,
        "slot": "251",
        "type": "t_mapping(t_address,t_struct(UserInfo)14071_storage)"
      },
      {
        "astId": 14079,
        "contract": "contracts/governance/VoteEscrowedDegis.sol:VoteEscrowedDegis",
        "label": "degis",
        "offset": 0,
        "slot": "252",
        "type": "t_contract(IERC20)4647"
      },
      {
        "astId": 14082,
        "contract": "contracts/governance/VoteEscrowedDegis.sol:VoteEscrowedDegis",
        "label": "farmingPool",
        "offset": 0,
        "slot": "253",
        "type": "t_contract(IFarmingPool)12984"
      },
      {
        "astId": 14084,
        "contract": "contracts/governance/VoteEscrowedDegis.sol:VoteEscrowedDegis",
        "label": "maxCapRatio",
        "offset": 0,
        "slot": "254",
        "type": "t_uint256"
      },
      {
        "astId": 14086,
        "contract": "contracts/governance/VoteEscrowedDegis.sol:VoteEscrowedDegis",
        "label": "generationRate",
        "offset": 0,
        "slot": "255",
        "type": "t_uint256"
      },
      {
        "astId": 14093,
        "contract": "contracts/governance/VoteEscrowedDegis.sol:VoteEscrowedDegis",
        "label": "whitelist",
        "offset": 0,
        "slot": "256",
        "type": "t_mapping(t_address,t_bool)"
      }
    ],
    "types": {
      "t_address": {
        "encoding": "inplace",
        "label": "address",
        "numberOfBytes": "20"
      },
      "t_array(t_uint256)45_storage": {
        "base": "t_uint256",
        "encoding": "inplace",
        "label": "uint256[45]",
        "numberOfBytes": "1440"
      },
      "t_array(t_uint256)49_storage": {
        "base": "t_uint256",
        "encoding": "inplace",
        "label": "uint256[49]",
        "numberOfBytes": "1568"
      },
      "t_array(t_uint256)50_storage": {
        "base": "t_uint256",
        "encoding": "inplace",
        "label": "uint256[50]",
        "numberOfBytes": "1600"
      },
      "t_bool": {
        "encoding": "inplace",
        "label": "bool",
        "numberOfBytes": "1"
      },
      "t_contract(IERC20)4647": {
        "encoding": "inplace",
        "label": "contract IERC20",
        "numberOfBytes": "20"
      },
      "t_contract(IFarmingPool)12984": {
        "encoding": "inplace",
        "label": "contract IFarmingPool",
        "numberOfBytes": "20"
      },
      "t_mapping(t_address,t_bool)": {
        "encoding": "mapping",
        "key": "t_address",
        "label": "mapping(address => bool)",
        "numberOfBytes": "32",
        "value": "t_bool"
      },
      "t_mapping(t_address,t_mapping(t_address,t_uint256))": {
        "encoding": "mapping",
        "key": "t_address",
        "label": "mapping(address => mapping(address => uint256))",
        "numberOfBytes": "32",
        "value": "t_mapping(t_address,t_uint256)"
      },
      "t_mapping(t_address,t_struct(UserInfo)14071_storage)": {
        "encoding": "mapping",
        "key": "t_address",
        "label": "mapping(address => struct VoteEscrowedDegis.UserInfo)",
        "numberOfBytes": "32",
        "value": "t_struct(UserInfo)14071_storage"
      },
      "t_mapping(t_address,t_uint256)": {
        "encoding": "mapping",
        "key": "t_address",
        "label": "mapping(address => uint256)",
        "numberOfBytes": "32",
        "value": "t_uint256"
      },
      "t_string_storage": {
        "encoding": "bytes",
        "label": "string",
        "numberOfBytes": "32"
      },
      "t_struct(UserInfo)14071_storage": {
        "encoding": "inplace",
        "label": "struct VoteEscrowedDegis.UserInfo",
        "members": [
          {
            "astId": 14064,
            "contract": "contracts/governance/VoteEscrowedDegis.sol:VoteEscrowedDegis",
            "label": "amount",
            "offset": 0,
            "slot": "0",
            "type": "t_uint256"
          },
          {
            "astId": 14066,
            "contract": "contracts/governance/VoteEscrowedDegis.sol:VoteEscrowedDegis",
            "label": "lastRelease",
            "offset": 0,
            "slot": "1",
            "type": "t_uint256"
          },
          {
            "astId": 14068,
            "contract": "contracts/governance/VoteEscrowedDegis.sol:VoteEscrowedDegis",
            "label": "amountLocked",
            "offset": 0,
            "slot": "2",
            "type": "t_uint256"
          },
          {
            "astId": 14070,
            "contract": "contracts/governance/VoteEscrowedDegis.sol:VoteEscrowedDegis",
            "label": "lockUntil",
            "offset": 0,
            "slot": "3",
            "type": "t_uint256"
          }
        ],
        "numberOfBytes": "128"
      },
      "t_uint256": {
        "encoding": "inplace",
        "label": "uint256",
        "numberOfBytes": "32"
      }
    }
  }
}