{
  "address": "0xd701EF19D2e2968FBF3E6556b30D783EdF3C4fc4",
  "abi": [
    {
      "inputs": [],
      "stateMutability": "nonpayable",
      "type": "constructor"
    },
    {
      "anonymous": false,
      "inputs": [
        {
          "indexed": true,
          "internalType": "address",
          "name": "previousOwner",
          "type": "address"
        },
        {
          "indexed": true,
          "internalType": "address",
          "name": "newOwner",
          "type": "address"
        }
      ],
      "name": "OwnershipTransferred",
      "type": "event"
    },
    {
      "inputs": [],
      "name": "DegisLottery",
      "outputs": [
        {
          "internalType": "contract IDegisLottery",
          "name": "",
          "type": "address"
        }
      ],
      "stateMutability": "view",
      "type": "function"
    },
    {
      "inputs": [],
      "name": "getRandomNumber",
      "outputs": [],
      "stateMutability": "nonpayable",
      "type": "function"
    },
    {
      "inputs": [],
      "name": "latestLotteryId",
      "outputs": [
        {
          "internalType": "uint256",
          "name": "",
          "type": "uint256"
        }
      ],
      "stateMutability": "view",
      "type": "function"
    },
    {
      "inputs": [],
      "name": "owner",
      "outputs": [
        {
          "internalType": "address",
          "name": "",
          "type": "address"
        }
      ],
      "stateMutability": "view",
      "type": "function"
    },
    {
      "inputs": [],
      "name": "randomResult",
      "outputs": [
        {
          "internalType": "uint256",
          "name": "",
          "type": "uint256"
        }
      ],
      "stateMutability": "view",
      "type": "function"
    },
    {
      "inputs": [],
      "name": "renounceOwnership",
      "outputs": [],
      "stateMutability": "nonpayable",
      "type": "function"
    },
    {
      "inputs": [],
      "name": "seed",
      "outputs": [
        {
          "internalType": "uint256",
          "name": "",
          "type": "uint256"
        }
      ],
      "stateMutability": "view",
      "type": "function"
    },
    {
      "inputs": [
        {
          "internalType": "address",
          "name": "_degisLottery",
          "type": "address"
        }
      ],
      "name": "setLotteryAddress",
      "outputs": [],
      "stateMutability": "nonpayable",
      "type": "function"
    },
    {
      "inputs": [
        {
          "internalType": "address",
          "name": "newOwner",
          "type": "address"
        }
      ],
      "name": "transferOwnership",
      "outputs": [],
      "stateMutability": "nonpayable",
      "type": "function"
    }
  ],
  "transactionHash": "0x882912f7112c7fe6ff32cd1925229089560d8f32fde26856a96d55ee36a0776a",
  "args": [],
  "numDeployments": 1,
  "solcInputHash": "b909dc3452f02a88fc934a14abdf895c",
  "bytecode": "0x608060405234801561001057600080fd5b503361001b81610021565b50610071565b600080546001600160a01b038381166001600160a01b0319831681178455604051919092169283917f8be0079c531659141344cd1fd0a4f28419497f9722a3daafe3b4186f6b6457e09190a35050565b610678806100806000396000f3fe608060405234801561001057600080fd5b50600436106100a35760003560e01c80638da5cb5b11610076578063dbdff2c11161005b578063dbdff2c114610126578063eed8e1ee1461012e578063f2fde38b1461013757600080fd5b80638da5cb5b146100ed578063d581b5b61461010657600080fd5b80632a332b2a146100a857806342619f66146100bd578063715018a6146100dc5780637d94792a146100e4575b600080fd5b6100bb6100b6366004610418565b61014a565b005b6100c660035481565b6040516100d39190610449565b60405180910390f35b6100bb6101bb565b6100c660025481565b6000546001600160a01b03166040516100d39190610460565b600154610119906001600160a01b031681565b6040516100d3919061048d565b6100bb610200565b6100c660045481565b6100bb610145366004610418565b61030c565b3361015d6000546001600160a01b031690565b6001600160a01b03161461018c5760405162461bcd60e51b8152600401610183906104cd565b60405180910390fd5b6001805473ffffffffffffffffffffffffffffffffffffffff19166001600160a01b0392909216919091179055565b336101ce6000546001600160a01b031690565b6001600160a01b0316146101f45760405162461bcd60e51b8152600401610183906104cd565b6101fe6000610377565b565b6001546001600160a01b0316336001600160a01b0316148061022c57506000546001600160a01b031633145b6102485760405162461bcd60e51b81526004016101839061050f565b61271061026760026000815461025d90610535565b91829055506103d4565b6102719190610564565b61027d90612710610578565b600355600154604080517f6be4097c00000000000000000000000000000000000000000000000000000000815290516001600160a01b0390921691636be4097c916004808201926020929091908290030181865afa1580156102e3573d6000803e3d6000fd5b505050506040513d601f19601f8201168201806040525081019061030791906105a1565b600455565b3361031f6000546001600160a01b031690565b6001600160a01b0316146103455760405162461bcd60e51b8152600401610183906104cd565b6001600160a01b03811661036b5760405162461bcd60e51b8152600401610183906105c2565b61037481610377565b50565b600080546001600160a01b0383811673ffffffffffffffffffffffffffffffffffffffff19831681178455604051919092169283917f8be0079c531659141344cd1fd0a4f28419497f9722a3daafe3b4186f6b6457e09190a35050565b60006103e282613039610623565b92915050565b60006001600160a01b0382166103e2565b610402816103e8565b811461037457600080fd5b80356103e2816103f9565b60006020828403121561042d5761042d600080fd5b6000610439848461040d565b949350505050565b805b82525050565b602081016103e28284610441565b610443816103e8565b602081016103e28284610457565b60006103e2826103e8565b60006103e28261046e565b61044381610479565b602081016103e28284610484565b60208082527f4f776e61626c653a2063616c6c6572206973206e6f7420746865206f776e657291019081525b60200190565b602080825281016103e28161049b565b60118152602081017f4f6e6c792044656769734c6f7474657279000000000000000000000000000000815290506104c7565b602080825281016103e2816104dd565b634e487b7160e01b600052601160045260246000fd5b6000600182016105475761054761051f565b5060010190565b634e487b7160e01b600052601260045260246000fd5b6000826105735761057361054e565b500690565b6000821982111561058b5761058b61051f565b500190565b80610402565b80516103e281610590565b6000602082840312156105b6576105b6600080fd5b60006104398484610596565b602080825281016103e281602681527f4f776e61626c653a206e6577206f776e657220697320746865207a65726f206160208201527f6464726573730000000000000000000000000000000000000000000000000000604082015260600190565b600081600019048311821515161561063d5761063d61051f565b50029056fea2646970667358221220275d5e1e28371d16ba452b28458aa3259407da7f8a2330ca446ac876b93f00ac64736f6c634300080d0033",
  "devdoc": {
    "kind": "dev",
    "methods": {
      "renounceOwnership()": {
        "details": "Renouncing ownership will leave the contract without an owner,         thereby removing any functionality that is only available to the owner."
      },
      "setLotteryAddress(address)": {
        "params": {
          "_degisLottery": "address of the PancakeSwap lottery"
        }
      },
      "transferOwnership(address)": {
        "details": "Can only be called by the current owner.",
        "params": {
          "newOwner": "Address of the new owner"
        }
      }
    },
    "version": 1
  },
  "userdoc": {
    "kind": "user",
    "methods": {
      "getRandomNumber()": {
        "notice": "Request randomness from Chainlink VRF"
      },
      "owner()": {
        "notice": "Returns the address of the current owner."
      },
      "renounceOwnership()": {
        "notice": "Leaves the contract without owner. It will not be possible to call         `onlyOwner` functions anymore. Can only be called by the current owner."
      },
      "setLotteryAddress(address)": {
        "notice": "Set the address for the DegisLottery"
      },
      "transferOwnership(address)": {
        "notice": "Transfers ownership of the contract to a new account (`newOwner`)."
      }
    },
    "version": 1
  },
  "storageLayout": {
    "storage": [
      {
        "astId": 35641,
        "contract": "contracts/chainlinkMock/VRFMock.sol:VRFMock",
        "label": "_owner",
        "offset": 0,
        "slot": "0",
        "type": "t_address"
      },
      {
        "astId": 10345,
        "contract": "contracts/chainlinkMock/VRFMock.sol:VRFMock",
        "label": "DegisLottery",
        "offset": 0,
        "slot": "1",
        "type": "t_contract(IDegisLottery)24464"
      },
      {
        "astId": 10347,
        "contract": "contracts/chainlinkMock/VRFMock.sol:VRFMock",
        "label": "seed",
        "offset": 0,
        "slot": "2",
        "type": "t_uint256"
      },
      {
        "astId": 10349,
        "contract": "contracts/chainlinkMock/VRFMock.sol:VRFMock",
        "label": "randomResult",
        "offset": 0,
        "slot": "3",
        "type": "t_uint256"
      },
      {
        "astId": 10351,
        "contract": "contracts/chainlinkMock/VRFMock.sol:VRFMock",
        "label": "latestLotteryId",
        "offset": 0,
        "slot": "4",
        "type": "t_uint256"
      }
    ],
    "types": {
      "t_address": {
        "encoding": "inplace",
        "label": "address",
        "numberOfBytes": "20"
      },
      "t_contract(IDegisLottery)24464": {
        "encoding": "inplace",
        "label": "contract IDegisLottery",
        "numberOfBytes": "20"
      },
      "t_uint256": {
        "encoding": "inplace",
        "label": "uint256",
        "numberOfBytes": "32"
      }
    }
  }
}